{
	"contracts/Implementacion Tokens Ethereum/PlatziTokenV1.sol": {
		"PlatziTokenV1": {
			"abi": [
				{
					"anonymous": false,
					"inputs": [
						{
							"indexed": false,
							"internalType": "address",
							"name": "previousAdmin",
							"type": "address"
						},
						{
							"indexed": false,
							"internalType": "address",
							"name": "newAdmin",
							"type": "address"
						}
					],
					"name": "AdminChanged",
					"type": "event"
				},
				{
					"anonymous": false,
					"inputs": [
						{
							"indexed": true,
							"internalType": "address",
							"name": "owner",
							"type": "address"
						},
						{
							"indexed": true,
							"internalType": "address",
							"name": "spender",
							"type": "address"
						},
						{
							"indexed": false,
							"internalType": "uint256",
							"name": "value",
							"type": "uint256"
						}
					],
					"name": "Approval",
					"type": "event"
				},
				{
					"anonymous": false,
					"inputs": [
						{
							"indexed": true,
							"internalType": "address",
							"name": "beacon",
							"type": "address"
						}
					],
					"name": "BeaconUpgraded",
					"type": "event"
				},
				{
					"anonymous": false,
					"inputs": [
						{
							"indexed": false,
							"internalType": "uint8",
							"name": "version",
							"type": "uint8"
						}
					],
					"name": "Initialized",
					"type": "event"
				},
				{
					"anonymous": false,
					"inputs": [
						{
							"indexed": true,
							"internalType": "address",
							"name": "previousOwner",
							"type": "address"
						},
						{
							"indexed": true,
							"internalType": "address",
							"name": "newOwner",
							"type": "address"
						}
					],
					"name": "OwnershipTransferred",
					"type": "event"
				},
				{
					"anonymous": false,
					"inputs": [
						{
							"indexed": true,
							"internalType": "address",
							"name": "from",
							"type": "address"
						},
						{
							"indexed": true,
							"internalType": "address",
							"name": "to",
							"type": "address"
						},
						{
							"indexed": false,
							"internalType": "uint256",
							"name": "value",
							"type": "uint256"
						}
					],
					"name": "Transfer",
					"type": "event"
				},
				{
					"anonymous": false,
					"inputs": [
						{
							"indexed": true,
							"internalType": "address",
							"name": "implementation",
							"type": "address"
						}
					],
					"name": "Upgraded",
					"type": "event"
				},
				{
					"inputs": [
						{
							"internalType": "address",
							"name": "owner",
							"type": "address"
						},
						{
							"internalType": "address",
							"name": "spender",
							"type": "address"
						}
					],
					"name": "allowance",
					"outputs": [
						{
							"internalType": "uint256",
							"name": "",
							"type": "uint256"
						}
					],
					"stateMutability": "view",
					"type": "function"
				},
				{
					"inputs": [
						{
							"internalType": "address",
							"name": "spender",
							"type": "address"
						},
						{
							"internalType": "uint256",
							"name": "amount",
							"type": "uint256"
						}
					],
					"name": "approve",
					"outputs": [
						{
							"internalType": "bool",
							"name": "",
							"type": "bool"
						}
					],
					"stateMutability": "nonpayable",
					"type": "function"
				},
				{
					"inputs": [
						{
							"internalType": "address",
							"name": "account",
							"type": "address"
						}
					],
					"name": "balanceOf",
					"outputs": [
						{
							"internalType": "uint256",
							"name": "",
							"type": "uint256"
						}
					],
					"stateMutability": "view",
					"type": "function"
				},
				{
					"inputs": [],
					"name": "decimals",
					"outputs": [
						{
							"internalType": "uint8",
							"name": "",
							"type": "uint8"
						}
					],
					"stateMutability": "view",
					"type": "function"
				},
				{
					"inputs": [
						{
							"internalType": "address",
							"name": "spender",
							"type": "address"
						},
						{
							"internalType": "uint256",
							"name": "subtractedValue",
							"type": "uint256"
						}
					],
					"name": "decreaseAllowance",
					"outputs": [
						{
							"internalType": "bool",
							"name": "",
							"type": "bool"
						}
					],
					"stateMutability": "nonpayable",
					"type": "function"
				},
				{
					"inputs": [
						{
							"internalType": "address",
							"name": "spender",
							"type": "address"
						},
						{
							"internalType": "uint256",
							"name": "addedValue",
							"type": "uint256"
						}
					],
					"name": "increaseAllowance",
					"outputs": [
						{
							"internalType": "bool",
							"name": "",
							"type": "bool"
						}
					],
					"stateMutability": "nonpayable",
					"type": "function"
				},
				{
					"inputs": [
						{
							"internalType": "uint256",
							"name": "initialSupply",
							"type": "uint256"
						}
					],
					"name": "initialize",
					"outputs": [],
					"stateMutability": "nonpayable",
					"type": "function"
				},
				{
					"inputs": [],
					"name": "name",
					"outputs": [
						{
							"internalType": "string",
							"name": "",
							"type": "string"
						}
					],
					"stateMutability": "view",
					"type": "function"
				},
				{
					"inputs": [],
					"name": "owner",
					"outputs": [
						{
							"internalType": "address",
							"name": "",
							"type": "address"
						}
					],
					"stateMutability": "view",
					"type": "function"
				},
				{
					"inputs": [],
					"name": "proxiableUUID",
					"outputs": [
						{
							"internalType": "bytes32",
							"name": "",
							"type": "bytes32"
						}
					],
					"stateMutability": "view",
					"type": "function"
				},
				{
					"inputs": [],
					"name": "renounceOwnership",
					"outputs": [],
					"stateMutability": "nonpayable",
					"type": "function"
				},
				{
					"inputs": [],
					"name": "symbol",
					"outputs": [
						{
							"internalType": "string",
							"name": "",
							"type": "string"
						}
					],
					"stateMutability": "view",
					"type": "function"
				},
				{
					"inputs": [],
					"name": "totalSupply",
					"outputs": [
						{
							"internalType": "uint256",
							"name": "",
							"type": "uint256"
						}
					],
					"stateMutability": "view",
					"type": "function"
				},
				{
					"inputs": [
						{
							"internalType": "address",
							"name": "to",
							"type": "address"
						},
						{
							"internalType": "uint256",
							"name": "amount",
							"type": "uint256"
						}
					],
					"name": "transfer",
					"outputs": [
						{
							"internalType": "bool",
							"name": "",
							"type": "bool"
						}
					],
					"stateMutability": "nonpayable",
					"type": "function"
				},
				{
					"inputs": [
						{
							"internalType": "address",
							"name": "from",
							"type": "address"
						},
						{
							"internalType": "address",
							"name": "to",
							"type": "address"
						},
						{
							"internalType": "uint256",
							"name": "amount",
							"type": "uint256"
						}
					],
					"name": "transferFrom",
					"outputs": [
						{
							"internalType": "bool",
							"name": "",
							"type": "bool"
						}
					],
					"stateMutability": "nonpayable",
					"type": "function"
				},
				{
					"inputs": [
						{
							"internalType": "address",
							"name": "newOwner",
							"type": "address"
						}
					],
					"name": "transferOwnership",
					"outputs": [],
					"stateMutability": "nonpayable",
					"type": "function"
				},
				{
					"inputs": [
						{
							"internalType": "address",
							"name": "newImplementation",
							"type": "address"
						}
					],
					"name": "upgradeTo",
					"outputs": [],
					"stateMutability": "nonpayable",
					"type": "function"
				},
				{
					"inputs": [
						{
							"internalType": "address",
							"name": "newImplementation",
							"type": "address"
						},
						{
							"internalType": "bytes",
							"name": "data",
							"type": "bytes"
						}
					],
					"name": "upgradeToAndCall",
					"outputs": [],
					"stateMutability": "payable",
					"type": "function"
				}
			],
			"devdoc": {
				"kind": "dev",
				"methods": {
					"allowance(address,address)": {
						"details": "See {IERC20-allowance}."
					},
					"approve(address,uint256)": {
						"details": "See {IERC20-approve}. NOTE: If `amount` is the maximum `uint256`, the allowance is not updated on `transferFrom`. This is semantically equivalent to an infinite approval. Requirements: - `spender` cannot be the zero address."
					},
					"balanceOf(address)": {
						"details": "See {IERC20-balanceOf}."
					},
					"decimals()": {
						"details": "Returns the number of decimals used to get its user representation. For example, if `decimals` equals `2`, a balance of `505` tokens should be displayed to a user as `5.05` (`505 / 10 ** 2`). Tokens usually opt for a value of 18, imitating the relationship between Ether and Wei. This is the value {ERC20} uses, unless this function is overridden; NOTE: This information is only used for _display_ purposes: it in no way affects any of the arithmetic of the contract, including {IERC20-balanceOf} and {IERC20-transfer}."
					},
					"decreaseAllowance(address,uint256)": {
						"details": "Atomically decreases the allowance granted to `spender` by the caller. This is an alternative to {approve} that can be used as a mitigation for problems described in {IERC20-approve}. Emits an {Approval} event indicating the updated allowance. Requirements: - `spender` cannot be the zero address. - `spender` must have allowance for the caller of at least `subtractedValue`."
					},
					"increaseAllowance(address,uint256)": {
						"details": "Atomically increases the allowance granted to `spender` by the caller. This is an alternative to {approve} that can be used as a mitigation for problems described in {IERC20-approve}. Emits an {Approval} event indicating the updated allowance. Requirements: - `spender` cannot be the zero address."
					},
					"name()": {
						"details": "Returns the name of the token."
					},
					"owner()": {
						"details": "Returns the address of the current owner."
					},
					"proxiableUUID()": {
						"details": "Implementation of the ERC1822 {proxiableUUID} function. This returns the storage slot used by the implementation. It is used to validate the implementation's compatibility when performing an upgrade. IMPORTANT: A proxy pointing at a proxiable contract should not be considered proxiable itself, because this risks bricking a proxy that upgrades to it, by delegating to itself until out of gas. Thus it is critical that this function revert if invoked through a proxy. This is guaranteed by the `notDelegated` modifier."
					},
					"renounceOwnership()": {
						"details": "Leaves the contract without owner. It will not be possible to call `onlyOwner` functions anymore. Can only be called by the current owner. NOTE: Renouncing ownership will leave the contract without an owner, thereby removing any functionality that is only available to the owner."
					},
					"symbol()": {
						"details": "Returns the symbol of the token, usually a shorter version of the name."
					},
					"totalSupply()": {
						"details": "See {IERC20-totalSupply}."
					},
					"transfer(address,uint256)": {
						"details": "See {IERC20-transfer}. Requirements: - `to` cannot be the zero address. - the caller must have a balance of at least `amount`."
					},
					"transferFrom(address,address,uint256)": {
						"details": "See {IERC20-transferFrom}. Emits an {Approval} event indicating the updated allowance. This is not required by the EIP. See the note at the beginning of {ERC20}. NOTE: Does not update the allowance if the current allowance is the maximum `uint256`. Requirements: - `from` and `to` cannot be the zero address. - `from` must have a balance of at least `amount`. - the caller must have allowance for ``from``'s tokens of at least `amount`."
					},
					"transferOwnership(address)": {
						"details": "Transfers ownership of the contract to a new account (`newOwner`). Can only be called by the current owner."
					},
					"upgradeTo(address)": {
						"details": "Upgrade the implementation of the proxy to `newImplementation`. Calls {_authorizeUpgrade}. Emits an {Upgraded} event."
					},
					"upgradeToAndCall(address,bytes)": {
						"details": "Upgrade the implementation of the proxy to `newImplementation`, and subsequently execute the function call encoded in `data`. Calls {_authorizeUpgrade}. Emits an {Upgraded} event."
					}
				},
				"version": 1
			},
			"evm": {
				"assembly": "    /* \"contracts/Implementacion Tokens Ethereum/PlatziTokenV1.sol\":496:1226  contract PlatziTokenV1 is ERC20Upgradeable, UUPSUpgradeable, OwnableUpgradeable {\r... */\n  mstore(0x40, 0xa0)\n    /* \"@openzeppelin/contracts-upgradeable/proxy/utils/UUPSUpgradeable.sol\":1332:1336  this */\n  address\n    /* \"@openzeppelin/contracts-upgradeable/proxy/utils/UUPSUpgradeable.sol\":1289:1337  address private immutable __self = address(this) */\n  0xffffffffffffffffffffffffffffffffffffffff\n  and\n  0x80\n  swap1\n  0xffffffffffffffffffffffffffffffffffffffff\n  and\n  0x60\n  shl\n  dup2\n  mstore\n  pop\n    /* \"contracts/Implementacion Tokens Ethereum/PlatziTokenV1.sol\":496:1226  contract PlatziTokenV1 is ERC20Upgradeable, UUPSUpgradeable, OwnableUpgradeable {\r... */\n  callvalue\n  dup1\n  iszero\n  tag_1\n  jumpi\n  0x00\n  dup1\n  revert\ntag_1:\n  pop\n  shr(0x60, mload(0x80))\n  codecopy(0x00, dataOffset(sub_0), dataSize(sub_0))\n  0x00\n  assignImmutable(\"0x4c643d5d9b0441803235e222732b65e2dc488f209ae20302cca6cafc813933a8\")\n  return(0x00, dataSize(sub_0))\nstop\n\nsub_0: assembly {\n        /* \"contracts/Implementacion Tokens Ethereum/PlatziTokenV1.sol\":496:1226  contract PlatziTokenV1 is ERC20Upgradeable, UUPSUpgradeable, OwnableUpgradeable {\r... */\n      mstore(0x40, 0x80)\n      jumpi(tag_1, lt(calldatasize, 0x04))\n      shr(0xe0, calldataload(0x00))\n      dup1\n      0x70a08231\n      gt\n      tag_20\n      jumpi\n      dup1\n      0xa457c2d7\n      gt\n      tag_21\n      jumpi\n      dup1\n      0xa457c2d7\n      eq\n      tag_15\n      jumpi\n      dup1\n      0xa9059cbb\n      eq\n      tag_16\n      jumpi\n      dup1\n      0xdd62ed3e\n      eq\n      tag_17\n      jumpi\n      dup1\n      0xf2fde38b\n      eq\n      tag_18\n      jumpi\n      dup1\n      0xfe4b84df\n      eq\n      tag_19\n      jumpi\n      jump(tag_1)\n    tag_21:\n      dup1\n      0x70a08231\n      eq\n      tag_11\n      jumpi\n      dup1\n      0x715018a6\n      eq\n      tag_12\n      jumpi\n      dup1\n      0x8da5cb5b\n      eq\n      tag_13\n      jumpi\n      dup1\n      0x95d89b41\n      eq\n      tag_14\n      jumpi\n      jump(tag_1)\n    tag_20:\n      dup1\n      0x313ce567\n      gt\n      tag_22\n      jumpi\n      dup1\n      0x313ce567\n      eq\n      tag_6\n      jumpi\n      dup1\n      0x3659cfe6\n      eq\n      tag_7\n      jumpi\n      dup1\n      0x39509351\n      eq\n      tag_8\n      jumpi\n      dup1\n      0x4f1ef286\n      eq\n      tag_9\n      jumpi\n      dup1\n      0x52d1902d\n      eq\n      tag_10\n      jumpi\n      jump(tag_1)\n    tag_22:\n      dup1\n      0x06fdde03\n      eq\n      tag_2\n      jumpi\n      dup1\n      0x095ea7b3\n      eq\n      tag_3\n      jumpi\n      dup1\n      0x18160ddd\n      eq\n      tag_4\n      jumpi\n      dup1\n      0x23b872dd\n      eq\n      tag_5\n      jumpi\n    tag_1:\n      0x00\n      dup1\n      revert\n        /* \"@openzeppelin/contracts-upgradeable/token/ERC20/ERC20Upgradeable.sol\":2491:2589  function name() public view virtual override returns (string memory) {... */\n    tag_2:\n      callvalue\n      dup1\n      iszero\n      tag_23\n      jumpi\n      0x00\n      dup1\n      revert\n    tag_23:\n      pop\n      tag_24\n      tag_25\n      jump\t// in\n    tag_24:\n      mload(0x40)\n      tag_26\n      swap2\n      swap1\n      tag_27\n      jump\t// in\n    tag_26:\n      mload(0x40)\n      dup1\n      swap2\n      sub\n      swap1\n      return\n        /* \"@openzeppelin/contracts-upgradeable/token/ERC20/ERC20Upgradeable.sol\":4768:4965  function approve(address spender, uint256 amount) public virtual override returns (bool) {... */\n    tag_3:\n      callvalue\n      dup1\n      iszero\n      tag_28\n      jumpi\n      0x00\n      dup1\n      revert\n    tag_28:\n      pop\n      tag_29\n      0x04\n      dup1\n      calldatasize\n      sub\n      dup2\n      add\n      swap1\n      tag_30\n      swap2\n      swap1\n      tag_31\n      jump\t// in\n    tag_30:\n      tag_32\n      jump\t// in\n    tag_29:\n      mload(0x40)\n      tag_33\n      swap2\n      swap1\n      tag_34\n      jump\t// in\n    tag_33:\n      mload(0x40)\n      dup1\n      swap2\n      sub\n      swap1\n      return\n        /* \"@openzeppelin/contracts-upgradeable/token/ERC20/ERC20Upgradeable.sol\":3579:3685  function totalSupply() public view virtual override returns (uint256) {... */\n    tag_4:\n      callvalue\n      dup1\n      iszero\n      tag_35\n      jumpi\n      0x00\n      dup1\n      revert\n    tag_35:\n      pop\n      tag_36\n      tag_37\n      jump\t// in\n    tag_36:\n      mload(0x40)\n      tag_38\n      swap2\n      swap1\n      tag_39\n      jump\t// in\n    tag_38:\n      mload(0x40)\n      dup1\n      swap2\n      sub\n      swap1\n      return\n        /* \"@openzeppelin/contracts-upgradeable/token/ERC20/ERC20Upgradeable.sol\":5527:5813  function transferFrom(... */\n    tag_5:\n      callvalue\n      dup1\n      iszero\n      tag_40\n      jumpi\n      0x00\n      dup1\n      revert\n    tag_40:\n      pop\n      tag_41\n      0x04\n      dup1\n      calldatasize\n      sub\n      dup2\n      add\n      swap1\n      tag_42\n      swap2\n      swap1\n      tag_43\n      jump\t// in\n    tag_42:\n      tag_44\n      jump\t// in\n    tag_41:\n      mload(0x40)\n      tag_45\n      swap2\n      swap1\n      tag_34\n      jump\t// in\n    tag_45:\n      mload(0x40)\n      dup1\n      swap2\n      sub\n      swap1\n      return\n        /* \"@openzeppelin/contracts-upgradeable/token/ERC20/ERC20Upgradeable.sol\":3428:3519  function decimals() public view virtual override returns (uint8) {... */\n    tag_6:\n      callvalue\n      dup1\n      iszero\n      tag_46\n      jumpi\n      0x00\n      dup1\n      revert\n    tag_46:\n      pop\n      tag_47\n      tag_48\n      jump\t// in\n    tag_47:\n      mload(0x40)\n      tag_49\n      swap2\n      swap1\n      tag_50\n      jump\t// in\n    tag_49:\n      mload(0x40)\n      dup1\n      swap2\n      sub\n      swap1\n      return\n        /* \"@openzeppelin/contracts-upgradeable/proxy/utils/UUPSUpgradeable.sol\":3317:3514  function upgradeTo(address newImplementation) external virtual onlyProxy {... */\n    tag_7:\n      callvalue\n      dup1\n      iszero\n      tag_51\n      jumpi\n      0x00\n      dup1\n      revert\n    tag_51:\n      pop\n      tag_52\n      0x04\n      dup1\n      calldatasize\n      sub\n      dup2\n      add\n      swap1\n      tag_53\n      swap2\n      swap1\n      tag_54\n      jump\t// in\n    tag_53:\n      tag_55\n      jump\t// in\n    tag_52:\n      stop\n        /* \"@openzeppelin/contracts-upgradeable/token/ERC20/ERC20Upgradeable.sol\":6208:6442  function increaseAllowance(address spender, uint256 addedValue) public virtual returns (bool) {... */\n    tag_8:\n      callvalue\n      dup1\n      iszero\n      tag_56\n      jumpi\n      0x00\n      dup1\n      revert\n    tag_56:\n      pop\n      tag_57\n      0x04\n      dup1\n      calldatasize\n      sub\n      dup2\n      add\n      swap1\n      tag_58\n      swap2\n      swap1\n      tag_31\n      jump\t// in\n    tag_58:\n      tag_59\n      jump\t// in\n    tag_57:\n      mload(0x40)\n      tag_60\n      swap2\n      swap1\n      tag_34\n      jump\t// in\n    tag_60:\n      mload(0x40)\n      dup1\n      swap2\n      sub\n      swap1\n      return\n        /* \"@openzeppelin/contracts-upgradeable/proxy/utils/UUPSUpgradeable.sol\":3763:3985  function upgradeToAndCall(address newImplementation, bytes memory data) external payable virtual onlyProxy {... */\n    tag_9:\n      tag_61\n      0x04\n      dup1\n      calldatasize\n      sub\n      dup2\n      add\n      swap1\n      tag_62\n      swap2\n      swap1\n      tag_63\n      jump\t// in\n    tag_62:\n      tag_64\n      jump\t// in\n    tag_61:\n      stop\n        /* \"@openzeppelin/contracts-upgradeable/proxy/utils/UUPSUpgradeable.sol\":3006:3137  function proxiableUUID() external view virtual override notDelegated returns (bytes32) {... */\n    tag_10:\n      callvalue\n      dup1\n      iszero\n      tag_65\n      jumpi\n      0x00\n      dup1\n      revert\n    tag_65:\n      pop\n      tag_66\n      tag_67\n      jump\t// in\n    tag_66:\n      mload(0x40)\n      tag_68\n      swap2\n      swap1\n      tag_69\n      jump\t// in\n    tag_68:\n      mload(0x40)\n      dup1\n      swap2\n      sub\n      swap1\n      return\n        /* \"@openzeppelin/contracts-upgradeable/token/ERC20/ERC20Upgradeable.sol\":3743:3868  function balanceOf(address account) public view virtual override returns (uint256) {... */\n    tag_11:\n      callvalue\n      dup1\n      iszero\n      tag_70\n      jumpi\n      0x00\n      dup1\n      revert\n    tag_70:\n      pop\n      tag_71\n      0x04\n      dup1\n      calldatasize\n      sub\n      dup2\n      add\n      swap1\n      tag_72\n      swap2\n      swap1\n      tag_54\n      jump\t// in\n    tag_72:\n      tag_73\n      jump\t// in\n    tag_71:\n      mload(0x40)\n      tag_74\n      swap2\n      swap1\n      tag_39\n      jump\t// in\n    tag_74:\n      mload(0x40)\n      dup1\n      swap2\n      sub\n      swap1\n      return\n        /* \"@openzeppelin/contracts-upgradeable/access/OwnableUpgradeable.sol\":2071:2172  function renounceOwnership() public virtual onlyOwner {... */\n    tag_12:\n      callvalue\n      dup1\n      iszero\n      tag_75\n      jumpi\n      0x00\n      dup1\n      revert\n    tag_75:\n      pop\n      tag_76\n      tag_77\n      jump\t// in\n    tag_76:\n      stop\n        /* \"@openzeppelin/contracts-upgradeable/access/OwnableUpgradeable.sol\":1441:1526  function owner() public view virtual returns (address) {... */\n    tag_13:\n      callvalue\n      dup1\n      iszero\n      tag_78\n      jumpi\n      0x00\n      dup1\n      revert\n    tag_78:\n      pop\n      tag_79\n      tag_80\n      jump\t// in\n    tag_79:\n      mload(0x40)\n      tag_81\n      swap2\n      swap1\n      tag_82\n      jump\t// in\n    tag_81:\n      mload(0x40)\n      dup1\n      swap2\n      sub\n      swap1\n      return\n        /* \"@openzeppelin/contracts-upgradeable/token/ERC20/ERC20Upgradeable.sol\":2702:2804  function symbol() public view virtual override returns (string memory) {... */\n    tag_14:\n      callvalue\n      dup1\n      iszero\n      tag_83\n      jumpi\n      0x00\n      dup1\n      revert\n    tag_83:\n      pop\n      tag_84\n      tag_85\n      jump\t// in\n    tag_84:\n      mload(0x40)\n      tag_86\n      swap2\n      swap1\n      tag_27\n      jump\t// in\n    tag_86:\n      mload(0x40)\n      dup1\n      swap2\n      sub\n      swap1\n      return\n        /* \"@openzeppelin/contracts-upgradeable/token/ERC20/ERC20Upgradeable.sol\":6929:7356  function decreaseAllowance(address spender, uint256 subtractedValue) public virtual returns (bool) {... */\n    tag_15:\n      callvalue\n      dup1\n      iszero\n      tag_87\n      jumpi\n      0x00\n      dup1\n      revert\n    tag_87:\n      pop\n      tag_88\n      0x04\n      dup1\n      calldatasize\n      sub\n      dup2\n      add\n      swap1\n      tag_89\n      swap2\n      swap1\n      tag_31\n      jump\t// in\n    tag_89:\n      tag_90\n      jump\t// in\n    tag_88:\n      mload(0x40)\n      tag_91\n      swap2\n      swap1\n      tag_34\n      jump\t// in\n    tag_91:\n      mload(0x40)\n      dup1\n      swap2\n      sub\n      swap1\n      return\n        /* \"@openzeppelin/contracts-upgradeable/token/ERC20/ERC20Upgradeable.sol\":4064:4253  function transfer(address to, uint256 amount) public virtual override returns (bool) {... */\n    tag_16:\n      callvalue\n      dup1\n      iszero\n      tag_92\n      jumpi\n      0x00\n      dup1\n      revert\n    tag_92:\n      pop\n      tag_93\n      0x04\n      dup1\n      calldatasize\n      sub\n      dup2\n      add\n      swap1\n      tag_94\n      swap2\n      swap1\n      tag_31\n      jump\t// in\n    tag_94:\n      tag_95\n      jump\t// in\n    tag_93:\n      mload(0x40)\n      tag_96\n      swap2\n      swap1\n      tag_34\n      jump\t// in\n    tag_96:\n      mload(0x40)\n      dup1\n      swap2\n      sub\n      swap1\n      return\n        /* \"@openzeppelin/contracts-upgradeable/token/ERC20/ERC20Upgradeable.sol\":4311:4460  function allowance(address owner, address spender) public view virtual override returns (uint256) {... */\n    tag_17:\n      callvalue\n      dup1\n      iszero\n      tag_97\n      jumpi\n      0x00\n      dup1\n      revert\n    tag_97:\n      pop\n      tag_98\n      0x04\n      dup1\n      calldatasize\n      sub\n      dup2\n      add\n      swap1\n      tag_99\n      swap2\n      swap1\n      tag_100\n      jump\t// in\n    tag_99:\n      tag_101\n      jump\t// in\n    tag_98:\n      mload(0x40)\n      tag_102\n      swap2\n      swap1\n      tag_39\n      jump\t// in\n    tag_102:\n      mload(0x40)\n      dup1\n      swap2\n      sub\n      swap1\n      return\n        /* \"@openzeppelin/contracts-upgradeable/access/OwnableUpgradeable.sol\":2321:2519  function transferOwnership(address newOwner) public virtual onlyOwner {... */\n    tag_18:\n      callvalue\n      dup1\n      iszero\n      tag_103\n      jumpi\n      0x00\n      dup1\n      revert\n    tag_103:\n      pop\n      tag_104\n      0x04\n      dup1\n      calldatasize\n      sub\n      dup2\n      add\n      swap1\n      tag_105\n      swap2\n      swap1\n      tag_54\n      jump\t// in\n    tag_105:\n      tag_106\n      jump\t// in\n    tag_104:\n      stop\n        /* \"contracts/Implementacion Tokens Ethereum/PlatziTokenV1.sol\":641:1047  function initialize (uint256 initialSupply) public initializer {\r... */\n    tag_19:\n      callvalue\n      dup1\n      iszero\n      tag_107\n      jumpi\n      0x00\n      dup1\n      revert\n    tag_107:\n      pop\n      tag_108\n      0x04\n      dup1\n      calldatasize\n      sub\n      dup2\n      add\n      swap1\n      tag_109\n      swap2\n      swap1\n      tag_110\n      jump\t// in\n    tag_109:\n      tag_111\n      jump\t// in\n    tag_108:\n      stop\n        /* \"@openzeppelin/contracts-upgradeable/token/ERC20/ERC20Upgradeable.sol\":2491:2589  function name() public view virtual override returns (string memory) {... */\n    tag_25:\n        /* \"@openzeppelin/contracts-upgradeable/token/ERC20/ERC20Upgradeable.sol\":2545:2558  string memory */\n      0x60\n        /* \"@openzeppelin/contracts-upgradeable/token/ERC20/ERC20Upgradeable.sol\":2577:2582  _name */\n      0x36\n        /* \"@openzeppelin/contracts-upgradeable/token/ERC20/ERC20Upgradeable.sol\":2570:2582  return _name */\n      dup1\n      sload\n      tag_113\n      swap1\n      tag_114\n      jump\t// in\n    tag_113:\n      dup1\n      0x1f\n      add\n      0x20\n      dup1\n      swap2\n      div\n      mul\n      0x20\n      add\n      mload(0x40)\n      swap1\n      dup2\n      add\n      0x40\n      mstore\n      dup1\n      swap3\n      swap2\n      swap1\n      dup2\n      dup2\n      mstore\n      0x20\n      add\n      dup3\n      dup1\n      sload\n      tag_115\n      swap1\n      tag_114\n      jump\t// in\n    tag_115:\n      dup1\n      iszero\n      tag_116\n      jumpi\n      dup1\n      0x1f\n      lt\n      tag_117\n      jumpi\n      0x0100\n      dup1\n      dup4\n      sload\n      div\n      mul\n      dup4\n      mstore\n      swap2\n      0x20\n      add\n      swap2\n      jump(tag_116)\n    tag_117:\n      dup3\n      add\n      swap2\n      swap1\n      0x00\n      mstore\n      keccak256(0x00, 0x20)\n      swap1\n    tag_118:\n      dup2\n      sload\n      dup2\n      mstore\n      swap1\n      0x01\n      add\n      swap1\n      0x20\n      add\n      dup1\n      dup4\n      gt\n      tag_118\n      jumpi\n      dup3\n      swap1\n      sub\n      0x1f\n      and\n      dup3\n      add\n      swap2\n    tag_116:\n      pop\n      pop\n      pop\n      pop\n      pop\n      swap1\n      pop\n        /* \"@openzeppelin/contracts-upgradeable/token/ERC20/ERC20Upgradeable.sol\":2491:2589  function name() public view virtual override returns (string memory) {... */\n      swap1\n      jump\t// out\n        /* \"@openzeppelin/contracts-upgradeable/token/ERC20/ERC20Upgradeable.sol\":4768:4965  function approve(address spender, uint256 amount) public virtual override returns (bool) {... */\n    tag_32:\n        /* \"@openzeppelin/contracts-upgradeable/token/ERC20/ERC20Upgradeable.sol\":4851:4855  bool */\n      0x00\n        /* \"@openzeppelin/contracts-upgradeable/token/ERC20/ERC20Upgradeable.sol\":4867:4880  address owner */\n      dup1\n        /* \"@openzeppelin/contracts-upgradeable/token/ERC20/ERC20Upgradeable.sol\":4883:4895  _msgSender() */\n      tag_120\n        /* \"@openzeppelin/contracts-upgradeable/token/ERC20/ERC20Upgradeable.sol\":4883:4893  _msgSender */\n      tag_121\n        /* \"@openzeppelin/contracts-upgradeable/token/ERC20/ERC20Upgradeable.sol\":4883:4895  _msgSender() */\n      jump\t// in\n    tag_120:\n        /* \"@openzeppelin/contracts-upgradeable/token/ERC20/ERC20Upgradeable.sol\":4867:4895  address owner = _msgSender() */\n      swap1\n      pop\n        /* \"@openzeppelin/contracts-upgradeable/token/ERC20/ERC20Upgradeable.sol\":4905:4937  _approve(owner, spender, amount) */\n      tag_122\n        /* \"@openzeppelin/contracts-upgradeable/token/ERC20/ERC20Upgradeable.sol\":4914:4919  owner */\n      dup2\n        /* \"@openzeppelin/contracts-upgradeable/token/ERC20/ERC20Upgradeable.sol\":4921:4928  spender */\n      dup6\n        /* \"@openzeppelin/contracts-upgradeable/token/ERC20/ERC20Upgradeable.sol\":4930:4936  amount */\n      dup6\n        /* \"@openzeppelin/contracts-upgradeable/token/ERC20/ERC20Upgradeable.sol\":4905:4913  _approve */\n      tag_123\n        /* \"@openzeppelin/contracts-upgradeable/token/ERC20/ERC20Upgradeable.sol\":4905:4937  _approve(owner, spender, amount) */\n      jump\t// in\n    tag_122:\n        /* \"@openzeppelin/contracts-upgradeable/token/ERC20/ERC20Upgradeable.sol\":4954:4958  true */\n      0x01\n        /* \"@openzeppelin/contracts-upgradeable/token/ERC20/ERC20Upgradeable.sol\":4947:4958  return true */\n      swap2\n      pop\n      pop\n        /* \"@openzeppelin/contracts-upgradeable/token/ERC20/ERC20Upgradeable.sol\":4768:4965  function approve(address spender, uint256 amount) public virtual override returns (bool) {... */\n      swap3\n      swap2\n      pop\n      pop\n      jump\t// out\n        /* \"@openzeppelin/contracts-upgradeable/token/ERC20/ERC20Upgradeable.sol\":3579:3685  function totalSupply() public view virtual override returns (uint256) {... */\n    tag_37:\n        /* \"@openzeppelin/contracts-upgradeable/token/ERC20/ERC20Upgradeable.sol\":3640:3647  uint256 */\n      0x00\n        /* \"@openzeppelin/contracts-upgradeable/token/ERC20/ERC20Upgradeable.sol\":3666:3678  _totalSupply */\n      sload(0x35)\n        /* \"@openzeppelin/contracts-upgradeable/token/ERC20/ERC20Upgradeable.sol\":3659:3678  return _totalSupply */\n      swap1\n      pop\n        /* \"@openzeppelin/contracts-upgradeable/token/ERC20/ERC20Upgradeable.sol\":3579:3685  function totalSupply() public view virtual override returns (uint256) {... */\n      swap1\n      jump\t// out\n        /* \"@openzeppelin/contracts-upgradeable/token/ERC20/ERC20Upgradeable.sol\":5527:5813  function transferFrom(... */\n    tag_44:\n        /* \"@openzeppelin/contracts-upgradeable/token/ERC20/ERC20Upgradeable.sol\":5654:5658  bool */\n      0x00\n        /* \"@openzeppelin/contracts-upgradeable/token/ERC20/ERC20Upgradeable.sol\":5670:5685  address spender */\n      dup1\n        /* \"@openzeppelin/contracts-upgradeable/token/ERC20/ERC20Upgradeable.sol\":5688:5700  _msgSender() */\n      tag_126\n        /* \"@openzeppelin/contracts-upgradeable/token/ERC20/ERC20Upgradeable.sol\":5688:5698  _msgSender */\n      tag_121\n        /* \"@openzeppelin/contracts-upgradeable/token/ERC20/ERC20Upgradeable.sol\":5688:5700  _msgSender() */\n      jump\t// in\n    tag_126:\n        /* \"@openzeppelin/contracts-upgradeable/token/ERC20/ERC20Upgradeable.sol\":5670:5700  address spender = _msgSender() */\n      swap1\n      pop\n        /* \"@openzeppelin/contracts-upgradeable/token/ERC20/ERC20Upgradeable.sol\":5710:5748  _spendAllowance(from, spender, amount) */\n      tag_127\n        /* \"@openzeppelin/contracts-upgradeable/token/ERC20/ERC20Upgradeable.sol\":5726:5730  from */\n      dup6\n        /* \"@openzeppelin/contracts-upgradeable/token/ERC20/ERC20Upgradeable.sol\":5732:5739  spender */\n      dup3\n        /* \"@openzeppelin/contracts-upgradeable/token/ERC20/ERC20Upgradeable.sol\":5741:5747  amount */\n      dup6\n        /* \"@openzeppelin/contracts-upgradeable/token/ERC20/ERC20Upgradeable.sol\":5710:5725  _spendAllowance */\n      tag_128\n        /* \"@openzeppelin/contracts-upgradeable/token/ERC20/ERC20Upgradeable.sol\":5710:5748  _spendAllowance(from, spender, amount) */\n      jump\t// in\n    tag_127:\n        /* \"@openzeppelin/contracts-upgradeable/token/ERC20/ERC20Upgradeable.sol\":5758:5785  _transfer(from, to, amount) */\n      tag_129\n        /* \"@openzeppelin/contracts-upgradeable/token/ERC20/ERC20Upgradeable.sol\":5768:5772  from */\n      dup6\n        /* \"@openzeppelin/contracts-upgradeable/token/ERC20/ERC20Upgradeable.sol\":5774:5776  to */\n      dup6\n        /* \"@openzeppelin/contracts-upgradeable/token/ERC20/ERC20Upgradeable.sol\":5778:5784  amount */\n      dup6\n        /* \"@openzeppelin/contracts-upgradeable/token/ERC20/ERC20Upgradeable.sol\":5758:5767  _transfer */\n      tag_130\n        /* \"@openzeppelin/contracts-upgradeable/token/ERC20/ERC20Upgradeable.sol\":5758:5785  _transfer(from, to, amount) */\n      jump\t// in\n    tag_129:\n        /* \"@openzeppelin/contracts-upgradeable/token/ERC20/ERC20Upgradeable.sol\":5802:5806  true */\n      0x01\n        /* \"@openzeppelin/contracts-upgradeable/token/ERC20/ERC20Upgradeable.sol\":5795:5806  return true */\n      swap2\n      pop\n      pop\n        /* \"@openzeppelin/contracts-upgradeable/token/ERC20/ERC20Upgradeable.sol\":5527:5813  function transferFrom(... */\n      swap4\n      swap3\n      pop\n      pop\n      pop\n      jump\t// out\n        /* \"@openzeppelin/contracts-upgradeable/token/ERC20/ERC20Upgradeable.sol\":3428:3519  function decimals() public view virtual override returns (uint8) {... */\n    tag_48:\n        /* \"@openzeppelin/contracts-upgradeable/token/ERC20/ERC20Upgradeable.sol\":3486:3491  uint8 */\n      0x00\n        /* \"@openzeppelin/contracts-upgradeable/token/ERC20/ERC20Upgradeable.sol\":3510:3512  18 */\n      0x12\n        /* \"@openzeppelin/contracts-upgradeable/token/ERC20/ERC20Upgradeable.sol\":3503:3512  return 18 */\n      swap1\n      pop\n        /* \"@openzeppelin/contracts-upgradeable/token/ERC20/ERC20Upgradeable.sol\":3428:3519  function decimals() public view virtual override returns (uint8) {... */\n      swap1\n      jump\t// out\n        /* \"@openzeppelin/contracts-upgradeable/proxy/utils/UUPSUpgradeable.sol\":3317:3514  function upgradeTo(address newImplementation) external virtual onlyProxy {... */\n    tag_55:\n        /* \"@openzeppelin/contracts-upgradeable/proxy/utils/UUPSUpgradeable.sol\":1898:1904  __self */\n      immutable(\"0x4c643d5d9b0441803235e222732b65e2dc488f209ae20302cca6cafc813933a8\")\n        /* \"@openzeppelin/contracts-upgradeable/proxy/utils/UUPSUpgradeable.sol\":1881:1904  address(this) != __self */\n      0xffffffffffffffffffffffffffffffffffffffff\n      and\n        /* \"@openzeppelin/contracts-upgradeable/proxy/utils/UUPSUpgradeable.sol\":1889:1893  this */\n      address\n        /* \"@openzeppelin/contracts-upgradeable/proxy/utils/UUPSUpgradeable.sol\":1881:1904  address(this) != __self */\n      0xffffffffffffffffffffffffffffffffffffffff\n      and\n      eq\n      iszero\n        /* \"@openzeppelin/contracts-upgradeable/proxy/utils/UUPSUpgradeable.sol\":1873:1953  require(address(this) != __self, \"Function must be called through delegatecall\") */\n      tag_133\n      jumpi\n      mload(0x40)\n      0x08c379a000000000000000000000000000000000000000000000000000000000\n      dup2\n      mstore\n      0x04\n      add\n      tag_134\n      swap1\n      tag_135\n      jump\t// in\n    tag_134:\n      mload(0x40)\n      dup1\n      swap2\n      sub\n      swap1\n      revert\n    tag_133:\n        /* \"@openzeppelin/contracts-upgradeable/proxy/utils/UUPSUpgradeable.sol\":1995:2001  __self */\n      immutable(\"0x4c643d5d9b0441803235e222732b65e2dc488f209ae20302cca6cafc813933a8\")\n        /* \"@openzeppelin/contracts-upgradeable/proxy/utils/UUPSUpgradeable.sol\":1971:2001  _getImplementation() == __self */\n      0xffffffffffffffffffffffffffffffffffffffff\n      and\n        /* \"@openzeppelin/contracts-upgradeable/proxy/utils/UUPSUpgradeable.sol\":1971:1991  _getImplementation() */\n      tag_136\n        /* \"@openzeppelin/contracts-upgradeable/proxy/utils/UUPSUpgradeable.sol\":1971:1989  _getImplementation */\n      tag_137\n        /* \"@openzeppelin/contracts-upgradeable/proxy/utils/UUPSUpgradeable.sol\":1971:1991  _getImplementation() */\n      jump\t// in\n    tag_136:\n        /* \"@openzeppelin/contracts-upgradeable/proxy/utils/UUPSUpgradeable.sol\":1971:2001  _getImplementation() == __self */\n      0xffffffffffffffffffffffffffffffffffffffff\n      and\n      eq\n        /* \"@openzeppelin/contracts-upgradeable/proxy/utils/UUPSUpgradeable.sol\":1963:2050  require(_getImplementation() == __self, \"Function must be called through active proxy\") */\n      tag_138\n      jumpi\n      mload(0x40)\n      0x08c379a000000000000000000000000000000000000000000000000000000000\n      dup2\n      mstore\n      0x04\n      add\n      tag_139\n      swap1\n      tag_140\n      jump\t// in\n    tag_139:\n      mload(0x40)\n      dup1\n      swap2\n      sub\n      swap1\n      revert\n    tag_138:\n        /* \"@openzeppelin/contracts-upgradeable/proxy/utils/UUPSUpgradeable.sol\":3400:3436  _authorizeUpgrade(newImplementation) */\n      tag_142\n        /* \"@openzeppelin/contracts-upgradeable/proxy/utils/UUPSUpgradeable.sol\":3418:3435  newImplementation */\n      dup2\n        /* \"@openzeppelin/contracts-upgradeable/proxy/utils/UUPSUpgradeable.sol\":3400:3417  _authorizeUpgrade */\n      tag_143\n        /* \"@openzeppelin/contracts-upgradeable/proxy/utils/UUPSUpgradeable.sol\":3400:3436  _authorizeUpgrade(newImplementation) */\n      jump\t// in\n    tag_142:\n        /* \"@openzeppelin/contracts-upgradeable/proxy/utils/UUPSUpgradeable.sol\":3446:3507  _upgradeToAndCallUUPS(newImplementation, new bytes(0), false) */\n      tag_144\n        /* \"@openzeppelin/contracts-upgradeable/proxy/utils/UUPSUpgradeable.sol\":3468:3485  newImplementation */\n      dup2\n        /* \"@openzeppelin/contracts-upgradeable/proxy/utils/UUPSUpgradeable.sol\":3497:3498  0 */\n      0x00\n        /* \"@openzeppelin/contracts-upgradeable/proxy/utils/UUPSUpgradeable.sol\":3487:3499  new bytes(0) */\n      0xffffffffffffffff\n      dup2\n      gt\n      iszero\n      tag_145\n      jumpi\n      tag_146\n      tag_147\n      jump\t// in\n    tag_146:\n    tag_145:\n      mload(0x40)\n      swap1\n      dup1\n      dup3\n      mstore\n      dup1\n      0x1f\n      add\n      not(0x1f)\n      and\n      0x20\n      add\n      dup3\n      add\n      0x40\n      mstore\n      dup1\n      iszero\n      tag_148\n      jumpi\n      dup2\n      0x20\n      add\n      0x01\n      dup3\n      mul\n      dup1\n      calldatasize\n      dup4\n      calldatacopy\n      dup1\n      dup3\n      add\n      swap2\n      pop\n      pop\n      swap1\n      pop\n    tag_148:\n      pop\n        /* \"@openzeppelin/contracts-upgradeable/proxy/utils/UUPSUpgradeable.sol\":3501:3506  false */\n      0x00\n        /* \"@openzeppelin/contracts-upgradeable/proxy/utils/UUPSUpgradeable.sol\":3446:3467  _upgradeToAndCallUUPS */\n      tag_149\n        /* \"@openzeppelin/contracts-upgradeable/proxy/utils/UUPSUpgradeable.sol\":3446:3507  _upgradeToAndCallUUPS(newImplementation, new bytes(0), false) */\n      jump\t// in\n    tag_144:\n        /* \"@openzeppelin/contracts-upgradeable/proxy/utils/UUPSUpgradeable.sol\":3317:3514  function upgradeTo(address newImplementation) external virtual onlyProxy {... */\n      pop\n      jump\t// out\n        /* \"@openzeppelin/contracts-upgradeable/token/ERC20/ERC20Upgradeable.sol\":6208:6442  function increaseAllowance(address spender, uint256 addedValue) public virtual returns (bool) {... */\n    tag_59:\n        /* \"@openzeppelin/contracts-upgradeable/token/ERC20/ERC20Upgradeable.sol\":6296:6300  bool */\n      0x00\n        /* \"@openzeppelin/contracts-upgradeable/token/ERC20/ERC20Upgradeable.sol\":6312:6325  address owner */\n      dup1\n        /* \"@openzeppelin/contracts-upgradeable/token/ERC20/ERC20Upgradeable.sol\":6328:6340  _msgSender() */\n      tag_151\n        /* \"@openzeppelin/contracts-upgradeable/token/ERC20/ERC20Upgradeable.sol\":6328:6338  _msgSender */\n      tag_121\n        /* \"@openzeppelin/contracts-upgradeable/token/ERC20/ERC20Upgradeable.sol\":6328:6340  _msgSender() */\n      jump\t// in\n    tag_151:\n        /* \"@openzeppelin/contracts-upgradeable/token/ERC20/ERC20Upgradeable.sol\":6312:6340  address owner = _msgSender() */\n      swap1\n      pop\n        /* \"@openzeppelin/contracts-upgradeable/token/ERC20/ERC20Upgradeable.sol\":6350:6414  _approve(owner, spender, allowance(owner, spender) + addedValue) */\n      tag_152\n        /* \"@openzeppelin/contracts-upgradeable/token/ERC20/ERC20Upgradeable.sol\":6359:6364  owner */\n      dup2\n        /* \"@openzeppelin/contracts-upgradeable/token/ERC20/ERC20Upgradeable.sol\":6366:6373  spender */\n      dup6\n        /* \"@openzeppelin/contracts-upgradeable/token/ERC20/ERC20Upgradeable.sol\":6403:6413  addedValue */\n      dup6\n        /* \"@openzeppelin/contracts-upgradeable/token/ERC20/ERC20Upgradeable.sol\":6375:6400  allowance(owner, spender) */\n      tag_153\n        /* \"@openzeppelin/contracts-upgradeable/token/ERC20/ERC20Upgradeable.sol\":6385:6390  owner */\n      dup6\n        /* \"@openzeppelin/contracts-upgradeable/token/ERC20/ERC20Upgradeable.sol\":6392:6399  spender */\n      dup10\n        /* \"@openzeppelin/contracts-upgradeable/token/ERC20/ERC20Upgradeable.sol\":6375:6384  allowance */\n      tag_101\n        /* \"@openzeppelin/contracts-upgradeable/token/ERC20/ERC20Upgradeable.sol\":6375:6400  allowance(owner, spender) */\n      jump\t// in\n    tag_153:\n        /* \"@openzeppelin/contracts-upgradeable/token/ERC20/ERC20Upgradeable.sol\":6375:6413  allowance(owner, spender) + addedValue */\n      tag_154\n      swap2\n      swap1\n      tag_155\n      jump\t// in\n    tag_154:\n        /* \"@openzeppelin/contracts-upgradeable/token/ERC20/ERC20Upgradeable.sol\":6350:6358  _approve */\n      tag_123\n        /* \"@openzeppelin/contracts-upgradeable/token/ERC20/ERC20Upgradeable.sol\":6350:6414  _approve(owner, spender, allowance(owner, spender) + addedValue) */\n      jump\t// in\n    tag_152:\n        /* \"@openzeppelin/contracts-upgradeable/token/ERC20/ERC20Upgradeable.sol\":6431:6435  true */\n      0x01\n        /* \"@openzeppelin/contracts-upgradeable/token/ERC20/ERC20Upgradeable.sol\":6424:6435  return true */\n      swap2\n      pop\n      pop\n        /* \"@openzeppelin/contracts-upgradeable/token/ERC20/ERC20Upgradeable.sol\":6208:6442  function increaseAllowance(address spender, uint256 addedValue) public virtual returns (bool) {... */\n      swap3\n      swap2\n      pop\n      pop\n      jump\t// out\n        /* \"@openzeppelin/contracts-upgradeable/proxy/utils/UUPSUpgradeable.sol\":3763:3985  function upgradeToAndCall(address newImplementation, bytes memory data) external payable virtual onlyProxy {... */\n    tag_64:\n        /* \"@openzeppelin/contracts-upgradeable/proxy/utils/UUPSUpgradeable.sol\":1898:1904  __self */\n      immutable(\"0x4c643d5d9b0441803235e222732b65e2dc488f209ae20302cca6cafc813933a8\")\n        /* \"@openzeppelin/contracts-upgradeable/proxy/utils/UUPSUpgradeable.sol\":1881:1904  address(this) != __self */\n      0xffffffffffffffffffffffffffffffffffffffff\n      and\n        /* \"@openzeppelin/contracts-upgradeable/proxy/utils/UUPSUpgradeable.sol\":1889:1893  this */\n      address\n        /* \"@openzeppelin/contracts-upgradeable/proxy/utils/UUPSUpgradeable.sol\":1881:1904  address(this) != __self */\n      0xffffffffffffffffffffffffffffffffffffffff\n      and\n      eq\n      iszero\n        /* \"@openzeppelin/contracts-upgradeable/proxy/utils/UUPSUpgradeable.sol\":1873:1953  require(address(this) != __self, \"Function must be called through delegatecall\") */\n      tag_157\n      jumpi\n      mload(0x40)\n      0x08c379a000000000000000000000000000000000000000000000000000000000\n      dup2\n      mstore\n      0x04\n      add\n      tag_158\n      swap1\n      tag_135\n      jump\t// in\n    tag_158:\n      mload(0x40)\n      dup1\n      swap2\n      sub\n      swap1\n      revert\n    tag_157:\n        /* \"@openzeppelin/contracts-upgradeable/proxy/utils/UUPSUpgradeable.sol\":1995:2001  __self */\n      immutable(\"0x4c643d5d9b0441803235e222732b65e2dc488f209ae20302cca6cafc813933a8\")\n        /* \"@openzeppelin/contracts-upgradeable/proxy/utils/UUPSUpgradeable.sol\":1971:2001  _getImplementation() == __self */\n      0xffffffffffffffffffffffffffffffffffffffff\n      and\n        /* \"@openzeppelin/contracts-upgradeable/proxy/utils/UUPSUpgradeable.sol\":1971:1991  _getImplementation() */\n      tag_159\n        /* \"@openzeppelin/contracts-upgradeable/proxy/utils/UUPSUpgradeable.sol\":1971:1989  _getImplementation */\n      tag_137\n        /* \"@openzeppelin/contracts-upgradeable/proxy/utils/UUPSUpgradeable.sol\":1971:1991  _getImplementation() */\n      jump\t// in\n    tag_159:\n        /* \"@openzeppelin/contracts-upgradeable/proxy/utils/UUPSUpgradeable.sol\":1971:2001  _getImplementation() == __self */\n      0xffffffffffffffffffffffffffffffffffffffff\n      and\n      eq\n        /* \"@openzeppelin/contracts-upgradeable/proxy/utils/UUPSUpgradeable.sol\":1963:2050  require(_getImplementation() == __self, \"Function must be called through active proxy\") */\n      tag_160\n      jumpi\n      mload(0x40)\n      0x08c379a000000000000000000000000000000000000000000000000000000000\n      dup2\n      mstore\n      0x04\n      add\n      tag_161\n      swap1\n      tag_140\n      jump\t// in\n    tag_161:\n      mload(0x40)\n      dup1\n      swap2\n      sub\n      swap1\n      revert\n    tag_160:\n        /* \"@openzeppelin/contracts-upgradeable/proxy/utils/UUPSUpgradeable.sol\":3880:3916  _authorizeUpgrade(newImplementation) */\n      tag_163\n        /* \"@openzeppelin/contracts-upgradeable/proxy/utils/UUPSUpgradeable.sol\":3898:3915  newImplementation */\n      dup3\n        /* \"@openzeppelin/contracts-upgradeable/proxy/utils/UUPSUpgradeable.sol\":3880:3897  _authorizeUpgrade */\n      tag_143\n        /* \"@openzeppelin/contracts-upgradeable/proxy/utils/UUPSUpgradeable.sol\":3880:3916  _authorizeUpgrade(newImplementation) */\n      jump\t// in\n    tag_163:\n        /* \"@openzeppelin/contracts-upgradeable/proxy/utils/UUPSUpgradeable.sol\":3926:3978  _upgradeToAndCallUUPS(newImplementation, data, true) */\n      tag_164\n        /* \"@openzeppelin/contracts-upgradeable/proxy/utils/UUPSUpgradeable.sol\":3948:3965  newImplementation */\n      dup3\n        /* \"@openzeppelin/contracts-upgradeable/proxy/utils/UUPSUpgradeable.sol\":3967:3971  data */\n      dup3\n        /* \"@openzeppelin/contracts-upgradeable/proxy/utils/UUPSUpgradeable.sol\":3973:3977  true */\n      0x01\n        /* \"@openzeppelin/contracts-upgradeable/proxy/utils/UUPSUpgradeable.sol\":3926:3947  _upgradeToAndCallUUPS */\n      tag_149\n        /* \"@openzeppelin/contracts-upgradeable/proxy/utils/UUPSUpgradeable.sol\":3926:3978  _upgradeToAndCallUUPS(newImplementation, data, true) */\n      jump\t// in\n    tag_164:\n        /* \"@openzeppelin/contracts-upgradeable/proxy/utils/UUPSUpgradeable.sol\":3763:3985  function upgradeToAndCall(address newImplementation, bytes memory data) external payable virtual onlyProxy {... */\n      pop\n      pop\n      jump\t// out\n        /* \"@openzeppelin/contracts-upgradeable/proxy/utils/UUPSUpgradeable.sol\":3006:3137  function proxiableUUID() external view virtual override notDelegated returns (bytes32) {... */\n    tag_67:\n        /* \"@openzeppelin/contracts-upgradeable/proxy/utils/UUPSUpgradeable.sol\":3084:3091  bytes32 */\n      0x00\n        /* \"@openzeppelin/contracts-upgradeable/proxy/utils/UUPSUpgradeable.sol\":2333:2339  __self */\n      immutable(\"0x4c643d5d9b0441803235e222732b65e2dc488f209ae20302cca6cafc813933a8\")\n        /* \"@openzeppelin/contracts-upgradeable/proxy/utils/UUPSUpgradeable.sol\":2316:2339  address(this) == __self */\n      0xffffffffffffffffffffffffffffffffffffffff\n      and\n        /* \"@openzeppelin/contracts-upgradeable/proxy/utils/UUPSUpgradeable.sol\":2324:2328  this */\n      address\n        /* \"@openzeppelin/contracts-upgradeable/proxy/utils/UUPSUpgradeable.sol\":2316:2339  address(this) == __self */\n      0xffffffffffffffffffffffffffffffffffffffff\n      and\n      eq\n        /* \"@openzeppelin/contracts-upgradeable/proxy/utils/UUPSUpgradeable.sol\":2308:2400  require(address(this) == __self, \"UUPSUpgradeable: must not be called through delegatecall\") */\n      tag_166\n      jumpi\n      mload(0x40)\n      0x08c379a000000000000000000000000000000000000000000000000000000000\n      dup2\n      mstore\n      0x04\n      add\n      tag_167\n      swap1\n      tag_168\n      jump\t// in\n    tag_167:\n      mload(0x40)\n      dup1\n      swap2\n      sub\n      swap1\n      revert\n    tag_166:\n        /* \"@openzeppelin/contracts-upgradeable/proxy/ERC1967/ERC1967UpgradeUpgradeable.sol\":1292:1358  0x360894a13ba1a3210667c828492db98dca3e2076cc3735a920a3ca505d382bbc */\n      0x360894a13ba1a3210667c828492db98dca3e2076cc3735a920a3ca505d382bbc\n        /* \"@openzeppelin/contracts-upgradeable/proxy/utils/UUPSUpgradeable.sol\":3110:3130  _IMPLEMENTATION_SLOT */\n      0x00\n      shl\n        /* \"@openzeppelin/contracts-upgradeable/proxy/utils/UUPSUpgradeable.sol\":3103:3130  return _IMPLEMENTATION_SLOT */\n      swap1\n      pop\n        /* \"@openzeppelin/contracts-upgradeable/proxy/utils/UUPSUpgradeable.sol\":3006:3137  function proxiableUUID() external view virtual override notDelegated returns (bytes32) {... */\n      swap1\n      jump\t// out\n        /* \"@openzeppelin/contracts-upgradeable/token/ERC20/ERC20Upgradeable.sol\":3743:3868  function balanceOf(address account) public view virtual override returns (uint256) {... */\n    tag_73:\n        /* \"@openzeppelin/contracts-upgradeable/token/ERC20/ERC20Upgradeable.sol\":3817:3824  uint256 */\n      0x00\n        /* \"@openzeppelin/contracts-upgradeable/token/ERC20/ERC20Upgradeable.sol\":3843:3852  _balances */\n      0x33\n        /* \"@openzeppelin/contracts-upgradeable/token/ERC20/ERC20Upgradeable.sol\":3843:3861  _balances[account] */\n      0x00\n        /* \"@openzeppelin/contracts-upgradeable/token/ERC20/ERC20Upgradeable.sol\":3853:3860  account */\n      dup4\n        /* \"@openzeppelin/contracts-upgradeable/token/ERC20/ERC20Upgradeable.sol\":3843:3861  _balances[account] */\n      0xffffffffffffffffffffffffffffffffffffffff\n      and\n      0xffffffffffffffffffffffffffffffffffffffff\n      and\n      dup2\n      mstore\n      0x20\n      add\n      swap1\n      dup2\n      mstore\n      0x20\n      add\n      0x00\n      keccak256\n      sload\n        /* \"@openzeppelin/contracts-upgradeable/token/ERC20/ERC20Upgradeable.sol\":3836:3861  return _balances[account] */\n      swap1\n      pop\n        /* \"@openzeppelin/contracts-upgradeable/token/ERC20/ERC20Upgradeable.sol\":3743:3868  function balanceOf(address account) public view virtual override returns (uint256) {... */\n      swap2\n      swap1\n      pop\n      jump\t// out\n        /* \"@openzeppelin/contracts-upgradeable/access/OwnableUpgradeable.sol\":2071:2172  function renounceOwnership() public virtual onlyOwner {... */\n    tag_77:\n        /* \"@openzeppelin/contracts-upgradeable/access/OwnableUpgradeable.sol\":1334:1347  _checkOwner() */\n      tag_172\n        /* \"@openzeppelin/contracts-upgradeable/access/OwnableUpgradeable.sol\":1334:1345  _checkOwner */\n      tag_173\n        /* \"@openzeppelin/contracts-upgradeable/access/OwnableUpgradeable.sol\":1334:1347  _checkOwner() */\n      jump\t// in\n    tag_172:\n        /* \"@openzeppelin/contracts-upgradeable/access/OwnableUpgradeable.sol\":2135:2165  _transferOwnership(address(0)) */\n      tag_175\n        /* \"@openzeppelin/contracts-upgradeable/access/OwnableUpgradeable.sol\":2162:2163  0 */\n      0x00\n        /* \"@openzeppelin/contracts-upgradeable/access/OwnableUpgradeable.sol\":2135:2153  _transferOwnership */\n      tag_176\n        /* \"@openzeppelin/contracts-upgradeable/access/OwnableUpgradeable.sol\":2135:2165  _transferOwnership(address(0)) */\n      jump\t// in\n    tag_175:\n        /* \"@openzeppelin/contracts-upgradeable/access/OwnableUpgradeable.sol\":2071:2172  function renounceOwnership() public virtual onlyOwner {... */\n      jump\t// out\n        /* \"@openzeppelin/contracts-upgradeable/access/OwnableUpgradeable.sol\":1441:1526  function owner() public view virtual returns (address) {... */\n    tag_80:\n        /* \"@openzeppelin/contracts-upgradeable/access/OwnableUpgradeable.sol\":1487:1494  address */\n      0x00\n        /* \"@openzeppelin/contracts-upgradeable/access/OwnableUpgradeable.sol\":1513:1519  _owner */\n      0xc9\n      0x00\n      swap1\n      sload\n      swap1\n      0x0100\n      exp\n      swap1\n      div\n      0xffffffffffffffffffffffffffffffffffffffff\n      and\n        /* \"@openzeppelin/contracts-upgradeable/access/OwnableUpgradeable.sol\":1506:1519  return _owner */\n      swap1\n      pop\n        /* \"@openzeppelin/contracts-upgradeable/access/OwnableUpgradeable.sol\":1441:1526  function owner() public view virtual returns (address) {... */\n      swap1\n      jump\t// out\n        /* \"@openzeppelin/contracts-upgradeable/token/ERC20/ERC20Upgradeable.sol\":2702:2804  function symbol() public view virtual override returns (string memory) {... */\n    tag_85:\n        /* \"@openzeppelin/contracts-upgradeable/token/ERC20/ERC20Upgradeable.sol\":2758:2771  string memory */\n      0x60\n        /* \"@openzeppelin/contracts-upgradeable/token/ERC20/ERC20Upgradeable.sol\":2790:2797  _symbol */\n      0x37\n        /* \"@openzeppelin/contracts-upgradeable/token/ERC20/ERC20Upgradeable.sol\":2783:2797  return _symbol */\n      dup1\n      sload\n      tag_179\n      swap1\n      tag_114\n      jump\t// in\n    tag_179:\n      dup1\n      0x1f\n      add\n      0x20\n      dup1\n      swap2\n      div\n      mul\n      0x20\n      add\n      mload(0x40)\n      swap1\n      dup2\n      add\n      0x40\n      mstore\n      dup1\n      swap3\n      swap2\n      swap1\n      dup2\n      dup2\n      mstore\n      0x20\n      add\n      dup3\n      dup1\n      sload\n      tag_180\n      swap1\n      tag_114\n      jump\t// in\n    tag_180:\n      dup1\n      iszero\n      tag_181\n      jumpi\n      dup1\n      0x1f\n      lt\n      tag_182\n      jumpi\n      0x0100\n      dup1\n      dup4\n      sload\n      div\n      mul\n      dup4\n      mstore\n      swap2\n      0x20\n      add\n      swap2\n      jump(tag_181)\n    tag_182:\n      dup3\n      add\n      swap2\n      swap1\n      0x00\n      mstore\n      keccak256(0x00, 0x20)\n      swap1\n    tag_183:\n      dup2\n      sload\n      dup2\n      mstore\n      swap1\n      0x01\n      add\n      swap1\n      0x20\n      add\n      dup1\n      dup4\n      gt\n      tag_183\n      jumpi\n      dup3\n      swap1\n      sub\n      0x1f\n      and\n      dup3\n      add\n      swap2\n    tag_181:\n      pop\n      pop\n      pop\n      pop\n      pop\n      swap1\n      pop\n        /* \"@openzeppelin/contracts-upgradeable/token/ERC20/ERC20Upgradeable.sol\":2702:2804  function symbol() public view virtual override returns (string memory) {... */\n      swap1\n      jump\t// out\n        /* \"@openzeppelin/contracts-upgradeable/token/ERC20/ERC20Upgradeable.sol\":6929:7356  function decreaseAllowance(address spender, uint256 subtractedValue) public virtual returns (bool) {... */\n    tag_90:\n        /* \"@openzeppelin/contracts-upgradeable/token/ERC20/ERC20Upgradeable.sol\":7022:7026  bool */\n      0x00\n        /* \"@openzeppelin/contracts-upgradeable/token/ERC20/ERC20Upgradeable.sol\":7038:7051  address owner */\n      dup1\n        /* \"@openzeppelin/contracts-upgradeable/token/ERC20/ERC20Upgradeable.sol\":7054:7066  _msgSender() */\n      tag_185\n        /* \"@openzeppelin/contracts-upgradeable/token/ERC20/ERC20Upgradeable.sol\":7054:7064  _msgSender */\n      tag_121\n        /* \"@openzeppelin/contracts-upgradeable/token/ERC20/ERC20Upgradeable.sol\":7054:7066  _msgSender() */\n      jump\t// in\n    tag_185:\n        /* \"@openzeppelin/contracts-upgradeable/token/ERC20/ERC20Upgradeable.sol\":7038:7066  address owner = _msgSender() */\n      swap1\n      pop\n        /* \"@openzeppelin/contracts-upgradeable/token/ERC20/ERC20Upgradeable.sol\":7076:7100  uint256 currentAllowance */\n      0x00\n        /* \"@openzeppelin/contracts-upgradeable/token/ERC20/ERC20Upgradeable.sol\":7103:7128  allowance(owner, spender) */\n      tag_186\n        /* \"@openzeppelin/contracts-upgradeable/token/ERC20/ERC20Upgradeable.sol\":7113:7118  owner */\n      dup3\n        /* \"@openzeppelin/contracts-upgradeable/token/ERC20/ERC20Upgradeable.sol\":7120:7127  spender */\n      dup7\n        /* \"@openzeppelin/contracts-upgradeable/token/ERC20/ERC20Upgradeable.sol\":7103:7112  allowance */\n      tag_101\n        /* \"@openzeppelin/contracts-upgradeable/token/ERC20/ERC20Upgradeable.sol\":7103:7128  allowance(owner, spender) */\n      jump\t// in\n    tag_186:\n        /* \"@openzeppelin/contracts-upgradeable/token/ERC20/ERC20Upgradeable.sol\":7076:7128  uint256 currentAllowance = allowance(owner, spender) */\n      swap1\n      pop\n        /* \"@openzeppelin/contracts-upgradeable/token/ERC20/ERC20Upgradeable.sol\":7166:7181  subtractedValue */\n      dup4\n        /* \"@openzeppelin/contracts-upgradeable/token/ERC20/ERC20Upgradeable.sol\":7146:7162  currentAllowance */\n      dup2\n        /* \"@openzeppelin/contracts-upgradeable/token/ERC20/ERC20Upgradeable.sol\":7146:7181  currentAllowance >= subtractedValue */\n      lt\n      iszero\n        /* \"@openzeppelin/contracts-upgradeable/token/ERC20/ERC20Upgradeable.sol\":7138:7223  require(currentAllowance >= subtractedValue, \"ERC20: decreased allowance below zero\") */\n      tag_187\n      jumpi\n      mload(0x40)\n      0x08c379a000000000000000000000000000000000000000000000000000000000\n      dup2\n      mstore\n      0x04\n      add\n      tag_188\n      swap1\n      tag_189\n      jump\t// in\n    tag_188:\n      mload(0x40)\n      dup1\n      swap2\n      sub\n      swap1\n      revert\n    tag_187:\n        /* \"@openzeppelin/contracts-upgradeable/token/ERC20/ERC20Upgradeable.sol\":7257:7317  _approve(owner, spender, currentAllowance - subtractedValue) */\n      tag_190\n        /* \"@openzeppelin/contracts-upgradeable/token/ERC20/ERC20Upgradeable.sol\":7266:7271  owner */\n      dup3\n        /* \"@openzeppelin/contracts-upgradeable/token/ERC20/ERC20Upgradeable.sol\":7273:7280  spender */\n      dup7\n        /* \"@openzeppelin/contracts-upgradeable/token/ERC20/ERC20Upgradeable.sol\":7301:7316  subtractedValue */\n      dup7\n        /* \"@openzeppelin/contracts-upgradeable/token/ERC20/ERC20Upgradeable.sol\":7282:7298  currentAllowance */\n      dup5\n        /* \"@openzeppelin/contracts-upgradeable/token/ERC20/ERC20Upgradeable.sol\":7282:7316  currentAllowance - subtractedValue */\n      sub\n        /* \"@openzeppelin/contracts-upgradeable/token/ERC20/ERC20Upgradeable.sol\":7257:7265  _approve */\n      tag_123\n        /* \"@openzeppelin/contracts-upgradeable/token/ERC20/ERC20Upgradeable.sol\":7257:7317  _approve(owner, spender, currentAllowance - subtractedValue) */\n      jump\t// in\n    tag_190:\n        /* \"@openzeppelin/contracts-upgradeable/token/ERC20/ERC20Upgradeable.sol\":7345:7349  true */\n      0x01\n        /* \"@openzeppelin/contracts-upgradeable/token/ERC20/ERC20Upgradeable.sol\":7338:7349  return true */\n      swap3\n      pop\n      pop\n      pop\n        /* \"@openzeppelin/contracts-upgradeable/token/ERC20/ERC20Upgradeable.sol\":6929:7356  function decreaseAllowance(address spender, uint256 subtractedValue) public virtual returns (bool) {... */\n      swap3\n      swap2\n      pop\n      pop\n      jump\t// out\n        /* \"@openzeppelin/contracts-upgradeable/token/ERC20/ERC20Upgradeable.sol\":4064:4253  function transfer(address to, uint256 amount) public virtual override returns (bool) {... */\n    tag_95:\n        /* \"@openzeppelin/contracts-upgradeable/token/ERC20/ERC20Upgradeable.sol\":4143:4147  bool */\n      0x00\n        /* \"@openzeppelin/contracts-upgradeable/token/ERC20/ERC20Upgradeable.sol\":4159:4172  address owner */\n      dup1\n        /* \"@openzeppelin/contracts-upgradeable/token/ERC20/ERC20Upgradeable.sol\":4175:4187  _msgSender() */\n      tag_192\n        /* \"@openzeppelin/contracts-upgradeable/token/ERC20/ERC20Upgradeable.sol\":4175:4185  _msgSender */\n      tag_121\n        /* \"@openzeppelin/contracts-upgradeable/token/ERC20/ERC20Upgradeable.sol\":4175:4187  _msgSender() */\n      jump\t// in\n    tag_192:\n        /* \"@openzeppelin/contracts-upgradeable/token/ERC20/ERC20Upgradeable.sol\":4159:4187  address owner = _msgSender() */\n      swap1\n      pop\n        /* \"@openzeppelin/contracts-upgradeable/token/ERC20/ERC20Upgradeable.sol\":4197:4225  _transfer(owner, to, amount) */\n      tag_193\n        /* \"@openzeppelin/contracts-upgradeable/token/ERC20/ERC20Upgradeable.sol\":4207:4212  owner */\n      dup2\n        /* \"@openzeppelin/contracts-upgradeable/token/ERC20/ERC20Upgradeable.sol\":4214:4216  to */\n      dup6\n        /* \"@openzeppelin/contracts-upgradeable/token/ERC20/ERC20Upgradeable.sol\":4218:4224  amount */\n      dup6\n        /* \"@openzeppelin/contracts-upgradeable/token/ERC20/ERC20Upgradeable.sol\":4197:4206  _transfer */\n      tag_130\n        /* \"@openzeppelin/contracts-upgradeable/token/ERC20/ERC20Upgradeable.sol\":4197:4225  _transfer(owner, to, amount) */\n      jump\t// in\n    tag_193:\n        /* \"@openzeppelin/contracts-upgradeable/token/ERC20/ERC20Upgradeable.sol\":4242:4246  true */\n      0x01\n        /* \"@openzeppelin/contracts-upgradeable/token/ERC20/ERC20Upgradeable.sol\":4235:4246  return true */\n      swap2\n      pop\n      pop\n        /* \"@openzeppelin/contracts-upgradeable/token/ERC20/ERC20Upgradeable.sol\":4064:4253  function transfer(address to, uint256 amount) public virtual override returns (bool) {... */\n      swap3\n      swap2\n      pop\n      pop\n      jump\t// out\n        /* \"@openzeppelin/contracts-upgradeable/token/ERC20/ERC20Upgradeable.sol\":4311:4460  function allowance(address owner, address spender) public view virtual override returns (uint256) {... */\n    tag_101:\n        /* \"@openzeppelin/contracts-upgradeable/token/ERC20/ERC20Upgradeable.sol\":4400:4407  uint256 */\n      0x00\n        /* \"@openzeppelin/contracts-upgradeable/token/ERC20/ERC20Upgradeable.sol\":4426:4437  _allowances */\n      0x34\n        /* \"@openzeppelin/contracts-upgradeable/token/ERC20/ERC20Upgradeable.sol\":4426:4444  _allowances[owner] */\n      0x00\n        /* \"@openzeppelin/contracts-upgradeable/token/ERC20/ERC20Upgradeable.sol\":4438:4443  owner */\n      dup5\n        /* \"@openzeppelin/contracts-upgradeable/token/ERC20/ERC20Upgradeable.sol\":4426:4444  _allowances[owner] */\n      0xffffffffffffffffffffffffffffffffffffffff\n      and\n      0xffffffffffffffffffffffffffffffffffffffff\n      and\n      dup2\n      mstore\n      0x20\n      add\n      swap1\n      dup2\n      mstore\n      0x20\n      add\n      0x00\n      keccak256\n        /* \"@openzeppelin/contracts-upgradeable/token/ERC20/ERC20Upgradeable.sol\":4426:4453  _allowances[owner][spender] */\n      0x00\n        /* \"@openzeppelin/contracts-upgradeable/token/ERC20/ERC20Upgradeable.sol\":4445:4452  spender */\n      dup4\n        /* \"@openzeppelin/contracts-upgradeable/token/ERC20/ERC20Upgradeable.sol\":4426:4453  _allowances[owner][spender] */\n      0xffffffffffffffffffffffffffffffffffffffff\n      and\n      0xffffffffffffffffffffffffffffffffffffffff\n      and\n      dup2\n      mstore\n      0x20\n      add\n      swap1\n      dup2\n      mstore\n      0x20\n      add\n      0x00\n      keccak256\n      sload\n        /* \"@openzeppelin/contracts-upgradeable/token/ERC20/ERC20Upgradeable.sol\":4419:4453  return _allowances[owner][spender] */\n      swap1\n      pop\n        /* \"@openzeppelin/contracts-upgradeable/token/ERC20/ERC20Upgradeable.sol\":4311:4460  function allowance(address owner, address spender) public view virtual override returns (uint256) {... */\n      swap3\n      swap2\n      pop\n      pop\n      jump\t// out\n        /* \"@openzeppelin/contracts-upgradeable/access/OwnableUpgradeable.sol\":2321:2519  function transferOwnership(address newOwner) public virtual onlyOwner {... */\n    tag_106:\n        /* \"@openzeppelin/contracts-upgradeable/access/OwnableUpgradeable.sol\":1334:1347  _checkOwner() */\n      tag_196\n        /* \"@openzeppelin/contracts-upgradeable/access/OwnableUpgradeable.sol\":1334:1345  _checkOwner */\n      tag_173\n        /* \"@openzeppelin/contracts-upgradeable/access/OwnableUpgradeable.sol\":1334:1347  _checkOwner() */\n      jump\t// in\n    tag_196:\n        /* \"@openzeppelin/contracts-upgradeable/access/OwnableUpgradeable.sol\":2429:2430  0 */\n      0x00\n        /* \"@openzeppelin/contracts-upgradeable/access/OwnableUpgradeable.sol\":2409:2431  newOwner != address(0) */\n      0xffffffffffffffffffffffffffffffffffffffff\n      and\n        /* \"@openzeppelin/contracts-upgradeable/access/OwnableUpgradeable.sol\":2409:2417  newOwner */\n      dup2\n        /* \"@openzeppelin/contracts-upgradeable/access/OwnableUpgradeable.sol\":2409:2431  newOwner != address(0) */\n      0xffffffffffffffffffffffffffffffffffffffff\n      and\n      eq\n      iszero\n        /* \"@openzeppelin/contracts-upgradeable/access/OwnableUpgradeable.sol\":2401:2474  require(newOwner != address(0), \"Ownable: new owner is the zero address\") */\n      tag_198\n      jumpi\n      mload(0x40)\n      0x08c379a000000000000000000000000000000000000000000000000000000000\n      dup2\n      mstore\n      0x04\n      add\n      tag_199\n      swap1\n      tag_200\n      jump\t// in\n    tag_199:\n      mload(0x40)\n      dup1\n      swap2\n      sub\n      swap1\n      revert\n    tag_198:\n        /* \"@openzeppelin/contracts-upgradeable/access/OwnableUpgradeable.sol\":2484:2512  _transferOwnership(newOwner) */\n      tag_201\n        /* \"@openzeppelin/contracts-upgradeable/access/OwnableUpgradeable.sol\":2503:2511  newOwner */\n      dup2\n        /* \"@openzeppelin/contracts-upgradeable/access/OwnableUpgradeable.sol\":2484:2502  _transferOwnership */\n      tag_176\n        /* \"@openzeppelin/contracts-upgradeable/access/OwnableUpgradeable.sol\":2484:2512  _transferOwnership(newOwner) */\n      jump\t// in\n    tag_201:\n        /* \"@openzeppelin/contracts-upgradeable/access/OwnableUpgradeable.sol\":2321:2519  function transferOwnership(address newOwner) public virtual onlyOwner {... */\n      pop\n      jump\t// out\n        /* \"contracts/Implementacion Tokens Ethereum/PlatziTokenV1.sol\":641:1047  function initialize (uint256 initialSupply) public initializer {\r... */\n    tag_111:\n        /* \"@openzeppelin/contracts-upgradeable/proxy/utils/Initializable.sol\":3268:3287  bool isTopLevelCall */\n      0x00\n        /* \"@openzeppelin/contracts-upgradeable/proxy/utils/Initializable.sol\":3291:3304  _initializing */\n      dup1\n      0x01\n      swap1\n      sload\n      swap1\n      0x0100\n      exp\n      swap1\n      div\n      0xff\n      and\n        /* \"@openzeppelin/contracts-upgradeable/proxy/utils/Initializable.sol\":3290:3304  !_initializing */\n      iszero\n        /* \"@openzeppelin/contracts-upgradeable/proxy/utils/Initializable.sol\":3268:3304  bool isTopLevelCall = !_initializing */\n      swap1\n      pop\n        /* \"@openzeppelin/contracts-upgradeable/proxy/utils/Initializable.sol\":3336:3350  isTopLevelCall */\n      dup1\n        /* \"@openzeppelin/contracts-upgradeable/proxy/utils/Initializable.sol\":3336:3370  isTopLevelCall && _initialized < 1 */\n      dup1\n      iszero\n      tag_203\n      jumpi\n      pop\n        /* \"@openzeppelin/contracts-upgradeable/proxy/utils/Initializable.sol\":3369:3370  1 */\n      0x01\n        /* \"@openzeppelin/contracts-upgradeable/proxy/utils/Initializable.sol\":3354:3366  _initialized */\n      0x00\n      dup1\n      sload\n      swap1\n      0x0100\n      exp\n      swap1\n      div\n      0xff\n      and\n        /* \"@openzeppelin/contracts-upgradeable/proxy/utils/Initializable.sol\":3354:3370  _initialized < 1 */\n      0xff\n      and\n      lt\n        /* \"@openzeppelin/contracts-upgradeable/proxy/utils/Initializable.sol\":3336:3370  isTopLevelCall && _initialized < 1 */\n    tag_203:\n        /* \"@openzeppelin/contracts-upgradeable/proxy/utils/Initializable.sol\":3335:3443  (isTopLevelCall && _initialized < 1) || (!AddressUpgradeable.isContract(address(this)) && _initialized == 1) */\n      dup1\n      tag_204\n      jumpi\n      pop\n        /* \"@openzeppelin/contracts-upgradeable/proxy/utils/Initializable.sol\":3377:3421  AddressUpgradeable.isContract(address(this)) */\n      tag_205\n        /* \"@openzeppelin/contracts-upgradeable/proxy/utils/Initializable.sol\":3415:3419  this */\n      address\n        /* \"@openzeppelin/contracts-upgradeable/proxy/utils/Initializable.sol\":3377:3406  AddressUpgradeable.isContract */\n      tag_206\n        /* \"@openzeppelin/contracts-upgradeable/proxy/utils/Initializable.sol\":3377:3421  AddressUpgradeable.isContract(address(this)) */\n      jump\t// in\n    tag_205:\n        /* \"@openzeppelin/contracts-upgradeable/proxy/utils/Initializable.sol\":3376:3421  !AddressUpgradeable.isContract(address(this)) */\n      iszero\n        /* \"@openzeppelin/contracts-upgradeable/proxy/utils/Initializable.sol\":3376:3442  !AddressUpgradeable.isContract(address(this)) && _initialized == 1 */\n      dup1\n      iszero\n      tag_207\n      jumpi\n      pop\n        /* \"@openzeppelin/contracts-upgradeable/proxy/utils/Initializable.sol\":3441:3442  1 */\n      0x01\n        /* \"@openzeppelin/contracts-upgradeable/proxy/utils/Initializable.sol\":3425:3437  _initialized */\n      0x00\n      dup1\n      sload\n      swap1\n      0x0100\n      exp\n      swap1\n      div\n      0xff\n      and\n        /* \"@openzeppelin/contracts-upgradeable/proxy/utils/Initializable.sol\":3425:3442  _initialized == 1 */\n      0xff\n      and\n      eq\n        /* \"@openzeppelin/contracts-upgradeable/proxy/utils/Initializable.sol\":3376:3442  !AddressUpgradeable.isContract(address(this)) && _initialized == 1 */\n    tag_207:\n        /* \"@openzeppelin/contracts-upgradeable/proxy/utils/Initializable.sol\":3335:3443  (isTopLevelCall && _initialized < 1) || (!AddressUpgradeable.isContract(address(this)) && _initialized == 1) */\n    tag_204:\n        /* \"@openzeppelin/contracts-upgradeable/proxy/utils/Initializable.sol\":3314:3515  require(... */\n      tag_208\n      jumpi\n      mload(0x40)\n      0x08c379a000000000000000000000000000000000000000000000000000000000\n      dup2\n      mstore\n      0x04\n      add\n      tag_209\n      swap1\n      tag_210\n      jump\t// in\n    tag_209:\n      mload(0x40)\n      dup1\n      swap2\n      sub\n      swap1\n      revert\n    tag_208:\n        /* \"@openzeppelin/contracts-upgradeable/proxy/utils/Initializable.sol\":3540:3541  1 */\n      0x01\n        /* \"@openzeppelin/contracts-upgradeable/proxy/utils/Initializable.sol\":3525:3537  _initialized */\n      0x00\n      dup1\n        /* \"@openzeppelin/contracts-upgradeable/proxy/utils/Initializable.sol\":3525:3541  _initialized = 1 */\n      0x0100\n      exp\n      dup2\n      sload\n      dup2\n      0xff\n      mul\n      not\n      and\n      swap1\n      dup4\n      0xff\n      and\n      mul\n      or\n      swap1\n      sstore\n      pop\n        /* \"@openzeppelin/contracts-upgradeable/proxy/utils/Initializable.sol\":3555:3569  isTopLevelCall */\n      dup1\n        /* \"@openzeppelin/contracts-upgradeable/proxy/utils/Initializable.sol\":3551:3616  if (isTopLevelCall) {... */\n      iszero\n      tag_211\n      jumpi\n        /* \"@openzeppelin/contracts-upgradeable/proxy/utils/Initializable.sol\":3601:3605  true */\n      0x01\n        /* \"@openzeppelin/contracts-upgradeable/proxy/utils/Initializable.sol\":3585:3598  _initializing */\n      0x00\n      0x01\n        /* \"@openzeppelin/contracts-upgradeable/proxy/utils/Initializable.sol\":3585:3605  _initializing = true */\n      0x0100\n      exp\n      dup2\n      sload\n      dup2\n      0xff\n      mul\n      not\n      and\n      swap1\n      dup4\n      iszero\n      iszero\n      mul\n      or\n      swap1\n      sstore\n      pop\n        /* \"@openzeppelin/contracts-upgradeable/proxy/utils/Initializable.sol\":3551:3616  if (isTopLevelCall) {... */\n    tag_211:\n        /* \"contracts/Implementacion Tokens Ethereum/PlatziTokenV1.sol\":768:801  __ERC20_init(\"PlatziToken\",\"PLZ\") */\n      tag_213\n      mload(0x40)\n      dup1\n      0x40\n      add\n      0x40\n      mstore\n      dup1\n      0x0b\n      dup2\n      mstore\n      0x20\n      add\n      0x506c61747a69546f6b656e000000000000000000000000000000000000000000\n      dup2\n      mstore\n      pop\n      mload(0x40)\n      dup1\n      0x40\n      add\n      0x40\n      mstore\n      dup1\n      0x03\n      dup2\n      mstore\n      0x20\n      add\n      0x504c5a0000000000000000000000000000000000000000000000000000000000\n      dup2\n      mstore\n      pop\n        /* \"contracts/Implementacion Tokens Ethereum/PlatziTokenV1.sol\":768:780  __ERC20_init */\n      tag_214\n        /* \"contracts/Implementacion Tokens Ethereum/PlatziTokenV1.sol\":768:801  __ERC20_init(\"PlatziToken\",\"PLZ\") */\n      jump\t// in\n    tag_213:\n        /* \"contracts/Implementacion Tokens Ethereum/PlatziTokenV1.sol\":867:893  __Ownable_init_unchained() */\n      tag_215\n        /* \"contracts/Implementacion Tokens Ethereum/PlatziTokenV1.sol\":867:891  __Ownable_init_unchained */\n      tag_216\n        /* \"contracts/Implementacion Tokens Ethereum/PlatziTokenV1.sol\":867:893  __Ownable_init_unchained() */\n      jump\t// in\n    tag_215:\n        /* \"contracts/Implementacion Tokens Ethereum/PlatziTokenV1.sol\":904:928  __UUPSUpgradeable_init() */\n      tag_217\n        /* \"contracts/Implementacion Tokens Ethereum/PlatziTokenV1.sol\":904:926  __UUPSUpgradeable_init */\n      tag_218\n        /* \"contracts/Implementacion Tokens Ethereum/PlatziTokenV1.sol\":904:928  __UUPSUpgradeable_init() */\n      jump\t// in\n    tag_217:\n        /* \"contracts/Implementacion Tokens Ethereum/PlatziTokenV1.sol\":990:1039  _mint(msg.sender, initialSupply*(10**decimals())) */\n      tag_219\n        /* \"contracts/Implementacion Tokens Ethereum/PlatziTokenV1.sol\":996:1006  msg.sender */\n      caller\n        /* \"contracts/Implementacion Tokens Ethereum/PlatziTokenV1.sol\":1027:1037  decimals() */\n      tag_220\n        /* \"contracts/Implementacion Tokens Ethereum/PlatziTokenV1.sol\":1027:1035  decimals */\n      tag_48\n        /* \"contracts/Implementacion Tokens Ethereum/PlatziTokenV1.sol\":1027:1037  decimals() */\n      jump\t// in\n    tag_220:\n        /* \"contracts/Implementacion Tokens Ethereum/PlatziTokenV1.sol\":1023:1025  10 */\n      0x0a\n        /* \"contracts/Implementacion Tokens Ethereum/PlatziTokenV1.sol\":1023:1037  10**decimals() */\n      tag_221\n      swap2\n      swap1\n      tag_222\n      jump\t// in\n    tag_221:\n        /* \"contracts/Implementacion Tokens Ethereum/PlatziTokenV1.sol\":1008:1021  initialSupply */\n      dup5\n        /* \"contracts/Implementacion Tokens Ethereum/PlatziTokenV1.sol\":1008:1038  initialSupply*(10**decimals()) */\n      tag_223\n      swap2\n      swap1\n      tag_224\n      jump\t// in\n    tag_223:\n        /* \"contracts/Implementacion Tokens Ethereum/PlatziTokenV1.sol\":990:995  _mint */\n      tag_225\n        /* \"contracts/Implementacion Tokens Ethereum/PlatziTokenV1.sol\":990:1039  _mint(msg.sender, initialSupply*(10**decimals())) */\n      jump\t// in\n    tag_219:\n        /* \"@openzeppelin/contracts-upgradeable/proxy/utils/Initializable.sol\":3640:3654  isTopLevelCall */\n      dup1\n        /* \"@openzeppelin/contracts-upgradeable/proxy/utils/Initializable.sol\":3636:3735  if (isTopLevelCall) {... */\n      iszero\n      tag_226\n      jumpi\n        /* \"@openzeppelin/contracts-upgradeable/proxy/utils/Initializable.sol\":3686:3691  false */\n      0x00\n        /* \"@openzeppelin/contracts-upgradeable/proxy/utils/Initializable.sol\":3670:3683  _initializing */\n      dup1\n      0x01\n        /* \"@openzeppelin/contracts-upgradeable/proxy/utils/Initializable.sol\":3670:3691  _initializing = false */\n      0x0100\n      exp\n      dup2\n      sload\n      dup2\n      0xff\n      mul\n      not\n      and\n      swap1\n      dup4\n      iszero\n      iszero\n      mul\n      or\n      swap1\n      sstore\n      pop\n        /* \"@openzeppelin/contracts-upgradeable/proxy/utils/Initializable.sol\":3710:3724  Initialized(1) */\n      0x7f26b83ff96e1f2b6a682f133852f6798a09c465da95921460cefb3847402498\n        /* \"@openzeppelin/contracts-upgradeable/proxy/utils/Initializable.sol\":3722:3723  1 */\n      0x01\n        /* \"@openzeppelin/contracts-upgradeable/proxy/utils/Initializable.sol\":3710:3724  Initialized(1) */\n      mload(0x40)\n      tag_227\n      swap2\n      swap1\n      tag_228\n      jump\t// in\n    tag_227:\n      mload(0x40)\n      dup1\n      swap2\n      sub\n      swap1\n      log1\n        /* \"@openzeppelin/contracts-upgradeable/proxy/utils/Initializable.sol\":3636:3735  if (isTopLevelCall) {... */\n    tag_226:\n        /* \"@openzeppelin/contracts-upgradeable/proxy/utils/Initializable.sol\":3258:3741  {... */\n      pop\n        /* \"contracts/Implementacion Tokens Ethereum/PlatziTokenV1.sol\":641:1047  function initialize (uint256 initialSupply) public initializer {\r... */\n      pop\n      jump\t// out\n        /* \"@openzeppelin/contracts-upgradeable/utils/ContextUpgradeable.sol\":850:946  function _msgSender() internal view virtual returns (address) {... */\n    tag_121:\n        /* \"@openzeppelin/contracts-upgradeable/utils/ContextUpgradeable.sol\":903:910  address */\n      0x00\n        /* \"@openzeppelin/contracts-upgradeable/utils/ContextUpgradeable.sol\":929:939  msg.sender */\n      caller\n        /* \"@openzeppelin/contracts-upgradeable/utils/ContextUpgradeable.sol\":922:939  return msg.sender */\n      swap1\n      pop\n        /* \"@openzeppelin/contracts-upgradeable/utils/ContextUpgradeable.sol\":850:946  function _msgSender() internal view virtual returns (address) {... */\n      swap1\n      jump\t// out\n        /* \"@openzeppelin/contracts-upgradeable/token/ERC20/ERC20Upgradeable.sol\":10841:11211  function _approve(... */\n    tag_123:\n        /* \"@openzeppelin/contracts-upgradeable/token/ERC20/ERC20Upgradeable.sol\":10989:10990  0 */\n      0x00\n        /* \"@openzeppelin/contracts-upgradeable/token/ERC20/ERC20Upgradeable.sol\":10972:10991  owner != address(0) */\n      0xffffffffffffffffffffffffffffffffffffffff\n      and\n        /* \"@openzeppelin/contracts-upgradeable/token/ERC20/ERC20Upgradeable.sol\":10972:10977  owner */\n      dup4\n        /* \"@openzeppelin/contracts-upgradeable/token/ERC20/ERC20Upgradeable.sol\":10972:10991  owner != address(0) */\n      0xffffffffffffffffffffffffffffffffffffffff\n      and\n      eq\n      iszero\n        /* \"@openzeppelin/contracts-upgradeable/token/ERC20/ERC20Upgradeable.sol\":10964:11032  require(owner != address(0), \"ERC20: approve from the zero address\") */\n      tag_231\n      jumpi\n      mload(0x40)\n      0x08c379a000000000000000000000000000000000000000000000000000000000\n      dup2\n      mstore\n      0x04\n      add\n      tag_232\n      swap1\n      tag_233\n      jump\t// in\n    tag_232:\n      mload(0x40)\n      dup1\n      swap2\n      sub\n      swap1\n      revert\n    tag_231:\n        /* \"@openzeppelin/contracts-upgradeable/token/ERC20/ERC20Upgradeable.sol\":11069:11070  0 */\n      0x00\n        /* \"@openzeppelin/contracts-upgradeable/token/ERC20/ERC20Upgradeable.sol\":11050:11071  spender != address(0) */\n      0xffffffffffffffffffffffffffffffffffffffff\n      and\n        /* \"@openzeppelin/contracts-upgradeable/token/ERC20/ERC20Upgradeable.sol\":11050:11057  spender */\n      dup3\n        /* \"@openzeppelin/contracts-upgradeable/token/ERC20/ERC20Upgradeable.sol\":11050:11071  spender != address(0) */\n      0xffffffffffffffffffffffffffffffffffffffff\n      and\n      eq\n      iszero\n        /* \"@openzeppelin/contracts-upgradeable/token/ERC20/ERC20Upgradeable.sol\":11042:11110  require(spender != address(0), \"ERC20: approve to the zero address\") */\n      tag_234\n      jumpi\n      mload(0x40)\n      0x08c379a000000000000000000000000000000000000000000000000000000000\n      dup2\n      mstore\n      0x04\n      add\n      tag_235\n      swap1\n      tag_236\n      jump\t// in\n    tag_235:\n      mload(0x40)\n      dup1\n      swap2\n      sub\n      swap1\n      revert\n    tag_234:\n        /* \"@openzeppelin/contracts-upgradeable/token/ERC20/ERC20Upgradeable.sol\":11151:11157  amount */\n      dup1\n        /* \"@openzeppelin/contracts-upgradeable/token/ERC20/ERC20Upgradeable.sol\":11121:11132  _allowances */\n      0x34\n        /* \"@openzeppelin/contracts-upgradeable/token/ERC20/ERC20Upgradeable.sol\":11121:11139  _allowances[owner] */\n      0x00\n        /* \"@openzeppelin/contracts-upgradeable/token/ERC20/ERC20Upgradeable.sol\":11133:11138  owner */\n      dup6\n        /* \"@openzeppelin/contracts-upgradeable/token/ERC20/ERC20Upgradeable.sol\":11121:11139  _allowances[owner] */\n      0xffffffffffffffffffffffffffffffffffffffff\n      and\n      0xffffffffffffffffffffffffffffffffffffffff\n      and\n      dup2\n      mstore\n      0x20\n      add\n      swap1\n      dup2\n      mstore\n      0x20\n      add\n      0x00\n      keccak256\n        /* \"@openzeppelin/contracts-upgradeable/token/ERC20/ERC20Upgradeable.sol\":11121:11148  _allowances[owner][spender] */\n      0x00\n        /* \"@openzeppelin/contracts-upgradeable/token/ERC20/ERC20Upgradeable.sol\":11140:11147  spender */\n      dup5\n        /* \"@openzeppelin/contracts-upgradeable/token/ERC20/ERC20Upgradeable.sol\":11121:11148  _allowances[owner][spender] */\n      0xffffffffffffffffffffffffffffffffffffffff\n      and\n      0xffffffffffffffffffffffffffffffffffffffff\n      and\n      dup2\n      mstore\n      0x20\n      add\n      swap1\n      dup2\n      mstore\n      0x20\n      add\n      0x00\n      keccak256\n        /* \"@openzeppelin/contracts-upgradeable/token/ERC20/ERC20Upgradeable.sol\":11121:11157  _allowances[owner][spender] = amount */\n      dup2\n      swap1\n      sstore\n      pop\n        /* \"@openzeppelin/contracts-upgradeable/token/ERC20/ERC20Upgradeable.sol\":11188:11195  spender */\n      dup2\n        /* \"@openzeppelin/contracts-upgradeable/token/ERC20/ERC20Upgradeable.sol\":11172:11204  Approval(owner, spender, amount) */\n      0xffffffffffffffffffffffffffffffffffffffff\n      and\n        /* \"@openzeppelin/contracts-upgradeable/token/ERC20/ERC20Upgradeable.sol\":11181:11186  owner */\n      dup4\n        /* \"@openzeppelin/contracts-upgradeable/token/ERC20/ERC20Upgradeable.sol\":11172:11204  Approval(owner, spender, amount) */\n      0xffffffffffffffffffffffffffffffffffffffff\n      and\n      0x8c5be1e5ebec7d5bd14f71427d1e84f3dd0314c0f7b2291e5b200ac8c7c3b925\n        /* \"@openzeppelin/contracts-upgradeable/token/ERC20/ERC20Upgradeable.sol\":11197:11203  amount */\n      dup4\n        /* \"@openzeppelin/contracts-upgradeable/token/ERC20/ERC20Upgradeable.sol\":11172:11204  Approval(owner, spender, amount) */\n      mload(0x40)\n      tag_237\n      swap2\n      swap1\n      tag_39\n      jump\t// in\n    tag_237:\n      mload(0x40)\n      dup1\n      swap2\n      sub\n      swap1\n      log3\n        /* \"@openzeppelin/contracts-upgradeable/token/ERC20/ERC20Upgradeable.sol\":10841:11211  function _approve(... */\n      pop\n      pop\n      pop\n      jump\t// out\n        /* \"@openzeppelin/contracts-upgradeable/token/ERC20/ERC20Upgradeable.sol\":11492:11933  function _spendAllowance(... */\n    tag_128:\n        /* \"@openzeppelin/contracts-upgradeable/token/ERC20/ERC20Upgradeable.sol\":11622:11646  uint256 currentAllowance */\n      0x00\n        /* \"@openzeppelin/contracts-upgradeable/token/ERC20/ERC20Upgradeable.sol\":11649:11674  allowance(owner, spender) */\n      tag_239\n        /* \"@openzeppelin/contracts-upgradeable/token/ERC20/ERC20Upgradeable.sol\":11659:11664  owner */\n      dup5\n        /* \"@openzeppelin/contracts-upgradeable/token/ERC20/ERC20Upgradeable.sol\":11666:11673  spender */\n      dup5\n        /* \"@openzeppelin/contracts-upgradeable/token/ERC20/ERC20Upgradeable.sol\":11649:11658  allowance */\n      tag_101\n        /* \"@openzeppelin/contracts-upgradeable/token/ERC20/ERC20Upgradeable.sol\":11649:11674  allowance(owner, spender) */\n      jump\t// in\n    tag_239:\n        /* \"@openzeppelin/contracts-upgradeable/token/ERC20/ERC20Upgradeable.sol\":11622:11674  uint256 currentAllowance = allowance(owner, spender) */\n      swap1\n      pop\n        /* \"@openzeppelin/contracts-upgradeable/token/ERC20/ERC20Upgradeable.sol\":11708:11725  type(uint256).max */\n      0xffffffffffffffffffffffffffffffffffffffffffffffffffffffffffffffff\n        /* \"@openzeppelin/contracts-upgradeable/token/ERC20/ERC20Upgradeable.sol\":11688:11704  currentAllowance */\n      dup2\n        /* \"@openzeppelin/contracts-upgradeable/token/ERC20/ERC20Upgradeable.sol\":11688:11725  currentAllowance != type(uint256).max */\n      eq\n        /* \"@openzeppelin/contracts-upgradeable/token/ERC20/ERC20Upgradeable.sol\":11684:11927  if (currentAllowance != type(uint256).max) {... */\n      tag_240\n      jumpi\n        /* \"@openzeppelin/contracts-upgradeable/token/ERC20/ERC20Upgradeable.sol\":11769:11775  amount */\n      dup2\n        /* \"@openzeppelin/contracts-upgradeable/token/ERC20/ERC20Upgradeable.sol\":11749:11765  currentAllowance */\n      dup2\n        /* \"@openzeppelin/contracts-upgradeable/token/ERC20/ERC20Upgradeable.sol\":11749:11775  currentAllowance >= amount */\n      lt\n      iszero\n        /* \"@openzeppelin/contracts-upgradeable/token/ERC20/ERC20Upgradeable.sol\":11741:11809  require(currentAllowance >= amount, \"ERC20: insufficient allowance\") */\n      tag_241\n      jumpi\n      mload(0x40)\n      0x08c379a000000000000000000000000000000000000000000000000000000000\n      dup2\n      mstore\n      0x04\n      add\n      tag_242\n      swap1\n      tag_243\n      jump\t// in\n    tag_242:\n      mload(0x40)\n      dup1\n      swap2\n      sub\n      swap1\n      revert\n    tag_241:\n        /* \"@openzeppelin/contracts-upgradeable/token/ERC20/ERC20Upgradeable.sol\":11851:11902  _approve(owner, spender, currentAllowance - amount) */\n      tag_244\n        /* \"@openzeppelin/contracts-upgradeable/token/ERC20/ERC20Upgradeable.sol\":11860:11865  owner */\n      dup5\n        /* \"@openzeppelin/contracts-upgradeable/token/ERC20/ERC20Upgradeable.sol\":11867:11874  spender */\n      dup5\n        /* \"@openzeppelin/contracts-upgradeable/token/ERC20/ERC20Upgradeable.sol\":11895:11901  amount */\n      dup5\n        /* \"@openzeppelin/contracts-upgradeable/token/ERC20/ERC20Upgradeable.sol\":11876:11892  currentAllowance */\n      dup5\n        /* \"@openzeppelin/contracts-upgradeable/token/ERC20/ERC20Upgradeable.sol\":11876:11901  currentAllowance - amount */\n      sub\n        /* \"@openzeppelin/contracts-upgradeable/token/ERC20/ERC20Upgradeable.sol\":11851:11859  _approve */\n      tag_123\n        /* \"@openzeppelin/contracts-upgradeable/token/ERC20/ERC20Upgradeable.sol\":11851:11902  _approve(owner, spender, currentAllowance - amount) */\n      jump\t// in\n    tag_244:\n        /* \"@openzeppelin/contracts-upgradeable/token/ERC20/ERC20Upgradeable.sol\":11684:11927  if (currentAllowance != type(uint256).max) {... */\n    tag_240:\n        /* \"@openzeppelin/contracts-upgradeable/token/ERC20/ERC20Upgradeable.sol\":11612:11933  {... */\n      pop\n        /* \"@openzeppelin/contracts-upgradeable/token/ERC20/ERC20Upgradeable.sol\":11492:11933  function _spendAllowance(... */\n      pop\n      pop\n      pop\n      jump\t// out\n        /* \"@openzeppelin/contracts-upgradeable/token/ERC20/ERC20Upgradeable.sol\":7810:8628  function _transfer(... */\n    tag_130:\n        /* \"@openzeppelin/contracts-upgradeable/token/ERC20/ERC20Upgradeable.sol\":7952:7953  0 */\n      0x00\n        /* \"@openzeppelin/contracts-upgradeable/token/ERC20/ERC20Upgradeable.sol\":7936:7954  from != address(0) */\n      0xffffffffffffffffffffffffffffffffffffffff\n      and\n        /* \"@openzeppelin/contracts-upgradeable/token/ERC20/ERC20Upgradeable.sol\":7936:7940  from */\n      dup4\n        /* \"@openzeppelin/contracts-upgradeable/token/ERC20/ERC20Upgradeable.sol\":7936:7954  from != address(0) */\n      0xffffffffffffffffffffffffffffffffffffffff\n      and\n      eq\n      iszero\n        /* \"@openzeppelin/contracts-upgradeable/token/ERC20/ERC20Upgradeable.sol\":7928:7996  require(from != address(0), \"ERC20: transfer from the zero address\") */\n      tag_246\n      jumpi\n      mload(0x40)\n      0x08c379a000000000000000000000000000000000000000000000000000000000\n      dup2\n      mstore\n      0x04\n      add\n      tag_247\n      swap1\n      tag_248\n      jump\t// in\n    tag_247:\n      mload(0x40)\n      dup1\n      swap2\n      sub\n      swap1\n      revert\n    tag_246:\n        /* \"@openzeppelin/contracts-upgradeable/token/ERC20/ERC20Upgradeable.sol\":8028:8029  0 */\n      0x00\n        /* \"@openzeppelin/contracts-upgradeable/token/ERC20/ERC20Upgradeable.sol\":8014:8030  to != address(0) */\n      0xffffffffffffffffffffffffffffffffffffffff\n      and\n        /* \"@openzeppelin/contracts-upgradeable/token/ERC20/ERC20Upgradeable.sol\":8014:8016  to */\n      dup3\n        /* \"@openzeppelin/contracts-upgradeable/token/ERC20/ERC20Upgradeable.sol\":8014:8030  to != address(0) */\n      0xffffffffffffffffffffffffffffffffffffffff\n      and\n      eq\n      iszero\n        /* \"@openzeppelin/contracts-upgradeable/token/ERC20/ERC20Upgradeable.sol\":8006:8070  require(to != address(0), \"ERC20: transfer to the zero address\") */\n      tag_249\n      jumpi\n      mload(0x40)\n      0x08c379a000000000000000000000000000000000000000000000000000000000\n      dup2\n      mstore\n      0x04\n      add\n      tag_250\n      swap1\n      tag_251\n      jump\t// in\n    tag_250:\n      mload(0x40)\n      dup1\n      swap2\n      sub\n      swap1\n      revert\n    tag_249:\n        /* \"@openzeppelin/contracts-upgradeable/token/ERC20/ERC20Upgradeable.sol\":8081:8119  _beforeTokenTransfer(from, to, amount) */\n      tag_252\n        /* \"@openzeppelin/contracts-upgradeable/token/ERC20/ERC20Upgradeable.sol\":8102:8106  from */\n      dup4\n        /* \"@openzeppelin/contracts-upgradeable/token/ERC20/ERC20Upgradeable.sol\":8108:8110  to */\n      dup4\n        /* \"@openzeppelin/contracts-upgradeable/token/ERC20/ERC20Upgradeable.sol\":8112:8118  amount */\n      dup4\n        /* \"@openzeppelin/contracts-upgradeable/token/ERC20/ERC20Upgradeable.sol\":8081:8101  _beforeTokenTransfer */\n      tag_253\n        /* \"@openzeppelin/contracts-upgradeable/token/ERC20/ERC20Upgradeable.sol\":8081:8119  _beforeTokenTransfer(from, to, amount) */\n      jump\t// in\n    tag_252:\n        /* \"@openzeppelin/contracts-upgradeable/token/ERC20/ERC20Upgradeable.sol\":8130:8149  uint256 fromBalance */\n      0x00\n        /* \"@openzeppelin/contracts-upgradeable/token/ERC20/ERC20Upgradeable.sol\":8152:8161  _balances */\n      0x33\n        /* \"@openzeppelin/contracts-upgradeable/token/ERC20/ERC20Upgradeable.sol\":8152:8167  _balances[from] */\n      0x00\n        /* \"@openzeppelin/contracts-upgradeable/token/ERC20/ERC20Upgradeable.sol\":8162:8166  from */\n      dup6\n        /* \"@openzeppelin/contracts-upgradeable/token/ERC20/ERC20Upgradeable.sol\":8152:8167  _balances[from] */\n      0xffffffffffffffffffffffffffffffffffffffff\n      and\n      0xffffffffffffffffffffffffffffffffffffffff\n      and\n      dup2\n      mstore\n      0x20\n      add\n      swap1\n      dup2\n      mstore\n      0x20\n      add\n      0x00\n      keccak256\n      sload\n        /* \"@openzeppelin/contracts-upgradeable/token/ERC20/ERC20Upgradeable.sol\":8130:8167  uint256 fromBalance = _balances[from] */\n      swap1\n      pop\n        /* \"@openzeppelin/contracts-upgradeable/token/ERC20/ERC20Upgradeable.sol\":8200:8206  amount */\n      dup2\n        /* \"@openzeppelin/contracts-upgradeable/token/ERC20/ERC20Upgradeable.sol\":8185:8196  fromBalance */\n      dup2\n        /* \"@openzeppelin/contracts-upgradeable/token/ERC20/ERC20Upgradeable.sol\":8185:8206  fromBalance >= amount */\n      lt\n      iszero\n        /* \"@openzeppelin/contracts-upgradeable/token/ERC20/ERC20Upgradeable.sol\":8177:8249  require(fromBalance >= amount, \"ERC20: transfer amount exceeds balance\") */\n      tag_254\n      jumpi\n      mload(0x40)\n      0x08c379a000000000000000000000000000000000000000000000000000000000\n      dup2\n      mstore\n      0x04\n      add\n      tag_255\n      swap1\n      tag_256\n      jump\t// in\n    tag_255:\n      mload(0x40)\n      dup1\n      swap2\n      sub\n      swap1\n      revert\n    tag_254:\n        /* \"@openzeppelin/contracts-upgradeable/token/ERC20/ERC20Upgradeable.sol\":8315:8321  amount */\n      dup2\n        /* \"@openzeppelin/contracts-upgradeable/token/ERC20/ERC20Upgradeable.sol\":8301:8312  fromBalance */\n      dup2\n        /* \"@openzeppelin/contracts-upgradeable/token/ERC20/ERC20Upgradeable.sol\":8301:8321  fromBalance - amount */\n      sub\n        /* \"@openzeppelin/contracts-upgradeable/token/ERC20/ERC20Upgradeable.sol\":8283:8292  _balances */\n      0x33\n        /* \"@openzeppelin/contracts-upgradeable/token/ERC20/ERC20Upgradeable.sol\":8283:8298  _balances[from] */\n      0x00\n        /* \"@openzeppelin/contracts-upgradeable/token/ERC20/ERC20Upgradeable.sol\":8293:8297  from */\n      dup7\n        /* \"@openzeppelin/contracts-upgradeable/token/ERC20/ERC20Upgradeable.sol\":8283:8298  _balances[from] */\n      0xffffffffffffffffffffffffffffffffffffffff\n      and\n      0xffffffffffffffffffffffffffffffffffffffff\n      and\n      dup2\n      mstore\n      0x20\n      add\n      swap1\n      dup2\n      mstore\n      0x20\n      add\n      0x00\n      keccak256\n        /* \"@openzeppelin/contracts-upgradeable/token/ERC20/ERC20Upgradeable.sol\":8283:8321  _balances[from] = fromBalance - amount */\n      dup2\n      swap1\n      sstore\n      pop\n        /* \"@openzeppelin/contracts-upgradeable/token/ERC20/ERC20Upgradeable.sol\":8515:8521  amount */\n      dup2\n        /* \"@openzeppelin/contracts-upgradeable/token/ERC20/ERC20Upgradeable.sol\":8498:8507  _balances */\n      0x33\n        /* \"@openzeppelin/contracts-upgradeable/token/ERC20/ERC20Upgradeable.sol\":8498:8511  _balances[to] */\n      0x00\n        /* \"@openzeppelin/contracts-upgradeable/token/ERC20/ERC20Upgradeable.sol\":8508:8510  to */\n      dup6\n        /* \"@openzeppelin/contracts-upgradeable/token/ERC20/ERC20Upgradeable.sol\":8498:8511  _balances[to] */\n      0xffffffffffffffffffffffffffffffffffffffff\n      and\n      0xffffffffffffffffffffffffffffffffffffffff\n      and\n      dup2\n      mstore\n      0x20\n      add\n      swap1\n      dup2\n      mstore\n      0x20\n      add\n      0x00\n      keccak256\n      0x00\n        /* \"@openzeppelin/contracts-upgradeable/token/ERC20/ERC20Upgradeable.sol\":8498:8521  _balances[to] += amount */\n      dup3\n      dup3\n      sload\n      add\n      swap3\n      pop\n      pop\n      dup2\n      swap1\n      sstore\n      pop\n        /* \"@openzeppelin/contracts-upgradeable/token/ERC20/ERC20Upgradeable.sol\":8562:8564  to */\n      dup3\n        /* \"@openzeppelin/contracts-upgradeable/token/ERC20/ERC20Upgradeable.sol\":8547:8573  Transfer(from, to, amount) */\n      0xffffffffffffffffffffffffffffffffffffffff\n      and\n        /* \"@openzeppelin/contracts-upgradeable/token/ERC20/ERC20Upgradeable.sol\":8556:8560  from */\n      dup5\n        /* \"@openzeppelin/contracts-upgradeable/token/ERC20/ERC20Upgradeable.sol\":8547:8573  Transfer(from, to, amount) */\n      0xffffffffffffffffffffffffffffffffffffffff\n      and\n      0xddf252ad1be2c89b69c2b068fc378daa952ba7f163c4a11628f55a4df523b3ef\n        /* \"@openzeppelin/contracts-upgradeable/token/ERC20/ERC20Upgradeable.sol\":8566:8572  amount */\n      dup5\n        /* \"@openzeppelin/contracts-upgradeable/token/ERC20/ERC20Upgradeable.sol\":8547:8573  Transfer(from, to, amount) */\n      mload(0x40)\n      tag_257\n      swap2\n      swap1\n      tag_39\n      jump\t// in\n    tag_257:\n      mload(0x40)\n      dup1\n      swap2\n      sub\n      swap1\n      log3\n        /* \"@openzeppelin/contracts-upgradeable/token/ERC20/ERC20Upgradeable.sol\":8584:8621  _afterTokenTransfer(from, to, amount) */\n      tag_258\n        /* \"@openzeppelin/contracts-upgradeable/token/ERC20/ERC20Upgradeable.sol\":8604:8608  from */\n      dup5\n        /* \"@openzeppelin/contracts-upgradeable/token/ERC20/ERC20Upgradeable.sol\":8610:8612  to */\n      dup5\n        /* \"@openzeppelin/contracts-upgradeable/token/ERC20/ERC20Upgradeable.sol\":8614:8620  amount */\n      dup5\n        /* \"@openzeppelin/contracts-upgradeable/token/ERC20/ERC20Upgradeable.sol\":8584:8603  _afterTokenTransfer */\n      tag_259\n        /* \"@openzeppelin/contracts-upgradeable/token/ERC20/ERC20Upgradeable.sol\":8584:8621  _afterTokenTransfer(from, to, amount) */\n      jump\t// in\n    tag_258:\n        /* \"@openzeppelin/contracts-upgradeable/token/ERC20/ERC20Upgradeable.sol\":7918:8628  {... */\n      pop\n        /* \"@openzeppelin/contracts-upgradeable/token/ERC20/ERC20Upgradeable.sol\":7810:8628  function _transfer(... */\n      pop\n      pop\n      pop\n      jump\t// out\n        /* \"@openzeppelin/contracts-upgradeable/proxy/ERC1967/ERC1967UpgradeUpgradeable.sol\":1563:1714  function _getImplementation() internal view returns (address) {... */\n    tag_137:\n        /* \"@openzeppelin/contracts-upgradeable/proxy/ERC1967/ERC1967UpgradeUpgradeable.sol\":1616:1623  address */\n      0x00\n        /* \"@openzeppelin/contracts-upgradeable/proxy/ERC1967/ERC1967UpgradeUpgradeable.sol\":1642:1701  StorageSlotUpgradeable.getAddressSlot(_IMPLEMENTATION_SLOT) */\n      tag_261\n        /* \"@openzeppelin/contracts-upgradeable/proxy/ERC1967/ERC1967UpgradeUpgradeable.sol\":1292:1358  0x360894a13ba1a3210667c828492db98dca3e2076cc3735a920a3ca505d382bbc */\n      0x360894a13ba1a3210667c828492db98dca3e2076cc3735a920a3ca505d382bbc\n        /* \"@openzeppelin/contracts-upgradeable/proxy/ERC1967/ERC1967UpgradeUpgradeable.sol\":1680:1700  _IMPLEMENTATION_SLOT */\n      0x00\n      shl\n        /* \"@openzeppelin/contracts-upgradeable/proxy/ERC1967/ERC1967UpgradeUpgradeable.sol\":1642:1679  StorageSlotUpgradeable.getAddressSlot */\n      tag_262\n        /* \"@openzeppelin/contracts-upgradeable/proxy/ERC1967/ERC1967UpgradeUpgradeable.sol\":1642:1701  StorageSlotUpgradeable.getAddressSlot(_IMPLEMENTATION_SLOT) */\n      jump\t// in\n    tag_261:\n        /* \"@openzeppelin/contracts-upgradeable/proxy/ERC1967/ERC1967UpgradeUpgradeable.sol\":1642:1707  StorageSlotUpgradeable.getAddressSlot(_IMPLEMENTATION_SLOT).value */\n      0x00\n      add\n      0x00\n      swap1\n      sload\n      swap1\n      0x0100\n      exp\n      swap1\n      div\n      0xffffffffffffffffffffffffffffffffffffffff\n      and\n        /* \"@openzeppelin/contracts-upgradeable/proxy/ERC1967/ERC1967UpgradeUpgradeable.sol\":1635:1707  return StorageSlotUpgradeable.getAddressSlot(_IMPLEMENTATION_SLOT).value */\n      swap1\n      pop\n        /* \"@openzeppelin/contracts-upgradeable/proxy/ERC1967/ERC1967UpgradeUpgradeable.sol\":1563:1714  function _getImplementation() internal view returns (address) {... */\n      swap1\n      jump\t// out\n        /* \"contracts/Implementacion Tokens Ethereum/PlatziTokenV1.sol\":1117:1208  function _authorizeUpgrade (address newImplementation) internal override onlyOwner\r... */\n    tag_143:\n        /* \"@openzeppelin/contracts-upgradeable/access/OwnableUpgradeable.sol\":1334:1347  _checkOwner() */\n      tag_264\n        /* \"@openzeppelin/contracts-upgradeable/access/OwnableUpgradeable.sol\":1334:1345  _checkOwner */\n      tag_173\n        /* \"@openzeppelin/contracts-upgradeable/access/OwnableUpgradeable.sol\":1334:1347  _checkOwner() */\n      jump\t// in\n    tag_264:\n        /* \"contracts/Implementacion Tokens Ethereum/PlatziTokenV1.sol\":1117:1208  function _authorizeUpgrade (address newImplementation) internal override onlyOwner\r... */\n      pop\n      jump\t// out\n        /* \"@openzeppelin/contracts-upgradeable/proxy/ERC1967/ERC1967UpgradeUpgradeable.sol\":2938:3912  function _upgradeToAndCallUUPS(... */\n    tag_149:\n        /* \"@openzeppelin/contracts-upgradeable/proxy/ERC1967/ERC1967UpgradeUpgradeable.sol\":3384:3437  StorageSlotUpgradeable.getBooleanSlot(_ROLLBACK_SLOT) */\n      tag_267\n        /* \"@openzeppelin/contracts-upgradeable/proxy/ERC1967/ERC1967UpgradeUpgradeable.sol\":951:1017  0x4910fdfa16fed3260ed0e7147f7cc6da11a60208b5b9406d12a635614ffd9143 */\n      0x4910fdfa16fed3260ed0e7147f7cc6da11a60208b5b9406d12a635614ffd9143\n        /* \"@openzeppelin/contracts-upgradeable/proxy/ERC1967/ERC1967UpgradeUpgradeable.sol\":3422:3436  _ROLLBACK_SLOT */\n      0x00\n      shl\n        /* \"@openzeppelin/contracts-upgradeable/proxy/ERC1967/ERC1967UpgradeUpgradeable.sol\":3384:3421  StorageSlotUpgradeable.getBooleanSlot */\n      tag_268\n        /* \"@openzeppelin/contracts-upgradeable/proxy/ERC1967/ERC1967UpgradeUpgradeable.sol\":3384:3437  StorageSlotUpgradeable.getBooleanSlot(_ROLLBACK_SLOT) */\n      jump\t// in\n    tag_267:\n        /* \"@openzeppelin/contracts-upgradeable/proxy/ERC1967/ERC1967UpgradeUpgradeable.sol\":3384:3443  StorageSlotUpgradeable.getBooleanSlot(_ROLLBACK_SLOT).value */\n      0x00\n      add\n      0x00\n      swap1\n      sload\n      swap1\n      0x0100\n      exp\n      swap1\n      div\n      0xff\n      and\n        /* \"@openzeppelin/contracts-upgradeable/proxy/ERC1967/ERC1967UpgradeUpgradeable.sol\":3380:3906  if (StorageSlotUpgradeable.getBooleanSlot(_ROLLBACK_SLOT).value) {... */\n      iszero\n      tag_269\n      jumpi\n        /* \"@openzeppelin/contracts-upgradeable/proxy/ERC1967/ERC1967UpgradeUpgradeable.sol\":3459:3496  _setImplementation(newImplementation) */\n      tag_270\n        /* \"@openzeppelin/contracts-upgradeable/proxy/ERC1967/ERC1967UpgradeUpgradeable.sol\":3478:3495  newImplementation */\n      dup4\n        /* \"@openzeppelin/contracts-upgradeable/proxy/ERC1967/ERC1967UpgradeUpgradeable.sol\":3459:3477  _setImplementation */\n      tag_271\n        /* \"@openzeppelin/contracts-upgradeable/proxy/ERC1967/ERC1967UpgradeUpgradeable.sol\":3459:3496  _setImplementation(newImplementation) */\n      jump\t// in\n    tag_270:\n        /* \"@openzeppelin/contracts-upgradeable/proxy/ERC1967/ERC1967UpgradeUpgradeable.sol\":3380:3906  if (StorageSlotUpgradeable.getBooleanSlot(_ROLLBACK_SLOT).value) {... */\n      jump(tag_272)\n    tag_269:\n        /* \"@openzeppelin/contracts-upgradeable/proxy/ERC1967/ERC1967UpgradeUpgradeable.sol\":3560:3577  newImplementation */\n      dup3\n        /* \"@openzeppelin/contracts-upgradeable/proxy/ERC1967/ERC1967UpgradeUpgradeable.sol\":3531:3592  IERC1822ProxiableUpgradeable(newImplementation).proxiableUUID */\n      0xffffffffffffffffffffffffffffffffffffffff\n      and\n      0x52d1902d\n        /* \"@openzeppelin/contracts-upgradeable/proxy/ERC1967/ERC1967UpgradeUpgradeable.sol\":3531:3594  IERC1822ProxiableUpgradeable(newImplementation).proxiableUUID() */\n      mload(0x40)\n      dup2\n      0xffffffff\n      and\n      0xe0\n      shl\n      dup2\n      mstore\n      0x04\n      add\n      0x20\n      mload(0x40)\n      dup1\n      dup4\n      sub\n      dup2\n      dup7\n      dup1\n      extcodesize\n      iszero\n      dup1\n      iszero\n      tag_273\n      jumpi\n      0x00\n      dup1\n      revert\n    tag_273:\n      pop\n      gas\n      staticcall\n      swap3\n      pop\n      pop\n      pop\n      dup1\n      iszero\n      tag_274\n      jumpi\n      pop\n      mload(0x40)\n      returndatasize\n      not(0x1f)\n      0x1f\n      dup3\n      add\n      and\n      dup3\n      add\n      dup1\n      0x40\n      mstore\n      pop\n      dup2\n      add\n      swap1\n      tag_275\n      swap2\n      swap1\n      tag_276\n      jump\t// in\n    tag_275:\n      0x01\n    tag_274:\n        /* \"@openzeppelin/contracts-upgradeable/proxy/ERC1967/ERC1967UpgradeUpgradeable.sol\":3527:3829  try IERC1822ProxiableUpgradeable(newImplementation).proxiableUUID() returns (bytes32 slot) {... */\n      tag_277\n      jumpi\n        /* \"@openzeppelin/contracts-upgradeable/proxy/ERC1967/ERC1967UpgradeUpgradeable.sol\":3758:3814  revert(\"ERC1967Upgrade: new implementation is not UUPS\") */\n      mload(0x40)\n      0x08c379a000000000000000000000000000000000000000000000000000000000\n      dup2\n      mstore\n      0x04\n      add\n      tag_281\n      swap1\n      tag_282\n      jump\t// in\n    tag_281:\n      mload(0x40)\n      dup1\n      swap2\n      sub\n      swap1\n      revert\n        /* \"@openzeppelin/contracts-upgradeable/proxy/ERC1967/ERC1967UpgradeUpgradeable.sol\":3527:3829  try IERC1822ProxiableUpgradeable(newImplementation).proxiableUUID() returns (bytes32 slot) {... */\n    tag_277:\n        /* \"@openzeppelin/contracts-upgradeable/proxy/ERC1967/ERC1967UpgradeUpgradeable.sol\":1292:1358  0x360894a13ba1a3210667c828492db98dca3e2076cc3735a920a3ca505d382bbc */\n      0x360894a13ba1a3210667c828492db98dca3e2076cc3735a920a3ca505d382bbc\n        /* \"@openzeppelin/contracts-upgradeable/proxy/ERC1967/ERC1967UpgradeUpgradeable.sol\":3652:3672  _IMPLEMENTATION_SLOT */\n      0x00\n      shl\n        /* \"@openzeppelin/contracts-upgradeable/proxy/ERC1967/ERC1967UpgradeUpgradeable.sol\":3644:3648  slot */\n      dup2\n        /* \"@openzeppelin/contracts-upgradeable/proxy/ERC1967/ERC1967UpgradeUpgradeable.sol\":3644:3672  slot == _IMPLEMENTATION_SLOT */\n      eq\n        /* \"@openzeppelin/contracts-upgradeable/proxy/ERC1967/ERC1967UpgradeUpgradeable.sol\":3636:3718  require(slot == _IMPLEMENTATION_SLOT, \"ERC1967Upgrade: unsupported proxiableUUID\") */\n      tag_284\n      jumpi\n      mload(0x40)\n      0x08c379a000000000000000000000000000000000000000000000000000000000\n      dup2\n      mstore\n      0x04\n      add\n      tag_285\n      swap1\n      tag_286\n      jump\t// in\n    tag_285:\n      mload(0x40)\n      dup1\n      swap2\n      sub\n      swap1\n      revert\n    tag_284:\n        /* \"@openzeppelin/contracts-upgradeable/proxy/ERC1967/ERC1967UpgradeUpgradeable.sol\":3595:3733  returns (bytes32 slot) {... */\n      pop\n        /* \"@openzeppelin/contracts-upgradeable/proxy/ERC1967/ERC1967UpgradeUpgradeable.sol\":3842:3895  _upgradeToAndCall(newImplementation, data, forceCall) */\n      tag_287\n        /* \"@openzeppelin/contracts-upgradeable/proxy/ERC1967/ERC1967UpgradeUpgradeable.sol\":3860:3877  newImplementation */\n      dup4\n        /* \"@openzeppelin/contracts-upgradeable/proxy/ERC1967/ERC1967UpgradeUpgradeable.sol\":3879:3883  data */\n      dup4\n        /* \"@openzeppelin/contracts-upgradeable/proxy/ERC1967/ERC1967UpgradeUpgradeable.sol\":3885:3894  forceCall */\n      dup4\n        /* \"@openzeppelin/contracts-upgradeable/proxy/ERC1967/ERC1967UpgradeUpgradeable.sol\":3842:3859  _upgradeToAndCall */\n      tag_288\n        /* \"@openzeppelin/contracts-upgradeable/proxy/ERC1967/ERC1967UpgradeUpgradeable.sol\":3842:3895  _upgradeToAndCall(newImplementation, data, forceCall) */\n      jump\t// in\n    tag_287:\n        /* \"@openzeppelin/contracts-upgradeable/proxy/ERC1967/ERC1967UpgradeUpgradeable.sol\":3380:3906  if (StorageSlotUpgradeable.getBooleanSlot(_ROLLBACK_SLOT).value) {... */\n    tag_272:\n        /* \"@openzeppelin/contracts-upgradeable/proxy/ERC1967/ERC1967UpgradeUpgradeable.sol\":2938:3912  function _upgradeToAndCallUUPS(... */\n      pop\n      pop\n      pop\n      jump\t// out\n        /* \"@openzeppelin/contracts-upgradeable/access/OwnableUpgradeable.sol\":1599:1729  function _checkOwner() internal view virtual {... */\n    tag_173:\n        /* \"@openzeppelin/contracts-upgradeable/access/OwnableUpgradeable.sol\":1673:1685  _msgSender() */\n      tag_290\n        /* \"@openzeppelin/contracts-upgradeable/access/OwnableUpgradeable.sol\":1673:1683  _msgSender */\n      tag_121\n        /* \"@openzeppelin/contracts-upgradeable/access/OwnableUpgradeable.sol\":1673:1685  _msgSender() */\n      jump\t// in\n    tag_290:\n        /* \"@openzeppelin/contracts-upgradeable/access/OwnableUpgradeable.sol\":1662:1685  owner() == _msgSender() */\n      0xffffffffffffffffffffffffffffffffffffffff\n      and\n        /* \"@openzeppelin/contracts-upgradeable/access/OwnableUpgradeable.sol\":1662:1669  owner() */\n      tag_291\n        /* \"@openzeppelin/contracts-upgradeable/access/OwnableUpgradeable.sol\":1662:1667  owner */\n      tag_80\n        /* \"@openzeppelin/contracts-upgradeable/access/OwnableUpgradeable.sol\":1662:1669  owner() */\n      jump\t// in\n    tag_291:\n        /* \"@openzeppelin/contracts-upgradeable/access/OwnableUpgradeable.sol\":1662:1685  owner() == _msgSender() */\n      0xffffffffffffffffffffffffffffffffffffffff\n      and\n      eq\n        /* \"@openzeppelin/contracts-upgradeable/access/OwnableUpgradeable.sol\":1654:1722  require(owner() == _msgSender(), \"Ownable: caller is not the owner\") */\n      tag_292\n      jumpi\n      mload(0x40)\n      0x08c379a000000000000000000000000000000000000000000000000000000000\n      dup2\n      mstore\n      0x04\n      add\n      tag_293\n      swap1\n      tag_294\n      jump\t// in\n    tag_293:\n      mload(0x40)\n      dup1\n      swap2\n      sub\n      swap1\n      revert\n    tag_292:\n        /* \"@openzeppelin/contracts-upgradeable/access/OwnableUpgradeable.sol\":1599:1729  function _checkOwner() internal view virtual {... */\n      jump\t// out\n        /* \"@openzeppelin/contracts-upgradeable/access/OwnableUpgradeable.sol\":2673:2860  function _transferOwnership(address newOwner) internal virtual {... */\n    tag_176:\n        /* \"@openzeppelin/contracts-upgradeable/access/OwnableUpgradeable.sol\":2746:2762  address oldOwner */\n      0x00\n        /* \"@openzeppelin/contracts-upgradeable/access/OwnableUpgradeable.sol\":2765:2771  _owner */\n      0xc9\n      0x00\n      swap1\n      sload\n      swap1\n      0x0100\n      exp\n      swap1\n      div\n      0xffffffffffffffffffffffffffffffffffffffff\n      and\n        /* \"@openzeppelin/contracts-upgradeable/access/OwnableUpgradeable.sol\":2746:2771  address oldOwner = _owner */\n      swap1\n      pop\n        /* \"@openzeppelin/contracts-upgradeable/access/OwnableUpgradeable.sol\":2790:2798  newOwner */\n      dup2\n        /* \"@openzeppelin/contracts-upgradeable/access/OwnableUpgradeable.sol\":2781:2787  _owner */\n      0xc9\n      0x00\n        /* \"@openzeppelin/contracts-upgradeable/access/OwnableUpgradeable.sol\":2781:2798  _owner = newOwner */\n      0x0100\n      exp\n      dup2\n      sload\n      dup2\n      0xffffffffffffffffffffffffffffffffffffffff\n      mul\n      not\n      and\n      swap1\n      dup4\n      0xffffffffffffffffffffffffffffffffffffffff\n      and\n      mul\n      or\n      swap1\n      sstore\n      pop\n        /* \"@openzeppelin/contracts-upgradeable/access/OwnableUpgradeable.sol\":2844:2852  newOwner */\n      dup2\n        /* \"@openzeppelin/contracts-upgradeable/access/OwnableUpgradeable.sol\":2813:2853  OwnershipTransferred(oldOwner, newOwner) */\n      0xffffffffffffffffffffffffffffffffffffffff\n      and\n        /* \"@openzeppelin/contracts-upgradeable/access/OwnableUpgradeable.sol\":2834:2842  oldOwner */\n      dup2\n        /* \"@openzeppelin/contracts-upgradeable/access/OwnableUpgradeable.sol\":2813:2853  OwnershipTransferred(oldOwner, newOwner) */\n      0xffffffffffffffffffffffffffffffffffffffff\n      and\n      0x8be0079c531659141344cd1fd0a4f28419497f9722a3daafe3b4186f6b6457e0\n      mload(0x40)\n      mload(0x40)\n      dup1\n      swap2\n      sub\n      swap1\n      log3\n        /* \"@openzeppelin/contracts-upgradeable/access/OwnableUpgradeable.sol\":2736:2860  {... */\n      pop\n        /* \"@openzeppelin/contracts-upgradeable/access/OwnableUpgradeable.sol\":2673:2860  function _transferOwnership(address newOwner) internal virtual {... */\n      pop\n      jump\t// out\n        /* \"@openzeppelin/contracts-upgradeable/utils/AddressUpgradeable.sol\":1186:1506  function isContract(address account) internal view returns (bool) {... */\n    tag_206:\n        /* \"@openzeppelin/contracts-upgradeable/utils/AddressUpgradeable.sol\":1246:1250  bool */\n      0x00\n        /* \"@openzeppelin/contracts-upgradeable/utils/AddressUpgradeable.sol\":1498:1499  0 */\n      dup1\n        /* \"@openzeppelin/contracts-upgradeable/utils/AddressUpgradeable.sol\":1476:1483  account */\n      dup3\n        /* \"@openzeppelin/contracts-upgradeable/utils/AddressUpgradeable.sol\":1476:1495  account.code.length */\n      0xffffffffffffffffffffffffffffffffffffffff\n      and\n      extcodesize\n        /* \"@openzeppelin/contracts-upgradeable/utils/AddressUpgradeable.sol\":1476:1499  account.code.length > 0 */\n      gt\n        /* \"@openzeppelin/contracts-upgradeable/utils/AddressUpgradeable.sol\":1469:1499  return account.code.length > 0 */\n      swap1\n      pop\n        /* \"@openzeppelin/contracts-upgradeable/utils/AddressUpgradeable.sol\":1186:1506  function isContract(address account) internal view returns (bool) {... */\n      swap2\n      swap1\n      pop\n      jump\t// out\n        /* \"@openzeppelin/contracts-upgradeable/token/ERC20/ERC20Upgradeable.sol\":2114:2261  function __ERC20_init(string memory name_, string memory symbol_) internal onlyInitializing {... */\n    tag_214:\n        /* \"@openzeppelin/contracts-upgradeable/proxy/utils/Initializable.sol\":5363:5376  _initializing */\n      0x00\n      0x01\n      swap1\n      sload\n      swap1\n      0x0100\n      exp\n      swap1\n      div\n      0xff\n      and\n        /* \"@openzeppelin/contracts-upgradeable/proxy/utils/Initializable.sol\":5355:5424  require(_initializing, \"Initializable: contract is not initializing\") */\n      tag_298\n      jumpi\n      mload(0x40)\n      0x08c379a000000000000000000000000000000000000000000000000000000000\n      dup2\n      mstore\n      0x04\n      add\n      tag_299\n      swap1\n      tag_300\n      jump\t// in\n    tag_299:\n      mload(0x40)\n      dup1\n      swap2\n      sub\n      swap1\n      revert\n    tag_298:\n        /* \"@openzeppelin/contracts-upgradeable/token/ERC20/ERC20Upgradeable.sol\":2216:2254  __ERC20_init_unchained(name_, symbol_) */\n      tag_302\n        /* \"@openzeppelin/contracts-upgradeable/token/ERC20/ERC20Upgradeable.sol\":2239:2244  name_ */\n      dup3\n        /* \"@openzeppelin/contracts-upgradeable/token/ERC20/ERC20Upgradeable.sol\":2246:2253  symbol_ */\n      dup3\n        /* \"@openzeppelin/contracts-upgradeable/token/ERC20/ERC20Upgradeable.sol\":2216:2238  __ERC20_init_unchained */\n      tag_303\n        /* \"@openzeppelin/contracts-upgradeable/token/ERC20/ERC20Upgradeable.sol\":2216:2254  __ERC20_init_unchained(name_, symbol_) */\n      jump\t// in\n    tag_302:\n        /* \"@openzeppelin/contracts-upgradeable/token/ERC20/ERC20Upgradeable.sol\":2114:2261  function __ERC20_init(string memory name_, string memory symbol_) internal onlyInitializing {... */\n      pop\n      pop\n      jump\t// out\n        /* \"@openzeppelin/contracts-upgradeable/access/OwnableUpgradeable.sol\":1104:1215  function __Ownable_init_unchained() internal onlyInitializing {... */\n    tag_216:\n        /* \"@openzeppelin/contracts-upgradeable/proxy/utils/Initializable.sol\":5363:5376  _initializing */\n      0x00\n      0x01\n      swap1\n      sload\n      swap1\n      0x0100\n      exp\n      swap1\n      div\n      0xff\n      and\n        /* \"@openzeppelin/contracts-upgradeable/proxy/utils/Initializable.sol\":5355:5424  require(_initializing, \"Initializable: contract is not initializing\") */\n      tag_305\n      jumpi\n      mload(0x40)\n      0x08c379a000000000000000000000000000000000000000000000000000000000\n      dup2\n      mstore\n      0x04\n      add\n      tag_306\n      swap1\n      tag_300\n      jump\t// in\n    tag_306:\n      mload(0x40)\n      dup1\n      swap2\n      sub\n      swap1\n      revert\n    tag_305:\n        /* \"@openzeppelin/contracts-upgradeable/access/OwnableUpgradeable.sol\":1176:1208  _transferOwnership(_msgSender()) */\n      tag_308\n        /* \"@openzeppelin/contracts-upgradeable/access/OwnableUpgradeable.sol\":1195:1207  _msgSender() */\n      tag_309\n        /* \"@openzeppelin/contracts-upgradeable/access/OwnableUpgradeable.sol\":1195:1205  _msgSender */\n      tag_121\n        /* \"@openzeppelin/contracts-upgradeable/access/OwnableUpgradeable.sol\":1195:1207  _msgSender() */\n      jump\t// in\n    tag_309:\n        /* \"@openzeppelin/contracts-upgradeable/access/OwnableUpgradeable.sol\":1176:1194  _transferOwnership */\n      tag_176\n        /* \"@openzeppelin/contracts-upgradeable/access/OwnableUpgradeable.sol\":1176:1208  _transferOwnership(_msgSender()) */\n      jump\t// in\n    tag_308:\n        /* \"@openzeppelin/contracts-upgradeable/access/OwnableUpgradeable.sol\":1104:1215  function __Ownable_init_unchained() internal onlyInitializing {... */\n      jump\t// out\n        /* \"@openzeppelin/contracts-upgradeable/proxy/utils/UUPSUpgradeable.sol\":1042:1109  function __UUPSUpgradeable_init() internal onlyInitializing {... */\n    tag_218:\n        /* \"@openzeppelin/contracts-upgradeable/proxy/utils/Initializable.sol\":5363:5376  _initializing */\n      0x00\n      0x01\n      swap1\n      sload\n      swap1\n      0x0100\n      exp\n      swap1\n      div\n      0xff\n      and\n        /* \"@openzeppelin/contracts-upgradeable/proxy/utils/Initializable.sol\":5355:5424  require(_initializing, \"Initializable: contract is not initializing\") */\n      tag_311\n      jumpi\n      mload(0x40)\n      0x08c379a000000000000000000000000000000000000000000000000000000000\n      dup2\n      mstore\n      0x04\n      add\n      tag_312\n      swap1\n      tag_300\n      jump\t// in\n    tag_312:\n      mload(0x40)\n      dup1\n      swap2\n      sub\n      swap1\n      revert\n    tag_311:\n        /* \"@openzeppelin/contracts-upgradeable/proxy/utils/UUPSUpgradeable.sol\":1042:1109  function __UUPSUpgradeable_init() internal onlyInitializing {... */\n      jump\t// out\n        /* \"@openzeppelin/contracts-upgradeable/token/ERC20/ERC20Upgradeable.sol\":8904:9439  function _mint(address account, uint256 amount) internal virtual {... */\n    tag_225:\n        /* \"@openzeppelin/contracts-upgradeable/token/ERC20/ERC20Upgradeable.sol\":9006:9007  0 */\n      0x00\n        /* \"@openzeppelin/contracts-upgradeable/token/ERC20/ERC20Upgradeable.sol\":8987:9008  account != address(0) */\n      0xffffffffffffffffffffffffffffffffffffffff\n      and\n        /* \"@openzeppelin/contracts-upgradeable/token/ERC20/ERC20Upgradeable.sol\":8987:8994  account */\n      dup3\n        /* \"@openzeppelin/contracts-upgradeable/token/ERC20/ERC20Upgradeable.sol\":8987:9008  account != address(0) */\n      0xffffffffffffffffffffffffffffffffffffffff\n      and\n      eq\n      iszero\n        /* \"@openzeppelin/contracts-upgradeable/token/ERC20/ERC20Upgradeable.sol\":8979:9044  require(account != address(0), \"ERC20: mint to the zero address\") */\n      tag_315\n      jumpi\n      mload(0x40)\n      0x08c379a000000000000000000000000000000000000000000000000000000000\n      dup2\n      mstore\n      0x04\n      add\n      tag_316\n      swap1\n      tag_317\n      jump\t// in\n    tag_316:\n      mload(0x40)\n      dup1\n      swap2\n      sub\n      swap1\n      revert\n    tag_315:\n        /* \"@openzeppelin/contracts-upgradeable/token/ERC20/ERC20Upgradeable.sol\":9055:9104  _beforeTokenTransfer(address(0), account, amount) */\n      tag_318\n        /* \"@openzeppelin/contracts-upgradeable/token/ERC20/ERC20Upgradeable.sol\":9084:9085  0 */\n      0x00\n        /* \"@openzeppelin/contracts-upgradeable/token/ERC20/ERC20Upgradeable.sol\":9088:9095  account */\n      dup4\n        /* \"@openzeppelin/contracts-upgradeable/token/ERC20/ERC20Upgradeable.sol\":9097:9103  amount */\n      dup4\n        /* \"@openzeppelin/contracts-upgradeable/token/ERC20/ERC20Upgradeable.sol\":9055:9075  _beforeTokenTransfer */\n      tag_253\n        /* \"@openzeppelin/contracts-upgradeable/token/ERC20/ERC20Upgradeable.sol\":9055:9104  _beforeTokenTransfer(address(0), account, amount) */\n      jump\t// in\n    tag_318:\n        /* \"@openzeppelin/contracts-upgradeable/token/ERC20/ERC20Upgradeable.sol\":9131:9137  amount */\n      dup1\n        /* \"@openzeppelin/contracts-upgradeable/token/ERC20/ERC20Upgradeable.sol\":9115:9127  _totalSupply */\n      0x35\n      0x00\n        /* \"@openzeppelin/contracts-upgradeable/token/ERC20/ERC20Upgradeable.sol\":9115:9137  _totalSupply += amount */\n      dup3\n      dup3\n      sload\n      tag_319\n      swap2\n      swap1\n      tag_155\n      jump\t// in\n    tag_319:\n      swap3\n      pop\n      pop\n      dup2\n      swap1\n      sstore\n      pop\n        /* \"@openzeppelin/contracts-upgradeable/token/ERC20/ERC20Upgradeable.sol\":9305:9311  amount */\n      dup1\n        /* \"@openzeppelin/contracts-upgradeable/token/ERC20/ERC20Upgradeable.sol\":9283:9292  _balances */\n      0x33\n        /* \"@openzeppelin/contracts-upgradeable/token/ERC20/ERC20Upgradeable.sol\":9283:9301  _balances[account] */\n      0x00\n        /* \"@openzeppelin/contracts-upgradeable/token/ERC20/ERC20Upgradeable.sol\":9293:9300  account */\n      dup5\n        /* \"@openzeppelin/contracts-upgradeable/token/ERC20/ERC20Upgradeable.sol\":9283:9301  _balances[account] */\n      0xffffffffffffffffffffffffffffffffffffffff\n      and\n      0xffffffffffffffffffffffffffffffffffffffff\n      and\n      dup2\n      mstore\n      0x20\n      add\n      swap1\n      dup2\n      mstore\n      0x20\n      add\n      0x00\n      keccak256\n      0x00\n        /* \"@openzeppelin/contracts-upgradeable/token/ERC20/ERC20Upgradeable.sol\":9283:9311  _balances[account] += amount */\n      dup3\n      dup3\n      sload\n      add\n      swap3\n      pop\n      pop\n      dup2\n      swap1\n      sstore\n      pop\n        /* \"@openzeppelin/contracts-upgradeable/token/ERC20/ERC20Upgradeable.sol\":9357:9364  account */\n      dup2\n        /* \"@openzeppelin/contracts-upgradeable/token/ERC20/ERC20Upgradeable.sol\":9336:9373  Transfer(address(0), account, amount) */\n      0xffffffffffffffffffffffffffffffffffffffff\n      and\n        /* \"@openzeppelin/contracts-upgradeable/token/ERC20/ERC20Upgradeable.sol\":9353:9354  0 */\n      0x00\n        /* \"@openzeppelin/contracts-upgradeable/token/ERC20/ERC20Upgradeable.sol\":9336:9373  Transfer(address(0), account, amount) */\n      0xffffffffffffffffffffffffffffffffffffffff\n      and\n      0xddf252ad1be2c89b69c2b068fc378daa952ba7f163c4a11628f55a4df523b3ef\n        /* \"@openzeppelin/contracts-upgradeable/token/ERC20/ERC20Upgradeable.sol\":9366:9372  amount */\n      dup4\n        /* \"@openzeppelin/contracts-upgradeable/token/ERC20/ERC20Upgradeable.sol\":9336:9373  Transfer(address(0), account, amount) */\n      mload(0x40)\n      tag_320\n      swap2\n      swap1\n      tag_39\n      jump\t// in\n    tag_320:\n      mload(0x40)\n      dup1\n      swap2\n      sub\n      swap1\n      log3\n        /* \"@openzeppelin/contracts-upgradeable/token/ERC20/ERC20Upgradeable.sol\":9384:9432  _afterTokenTransfer(address(0), account, amount) */\n      tag_321\n        /* \"@openzeppelin/contracts-upgradeable/token/ERC20/ERC20Upgradeable.sol\":9412:9413  0 */\n      0x00\n        /* \"@openzeppelin/contracts-upgradeable/token/ERC20/ERC20Upgradeable.sol\":9416:9423  account */\n      dup4\n        /* \"@openzeppelin/contracts-upgradeable/token/ERC20/ERC20Upgradeable.sol\":9425:9431  amount */\n      dup4\n        /* \"@openzeppelin/contracts-upgradeable/token/ERC20/ERC20Upgradeable.sol\":9384:9403  _afterTokenTransfer */\n      tag_259\n        /* \"@openzeppelin/contracts-upgradeable/token/ERC20/ERC20Upgradeable.sol\":9384:9432  _afterTokenTransfer(address(0), account, amount) */\n      jump\t// in\n    tag_321:\n        /* \"@openzeppelin/contracts-upgradeable/token/ERC20/ERC20Upgradeable.sol\":8904:9439  function _mint(address account, uint256 amount) internal virtual {... */\n      pop\n      pop\n      jump\t// out\n        /* \"@openzeppelin/contracts-upgradeable/token/ERC20/ERC20Upgradeable.sol\":12517:12638  function _beforeTokenTransfer(... */\n    tag_253:\n      pop\n      pop\n      pop\n      jump\t// out\n        /* \"@openzeppelin/contracts-upgradeable/token/ERC20/ERC20Upgradeable.sol\":13226:13346  function _afterTokenTransfer(... */\n    tag_259:\n      pop\n      pop\n      pop\n      jump\t// out\n        /* \"@openzeppelin/contracts-upgradeable/utils/StorageSlotUpgradeable.sol\":1625:1815  function getAddressSlot(bytes32 slot) internal pure returns (AddressSlot storage r) {... */\n    tag_262:\n        /* \"@openzeppelin/contracts-upgradeable/utils/StorageSlotUpgradeable.sol\":1686:1707  AddressSlot storage r */\n      0x00\n        /* \"@openzeppelin/contracts-upgradeable/utils/StorageSlotUpgradeable.sol\":1795:1799  slot */\n      dup2\n        /* \"@openzeppelin/contracts-upgradeable/utils/StorageSlotUpgradeable.sol\":1785:1799  r.slot := slot */\n      swap1\n      pop\n        /* \"@openzeppelin/contracts-upgradeable/utils/StorageSlotUpgradeable.sol\":1625:1815  function getAddressSlot(bytes32 slot) internal pure returns (AddressSlot storage r) {... */\n      swap2\n      swap1\n      pop\n      jump\t// out\n        /* \"@openzeppelin/contracts-upgradeable/utils/StorageSlotUpgradeable.sol\":1913:2103  function getBooleanSlot(bytes32 slot) internal pure returns (BooleanSlot storage r) {... */\n    tag_268:\n        /* \"@openzeppelin/contracts-upgradeable/utils/StorageSlotUpgradeable.sol\":1974:1995  BooleanSlot storage r */\n      0x00\n        /* \"@openzeppelin/contracts-upgradeable/utils/StorageSlotUpgradeable.sol\":2083:2087  slot */\n      dup2\n        /* \"@openzeppelin/contracts-upgradeable/utils/StorageSlotUpgradeable.sol\":2073:2087  r.slot := slot */\n      swap1\n      pop\n        /* \"@openzeppelin/contracts-upgradeable/utils/StorageSlotUpgradeable.sol\":1913:2103  function getBooleanSlot(bytes32 slot) internal pure returns (BooleanSlot storage r) {... */\n      swap2\n      swap1\n      pop\n      jump\t// out\n        /* \"@openzeppelin/contracts-upgradeable/proxy/ERC1967/ERC1967UpgradeUpgradeable.sol\":1805:2086  function _setImplementation(address newImplementation) private {... */\n    tag_271:\n        /* \"@openzeppelin/contracts-upgradeable/proxy/ERC1967/ERC1967UpgradeUpgradeable.sol\":1886:1934  AddressUpgradeable.isContract(newImplementation) */\n      tag_327\n        /* \"@openzeppelin/contracts-upgradeable/proxy/ERC1967/ERC1967UpgradeUpgradeable.sol\":1916:1933  newImplementation */\n      dup2\n        /* \"@openzeppelin/contracts-upgradeable/proxy/ERC1967/ERC1967UpgradeUpgradeable.sol\":1886:1915  AddressUpgradeable.isContract */\n      tag_206\n        /* \"@openzeppelin/contracts-upgradeable/proxy/ERC1967/ERC1967UpgradeUpgradeable.sol\":1886:1934  AddressUpgradeable.isContract(newImplementation) */\n      jump\t// in\n    tag_327:\n        /* \"@openzeppelin/contracts-upgradeable/proxy/ERC1967/ERC1967UpgradeUpgradeable.sol\":1878:1984  require(AddressUpgradeable.isContract(newImplementation), \"ERC1967: new implementation is not a contract\") */\n      tag_328\n      jumpi\n      mload(0x40)\n      0x08c379a000000000000000000000000000000000000000000000000000000000\n      dup2\n      mstore\n      0x04\n      add\n      tag_329\n      swap1\n      tag_330\n      jump\t// in\n    tag_329:\n      mload(0x40)\n      dup1\n      swap2\n      sub\n      swap1\n      revert\n    tag_328:\n        /* \"@openzeppelin/contracts-upgradeable/proxy/ERC1967/ERC1967UpgradeUpgradeable.sol\":2062:2079  newImplementation */\n      dup1\n        /* \"@openzeppelin/contracts-upgradeable/proxy/ERC1967/ERC1967UpgradeUpgradeable.sol\":1994:2053  StorageSlotUpgradeable.getAddressSlot(_IMPLEMENTATION_SLOT) */\n      tag_331\n        /* \"@openzeppelin/contracts-upgradeable/proxy/ERC1967/ERC1967UpgradeUpgradeable.sol\":1292:1358  0x360894a13ba1a3210667c828492db98dca3e2076cc3735a920a3ca505d382bbc */\n      0x360894a13ba1a3210667c828492db98dca3e2076cc3735a920a3ca505d382bbc\n        /* \"@openzeppelin/contracts-upgradeable/proxy/ERC1967/ERC1967UpgradeUpgradeable.sol\":2032:2052  _IMPLEMENTATION_SLOT */\n      0x00\n      shl\n        /* \"@openzeppelin/contracts-upgradeable/proxy/ERC1967/ERC1967UpgradeUpgradeable.sol\":1994:2031  StorageSlotUpgradeable.getAddressSlot */\n      tag_262\n        /* \"@openzeppelin/contracts-upgradeable/proxy/ERC1967/ERC1967UpgradeUpgradeable.sol\":1994:2053  StorageSlotUpgradeable.getAddressSlot(_IMPLEMENTATION_SLOT) */\n      jump\t// in\n    tag_331:\n        /* \"@openzeppelin/contracts-upgradeable/proxy/ERC1967/ERC1967UpgradeUpgradeable.sol\":1994:2059  StorageSlotUpgradeable.getAddressSlot(_IMPLEMENTATION_SLOT).value */\n      0x00\n      add\n      0x00\n        /* \"@openzeppelin/contracts-upgradeable/proxy/ERC1967/ERC1967UpgradeUpgradeable.sol\":1994:2079  StorageSlotUpgradeable.getAddressSlot(_IMPLEMENTATION_SLOT).value = newImplementation */\n      0x0100\n      exp\n      dup2\n      sload\n      dup2\n      0xffffffffffffffffffffffffffffffffffffffff\n      mul\n      not\n      and\n      swap1\n      dup4\n      0xffffffffffffffffffffffffffffffffffffffff\n      and\n      mul\n      or\n      swap1\n      sstore\n      pop\n        /* \"@openzeppelin/contracts-upgradeable/proxy/ERC1967/ERC1967UpgradeUpgradeable.sol\":1805:2086  function _setImplementation(address newImplementation) private {... */\n      pop\n      jump\t// out\n        /* \"@openzeppelin/contracts-upgradeable/proxy/ERC1967/ERC1967UpgradeUpgradeable.sol\":2478:2766  function _upgradeToAndCall(... */\n    tag_288:\n        /* \"@openzeppelin/contracts-upgradeable/proxy/ERC1967/ERC1967UpgradeUpgradeable.sol\":2616:2645  _upgradeTo(newImplementation) */\n      tag_333\n        /* \"@openzeppelin/contracts-upgradeable/proxy/ERC1967/ERC1967UpgradeUpgradeable.sol\":2627:2644  newImplementation */\n      dup4\n        /* \"@openzeppelin/contracts-upgradeable/proxy/ERC1967/ERC1967UpgradeUpgradeable.sol\":2616:2626  _upgradeTo */\n      tag_334\n        /* \"@openzeppelin/contracts-upgradeable/proxy/ERC1967/ERC1967UpgradeUpgradeable.sol\":2616:2645  _upgradeTo(newImplementation) */\n      jump\t// in\n    tag_333:\n        /* \"@openzeppelin/contracts-upgradeable/proxy/ERC1967/ERC1967UpgradeUpgradeable.sol\":2673:2674  0 */\n      0x00\n        /* \"@openzeppelin/contracts-upgradeable/proxy/ERC1967/ERC1967UpgradeUpgradeable.sol\":2659:2663  data */\n      dup3\n        /* \"@openzeppelin/contracts-upgradeable/proxy/ERC1967/ERC1967UpgradeUpgradeable.sol\":2659:2670  data.length */\n      mload\n        /* \"@openzeppelin/contracts-upgradeable/proxy/ERC1967/ERC1967UpgradeUpgradeable.sol\":2659:2674  data.length > 0 */\n      gt\n        /* \"@openzeppelin/contracts-upgradeable/proxy/ERC1967/ERC1967UpgradeUpgradeable.sol\":2659:2687  data.length > 0 || forceCall */\n      dup1\n      tag_335\n      jumpi\n      pop\n        /* \"@openzeppelin/contracts-upgradeable/proxy/ERC1967/ERC1967UpgradeUpgradeable.sol\":2678:2687  forceCall */\n      dup1\n        /* \"@openzeppelin/contracts-upgradeable/proxy/ERC1967/ERC1967UpgradeUpgradeable.sol\":2659:2687  data.length > 0 || forceCall */\n    tag_335:\n        /* \"@openzeppelin/contracts-upgradeable/proxy/ERC1967/ERC1967UpgradeUpgradeable.sol\":2655:2760  if (data.length > 0 || forceCall) {... */\n      iszero\n      tag_336\n      jumpi\n        /* \"@openzeppelin/contracts-upgradeable/proxy/ERC1967/ERC1967UpgradeUpgradeable.sol\":2703:2749  _functionDelegateCall(newImplementation, data) */\n      tag_337\n        /* \"@openzeppelin/contracts-upgradeable/proxy/ERC1967/ERC1967UpgradeUpgradeable.sol\":2725:2742  newImplementation */\n      dup4\n        /* \"@openzeppelin/contracts-upgradeable/proxy/ERC1967/ERC1967UpgradeUpgradeable.sol\":2744:2748  data */\n      dup4\n        /* \"@openzeppelin/contracts-upgradeable/proxy/ERC1967/ERC1967UpgradeUpgradeable.sol\":2703:2724  _functionDelegateCall */\n      tag_338\n        /* \"@openzeppelin/contracts-upgradeable/proxy/ERC1967/ERC1967UpgradeUpgradeable.sol\":2703:2749  _functionDelegateCall(newImplementation, data) */\n      jump\t// in\n    tag_337:\n      pop\n        /* \"@openzeppelin/contracts-upgradeable/proxy/ERC1967/ERC1967UpgradeUpgradeable.sol\":2655:2760  if (data.length > 0 || forceCall) {... */\n    tag_336:\n        /* \"@openzeppelin/contracts-upgradeable/proxy/ERC1967/ERC1967UpgradeUpgradeable.sol\":2478:2766  function _upgradeToAndCall(... */\n      pop\n      pop\n      pop\n      jump\t// out\n        /* \"@openzeppelin/contracts-upgradeable/token/ERC20/ERC20Upgradeable.sol\":2267:2426  function __ERC20_init_unchained(string memory name_, string memory symbol_) internal onlyInitializing {... */\n    tag_303:\n        /* \"@openzeppelin/contracts-upgradeable/proxy/utils/Initializable.sol\":5363:5376  _initializing */\n      0x00\n      0x01\n      swap1\n      sload\n      swap1\n      0x0100\n      exp\n      swap1\n      div\n      0xff\n      and\n        /* \"@openzeppelin/contracts-upgradeable/proxy/utils/Initializable.sol\":5355:5424  require(_initializing, \"Initializable: contract is not initializing\") */\n      tag_340\n      jumpi\n      mload(0x40)\n      0x08c379a000000000000000000000000000000000000000000000000000000000\n      dup2\n      mstore\n      0x04\n      add\n      tag_341\n      swap1\n      tag_300\n      jump\t// in\n    tag_341:\n      mload(0x40)\n      dup1\n      swap2\n      sub\n      swap1\n      revert\n    tag_340:\n        /* \"@openzeppelin/contracts-upgradeable/token/ERC20/ERC20Upgradeable.sol\":2387:2392  name_ */\n      dup2\n        /* \"@openzeppelin/contracts-upgradeable/token/ERC20/ERC20Upgradeable.sol\":2379:2384  _name */\n      0x36\n        /* \"@openzeppelin/contracts-upgradeable/token/ERC20/ERC20Upgradeable.sol\":2379:2392  _name = name_ */\n      swap1\n      dup1\n      mload\n      swap1\n      0x20\n      add\n      swap1\n      tag_343\n      swap3\n      swap2\n      swap1\n      tag_344\n      jump\t// in\n    tag_343:\n      pop\n        /* \"@openzeppelin/contracts-upgradeable/token/ERC20/ERC20Upgradeable.sol\":2412:2419  symbol_ */\n      dup1\n        /* \"@openzeppelin/contracts-upgradeable/token/ERC20/ERC20Upgradeable.sol\":2402:2409  _symbol */\n      0x37\n        /* \"@openzeppelin/contracts-upgradeable/token/ERC20/ERC20Upgradeable.sol\":2402:2419  _symbol = symbol_ */\n      swap1\n      dup1\n      mload\n      swap1\n      0x20\n      add\n      swap1\n      tag_345\n      swap3\n      swap2\n      swap1\n      tag_344\n      jump\t// in\n    tag_345:\n      pop\n        /* \"@openzeppelin/contracts-upgradeable/token/ERC20/ERC20Upgradeable.sol\":2267:2426  function __ERC20_init_unchained(string memory name_, string memory symbol_) internal onlyInitializing {... */\n      pop\n      pop\n      jump\t// out\n        /* \"@openzeppelin/contracts-upgradeable/proxy/ERC1967/ERC1967UpgradeUpgradeable.sol\":2192:2344  function _upgradeTo(address newImplementation) internal {... */\n    tag_334:\n        /* \"@openzeppelin/contracts-upgradeable/proxy/ERC1967/ERC1967UpgradeUpgradeable.sol\":2258:2295  _setImplementation(newImplementation) */\n      tag_347\n        /* \"@openzeppelin/contracts-upgradeable/proxy/ERC1967/ERC1967UpgradeUpgradeable.sol\":2277:2294  newImplementation */\n      dup2\n        /* \"@openzeppelin/contracts-upgradeable/proxy/ERC1967/ERC1967UpgradeUpgradeable.sol\":2258:2276  _setImplementation */\n      tag_271\n        /* \"@openzeppelin/contracts-upgradeable/proxy/ERC1967/ERC1967UpgradeUpgradeable.sol\":2258:2295  _setImplementation(newImplementation) */\n      jump\t// in\n    tag_347:\n        /* \"@openzeppelin/contracts-upgradeable/proxy/ERC1967/ERC1967UpgradeUpgradeable.sol\":2319:2336  newImplementation */\n      dup1\n        /* \"@openzeppelin/contracts-upgradeable/proxy/ERC1967/ERC1967UpgradeUpgradeable.sol\":2310:2337  Upgraded(newImplementation) */\n      0xffffffffffffffffffffffffffffffffffffffff\n      and\n      0xbc7cd75a20ee27fd9adebab32041f755214dbc6bffa90cc0225b39da2e5c2d3b\n      mload(0x40)\n      mload(0x40)\n      dup1\n      swap2\n      sub\n      swap1\n      log2\n        /* \"@openzeppelin/contracts-upgradeable/proxy/ERC1967/ERC1967UpgradeUpgradeable.sol\":2192:2344  function _upgradeTo(address newImplementation) internal {... */\n      pop\n      jump\t// out\n        /* \"@openzeppelin/contracts-upgradeable/proxy/ERC1967/ERC1967UpgradeUpgradeable.sol\":7088:7543  function _functionDelegateCall(address target, bytes memory data) private returns (bytes memory) {... */\n    tag_338:\n        /* \"@openzeppelin/contracts-upgradeable/proxy/ERC1967/ERC1967UpgradeUpgradeable.sol\":7171:7183  bytes memory */\n      0x60\n        /* \"@openzeppelin/contracts-upgradeable/proxy/ERC1967/ERC1967UpgradeUpgradeable.sol\":7203:7240  AddressUpgradeable.isContract(target) */\n      tag_349\n        /* \"@openzeppelin/contracts-upgradeable/proxy/ERC1967/ERC1967UpgradeUpgradeable.sol\":7233:7239  target */\n      dup4\n        /* \"@openzeppelin/contracts-upgradeable/proxy/ERC1967/ERC1967UpgradeUpgradeable.sol\":7203:7232  AddressUpgradeable.isContract */\n      tag_206\n        /* \"@openzeppelin/contracts-upgradeable/proxy/ERC1967/ERC1967UpgradeUpgradeable.sol\":7203:7240  AddressUpgradeable.isContract(target) */\n      jump\t// in\n    tag_349:\n        /* \"@openzeppelin/contracts-upgradeable/proxy/ERC1967/ERC1967UpgradeUpgradeable.sol\":7195:7283  require(AddressUpgradeable.isContract(target), \"Address: delegate call to non-contract\") */\n      tag_350\n      jumpi\n      mload(0x40)\n      0x08c379a000000000000000000000000000000000000000000000000000000000\n      dup2\n      mstore\n      0x04\n      add\n      tag_351\n      swap1\n      tag_352\n      jump\t// in\n    tag_351:\n      mload(0x40)\n      dup1\n      swap2\n      sub\n      swap1\n      revert\n    tag_350:\n        /* \"@openzeppelin/contracts-upgradeable/proxy/ERC1967/ERC1967UpgradeUpgradeable.sol\":7354:7366  bool success */\n      0x00\n        /* \"@openzeppelin/contracts-upgradeable/proxy/ERC1967/ERC1967UpgradeUpgradeable.sol\":7368:7391  bytes memory returndata */\n      dup1\n        /* \"@openzeppelin/contracts-upgradeable/proxy/ERC1967/ERC1967UpgradeUpgradeable.sol\":7395:7401  target */\n      dup5\n        /* \"@openzeppelin/contracts-upgradeable/proxy/ERC1967/ERC1967UpgradeUpgradeable.sol\":7395:7414  target.delegatecall */\n      0xffffffffffffffffffffffffffffffffffffffff\n      and\n        /* \"@openzeppelin/contracts-upgradeable/proxy/ERC1967/ERC1967UpgradeUpgradeable.sol\":7415:7419  data */\n      dup5\n        /* \"@openzeppelin/contracts-upgradeable/proxy/ERC1967/ERC1967UpgradeUpgradeable.sol\":7395:7420  target.delegatecall(data) */\n      mload(0x40)\n      tag_353\n      swap2\n      swap1\n      tag_354\n      jump\t// in\n    tag_353:\n      0x00\n      mload(0x40)\n      dup1\n      dup4\n      sub\n      dup2\n      dup6\n      gas\n      delegatecall\n      swap2\n      pop\n      pop\n      returndatasize\n      dup1\n      0x00\n      dup2\n      eq\n      tag_357\n      jumpi\n      mload(0x40)\n      swap2\n      pop\n      and(add(returndatasize, 0x3f), not(0x1f))\n      dup3\n      add\n      0x40\n      mstore\n      returndatasize\n      dup3\n      mstore\n      returndatasize\n      0x00\n      0x20\n      dup5\n      add\n      returndatacopy\n      jump(tag_356)\n    tag_357:\n      0x60\n      swap2\n      pop\n    tag_356:\n      pop\n        /* \"@openzeppelin/contracts-upgradeable/proxy/ERC1967/ERC1967UpgradeUpgradeable.sol\":7353:7420  (bool success, bytes memory returndata) = target.delegatecall(data) */\n      swap2\n      pop\n      swap2\n      pop\n        /* \"@openzeppelin/contracts-upgradeable/proxy/ERC1967/ERC1967UpgradeUpgradeable.sol\":7437:7536  AddressUpgradeable.verifyCallResult(success, returndata, \"Address: low-level delegate call failed\") */\n      tag_358\n        /* \"@openzeppelin/contracts-upgradeable/proxy/ERC1967/ERC1967UpgradeUpgradeable.sol\":7473:7480  success */\n      dup3\n        /* \"@openzeppelin/contracts-upgradeable/proxy/ERC1967/ERC1967UpgradeUpgradeable.sol\":7482:7492  returndata */\n      dup3\n        /* \"@openzeppelin/contracts-upgradeable/proxy/ERC1967/ERC1967UpgradeUpgradeable.sol\":7437:7536  AddressUpgradeable.verifyCallResult(success, returndata, \"Address: low-level delegate call failed\") */\n      mload(0x40)\n      dup1\n      0x60\n      add\n      0x40\n      mstore\n      dup1\n      0x27\n      dup2\n      mstore\n      0x20\n      add\n      data_9fdcd12e4b726339b32a442b0a448365d5d85c96b2d2cff917b4f66c63110398\n      0x27\n      swap2\n      codecopy\n        /* \"@openzeppelin/contracts-upgradeable/proxy/ERC1967/ERC1967UpgradeUpgradeable.sol\":7437:7472  AddressUpgradeable.verifyCallResult */\n      tag_359\n        /* \"@openzeppelin/contracts-upgradeable/proxy/ERC1967/ERC1967UpgradeUpgradeable.sol\":7437:7536  AddressUpgradeable.verifyCallResult(success, returndata, \"Address: low-level delegate call failed\") */\n      jump\t// in\n    tag_358:\n        /* \"@openzeppelin/contracts-upgradeable/proxy/ERC1967/ERC1967UpgradeUpgradeable.sol\":7430:7536  return AddressUpgradeable.verifyCallResult(success, returndata, \"Address: low-level delegate call failed\") */\n      swap3\n      pop\n      pop\n      pop\n        /* \"@openzeppelin/contracts-upgradeable/proxy/ERC1967/ERC1967UpgradeUpgradeable.sol\":7088:7543  function _functionDelegateCall(address target, bytes memory data) private returns (bytes memory) {... */\n      swap3\n      swap2\n      pop\n      pop\n      jump\t// out\n        /* \"@openzeppelin/contracts-upgradeable/utils/AddressUpgradeable.sol\":7438:7733  function verifyCallResult(... */\n    tag_359:\n        /* \"@openzeppelin/contracts-upgradeable/utils/AddressUpgradeable.sol\":7584:7596  bytes memory */\n      0x60\n        /* \"@openzeppelin/contracts-upgradeable/utils/AddressUpgradeable.sol\":7612:7619  success */\n      dup4\n        /* \"@openzeppelin/contracts-upgradeable/utils/AddressUpgradeable.sol\":7608:7727  if (success) {... */\n      iszero\n      tag_361\n      jumpi\n        /* \"@openzeppelin/contracts-upgradeable/utils/AddressUpgradeable.sol\":7642:7652  returndata */\n      dup3\n        /* \"@openzeppelin/contracts-upgradeable/utils/AddressUpgradeable.sol\":7635:7652  return returndata */\n      swap1\n      pop\n      jump(tag_360)\n        /* \"@openzeppelin/contracts-upgradeable/utils/AddressUpgradeable.sol\":7608:7727  if (success) {... */\n    tag_361:\n        /* \"@openzeppelin/contracts-upgradeable/utils/AddressUpgradeable.sol\":7683:7716  _revert(returndata, errorMessage) */\n      tag_363\n        /* \"@openzeppelin/contracts-upgradeable/utils/AddressUpgradeable.sol\":7691:7701  returndata */\n      dup4\n        /* \"@openzeppelin/contracts-upgradeable/utils/AddressUpgradeable.sol\":7703:7715  errorMessage */\n      dup4\n        /* \"@openzeppelin/contracts-upgradeable/utils/AddressUpgradeable.sol\":7683:7690  _revert */\n      tag_364\n        /* \"@openzeppelin/contracts-upgradeable/utils/AddressUpgradeable.sol\":7683:7716  _revert(returndata, errorMessage) */\n      jump\t// in\n    tag_363:\n        /* \"@openzeppelin/contracts-upgradeable/utils/AddressUpgradeable.sol\":7438:7733  function verifyCallResult(... */\n    tag_360:\n      swap4\n      swap3\n      pop\n      pop\n      pop\n      jump\t// out\n        /* \"@openzeppelin/contracts-upgradeable/utils/AddressUpgradeable.sol\":7739:8279  function _revert(bytes memory returndata, string memory errorMessage) private pure {... */\n    tag_364:\n        /* \"@openzeppelin/contracts-upgradeable/utils/AddressUpgradeable.sol\":7918:7919  0 */\n      0x00\n        /* \"@openzeppelin/contracts-upgradeable/utils/AddressUpgradeable.sol\":7898:7908  returndata */\n      dup3\n        /* \"@openzeppelin/contracts-upgradeable/utils/AddressUpgradeable.sol\":7898:7915  returndata.length */\n      mload\n        /* \"@openzeppelin/contracts-upgradeable/utils/AddressUpgradeable.sol\":7898:7919  returndata.length > 0 */\n      gt\n        /* \"@openzeppelin/contracts-upgradeable/utils/AddressUpgradeable.sol\":7894:8273  if (returndata.length > 0) {... */\n      iszero\n      tag_366\n      jumpi\n        /* \"@openzeppelin/contracts-upgradeable/utils/AddressUpgradeable.sol\":8126:8136  returndata */\n      dup2\n        /* \"@openzeppelin/contracts-upgradeable/utils/AddressUpgradeable.sol\":8120:8137  mload(returndata) */\n      mload\n        /* \"@openzeppelin/contracts-upgradeable/utils/AddressUpgradeable.sol\":8182:8197  returndata_size */\n      dup1\n        /* \"@openzeppelin/contracts-upgradeable/utils/AddressUpgradeable.sol\":8169:8179  returndata */\n      dup4\n        /* \"@openzeppelin/contracts-upgradeable/utils/AddressUpgradeable.sol\":8165:8167  32 */\n      0x20\n        /* \"@openzeppelin/contracts-upgradeable/utils/AddressUpgradeable.sol\":8161:8180  add(32, returndata) */\n      add\n        /* \"@openzeppelin/contracts-upgradeable/utils/AddressUpgradeable.sol\":8154:8198  revert(add(32, returndata), returndata_size) */\n      revert\n        /* \"@openzeppelin/contracts-upgradeable/utils/AddressUpgradeable.sol\":7894:8273  if (returndata.length > 0) {... */\n    tag_366:\n        /* \"@openzeppelin/contracts-upgradeable/utils/AddressUpgradeable.sol\":8249:8261  errorMessage */\n      dup1\n        /* \"@openzeppelin/contracts-upgradeable/utils/AddressUpgradeable.sol\":8242:8262  revert(errorMessage) */\n      mload(0x40)\n      0x08c379a000000000000000000000000000000000000000000000000000000000\n      dup2\n      mstore\n      0x04\n      add\n      tag_368\n      swap2\n      swap1\n      tag_27\n      jump\t// in\n    tag_368:\n      mload(0x40)\n      dup1\n      swap2\n      sub\n      swap1\n      revert\n    tag_344:\n      dup3\n      dup1\n      sload\n      tag_369\n      swap1\n      tag_114\n      jump\t// in\n    tag_369:\n      swap1\n      0x00\n      mstore\n      keccak256(0x00, 0x20)\n      swap1\n      0x1f\n      add\n      0x20\n      swap1\n      div\n      dup2\n      add\n      swap3\n      dup3\n      tag_371\n      jumpi\n      0x00\n      dup6\n      sstore\n      jump(tag_370)\n    tag_371:\n      dup3\n      0x1f\n      lt\n      tag_372\n      jumpi\n      dup1\n      mload\n      not(0xff)\n      and\n      dup4\n      dup1\n      add\n      or\n      dup6\n      sstore\n      jump(tag_370)\n    tag_372:\n      dup3\n      dup1\n      add\n      0x01\n      add\n      dup6\n      sstore\n      dup3\n      iszero\n      tag_370\n      jumpi\n      swap2\n      dup3\n      add\n    tag_373:\n      dup3\n      dup2\n      gt\n      iszero\n      tag_374\n      jumpi\n      dup3\n      mload\n      dup3\n      sstore\n      swap2\n      0x20\n      add\n      swap2\n      swap1\n      0x01\n      add\n      swap1\n      jump(tag_373)\n    tag_374:\n    tag_370:\n      pop\n      swap1\n      pop\n      tag_375\n      swap2\n      swap1\n      tag_376\n      jump\t// in\n    tag_375:\n      pop\n      swap1\n      jump\t// out\n    tag_376:\n    tag_377:\n      dup1\n      dup3\n      gt\n      iszero\n      tag_378\n      jumpi\n      0x00\n      dup2\n      0x00\n      swap1\n      sstore\n      pop\n      0x01\n      add\n      jump(tag_377)\n    tag_378:\n      pop\n      swap1\n      jump\t// out\n        /* \"#utility.yul\":7:417   */\n    tag_380:\n        /* \"#utility.yul\":84:89   */\n      0x00\n        /* \"#utility.yul\":109:174   */\n      tag_382\n        /* \"#utility.yul\":125:173   */\n      tag_383\n        /* \"#utility.yul\":166:172   */\n      dup5\n        /* \"#utility.yul\":125:173   */\n      tag_384\n      jump\t// in\n    tag_383:\n        /* \"#utility.yul\":109:174   */\n      tag_385\n      jump\t// in\n    tag_382:\n        /* \"#utility.yul\":100:174   */\n      swap1\n      pop\n        /* \"#utility.yul\":197:203   */\n      dup3\n        /* \"#utility.yul\":190:195   */\n      dup2\n        /* \"#utility.yul\":183:204   */\n      mstore\n        /* \"#utility.yul\":235:239   */\n      0x20\n        /* \"#utility.yul\":228:233   */\n      dup2\n        /* \"#utility.yul\":224:240   */\n      add\n        /* \"#utility.yul\":273:276   */\n      dup5\n        /* \"#utility.yul\":264:270   */\n      dup5\n        /* \"#utility.yul\":259:262   */\n      dup5\n        /* \"#utility.yul\":255:271   */\n      add\n        /* \"#utility.yul\":252:277   */\n      gt\n        /* \"#utility.yul\":249:361   */\n      iszero\n      tag_386\n      jumpi\n        /* \"#utility.yul\":280:359   */\n      tag_387\n      tag_388\n      jump\t// in\n    tag_387:\n        /* \"#utility.yul\":249:361   */\n    tag_386:\n        /* \"#utility.yul\":370:411   */\n      tag_389\n        /* \"#utility.yul\":404:410   */\n      dup5\n        /* \"#utility.yul\":399:402   */\n      dup3\n        /* \"#utility.yul\":394:397   */\n      dup6\n        /* \"#utility.yul\":370:411   */\n      tag_390\n      jump\t// in\n    tag_389:\n        /* \"#utility.yul\":90:417   */\n      pop\n        /* \"#utility.yul\":7:417   */\n      swap4\n      swap3\n      pop\n      pop\n      pop\n      jump\t// out\n        /* \"#utility.yul\":423:562   */\n    tag_391:\n        /* \"#utility.yul\":469:474   */\n      0x00\n        /* \"#utility.yul\":507:513   */\n      dup2\n        /* \"#utility.yul\":494:514   */\n      calldataload\n        /* \"#utility.yul\":485:514   */\n      swap1\n      pop\n        /* \"#utility.yul\":523:556   */\n      tag_393\n        /* \"#utility.yul\":550:555   */\n      dup2\n        /* \"#utility.yul\":523:556   */\n      tag_394\n      jump\t// in\n    tag_393:\n        /* \"#utility.yul\":423:562   */\n      swap3\n      swap2\n      pop\n      pop\n      jump\t// out\n        /* \"#utility.yul\":568:711   */\n    tag_395:\n        /* \"#utility.yul\":625:630   */\n      0x00\n        /* \"#utility.yul\":656:662   */\n      dup2\n        /* \"#utility.yul\":650:663   */\n      mload\n        /* \"#utility.yul\":641:663   */\n      swap1\n      pop\n        /* \"#utility.yul\":672:705   */\n      tag_397\n        /* \"#utility.yul\":699:704   */\n      dup2\n        /* \"#utility.yul\":672:705   */\n      tag_398\n      jump\t// in\n    tag_397:\n        /* \"#utility.yul\":568:711   */\n      swap3\n      swap2\n      pop\n      pop\n      jump\t// out\n        /* \"#utility.yul\":730:1068   */\n    tag_399:\n        /* \"#utility.yul\":785:790   */\n      0x00\n        /* \"#utility.yul\":834:837   */\n      dup3\n        /* \"#utility.yul\":827:831   */\n      0x1f\n        /* \"#utility.yul\":819:825   */\n      dup4\n        /* \"#utility.yul\":815:832   */\n      add\n        /* \"#utility.yul\":811:838   */\n      slt\n        /* \"#utility.yul\":801:923   */\n      tag_401\n      jumpi\n        /* \"#utility.yul\":842:921   */\n      tag_402\n      tag_403\n      jump\t// in\n    tag_402:\n        /* \"#utility.yul\":801:923   */\n    tag_401:\n        /* \"#utility.yul\":959:965   */\n      dup2\n        /* \"#utility.yul\":946:966   */\n      calldataload\n        /* \"#utility.yul\":984:1062   */\n      tag_404\n        /* \"#utility.yul\":1058:1061   */\n      dup5\n        /* \"#utility.yul\":1050:1056   */\n      dup3\n        /* \"#utility.yul\":1043:1047   */\n      0x20\n        /* \"#utility.yul\":1035:1041   */\n      dup7\n        /* \"#utility.yul\":1031:1048   */\n      add\n        /* \"#utility.yul\":984:1062   */\n      tag_380\n      jump\t// in\n    tag_404:\n        /* \"#utility.yul\":975:1062   */\n      swap2\n      pop\n        /* \"#utility.yul\":791:1068   */\n      pop\n        /* \"#utility.yul\":730:1068   */\n      swap3\n      swap2\n      pop\n      pop\n      jump\t// out\n        /* \"#utility.yul\":1074:1213   */\n    tag_405:\n        /* \"#utility.yul\":1120:1125   */\n      0x00\n        /* \"#utility.yul\":1158:1164   */\n      dup2\n        /* \"#utility.yul\":1145:1165   */\n      calldataload\n        /* \"#utility.yul\":1136:1165   */\n      swap1\n      pop\n        /* \"#utility.yul\":1174:1207   */\n      tag_407\n        /* \"#utility.yul\":1201:1206   */\n      dup2\n        /* \"#utility.yul\":1174:1207   */\n      tag_408\n      jump\t// in\n    tag_407:\n        /* \"#utility.yul\":1074:1213   */\n      swap3\n      swap2\n      pop\n      pop\n      jump\t// out\n        /* \"#utility.yul\":1219:1548   */\n    tag_54:\n        /* \"#utility.yul\":1278:1284   */\n      0x00\n        /* \"#utility.yul\":1327:1329   */\n      0x20\n        /* \"#utility.yul\":1315:1324   */\n      dup3\n        /* \"#utility.yul\":1306:1313   */\n      dup5\n        /* \"#utility.yul\":1302:1325   */\n      sub\n        /* \"#utility.yul\":1298:1330   */\n      slt\n        /* \"#utility.yul\":1295:1414   */\n      iszero\n      tag_410\n      jumpi\n        /* \"#utility.yul\":1333:1412   */\n      tag_411\n      tag_412\n      jump\t// in\n    tag_411:\n        /* \"#utility.yul\":1295:1414   */\n    tag_410:\n        /* \"#utility.yul\":1453:1454   */\n      0x00\n        /* \"#utility.yul\":1478:1531   */\n      tag_413\n        /* \"#utility.yul\":1523:1530   */\n      dup5\n        /* \"#utility.yul\":1514:1520   */\n      dup3\n        /* \"#utility.yul\":1503:1512   */\n      dup6\n        /* \"#utility.yul\":1499:1521   */\n      add\n        /* \"#utility.yul\":1478:1531   */\n      tag_391\n      jump\t// in\n    tag_413:\n        /* \"#utility.yul\":1468:1531   */\n      swap2\n      pop\n        /* \"#utility.yul\":1424:1541   */\n      pop\n        /* \"#utility.yul\":1219:1548   */\n      swap3\n      swap2\n      pop\n      pop\n      jump\t// out\n        /* \"#utility.yul\":1554:2028   */\n    tag_100:\n        /* \"#utility.yul\":1622:1628   */\n      0x00\n        /* \"#utility.yul\":1630:1636   */\n      dup1\n        /* \"#utility.yul\":1679:1681   */\n      0x40\n        /* \"#utility.yul\":1667:1676   */\n      dup4\n        /* \"#utility.yul\":1658:1665   */\n      dup6\n        /* \"#utility.yul\":1654:1677   */\n      sub\n        /* \"#utility.yul\":1650:1682   */\n      slt\n        /* \"#utility.yul\":1647:1766   */\n      iszero\n      tag_415\n      jumpi\n        /* \"#utility.yul\":1685:1764   */\n      tag_416\n      tag_412\n      jump\t// in\n    tag_416:\n        /* \"#utility.yul\":1647:1766   */\n    tag_415:\n        /* \"#utility.yul\":1805:1806   */\n      0x00\n        /* \"#utility.yul\":1830:1883   */\n      tag_417\n        /* \"#utility.yul\":1875:1882   */\n      dup6\n        /* \"#utility.yul\":1866:1872   */\n      dup3\n        /* \"#utility.yul\":1855:1864   */\n      dup7\n        /* \"#utility.yul\":1851:1873   */\n      add\n        /* \"#utility.yul\":1830:1883   */\n      tag_391\n      jump\t// in\n    tag_417:\n        /* \"#utility.yul\":1820:1883   */\n      swap3\n      pop\n        /* \"#utility.yul\":1776:1893   */\n      pop\n        /* \"#utility.yul\":1932:1934   */\n      0x20\n        /* \"#utility.yul\":1958:2011   */\n      tag_418\n        /* \"#utility.yul\":2003:2010   */\n      dup6\n        /* \"#utility.yul\":1994:2000   */\n      dup3\n        /* \"#utility.yul\":1983:1992   */\n      dup7\n        /* \"#utility.yul\":1979:2001   */\n      add\n        /* \"#utility.yul\":1958:2011   */\n      tag_391\n      jump\t// in\n    tag_418:\n        /* \"#utility.yul\":1948:2011   */\n      swap2\n      pop\n        /* \"#utility.yul\":1903:2021   */\n      pop\n        /* \"#utility.yul\":1554:2028   */\n      swap3\n      pop\n      swap3\n      swap1\n      pop\n      jump\t// out\n        /* \"#utility.yul\":2034:2653   */\n    tag_43:\n        /* \"#utility.yul\":2111:2117   */\n      0x00\n        /* \"#utility.yul\":2119:2125   */\n      dup1\n        /* \"#utility.yul\":2127:2133   */\n      0x00\n        /* \"#utility.yul\":2176:2178   */\n      0x60\n        /* \"#utility.yul\":2164:2173   */\n      dup5\n        /* \"#utility.yul\":2155:2162   */\n      dup7\n        /* \"#utility.yul\":2151:2174   */\n      sub\n        /* \"#utility.yul\":2147:2179   */\n      slt\n        /* \"#utility.yul\":2144:2263   */\n      iszero\n      tag_420\n      jumpi\n        /* \"#utility.yul\":2182:2261   */\n      tag_421\n      tag_412\n      jump\t// in\n    tag_421:\n        /* \"#utility.yul\":2144:2263   */\n    tag_420:\n        /* \"#utility.yul\":2302:2303   */\n      0x00\n        /* \"#utility.yul\":2327:2380   */\n      tag_422\n        /* \"#utility.yul\":2372:2379   */\n      dup7\n        /* \"#utility.yul\":2363:2369   */\n      dup3\n        /* \"#utility.yul\":2352:2361   */\n      dup8\n        /* \"#utility.yul\":2348:2370   */\n      add\n        /* \"#utility.yul\":2327:2380   */\n      tag_391\n      jump\t// in\n    tag_422:\n        /* \"#utility.yul\":2317:2380   */\n      swap4\n      pop\n        /* \"#utility.yul\":2273:2390   */\n      pop\n        /* \"#utility.yul\":2429:2431   */\n      0x20\n        /* \"#utility.yul\":2455:2508   */\n      tag_423\n        /* \"#utility.yul\":2500:2507   */\n      dup7\n        /* \"#utility.yul\":2491:2497   */\n      dup3\n        /* \"#utility.yul\":2480:2489   */\n      dup8\n        /* \"#utility.yul\":2476:2498   */\n      add\n        /* \"#utility.yul\":2455:2508   */\n      tag_391\n      jump\t// in\n    tag_423:\n        /* \"#utility.yul\":2445:2508   */\n      swap3\n      pop\n        /* \"#utility.yul\":2400:2518   */\n      pop\n        /* \"#utility.yul\":2557:2559   */\n      0x40\n        /* \"#utility.yul\":2583:2636   */\n      tag_424\n        /* \"#utility.yul\":2628:2635   */\n      dup7\n        /* \"#utility.yul\":2619:2625   */\n      dup3\n        /* \"#utility.yul\":2608:2617   */\n      dup8\n        /* \"#utility.yul\":2604:2626   */\n      add\n        /* \"#utility.yul\":2583:2636   */\n      tag_405\n      jump\t// in\n    tag_424:\n        /* \"#utility.yul\":2573:2636   */\n      swap2\n      pop\n        /* \"#utility.yul\":2528:2646   */\n      pop\n        /* \"#utility.yul\":2034:2653   */\n      swap3\n      pop\n      swap3\n      pop\n      swap3\n      jump\t// out\n        /* \"#utility.yul\":2659:3311   */\n    tag_63:\n        /* \"#utility.yul\":2736:2742   */\n      0x00\n        /* \"#utility.yul\":2744:2750   */\n      dup1\n        /* \"#utility.yul\":2793:2795   */\n      0x40\n        /* \"#utility.yul\":2781:2790   */\n      dup4\n        /* \"#utility.yul\":2772:2779   */\n      dup6\n        /* \"#utility.yul\":2768:2791   */\n      sub\n        /* \"#utility.yul\":2764:2796   */\n      slt\n        /* \"#utility.yul\":2761:2880   */\n      iszero\n      tag_426\n      jumpi\n        /* \"#utility.yul\":2799:2878   */\n      tag_427\n      tag_412\n      jump\t// in\n    tag_427:\n        /* \"#utility.yul\":2761:2880   */\n    tag_426:\n        /* \"#utility.yul\":2919:2920   */\n      0x00\n        /* \"#utility.yul\":2944:2997   */\n      tag_428\n        /* \"#utility.yul\":2989:2996   */\n      dup6\n        /* \"#utility.yul\":2980:2986   */\n      dup3\n        /* \"#utility.yul\":2969:2978   */\n      dup7\n        /* \"#utility.yul\":2965:2987   */\n      add\n        /* \"#utility.yul\":2944:2997   */\n      tag_391\n      jump\t// in\n    tag_428:\n        /* \"#utility.yul\":2934:2997   */\n      swap3\n      pop\n        /* \"#utility.yul\":2890:3007   */\n      pop\n        /* \"#utility.yul\":3074:3076   */\n      0x20\n        /* \"#utility.yul\":3063:3072   */\n      dup4\n        /* \"#utility.yul\":3059:3077   */\n      add\n        /* \"#utility.yul\":3046:3078   */\n      calldataload\n        /* \"#utility.yul\":3105:3123   */\n      0xffffffffffffffff\n        /* \"#utility.yul\":3097:3103   */\n      dup2\n        /* \"#utility.yul\":3094:3124   */\n      gt\n        /* \"#utility.yul\":3091:3208   */\n      iszero\n      tag_429\n      jumpi\n        /* \"#utility.yul\":3127:3206   */\n      tag_430\n      tag_431\n      jump\t// in\n    tag_430:\n        /* \"#utility.yul\":3091:3208   */\n    tag_429:\n        /* \"#utility.yul\":3232:3294   */\n      tag_432\n        /* \"#utility.yul\":3286:3293   */\n      dup6\n        /* \"#utility.yul\":3277:3283   */\n      dup3\n        /* \"#utility.yul\":3266:3275   */\n      dup7\n        /* \"#utility.yul\":3262:3284   */\n      add\n        /* \"#utility.yul\":3232:3294   */\n      tag_399\n      jump\t// in\n    tag_432:\n        /* \"#utility.yul\":3222:3294   */\n      swap2\n      pop\n        /* \"#utility.yul\":3017:3304   */\n      pop\n        /* \"#utility.yul\":2659:3311   */\n      swap3\n      pop\n      swap3\n      swap1\n      pop\n      jump\t// out\n        /* \"#utility.yul\":3317:3791   */\n    tag_31:\n        /* \"#utility.yul\":3385:3391   */\n      0x00\n        /* \"#utility.yul\":3393:3399   */\n      dup1\n        /* \"#utility.yul\":3442:3444   */\n      0x40\n        /* \"#utility.yul\":3430:3439   */\n      dup4\n        /* \"#utility.yul\":3421:3428   */\n      dup6\n        /* \"#utility.yul\":3417:3440   */\n      sub\n        /* \"#utility.yul\":3413:3445   */\n      slt\n        /* \"#utility.yul\":3410:3529   */\n      iszero\n      tag_434\n      jumpi\n        /* \"#utility.yul\":3448:3527   */\n      tag_435\n      tag_412\n      jump\t// in\n    tag_435:\n        /* \"#utility.yul\":3410:3529   */\n    tag_434:\n        /* \"#utility.yul\":3568:3569   */\n      0x00\n        /* \"#utility.yul\":3593:3646   */\n      tag_436\n        /* \"#utility.yul\":3638:3645   */\n      dup6\n        /* \"#utility.yul\":3629:3635   */\n      dup3\n        /* \"#utility.yul\":3618:3627   */\n      dup7\n        /* \"#utility.yul\":3614:3636   */\n      add\n        /* \"#utility.yul\":3593:3646   */\n      tag_391\n      jump\t// in\n    tag_436:\n        /* \"#utility.yul\":3583:3646   */\n      swap3\n      pop\n        /* \"#utility.yul\":3539:3656   */\n      pop\n        /* \"#utility.yul\":3695:3697   */\n      0x20\n        /* \"#utility.yul\":3721:3774   */\n      tag_437\n        /* \"#utility.yul\":3766:3773   */\n      dup6\n        /* \"#utility.yul\":3757:3763   */\n      dup3\n        /* \"#utility.yul\":3746:3755   */\n      dup7\n        /* \"#utility.yul\":3742:3764   */\n      add\n        /* \"#utility.yul\":3721:3774   */\n      tag_405\n      jump\t// in\n    tag_437:\n        /* \"#utility.yul\":3711:3774   */\n      swap2\n      pop\n        /* \"#utility.yul\":3666:3784   */\n      pop\n        /* \"#utility.yul\":3317:3791   */\n      swap3\n      pop\n      swap3\n      swap1\n      pop\n      jump\t// out\n        /* \"#utility.yul\":3797:4148   */\n    tag_276:\n        /* \"#utility.yul\":3867:3873   */\n      0x00\n        /* \"#utility.yul\":3916:3918   */\n      0x20\n        /* \"#utility.yul\":3904:3913   */\n      dup3\n        /* \"#utility.yul\":3895:3902   */\n      dup5\n        /* \"#utility.yul\":3891:3914   */\n      sub\n        /* \"#utility.yul\":3887:3919   */\n      slt\n        /* \"#utility.yul\":3884:4003   */\n      iszero\n      tag_439\n      jumpi\n        /* \"#utility.yul\":3922:4001   */\n      tag_440\n      tag_412\n      jump\t// in\n    tag_440:\n        /* \"#utility.yul\":3884:4003   */\n    tag_439:\n        /* \"#utility.yul\":4042:4043   */\n      0x00\n        /* \"#utility.yul\":4067:4131   */\n      tag_441\n        /* \"#utility.yul\":4123:4130   */\n      dup5\n        /* \"#utility.yul\":4114:4120   */\n      dup3\n        /* \"#utility.yul\":4103:4112   */\n      dup6\n        /* \"#utility.yul\":4099:4121   */\n      add\n        /* \"#utility.yul\":4067:4131   */\n      tag_395\n      jump\t// in\n    tag_441:\n        /* \"#utility.yul\":4057:4131   */\n      swap2\n      pop\n        /* \"#utility.yul\":4013:4141   */\n      pop\n        /* \"#utility.yul\":3797:4148   */\n      swap3\n      swap2\n      pop\n      pop\n      jump\t// out\n        /* \"#utility.yul\":4154:4483   */\n    tag_110:\n        /* \"#utility.yul\":4213:4219   */\n      0x00\n        /* \"#utility.yul\":4262:4264   */\n      0x20\n        /* \"#utility.yul\":4250:4259   */\n      dup3\n        /* \"#utility.yul\":4241:4248   */\n      dup5\n        /* \"#utility.yul\":4237:4260   */\n      sub\n        /* \"#utility.yul\":4233:4265   */\n      slt\n        /* \"#utility.yul\":4230:4349   */\n      iszero\n      tag_443\n      jumpi\n        /* \"#utility.yul\":4268:4347   */\n      tag_444\n      tag_412\n      jump\t// in\n    tag_444:\n        /* \"#utility.yul\":4230:4349   */\n    tag_443:\n        /* \"#utility.yul\":4388:4389   */\n      0x00\n        /* \"#utility.yul\":4413:4466   */\n      tag_445\n        /* \"#utility.yul\":4458:4465   */\n      dup5\n        /* \"#utility.yul\":4449:4455   */\n      dup3\n        /* \"#utility.yul\":4438:4447   */\n      dup6\n        /* \"#utility.yul\":4434:4456   */\n      add\n        /* \"#utility.yul\":4413:4466   */\n      tag_405\n      jump\t// in\n    tag_445:\n        /* \"#utility.yul\":4403:4466   */\n      swap2\n      pop\n        /* \"#utility.yul\":4359:4476   */\n      pop\n        /* \"#utility.yul\":4154:4483   */\n      swap3\n      swap2\n      pop\n      pop\n      jump\t// out\n        /* \"#utility.yul\":4489:4607   */\n    tag_446:\n        /* \"#utility.yul\":4576:4600   */\n      tag_448\n        /* \"#utility.yul\":4594:4599   */\n      dup2\n        /* \"#utility.yul\":4576:4600   */\n      tag_449\n      jump\t// in\n    tag_448:\n        /* \"#utility.yul\":4571:4574   */\n      dup3\n        /* \"#utility.yul\":4564:4601   */\n      mstore\n        /* \"#utility.yul\":4489:4607   */\n      pop\n      pop\n      jump\t// out\n        /* \"#utility.yul\":4613:4722   */\n    tag_450:\n        /* \"#utility.yul\":4694:4715   */\n      tag_452\n        /* \"#utility.yul\":4709:4714   */\n      dup2\n        /* \"#utility.yul\":4694:4715   */\n      tag_453\n      jump\t// in\n    tag_452:\n        /* \"#utility.yul\":4689:4692   */\n      dup3\n        /* \"#utility.yul\":4682:4716   */\n      mstore\n        /* \"#utility.yul\":4613:4722   */\n      pop\n      pop\n      jump\t// out\n        /* \"#utility.yul\":4728:4846   */\n    tag_454:\n        /* \"#utility.yul\":4815:4839   */\n      tag_456\n        /* \"#utility.yul\":4833:4838   */\n      dup2\n        /* \"#utility.yul\":4815:4839   */\n      tag_457\n      jump\t// in\n    tag_456:\n        /* \"#utility.yul\":4810:4813   */\n      dup3\n        /* \"#utility.yul\":4803:4840   */\n      mstore\n        /* \"#utility.yul\":4728:4846   */\n      pop\n      pop\n      jump\t// out\n        /* \"#utility.yul\":4852:5225   */\n    tag_458:\n        /* \"#utility.yul\":4956:4959   */\n      0x00\n        /* \"#utility.yul\":4984:5022   */\n      tag_460\n        /* \"#utility.yul\":5016:5021   */\n      dup3\n        /* \"#utility.yul\":4984:5022   */\n      tag_461\n      jump\t// in\n    tag_460:\n        /* \"#utility.yul\":5038:5126   */\n      tag_462\n        /* \"#utility.yul\":5119:5125   */\n      dup2\n        /* \"#utility.yul\":5114:5117   */\n      dup6\n        /* \"#utility.yul\":5038:5126   */\n      tag_463\n      jump\t// in\n    tag_462:\n        /* \"#utility.yul\":5031:5126   */\n      swap4\n      pop\n        /* \"#utility.yul\":5135:5187   */\n      tag_464\n        /* \"#utility.yul\":5180:5186   */\n      dup2\n        /* \"#utility.yul\":5175:5178   */\n      dup6\n        /* \"#utility.yul\":5168:5172   */\n      0x20\n        /* \"#utility.yul\":5161:5166   */\n      dup7\n        /* \"#utility.yul\":5157:5173   */\n      add\n        /* \"#utility.yul\":5135:5187   */\n      tag_465\n      jump\t// in\n    tag_464:\n        /* \"#utility.yul\":5212:5218   */\n      dup1\n        /* \"#utility.yul\":5207:5210   */\n      dup5\n        /* \"#utility.yul\":5203:5219   */\n      add\n        /* \"#utility.yul\":5196:5219   */\n      swap2\n      pop\n        /* \"#utility.yul\":4960:5225   */\n      pop\n        /* \"#utility.yul\":4852:5225   */\n      swap3\n      swap2\n      pop\n      pop\n      jump\t// out\n        /* \"#utility.yul\":5231:5374   */\n    tag_466:\n        /* \"#utility.yul\":5324:5367   */\n      tag_468\n        /* \"#utility.yul\":5361:5366   */\n      dup2\n        /* \"#utility.yul\":5324:5367   */\n      tag_469\n      jump\t// in\n    tag_468:\n        /* \"#utility.yul\":5319:5322   */\n      dup3\n        /* \"#utility.yul\":5312:5368   */\n      mstore\n        /* \"#utility.yul\":5231:5374   */\n      pop\n      pop\n      jump\t// out\n        /* \"#utility.yul\":5380:5744   */\n    tag_470:\n        /* \"#utility.yul\":5468:5471   */\n      0x00\n        /* \"#utility.yul\":5496:5535   */\n      tag_472\n        /* \"#utility.yul\":5529:5534   */\n      dup3\n        /* \"#utility.yul\":5496:5535   */\n      tag_473\n      jump\t// in\n    tag_472:\n        /* \"#utility.yul\":5551:5622   */\n      tag_474\n        /* \"#utility.yul\":5615:5621   */\n      dup2\n        /* \"#utility.yul\":5610:5613   */\n      dup6\n        /* \"#utility.yul\":5551:5622   */\n      tag_475\n      jump\t// in\n    tag_474:\n        /* \"#utility.yul\":5544:5622   */\n      swap4\n      pop\n        /* \"#utility.yul\":5631:5683   */\n      tag_476\n        /* \"#utility.yul\":5676:5682   */\n      dup2\n        /* \"#utility.yul\":5671:5674   */\n      dup6\n        /* \"#utility.yul\":5664:5668   */\n      0x20\n        /* \"#utility.yul\":5657:5662   */\n      dup7\n        /* \"#utility.yul\":5653:5669   */\n      add\n        /* \"#utility.yul\":5631:5683   */\n      tag_465\n      jump\t// in\n    tag_476:\n        /* \"#utility.yul\":5708:5737   */\n      tag_477\n        /* \"#utility.yul\":5730:5736   */\n      dup2\n        /* \"#utility.yul\":5708:5737   */\n      tag_478\n      jump\t// in\n    tag_477:\n        /* \"#utility.yul\":5703:5706   */\n      dup5\n        /* \"#utility.yul\":5699:5738   */\n      add\n        /* \"#utility.yul\":5692:5738   */\n      swap2\n      pop\n        /* \"#utility.yul\":5472:5744   */\n      pop\n        /* \"#utility.yul\":5380:5744   */\n      swap3\n      swap2\n      pop\n      pop\n      jump\t// out\n        /* \"#utility.yul\":5750:6116   */\n    tag_479:\n        /* \"#utility.yul\":5892:5895   */\n      0x00\n        /* \"#utility.yul\":5913:5980   */\n      tag_481\n        /* \"#utility.yul\":5977:5979   */\n      0x23\n        /* \"#utility.yul\":5972:5975   */\n      dup4\n        /* \"#utility.yul\":5913:5980   */\n      tag_475\n      jump\t// in\n    tag_481:\n        /* \"#utility.yul\":5906:5980   */\n      swap2\n      pop\n        /* \"#utility.yul\":5989:6082   */\n      tag_482\n        /* \"#utility.yul\":6078:6081   */\n      dup3\n        /* \"#utility.yul\":5989:6082   */\n      tag_483\n      jump\t// in\n    tag_482:\n        /* \"#utility.yul\":6107:6109   */\n      0x40\n        /* \"#utility.yul\":6102:6105   */\n      dup3\n        /* \"#utility.yul\":6098:6110   */\n      add\n        /* \"#utility.yul\":6091:6110   */\n      swap1\n      pop\n        /* \"#utility.yul\":5750:6116   */\n      swap2\n      swap1\n      pop\n      jump\t// out\n        /* \"#utility.yul\":6122:6488   */\n    tag_484:\n        /* \"#utility.yul\":6264:6267   */\n      0x00\n        /* \"#utility.yul\":6285:6352   */\n      tag_486\n        /* \"#utility.yul\":6349:6351   */\n      0x26\n        /* \"#utility.yul\":6344:6347   */\n      dup4\n        /* \"#utility.yul\":6285:6352   */\n      tag_475\n      jump\t// in\n    tag_486:\n        /* \"#utility.yul\":6278:6352   */\n      swap2\n      pop\n        /* \"#utility.yul\":6361:6454   */\n      tag_487\n        /* \"#utility.yul\":6450:6453   */\n      dup3\n        /* \"#utility.yul\":6361:6454   */\n      tag_488\n      jump\t// in\n    tag_487:\n        /* \"#utility.yul\":6479:6481   */\n      0x40\n        /* \"#utility.yul\":6474:6477   */\n      dup3\n        /* \"#utility.yul\":6470:6482   */\n      add\n        /* \"#utility.yul\":6463:6482   */\n      swap1\n      pop\n        /* \"#utility.yul\":6122:6488   */\n      swap2\n      swap1\n      pop\n      jump\t// out\n        /* \"#utility.yul\":6494:6860   */\n    tag_489:\n        /* \"#utility.yul\":6636:6639   */\n      0x00\n        /* \"#utility.yul\":6657:6724   */\n      tag_491\n        /* \"#utility.yul\":6721:6723   */\n      0x22\n        /* \"#utility.yul\":6716:6719   */\n      dup4\n        /* \"#utility.yul\":6657:6724   */\n      tag_475\n      jump\t// in\n    tag_491:\n        /* \"#utility.yul\":6650:6724   */\n      swap2\n      pop\n        /* \"#utility.yul\":6733:6826   */\n      tag_492\n        /* \"#utility.yul\":6822:6825   */\n      dup3\n        /* \"#utility.yul\":6733:6826   */\n      tag_493\n      jump\t// in\n    tag_492:\n        /* \"#utility.yul\":6851:6853   */\n      0x40\n        /* \"#utility.yul\":6846:6849   */\n      dup3\n        /* \"#utility.yul\":6842:6854   */\n      add\n        /* \"#utility.yul\":6835:6854   */\n      swap1\n      pop\n        /* \"#utility.yul\":6494:6860   */\n      swap2\n      swap1\n      pop\n      jump\t// out\n        /* \"#utility.yul\":6866:7232   */\n    tag_494:\n        /* \"#utility.yul\":7008:7011   */\n      0x00\n        /* \"#utility.yul\":7029:7096   */\n      tag_496\n        /* \"#utility.yul\":7093:7095   */\n      0x2c\n        /* \"#utility.yul\":7088:7091   */\n      dup4\n        /* \"#utility.yul\":7029:7096   */\n      tag_475\n      jump\t// in\n    tag_496:\n        /* \"#utility.yul\":7022:7096   */\n      swap2\n      pop\n        /* \"#utility.yul\":7105:7198   */\n      tag_497\n        /* \"#utility.yul\":7194:7197   */\n      dup3\n        /* \"#utility.yul\":7105:7198   */\n      tag_498\n      jump\t// in\n    tag_497:\n        /* \"#utility.yul\":7223:7225   */\n      0x40\n        /* \"#utility.yul\":7218:7221   */\n      dup3\n        /* \"#utility.yul\":7214:7226   */\n      add\n        /* \"#utility.yul\":7207:7226   */\n      swap1\n      pop\n        /* \"#utility.yul\":6866:7232   */\n      swap2\n      swap1\n      pop\n      jump\t// out\n        /* \"#utility.yul\":7238:7604   */\n    tag_499:\n        /* \"#utility.yul\":7380:7383   */\n      0x00\n        /* \"#utility.yul\":7401:7468   */\n      tag_501\n        /* \"#utility.yul\":7465:7467   */\n      0x1d\n        /* \"#utility.yul\":7460:7463   */\n      dup4\n        /* \"#utility.yul\":7401:7468   */\n      tag_475\n      jump\t// in\n    tag_501:\n        /* \"#utility.yul\":7394:7468   */\n      swap2\n      pop\n        /* \"#utility.yul\":7477:7570   */\n      tag_502\n        /* \"#utility.yul\":7566:7569   */\n      dup3\n        /* \"#utility.yul\":7477:7570   */\n      tag_503\n      jump\t// in\n    tag_502:\n        /* \"#utility.yul\":7595:7597   */\n      0x20\n        /* \"#utility.yul\":7590:7593   */\n      dup3\n        /* \"#utility.yul\":7586:7598   */\n      add\n        /* \"#utility.yul\":7579:7598   */\n      swap1\n      pop\n        /* \"#utility.yul\":7238:7604   */\n      swap2\n      swap1\n      pop\n      jump\t// out\n        /* \"#utility.yul\":7610:7976   */\n    tag_504:\n        /* \"#utility.yul\":7752:7755   */\n      0x00\n        /* \"#utility.yul\":7773:7840   */\n      tag_506\n        /* \"#utility.yul\":7837:7839   */\n      0x26\n        /* \"#utility.yul\":7832:7835   */\n      dup4\n        /* \"#utility.yul\":7773:7840   */\n      tag_475\n      jump\t// in\n    tag_506:\n        /* \"#utility.yul\":7766:7840   */\n      swap2\n      pop\n        /* \"#utility.yul\":7849:7942   */\n      tag_507\n        /* \"#utility.yul\":7938:7941   */\n      dup3\n        /* \"#utility.yul\":7849:7942   */\n      tag_508\n      jump\t// in\n    tag_507:\n        /* \"#utility.yul\":7967:7969   */\n      0x40\n        /* \"#utility.yul\":7962:7965   */\n      dup3\n        /* \"#utility.yul\":7958:7970   */\n      add\n        /* \"#utility.yul\":7951:7970   */\n      swap1\n      pop\n        /* \"#utility.yul\":7610:7976   */\n      swap2\n      swap1\n      pop\n      jump\t// out\n        /* \"#utility.yul\":7982:8348   */\n    tag_509:\n        /* \"#utility.yul\":8124:8127   */\n      0x00\n        /* \"#utility.yul\":8145:8212   */\n      tag_511\n        /* \"#utility.yul\":8209:8211   */\n      0x2c\n        /* \"#utility.yul\":8204:8207   */\n      dup4\n        /* \"#utility.yul\":8145:8212   */\n      tag_475\n      jump\t// in\n    tag_511:\n        /* \"#utility.yul\":8138:8212   */\n      swap2\n      pop\n        /* \"#utility.yul\":8221:8314   */\n      tag_512\n        /* \"#utility.yul\":8310:8313   */\n      dup3\n        /* \"#utility.yul\":8221:8314   */\n      tag_513\n      jump\t// in\n    tag_512:\n        /* \"#utility.yul\":8339:8341   */\n      0x40\n        /* \"#utility.yul\":8334:8337   */\n      dup3\n        /* \"#utility.yul\":8330:8342   */\n      add\n        /* \"#utility.yul\":8323:8342   */\n      swap1\n      pop\n        /* \"#utility.yul\":7982:8348   */\n      swap2\n      swap1\n      pop\n      jump\t// out\n        /* \"#utility.yul\":8354:8720   */\n    tag_514:\n        /* \"#utility.yul\":8496:8499   */\n      0x00\n        /* \"#utility.yul\":8517:8584   */\n      tag_516\n        /* \"#utility.yul\":8581:8583   */\n      0x38\n        /* \"#utility.yul\":8576:8579   */\n      dup4\n        /* \"#utility.yul\":8517:8584   */\n      tag_475\n      jump\t// in\n    tag_516:\n        /* \"#utility.yul\":8510:8584   */\n      swap2\n      pop\n        /* \"#utility.yul\":8593:8686   */\n      tag_517\n        /* \"#utility.yul\":8682:8685   */\n      dup3\n        /* \"#utility.yul\":8593:8686   */\n      tag_518\n      jump\t// in\n    tag_517:\n        /* \"#utility.yul\":8711:8713   */\n      0x40\n        /* \"#utility.yul\":8706:8709   */\n      dup3\n        /* \"#utility.yul\":8702:8714   */\n      add\n        /* \"#utility.yul\":8695:8714   */\n      swap1\n      pop\n        /* \"#utility.yul\":8354:8720   */\n      swap2\n      swap1\n      pop\n      jump\t// out\n        /* \"#utility.yul\":8726:9092   */\n    tag_519:\n        /* \"#utility.yul\":8868:8871   */\n      0x00\n        /* \"#utility.yul\":8889:8956   */\n      tag_521\n        /* \"#utility.yul\":8953:8955   */\n      0x29\n        /* \"#utility.yul\":8948:8951   */\n      dup4\n        /* \"#utility.yul\":8889:8956   */\n      tag_475\n      jump\t// in\n    tag_521:\n        /* \"#utility.yul\":8882:8956   */\n      swap2\n      pop\n        /* \"#utility.yul\":8965:9058   */\n      tag_522\n        /* \"#utility.yul\":9054:9057   */\n      dup3\n        /* \"#utility.yul\":8965:9058   */\n      tag_523\n      jump\t// in\n    tag_522:\n        /* \"#utility.yul\":9083:9085   */\n      0x40\n        /* \"#utility.yul\":9078:9081   */\n      dup3\n        /* \"#utility.yul\":9074:9086   */\n      add\n        /* \"#utility.yul\":9067:9086   */\n      swap1\n      pop\n        /* \"#utility.yul\":8726:9092   */\n      swap2\n      swap1\n      pop\n      jump\t// out\n        /* \"#utility.yul\":9098:9464   */\n    tag_524:\n        /* \"#utility.yul\":9240:9243   */\n      0x00\n        /* \"#utility.yul\":9261:9328   */\n      tag_526\n        /* \"#utility.yul\":9325:9327   */\n      0x2e\n        /* \"#utility.yul\":9320:9323   */\n      dup4\n        /* \"#utility.yul\":9261:9328   */\n      tag_475\n      jump\t// in\n    tag_526:\n        /* \"#utility.yul\":9254:9328   */\n      swap2\n      pop\n        /* \"#utility.yul\":9337:9430   */\n      tag_527\n        /* \"#utility.yul\":9426:9429   */\n      dup3\n        /* \"#utility.yul\":9337:9430   */\n      tag_528\n      jump\t// in\n    tag_527:\n        /* \"#utility.yul\":9455:9457   */\n      0x40\n        /* \"#utility.yul\":9450:9453   */\n      dup3\n        /* \"#utility.yul\":9446:9458   */\n      add\n        /* \"#utility.yul\":9439:9458   */\n      swap1\n      pop\n        /* \"#utility.yul\":9098:9464   */\n      swap2\n      swap1\n      pop\n      jump\t// out\n        /* \"#utility.yul\":9470:9836   */\n    tag_529:\n        /* \"#utility.yul\":9612:9615   */\n      0x00\n        /* \"#utility.yul\":9633:9700   */\n      tag_531\n        /* \"#utility.yul\":9697:9699   */\n      0x2e\n        /* \"#utility.yul\":9692:9695   */\n      dup4\n        /* \"#utility.yul\":9633:9700   */\n      tag_475\n      jump\t// in\n    tag_531:\n        /* \"#utility.yul\":9626:9700   */\n      swap2\n      pop\n        /* \"#utility.yul\":9709:9802   */\n      tag_532\n        /* \"#utility.yul\":9798:9801   */\n      dup3\n        /* \"#utility.yul\":9709:9802   */\n      tag_533\n      jump\t// in\n    tag_532:\n        /* \"#utility.yul\":9827:9829   */\n      0x40\n        /* \"#utility.yul\":9822:9825   */\n      dup3\n        /* \"#utility.yul\":9818:9830   */\n      add\n        /* \"#utility.yul\":9811:9830   */\n      swap1\n      pop\n        /* \"#utility.yul\":9470:9836   */\n      swap2\n      swap1\n      pop\n      jump\t// out\n        /* \"#utility.yul\":9842:10208   */\n    tag_534:\n        /* \"#utility.yul\":9984:9987   */\n      0x00\n        /* \"#utility.yul\":10005:10072   */\n      tag_536\n        /* \"#utility.yul\":10069:10071   */\n      0x2d\n        /* \"#utility.yul\":10064:10067   */\n      dup4\n        /* \"#utility.yul\":10005:10072   */\n      tag_475\n      jump\t// in\n    tag_536:\n        /* \"#utility.yul\":9998:10072   */\n      swap2\n      pop\n        /* \"#utility.yul\":10081:10174   */\n      tag_537\n        /* \"#utility.yul\":10170:10173   */\n      dup3\n        /* \"#utility.yul\":10081:10174   */\n      tag_538\n      jump\t// in\n    tag_537:\n        /* \"#utility.yul\":10199:10201   */\n      0x40\n        /* \"#utility.yul\":10194:10197   */\n      dup3\n        /* \"#utility.yul\":10190:10202   */\n      add\n        /* \"#utility.yul\":10183:10202   */\n      swap1\n      pop\n        /* \"#utility.yul\":9842:10208   */\n      swap2\n      swap1\n      pop\n      jump\t// out\n        /* \"#utility.yul\":10214:10580   */\n    tag_539:\n        /* \"#utility.yul\":10356:10359   */\n      0x00\n        /* \"#utility.yul\":10377:10444   */\n      tag_541\n        /* \"#utility.yul\":10441:10443   */\n      0x20\n        /* \"#utility.yul\":10436:10439   */\n      dup4\n        /* \"#utility.yul\":10377:10444   */\n      tag_475\n      jump\t// in\n    tag_541:\n        /* \"#utility.yul\":10370:10444   */\n      swap2\n      pop\n        /* \"#utility.yul\":10453:10546   */\n      tag_542\n        /* \"#utility.yul\":10542:10545   */\n      dup3\n        /* \"#utility.yul\":10453:10546   */\n      tag_543\n      jump\t// in\n    tag_542:\n        /* \"#utility.yul\":10571:10573   */\n      0x20\n        /* \"#utility.yul\":10566:10569   */\n      dup3\n        /* \"#utility.yul\":10562:10574   */\n      add\n        /* \"#utility.yul\":10555:10574   */\n      swap1\n      pop\n        /* \"#utility.yul\":10214:10580   */\n      swap2\n      swap1\n      pop\n      jump\t// out\n        /* \"#utility.yul\":10586:10952   */\n    tag_544:\n        /* \"#utility.yul\":10728:10731   */\n      0x00\n        /* \"#utility.yul\":10749:10816   */\n      tag_546\n        /* \"#utility.yul\":10813:10815   */\n      0x26\n        /* \"#utility.yul\":10808:10811   */\n      dup4\n        /* \"#utility.yul\":10749:10816   */\n      tag_475\n      jump\t// in\n    tag_546:\n        /* \"#utility.yul\":10742:10816   */\n      swap2\n      pop\n        /* \"#utility.yul\":10825:10918   */\n      tag_547\n        /* \"#utility.yul\":10914:10917   */\n      dup3\n        /* \"#utility.yul\":10825:10918   */\n      tag_548\n      jump\t// in\n    tag_547:\n        /* \"#utility.yul\":10943:10945   */\n      0x40\n        /* \"#utility.yul\":10938:10941   */\n      dup3\n        /* \"#utility.yul\":10934:10946   */\n      add\n        /* \"#utility.yul\":10927:10946   */\n      swap1\n      pop\n        /* \"#utility.yul\":10586:10952   */\n      swap2\n      swap1\n      pop\n      jump\t// out\n        /* \"#utility.yul\":10958:11324   */\n    tag_549:\n        /* \"#utility.yul\":11100:11103   */\n      0x00\n        /* \"#utility.yul\":11121:11188   */\n      tag_551\n        /* \"#utility.yul\":11185:11187   */\n      0x25\n        /* \"#utility.yul\":11180:11183   */\n      dup4\n        /* \"#utility.yul\":11121:11188   */\n      tag_475\n      jump\t// in\n    tag_551:\n        /* \"#utility.yul\":11114:11188   */\n      swap2\n      pop\n        /* \"#utility.yul\":11197:11290   */\n      tag_552\n        /* \"#utility.yul\":11286:11289   */\n      dup3\n        /* \"#utility.yul\":11197:11290   */\n      tag_553\n      jump\t// in\n    tag_552:\n        /* \"#utility.yul\":11315:11317   */\n      0x40\n        /* \"#utility.yul\":11310:11313   */\n      dup3\n        /* \"#utility.yul\":11306:11318   */\n      add\n        /* \"#utility.yul\":11299:11318   */\n      swap1\n      pop\n        /* \"#utility.yul\":10958:11324   */\n      swap2\n      swap1\n      pop\n      jump\t// out\n        /* \"#utility.yul\":11330:11696   */\n    tag_554:\n        /* \"#utility.yul\":11472:11475   */\n      0x00\n        /* \"#utility.yul\":11493:11560   */\n      tag_556\n        /* \"#utility.yul\":11557:11559   */\n      0x24\n        /* \"#utility.yul\":11552:11555   */\n      dup4\n        /* \"#utility.yul\":11493:11560   */\n      tag_475\n      jump\t// in\n    tag_556:\n        /* \"#utility.yul\":11486:11560   */\n      swap2\n      pop\n        /* \"#utility.yul\":11569:11662   */\n      tag_557\n        /* \"#utility.yul\":11658:11661   */\n      dup3\n        /* \"#utility.yul\":11569:11662   */\n      tag_558\n      jump\t// in\n    tag_557:\n        /* \"#utility.yul\":11687:11689   */\n      0x40\n        /* \"#utility.yul\":11682:11685   */\n      dup3\n        /* \"#utility.yul\":11678:11690   */\n      add\n        /* \"#utility.yul\":11671:11690   */\n      swap1\n      pop\n        /* \"#utility.yul\":11330:11696   */\n      swap2\n      swap1\n      pop\n      jump\t// out\n        /* \"#utility.yul\":11702:12068   */\n    tag_559:\n        /* \"#utility.yul\":11844:11847   */\n      0x00\n        /* \"#utility.yul\":11865:11932   */\n      tag_561\n        /* \"#utility.yul\":11929:11931   */\n      0x2b\n        /* \"#utility.yul\":11924:11927   */\n      dup4\n        /* \"#utility.yul\":11865:11932   */\n      tag_475\n      jump\t// in\n    tag_561:\n        /* \"#utility.yul\":11858:11932   */\n      swap2\n      pop\n        /* \"#utility.yul\":11941:12034   */\n      tag_562\n        /* \"#utility.yul\":12030:12033   */\n      dup3\n        /* \"#utility.yul\":11941:12034   */\n      tag_563\n      jump\t// in\n    tag_562:\n        /* \"#utility.yul\":12059:12061   */\n      0x40\n        /* \"#utility.yul\":12054:12057   */\n      dup3\n        /* \"#utility.yul\":12050:12062   */\n      add\n        /* \"#utility.yul\":12043:12062   */\n      swap1\n      pop\n        /* \"#utility.yul\":11702:12068   */\n      swap2\n      swap1\n      pop\n      jump\t// out\n        /* \"#utility.yul\":12074:12440   */\n    tag_564:\n        /* \"#utility.yul\":12216:12219   */\n      0x00\n        /* \"#utility.yul\":12237:12304   */\n      tag_566\n        /* \"#utility.yul\":12301:12303   */\n      0x25\n        /* \"#utility.yul\":12296:12299   */\n      dup4\n        /* \"#utility.yul\":12237:12304   */\n      tag_475\n      jump\t// in\n    tag_566:\n        /* \"#utility.yul\":12230:12304   */\n      swap2\n      pop\n        /* \"#utility.yul\":12313:12406   */\n      tag_567\n        /* \"#utility.yul\":12402:12405   */\n      dup3\n        /* \"#utility.yul\":12313:12406   */\n      tag_568\n      jump\t// in\n    tag_567:\n        /* \"#utility.yul\":12431:12433   */\n      0x40\n        /* \"#utility.yul\":12426:12429   */\n      dup3\n        /* \"#utility.yul\":12422:12434   */\n      add\n        /* \"#utility.yul\":12415:12434   */\n      swap1\n      pop\n        /* \"#utility.yul\":12074:12440   */\n      swap2\n      swap1\n      pop\n      jump\t// out\n        /* \"#utility.yul\":12446:12812   */\n    tag_569:\n        /* \"#utility.yul\":12588:12591   */\n      0x00\n        /* \"#utility.yul\":12609:12676   */\n      tag_571\n        /* \"#utility.yul\":12673:12675   */\n      0x1f\n        /* \"#utility.yul\":12668:12671   */\n      dup4\n        /* \"#utility.yul\":12609:12676   */\n      tag_475\n      jump\t// in\n    tag_571:\n        /* \"#utility.yul\":12602:12676   */\n      swap2\n      pop\n        /* \"#utility.yul\":12685:12778   */\n      tag_572\n        /* \"#utility.yul\":12774:12777   */\n      dup3\n        /* \"#utility.yul\":12685:12778   */\n      tag_573\n      jump\t// in\n    tag_572:\n        /* \"#utility.yul\":12803:12805   */\n      0x20\n        /* \"#utility.yul\":12798:12801   */\n      dup3\n        /* \"#utility.yul\":12794:12806   */\n      add\n        /* \"#utility.yul\":12787:12806   */\n      swap1\n      pop\n        /* \"#utility.yul\":12446:12812   */\n      swap2\n      swap1\n      pop\n      jump\t// out\n        /* \"#utility.yul\":12818:12936   */\n    tag_574:\n        /* \"#utility.yul\":12905:12929   */\n      tag_576\n        /* \"#utility.yul\":12923:12928   */\n      dup2\n        /* \"#utility.yul\":12905:12929   */\n      tag_577\n      jump\t// in\n    tag_576:\n        /* \"#utility.yul\":12900:12903   */\n      dup3\n        /* \"#utility.yul\":12893:12930   */\n      mstore\n        /* \"#utility.yul\":12818:12936   */\n      pop\n      pop\n      jump\t// out\n        /* \"#utility.yul\":12942:13054   */\n    tag_578:\n        /* \"#utility.yul\":13025:13047   */\n      tag_580\n        /* \"#utility.yul\":13041:13046   */\n      dup2\n        /* \"#utility.yul\":13025:13047   */\n      tag_581\n      jump\t// in\n    tag_580:\n        /* \"#utility.yul\":13020:13023   */\n      dup3\n        /* \"#utility.yul\":13013:13048   */\n      mstore\n        /* \"#utility.yul\":12942:13054   */\n      pop\n      pop\n      jump\t// out\n        /* \"#utility.yul\":13060:13331   */\n    tag_354:\n        /* \"#utility.yul\":13190:13193   */\n      0x00\n        /* \"#utility.yul\":13212:13305   */\n      tag_583\n        /* \"#utility.yul\":13301:13304   */\n      dup3\n        /* \"#utility.yul\":13292:13298   */\n      dup5\n        /* \"#utility.yul\":13212:13305   */\n      tag_458\n      jump\t// in\n    tag_583:\n        /* \"#utility.yul\":13205:13305   */\n      swap2\n      pop\n        /* \"#utility.yul\":13322:13325   */\n      dup2\n        /* \"#utility.yul\":13315:13325   */\n      swap1\n      pop\n        /* \"#utility.yul\":13060:13331   */\n      swap3\n      swap2\n      pop\n      pop\n      jump\t// out\n        /* \"#utility.yul\":13337:13559   */\n    tag_82:\n        /* \"#utility.yul\":13430:13434   */\n      0x00\n        /* \"#utility.yul\":13468:13470   */\n      0x20\n        /* \"#utility.yul\":13457:13466   */\n      dup3\n        /* \"#utility.yul\":13453:13471   */\n      add\n        /* \"#utility.yul\":13445:13471   */\n      swap1\n      pop\n        /* \"#utility.yul\":13481:13552   */\n      tag_585\n        /* \"#utility.yul\":13549:13550   */\n      0x00\n        /* \"#utility.yul\":13538:13547   */\n      dup4\n        /* \"#utility.yul\":13534:13551   */\n      add\n        /* \"#utility.yul\":13525:13531   */\n      dup5\n        /* \"#utility.yul\":13481:13552   */\n      tag_446\n      jump\t// in\n    tag_585:\n        /* \"#utility.yul\":13337:13559   */\n      swap3\n      swap2\n      pop\n      pop\n      jump\t// out\n        /* \"#utility.yul\":13565:13775   */\n    tag_34:\n        /* \"#utility.yul\":13652:13656   */\n      0x00\n        /* \"#utility.yul\":13690:13692   */\n      0x20\n        /* \"#utility.yul\":13679:13688   */\n      dup3\n        /* \"#utility.yul\":13675:13693   */\n      add\n        /* \"#utility.yul\":13667:13693   */\n      swap1\n      pop\n        /* \"#utility.yul\":13703:13768   */\n      tag_587\n        /* \"#utility.yul\":13765:13766   */\n      0x00\n        /* \"#utility.yul\":13754:13763   */\n      dup4\n        /* \"#utility.yul\":13750:13767   */\n      add\n        /* \"#utility.yul\":13741:13747   */\n      dup5\n        /* \"#utility.yul\":13703:13768   */\n      tag_450\n      jump\t// in\n    tag_587:\n        /* \"#utility.yul\":13565:13775   */\n      swap3\n      swap2\n      pop\n      pop\n      jump\t// out\n        /* \"#utility.yul\":13781:14003   */\n    tag_69:\n        /* \"#utility.yul\":13874:13878   */\n      0x00\n        /* \"#utility.yul\":13912:13914   */\n      0x20\n        /* \"#utility.yul\":13901:13910   */\n      dup3\n        /* \"#utility.yul\":13897:13915   */\n      add\n        /* \"#utility.yul\":13889:13915   */\n      swap1\n      pop\n        /* \"#utility.yul\":13925:13996   */\n      tag_589\n        /* \"#utility.yul\":13993:13994   */\n      0x00\n        /* \"#utility.yul\":13982:13991   */\n      dup4\n        /* \"#utility.yul\":13978:13995   */\n      add\n        /* \"#utility.yul\":13969:13975   */\n      dup5\n        /* \"#utility.yul\":13925:13996   */\n      tag_454\n      jump\t// in\n    tag_589:\n        /* \"#utility.yul\":13781:14003   */\n      swap3\n      swap2\n      pop\n      pop\n      jump\t// out\n        /* \"#utility.yul\":14009:14243   */\n    tag_228:\n        /* \"#utility.yul\":14108:14112   */\n      0x00\n        /* \"#utility.yul\":14146:14148   */\n      0x20\n        /* \"#utility.yul\":14135:14144   */\n      dup3\n        /* \"#utility.yul\":14131:14149   */\n      add\n        /* \"#utility.yul\":14123:14149   */\n      swap1\n      pop\n        /* \"#utility.yul\":14159:14236   */\n      tag_591\n        /* \"#utility.yul\":14233:14234   */\n      0x00\n        /* \"#utility.yul\":14222:14231   */\n      dup4\n        /* \"#utility.yul\":14218:14235   */\n      add\n        /* \"#utility.yul\":14209:14215   */\n      dup5\n        /* \"#utility.yul\":14159:14236   */\n      tag_466\n      jump\t// in\n    tag_591:\n        /* \"#utility.yul\":14009:14243   */\n      swap3\n      swap2\n      pop\n      pop\n      jump\t// out\n        /* \"#utility.yul\":14249:14562   */\n    tag_27:\n        /* \"#utility.yul\":14362:14366   */\n      0x00\n        /* \"#utility.yul\":14400:14402   */\n      0x20\n        /* \"#utility.yul\":14389:14398   */\n      dup3\n        /* \"#utility.yul\":14385:14403   */\n      add\n        /* \"#utility.yul\":14377:14403   */\n      swap1\n      pop\n        /* \"#utility.yul\":14449:14458   */\n      dup2\n        /* \"#utility.yul\":14443:14447   */\n      dup2\n        /* \"#utility.yul\":14439:14459   */\n      sub\n        /* \"#utility.yul\":14435:14436   */\n      0x00\n        /* \"#utility.yul\":14424:14433   */\n      dup4\n        /* \"#utility.yul\":14420:14437   */\n      add\n        /* \"#utility.yul\":14413:14460   */\n      mstore\n        /* \"#utility.yul\":14477:14555   */\n      tag_593\n        /* \"#utility.yul\":14550:14554   */\n      dup2\n        /* \"#utility.yul\":14541:14547   */\n      dup5\n        /* \"#utility.yul\":14477:14555   */\n      tag_470\n      jump\t// in\n    tag_593:\n        /* \"#utility.yul\":14469:14555   */\n      swap1\n      pop\n        /* \"#utility.yul\":14249:14562   */\n      swap3\n      swap2\n      pop\n      pop\n      jump\t// out\n        /* \"#utility.yul\":14568:14987   */\n    tag_251:\n        /* \"#utility.yul\":14734:14738   */\n      0x00\n        /* \"#utility.yul\":14772:14774   */\n      0x20\n        /* \"#utility.yul\":14761:14770   */\n      dup3\n        /* \"#utility.yul\":14757:14775   */\n      add\n        /* \"#utility.yul\":14749:14775   */\n      swap1\n      pop\n        /* \"#utility.yul\":14821:14830   */\n      dup2\n        /* \"#utility.yul\":14815:14819   */\n      dup2\n        /* \"#utility.yul\":14811:14831   */\n      sub\n        /* \"#utility.yul\":14807:14808   */\n      0x00\n        /* \"#utility.yul\":14796:14805   */\n      dup4\n        /* \"#utility.yul\":14792:14809   */\n      add\n        /* \"#utility.yul\":14785:14832   */\n      mstore\n        /* \"#utility.yul\":14849:14980   */\n      tag_595\n        /* \"#utility.yul\":14975:14979   */\n      dup2\n        /* \"#utility.yul\":14849:14980   */\n      tag_479\n      jump\t// in\n    tag_595:\n        /* \"#utility.yul\":14841:14980   */\n      swap1\n      pop\n        /* \"#utility.yul\":14568:14987   */\n      swap2\n      swap1\n      pop\n      jump\t// out\n        /* \"#utility.yul\":14993:15412   */\n    tag_200:\n        /* \"#utility.yul\":15159:15163   */\n      0x00\n        /* \"#utility.yul\":15197:15199   */\n      0x20\n        /* \"#utility.yul\":15186:15195   */\n      dup3\n        /* \"#utility.yul\":15182:15200   */\n      add\n        /* \"#utility.yul\":15174:15200   */\n      swap1\n      pop\n        /* \"#utility.yul\":15246:15255   */\n      dup2\n        /* \"#utility.yul\":15240:15244   */\n      dup2\n        /* \"#utility.yul\":15236:15256   */\n      sub\n        /* \"#utility.yul\":15232:15233   */\n      0x00\n        /* \"#utility.yul\":15221:15230   */\n      dup4\n        /* \"#utility.yul\":15217:15234   */\n      add\n        /* \"#utility.yul\":15210:15257   */\n      mstore\n        /* \"#utility.yul\":15274:15405   */\n      tag_597\n        /* \"#utility.yul\":15400:15404   */\n      dup2\n        /* \"#utility.yul\":15274:15405   */\n      tag_484\n      jump\t// in\n    tag_597:\n        /* \"#utility.yul\":15266:15405   */\n      swap1\n      pop\n        /* \"#utility.yul\":14993:15412   */\n      swap2\n      swap1\n      pop\n      jump\t// out\n        /* \"#utility.yul\":15418:15837   */\n    tag_236:\n        /* \"#utility.yul\":15584:15588   */\n      0x00\n        /* \"#utility.yul\":15622:15624   */\n      0x20\n        /* \"#utility.yul\":15611:15620   */\n      dup3\n        /* \"#utility.yul\":15607:15625   */\n      add\n        /* \"#utility.yul\":15599:15625   */\n      swap1\n      pop\n        /* \"#utility.yul\":15671:15680   */\n      dup2\n        /* \"#utility.yul\":15665:15669   */\n      dup2\n        /* \"#utility.yul\":15661:15681   */\n      sub\n        /* \"#utility.yul\":15657:15658   */\n      0x00\n        /* \"#utility.yul\":15646:15655   */\n      dup4\n        /* \"#utility.yul\":15642:15659   */\n      add\n        /* \"#utility.yul\":15635:15682   */\n      mstore\n        /* \"#utility.yul\":15699:15830   */\n      tag_599\n        /* \"#utility.yul\":15825:15829   */\n      dup2\n        /* \"#utility.yul\":15699:15830   */\n      tag_489\n      jump\t// in\n    tag_599:\n        /* \"#utility.yul\":15691:15830   */\n      swap1\n      pop\n        /* \"#utility.yul\":15418:15837   */\n      swap2\n      swap1\n      pop\n      jump\t// out\n        /* \"#utility.yul\":15843:16262   */\n    tag_135:\n        /* \"#utility.yul\":16009:16013   */\n      0x00\n        /* \"#utility.yul\":16047:16049   */\n      0x20\n        /* \"#utility.yul\":16036:16045   */\n      dup3\n        /* \"#utility.yul\":16032:16050   */\n      add\n        /* \"#utility.yul\":16024:16050   */\n      swap1\n      pop\n        /* \"#utility.yul\":16096:16105   */\n      dup2\n        /* \"#utility.yul\":16090:16094   */\n      dup2\n        /* \"#utility.yul\":16086:16106   */\n      sub\n        /* \"#utility.yul\":16082:16083   */\n      0x00\n        /* \"#utility.yul\":16071:16080   */\n      dup4\n        /* \"#utility.yul\":16067:16084   */\n      add\n        /* \"#utility.yul\":16060:16107   */\n      mstore\n        /* \"#utility.yul\":16124:16255   */\n      tag_601\n        /* \"#utility.yul\":16250:16254   */\n      dup2\n        /* \"#utility.yul\":16124:16255   */\n      tag_494\n      jump\t// in\n    tag_601:\n        /* \"#utility.yul\":16116:16255   */\n      swap1\n      pop\n        /* \"#utility.yul\":15843:16262   */\n      swap2\n      swap1\n      pop\n      jump\t// out\n        /* \"#utility.yul\":16268:16687   */\n    tag_243:\n        /* \"#utility.yul\":16434:16438   */\n      0x00\n        /* \"#utility.yul\":16472:16474   */\n      0x20\n        /* \"#utility.yul\":16461:16470   */\n      dup3\n        /* \"#utility.yul\":16457:16475   */\n      add\n        /* \"#utility.yul\":16449:16475   */\n      swap1\n      pop\n        /* \"#utility.yul\":16521:16530   */\n      dup2\n        /* \"#utility.yul\":16515:16519   */\n      dup2\n        /* \"#utility.yul\":16511:16531   */\n      sub\n        /* \"#utility.yul\":16507:16508   */\n      0x00\n        /* \"#utility.yul\":16496:16505   */\n      dup4\n        /* \"#utility.yul\":16492:16509   */\n      add\n        /* \"#utility.yul\":16485:16532   */\n      mstore\n        /* \"#utility.yul\":16549:16680   */\n      tag_603\n        /* \"#utility.yul\":16675:16679   */\n      dup2\n        /* \"#utility.yul\":16549:16680   */\n      tag_499\n      jump\t// in\n    tag_603:\n        /* \"#utility.yul\":16541:16680   */\n      swap1\n      pop\n        /* \"#utility.yul\":16268:16687   */\n      swap2\n      swap1\n      pop\n      jump\t// out\n        /* \"#utility.yul\":16693:17112   */\n    tag_256:\n        /* \"#utility.yul\":16859:16863   */\n      0x00\n        /* \"#utility.yul\":16897:16899   */\n      0x20\n        /* \"#utility.yul\":16886:16895   */\n      dup3\n        /* \"#utility.yul\":16882:16900   */\n      add\n        /* \"#utility.yul\":16874:16900   */\n      swap1\n      pop\n        /* \"#utility.yul\":16946:16955   */\n      dup2\n        /* \"#utility.yul\":16940:16944   */\n      dup2\n        /* \"#utility.yul\":16936:16956   */\n      sub\n        /* \"#utility.yul\":16932:16933   */\n      0x00\n        /* \"#utility.yul\":16921:16930   */\n      dup4\n        /* \"#utility.yul\":16917:16934   */\n      add\n        /* \"#utility.yul\":16910:16957   */\n      mstore\n        /* \"#utility.yul\":16974:17105   */\n      tag_605\n        /* \"#utility.yul\":17100:17104   */\n      dup2\n        /* \"#utility.yul\":16974:17105   */\n      tag_504\n      jump\t// in\n    tag_605:\n        /* \"#utility.yul\":16966:17105   */\n      swap1\n      pop\n        /* \"#utility.yul\":16693:17112   */\n      swap2\n      swap1\n      pop\n      jump\t// out\n        /* \"#utility.yul\":17118:17537   */\n    tag_140:\n        /* \"#utility.yul\":17284:17288   */\n      0x00\n        /* \"#utility.yul\":17322:17324   */\n      0x20\n        /* \"#utility.yul\":17311:17320   */\n      dup3\n        /* \"#utility.yul\":17307:17325   */\n      add\n        /* \"#utility.yul\":17299:17325   */\n      swap1\n      pop\n        /* \"#utility.yul\":17371:17380   */\n      dup2\n        /* \"#utility.yul\":17365:17369   */\n      dup2\n        /* \"#utility.yul\":17361:17381   */\n      sub\n        /* \"#utility.yul\":17357:17358   */\n      0x00\n        /* \"#utility.yul\":17346:17355   */\n      dup4\n        /* \"#utility.yul\":17342:17359   */\n      add\n        /* \"#utility.yul\":17335:17382   */\n      mstore\n        /* \"#utility.yul\":17399:17530   */\n      tag_607\n        /* \"#utility.yul\":17525:17529   */\n      dup2\n        /* \"#utility.yul\":17399:17530   */\n      tag_509\n      jump\t// in\n    tag_607:\n        /* \"#utility.yul\":17391:17530   */\n      swap1\n      pop\n        /* \"#utility.yul\":17118:17537   */\n      swap2\n      swap1\n      pop\n      jump\t// out\n        /* \"#utility.yul\":17543:17962   */\n    tag_168:\n        /* \"#utility.yul\":17709:17713   */\n      0x00\n        /* \"#utility.yul\":17747:17749   */\n      0x20\n        /* \"#utility.yul\":17736:17745   */\n      dup3\n        /* \"#utility.yul\":17732:17750   */\n      add\n        /* \"#utility.yul\":17724:17750   */\n      swap1\n      pop\n        /* \"#utility.yul\":17796:17805   */\n      dup2\n        /* \"#utility.yul\":17790:17794   */\n      dup2\n        /* \"#utility.yul\":17786:17806   */\n      sub\n        /* \"#utility.yul\":17782:17783   */\n      0x00\n        /* \"#utility.yul\":17771:17780   */\n      dup4\n        /* \"#utility.yul\":17767:17784   */\n      add\n        /* \"#utility.yul\":17760:17807   */\n      mstore\n        /* \"#utility.yul\":17824:17955   */\n      tag_609\n        /* \"#utility.yul\":17950:17954   */\n      dup2\n        /* \"#utility.yul\":17824:17955   */\n      tag_514\n      jump\t// in\n    tag_609:\n        /* \"#utility.yul\":17816:17955   */\n      swap1\n      pop\n        /* \"#utility.yul\":17543:17962   */\n      swap2\n      swap1\n      pop\n      jump\t// out\n        /* \"#utility.yul\":17968:18387   */\n    tag_286:\n        /* \"#utility.yul\":18134:18138   */\n      0x00\n        /* \"#utility.yul\":18172:18174   */\n      0x20\n        /* \"#utility.yul\":18161:18170   */\n      dup3\n        /* \"#utility.yul\":18157:18175   */\n      add\n        /* \"#utility.yul\":18149:18175   */\n      swap1\n      pop\n        /* \"#utility.yul\":18221:18230   */\n      dup2\n        /* \"#utility.yul\":18215:18219   */\n      dup2\n        /* \"#utility.yul\":18211:18231   */\n      sub\n        /* \"#utility.yul\":18207:18208   */\n      0x00\n        /* \"#utility.yul\":18196:18205   */\n      dup4\n        /* \"#utility.yul\":18192:18209   */\n      add\n        /* \"#utility.yul\":18185:18232   */\n      mstore\n        /* \"#utility.yul\":18249:18380   */\n      tag_611\n        /* \"#utility.yul\":18375:18379   */\n      dup2\n        /* \"#utility.yul\":18249:18380   */\n      tag_519\n      jump\t// in\n    tag_611:\n        /* \"#utility.yul\":18241:18380   */\n      swap1\n      pop\n        /* \"#utility.yul\":17968:18387   */\n      swap2\n      swap1\n      pop\n      jump\t// out\n        /* \"#utility.yul\":18393:18812   */\n    tag_210:\n        /* \"#utility.yul\":18559:18563   */\n      0x00\n        /* \"#utility.yul\":18597:18599   */\n      0x20\n        /* \"#utility.yul\":18586:18595   */\n      dup3\n        /* \"#utility.yul\":18582:18600   */\n      add\n        /* \"#utility.yul\":18574:18600   */\n      swap1\n      pop\n        /* \"#utility.yul\":18646:18655   */\n      dup2\n        /* \"#utility.yul\":18640:18644   */\n      dup2\n        /* \"#utility.yul\":18636:18656   */\n      sub\n        /* \"#utility.yul\":18632:18633   */\n      0x00\n        /* \"#utility.yul\":18621:18630   */\n      dup4\n        /* \"#utility.yul\":18617:18634   */\n      add\n        /* \"#utility.yul\":18610:18657   */\n      mstore\n        /* \"#utility.yul\":18674:18805   */\n      tag_613\n        /* \"#utility.yul\":18800:18804   */\n      dup2\n        /* \"#utility.yul\":18674:18805   */\n      tag_524\n      jump\t// in\n    tag_613:\n        /* \"#utility.yul\":18666:18805   */\n      swap1\n      pop\n        /* \"#utility.yul\":18393:18812   */\n      swap2\n      swap1\n      pop\n      jump\t// out\n        /* \"#utility.yul\":18818:19237   */\n    tag_282:\n        /* \"#utility.yul\":18984:18988   */\n      0x00\n        /* \"#utility.yul\":19022:19024   */\n      0x20\n        /* \"#utility.yul\":19011:19020   */\n      dup3\n        /* \"#utility.yul\":19007:19025   */\n      add\n        /* \"#utility.yul\":18999:19025   */\n      swap1\n      pop\n        /* \"#utility.yul\":19071:19080   */\n      dup2\n        /* \"#utility.yul\":19065:19069   */\n      dup2\n        /* \"#utility.yul\":19061:19081   */\n      sub\n        /* \"#utility.yul\":19057:19058   */\n      0x00\n        /* \"#utility.yul\":19046:19055   */\n      dup4\n        /* \"#utility.yul\":19042:19059   */\n      add\n        /* \"#utility.yul\":19035:19082   */\n      mstore\n        /* \"#utility.yul\":19099:19230   */\n      tag_615\n        /* \"#utility.yul\":19225:19229   */\n      dup2\n        /* \"#utility.yul\":19099:19230   */\n      tag_529\n      jump\t// in\n    tag_615:\n        /* \"#utility.yul\":19091:19230   */\n      swap1\n      pop\n        /* \"#utility.yul\":18818:19237   */\n      swap2\n      swap1\n      pop\n      jump\t// out\n        /* \"#utility.yul\":19243:19662   */\n    tag_330:\n        /* \"#utility.yul\":19409:19413   */\n      0x00\n        /* \"#utility.yul\":19447:19449   */\n      0x20\n        /* \"#utility.yul\":19436:19445   */\n      dup3\n        /* \"#utility.yul\":19432:19450   */\n      add\n        /* \"#utility.yul\":19424:19450   */\n      swap1\n      pop\n        /* \"#utility.yul\":19496:19505   */\n      dup2\n        /* \"#utility.yul\":19490:19494   */\n      dup2\n        /* \"#utility.yul\":19486:19506   */\n      sub\n        /* \"#utility.yul\":19482:19483   */\n      0x00\n        /* \"#utility.yul\":19471:19480   */\n      dup4\n        /* \"#utility.yul\":19467:19484   */\n      add\n        /* \"#utility.yul\":19460:19507   */\n      mstore\n        /* \"#utility.yul\":19524:19655   */\n      tag_617\n        /* \"#utility.yul\":19650:19654   */\n      dup2\n        /* \"#utility.yul\":19524:19655   */\n      tag_534\n      jump\t// in\n    tag_617:\n        /* \"#utility.yul\":19516:19655   */\n      swap1\n      pop\n        /* \"#utility.yul\":19243:19662   */\n      swap2\n      swap1\n      pop\n      jump\t// out\n        /* \"#utility.yul\":19668:20087   */\n    tag_294:\n        /* \"#utility.yul\":19834:19838   */\n      0x00\n        /* \"#utility.yul\":19872:19874   */\n      0x20\n        /* \"#utility.yul\":19861:19870   */\n      dup3\n        /* \"#utility.yul\":19857:19875   */\n      add\n        /* \"#utility.yul\":19849:19875   */\n      swap1\n      pop\n        /* \"#utility.yul\":19921:19930   */\n      dup2\n        /* \"#utility.yul\":19915:19919   */\n      dup2\n        /* \"#utility.yul\":19911:19931   */\n      sub\n        /* \"#utility.yul\":19907:19908   */\n      0x00\n        /* \"#utility.yul\":19896:19905   */\n      dup4\n        /* \"#utility.yul\":19892:19909   */\n      add\n        /* \"#utility.yul\":19885:19932   */\n      mstore\n        /* \"#utility.yul\":19949:20080   */\n      tag_619\n        /* \"#utility.yul\":20075:20079   */\n      dup2\n        /* \"#utility.yul\":19949:20080   */\n      tag_539\n      jump\t// in\n    tag_619:\n        /* \"#utility.yul\":19941:20080   */\n      swap1\n      pop\n        /* \"#utility.yul\":19668:20087   */\n      swap2\n      swap1\n      pop\n      jump\t// out\n        /* \"#utility.yul\":20093:20512   */\n    tag_352:\n        /* \"#utility.yul\":20259:20263   */\n      0x00\n        /* \"#utility.yul\":20297:20299   */\n      0x20\n        /* \"#utility.yul\":20286:20295   */\n      dup3\n        /* \"#utility.yul\":20282:20300   */\n      add\n        /* \"#utility.yul\":20274:20300   */\n      swap1\n      pop\n        /* \"#utility.yul\":20346:20355   */\n      dup2\n        /* \"#utility.yul\":20340:20344   */\n      dup2\n        /* \"#utility.yul\":20336:20356   */\n      sub\n        /* \"#utility.yul\":20332:20333   */\n      0x00\n        /* \"#utility.yul\":20321:20330   */\n      dup4\n        /* \"#utility.yul\":20317:20334   */\n      add\n        /* \"#utility.yul\":20310:20357   */\n      mstore\n        /* \"#utility.yul\":20374:20505   */\n      tag_621\n        /* \"#utility.yul\":20500:20504   */\n      dup2\n        /* \"#utility.yul\":20374:20505   */\n      tag_544\n      jump\t// in\n    tag_621:\n        /* \"#utility.yul\":20366:20505   */\n      swap1\n      pop\n        /* \"#utility.yul\":20093:20512   */\n      swap2\n      swap1\n      pop\n      jump\t// out\n        /* \"#utility.yul\":20518:20937   */\n    tag_248:\n        /* \"#utility.yul\":20684:20688   */\n      0x00\n        /* \"#utility.yul\":20722:20724   */\n      0x20\n        /* \"#utility.yul\":20711:20720   */\n      dup3\n        /* \"#utility.yul\":20707:20725   */\n      add\n        /* \"#utility.yul\":20699:20725   */\n      swap1\n      pop\n        /* \"#utility.yul\":20771:20780   */\n      dup2\n        /* \"#utility.yul\":20765:20769   */\n      dup2\n        /* \"#utility.yul\":20761:20781   */\n      sub\n        /* \"#utility.yul\":20757:20758   */\n      0x00\n        /* \"#utility.yul\":20746:20755   */\n      dup4\n        /* \"#utility.yul\":20742:20759   */\n      add\n        /* \"#utility.yul\":20735:20782   */\n      mstore\n        /* \"#utility.yul\":20799:20930   */\n      tag_623\n        /* \"#utility.yul\":20925:20929   */\n      dup2\n        /* \"#utility.yul\":20799:20930   */\n      tag_549\n      jump\t// in\n    tag_623:\n        /* \"#utility.yul\":20791:20930   */\n      swap1\n      pop\n        /* \"#utility.yul\":20518:20937   */\n      swap2\n      swap1\n      pop\n      jump\t// out\n        /* \"#utility.yul\":20943:21362   */\n    tag_233:\n        /* \"#utility.yul\":21109:21113   */\n      0x00\n        /* \"#utility.yul\":21147:21149   */\n      0x20\n        /* \"#utility.yul\":21136:21145   */\n      dup3\n        /* \"#utility.yul\":21132:21150   */\n      add\n        /* \"#utility.yul\":21124:21150   */\n      swap1\n      pop\n        /* \"#utility.yul\":21196:21205   */\n      dup2\n        /* \"#utility.yul\":21190:21194   */\n      dup2\n        /* \"#utility.yul\":21186:21206   */\n      sub\n        /* \"#utility.yul\":21182:21183   */\n      0x00\n        /* \"#utility.yul\":21171:21180   */\n      dup4\n        /* \"#utility.yul\":21167:21184   */\n      add\n        /* \"#utility.yul\":21160:21207   */\n      mstore\n        /* \"#utility.yul\":21224:21355   */\n      tag_625\n        /* \"#utility.yul\":21350:21354   */\n      dup2\n        /* \"#utility.yul\":21224:21355   */\n      tag_554\n      jump\t// in\n    tag_625:\n        /* \"#utility.yul\":21216:21355   */\n      swap1\n      pop\n        /* \"#utility.yul\":20943:21362   */\n      swap2\n      swap1\n      pop\n      jump\t// out\n        /* \"#utility.yul\":21368:21787   */\n    tag_300:\n        /* \"#utility.yul\":21534:21538   */\n      0x00\n        /* \"#utility.yul\":21572:21574   */\n      0x20\n        /* \"#utility.yul\":21561:21570   */\n      dup3\n        /* \"#utility.yul\":21557:21575   */\n      add\n        /* \"#utility.yul\":21549:21575   */\n      swap1\n      pop\n        /* \"#utility.yul\":21621:21630   */\n      dup2\n        /* \"#utility.yul\":21615:21619   */\n      dup2\n        /* \"#utility.yul\":21611:21631   */\n      sub\n        /* \"#utility.yul\":21607:21608   */\n      0x00\n        /* \"#utility.yul\":21596:21605   */\n      dup4\n        /* \"#utility.yul\":21592:21609   */\n      add\n        /* \"#utility.yul\":21585:21632   */\n      mstore\n        /* \"#utility.yul\":21649:21780   */\n      tag_627\n        /* \"#utility.yul\":21775:21779   */\n      dup2\n        /* \"#utility.yul\":21649:21780   */\n      tag_559\n      jump\t// in\n    tag_627:\n        /* \"#utility.yul\":21641:21780   */\n      swap1\n      pop\n        /* \"#utility.yul\":21368:21787   */\n      swap2\n      swap1\n      pop\n      jump\t// out\n        /* \"#utility.yul\":21793:22212   */\n    tag_189:\n        /* \"#utility.yul\":21959:21963   */\n      0x00\n        /* \"#utility.yul\":21997:21999   */\n      0x20\n        /* \"#utility.yul\":21986:21995   */\n      dup3\n        /* \"#utility.yul\":21982:22000   */\n      add\n        /* \"#utility.yul\":21974:22000   */\n      swap1\n      pop\n        /* \"#utility.yul\":22046:22055   */\n      dup2\n        /* \"#utility.yul\":22040:22044   */\n      dup2\n        /* \"#utility.yul\":22036:22056   */\n      sub\n        /* \"#utility.yul\":22032:22033   */\n      0x00\n        /* \"#utility.yul\":22021:22030   */\n      dup4\n        /* \"#utility.yul\":22017:22034   */\n      add\n        /* \"#utility.yul\":22010:22057   */\n      mstore\n        /* \"#utility.yul\":22074:22205   */\n      tag_629\n        /* \"#utility.yul\":22200:22204   */\n      dup2\n        /* \"#utility.yul\":22074:22205   */\n      tag_564\n      jump\t// in\n    tag_629:\n        /* \"#utility.yul\":22066:22205   */\n      swap1\n      pop\n        /* \"#utility.yul\":21793:22212   */\n      swap2\n      swap1\n      pop\n      jump\t// out\n        /* \"#utility.yul\":22218:22637   */\n    tag_317:\n        /* \"#utility.yul\":22384:22388   */\n      0x00\n        /* \"#utility.yul\":22422:22424   */\n      0x20\n        /* \"#utility.yul\":22411:22420   */\n      dup3\n        /* \"#utility.yul\":22407:22425   */\n      add\n        /* \"#utility.yul\":22399:22425   */\n      swap1\n      pop\n        /* \"#utility.yul\":22471:22480   */\n      dup2\n        /* \"#utility.yul\":22465:22469   */\n      dup2\n        /* \"#utility.yul\":22461:22481   */\n      sub\n        /* \"#utility.yul\":22457:22458   */\n      0x00\n        /* \"#utility.yul\":22446:22455   */\n      dup4\n        /* \"#utility.yul\":22442:22459   */\n      add\n        /* \"#utility.yul\":22435:22482   */\n      mstore\n        /* \"#utility.yul\":22499:22630   */\n      tag_631\n        /* \"#utility.yul\":22625:22629   */\n      dup2\n        /* \"#utility.yul\":22499:22630   */\n      tag_569\n      jump\t// in\n    tag_631:\n        /* \"#utility.yul\":22491:22630   */\n      swap1\n      pop\n        /* \"#utility.yul\":22218:22637   */\n      swap2\n      swap1\n      pop\n      jump\t// out\n        /* \"#utility.yul\":22643:22865   */\n    tag_39:\n        /* \"#utility.yul\":22736:22740   */\n      0x00\n        /* \"#utility.yul\":22774:22776   */\n      0x20\n        /* \"#utility.yul\":22763:22772   */\n      dup3\n        /* \"#utility.yul\":22759:22777   */\n      add\n        /* \"#utility.yul\":22751:22777   */\n      swap1\n      pop\n        /* \"#utility.yul\":22787:22858   */\n      tag_633\n        /* \"#utility.yul\":22855:22856   */\n      0x00\n        /* \"#utility.yul\":22844:22853   */\n      dup4\n        /* \"#utility.yul\":22840:22857   */\n      add\n        /* \"#utility.yul\":22831:22837   */\n      dup5\n        /* \"#utility.yul\":22787:22858   */\n      tag_574\n      jump\t// in\n    tag_633:\n        /* \"#utility.yul\":22643:22865   */\n      swap3\n      swap2\n      pop\n      pop\n      jump\t// out\n        /* \"#utility.yul\":22871:23085   */\n    tag_50:\n        /* \"#utility.yul\":22960:22964   */\n      0x00\n        /* \"#utility.yul\":22998:23000   */\n      0x20\n        /* \"#utility.yul\":22987:22996   */\n      dup3\n        /* \"#utility.yul\":22983:23001   */\n      add\n        /* \"#utility.yul\":22975:23001   */\n      swap1\n      pop\n        /* \"#utility.yul\":23011:23078   */\n      tag_635\n        /* \"#utility.yul\":23075:23076   */\n      0x00\n        /* \"#utility.yul\":23064:23073   */\n      dup4\n        /* \"#utility.yul\":23060:23077   */\n      add\n        /* \"#utility.yul\":23051:23057   */\n      dup5\n        /* \"#utility.yul\":23011:23078   */\n      tag_578\n      jump\t// in\n    tag_635:\n        /* \"#utility.yul\":22871:23085   */\n      swap3\n      swap2\n      pop\n      pop\n      jump\t// out\n        /* \"#utility.yul\":23091:23220   */\n    tag_385:\n        /* \"#utility.yul\":23125:23131   */\n      0x00\n        /* \"#utility.yul\":23152:23172   */\n      tag_637\n      tag_638\n      jump\t// in\n    tag_637:\n        /* \"#utility.yul\":23142:23172   */\n      swap1\n      pop\n        /* \"#utility.yul\":23181:23214   */\n      tag_639\n        /* \"#utility.yul\":23209:23213   */\n      dup3\n        /* \"#utility.yul\":23201:23207   */\n      dup3\n        /* \"#utility.yul\":23181:23214   */\n      tag_640\n      jump\t// in\n    tag_639:\n        /* \"#utility.yul\":23091:23220   */\n      swap2\n      swap1\n      pop\n      jump\t// out\n        /* \"#utility.yul\":23226:23301   */\n    tag_638:\n        /* \"#utility.yul\":23259:23265   */\n      0x00\n        /* \"#utility.yul\":23292:23294   */\n      0x40\n        /* \"#utility.yul\":23286:23295   */\n      mload\n        /* \"#utility.yul\":23276:23295   */\n      swap1\n      pop\n        /* \"#utility.yul\":23226:23301   */\n      swap1\n      jump\t// out\n        /* \"#utility.yul\":23307:23614   */\n    tag_384:\n        /* \"#utility.yul\":23368:23372   */\n      0x00\n        /* \"#utility.yul\":23458:23476   */\n      0xffffffffffffffff\n        /* \"#utility.yul\":23450:23456   */\n      dup3\n        /* \"#utility.yul\":23447:23477   */\n      gt\n        /* \"#utility.yul\":23444:23500   */\n      iszero\n      tag_643\n      jumpi\n        /* \"#utility.yul\":23480:23498   */\n      tag_644\n      tag_147\n      jump\t// in\n    tag_644:\n        /* \"#utility.yul\":23444:23500   */\n    tag_643:\n        /* \"#utility.yul\":23518:23547   */\n      tag_645\n        /* \"#utility.yul\":23540:23546   */\n      dup3\n        /* \"#utility.yul\":23518:23547   */\n      tag_478\n      jump\t// in\n    tag_645:\n        /* \"#utility.yul\":23510:23547   */\n      swap1\n      pop\n        /* \"#utility.yul\":23602:23606   */\n      0x20\n        /* \"#utility.yul\":23596:23600   */\n      dup2\n        /* \"#utility.yul\":23592:23607   */\n      add\n        /* \"#utility.yul\":23584:23607   */\n      swap1\n      pop\n        /* \"#utility.yul\":23307:23614   */\n      swap2\n      swap1\n      pop\n      jump\t// out\n        /* \"#utility.yul\":23620:23718   */\n    tag_461:\n        /* \"#utility.yul\":23671:23677   */\n      0x00\n        /* \"#utility.yul\":23705:23710   */\n      dup2\n        /* \"#utility.yul\":23699:23711   */\n      mload\n        /* \"#utility.yul\":23689:23711   */\n      swap1\n      pop\n        /* \"#utility.yul\":23620:23718   */\n      swap2\n      swap1\n      pop\n      jump\t// out\n        /* \"#utility.yul\":23724:23823   */\n    tag_473:\n        /* \"#utility.yul\":23776:23782   */\n      0x00\n        /* \"#utility.yul\":23810:23815   */\n      dup2\n        /* \"#utility.yul\":23804:23816   */\n      mload\n        /* \"#utility.yul\":23794:23816   */\n      swap1\n      pop\n        /* \"#utility.yul\":23724:23823   */\n      swap2\n      swap1\n      pop\n      jump\t// out\n        /* \"#utility.yul\":23829:23976   */\n    tag_463:\n        /* \"#utility.yul\":23930:23941   */\n      0x00\n        /* \"#utility.yul\":23967:23970   */\n      dup2\n        /* \"#utility.yul\":23952:23970   */\n      swap1\n      pop\n        /* \"#utility.yul\":23829:23976   */\n      swap3\n      swap2\n      pop\n      pop\n      jump\t// out\n        /* \"#utility.yul\":23982:24151   */\n    tag_475:\n        /* \"#utility.yul\":24066:24077   */\n      0x00\n        /* \"#utility.yul\":24100:24106   */\n      dup3\n        /* \"#utility.yul\":24095:24098   */\n      dup3\n        /* \"#utility.yul\":24088:24107   */\n      mstore\n        /* \"#utility.yul\":24140:24144   */\n      0x20\n        /* \"#utility.yul\":24135:24138   */\n      dup3\n        /* \"#utility.yul\":24131:24145   */\n      add\n        /* \"#utility.yul\":24116:24145   */\n      swap1\n      pop\n        /* \"#utility.yul\":23982:24151   */\n      swap3\n      swap2\n      pop\n      pop\n      jump\t// out\n        /* \"#utility.yul\":24157:24462   */\n    tag_155:\n        /* \"#utility.yul\":24197:24200   */\n      0x00\n        /* \"#utility.yul\":24216:24236   */\n      tag_651\n        /* \"#utility.yul\":24234:24235   */\n      dup3\n        /* \"#utility.yul\":24216:24236   */\n      tag_577\n      jump\t// in\n    tag_651:\n        /* \"#utility.yul\":24211:24236   */\n      swap2\n      pop\n        /* \"#utility.yul\":24250:24270   */\n      tag_652\n        /* \"#utility.yul\":24268:24269   */\n      dup4\n        /* \"#utility.yul\":24250:24270   */\n      tag_577\n      jump\t// in\n    tag_652:\n        /* \"#utility.yul\":24245:24270   */\n      swap3\n      pop\n        /* \"#utility.yul\":24404:24405   */\n      dup3\n        /* \"#utility.yul\":24336:24402   */\n      0xffffffffffffffffffffffffffffffffffffffffffffffffffffffffffffffff\n        /* \"#utility.yul\":24332:24406   */\n      sub\n        /* \"#utility.yul\":24329:24330   */\n      dup3\n        /* \"#utility.yul\":24326:24407   */\n      gt\n        /* \"#utility.yul\":24323:24430   */\n      iszero\n      tag_653\n      jumpi\n        /* \"#utility.yul\":24410:24428   */\n      tag_654\n      tag_655\n      jump\t// in\n    tag_654:\n        /* \"#utility.yul\":24323:24430   */\n    tag_653:\n        /* \"#utility.yul\":24454:24455   */\n      dup3\n        /* \"#utility.yul\":24451:24452   */\n      dup3\n        /* \"#utility.yul\":24447:24456   */\n      add\n        /* \"#utility.yul\":24440:24456   */\n      swap1\n      pop\n        /* \"#utility.yul\":24157:24462   */\n      swap3\n      swap2\n      pop\n      pop\n      jump\t// out\n        /* \"#utility.yul\":24468:25316   */\n    tag_656:\n        /* \"#utility.yul\":24529:24534   */\n      0x00\n        /* \"#utility.yul\":24536:24540   */\n      dup1\n        /* \"#utility.yul\":24560:24566   */\n      dup3\n        /* \"#utility.yul\":24551:24566   */\n      swap2\n      pop\n        /* \"#utility.yul\":24584:24589   */\n      dup4\n        /* \"#utility.yul\":24575:24589   */\n      swap1\n      pop\n        /* \"#utility.yul\":24598:25310   */\n    tag_658:\n        /* \"#utility.yul\":24619:24620   */\n      0x01\n        /* \"#utility.yul\":24609:24617   */\n      dup6\n        /* \"#utility.yul\":24606:24621   */\n      gt\n        /* \"#utility.yul\":24598:25310   */\n      iszero\n      tag_660\n      jumpi\n        /* \"#utility.yul\":24714:24718   */\n      dup1\n        /* \"#utility.yul\":24709:24712   */\n      dup7\n        /* \"#utility.yul\":24705:24719   */\n      div\n        /* \"#utility.yul\":24699:24703   */\n      dup2\n        /* \"#utility.yul\":24696:24720   */\n      gt\n        /* \"#utility.yul\":24693:24743   */\n      iszero\n      tag_661\n      jumpi\n        /* \"#utility.yul\":24723:24741   */\n      tag_662\n      tag_655\n      jump\t// in\n    tag_662:\n        /* \"#utility.yul\":24693:24743   */\n    tag_661:\n        /* \"#utility.yul\":24773:24774   */\n      0x01\n        /* \"#utility.yul\":24763:24771   */\n      dup6\n        /* \"#utility.yul\":24759:24775   */\n      and\n        /* \"#utility.yul\":24756:25207   */\n      iszero\n      tag_663\n      jumpi\n        /* \"#utility.yul\":25188:25192   */\n      dup1\n        /* \"#utility.yul\":25181:25186   */\n      dup3\n        /* \"#utility.yul\":25177:25193   */\n      mul\n        /* \"#utility.yul\":25168:25193   */\n      swap2\n      pop\n        /* \"#utility.yul\":24756:25207   */\n    tag_663:\n        /* \"#utility.yul\":25238:25242   */\n      dup1\n        /* \"#utility.yul\":25232:25236   */\n      dup2\n        /* \"#utility.yul\":25228:25243   */\n      mul\n        /* \"#utility.yul\":25220:25243   */\n      swap1\n      pop\n        /* \"#utility.yul\":25268:25300   */\n      tag_664\n        /* \"#utility.yul\":25291:25299   */\n      dup6\n        /* \"#utility.yul\":25268:25300   */\n      tag_665\n      jump\t// in\n    tag_664:\n        /* \"#utility.yul\":25256:25300   */\n      swap5\n      pop\n        /* \"#utility.yul\":24598:25310   */\n      jump(tag_658)\n    tag_660:\n        /* \"#utility.yul\":24468:25316   */\n      swap5\n      pop\n      swap5\n      swap3\n      pop\n      pop\n      pop\n      jump\t// out\n        /* \"#utility.yul\":25322:25603   */\n    tag_222:\n        /* \"#utility.yul\":25380:25385   */\n      0x00\n        /* \"#utility.yul\":25404:25427   */\n      tag_667\n        /* \"#utility.yul\":25422:25426   */\n      dup3\n        /* \"#utility.yul\":25404:25427   */\n      tag_577\n      jump\t// in\n    tag_667:\n        /* \"#utility.yul\":25396:25427   */\n      swap2\n      pop\n        /* \"#utility.yul\":25448:25473   */\n      tag_668\n        /* \"#utility.yul\":25464:25472   */\n      dup4\n        /* \"#utility.yul\":25448:25473   */\n      tag_581\n      jump\t// in\n    tag_668:\n        /* \"#utility.yul\":25436:25473   */\n      swap3\n      pop\n        /* \"#utility.yul\":25492:25596   */\n      tag_669\n        /* \"#utility.yul\":25529:25595   */\n      0xffffffffffffffffffffffffffffffffffffffffffffffffffffffffffffffff\n        /* \"#utility.yul\":25519:25527   */\n      dup5\n        /* \"#utility.yul\":25513:25517   */\n      dup5\n        /* \"#utility.yul\":25492:25596   */\n      tag_670\n      jump\t// in\n    tag_669:\n        /* \"#utility.yul\":25483:25596   */\n      swap1\n      pop\n        /* \"#utility.yul\":25322:25603   */\n      swap3\n      swap2\n      pop\n      pop\n      jump\t// out\n        /* \"#utility.yul\":25609:26682   */\n    tag_670:\n        /* \"#utility.yul\":25663:25668   */\n      0x00\n        /* \"#utility.yul\":25854:25862   */\n      dup3\n        /* \"#utility.yul\":25844:25884   */\n      tag_672\n      jumpi\n        /* \"#utility.yul\":25875:25876   */\n      0x01\n        /* \"#utility.yul\":25866:25876   */\n      swap1\n      pop\n        /* \"#utility.yul\":25877:25882   */\n      jump(tag_671)\n        /* \"#utility.yul\":25844:25884   */\n    tag_672:\n        /* \"#utility.yul\":25903:25907   */\n      dup2\n        /* \"#utility.yul\":25893:25929   */\n      tag_673\n      jumpi\n        /* \"#utility.yul\":25920:25921   */\n      0x00\n        /* \"#utility.yul\":25911:25921   */\n      swap1\n      pop\n        /* \"#utility.yul\":25922:25927   */\n      jump(tag_671)\n        /* \"#utility.yul\":25893:25929   */\n    tag_673:\n        /* \"#utility.yul\":25989:25993   */\n      dup2\n        /* \"#utility.yul\":26037:26038   */\n      0x01\n        /* \"#utility.yul\":26032:26059   */\n      dup2\n      eq\n      tag_675\n      jumpi\n        /* \"#utility.yul\":26073:26074   */\n      0x02\n        /* \"#utility.yul\":26068:26259   */\n      dup2\n      eq\n      tag_676\n      jumpi\n        /* \"#utility.yul\":25982:26259   */\n      jump(tag_674)\n        /* \"#utility.yul\":26032:26059   */\n    tag_675:\n        /* \"#utility.yul\":26050:26051   */\n      0x01\n        /* \"#utility.yul\":26041:26051   */\n      swap2\n      pop\n        /* \"#utility.yul\":26052:26057   */\n      pop\n      jump(tag_671)\n        /* \"#utility.yul\":26068:26259   */\n    tag_676:\n        /* \"#utility.yul\":26113:26116   */\n      0xff\n        /* \"#utility.yul\":26103:26111   */\n      dup5\n        /* \"#utility.yul\":26100:26117   */\n      gt\n        /* \"#utility.yul\":26097:26140   */\n      iszero\n      tag_677\n      jumpi\n        /* \"#utility.yul\":26120:26138   */\n      tag_678\n      tag_655\n      jump\t// in\n    tag_678:\n        /* \"#utility.yul\":26097:26140   */\n    tag_677:\n        /* \"#utility.yul\":26169:26177   */\n      dup4\n        /* \"#utility.yul\":26166:26167   */\n      0x02\n        /* \"#utility.yul\":26162:26178   */\n      exp\n        /* \"#utility.yul\":26153:26178   */\n      swap2\n      pop\n        /* \"#utility.yul\":26204:26207   */\n      dup5\n        /* \"#utility.yul\":26197:26202   */\n      dup3\n        /* \"#utility.yul\":26194:26208   */\n      gt\n        /* \"#utility.yul\":26191:26231   */\n      iszero\n      tag_679\n      jumpi\n        /* \"#utility.yul\":26211:26229   */\n      tag_680\n      tag_655\n      jump\t// in\n    tag_680:\n        /* \"#utility.yul\":26191:26231   */\n    tag_679:\n        /* \"#utility.yul\":26244:26249   */\n      pop\n      jump(tag_671)\n        /* \"#utility.yul\":25982:26259   */\n    tag_674:\n      pop\n        /* \"#utility.yul\":26368:26370   */\n      0x20\n        /* \"#utility.yul\":26358:26366   */\n      dup4\n        /* \"#utility.yul\":26355:26371   */\n      lt\n        /* \"#utility.yul\":26349:26352   */\n      0x0133\n        /* \"#utility.yul\":26343:26347   */\n      dup4\n        /* \"#utility.yul\":26340:26353   */\n      lt\n        /* \"#utility.yul\":26336:26372   */\n      and\n        /* \"#utility.yul\":26318:26320   */\n      0x4e\n        /* \"#utility.yul\":26308:26316   */\n      dup5\n        /* \"#utility.yul\":26305:26321   */\n      lt\n        /* \"#utility.yul\":26300:26302   */\n      0x0b\n        /* \"#utility.yul\":26294:26298   */\n      dup5\n        /* \"#utility.yul\":26291:26303   */\n      lt\n        /* \"#utility.yul\":26287:26322   */\n      and\n        /* \"#utility.yul\":26271:26382   */\n      or\n        /* \"#utility.yul\":26268:26514   */\n      iszero\n      tag_681\n      jumpi\n        /* \"#utility.yul\":26424:26432   */\n      dup3\n        /* \"#utility.yul\":26418:26422   */\n      dup3\n        /* \"#utility.yul\":26414:26433   */\n      exp\n        /* \"#utility.yul\":26405:26433   */\n      swap1\n      pop\n        /* \"#utility.yul\":26459:26462   */\n      dup4\n        /* \"#utility.yul\":26452:26457   */\n      dup2\n        /* \"#utility.yul\":26449:26463   */\n      gt\n        /* \"#utility.yul\":26446:26486   */\n      iszero\n      tag_682\n      jumpi\n        /* \"#utility.yul\":26466:26484   */\n      tag_683\n      tag_655\n      jump\t// in\n    tag_683:\n        /* \"#utility.yul\":26446:26486   */\n    tag_682:\n        /* \"#utility.yul\":26499:26504   */\n      jump(tag_671)\n        /* \"#utility.yul\":26268:26514   */\n    tag_681:\n        /* \"#utility.yul\":26539:26581   */\n      tag_684\n        /* \"#utility.yul\":26577:26580   */\n      dup5\n        /* \"#utility.yul\":26567:26575   */\n      dup5\n        /* \"#utility.yul\":26561:26565   */\n      dup5\n        /* \"#utility.yul\":26558:26559   */\n      0x01\n        /* \"#utility.yul\":26539:26581   */\n      tag_656\n      jump\t// in\n    tag_684:\n        /* \"#utility.yul\":26524:26581   */\n      swap3\n      pop\n      swap1\n      pop\n        /* \"#utility.yul\":26613:26617   */\n      dup2\n        /* \"#utility.yul\":26608:26611   */\n      dup5\n        /* \"#utility.yul\":26604:26618   */\n      div\n        /* \"#utility.yul\":26597:26602   */\n      dup2\n        /* \"#utility.yul\":26594:26619   */\n      gt\n        /* \"#utility.yul\":26591:26642   */\n      iszero\n      tag_685\n      jumpi\n        /* \"#utility.yul\":26622:26640   */\n      tag_686\n      tag_655\n      jump\t// in\n    tag_686:\n        /* \"#utility.yul\":26591:26642   */\n    tag_685:\n        /* \"#utility.yul\":26671:26675   */\n      dup2\n        /* \"#utility.yul\":26664:26669   */\n      dup2\n        /* \"#utility.yul\":26660:26676   */\n      mul\n        /* \"#utility.yul\":26651:26676   */\n      swap1\n      pop\n        /* \"#utility.yul\":25609:26682   */\n    tag_671:\n      swap4\n      swap3\n      pop\n      pop\n      pop\n      jump\t// out\n        /* \"#utility.yul\":26688:27036   */\n    tag_224:\n        /* \"#utility.yul\":26728:26735   */\n      0x00\n        /* \"#utility.yul\":26751:26771   */\n      tag_688\n        /* \"#utility.yul\":26769:26770   */\n      dup3\n        /* \"#utility.yul\":26751:26771   */\n      tag_577\n      jump\t// in\n    tag_688:\n        /* \"#utility.yul\":26746:26771   */\n      swap2\n      pop\n        /* \"#utility.yul\":26785:26805   */\n      tag_689\n        /* \"#utility.yul\":26803:26804   */\n      dup4\n        /* \"#utility.yul\":26785:26805   */\n      tag_577\n      jump\t// in\n    tag_689:\n        /* \"#utility.yul\":26780:26805   */\n      swap3\n      pop\n        /* \"#utility.yul\":26973:26974   */\n      dup2\n        /* \"#utility.yul\":26905:26971   */\n      0xffffffffffffffffffffffffffffffffffffffffffffffffffffffffffffffff\n        /* \"#utility.yul\":26901:26975   */\n      div\n        /* \"#utility.yul\":26898:26899   */\n      dup4\n        /* \"#utility.yul\":26895:26976   */\n      gt\n        /* \"#utility.yul\":26890:26891   */\n      dup3\n        /* \"#utility.yul\":26883:26892   */\n      iszero\n        /* \"#utility.yul\":26876:26893   */\n      iszero\n        /* \"#utility.yul\":26872:26977   */\n      and\n        /* \"#utility.yul\":26869:27000   */\n      iszero\n      tag_690\n      jumpi\n        /* \"#utility.yul\":26980:26998   */\n      tag_691\n      tag_655\n      jump\t// in\n    tag_691:\n        /* \"#utility.yul\":26869:27000   */\n    tag_690:\n        /* \"#utility.yul\":27028:27029   */\n      dup3\n        /* \"#utility.yul\":27025:27026   */\n      dup3\n        /* \"#utility.yul\":27021:27030   */\n      mul\n        /* \"#utility.yul\":27010:27030   */\n      swap1\n      pop\n        /* \"#utility.yul\":26688:27036   */\n      swap3\n      swap2\n      pop\n      pop\n      jump\t// out\n        /* \"#utility.yul\":27042:27138   */\n    tag_449:\n        /* \"#utility.yul\":27079:27086   */\n      0x00\n        /* \"#utility.yul\":27108:27132   */\n      tag_693\n        /* \"#utility.yul\":27126:27131   */\n      dup3\n        /* \"#utility.yul\":27108:27132   */\n      tag_694\n      jump\t// in\n    tag_693:\n        /* \"#utility.yul\":27097:27132   */\n      swap1\n      pop\n        /* \"#utility.yul\":27042:27138   */\n      swap2\n      swap1\n      pop\n      jump\t// out\n        /* \"#utility.yul\":27144:27234   */\n    tag_453:\n        /* \"#utility.yul\":27178:27185   */\n      0x00\n        /* \"#utility.yul\":27221:27226   */\n      dup2\n        /* \"#utility.yul\":27214:27227   */\n      iszero\n        /* \"#utility.yul\":27207:27228   */\n      iszero\n        /* \"#utility.yul\":27196:27228   */\n      swap1\n      pop\n        /* \"#utility.yul\":27144:27234   */\n      swap2\n      swap1\n      pop\n      jump\t// out\n        /* \"#utility.yul\":27240:27317   */\n    tag_457:\n        /* \"#utility.yul\":27277:27284   */\n      0x00\n        /* \"#utility.yul\":27306:27311   */\n      dup2\n        /* \"#utility.yul\":27295:27311   */\n      swap1\n      pop\n        /* \"#utility.yul\":27240:27317   */\n      swap2\n      swap1\n      pop\n      jump\t// out\n        /* \"#utility.yul\":27323:27449   */\n    tag_694:\n        /* \"#utility.yul\":27360:27367   */\n      0x00\n        /* \"#utility.yul\":27400:27442   */\n      0xffffffffffffffffffffffffffffffffffffffff\n        /* \"#utility.yul\":27393:27398   */\n      dup3\n        /* \"#utility.yul\":27389:27443   */\n      and\n        /* \"#utility.yul\":27378:27443   */\n      swap1\n      pop\n        /* \"#utility.yul\":27323:27449   */\n      swap2\n      swap1\n      pop\n      jump\t// out\n        /* \"#utility.yul\":27455:27532   */\n    tag_577:\n        /* \"#utility.yul\":27492:27499   */\n      0x00\n        /* \"#utility.yul\":27521:27526   */\n      dup2\n        /* \"#utility.yul\":27510:27526   */\n      swap1\n      pop\n        /* \"#utility.yul\":27455:27532   */\n      swap2\n      swap1\n      pop\n      jump\t// out\n        /* \"#utility.yul\":27538:27624   */\n    tag_581:\n        /* \"#utility.yul\":27573:27580   */\n      0x00\n        /* \"#utility.yul\":27613:27617   */\n      0xff\n        /* \"#utility.yul\":27606:27611   */\n      dup3\n        /* \"#utility.yul\":27602:27618   */\n      and\n        /* \"#utility.yul\":27591:27618   */\n      swap1\n      pop\n        /* \"#utility.yul\":27538:27624   */\n      swap2\n      swap1\n      pop\n      jump\t// out\n        /* \"#utility.yul\":27630:27747   */\n    tag_469:\n        /* \"#utility.yul\":27686:27695   */\n      0x00\n        /* \"#utility.yul\":27719:27741   */\n      tag_701\n        /* \"#utility.yul\":27735:27740   */\n      dup3\n        /* \"#utility.yul\":27719:27741   */\n      tag_581\n      jump\t// in\n    tag_701:\n        /* \"#utility.yul\":27706:27741   */\n      swap1\n      pop\n        /* \"#utility.yul\":27630:27747   */\n      swap2\n      swap1\n      pop\n      jump\t// out\n        /* \"#utility.yul\":27753:27907   */\n    tag_390:\n        /* \"#utility.yul\":27837:27843   */\n      dup3\n        /* \"#utility.yul\":27832:27835   */\n      dup2\n        /* \"#utility.yul\":27827:27830   */\n      dup4\n        /* \"#utility.yul\":27814:27844   */\n      calldatacopy\n        /* \"#utility.yul\":27899:27900   */\n      0x00\n        /* \"#utility.yul\":27890:27896   */\n      dup4\n        /* \"#utility.yul\":27885:27888   */\n      dup4\n        /* \"#utility.yul\":27881:27897   */\n      add\n        /* \"#utility.yul\":27874:27901   */\n      mstore\n        /* \"#utility.yul\":27753:27907   */\n      pop\n      pop\n      pop\n      jump\t// out\n        /* \"#utility.yul\":27913:28220   */\n    tag_465:\n        /* \"#utility.yul\":27981:27982   */\n      0x00\n        /* \"#utility.yul\":27991:28104   */\n    tag_704:\n        /* \"#utility.yul\":28005:28011   */\n      dup4\n        /* \"#utility.yul\":28002:28003   */\n      dup2\n        /* \"#utility.yul\":27999:28012   */\n      lt\n        /* \"#utility.yul\":27991:28104   */\n      iszero\n      tag_706\n      jumpi\n        /* \"#utility.yul\":28090:28091   */\n      dup1\n        /* \"#utility.yul\":28085:28088   */\n      dup3\n        /* \"#utility.yul\":28081:28092   */\n      add\n        /* \"#utility.yul\":28075:28093   */\n      mload\n        /* \"#utility.yul\":28071:28072   */\n      dup2\n        /* \"#utility.yul\":28066:28069   */\n      dup5\n        /* \"#utility.yul\":28062:28073   */\n      add\n        /* \"#utility.yul\":28055:28094   */\n      mstore\n        /* \"#utility.yul\":28027:28029   */\n      0x20\n        /* \"#utility.yul\":28024:28025   */\n      dup2\n        /* \"#utility.yul\":28020:28030   */\n      add\n        /* \"#utility.yul\":28015:28030   */\n      swap1\n      pop\n        /* \"#utility.yul\":27991:28104   */\n      jump(tag_704)\n    tag_706:\n        /* \"#utility.yul\":28122:28128   */\n      dup4\n        /* \"#utility.yul\":28119:28120   */\n      dup2\n        /* \"#utility.yul\":28116:28129   */\n      gt\n        /* \"#utility.yul\":28113:28214   */\n      iszero\n      tag_707\n      jumpi\n        /* \"#utility.yul\":28202:28203   */\n      0x00\n        /* \"#utility.yul\":28193:28199   */\n      dup5\n        /* \"#utility.yul\":28188:28191   */\n      dup5\n        /* \"#utility.yul\":28184:28200   */\n      add\n        /* \"#utility.yul\":28177:28204   */\n      mstore\n        /* \"#utility.yul\":28113:28214   */\n    tag_707:\n        /* \"#utility.yul\":27962:28220   */\n      pop\n        /* \"#utility.yul\":27913:28220   */\n      pop\n      pop\n      pop\n      jump\t// out\n        /* \"#utility.yul\":28226:28546   */\n    tag_114:\n        /* \"#utility.yul\":28270:28276   */\n      0x00\n        /* \"#utility.yul\":28307:28308   */\n      0x02\n        /* \"#utility.yul\":28301:28305   */\n      dup3\n        /* \"#utility.yul\":28297:28309   */\n      div\n        /* \"#utility.yul\":28287:28309   */\n      swap1\n      pop\n        /* \"#utility.yul\":28354:28355   */\n      0x01\n        /* \"#utility.yul\":28348:28352   */\n      dup3\n        /* \"#utility.yul\":28344:28356   */\n      and\n        /* \"#utility.yul\":28375:28393   */\n      dup1\n        /* \"#utility.yul\":28365:28446   */\n      tag_709\n      jumpi\n        /* \"#utility.yul\":28431:28435   */\n      0x7f\n        /* \"#utility.yul\":28423:28429   */\n      dup3\n        /* \"#utility.yul\":28419:28436   */\n      and\n        /* \"#utility.yul\":28409:28436   */\n      swap2\n      pop\n        /* \"#utility.yul\":28365:28446   */\n    tag_709:\n        /* \"#utility.yul\":28493:28495   */\n      0x20\n        /* \"#utility.yul\":28485:28491   */\n      dup3\n        /* \"#utility.yul\":28482:28496   */\n      lt\n        /* \"#utility.yul\":28462:28480   */\n      dup2\n        /* \"#utility.yul\":28459:28497   */\n      eq\n        /* \"#utility.yul\":28456:28540   */\n      iszero\n      tag_710\n      jumpi\n        /* \"#utility.yul\":28512:28530   */\n      tag_711\n      tag_712\n      jump\t// in\n    tag_711:\n        /* \"#utility.yul\":28456:28540   */\n    tag_710:\n        /* \"#utility.yul\":28277:28546   */\n      pop\n        /* \"#utility.yul\":28226:28546   */\n      swap2\n      swap1\n      pop\n      jump\t// out\n        /* \"#utility.yul\":28552:28833   */\n    tag_640:\n        /* \"#utility.yul\":28635:28662   */\n      tag_714\n        /* \"#utility.yul\":28657:28661   */\n      dup3\n        /* \"#utility.yul\":28635:28662   */\n      tag_478\n      jump\t// in\n    tag_714:\n        /* \"#utility.yul\":28627:28633   */\n      dup2\n        /* \"#utility.yul\":28623:28663   */\n      add\n        /* \"#utility.yul\":28765:28771   */\n      dup2\n        /* \"#utility.yul\":28753:28763   */\n      dup2\n        /* \"#utility.yul\":28750:28772   */\n      lt\n        /* \"#utility.yul\":28729:28747   */\n      0xffffffffffffffff\n        /* \"#utility.yul\":28717:28727   */\n      dup3\n        /* \"#utility.yul\":28714:28748   */\n      gt\n        /* \"#utility.yul\":28711:28773   */\n      or\n        /* \"#utility.yul\":28708:28796   */\n      iszero\n      tag_715\n      jumpi\n        /* \"#utility.yul\":28776:28794   */\n      tag_716\n      tag_147\n      jump\t// in\n    tag_716:\n        /* \"#utility.yul\":28708:28796   */\n    tag_715:\n        /* \"#utility.yul\":28816:28826   */\n      dup1\n        /* \"#utility.yul\":28812:28814   */\n      0x40\n        /* \"#utility.yul\":28805:28827   */\n      mstore\n        /* \"#utility.yul\":28595:28833   */\n      pop\n        /* \"#utility.yul\":28552:28833   */\n      pop\n      pop\n      jump\t// out\n        /* \"#utility.yul\":28839:29019   */\n    tag_655:\n        /* \"#utility.yul\":28887:28964   */\n      0x4e487b7100000000000000000000000000000000000000000000000000000000\n        /* \"#utility.yul\":28884:28885   */\n      0x00\n        /* \"#utility.yul\":28877:28965   */\n      mstore\n        /* \"#utility.yul\":28984:28988   */\n      0x11\n        /* \"#utility.yul\":28981:28982   */\n      0x04\n        /* \"#utility.yul\":28974:28989   */\n      mstore\n        /* \"#utility.yul\":29008:29012   */\n      0x24\n        /* \"#utility.yul\":29005:29006   */\n      0x00\n        /* \"#utility.yul\":28998:29013   */\n      revert\n        /* \"#utility.yul\":29025:29205   */\n    tag_712:\n        /* \"#utility.yul\":29073:29150   */\n      0x4e487b7100000000000000000000000000000000000000000000000000000000\n        /* \"#utility.yul\":29070:29071   */\n      0x00\n        /* \"#utility.yul\":29063:29151   */\n      mstore\n        /* \"#utility.yul\":29170:29174   */\n      0x22\n        /* \"#utility.yul\":29167:29168   */\n      0x04\n        /* \"#utility.yul\":29160:29175   */\n      mstore\n        /* \"#utility.yul\":29194:29198   */\n      0x24\n        /* \"#utility.yul\":29191:29192   */\n      0x00\n        /* \"#utility.yul\":29184:29199   */\n      revert\n        /* \"#utility.yul\":29211:29391   */\n    tag_147:\n        /* \"#utility.yul\":29259:29336   */\n      0x4e487b7100000000000000000000000000000000000000000000000000000000\n        /* \"#utility.yul\":29256:29257   */\n      0x00\n        /* \"#utility.yul\":29249:29337   */\n      mstore\n        /* \"#utility.yul\":29356:29360   */\n      0x41\n        /* \"#utility.yul\":29353:29354   */\n      0x04\n        /* \"#utility.yul\":29346:29361   */\n      mstore\n        /* \"#utility.yul\":29380:29384   */\n      0x24\n        /* \"#utility.yul\":29377:29378   */\n      0x00\n        /* \"#utility.yul\":29370:29385   */\n      revert\n        /* \"#utility.yul\":29397:29514   */\n    tag_403:\n        /* \"#utility.yul\":29506:29507   */\n      0x00\n        /* \"#utility.yul\":29503:29504   */\n      dup1\n        /* \"#utility.yul\":29496:29508   */\n      revert\n        /* \"#utility.yul\":29520:29637   */\n    tag_388:\n        /* \"#utility.yul\":29629:29630   */\n      0x00\n        /* \"#utility.yul\":29626:29627   */\n      dup1\n        /* \"#utility.yul\":29619:29631   */\n      revert\n        /* \"#utility.yul\":29643:29760   */\n    tag_431:\n        /* \"#utility.yul\":29752:29753   */\n      0x00\n        /* \"#utility.yul\":29749:29750   */\n      dup1\n        /* \"#utility.yul\":29742:29754   */\n      revert\n        /* \"#utility.yul\":29766:29883   */\n    tag_412:\n        /* \"#utility.yul\":29875:29876   */\n      0x00\n        /* \"#utility.yul\":29872:29873   */\n      dup1\n        /* \"#utility.yul\":29865:29877   */\n      revert\n        /* \"#utility.yul\":29889:29991   */\n    tag_478:\n        /* \"#utility.yul\":29930:29936   */\n      0x00\n        /* \"#utility.yul\":29981:29983   */\n      0x1f\n        /* \"#utility.yul\":29977:29984   */\n      not\n        /* \"#utility.yul\":29972:29974   */\n      0x1f\n        /* \"#utility.yul\":29965:29970   */\n      dup4\n        /* \"#utility.yul\":29961:29975   */\n      add\n        /* \"#utility.yul\":29957:29985   */\n      and\n        /* \"#utility.yul\":29947:29985   */\n      swap1\n      pop\n        /* \"#utility.yul\":29889:29991   */\n      swap2\n      swap1\n      pop\n      jump\t// out\n        /* \"#utility.yul\":29997:30099   */\n    tag_665:\n        /* \"#utility.yul\":30039:30047   */\n      0x00\n        /* \"#utility.yul\":30086:30091   */\n      dup2\n        /* \"#utility.yul\":30083:30084   */\n      0x01\n        /* \"#utility.yul\":30079:30092   */\n      shr\n        /* \"#utility.yul\":30058:30092   */\n      swap1\n      pop\n        /* \"#utility.yul\":29997:30099   */\n      swap2\n      swap1\n      pop\n      jump\t// out\n        /* \"#utility.yul\":30105:30327   */\n    tag_483:\n        /* \"#utility.yul\":30245:30279   */\n      0x45524332303a207472616e7366657220746f20746865207a65726f2061646472\n        /* \"#utility.yul\":30241:30242   */\n      0x00\n        /* \"#utility.yul\":30233:30239   */\n      dup3\n        /* \"#utility.yul\":30229:30243   */\n      add\n        /* \"#utility.yul\":30222:30280   */\n      mstore\n        /* \"#utility.yul\":30314:30319   */\n      0x6573730000000000000000000000000000000000000000000000000000000000\n        /* \"#utility.yul\":30309:30311   */\n      0x20\n        /* \"#utility.yul\":30301:30307   */\n      dup3\n        /* \"#utility.yul\":30297:30312   */\n      add\n        /* \"#utility.yul\":30290:30320   */\n      mstore\n        /* \"#utility.yul\":30105:30327   */\n      pop\n      jump\t// out\n        /* \"#utility.yul\":30333:30558   */\n    tag_488:\n        /* \"#utility.yul\":30473:30507   */\n      0x4f776e61626c653a206e6577206f776e657220697320746865207a65726f2061\n        /* \"#utility.yul\":30469:30470   */\n      0x00\n        /* \"#utility.yul\":30461:30467   */\n      dup3\n        /* \"#utility.yul\":30457:30471   */\n      add\n        /* \"#utility.yul\":30450:30508   */\n      mstore\n        /* \"#utility.yul\":30542:30550   */\n      0x6464726573730000000000000000000000000000000000000000000000000000\n        /* \"#utility.yul\":30537:30539   */\n      0x20\n        /* \"#utility.yul\":30529:30535   */\n      dup3\n        /* \"#utility.yul\":30525:30540   */\n      add\n        /* \"#utility.yul\":30518:30551   */\n      mstore\n        /* \"#utility.yul\":30333:30558   */\n      pop\n      jump\t// out\n        /* \"#utility.yul\":30564:30785   */\n    tag_493:\n        /* \"#utility.yul\":30704:30738   */\n      0x45524332303a20617070726f766520746f20746865207a65726f206164647265\n        /* \"#utility.yul\":30700:30701   */\n      0x00\n        /* \"#utility.yul\":30692:30698   */\n      dup3\n        /* \"#utility.yul\":30688:30702   */\n      add\n        /* \"#utility.yul\":30681:30739   */\n      mstore\n        /* \"#utility.yul\":30773:30777   */\n      0x7373000000000000000000000000000000000000000000000000000000000000\n        /* \"#utility.yul\":30768:30770   */\n      0x20\n        /* \"#utility.yul\":30760:30766   */\n      dup3\n        /* \"#utility.yul\":30756:30771   */\n      add\n        /* \"#utility.yul\":30749:30778   */\n      mstore\n        /* \"#utility.yul\":30564:30785   */\n      pop\n      jump\t// out\n        /* \"#utility.yul\":30791:31022   */\n    tag_498:\n        /* \"#utility.yul\":30931:30965   */\n      0x46756e6374696f6e206d7573742062652063616c6c6564207468726f75676820\n        /* \"#utility.yul\":30927:30928   */\n      0x00\n        /* \"#utility.yul\":30919:30925   */\n      dup3\n        /* \"#utility.yul\":30915:30929   */\n      add\n        /* \"#utility.yul\":30908:30966   */\n      mstore\n        /* \"#utility.yul\":31000:31014   */\n      0x64656c656761746563616c6c0000000000000000000000000000000000000000\n        /* \"#utility.yul\":30995:30997   */\n      0x20\n        /* \"#utility.yul\":30987:30993   */\n      dup3\n        /* \"#utility.yul\":30983:30998   */\n      add\n        /* \"#utility.yul\":30976:31015   */\n      mstore\n        /* \"#utility.yul\":30791:31022   */\n      pop\n      jump\t// out\n        /* \"#utility.yul\":31028:31207   */\n    tag_503:\n        /* \"#utility.yul\":31168:31199   */\n      0x45524332303a20696e73756666696369656e7420616c6c6f77616e6365000000\n        /* \"#utility.yul\":31164:31165   */\n      0x00\n        /* \"#utility.yul\":31156:31162   */\n      dup3\n        /* \"#utility.yul\":31152:31166   */\n      add\n        /* \"#utility.yul\":31145:31200   */\n      mstore\n        /* \"#utility.yul\":31028:31207   */\n      pop\n      jump\t// out\n        /* \"#utility.yul\":31213:31438   */\n    tag_508:\n        /* \"#utility.yul\":31353:31387   */\n      0x45524332303a207472616e7366657220616d6f756e7420657863656564732062\n        /* \"#utility.yul\":31349:31350   */\n      0x00\n        /* \"#utility.yul\":31341:31347   */\n      dup3\n        /* \"#utility.yul\":31337:31351   */\n      add\n        /* \"#utility.yul\":31330:31388   */\n      mstore\n        /* \"#utility.yul\":31422:31430   */\n      0x616c616e63650000000000000000000000000000000000000000000000000000\n        /* \"#utility.yul\":31417:31419   */\n      0x20\n        /* \"#utility.yul\":31409:31415   */\n      dup3\n        /* \"#utility.yul\":31405:31420   */\n      add\n        /* \"#utility.yul\":31398:31431   */\n      mstore\n        /* \"#utility.yul\":31213:31438   */\n      pop\n      jump\t// out\n        /* \"#utility.yul\":31444:31675   */\n    tag_513:\n        /* \"#utility.yul\":31584:31618   */\n      0x46756e6374696f6e206d7573742062652063616c6c6564207468726f75676820\n        /* \"#utility.yul\":31580:31581   */\n      0x00\n        /* \"#utility.yul\":31572:31578   */\n      dup3\n        /* \"#utility.yul\":31568:31582   */\n      add\n        /* \"#utility.yul\":31561:31619   */\n      mstore\n        /* \"#utility.yul\":31653:31667   */\n      0x6163746976652070726f78790000000000000000000000000000000000000000\n        /* \"#utility.yul\":31648:31650   */\n      0x20\n        /* \"#utility.yul\":31640:31646   */\n      dup3\n        /* \"#utility.yul\":31636:31651   */\n      add\n        /* \"#utility.yul\":31629:31668   */\n      mstore\n        /* \"#utility.yul\":31444:31675   */\n      pop\n      jump\t// out\n        /* \"#utility.yul\":31681:31924   */\n    tag_518:\n        /* \"#utility.yul\":31821:31855   */\n      0x555550535570677261646561626c653a206d757374206e6f742062652063616c\n        /* \"#utility.yul\":31817:31818   */\n      0x00\n        /* \"#utility.yul\":31809:31815   */\n      dup3\n        /* \"#utility.yul\":31805:31819   */\n      add\n        /* \"#utility.yul\":31798:31856   */\n      mstore\n        /* \"#utility.yul\":31890:31916   */\n      0x6c6564207468726f7567682064656c656761746563616c6c0000000000000000\n        /* \"#utility.yul\":31885:31887   */\n      0x20\n        /* \"#utility.yul\":31877:31883   */\n      dup3\n        /* \"#utility.yul\":31873:31888   */\n      add\n        /* \"#utility.yul\":31866:31917   */\n      mstore\n        /* \"#utility.yul\":31681:31924   */\n      pop\n      jump\t// out\n        /* \"#utility.yul\":31930:32158   */\n    tag_523:\n        /* \"#utility.yul\":32070:32104   */\n      0x45524331393637557067726164653a20756e737570706f727465642070726f78\n        /* \"#utility.yul\":32066:32067   */\n      0x00\n        /* \"#utility.yul\":32058:32064   */\n      dup3\n        /* \"#utility.yul\":32054:32068   */\n      add\n        /* \"#utility.yul\":32047:32105   */\n      mstore\n        /* \"#utility.yul\":32139:32150   */\n      0x6961626c65555549440000000000000000000000000000000000000000000000\n        /* \"#utility.yul\":32134:32136   */\n      0x20\n        /* \"#utility.yul\":32126:32132   */\n      dup3\n        /* \"#utility.yul\":32122:32137   */\n      add\n        /* \"#utility.yul\":32115:32151   */\n      mstore\n        /* \"#utility.yul\":31930:32158   */\n      pop\n      jump\t// out\n        /* \"#utility.yul\":32164:32397   */\n    tag_528:\n        /* \"#utility.yul\":32304:32338   */\n      0x496e697469616c697a61626c653a20636f6e747261637420697320616c726561\n        /* \"#utility.yul\":32300:32301   */\n      0x00\n        /* \"#utility.yul\":32292:32298   */\n      dup3\n        /* \"#utility.yul\":32288:32302   */\n      add\n        /* \"#utility.yul\":32281:32339   */\n      mstore\n        /* \"#utility.yul\":32373:32389   */\n      0x647920696e697469616c697a6564000000000000000000000000000000000000\n        /* \"#utility.yul\":32368:32370   */\n      0x20\n        /* \"#utility.yul\":32360:32366   */\n      dup3\n        /* \"#utility.yul\":32356:32371   */\n      add\n        /* \"#utility.yul\":32349:32390   */\n      mstore\n        /* \"#utility.yul\":32164:32397   */\n      pop\n      jump\t// out\n        /* \"#utility.yul\":32403:32636   */\n    tag_533:\n        /* \"#utility.yul\":32543:32577   */\n      0x45524331393637557067726164653a206e657720696d706c656d656e74617469\n        /* \"#utility.yul\":32539:32540   */\n      0x00\n        /* \"#utility.yul\":32531:32537   */\n      dup3\n        /* \"#utility.yul\":32527:32541   */\n      add\n        /* \"#utility.yul\":32520:32578   */\n      mstore\n        /* \"#utility.yul\":32612:32628   */\n      0x6f6e206973206e6f742055555053000000000000000000000000000000000000\n        /* \"#utility.yul\":32607:32609   */\n      0x20\n        /* \"#utility.yul\":32599:32605   */\n      dup3\n        /* \"#utility.yul\":32595:32610   */\n      add\n        /* \"#utility.yul\":32588:32629   */\n      mstore\n        /* \"#utility.yul\":32403:32636   */\n      pop\n      jump\t// out\n        /* \"#utility.yul\":32642:32874   */\n    tag_538:\n        /* \"#utility.yul\":32782:32816   */\n      0x455243313936373a206e657720696d706c656d656e746174696f6e206973206e\n        /* \"#utility.yul\":32778:32779   */\n      0x00\n        /* \"#utility.yul\":32770:32776   */\n      dup3\n        /* \"#utility.yul\":32766:32780   */\n      add\n        /* \"#utility.yul\":32759:32817   */\n      mstore\n        /* \"#utility.yul\":32851:32866   */\n      0x6f74206120636f6e747261637400000000000000000000000000000000000000\n        /* \"#utility.yul\":32846:32848   */\n      0x20\n        /* \"#utility.yul\":32838:32844   */\n      dup3\n        /* \"#utility.yul\":32834:32849   */\n      add\n        /* \"#utility.yul\":32827:32867   */\n      mstore\n        /* \"#utility.yul\":32642:32874   */\n      pop\n      jump\t// out\n        /* \"#utility.yul\":32880:33062   */\n    tag_543:\n        /* \"#utility.yul\":33020:33054   */\n      0x4f776e61626c653a2063616c6c6572206973206e6f7420746865206f776e6572\n        /* \"#utility.yul\":33016:33017   */\n      0x00\n        /* \"#utility.yul\":33008:33014   */\n      dup3\n        /* \"#utility.yul\":33004:33018   */\n      add\n        /* \"#utility.yul\":32997:33055   */\n      mstore\n        /* \"#utility.yul\":32880:33062   */\n      pop\n      jump\t// out\n        /* \"#utility.yul\":33068:33293   */\n    tag_548:\n        /* \"#utility.yul\":33208:33242   */\n      0x416464726573733a2064656c65676174652063616c6c20746f206e6f6e2d636f\n        /* \"#utility.yul\":33204:33205   */\n      0x00\n        /* \"#utility.yul\":33196:33202   */\n      dup3\n        /* \"#utility.yul\":33192:33206   */\n      add\n        /* \"#utility.yul\":33185:33243   */\n      mstore\n        /* \"#utility.yul\":33277:33285   */\n      0x6e74726163740000000000000000000000000000000000000000000000000000\n        /* \"#utility.yul\":33272:33274   */\n      0x20\n        /* \"#utility.yul\":33264:33270   */\n      dup3\n        /* \"#utility.yul\":33260:33275   */\n      add\n        /* \"#utility.yul\":33253:33286   */\n      mstore\n        /* \"#utility.yul\":33068:33293   */\n      pop\n      jump\t// out\n        /* \"#utility.yul\":33299:33523   */\n    tag_553:\n        /* \"#utility.yul\":33439:33473   */\n      0x45524332303a207472616e736665722066726f6d20746865207a65726f206164\n        /* \"#utility.yul\":33435:33436   */\n      0x00\n        /* \"#utility.yul\":33427:33433   */\n      dup3\n        /* \"#utility.yul\":33423:33437   */\n      add\n        /* \"#utility.yul\":33416:33474   */\n      mstore\n        /* \"#utility.yul\":33508:33515   */\n      0x6472657373000000000000000000000000000000000000000000000000000000\n        /* \"#utility.yul\":33503:33505   */\n      0x20\n        /* \"#utility.yul\":33495:33501   */\n      dup3\n        /* \"#utility.yul\":33491:33506   */\n      add\n        /* \"#utility.yul\":33484:33516   */\n      mstore\n        /* \"#utility.yul\":33299:33523   */\n      pop\n      jump\t// out\n        /* \"#utility.yul\":33529:33752   */\n    tag_558:\n        /* \"#utility.yul\":33669:33703   */\n      0x45524332303a20617070726f76652066726f6d20746865207a65726f20616464\n        /* \"#utility.yul\":33665:33666   */\n      0x00\n        /* \"#utility.yul\":33657:33663   */\n      dup3\n        /* \"#utility.yul\":33653:33667   */\n      add\n        /* \"#utility.yul\":33646:33704   */\n      mstore\n        /* \"#utility.yul\":33738:33744   */\n      0x7265737300000000000000000000000000000000000000000000000000000000\n        /* \"#utility.yul\":33733:33735   */\n      0x20\n        /* \"#utility.yul\":33725:33731   */\n      dup3\n        /* \"#utility.yul\":33721:33736   */\n      add\n        /* \"#utility.yul\":33714:33745   */\n      mstore\n        /* \"#utility.yul\":33529:33752   */\n      pop\n      jump\t// out\n        /* \"#utility.yul\":33758:33988   */\n    tag_563:\n        /* \"#utility.yul\":33898:33932   */\n      0x496e697469616c697a61626c653a20636f6e7472616374206973206e6f742069\n        /* \"#utility.yul\":33894:33895   */\n      0x00\n        /* \"#utility.yul\":33886:33892   */\n      dup3\n        /* \"#utility.yul\":33882:33896   */\n      add\n        /* \"#utility.yul\":33875:33933   */\n      mstore\n        /* \"#utility.yul\":33967:33980   */\n      0x6e697469616c697a696e67000000000000000000000000000000000000000000\n        /* \"#utility.yul\":33962:33964   */\n      0x20\n        /* \"#utility.yul\":33954:33960   */\n      dup3\n        /* \"#utility.yul\":33950:33965   */\n      add\n        /* \"#utility.yul\":33943:33981   */\n      mstore\n        /* \"#utility.yul\":33758:33988   */\n      pop\n      jump\t// out\n        /* \"#utility.yul\":33994:34218   */\n    tag_568:\n        /* \"#utility.yul\":34134:34168   */\n      0x45524332303a2064656372656173656420616c6c6f77616e63652062656c6f77\n        /* \"#utility.yul\":34130:34131   */\n      0x00\n        /* \"#utility.yul\":34122:34128   */\n      dup3\n        /* \"#utility.yul\":34118:34132   */\n      add\n        /* \"#utility.yul\":34111:34169   */\n      mstore\n        /* \"#utility.yul\":34203:34210   */\n      0x207a65726f000000000000000000000000000000000000000000000000000000\n        /* \"#utility.yul\":34198:34200   */\n      0x20\n        /* \"#utility.yul\":34190:34196   */\n      dup3\n        /* \"#utility.yul\":34186:34201   */\n      add\n        /* \"#utility.yul\":34179:34211   */\n      mstore\n        /* \"#utility.yul\":33994:34218   */\n      pop\n      jump\t// out\n        /* \"#utility.yul\":34224:34405   */\n    tag_573:\n        /* \"#utility.yul\":34364:34397   */\n      0x45524332303a206d696e7420746f20746865207a65726f206164647265737300\n        /* \"#utility.yul\":34360:34361   */\n      0x00\n        /* \"#utility.yul\":34352:34358   */\n      dup3\n        /* \"#utility.yul\":34348:34362   */\n      add\n        /* \"#utility.yul\":34341:34398   */\n      mstore\n        /* \"#utility.yul\":34224:34405   */\n      pop\n      jump\t// out\n        /* \"#utility.yul\":34411:34533   */\n    tag_394:\n        /* \"#utility.yul\":34484:34508   */\n      tag_746\n        /* \"#utility.yul\":34502:34507   */\n      dup2\n        /* \"#utility.yul\":34484:34508   */\n      tag_449\n      jump\t// in\n    tag_746:\n        /* \"#utility.yul\":34477:34482   */\n      dup2\n        /* \"#utility.yul\":34474:34509   */\n      eq\n        /* \"#utility.yul\":34464:34527   */\n      tag_747\n      jumpi\n        /* \"#utility.yul\":34523:34524   */\n      0x00\n        /* \"#utility.yul\":34520:34521   */\n      dup1\n        /* \"#utility.yul\":34513:34525   */\n      revert\n        /* \"#utility.yul\":34464:34527   */\n    tag_747:\n        /* \"#utility.yul\":34411:34533   */\n      pop\n      jump\t// out\n        /* \"#utility.yul\":34539:34661   */\n    tag_398:\n        /* \"#utility.yul\":34612:34636   */\n      tag_749\n        /* \"#utility.yul\":34630:34635   */\n      dup2\n        /* \"#utility.yul\":34612:34636   */\n      tag_457\n      jump\t// in\n    tag_749:\n        /* \"#utility.yul\":34605:34610   */\n      dup2\n        /* \"#utility.yul\":34602:34637   */\n      eq\n        /* \"#utility.yul\":34592:34655   */\n      tag_750\n      jumpi\n        /* \"#utility.yul\":34651:34652   */\n      0x00\n        /* \"#utility.yul\":34648:34649   */\n      dup1\n        /* \"#utility.yul\":34641:34653   */\n      revert\n        /* \"#utility.yul\":34592:34655   */\n    tag_750:\n        /* \"#utility.yul\":34539:34661   */\n      pop\n      jump\t// out\n        /* \"#utility.yul\":34667:34789   */\n    tag_408:\n        /* \"#utility.yul\":34740:34764   */\n      tag_752\n        /* \"#utility.yul\":34758:34763   */\n      dup2\n        /* \"#utility.yul\":34740:34764   */\n      tag_577\n      jump\t// in\n    tag_752:\n        /* \"#utility.yul\":34733:34738   */\n      dup2\n        /* \"#utility.yul\":34730:34765   */\n      eq\n        /* \"#utility.yul\":34720:34783   */\n      tag_753\n      jumpi\n        /* \"#utility.yul\":34779:34780   */\n      0x00\n        /* \"#utility.yul\":34776:34777   */\n      dup1\n        /* \"#utility.yul\":34769:34781   */\n      revert\n        /* \"#utility.yul\":34720:34783   */\n    tag_753:\n        /* \"#utility.yul\":34667:34789   */\n      pop\n      jump\t// out\n    stop\n    data_9fdcd12e4b726339b32a442b0a448365d5d85c96b2d2cff917b4f66c63110398 416464726573733a206c6f772d6c6576656c2064656c65676174652063616c6c206661696c6564\n\n    auxdata: 0xa2646970667358221220dbf90e1021fc539551f1c8bc7c621028132e1030f79d340dc49244455200050c64736f6c63430008070033\n}\n",
				"bytecode": {
					"linkReferences": {},
					"object": "60a06040523073ffffffffffffffffffffffffffffffffffffffff1660809073ffffffffffffffffffffffffffffffffffffffff1660601b81525034801561004657600080fd5b5060805160601c612f9261008160003960008181610562015281816105f101528181610722015281816107b101526108610152612f926000f3fe6080604052600436106101095760003560e01c806370a0823111610095578063a457c2d711610064578063a457c2d714610360578063a9059cbb1461039d578063dd62ed3e146103da578063f2fde38b14610417578063fe4b84df1461044057610109565b806370a08231146102b6578063715018a6146102f35780638da5cb5b1461030a57806395d89b411461033557610109565b8063313ce567116100dc578063313ce567146101de5780633659cfe61461020957806339509351146102325780634f1ef2861461026f57806352d1902d1461028b57610109565b806306fdde031461010e578063095ea7b31461013957806318160ddd1461017657806323b872dd146101a1575b600080fd5b34801561011a57600080fd5b50610123610469565b604051610130919061224f565b60405180910390f35b34801561014557600080fd5b50610160600480360381019061015b9190611dd5565b6104fb565b60405161016d91906121fe565b60405180910390f35b34801561018257600080fd5b5061018b61051e565b60405161019891906124d1565b60405180910390f35b3480156101ad57600080fd5b506101c860048036038101906101c39190611d26565b610528565b6040516101d591906121fe565b60405180910390f35b3480156101ea57600080fd5b506101f3610557565b60405161020091906124ec565b60405180910390f35b34801561021557600080fd5b50610230600480360381019061022b9190611cb9565b610560565b005b34801561023e57600080fd5b5061025960048036038101906102549190611dd5565b6106e9565b60405161026691906121fe565b60405180910390f35b61028960048036038101906102849190611d79565b610720565b005b34801561029757600080fd5b506102a061085d565b6040516102ad9190612219565b60405180910390f35b3480156102c257600080fd5b506102dd60048036038101906102d89190611cb9565b610916565b6040516102ea91906124d1565b60405180910390f35b3480156102ff57600080fd5b5061030861095f565b005b34801561031657600080fd5b5061031f610973565b60405161032c91906121e3565b60405180910390f35b34801561034157600080fd5b5061034a61099d565b604051610357919061224f565b60405180910390f35b34801561036c57600080fd5b5061038760048036038101906103829190611dd5565b610a2f565b60405161039491906121fe565b60405180910390f35b3480156103a957600080fd5b506103c460048036038101906103bf9190611dd5565b610aa6565b6040516103d191906121fe565b60405180910390f35b3480156103e657600080fd5b5061040160048036038101906103fc9190611ce6565b610ac9565b60405161040e91906124d1565b60405180910390f35b34801561042357600080fd5b5061043e60048036038101906104399190611cb9565b610b50565b005b34801561044c57600080fd5b5061046760048036038101906104629190611e42565b610bd4565b005b60606036805461047890612863565b80601f01602080910402602001604051908101604052809291908181526020018280546104a490612863565b80156104f15780601f106104c6576101008083540402835291602001916104f1565b820191906000526020600020905b8154815290600101906020018083116104d457829003601f168201915b5050505050905090565b600080610506610db7565b9050610513818585610dbf565b600191505092915050565b6000603554905090565b600080610533610db7565b9050610540858285610f8a565b61054b858585611016565b60019150509392505050565b60006012905090565b7f000000000000000000000000000000000000000000000000000000000000000073ffffffffffffffffffffffffffffffffffffffff163073ffffffffffffffffffffffffffffffffffffffff1614156105ef576040517f08c379a00000000000000000000000000000000000000000000000000000000081526004016105e6906122d1565b60405180910390fd5b7f000000000000000000000000000000000000000000000000000000000000000073ffffffffffffffffffffffffffffffffffffffff1661062e611291565b73ffffffffffffffffffffffffffffffffffffffff1614610684576040517f08c379a000000000000000000000000000000000000000000000000000000000815260040161067b90612331565b60405180910390fd5b61068d816112e8565b6106e681600067ffffffffffffffff8111156106ac576106ab612924565b5b6040519080825280601f01601f1916602001820160405280156106de5781602001600182028036833780820191505090505b5060006112f3565b50565b6000806106f4610db7565b90506107158185856107068589610ac9565b610710919061258f565b610dbf565b600191505092915050565b7f000000000000000000000000000000000000000000000000000000000000000073ffffffffffffffffffffffffffffffffffffffff163073ffffffffffffffffffffffffffffffffffffffff1614156107af576040517f08c379a00000000000000000000000000000000000000000000000000000000081526004016107a6906122d1565b60405180910390fd5b7f000000000000000000000000000000000000000000000000000000000000000073ffffffffffffffffffffffffffffffffffffffff166107ee611291565b73ffffffffffffffffffffffffffffffffffffffff1614610844576040517f08c379a000000000000000000000000000000000000000000000000000000000815260040161083b90612331565b60405180910390fd5b61084d826112e8565b610859828260016112f3565b5050565b60007f000000000000000000000000000000000000000000000000000000000000000073ffffffffffffffffffffffffffffffffffffffff163073ffffffffffffffffffffffffffffffffffffffff16146108ed576040517f08c379a00000000000000000000000000000000000000000000000000000000081526004016108e490612351565b60405180910390fd5b7f360894a13ba1a3210667c828492db98dca3e2076cc3735a920a3ca505d382bbc60001b905090565b6000603360008373ffffffffffffffffffffffffffffffffffffffff1673ffffffffffffffffffffffffffffffffffffffff168152602001908152602001600020549050919050565b610967611470565b61097160006114ee565b565b600060c960009054906101000a900473ffffffffffffffffffffffffffffffffffffffff16905090565b6060603780546109ac90612863565b80601f01602080910402602001604051908101604052809291908181526020018280546109d890612863565b8015610a255780601f106109fa57610100808354040283529160200191610a25565b820191906000526020600020905b815481529060010190602001808311610a0857829003601f168201915b5050505050905090565b600080610a3a610db7565b90506000610a488286610ac9565b905083811015610a8d576040517f08c379a0000000000000000000000000000000000000000000000000000000008152600401610a8490612491565b60405180910390fd5b610a9a8286868403610dbf565b60019250505092915050565b600080610ab1610db7565b9050610abe818585611016565b600191505092915050565b6000603460008473ffffffffffffffffffffffffffffffffffffffff1673ffffffffffffffffffffffffffffffffffffffff16815260200190815260200160002060008373ffffffffffffffffffffffffffffffffffffffff1673ffffffffffffffffffffffffffffffffffffffff16815260200190815260200160002054905092915050565b610b58611470565b600073ffffffffffffffffffffffffffffffffffffffff168173ffffffffffffffffffffffffffffffffffffffff161415610bc8576040517f08c379a0000000000000000000000000000000000000000000000000000000008152600401610bbf90612291565b60405180910390fd5b610bd1816114ee565b50565b60008060019054906101000a900460ff16159050808015610c055750600160008054906101000a900460ff1660ff16105b80610c325750610c14306115b4565b158015610c315750600160008054906101000a900460ff1660ff16145b5b610c71576040517f08c379a0000000000000000000000000000000000000000000000000000000008152600401610c6890612391565b60405180910390fd5b60016000806101000a81548160ff021916908360ff1602179055508015610cae576001600060016101000a81548160ff0219169083151502179055505b610d226040518060400160405280600b81526020017f506c61747a69546f6b656e0000000000000000000000000000000000000000008152506040518060400160405280600381526020017f504c5a00000000000000000000000000000000000000000000000000000000008152506115d7565b610d2a611634565b610d32611695565b610d5a33610d3e610557565b600a610d4a9190612638565b84610d559190612756565b6116e6565b8015610db35760008060016101000a81548160ff0219169083151502179055507f7f26b83ff96e1f2b6a682f133852f6798a09c465da95921460cefb38474024986001604051610daa9190612234565b60405180910390a15b5050565b600033905090565b600073ffffffffffffffffffffffffffffffffffffffff168373ffffffffffffffffffffffffffffffffffffffff161415610e2f576040517f08c379a0000000000000000000000000000000000000000000000000000000008152600401610e2690612451565b60405180910390fd5b600073ffffffffffffffffffffffffffffffffffffffff168273ffffffffffffffffffffffffffffffffffffffff161415610e9f576040517f08c379a0000000000000000000000000000000000000000000000000000000008152600401610e96906122b1565b60405180910390fd5b80603460008573ffffffffffffffffffffffffffffffffffffffff1673ffffffffffffffffffffffffffffffffffffffff16815260200190815260200160002060008473ffffffffffffffffffffffffffffffffffffffff1673ffffffffffffffffffffffffffffffffffffffff168152602001908152602001600020819055508173ffffffffffffffffffffffffffffffffffffffff168373ffffffffffffffffffffffffffffffffffffffff167f8c5be1e5ebec7d5bd14f71427d1e84f3dd0314c0f7b2291e5b200ac8c7c3b92583604051610f7d91906124d1565b60405180910390a3505050565b6000610f968484610ac9565b90507fffffffffffffffffffffffffffffffffffffffffffffffffffffffffffffffff81146110105781811015611002576040517f08c379a0000000000000000000000000000000000000000000000000000000008152600401610ff9906122f1565b60405180910390fd5b61100f8484848403610dbf565b5b50505050565b600073ffffffffffffffffffffffffffffffffffffffff168373ffffffffffffffffffffffffffffffffffffffff161415611086576040517f08c379a000000000000000000000000000000000000000000000000000000000815260040161107d90612431565b60405180910390fd5b600073ffffffffffffffffffffffffffffffffffffffff168273ffffffffffffffffffffffffffffffffffffffff1614156110f6576040517f08c379a00000000000000000000000000000000000000000000000000000000081526004016110ed90612271565b60405180910390fd5b61110183838361183e565b6000603360008573ffffffffffffffffffffffffffffffffffffffff1673ffffffffffffffffffffffffffffffffffffffff16815260200190815260200160002054905081811015611188576040517f08c379a000000000000000000000000000000000000000000000000000000000815260040161117f90612311565b60405180910390fd5b818103603360008673ffffffffffffffffffffffffffffffffffffffff1673ffffffffffffffffffffffffffffffffffffffff1681526020019081526020016000208190555081603360008573ffffffffffffffffffffffffffffffffffffffff1673ffffffffffffffffffffffffffffffffffffffff168152602001908152602001600020600082825401925050819055508273ffffffffffffffffffffffffffffffffffffffff168473ffffffffffffffffffffffffffffffffffffffff167fddf252ad1be2c89b69c2b068fc378daa952ba7f163c4a11628f55a4df523b3ef8460405161127891906124d1565b60405180910390a361128b848484611843565b50505050565b60006112bf7f360894a13ba1a3210667c828492db98dca3e2076cc3735a920a3ca505d382bbc60001b611848565b60000160009054906101000a900473ffffffffffffffffffffffffffffffffffffffff16905090565b6112f0611470565b50565b61131f7f4910fdfa16fed3260ed0e7147f7cc6da11a60208b5b9406d12a635614ffd914360001b611852565b60000160009054906101000a900460ff16156113435761133e8361185c565b61146b565b8273ffffffffffffffffffffffffffffffffffffffff166352d1902d6040518163ffffffff1660e01b815260040160206040518083038186803b15801561138957600080fd5b505afa9250505080156113ba57506040513d601f19601f820116820180604052508101906113b79190611e15565b60015b6113f9576040517f08c379a00000000000000000000000000000000000000000000000000000000081526004016113f0906123b1565b60405180910390fd5b7f360894a13ba1a3210667c828492db98dca3e2076cc3735a920a3ca505d382bbc60001b811461145e576040517f08c379a000000000000000000000000000000000000000000000000000000000815260040161145590612371565b60405180910390fd5b5061146a838383611915565b5b505050565b611478610db7565b73ffffffffffffffffffffffffffffffffffffffff16611496610973565b73ffffffffffffffffffffffffffffffffffffffff16146114ec576040517f08c379a00000000000000000000000000000000000000000000000000000000081526004016114e3906123f1565b60405180910390fd5b565b600060c960009054906101000a900473ffffffffffffffffffffffffffffffffffffffff1690508160c960006101000a81548173ffffffffffffffffffffffffffffffffffffffff021916908373ffffffffffffffffffffffffffffffffffffffff1602179055508173ffffffffffffffffffffffffffffffffffffffff168173ffffffffffffffffffffffffffffffffffffffff167f8be0079c531659141344cd1fd0a4f28419497f9722a3daafe3b4186f6b6457e060405160405180910390a35050565b6000808273ffffffffffffffffffffffffffffffffffffffff163b119050919050565b600060019054906101000a900460ff16611626576040517f08c379a000000000000000000000000000000000000000000000000000000000815260040161161d90612471565b60405180910390fd5b6116308282611941565b5050565b600060019054906101000a900460ff16611683576040517f08c379a000000000000000000000000000000000000000000000000000000000815260040161167a90612471565b60405180910390fd5b61169361168e610db7565b6114ee565b565b600060019054906101000a900460ff166116e4576040517f08c379a00000000000000000000000000000000000000000000000000000000081526004016116db90612471565b60405180910390fd5b565b600073ffffffffffffffffffffffffffffffffffffffff168273ffffffffffffffffffffffffffffffffffffffff161415611756576040517f08c379a000000000000000000000000000000000000000000000000000000000815260040161174d906124b1565b60405180910390fd5b6117626000838361183e565b8060356000828254611774919061258f565b9250508190555080603360008473ffffffffffffffffffffffffffffffffffffffff1673ffffffffffffffffffffffffffffffffffffffff168152602001908152602001600020600082825401925050819055508173ffffffffffffffffffffffffffffffffffffffff16600073ffffffffffffffffffffffffffffffffffffffff167fddf252ad1be2c89b69c2b068fc378daa952ba7f163c4a11628f55a4df523b3ef8360405161182691906124d1565b60405180910390a361183a60008383611843565b5050565b505050565b505050565b6000819050919050565b6000819050919050565b611865816115b4565b6118a4576040517f08c379a000000000000000000000000000000000000000000000000000000000815260040161189b906123d1565b60405180910390fd5b806118d17f360894a13ba1a3210667c828492db98dca3e2076cc3735a920a3ca505d382bbc60001b611848565b60000160006101000a81548173ffffffffffffffffffffffffffffffffffffffff021916908373ffffffffffffffffffffffffffffffffffffffff16021790555050565b61191e836119c2565b60008251118061192b5750805b1561193c5761193a8383611a11565b505b505050565b600060019054906101000a900460ff16611990576040517f08c379a000000000000000000000000000000000000000000000000000000000815260040161198790612471565b60405180910390fd5b81603690805190602001906119a6929190611b67565b5080603790805190602001906119bd929190611b67565b505050565b6119cb8161185c565b8073ffffffffffffffffffffffffffffffffffffffff167fbc7cd75a20ee27fd9adebab32041f755214dbc6bffa90cc0225b39da2e5c2d3b60405160405180910390a250565b6060611a1c836115b4565b611a5b576040517f08c379a0000000000000000000000000000000000000000000000000000000008152600401611a5290612411565b60405180910390fd5b6000808473ffffffffffffffffffffffffffffffffffffffff1684604051611a8391906121cc565b600060405180830381855af49150503d8060008114611abe576040519150601f19603f3d011682016040523d82523d6000602084013e611ac3565b606091505b5091509150611aeb8282604051806060016040528060278152602001612f3660279139611af5565b9250505092915050565b60608315611b0557829050611b10565b611b0f8383611b17565b5b9392505050565b600082511115611b2a5781518083602001fd5b806040517f08c379a0000000000000000000000000000000000000000000000000000000008152600401611b5e919061224f565b60405180910390fd5b828054611b7390612863565b90600052602060002090601f016020900481019282611b955760008555611bdc565b82601f10611bae57805160ff1916838001178555611bdc565b82800160010185558215611bdc579182015b82811115611bdb578251825591602001919060010190611bc0565b5b509050611be99190611bed565b5090565b5b80821115611c06576000816000905550600101611bee565b5090565b6000611c1d611c188461252c565b612507565b905082815260208101848484011115611c3957611c38612958565b5b611c44848285612821565b509392505050565b600081359050611c5b81612ef0565b92915050565b600081519050611c7081612f07565b92915050565b600082601f830112611c8b57611c8a612953565b5b8135611c9b848260208601611c0a565b91505092915050565b600081359050611cb381612f1e565b92915050565b600060208284031215611ccf57611cce612962565b5b6000611cdd84828501611c4c565b91505092915050565b60008060408385031215611cfd57611cfc612962565b5b6000611d0b85828601611c4c565b9250506020611d1c85828601611c4c565b9150509250929050565b600080600060608486031215611d3f57611d3e612962565b5b6000611d4d86828701611c4c565b9350506020611d5e86828701611c4c565b9250506040611d6f86828701611ca4565b9150509250925092565b60008060408385031215611d9057611d8f612962565b5b6000611d9e85828601611c4c565b925050602083013567ffffffffffffffff811115611dbf57611dbe61295d565b5b611dcb85828601611c76565b9150509250929050565b60008060408385031215611dec57611deb612962565b5b6000611dfa85828601611c4c565b9250506020611e0b85828601611ca4565b9150509250929050565b600060208284031215611e2b57611e2a612962565b5b6000611e3984828501611c61565b91505092915050565b600060208284031215611e5857611e57612962565b5b6000611e6684828501611ca4565b91505092915050565b611e78816127b0565b82525050565b611e87816127c2565b82525050565b611e96816127ce565b82525050565b6000611ea78261255d565b611eb18185612573565b9350611ec1818560208601612830565b80840191505092915050565b611ed68161280f565b82525050565b6000611ee782612568565b611ef1818561257e565b9350611f01818560208601612830565b611f0a81612967565b840191505092915050565b6000611f2260238361257e565b9150611f2d82612985565b604082019050919050565b6000611f4560268361257e565b9150611f50826129d4565b604082019050919050565b6000611f6860228361257e565b9150611f7382612a23565b604082019050919050565b6000611f8b602c8361257e565b9150611f9682612a72565b604082019050919050565b6000611fae601d8361257e565b9150611fb982612ac1565b602082019050919050565b6000611fd160268361257e565b9150611fdc82612aea565b604082019050919050565b6000611ff4602c8361257e565b9150611fff82612b39565b604082019050919050565b600061201760388361257e565b915061202282612b88565b604082019050919050565b600061203a60298361257e565b915061204582612bd7565b604082019050919050565b600061205d602e8361257e565b915061206882612c26565b604082019050919050565b6000612080602e8361257e565b915061208b82612c75565b604082019050919050565b60006120a3602d8361257e565b91506120ae82612cc4565b604082019050919050565b60006120c660208361257e565b91506120d182612d13565b602082019050919050565b60006120e960268361257e565b91506120f482612d3c565b604082019050919050565b600061210c60258361257e565b915061211782612d8b565b604082019050919050565b600061212f60248361257e565b915061213a82612dda565b604082019050919050565b6000612152602b8361257e565b915061215d82612e29565b604082019050919050565b600061217560258361257e565b915061218082612e78565b604082019050919050565b6000612198601f8361257e565b91506121a382612ec7565b602082019050919050565b6121b7816127f8565b82525050565b6121c681612802565b82525050565b60006121d88284611e9c565b915081905092915050565b60006020820190506121f86000830184611e6f565b92915050565b60006020820190506122136000830184611e7e565b92915050565b600060208201905061222e6000830184611e8d565b92915050565b60006020820190506122496000830184611ecd565b92915050565b600060208201905081810360008301526122698184611edc565b905092915050565b6000602082019050818103600083015261228a81611f15565b9050919050565b600060208201905081810360008301526122aa81611f38565b9050919050565b600060208201905081810360008301526122ca81611f5b565b9050919050565b600060208201905081810360008301526122ea81611f7e565b9050919050565b6000602082019050818103600083015261230a81611fa1565b9050919050565b6000602082019050818103600083015261232a81611fc4565b9050919050565b6000602082019050818103600083015261234a81611fe7565b9050919050565b6000602082019050818103600083015261236a8161200a565b9050919050565b6000602082019050818103600083015261238a8161202d565b9050919050565b600060208201905081810360008301526123aa81612050565b9050919050565b600060208201905081810360008301526123ca81612073565b9050919050565b600060208201905081810360008301526123ea81612096565b9050919050565b6000602082019050818103600083015261240a816120b9565b9050919050565b6000602082019050818103600083015261242a816120dc565b9050919050565b6000602082019050818103600083015261244a816120ff565b9050919050565b6000602082019050818103600083015261246a81612122565b9050919050565b6000602082019050818103600083015261248a81612145565b9050919050565b600060208201905081810360008301526124aa81612168565b9050919050565b600060208201905081810360008301526124ca8161218b565b9050919050565b60006020820190506124e660008301846121ae565b92915050565b600060208201905061250160008301846121bd565b92915050565b6000612511612522565b905061251d8282612895565b919050565b6000604051905090565b600067ffffffffffffffff82111561254757612546612924565b5b61255082612967565b9050602081019050919050565b600081519050919050565b600081519050919050565b600081905092915050565b600082825260208201905092915050565b600061259a826127f8565b91506125a5836127f8565b9250827fffffffffffffffffffffffffffffffffffffffffffffffffffffffffffffffff038211156125da576125d96128c6565b5b828201905092915050565b6000808291508390505b600185111561262f5780860481111561260b5761260a6128c6565b5b600185161561261a5780820291505b808102905061262885612978565b94506125ef565b94509492505050565b6000612643826127f8565b915061264e83612802565b925061267b7fffffffffffffffffffffffffffffffffffffffffffffffffffffffffffffffff8484612683565b905092915050565b600082612693576001905061274f565b816126a1576000905061274f565b81600181146126b757600281146126c1576126f0565b600191505061274f565b60ff8411156126d3576126d26128c6565b5b8360020a9150848211156126ea576126e96128c6565b5b5061274f565b5060208310610133831016604e8410600b84101617156127255782820a9050838111156127205761271f6128c6565b5b61274f565b61273284848460016125e5565b92509050818404811115612749576127486128c6565b5b81810290505b9392505050565b6000612761826127f8565b915061276c836127f8565b9250817fffffffffffffffffffffffffffffffffffffffffffffffffffffffffffffffff04831182151516156127a5576127a46128c6565b5b828202905092915050565b60006127bb826127d8565b9050919050565b60008115159050919050565b6000819050919050565b600073ffffffffffffffffffffffffffffffffffffffff82169050919050565b6000819050919050565b600060ff82169050919050565b600061281a82612802565b9050919050565b82818337600083830152505050565b60005b8381101561284e578082015181840152602081019050612833565b8381111561285d576000848401525b50505050565b6000600282049050600182168061287b57607f821691505b6020821081141561288f5761288e6128f5565b5b50919050565b61289e82612967565b810181811067ffffffffffffffff821117156128bd576128bc612924565b5b80604052505050565b7f4e487b7100000000000000000000000000000000000000000000000000000000600052601160045260246000fd5b7f4e487b7100000000000000000000000000000000000000000000000000000000600052602260045260246000fd5b7f4e487b7100000000000000000000000000000000000000000000000000000000600052604160045260246000fd5b600080fd5b600080fd5b600080fd5b600080fd5b6000601f19601f8301169050919050565b60008160011c9050919050565b7f45524332303a207472616e7366657220746f20746865207a65726f206164647260008201527f6573730000000000000000000000000000000000000000000000000000000000602082015250565b7f4f776e61626c653a206e6577206f776e657220697320746865207a65726f206160008201527f6464726573730000000000000000000000000000000000000000000000000000602082015250565b7f45524332303a20617070726f766520746f20746865207a65726f20616464726560008201527f7373000000000000000000000000000000000000000000000000000000000000602082015250565b7f46756e6374696f6e206d7573742062652063616c6c6564207468726f7567682060008201527f64656c656761746563616c6c0000000000000000000000000000000000000000602082015250565b7f45524332303a20696e73756666696369656e7420616c6c6f77616e6365000000600082015250565b7f45524332303a207472616e7366657220616d6f756e742065786365656473206260008201527f616c616e63650000000000000000000000000000000000000000000000000000602082015250565b7f46756e6374696f6e206d7573742062652063616c6c6564207468726f7567682060008201527f6163746976652070726f78790000000000000000000000000000000000000000602082015250565b7f555550535570677261646561626c653a206d757374206e6f742062652063616c60008201527f6c6564207468726f7567682064656c656761746563616c6c0000000000000000602082015250565b7f45524331393637557067726164653a20756e737570706f727465642070726f7860008201527f6961626c65555549440000000000000000000000000000000000000000000000602082015250565b7f496e697469616c697a61626c653a20636f6e747261637420697320616c72656160008201527f647920696e697469616c697a6564000000000000000000000000000000000000602082015250565b7f45524331393637557067726164653a206e657720696d706c656d656e7461746960008201527f6f6e206973206e6f742055555053000000000000000000000000000000000000602082015250565b7f455243313936373a206e657720696d706c656d656e746174696f6e206973206e60008201527f6f74206120636f6e747261637400000000000000000000000000000000000000602082015250565b7f4f776e61626c653a2063616c6c6572206973206e6f7420746865206f776e6572600082015250565b7f416464726573733a2064656c65676174652063616c6c20746f206e6f6e2d636f60008201527f6e74726163740000000000000000000000000000000000000000000000000000602082015250565b7f45524332303a207472616e736665722066726f6d20746865207a65726f20616460008201527f6472657373000000000000000000000000000000000000000000000000000000602082015250565b7f45524332303a20617070726f76652066726f6d20746865207a65726f2061646460008201527f7265737300000000000000000000000000000000000000000000000000000000602082015250565b7f496e697469616c697a61626c653a20636f6e7472616374206973206e6f74206960008201527f6e697469616c697a696e67000000000000000000000000000000000000000000602082015250565b7f45524332303a2064656372656173656420616c6c6f77616e63652062656c6f7760008201527f207a65726f000000000000000000000000000000000000000000000000000000602082015250565b7f45524332303a206d696e7420746f20746865207a65726f206164647265737300600082015250565b612ef9816127b0565b8114612f0457600080fd5b50565b612f10816127ce565b8114612f1b57600080fd5b50565b612f27816127f8565b8114612f3257600080fd5b5056fe416464726573733a206c6f772d6c6576656c2064656c65676174652063616c6c206661696c6564a2646970667358221220dbf90e1021fc539551f1c8bc7c621028132e1030f79d340dc49244455200050c64736f6c63430008070033",
					"opcodes": "PUSH1 0xA0 PUSH1 0x40 MSTORE ADDRESS PUSH20 0xFFFFFFFFFFFFFFFFFFFFFFFFFFFFFFFFFFFFFFFF AND PUSH1 0x80 SWAP1 PUSH20 0xFFFFFFFFFFFFFFFFFFFFFFFFFFFFFFFFFFFFFFFF AND PUSH1 0x60 SHL DUP2 MSTORE POP CALLVALUE DUP1 ISZERO PUSH2 0x46 JUMPI PUSH1 0x0 DUP1 REVERT JUMPDEST POP PUSH1 0x80 MLOAD PUSH1 0x60 SHR PUSH2 0x2F92 PUSH2 0x81 PUSH1 0x0 CODECOPY PUSH1 0x0 DUP2 DUP2 PUSH2 0x562 ADD MSTORE DUP2 DUP2 PUSH2 0x5F1 ADD MSTORE DUP2 DUP2 PUSH2 0x722 ADD MSTORE DUP2 DUP2 PUSH2 0x7B1 ADD MSTORE PUSH2 0x861 ADD MSTORE PUSH2 0x2F92 PUSH1 0x0 RETURN INVALID PUSH1 0x80 PUSH1 0x40 MSTORE PUSH1 0x4 CALLDATASIZE LT PUSH2 0x109 JUMPI PUSH1 0x0 CALLDATALOAD PUSH1 0xE0 SHR DUP1 PUSH4 0x70A08231 GT PUSH2 0x95 JUMPI DUP1 PUSH4 0xA457C2D7 GT PUSH2 0x64 JUMPI DUP1 PUSH4 0xA457C2D7 EQ PUSH2 0x360 JUMPI DUP1 PUSH4 0xA9059CBB EQ PUSH2 0x39D JUMPI DUP1 PUSH4 0xDD62ED3E EQ PUSH2 0x3DA JUMPI DUP1 PUSH4 0xF2FDE38B EQ PUSH2 0x417 JUMPI DUP1 PUSH4 0xFE4B84DF EQ PUSH2 0x440 JUMPI PUSH2 0x109 JUMP JUMPDEST DUP1 PUSH4 0x70A08231 EQ PUSH2 0x2B6 JUMPI DUP1 PUSH4 0x715018A6 EQ PUSH2 0x2F3 JUMPI DUP1 PUSH4 0x8DA5CB5B EQ PUSH2 0x30A JUMPI DUP1 PUSH4 0x95D89B41 EQ PUSH2 0x335 JUMPI PUSH2 0x109 JUMP JUMPDEST DUP1 PUSH4 0x313CE567 GT PUSH2 0xDC JUMPI DUP1 PUSH4 0x313CE567 EQ PUSH2 0x1DE JUMPI DUP1 PUSH4 0x3659CFE6 EQ PUSH2 0x209 JUMPI DUP1 PUSH4 0x39509351 EQ PUSH2 0x232 JUMPI DUP1 PUSH4 0x4F1EF286 EQ PUSH2 0x26F JUMPI DUP1 PUSH4 0x52D1902D EQ PUSH2 0x28B JUMPI PUSH2 0x109 JUMP JUMPDEST DUP1 PUSH4 0x6FDDE03 EQ PUSH2 0x10E JUMPI DUP1 PUSH4 0x95EA7B3 EQ PUSH2 0x139 JUMPI DUP1 PUSH4 0x18160DDD EQ PUSH2 0x176 JUMPI DUP1 PUSH4 0x23B872DD EQ PUSH2 0x1A1 JUMPI JUMPDEST PUSH1 0x0 DUP1 REVERT JUMPDEST CALLVALUE DUP1 ISZERO PUSH2 0x11A JUMPI PUSH1 0x0 DUP1 REVERT JUMPDEST POP PUSH2 0x123 PUSH2 0x469 JUMP JUMPDEST PUSH1 0x40 MLOAD PUSH2 0x130 SWAP2 SWAP1 PUSH2 0x224F JUMP JUMPDEST PUSH1 0x40 MLOAD DUP1 SWAP2 SUB SWAP1 RETURN JUMPDEST CALLVALUE DUP1 ISZERO PUSH2 0x145 JUMPI PUSH1 0x0 DUP1 REVERT JUMPDEST POP PUSH2 0x160 PUSH1 0x4 DUP1 CALLDATASIZE SUB DUP2 ADD SWAP1 PUSH2 0x15B SWAP2 SWAP1 PUSH2 0x1DD5 JUMP JUMPDEST PUSH2 0x4FB JUMP JUMPDEST PUSH1 0x40 MLOAD PUSH2 0x16D SWAP2 SWAP1 PUSH2 0x21FE JUMP JUMPDEST PUSH1 0x40 MLOAD DUP1 SWAP2 SUB SWAP1 RETURN JUMPDEST CALLVALUE DUP1 ISZERO PUSH2 0x182 JUMPI PUSH1 0x0 DUP1 REVERT JUMPDEST POP PUSH2 0x18B PUSH2 0x51E JUMP JUMPDEST PUSH1 0x40 MLOAD PUSH2 0x198 SWAP2 SWAP1 PUSH2 0x24D1 JUMP JUMPDEST PUSH1 0x40 MLOAD DUP1 SWAP2 SUB SWAP1 RETURN JUMPDEST CALLVALUE DUP1 ISZERO PUSH2 0x1AD JUMPI PUSH1 0x0 DUP1 REVERT JUMPDEST POP PUSH2 0x1C8 PUSH1 0x4 DUP1 CALLDATASIZE SUB DUP2 ADD SWAP1 PUSH2 0x1C3 SWAP2 SWAP1 PUSH2 0x1D26 JUMP JUMPDEST PUSH2 0x528 JUMP JUMPDEST PUSH1 0x40 MLOAD PUSH2 0x1D5 SWAP2 SWAP1 PUSH2 0x21FE JUMP JUMPDEST PUSH1 0x40 MLOAD DUP1 SWAP2 SUB SWAP1 RETURN JUMPDEST CALLVALUE DUP1 ISZERO PUSH2 0x1EA JUMPI PUSH1 0x0 DUP1 REVERT JUMPDEST POP PUSH2 0x1F3 PUSH2 0x557 JUMP JUMPDEST PUSH1 0x40 MLOAD PUSH2 0x200 SWAP2 SWAP1 PUSH2 0x24EC JUMP JUMPDEST PUSH1 0x40 MLOAD DUP1 SWAP2 SUB SWAP1 RETURN JUMPDEST CALLVALUE DUP1 ISZERO PUSH2 0x215 JUMPI PUSH1 0x0 DUP1 REVERT JUMPDEST POP PUSH2 0x230 PUSH1 0x4 DUP1 CALLDATASIZE SUB DUP2 ADD SWAP1 PUSH2 0x22B SWAP2 SWAP1 PUSH2 0x1CB9 JUMP JUMPDEST PUSH2 0x560 JUMP JUMPDEST STOP JUMPDEST CALLVALUE DUP1 ISZERO PUSH2 0x23E JUMPI PUSH1 0x0 DUP1 REVERT JUMPDEST POP PUSH2 0x259 PUSH1 0x4 DUP1 CALLDATASIZE SUB DUP2 ADD SWAP1 PUSH2 0x254 SWAP2 SWAP1 PUSH2 0x1DD5 JUMP JUMPDEST PUSH2 0x6E9 JUMP JUMPDEST PUSH1 0x40 MLOAD PUSH2 0x266 SWAP2 SWAP1 PUSH2 0x21FE JUMP JUMPDEST PUSH1 0x40 MLOAD DUP1 SWAP2 SUB SWAP1 RETURN JUMPDEST PUSH2 0x289 PUSH1 0x4 DUP1 CALLDATASIZE SUB DUP2 ADD SWAP1 PUSH2 0x284 SWAP2 SWAP1 PUSH2 0x1D79 JUMP JUMPDEST PUSH2 0x720 JUMP JUMPDEST STOP JUMPDEST CALLVALUE DUP1 ISZERO PUSH2 0x297 JUMPI PUSH1 0x0 DUP1 REVERT JUMPDEST POP PUSH2 0x2A0 PUSH2 0x85D JUMP JUMPDEST PUSH1 0x40 MLOAD PUSH2 0x2AD SWAP2 SWAP1 PUSH2 0x2219 JUMP JUMPDEST PUSH1 0x40 MLOAD DUP1 SWAP2 SUB SWAP1 RETURN JUMPDEST CALLVALUE DUP1 ISZERO PUSH2 0x2C2 JUMPI PUSH1 0x0 DUP1 REVERT JUMPDEST POP PUSH2 0x2DD PUSH1 0x4 DUP1 CALLDATASIZE SUB DUP2 ADD SWAP1 PUSH2 0x2D8 SWAP2 SWAP1 PUSH2 0x1CB9 JUMP JUMPDEST PUSH2 0x916 JUMP JUMPDEST PUSH1 0x40 MLOAD PUSH2 0x2EA SWAP2 SWAP1 PUSH2 0x24D1 JUMP JUMPDEST PUSH1 0x40 MLOAD DUP1 SWAP2 SUB SWAP1 RETURN JUMPDEST CALLVALUE DUP1 ISZERO PUSH2 0x2FF JUMPI PUSH1 0x0 DUP1 REVERT JUMPDEST POP PUSH2 0x308 PUSH2 0x95F JUMP JUMPDEST STOP JUMPDEST CALLVALUE DUP1 ISZERO PUSH2 0x316 JUMPI PUSH1 0x0 DUP1 REVERT JUMPDEST POP PUSH2 0x31F PUSH2 0x973 JUMP JUMPDEST PUSH1 0x40 MLOAD PUSH2 0x32C SWAP2 SWAP1 PUSH2 0x21E3 JUMP JUMPDEST PUSH1 0x40 MLOAD DUP1 SWAP2 SUB SWAP1 RETURN JUMPDEST CALLVALUE DUP1 ISZERO PUSH2 0x341 JUMPI PUSH1 0x0 DUP1 REVERT JUMPDEST POP PUSH2 0x34A PUSH2 0x99D JUMP JUMPDEST PUSH1 0x40 MLOAD PUSH2 0x357 SWAP2 SWAP1 PUSH2 0x224F JUMP JUMPDEST PUSH1 0x40 MLOAD DUP1 SWAP2 SUB SWAP1 RETURN JUMPDEST CALLVALUE DUP1 ISZERO PUSH2 0x36C JUMPI PUSH1 0x0 DUP1 REVERT JUMPDEST POP PUSH2 0x387 PUSH1 0x4 DUP1 CALLDATASIZE SUB DUP2 ADD SWAP1 PUSH2 0x382 SWAP2 SWAP1 PUSH2 0x1DD5 JUMP JUMPDEST PUSH2 0xA2F JUMP JUMPDEST PUSH1 0x40 MLOAD PUSH2 0x394 SWAP2 SWAP1 PUSH2 0x21FE JUMP JUMPDEST PUSH1 0x40 MLOAD DUP1 SWAP2 SUB SWAP1 RETURN JUMPDEST CALLVALUE DUP1 ISZERO PUSH2 0x3A9 JUMPI PUSH1 0x0 DUP1 REVERT JUMPDEST POP PUSH2 0x3C4 PUSH1 0x4 DUP1 CALLDATASIZE SUB DUP2 ADD SWAP1 PUSH2 0x3BF SWAP2 SWAP1 PUSH2 0x1DD5 JUMP JUMPDEST PUSH2 0xAA6 JUMP JUMPDEST PUSH1 0x40 MLOAD PUSH2 0x3D1 SWAP2 SWAP1 PUSH2 0x21FE JUMP JUMPDEST PUSH1 0x40 MLOAD DUP1 SWAP2 SUB SWAP1 RETURN JUMPDEST CALLVALUE DUP1 ISZERO PUSH2 0x3E6 JUMPI PUSH1 0x0 DUP1 REVERT JUMPDEST POP PUSH2 0x401 PUSH1 0x4 DUP1 CALLDATASIZE SUB DUP2 ADD SWAP1 PUSH2 0x3FC SWAP2 SWAP1 PUSH2 0x1CE6 JUMP JUMPDEST PUSH2 0xAC9 JUMP JUMPDEST PUSH1 0x40 MLOAD PUSH2 0x40E SWAP2 SWAP1 PUSH2 0x24D1 JUMP JUMPDEST PUSH1 0x40 MLOAD DUP1 SWAP2 SUB SWAP1 RETURN JUMPDEST CALLVALUE DUP1 ISZERO PUSH2 0x423 JUMPI PUSH1 0x0 DUP1 REVERT JUMPDEST POP PUSH2 0x43E PUSH1 0x4 DUP1 CALLDATASIZE SUB DUP2 ADD SWAP1 PUSH2 0x439 SWAP2 SWAP1 PUSH2 0x1CB9 JUMP JUMPDEST PUSH2 0xB50 JUMP JUMPDEST STOP JUMPDEST CALLVALUE DUP1 ISZERO PUSH2 0x44C JUMPI PUSH1 0x0 DUP1 REVERT JUMPDEST POP PUSH2 0x467 PUSH1 0x4 DUP1 CALLDATASIZE SUB DUP2 ADD SWAP1 PUSH2 0x462 SWAP2 SWAP1 PUSH2 0x1E42 JUMP JUMPDEST PUSH2 0xBD4 JUMP JUMPDEST STOP JUMPDEST PUSH1 0x60 PUSH1 0x36 DUP1 SLOAD PUSH2 0x478 SWAP1 PUSH2 0x2863 JUMP JUMPDEST DUP1 PUSH1 0x1F ADD PUSH1 0x20 DUP1 SWAP2 DIV MUL PUSH1 0x20 ADD PUSH1 0x40 MLOAD SWAP1 DUP2 ADD PUSH1 0x40 MSTORE DUP1 SWAP3 SWAP2 SWAP1 DUP2 DUP2 MSTORE PUSH1 0x20 ADD DUP3 DUP1 SLOAD PUSH2 0x4A4 SWAP1 PUSH2 0x2863 JUMP JUMPDEST DUP1 ISZERO PUSH2 0x4F1 JUMPI DUP1 PUSH1 0x1F LT PUSH2 0x4C6 JUMPI PUSH2 0x100 DUP1 DUP4 SLOAD DIV MUL DUP4 MSTORE SWAP2 PUSH1 0x20 ADD SWAP2 PUSH2 0x4F1 JUMP JUMPDEST DUP3 ADD SWAP2 SWAP1 PUSH1 0x0 MSTORE PUSH1 0x20 PUSH1 0x0 KECCAK256 SWAP1 JUMPDEST DUP2 SLOAD DUP2 MSTORE SWAP1 PUSH1 0x1 ADD SWAP1 PUSH1 0x20 ADD DUP1 DUP4 GT PUSH2 0x4D4 JUMPI DUP3 SWAP1 SUB PUSH1 0x1F AND DUP3 ADD SWAP2 JUMPDEST POP POP POP POP POP SWAP1 POP SWAP1 JUMP JUMPDEST PUSH1 0x0 DUP1 PUSH2 0x506 PUSH2 0xDB7 JUMP JUMPDEST SWAP1 POP PUSH2 0x513 DUP2 DUP6 DUP6 PUSH2 0xDBF JUMP JUMPDEST PUSH1 0x1 SWAP2 POP POP SWAP3 SWAP2 POP POP JUMP JUMPDEST PUSH1 0x0 PUSH1 0x35 SLOAD SWAP1 POP SWAP1 JUMP JUMPDEST PUSH1 0x0 DUP1 PUSH2 0x533 PUSH2 0xDB7 JUMP JUMPDEST SWAP1 POP PUSH2 0x540 DUP6 DUP3 DUP6 PUSH2 0xF8A JUMP JUMPDEST PUSH2 0x54B DUP6 DUP6 DUP6 PUSH2 0x1016 JUMP JUMPDEST PUSH1 0x1 SWAP2 POP POP SWAP4 SWAP3 POP POP POP JUMP JUMPDEST PUSH1 0x0 PUSH1 0x12 SWAP1 POP SWAP1 JUMP JUMPDEST PUSH32 0x0 PUSH20 0xFFFFFFFFFFFFFFFFFFFFFFFFFFFFFFFFFFFFFFFF AND ADDRESS PUSH20 0xFFFFFFFFFFFFFFFFFFFFFFFFFFFFFFFFFFFFFFFF AND EQ ISZERO PUSH2 0x5EF JUMPI PUSH1 0x40 MLOAD PUSH32 0x8C379A000000000000000000000000000000000000000000000000000000000 DUP2 MSTORE PUSH1 0x4 ADD PUSH2 0x5E6 SWAP1 PUSH2 0x22D1 JUMP JUMPDEST PUSH1 0x40 MLOAD DUP1 SWAP2 SUB SWAP1 REVERT JUMPDEST PUSH32 0x0 PUSH20 0xFFFFFFFFFFFFFFFFFFFFFFFFFFFFFFFFFFFFFFFF AND PUSH2 0x62E PUSH2 0x1291 JUMP JUMPDEST PUSH20 0xFFFFFFFFFFFFFFFFFFFFFFFFFFFFFFFFFFFFFFFF AND EQ PUSH2 0x684 JUMPI PUSH1 0x40 MLOAD PUSH32 0x8C379A000000000000000000000000000000000000000000000000000000000 DUP2 MSTORE PUSH1 0x4 ADD PUSH2 0x67B SWAP1 PUSH2 0x2331 JUMP JUMPDEST PUSH1 0x40 MLOAD DUP1 SWAP2 SUB SWAP1 REVERT JUMPDEST PUSH2 0x68D DUP2 PUSH2 0x12E8 JUMP JUMPDEST PUSH2 0x6E6 DUP2 PUSH1 0x0 PUSH8 0xFFFFFFFFFFFFFFFF DUP2 GT ISZERO PUSH2 0x6AC JUMPI PUSH2 0x6AB PUSH2 0x2924 JUMP JUMPDEST JUMPDEST PUSH1 0x40 MLOAD SWAP1 DUP1 DUP3 MSTORE DUP1 PUSH1 0x1F ADD PUSH1 0x1F NOT AND PUSH1 0x20 ADD DUP3 ADD PUSH1 0x40 MSTORE DUP1 ISZERO PUSH2 0x6DE JUMPI DUP2 PUSH1 0x20 ADD PUSH1 0x1 DUP3 MUL DUP1 CALLDATASIZE DUP4 CALLDATACOPY DUP1 DUP3 ADD SWAP2 POP POP SWAP1 POP JUMPDEST POP PUSH1 0x0 PUSH2 0x12F3 JUMP JUMPDEST POP JUMP JUMPDEST PUSH1 0x0 DUP1 PUSH2 0x6F4 PUSH2 0xDB7 JUMP JUMPDEST SWAP1 POP PUSH2 0x715 DUP2 DUP6 DUP6 PUSH2 0x706 DUP6 DUP10 PUSH2 0xAC9 JUMP JUMPDEST PUSH2 0x710 SWAP2 SWAP1 PUSH2 0x258F JUMP JUMPDEST PUSH2 0xDBF JUMP JUMPDEST PUSH1 0x1 SWAP2 POP POP SWAP3 SWAP2 POP POP JUMP JUMPDEST PUSH32 0x0 PUSH20 0xFFFFFFFFFFFFFFFFFFFFFFFFFFFFFFFFFFFFFFFF AND ADDRESS PUSH20 0xFFFFFFFFFFFFFFFFFFFFFFFFFFFFFFFFFFFFFFFF AND EQ ISZERO PUSH2 0x7AF JUMPI PUSH1 0x40 MLOAD PUSH32 0x8C379A000000000000000000000000000000000000000000000000000000000 DUP2 MSTORE PUSH1 0x4 ADD PUSH2 0x7A6 SWAP1 PUSH2 0x22D1 JUMP JUMPDEST PUSH1 0x40 MLOAD DUP1 SWAP2 SUB SWAP1 REVERT JUMPDEST PUSH32 0x0 PUSH20 0xFFFFFFFFFFFFFFFFFFFFFFFFFFFFFFFFFFFFFFFF AND PUSH2 0x7EE PUSH2 0x1291 JUMP JUMPDEST PUSH20 0xFFFFFFFFFFFFFFFFFFFFFFFFFFFFFFFFFFFFFFFF AND EQ PUSH2 0x844 JUMPI PUSH1 0x40 MLOAD PUSH32 0x8C379A000000000000000000000000000000000000000000000000000000000 DUP2 MSTORE PUSH1 0x4 ADD PUSH2 0x83B SWAP1 PUSH2 0x2331 JUMP JUMPDEST PUSH1 0x40 MLOAD DUP1 SWAP2 SUB SWAP1 REVERT JUMPDEST PUSH2 0x84D DUP3 PUSH2 0x12E8 JUMP JUMPDEST PUSH2 0x859 DUP3 DUP3 PUSH1 0x1 PUSH2 0x12F3 JUMP JUMPDEST POP POP JUMP JUMPDEST PUSH1 0x0 PUSH32 0x0 PUSH20 0xFFFFFFFFFFFFFFFFFFFFFFFFFFFFFFFFFFFFFFFF AND ADDRESS PUSH20 0xFFFFFFFFFFFFFFFFFFFFFFFFFFFFFFFFFFFFFFFF AND EQ PUSH2 0x8ED JUMPI PUSH1 0x40 MLOAD PUSH32 0x8C379A000000000000000000000000000000000000000000000000000000000 DUP2 MSTORE PUSH1 0x4 ADD PUSH2 0x8E4 SWAP1 PUSH2 0x2351 JUMP JUMPDEST PUSH1 0x40 MLOAD DUP1 SWAP2 SUB SWAP1 REVERT JUMPDEST PUSH32 0x360894A13BA1A3210667C828492DB98DCA3E2076CC3735A920A3CA505D382BBC PUSH1 0x0 SHL SWAP1 POP SWAP1 JUMP JUMPDEST PUSH1 0x0 PUSH1 0x33 PUSH1 0x0 DUP4 PUSH20 0xFFFFFFFFFFFFFFFFFFFFFFFFFFFFFFFFFFFFFFFF AND PUSH20 0xFFFFFFFFFFFFFFFFFFFFFFFFFFFFFFFFFFFFFFFF AND DUP2 MSTORE PUSH1 0x20 ADD SWAP1 DUP2 MSTORE PUSH1 0x20 ADD PUSH1 0x0 KECCAK256 SLOAD SWAP1 POP SWAP2 SWAP1 POP JUMP JUMPDEST PUSH2 0x967 PUSH2 0x1470 JUMP JUMPDEST PUSH2 0x971 PUSH1 0x0 PUSH2 0x14EE JUMP JUMPDEST JUMP JUMPDEST PUSH1 0x0 PUSH1 0xC9 PUSH1 0x0 SWAP1 SLOAD SWAP1 PUSH2 0x100 EXP SWAP1 DIV PUSH20 0xFFFFFFFFFFFFFFFFFFFFFFFFFFFFFFFFFFFFFFFF AND SWAP1 POP SWAP1 JUMP JUMPDEST PUSH1 0x60 PUSH1 0x37 DUP1 SLOAD PUSH2 0x9AC SWAP1 PUSH2 0x2863 JUMP JUMPDEST DUP1 PUSH1 0x1F ADD PUSH1 0x20 DUP1 SWAP2 DIV MUL PUSH1 0x20 ADD PUSH1 0x40 MLOAD SWAP1 DUP2 ADD PUSH1 0x40 MSTORE DUP1 SWAP3 SWAP2 SWAP1 DUP2 DUP2 MSTORE PUSH1 0x20 ADD DUP3 DUP1 SLOAD PUSH2 0x9D8 SWAP1 PUSH2 0x2863 JUMP JUMPDEST DUP1 ISZERO PUSH2 0xA25 JUMPI DUP1 PUSH1 0x1F LT PUSH2 0x9FA JUMPI PUSH2 0x100 DUP1 DUP4 SLOAD DIV MUL DUP4 MSTORE SWAP2 PUSH1 0x20 ADD SWAP2 PUSH2 0xA25 JUMP JUMPDEST DUP3 ADD SWAP2 SWAP1 PUSH1 0x0 MSTORE PUSH1 0x20 PUSH1 0x0 KECCAK256 SWAP1 JUMPDEST DUP2 SLOAD DUP2 MSTORE SWAP1 PUSH1 0x1 ADD SWAP1 PUSH1 0x20 ADD DUP1 DUP4 GT PUSH2 0xA08 JUMPI DUP3 SWAP1 SUB PUSH1 0x1F AND DUP3 ADD SWAP2 JUMPDEST POP POP POP POP POP SWAP1 POP SWAP1 JUMP JUMPDEST PUSH1 0x0 DUP1 PUSH2 0xA3A PUSH2 0xDB7 JUMP JUMPDEST SWAP1 POP PUSH1 0x0 PUSH2 0xA48 DUP3 DUP7 PUSH2 0xAC9 JUMP JUMPDEST SWAP1 POP DUP4 DUP2 LT ISZERO PUSH2 0xA8D JUMPI PUSH1 0x40 MLOAD PUSH32 0x8C379A000000000000000000000000000000000000000000000000000000000 DUP2 MSTORE PUSH1 0x4 ADD PUSH2 0xA84 SWAP1 PUSH2 0x2491 JUMP JUMPDEST PUSH1 0x40 MLOAD DUP1 SWAP2 SUB SWAP1 REVERT JUMPDEST PUSH2 0xA9A DUP3 DUP7 DUP7 DUP5 SUB PUSH2 0xDBF JUMP JUMPDEST PUSH1 0x1 SWAP3 POP POP POP SWAP3 SWAP2 POP POP JUMP JUMPDEST PUSH1 0x0 DUP1 PUSH2 0xAB1 PUSH2 0xDB7 JUMP JUMPDEST SWAP1 POP PUSH2 0xABE DUP2 DUP6 DUP6 PUSH2 0x1016 JUMP JUMPDEST PUSH1 0x1 SWAP2 POP POP SWAP3 SWAP2 POP POP JUMP JUMPDEST PUSH1 0x0 PUSH1 0x34 PUSH1 0x0 DUP5 PUSH20 0xFFFFFFFFFFFFFFFFFFFFFFFFFFFFFFFFFFFFFFFF AND PUSH20 0xFFFFFFFFFFFFFFFFFFFFFFFFFFFFFFFFFFFFFFFF AND DUP2 MSTORE PUSH1 0x20 ADD SWAP1 DUP2 MSTORE PUSH1 0x20 ADD PUSH1 0x0 KECCAK256 PUSH1 0x0 DUP4 PUSH20 0xFFFFFFFFFFFFFFFFFFFFFFFFFFFFFFFFFFFFFFFF AND PUSH20 0xFFFFFFFFFFFFFFFFFFFFFFFFFFFFFFFFFFFFFFFF AND DUP2 MSTORE PUSH1 0x20 ADD SWAP1 DUP2 MSTORE PUSH1 0x20 ADD PUSH1 0x0 KECCAK256 SLOAD SWAP1 POP SWAP3 SWAP2 POP POP JUMP JUMPDEST PUSH2 0xB58 PUSH2 0x1470 JUMP JUMPDEST PUSH1 0x0 PUSH20 0xFFFFFFFFFFFFFFFFFFFFFFFFFFFFFFFFFFFFFFFF AND DUP2 PUSH20 0xFFFFFFFFFFFFFFFFFFFFFFFFFFFFFFFFFFFFFFFF AND EQ ISZERO PUSH2 0xBC8 JUMPI PUSH1 0x40 MLOAD PUSH32 0x8C379A000000000000000000000000000000000000000000000000000000000 DUP2 MSTORE PUSH1 0x4 ADD PUSH2 0xBBF SWAP1 PUSH2 0x2291 JUMP JUMPDEST PUSH1 0x40 MLOAD DUP1 SWAP2 SUB SWAP1 REVERT JUMPDEST PUSH2 0xBD1 DUP2 PUSH2 0x14EE JUMP JUMPDEST POP JUMP JUMPDEST PUSH1 0x0 DUP1 PUSH1 0x1 SWAP1 SLOAD SWAP1 PUSH2 0x100 EXP SWAP1 DIV PUSH1 0xFF AND ISZERO SWAP1 POP DUP1 DUP1 ISZERO PUSH2 0xC05 JUMPI POP PUSH1 0x1 PUSH1 0x0 DUP1 SLOAD SWAP1 PUSH2 0x100 EXP SWAP1 DIV PUSH1 0xFF AND PUSH1 0xFF AND LT JUMPDEST DUP1 PUSH2 0xC32 JUMPI POP PUSH2 0xC14 ADDRESS PUSH2 0x15B4 JUMP JUMPDEST ISZERO DUP1 ISZERO PUSH2 0xC31 JUMPI POP PUSH1 0x1 PUSH1 0x0 DUP1 SLOAD SWAP1 PUSH2 0x100 EXP SWAP1 DIV PUSH1 0xFF AND PUSH1 0xFF AND EQ JUMPDEST JUMPDEST PUSH2 0xC71 JUMPI PUSH1 0x40 MLOAD PUSH32 0x8C379A000000000000000000000000000000000000000000000000000000000 DUP2 MSTORE PUSH1 0x4 ADD PUSH2 0xC68 SWAP1 PUSH2 0x2391 JUMP JUMPDEST PUSH1 0x40 MLOAD DUP1 SWAP2 SUB SWAP1 REVERT JUMPDEST PUSH1 0x1 PUSH1 0x0 DUP1 PUSH2 0x100 EXP DUP2 SLOAD DUP2 PUSH1 0xFF MUL NOT AND SWAP1 DUP4 PUSH1 0xFF AND MUL OR SWAP1 SSTORE POP DUP1 ISZERO PUSH2 0xCAE JUMPI PUSH1 0x1 PUSH1 0x0 PUSH1 0x1 PUSH2 0x100 EXP DUP2 SLOAD DUP2 PUSH1 0xFF MUL NOT AND SWAP1 DUP4 ISZERO ISZERO MUL OR SWAP1 SSTORE POP JUMPDEST PUSH2 0xD22 PUSH1 0x40 MLOAD DUP1 PUSH1 0x40 ADD PUSH1 0x40 MSTORE DUP1 PUSH1 0xB DUP2 MSTORE PUSH1 0x20 ADD PUSH32 0x506C61747A69546F6B656E000000000000000000000000000000000000000000 DUP2 MSTORE POP PUSH1 0x40 MLOAD DUP1 PUSH1 0x40 ADD PUSH1 0x40 MSTORE DUP1 PUSH1 0x3 DUP2 MSTORE PUSH1 0x20 ADD PUSH32 0x504C5A0000000000000000000000000000000000000000000000000000000000 DUP2 MSTORE POP PUSH2 0x15D7 JUMP JUMPDEST PUSH2 0xD2A PUSH2 0x1634 JUMP JUMPDEST PUSH2 0xD32 PUSH2 0x1695 JUMP JUMPDEST PUSH2 0xD5A CALLER PUSH2 0xD3E PUSH2 0x557 JUMP JUMPDEST PUSH1 0xA PUSH2 0xD4A SWAP2 SWAP1 PUSH2 0x2638 JUMP JUMPDEST DUP5 PUSH2 0xD55 SWAP2 SWAP1 PUSH2 0x2756 JUMP JUMPDEST PUSH2 0x16E6 JUMP JUMPDEST DUP1 ISZERO PUSH2 0xDB3 JUMPI PUSH1 0x0 DUP1 PUSH1 0x1 PUSH2 0x100 EXP DUP2 SLOAD DUP2 PUSH1 0xFF MUL NOT AND SWAP1 DUP4 ISZERO ISZERO MUL OR SWAP1 SSTORE POP PUSH32 0x7F26B83FF96E1F2B6A682F133852F6798A09C465DA95921460CEFB3847402498 PUSH1 0x1 PUSH1 0x40 MLOAD PUSH2 0xDAA SWAP2 SWAP1 PUSH2 0x2234 JUMP JUMPDEST PUSH1 0x40 MLOAD DUP1 SWAP2 SUB SWAP1 LOG1 JUMPDEST POP POP JUMP JUMPDEST PUSH1 0x0 CALLER SWAP1 POP SWAP1 JUMP JUMPDEST PUSH1 0x0 PUSH20 0xFFFFFFFFFFFFFFFFFFFFFFFFFFFFFFFFFFFFFFFF AND DUP4 PUSH20 0xFFFFFFFFFFFFFFFFFFFFFFFFFFFFFFFFFFFFFFFF AND EQ ISZERO PUSH2 0xE2F JUMPI PUSH1 0x40 MLOAD PUSH32 0x8C379A000000000000000000000000000000000000000000000000000000000 DUP2 MSTORE PUSH1 0x4 ADD PUSH2 0xE26 SWAP1 PUSH2 0x2451 JUMP JUMPDEST PUSH1 0x40 MLOAD DUP1 SWAP2 SUB SWAP1 REVERT JUMPDEST PUSH1 0x0 PUSH20 0xFFFFFFFFFFFFFFFFFFFFFFFFFFFFFFFFFFFFFFFF AND DUP3 PUSH20 0xFFFFFFFFFFFFFFFFFFFFFFFFFFFFFFFFFFFFFFFF AND EQ ISZERO PUSH2 0xE9F JUMPI PUSH1 0x40 MLOAD PUSH32 0x8C379A000000000000000000000000000000000000000000000000000000000 DUP2 MSTORE PUSH1 0x4 ADD PUSH2 0xE96 SWAP1 PUSH2 0x22B1 JUMP JUMPDEST PUSH1 0x40 MLOAD DUP1 SWAP2 SUB SWAP1 REVERT JUMPDEST DUP1 PUSH1 0x34 PUSH1 0x0 DUP6 PUSH20 0xFFFFFFFFFFFFFFFFFFFFFFFFFFFFFFFFFFFFFFFF AND PUSH20 0xFFFFFFFFFFFFFFFFFFFFFFFFFFFFFFFFFFFFFFFF AND DUP2 MSTORE PUSH1 0x20 ADD SWAP1 DUP2 MSTORE PUSH1 0x20 ADD PUSH1 0x0 KECCAK256 PUSH1 0x0 DUP5 PUSH20 0xFFFFFFFFFFFFFFFFFFFFFFFFFFFFFFFFFFFFFFFF AND PUSH20 0xFFFFFFFFFFFFFFFFFFFFFFFFFFFFFFFFFFFFFFFF AND DUP2 MSTORE PUSH1 0x20 ADD SWAP1 DUP2 MSTORE PUSH1 0x20 ADD PUSH1 0x0 KECCAK256 DUP2 SWAP1 SSTORE POP DUP2 PUSH20 0xFFFFFFFFFFFFFFFFFFFFFFFFFFFFFFFFFFFFFFFF AND DUP4 PUSH20 0xFFFFFFFFFFFFFFFFFFFFFFFFFFFFFFFFFFFFFFFF AND PUSH32 0x8C5BE1E5EBEC7D5BD14F71427D1E84F3DD0314C0F7B2291E5B200AC8C7C3B925 DUP4 PUSH1 0x40 MLOAD PUSH2 0xF7D SWAP2 SWAP1 PUSH2 0x24D1 JUMP JUMPDEST PUSH1 0x40 MLOAD DUP1 SWAP2 SUB SWAP1 LOG3 POP POP POP JUMP JUMPDEST PUSH1 0x0 PUSH2 0xF96 DUP5 DUP5 PUSH2 0xAC9 JUMP JUMPDEST SWAP1 POP PUSH32 0xFFFFFFFFFFFFFFFFFFFFFFFFFFFFFFFFFFFFFFFFFFFFFFFFFFFFFFFFFFFFFFFF DUP2 EQ PUSH2 0x1010 JUMPI DUP2 DUP2 LT ISZERO PUSH2 0x1002 JUMPI PUSH1 0x40 MLOAD PUSH32 0x8C379A000000000000000000000000000000000000000000000000000000000 DUP2 MSTORE PUSH1 0x4 ADD PUSH2 0xFF9 SWAP1 PUSH2 0x22F1 JUMP JUMPDEST PUSH1 0x40 MLOAD DUP1 SWAP2 SUB SWAP1 REVERT JUMPDEST PUSH2 0x100F DUP5 DUP5 DUP5 DUP5 SUB PUSH2 0xDBF JUMP JUMPDEST JUMPDEST POP POP POP POP JUMP JUMPDEST PUSH1 0x0 PUSH20 0xFFFFFFFFFFFFFFFFFFFFFFFFFFFFFFFFFFFFFFFF AND DUP4 PUSH20 0xFFFFFFFFFFFFFFFFFFFFFFFFFFFFFFFFFFFFFFFF AND EQ ISZERO PUSH2 0x1086 JUMPI PUSH1 0x40 MLOAD PUSH32 0x8C379A000000000000000000000000000000000000000000000000000000000 DUP2 MSTORE PUSH1 0x4 ADD PUSH2 0x107D SWAP1 PUSH2 0x2431 JUMP JUMPDEST PUSH1 0x40 MLOAD DUP1 SWAP2 SUB SWAP1 REVERT JUMPDEST PUSH1 0x0 PUSH20 0xFFFFFFFFFFFFFFFFFFFFFFFFFFFFFFFFFFFFFFFF AND DUP3 PUSH20 0xFFFFFFFFFFFFFFFFFFFFFFFFFFFFFFFFFFFFFFFF AND EQ ISZERO PUSH2 0x10F6 JUMPI PUSH1 0x40 MLOAD PUSH32 0x8C379A000000000000000000000000000000000000000000000000000000000 DUP2 MSTORE PUSH1 0x4 ADD PUSH2 0x10ED SWAP1 PUSH2 0x2271 JUMP JUMPDEST PUSH1 0x40 MLOAD DUP1 SWAP2 SUB SWAP1 REVERT JUMPDEST PUSH2 0x1101 DUP4 DUP4 DUP4 PUSH2 0x183E JUMP JUMPDEST PUSH1 0x0 PUSH1 0x33 PUSH1 0x0 DUP6 PUSH20 0xFFFFFFFFFFFFFFFFFFFFFFFFFFFFFFFFFFFFFFFF AND PUSH20 0xFFFFFFFFFFFFFFFFFFFFFFFFFFFFFFFFFFFFFFFF AND DUP2 MSTORE PUSH1 0x20 ADD SWAP1 DUP2 MSTORE PUSH1 0x20 ADD PUSH1 0x0 KECCAK256 SLOAD SWAP1 POP DUP2 DUP2 LT ISZERO PUSH2 0x1188 JUMPI PUSH1 0x40 MLOAD PUSH32 0x8C379A000000000000000000000000000000000000000000000000000000000 DUP2 MSTORE PUSH1 0x4 ADD PUSH2 0x117F SWAP1 PUSH2 0x2311 JUMP JUMPDEST PUSH1 0x40 MLOAD DUP1 SWAP2 SUB SWAP1 REVERT JUMPDEST DUP2 DUP2 SUB PUSH1 0x33 PUSH1 0x0 DUP7 PUSH20 0xFFFFFFFFFFFFFFFFFFFFFFFFFFFFFFFFFFFFFFFF AND PUSH20 0xFFFFFFFFFFFFFFFFFFFFFFFFFFFFFFFFFFFFFFFF AND DUP2 MSTORE PUSH1 0x20 ADD SWAP1 DUP2 MSTORE PUSH1 0x20 ADD PUSH1 0x0 KECCAK256 DUP2 SWAP1 SSTORE POP DUP2 PUSH1 0x33 PUSH1 0x0 DUP6 PUSH20 0xFFFFFFFFFFFFFFFFFFFFFFFFFFFFFFFFFFFFFFFF AND PUSH20 0xFFFFFFFFFFFFFFFFFFFFFFFFFFFFFFFFFFFFFFFF AND DUP2 MSTORE PUSH1 0x20 ADD SWAP1 DUP2 MSTORE PUSH1 0x20 ADD PUSH1 0x0 KECCAK256 PUSH1 0x0 DUP3 DUP3 SLOAD ADD SWAP3 POP POP DUP2 SWAP1 SSTORE POP DUP3 PUSH20 0xFFFFFFFFFFFFFFFFFFFFFFFFFFFFFFFFFFFFFFFF AND DUP5 PUSH20 0xFFFFFFFFFFFFFFFFFFFFFFFFFFFFFFFFFFFFFFFF AND PUSH32 0xDDF252AD1BE2C89B69C2B068FC378DAA952BA7F163C4A11628F55A4DF523B3EF DUP5 PUSH1 0x40 MLOAD PUSH2 0x1278 SWAP2 SWAP1 PUSH2 0x24D1 JUMP JUMPDEST PUSH1 0x40 MLOAD DUP1 SWAP2 SUB SWAP1 LOG3 PUSH2 0x128B DUP5 DUP5 DUP5 PUSH2 0x1843 JUMP JUMPDEST POP POP POP POP JUMP JUMPDEST PUSH1 0x0 PUSH2 0x12BF PUSH32 0x360894A13BA1A3210667C828492DB98DCA3E2076CC3735A920A3CA505D382BBC PUSH1 0x0 SHL PUSH2 0x1848 JUMP JUMPDEST PUSH1 0x0 ADD PUSH1 0x0 SWAP1 SLOAD SWAP1 PUSH2 0x100 EXP SWAP1 DIV PUSH20 0xFFFFFFFFFFFFFFFFFFFFFFFFFFFFFFFFFFFFFFFF AND SWAP1 POP SWAP1 JUMP JUMPDEST PUSH2 0x12F0 PUSH2 0x1470 JUMP JUMPDEST POP JUMP JUMPDEST PUSH2 0x131F PUSH32 0x4910FDFA16FED3260ED0E7147F7CC6DA11A60208B5B9406D12A635614FFD9143 PUSH1 0x0 SHL PUSH2 0x1852 JUMP JUMPDEST PUSH1 0x0 ADD PUSH1 0x0 SWAP1 SLOAD SWAP1 PUSH2 0x100 EXP SWAP1 DIV PUSH1 0xFF AND ISZERO PUSH2 0x1343 JUMPI PUSH2 0x133E DUP4 PUSH2 0x185C JUMP JUMPDEST PUSH2 0x146B JUMP JUMPDEST DUP3 PUSH20 0xFFFFFFFFFFFFFFFFFFFFFFFFFFFFFFFFFFFFFFFF AND PUSH4 0x52D1902D PUSH1 0x40 MLOAD DUP2 PUSH4 0xFFFFFFFF AND PUSH1 0xE0 SHL DUP2 MSTORE PUSH1 0x4 ADD PUSH1 0x20 PUSH1 0x40 MLOAD DUP1 DUP4 SUB DUP2 DUP7 DUP1 EXTCODESIZE ISZERO DUP1 ISZERO PUSH2 0x1389 JUMPI PUSH1 0x0 DUP1 REVERT JUMPDEST POP GAS STATICCALL SWAP3 POP POP POP DUP1 ISZERO PUSH2 0x13BA JUMPI POP PUSH1 0x40 MLOAD RETURNDATASIZE PUSH1 0x1F NOT PUSH1 0x1F DUP3 ADD AND DUP3 ADD DUP1 PUSH1 0x40 MSTORE POP DUP2 ADD SWAP1 PUSH2 0x13B7 SWAP2 SWAP1 PUSH2 0x1E15 JUMP JUMPDEST PUSH1 0x1 JUMPDEST PUSH2 0x13F9 JUMPI PUSH1 0x40 MLOAD PUSH32 0x8C379A000000000000000000000000000000000000000000000000000000000 DUP2 MSTORE PUSH1 0x4 ADD PUSH2 0x13F0 SWAP1 PUSH2 0x23B1 JUMP JUMPDEST PUSH1 0x40 MLOAD DUP1 SWAP2 SUB SWAP1 REVERT JUMPDEST PUSH32 0x360894A13BA1A3210667C828492DB98DCA3E2076CC3735A920A3CA505D382BBC PUSH1 0x0 SHL DUP2 EQ PUSH2 0x145E JUMPI PUSH1 0x40 MLOAD PUSH32 0x8C379A000000000000000000000000000000000000000000000000000000000 DUP2 MSTORE PUSH1 0x4 ADD PUSH2 0x1455 SWAP1 PUSH2 0x2371 JUMP JUMPDEST PUSH1 0x40 MLOAD DUP1 SWAP2 SUB SWAP1 REVERT JUMPDEST POP PUSH2 0x146A DUP4 DUP4 DUP4 PUSH2 0x1915 JUMP JUMPDEST JUMPDEST POP POP POP JUMP JUMPDEST PUSH2 0x1478 PUSH2 0xDB7 JUMP JUMPDEST PUSH20 0xFFFFFFFFFFFFFFFFFFFFFFFFFFFFFFFFFFFFFFFF AND PUSH2 0x1496 PUSH2 0x973 JUMP JUMPDEST PUSH20 0xFFFFFFFFFFFFFFFFFFFFFFFFFFFFFFFFFFFFFFFF AND EQ PUSH2 0x14EC JUMPI PUSH1 0x40 MLOAD PUSH32 0x8C379A000000000000000000000000000000000000000000000000000000000 DUP2 MSTORE PUSH1 0x4 ADD PUSH2 0x14E3 SWAP1 PUSH2 0x23F1 JUMP JUMPDEST PUSH1 0x40 MLOAD DUP1 SWAP2 SUB SWAP1 REVERT JUMPDEST JUMP JUMPDEST PUSH1 0x0 PUSH1 0xC9 PUSH1 0x0 SWAP1 SLOAD SWAP1 PUSH2 0x100 EXP SWAP1 DIV PUSH20 0xFFFFFFFFFFFFFFFFFFFFFFFFFFFFFFFFFFFFFFFF AND SWAP1 POP DUP2 PUSH1 0xC9 PUSH1 0x0 PUSH2 0x100 EXP DUP2 SLOAD DUP2 PUSH20 0xFFFFFFFFFFFFFFFFFFFFFFFFFFFFFFFFFFFFFFFF MUL NOT AND SWAP1 DUP4 PUSH20 0xFFFFFFFFFFFFFFFFFFFFFFFFFFFFFFFFFFFFFFFF AND MUL OR SWAP1 SSTORE POP DUP2 PUSH20 0xFFFFFFFFFFFFFFFFFFFFFFFFFFFFFFFFFFFFFFFF AND DUP2 PUSH20 0xFFFFFFFFFFFFFFFFFFFFFFFFFFFFFFFFFFFFFFFF AND PUSH32 0x8BE0079C531659141344CD1FD0A4F28419497F9722A3DAAFE3B4186F6B6457E0 PUSH1 0x40 MLOAD PUSH1 0x40 MLOAD DUP1 SWAP2 SUB SWAP1 LOG3 POP POP JUMP JUMPDEST PUSH1 0x0 DUP1 DUP3 PUSH20 0xFFFFFFFFFFFFFFFFFFFFFFFFFFFFFFFFFFFFFFFF AND EXTCODESIZE GT SWAP1 POP SWAP2 SWAP1 POP JUMP JUMPDEST PUSH1 0x0 PUSH1 0x1 SWAP1 SLOAD SWAP1 PUSH2 0x100 EXP SWAP1 DIV PUSH1 0xFF AND PUSH2 0x1626 JUMPI PUSH1 0x40 MLOAD PUSH32 0x8C379A000000000000000000000000000000000000000000000000000000000 DUP2 MSTORE PUSH1 0x4 ADD PUSH2 0x161D SWAP1 PUSH2 0x2471 JUMP JUMPDEST PUSH1 0x40 MLOAD DUP1 SWAP2 SUB SWAP1 REVERT JUMPDEST PUSH2 0x1630 DUP3 DUP3 PUSH2 0x1941 JUMP JUMPDEST POP POP JUMP JUMPDEST PUSH1 0x0 PUSH1 0x1 SWAP1 SLOAD SWAP1 PUSH2 0x100 EXP SWAP1 DIV PUSH1 0xFF AND PUSH2 0x1683 JUMPI PUSH1 0x40 MLOAD PUSH32 0x8C379A000000000000000000000000000000000000000000000000000000000 DUP2 MSTORE PUSH1 0x4 ADD PUSH2 0x167A SWAP1 PUSH2 0x2471 JUMP JUMPDEST PUSH1 0x40 MLOAD DUP1 SWAP2 SUB SWAP1 REVERT JUMPDEST PUSH2 0x1693 PUSH2 0x168E PUSH2 0xDB7 JUMP JUMPDEST PUSH2 0x14EE JUMP JUMPDEST JUMP JUMPDEST PUSH1 0x0 PUSH1 0x1 SWAP1 SLOAD SWAP1 PUSH2 0x100 EXP SWAP1 DIV PUSH1 0xFF AND PUSH2 0x16E4 JUMPI PUSH1 0x40 MLOAD PUSH32 0x8C379A000000000000000000000000000000000000000000000000000000000 DUP2 MSTORE PUSH1 0x4 ADD PUSH2 0x16DB SWAP1 PUSH2 0x2471 JUMP JUMPDEST PUSH1 0x40 MLOAD DUP1 SWAP2 SUB SWAP1 REVERT JUMPDEST JUMP JUMPDEST PUSH1 0x0 PUSH20 0xFFFFFFFFFFFFFFFFFFFFFFFFFFFFFFFFFFFFFFFF AND DUP3 PUSH20 0xFFFFFFFFFFFFFFFFFFFFFFFFFFFFFFFFFFFFFFFF AND EQ ISZERO PUSH2 0x1756 JUMPI PUSH1 0x40 MLOAD PUSH32 0x8C379A000000000000000000000000000000000000000000000000000000000 DUP2 MSTORE PUSH1 0x4 ADD PUSH2 0x174D SWAP1 PUSH2 0x24B1 JUMP JUMPDEST PUSH1 0x40 MLOAD DUP1 SWAP2 SUB SWAP1 REVERT JUMPDEST PUSH2 0x1762 PUSH1 0x0 DUP4 DUP4 PUSH2 0x183E JUMP JUMPDEST DUP1 PUSH1 0x35 PUSH1 0x0 DUP3 DUP3 SLOAD PUSH2 0x1774 SWAP2 SWAP1 PUSH2 0x258F JUMP JUMPDEST SWAP3 POP POP DUP2 SWAP1 SSTORE POP DUP1 PUSH1 0x33 PUSH1 0x0 DUP5 PUSH20 0xFFFFFFFFFFFFFFFFFFFFFFFFFFFFFFFFFFFFFFFF AND PUSH20 0xFFFFFFFFFFFFFFFFFFFFFFFFFFFFFFFFFFFFFFFF AND DUP2 MSTORE PUSH1 0x20 ADD SWAP1 DUP2 MSTORE PUSH1 0x20 ADD PUSH1 0x0 KECCAK256 PUSH1 0x0 DUP3 DUP3 SLOAD ADD SWAP3 POP POP DUP2 SWAP1 SSTORE POP DUP2 PUSH20 0xFFFFFFFFFFFFFFFFFFFFFFFFFFFFFFFFFFFFFFFF AND PUSH1 0x0 PUSH20 0xFFFFFFFFFFFFFFFFFFFFFFFFFFFFFFFFFFFFFFFF AND PUSH32 0xDDF252AD1BE2C89B69C2B068FC378DAA952BA7F163C4A11628F55A4DF523B3EF DUP4 PUSH1 0x40 MLOAD PUSH2 0x1826 SWAP2 SWAP1 PUSH2 0x24D1 JUMP JUMPDEST PUSH1 0x40 MLOAD DUP1 SWAP2 SUB SWAP1 LOG3 PUSH2 0x183A PUSH1 0x0 DUP4 DUP4 PUSH2 0x1843 JUMP JUMPDEST POP POP JUMP JUMPDEST POP POP POP JUMP JUMPDEST POP POP POP JUMP JUMPDEST PUSH1 0x0 DUP2 SWAP1 POP SWAP2 SWAP1 POP JUMP JUMPDEST PUSH1 0x0 DUP2 SWAP1 POP SWAP2 SWAP1 POP JUMP JUMPDEST PUSH2 0x1865 DUP2 PUSH2 0x15B4 JUMP JUMPDEST PUSH2 0x18A4 JUMPI PUSH1 0x40 MLOAD PUSH32 0x8C379A000000000000000000000000000000000000000000000000000000000 DUP2 MSTORE PUSH1 0x4 ADD PUSH2 0x189B SWAP1 PUSH2 0x23D1 JUMP JUMPDEST PUSH1 0x40 MLOAD DUP1 SWAP2 SUB SWAP1 REVERT JUMPDEST DUP1 PUSH2 0x18D1 PUSH32 0x360894A13BA1A3210667C828492DB98DCA3E2076CC3735A920A3CA505D382BBC PUSH1 0x0 SHL PUSH2 0x1848 JUMP JUMPDEST PUSH1 0x0 ADD PUSH1 0x0 PUSH2 0x100 EXP DUP2 SLOAD DUP2 PUSH20 0xFFFFFFFFFFFFFFFFFFFFFFFFFFFFFFFFFFFFFFFF MUL NOT AND SWAP1 DUP4 PUSH20 0xFFFFFFFFFFFFFFFFFFFFFFFFFFFFFFFFFFFFFFFF AND MUL OR SWAP1 SSTORE POP POP JUMP JUMPDEST PUSH2 0x191E DUP4 PUSH2 0x19C2 JUMP JUMPDEST PUSH1 0x0 DUP3 MLOAD GT DUP1 PUSH2 0x192B JUMPI POP DUP1 JUMPDEST ISZERO PUSH2 0x193C JUMPI PUSH2 0x193A DUP4 DUP4 PUSH2 0x1A11 JUMP JUMPDEST POP JUMPDEST POP POP POP JUMP JUMPDEST PUSH1 0x0 PUSH1 0x1 SWAP1 SLOAD SWAP1 PUSH2 0x100 EXP SWAP1 DIV PUSH1 0xFF AND PUSH2 0x1990 JUMPI PUSH1 0x40 MLOAD PUSH32 0x8C379A000000000000000000000000000000000000000000000000000000000 DUP2 MSTORE PUSH1 0x4 ADD PUSH2 0x1987 SWAP1 PUSH2 0x2471 JUMP JUMPDEST PUSH1 0x40 MLOAD DUP1 SWAP2 SUB SWAP1 REVERT JUMPDEST DUP2 PUSH1 0x36 SWAP1 DUP1 MLOAD SWAP1 PUSH1 0x20 ADD SWAP1 PUSH2 0x19A6 SWAP3 SWAP2 SWAP1 PUSH2 0x1B67 JUMP JUMPDEST POP DUP1 PUSH1 0x37 SWAP1 DUP1 MLOAD SWAP1 PUSH1 0x20 ADD SWAP1 PUSH2 0x19BD SWAP3 SWAP2 SWAP1 PUSH2 0x1B67 JUMP JUMPDEST POP POP POP JUMP JUMPDEST PUSH2 0x19CB DUP2 PUSH2 0x185C JUMP JUMPDEST DUP1 PUSH20 0xFFFFFFFFFFFFFFFFFFFFFFFFFFFFFFFFFFFFFFFF AND PUSH32 0xBC7CD75A20EE27FD9ADEBAB32041F755214DBC6BFFA90CC0225B39DA2E5C2D3B PUSH1 0x40 MLOAD PUSH1 0x40 MLOAD DUP1 SWAP2 SUB SWAP1 LOG2 POP JUMP JUMPDEST PUSH1 0x60 PUSH2 0x1A1C DUP4 PUSH2 0x15B4 JUMP JUMPDEST PUSH2 0x1A5B JUMPI PUSH1 0x40 MLOAD PUSH32 0x8C379A000000000000000000000000000000000000000000000000000000000 DUP2 MSTORE PUSH1 0x4 ADD PUSH2 0x1A52 SWAP1 PUSH2 0x2411 JUMP JUMPDEST PUSH1 0x40 MLOAD DUP1 SWAP2 SUB SWAP1 REVERT JUMPDEST PUSH1 0x0 DUP1 DUP5 PUSH20 0xFFFFFFFFFFFFFFFFFFFFFFFFFFFFFFFFFFFFFFFF AND DUP5 PUSH1 0x40 MLOAD PUSH2 0x1A83 SWAP2 SWAP1 PUSH2 0x21CC JUMP JUMPDEST PUSH1 0x0 PUSH1 0x40 MLOAD DUP1 DUP4 SUB DUP2 DUP6 GAS DELEGATECALL SWAP2 POP POP RETURNDATASIZE DUP1 PUSH1 0x0 DUP2 EQ PUSH2 0x1ABE JUMPI PUSH1 0x40 MLOAD SWAP2 POP PUSH1 0x1F NOT PUSH1 0x3F RETURNDATASIZE ADD AND DUP3 ADD PUSH1 0x40 MSTORE RETURNDATASIZE DUP3 MSTORE RETURNDATASIZE PUSH1 0x0 PUSH1 0x20 DUP5 ADD RETURNDATACOPY PUSH2 0x1AC3 JUMP JUMPDEST PUSH1 0x60 SWAP2 POP JUMPDEST POP SWAP2 POP SWAP2 POP PUSH2 0x1AEB DUP3 DUP3 PUSH1 0x40 MLOAD DUP1 PUSH1 0x60 ADD PUSH1 0x40 MSTORE DUP1 PUSH1 0x27 DUP2 MSTORE PUSH1 0x20 ADD PUSH2 0x2F36 PUSH1 0x27 SWAP2 CODECOPY PUSH2 0x1AF5 JUMP JUMPDEST SWAP3 POP POP POP SWAP3 SWAP2 POP POP JUMP JUMPDEST PUSH1 0x60 DUP4 ISZERO PUSH2 0x1B05 JUMPI DUP3 SWAP1 POP PUSH2 0x1B10 JUMP JUMPDEST PUSH2 0x1B0F DUP4 DUP4 PUSH2 0x1B17 JUMP JUMPDEST JUMPDEST SWAP4 SWAP3 POP POP POP JUMP JUMPDEST PUSH1 0x0 DUP3 MLOAD GT ISZERO PUSH2 0x1B2A JUMPI DUP2 MLOAD DUP1 DUP4 PUSH1 0x20 ADD REVERT JUMPDEST DUP1 PUSH1 0x40 MLOAD PUSH32 0x8C379A000000000000000000000000000000000000000000000000000000000 DUP2 MSTORE PUSH1 0x4 ADD PUSH2 0x1B5E SWAP2 SWAP1 PUSH2 0x224F JUMP JUMPDEST PUSH1 0x40 MLOAD DUP1 SWAP2 SUB SWAP1 REVERT JUMPDEST DUP3 DUP1 SLOAD PUSH2 0x1B73 SWAP1 PUSH2 0x2863 JUMP JUMPDEST SWAP1 PUSH1 0x0 MSTORE PUSH1 0x20 PUSH1 0x0 KECCAK256 SWAP1 PUSH1 0x1F ADD PUSH1 0x20 SWAP1 DIV DUP2 ADD SWAP3 DUP3 PUSH2 0x1B95 JUMPI PUSH1 0x0 DUP6 SSTORE PUSH2 0x1BDC JUMP JUMPDEST DUP3 PUSH1 0x1F LT PUSH2 0x1BAE JUMPI DUP1 MLOAD PUSH1 0xFF NOT AND DUP4 DUP1 ADD OR DUP6 SSTORE PUSH2 0x1BDC JUMP JUMPDEST DUP3 DUP1 ADD PUSH1 0x1 ADD DUP6 SSTORE DUP3 ISZERO PUSH2 0x1BDC JUMPI SWAP2 DUP3 ADD JUMPDEST DUP3 DUP2 GT ISZERO PUSH2 0x1BDB JUMPI DUP3 MLOAD DUP3 SSTORE SWAP2 PUSH1 0x20 ADD SWAP2 SWAP1 PUSH1 0x1 ADD SWAP1 PUSH2 0x1BC0 JUMP JUMPDEST JUMPDEST POP SWAP1 POP PUSH2 0x1BE9 SWAP2 SWAP1 PUSH2 0x1BED JUMP JUMPDEST POP SWAP1 JUMP JUMPDEST JUMPDEST DUP1 DUP3 GT ISZERO PUSH2 0x1C06 JUMPI PUSH1 0x0 DUP2 PUSH1 0x0 SWAP1 SSTORE POP PUSH1 0x1 ADD PUSH2 0x1BEE JUMP JUMPDEST POP SWAP1 JUMP JUMPDEST PUSH1 0x0 PUSH2 0x1C1D PUSH2 0x1C18 DUP5 PUSH2 0x252C JUMP JUMPDEST PUSH2 0x2507 JUMP JUMPDEST SWAP1 POP DUP3 DUP2 MSTORE PUSH1 0x20 DUP2 ADD DUP5 DUP5 DUP5 ADD GT ISZERO PUSH2 0x1C39 JUMPI PUSH2 0x1C38 PUSH2 0x2958 JUMP JUMPDEST JUMPDEST PUSH2 0x1C44 DUP5 DUP3 DUP6 PUSH2 0x2821 JUMP JUMPDEST POP SWAP4 SWAP3 POP POP POP JUMP JUMPDEST PUSH1 0x0 DUP2 CALLDATALOAD SWAP1 POP PUSH2 0x1C5B DUP2 PUSH2 0x2EF0 JUMP JUMPDEST SWAP3 SWAP2 POP POP JUMP JUMPDEST PUSH1 0x0 DUP2 MLOAD SWAP1 POP PUSH2 0x1C70 DUP2 PUSH2 0x2F07 JUMP JUMPDEST SWAP3 SWAP2 POP POP JUMP JUMPDEST PUSH1 0x0 DUP3 PUSH1 0x1F DUP4 ADD SLT PUSH2 0x1C8B JUMPI PUSH2 0x1C8A PUSH2 0x2953 JUMP JUMPDEST JUMPDEST DUP2 CALLDATALOAD PUSH2 0x1C9B DUP5 DUP3 PUSH1 0x20 DUP7 ADD PUSH2 0x1C0A JUMP JUMPDEST SWAP2 POP POP SWAP3 SWAP2 POP POP JUMP JUMPDEST PUSH1 0x0 DUP2 CALLDATALOAD SWAP1 POP PUSH2 0x1CB3 DUP2 PUSH2 0x2F1E JUMP JUMPDEST SWAP3 SWAP2 POP POP JUMP JUMPDEST PUSH1 0x0 PUSH1 0x20 DUP3 DUP5 SUB SLT ISZERO PUSH2 0x1CCF JUMPI PUSH2 0x1CCE PUSH2 0x2962 JUMP JUMPDEST JUMPDEST PUSH1 0x0 PUSH2 0x1CDD DUP5 DUP3 DUP6 ADD PUSH2 0x1C4C JUMP JUMPDEST SWAP2 POP POP SWAP3 SWAP2 POP POP JUMP JUMPDEST PUSH1 0x0 DUP1 PUSH1 0x40 DUP4 DUP6 SUB SLT ISZERO PUSH2 0x1CFD JUMPI PUSH2 0x1CFC PUSH2 0x2962 JUMP JUMPDEST JUMPDEST PUSH1 0x0 PUSH2 0x1D0B DUP6 DUP3 DUP7 ADD PUSH2 0x1C4C JUMP JUMPDEST SWAP3 POP POP PUSH1 0x20 PUSH2 0x1D1C DUP6 DUP3 DUP7 ADD PUSH2 0x1C4C JUMP JUMPDEST SWAP2 POP POP SWAP3 POP SWAP3 SWAP1 POP JUMP JUMPDEST PUSH1 0x0 DUP1 PUSH1 0x0 PUSH1 0x60 DUP5 DUP7 SUB SLT ISZERO PUSH2 0x1D3F JUMPI PUSH2 0x1D3E PUSH2 0x2962 JUMP JUMPDEST JUMPDEST PUSH1 0x0 PUSH2 0x1D4D DUP7 DUP3 DUP8 ADD PUSH2 0x1C4C JUMP JUMPDEST SWAP4 POP POP PUSH1 0x20 PUSH2 0x1D5E DUP7 DUP3 DUP8 ADD PUSH2 0x1C4C JUMP JUMPDEST SWAP3 POP POP PUSH1 0x40 PUSH2 0x1D6F DUP7 DUP3 DUP8 ADD PUSH2 0x1CA4 JUMP JUMPDEST SWAP2 POP POP SWAP3 POP SWAP3 POP SWAP3 JUMP JUMPDEST PUSH1 0x0 DUP1 PUSH1 0x40 DUP4 DUP6 SUB SLT ISZERO PUSH2 0x1D90 JUMPI PUSH2 0x1D8F PUSH2 0x2962 JUMP JUMPDEST JUMPDEST PUSH1 0x0 PUSH2 0x1D9E DUP6 DUP3 DUP7 ADD PUSH2 0x1C4C JUMP JUMPDEST SWAP3 POP POP PUSH1 0x20 DUP4 ADD CALLDATALOAD PUSH8 0xFFFFFFFFFFFFFFFF DUP2 GT ISZERO PUSH2 0x1DBF JUMPI PUSH2 0x1DBE PUSH2 0x295D JUMP JUMPDEST JUMPDEST PUSH2 0x1DCB DUP6 DUP3 DUP7 ADD PUSH2 0x1C76 JUMP JUMPDEST SWAP2 POP POP SWAP3 POP SWAP3 SWAP1 POP JUMP JUMPDEST PUSH1 0x0 DUP1 PUSH1 0x40 DUP4 DUP6 SUB SLT ISZERO PUSH2 0x1DEC JUMPI PUSH2 0x1DEB PUSH2 0x2962 JUMP JUMPDEST JUMPDEST PUSH1 0x0 PUSH2 0x1DFA DUP6 DUP3 DUP7 ADD PUSH2 0x1C4C JUMP JUMPDEST SWAP3 POP POP PUSH1 0x20 PUSH2 0x1E0B DUP6 DUP3 DUP7 ADD PUSH2 0x1CA4 JUMP JUMPDEST SWAP2 POP POP SWAP3 POP SWAP3 SWAP1 POP JUMP JUMPDEST PUSH1 0x0 PUSH1 0x20 DUP3 DUP5 SUB SLT ISZERO PUSH2 0x1E2B JUMPI PUSH2 0x1E2A PUSH2 0x2962 JUMP JUMPDEST JUMPDEST PUSH1 0x0 PUSH2 0x1E39 DUP5 DUP3 DUP6 ADD PUSH2 0x1C61 JUMP JUMPDEST SWAP2 POP POP SWAP3 SWAP2 POP POP JUMP JUMPDEST PUSH1 0x0 PUSH1 0x20 DUP3 DUP5 SUB SLT ISZERO PUSH2 0x1E58 JUMPI PUSH2 0x1E57 PUSH2 0x2962 JUMP JUMPDEST JUMPDEST PUSH1 0x0 PUSH2 0x1E66 DUP5 DUP3 DUP6 ADD PUSH2 0x1CA4 JUMP JUMPDEST SWAP2 POP POP SWAP3 SWAP2 POP POP JUMP JUMPDEST PUSH2 0x1E78 DUP2 PUSH2 0x27B0 JUMP JUMPDEST DUP3 MSTORE POP POP JUMP JUMPDEST PUSH2 0x1E87 DUP2 PUSH2 0x27C2 JUMP JUMPDEST DUP3 MSTORE POP POP JUMP JUMPDEST PUSH2 0x1E96 DUP2 PUSH2 0x27CE JUMP JUMPDEST DUP3 MSTORE POP POP JUMP JUMPDEST PUSH1 0x0 PUSH2 0x1EA7 DUP3 PUSH2 0x255D JUMP JUMPDEST PUSH2 0x1EB1 DUP2 DUP6 PUSH2 0x2573 JUMP JUMPDEST SWAP4 POP PUSH2 0x1EC1 DUP2 DUP6 PUSH1 0x20 DUP7 ADD PUSH2 0x2830 JUMP JUMPDEST DUP1 DUP5 ADD SWAP2 POP POP SWAP3 SWAP2 POP POP JUMP JUMPDEST PUSH2 0x1ED6 DUP2 PUSH2 0x280F JUMP JUMPDEST DUP3 MSTORE POP POP JUMP JUMPDEST PUSH1 0x0 PUSH2 0x1EE7 DUP3 PUSH2 0x2568 JUMP JUMPDEST PUSH2 0x1EF1 DUP2 DUP6 PUSH2 0x257E JUMP JUMPDEST SWAP4 POP PUSH2 0x1F01 DUP2 DUP6 PUSH1 0x20 DUP7 ADD PUSH2 0x2830 JUMP JUMPDEST PUSH2 0x1F0A DUP2 PUSH2 0x2967 JUMP JUMPDEST DUP5 ADD SWAP2 POP POP SWAP3 SWAP2 POP POP JUMP JUMPDEST PUSH1 0x0 PUSH2 0x1F22 PUSH1 0x23 DUP4 PUSH2 0x257E JUMP JUMPDEST SWAP2 POP PUSH2 0x1F2D DUP3 PUSH2 0x2985 JUMP JUMPDEST PUSH1 0x40 DUP3 ADD SWAP1 POP SWAP2 SWAP1 POP JUMP JUMPDEST PUSH1 0x0 PUSH2 0x1F45 PUSH1 0x26 DUP4 PUSH2 0x257E JUMP JUMPDEST SWAP2 POP PUSH2 0x1F50 DUP3 PUSH2 0x29D4 JUMP JUMPDEST PUSH1 0x40 DUP3 ADD SWAP1 POP SWAP2 SWAP1 POP JUMP JUMPDEST PUSH1 0x0 PUSH2 0x1F68 PUSH1 0x22 DUP4 PUSH2 0x257E JUMP JUMPDEST SWAP2 POP PUSH2 0x1F73 DUP3 PUSH2 0x2A23 JUMP JUMPDEST PUSH1 0x40 DUP3 ADD SWAP1 POP SWAP2 SWAP1 POP JUMP JUMPDEST PUSH1 0x0 PUSH2 0x1F8B PUSH1 0x2C DUP4 PUSH2 0x257E JUMP JUMPDEST SWAP2 POP PUSH2 0x1F96 DUP3 PUSH2 0x2A72 JUMP JUMPDEST PUSH1 0x40 DUP3 ADD SWAP1 POP SWAP2 SWAP1 POP JUMP JUMPDEST PUSH1 0x0 PUSH2 0x1FAE PUSH1 0x1D DUP4 PUSH2 0x257E JUMP JUMPDEST SWAP2 POP PUSH2 0x1FB9 DUP3 PUSH2 0x2AC1 JUMP JUMPDEST PUSH1 0x20 DUP3 ADD SWAP1 POP SWAP2 SWAP1 POP JUMP JUMPDEST PUSH1 0x0 PUSH2 0x1FD1 PUSH1 0x26 DUP4 PUSH2 0x257E JUMP JUMPDEST SWAP2 POP PUSH2 0x1FDC DUP3 PUSH2 0x2AEA JUMP JUMPDEST PUSH1 0x40 DUP3 ADD SWAP1 POP SWAP2 SWAP1 POP JUMP JUMPDEST PUSH1 0x0 PUSH2 0x1FF4 PUSH1 0x2C DUP4 PUSH2 0x257E JUMP JUMPDEST SWAP2 POP PUSH2 0x1FFF DUP3 PUSH2 0x2B39 JUMP JUMPDEST PUSH1 0x40 DUP3 ADD SWAP1 POP SWAP2 SWAP1 POP JUMP JUMPDEST PUSH1 0x0 PUSH2 0x2017 PUSH1 0x38 DUP4 PUSH2 0x257E JUMP JUMPDEST SWAP2 POP PUSH2 0x2022 DUP3 PUSH2 0x2B88 JUMP JUMPDEST PUSH1 0x40 DUP3 ADD SWAP1 POP SWAP2 SWAP1 POP JUMP JUMPDEST PUSH1 0x0 PUSH2 0x203A PUSH1 0x29 DUP4 PUSH2 0x257E JUMP JUMPDEST SWAP2 POP PUSH2 0x2045 DUP3 PUSH2 0x2BD7 JUMP JUMPDEST PUSH1 0x40 DUP3 ADD SWAP1 POP SWAP2 SWAP1 POP JUMP JUMPDEST PUSH1 0x0 PUSH2 0x205D PUSH1 0x2E DUP4 PUSH2 0x257E JUMP JUMPDEST SWAP2 POP PUSH2 0x2068 DUP3 PUSH2 0x2C26 JUMP JUMPDEST PUSH1 0x40 DUP3 ADD SWAP1 POP SWAP2 SWAP1 POP JUMP JUMPDEST PUSH1 0x0 PUSH2 0x2080 PUSH1 0x2E DUP4 PUSH2 0x257E JUMP JUMPDEST SWAP2 POP PUSH2 0x208B DUP3 PUSH2 0x2C75 JUMP JUMPDEST PUSH1 0x40 DUP3 ADD SWAP1 POP SWAP2 SWAP1 POP JUMP JUMPDEST PUSH1 0x0 PUSH2 0x20A3 PUSH1 0x2D DUP4 PUSH2 0x257E JUMP JUMPDEST SWAP2 POP PUSH2 0x20AE DUP3 PUSH2 0x2CC4 JUMP JUMPDEST PUSH1 0x40 DUP3 ADD SWAP1 POP SWAP2 SWAP1 POP JUMP JUMPDEST PUSH1 0x0 PUSH2 0x20C6 PUSH1 0x20 DUP4 PUSH2 0x257E JUMP JUMPDEST SWAP2 POP PUSH2 0x20D1 DUP3 PUSH2 0x2D13 JUMP JUMPDEST PUSH1 0x20 DUP3 ADD SWAP1 POP SWAP2 SWAP1 POP JUMP JUMPDEST PUSH1 0x0 PUSH2 0x20E9 PUSH1 0x26 DUP4 PUSH2 0x257E JUMP JUMPDEST SWAP2 POP PUSH2 0x20F4 DUP3 PUSH2 0x2D3C JUMP JUMPDEST PUSH1 0x40 DUP3 ADD SWAP1 POP SWAP2 SWAP1 POP JUMP JUMPDEST PUSH1 0x0 PUSH2 0x210C PUSH1 0x25 DUP4 PUSH2 0x257E JUMP JUMPDEST SWAP2 POP PUSH2 0x2117 DUP3 PUSH2 0x2D8B JUMP JUMPDEST PUSH1 0x40 DUP3 ADD SWAP1 POP SWAP2 SWAP1 POP JUMP JUMPDEST PUSH1 0x0 PUSH2 0x212F PUSH1 0x24 DUP4 PUSH2 0x257E JUMP JUMPDEST SWAP2 POP PUSH2 0x213A DUP3 PUSH2 0x2DDA JUMP JUMPDEST PUSH1 0x40 DUP3 ADD SWAP1 POP SWAP2 SWAP1 POP JUMP JUMPDEST PUSH1 0x0 PUSH2 0x2152 PUSH1 0x2B DUP4 PUSH2 0x257E JUMP JUMPDEST SWAP2 POP PUSH2 0x215D DUP3 PUSH2 0x2E29 JUMP JUMPDEST PUSH1 0x40 DUP3 ADD SWAP1 POP SWAP2 SWAP1 POP JUMP JUMPDEST PUSH1 0x0 PUSH2 0x2175 PUSH1 0x25 DUP4 PUSH2 0x257E JUMP JUMPDEST SWAP2 POP PUSH2 0x2180 DUP3 PUSH2 0x2E78 JUMP JUMPDEST PUSH1 0x40 DUP3 ADD SWAP1 POP SWAP2 SWAP1 POP JUMP JUMPDEST PUSH1 0x0 PUSH2 0x2198 PUSH1 0x1F DUP4 PUSH2 0x257E JUMP JUMPDEST SWAP2 POP PUSH2 0x21A3 DUP3 PUSH2 0x2EC7 JUMP JUMPDEST PUSH1 0x20 DUP3 ADD SWAP1 POP SWAP2 SWAP1 POP JUMP JUMPDEST PUSH2 0x21B7 DUP2 PUSH2 0x27F8 JUMP JUMPDEST DUP3 MSTORE POP POP JUMP JUMPDEST PUSH2 0x21C6 DUP2 PUSH2 0x2802 JUMP JUMPDEST DUP3 MSTORE POP POP JUMP JUMPDEST PUSH1 0x0 PUSH2 0x21D8 DUP3 DUP5 PUSH2 0x1E9C JUMP JUMPDEST SWAP2 POP DUP2 SWAP1 POP SWAP3 SWAP2 POP POP JUMP JUMPDEST PUSH1 0x0 PUSH1 0x20 DUP3 ADD SWAP1 POP PUSH2 0x21F8 PUSH1 0x0 DUP4 ADD DUP5 PUSH2 0x1E6F JUMP JUMPDEST SWAP3 SWAP2 POP POP JUMP JUMPDEST PUSH1 0x0 PUSH1 0x20 DUP3 ADD SWAP1 POP PUSH2 0x2213 PUSH1 0x0 DUP4 ADD DUP5 PUSH2 0x1E7E JUMP JUMPDEST SWAP3 SWAP2 POP POP JUMP JUMPDEST PUSH1 0x0 PUSH1 0x20 DUP3 ADD SWAP1 POP PUSH2 0x222E PUSH1 0x0 DUP4 ADD DUP5 PUSH2 0x1E8D JUMP JUMPDEST SWAP3 SWAP2 POP POP JUMP JUMPDEST PUSH1 0x0 PUSH1 0x20 DUP3 ADD SWAP1 POP PUSH2 0x2249 PUSH1 0x0 DUP4 ADD DUP5 PUSH2 0x1ECD JUMP JUMPDEST SWAP3 SWAP2 POP POP JUMP JUMPDEST PUSH1 0x0 PUSH1 0x20 DUP3 ADD SWAP1 POP DUP2 DUP2 SUB PUSH1 0x0 DUP4 ADD MSTORE PUSH2 0x2269 DUP2 DUP5 PUSH2 0x1EDC JUMP JUMPDEST SWAP1 POP SWAP3 SWAP2 POP POP JUMP JUMPDEST PUSH1 0x0 PUSH1 0x20 DUP3 ADD SWAP1 POP DUP2 DUP2 SUB PUSH1 0x0 DUP4 ADD MSTORE PUSH2 0x228A DUP2 PUSH2 0x1F15 JUMP JUMPDEST SWAP1 POP SWAP2 SWAP1 POP JUMP JUMPDEST PUSH1 0x0 PUSH1 0x20 DUP3 ADD SWAP1 POP DUP2 DUP2 SUB PUSH1 0x0 DUP4 ADD MSTORE PUSH2 0x22AA DUP2 PUSH2 0x1F38 JUMP JUMPDEST SWAP1 POP SWAP2 SWAP1 POP JUMP JUMPDEST PUSH1 0x0 PUSH1 0x20 DUP3 ADD SWAP1 POP DUP2 DUP2 SUB PUSH1 0x0 DUP4 ADD MSTORE PUSH2 0x22CA DUP2 PUSH2 0x1F5B JUMP JUMPDEST SWAP1 POP SWAP2 SWAP1 POP JUMP JUMPDEST PUSH1 0x0 PUSH1 0x20 DUP3 ADD SWAP1 POP DUP2 DUP2 SUB PUSH1 0x0 DUP4 ADD MSTORE PUSH2 0x22EA DUP2 PUSH2 0x1F7E JUMP JUMPDEST SWAP1 POP SWAP2 SWAP1 POP JUMP JUMPDEST PUSH1 0x0 PUSH1 0x20 DUP3 ADD SWAP1 POP DUP2 DUP2 SUB PUSH1 0x0 DUP4 ADD MSTORE PUSH2 0x230A DUP2 PUSH2 0x1FA1 JUMP JUMPDEST SWAP1 POP SWAP2 SWAP1 POP JUMP JUMPDEST PUSH1 0x0 PUSH1 0x20 DUP3 ADD SWAP1 POP DUP2 DUP2 SUB PUSH1 0x0 DUP4 ADD MSTORE PUSH2 0x232A DUP2 PUSH2 0x1FC4 JUMP JUMPDEST SWAP1 POP SWAP2 SWAP1 POP JUMP JUMPDEST PUSH1 0x0 PUSH1 0x20 DUP3 ADD SWAP1 POP DUP2 DUP2 SUB PUSH1 0x0 DUP4 ADD MSTORE PUSH2 0x234A DUP2 PUSH2 0x1FE7 JUMP JUMPDEST SWAP1 POP SWAP2 SWAP1 POP JUMP JUMPDEST PUSH1 0x0 PUSH1 0x20 DUP3 ADD SWAP1 POP DUP2 DUP2 SUB PUSH1 0x0 DUP4 ADD MSTORE PUSH2 0x236A DUP2 PUSH2 0x200A JUMP JUMPDEST SWAP1 POP SWAP2 SWAP1 POP JUMP JUMPDEST PUSH1 0x0 PUSH1 0x20 DUP3 ADD SWAP1 POP DUP2 DUP2 SUB PUSH1 0x0 DUP4 ADD MSTORE PUSH2 0x238A DUP2 PUSH2 0x202D JUMP JUMPDEST SWAP1 POP SWAP2 SWAP1 POP JUMP JUMPDEST PUSH1 0x0 PUSH1 0x20 DUP3 ADD SWAP1 POP DUP2 DUP2 SUB PUSH1 0x0 DUP4 ADD MSTORE PUSH2 0x23AA DUP2 PUSH2 0x2050 JUMP JUMPDEST SWAP1 POP SWAP2 SWAP1 POP JUMP JUMPDEST PUSH1 0x0 PUSH1 0x20 DUP3 ADD SWAP1 POP DUP2 DUP2 SUB PUSH1 0x0 DUP4 ADD MSTORE PUSH2 0x23CA DUP2 PUSH2 0x2073 JUMP JUMPDEST SWAP1 POP SWAP2 SWAP1 POP JUMP JUMPDEST PUSH1 0x0 PUSH1 0x20 DUP3 ADD SWAP1 POP DUP2 DUP2 SUB PUSH1 0x0 DUP4 ADD MSTORE PUSH2 0x23EA DUP2 PUSH2 0x2096 JUMP JUMPDEST SWAP1 POP SWAP2 SWAP1 POP JUMP JUMPDEST PUSH1 0x0 PUSH1 0x20 DUP3 ADD SWAP1 POP DUP2 DUP2 SUB PUSH1 0x0 DUP4 ADD MSTORE PUSH2 0x240A DUP2 PUSH2 0x20B9 JUMP JUMPDEST SWAP1 POP SWAP2 SWAP1 POP JUMP JUMPDEST PUSH1 0x0 PUSH1 0x20 DUP3 ADD SWAP1 POP DUP2 DUP2 SUB PUSH1 0x0 DUP4 ADD MSTORE PUSH2 0x242A DUP2 PUSH2 0x20DC JUMP JUMPDEST SWAP1 POP SWAP2 SWAP1 POP JUMP JUMPDEST PUSH1 0x0 PUSH1 0x20 DUP3 ADD SWAP1 POP DUP2 DUP2 SUB PUSH1 0x0 DUP4 ADD MSTORE PUSH2 0x244A DUP2 PUSH2 0x20FF JUMP JUMPDEST SWAP1 POP SWAP2 SWAP1 POP JUMP JUMPDEST PUSH1 0x0 PUSH1 0x20 DUP3 ADD SWAP1 POP DUP2 DUP2 SUB PUSH1 0x0 DUP4 ADD MSTORE PUSH2 0x246A DUP2 PUSH2 0x2122 JUMP JUMPDEST SWAP1 POP SWAP2 SWAP1 POP JUMP JUMPDEST PUSH1 0x0 PUSH1 0x20 DUP3 ADD SWAP1 POP DUP2 DUP2 SUB PUSH1 0x0 DUP4 ADD MSTORE PUSH2 0x248A DUP2 PUSH2 0x2145 JUMP JUMPDEST SWAP1 POP SWAP2 SWAP1 POP JUMP JUMPDEST PUSH1 0x0 PUSH1 0x20 DUP3 ADD SWAP1 POP DUP2 DUP2 SUB PUSH1 0x0 DUP4 ADD MSTORE PUSH2 0x24AA DUP2 PUSH2 0x2168 JUMP JUMPDEST SWAP1 POP SWAP2 SWAP1 POP JUMP JUMPDEST PUSH1 0x0 PUSH1 0x20 DUP3 ADD SWAP1 POP DUP2 DUP2 SUB PUSH1 0x0 DUP4 ADD MSTORE PUSH2 0x24CA DUP2 PUSH2 0x218B JUMP JUMPDEST SWAP1 POP SWAP2 SWAP1 POP JUMP JUMPDEST PUSH1 0x0 PUSH1 0x20 DUP3 ADD SWAP1 POP PUSH2 0x24E6 PUSH1 0x0 DUP4 ADD DUP5 PUSH2 0x21AE JUMP JUMPDEST SWAP3 SWAP2 POP POP JUMP JUMPDEST PUSH1 0x0 PUSH1 0x20 DUP3 ADD SWAP1 POP PUSH2 0x2501 PUSH1 0x0 DUP4 ADD DUP5 PUSH2 0x21BD JUMP JUMPDEST SWAP3 SWAP2 POP POP JUMP JUMPDEST PUSH1 0x0 PUSH2 0x2511 PUSH2 0x2522 JUMP JUMPDEST SWAP1 POP PUSH2 0x251D DUP3 DUP3 PUSH2 0x2895 JUMP JUMPDEST SWAP2 SWAP1 POP JUMP JUMPDEST PUSH1 0x0 PUSH1 0x40 MLOAD SWAP1 POP SWAP1 JUMP JUMPDEST PUSH1 0x0 PUSH8 0xFFFFFFFFFFFFFFFF DUP3 GT ISZERO PUSH2 0x2547 JUMPI PUSH2 0x2546 PUSH2 0x2924 JUMP JUMPDEST JUMPDEST PUSH2 0x2550 DUP3 PUSH2 0x2967 JUMP JUMPDEST SWAP1 POP PUSH1 0x20 DUP2 ADD SWAP1 POP SWAP2 SWAP1 POP JUMP JUMPDEST PUSH1 0x0 DUP2 MLOAD SWAP1 POP SWAP2 SWAP1 POP JUMP JUMPDEST PUSH1 0x0 DUP2 MLOAD SWAP1 POP SWAP2 SWAP1 POP JUMP JUMPDEST PUSH1 0x0 DUP2 SWAP1 POP SWAP3 SWAP2 POP POP JUMP JUMPDEST PUSH1 0x0 DUP3 DUP3 MSTORE PUSH1 0x20 DUP3 ADD SWAP1 POP SWAP3 SWAP2 POP POP JUMP JUMPDEST PUSH1 0x0 PUSH2 0x259A DUP3 PUSH2 0x27F8 JUMP JUMPDEST SWAP2 POP PUSH2 0x25A5 DUP4 PUSH2 0x27F8 JUMP JUMPDEST SWAP3 POP DUP3 PUSH32 0xFFFFFFFFFFFFFFFFFFFFFFFFFFFFFFFFFFFFFFFFFFFFFFFFFFFFFFFFFFFFFFFF SUB DUP3 GT ISZERO PUSH2 0x25DA JUMPI PUSH2 0x25D9 PUSH2 0x28C6 JUMP JUMPDEST JUMPDEST DUP3 DUP3 ADD SWAP1 POP SWAP3 SWAP2 POP POP JUMP JUMPDEST PUSH1 0x0 DUP1 DUP3 SWAP2 POP DUP4 SWAP1 POP JUMPDEST PUSH1 0x1 DUP6 GT ISZERO PUSH2 0x262F JUMPI DUP1 DUP7 DIV DUP2 GT ISZERO PUSH2 0x260B JUMPI PUSH2 0x260A PUSH2 0x28C6 JUMP JUMPDEST JUMPDEST PUSH1 0x1 DUP6 AND ISZERO PUSH2 0x261A JUMPI DUP1 DUP3 MUL SWAP2 POP JUMPDEST DUP1 DUP2 MUL SWAP1 POP PUSH2 0x2628 DUP6 PUSH2 0x2978 JUMP JUMPDEST SWAP5 POP PUSH2 0x25EF JUMP JUMPDEST SWAP5 POP SWAP5 SWAP3 POP POP POP JUMP JUMPDEST PUSH1 0x0 PUSH2 0x2643 DUP3 PUSH2 0x27F8 JUMP JUMPDEST SWAP2 POP PUSH2 0x264E DUP4 PUSH2 0x2802 JUMP JUMPDEST SWAP3 POP PUSH2 0x267B PUSH32 0xFFFFFFFFFFFFFFFFFFFFFFFFFFFFFFFFFFFFFFFFFFFFFFFFFFFFFFFFFFFFFFFF DUP5 DUP5 PUSH2 0x2683 JUMP JUMPDEST SWAP1 POP SWAP3 SWAP2 POP POP JUMP JUMPDEST PUSH1 0x0 DUP3 PUSH2 0x2693 JUMPI PUSH1 0x1 SWAP1 POP PUSH2 0x274F JUMP JUMPDEST DUP2 PUSH2 0x26A1 JUMPI PUSH1 0x0 SWAP1 POP PUSH2 0x274F JUMP JUMPDEST DUP2 PUSH1 0x1 DUP2 EQ PUSH2 0x26B7 JUMPI PUSH1 0x2 DUP2 EQ PUSH2 0x26C1 JUMPI PUSH2 0x26F0 JUMP JUMPDEST PUSH1 0x1 SWAP2 POP POP PUSH2 0x274F JUMP JUMPDEST PUSH1 0xFF DUP5 GT ISZERO PUSH2 0x26D3 JUMPI PUSH2 0x26D2 PUSH2 0x28C6 JUMP JUMPDEST JUMPDEST DUP4 PUSH1 0x2 EXP SWAP2 POP DUP5 DUP3 GT ISZERO PUSH2 0x26EA JUMPI PUSH2 0x26E9 PUSH2 0x28C6 JUMP JUMPDEST JUMPDEST POP PUSH2 0x274F JUMP JUMPDEST POP PUSH1 0x20 DUP4 LT PUSH2 0x133 DUP4 LT AND PUSH1 0x4E DUP5 LT PUSH1 0xB DUP5 LT AND OR ISZERO PUSH2 0x2725 JUMPI DUP3 DUP3 EXP SWAP1 POP DUP4 DUP2 GT ISZERO PUSH2 0x2720 JUMPI PUSH2 0x271F PUSH2 0x28C6 JUMP JUMPDEST JUMPDEST PUSH2 0x274F JUMP JUMPDEST PUSH2 0x2732 DUP5 DUP5 DUP5 PUSH1 0x1 PUSH2 0x25E5 JUMP JUMPDEST SWAP3 POP SWAP1 POP DUP2 DUP5 DIV DUP2 GT ISZERO PUSH2 0x2749 JUMPI PUSH2 0x2748 PUSH2 0x28C6 JUMP JUMPDEST JUMPDEST DUP2 DUP2 MUL SWAP1 POP JUMPDEST SWAP4 SWAP3 POP POP POP JUMP JUMPDEST PUSH1 0x0 PUSH2 0x2761 DUP3 PUSH2 0x27F8 JUMP JUMPDEST SWAP2 POP PUSH2 0x276C DUP4 PUSH2 0x27F8 JUMP JUMPDEST SWAP3 POP DUP2 PUSH32 0xFFFFFFFFFFFFFFFFFFFFFFFFFFFFFFFFFFFFFFFFFFFFFFFFFFFFFFFFFFFFFFFF DIV DUP4 GT DUP3 ISZERO ISZERO AND ISZERO PUSH2 0x27A5 JUMPI PUSH2 0x27A4 PUSH2 0x28C6 JUMP JUMPDEST JUMPDEST DUP3 DUP3 MUL SWAP1 POP SWAP3 SWAP2 POP POP JUMP JUMPDEST PUSH1 0x0 PUSH2 0x27BB DUP3 PUSH2 0x27D8 JUMP JUMPDEST SWAP1 POP SWAP2 SWAP1 POP JUMP JUMPDEST PUSH1 0x0 DUP2 ISZERO ISZERO SWAP1 POP SWAP2 SWAP1 POP JUMP JUMPDEST PUSH1 0x0 DUP2 SWAP1 POP SWAP2 SWAP1 POP JUMP JUMPDEST PUSH1 0x0 PUSH20 0xFFFFFFFFFFFFFFFFFFFFFFFFFFFFFFFFFFFFFFFF DUP3 AND SWAP1 POP SWAP2 SWAP1 POP JUMP JUMPDEST PUSH1 0x0 DUP2 SWAP1 POP SWAP2 SWAP1 POP JUMP JUMPDEST PUSH1 0x0 PUSH1 0xFF DUP3 AND SWAP1 POP SWAP2 SWAP1 POP JUMP JUMPDEST PUSH1 0x0 PUSH2 0x281A DUP3 PUSH2 0x2802 JUMP JUMPDEST SWAP1 POP SWAP2 SWAP1 POP JUMP JUMPDEST DUP3 DUP2 DUP4 CALLDATACOPY PUSH1 0x0 DUP4 DUP4 ADD MSTORE POP POP POP JUMP JUMPDEST PUSH1 0x0 JUMPDEST DUP4 DUP2 LT ISZERO PUSH2 0x284E JUMPI DUP1 DUP3 ADD MLOAD DUP2 DUP5 ADD MSTORE PUSH1 0x20 DUP2 ADD SWAP1 POP PUSH2 0x2833 JUMP JUMPDEST DUP4 DUP2 GT ISZERO PUSH2 0x285D JUMPI PUSH1 0x0 DUP5 DUP5 ADD MSTORE JUMPDEST POP POP POP POP JUMP JUMPDEST PUSH1 0x0 PUSH1 0x2 DUP3 DIV SWAP1 POP PUSH1 0x1 DUP3 AND DUP1 PUSH2 0x287B JUMPI PUSH1 0x7F DUP3 AND SWAP2 POP JUMPDEST PUSH1 0x20 DUP3 LT DUP2 EQ ISZERO PUSH2 0x288F JUMPI PUSH2 0x288E PUSH2 0x28F5 JUMP JUMPDEST JUMPDEST POP SWAP2 SWAP1 POP JUMP JUMPDEST PUSH2 0x289E DUP3 PUSH2 0x2967 JUMP JUMPDEST DUP2 ADD DUP2 DUP2 LT PUSH8 0xFFFFFFFFFFFFFFFF DUP3 GT OR ISZERO PUSH2 0x28BD JUMPI PUSH2 0x28BC PUSH2 0x2924 JUMP JUMPDEST JUMPDEST DUP1 PUSH1 0x40 MSTORE POP POP POP JUMP JUMPDEST PUSH32 0x4E487B7100000000000000000000000000000000000000000000000000000000 PUSH1 0x0 MSTORE PUSH1 0x11 PUSH1 0x4 MSTORE PUSH1 0x24 PUSH1 0x0 REVERT JUMPDEST PUSH32 0x4E487B7100000000000000000000000000000000000000000000000000000000 PUSH1 0x0 MSTORE PUSH1 0x22 PUSH1 0x4 MSTORE PUSH1 0x24 PUSH1 0x0 REVERT JUMPDEST PUSH32 0x4E487B7100000000000000000000000000000000000000000000000000000000 PUSH1 0x0 MSTORE PUSH1 0x41 PUSH1 0x4 MSTORE PUSH1 0x24 PUSH1 0x0 REVERT JUMPDEST PUSH1 0x0 DUP1 REVERT JUMPDEST PUSH1 0x0 DUP1 REVERT JUMPDEST PUSH1 0x0 DUP1 REVERT JUMPDEST PUSH1 0x0 DUP1 REVERT JUMPDEST PUSH1 0x0 PUSH1 0x1F NOT PUSH1 0x1F DUP4 ADD AND SWAP1 POP SWAP2 SWAP1 POP JUMP JUMPDEST PUSH1 0x0 DUP2 PUSH1 0x1 SHR SWAP1 POP SWAP2 SWAP1 POP JUMP JUMPDEST PUSH32 0x45524332303A207472616E7366657220746F20746865207A65726F2061646472 PUSH1 0x0 DUP3 ADD MSTORE PUSH32 0x6573730000000000000000000000000000000000000000000000000000000000 PUSH1 0x20 DUP3 ADD MSTORE POP JUMP JUMPDEST PUSH32 0x4F776E61626C653A206E6577206F776E657220697320746865207A65726F2061 PUSH1 0x0 DUP3 ADD MSTORE PUSH32 0x6464726573730000000000000000000000000000000000000000000000000000 PUSH1 0x20 DUP3 ADD MSTORE POP JUMP JUMPDEST PUSH32 0x45524332303A20617070726F766520746F20746865207A65726F206164647265 PUSH1 0x0 DUP3 ADD MSTORE PUSH32 0x7373000000000000000000000000000000000000000000000000000000000000 PUSH1 0x20 DUP3 ADD MSTORE POP JUMP JUMPDEST PUSH32 0x46756E6374696F6E206D7573742062652063616C6C6564207468726F75676820 PUSH1 0x0 DUP3 ADD MSTORE PUSH32 0x64656C656761746563616C6C0000000000000000000000000000000000000000 PUSH1 0x20 DUP3 ADD MSTORE POP JUMP JUMPDEST PUSH32 0x45524332303A20696E73756666696369656E7420616C6C6F77616E6365000000 PUSH1 0x0 DUP3 ADD MSTORE POP JUMP JUMPDEST PUSH32 0x45524332303A207472616E7366657220616D6F756E7420657863656564732062 PUSH1 0x0 DUP3 ADD MSTORE PUSH32 0x616C616E63650000000000000000000000000000000000000000000000000000 PUSH1 0x20 DUP3 ADD MSTORE POP JUMP JUMPDEST PUSH32 0x46756E6374696F6E206D7573742062652063616C6C6564207468726F75676820 PUSH1 0x0 DUP3 ADD MSTORE PUSH32 0x6163746976652070726F78790000000000000000000000000000000000000000 PUSH1 0x20 DUP3 ADD MSTORE POP JUMP JUMPDEST PUSH32 0x555550535570677261646561626C653A206D757374206E6F742062652063616C PUSH1 0x0 DUP3 ADD MSTORE PUSH32 0x6C6564207468726F7567682064656C656761746563616C6C0000000000000000 PUSH1 0x20 DUP3 ADD MSTORE POP JUMP JUMPDEST PUSH32 0x45524331393637557067726164653A20756E737570706F727465642070726F78 PUSH1 0x0 DUP3 ADD MSTORE PUSH32 0x6961626C65555549440000000000000000000000000000000000000000000000 PUSH1 0x20 DUP3 ADD MSTORE POP JUMP JUMPDEST PUSH32 0x496E697469616C697A61626C653A20636F6E747261637420697320616C726561 PUSH1 0x0 DUP3 ADD MSTORE PUSH32 0x647920696E697469616C697A6564000000000000000000000000000000000000 PUSH1 0x20 DUP3 ADD MSTORE POP JUMP JUMPDEST PUSH32 0x45524331393637557067726164653A206E657720696D706C656D656E74617469 PUSH1 0x0 DUP3 ADD MSTORE PUSH32 0x6F6E206973206E6F742055555053000000000000000000000000000000000000 PUSH1 0x20 DUP3 ADD MSTORE POP JUMP JUMPDEST PUSH32 0x455243313936373A206E657720696D706C656D656E746174696F6E206973206E PUSH1 0x0 DUP3 ADD MSTORE PUSH32 0x6F74206120636F6E747261637400000000000000000000000000000000000000 PUSH1 0x20 DUP3 ADD MSTORE POP JUMP JUMPDEST PUSH32 0x4F776E61626C653A2063616C6C6572206973206E6F7420746865206F776E6572 PUSH1 0x0 DUP3 ADD MSTORE POP JUMP JUMPDEST PUSH32 0x416464726573733A2064656C65676174652063616C6C20746F206E6F6E2D636F PUSH1 0x0 DUP3 ADD MSTORE PUSH32 0x6E74726163740000000000000000000000000000000000000000000000000000 PUSH1 0x20 DUP3 ADD MSTORE POP JUMP JUMPDEST PUSH32 0x45524332303A207472616E736665722066726F6D20746865207A65726F206164 PUSH1 0x0 DUP3 ADD MSTORE PUSH32 0x6472657373000000000000000000000000000000000000000000000000000000 PUSH1 0x20 DUP3 ADD MSTORE POP JUMP JUMPDEST PUSH32 0x45524332303A20617070726F76652066726F6D20746865207A65726F20616464 PUSH1 0x0 DUP3 ADD MSTORE PUSH32 0x7265737300000000000000000000000000000000000000000000000000000000 PUSH1 0x20 DUP3 ADD MSTORE POP JUMP JUMPDEST PUSH32 0x496E697469616C697A61626C653A20636F6E7472616374206973206E6F742069 PUSH1 0x0 DUP3 ADD MSTORE PUSH32 0x6E697469616C697A696E67000000000000000000000000000000000000000000 PUSH1 0x20 DUP3 ADD MSTORE POP JUMP JUMPDEST PUSH32 0x45524332303A2064656372656173656420616C6C6F77616E63652062656C6F77 PUSH1 0x0 DUP3 ADD MSTORE PUSH32 0x207A65726F000000000000000000000000000000000000000000000000000000 PUSH1 0x20 DUP3 ADD MSTORE POP JUMP JUMPDEST PUSH32 0x45524332303A206D696E7420746F20746865207A65726F206164647265737300 PUSH1 0x0 DUP3 ADD MSTORE POP JUMP JUMPDEST PUSH2 0x2EF9 DUP2 PUSH2 0x27B0 JUMP JUMPDEST DUP2 EQ PUSH2 0x2F04 JUMPI PUSH1 0x0 DUP1 REVERT JUMPDEST POP JUMP JUMPDEST PUSH2 0x2F10 DUP2 PUSH2 0x27CE JUMP JUMPDEST DUP2 EQ PUSH2 0x2F1B JUMPI PUSH1 0x0 DUP1 REVERT JUMPDEST POP JUMP JUMPDEST PUSH2 0x2F27 DUP2 PUSH2 0x27F8 JUMP JUMPDEST DUP2 EQ PUSH2 0x2F32 JUMPI PUSH1 0x0 DUP1 REVERT JUMPDEST POP JUMP INVALID COINBASE PUSH5 0x6472657373 GASPRICE KECCAK256 PUSH13 0x6F772D6C6576656C2064656C65 PUSH8 0x6174652063616C6C KECCAK256 PUSH7 0x61696C6564A264 PUSH10 0x70667358221220DBF90E LT 0x21 0xFC MSTORE8 SWAP6 MLOAD CALL 0xC8 0xBC PUSH29 0x621028132E1030F79D340DC49244455200050C64736F6C634300080700 CALLER "
				},
				"gasEstimates": {
					"creation": {
						"codeDepositCost": "2435600",
						"executionCost": "infinite",
						"totalCost": "infinite"
					},
					"external": {
						"allowance(address,address)": "infinite",
						"approve(address,uint256)": "infinite",
						"balanceOf(address)": "2864",
						"decimals()": "366",
						"decreaseAllowance(address,uint256)": "infinite",
						"increaseAllowance(address,uint256)": "infinite",
						"initialize(uint256)": "infinite",
						"name()": "infinite",
						"owner()": "2589",
						"proxiableUUID()": "infinite",
						"renounceOwnership()": "30443",
						"symbol()": "infinite",
						"totalSupply()": "2505",
						"transfer(address,uint256)": "infinite",
						"transferFrom(address,address,uint256)": "infinite",
						"transferOwnership(address)": "30835",
						"upgradeTo(address)": "infinite",
						"upgradeToAndCall(address,bytes)": "infinite"
					},
					"internal": {
						"_authorizeUpgrade(address)": "infinite"
					}
				},
				"methodIdentifiers": {
					"allowance(address,address)": "dd62ed3e",
					"approve(address,uint256)": "095ea7b3",
					"balanceOf(address)": "70a08231",
					"decimals()": "313ce567",
					"decreaseAllowance(address,uint256)": "a457c2d7",
					"increaseAllowance(address,uint256)": "39509351",
					"initialize(uint256)": "fe4b84df",
					"name()": "06fdde03",
					"owner()": "8da5cb5b",
					"proxiableUUID()": "52d1902d",
					"renounceOwnership()": "715018a6",
					"symbol()": "95d89b41",
					"totalSupply()": "18160ddd",
					"transfer(address,uint256)": "a9059cbb",
					"transferFrom(address,address,uint256)": "23b872dd",
					"transferOwnership(address)": "f2fde38b",
					"upgradeTo(address)": "3659cfe6",
					"upgradeToAndCall(address,bytes)": "4f1ef286"
				}
			},
			"storageLayout": {
				"storage": [
					{
						"astId": 527,
						"contract": "contracts/Implementacion Tokens Ethereum/PlatziTokenV1.sol:PlatziTokenV1",
						"label": "_initialized",
						"offset": 0,
						"slot": "0",
						"type": "t_uint8"
					},
					{
						"astId": 530,
						"contract": "contracts/Implementacion Tokens Ethereum/PlatziTokenV1.sol:PlatziTokenV1",
						"label": "_initializing",
						"offset": 1,
						"slot": "0",
						"type": "t_bool"
					},
					{
						"astId": 1865,
						"contract": "contracts/Implementacion Tokens Ethereum/PlatziTokenV1.sol:PlatziTokenV1",
						"label": "__gap",
						"offset": 0,
						"slot": "1",
						"type": "t_array(t_uint256)50_storage"
					},
					{
						"astId": 844,
						"contract": "contracts/Implementacion Tokens Ethereum/PlatziTokenV1.sol:PlatziTokenV1",
						"label": "_balances",
						"offset": 0,
						"slot": "51",
						"type": "t_mapping(t_address,t_uint256)"
					},
					{
						"astId": 850,
						"contract": "contracts/Implementacion Tokens Ethereum/PlatziTokenV1.sol:PlatziTokenV1",
						"label": "_allowances",
						"offset": 0,
						"slot": "52",
						"type": "t_mapping(t_address,t_mapping(t_address,t_uint256))"
					},
					{
						"astId": 852,
						"contract": "contracts/Implementacion Tokens Ethereum/PlatziTokenV1.sol:PlatziTokenV1",
						"label": "_totalSupply",
						"offset": 0,
						"slot": "53",
						"type": "t_uint256"
					},
					{
						"astId": 854,
						"contract": "contracts/Implementacion Tokens Ethereum/PlatziTokenV1.sol:PlatziTokenV1",
						"label": "_name",
						"offset": 0,
						"slot": "54",
						"type": "t_string_storage"
					},
					{
						"astId": 856,
						"contract": "contracts/Implementacion Tokens Ethereum/PlatziTokenV1.sol:PlatziTokenV1",
						"label": "_symbol",
						"offset": 0,
						"slot": "55",
						"type": "t_string_storage"
					},
					{
						"astId": 1436,
						"contract": "contracts/Implementacion Tokens Ethereum/PlatziTokenV1.sol:PlatziTokenV1",
						"label": "__gap",
						"offset": 0,
						"slot": "56",
						"type": "t_array(t_uint256)45_storage"
					},
					{
						"astId": 509,
						"contract": "contracts/Implementacion Tokens Ethereum/PlatziTokenV1.sol:PlatziTokenV1",
						"label": "__gap",
						"offset": 0,
						"slot": "101",
						"type": "t_array(t_uint256)50_storage"
					},
					{
						"astId": 824,
						"contract": "contracts/Implementacion Tokens Ethereum/PlatziTokenV1.sol:PlatziTokenV1",
						"label": "__gap",
						"offset": 0,
						"slot": "151",
						"type": "t_array(t_uint256)50_storage"
					},
					{
						"astId": 10,
						"contract": "contracts/Implementacion Tokens Ethereum/PlatziTokenV1.sol:PlatziTokenV1",
						"label": "_owner",
						"offset": 0,
						"slot": "201",
						"type": "t_address"
					},
					{
						"astId": 130,
						"contract": "contracts/Implementacion Tokens Ethereum/PlatziTokenV1.sol:PlatziTokenV1",
						"label": "__gap",
						"offset": 0,
						"slot": "202",
						"type": "t_array(t_uint256)49_storage"
					}
				],
				"types": {
					"t_address": {
						"encoding": "inplace",
						"label": "address",
						"numberOfBytes": "20"
					},
					"t_array(t_uint256)45_storage": {
						"base": "t_uint256",
						"encoding": "inplace",
						"label": "uint256[45]",
						"numberOfBytes": "1440"
					},
					"t_array(t_uint256)49_storage": {
						"base": "t_uint256",
						"encoding": "inplace",
						"label": "uint256[49]",
						"numberOfBytes": "1568"
					},
					"t_array(t_uint256)50_storage": {
						"base": "t_uint256",
						"encoding": "inplace",
						"label": "uint256[50]",
						"numberOfBytes": "1600"
					},
					"t_bool": {
						"encoding": "inplace",
						"label": "bool",
						"numberOfBytes": "1"
					},
					"t_mapping(t_address,t_mapping(t_address,t_uint256))": {
						"encoding": "mapping",
						"key": "t_address",
						"label": "mapping(address => mapping(address => uint256))",
						"numberOfBytes": "32",
						"value": "t_mapping(t_address,t_uint256)"
					},
					"t_mapping(t_address,t_uint256)": {
						"encoding": "mapping",
						"key": "t_address",
						"label": "mapping(address => uint256)",
						"numberOfBytes": "32",
						"value": "t_uint256"
					},
					"t_string_storage": {
						"encoding": "bytes",
						"label": "string",
						"numberOfBytes": "32"
					},
					"t_uint256": {
						"encoding": "inplace",
						"label": "uint256",
						"numberOfBytes": "32"
					},
					"t_uint8": {
						"encoding": "inplace",
						"label": "uint8",
						"numberOfBytes": "1"
					}
				}
			},
			"userdoc": {
				"kind": "user",
				"methods": {},
				"version": 1
			}
		}
	}
}