{
	"contracts/Implementacion Tokens Ethereum/EIP712MessageCounter.sol": {
		"EIP712MessageCounter": {
			"abi": [
				{
					"inputs": [],
					"stateMutability": "nonpayable",
					"type": "constructor"
				},
				{
					"inputs": [
						{
							"internalType": "address",
							"name": "account",
							"type": "address"
						}
					],
					"name": "countOf",
					"outputs": [
						{
							"internalType": "uint256",
							"name": "",
							"type": "uint256"
						}
					],
					"stateMutability": "view",
					"type": "function"
				},
				{
					"inputs": [
						{
							"internalType": "address",
							"name": "account",
							"type": "address"
						}
					],
					"name": "lastMessageOf",
					"outputs": [
						{
							"internalType": "string",
							"name": "",
							"type": "string"
						}
					],
					"stateMutability": "view",
					"type": "function"
				},
				{
					"inputs": [
						{
							"components": [
								{
									"internalType": "address",
									"name": "signer",
									"type": "address"
								},
								{
									"internalType": "string",
									"name": "message",
									"type": "string"
								}
							],
							"internalType": "struct EIP712MessageCounter.Signature",
							"name": "signatureMessage",
							"type": "tuple"
						},
						{
							"internalType": "bytes",
							"name": "signature",
							"type": "bytes"
						}
					],
					"name": "setSignerMessage",
					"outputs": [
						{
							"internalType": "bool",
							"name": "",
							"type": "bool"
						}
					],
					"stateMutability": "nonpayable",
					"type": "function"
				}
			],
			"devdoc": {
				"kind": "dev",
				"methods": {},
				"version": 1
			},
			"evm": {
				"assembly": "    /* \"contracts/Implementacion Tokens Ethereum/EIP712MessageCounter.sol\":314:2952  contract EIP712MessageCounter is EIP712 {\r... */\n  mstore(0x40, 0x0140)\n    /* \"contracts/Implementacion Tokens Ethereum/EIP712MessageCounter.sol\":994:1051  constructor() EIP712 (\"EIP712MessageCounter\", \"0.0.1\") {} */\n  callvalue\n  dup1\n  iszero\n  tag_1\n  jumpi\n  0x00\n  dup1\n  revert\ntag_1:\n  pop\n    /* \"@openzeppelin/contracts/utils/cryptography/EIP712.sol\":2464:3066  constructor(string memory name, string memory version) {... */\n  mload(0x40)\n  dup1\n  0x40\n  add\n  0x40\n  mstore\n  dup1\n  0x14\n  dup2\n  mstore\n  0x20\n  add\n  0x4549503731324d657373616765436f756e746572000000000000000000000000\n  dup2\n  mstore\n  pop\n  mload(0x40)\n  dup1\n  0x40\n  add\n  0x40\n  mstore\n  dup1\n  0x05\n  dup2\n  mstore\n  0x20\n  add\n  0x302e302e31000000000000000000000000000000000000000000000000000000\n  dup2\n  mstore\n  pop\n    /* \"@openzeppelin/contracts/utils/cryptography/EIP712.sol\":2529:2547  bytes32 hashedName */\n  0x00\n    /* \"@openzeppelin/contracts/utils/cryptography/EIP712.sol\":2566:2570  name */\n  dup3\n    /* \"@openzeppelin/contracts/utils/cryptography/EIP712.sol\":2550:2572  keccak256(bytes(name)) */\n  dup1\n  mload\n  swap1\n  0x20\n  add\n  keccak256\n    /* \"@openzeppelin/contracts/utils/cryptography/EIP712.sol\":2529:2572  bytes32 hashedName = keccak256(bytes(name)) */\n  swap1\n  pop\n    /* \"@openzeppelin/contracts/utils/cryptography/EIP712.sol\":2582:2603  bytes32 hashedVersion */\n  0x00\n    /* \"@openzeppelin/contracts/utils/cryptography/EIP712.sol\":2622:2629  version */\n  dup3\n    /* \"@openzeppelin/contracts/utils/cryptography/EIP712.sol\":2606:2631  keccak256(bytes(version)) */\n  dup1\n  mload\n  swap1\n  0x20\n  add\n  keccak256\n    /* \"@openzeppelin/contracts/utils/cryptography/EIP712.sol\":2582:2631  bytes32 hashedVersion = keccak256(bytes(version)) */\n  swap1\n  pop\n    /* \"@openzeppelin/contracts/utils/cryptography/EIP712.sol\":2641:2657  bytes32 typeHash */\n  0x00\n    /* \"@openzeppelin/contracts/utils/cryptography/EIP712.sol\":2660:2777  keccak256(... */\n  0x8b73c3c69bb8fe3d512ecc4cf759cc79239f7b179b0ffacaa9a75d522b39400f\n    /* \"@openzeppelin/contracts/utils/cryptography/EIP712.sol\":2641:2777  bytes32 typeHash = keccak256(... */\n  swap1\n  pop\n    /* \"@openzeppelin/contracts/utils/cryptography/EIP712.sol\":2802:2812  hashedName */\n  dup3\n    /* \"@openzeppelin/contracts/utils/cryptography/EIP712.sol\":2787:2812  _HASHED_NAME = hashedName */\n  0xe0\n  dup2\n  dup2\n  mstore\n  pop\n  pop\n    /* \"@openzeppelin/contracts/utils/cryptography/EIP712.sol\":2840:2853  hashedVersion */\n  dup2\n    /* \"@openzeppelin/contracts/utils/cryptography/EIP712.sol\":2822:2853  _HASHED_VERSION = hashedVersion */\n  0x0100\n  dup2\n  dup2\n  mstore\n  pop\n  pop\n    /* \"@openzeppelin/contracts/utils/cryptography/EIP712.sol\":2882:2895  block.chainid */\n  chainid\n    /* \"@openzeppelin/contracts/utils/cryptography/EIP712.sol\":2863:2895  _CACHED_CHAIN_ID = block.chainid */\n  0xa0\n  dup2\n  dup2\n  mstore\n  pop\n  pop\n    /* \"@openzeppelin/contracts/utils/cryptography/EIP712.sol\":2932:2990  _buildDomainSeparator(typeHash, hashedName, hashedVersion) */\n  tag_5\n    /* \"@openzeppelin/contracts/utils/cryptography/EIP712.sol\":2954:2962  typeHash */\n  dup2\n    /* \"@openzeppelin/contracts/utils/cryptography/EIP712.sol\":2964:2974  hashedName */\n  dup5\n    /* \"@openzeppelin/contracts/utils/cryptography/EIP712.sol\":2976:2989  hashedVersion */\n  dup5\n    /* \"@openzeppelin/contracts/utils/cryptography/EIP712.sol\":2932:2953  _buildDomainSeparator */\n  shl(0x20, tag_6)\n    /* \"@openzeppelin/contracts/utils/cryptography/EIP712.sol\":2932:2990  _buildDomainSeparator(typeHash, hashedName, hashedVersion) */\n  0x20\n  shr\n  jump\t// in\ntag_5:\n    /* \"@openzeppelin/contracts/utils/cryptography/EIP712.sol\":2905:2990  _CACHED_DOMAIN_SEPARATOR = _buildDomainSeparator(typeHash, hashedName, hashedVersion) */\n  0x80\n  dup2\n  dup2\n  mstore\n  pop\n  pop\n    /* \"@openzeppelin/contracts/utils/cryptography/EIP712.sol\":3023:3027  this */\n  address\n    /* \"@openzeppelin/contracts/utils/cryptography/EIP712.sol\":3000:3028  _CACHED_THIS = address(this) */\n  0xffffffffffffffffffffffffffffffffffffffff\n  and\n  0xc0\n  dup2\n  0xffffffffffffffffffffffffffffffffffffffff\n  and\n  0x60\n  shl\n  dup2\n  mstore\n  pop\n  pop\n    /* \"@openzeppelin/contracts/utils/cryptography/EIP712.sol\":3051:3059  typeHash */\n  dup1\n    /* \"@openzeppelin/contracts/utils/cryptography/EIP712.sol\":3038:3059  _TYPE_HASH = typeHash */\n  0x0120\n  dup2\n  dup2\n  mstore\n  pop\n  pop\n    /* \"@openzeppelin/contracts/utils/cryptography/EIP712.sol\":2519:3066  {... */\n  pop\n  pop\n  pop\n    /* \"@openzeppelin/contracts/utils/cryptography/EIP712.sol\":2464:3066  constructor(string memory name, string memory version) {... */\n  pop\n  pop\n    /* \"contracts/Implementacion Tokens Ethereum/EIP712MessageCounter.sol\":314:2952  contract EIP712MessageCounter is EIP712 {\r... */\n  jump(tag_8)\n    /* \"@openzeppelin/contracts/utils/cryptography/EIP712.sol\":3466:3723  function _buildDomainSeparator(... */\ntag_6:\n    /* \"@openzeppelin/contracts/utils/cryptography/EIP712.sol\":3606:3613  bytes32 */\n  0x00\n    /* \"@openzeppelin/contracts/utils/cryptography/EIP712.sol\":3653:3661  typeHash */\n  dup4\n    /* \"@openzeppelin/contracts/utils/cryptography/EIP712.sol\":3663:3671  nameHash */\n  dup4\n    /* \"@openzeppelin/contracts/utils/cryptography/EIP712.sol\":3673:3684  versionHash */\n  dup4\n    /* \"@openzeppelin/contracts/utils/cryptography/EIP712.sol\":3686:3699  block.chainid */\n  chainid\n    /* \"@openzeppelin/contracts/utils/cryptography/EIP712.sol\":3709:3713  this */\n  address\n    /* \"@openzeppelin/contracts/utils/cryptography/EIP712.sol\":3642:3715  abi.encode(typeHash, nameHash, versionHash, block.chainid, address(this)) */\n  add(0x20, mload(0x40))\n  tag_10\n  swap6\n  swap5\n  swap4\n  swap3\n  swap2\n  swap1\n  tag_11\n  jump\t// in\ntag_10:\n  mload(0x40)\n  0x20\n  dup2\n  dup4\n  sub\n  sub\n  dup2\n  mstore\n  swap1\n  0x40\n  mstore\n    /* \"@openzeppelin/contracts/utils/cryptography/EIP712.sol\":3632:3716  keccak256(abi.encode(typeHash, nameHash, versionHash, block.chainid, address(this))) */\n  dup1\n  mload\n  swap1\n  0x20\n  add\n  keccak256\n    /* \"@openzeppelin/contracts/utils/cryptography/EIP712.sol\":3625:3716  return keccak256(abi.encode(typeHash, nameHash, versionHash, block.chainid, address(this))) */\n  swap1\n  pop\n    /* \"@openzeppelin/contracts/utils/cryptography/EIP712.sol\":3466:3723  function _buildDomainSeparator(... */\n  swap4\n  swap3\n  pop\n  pop\n  pop\n  jump\t// out\n    /* \"#utility.yul\":7:125   */\ntag_13:\n    /* \"#utility.yul\":94:118   */\n  tag_15\n    /* \"#utility.yul\":112:117   */\n  dup2\n    /* \"#utility.yul\":94:118   */\n  tag_16\n  jump\t// in\ntag_15:\n    /* \"#utility.yul\":89:92   */\n  dup3\n    /* \"#utility.yul\":82:119   */\n  mstore\n    /* \"#utility.yul\":7:125   */\n  pop\n  pop\n  jump\t// out\n    /* \"#utility.yul\":131:249   */\ntag_17:\n    /* \"#utility.yul\":218:242   */\n  tag_19\n    /* \"#utility.yul\":236:241   */\n  dup2\n    /* \"#utility.yul\":218:242   */\n  tag_20\n  jump\t// in\ntag_19:\n    /* \"#utility.yul\":213:216   */\n  dup3\n    /* \"#utility.yul\":206:243   */\n  mstore\n    /* \"#utility.yul\":131:249   */\n  pop\n  pop\n  jump\t// out\n    /* \"#utility.yul\":255:373   */\ntag_21:\n    /* \"#utility.yul\":342:366   */\n  tag_23\n    /* \"#utility.yul\":360:365   */\n  dup2\n    /* \"#utility.yul\":342:366   */\n  tag_24\n  jump\t// in\ntag_23:\n    /* \"#utility.yul\":337:340   */\n  dup3\n    /* \"#utility.yul\":330:367   */\n  mstore\n    /* \"#utility.yul\":255:373   */\n  pop\n  pop\n  jump\t// out\n    /* \"#utility.yul\":379:1043   */\ntag_11:\n    /* \"#utility.yul\":584:588   */\n  0x00\n    /* \"#utility.yul\":622:625   */\n  0xa0\n    /* \"#utility.yul\":611:620   */\n  dup3\n    /* \"#utility.yul\":607:626   */\n  add\n    /* \"#utility.yul\":599:626   */\n  swap1\n  pop\n    /* \"#utility.yul\":636:707   */\n  tag_26\n    /* \"#utility.yul\":704:705   */\n  0x00\n    /* \"#utility.yul\":693:702   */\n  dup4\n    /* \"#utility.yul\":689:706   */\n  add\n    /* \"#utility.yul\":680:686   */\n  dup9\n    /* \"#utility.yul\":636:707   */\n  tag_17\n  jump\t// in\ntag_26:\n    /* \"#utility.yul\":717:789   */\n  tag_27\n    /* \"#utility.yul\":785:787   */\n  0x20\n    /* \"#utility.yul\":774:783   */\n  dup4\n    /* \"#utility.yul\":770:788   */\n  add\n    /* \"#utility.yul\":761:767   */\n  dup8\n    /* \"#utility.yul\":717:789   */\n  tag_17\n  jump\t// in\ntag_27:\n    /* \"#utility.yul\":799:871   */\n  tag_28\n    /* \"#utility.yul\":867:869   */\n  0x40\n    /* \"#utility.yul\":856:865   */\n  dup4\n    /* \"#utility.yul\":852:870   */\n  add\n    /* \"#utility.yul\":843:849   */\n  dup7\n    /* \"#utility.yul\":799:871   */\n  tag_17\n  jump\t// in\ntag_28:\n    /* \"#utility.yul\":881:953   */\n  tag_29\n    /* \"#utility.yul\":949:951   */\n  0x60\n    /* \"#utility.yul\":938:947   */\n  dup4\n    /* \"#utility.yul\":934:952   */\n  add\n    /* \"#utility.yul\":925:931   */\n  dup6\n    /* \"#utility.yul\":881:953   */\n  tag_21\n  jump\t// in\ntag_29:\n    /* \"#utility.yul\":963:1036   */\n  tag_30\n    /* \"#utility.yul\":1031:1034   */\n  0x80\n    /* \"#utility.yul\":1020:1029   */\n  dup4\n    /* \"#utility.yul\":1016:1035   */\n  add\n    /* \"#utility.yul\":1007:1013   */\n  dup5\n    /* \"#utility.yul\":963:1036   */\n  tag_13\n  jump\t// in\ntag_30:\n    /* \"#utility.yul\":379:1043   */\n  swap7\n  swap6\n  pop\n  pop\n  pop\n  pop\n  pop\n  pop\n  jump\t// out\n    /* \"#utility.yul\":1049:1145   */\ntag_16:\n    /* \"#utility.yul\":1086:1093   */\n  0x00\n    /* \"#utility.yul\":1115:1139   */\n  tag_32\n    /* \"#utility.yul\":1133:1138   */\n  dup3\n    /* \"#utility.yul\":1115:1139   */\n  tag_33\n  jump\t// in\ntag_32:\n    /* \"#utility.yul\":1104:1139   */\n  swap1\n  pop\n    /* \"#utility.yul\":1049:1145   */\n  swap2\n  swap1\n  pop\n  jump\t// out\n    /* \"#utility.yul\":1151:1228   */\ntag_20:\n    /* \"#utility.yul\":1188:1195   */\n  0x00\n    /* \"#utility.yul\":1217:1222   */\n  dup2\n    /* \"#utility.yul\":1206:1222   */\n  swap1\n  pop\n    /* \"#utility.yul\":1151:1228   */\n  swap2\n  swap1\n  pop\n  jump\t// out\n    /* \"#utility.yul\":1234:1360   */\ntag_33:\n    /* \"#utility.yul\":1271:1278   */\n  0x00\n    /* \"#utility.yul\":1311:1353   */\n  0xffffffffffffffffffffffffffffffffffffffff\n    /* \"#utility.yul\":1304:1309   */\n  dup3\n    /* \"#utility.yul\":1300:1354   */\n  and\n    /* \"#utility.yul\":1289:1354   */\n  swap1\n  pop\n    /* \"#utility.yul\":1234:1360   */\n  swap2\n  swap1\n  pop\n  jump\t// out\n    /* \"#utility.yul\":1366:1443   */\ntag_24:\n    /* \"#utility.yul\":1403:1410   */\n  0x00\n    /* \"#utility.yul\":1432:1437   */\n  dup2\n    /* \"#utility.yul\":1421:1437   */\n  swap1\n  pop\n    /* \"#utility.yul\":1366:1443   */\n  swap2\n  swap1\n  pop\n  jump\t// out\n    /* \"contracts/Implementacion Tokens Ethereum/EIP712MessageCounter.sol\":314:2952  contract EIP712MessageCounter is EIP712 {\r... */\ntag_8:\n  mload(0x80)\n  mload(0xa0)\n  shr(0x60, mload(0xc0))\n  mload(0xe0)\n  mload(0x0100)\n  mload(0x0120)\n  codecopy(0x00, dataOffset(sub_0), dataSize(sub_0))\n  0x00\n  assignImmutable(\"0xd54003e33f3f1d6656a9f4f81a3c7bd75145164696340a041aed5636bd167569\")\n  0x00\n  assignImmutable(\"0xadd35db6d9cbb4a93083ce00f6da825d590d67feeb3a24ddce512c81a6f977f2\")\n  0x00\n  assignImmutable(\"0xe07291691b14f575b5cfdac2c09a610941d76185383eed85c94ea499aff65392\")\n  0x00\n  assignImmutable(\"0xd255d1e2fbaebdc7ec40fedaea7c9b95572f4cd4f117fe0d25807a70ab43d03d\")\n  0x00\n  assignImmutable(\"0x50fd9bdcde6b34c0ec3f59642a2fdd0aa19d3c4402950929a5840857c06086a0\")\n  0x00\n  assignImmutable(\"0x71c24ce59180130dc1b5c3ebcbddeb1cf32dae46f5ec55f50a3074f581ef8c07\")\n  return(0x00, dataSize(sub_0))\nstop\n\nsub_0: assembly {\n        /* \"contracts/Implementacion Tokens Ethereum/EIP712MessageCounter.sol\":314:2952  contract EIP712MessageCounter is EIP712 {\r... */\n      mstore(0x40, 0x80)\n      callvalue\n      dup1\n      iszero\n      tag_1\n      jumpi\n      0x00\n      dup1\n      revert\n    tag_1:\n      pop\n      jumpi(tag_2, lt(calldatasize, 0x04))\n      shr(0xe0, calldataload(0x00))\n      dup1\n      0x41cf0893\n      eq\n      tag_3\n      jumpi\n      dup1\n      0xc03f489a\n      eq\n      tag_4\n      jumpi\n      dup1\n      0xf8977e96\n      eq\n      tag_5\n      jumpi\n    tag_2:\n      0x00\n      dup1\n      revert\n        /* \"contracts/Implementacion Tokens Ethereum/EIP712MessageCounter.sol\":1904:2588  function setSignerMessage( //función para firmar el mensaje de forma offchain\r... */\n    tag_3:\n      tag_6\n      0x04\n      dup1\n      calldatasize\n      sub\n      dup2\n      add\n      swap1\n      tag_7\n      swap2\n      swap1\n      tag_8\n      jump\t// in\n    tag_7:\n      tag_9\n      jump\t// in\n    tag_6:\n      mload(0x40)\n      tag_10\n      swap2\n      swap1\n      tag_11\n      jump\t// in\n    tag_10:\n      mload(0x40)\n      dup1\n      swap2\n      sub\n      swap1\n      return\n        /* \"contracts/Implementacion Tokens Ethereum/EIP712MessageCounter.sol\":2786:2949  function lastMessageOf(address account)\r... */\n    tag_4:\n      tag_12\n      0x04\n      dup1\n      calldatasize\n      sub\n      dup2\n      add\n      swap1\n      tag_13\n      swap2\n      swap1\n      tag_14\n      jump\t// in\n    tag_13:\n      tag_15\n      jump\t// in\n    tag_12:\n      mload(0x40)\n      tag_16\n      swap2\n      swap1\n      tag_17\n      jump\t// in\n    tag_16:\n      mload(0x40)\n      dup1\n      swap2\n      sub\n      swap1\n      return\n        /* \"contracts/Implementacion Tokens Ethereum/EIP712MessageCounter.sol\":2639:2747  function countOf(address account) public view returns (uint256) {\r... */\n    tag_5:\n      tag_18\n      0x04\n      dup1\n      calldatasize\n      sub\n      dup2\n      add\n      swap1\n      tag_19\n      swap2\n      swap1\n      tag_14\n      jump\t// in\n    tag_19:\n      tag_20\n      jump\t// in\n    tag_18:\n      mload(0x40)\n      tag_21\n      swap2\n      swap1\n      tag_22\n      jump\t// in\n    tag_21:\n      mload(0x40)\n      dup1\n      swap2\n      sub\n      swap1\n      return\n        /* \"contracts/Implementacion Tokens Ethereum/EIP712MessageCounter.sol\":1904:2588  function setSignerMessage( //función para firmar el mensaje de forma offchain\r... */\n    tag_9:\n        /* \"contracts/Implementacion Tokens Ethereum/EIP712MessageCounter.sol\":2086:2090  bool */\n      0x00\n        /* \"contracts/Implementacion Tokens Ethereum/EIP712MessageCounter.sol\":2125:2174  _verifySignedMessage(signatureMessage, signature) */\n      tag_24\n        /* \"contracts/Implementacion Tokens Ethereum/EIP712MessageCounter.sol\":2146:2162  signatureMessage */\n      dup5\n        /* \"contracts/Implementacion Tokens Ethereum/EIP712MessageCounter.sol\":2164:2173  signature */\n      dup5\n      dup5\n        /* \"contracts/Implementacion Tokens Ethereum/EIP712MessageCounter.sol\":2125:2145  _verifySignedMessage */\n      tag_25\n        /* \"contracts/Implementacion Tokens Ethereum/EIP712MessageCounter.sol\":2125:2174  _verifySignedMessage(signatureMessage, signature) */\n      jump\t// in\n    tag_24:\n        /* \"contracts/Implementacion Tokens Ethereum/EIP712MessageCounter.sol\":2103:2344  require(\r... */\n      tag_26\n      jumpi\n      mload(0x40)\n      0x08c379a000000000000000000000000000000000000000000000000000000000\n      dup2\n      mstore\n      0x04\n      add\n      tag_27\n      swap1\n      tag_28\n      jump\t// in\n    tag_27:\n      mload(0x40)\n      dup1\n      swap2\n      sub\n      swap1\n      revert\n    tag_26:\n        /* \"contracts/Implementacion Tokens Ethereum/EIP712MessageCounter.sol\":2457:2458  1 */\n      0x01\n        /* \"contracts/Implementacion Tokens Ethereum/EIP712MessageCounter.sol\":2407:2416  _counters */\n      0x00\n        /* \"contracts/Implementacion Tokens Ethereum/EIP712MessageCounter.sol\":2407:2441  _counters[signatureMessage.signer] */\n      dup1\n        /* \"contracts/Implementacion Tokens Ethereum/EIP712MessageCounter.sol\":2417:2433  signatureMessage */\n      dup7\n        /* \"contracts/Implementacion Tokens Ethereum/EIP712MessageCounter.sol\":2417:2440  signatureMessage.signer */\n      0x00\n      add\n      0x20\n      dup2\n      add\n      swap1\n      tag_29\n      swap2\n      swap1\n      tag_14\n      jump\t// in\n    tag_29:\n        /* \"contracts/Implementacion Tokens Ethereum/EIP712MessageCounter.sol\":2407:2441  _counters[signatureMessage.signer] */\n      0xffffffffffffffffffffffffffffffffffffffff\n      and\n      0xffffffffffffffffffffffffffffffffffffffff\n      and\n      dup2\n      mstore\n      0x20\n      add\n      swap1\n      dup2\n      mstore\n      0x20\n      add\n      0x00\n      keccak256\n      sload\n        /* \"contracts/Implementacion Tokens Ethereum/EIP712MessageCounter.sol\":2407:2458  _counters[signatureMessage.signer] +\r... */\n      tag_30\n      swap2\n      swap1\n      tag_31\n      jump\t// in\n    tag_30:\n        /* \"contracts/Implementacion Tokens Ethereum/EIP712MessageCounter.sol\":2357:2366  _counters */\n      0x00\n        /* \"contracts/Implementacion Tokens Ethereum/EIP712MessageCounter.sol\":2357:2391  _counters[signatureMessage.signer] */\n      dup1\n        /* \"contracts/Implementacion Tokens Ethereum/EIP712MessageCounter.sol\":2367:2383  signatureMessage */\n      dup7\n        /* \"contracts/Implementacion Tokens Ethereum/EIP712MessageCounter.sol\":2367:2390  signatureMessage.signer */\n      0x00\n      add\n      0x20\n      dup2\n      add\n      swap1\n      tag_32\n      swap2\n      swap1\n      tag_14\n      jump\t// in\n    tag_32:\n        /* \"contracts/Implementacion Tokens Ethereum/EIP712MessageCounter.sol\":2357:2391  _counters[signatureMessage.signer] */\n      0xffffffffffffffffffffffffffffffffffffffff\n      and\n      0xffffffffffffffffffffffffffffffffffffffff\n      and\n      dup2\n      mstore\n      0x20\n      add\n      swap1\n      dup2\n      mstore\n      0x20\n      add\n      0x00\n      keccak256\n        /* \"contracts/Implementacion Tokens Ethereum/EIP712MessageCounter.sol\":2357:2458  _counters[signatureMessage.signer] =\r... */\n      dup2\n      swap1\n      sstore\n      pop\n        /* \"contracts/Implementacion Tokens Ethereum/EIP712MessageCounter.sol\":2518:2534  signatureMessage */\n      dup4\n        /* \"contracts/Implementacion Tokens Ethereum/EIP712MessageCounter.sol\":2518:2556  signatureMessage\r... */\n      dup1\n      0x20\n      add\n      swap1\n      tag_33\n      swap2\n      swap1\n      tag_34\n      jump\t// in\n    tag_33:\n        /* \"contracts/Implementacion Tokens Ethereum/EIP712MessageCounter.sol\":2470:2490  _accountsLastMessage */\n      0x01\n        /* \"contracts/Implementacion Tokens Ethereum/EIP712MessageCounter.sol\":2470:2515  _accountsLastMessage[signatureMessage.signer] */\n      0x00\n        /* \"contracts/Implementacion Tokens Ethereum/EIP712MessageCounter.sol\":2491:2507  signatureMessage */\n      dup8\n        /* \"contracts/Implementacion Tokens Ethereum/EIP712MessageCounter.sol\":2491:2514  signatureMessage.signer */\n      0x00\n      add\n      0x20\n      dup2\n      add\n      swap1\n      tag_35\n      swap2\n      swap1\n      tag_14\n      jump\t// in\n    tag_35:\n        /* \"contracts/Implementacion Tokens Ethereum/EIP712MessageCounter.sol\":2470:2515  _accountsLastMessage[signatureMessage.signer] */\n      0xffffffffffffffffffffffffffffffffffffffff\n      and\n      0xffffffffffffffffffffffffffffffffffffffff\n      and\n      dup2\n      mstore\n      0x20\n      add\n      swap1\n      dup2\n      mstore\n      0x20\n      add\n      0x00\n      keccak256\n        /* \"contracts/Implementacion Tokens Ethereum/EIP712MessageCounter.sol\":2470:2556  _accountsLastMessage[signatureMessage.signer] = signatureMessage\r... */\n      swap2\n      swap1\n      tag_36\n      swap3\n      swap2\n      swap1\n      tag_37\n      jump\t// in\n    tag_36:\n      pop\n        /* \"contracts/Implementacion Tokens Ethereum/EIP712MessageCounter.sol\":2576:2580  true */\n      0x01\n        /* \"contracts/Implementacion Tokens Ethereum/EIP712MessageCounter.sol\":2569:2580  return true */\n      swap1\n      pop\n        /* \"contracts/Implementacion Tokens Ethereum/EIP712MessageCounter.sol\":1904:2588  function setSignerMessage( //función para firmar el mensaje de forma offchain\r... */\n      swap4\n      swap3\n      pop\n      pop\n      pop\n      jump\t// out\n        /* \"contracts/Implementacion Tokens Ethereum/EIP712MessageCounter.sol\":2786:2949  function lastMessageOf(address account)\r... */\n    tag_15:\n        /* \"contracts/Implementacion Tokens Ethereum/EIP712MessageCounter.sol\":2874:2887  string memory */\n      0x60\n        /* \"contracts/Implementacion Tokens Ethereum/EIP712MessageCounter.sol\":2912:2932  _accountsLastMessage */\n      0x01\n        /* \"contracts/Implementacion Tokens Ethereum/EIP712MessageCounter.sol\":2912:2941  _accountsLastMessage[account] */\n      0x00\n        /* \"contracts/Implementacion Tokens Ethereum/EIP712MessageCounter.sol\":2933:2940  account */\n      dup4\n        /* \"contracts/Implementacion Tokens Ethereum/EIP712MessageCounter.sol\":2912:2941  _accountsLastMessage[account] */\n      0xffffffffffffffffffffffffffffffffffffffff\n      and\n      0xffffffffffffffffffffffffffffffffffffffff\n      and\n      dup2\n      mstore\n      0x20\n      add\n      swap1\n      dup2\n      mstore\n      0x20\n      add\n      0x00\n      keccak256\n        /* \"contracts/Implementacion Tokens Ethereum/EIP712MessageCounter.sol\":2905:2941  return _accountsLastMessage[account] */\n      dup1\n      sload\n      tag_39\n      swap1\n      tag_40\n      jump\t// in\n    tag_39:\n      dup1\n      0x1f\n      add\n      0x20\n      dup1\n      swap2\n      div\n      mul\n      0x20\n      add\n      mload(0x40)\n      swap1\n      dup2\n      add\n      0x40\n      mstore\n      dup1\n      swap3\n      swap2\n      swap1\n      dup2\n      dup2\n      mstore\n      0x20\n      add\n      dup3\n      dup1\n      sload\n      tag_41\n      swap1\n      tag_40\n      jump\t// in\n    tag_41:\n      dup1\n      iszero\n      tag_42\n      jumpi\n      dup1\n      0x1f\n      lt\n      tag_43\n      jumpi\n      0x0100\n      dup1\n      dup4\n      sload\n      div\n      mul\n      dup4\n      mstore\n      swap2\n      0x20\n      add\n      swap2\n      jump(tag_42)\n    tag_43:\n      dup3\n      add\n      swap2\n      swap1\n      0x00\n      mstore\n      keccak256(0x00, 0x20)\n      swap1\n    tag_44:\n      dup2\n      sload\n      dup2\n      mstore\n      swap1\n      0x01\n      add\n      swap1\n      0x20\n      add\n      dup1\n      dup4\n      gt\n      tag_44\n      jumpi\n      dup3\n      swap1\n      sub\n      0x1f\n      and\n      dup3\n      add\n      swap2\n    tag_42:\n      pop\n      pop\n      pop\n      pop\n      pop\n      swap1\n      pop\n        /* \"contracts/Implementacion Tokens Ethereum/EIP712MessageCounter.sol\":2786:2949  function lastMessageOf(address account)\r... */\n      swap2\n      swap1\n      pop\n      jump\t// out\n        /* \"contracts/Implementacion Tokens Ethereum/EIP712MessageCounter.sol\":2639:2747  function countOf(address account) public view returns (uint256) {\r... */\n    tag_20:\n        /* \"contracts/Implementacion Tokens Ethereum/EIP712MessageCounter.sol\":2694:2701  uint256 */\n      0x00\n        /* \"contracts/Implementacion Tokens Ethereum/EIP712MessageCounter.sol\":2721:2730  _counters */\n      dup1\n        /* \"contracts/Implementacion Tokens Ethereum/EIP712MessageCounter.sol\":2721:2739  _counters[account] */\n      0x00\n        /* \"contracts/Implementacion Tokens Ethereum/EIP712MessageCounter.sol\":2731:2738  account */\n      dup4\n        /* \"contracts/Implementacion Tokens Ethereum/EIP712MessageCounter.sol\":2721:2739  _counters[account] */\n      0xffffffffffffffffffffffffffffffffffffffff\n      and\n      0xffffffffffffffffffffffffffffffffffffffff\n      and\n      dup2\n      mstore\n      0x20\n      add\n      swap1\n      dup2\n      mstore\n      0x20\n      add\n      0x00\n      keccak256\n      sload\n        /* \"contracts/Implementacion Tokens Ethereum/EIP712MessageCounter.sol\":2714:2739  return _counters[account] */\n      swap1\n      pop\n        /* \"contracts/Implementacion Tokens Ethereum/EIP712MessageCounter.sol\":2639:2747  function countOf(address account) public view returns (uint256) {\r... */\n      swap2\n      swap1\n      pop\n      jump\t// out\n        /* \"contracts/Implementacion Tokens Ethereum/EIP712MessageCounter.sol\":1059:1896  function _verifySignedMessage(\r... */\n    tag_25:\n        /* \"contracts/Implementacion Tokens Ethereum/EIP712MessageCounter.sol\":1200:1204  bool */\n      0x00\n        /* \"contracts/Implementacion Tokens Ethereum/EIP712MessageCounter.sol\":1261:1275  bytes32 digest */\n      dup1\n        /* \"contracts/Implementacion Tokens Ethereum/EIP712MessageCounter.sol\":1278:1655  _hashTypedDataV4(\r... */\n      tag_47\n        /* \"contracts/Implementacion Tokens Ethereum/EIP712MessageCounter.sol\":853:906  keccak256(\"Signature(address signer,string message)\") */\n      0x0a8060ed8826a8252ef7ff68c4ddab8403afdf9869d3ad51b4ca867e1e20546b\n        /* \"contracts/Implementacion Tokens Ethereum/EIP712MessageCounter.sol\":1522:1538  signatureMessage */\n      dup7\n        /* \"contracts/Implementacion Tokens Ethereum/EIP712MessageCounter.sol\":1522:1545  signatureMessage.signer */\n      0x00\n      add\n      0x20\n      dup2\n      add\n      swap1\n      tag_48\n      swap2\n      swap1\n      tag_14\n      jump\t// in\n    tag_48:\n        /* \"contracts/Implementacion Tokens Ethereum/EIP712MessageCounter.sol\":1584:1600  signatureMessage */\n      dup8\n        /* \"contracts/Implementacion Tokens Ethereum/EIP712MessageCounter.sol\":1584:1608  signatureMessage.message */\n      dup1\n      0x20\n      add\n      swap1\n      tag_49\n      swap2\n      swap1\n      tag_34\n      jump\t// in\n    tag_49:\n        /* \"contracts/Implementacion Tokens Ethereum/EIP712MessageCounter.sol\":1568:1610  keccak256(bytes(signatureMessage.message)) */\n      mload(0x40)\n      tag_50\n      swap3\n      swap2\n      swap1\n      tag_51\n      jump\t// in\n    tag_50:\n      mload(0x40)\n      dup1\n      swap2\n      sub\n      swap1\n      keccak256\n        /* \"contracts/Implementacion Tokens Ethereum/EIP712MessageCounter.sol\":1385:1629  abi.encode( //Pasa el hash del tipo y las propiedades de la estructura\r... */\n      add(0x20, mload(0x40))\n      tag_52\n      swap4\n      swap3\n      swap2\n      swap1\n      tag_53\n      jump\t// in\n    tag_52:\n      mload(0x40)\n      0x20\n      dup2\n      dup4\n      sub\n      sub\n      dup2\n      mstore\n      swap1\n      0x40\n      mstore\n        /* \"contracts/Implementacion Tokens Ethereum/EIP712MessageCounter.sol\":1357:1644  keccak256(\r... */\n      dup1\n      mload\n      swap1\n      0x20\n      add\n      keccak256\n        /* \"contracts/Implementacion Tokens Ethereum/EIP712MessageCounter.sol\":1278:1294  _hashTypedDataV4 */\n      tag_54\n        /* \"contracts/Implementacion Tokens Ethereum/EIP712MessageCounter.sol\":1278:1655  _hashTypedDataV4(\r... */\n      jump\t// in\n    tag_47:\n        /* \"contracts/Implementacion Tokens Ethereum/EIP712MessageCounter.sol\":1261:1655  bytes32 digest = _hashTypedDataV4(\r... */\n      swap1\n      pop\n        /* \"contracts/Implementacion Tokens Ethereum/EIP712MessageCounter.sol\":1774:1795  address messageSigner */\n      0x00\n        /* \"contracts/Implementacion Tokens Ethereum/EIP712MessageCounter.sol\":1798:1830  ECDSA.recover(digest, signature) */\n      tag_55\n        /* \"contracts/Implementacion Tokens Ethereum/EIP712MessageCounter.sol\":1812:1818  digest */\n      dup3\n        /* \"contracts/Implementacion Tokens Ethereum/EIP712MessageCounter.sol\":1820:1829  signature */\n      dup7\n      dup7\n        /* \"contracts/Implementacion Tokens Ethereum/EIP712MessageCounter.sol\":1798:1830  ECDSA.recover(digest, signature) */\n      dup1\n      dup1\n      0x1f\n      add\n      0x20\n      dup1\n      swap2\n      div\n      mul\n      0x20\n      add\n      mload(0x40)\n      swap1\n      dup2\n      add\n      0x40\n      mstore\n      dup1\n      swap4\n      swap3\n      swap2\n      swap1\n      dup2\n      dup2\n      mstore\n      0x20\n      add\n      dup4\n      dup4\n      dup1\n      dup3\n      dup5\n      calldatacopy\n      0x00\n      dup2\n      dup5\n      add\n      mstore\n      not(0x1f)\n      0x1f\n      dup3\n      add\n      and\n      swap1\n      pop\n      dup1\n      dup4\n      add\n      swap3\n      pop\n      pop\n      pop\n      pop\n      pop\n      pop\n      pop\n        /* \"contracts/Implementacion Tokens Ethereum/EIP712MessageCounter.sol\":1798:1811  ECDSA.recover */\n      tag_56\n        /* \"contracts/Implementacion Tokens Ethereum/EIP712MessageCounter.sol\":1798:1830  ECDSA.recover(digest, signature) */\n      jump\t// in\n    tag_55:\n        /* \"contracts/Implementacion Tokens Ethereum/EIP712MessageCounter.sol\":1774:1830  address messageSigner = ECDSA.recover(digest, signature) */\n      swap1\n      pop\n        /* \"contracts/Implementacion Tokens Ethereum/EIP712MessageCounter.sol\":1865:1881  signatureMessage */\n      dup6\n        /* \"contracts/Implementacion Tokens Ethereum/EIP712MessageCounter.sol\":1865:1888  signatureMessage.signer */\n      0x00\n      add\n      0x20\n      dup2\n      add\n      swap1\n      tag_57\n      swap2\n      swap1\n      tag_14\n      jump\t// in\n    tag_57:\n        /* \"contracts/Implementacion Tokens Ethereum/EIP712MessageCounter.sol\":1848:1888  messageSigner == signatureMessage.signer */\n      0xffffffffffffffffffffffffffffffffffffffff\n      and\n        /* \"contracts/Implementacion Tokens Ethereum/EIP712MessageCounter.sol\":1848:1861  messageSigner */\n      dup2\n        /* \"contracts/Implementacion Tokens Ethereum/EIP712MessageCounter.sol\":1848:1888  messageSigner == signatureMessage.signer */\n      0xffffffffffffffffffffffffffffffffffffffff\n      and\n      eq\n        /* \"contracts/Implementacion Tokens Ethereum/EIP712MessageCounter.sol\":1841:1888  return messageSigner == signatureMessage.signer */\n      swap3\n      pop\n      pop\n      pop\n        /* \"contracts/Implementacion Tokens Ethereum/EIP712MessageCounter.sol\":1059:1896  function _verifySignedMessage(\r... */\n      swap4\n      swap3\n      pop\n      pop\n      pop\n      jump\t// out\n        /* \"@openzeppelin/contracts/utils/cryptography/EIP712.sol\":4348:4513  function _hashTypedDataV4(bytes32 structHash) internal view virtual returns (bytes32) {... */\n    tag_54:\n        /* \"@openzeppelin/contracts/utils/cryptography/EIP712.sol\":4425:4432  bytes32 */\n      0x00\n        /* \"@openzeppelin/contracts/utils/cryptography/EIP712.sol\":4451:4506  ECDSA.toTypedDataHash(_domainSeparatorV4(), structHash) */\n      tag_59\n        /* \"@openzeppelin/contracts/utils/cryptography/EIP712.sol\":4473:4493  _domainSeparatorV4() */\n      tag_60\n        /* \"@openzeppelin/contracts/utils/cryptography/EIP712.sol\":4473:4491  _domainSeparatorV4 */\n      tag_61\n        /* \"@openzeppelin/contracts/utils/cryptography/EIP712.sol\":4473:4493  _domainSeparatorV4() */\n      jump\t// in\n    tag_60:\n        /* \"@openzeppelin/contracts/utils/cryptography/EIP712.sol\":4495:4505  structHash */\n      dup4\n        /* \"@openzeppelin/contracts/utils/cryptography/EIP712.sol\":4451:4472  ECDSA.toTypedDataHash */\n      tag_62\n        /* \"@openzeppelin/contracts/utils/cryptography/EIP712.sol\":4451:4506  ECDSA.toTypedDataHash(_domainSeparatorV4(), structHash) */\n      jump\t// in\n    tag_59:\n        /* \"@openzeppelin/contracts/utils/cryptography/EIP712.sol\":4444:4506  return ECDSA.toTypedDataHash(_domainSeparatorV4(), structHash) */\n      swap1\n      pop\n        /* \"@openzeppelin/contracts/utils/cryptography/EIP712.sol\":4348:4513  function _hashTypedDataV4(bytes32 structHash) internal view virtual returns (bytes32) {... */\n      swap2\n      swap1\n      pop\n      jump\t// out\n        /* \"@openzeppelin/contracts/utils/cryptography/ECDSA.sol\":3661:3888  function recover(bytes32 hash, bytes memory signature) internal pure returns (address) {... */\n    tag_56:\n        /* \"@openzeppelin/contracts/utils/cryptography/ECDSA.sol\":3739:3746  address */\n      0x00\n        /* \"@openzeppelin/contracts/utils/cryptography/ECDSA.sol\":3759:3776  address recovered */\n      dup1\n        /* \"@openzeppelin/contracts/utils/cryptography/ECDSA.sol\":3778:3796  RecoverError error */\n      0x00\n        /* \"@openzeppelin/contracts/utils/cryptography/ECDSA.sol\":3800:3827  tryRecover(hash, signature) */\n      tag_64\n        /* \"@openzeppelin/contracts/utils/cryptography/ECDSA.sol\":3811:3815  hash */\n      dup6\n        /* \"@openzeppelin/contracts/utils/cryptography/ECDSA.sol\":3817:3826  signature */\n      dup6\n        /* \"@openzeppelin/contracts/utils/cryptography/ECDSA.sol\":3800:3810  tryRecover */\n      tag_65\n        /* \"@openzeppelin/contracts/utils/cryptography/ECDSA.sol\":3800:3827  tryRecover(hash, signature) */\n      jump\t// in\n    tag_64:\n        /* \"@openzeppelin/contracts/utils/cryptography/ECDSA.sol\":3758:3827  (address recovered, RecoverError error) = tryRecover(hash, signature) */\n      swap2\n      pop\n      swap2\n      pop\n        /* \"@openzeppelin/contracts/utils/cryptography/ECDSA.sol\":3837:3855  _throwError(error) */\n      tag_66\n        /* \"@openzeppelin/contracts/utils/cryptography/ECDSA.sol\":3849:3854  error */\n      dup2\n        /* \"@openzeppelin/contracts/utils/cryptography/ECDSA.sol\":3837:3848  _throwError */\n      tag_67\n        /* \"@openzeppelin/contracts/utils/cryptography/ECDSA.sol\":3837:3855  _throwError(error) */\n      jump\t// in\n    tag_66:\n        /* \"@openzeppelin/contracts/utils/cryptography/ECDSA.sol\":3872:3881  recovered */\n      dup2\n        /* \"@openzeppelin/contracts/utils/cryptography/ECDSA.sol\":3865:3881  return recovered */\n      swap3\n      pop\n      pop\n      pop\n        /* \"@openzeppelin/contracts/utils/cryptography/ECDSA.sol\":3661:3888  function recover(bytes32 hash, bytes memory signature) internal pure returns (address) {... */\n      swap3\n      swap2\n      pop\n      pop\n      jump\t// out\n        /* \"@openzeppelin/contracts/utils/cryptography/EIP712.sol\":3152:3460  function _domainSeparatorV4() internal view returns (bytes32) {... */\n    tag_61:\n        /* \"@openzeppelin/contracts/utils/cryptography/EIP712.sol\":3205:3212  bytes32 */\n      0x00\n        /* \"@openzeppelin/contracts/utils/cryptography/EIP712.sol\":3245:3257  _CACHED_THIS */\n      immutable(\"0xd255d1e2fbaebdc7ec40fedaea7c9b95572f4cd4f117fe0d25807a70ab43d03d\")\n        /* \"@openzeppelin/contracts/utils/cryptography/EIP712.sol\":3228:3257  address(this) == _CACHED_THIS */\n      0xffffffffffffffffffffffffffffffffffffffff\n      and\n        /* \"@openzeppelin/contracts/utils/cryptography/EIP712.sol\":3236:3240  this */\n      address\n        /* \"@openzeppelin/contracts/utils/cryptography/EIP712.sol\":3228:3257  address(this) == _CACHED_THIS */\n      0xffffffffffffffffffffffffffffffffffffffff\n      and\n      eq\n        /* \"@openzeppelin/contracts/utils/cryptography/EIP712.sol\":3228:3294  address(this) == _CACHED_THIS && block.chainid == _CACHED_CHAIN_ID */\n      dup1\n      iszero\n      tag_69\n      jumpi\n      pop\n        /* \"@openzeppelin/contracts/utils/cryptography/EIP712.sol\":3278:3294  _CACHED_CHAIN_ID */\n      immutable(\"0x50fd9bdcde6b34c0ec3f59642a2fdd0aa19d3c4402950929a5840857c06086a0\")\n        /* \"@openzeppelin/contracts/utils/cryptography/EIP712.sol\":3261:3274  block.chainid */\n      chainid\n        /* \"@openzeppelin/contracts/utils/cryptography/EIP712.sol\":3261:3294  block.chainid == _CACHED_CHAIN_ID */\n      eq\n        /* \"@openzeppelin/contracts/utils/cryptography/EIP712.sol\":3228:3294  address(this) == _CACHED_THIS && block.chainid == _CACHED_CHAIN_ID */\n    tag_69:\n        /* \"@openzeppelin/contracts/utils/cryptography/EIP712.sol\":3224:3454  if (address(this) == _CACHED_THIS && block.chainid == _CACHED_CHAIN_ID) {... */\n      iszero\n      tag_70\n      jumpi\n        /* \"@openzeppelin/contracts/utils/cryptography/EIP712.sol\":3317:3341  _CACHED_DOMAIN_SEPARATOR */\n      immutable(\"0x71c24ce59180130dc1b5c3ebcbddeb1cf32dae46f5ec55f50a3074f581ef8c07\")\n        /* \"@openzeppelin/contracts/utils/cryptography/EIP712.sol\":3310:3341  return _CACHED_DOMAIN_SEPARATOR */\n      swap1\n      pop\n      jump(tag_68)\n        /* \"@openzeppelin/contracts/utils/cryptography/EIP712.sol\":3224:3454  if (address(this) == _CACHED_THIS && block.chainid == _CACHED_CHAIN_ID) {... */\n    tag_70:\n        /* \"@openzeppelin/contracts/utils/cryptography/EIP712.sol\":3379:3443  _buildDomainSeparator(_TYPE_HASH, _HASHED_NAME, _HASHED_VERSION) */\n      tag_72\n        /* \"@openzeppelin/contracts/utils/cryptography/EIP712.sol\":3401:3411  _TYPE_HASH */\n      immutable(\"0xd54003e33f3f1d6656a9f4f81a3c7bd75145164696340a041aed5636bd167569\")\n        /* \"@openzeppelin/contracts/utils/cryptography/EIP712.sol\":3413:3425  _HASHED_NAME */\n      immutable(\"0xe07291691b14f575b5cfdac2c09a610941d76185383eed85c94ea499aff65392\")\n        /* \"@openzeppelin/contracts/utils/cryptography/EIP712.sol\":3427:3442  _HASHED_VERSION */\n      immutable(\"0xadd35db6d9cbb4a93083ce00f6da825d590d67feeb3a24ddce512c81a6f977f2\")\n        /* \"@openzeppelin/contracts/utils/cryptography/EIP712.sol\":3379:3400  _buildDomainSeparator */\n      tag_73\n        /* \"@openzeppelin/contracts/utils/cryptography/EIP712.sol\":3379:3443  _buildDomainSeparator(_TYPE_HASH, _HASHED_NAME, _HASHED_VERSION) */\n      jump\t// in\n    tag_72:\n        /* \"@openzeppelin/contracts/utils/cryptography/EIP712.sol\":3372:3443  return _buildDomainSeparator(_TYPE_HASH, _HASHED_NAME, _HASHED_VERSION) */\n      swap1\n      pop\n        /* \"@openzeppelin/contracts/utils/cryptography/EIP712.sol\":3152:3460  function _domainSeparatorV4() internal view returns (bytes32) {... */\n    tag_68:\n      swap1\n      jump\t// out\n        /* \"@openzeppelin/contracts/utils/cryptography/ECDSA.sol\":8341:8535  function toTypedDataHash(bytes32 domainSeparator, bytes32 structHash) internal pure returns (bytes32) {... */\n    tag_62:\n        /* \"@openzeppelin/contracts/utils/cryptography/ECDSA.sol\":8434:8441  bytes32 */\n      0x00\n        /* \"@openzeppelin/contracts/utils/cryptography/ECDSA.sol\":8499:8514  domainSeparator */\n      dup3\n        /* \"@openzeppelin/contracts/utils/cryptography/ECDSA.sol\":8516:8526  structHash */\n      dup3\n        /* \"@openzeppelin/contracts/utils/cryptography/ECDSA.sol\":8470:8527  abi.encodePacked(\"\\x19\\x01\", domainSeparator, structHash) */\n      add(0x20, mload(0x40))\n      tag_75\n      swap3\n      swap2\n      swap1\n      tag_76\n      jump\t// in\n    tag_75:\n      mload(0x40)\n      0x20\n      dup2\n      dup4\n      sub\n      sub\n      dup2\n      mstore\n      swap1\n      0x40\n      mstore\n        /* \"@openzeppelin/contracts/utils/cryptography/ECDSA.sol\":8460:8528  keccak256(abi.encodePacked(\"\\x19\\x01\", domainSeparator, structHash)) */\n      dup1\n      mload\n      swap1\n      0x20\n      add\n      keccak256\n        /* \"@openzeppelin/contracts/utils/cryptography/ECDSA.sol\":8453:8528  return keccak256(abi.encodePacked(\"\\x19\\x01\", domainSeparator, structHash)) */\n      swap1\n      pop\n        /* \"@openzeppelin/contracts/utils/cryptography/ECDSA.sol\":8341:8535  function toTypedDataHash(bytes32 domainSeparator, bytes32 structHash) internal pure returns (bytes32) {... */\n      swap3\n      swap2\n      pop\n      pop\n      jump\t// out\n        /* \"@openzeppelin/contracts/utils/cryptography/ECDSA.sol\":2145:2875  function tryRecover(bytes32 hash, bytes memory signature) internal pure returns (address, RecoverError) {... */\n    tag_65:\n        /* \"@openzeppelin/contracts/utils/cryptography/ECDSA.sol\":2226:2233  address */\n      0x00\n        /* \"@openzeppelin/contracts/utils/cryptography/ECDSA.sol\":2235:2247  RecoverError */\n      dup1\n        /* \"@openzeppelin/contracts/utils/cryptography/ECDSA.sol\":2283:2285  65 */\n      0x41\n        /* \"@openzeppelin/contracts/utils/cryptography/ECDSA.sol\":2263:2272  signature */\n      dup4\n        /* \"@openzeppelin/contracts/utils/cryptography/ECDSA.sol\":2263:2279  signature.length */\n      mload\n        /* \"@openzeppelin/contracts/utils/cryptography/ECDSA.sol\":2263:2285  signature.length == 65 */\n      eq\n        /* \"@openzeppelin/contracts/utils/cryptography/ECDSA.sol\":2259:2869  if (signature.length == 65) {... */\n      iszero\n      tag_78\n      jumpi\n        /* \"@openzeppelin/contracts/utils/cryptography/ECDSA.sol\":2301:2310  bytes32 r */\n      0x00\n        /* \"@openzeppelin/contracts/utils/cryptography/ECDSA.sol\":2324:2333  bytes32 s */\n      dup1\n        /* \"@openzeppelin/contracts/utils/cryptography/ECDSA.sol\":2347:2354  uint8 v */\n      0x00\n        /* \"@openzeppelin/contracts/utils/cryptography/ECDSA.sol\":2599:2603  0x20 */\n      0x20\n        /* \"@openzeppelin/contracts/utils/cryptography/ECDSA.sol\":2588:2597  signature */\n      dup7\n        /* \"@openzeppelin/contracts/utils/cryptography/ECDSA.sol\":2584:2604  add(signature, 0x20) */\n      add\n        /* \"@openzeppelin/contracts/utils/cryptography/ECDSA.sol\":2578:2605  mload(add(signature, 0x20)) */\n      mload\n        /* \"@openzeppelin/contracts/utils/cryptography/ECDSA.sol\":2573:2605  r := mload(add(signature, 0x20)) */\n      swap3\n      pop\n        /* \"@openzeppelin/contracts/utils/cryptography/ECDSA.sol\":2648:2652  0x40 */\n      0x40\n        /* \"@openzeppelin/contracts/utils/cryptography/ECDSA.sol\":2637:2646  signature */\n      dup7\n        /* \"@openzeppelin/contracts/utils/cryptography/ECDSA.sol\":2633:2653  add(signature, 0x40) */\n      add\n        /* \"@openzeppelin/contracts/utils/cryptography/ECDSA.sol\":2627:2654  mload(add(signature, 0x40)) */\n      mload\n        /* \"@openzeppelin/contracts/utils/cryptography/ECDSA.sol\":2622:2654  s := mload(add(signature, 0x40)) */\n      swap2\n      pop\n        /* \"@openzeppelin/contracts/utils/cryptography/ECDSA.sol\":2705:2709  0x60 */\n      0x60\n        /* \"@openzeppelin/contracts/utils/cryptography/ECDSA.sol\":2694:2703  signature */\n      dup7\n        /* \"@openzeppelin/contracts/utils/cryptography/ECDSA.sol\":2690:2710  add(signature, 0x60) */\n      add\n        /* \"@openzeppelin/contracts/utils/cryptography/ECDSA.sol\":2684:2711  mload(add(signature, 0x60)) */\n      mload\n        /* \"@openzeppelin/contracts/utils/cryptography/ECDSA.sol\":2681:2682  0 */\n      0x00\n        /* \"@openzeppelin/contracts/utils/cryptography/ECDSA.sol\":2676:2712  byte(0, mload(add(signature, 0x60))) */\n      byte\n        /* \"@openzeppelin/contracts/utils/cryptography/ECDSA.sol\":2671:2712  v := byte(0, mload(add(signature, 0x60))) */\n      swap1\n      pop\n        /* \"@openzeppelin/contracts/utils/cryptography/ECDSA.sol\":2746:2771  tryRecover(hash, v, r, s) */\n      tag_79\n        /* \"@openzeppelin/contracts/utils/cryptography/ECDSA.sol\":2757:2761  hash */\n      dup8\n        /* \"@openzeppelin/contracts/utils/cryptography/ECDSA.sol\":2763:2764  v */\n      dup3\n        /* \"@openzeppelin/contracts/utils/cryptography/ECDSA.sol\":2766:2767  r */\n      dup6\n        /* \"@openzeppelin/contracts/utils/cryptography/ECDSA.sol\":2769:2770  s */\n      dup6\n        /* \"@openzeppelin/contracts/utils/cryptography/ECDSA.sol\":2746:2756  tryRecover */\n      tag_80\n        /* \"@openzeppelin/contracts/utils/cryptography/ECDSA.sol\":2746:2771  tryRecover(hash, v, r, s) */\n      jump\t// in\n    tag_79:\n        /* \"@openzeppelin/contracts/utils/cryptography/ECDSA.sol\":2739:2771  return tryRecover(hash, v, r, s) */\n      swap5\n      pop\n      swap5\n      pop\n      pop\n      pop\n      pop\n      jump(tag_77)\n        /* \"@openzeppelin/contracts/utils/cryptography/ECDSA.sol\":2259:2869  if (signature.length == 65) {... */\n    tag_78:\n        /* \"@openzeppelin/contracts/utils/cryptography/ECDSA.sol\":2818:2819  0 */\n      0x00\n        /* \"@openzeppelin/contracts/utils/cryptography/ECDSA.sol\":2822:2857  RecoverError.InvalidSignatureLength */\n      0x02\n        /* \"@openzeppelin/contracts/utils/cryptography/ECDSA.sol\":2802:2858  return (address(0), RecoverError.InvalidSignatureLength) */\n      swap2\n      pop\n      swap2\n      pop\n        /* \"@openzeppelin/contracts/utils/cryptography/ECDSA.sol\":2145:2875  function tryRecover(bytes32 hash, bytes memory signature) internal pure returns (address, RecoverError) {... */\n    tag_77:\n      swap3\n      pop\n      swap3\n      swap1\n      pop\n      jump\t// out\n        /* \"@openzeppelin/contracts/utils/cryptography/ECDSA.sol\":570:1081  function _throwError(RecoverError error) private pure {... */\n    tag_67:\n        /* \"@openzeppelin/contracts/utils/cryptography/ECDSA.sol\":647:667  RecoverError.NoError */\n      0x00\n        /* \"@openzeppelin/contracts/utils/cryptography/ECDSA.sol\":638:667  error == RecoverError.NoError */\n      0x04\n      dup2\n      gt\n      iszero\n      tag_83\n      jumpi\n      tag_84\n      tag_85\n      jump\t// in\n    tag_84:\n    tag_83:\n        /* \"@openzeppelin/contracts/utils/cryptography/ECDSA.sol\":638:643  error */\n      dup2\n        /* \"@openzeppelin/contracts/utils/cryptography/ECDSA.sol\":638:667  error == RecoverError.NoError */\n      0x04\n      dup2\n      gt\n      iszero\n      tag_86\n      jumpi\n      tag_87\n      tag_85\n      jump\t// in\n    tag_87:\n    tag_86:\n      eq\n        /* \"@openzeppelin/contracts/utils/cryptography/ECDSA.sol\":634:1075  if (error == RecoverError.NoError) {... */\n      iszero\n      tag_88\n      jumpi\n        /* \"@openzeppelin/contracts/utils/cryptography/ECDSA.sol\":683:690  return; */\n      jump(tag_82)\n        /* \"@openzeppelin/contracts/utils/cryptography/ECDSA.sol\":634:1075  if (error == RecoverError.NoError) {... */\n    tag_88:\n        /* \"@openzeppelin/contracts/utils/cryptography/ECDSA.sol\":743:772  RecoverError.InvalidSignature */\n      0x01\n        /* \"@openzeppelin/contracts/utils/cryptography/ECDSA.sol\":734:772  error == RecoverError.InvalidSignature */\n      0x04\n      dup2\n      gt\n      iszero\n      tag_90\n      jumpi\n      tag_91\n      tag_85\n      jump\t// in\n    tag_91:\n    tag_90:\n        /* \"@openzeppelin/contracts/utils/cryptography/ECDSA.sol\":734:739  error */\n      dup2\n        /* \"@openzeppelin/contracts/utils/cryptography/ECDSA.sol\":734:772  error == RecoverError.InvalidSignature */\n      0x04\n      dup2\n      gt\n      iszero\n      tag_92\n      jumpi\n      tag_93\n      tag_85\n      jump\t// in\n    tag_93:\n    tag_92:\n      eq\n        /* \"@openzeppelin/contracts/utils/cryptography/ECDSA.sol\":730:1075  if (error == RecoverError.InvalidSignature) {... */\n      iszero\n      tag_94\n      jumpi\n        /* \"@openzeppelin/contracts/utils/cryptography/ECDSA.sol\":788:822  revert(\"ECDSA: invalid signature\") */\n      mload(0x40)\n      0x08c379a000000000000000000000000000000000000000000000000000000000\n      dup2\n      mstore\n      0x04\n      add\n      tag_95\n      swap1\n      tag_96\n      jump\t// in\n    tag_95:\n      mload(0x40)\n      dup1\n      swap2\n      sub\n      swap1\n      revert\n        /* \"@openzeppelin/contracts/utils/cryptography/ECDSA.sol\":730:1075  if (error == RecoverError.InvalidSignature) {... */\n    tag_94:\n        /* \"@openzeppelin/contracts/utils/cryptography/ECDSA.sol\":852:887  RecoverError.InvalidSignatureLength */\n      0x02\n        /* \"@openzeppelin/contracts/utils/cryptography/ECDSA.sol\":843:887  error == RecoverError.InvalidSignatureLength */\n      0x04\n      dup2\n      gt\n      iszero\n      tag_98\n      jumpi\n      tag_99\n      tag_85\n      jump\t// in\n    tag_99:\n    tag_98:\n        /* \"@openzeppelin/contracts/utils/cryptography/ECDSA.sol\":843:848  error */\n      dup2\n        /* \"@openzeppelin/contracts/utils/cryptography/ECDSA.sol\":843:887  error == RecoverError.InvalidSignatureLength */\n      0x04\n      dup2\n      gt\n      iszero\n      tag_100\n      jumpi\n      tag_101\n      tag_85\n      jump\t// in\n    tag_101:\n    tag_100:\n      eq\n        /* \"@openzeppelin/contracts/utils/cryptography/ECDSA.sol\":839:1075  if (error == RecoverError.InvalidSignatureLength) {... */\n      iszero\n      tag_102\n      jumpi\n        /* \"@openzeppelin/contracts/utils/cryptography/ECDSA.sol\":903:944  revert(\"ECDSA: invalid signature length\") */\n      mload(0x40)\n      0x08c379a000000000000000000000000000000000000000000000000000000000\n      dup2\n      mstore\n      0x04\n      add\n      tag_103\n      swap1\n      tag_104\n      jump\t// in\n    tag_103:\n      mload(0x40)\n      dup1\n      swap2\n      sub\n      swap1\n      revert\n        /* \"@openzeppelin/contracts/utils/cryptography/ECDSA.sol\":839:1075  if (error == RecoverError.InvalidSignatureLength) {... */\n    tag_102:\n        /* \"@openzeppelin/contracts/utils/cryptography/ECDSA.sol\":974:1004  RecoverError.InvalidSignatureS */\n      0x03\n        /* \"@openzeppelin/contracts/utils/cryptography/ECDSA.sol\":965:1004  error == RecoverError.InvalidSignatureS */\n      0x04\n      dup2\n      gt\n      iszero\n      tag_106\n      jumpi\n      tag_107\n      tag_85\n      jump\t// in\n    tag_107:\n    tag_106:\n        /* \"@openzeppelin/contracts/utils/cryptography/ECDSA.sol\":965:970  error */\n      dup2\n        /* \"@openzeppelin/contracts/utils/cryptography/ECDSA.sol\":965:1004  error == RecoverError.InvalidSignatureS */\n      0x04\n      dup2\n      gt\n      iszero\n      tag_108\n      jumpi\n      tag_109\n      tag_85\n      jump\t// in\n    tag_109:\n    tag_108:\n      eq\n        /* \"@openzeppelin/contracts/utils/cryptography/ECDSA.sol\":961:1075  if (error == RecoverError.InvalidSignatureS) {... */\n      iszero\n      tag_110\n      jumpi\n        /* \"@openzeppelin/contracts/utils/cryptography/ECDSA.sol\":1020:1064  revert(\"ECDSA: invalid signature 's' value\") */\n      mload(0x40)\n      0x08c379a000000000000000000000000000000000000000000000000000000000\n      dup2\n      mstore\n      0x04\n      add\n      tag_111\n      swap1\n      tag_112\n      jump\t// in\n    tag_111:\n      mload(0x40)\n      dup1\n      swap2\n      sub\n      swap1\n      revert\n        /* \"@openzeppelin/contracts/utils/cryptography/ECDSA.sol\":961:1075  if (error == RecoverError.InvalidSignatureS) {... */\n    tag_110:\n        /* \"@openzeppelin/contracts/utils/cryptography/ECDSA.sol\":570:1081  function _throwError(RecoverError error) private pure {... */\n    tag_82:\n      pop\n      jump\t// out\n        /* \"@openzeppelin/contracts/utils/cryptography/EIP712.sol\":3466:3723  function _buildDomainSeparator(... */\n    tag_73:\n        /* \"@openzeppelin/contracts/utils/cryptography/EIP712.sol\":3606:3613  bytes32 */\n      0x00\n        /* \"@openzeppelin/contracts/utils/cryptography/EIP712.sol\":3653:3661  typeHash */\n      dup4\n        /* \"@openzeppelin/contracts/utils/cryptography/EIP712.sol\":3663:3671  nameHash */\n      dup4\n        /* \"@openzeppelin/contracts/utils/cryptography/EIP712.sol\":3673:3684  versionHash */\n      dup4\n        /* \"@openzeppelin/contracts/utils/cryptography/EIP712.sol\":3686:3699  block.chainid */\n      chainid\n        /* \"@openzeppelin/contracts/utils/cryptography/EIP712.sol\":3709:3713  this */\n      address\n        /* \"@openzeppelin/contracts/utils/cryptography/EIP712.sol\":3642:3715  abi.encode(typeHash, nameHash, versionHash, block.chainid, address(this)) */\n      add(0x20, mload(0x40))\n      tag_114\n      swap6\n      swap5\n      swap4\n      swap3\n      swap2\n      swap1\n      tag_115\n      jump\t// in\n    tag_114:\n      mload(0x40)\n      0x20\n      dup2\n      dup4\n      sub\n      sub\n      dup2\n      mstore\n      swap1\n      0x40\n      mstore\n        /* \"@openzeppelin/contracts/utils/cryptography/EIP712.sol\":3632:3716  keccak256(abi.encode(typeHash, nameHash, versionHash, block.chainid, address(this))) */\n      dup1\n      mload\n      swap1\n      0x20\n      add\n      keccak256\n        /* \"@openzeppelin/contracts/utils/cryptography/EIP712.sol\":3625:3716  return keccak256(abi.encode(typeHash, nameHash, versionHash, block.chainid, address(this))) */\n      swap1\n      pop\n        /* \"@openzeppelin/contracts/utils/cryptography/EIP712.sol\":3466:3723  function _buildDomainSeparator(... */\n      swap4\n      swap3\n      pop\n      pop\n      pop\n      jump\t// out\n        /* \"@openzeppelin/contracts/utils/cryptography/ECDSA.sol\":5069:6563  function tryRecover(... */\n    tag_80:\n        /* \"@openzeppelin/contracts/utils/cryptography/ECDSA.sol\":5195:5202  address */\n      0x00\n        /* \"@openzeppelin/contracts/utils/cryptography/ECDSA.sol\":5204:5216  RecoverError */\n      dup1\n        /* \"@openzeppelin/contracts/utils/cryptography/ECDSA.sol\":6119:6185  0x7FFFFFFFFFFFFFFFFFFFFFFFFFFFFFFF5D576E7357A4501DDFE92F46681B20A0 */\n      0x7fffffffffffffffffffffffffffffff5d576e7357a4501ddfe92f46681b20a0\n        /* \"@openzeppelin/contracts/utils/cryptography/ECDSA.sol\":6114:6115  s */\n      dup4\n        /* \"@openzeppelin/contracts/utils/cryptography/ECDSA.sol\":6106:6116  uint256(s) */\n      0x00\n      shr\n        /* \"@openzeppelin/contracts/utils/cryptography/ECDSA.sol\":6106:6185  uint256(s) > 0x7FFFFFFFFFFFFFFFFFFFFFFFFFFFFFFF5D576E7357A4501DDFE92F46681B20A0 */\n      gt\n        /* \"@openzeppelin/contracts/utils/cryptography/ECDSA.sol\":6102:6263  if (uint256(s) > 0x7FFFFFFFFFFFFFFFFFFFFFFFFFFFFFFF5D576E7357A4501DDFE92F46681B20A0) {... */\n      iszero\n      tag_117\n      jumpi\n        /* \"@openzeppelin/contracts/utils/cryptography/ECDSA.sol\":6217:6218  0 */\n      0x00\n        /* \"@openzeppelin/contracts/utils/cryptography/ECDSA.sol\":6221:6251  RecoverError.InvalidSignatureS */\n      0x03\n        /* \"@openzeppelin/contracts/utils/cryptography/ECDSA.sol\":6201:6252  return (address(0), RecoverError.InvalidSignatureS) */\n      swap2\n      pop\n      swap2\n      pop\n      jump(tag_116)\n        /* \"@openzeppelin/contracts/utils/cryptography/ECDSA.sol\":6102:6263  if (uint256(s) > 0x7FFFFFFFFFFFFFFFFFFFFFFFFFFFFFFF5D576E7357A4501DDFE92F46681B20A0) {... */\n    tag_117:\n        /* \"@openzeppelin/contracts/utils/cryptography/ECDSA.sol\":6357:6371  address signer */\n      0x00\n        /* \"@openzeppelin/contracts/utils/cryptography/ECDSA.sol\":6374:6398  ecrecover(hash, v, r, s) */\n      0x01\n        /* \"@openzeppelin/contracts/utils/cryptography/ECDSA.sol\":6384:6388  hash */\n      dup8\n        /* \"@openzeppelin/contracts/utils/cryptography/ECDSA.sol\":6390:6391  v */\n      dup8\n        /* \"@openzeppelin/contracts/utils/cryptography/ECDSA.sol\":6393:6394  r */\n      dup8\n        /* \"@openzeppelin/contracts/utils/cryptography/ECDSA.sol\":6396:6397  s */\n      dup8\n        /* \"@openzeppelin/contracts/utils/cryptography/ECDSA.sol\":6374:6398  ecrecover(hash, v, r, s) */\n      mload(0x40)\n      0x00\n      dup2\n      mstore\n      0x20\n      add\n      0x40\n      mstore\n      mload(0x40)\n      tag_118\n      swap5\n      swap4\n      swap3\n      swap2\n      swap1\n      tag_119\n      jump\t// in\n    tag_118:\n      0x20\n      mload(0x40)\n      0x20\n      dup2\n      sub\n      swap1\n      dup1\n      dup5\n      sub\n      swap1\n      dup6\n      gas\n      staticcall\n      iszero\n      dup1\n      iszero\n      tag_121\n      jumpi\n      returndatasize\n      0x00\n      dup1\n      returndatacopy\n      revert(0x00, returndatasize)\n    tag_121:\n      pop\n      pop\n      pop\n      mload(sub(mload(0x40), 0x20))\n        /* \"@openzeppelin/contracts/utils/cryptography/ECDSA.sol\":6357:6398  address signer = ecrecover(hash, v, r, s) */\n      swap1\n      pop\n        /* \"@openzeppelin/contracts/utils/cryptography/ECDSA.sol\":6430:6431  0 */\n      0x00\n        /* \"@openzeppelin/contracts/utils/cryptography/ECDSA.sol\":6412:6432  signer == address(0) */\n      0xffffffffffffffffffffffffffffffffffffffff\n      and\n        /* \"@openzeppelin/contracts/utils/cryptography/ECDSA.sol\":6412:6418  signer */\n      dup2\n        /* \"@openzeppelin/contracts/utils/cryptography/ECDSA.sol\":6412:6432  signer == address(0) */\n      0xffffffffffffffffffffffffffffffffffffffff\n      and\n      eq\n        /* \"@openzeppelin/contracts/utils/cryptography/ECDSA.sol\":6408:6509  if (signer == address(0)) {... */\n      iszero\n      tag_122\n      jumpi\n        /* \"@openzeppelin/contracts/utils/cryptography/ECDSA.sol\":6464:6465  0 */\n      0x00\n        /* \"@openzeppelin/contracts/utils/cryptography/ECDSA.sol\":6468:6497  RecoverError.InvalidSignature */\n      0x01\n        /* \"@openzeppelin/contracts/utils/cryptography/ECDSA.sol\":6448:6498  return (address(0), RecoverError.InvalidSignature) */\n      swap3\n      pop\n      swap3\n      pop\n      pop\n      jump(tag_116)\n        /* \"@openzeppelin/contracts/utils/cryptography/ECDSA.sol\":6408:6509  if (signer == address(0)) {... */\n    tag_122:\n        /* \"@openzeppelin/contracts/utils/cryptography/ECDSA.sol\":6527:6533  signer */\n      dup1\n        /* \"@openzeppelin/contracts/utils/cryptography/ECDSA.sol\":6535:6555  RecoverError.NoError */\n      0x00\n        /* \"@openzeppelin/contracts/utils/cryptography/ECDSA.sol\":6519:6556  return (signer, RecoverError.NoError) */\n      swap3\n      pop\n      swap3\n      pop\n      pop\n        /* \"@openzeppelin/contracts/utils/cryptography/ECDSA.sol\":5069:6563  function tryRecover(... */\n    tag_116:\n      swap5\n      pop\n      swap5\n      swap3\n      pop\n      pop\n      pop\n      jump\t// out\n    tag_37:\n      dup3\n      dup1\n      sload\n      tag_123\n      swap1\n      tag_40\n      jump\t// in\n    tag_123:\n      swap1\n      0x00\n      mstore\n      keccak256(0x00, 0x20)\n      swap1\n      0x1f\n      add\n      0x20\n      swap1\n      div\n      dup2\n      add\n      swap3\n      dup3\n      tag_125\n      jumpi\n      0x00\n      dup6\n      sstore\n      jump(tag_124)\n    tag_125:\n      dup3\n      0x1f\n      lt\n      tag_126\n      jumpi\n      dup1\n      calldataload\n      not(0xff)\n      and\n      dup4\n      dup1\n      add\n      or\n      dup6\n      sstore\n      jump(tag_124)\n    tag_126:\n      dup3\n      dup1\n      add\n      0x01\n      add\n      dup6\n      sstore\n      dup3\n      iszero\n      tag_124\n      jumpi\n      swap2\n      dup3\n      add\n    tag_127:\n      dup3\n      dup2\n      gt\n      iszero\n      tag_128\n      jumpi\n      dup3\n      calldataload\n      dup3\n      sstore\n      swap2\n      0x20\n      add\n      swap2\n      swap1\n      0x01\n      add\n      swap1\n      jump(tag_127)\n    tag_128:\n    tag_124:\n      pop\n      swap1\n      pop\n      tag_129\n      swap2\n      swap1\n      tag_130\n      jump\t// in\n    tag_129:\n      pop\n      swap1\n      jump\t// out\n    tag_130:\n    tag_131:\n      dup1\n      dup3\n      gt\n      iszero\n      tag_132\n      jumpi\n      0x00\n      dup2\n      0x00\n      swap1\n      sstore\n      pop\n      0x01\n      add\n      jump(tag_131)\n    tag_132:\n      pop\n      swap1\n      jump\t// out\n        /* \"#utility.yul\":7:146   */\n    tag_134:\n        /* \"#utility.yul\":53:58   */\n      0x00\n        /* \"#utility.yul\":91:97   */\n      dup2\n        /* \"#utility.yul\":78:98   */\n      calldataload\n        /* \"#utility.yul\":69:98   */\n      swap1\n      pop\n        /* \"#utility.yul\":107:140   */\n      tag_136\n        /* \"#utility.yul\":134:139   */\n      dup2\n        /* \"#utility.yul\":107:140   */\n      tag_137\n      jump\t// in\n    tag_136:\n        /* \"#utility.yul\":7:146   */\n      swap3\n      swap2\n      pop\n      pop\n      jump\t// out\n        /* \"#utility.yul\":165:717   */\n    tag_138:\n        /* \"#utility.yul\":222:230   */\n      0x00\n        /* \"#utility.yul\":232:238   */\n      dup1\n        /* \"#utility.yul\":282:285   */\n      dup4\n        /* \"#utility.yul\":275:279   */\n      0x1f\n        /* \"#utility.yul\":267:273   */\n      dup5\n        /* \"#utility.yul\":263:280   */\n      add\n        /* \"#utility.yul\":259:286   */\n      slt\n        /* \"#utility.yul\":249:371   */\n      tag_140\n      jumpi\n        /* \"#utility.yul\":290:369   */\n      tag_141\n      tag_142\n      jump\t// in\n    tag_141:\n        /* \"#utility.yul\":249:371   */\n    tag_140:\n        /* \"#utility.yul\":403:409   */\n      dup3\n        /* \"#utility.yul\":390:410   */\n      calldataload\n        /* \"#utility.yul\":380:410   */\n      swap1\n      pop\n        /* \"#utility.yul\":433:451   */\n      0xffffffffffffffff\n        /* \"#utility.yul\":425:431   */\n      dup2\n        /* \"#utility.yul\":422:452   */\n      gt\n        /* \"#utility.yul\":419:536   */\n      iszero\n      tag_143\n      jumpi\n        /* \"#utility.yul\":455:534   */\n      tag_144\n      tag_145\n      jump\t// in\n    tag_144:\n        /* \"#utility.yul\":419:536   */\n    tag_143:\n        /* \"#utility.yul\":569:573   */\n      0x20\n        /* \"#utility.yul\":561:567   */\n      dup4\n        /* \"#utility.yul\":557:574   */\n      add\n        /* \"#utility.yul\":545:574   */\n      swap2\n      pop\n        /* \"#utility.yul\":623:626   */\n      dup4\n        /* \"#utility.yul\":615:619   */\n      0x01\n        /* \"#utility.yul\":607:613   */\n      dup3\n        /* \"#utility.yul\":603:620   */\n      mul\n        /* \"#utility.yul\":593:601   */\n      dup4\n        /* \"#utility.yul\":589:621   */\n      add\n        /* \"#utility.yul\":586:627   */\n      gt\n        /* \"#utility.yul\":583:711   */\n      iszero\n      tag_146\n      jumpi\n        /* \"#utility.yul\":630:709   */\n      tag_147\n      tag_148\n      jump\t// in\n    tag_147:\n        /* \"#utility.yul\":583:711   */\n    tag_146:\n        /* \"#utility.yul\":165:717   */\n      swap3\n      pop\n      swap3\n      swap1\n      pop\n      jump\t// out\n        /* \"#utility.yul\":768:1000   */\n    tag_149:\n        /* \"#utility.yul\":842:847   */\n      0x00\n        /* \"#utility.yul\":883:885   */\n      0x40\n        /* \"#utility.yul\":874:880   */\n      dup3\n        /* \"#utility.yul\":869:872   */\n      dup5\n        /* \"#utility.yul\":865:881   */\n      sub\n        /* \"#utility.yul\":861:886   */\n      slt\n        /* \"#utility.yul\":858:970   */\n      iszero\n      tag_151\n      jumpi\n        /* \"#utility.yul\":889:968   */\n      tag_152\n      tag_153\n      jump\t// in\n    tag_152:\n        /* \"#utility.yul\":858:970   */\n    tag_151:\n        /* \"#utility.yul\":988:994   */\n      dup2\n        /* \"#utility.yul\":979:994   */\n      swap1\n      pop\n        /* \"#utility.yul\":768:1000   */\n      swap3\n      swap2\n      pop\n      pop\n      jump\t// out\n        /* \"#utility.yul\":1006:1335   */\n    tag_14:\n        /* \"#utility.yul\":1065:1071   */\n      0x00\n        /* \"#utility.yul\":1114:1116   */\n      0x20\n        /* \"#utility.yul\":1102:1111   */\n      dup3\n        /* \"#utility.yul\":1093:1100   */\n      dup5\n        /* \"#utility.yul\":1089:1112   */\n      sub\n        /* \"#utility.yul\":1085:1117   */\n      slt\n        /* \"#utility.yul\":1082:1201   */\n      iszero\n      tag_155\n      jumpi\n        /* \"#utility.yul\":1120:1199   */\n      tag_156\n      tag_157\n      jump\t// in\n    tag_156:\n        /* \"#utility.yul\":1082:1201   */\n    tag_155:\n        /* \"#utility.yul\":1240:1241   */\n      0x00\n        /* \"#utility.yul\":1265:1318   */\n      tag_158\n        /* \"#utility.yul\":1310:1317   */\n      dup5\n        /* \"#utility.yul\":1301:1307   */\n      dup3\n        /* \"#utility.yul\":1290:1299   */\n      dup6\n        /* \"#utility.yul\":1286:1308   */\n      add\n        /* \"#utility.yul\":1265:1318   */\n      tag_134\n      jump\t// in\n    tag_158:\n        /* \"#utility.yul\":1255:1318   */\n      swap2\n      pop\n        /* \"#utility.yul\":1211:1328   */\n      pop\n        /* \"#utility.yul\":1006:1335   */\n      swap3\n      swap2\n      pop\n      pop\n      jump\t// out\n        /* \"#utility.yul\":1341:2229   */\n    tag_8:\n        /* \"#utility.yul\":1448:1454   */\n      0x00\n        /* \"#utility.yul\":1456:1462   */\n      dup1\n        /* \"#utility.yul\":1464:1470   */\n      0x00\n        /* \"#utility.yul\":1513:1515   */\n      0x40\n        /* \"#utility.yul\":1501:1510   */\n      dup5\n        /* \"#utility.yul\":1492:1499   */\n      dup7\n        /* \"#utility.yul\":1488:1511   */\n      sub\n        /* \"#utility.yul\":1484:1516   */\n      slt\n        /* \"#utility.yul\":1481:1600   */\n      iszero\n      tag_160\n      jumpi\n        /* \"#utility.yul\":1519:1598   */\n      tag_161\n      tag_157\n      jump\t// in\n    tag_161:\n        /* \"#utility.yul\":1481:1600   */\n    tag_160:\n        /* \"#utility.yul\":1667:1668   */\n      0x00\n        /* \"#utility.yul\":1656:1665   */\n      dup5\n        /* \"#utility.yul\":1652:1669   */\n      add\n        /* \"#utility.yul\":1639:1670   */\n      calldataload\n        /* \"#utility.yul\":1697:1715   */\n      0xffffffffffffffff\n        /* \"#utility.yul\":1689:1695   */\n      dup2\n        /* \"#utility.yul\":1686:1716   */\n      gt\n        /* \"#utility.yul\":1683:1800   */\n      iszero\n      tag_162\n      jumpi\n        /* \"#utility.yul\":1719:1798   */\n      tag_163\n      tag_164\n      jump\t// in\n    tag_163:\n        /* \"#utility.yul\":1683:1800   */\n    tag_162:\n        /* \"#utility.yul\":1824:1905   */\n      tag_165\n        /* \"#utility.yul\":1897:1904   */\n      dup7\n        /* \"#utility.yul\":1888:1894   */\n      dup3\n        /* \"#utility.yul\":1877:1886   */\n      dup8\n        /* \"#utility.yul\":1873:1895   */\n      add\n        /* \"#utility.yul\":1824:1905   */\n      tag_149\n      jump\t// in\n    tag_165:\n        /* \"#utility.yul\":1814:1905   */\n      swap4\n      pop\n        /* \"#utility.yul\":1610:1915   */\n      pop\n        /* \"#utility.yul\":1982:1984   */\n      0x20\n        /* \"#utility.yul\":1971:1980   */\n      dup5\n        /* \"#utility.yul\":1967:1985   */\n      add\n        /* \"#utility.yul\":1954:1986   */\n      calldataload\n        /* \"#utility.yul\":2013:2031   */\n      0xffffffffffffffff\n        /* \"#utility.yul\":2005:2011   */\n      dup2\n        /* \"#utility.yul\":2002:2032   */\n      gt\n        /* \"#utility.yul\":1999:2116   */\n      iszero\n      tag_166\n      jumpi\n        /* \"#utility.yul\":2035:2114   */\n      tag_167\n      tag_164\n      jump\t// in\n    tag_167:\n        /* \"#utility.yul\":1999:2116   */\n    tag_166:\n        /* \"#utility.yul\":2148:2212   */\n      tag_168\n        /* \"#utility.yul\":2204:2211   */\n      dup7\n        /* \"#utility.yul\":2195:2201   */\n      dup3\n        /* \"#utility.yul\":2184:2193   */\n      dup8\n        /* \"#utility.yul\":2180:2202   */\n      add\n        /* \"#utility.yul\":2148:2212   */\n      tag_138\n      jump\t// in\n    tag_168:\n        /* \"#utility.yul\":2130:2212   */\n      swap3\n      pop\n      swap3\n      pop\n        /* \"#utility.yul\":1925:2222   */\n      pop\n        /* \"#utility.yul\":1341:2229   */\n      swap3\n      pop\n      swap3\n      pop\n      swap3\n      jump\t// out\n        /* \"#utility.yul\":2235:2353   */\n    tag_169:\n        /* \"#utility.yul\":2322:2346   */\n      tag_171\n        /* \"#utility.yul\":2340:2345   */\n      dup2\n        /* \"#utility.yul\":2322:2346   */\n      tag_172\n      jump\t// in\n    tag_171:\n        /* \"#utility.yul\":2317:2320   */\n      dup3\n        /* \"#utility.yul\":2310:2347   */\n      mstore\n        /* \"#utility.yul\":2235:2353   */\n      pop\n      pop\n      jump\t// out\n        /* \"#utility.yul\":2359:2468   */\n    tag_173:\n        /* \"#utility.yul\":2440:2461   */\n      tag_175\n        /* \"#utility.yul\":2455:2460   */\n      dup2\n        /* \"#utility.yul\":2440:2461   */\n      tag_176\n      jump\t// in\n    tag_175:\n        /* \"#utility.yul\":2435:2438   */\n      dup3\n        /* \"#utility.yul\":2428:2462   */\n      mstore\n        /* \"#utility.yul\":2359:2468   */\n      pop\n      pop\n      jump\t// out\n        /* \"#utility.yul\":2474:2592   */\n    tag_177:\n        /* \"#utility.yul\":2561:2585   */\n      tag_179\n        /* \"#utility.yul\":2579:2584   */\n      dup2\n        /* \"#utility.yul\":2561:2585   */\n      tag_180\n      jump\t// in\n    tag_179:\n        /* \"#utility.yul\":2556:2559   */\n      dup3\n        /* \"#utility.yul\":2549:2586   */\n      mstore\n        /* \"#utility.yul\":2474:2592   */\n      pop\n      pop\n      jump\t// out\n        /* \"#utility.yul\":2598:2755   */\n    tag_181:\n        /* \"#utility.yul\":2703:2748   */\n      tag_183\n        /* \"#utility.yul\":2723:2747   */\n      tag_184\n        /* \"#utility.yul\":2741:2746   */\n      dup3\n        /* \"#utility.yul\":2723:2747   */\n      tag_180\n      jump\t// in\n    tag_184:\n        /* \"#utility.yul\":2703:2748   */\n      tag_185\n      jump\t// in\n    tag_183:\n        /* \"#utility.yul\":2698:2701   */\n      dup3\n        /* \"#utility.yul\":2691:2749   */\n      mstore\n        /* \"#utility.yul\":2598:2755   */\n      pop\n      pop\n      jump\t// out\n        /* \"#utility.yul\":2783:3097   */\n    tag_186:\n        /* \"#utility.yul\":2897:2900   */\n      0x00\n        /* \"#utility.yul\":2918:3006   */\n      tag_188\n        /* \"#utility.yul\":2999:3005   */\n      dup4\n        /* \"#utility.yul\":2994:2997   */\n      dup6\n        /* \"#utility.yul\":2918:3006   */\n      tag_189\n      jump\t// in\n    tag_188:\n        /* \"#utility.yul\":2911:3006   */\n      swap4\n      pop\n        /* \"#utility.yul\":3016:3059   */\n      tag_190\n        /* \"#utility.yul\":3052:3058   */\n      dup4\n        /* \"#utility.yul\":3047:3050   */\n      dup6\n        /* \"#utility.yul\":3040:3045   */\n      dup5\n        /* \"#utility.yul\":3016:3059   */\n      tag_191\n      jump\t// in\n    tag_190:\n        /* \"#utility.yul\":3084:3090   */\n      dup3\n        /* \"#utility.yul\":3079:3082   */\n      dup5\n        /* \"#utility.yul\":3075:3091   */\n      add\n        /* \"#utility.yul\":3068:3091   */\n      swap1\n      pop\n        /* \"#utility.yul\":2783:3097   */\n      swap4\n      swap3\n      pop\n      pop\n      pop\n      jump\t// out\n        /* \"#utility.yul\":3103:3467   */\n    tag_192:\n        /* \"#utility.yul\":3191:3194   */\n      0x00\n        /* \"#utility.yul\":3219:3258   */\n      tag_194\n        /* \"#utility.yul\":3252:3257   */\n      dup3\n        /* \"#utility.yul\":3219:3258   */\n      tag_195\n      jump\t// in\n    tag_194:\n        /* \"#utility.yul\":3274:3345   */\n      tag_196\n        /* \"#utility.yul\":3338:3344   */\n      dup2\n        /* \"#utility.yul\":3333:3336   */\n      dup6\n        /* \"#utility.yul\":3274:3345   */\n      tag_197\n      jump\t// in\n    tag_196:\n        /* \"#utility.yul\":3267:3345   */\n      swap4\n      pop\n        /* \"#utility.yul\":3354:3406   */\n      tag_198\n        /* \"#utility.yul\":3399:3405   */\n      dup2\n        /* \"#utility.yul\":3394:3397   */\n      dup6\n        /* \"#utility.yul\":3387:3391   */\n      0x20\n        /* \"#utility.yul\":3380:3385   */\n      dup7\n        /* \"#utility.yul\":3376:3392   */\n      add\n        /* \"#utility.yul\":3354:3406   */\n      tag_199\n      jump\t// in\n    tag_198:\n        /* \"#utility.yul\":3431:3460   */\n      tag_200\n        /* \"#utility.yul\":3453:3459   */\n      dup2\n        /* \"#utility.yul\":3431:3460   */\n      tag_201\n      jump\t// in\n    tag_200:\n        /* \"#utility.yul\":3426:3429   */\n      dup5\n        /* \"#utility.yul\":3422:3461   */\n      add\n        /* \"#utility.yul\":3415:3461   */\n      swap2\n      pop\n        /* \"#utility.yul\":3195:3467   */\n      pop\n        /* \"#utility.yul\":3103:3467   */\n      swap3\n      swap2\n      pop\n      pop\n      jump\t// out\n        /* \"#utility.yul\":3473:3839   */\n    tag_202:\n        /* \"#utility.yul\":3615:3618   */\n      0x00\n        /* \"#utility.yul\":3636:3703   */\n      tag_204\n        /* \"#utility.yul\":3700:3702   */\n      0x18\n        /* \"#utility.yul\":3695:3698   */\n      dup4\n        /* \"#utility.yul\":3636:3703   */\n      tag_197\n      jump\t// in\n    tag_204:\n        /* \"#utility.yul\":3629:3703   */\n      swap2\n      pop\n        /* \"#utility.yul\":3712:3805   */\n      tag_205\n        /* \"#utility.yul\":3801:3804   */\n      dup3\n        /* \"#utility.yul\":3712:3805   */\n      tag_206\n      jump\t// in\n    tag_205:\n        /* \"#utility.yul\":3830:3832   */\n      0x20\n        /* \"#utility.yul\":3825:3828   */\n      dup3\n        /* \"#utility.yul\":3821:3833   */\n      add\n        /* \"#utility.yul\":3814:3833   */\n      swap1\n      pop\n        /* \"#utility.yul\":3473:3839   */\n      swap2\n      swap1\n      pop\n      jump\t// out\n        /* \"#utility.yul\":3845:4211   */\n    tag_207:\n        /* \"#utility.yul\":3987:3990   */\n      0x00\n        /* \"#utility.yul\":4008:4075   */\n      tag_209\n        /* \"#utility.yul\":4072:4074   */\n      0x1f\n        /* \"#utility.yul\":4067:4070   */\n      dup4\n        /* \"#utility.yul\":4008:4075   */\n      tag_197\n      jump\t// in\n    tag_209:\n        /* \"#utility.yul\":4001:4075   */\n      swap2\n      pop\n        /* \"#utility.yul\":4084:4177   */\n      tag_210\n        /* \"#utility.yul\":4173:4176   */\n      dup3\n        /* \"#utility.yul\":4084:4177   */\n      tag_211\n      jump\t// in\n    tag_210:\n        /* \"#utility.yul\":4202:4204   */\n      0x20\n        /* \"#utility.yul\":4197:4200   */\n      dup3\n        /* \"#utility.yul\":4193:4205   */\n      add\n        /* \"#utility.yul\":4186:4205   */\n      swap1\n      pop\n        /* \"#utility.yul\":3845:4211   */\n      swap2\n      swap1\n      pop\n      jump\t// out\n        /* \"#utility.yul\":4217:4617   */\n    tag_212:\n        /* \"#utility.yul\":4377:4380   */\n      0x00\n        /* \"#utility.yul\":4398:4482   */\n      tag_214\n        /* \"#utility.yul\":4480:4481   */\n      0x02\n        /* \"#utility.yul\":4475:4478   */\n      dup4\n        /* \"#utility.yul\":4398:4482   */\n      tag_215\n      jump\t// in\n    tag_214:\n        /* \"#utility.yul\":4391:4482   */\n      swap2\n      pop\n        /* \"#utility.yul\":4491:4584   */\n      tag_216\n        /* \"#utility.yul\":4580:4583   */\n      dup3\n        /* \"#utility.yul\":4491:4584   */\n      tag_217\n      jump\t// in\n    tag_216:\n        /* \"#utility.yul\":4609:4610   */\n      0x02\n        /* \"#utility.yul\":4604:4607   */\n      dup3\n        /* \"#utility.yul\":4600:4611   */\n      add\n        /* \"#utility.yul\":4593:4611   */\n      swap1\n      pop\n        /* \"#utility.yul\":4217:4617   */\n      swap2\n      swap1\n      pop\n      jump\t// out\n        /* \"#utility.yul\":4623:4989   */\n    tag_218:\n        /* \"#utility.yul\":4765:4768   */\n      0x00\n        /* \"#utility.yul\":4786:4853   */\n      tag_220\n        /* \"#utility.yul\":4850:4852   */\n      0x22\n        /* \"#utility.yul\":4845:4848   */\n      dup4\n        /* \"#utility.yul\":4786:4853   */\n      tag_197\n      jump\t// in\n    tag_220:\n        /* \"#utility.yul\":4779:4853   */\n      swap2\n      pop\n        /* \"#utility.yul\":4862:4955   */\n      tag_221\n        /* \"#utility.yul\":4951:4954   */\n      dup3\n        /* \"#utility.yul\":4862:4955   */\n      tag_222\n      jump\t// in\n    tag_221:\n        /* \"#utility.yul\":4980:4982   */\n      0x40\n        /* \"#utility.yul\":4975:4978   */\n      dup3\n        /* \"#utility.yul\":4971:4983   */\n      add\n        /* \"#utility.yul\":4964:4983   */\n      swap1\n      pop\n        /* \"#utility.yul\":4623:4989   */\n      swap2\n      swap1\n      pop\n      jump\t// out\n        /* \"#utility.yul\":4995:5361   */\n    tag_223:\n        /* \"#utility.yul\":5137:5140   */\n      0x00\n        /* \"#utility.yul\":5158:5225   */\n      tag_225\n        /* \"#utility.yul\":5222:5224   */\n      0x49\n        /* \"#utility.yul\":5217:5220   */\n      dup4\n        /* \"#utility.yul\":5158:5225   */\n      tag_197\n      jump\t// in\n    tag_225:\n        /* \"#utility.yul\":5151:5225   */\n      swap2\n      pop\n        /* \"#utility.yul\":5234:5327   */\n      tag_226\n        /* \"#utility.yul\":5323:5326   */\n      dup3\n        /* \"#utility.yul\":5234:5327   */\n      tag_227\n      jump\t// in\n    tag_226:\n        /* \"#utility.yul\":5352:5354   */\n      0x60\n        /* \"#utility.yul\":5347:5350   */\n      dup3\n        /* \"#utility.yul\":5343:5355   */\n      add\n        /* \"#utility.yul\":5336:5355   */\n      swap1\n      pop\n        /* \"#utility.yul\":4995:5361   */\n      swap2\n      swap1\n      pop\n      jump\t// out\n        /* \"#utility.yul\":5367:5485   */\n    tag_228:\n        /* \"#utility.yul\":5454:5478   */\n      tag_230\n        /* \"#utility.yul\":5472:5477   */\n      dup2\n        /* \"#utility.yul\":5454:5478   */\n      tag_231\n      jump\t// in\n    tag_230:\n        /* \"#utility.yul\":5449:5452   */\n      dup3\n        /* \"#utility.yul\":5442:5479   */\n      mstore\n        /* \"#utility.yul\":5367:5485   */\n      pop\n      pop\n      jump\t// out\n        /* \"#utility.yul\":5491:5603   */\n    tag_232:\n        /* \"#utility.yul\":5574:5596   */\n      tag_234\n        /* \"#utility.yul\":5590:5595   */\n      dup2\n        /* \"#utility.yul\":5574:5596   */\n      tag_235\n      jump\t// in\n    tag_234:\n        /* \"#utility.yul\":5569:5572   */\n      dup3\n        /* \"#utility.yul\":5562:5597   */\n      mstore\n        /* \"#utility.yul\":5491:5603   */\n      pop\n      pop\n      jump\t// out\n        /* \"#utility.yul\":5609:5900   */\n    tag_51:\n        /* \"#utility.yul\":5749:5752   */\n      0x00\n        /* \"#utility.yul\":5771:5874   */\n      tag_237\n        /* \"#utility.yul\":5870:5873   */\n      dup3\n        /* \"#utility.yul\":5861:5867   */\n      dup5\n        /* \"#utility.yul\":5853:5859   */\n      dup7\n        /* \"#utility.yul\":5771:5874   */\n      tag_186\n      jump\t// in\n    tag_237:\n        /* \"#utility.yul\":5764:5874   */\n      swap2\n      pop\n        /* \"#utility.yul\":5891:5894   */\n      dup2\n        /* \"#utility.yul\":5884:5894   */\n      swap1\n      pop\n        /* \"#utility.yul\":5609:5900   */\n      swap4\n      swap3\n      pop\n      pop\n      pop\n      jump\t// out\n        /* \"#utility.yul\":5906:6569   */\n    tag_76:\n        /* \"#utility.yul\":6147:6150   */\n      0x00\n        /* \"#utility.yul\":6169:6317   */\n      tag_239\n        /* \"#utility.yul\":6313:6316   */\n      dup3\n        /* \"#utility.yul\":6169:6317   */\n      tag_212\n      jump\t// in\n    tag_239:\n        /* \"#utility.yul\":6162:6317   */\n      swap2\n      pop\n        /* \"#utility.yul\":6327:6402   */\n      tag_240\n        /* \"#utility.yul\":6398:6401   */\n      dup3\n        /* \"#utility.yul\":6389:6395   */\n      dup6\n        /* \"#utility.yul\":6327:6402   */\n      tag_181\n      jump\t// in\n    tag_240:\n        /* \"#utility.yul\":6427:6429   */\n      0x20\n        /* \"#utility.yul\":6422:6425   */\n      dup3\n        /* \"#utility.yul\":6418:6430   */\n      add\n        /* \"#utility.yul\":6411:6430   */\n      swap2\n      pop\n        /* \"#utility.yul\":6440:6515   */\n      tag_241\n        /* \"#utility.yul\":6511:6514   */\n      dup3\n        /* \"#utility.yul\":6502:6508   */\n      dup5\n        /* \"#utility.yul\":6440:6515   */\n      tag_181\n      jump\t// in\n    tag_241:\n        /* \"#utility.yul\":6540:6542   */\n      0x20\n        /* \"#utility.yul\":6535:6538   */\n      dup3\n        /* \"#utility.yul\":6531:6543   */\n      add\n        /* \"#utility.yul\":6524:6543   */\n      swap2\n      pop\n        /* \"#utility.yul\":6560:6563   */\n      dup2\n        /* \"#utility.yul\":6553:6563   */\n      swap1\n      pop\n        /* \"#utility.yul\":5906:6569   */\n      swap4\n      swap3\n      pop\n      pop\n      pop\n      jump\t// out\n        /* \"#utility.yul\":6575:6785   */\n    tag_11:\n        /* \"#utility.yul\":6662:6666   */\n      0x00\n        /* \"#utility.yul\":6700:6702   */\n      0x20\n        /* \"#utility.yul\":6689:6698   */\n      dup3\n        /* \"#utility.yul\":6685:6703   */\n      add\n        /* \"#utility.yul\":6677:6703   */\n      swap1\n      pop\n        /* \"#utility.yul\":6713:6778   */\n      tag_243\n        /* \"#utility.yul\":6775:6776   */\n      0x00\n        /* \"#utility.yul\":6764:6773   */\n      dup4\n        /* \"#utility.yul\":6760:6777   */\n      add\n        /* \"#utility.yul\":6751:6757   */\n      dup5\n        /* \"#utility.yul\":6713:6778   */\n      tag_173\n      jump\t// in\n    tag_243:\n        /* \"#utility.yul\":6575:6785   */\n      swap3\n      swap2\n      pop\n      pop\n      jump\t// out\n        /* \"#utility.yul\":6791:7233   */\n    tag_53:\n        /* \"#utility.yul\":6940:6944   */\n      0x00\n        /* \"#utility.yul\":6978:6980   */\n      0x60\n        /* \"#utility.yul\":6967:6976   */\n      dup3\n        /* \"#utility.yul\":6963:6981   */\n      add\n        /* \"#utility.yul\":6955:6981   */\n      swap1\n      pop\n        /* \"#utility.yul\":6991:7062   */\n      tag_245\n        /* \"#utility.yul\":7059:7060   */\n      0x00\n        /* \"#utility.yul\":7048:7057   */\n      dup4\n        /* \"#utility.yul\":7044:7061   */\n      add\n        /* \"#utility.yul\":7035:7041   */\n      dup7\n        /* \"#utility.yul\":6991:7062   */\n      tag_177\n      jump\t// in\n    tag_245:\n        /* \"#utility.yul\":7072:7144   */\n      tag_246\n        /* \"#utility.yul\":7140:7142   */\n      0x20\n        /* \"#utility.yul\":7129:7138   */\n      dup4\n        /* \"#utility.yul\":7125:7143   */\n      add\n        /* \"#utility.yul\":7116:7122   */\n      dup6\n        /* \"#utility.yul\":7072:7144   */\n      tag_169\n      jump\t// in\n    tag_246:\n        /* \"#utility.yul\":7154:7226   */\n      tag_247\n        /* \"#utility.yul\":7222:7224   */\n      0x40\n        /* \"#utility.yul\":7211:7220   */\n      dup4\n        /* \"#utility.yul\":7207:7225   */\n      add\n        /* \"#utility.yul\":7198:7204   */\n      dup5\n        /* \"#utility.yul\":7154:7226   */\n      tag_177\n      jump\t// in\n    tag_247:\n        /* \"#utility.yul\":6791:7233   */\n      swap5\n      swap4\n      pop\n      pop\n      pop\n      pop\n      jump\t// out\n        /* \"#utility.yul\":7239:7903   */\n    tag_115:\n        /* \"#utility.yul\":7444:7448   */\n      0x00\n        /* \"#utility.yul\":7482:7485   */\n      0xa0\n        /* \"#utility.yul\":7471:7480   */\n      dup3\n        /* \"#utility.yul\":7467:7486   */\n      add\n        /* \"#utility.yul\":7459:7486   */\n      swap1\n      pop\n        /* \"#utility.yul\":7496:7567   */\n      tag_249\n        /* \"#utility.yul\":7564:7565   */\n      0x00\n        /* \"#utility.yul\":7553:7562   */\n      dup4\n        /* \"#utility.yul\":7549:7566   */\n      add\n        /* \"#utility.yul\":7540:7546   */\n      dup9\n        /* \"#utility.yul\":7496:7567   */\n      tag_177\n      jump\t// in\n    tag_249:\n        /* \"#utility.yul\":7577:7649   */\n      tag_250\n        /* \"#utility.yul\":7645:7647   */\n      0x20\n        /* \"#utility.yul\":7634:7643   */\n      dup4\n        /* \"#utility.yul\":7630:7648   */\n      add\n        /* \"#utility.yul\":7621:7627   */\n      dup8\n        /* \"#utility.yul\":7577:7649   */\n      tag_177\n      jump\t// in\n    tag_250:\n        /* \"#utility.yul\":7659:7731   */\n      tag_251\n        /* \"#utility.yul\":7727:7729   */\n      0x40\n        /* \"#utility.yul\":7716:7725   */\n      dup4\n        /* \"#utility.yul\":7712:7730   */\n      add\n        /* \"#utility.yul\":7703:7709   */\n      dup7\n        /* \"#utility.yul\":7659:7731   */\n      tag_177\n      jump\t// in\n    tag_251:\n        /* \"#utility.yul\":7741:7813   */\n      tag_252\n        /* \"#utility.yul\":7809:7811   */\n      0x60\n        /* \"#utility.yul\":7798:7807   */\n      dup4\n        /* \"#utility.yul\":7794:7812   */\n      add\n        /* \"#utility.yul\":7785:7791   */\n      dup6\n        /* \"#utility.yul\":7741:7813   */\n      tag_228\n      jump\t// in\n    tag_252:\n        /* \"#utility.yul\":7823:7896   */\n      tag_253\n        /* \"#utility.yul\":7891:7894   */\n      0x80\n        /* \"#utility.yul\":7880:7889   */\n      dup4\n        /* \"#utility.yul\":7876:7895   */\n      add\n        /* \"#utility.yul\":7867:7873   */\n      dup5\n        /* \"#utility.yul\":7823:7896   */\n      tag_169\n      jump\t// in\n    tag_253:\n        /* \"#utility.yul\":7239:7903   */\n      swap7\n      swap6\n      pop\n      pop\n      pop\n      pop\n      pop\n      pop\n      jump\t// out\n        /* \"#utility.yul\":7909:8454   */\n    tag_119:\n        /* \"#utility.yul\":8082:8086   */\n      0x00\n        /* \"#utility.yul\":8120:8123   */\n      0x80\n        /* \"#utility.yul\":8109:8118   */\n      dup3\n        /* \"#utility.yul\":8105:8124   */\n      add\n        /* \"#utility.yul\":8097:8124   */\n      swap1\n      pop\n        /* \"#utility.yul\":8134:8205   */\n      tag_255\n        /* \"#utility.yul\":8202:8203   */\n      0x00\n        /* \"#utility.yul\":8191:8200   */\n      dup4\n        /* \"#utility.yul\":8187:8204   */\n      add\n        /* \"#utility.yul\":8178:8184   */\n      dup8\n        /* \"#utility.yul\":8134:8205   */\n      tag_177\n      jump\t// in\n    tag_255:\n        /* \"#utility.yul\":8215:8283   */\n      tag_256\n        /* \"#utility.yul\":8279:8281   */\n      0x20\n        /* \"#utility.yul\":8268:8277   */\n      dup4\n        /* \"#utility.yul\":8264:8282   */\n      add\n        /* \"#utility.yul\":8255:8261   */\n      dup7\n        /* \"#utility.yul\":8215:8283   */\n      tag_232\n      jump\t// in\n    tag_256:\n        /* \"#utility.yul\":8293:8365   */\n      tag_257\n        /* \"#utility.yul\":8361:8363   */\n      0x40\n        /* \"#utility.yul\":8350:8359   */\n      dup4\n        /* \"#utility.yul\":8346:8364   */\n      add\n        /* \"#utility.yul\":8337:8343   */\n      dup6\n        /* \"#utility.yul\":8293:8365   */\n      tag_177\n      jump\t// in\n    tag_257:\n        /* \"#utility.yul\":8375:8447   */\n      tag_258\n        /* \"#utility.yul\":8443:8445   */\n      0x60\n        /* \"#utility.yul\":8432:8441   */\n      dup4\n        /* \"#utility.yul\":8428:8446   */\n      add\n        /* \"#utility.yul\":8419:8425   */\n      dup5\n        /* \"#utility.yul\":8375:8447   */\n      tag_177\n      jump\t// in\n    tag_258:\n        /* \"#utility.yul\":7909:8454   */\n      swap6\n      swap5\n      pop\n      pop\n      pop\n      pop\n      pop\n      jump\t// out\n        /* \"#utility.yul\":8460:8773   */\n    tag_17:\n        /* \"#utility.yul\":8573:8577   */\n      0x00\n        /* \"#utility.yul\":8611:8613   */\n      0x20\n        /* \"#utility.yul\":8600:8609   */\n      dup3\n        /* \"#utility.yul\":8596:8614   */\n      add\n        /* \"#utility.yul\":8588:8614   */\n      swap1\n      pop\n        /* \"#utility.yul\":8660:8669   */\n      dup2\n        /* \"#utility.yul\":8654:8658   */\n      dup2\n        /* \"#utility.yul\":8650:8670   */\n      sub\n        /* \"#utility.yul\":8646:8647   */\n      0x00\n        /* \"#utility.yul\":8635:8644   */\n      dup4\n        /* \"#utility.yul\":8631:8648   */\n      add\n        /* \"#utility.yul\":8624:8671   */\n      mstore\n        /* \"#utility.yul\":8688:8766   */\n      tag_260\n        /* \"#utility.yul\":8761:8765   */\n      dup2\n        /* \"#utility.yul\":8752:8758   */\n      dup5\n        /* \"#utility.yul\":8688:8766   */\n      tag_192\n      jump\t// in\n    tag_260:\n        /* \"#utility.yul\":8680:8766   */\n      swap1\n      pop\n        /* \"#utility.yul\":8460:8773   */\n      swap3\n      swap2\n      pop\n      pop\n      jump\t// out\n        /* \"#utility.yul\":8779:9198   */\n    tag_96:\n        /* \"#utility.yul\":8945:8949   */\n      0x00\n        /* \"#utility.yul\":8983:8985   */\n      0x20\n        /* \"#utility.yul\":8972:8981   */\n      dup3\n        /* \"#utility.yul\":8968:8986   */\n      add\n        /* \"#utility.yul\":8960:8986   */\n      swap1\n      pop\n        /* \"#utility.yul\":9032:9041   */\n      dup2\n        /* \"#utility.yul\":9026:9030   */\n      dup2\n        /* \"#utility.yul\":9022:9042   */\n      sub\n        /* \"#utility.yul\":9018:9019   */\n      0x00\n        /* \"#utility.yul\":9007:9016   */\n      dup4\n        /* \"#utility.yul\":9003:9020   */\n      add\n        /* \"#utility.yul\":8996:9043   */\n      mstore\n        /* \"#utility.yul\":9060:9191   */\n      tag_262\n        /* \"#utility.yul\":9186:9190   */\n      dup2\n        /* \"#utility.yul\":9060:9191   */\n      tag_202\n      jump\t// in\n    tag_262:\n        /* \"#utility.yul\":9052:9191   */\n      swap1\n      pop\n        /* \"#utility.yul\":8779:9198   */\n      swap2\n      swap1\n      pop\n      jump\t// out\n        /* \"#utility.yul\":9204:9623   */\n    tag_104:\n        /* \"#utility.yul\":9370:9374   */\n      0x00\n        /* \"#utility.yul\":9408:9410   */\n      0x20\n        /* \"#utility.yul\":9397:9406   */\n      dup3\n        /* \"#utility.yul\":9393:9411   */\n      add\n        /* \"#utility.yul\":9385:9411   */\n      swap1\n      pop\n        /* \"#utility.yul\":9457:9466   */\n      dup2\n        /* \"#utility.yul\":9451:9455   */\n      dup2\n        /* \"#utility.yul\":9447:9467   */\n      sub\n        /* \"#utility.yul\":9443:9444   */\n      0x00\n        /* \"#utility.yul\":9432:9441   */\n      dup4\n        /* \"#utility.yul\":9428:9445   */\n      add\n        /* \"#utility.yul\":9421:9468   */\n      mstore\n        /* \"#utility.yul\":9485:9616   */\n      tag_264\n        /* \"#utility.yul\":9611:9615   */\n      dup2\n        /* \"#utility.yul\":9485:9616   */\n      tag_207\n      jump\t// in\n    tag_264:\n        /* \"#utility.yul\":9477:9616   */\n      swap1\n      pop\n        /* \"#utility.yul\":9204:9623   */\n      swap2\n      swap1\n      pop\n      jump\t// out\n        /* \"#utility.yul\":9629:10048   */\n    tag_112:\n        /* \"#utility.yul\":9795:9799   */\n      0x00\n        /* \"#utility.yul\":9833:9835   */\n      0x20\n        /* \"#utility.yul\":9822:9831   */\n      dup3\n        /* \"#utility.yul\":9818:9836   */\n      add\n        /* \"#utility.yul\":9810:9836   */\n      swap1\n      pop\n        /* \"#utility.yul\":9882:9891   */\n      dup2\n        /* \"#utility.yul\":9876:9880   */\n      dup2\n        /* \"#utility.yul\":9872:9892   */\n      sub\n        /* \"#utility.yul\":9868:9869   */\n      0x00\n        /* \"#utility.yul\":9857:9866   */\n      dup4\n        /* \"#utility.yul\":9853:9870   */\n      add\n        /* \"#utility.yul\":9846:9893   */\n      mstore\n        /* \"#utility.yul\":9910:10041   */\n      tag_266\n        /* \"#utility.yul\":10036:10040   */\n      dup2\n        /* \"#utility.yul\":9910:10041   */\n      tag_218\n      jump\t// in\n    tag_266:\n        /* \"#utility.yul\":9902:10041   */\n      swap1\n      pop\n        /* \"#utility.yul\":9629:10048   */\n      swap2\n      swap1\n      pop\n      jump\t// out\n        /* \"#utility.yul\":10054:10473   */\n    tag_28:\n        /* \"#utility.yul\":10220:10224   */\n      0x00\n        /* \"#utility.yul\":10258:10260   */\n      0x20\n        /* \"#utility.yul\":10247:10256   */\n      dup3\n        /* \"#utility.yul\":10243:10261   */\n      add\n        /* \"#utility.yul\":10235:10261   */\n      swap1\n      pop\n        /* \"#utility.yul\":10307:10316   */\n      dup2\n        /* \"#utility.yul\":10301:10305   */\n      dup2\n        /* \"#utility.yul\":10297:10317   */\n      sub\n        /* \"#utility.yul\":10293:10294   */\n      0x00\n        /* \"#utility.yul\":10282:10291   */\n      dup4\n        /* \"#utility.yul\":10278:10295   */\n      add\n        /* \"#utility.yul\":10271:10318   */\n      mstore\n        /* \"#utility.yul\":10335:10466   */\n      tag_268\n        /* \"#utility.yul\":10461:10465   */\n      dup2\n        /* \"#utility.yul\":10335:10466   */\n      tag_223\n      jump\t// in\n    tag_268:\n        /* \"#utility.yul\":10327:10466   */\n      swap1\n      pop\n        /* \"#utility.yul\":10054:10473   */\n      swap2\n      swap1\n      pop\n      jump\t// out\n        /* \"#utility.yul\":10479:10701   */\n    tag_22:\n        /* \"#utility.yul\":10572:10576   */\n      0x00\n        /* \"#utility.yul\":10610:10612   */\n      0x20\n        /* \"#utility.yul\":10599:10608   */\n      dup3\n        /* \"#utility.yul\":10595:10613   */\n      add\n        /* \"#utility.yul\":10587:10613   */\n      swap1\n      pop\n        /* \"#utility.yul\":10623:10694   */\n      tag_270\n        /* \"#utility.yul\":10691:10692   */\n      0x00\n        /* \"#utility.yul\":10680:10689   */\n      dup4\n        /* \"#utility.yul\":10676:10693   */\n      add\n        /* \"#utility.yul\":10667:10673   */\n      dup5\n        /* \"#utility.yul\":10623:10694   */\n      tag_228\n      jump\t// in\n    tag_270:\n        /* \"#utility.yul\":10479:10701   */\n      swap3\n      swap2\n      pop\n      pop\n      jump\t// out\n        /* \"#utility.yul\":10707:11432   */\n    tag_34:\n        /* \"#utility.yul\":10785:10789   */\n      0x00\n        /* \"#utility.yul\":10791:10797   */\n      dup1\n        /* \"#utility.yul\":10847:10858   */\n      dup4\n        /* \"#utility.yul\":10834:10859   */\n      calldataload\n        /* \"#utility.yul\":10947:10948   */\n      0x01\n        /* \"#utility.yul\":10941:10945   */\n      0x20\n        /* \"#utility.yul\":10937:10949   */\n      sub\n        /* \"#utility.yul\":10926:10934   */\n      dup5\n        /* \"#utility.yul\":10910:10924   */\n      calldatasize\n        /* \"#utility.yul\":10906:10935   */\n      sub\n        /* \"#utility.yul\":10902:10950   */\n      sub\n        /* \"#utility.yul\":10882:10900   */\n      dup2\n        /* \"#utility.yul\":10878:10951   */\n      slt\n        /* \"#utility.yul\":10868:11036   */\n      tag_272\n      jumpi\n        /* \"#utility.yul\":10955:11034   */\n      tag_273\n      tag_274\n      jump\t// in\n    tag_273:\n        /* \"#utility.yul\":10868:11036   */\n    tag_272:\n        /* \"#utility.yul\":11067:11085   */\n      dup1\n        /* \"#utility.yul\":11057:11065   */\n      dup5\n        /* \"#utility.yul\":11053:11086   */\n      add\n        /* \"#utility.yul\":11045:11086   */\n      swap3\n      pop\n        /* \"#utility.yul\":11119:11123   */\n      dup3\n        /* \"#utility.yul\":11106:11124   */\n      calldataload\n        /* \"#utility.yul\":11096:11124   */\n      swap2\n      pop\n        /* \"#utility.yul\":11147:11165   */\n      0xffffffffffffffff\n        /* \"#utility.yul\":11139:11145   */\n      dup3\n        /* \"#utility.yul\":11136:11166   */\n      gt\n        /* \"#utility.yul\":11133:11250   */\n      iszero\n      tag_275\n      jumpi\n        /* \"#utility.yul\":11169:11248   */\n      tag_276\n      tag_277\n      jump\t// in\n    tag_276:\n        /* \"#utility.yul\":11133:11250   */\n    tag_275:\n        /* \"#utility.yul\":11277:11279   */\n      0x20\n        /* \"#utility.yul\":11271:11275   */\n      dup4\n        /* \"#utility.yul\":11267:11280   */\n      add\n        /* \"#utility.yul\":11259:11280   */\n      swap3\n      pop\n        /* \"#utility.yul\":11334:11338   */\n      0x01\n        /* \"#utility.yul\":11326:11332   */\n      dup3\n        /* \"#utility.yul\":11322:11339   */\n      mul\n        /* \"#utility.yul\":11306:11320   */\n      calldatasize\n        /* \"#utility.yul\":11302:11340   */\n      sub\n        /* \"#utility.yul\":11296:11300   */\n      dup4\n        /* \"#utility.yul\":11292:11341   */\n      sgt\n        /* \"#utility.yul\":11289:11425   */\n      iszero\n      tag_278\n      jumpi\n        /* \"#utility.yul\":11344:11423   */\n      tag_279\n      tag_280\n      jump\t// in\n    tag_279:\n        /* \"#utility.yul\":11289:11425   */\n    tag_278:\n        /* \"#utility.yul\":10798:11432   */\n      pop\n        /* \"#utility.yul\":10707:11432   */\n      swap3\n      pop\n      swap3\n      swap1\n      pop\n      jump\t// out\n        /* \"#utility.yul\":11519:11618   */\n    tag_195:\n        /* \"#utility.yul\":11571:11577   */\n      0x00\n        /* \"#utility.yul\":11605:11610   */\n      dup2\n        /* \"#utility.yul\":11599:11611   */\n      mload\n        /* \"#utility.yul\":11589:11611   */\n      swap1\n      pop\n        /* \"#utility.yul\":11519:11618   */\n      swap2\n      swap1\n      pop\n      jump\t// out\n        /* \"#utility.yul\":11624:11771   */\n    tag_189:\n        /* \"#utility.yul\":11725:11736   */\n      0x00\n        /* \"#utility.yul\":11762:11765   */\n      dup2\n        /* \"#utility.yul\":11747:11765   */\n      swap1\n      pop\n        /* \"#utility.yul\":11624:11771   */\n      swap3\n      swap2\n      pop\n      pop\n      jump\t// out\n        /* \"#utility.yul\":11777:11946   */\n    tag_197:\n        /* \"#utility.yul\":11861:11872   */\n      0x00\n        /* \"#utility.yul\":11895:11901   */\n      dup3\n        /* \"#utility.yul\":11890:11893   */\n      dup3\n        /* \"#utility.yul\":11883:11902   */\n      mstore\n        /* \"#utility.yul\":11935:11939   */\n      0x20\n        /* \"#utility.yul\":11930:11933   */\n      dup3\n        /* \"#utility.yul\":11926:11940   */\n      add\n        /* \"#utility.yul\":11911:11940   */\n      swap1\n      pop\n        /* \"#utility.yul\":11777:11946   */\n      swap3\n      swap2\n      pop\n      pop\n      jump\t// out\n        /* \"#utility.yul\":11952:12100   */\n    tag_215:\n        /* \"#utility.yul\":12054:12065   */\n      0x00\n        /* \"#utility.yul\":12091:12094   */\n      dup2\n        /* \"#utility.yul\":12076:12094   */\n      swap1\n      pop\n        /* \"#utility.yul\":11952:12100   */\n      swap3\n      swap2\n      pop\n      pop\n      jump\t// out\n        /* \"#utility.yul\":12106:12411   */\n    tag_31:\n        /* \"#utility.yul\":12146:12149   */\n      0x00\n        /* \"#utility.yul\":12165:12185   */\n      tag_288\n        /* \"#utility.yul\":12183:12184   */\n      dup3\n        /* \"#utility.yul\":12165:12185   */\n      tag_231\n      jump\t// in\n    tag_288:\n        /* \"#utility.yul\":12160:12185   */\n      swap2\n      pop\n        /* \"#utility.yul\":12199:12219   */\n      tag_289\n        /* \"#utility.yul\":12217:12218   */\n      dup4\n        /* \"#utility.yul\":12199:12219   */\n      tag_231\n      jump\t// in\n    tag_289:\n        /* \"#utility.yul\":12194:12219   */\n      swap3\n      pop\n        /* \"#utility.yul\":12353:12354   */\n      dup3\n        /* \"#utility.yul\":12285:12351   */\n      0xffffffffffffffffffffffffffffffffffffffffffffffffffffffffffffffff\n        /* \"#utility.yul\":12281:12355   */\n      sub\n        /* \"#utility.yul\":12278:12279   */\n      dup3\n        /* \"#utility.yul\":12275:12356   */\n      gt\n        /* \"#utility.yul\":12272:12379   */\n      iszero\n      tag_290\n      jumpi\n        /* \"#utility.yul\":12359:12377   */\n      tag_291\n      tag_292\n      jump\t// in\n    tag_291:\n        /* \"#utility.yul\":12272:12379   */\n    tag_290:\n        /* \"#utility.yul\":12403:12404   */\n      dup3\n        /* \"#utility.yul\":12400:12401   */\n      dup3\n        /* \"#utility.yul\":12396:12405   */\n      add\n        /* \"#utility.yul\":12389:12405   */\n      swap1\n      pop\n        /* \"#utility.yul\":12106:12411   */\n      swap3\n      swap2\n      pop\n      pop\n      jump\t// out\n        /* \"#utility.yul\":12417:12513   */\n    tag_172:\n        /* \"#utility.yul\":12454:12461   */\n      0x00\n        /* \"#utility.yul\":12483:12507   */\n      tag_294\n        /* \"#utility.yul\":12501:12506   */\n      dup3\n        /* \"#utility.yul\":12483:12507   */\n      tag_295\n      jump\t// in\n    tag_294:\n        /* \"#utility.yul\":12472:12507   */\n      swap1\n      pop\n        /* \"#utility.yul\":12417:12513   */\n      swap2\n      swap1\n      pop\n      jump\t// out\n        /* \"#utility.yul\":12519:12609   */\n    tag_176:\n        /* \"#utility.yul\":12553:12560   */\n      0x00\n        /* \"#utility.yul\":12596:12601   */\n      dup2\n        /* \"#utility.yul\":12589:12602   */\n      iszero\n        /* \"#utility.yul\":12582:12603   */\n      iszero\n        /* \"#utility.yul\":12571:12603   */\n      swap1\n      pop\n        /* \"#utility.yul\":12519:12609   */\n      swap2\n      swap1\n      pop\n      jump\t// out\n        /* \"#utility.yul\":12615:12692   */\n    tag_180:\n        /* \"#utility.yul\":12652:12659   */\n      0x00\n        /* \"#utility.yul\":12681:12686   */\n      dup2\n        /* \"#utility.yul\":12670:12686   */\n      swap1\n      pop\n        /* \"#utility.yul\":12615:12692   */\n      swap2\n      swap1\n      pop\n      jump\t// out\n        /* \"#utility.yul\":12698:12824   */\n    tag_295:\n        /* \"#utility.yul\":12735:12742   */\n      0x00\n        /* \"#utility.yul\":12775:12817   */\n      0xffffffffffffffffffffffffffffffffffffffff\n        /* \"#utility.yul\":12768:12773   */\n      dup3\n        /* \"#utility.yul\":12764:12818   */\n      and\n        /* \"#utility.yul\":12753:12818   */\n      swap1\n      pop\n        /* \"#utility.yul\":12698:12824   */\n      swap2\n      swap1\n      pop\n      jump\t// out\n        /* \"#utility.yul\":12830:12907   */\n    tag_231:\n        /* \"#utility.yul\":12867:12874   */\n      0x00\n        /* \"#utility.yul\":12896:12901   */\n      dup2\n        /* \"#utility.yul\":12885:12901   */\n      swap1\n      pop\n        /* \"#utility.yul\":12830:12907   */\n      swap2\n      swap1\n      pop\n      jump\t// out\n        /* \"#utility.yul\":12913:12999   */\n    tag_235:\n        /* \"#utility.yul\":12948:12955   */\n      0x00\n        /* \"#utility.yul\":12988:12992   */\n      0xff\n        /* \"#utility.yul\":12981:12986   */\n      dup3\n        /* \"#utility.yul\":12977:12993   */\n      and\n        /* \"#utility.yul\":12966:12993   */\n      swap1\n      pop\n        /* \"#utility.yul\":12913:12999   */\n      swap2\n      swap1\n      pop\n      jump\t// out\n        /* \"#utility.yul\":13005:13159   */\n    tag_191:\n        /* \"#utility.yul\":13089:13095   */\n      dup3\n        /* \"#utility.yul\":13084:13087   */\n      dup2\n        /* \"#utility.yul\":13079:13082   */\n      dup4\n        /* \"#utility.yul\":13066:13096   */\n      calldatacopy\n        /* \"#utility.yul\":13151:13152   */\n      0x00\n        /* \"#utility.yul\":13142:13148   */\n      dup4\n        /* \"#utility.yul\":13137:13140   */\n      dup4\n        /* \"#utility.yul\":13133:13149   */\n      add\n        /* \"#utility.yul\":13126:13153   */\n      mstore\n        /* \"#utility.yul\":13005:13159   */\n      pop\n      pop\n      pop\n      jump\t// out\n        /* \"#utility.yul\":13165:13472   */\n    tag_199:\n        /* \"#utility.yul\":13233:13234   */\n      0x00\n        /* \"#utility.yul\":13243:13356   */\n    tag_303:\n        /* \"#utility.yul\":13257:13263   */\n      dup4\n        /* \"#utility.yul\":13254:13255   */\n      dup2\n        /* \"#utility.yul\":13251:13264   */\n      lt\n        /* \"#utility.yul\":13243:13356   */\n      iszero\n      tag_305\n      jumpi\n        /* \"#utility.yul\":13342:13343   */\n      dup1\n        /* \"#utility.yul\":13337:13340   */\n      dup3\n        /* \"#utility.yul\":13333:13344   */\n      add\n        /* \"#utility.yul\":13327:13345   */\n      mload\n        /* \"#utility.yul\":13323:13324   */\n      dup2\n        /* \"#utility.yul\":13318:13321   */\n      dup5\n        /* \"#utility.yul\":13314:13325   */\n      add\n        /* \"#utility.yul\":13307:13346   */\n      mstore\n        /* \"#utility.yul\":13279:13281   */\n      0x20\n        /* \"#utility.yul\":13276:13277   */\n      dup2\n        /* \"#utility.yul\":13272:13282   */\n      add\n        /* \"#utility.yul\":13267:13282   */\n      swap1\n      pop\n        /* \"#utility.yul\":13243:13356   */\n      jump(tag_303)\n    tag_305:\n        /* \"#utility.yul\":13374:13380   */\n      dup4\n        /* \"#utility.yul\":13371:13372   */\n      dup2\n        /* \"#utility.yul\":13368:13381   */\n      gt\n        /* \"#utility.yul\":13365:13466   */\n      iszero\n      tag_306\n      jumpi\n        /* \"#utility.yul\":13454:13455   */\n      0x00\n        /* \"#utility.yul\":13445:13451   */\n      dup5\n        /* \"#utility.yul\":13440:13443   */\n      dup5\n        /* \"#utility.yul\":13436:13452   */\n      add\n        /* \"#utility.yul\":13429:13456   */\n      mstore\n        /* \"#utility.yul\":13365:13466   */\n    tag_306:\n        /* \"#utility.yul\":13214:13472   */\n      pop\n        /* \"#utility.yul\":13165:13472   */\n      pop\n      pop\n      pop\n      jump\t// out\n        /* \"#utility.yul\":13478:13798   */\n    tag_40:\n        /* \"#utility.yul\":13522:13528   */\n      0x00\n        /* \"#utility.yul\":13559:13560   */\n      0x02\n        /* \"#utility.yul\":13553:13557   */\n      dup3\n        /* \"#utility.yul\":13549:13561   */\n      div\n        /* \"#utility.yul\":13539:13561   */\n      swap1\n      pop\n        /* \"#utility.yul\":13606:13607   */\n      0x01\n        /* \"#utility.yul\":13600:13604   */\n      dup3\n        /* \"#utility.yul\":13596:13608   */\n      and\n        /* \"#utility.yul\":13627:13645   */\n      dup1\n        /* \"#utility.yul\":13617:13698   */\n      tag_308\n      jumpi\n        /* \"#utility.yul\":13683:13687   */\n      0x7f\n        /* \"#utility.yul\":13675:13681   */\n      dup3\n        /* \"#utility.yul\":13671:13688   */\n      and\n        /* \"#utility.yul\":13661:13688   */\n      swap2\n      pop\n        /* \"#utility.yul\":13617:13698   */\n    tag_308:\n        /* \"#utility.yul\":13745:13747   */\n      0x20\n        /* \"#utility.yul\":13737:13743   */\n      dup3\n        /* \"#utility.yul\":13734:13748   */\n      lt\n        /* \"#utility.yul\":13714:13732   */\n      dup2\n        /* \"#utility.yul\":13711:13749   */\n      eq\n        /* \"#utility.yul\":13708:13792   */\n      iszero\n      tag_309\n      jumpi\n        /* \"#utility.yul\":13764:13782   */\n      tag_310\n      tag_311\n      jump\t// in\n    tag_310:\n        /* \"#utility.yul\":13708:13792   */\n    tag_309:\n        /* \"#utility.yul\":13529:13798   */\n      pop\n        /* \"#utility.yul\":13478:13798   */\n      swap2\n      swap1\n      pop\n      jump\t// out\n        /* \"#utility.yul\":13804:13883   */\n    tag_185:\n        /* \"#utility.yul\":13843:13850   */\n      0x00\n        /* \"#utility.yul\":13872:13877   */\n      dup2\n        /* \"#utility.yul\":13861:13877   */\n      swap1\n      pop\n        /* \"#utility.yul\":13804:13883   */\n      swap2\n      swap1\n      pop\n      jump\t// out\n        /* \"#utility.yul\":13889:14069   */\n    tag_292:\n        /* \"#utility.yul\":13937:14014   */\n      0x4e487b7100000000000000000000000000000000000000000000000000000000\n        /* \"#utility.yul\":13934:13935   */\n      0x00\n        /* \"#utility.yul\":13927:14015   */\n      mstore\n        /* \"#utility.yul\":14034:14038   */\n      0x11\n        /* \"#utility.yul\":14031:14032   */\n      0x04\n        /* \"#utility.yul\":14024:14039   */\n      mstore\n        /* \"#utility.yul\":14058:14062   */\n      0x24\n        /* \"#utility.yul\":14055:14056   */\n      0x00\n        /* \"#utility.yul\":14048:14063   */\n      revert\n        /* \"#utility.yul\":14075:14255   */\n    tag_85:\n        /* \"#utility.yul\":14123:14200   */\n      0x4e487b7100000000000000000000000000000000000000000000000000000000\n        /* \"#utility.yul\":14120:14121   */\n      0x00\n        /* \"#utility.yul\":14113:14201   */\n      mstore\n        /* \"#utility.yul\":14220:14224   */\n      0x21\n        /* \"#utility.yul\":14217:14218   */\n      0x04\n        /* \"#utility.yul\":14210:14225   */\n      mstore\n        /* \"#utility.yul\":14244:14248   */\n      0x24\n        /* \"#utility.yul\":14241:14242   */\n      0x00\n        /* \"#utility.yul\":14234:14249   */\n      revert\n        /* \"#utility.yul\":14261:14441   */\n    tag_311:\n        /* \"#utility.yul\":14309:14386   */\n      0x4e487b7100000000000000000000000000000000000000000000000000000000\n        /* \"#utility.yul\":14306:14307   */\n      0x00\n        /* \"#utility.yul\":14299:14387   */\n      mstore\n        /* \"#utility.yul\":14406:14410   */\n      0x22\n        /* \"#utility.yul\":14403:14404   */\n      0x04\n        /* \"#utility.yul\":14396:14411   */\n      mstore\n        /* \"#utility.yul\":14430:14434   */\n      0x24\n        /* \"#utility.yul\":14427:14428   */\n      0x00\n        /* \"#utility.yul\":14420:14435   */\n      revert\n        /* \"#utility.yul\":14447:14564   */\n    tag_145:\n        /* \"#utility.yul\":14556:14557   */\n      0x00\n        /* \"#utility.yul\":14553:14554   */\n      dup1\n        /* \"#utility.yul\":14546:14558   */\n      revert\n        /* \"#utility.yul\":14570:14687   */\n    tag_142:\n        /* \"#utility.yul\":14679:14680   */\n      0x00\n        /* \"#utility.yul\":14676:14677   */\n      dup1\n        /* \"#utility.yul\":14669:14681   */\n      revert\n        /* \"#utility.yul\":14693:14810   */\n    tag_277:\n        /* \"#utility.yul\":14802:14803   */\n      0x00\n        /* \"#utility.yul\":14799:14800   */\n      dup1\n        /* \"#utility.yul\":14792:14804   */\n      revert\n        /* \"#utility.yul\":14816:14933   */\n    tag_153:\n        /* \"#utility.yul\":14925:14926   */\n      0x00\n        /* \"#utility.yul\":14922:14923   */\n      dup1\n        /* \"#utility.yul\":14915:14927   */\n      revert\n        /* \"#utility.yul\":14939:15056   */\n    tag_274:\n        /* \"#utility.yul\":15048:15049   */\n      0x00\n        /* \"#utility.yul\":15045:15046   */\n      dup1\n        /* \"#utility.yul\":15038:15050   */\n      revert\n        /* \"#utility.yul\":15062:15179   */\n    tag_148:\n        /* \"#utility.yul\":15171:15172   */\n      0x00\n        /* \"#utility.yul\":15168:15169   */\n      dup1\n        /* \"#utility.yul\":15161:15173   */\n      revert\n        /* \"#utility.yul\":15185:15302   */\n    tag_280:\n        /* \"#utility.yul\":15294:15295   */\n      0x00\n        /* \"#utility.yul\":15291:15292   */\n      dup1\n        /* \"#utility.yul\":15284:15296   */\n      revert\n        /* \"#utility.yul\":15308:15425   */\n    tag_164:\n        /* \"#utility.yul\":15417:15418   */\n      0x00\n        /* \"#utility.yul\":15414:15415   */\n      dup1\n        /* \"#utility.yul\":15407:15419   */\n      revert\n        /* \"#utility.yul\":15431:15548   */\n    tag_157:\n        /* \"#utility.yul\":15540:15541   */\n      0x00\n        /* \"#utility.yul\":15537:15538   */\n      dup1\n        /* \"#utility.yul\":15530:15542   */\n      revert\n        /* \"#utility.yul\":15554:15656   */\n    tag_201:\n        /* \"#utility.yul\":15595:15601   */\n      0x00\n        /* \"#utility.yul\":15646:15648   */\n      0x1f\n        /* \"#utility.yul\":15642:15649   */\n      not\n        /* \"#utility.yul\":15637:15639   */\n      0x1f\n        /* \"#utility.yul\":15630:15635   */\n      dup4\n        /* \"#utility.yul\":15626:15640   */\n      add\n        /* \"#utility.yul\":15622:15650   */\n      and\n        /* \"#utility.yul\":15612:15650   */\n      swap1\n      pop\n        /* \"#utility.yul\":15554:15656   */\n      swap2\n      swap1\n      pop\n      jump\t// out\n        /* \"#utility.yul\":15662:15836   */\n    tag_206:\n        /* \"#utility.yul\":15802:15828   */\n      0x45434453413a20696e76616c6964207369676e61747572650000000000000000\n        /* \"#utility.yul\":15798:15799   */\n      0x00\n        /* \"#utility.yul\":15790:15796   */\n      dup3\n        /* \"#utility.yul\":15786:15800   */\n      add\n        /* \"#utility.yul\":15779:15829   */\n      mstore\n        /* \"#utility.yul\":15662:15836   */\n      pop\n      jump\t// out\n        /* \"#utility.yul\":15842:16023   */\n    tag_211:\n        /* \"#utility.yul\":15982:16015   */\n      0x45434453413a20696e76616c6964207369676e6174757265206c656e67746800\n        /* \"#utility.yul\":15978:15979   */\n      0x00\n        /* \"#utility.yul\":15970:15976   */\n      dup3\n        /* \"#utility.yul\":15966:15980   */\n      add\n        /* \"#utility.yul\":15959:16016   */\n      mstore\n        /* \"#utility.yul\":15842:16023   */\n      pop\n      jump\t// out\n        /* \"#utility.yul\":16029:16243   */\n    tag_217:\n        /* \"#utility.yul\":16169:16235   */\n      0x1901000000000000000000000000000000000000000000000000000000000000\n        /* \"#utility.yul\":16165:16166   */\n      0x00\n        /* \"#utility.yul\":16157:16163   */\n      dup3\n        /* \"#utility.yul\":16153:16167   */\n      add\n        /* \"#utility.yul\":16146:16236   */\n      mstore\n        /* \"#utility.yul\":16029:16243   */\n      pop\n      jump\t// out\n        /* \"#utility.yul\":16249:16470   */\n    tag_222:\n        /* \"#utility.yul\":16389:16423   */\n      0x45434453413a20696e76616c6964207369676e6174757265202773272076616c\n        /* \"#utility.yul\":16385:16386   */\n      0x00\n        /* \"#utility.yul\":16377:16383   */\n      dup3\n        /* \"#utility.yul\":16373:16387   */\n      add\n        /* \"#utility.yul\":16366:16424   */\n      mstore\n        /* \"#utility.yul\":16458:16462   */\n      0x7565000000000000000000000000000000000000000000000000000000000000\n        /* \"#utility.yul\":16453:16455   */\n      0x20\n        /* \"#utility.yul\":16445:16451   */\n      dup3\n        /* \"#utility.yul\":16441:16456   */\n      add\n        /* \"#utility.yul\":16434:16463   */\n      mstore\n        /* \"#utility.yul\":16249:16470   */\n      pop\n      jump\t// out\n        /* \"#utility.yul\":16476:16773   */\n    tag_227:\n        /* \"#utility.yul\":16616:16650   */\n      0x4549503731324d657373616765436f756e7465723a205369676e617475726520\n        /* \"#utility.yul\":16612:16613   */\n      0x00\n        /* \"#utility.yul\":16604:16610   */\n      dup3\n        /* \"#utility.yul\":16600:16614   */\n      add\n        /* \"#utility.yul\":16593:16651   */\n      mstore\n        /* \"#utility.yul\":16685:16719   */\n      0x646f6573206e6f74206d61746368206578706563746564205369676e61747572\n        /* \"#utility.yul\":16680:16682   */\n      0x20\n        /* \"#utility.yul\":16672:16678   */\n      dup3\n        /* \"#utility.yul\":16668:16683   */\n      add\n        /* \"#utility.yul\":16661:16720   */\n      mstore\n        /* \"#utility.yul\":16754:16765   */\n      0x65206d6573736167650000000000000000000000000000000000000000000000\n        /* \"#utility.yul\":16749:16751   */\n      0x40\n        /* \"#utility.yul\":16741:16747   */\n      dup3\n        /* \"#utility.yul\":16737:16752   */\n      add\n        /* \"#utility.yul\":16730:16766   */\n      mstore\n        /* \"#utility.yul\":16476:16773   */\n      pop\n      jump\t// out\n        /* \"#utility.yul\":16779:16901   */\n    tag_137:\n        /* \"#utility.yul\":16852:16876   */\n      tag_332\n        /* \"#utility.yul\":16870:16875   */\n      dup2\n        /* \"#utility.yul\":16852:16876   */\n      tag_172\n      jump\t// in\n    tag_332:\n        /* \"#utility.yul\":16845:16850   */\n      dup2\n        /* \"#utility.yul\":16842:16877   */\n      eq\n        /* \"#utility.yul\":16832:16895   */\n      tag_333\n      jumpi\n        /* \"#utility.yul\":16891:16892   */\n      0x00\n        /* \"#utility.yul\":16888:16889   */\n      dup1\n        /* \"#utility.yul\":16881:16893   */\n      revert\n        /* \"#utility.yul\":16832:16895   */\n    tag_333:\n        /* \"#utility.yul\":16779:16901   */\n      pop\n      jump\t// out\n\n    auxdata: 0xa264697066735822122078f52bc7c7e9645100a020700179853d90fe95b78c5a4a55386baf856740d8e064736f6c63430008070033\n}\n",
				"bytecode": {
					"linkReferences": {},
					"object": "6101406040523480156200001257600080fd5b506040518060400160405280601481526020017f4549503731324d657373616765436f756e7465720000000000000000000000008152506040518060400160405280600581526020017f302e302e3100000000000000000000000000000000000000000000000000000081525060008280519060200120905060008280519060200120905060007f8b73c3c69bb8fe3d512ecc4cf759cc79239f7b179b0ffacaa9a75d522b39400f90508260e081815250508161010081815250504660a08181525050620000e88184846200013a60201b60201c565b608081815250503073ffffffffffffffffffffffffffffffffffffffff1660c08173ffffffffffffffffffffffffffffffffffffffff1660601b8152505080610120818152505050505050506200024e565b6000838383463060405160200162000157959493929190620001a9565b6040516020818303038152906040528051906020012090509392505050565b620001818162000206565b82525050565b62000192816200021a565b82525050565b620001a38162000244565b82525050565b600060a082019050620001c0600083018862000187565b620001cf602083018762000187565b620001de604083018662000187565b620001ed606083018562000198565b620001fc608083018462000176565b9695505050505050565b6000620002138262000224565b9050919050565b6000819050919050565b600073ffffffffffffffffffffffffffffffffffffffff82169050919050565b6000819050919050565b60805160a05160c05160601c60e0516101005161012051611259620002a16000396000610582015260006105c4015260006105a3015260006104d80152600061052e0152600061055701526112596000f3fe608060405234801561001057600080fd5b50600436106100415760003560e01c806341cf089314610046578063c03f489a14610076578063f8977e96146100a6575b600080fd5b610060600480360381019061005b9190610a58565b6100d6565b60405161006d9190610c93565b60405180910390f35b610090600480360381019061008b9190610a2b565b61024d565b60405161009d9190610d7d565b60405180910390f35b6100c060048036038101906100bb9190610a2b565b61031e565b6040516100cd9190610e1f565b60405180910390f35b60006100e3848484610366565b610122576040517f08c379a000000000000000000000000000000000000000000000000000000000815260040161011990610dff565b60405180910390fd5b600160008086600001602081019061013a9190610a2b565b73ffffffffffffffffffffffffffffffffffffffff1673ffffffffffffffffffffffffffffffffffffffff1681526020019081526020016000205461017f9190610ecf565b6000808660000160208101906101959190610a2b565b73ffffffffffffffffffffffffffffffffffffffff1673ffffffffffffffffffffffffffffffffffffffff168152602001908152602001600020819055508380602001906101e39190610e3a565b600160008760000160208101906101fa9190610a2b565b73ffffffffffffffffffffffffffffffffffffffff1673ffffffffffffffffffffffffffffffffffffffff16815260200190815260200160002091906102419291906108fe565b50600190509392505050565b6060600160008373ffffffffffffffffffffffffffffffffffffffff1673ffffffffffffffffffffffffffffffffffffffff168152602001908152602001600020805461029990610fc6565b80601f01602080910402602001604051908101604052809291908181526020018280546102c590610fc6565b80156103125780601f106102e757610100808354040283529160200191610312565b820191906000526020600020905b8154815290600101906020018083116102f557829003601f168201915b50505050509050919050565b60008060008373ffffffffffffffffffffffffffffffffffffffff1673ffffffffffffffffffffffffffffffffffffffff168152602001908152602001600020549050919050565b6000806103f37f0a8060ed8826a8252ef7ff68c4ddab8403afdf9869d3ad51b4ca867e1e20546b8660000160208101906103a09190610a2b565b8780602001906103b09190610e3a565b6040516103be929190610c43565b60405180910390206040516020016103d893929190610cae565b60405160208183030381529060405280519060200120610493565b905060006104458286868080601f016020809104026020016040519081016040528093929190818152602001838380828437600081840152601f19601f820116905080830192505050505050506104ad565b905085600001602081019061045a9190610a2b565b73ffffffffffffffffffffffffffffffffffffffff168173ffffffffffffffffffffffffffffffffffffffff1614925050509392505050565b60006104a66104a06104d4565b836105ee565b9050919050565b60008060006104bc8585610621565b915091506104c981610673565b819250505092915050565b60007f000000000000000000000000000000000000000000000000000000000000000073ffffffffffffffffffffffffffffffffffffffff163073ffffffffffffffffffffffffffffffffffffffff1614801561055057507f000000000000000000000000000000000000000000000000000000000000000046145b1561057d577f000000000000000000000000000000000000000000000000000000000000000090506105eb565b6105e87f00000000000000000000000000000000000000000000000000000000000000007f00000000000000000000000000000000000000000000000000000000000000007f00000000000000000000000000000000000000000000000000000000000000006107e1565b90505b90565b60008282604051602001610603929190610c5c565b60405160208183030381529060405280519060200120905092915050565b6000806041835114156106635760008060006020860151925060408601519150606086015160001a90506106578782858561081b565b9450945050505061066c565b60006002915091505b9250929050565b6000600481111561068757610686611031565b5b81600481111561069a57610699611031565b5b14156106a5576107de565b600160048111156106b9576106b8611031565b5b8160048111156106cc576106cb611031565b5b141561070d576040517f08c379a000000000000000000000000000000000000000000000000000000000815260040161070490610d9f565b60405180910390fd5b6002600481111561072157610720611031565b5b81600481111561073457610733611031565b5b1415610775576040517f08c379a000000000000000000000000000000000000000000000000000000000815260040161076c90610dbf565b60405180910390fd5b6003600481111561078957610788611031565b5b81600481111561079c5761079b611031565b5b14156107dd576040517f08c379a00000000000000000000000000000000000000000000000000000000081526004016107d490610ddf565b60405180910390fd5b5b50565b600083838346306040516020016107fc959493929190610ce5565b6040516020818303038152906040528051906020012090509392505050565b6000807f7fffffffffffffffffffffffffffffff5d576e7357a4501ddfe92f46681b20a08360001c11156108565760006003915091506108f5565b60006001878787876040516000815260200160405260405161087b9493929190610d38565b6020604051602081039080840390855afa15801561089d573d6000803e3d6000fd5b505050602060405103519050600073ffffffffffffffffffffffffffffffffffffffff168173ffffffffffffffffffffffffffffffffffffffff1614156108ec576000600192509250506108f5565b80600092509250505b94509492505050565b82805461090a90610fc6565b90600052602060002090601f01602090048101928261092c5760008555610973565b82601f1061094557803560ff1916838001178555610973565b82800160010185558215610973579182015b82811115610972578235825591602001919060010190610957565b5b5090506109809190610984565b5090565b5b8082111561099d576000816000905550600101610985565b5090565b6000813590506109b08161120c565b92915050565b60008083601f8401126109cc576109cb611094565b5b8235905067ffffffffffffffff8111156109e9576109e861108f565b5b602083019150836001820283011115610a0557610a046110a8565b5b9250929050565b600060408284031215610a2257610a2161109e565b5b81905092915050565b600060208284031215610a4157610a406110b7565b5b6000610a4f848285016109a1565b91505092915050565b600080600060408486031215610a7157610a706110b7565b5b600084013567ffffffffffffffff811115610a8f57610a8e6110b2565b5b610a9b86828701610a0c565b935050602084013567ffffffffffffffff811115610abc57610abb6110b2565b5b610ac8868287016109b6565b92509250509250925092565b610add81610f25565b82525050565b610aec81610f37565b82525050565b610afb81610f43565b82525050565b610b12610b0d82610f43565b610ff8565b82525050565b6000610b248385610ea8565b9350610b31838584610f84565b82840190509392505050565b6000610b4882610e9d565b610b528185610eb3565b9350610b62818560208601610f93565b610b6b816110bc565b840191505092915050565b6000610b83601883610eb3565b9150610b8e826110cd565b602082019050919050565b6000610ba6601f83610eb3565b9150610bb1826110f6565b602082019050919050565b6000610bc9600283610ec4565b9150610bd48261111f565b600282019050919050565b6000610bec602283610eb3565b9150610bf782611148565b604082019050919050565b6000610c0f604983610eb3565b9150610c1a82611197565b606082019050919050565b610c2e81610f6d565b82525050565b610c3d81610f77565b82525050565b6000610c50828486610b18565b91508190509392505050565b6000610c6782610bbc565b9150610c738285610b01565b602082019150610c838284610b01565b6020820191508190509392505050565b6000602082019050610ca86000830184610ae3565b92915050565b6000606082019050610cc36000830186610af2565b610cd06020830185610ad4565b610cdd6040830184610af2565b949350505050565b600060a082019050610cfa6000830188610af2565b610d076020830187610af2565b610d146040830186610af2565b610d216060830185610c25565b610d2e6080830184610ad4565b9695505050505050565b6000608082019050610d4d6000830187610af2565b610d5a6020830186610c34565b610d676040830185610af2565b610d746060830184610af2565b95945050505050565b60006020820190508181036000830152610d978184610b3d565b905092915050565b60006020820190508181036000830152610db881610b76565b9050919050565b60006020820190508181036000830152610dd881610b99565b9050919050565b60006020820190508181036000830152610df881610bdf565b9050919050565b60006020820190508181036000830152610e1881610c02565b9050919050565b6000602082019050610e346000830184610c25565b92915050565b60008083356001602003843603038112610e5757610e566110a3565b5b80840192508235915067ffffffffffffffff821115610e7957610e78611099565b5b602083019250600182023603831315610e9557610e946110ad565b5b509250929050565b600081519050919050565b600081905092915050565b600082825260208201905092915050565b600081905092915050565b6000610eda82610f6d565b9150610ee583610f6d565b9250827fffffffffffffffffffffffffffffffffffffffffffffffffffffffffffffffff03821115610f1a57610f19611002565b5b828201905092915050565b6000610f3082610f4d565b9050919050565b60008115159050919050565b6000819050919050565b600073ffffffffffffffffffffffffffffffffffffffff82169050919050565b6000819050919050565b600060ff82169050919050565b82818337600083830152505050565b60005b83811015610fb1578082015181840152602081019050610f96565b83811115610fc0576000848401525b50505050565b60006002820490506001821680610fde57607f821691505b60208210811415610ff257610ff1611060565b5b50919050565b6000819050919050565b7f4e487b7100000000000000000000000000000000000000000000000000000000600052601160045260246000fd5b7f4e487b7100000000000000000000000000000000000000000000000000000000600052602160045260246000fd5b7f4e487b7100000000000000000000000000000000000000000000000000000000600052602260045260246000fd5b600080fd5b600080fd5b600080fd5b600080fd5b600080fd5b600080fd5b600080fd5b600080fd5b600080fd5b6000601f19601f8301169050919050565b7f45434453413a20696e76616c6964207369676e61747572650000000000000000600082015250565b7f45434453413a20696e76616c6964207369676e6174757265206c656e67746800600082015250565b7f1901000000000000000000000000000000000000000000000000000000000000600082015250565b7f45434453413a20696e76616c6964207369676e6174757265202773272076616c60008201527f7565000000000000000000000000000000000000000000000000000000000000602082015250565b7f4549503731324d657373616765436f756e7465723a205369676e61747572652060008201527f646f6573206e6f74206d61746368206578706563746564205369676e6174757260208201527f65206d6573736167650000000000000000000000000000000000000000000000604082015250565b61121581610f25565b811461122057600080fd5b5056fea264697066735822122078f52bc7c7e9645100a020700179853d90fe95b78c5a4a55386baf856740d8e064736f6c63430008070033",
					"opcodes": "PUSH2 0x140 PUSH1 0x40 MSTORE CALLVALUE DUP1 ISZERO PUSH3 0x12 JUMPI PUSH1 0x0 DUP1 REVERT JUMPDEST POP PUSH1 0x40 MLOAD DUP1 PUSH1 0x40 ADD PUSH1 0x40 MSTORE DUP1 PUSH1 0x14 DUP2 MSTORE PUSH1 0x20 ADD PUSH32 0x4549503731324D657373616765436F756E746572000000000000000000000000 DUP2 MSTORE POP PUSH1 0x40 MLOAD DUP1 PUSH1 0x40 ADD PUSH1 0x40 MSTORE DUP1 PUSH1 0x5 DUP2 MSTORE PUSH1 0x20 ADD PUSH32 0x302E302E31000000000000000000000000000000000000000000000000000000 DUP2 MSTORE POP PUSH1 0x0 DUP3 DUP1 MLOAD SWAP1 PUSH1 0x20 ADD KECCAK256 SWAP1 POP PUSH1 0x0 DUP3 DUP1 MLOAD SWAP1 PUSH1 0x20 ADD KECCAK256 SWAP1 POP PUSH1 0x0 PUSH32 0x8B73C3C69BB8FE3D512ECC4CF759CC79239F7B179B0FFACAA9A75D522B39400F SWAP1 POP DUP3 PUSH1 0xE0 DUP2 DUP2 MSTORE POP POP DUP2 PUSH2 0x100 DUP2 DUP2 MSTORE POP POP CHAINID PUSH1 0xA0 DUP2 DUP2 MSTORE POP POP PUSH3 0xE8 DUP2 DUP5 DUP5 PUSH3 0x13A PUSH1 0x20 SHL PUSH1 0x20 SHR JUMP JUMPDEST PUSH1 0x80 DUP2 DUP2 MSTORE POP POP ADDRESS PUSH20 0xFFFFFFFFFFFFFFFFFFFFFFFFFFFFFFFFFFFFFFFF AND PUSH1 0xC0 DUP2 PUSH20 0xFFFFFFFFFFFFFFFFFFFFFFFFFFFFFFFFFFFFFFFF AND PUSH1 0x60 SHL DUP2 MSTORE POP POP DUP1 PUSH2 0x120 DUP2 DUP2 MSTORE POP POP POP POP POP POP POP PUSH3 0x24E JUMP JUMPDEST PUSH1 0x0 DUP4 DUP4 DUP4 CHAINID ADDRESS PUSH1 0x40 MLOAD PUSH1 0x20 ADD PUSH3 0x157 SWAP6 SWAP5 SWAP4 SWAP3 SWAP2 SWAP1 PUSH3 0x1A9 JUMP JUMPDEST PUSH1 0x40 MLOAD PUSH1 0x20 DUP2 DUP4 SUB SUB DUP2 MSTORE SWAP1 PUSH1 0x40 MSTORE DUP1 MLOAD SWAP1 PUSH1 0x20 ADD KECCAK256 SWAP1 POP SWAP4 SWAP3 POP POP POP JUMP JUMPDEST PUSH3 0x181 DUP2 PUSH3 0x206 JUMP JUMPDEST DUP3 MSTORE POP POP JUMP JUMPDEST PUSH3 0x192 DUP2 PUSH3 0x21A JUMP JUMPDEST DUP3 MSTORE POP POP JUMP JUMPDEST PUSH3 0x1A3 DUP2 PUSH3 0x244 JUMP JUMPDEST DUP3 MSTORE POP POP JUMP JUMPDEST PUSH1 0x0 PUSH1 0xA0 DUP3 ADD SWAP1 POP PUSH3 0x1C0 PUSH1 0x0 DUP4 ADD DUP9 PUSH3 0x187 JUMP JUMPDEST PUSH3 0x1CF PUSH1 0x20 DUP4 ADD DUP8 PUSH3 0x187 JUMP JUMPDEST PUSH3 0x1DE PUSH1 0x40 DUP4 ADD DUP7 PUSH3 0x187 JUMP JUMPDEST PUSH3 0x1ED PUSH1 0x60 DUP4 ADD DUP6 PUSH3 0x198 JUMP JUMPDEST PUSH3 0x1FC PUSH1 0x80 DUP4 ADD DUP5 PUSH3 0x176 JUMP JUMPDEST SWAP7 SWAP6 POP POP POP POP POP POP JUMP JUMPDEST PUSH1 0x0 PUSH3 0x213 DUP3 PUSH3 0x224 JUMP JUMPDEST SWAP1 POP SWAP2 SWAP1 POP JUMP JUMPDEST PUSH1 0x0 DUP2 SWAP1 POP SWAP2 SWAP1 POP JUMP JUMPDEST PUSH1 0x0 PUSH20 0xFFFFFFFFFFFFFFFFFFFFFFFFFFFFFFFFFFFFFFFF DUP3 AND SWAP1 POP SWAP2 SWAP1 POP JUMP JUMPDEST PUSH1 0x0 DUP2 SWAP1 POP SWAP2 SWAP1 POP JUMP JUMPDEST PUSH1 0x80 MLOAD PUSH1 0xA0 MLOAD PUSH1 0xC0 MLOAD PUSH1 0x60 SHR PUSH1 0xE0 MLOAD PUSH2 0x100 MLOAD PUSH2 0x120 MLOAD PUSH2 0x1259 PUSH3 0x2A1 PUSH1 0x0 CODECOPY PUSH1 0x0 PUSH2 0x582 ADD MSTORE PUSH1 0x0 PUSH2 0x5C4 ADD MSTORE PUSH1 0x0 PUSH2 0x5A3 ADD MSTORE PUSH1 0x0 PUSH2 0x4D8 ADD MSTORE PUSH1 0x0 PUSH2 0x52E ADD MSTORE PUSH1 0x0 PUSH2 0x557 ADD MSTORE PUSH2 0x1259 PUSH1 0x0 RETURN INVALID PUSH1 0x80 PUSH1 0x40 MSTORE CALLVALUE DUP1 ISZERO PUSH2 0x10 JUMPI PUSH1 0x0 DUP1 REVERT JUMPDEST POP PUSH1 0x4 CALLDATASIZE LT PUSH2 0x41 JUMPI PUSH1 0x0 CALLDATALOAD PUSH1 0xE0 SHR DUP1 PUSH4 0x41CF0893 EQ PUSH2 0x46 JUMPI DUP1 PUSH4 0xC03F489A EQ PUSH2 0x76 JUMPI DUP1 PUSH4 0xF8977E96 EQ PUSH2 0xA6 JUMPI JUMPDEST PUSH1 0x0 DUP1 REVERT JUMPDEST PUSH2 0x60 PUSH1 0x4 DUP1 CALLDATASIZE SUB DUP2 ADD SWAP1 PUSH2 0x5B SWAP2 SWAP1 PUSH2 0xA58 JUMP JUMPDEST PUSH2 0xD6 JUMP JUMPDEST PUSH1 0x40 MLOAD PUSH2 0x6D SWAP2 SWAP1 PUSH2 0xC93 JUMP JUMPDEST PUSH1 0x40 MLOAD DUP1 SWAP2 SUB SWAP1 RETURN JUMPDEST PUSH2 0x90 PUSH1 0x4 DUP1 CALLDATASIZE SUB DUP2 ADD SWAP1 PUSH2 0x8B SWAP2 SWAP1 PUSH2 0xA2B JUMP JUMPDEST PUSH2 0x24D JUMP JUMPDEST PUSH1 0x40 MLOAD PUSH2 0x9D SWAP2 SWAP1 PUSH2 0xD7D JUMP JUMPDEST PUSH1 0x40 MLOAD DUP1 SWAP2 SUB SWAP1 RETURN JUMPDEST PUSH2 0xC0 PUSH1 0x4 DUP1 CALLDATASIZE SUB DUP2 ADD SWAP1 PUSH2 0xBB SWAP2 SWAP1 PUSH2 0xA2B JUMP JUMPDEST PUSH2 0x31E JUMP JUMPDEST PUSH1 0x40 MLOAD PUSH2 0xCD SWAP2 SWAP1 PUSH2 0xE1F JUMP JUMPDEST PUSH1 0x40 MLOAD DUP1 SWAP2 SUB SWAP1 RETURN JUMPDEST PUSH1 0x0 PUSH2 0xE3 DUP5 DUP5 DUP5 PUSH2 0x366 JUMP JUMPDEST PUSH2 0x122 JUMPI PUSH1 0x40 MLOAD PUSH32 0x8C379A000000000000000000000000000000000000000000000000000000000 DUP2 MSTORE PUSH1 0x4 ADD PUSH2 0x119 SWAP1 PUSH2 0xDFF JUMP JUMPDEST PUSH1 0x40 MLOAD DUP1 SWAP2 SUB SWAP1 REVERT JUMPDEST PUSH1 0x1 PUSH1 0x0 DUP1 DUP7 PUSH1 0x0 ADD PUSH1 0x20 DUP2 ADD SWAP1 PUSH2 0x13A SWAP2 SWAP1 PUSH2 0xA2B JUMP JUMPDEST PUSH20 0xFFFFFFFFFFFFFFFFFFFFFFFFFFFFFFFFFFFFFFFF AND PUSH20 0xFFFFFFFFFFFFFFFFFFFFFFFFFFFFFFFFFFFFFFFF AND DUP2 MSTORE PUSH1 0x20 ADD SWAP1 DUP2 MSTORE PUSH1 0x20 ADD PUSH1 0x0 KECCAK256 SLOAD PUSH2 0x17F SWAP2 SWAP1 PUSH2 0xECF JUMP JUMPDEST PUSH1 0x0 DUP1 DUP7 PUSH1 0x0 ADD PUSH1 0x20 DUP2 ADD SWAP1 PUSH2 0x195 SWAP2 SWAP1 PUSH2 0xA2B JUMP JUMPDEST PUSH20 0xFFFFFFFFFFFFFFFFFFFFFFFFFFFFFFFFFFFFFFFF AND PUSH20 0xFFFFFFFFFFFFFFFFFFFFFFFFFFFFFFFFFFFFFFFF AND DUP2 MSTORE PUSH1 0x20 ADD SWAP1 DUP2 MSTORE PUSH1 0x20 ADD PUSH1 0x0 KECCAK256 DUP2 SWAP1 SSTORE POP DUP4 DUP1 PUSH1 0x20 ADD SWAP1 PUSH2 0x1E3 SWAP2 SWAP1 PUSH2 0xE3A JUMP JUMPDEST PUSH1 0x1 PUSH1 0x0 DUP8 PUSH1 0x0 ADD PUSH1 0x20 DUP2 ADD SWAP1 PUSH2 0x1FA SWAP2 SWAP1 PUSH2 0xA2B JUMP JUMPDEST PUSH20 0xFFFFFFFFFFFFFFFFFFFFFFFFFFFFFFFFFFFFFFFF AND PUSH20 0xFFFFFFFFFFFFFFFFFFFFFFFFFFFFFFFFFFFFFFFF AND DUP2 MSTORE PUSH1 0x20 ADD SWAP1 DUP2 MSTORE PUSH1 0x20 ADD PUSH1 0x0 KECCAK256 SWAP2 SWAP1 PUSH2 0x241 SWAP3 SWAP2 SWAP1 PUSH2 0x8FE JUMP JUMPDEST POP PUSH1 0x1 SWAP1 POP SWAP4 SWAP3 POP POP POP JUMP JUMPDEST PUSH1 0x60 PUSH1 0x1 PUSH1 0x0 DUP4 PUSH20 0xFFFFFFFFFFFFFFFFFFFFFFFFFFFFFFFFFFFFFFFF AND PUSH20 0xFFFFFFFFFFFFFFFFFFFFFFFFFFFFFFFFFFFFFFFF AND DUP2 MSTORE PUSH1 0x20 ADD SWAP1 DUP2 MSTORE PUSH1 0x20 ADD PUSH1 0x0 KECCAK256 DUP1 SLOAD PUSH2 0x299 SWAP1 PUSH2 0xFC6 JUMP JUMPDEST DUP1 PUSH1 0x1F ADD PUSH1 0x20 DUP1 SWAP2 DIV MUL PUSH1 0x20 ADD PUSH1 0x40 MLOAD SWAP1 DUP2 ADD PUSH1 0x40 MSTORE DUP1 SWAP3 SWAP2 SWAP1 DUP2 DUP2 MSTORE PUSH1 0x20 ADD DUP3 DUP1 SLOAD PUSH2 0x2C5 SWAP1 PUSH2 0xFC6 JUMP JUMPDEST DUP1 ISZERO PUSH2 0x312 JUMPI DUP1 PUSH1 0x1F LT PUSH2 0x2E7 JUMPI PUSH2 0x100 DUP1 DUP4 SLOAD DIV MUL DUP4 MSTORE SWAP2 PUSH1 0x20 ADD SWAP2 PUSH2 0x312 JUMP JUMPDEST DUP3 ADD SWAP2 SWAP1 PUSH1 0x0 MSTORE PUSH1 0x20 PUSH1 0x0 KECCAK256 SWAP1 JUMPDEST DUP2 SLOAD DUP2 MSTORE SWAP1 PUSH1 0x1 ADD SWAP1 PUSH1 0x20 ADD DUP1 DUP4 GT PUSH2 0x2F5 JUMPI DUP3 SWAP1 SUB PUSH1 0x1F AND DUP3 ADD SWAP2 JUMPDEST POP POP POP POP POP SWAP1 POP SWAP2 SWAP1 POP JUMP JUMPDEST PUSH1 0x0 DUP1 PUSH1 0x0 DUP4 PUSH20 0xFFFFFFFFFFFFFFFFFFFFFFFFFFFFFFFFFFFFFFFF AND PUSH20 0xFFFFFFFFFFFFFFFFFFFFFFFFFFFFFFFFFFFFFFFF AND DUP2 MSTORE PUSH1 0x20 ADD SWAP1 DUP2 MSTORE PUSH1 0x20 ADD PUSH1 0x0 KECCAK256 SLOAD SWAP1 POP SWAP2 SWAP1 POP JUMP JUMPDEST PUSH1 0x0 DUP1 PUSH2 0x3F3 PUSH32 0xA8060ED8826A8252EF7FF68C4DDAB8403AFDF9869D3AD51B4CA867E1E20546B DUP7 PUSH1 0x0 ADD PUSH1 0x20 DUP2 ADD SWAP1 PUSH2 0x3A0 SWAP2 SWAP1 PUSH2 0xA2B JUMP JUMPDEST DUP8 DUP1 PUSH1 0x20 ADD SWAP1 PUSH2 0x3B0 SWAP2 SWAP1 PUSH2 0xE3A JUMP JUMPDEST PUSH1 0x40 MLOAD PUSH2 0x3BE SWAP3 SWAP2 SWAP1 PUSH2 0xC43 JUMP JUMPDEST PUSH1 0x40 MLOAD DUP1 SWAP2 SUB SWAP1 KECCAK256 PUSH1 0x40 MLOAD PUSH1 0x20 ADD PUSH2 0x3D8 SWAP4 SWAP3 SWAP2 SWAP1 PUSH2 0xCAE JUMP JUMPDEST PUSH1 0x40 MLOAD PUSH1 0x20 DUP2 DUP4 SUB SUB DUP2 MSTORE SWAP1 PUSH1 0x40 MSTORE DUP1 MLOAD SWAP1 PUSH1 0x20 ADD KECCAK256 PUSH2 0x493 JUMP JUMPDEST SWAP1 POP PUSH1 0x0 PUSH2 0x445 DUP3 DUP7 DUP7 DUP1 DUP1 PUSH1 0x1F ADD PUSH1 0x20 DUP1 SWAP2 DIV MUL PUSH1 0x20 ADD PUSH1 0x40 MLOAD SWAP1 DUP2 ADD PUSH1 0x40 MSTORE DUP1 SWAP4 SWAP3 SWAP2 SWAP1 DUP2 DUP2 MSTORE PUSH1 0x20 ADD DUP4 DUP4 DUP1 DUP3 DUP5 CALLDATACOPY PUSH1 0x0 DUP2 DUP5 ADD MSTORE PUSH1 0x1F NOT PUSH1 0x1F DUP3 ADD AND SWAP1 POP DUP1 DUP4 ADD SWAP3 POP POP POP POP POP POP POP PUSH2 0x4AD JUMP JUMPDEST SWAP1 POP DUP6 PUSH1 0x0 ADD PUSH1 0x20 DUP2 ADD SWAP1 PUSH2 0x45A SWAP2 SWAP1 PUSH2 0xA2B JUMP JUMPDEST PUSH20 0xFFFFFFFFFFFFFFFFFFFFFFFFFFFFFFFFFFFFFFFF AND DUP2 PUSH20 0xFFFFFFFFFFFFFFFFFFFFFFFFFFFFFFFFFFFFFFFF AND EQ SWAP3 POP POP POP SWAP4 SWAP3 POP POP POP JUMP JUMPDEST PUSH1 0x0 PUSH2 0x4A6 PUSH2 0x4A0 PUSH2 0x4D4 JUMP JUMPDEST DUP4 PUSH2 0x5EE JUMP JUMPDEST SWAP1 POP SWAP2 SWAP1 POP JUMP JUMPDEST PUSH1 0x0 DUP1 PUSH1 0x0 PUSH2 0x4BC DUP6 DUP6 PUSH2 0x621 JUMP JUMPDEST SWAP2 POP SWAP2 POP PUSH2 0x4C9 DUP2 PUSH2 0x673 JUMP JUMPDEST DUP2 SWAP3 POP POP POP SWAP3 SWAP2 POP POP JUMP JUMPDEST PUSH1 0x0 PUSH32 0x0 PUSH20 0xFFFFFFFFFFFFFFFFFFFFFFFFFFFFFFFFFFFFFFFF AND ADDRESS PUSH20 0xFFFFFFFFFFFFFFFFFFFFFFFFFFFFFFFFFFFFFFFF AND EQ DUP1 ISZERO PUSH2 0x550 JUMPI POP PUSH32 0x0 CHAINID EQ JUMPDEST ISZERO PUSH2 0x57D JUMPI PUSH32 0x0 SWAP1 POP PUSH2 0x5EB JUMP JUMPDEST PUSH2 0x5E8 PUSH32 0x0 PUSH32 0x0 PUSH32 0x0 PUSH2 0x7E1 JUMP JUMPDEST SWAP1 POP JUMPDEST SWAP1 JUMP JUMPDEST PUSH1 0x0 DUP3 DUP3 PUSH1 0x40 MLOAD PUSH1 0x20 ADD PUSH2 0x603 SWAP3 SWAP2 SWAP1 PUSH2 0xC5C JUMP JUMPDEST PUSH1 0x40 MLOAD PUSH1 0x20 DUP2 DUP4 SUB SUB DUP2 MSTORE SWAP1 PUSH1 0x40 MSTORE DUP1 MLOAD SWAP1 PUSH1 0x20 ADD KECCAK256 SWAP1 POP SWAP3 SWAP2 POP POP JUMP JUMPDEST PUSH1 0x0 DUP1 PUSH1 0x41 DUP4 MLOAD EQ ISZERO PUSH2 0x663 JUMPI PUSH1 0x0 DUP1 PUSH1 0x0 PUSH1 0x20 DUP7 ADD MLOAD SWAP3 POP PUSH1 0x40 DUP7 ADD MLOAD SWAP2 POP PUSH1 0x60 DUP7 ADD MLOAD PUSH1 0x0 BYTE SWAP1 POP PUSH2 0x657 DUP8 DUP3 DUP6 DUP6 PUSH2 0x81B JUMP JUMPDEST SWAP5 POP SWAP5 POP POP POP POP PUSH2 0x66C JUMP JUMPDEST PUSH1 0x0 PUSH1 0x2 SWAP2 POP SWAP2 POP JUMPDEST SWAP3 POP SWAP3 SWAP1 POP JUMP JUMPDEST PUSH1 0x0 PUSH1 0x4 DUP2 GT ISZERO PUSH2 0x687 JUMPI PUSH2 0x686 PUSH2 0x1031 JUMP JUMPDEST JUMPDEST DUP2 PUSH1 0x4 DUP2 GT ISZERO PUSH2 0x69A JUMPI PUSH2 0x699 PUSH2 0x1031 JUMP JUMPDEST JUMPDEST EQ ISZERO PUSH2 0x6A5 JUMPI PUSH2 0x7DE JUMP JUMPDEST PUSH1 0x1 PUSH1 0x4 DUP2 GT ISZERO PUSH2 0x6B9 JUMPI PUSH2 0x6B8 PUSH2 0x1031 JUMP JUMPDEST JUMPDEST DUP2 PUSH1 0x4 DUP2 GT ISZERO PUSH2 0x6CC JUMPI PUSH2 0x6CB PUSH2 0x1031 JUMP JUMPDEST JUMPDEST EQ ISZERO PUSH2 0x70D JUMPI PUSH1 0x40 MLOAD PUSH32 0x8C379A000000000000000000000000000000000000000000000000000000000 DUP2 MSTORE PUSH1 0x4 ADD PUSH2 0x704 SWAP1 PUSH2 0xD9F JUMP JUMPDEST PUSH1 0x40 MLOAD DUP1 SWAP2 SUB SWAP1 REVERT JUMPDEST PUSH1 0x2 PUSH1 0x4 DUP2 GT ISZERO PUSH2 0x721 JUMPI PUSH2 0x720 PUSH2 0x1031 JUMP JUMPDEST JUMPDEST DUP2 PUSH1 0x4 DUP2 GT ISZERO PUSH2 0x734 JUMPI PUSH2 0x733 PUSH2 0x1031 JUMP JUMPDEST JUMPDEST EQ ISZERO PUSH2 0x775 JUMPI PUSH1 0x40 MLOAD PUSH32 0x8C379A000000000000000000000000000000000000000000000000000000000 DUP2 MSTORE PUSH1 0x4 ADD PUSH2 0x76C SWAP1 PUSH2 0xDBF JUMP JUMPDEST PUSH1 0x40 MLOAD DUP1 SWAP2 SUB SWAP1 REVERT JUMPDEST PUSH1 0x3 PUSH1 0x4 DUP2 GT ISZERO PUSH2 0x789 JUMPI PUSH2 0x788 PUSH2 0x1031 JUMP JUMPDEST JUMPDEST DUP2 PUSH1 0x4 DUP2 GT ISZERO PUSH2 0x79C JUMPI PUSH2 0x79B PUSH2 0x1031 JUMP JUMPDEST JUMPDEST EQ ISZERO PUSH2 0x7DD JUMPI PUSH1 0x40 MLOAD PUSH32 0x8C379A000000000000000000000000000000000000000000000000000000000 DUP2 MSTORE PUSH1 0x4 ADD PUSH2 0x7D4 SWAP1 PUSH2 0xDDF JUMP JUMPDEST PUSH1 0x40 MLOAD DUP1 SWAP2 SUB SWAP1 REVERT JUMPDEST JUMPDEST POP JUMP JUMPDEST PUSH1 0x0 DUP4 DUP4 DUP4 CHAINID ADDRESS PUSH1 0x40 MLOAD PUSH1 0x20 ADD PUSH2 0x7FC SWAP6 SWAP5 SWAP4 SWAP3 SWAP2 SWAP1 PUSH2 0xCE5 JUMP JUMPDEST PUSH1 0x40 MLOAD PUSH1 0x20 DUP2 DUP4 SUB SUB DUP2 MSTORE SWAP1 PUSH1 0x40 MSTORE DUP1 MLOAD SWAP1 PUSH1 0x20 ADD KECCAK256 SWAP1 POP SWAP4 SWAP3 POP POP POP JUMP JUMPDEST PUSH1 0x0 DUP1 PUSH32 0x7FFFFFFFFFFFFFFFFFFFFFFFFFFFFFFF5D576E7357A4501DDFE92F46681B20A0 DUP4 PUSH1 0x0 SHR GT ISZERO PUSH2 0x856 JUMPI PUSH1 0x0 PUSH1 0x3 SWAP2 POP SWAP2 POP PUSH2 0x8F5 JUMP JUMPDEST PUSH1 0x0 PUSH1 0x1 DUP8 DUP8 DUP8 DUP8 PUSH1 0x40 MLOAD PUSH1 0x0 DUP2 MSTORE PUSH1 0x20 ADD PUSH1 0x40 MSTORE PUSH1 0x40 MLOAD PUSH2 0x87B SWAP5 SWAP4 SWAP3 SWAP2 SWAP1 PUSH2 0xD38 JUMP JUMPDEST PUSH1 0x20 PUSH1 0x40 MLOAD PUSH1 0x20 DUP2 SUB SWAP1 DUP1 DUP5 SUB SWAP1 DUP6 GAS STATICCALL ISZERO DUP1 ISZERO PUSH2 0x89D JUMPI RETURNDATASIZE PUSH1 0x0 DUP1 RETURNDATACOPY RETURNDATASIZE PUSH1 0x0 REVERT JUMPDEST POP POP POP PUSH1 0x20 PUSH1 0x40 MLOAD SUB MLOAD SWAP1 POP PUSH1 0x0 PUSH20 0xFFFFFFFFFFFFFFFFFFFFFFFFFFFFFFFFFFFFFFFF AND DUP2 PUSH20 0xFFFFFFFFFFFFFFFFFFFFFFFFFFFFFFFFFFFFFFFF AND EQ ISZERO PUSH2 0x8EC JUMPI PUSH1 0x0 PUSH1 0x1 SWAP3 POP SWAP3 POP POP PUSH2 0x8F5 JUMP JUMPDEST DUP1 PUSH1 0x0 SWAP3 POP SWAP3 POP POP JUMPDEST SWAP5 POP SWAP5 SWAP3 POP POP POP JUMP JUMPDEST DUP3 DUP1 SLOAD PUSH2 0x90A SWAP1 PUSH2 0xFC6 JUMP JUMPDEST SWAP1 PUSH1 0x0 MSTORE PUSH1 0x20 PUSH1 0x0 KECCAK256 SWAP1 PUSH1 0x1F ADD PUSH1 0x20 SWAP1 DIV DUP2 ADD SWAP3 DUP3 PUSH2 0x92C JUMPI PUSH1 0x0 DUP6 SSTORE PUSH2 0x973 JUMP JUMPDEST DUP3 PUSH1 0x1F LT PUSH2 0x945 JUMPI DUP1 CALLDATALOAD PUSH1 0xFF NOT AND DUP4 DUP1 ADD OR DUP6 SSTORE PUSH2 0x973 JUMP JUMPDEST DUP3 DUP1 ADD PUSH1 0x1 ADD DUP6 SSTORE DUP3 ISZERO PUSH2 0x973 JUMPI SWAP2 DUP3 ADD JUMPDEST DUP3 DUP2 GT ISZERO PUSH2 0x972 JUMPI DUP3 CALLDATALOAD DUP3 SSTORE SWAP2 PUSH1 0x20 ADD SWAP2 SWAP1 PUSH1 0x1 ADD SWAP1 PUSH2 0x957 JUMP JUMPDEST JUMPDEST POP SWAP1 POP PUSH2 0x980 SWAP2 SWAP1 PUSH2 0x984 JUMP JUMPDEST POP SWAP1 JUMP JUMPDEST JUMPDEST DUP1 DUP3 GT ISZERO PUSH2 0x99D JUMPI PUSH1 0x0 DUP2 PUSH1 0x0 SWAP1 SSTORE POP PUSH1 0x1 ADD PUSH2 0x985 JUMP JUMPDEST POP SWAP1 JUMP JUMPDEST PUSH1 0x0 DUP2 CALLDATALOAD SWAP1 POP PUSH2 0x9B0 DUP2 PUSH2 0x120C JUMP JUMPDEST SWAP3 SWAP2 POP POP JUMP JUMPDEST PUSH1 0x0 DUP1 DUP4 PUSH1 0x1F DUP5 ADD SLT PUSH2 0x9CC JUMPI PUSH2 0x9CB PUSH2 0x1094 JUMP JUMPDEST JUMPDEST DUP3 CALLDATALOAD SWAP1 POP PUSH8 0xFFFFFFFFFFFFFFFF DUP2 GT ISZERO PUSH2 0x9E9 JUMPI PUSH2 0x9E8 PUSH2 0x108F JUMP JUMPDEST JUMPDEST PUSH1 0x20 DUP4 ADD SWAP2 POP DUP4 PUSH1 0x1 DUP3 MUL DUP4 ADD GT ISZERO PUSH2 0xA05 JUMPI PUSH2 0xA04 PUSH2 0x10A8 JUMP JUMPDEST JUMPDEST SWAP3 POP SWAP3 SWAP1 POP JUMP JUMPDEST PUSH1 0x0 PUSH1 0x40 DUP3 DUP5 SUB SLT ISZERO PUSH2 0xA22 JUMPI PUSH2 0xA21 PUSH2 0x109E JUMP JUMPDEST JUMPDEST DUP2 SWAP1 POP SWAP3 SWAP2 POP POP JUMP JUMPDEST PUSH1 0x0 PUSH1 0x20 DUP3 DUP5 SUB SLT ISZERO PUSH2 0xA41 JUMPI PUSH2 0xA40 PUSH2 0x10B7 JUMP JUMPDEST JUMPDEST PUSH1 0x0 PUSH2 0xA4F DUP5 DUP3 DUP6 ADD PUSH2 0x9A1 JUMP JUMPDEST SWAP2 POP POP SWAP3 SWAP2 POP POP JUMP JUMPDEST PUSH1 0x0 DUP1 PUSH1 0x0 PUSH1 0x40 DUP5 DUP7 SUB SLT ISZERO PUSH2 0xA71 JUMPI PUSH2 0xA70 PUSH2 0x10B7 JUMP JUMPDEST JUMPDEST PUSH1 0x0 DUP5 ADD CALLDATALOAD PUSH8 0xFFFFFFFFFFFFFFFF DUP2 GT ISZERO PUSH2 0xA8F JUMPI PUSH2 0xA8E PUSH2 0x10B2 JUMP JUMPDEST JUMPDEST PUSH2 0xA9B DUP7 DUP3 DUP8 ADD PUSH2 0xA0C JUMP JUMPDEST SWAP4 POP POP PUSH1 0x20 DUP5 ADD CALLDATALOAD PUSH8 0xFFFFFFFFFFFFFFFF DUP2 GT ISZERO PUSH2 0xABC JUMPI PUSH2 0xABB PUSH2 0x10B2 JUMP JUMPDEST JUMPDEST PUSH2 0xAC8 DUP7 DUP3 DUP8 ADD PUSH2 0x9B6 JUMP JUMPDEST SWAP3 POP SWAP3 POP POP SWAP3 POP SWAP3 POP SWAP3 JUMP JUMPDEST PUSH2 0xADD DUP2 PUSH2 0xF25 JUMP JUMPDEST DUP3 MSTORE POP POP JUMP JUMPDEST PUSH2 0xAEC DUP2 PUSH2 0xF37 JUMP JUMPDEST DUP3 MSTORE POP POP JUMP JUMPDEST PUSH2 0xAFB DUP2 PUSH2 0xF43 JUMP JUMPDEST DUP3 MSTORE POP POP JUMP JUMPDEST PUSH2 0xB12 PUSH2 0xB0D DUP3 PUSH2 0xF43 JUMP JUMPDEST PUSH2 0xFF8 JUMP JUMPDEST DUP3 MSTORE POP POP JUMP JUMPDEST PUSH1 0x0 PUSH2 0xB24 DUP4 DUP6 PUSH2 0xEA8 JUMP JUMPDEST SWAP4 POP PUSH2 0xB31 DUP4 DUP6 DUP5 PUSH2 0xF84 JUMP JUMPDEST DUP3 DUP5 ADD SWAP1 POP SWAP4 SWAP3 POP POP POP JUMP JUMPDEST PUSH1 0x0 PUSH2 0xB48 DUP3 PUSH2 0xE9D JUMP JUMPDEST PUSH2 0xB52 DUP2 DUP6 PUSH2 0xEB3 JUMP JUMPDEST SWAP4 POP PUSH2 0xB62 DUP2 DUP6 PUSH1 0x20 DUP7 ADD PUSH2 0xF93 JUMP JUMPDEST PUSH2 0xB6B DUP2 PUSH2 0x10BC JUMP JUMPDEST DUP5 ADD SWAP2 POP POP SWAP3 SWAP2 POP POP JUMP JUMPDEST PUSH1 0x0 PUSH2 0xB83 PUSH1 0x18 DUP4 PUSH2 0xEB3 JUMP JUMPDEST SWAP2 POP PUSH2 0xB8E DUP3 PUSH2 0x10CD JUMP JUMPDEST PUSH1 0x20 DUP3 ADD SWAP1 POP SWAP2 SWAP1 POP JUMP JUMPDEST PUSH1 0x0 PUSH2 0xBA6 PUSH1 0x1F DUP4 PUSH2 0xEB3 JUMP JUMPDEST SWAP2 POP PUSH2 0xBB1 DUP3 PUSH2 0x10F6 JUMP JUMPDEST PUSH1 0x20 DUP3 ADD SWAP1 POP SWAP2 SWAP1 POP JUMP JUMPDEST PUSH1 0x0 PUSH2 0xBC9 PUSH1 0x2 DUP4 PUSH2 0xEC4 JUMP JUMPDEST SWAP2 POP PUSH2 0xBD4 DUP3 PUSH2 0x111F JUMP JUMPDEST PUSH1 0x2 DUP3 ADD SWAP1 POP SWAP2 SWAP1 POP JUMP JUMPDEST PUSH1 0x0 PUSH2 0xBEC PUSH1 0x22 DUP4 PUSH2 0xEB3 JUMP JUMPDEST SWAP2 POP PUSH2 0xBF7 DUP3 PUSH2 0x1148 JUMP JUMPDEST PUSH1 0x40 DUP3 ADD SWAP1 POP SWAP2 SWAP1 POP JUMP JUMPDEST PUSH1 0x0 PUSH2 0xC0F PUSH1 0x49 DUP4 PUSH2 0xEB3 JUMP JUMPDEST SWAP2 POP PUSH2 0xC1A DUP3 PUSH2 0x1197 JUMP JUMPDEST PUSH1 0x60 DUP3 ADD SWAP1 POP SWAP2 SWAP1 POP JUMP JUMPDEST PUSH2 0xC2E DUP2 PUSH2 0xF6D JUMP JUMPDEST DUP3 MSTORE POP POP JUMP JUMPDEST PUSH2 0xC3D DUP2 PUSH2 0xF77 JUMP JUMPDEST DUP3 MSTORE POP POP JUMP JUMPDEST PUSH1 0x0 PUSH2 0xC50 DUP3 DUP5 DUP7 PUSH2 0xB18 JUMP JUMPDEST SWAP2 POP DUP2 SWAP1 POP SWAP4 SWAP3 POP POP POP JUMP JUMPDEST PUSH1 0x0 PUSH2 0xC67 DUP3 PUSH2 0xBBC JUMP JUMPDEST SWAP2 POP PUSH2 0xC73 DUP3 DUP6 PUSH2 0xB01 JUMP JUMPDEST PUSH1 0x20 DUP3 ADD SWAP2 POP PUSH2 0xC83 DUP3 DUP5 PUSH2 0xB01 JUMP JUMPDEST PUSH1 0x20 DUP3 ADD SWAP2 POP DUP2 SWAP1 POP SWAP4 SWAP3 POP POP POP JUMP JUMPDEST PUSH1 0x0 PUSH1 0x20 DUP3 ADD SWAP1 POP PUSH2 0xCA8 PUSH1 0x0 DUP4 ADD DUP5 PUSH2 0xAE3 JUMP JUMPDEST SWAP3 SWAP2 POP POP JUMP JUMPDEST PUSH1 0x0 PUSH1 0x60 DUP3 ADD SWAP1 POP PUSH2 0xCC3 PUSH1 0x0 DUP4 ADD DUP7 PUSH2 0xAF2 JUMP JUMPDEST PUSH2 0xCD0 PUSH1 0x20 DUP4 ADD DUP6 PUSH2 0xAD4 JUMP JUMPDEST PUSH2 0xCDD PUSH1 0x40 DUP4 ADD DUP5 PUSH2 0xAF2 JUMP JUMPDEST SWAP5 SWAP4 POP POP POP POP JUMP JUMPDEST PUSH1 0x0 PUSH1 0xA0 DUP3 ADD SWAP1 POP PUSH2 0xCFA PUSH1 0x0 DUP4 ADD DUP9 PUSH2 0xAF2 JUMP JUMPDEST PUSH2 0xD07 PUSH1 0x20 DUP4 ADD DUP8 PUSH2 0xAF2 JUMP JUMPDEST PUSH2 0xD14 PUSH1 0x40 DUP4 ADD DUP7 PUSH2 0xAF2 JUMP JUMPDEST PUSH2 0xD21 PUSH1 0x60 DUP4 ADD DUP6 PUSH2 0xC25 JUMP JUMPDEST PUSH2 0xD2E PUSH1 0x80 DUP4 ADD DUP5 PUSH2 0xAD4 JUMP JUMPDEST SWAP7 SWAP6 POP POP POP POP POP POP JUMP JUMPDEST PUSH1 0x0 PUSH1 0x80 DUP3 ADD SWAP1 POP PUSH2 0xD4D PUSH1 0x0 DUP4 ADD DUP8 PUSH2 0xAF2 JUMP JUMPDEST PUSH2 0xD5A PUSH1 0x20 DUP4 ADD DUP7 PUSH2 0xC34 JUMP JUMPDEST PUSH2 0xD67 PUSH1 0x40 DUP4 ADD DUP6 PUSH2 0xAF2 JUMP JUMPDEST PUSH2 0xD74 PUSH1 0x60 DUP4 ADD DUP5 PUSH2 0xAF2 JUMP JUMPDEST SWAP6 SWAP5 POP POP POP POP POP JUMP JUMPDEST PUSH1 0x0 PUSH1 0x20 DUP3 ADD SWAP1 POP DUP2 DUP2 SUB PUSH1 0x0 DUP4 ADD MSTORE PUSH2 0xD97 DUP2 DUP5 PUSH2 0xB3D JUMP JUMPDEST SWAP1 POP SWAP3 SWAP2 POP POP JUMP JUMPDEST PUSH1 0x0 PUSH1 0x20 DUP3 ADD SWAP1 POP DUP2 DUP2 SUB PUSH1 0x0 DUP4 ADD MSTORE PUSH2 0xDB8 DUP2 PUSH2 0xB76 JUMP JUMPDEST SWAP1 POP SWAP2 SWAP1 POP JUMP JUMPDEST PUSH1 0x0 PUSH1 0x20 DUP3 ADD SWAP1 POP DUP2 DUP2 SUB PUSH1 0x0 DUP4 ADD MSTORE PUSH2 0xDD8 DUP2 PUSH2 0xB99 JUMP JUMPDEST SWAP1 POP SWAP2 SWAP1 POP JUMP JUMPDEST PUSH1 0x0 PUSH1 0x20 DUP3 ADD SWAP1 POP DUP2 DUP2 SUB PUSH1 0x0 DUP4 ADD MSTORE PUSH2 0xDF8 DUP2 PUSH2 0xBDF JUMP JUMPDEST SWAP1 POP SWAP2 SWAP1 POP JUMP JUMPDEST PUSH1 0x0 PUSH1 0x20 DUP3 ADD SWAP1 POP DUP2 DUP2 SUB PUSH1 0x0 DUP4 ADD MSTORE PUSH2 0xE18 DUP2 PUSH2 0xC02 JUMP JUMPDEST SWAP1 POP SWAP2 SWAP1 POP JUMP JUMPDEST PUSH1 0x0 PUSH1 0x20 DUP3 ADD SWAP1 POP PUSH2 0xE34 PUSH1 0x0 DUP4 ADD DUP5 PUSH2 0xC25 JUMP JUMPDEST SWAP3 SWAP2 POP POP JUMP JUMPDEST PUSH1 0x0 DUP1 DUP4 CALLDATALOAD PUSH1 0x1 PUSH1 0x20 SUB DUP5 CALLDATASIZE SUB SUB DUP2 SLT PUSH2 0xE57 JUMPI PUSH2 0xE56 PUSH2 0x10A3 JUMP JUMPDEST JUMPDEST DUP1 DUP5 ADD SWAP3 POP DUP3 CALLDATALOAD SWAP2 POP PUSH8 0xFFFFFFFFFFFFFFFF DUP3 GT ISZERO PUSH2 0xE79 JUMPI PUSH2 0xE78 PUSH2 0x1099 JUMP JUMPDEST JUMPDEST PUSH1 0x20 DUP4 ADD SWAP3 POP PUSH1 0x1 DUP3 MUL CALLDATASIZE SUB DUP4 SGT ISZERO PUSH2 0xE95 JUMPI PUSH2 0xE94 PUSH2 0x10AD JUMP JUMPDEST JUMPDEST POP SWAP3 POP SWAP3 SWAP1 POP JUMP JUMPDEST PUSH1 0x0 DUP2 MLOAD SWAP1 POP SWAP2 SWAP1 POP JUMP JUMPDEST PUSH1 0x0 DUP2 SWAP1 POP SWAP3 SWAP2 POP POP JUMP JUMPDEST PUSH1 0x0 DUP3 DUP3 MSTORE PUSH1 0x20 DUP3 ADD SWAP1 POP SWAP3 SWAP2 POP POP JUMP JUMPDEST PUSH1 0x0 DUP2 SWAP1 POP SWAP3 SWAP2 POP POP JUMP JUMPDEST PUSH1 0x0 PUSH2 0xEDA DUP3 PUSH2 0xF6D JUMP JUMPDEST SWAP2 POP PUSH2 0xEE5 DUP4 PUSH2 0xF6D JUMP JUMPDEST SWAP3 POP DUP3 PUSH32 0xFFFFFFFFFFFFFFFFFFFFFFFFFFFFFFFFFFFFFFFFFFFFFFFFFFFFFFFFFFFFFFFF SUB DUP3 GT ISZERO PUSH2 0xF1A JUMPI PUSH2 0xF19 PUSH2 0x1002 JUMP JUMPDEST JUMPDEST DUP3 DUP3 ADD SWAP1 POP SWAP3 SWAP2 POP POP JUMP JUMPDEST PUSH1 0x0 PUSH2 0xF30 DUP3 PUSH2 0xF4D JUMP JUMPDEST SWAP1 POP SWAP2 SWAP1 POP JUMP JUMPDEST PUSH1 0x0 DUP2 ISZERO ISZERO SWAP1 POP SWAP2 SWAP1 POP JUMP JUMPDEST PUSH1 0x0 DUP2 SWAP1 POP SWAP2 SWAP1 POP JUMP JUMPDEST PUSH1 0x0 PUSH20 0xFFFFFFFFFFFFFFFFFFFFFFFFFFFFFFFFFFFFFFFF DUP3 AND SWAP1 POP SWAP2 SWAP1 POP JUMP JUMPDEST PUSH1 0x0 DUP2 SWAP1 POP SWAP2 SWAP1 POP JUMP JUMPDEST PUSH1 0x0 PUSH1 0xFF DUP3 AND SWAP1 POP SWAP2 SWAP1 POP JUMP JUMPDEST DUP3 DUP2 DUP4 CALLDATACOPY PUSH1 0x0 DUP4 DUP4 ADD MSTORE POP POP POP JUMP JUMPDEST PUSH1 0x0 JUMPDEST DUP4 DUP2 LT ISZERO PUSH2 0xFB1 JUMPI DUP1 DUP3 ADD MLOAD DUP2 DUP5 ADD MSTORE PUSH1 0x20 DUP2 ADD SWAP1 POP PUSH2 0xF96 JUMP JUMPDEST DUP4 DUP2 GT ISZERO PUSH2 0xFC0 JUMPI PUSH1 0x0 DUP5 DUP5 ADD MSTORE JUMPDEST POP POP POP POP JUMP JUMPDEST PUSH1 0x0 PUSH1 0x2 DUP3 DIV SWAP1 POP PUSH1 0x1 DUP3 AND DUP1 PUSH2 0xFDE JUMPI PUSH1 0x7F DUP3 AND SWAP2 POP JUMPDEST PUSH1 0x20 DUP3 LT DUP2 EQ ISZERO PUSH2 0xFF2 JUMPI PUSH2 0xFF1 PUSH2 0x1060 JUMP JUMPDEST JUMPDEST POP SWAP2 SWAP1 POP JUMP JUMPDEST PUSH1 0x0 DUP2 SWAP1 POP SWAP2 SWAP1 POP JUMP JUMPDEST PUSH32 0x4E487B7100000000000000000000000000000000000000000000000000000000 PUSH1 0x0 MSTORE PUSH1 0x11 PUSH1 0x4 MSTORE PUSH1 0x24 PUSH1 0x0 REVERT JUMPDEST PUSH32 0x4E487B7100000000000000000000000000000000000000000000000000000000 PUSH1 0x0 MSTORE PUSH1 0x21 PUSH1 0x4 MSTORE PUSH1 0x24 PUSH1 0x0 REVERT JUMPDEST PUSH32 0x4E487B7100000000000000000000000000000000000000000000000000000000 PUSH1 0x0 MSTORE PUSH1 0x22 PUSH1 0x4 MSTORE PUSH1 0x24 PUSH1 0x0 REVERT JUMPDEST PUSH1 0x0 DUP1 REVERT JUMPDEST PUSH1 0x0 DUP1 REVERT JUMPDEST PUSH1 0x0 DUP1 REVERT JUMPDEST PUSH1 0x0 DUP1 REVERT JUMPDEST PUSH1 0x0 DUP1 REVERT JUMPDEST PUSH1 0x0 DUP1 REVERT JUMPDEST PUSH1 0x0 DUP1 REVERT JUMPDEST PUSH1 0x0 DUP1 REVERT JUMPDEST PUSH1 0x0 DUP1 REVERT JUMPDEST PUSH1 0x0 PUSH1 0x1F NOT PUSH1 0x1F DUP4 ADD AND SWAP1 POP SWAP2 SWAP1 POP JUMP JUMPDEST PUSH32 0x45434453413A20696E76616C6964207369676E61747572650000000000000000 PUSH1 0x0 DUP3 ADD MSTORE POP JUMP JUMPDEST PUSH32 0x45434453413A20696E76616C6964207369676E6174757265206C656E67746800 PUSH1 0x0 DUP3 ADD MSTORE POP JUMP JUMPDEST PUSH32 0x1901000000000000000000000000000000000000000000000000000000000000 PUSH1 0x0 DUP3 ADD MSTORE POP JUMP JUMPDEST PUSH32 0x45434453413A20696E76616C6964207369676E6174757265202773272076616C PUSH1 0x0 DUP3 ADD MSTORE PUSH32 0x7565000000000000000000000000000000000000000000000000000000000000 PUSH1 0x20 DUP3 ADD MSTORE POP JUMP JUMPDEST PUSH32 0x4549503731324D657373616765436F756E7465723A205369676E617475726520 PUSH1 0x0 DUP3 ADD MSTORE PUSH32 0x646F6573206E6F74206D61746368206578706563746564205369676E61747572 PUSH1 0x20 DUP3 ADD MSTORE PUSH32 0x65206D6573736167650000000000000000000000000000000000000000000000 PUSH1 0x40 DUP3 ADD MSTORE POP JUMP JUMPDEST PUSH2 0x1215 DUP2 PUSH2 0xF25 JUMP JUMPDEST DUP2 EQ PUSH2 0x1220 JUMPI PUSH1 0x0 DUP1 REVERT JUMPDEST POP JUMP INVALID LOG2 PUSH5 0x6970667358 0x22 SLT KECCAK256 PUSH25 0xF52BC7C7E9645100A020700179853D90FE95B78C5A4A55386B 0xAF DUP6 PUSH8 0x40D8E064736F6C63 NUMBER STOP ADDMOD SMOD STOP CALLER "
				},
				"gasEstimates": {
					"creation": {
						"codeDepositCost": "939400",
						"executionCost": "infinite",
						"totalCost": "infinite"
					},
					"external": {
						"countOf(address)": "2863",
						"lastMessageOf(address)": "infinite",
						"setSignerMessage((address,string),bytes)": "infinite"
					},
					"internal": {
						"_verifySignedMessage(struct EIP712MessageCounter.Signature calldata,bytes calldata)": "infinite"
					}
				},
				"methodIdentifiers": {
					"countOf(address)": "f8977e96",
					"lastMessageOf(address)": "c03f489a",
					"setSignerMessage((address,string),bytes)": "41cf0893"
				}
			},
			"storageLayout": {
				"storage": [
					{
						"astId": 753,
						"contract": "contracts/Implementacion Tokens Ethereum/EIP712MessageCounter.sol:EIP712MessageCounter",
						"label": "_counters",
						"offset": 0,
						"slot": "0",
						"type": "t_mapping(t_address,t_uint256)"
					},
					{
						"astId": 757,
						"contract": "contracts/Implementacion Tokens Ethereum/EIP712MessageCounter.sol:EIP712MessageCounter",
						"label": "_accountsLastMessage",
						"offset": 0,
						"slot": "1",
						"type": "t_mapping(t_address,t_string_storage)"
					}
				],
				"types": {
					"t_address": {
						"encoding": "inplace",
						"label": "address",
						"numberOfBytes": "20"
					},
					"t_mapping(t_address,t_string_storage)": {
						"encoding": "mapping",
						"key": "t_address",
						"label": "mapping(address => string)",
						"numberOfBytes": "32",
						"value": "t_string_storage"
					},
					"t_mapping(t_address,t_uint256)": {
						"encoding": "mapping",
						"key": "t_address",
						"label": "mapping(address => uint256)",
						"numberOfBytes": "32",
						"value": "t_uint256"
					},
					"t_string_storage": {
						"encoding": "bytes",
						"label": "string",
						"numberOfBytes": "32"
					},
					"t_uint256": {
						"encoding": "inplace",
						"label": "uint256",
						"numberOfBytes": "32"
					}
				}
			},
			"userdoc": {
				"kind": "user",
				"methods": {},
				"version": 1
			}
		}
	}
}