{
	"contracts/Implementacion Tokens Ethereum/PlatziTokenForwarder.sol": {
		"PlatziTokenForwarder": {
			"abi": [
				{
					"inputs": [],
					"stateMutability": "nonpayable",
					"type": "constructor"
				},
				{
					"inputs": [
						{
							"components": [
								{
									"internalType": "address",
									"name": "from",
									"type": "address"
								},
								{
									"internalType": "address",
									"name": "to",
									"type": "address"
								},
								{
									"internalType": "uint256",
									"name": "nonce",
									"type": "uint256"
								},
								{
									"internalType": "bytes",
									"name": "data",
									"type": "bytes"
								}
							],
							"internalType": "struct PlatziTokenForwarder.MetaTx",
							"name": "metaTx",
							"type": "tuple"
						},
						{
							"internalType": "bytes",
							"name": "signature",
							"type": "bytes"
						}
					],
					"name": "executeFunction",
					"outputs": [
						{
							"internalType": "bool",
							"name": "",
							"type": "bool"
						}
					],
					"stateMutability": "nonpayable",
					"type": "function"
				},
				{
					"inputs": [
						{
							"internalType": "address",
							"name": "from",
							"type": "address"
						}
					],
					"name": "getNonce",
					"outputs": [
						{
							"internalType": "uint256",
							"name": "",
							"type": "uint256"
						}
					],
					"stateMutability": "view",
					"type": "function"
				}
			],
			"devdoc": {
				"kind": "dev",
				"methods": {},
				"version": 1
			},
			"evm": {
				"assembly": "    /* \"contracts/Implementacion Tokens Ethereum/PlatziTokenForwarder.sol\":212:3267  contract PlatziTokenForwarder is EIP712 {\r... */\n  mstore(0x40, 0x0140)\n    /* \"contracts/Implementacion Tokens Ethereum/PlatziTokenForwarder.sol\":1102:1158  constructor() EIP712(\"PlatziTokenForwarder\", \"0.0.1\") {} */\n  callvalue\n  dup1\n  iszero\n  tag_1\n  jumpi\n  0x00\n  dup1\n  revert\ntag_1:\n  pop\n    /* \"@openzeppelin/contracts/utils/cryptography/EIP712.sol\":2464:3066  constructor(string memory name, string memory version) {... */\n  mload(0x40)\n  dup1\n  0x40\n  add\n  0x40\n  mstore\n  dup1\n  0x14\n  dup2\n  mstore\n  0x20\n  add\n  0x506c61747a69546f6b656e466f72776172646572000000000000000000000000\n  dup2\n  mstore\n  pop\n  mload(0x40)\n  dup1\n  0x40\n  add\n  0x40\n  mstore\n  dup1\n  0x05\n  dup2\n  mstore\n  0x20\n  add\n  0x302e302e31000000000000000000000000000000000000000000000000000000\n  dup2\n  mstore\n  pop\n    /* \"@openzeppelin/contracts/utils/cryptography/EIP712.sol\":2529:2547  bytes32 hashedName */\n  0x00\n    /* \"@openzeppelin/contracts/utils/cryptography/EIP712.sol\":2566:2570  name */\n  dup3\n    /* \"@openzeppelin/contracts/utils/cryptography/EIP712.sol\":2550:2572  keccak256(bytes(name)) */\n  dup1\n  mload\n  swap1\n  0x20\n  add\n  keccak256\n    /* \"@openzeppelin/contracts/utils/cryptography/EIP712.sol\":2529:2572  bytes32 hashedName = keccak256(bytes(name)) */\n  swap1\n  pop\n    /* \"@openzeppelin/contracts/utils/cryptography/EIP712.sol\":2582:2603  bytes32 hashedVersion */\n  0x00\n    /* \"@openzeppelin/contracts/utils/cryptography/EIP712.sol\":2622:2629  version */\n  dup3\n    /* \"@openzeppelin/contracts/utils/cryptography/EIP712.sol\":2606:2631  keccak256(bytes(version)) */\n  dup1\n  mload\n  swap1\n  0x20\n  add\n  keccak256\n    /* \"@openzeppelin/contracts/utils/cryptography/EIP712.sol\":2582:2631  bytes32 hashedVersion = keccak256(bytes(version)) */\n  swap1\n  pop\n    /* \"@openzeppelin/contracts/utils/cryptography/EIP712.sol\":2641:2657  bytes32 typeHash */\n  0x00\n    /* \"@openzeppelin/contracts/utils/cryptography/EIP712.sol\":2660:2777  keccak256(... */\n  0x8b73c3c69bb8fe3d512ecc4cf759cc79239f7b179b0ffacaa9a75d522b39400f\n    /* \"@openzeppelin/contracts/utils/cryptography/EIP712.sol\":2641:2777  bytes32 typeHash = keccak256(... */\n  swap1\n  pop\n    /* \"@openzeppelin/contracts/utils/cryptography/EIP712.sol\":2802:2812  hashedName */\n  dup3\n    /* \"@openzeppelin/contracts/utils/cryptography/EIP712.sol\":2787:2812  _HASHED_NAME = hashedName */\n  0xe0\n  dup2\n  dup2\n  mstore\n  pop\n  pop\n    /* \"@openzeppelin/contracts/utils/cryptography/EIP712.sol\":2840:2853  hashedVersion */\n  dup2\n    /* \"@openzeppelin/contracts/utils/cryptography/EIP712.sol\":2822:2853  _HASHED_VERSION = hashedVersion */\n  0x0100\n  dup2\n  dup2\n  mstore\n  pop\n  pop\n    /* \"@openzeppelin/contracts/utils/cryptography/EIP712.sol\":2882:2895  block.chainid */\n  chainid\n    /* \"@openzeppelin/contracts/utils/cryptography/EIP712.sol\":2863:2895  _CACHED_CHAIN_ID = block.chainid */\n  0xa0\n  dup2\n  dup2\n  mstore\n  pop\n  pop\n    /* \"@openzeppelin/contracts/utils/cryptography/EIP712.sol\":2932:2990  _buildDomainSeparator(typeHash, hashedName, hashedVersion) */\n  tag_5\n    /* \"@openzeppelin/contracts/utils/cryptography/EIP712.sol\":2954:2962  typeHash */\n  dup2\n    /* \"@openzeppelin/contracts/utils/cryptography/EIP712.sol\":2964:2974  hashedName */\n  dup5\n    /* \"@openzeppelin/contracts/utils/cryptography/EIP712.sol\":2976:2989  hashedVersion */\n  dup5\n    /* \"@openzeppelin/contracts/utils/cryptography/EIP712.sol\":2932:2953  _buildDomainSeparator */\n  shl(0x20, tag_6)\n    /* \"@openzeppelin/contracts/utils/cryptography/EIP712.sol\":2932:2990  _buildDomainSeparator(typeHash, hashedName, hashedVersion) */\n  0x20\n  shr\n  jump\t// in\ntag_5:\n    /* \"@openzeppelin/contracts/utils/cryptography/EIP712.sol\":2905:2990  _CACHED_DOMAIN_SEPARATOR = _buildDomainSeparator(typeHash, hashedName, hashedVersion) */\n  0x80\n  dup2\n  dup2\n  mstore\n  pop\n  pop\n    /* \"@openzeppelin/contracts/utils/cryptography/EIP712.sol\":3023:3027  this */\n  address\n    /* \"@openzeppelin/contracts/utils/cryptography/EIP712.sol\":3000:3028  _CACHED_THIS = address(this) */\n  0xffffffffffffffffffffffffffffffffffffffff\n  and\n  0xc0\n  dup2\n  0xffffffffffffffffffffffffffffffffffffffff\n  and\n  0x60\n  shl\n  dup2\n  mstore\n  pop\n  pop\n    /* \"@openzeppelin/contracts/utils/cryptography/EIP712.sol\":3051:3059  typeHash */\n  dup1\n    /* \"@openzeppelin/contracts/utils/cryptography/EIP712.sol\":3038:3059  _TYPE_HASH = typeHash */\n  0x0120\n  dup2\n  dup2\n  mstore\n  pop\n  pop\n    /* \"@openzeppelin/contracts/utils/cryptography/EIP712.sol\":2519:3066  {... */\n  pop\n  pop\n  pop\n    /* \"@openzeppelin/contracts/utils/cryptography/EIP712.sol\":2464:3066  constructor(string memory name, string memory version) {... */\n  pop\n  pop\n    /* \"contracts/Implementacion Tokens Ethereum/PlatziTokenForwarder.sol\":212:3267  contract PlatziTokenForwarder is EIP712 {\r... */\n  jump(tag_8)\n    /* \"@openzeppelin/contracts/utils/cryptography/EIP712.sol\":3466:3723  function _buildDomainSeparator(... */\ntag_6:\n    /* \"@openzeppelin/contracts/utils/cryptography/EIP712.sol\":3606:3613  bytes32 */\n  0x00\n    /* \"@openzeppelin/contracts/utils/cryptography/EIP712.sol\":3653:3661  typeHash */\n  dup4\n    /* \"@openzeppelin/contracts/utils/cryptography/EIP712.sol\":3663:3671  nameHash */\n  dup4\n    /* \"@openzeppelin/contracts/utils/cryptography/EIP712.sol\":3673:3684  versionHash */\n  dup4\n    /* \"@openzeppelin/contracts/utils/cryptography/EIP712.sol\":3686:3699  block.chainid */\n  chainid\n    /* \"@openzeppelin/contracts/utils/cryptography/EIP712.sol\":3709:3713  this */\n  address\n    /* \"@openzeppelin/contracts/utils/cryptography/EIP712.sol\":3642:3715  abi.encode(typeHash, nameHash, versionHash, block.chainid, address(this)) */\n  add(0x20, mload(0x40))\n  tag_10\n  swap6\n  swap5\n  swap4\n  swap3\n  swap2\n  swap1\n  tag_11\n  jump\t// in\ntag_10:\n  mload(0x40)\n  0x20\n  dup2\n  dup4\n  sub\n  sub\n  dup2\n  mstore\n  swap1\n  0x40\n  mstore\n    /* \"@openzeppelin/contracts/utils/cryptography/EIP712.sol\":3632:3716  keccak256(abi.encode(typeHash, nameHash, versionHash, block.chainid, address(this))) */\n  dup1\n  mload\n  swap1\n  0x20\n  add\n  keccak256\n    /* \"@openzeppelin/contracts/utils/cryptography/EIP712.sol\":3625:3716  return keccak256(abi.encode(typeHash, nameHash, versionHash, block.chainid, address(this))) */\n  swap1\n  pop\n    /* \"@openzeppelin/contracts/utils/cryptography/EIP712.sol\":3466:3723  function _buildDomainSeparator(... */\n  swap4\n  swap3\n  pop\n  pop\n  pop\n  jump\t// out\n    /* \"#utility.yul\":7:125   */\ntag_13:\n    /* \"#utility.yul\":94:118   */\n  tag_15\n    /* \"#utility.yul\":112:117   */\n  dup2\n    /* \"#utility.yul\":94:118   */\n  tag_16\n  jump\t// in\ntag_15:\n    /* \"#utility.yul\":89:92   */\n  dup3\n    /* \"#utility.yul\":82:119   */\n  mstore\n    /* \"#utility.yul\":7:125   */\n  pop\n  pop\n  jump\t// out\n    /* \"#utility.yul\":131:249   */\ntag_17:\n    /* \"#utility.yul\":218:242   */\n  tag_19\n    /* \"#utility.yul\":236:241   */\n  dup2\n    /* \"#utility.yul\":218:242   */\n  tag_20\n  jump\t// in\ntag_19:\n    /* \"#utility.yul\":213:216   */\n  dup3\n    /* \"#utility.yul\":206:243   */\n  mstore\n    /* \"#utility.yul\":131:249   */\n  pop\n  pop\n  jump\t// out\n    /* \"#utility.yul\":255:373   */\ntag_21:\n    /* \"#utility.yul\":342:366   */\n  tag_23\n    /* \"#utility.yul\":360:365   */\n  dup2\n    /* \"#utility.yul\":342:366   */\n  tag_24\n  jump\t// in\ntag_23:\n    /* \"#utility.yul\":337:340   */\n  dup3\n    /* \"#utility.yul\":330:367   */\n  mstore\n    /* \"#utility.yul\":255:373   */\n  pop\n  pop\n  jump\t// out\n    /* \"#utility.yul\":379:1043   */\ntag_11:\n    /* \"#utility.yul\":584:588   */\n  0x00\n    /* \"#utility.yul\":622:625   */\n  0xa0\n    /* \"#utility.yul\":611:620   */\n  dup3\n    /* \"#utility.yul\":607:626   */\n  add\n    /* \"#utility.yul\":599:626   */\n  swap1\n  pop\n    /* \"#utility.yul\":636:707   */\n  tag_26\n    /* \"#utility.yul\":704:705   */\n  0x00\n    /* \"#utility.yul\":693:702   */\n  dup4\n    /* \"#utility.yul\":689:706   */\n  add\n    /* \"#utility.yul\":680:686   */\n  dup9\n    /* \"#utility.yul\":636:707   */\n  tag_17\n  jump\t// in\ntag_26:\n    /* \"#utility.yul\":717:789   */\n  tag_27\n    /* \"#utility.yul\":785:787   */\n  0x20\n    /* \"#utility.yul\":774:783   */\n  dup4\n    /* \"#utility.yul\":770:788   */\n  add\n    /* \"#utility.yul\":761:767   */\n  dup8\n    /* \"#utility.yul\":717:789   */\n  tag_17\n  jump\t// in\ntag_27:\n    /* \"#utility.yul\":799:871   */\n  tag_28\n    /* \"#utility.yul\":867:869   */\n  0x40\n    /* \"#utility.yul\":856:865   */\n  dup4\n    /* \"#utility.yul\":852:870   */\n  add\n    /* \"#utility.yul\":843:849   */\n  dup7\n    /* \"#utility.yul\":799:871   */\n  tag_17\n  jump\t// in\ntag_28:\n    /* \"#utility.yul\":881:953   */\n  tag_29\n    /* \"#utility.yul\":949:951   */\n  0x60\n    /* \"#utility.yul\":938:947   */\n  dup4\n    /* \"#utility.yul\":934:952   */\n  add\n    /* \"#utility.yul\":925:931   */\n  dup6\n    /* \"#utility.yul\":881:953   */\n  tag_21\n  jump\t// in\ntag_29:\n    /* \"#utility.yul\":963:1036   */\n  tag_30\n    /* \"#utility.yul\":1031:1034   */\n  0x80\n    /* \"#utility.yul\":1020:1029   */\n  dup4\n    /* \"#utility.yul\":1016:1035   */\n  add\n    /* \"#utility.yul\":1007:1013   */\n  dup5\n    /* \"#utility.yul\":963:1036   */\n  tag_13\n  jump\t// in\ntag_30:\n    /* \"#utility.yul\":379:1043   */\n  swap7\n  swap6\n  pop\n  pop\n  pop\n  pop\n  pop\n  pop\n  jump\t// out\n    /* \"#utility.yul\":1049:1145   */\ntag_16:\n    /* \"#utility.yul\":1086:1093   */\n  0x00\n    /* \"#utility.yul\":1115:1139   */\n  tag_32\n    /* \"#utility.yul\":1133:1138   */\n  dup3\n    /* \"#utility.yul\":1115:1139   */\n  tag_33\n  jump\t// in\ntag_32:\n    /* \"#utility.yul\":1104:1139   */\n  swap1\n  pop\n    /* \"#utility.yul\":1049:1145   */\n  swap2\n  swap1\n  pop\n  jump\t// out\n    /* \"#utility.yul\":1151:1228   */\ntag_20:\n    /* \"#utility.yul\":1188:1195   */\n  0x00\n    /* \"#utility.yul\":1217:1222   */\n  dup2\n    /* \"#utility.yul\":1206:1222   */\n  swap1\n  pop\n    /* \"#utility.yul\":1151:1228   */\n  swap2\n  swap1\n  pop\n  jump\t// out\n    /* \"#utility.yul\":1234:1360   */\ntag_33:\n    /* \"#utility.yul\":1271:1278   */\n  0x00\n    /* \"#utility.yul\":1311:1353   */\n  0xffffffffffffffffffffffffffffffffffffffff\n    /* \"#utility.yul\":1304:1309   */\n  dup3\n    /* \"#utility.yul\":1300:1354   */\n  and\n    /* \"#utility.yul\":1289:1354   */\n  swap1\n  pop\n    /* \"#utility.yul\":1234:1360   */\n  swap2\n  swap1\n  pop\n  jump\t// out\n    /* \"#utility.yul\":1366:1443   */\ntag_24:\n    /* \"#utility.yul\":1403:1410   */\n  0x00\n    /* \"#utility.yul\":1432:1437   */\n  dup2\n    /* \"#utility.yul\":1421:1437   */\n  swap1\n  pop\n    /* \"#utility.yul\":1366:1443   */\n  swap2\n  swap1\n  pop\n  jump\t// out\n    /* \"contracts/Implementacion Tokens Ethereum/PlatziTokenForwarder.sol\":212:3267  contract PlatziTokenForwarder is EIP712 {\r... */\ntag_8:\n  mload(0x80)\n  mload(0xa0)\n  shr(0x60, mload(0xc0))\n  mload(0xe0)\n  mload(0x0100)\n  mload(0x0120)\n  codecopy(0x00, dataOffset(sub_0), dataSize(sub_0))\n  0x00\n  assignImmutable(\"0xd54003e33f3f1d6656a9f4f81a3c7bd75145164696340a041aed5636bd167569\")\n  0x00\n  assignImmutable(\"0xadd35db6d9cbb4a93083ce00f6da825d590d67feeb3a24ddce512c81a6f977f2\")\n  0x00\n  assignImmutable(\"0xe07291691b14f575b5cfdac2c09a610941d76185383eed85c94ea499aff65392\")\n  0x00\n  assignImmutable(\"0xd255d1e2fbaebdc7ec40fedaea7c9b95572f4cd4f117fe0d25807a70ab43d03d\")\n  0x00\n  assignImmutable(\"0x50fd9bdcde6b34c0ec3f59642a2fdd0aa19d3c4402950929a5840857c06086a0\")\n  0x00\n  assignImmutable(\"0x71c24ce59180130dc1b5c3ebcbddeb1cf32dae46f5ec55f50a3074f581ef8c07\")\n  return(0x00, dataSize(sub_0))\nstop\n\nsub_0: assembly {\n        /* \"contracts/Implementacion Tokens Ethereum/PlatziTokenForwarder.sol\":212:3267  contract PlatziTokenForwarder is EIP712 {\r... */\n      mstore(0x40, 0x80)\n      callvalue\n      dup1\n      iszero\n      tag_1\n      jumpi\n      0x00\n      dup1\n      revert\n    tag_1:\n      pop\n      jumpi(tag_2, lt(calldatasize, 0x04))\n      shr(0xe0, calldataload(0x00))\n      dup1\n      0x246eb08a\n      eq\n      tag_3\n      jumpi\n      dup1\n      0x2d0335ab\n      eq\n      tag_4\n      jumpi\n    tag_2:\n      0x00\n      dup1\n      revert\n        /* \"contracts/Implementacion Tokens Ethereum/PlatziTokenForwarder.sol\":2349:3260  function executeFunction(MetaTx calldata metaTx, bytes calldata signature)\r... */\n    tag_3:\n      tag_5\n      0x04\n      dup1\n      calldatasize\n      sub\n      dup2\n      add\n      swap1\n      tag_6\n      swap2\n      swap1\n      tag_7\n      jump\t// in\n    tag_6:\n      tag_8\n      jump\t// in\n    tag_5:\n      mload(0x40)\n      tag_9\n      swap2\n      swap1\n      tag_10\n      jump\t// in\n    tag_9:\n      mload(0x40)\n      dup1\n      swap2\n      sub\n      swap1\n      return\n        /* \"contracts/Implementacion Tokens Ethereum/PlatziTokenForwarder.sol\":1236:1337  function getNonce(address from) public view returns (uint256) {\r... */\n    tag_4:\n      tag_11\n      0x04\n      dup1\n      calldatasize\n      sub\n      dup2\n      add\n      swap1\n      tag_12\n      swap2\n      swap1\n      tag_13\n      jump\t// in\n    tag_12:\n      tag_14\n      jump\t// in\n    tag_11:\n      mload(0x40)\n      tag_15\n      swap2\n      swap1\n      tag_16\n      jump\t// in\n    tag_15:\n      mload(0x40)\n      dup1\n      swap2\n      sub\n      swap1\n      return\n        /* \"contracts/Implementacion Tokens Ethereum/PlatziTokenForwarder.sol\":2349:3260  function executeFunction(MetaTx calldata metaTx, bytes calldata signature)\r... */\n    tag_8:\n        /* \"contracts/Implementacion Tokens Ethereum/PlatziTokenForwarder.sol\":2458:2462  bool */\n      0x00\n        /* \"contracts/Implementacion Tokens Ethereum/PlatziTokenForwarder.sol\":2624:2656  _verifyMetaTx(metaTx, signature) */\n      tag_18\n        /* \"contracts/Implementacion Tokens Ethereum/PlatziTokenForwarder.sol\":2638:2644  metaTx */\n      dup5\n        /* \"contracts/Implementacion Tokens Ethereum/PlatziTokenForwarder.sol\":2646:2655  signature */\n      dup5\n      dup5\n        /* \"contracts/Implementacion Tokens Ethereum/PlatziTokenForwarder.sol\":2624:2637  _verifyMetaTx */\n      tag_19\n        /* \"contracts/Implementacion Tokens Ethereum/PlatziTokenForwarder.sol\":2624:2656  _verifyMetaTx(metaTx, signature) */\n      jump\t// in\n    tag_18:\n        /* \"contracts/Implementacion Tokens Ethereum/PlatziTokenForwarder.sol\":2602:2723  require(\r... */\n      tag_20\n      jumpi\n      mload(0x40)\n      0x08c379a000000000000000000000000000000000000000000000000000000000\n      dup2\n      mstore\n      0x04\n      add\n      tag_21\n      swap1\n      tag_22\n      jump\t// in\n    tag_21:\n      mload(0x40)\n      dup1\n      swap2\n      sub\n      swap1\n      revert\n    tag_20:\n        /* \"contracts/Implementacion Tokens Ethereum/PlatziTokenForwarder.sol\":2849:2850  1 */\n      0x01\n        /* \"contracts/Implementacion Tokens Ethereum/PlatziTokenForwarder.sol\":2834:2840  metaTx */\n      dup5\n        /* \"contracts/Implementacion Tokens Ethereum/PlatziTokenForwarder.sol\":2834:2846  metaTx.nonce */\n      0x40\n      add\n      calldataload\n        /* \"contracts/Implementacion Tokens Ethereum/PlatziTokenForwarder.sol\":2834:2850  metaTx.nonce + 1 */\n      tag_23\n      swap2\n      swap1\n      tag_24\n      jump\t// in\n    tag_23:\n        /* \"contracts/Implementacion Tokens Ethereum/PlatziTokenForwarder.sol\":2811:2818  _nonces */\n      0x00\n        /* \"contracts/Implementacion Tokens Ethereum/PlatziTokenForwarder.sol\":2811:2831  _nonces[metaTx.from] */\n      dup1\n        /* \"contracts/Implementacion Tokens Ethereum/PlatziTokenForwarder.sol\":2819:2825  metaTx */\n      dup7\n        /* \"contracts/Implementacion Tokens Ethereum/PlatziTokenForwarder.sol\":2819:2830  metaTx.from */\n      0x00\n      add\n      0x20\n      dup2\n      add\n      swap1\n      tag_25\n      swap2\n      swap1\n      tag_13\n      jump\t// in\n    tag_25:\n        /* \"contracts/Implementacion Tokens Ethereum/PlatziTokenForwarder.sol\":2811:2831  _nonces[metaTx.from] */\n      0xffffffffffffffffffffffffffffffffffffffff\n      and\n      0xffffffffffffffffffffffffffffffffffffffff\n      and\n      dup2\n      mstore\n      0x20\n      add\n      swap1\n      dup2\n      mstore\n      0x20\n      add\n      0x00\n      keccak256\n        /* \"contracts/Implementacion Tokens Ethereum/PlatziTokenForwarder.sol\":2811:2850  _nonces[metaTx.from] = metaTx.nonce + 1 */\n      dup2\n      swap1\n      sstore\n      pop\n        /* \"contracts/Implementacion Tokens Ethereum/PlatziTokenForwarder.sol\":3125:3137  bool success */\n      0x00\n        /* \"contracts/Implementacion Tokens Ethereum/PlatziTokenForwarder.sol\":3143:3149  metaTx */\n      dup5\n        /* \"contracts/Implementacion Tokens Ethereum/PlatziTokenForwarder.sol\":3143:3152  metaTx.to */\n      0x20\n      add\n      0x20\n      dup2\n      add\n      swap1\n      tag_26\n      swap2\n      swap1\n      tag_13\n      jump\t// in\n    tag_26:\n        /* \"contracts/Implementacion Tokens Ethereum/PlatziTokenForwarder.sol\":3143:3157  metaTx.to.call */\n      0xffffffffffffffffffffffffffffffffffffffff\n      and\n        /* \"contracts/Implementacion Tokens Ethereum/PlatziTokenForwarder.sol\":3189:3195  metaTx */\n      dup6\n        /* \"contracts/Implementacion Tokens Ethereum/PlatziTokenForwarder.sol\":3189:3200  metaTx.data */\n      dup1\n      0x60\n      add\n      swap1\n      tag_27\n      swap2\n      swap1\n      tag_28\n      jump\t// in\n    tag_27:\n        /* \"contracts/Implementacion Tokens Ethereum/PlatziTokenForwarder.sol\":3202:3208  metaTx */\n      dup8\n        /* \"contracts/Implementacion Tokens Ethereum/PlatziTokenForwarder.sol\":3202:3213  metaTx.from */\n      0x00\n      add\n      0x20\n      dup2\n      add\n      swap1\n      tag_29\n      swap2\n      swap1\n      tag_13\n      jump\t// in\n    tag_29:\n        /* \"contracts/Implementacion Tokens Ethereum/PlatziTokenForwarder.sol\":3172:3214  abi.encodePacked(metaTx.data, metaTx.from) */\n      add(0x20, mload(0x40))\n      tag_30\n      swap4\n      swap3\n      swap2\n      swap1\n      tag_31\n      jump\t// in\n    tag_30:\n      mload(0x40)\n      0x20\n      dup2\n      dup4\n      sub\n      sub\n      dup2\n      mstore\n      swap1\n      0x40\n      mstore\n        /* \"contracts/Implementacion Tokens Ethereum/PlatziTokenForwarder.sol\":3143:3225  metaTx.to.call(\r... */\n      mload(0x40)\n      tag_32\n      swap2\n      swap1\n      tag_33\n      jump\t// in\n    tag_32:\n      0x00\n      mload(0x40)\n      dup1\n      dup4\n      sub\n      dup2\n      0x00\n      dup7\n      gas\n      call\n      swap2\n      pop\n      pop\n      returndatasize\n      dup1\n      0x00\n      dup2\n      eq\n      tag_36\n      jumpi\n      mload(0x40)\n      swap2\n      pop\n      and(add(returndatasize, 0x3f), not(0x1f))\n      dup3\n      add\n      0x40\n      mstore\n      returndatasize\n      dup3\n      mstore\n      returndatasize\n      0x00\n      0x20\n      dup5\n      add\n      returndatacopy\n      jump(tag_35)\n    tag_36:\n      0x60\n      swap2\n      pop\n    tag_35:\n      pop\n        /* \"contracts/Implementacion Tokens Ethereum/PlatziTokenForwarder.sol\":3124:3225  (bool success, ) = metaTx.to.call(\r... */\n      pop\n      swap1\n      pop\n        /* \"contracts/Implementacion Tokens Ethereum/PlatziTokenForwarder.sol\":3245:3252  success */\n      dup1\n        /* \"contracts/Implementacion Tokens Ethereum/PlatziTokenForwarder.sol\":3238:3252  return success */\n      swap2\n      pop\n      pop\n        /* \"contracts/Implementacion Tokens Ethereum/PlatziTokenForwarder.sol\":2349:3260  function executeFunction(MetaTx calldata metaTx, bytes calldata signature)\r... */\n      swap4\n      swap3\n      pop\n      pop\n      pop\n      jump\t// out\n        /* \"contracts/Implementacion Tokens Ethereum/PlatziTokenForwarder.sol\":1236:1337  function getNonce(address from) public view returns (uint256) {\r... */\n    tag_14:\n        /* \"contracts/Implementacion Tokens Ethereum/PlatziTokenForwarder.sol\":1289:1296  uint256 */\n      0x00\n        /* \"contracts/Implementacion Tokens Ethereum/PlatziTokenForwarder.sol\":1316:1323  _nonces */\n      dup1\n        /* \"contracts/Implementacion Tokens Ethereum/PlatziTokenForwarder.sol\":1316:1329  _nonces[from] */\n      0x00\n        /* \"contracts/Implementacion Tokens Ethereum/PlatziTokenForwarder.sol\":1324:1328  from */\n      dup4\n        /* \"contracts/Implementacion Tokens Ethereum/PlatziTokenForwarder.sol\":1316:1329  _nonces[from] */\n      0xffffffffffffffffffffffffffffffffffffffff\n      and\n      0xffffffffffffffffffffffffffffffffffffffff\n      and\n      dup2\n      mstore\n      0x20\n      add\n      swap1\n      dup2\n      mstore\n      0x20\n      add\n      0x00\n      keccak256\n      sload\n        /* \"contracts/Implementacion Tokens Ethereum/PlatziTokenForwarder.sol\":1309:1329  return _nonces[from] */\n      swap1\n      pop\n        /* \"contracts/Implementacion Tokens Ethereum/PlatziTokenForwarder.sol\":1236:1337  function getNonce(address from) public view returns (uint256) {\r... */\n      swap2\n      swap1\n      pop\n      jump\t// out\n        /* \"contracts/Implementacion Tokens Ethereum/PlatziTokenForwarder.sol\":1460:2283  function _verifyMetaTx(MetaTx calldata metaTx, bytes calldata signature)\r... */\n    tag_19:\n        /* \"contracts/Implementacion Tokens Ethereum/PlatziTokenForwarder.sol\":1582:1586  bool */\n      0x00\n        /* \"contracts/Implementacion Tokens Ethereum/PlatziTokenForwarder.sol\":1604:1618  bytes32 digest */\n      dup1\n        /* \"contracts/Implementacion Tokens Ethereum/PlatziTokenForwarder.sol\":1621:1954  _hashTypedDataV4(\r... */\n      tag_39\n        /* \"contracts/Implementacion Tokens Ethereum/PlatziTokenForwarder.sol\":782:855  keccak256 (\"MetaTx(address from, address to, uint256 nonce, bytes data)\") */\n      0x36681a028591c327276b03aa08c79763f63827d2c649f30020177cb742928c2d\n        /* \"contracts/Implementacion Tokens Ethereum/PlatziTokenForwarder.sol\":1770:1776  metaTx */\n      dup7\n        /* \"contracts/Implementacion Tokens Ethereum/PlatziTokenForwarder.sol\":1770:1781  metaTx.from */\n      0x00\n      add\n      0x20\n      dup2\n      add\n      swap1\n      tag_40\n      swap2\n      swap1\n      tag_13\n      jump\t// in\n    tag_40:\n        /* \"contracts/Implementacion Tokens Ethereum/PlatziTokenForwarder.sol\":1808:1814  metaTx */\n      dup8\n        /* \"contracts/Implementacion Tokens Ethereum/PlatziTokenForwarder.sol\":1808:1817  metaTx.to */\n      0x20\n      add\n      0x20\n      dup2\n      add\n      swap1\n      tag_41\n      swap2\n      swap1\n      tag_13\n      jump\t// in\n    tag_41:\n        /* \"contracts/Implementacion Tokens Ethereum/PlatziTokenForwarder.sol\":1844:1850  metaTx */\n      dup9\n        /* \"contracts/Implementacion Tokens Ethereum/PlatziTokenForwarder.sol\":1844:1856  metaTx.nonce */\n      0x40\n      add\n      calldataload\n        /* \"contracts/Implementacion Tokens Ethereum/PlatziTokenForwarder.sol\":1893:1899  metaTx */\n      dup10\n        /* \"contracts/Implementacion Tokens Ethereum/PlatziTokenForwarder.sol\":1893:1904  metaTx.data */\n      dup1\n      0x60\n      add\n      swap1\n      tag_42\n      swap2\n      swap1\n      tag_28\n      jump\t// in\n    tag_42:\n        /* \"contracts/Implementacion Tokens Ethereum/PlatziTokenForwarder.sol\":1883:1905  keccak256(metaTx.data) */\n      mload(0x40)\n      tag_43\n      swap3\n      swap2\n      swap1\n      tag_44\n      jump\t// in\n    tag_43:\n      mload(0x40)\n      dup1\n      swap2\n      sub\n      swap1\n      keccak256\n        /* \"contracts/Implementacion Tokens Ethereum/PlatziTokenForwarder.sol\":1684:1928  abi.encode(\r... */\n      add(0x20, mload(0x40))\n      tag_45\n      swap6\n      swap5\n      swap4\n      swap3\n      swap2\n      swap1\n      tag_46\n      jump\t// in\n    tag_45:\n      mload(0x40)\n      0x20\n      dup2\n      dup4\n      sub\n      sub\n      dup2\n      mstore\n      swap1\n      0x40\n      mstore\n        /* \"contracts/Implementacion Tokens Ethereum/PlatziTokenForwarder.sol\":1652:1943  keccak256(\r... */\n      dup1\n      mload\n      swap1\n      0x20\n      add\n      keccak256\n        /* \"contracts/Implementacion Tokens Ethereum/PlatziTokenForwarder.sol\":1621:1637  _hashTypedDataV4 */\n      tag_47\n        /* \"contracts/Implementacion Tokens Ethereum/PlatziTokenForwarder.sol\":1621:1954  _hashTypedDataV4(\r... */\n      jump\t// in\n    tag_39:\n        /* \"contracts/Implementacion Tokens Ethereum/PlatziTokenForwarder.sol\":1604:1954  bytes32 digest = _hashTypedDataV4(\r... */\n      swap1\n      pop\n        /* \"contracts/Implementacion Tokens Ethereum/PlatziTokenForwarder.sol\":2047:2067  address metaTxSigner */\n      0x00\n        /* \"contracts/Implementacion Tokens Ethereum/PlatziTokenForwarder.sol\":2070:2102  ECDSA.recover(digest, signature) */\n      tag_48\n        /* \"contracts/Implementacion Tokens Ethereum/PlatziTokenForwarder.sol\":2084:2090  digest */\n      dup3\n        /* \"contracts/Implementacion Tokens Ethereum/PlatziTokenForwarder.sol\":2092:2101  signature */\n      dup7\n      dup7\n        /* \"contracts/Implementacion Tokens Ethereum/PlatziTokenForwarder.sol\":2070:2102  ECDSA.recover(digest, signature) */\n      dup1\n      dup1\n      0x1f\n      add\n      0x20\n      dup1\n      swap2\n      div\n      mul\n      0x20\n      add\n      mload(0x40)\n      swap1\n      dup2\n      add\n      0x40\n      mstore\n      dup1\n      swap4\n      swap3\n      swap2\n      swap1\n      dup2\n      dup2\n      mstore\n      0x20\n      add\n      dup4\n      dup4\n      dup1\n      dup3\n      dup5\n      calldatacopy\n      0x00\n      dup2\n      dup5\n      add\n      mstore\n      not(0x1f)\n      0x1f\n      dup3\n      add\n      and\n      swap1\n      pop\n      dup1\n      dup4\n      add\n      swap3\n      pop\n      pop\n      pop\n      pop\n      pop\n      pop\n      pop\n        /* \"contracts/Implementacion Tokens Ethereum/PlatziTokenForwarder.sol\":2070:2083  ECDSA.recover */\n      tag_49\n        /* \"contracts/Implementacion Tokens Ethereum/PlatziTokenForwarder.sol\":2070:2102  ECDSA.recover(digest, signature) */\n      jump\t// in\n    tag_48:\n        /* \"contracts/Implementacion Tokens Ethereum/PlatziTokenForwarder.sol\":2047:2102  address metaTxSigner = ECDSA.recover(digest, signature) */\n      swap1\n      pop\n        /* \"contracts/Implementacion Tokens Ethereum/PlatziTokenForwarder.sol\":2264:2270  metaTx */\n      dup6\n        /* \"contracts/Implementacion Tokens Ethereum/PlatziTokenForwarder.sol\":2264:2275  metaTx.from */\n      0x00\n      add\n      0x20\n      dup2\n      add\n      swap1\n      tag_50\n      swap2\n      swap1\n      tag_13\n      jump\t// in\n    tag_50:\n        /* \"contracts/Implementacion Tokens Ethereum/PlatziTokenForwarder.sol\":2248:2275  metaTxSigner == metaTx.from */\n      0xffffffffffffffffffffffffffffffffffffffff\n      and\n        /* \"contracts/Implementacion Tokens Ethereum/PlatziTokenForwarder.sol\":2248:2260  metaTxSigner */\n      dup2\n        /* \"contracts/Implementacion Tokens Ethereum/PlatziTokenForwarder.sol\":2248:2275  metaTxSigner == metaTx.from */\n      0xffffffffffffffffffffffffffffffffffffffff\n      and\n      eq\n        /* \"contracts/Implementacion Tokens Ethereum/PlatziTokenForwarder.sol\":2241:2275  return metaTxSigner == metaTx.from */\n      swap3\n      pop\n      pop\n      pop\n        /* \"contracts/Implementacion Tokens Ethereum/PlatziTokenForwarder.sol\":1460:2283  function _verifyMetaTx(MetaTx calldata metaTx, bytes calldata signature)\r... */\n      swap4\n      swap3\n      pop\n      pop\n      pop\n      jump\t// out\n        /* \"@openzeppelin/contracts/utils/cryptography/EIP712.sol\":4348:4513  function _hashTypedDataV4(bytes32 structHash) internal view virtual returns (bytes32) {... */\n    tag_47:\n        /* \"@openzeppelin/contracts/utils/cryptography/EIP712.sol\":4425:4432  bytes32 */\n      0x00\n        /* \"@openzeppelin/contracts/utils/cryptography/EIP712.sol\":4451:4506  ECDSA.toTypedDataHash(_domainSeparatorV4(), structHash) */\n      tag_52\n        /* \"@openzeppelin/contracts/utils/cryptography/EIP712.sol\":4473:4493  _domainSeparatorV4() */\n      tag_53\n        /* \"@openzeppelin/contracts/utils/cryptography/EIP712.sol\":4473:4491  _domainSeparatorV4 */\n      tag_54\n        /* \"@openzeppelin/contracts/utils/cryptography/EIP712.sol\":4473:4493  _domainSeparatorV4() */\n      jump\t// in\n    tag_53:\n        /* \"@openzeppelin/contracts/utils/cryptography/EIP712.sol\":4495:4505  structHash */\n      dup4\n        /* \"@openzeppelin/contracts/utils/cryptography/EIP712.sol\":4451:4472  ECDSA.toTypedDataHash */\n      tag_55\n        /* \"@openzeppelin/contracts/utils/cryptography/EIP712.sol\":4451:4506  ECDSA.toTypedDataHash(_domainSeparatorV4(), structHash) */\n      jump\t// in\n    tag_52:\n        /* \"@openzeppelin/contracts/utils/cryptography/EIP712.sol\":4444:4506  return ECDSA.toTypedDataHash(_domainSeparatorV4(), structHash) */\n      swap1\n      pop\n        /* \"@openzeppelin/contracts/utils/cryptography/EIP712.sol\":4348:4513  function _hashTypedDataV4(bytes32 structHash) internal view virtual returns (bytes32) {... */\n      swap2\n      swap1\n      pop\n      jump\t// out\n        /* \"@openzeppelin/contracts/utils/cryptography/ECDSA.sol\":3661:3888  function recover(bytes32 hash, bytes memory signature) internal pure returns (address) {... */\n    tag_49:\n        /* \"@openzeppelin/contracts/utils/cryptography/ECDSA.sol\":3739:3746  address */\n      0x00\n        /* \"@openzeppelin/contracts/utils/cryptography/ECDSA.sol\":3759:3776  address recovered */\n      dup1\n        /* \"@openzeppelin/contracts/utils/cryptography/ECDSA.sol\":3778:3796  RecoverError error */\n      0x00\n        /* \"@openzeppelin/contracts/utils/cryptography/ECDSA.sol\":3800:3827  tryRecover(hash, signature) */\n      tag_57\n        /* \"@openzeppelin/contracts/utils/cryptography/ECDSA.sol\":3811:3815  hash */\n      dup6\n        /* \"@openzeppelin/contracts/utils/cryptography/ECDSA.sol\":3817:3826  signature */\n      dup6\n        /* \"@openzeppelin/contracts/utils/cryptography/ECDSA.sol\":3800:3810  tryRecover */\n      tag_58\n        /* \"@openzeppelin/contracts/utils/cryptography/ECDSA.sol\":3800:3827  tryRecover(hash, signature) */\n      jump\t// in\n    tag_57:\n        /* \"@openzeppelin/contracts/utils/cryptography/ECDSA.sol\":3758:3827  (address recovered, RecoverError error) = tryRecover(hash, signature) */\n      swap2\n      pop\n      swap2\n      pop\n        /* \"@openzeppelin/contracts/utils/cryptography/ECDSA.sol\":3837:3855  _throwError(error) */\n      tag_59\n        /* \"@openzeppelin/contracts/utils/cryptography/ECDSA.sol\":3849:3854  error */\n      dup2\n        /* \"@openzeppelin/contracts/utils/cryptography/ECDSA.sol\":3837:3848  _throwError */\n      tag_60\n        /* \"@openzeppelin/contracts/utils/cryptography/ECDSA.sol\":3837:3855  _throwError(error) */\n      jump\t// in\n    tag_59:\n        /* \"@openzeppelin/contracts/utils/cryptography/ECDSA.sol\":3872:3881  recovered */\n      dup2\n        /* \"@openzeppelin/contracts/utils/cryptography/ECDSA.sol\":3865:3881  return recovered */\n      swap3\n      pop\n      pop\n      pop\n        /* \"@openzeppelin/contracts/utils/cryptography/ECDSA.sol\":3661:3888  function recover(bytes32 hash, bytes memory signature) internal pure returns (address) {... */\n      swap3\n      swap2\n      pop\n      pop\n      jump\t// out\n        /* \"@openzeppelin/contracts/utils/cryptography/EIP712.sol\":3152:3460  function _domainSeparatorV4() internal view returns (bytes32) {... */\n    tag_54:\n        /* \"@openzeppelin/contracts/utils/cryptography/EIP712.sol\":3205:3212  bytes32 */\n      0x00\n        /* \"@openzeppelin/contracts/utils/cryptography/EIP712.sol\":3245:3257  _CACHED_THIS */\n      immutable(\"0xd255d1e2fbaebdc7ec40fedaea7c9b95572f4cd4f117fe0d25807a70ab43d03d\")\n        /* \"@openzeppelin/contracts/utils/cryptography/EIP712.sol\":3228:3257  address(this) == _CACHED_THIS */\n      0xffffffffffffffffffffffffffffffffffffffff\n      and\n        /* \"@openzeppelin/contracts/utils/cryptography/EIP712.sol\":3236:3240  this */\n      address\n        /* \"@openzeppelin/contracts/utils/cryptography/EIP712.sol\":3228:3257  address(this) == _CACHED_THIS */\n      0xffffffffffffffffffffffffffffffffffffffff\n      and\n      eq\n        /* \"@openzeppelin/contracts/utils/cryptography/EIP712.sol\":3228:3294  address(this) == _CACHED_THIS && block.chainid == _CACHED_CHAIN_ID */\n      dup1\n      iszero\n      tag_62\n      jumpi\n      pop\n        /* \"@openzeppelin/contracts/utils/cryptography/EIP712.sol\":3278:3294  _CACHED_CHAIN_ID */\n      immutable(\"0x50fd9bdcde6b34c0ec3f59642a2fdd0aa19d3c4402950929a5840857c06086a0\")\n        /* \"@openzeppelin/contracts/utils/cryptography/EIP712.sol\":3261:3274  block.chainid */\n      chainid\n        /* \"@openzeppelin/contracts/utils/cryptography/EIP712.sol\":3261:3294  block.chainid == _CACHED_CHAIN_ID */\n      eq\n        /* \"@openzeppelin/contracts/utils/cryptography/EIP712.sol\":3228:3294  address(this) == _CACHED_THIS && block.chainid == _CACHED_CHAIN_ID */\n    tag_62:\n        /* \"@openzeppelin/contracts/utils/cryptography/EIP712.sol\":3224:3454  if (address(this) == _CACHED_THIS && block.chainid == _CACHED_CHAIN_ID) {... */\n      iszero\n      tag_63\n      jumpi\n        /* \"@openzeppelin/contracts/utils/cryptography/EIP712.sol\":3317:3341  _CACHED_DOMAIN_SEPARATOR */\n      immutable(\"0x71c24ce59180130dc1b5c3ebcbddeb1cf32dae46f5ec55f50a3074f581ef8c07\")\n        /* \"@openzeppelin/contracts/utils/cryptography/EIP712.sol\":3310:3341  return _CACHED_DOMAIN_SEPARATOR */\n      swap1\n      pop\n      jump(tag_61)\n        /* \"@openzeppelin/contracts/utils/cryptography/EIP712.sol\":3224:3454  if (address(this) == _CACHED_THIS && block.chainid == _CACHED_CHAIN_ID) {... */\n    tag_63:\n        /* \"@openzeppelin/contracts/utils/cryptography/EIP712.sol\":3379:3443  _buildDomainSeparator(_TYPE_HASH, _HASHED_NAME, _HASHED_VERSION) */\n      tag_65\n        /* \"@openzeppelin/contracts/utils/cryptography/EIP712.sol\":3401:3411  _TYPE_HASH */\n      immutable(\"0xd54003e33f3f1d6656a9f4f81a3c7bd75145164696340a041aed5636bd167569\")\n        /* \"@openzeppelin/contracts/utils/cryptography/EIP712.sol\":3413:3425  _HASHED_NAME */\n      immutable(\"0xe07291691b14f575b5cfdac2c09a610941d76185383eed85c94ea499aff65392\")\n        /* \"@openzeppelin/contracts/utils/cryptography/EIP712.sol\":3427:3442  _HASHED_VERSION */\n      immutable(\"0xadd35db6d9cbb4a93083ce00f6da825d590d67feeb3a24ddce512c81a6f977f2\")\n        /* \"@openzeppelin/contracts/utils/cryptography/EIP712.sol\":3379:3400  _buildDomainSeparator */\n      tag_66\n        /* \"@openzeppelin/contracts/utils/cryptography/EIP712.sol\":3379:3443  _buildDomainSeparator(_TYPE_HASH, _HASHED_NAME, _HASHED_VERSION) */\n      jump\t// in\n    tag_65:\n        /* \"@openzeppelin/contracts/utils/cryptography/EIP712.sol\":3372:3443  return _buildDomainSeparator(_TYPE_HASH, _HASHED_NAME, _HASHED_VERSION) */\n      swap1\n      pop\n        /* \"@openzeppelin/contracts/utils/cryptography/EIP712.sol\":3152:3460  function _domainSeparatorV4() internal view returns (bytes32) {... */\n    tag_61:\n      swap1\n      jump\t// out\n        /* \"@openzeppelin/contracts/utils/cryptography/ECDSA.sol\":8341:8535  function toTypedDataHash(bytes32 domainSeparator, bytes32 structHash) internal pure returns (bytes32) {... */\n    tag_55:\n        /* \"@openzeppelin/contracts/utils/cryptography/ECDSA.sol\":8434:8441  bytes32 */\n      0x00\n        /* \"@openzeppelin/contracts/utils/cryptography/ECDSA.sol\":8499:8514  domainSeparator */\n      dup3\n        /* \"@openzeppelin/contracts/utils/cryptography/ECDSA.sol\":8516:8526  structHash */\n      dup3\n        /* \"@openzeppelin/contracts/utils/cryptography/ECDSA.sol\":8470:8527  abi.encodePacked(\"\\x19\\x01\", domainSeparator, structHash) */\n      add(0x20, mload(0x40))\n      tag_68\n      swap3\n      swap2\n      swap1\n      tag_69\n      jump\t// in\n    tag_68:\n      mload(0x40)\n      0x20\n      dup2\n      dup4\n      sub\n      sub\n      dup2\n      mstore\n      swap1\n      0x40\n      mstore\n        /* \"@openzeppelin/contracts/utils/cryptography/ECDSA.sol\":8460:8528  keccak256(abi.encodePacked(\"\\x19\\x01\", domainSeparator, structHash)) */\n      dup1\n      mload\n      swap1\n      0x20\n      add\n      keccak256\n        /* \"@openzeppelin/contracts/utils/cryptography/ECDSA.sol\":8453:8528  return keccak256(abi.encodePacked(\"\\x19\\x01\", domainSeparator, structHash)) */\n      swap1\n      pop\n        /* \"@openzeppelin/contracts/utils/cryptography/ECDSA.sol\":8341:8535  function toTypedDataHash(bytes32 domainSeparator, bytes32 structHash) internal pure returns (bytes32) {... */\n      swap3\n      swap2\n      pop\n      pop\n      jump\t// out\n        /* \"@openzeppelin/contracts/utils/cryptography/ECDSA.sol\":2145:2875  function tryRecover(bytes32 hash, bytes memory signature) internal pure returns (address, RecoverError) {... */\n    tag_58:\n        /* \"@openzeppelin/contracts/utils/cryptography/ECDSA.sol\":2226:2233  address */\n      0x00\n        /* \"@openzeppelin/contracts/utils/cryptography/ECDSA.sol\":2235:2247  RecoverError */\n      dup1\n        /* \"@openzeppelin/contracts/utils/cryptography/ECDSA.sol\":2283:2285  65 */\n      0x41\n        /* \"@openzeppelin/contracts/utils/cryptography/ECDSA.sol\":2263:2272  signature */\n      dup4\n        /* \"@openzeppelin/contracts/utils/cryptography/ECDSA.sol\":2263:2279  signature.length */\n      mload\n        /* \"@openzeppelin/contracts/utils/cryptography/ECDSA.sol\":2263:2285  signature.length == 65 */\n      eq\n        /* \"@openzeppelin/contracts/utils/cryptography/ECDSA.sol\":2259:2869  if (signature.length == 65) {... */\n      iszero\n      tag_71\n      jumpi\n        /* \"@openzeppelin/contracts/utils/cryptography/ECDSA.sol\":2301:2310  bytes32 r */\n      0x00\n        /* \"@openzeppelin/contracts/utils/cryptography/ECDSA.sol\":2324:2333  bytes32 s */\n      dup1\n        /* \"@openzeppelin/contracts/utils/cryptography/ECDSA.sol\":2347:2354  uint8 v */\n      0x00\n        /* \"@openzeppelin/contracts/utils/cryptography/ECDSA.sol\":2599:2603  0x20 */\n      0x20\n        /* \"@openzeppelin/contracts/utils/cryptography/ECDSA.sol\":2588:2597  signature */\n      dup7\n        /* \"@openzeppelin/contracts/utils/cryptography/ECDSA.sol\":2584:2604  add(signature, 0x20) */\n      add\n        /* \"@openzeppelin/contracts/utils/cryptography/ECDSA.sol\":2578:2605  mload(add(signature, 0x20)) */\n      mload\n        /* \"@openzeppelin/contracts/utils/cryptography/ECDSA.sol\":2573:2605  r := mload(add(signature, 0x20)) */\n      swap3\n      pop\n        /* \"@openzeppelin/contracts/utils/cryptography/ECDSA.sol\":2648:2652  0x40 */\n      0x40\n        /* \"@openzeppelin/contracts/utils/cryptography/ECDSA.sol\":2637:2646  signature */\n      dup7\n        /* \"@openzeppelin/contracts/utils/cryptography/ECDSA.sol\":2633:2653  add(signature, 0x40) */\n      add\n        /* \"@openzeppelin/contracts/utils/cryptography/ECDSA.sol\":2627:2654  mload(add(signature, 0x40)) */\n      mload\n        /* \"@openzeppelin/contracts/utils/cryptography/ECDSA.sol\":2622:2654  s := mload(add(signature, 0x40)) */\n      swap2\n      pop\n        /* \"@openzeppelin/contracts/utils/cryptography/ECDSA.sol\":2705:2709  0x60 */\n      0x60\n        /* \"@openzeppelin/contracts/utils/cryptography/ECDSA.sol\":2694:2703  signature */\n      dup7\n        /* \"@openzeppelin/contracts/utils/cryptography/ECDSA.sol\":2690:2710  add(signature, 0x60) */\n      add\n        /* \"@openzeppelin/contracts/utils/cryptography/ECDSA.sol\":2684:2711  mload(add(signature, 0x60)) */\n      mload\n        /* \"@openzeppelin/contracts/utils/cryptography/ECDSA.sol\":2681:2682  0 */\n      0x00\n        /* \"@openzeppelin/contracts/utils/cryptography/ECDSA.sol\":2676:2712  byte(0, mload(add(signature, 0x60))) */\n      byte\n        /* \"@openzeppelin/contracts/utils/cryptography/ECDSA.sol\":2671:2712  v := byte(0, mload(add(signature, 0x60))) */\n      swap1\n      pop\n        /* \"@openzeppelin/contracts/utils/cryptography/ECDSA.sol\":2746:2771  tryRecover(hash, v, r, s) */\n      tag_72\n        /* \"@openzeppelin/contracts/utils/cryptography/ECDSA.sol\":2757:2761  hash */\n      dup8\n        /* \"@openzeppelin/contracts/utils/cryptography/ECDSA.sol\":2763:2764  v */\n      dup3\n        /* \"@openzeppelin/contracts/utils/cryptography/ECDSA.sol\":2766:2767  r */\n      dup6\n        /* \"@openzeppelin/contracts/utils/cryptography/ECDSA.sol\":2769:2770  s */\n      dup6\n        /* \"@openzeppelin/contracts/utils/cryptography/ECDSA.sol\":2746:2756  tryRecover */\n      tag_73\n        /* \"@openzeppelin/contracts/utils/cryptography/ECDSA.sol\":2746:2771  tryRecover(hash, v, r, s) */\n      jump\t// in\n    tag_72:\n        /* \"@openzeppelin/contracts/utils/cryptography/ECDSA.sol\":2739:2771  return tryRecover(hash, v, r, s) */\n      swap5\n      pop\n      swap5\n      pop\n      pop\n      pop\n      pop\n      jump(tag_70)\n        /* \"@openzeppelin/contracts/utils/cryptography/ECDSA.sol\":2259:2869  if (signature.length == 65) {... */\n    tag_71:\n        /* \"@openzeppelin/contracts/utils/cryptography/ECDSA.sol\":2818:2819  0 */\n      0x00\n        /* \"@openzeppelin/contracts/utils/cryptography/ECDSA.sol\":2822:2857  RecoverError.InvalidSignatureLength */\n      0x02\n        /* \"@openzeppelin/contracts/utils/cryptography/ECDSA.sol\":2802:2858  return (address(0), RecoverError.InvalidSignatureLength) */\n      swap2\n      pop\n      swap2\n      pop\n        /* \"@openzeppelin/contracts/utils/cryptography/ECDSA.sol\":2145:2875  function tryRecover(bytes32 hash, bytes memory signature) internal pure returns (address, RecoverError) {... */\n    tag_70:\n      swap3\n      pop\n      swap3\n      swap1\n      pop\n      jump\t// out\n        /* \"@openzeppelin/contracts/utils/cryptography/ECDSA.sol\":570:1081  function _throwError(RecoverError error) private pure {... */\n    tag_60:\n        /* \"@openzeppelin/contracts/utils/cryptography/ECDSA.sol\":647:667  RecoverError.NoError */\n      0x00\n        /* \"@openzeppelin/contracts/utils/cryptography/ECDSA.sol\":638:667  error == RecoverError.NoError */\n      0x04\n      dup2\n      gt\n      iszero\n      tag_76\n      jumpi\n      tag_77\n      tag_78\n      jump\t// in\n    tag_77:\n    tag_76:\n        /* \"@openzeppelin/contracts/utils/cryptography/ECDSA.sol\":638:643  error */\n      dup2\n        /* \"@openzeppelin/contracts/utils/cryptography/ECDSA.sol\":638:667  error == RecoverError.NoError */\n      0x04\n      dup2\n      gt\n      iszero\n      tag_79\n      jumpi\n      tag_80\n      tag_78\n      jump\t// in\n    tag_80:\n    tag_79:\n      eq\n        /* \"@openzeppelin/contracts/utils/cryptography/ECDSA.sol\":634:1075  if (error == RecoverError.NoError) {... */\n      iszero\n      tag_81\n      jumpi\n        /* \"@openzeppelin/contracts/utils/cryptography/ECDSA.sol\":683:690  return; */\n      jump(tag_75)\n        /* \"@openzeppelin/contracts/utils/cryptography/ECDSA.sol\":634:1075  if (error == RecoverError.NoError) {... */\n    tag_81:\n        /* \"@openzeppelin/contracts/utils/cryptography/ECDSA.sol\":743:772  RecoverError.InvalidSignature */\n      0x01\n        /* \"@openzeppelin/contracts/utils/cryptography/ECDSA.sol\":734:772  error == RecoverError.InvalidSignature */\n      0x04\n      dup2\n      gt\n      iszero\n      tag_83\n      jumpi\n      tag_84\n      tag_78\n      jump\t// in\n    tag_84:\n    tag_83:\n        /* \"@openzeppelin/contracts/utils/cryptography/ECDSA.sol\":734:739  error */\n      dup2\n        /* \"@openzeppelin/contracts/utils/cryptography/ECDSA.sol\":734:772  error == RecoverError.InvalidSignature */\n      0x04\n      dup2\n      gt\n      iszero\n      tag_85\n      jumpi\n      tag_86\n      tag_78\n      jump\t// in\n    tag_86:\n    tag_85:\n      eq\n        /* \"@openzeppelin/contracts/utils/cryptography/ECDSA.sol\":730:1075  if (error == RecoverError.InvalidSignature) {... */\n      iszero\n      tag_87\n      jumpi\n        /* \"@openzeppelin/contracts/utils/cryptography/ECDSA.sol\":788:822  revert(\"ECDSA: invalid signature\") */\n      mload(0x40)\n      0x08c379a000000000000000000000000000000000000000000000000000000000\n      dup2\n      mstore\n      0x04\n      add\n      tag_88\n      swap1\n      tag_89\n      jump\t// in\n    tag_88:\n      mload(0x40)\n      dup1\n      swap2\n      sub\n      swap1\n      revert\n        /* \"@openzeppelin/contracts/utils/cryptography/ECDSA.sol\":730:1075  if (error == RecoverError.InvalidSignature) {... */\n    tag_87:\n        /* \"@openzeppelin/contracts/utils/cryptography/ECDSA.sol\":852:887  RecoverError.InvalidSignatureLength */\n      0x02\n        /* \"@openzeppelin/contracts/utils/cryptography/ECDSA.sol\":843:887  error == RecoverError.InvalidSignatureLength */\n      0x04\n      dup2\n      gt\n      iszero\n      tag_91\n      jumpi\n      tag_92\n      tag_78\n      jump\t// in\n    tag_92:\n    tag_91:\n        /* \"@openzeppelin/contracts/utils/cryptography/ECDSA.sol\":843:848  error */\n      dup2\n        /* \"@openzeppelin/contracts/utils/cryptography/ECDSA.sol\":843:887  error == RecoverError.InvalidSignatureLength */\n      0x04\n      dup2\n      gt\n      iszero\n      tag_93\n      jumpi\n      tag_94\n      tag_78\n      jump\t// in\n    tag_94:\n    tag_93:\n      eq\n        /* \"@openzeppelin/contracts/utils/cryptography/ECDSA.sol\":839:1075  if (error == RecoverError.InvalidSignatureLength) {... */\n      iszero\n      tag_95\n      jumpi\n        /* \"@openzeppelin/contracts/utils/cryptography/ECDSA.sol\":903:944  revert(\"ECDSA: invalid signature length\") */\n      mload(0x40)\n      0x08c379a000000000000000000000000000000000000000000000000000000000\n      dup2\n      mstore\n      0x04\n      add\n      tag_96\n      swap1\n      tag_97\n      jump\t// in\n    tag_96:\n      mload(0x40)\n      dup1\n      swap2\n      sub\n      swap1\n      revert\n        /* \"@openzeppelin/contracts/utils/cryptography/ECDSA.sol\":839:1075  if (error == RecoverError.InvalidSignatureLength) {... */\n    tag_95:\n        /* \"@openzeppelin/contracts/utils/cryptography/ECDSA.sol\":974:1004  RecoverError.InvalidSignatureS */\n      0x03\n        /* \"@openzeppelin/contracts/utils/cryptography/ECDSA.sol\":965:1004  error == RecoverError.InvalidSignatureS */\n      0x04\n      dup2\n      gt\n      iszero\n      tag_99\n      jumpi\n      tag_100\n      tag_78\n      jump\t// in\n    tag_100:\n    tag_99:\n        /* \"@openzeppelin/contracts/utils/cryptography/ECDSA.sol\":965:970  error */\n      dup2\n        /* \"@openzeppelin/contracts/utils/cryptography/ECDSA.sol\":965:1004  error == RecoverError.InvalidSignatureS */\n      0x04\n      dup2\n      gt\n      iszero\n      tag_101\n      jumpi\n      tag_102\n      tag_78\n      jump\t// in\n    tag_102:\n    tag_101:\n      eq\n        /* \"@openzeppelin/contracts/utils/cryptography/ECDSA.sol\":961:1075  if (error == RecoverError.InvalidSignatureS) {... */\n      iszero\n      tag_103\n      jumpi\n        /* \"@openzeppelin/contracts/utils/cryptography/ECDSA.sol\":1020:1064  revert(\"ECDSA: invalid signature 's' value\") */\n      mload(0x40)\n      0x08c379a000000000000000000000000000000000000000000000000000000000\n      dup2\n      mstore\n      0x04\n      add\n      tag_104\n      swap1\n      tag_105\n      jump\t// in\n    tag_104:\n      mload(0x40)\n      dup1\n      swap2\n      sub\n      swap1\n      revert\n        /* \"@openzeppelin/contracts/utils/cryptography/ECDSA.sol\":961:1075  if (error == RecoverError.InvalidSignatureS) {... */\n    tag_103:\n        /* \"@openzeppelin/contracts/utils/cryptography/ECDSA.sol\":570:1081  function _throwError(RecoverError error) private pure {... */\n    tag_75:\n      pop\n      jump\t// out\n        /* \"@openzeppelin/contracts/utils/cryptography/EIP712.sol\":3466:3723  function _buildDomainSeparator(... */\n    tag_66:\n        /* \"@openzeppelin/contracts/utils/cryptography/EIP712.sol\":3606:3613  bytes32 */\n      0x00\n        /* \"@openzeppelin/contracts/utils/cryptography/EIP712.sol\":3653:3661  typeHash */\n      dup4\n        /* \"@openzeppelin/contracts/utils/cryptography/EIP712.sol\":3663:3671  nameHash */\n      dup4\n        /* \"@openzeppelin/contracts/utils/cryptography/EIP712.sol\":3673:3684  versionHash */\n      dup4\n        /* \"@openzeppelin/contracts/utils/cryptography/EIP712.sol\":3686:3699  block.chainid */\n      chainid\n        /* \"@openzeppelin/contracts/utils/cryptography/EIP712.sol\":3709:3713  this */\n      address\n        /* \"@openzeppelin/contracts/utils/cryptography/EIP712.sol\":3642:3715  abi.encode(typeHash, nameHash, versionHash, block.chainid, address(this)) */\n      add(0x20, mload(0x40))\n      tag_107\n      swap6\n      swap5\n      swap4\n      swap3\n      swap2\n      swap1\n      tag_108\n      jump\t// in\n    tag_107:\n      mload(0x40)\n      0x20\n      dup2\n      dup4\n      sub\n      sub\n      dup2\n      mstore\n      swap1\n      0x40\n      mstore\n        /* \"@openzeppelin/contracts/utils/cryptography/EIP712.sol\":3632:3716  keccak256(abi.encode(typeHash, nameHash, versionHash, block.chainid, address(this))) */\n      dup1\n      mload\n      swap1\n      0x20\n      add\n      keccak256\n        /* \"@openzeppelin/contracts/utils/cryptography/EIP712.sol\":3625:3716  return keccak256(abi.encode(typeHash, nameHash, versionHash, block.chainid, address(this))) */\n      swap1\n      pop\n        /* \"@openzeppelin/contracts/utils/cryptography/EIP712.sol\":3466:3723  function _buildDomainSeparator(... */\n      swap4\n      swap3\n      pop\n      pop\n      pop\n      jump\t// out\n        /* \"@openzeppelin/contracts/utils/cryptography/ECDSA.sol\":5069:6563  function tryRecover(... */\n    tag_73:\n        /* \"@openzeppelin/contracts/utils/cryptography/ECDSA.sol\":5195:5202  address */\n      0x00\n        /* \"@openzeppelin/contracts/utils/cryptography/ECDSA.sol\":5204:5216  RecoverError */\n      dup1\n        /* \"@openzeppelin/contracts/utils/cryptography/ECDSA.sol\":6119:6185  0x7FFFFFFFFFFFFFFFFFFFFFFFFFFFFFFF5D576E7357A4501DDFE92F46681B20A0 */\n      0x7fffffffffffffffffffffffffffffff5d576e7357a4501ddfe92f46681b20a0\n        /* \"@openzeppelin/contracts/utils/cryptography/ECDSA.sol\":6114:6115  s */\n      dup4\n        /* \"@openzeppelin/contracts/utils/cryptography/ECDSA.sol\":6106:6116  uint256(s) */\n      0x00\n      shr\n        /* \"@openzeppelin/contracts/utils/cryptography/ECDSA.sol\":6106:6185  uint256(s) > 0x7FFFFFFFFFFFFFFFFFFFFFFFFFFFFFFF5D576E7357A4501DDFE92F46681B20A0 */\n      gt\n        /* \"@openzeppelin/contracts/utils/cryptography/ECDSA.sol\":6102:6263  if (uint256(s) > 0x7FFFFFFFFFFFFFFFFFFFFFFFFFFFFFFF5D576E7357A4501DDFE92F46681B20A0) {... */\n      iszero\n      tag_110\n      jumpi\n        /* \"@openzeppelin/contracts/utils/cryptography/ECDSA.sol\":6217:6218  0 */\n      0x00\n        /* \"@openzeppelin/contracts/utils/cryptography/ECDSA.sol\":6221:6251  RecoverError.InvalidSignatureS */\n      0x03\n        /* \"@openzeppelin/contracts/utils/cryptography/ECDSA.sol\":6201:6252  return (address(0), RecoverError.InvalidSignatureS) */\n      swap2\n      pop\n      swap2\n      pop\n      jump(tag_109)\n        /* \"@openzeppelin/contracts/utils/cryptography/ECDSA.sol\":6102:6263  if (uint256(s) > 0x7FFFFFFFFFFFFFFFFFFFFFFFFFFFFFFF5D576E7357A4501DDFE92F46681B20A0) {... */\n    tag_110:\n        /* \"@openzeppelin/contracts/utils/cryptography/ECDSA.sol\":6357:6371  address signer */\n      0x00\n        /* \"@openzeppelin/contracts/utils/cryptography/ECDSA.sol\":6374:6398  ecrecover(hash, v, r, s) */\n      0x01\n        /* \"@openzeppelin/contracts/utils/cryptography/ECDSA.sol\":6384:6388  hash */\n      dup8\n        /* \"@openzeppelin/contracts/utils/cryptography/ECDSA.sol\":6390:6391  v */\n      dup8\n        /* \"@openzeppelin/contracts/utils/cryptography/ECDSA.sol\":6393:6394  r */\n      dup8\n        /* \"@openzeppelin/contracts/utils/cryptography/ECDSA.sol\":6396:6397  s */\n      dup8\n        /* \"@openzeppelin/contracts/utils/cryptography/ECDSA.sol\":6374:6398  ecrecover(hash, v, r, s) */\n      mload(0x40)\n      0x00\n      dup2\n      mstore\n      0x20\n      add\n      0x40\n      mstore\n      mload(0x40)\n      tag_111\n      swap5\n      swap4\n      swap3\n      swap2\n      swap1\n      tag_112\n      jump\t// in\n    tag_111:\n      0x20\n      mload(0x40)\n      0x20\n      dup2\n      sub\n      swap1\n      dup1\n      dup5\n      sub\n      swap1\n      dup6\n      gas\n      staticcall\n      iszero\n      dup1\n      iszero\n      tag_114\n      jumpi\n      returndatasize\n      0x00\n      dup1\n      returndatacopy\n      revert(0x00, returndatasize)\n    tag_114:\n      pop\n      pop\n      pop\n      mload(sub(mload(0x40), 0x20))\n        /* \"@openzeppelin/contracts/utils/cryptography/ECDSA.sol\":6357:6398  address signer = ecrecover(hash, v, r, s) */\n      swap1\n      pop\n        /* \"@openzeppelin/contracts/utils/cryptography/ECDSA.sol\":6430:6431  0 */\n      0x00\n        /* \"@openzeppelin/contracts/utils/cryptography/ECDSA.sol\":6412:6432  signer == address(0) */\n      0xffffffffffffffffffffffffffffffffffffffff\n      and\n        /* \"@openzeppelin/contracts/utils/cryptography/ECDSA.sol\":6412:6418  signer */\n      dup2\n        /* \"@openzeppelin/contracts/utils/cryptography/ECDSA.sol\":6412:6432  signer == address(0) */\n      0xffffffffffffffffffffffffffffffffffffffff\n      and\n      eq\n        /* \"@openzeppelin/contracts/utils/cryptography/ECDSA.sol\":6408:6509  if (signer == address(0)) {... */\n      iszero\n      tag_115\n      jumpi\n        /* \"@openzeppelin/contracts/utils/cryptography/ECDSA.sol\":6464:6465  0 */\n      0x00\n        /* \"@openzeppelin/contracts/utils/cryptography/ECDSA.sol\":6468:6497  RecoverError.InvalidSignature */\n      0x01\n        /* \"@openzeppelin/contracts/utils/cryptography/ECDSA.sol\":6448:6498  return (address(0), RecoverError.InvalidSignature) */\n      swap3\n      pop\n      swap3\n      pop\n      pop\n      jump(tag_109)\n        /* \"@openzeppelin/contracts/utils/cryptography/ECDSA.sol\":6408:6509  if (signer == address(0)) {... */\n    tag_115:\n        /* \"@openzeppelin/contracts/utils/cryptography/ECDSA.sol\":6527:6533  signer */\n      dup1\n        /* \"@openzeppelin/contracts/utils/cryptography/ECDSA.sol\":6535:6555  RecoverError.NoError */\n      0x00\n        /* \"@openzeppelin/contracts/utils/cryptography/ECDSA.sol\":6519:6556  return (signer, RecoverError.NoError) */\n      swap3\n      pop\n      swap3\n      pop\n      pop\n        /* \"@openzeppelin/contracts/utils/cryptography/ECDSA.sol\":5069:6563  function tryRecover(... */\n    tag_109:\n      swap5\n      pop\n      swap5\n      swap3\n      pop\n      pop\n      pop\n      jump\t// out\n        /* \"#utility.yul\":7:146   */\n    tag_117:\n        /* \"#utility.yul\":53:58   */\n      0x00\n        /* \"#utility.yul\":91:97   */\n      dup2\n        /* \"#utility.yul\":78:98   */\n      calldataload\n        /* \"#utility.yul\":69:98   */\n      swap1\n      pop\n        /* \"#utility.yul\":107:140   */\n      tag_119\n        /* \"#utility.yul\":134:139   */\n      dup2\n        /* \"#utility.yul\":107:140   */\n      tag_120\n      jump\t// in\n    tag_119:\n        /* \"#utility.yul\":7:146   */\n      swap3\n      swap2\n      pop\n      pop\n      jump\t// out\n        /* \"#utility.yul\":165:717   */\n    tag_121:\n        /* \"#utility.yul\":222:230   */\n      0x00\n        /* \"#utility.yul\":232:238   */\n      dup1\n        /* \"#utility.yul\":282:285   */\n      dup4\n        /* \"#utility.yul\":275:279   */\n      0x1f\n        /* \"#utility.yul\":267:273   */\n      dup5\n        /* \"#utility.yul\":263:280   */\n      add\n        /* \"#utility.yul\":259:286   */\n      slt\n        /* \"#utility.yul\":249:371   */\n      tag_123\n      jumpi\n        /* \"#utility.yul\":290:369   */\n      tag_124\n      tag_125\n      jump\t// in\n    tag_124:\n        /* \"#utility.yul\":249:371   */\n    tag_123:\n        /* \"#utility.yul\":403:409   */\n      dup3\n        /* \"#utility.yul\":390:410   */\n      calldataload\n        /* \"#utility.yul\":380:410   */\n      swap1\n      pop\n        /* \"#utility.yul\":433:451   */\n      0xffffffffffffffff\n        /* \"#utility.yul\":425:431   */\n      dup2\n        /* \"#utility.yul\":422:452   */\n      gt\n        /* \"#utility.yul\":419:536   */\n      iszero\n      tag_126\n      jumpi\n        /* \"#utility.yul\":455:534   */\n      tag_127\n      tag_128\n      jump\t// in\n    tag_127:\n        /* \"#utility.yul\":419:536   */\n    tag_126:\n        /* \"#utility.yul\":569:573   */\n      0x20\n        /* \"#utility.yul\":561:567   */\n      dup4\n        /* \"#utility.yul\":557:574   */\n      add\n        /* \"#utility.yul\":545:574   */\n      swap2\n      pop\n        /* \"#utility.yul\":623:626   */\n      dup4\n        /* \"#utility.yul\":615:619   */\n      0x01\n        /* \"#utility.yul\":607:613   */\n      dup3\n        /* \"#utility.yul\":603:620   */\n      mul\n        /* \"#utility.yul\":593:601   */\n      dup4\n        /* \"#utility.yul\":589:621   */\n      add\n        /* \"#utility.yul\":586:627   */\n      gt\n        /* \"#utility.yul\":583:711   */\n      iszero\n      tag_129\n      jumpi\n        /* \"#utility.yul\":630:709   */\n      tag_130\n      tag_131\n      jump\t// in\n    tag_130:\n        /* \"#utility.yul\":583:711   */\n    tag_129:\n        /* \"#utility.yul\":165:717   */\n      swap3\n      pop\n      swap3\n      swap1\n      pop\n      jump\t// out\n        /* \"#utility.yul\":765:995   */\n    tag_132:\n        /* \"#utility.yul\":836:841   */\n      0x00\n        /* \"#utility.yul\":877:880   */\n      0x80\n        /* \"#utility.yul\":868:874   */\n      dup3\n        /* \"#utility.yul\":863:866   */\n      dup5\n        /* \"#utility.yul\":859:875   */\n      sub\n        /* \"#utility.yul\":855:881   */\n      slt\n        /* \"#utility.yul\":852:965   */\n      iszero\n      tag_134\n      jumpi\n        /* \"#utility.yul\":884:963   */\n      tag_135\n      tag_136\n      jump\t// in\n    tag_135:\n        /* \"#utility.yul\":852:965   */\n    tag_134:\n        /* \"#utility.yul\":983:989   */\n      dup2\n        /* \"#utility.yul\":974:989   */\n      swap1\n      pop\n        /* \"#utility.yul\":765:995   */\n      swap3\n      swap2\n      pop\n      pop\n      jump\t// out\n        /* \"#utility.yul\":1001:1330   */\n    tag_13:\n        /* \"#utility.yul\":1060:1066   */\n      0x00\n        /* \"#utility.yul\":1109:1111   */\n      0x20\n        /* \"#utility.yul\":1097:1106   */\n      dup3\n        /* \"#utility.yul\":1088:1095   */\n      dup5\n        /* \"#utility.yul\":1084:1107   */\n      sub\n        /* \"#utility.yul\":1080:1112   */\n      slt\n        /* \"#utility.yul\":1077:1196   */\n      iszero\n      tag_138\n      jumpi\n        /* \"#utility.yul\":1115:1194   */\n      tag_139\n      tag_140\n      jump\t// in\n    tag_139:\n        /* \"#utility.yul\":1077:1196   */\n    tag_138:\n        /* \"#utility.yul\":1235:1236   */\n      0x00\n        /* \"#utility.yul\":1260:1313   */\n      tag_141\n        /* \"#utility.yul\":1305:1312   */\n      dup5\n        /* \"#utility.yul\":1296:1302   */\n      dup3\n        /* \"#utility.yul\":1285:1294   */\n      dup6\n        /* \"#utility.yul\":1281:1303   */\n      add\n        /* \"#utility.yul\":1260:1313   */\n      tag_117\n      jump\t// in\n    tag_141:\n        /* \"#utility.yul\":1250:1313   */\n      swap2\n      pop\n        /* \"#utility.yul\":1206:1323   */\n      pop\n        /* \"#utility.yul\":1001:1330   */\n      swap3\n      swap2\n      pop\n      pop\n      jump\t// out\n        /* \"#utility.yul\":1336:2218   */\n    tag_7:\n        /* \"#utility.yul\":1440:1446   */\n      0x00\n        /* \"#utility.yul\":1448:1454   */\n      dup1\n        /* \"#utility.yul\":1456:1462   */\n      0x00\n        /* \"#utility.yul\":1505:1507   */\n      0x40\n        /* \"#utility.yul\":1493:1502   */\n      dup5\n        /* \"#utility.yul\":1484:1491   */\n      dup7\n        /* \"#utility.yul\":1480:1503   */\n      sub\n        /* \"#utility.yul\":1476:1508   */\n      slt\n        /* \"#utility.yul\":1473:1592   */\n      iszero\n      tag_143\n      jumpi\n        /* \"#utility.yul\":1511:1590   */\n      tag_144\n      tag_140\n      jump\t// in\n    tag_144:\n        /* \"#utility.yul\":1473:1592   */\n    tag_143:\n        /* \"#utility.yul\":1659:1660   */\n      0x00\n        /* \"#utility.yul\":1648:1657   */\n      dup5\n        /* \"#utility.yul\":1644:1661   */\n      add\n        /* \"#utility.yul\":1631:1662   */\n      calldataload\n        /* \"#utility.yul\":1689:1707   */\n      0xffffffffffffffff\n        /* \"#utility.yul\":1681:1687   */\n      dup2\n        /* \"#utility.yul\":1678:1708   */\n      gt\n        /* \"#utility.yul\":1675:1792   */\n      iszero\n      tag_145\n      jumpi\n        /* \"#utility.yul\":1711:1790   */\n      tag_146\n      tag_147\n      jump\t// in\n    tag_146:\n        /* \"#utility.yul\":1675:1792   */\n    tag_145:\n        /* \"#utility.yul\":1816:1894   */\n      tag_148\n        /* \"#utility.yul\":1886:1893   */\n      dup7\n        /* \"#utility.yul\":1877:1883   */\n      dup3\n        /* \"#utility.yul\":1866:1875   */\n      dup8\n        /* \"#utility.yul\":1862:1884   */\n      add\n        /* \"#utility.yul\":1816:1894   */\n      tag_132\n      jump\t// in\n    tag_148:\n        /* \"#utility.yul\":1806:1894   */\n      swap4\n      pop\n        /* \"#utility.yul\":1602:1904   */\n      pop\n        /* \"#utility.yul\":1971:1973   */\n      0x20\n        /* \"#utility.yul\":1960:1969   */\n      dup5\n        /* \"#utility.yul\":1956:1974   */\n      add\n        /* \"#utility.yul\":1943:1975   */\n      calldataload\n        /* \"#utility.yul\":2002:2020   */\n      0xffffffffffffffff\n        /* \"#utility.yul\":1994:2000   */\n      dup2\n        /* \"#utility.yul\":1991:2021   */\n      gt\n        /* \"#utility.yul\":1988:2105   */\n      iszero\n      tag_149\n      jumpi\n        /* \"#utility.yul\":2024:2103   */\n      tag_150\n      tag_147\n      jump\t// in\n    tag_150:\n        /* \"#utility.yul\":1988:2105   */\n    tag_149:\n        /* \"#utility.yul\":2137:2201   */\n      tag_151\n        /* \"#utility.yul\":2193:2200   */\n      dup7\n        /* \"#utility.yul\":2184:2190   */\n      dup3\n        /* \"#utility.yul\":2173:2182   */\n      dup8\n        /* \"#utility.yul\":2169:2191   */\n      add\n        /* \"#utility.yul\":2137:2201   */\n      tag_121\n      jump\t// in\n    tag_151:\n        /* \"#utility.yul\":2119:2201   */\n      swap3\n      pop\n      swap3\n      pop\n        /* \"#utility.yul\":1914:2211   */\n      pop\n        /* \"#utility.yul\":1336:2218   */\n      swap3\n      pop\n      swap3\n      pop\n      swap3\n      jump\t// out\n        /* \"#utility.yul\":2224:2342   */\n    tag_152:\n        /* \"#utility.yul\":2311:2335   */\n      tag_154\n        /* \"#utility.yul\":2329:2334   */\n      dup2\n        /* \"#utility.yul\":2311:2335   */\n      tag_155\n      jump\t// in\n    tag_154:\n        /* \"#utility.yul\":2306:2309   */\n      dup3\n        /* \"#utility.yul\":2299:2336   */\n      mstore\n        /* \"#utility.yul\":2224:2342   */\n      pop\n      pop\n      jump\t// out\n        /* \"#utility.yul\":2348:2505   */\n    tag_156:\n        /* \"#utility.yul\":2453:2498   */\n      tag_158\n        /* \"#utility.yul\":2473:2497   */\n      tag_159\n        /* \"#utility.yul\":2491:2496   */\n      dup3\n        /* \"#utility.yul\":2473:2497   */\n      tag_155\n      jump\t// in\n    tag_159:\n        /* \"#utility.yul\":2453:2498   */\n      tag_160\n      jump\t// in\n    tag_158:\n        /* \"#utility.yul\":2448:2451   */\n      dup3\n        /* \"#utility.yul\":2441:2499   */\n      mstore\n        /* \"#utility.yul\":2348:2505   */\n      pop\n      pop\n      jump\t// out\n        /* \"#utility.yul\":2511:2620   */\n    tag_161:\n        /* \"#utility.yul\":2592:2613   */\n      tag_163\n        /* \"#utility.yul\":2607:2612   */\n      dup2\n        /* \"#utility.yul\":2592:2613   */\n      tag_164\n      jump\t// in\n    tag_163:\n        /* \"#utility.yul\":2587:2590   */\n      dup3\n        /* \"#utility.yul\":2580:2614   */\n      mstore\n        /* \"#utility.yul\":2511:2620   */\n      pop\n      pop\n      jump\t// out\n        /* \"#utility.yul\":2626:2744   */\n    tag_165:\n        /* \"#utility.yul\":2713:2737   */\n      tag_167\n        /* \"#utility.yul\":2731:2736   */\n      dup2\n        /* \"#utility.yul\":2713:2737   */\n      tag_168\n      jump\t// in\n    tag_167:\n        /* \"#utility.yul\":2708:2711   */\n      dup3\n        /* \"#utility.yul\":2701:2738   */\n      mstore\n        /* \"#utility.yul\":2626:2744   */\n      pop\n      pop\n      jump\t// out\n        /* \"#utility.yul\":2750:2907   */\n    tag_169:\n        /* \"#utility.yul\":2855:2900   */\n      tag_171\n        /* \"#utility.yul\":2875:2899   */\n      tag_172\n        /* \"#utility.yul\":2893:2898   */\n      dup3\n        /* \"#utility.yul\":2875:2899   */\n      tag_168\n      jump\t// in\n    tag_172:\n        /* \"#utility.yul\":2855:2900   */\n      tag_173\n      jump\t// in\n    tag_171:\n        /* \"#utility.yul\":2850:2853   */\n      dup3\n        /* \"#utility.yul\":2843:2901   */\n      mstore\n        /* \"#utility.yul\":2750:2907   */\n      pop\n      pop\n      jump\t// out\n        /* \"#utility.yul\":2935:3249   */\n    tag_174:\n        /* \"#utility.yul\":3049:3052   */\n      0x00\n        /* \"#utility.yul\":3070:3158   */\n      tag_176\n        /* \"#utility.yul\":3151:3157   */\n      dup4\n        /* \"#utility.yul\":3146:3149   */\n      dup6\n        /* \"#utility.yul\":3070:3158   */\n      tag_177\n      jump\t// in\n    tag_176:\n        /* \"#utility.yul\":3063:3158   */\n      swap4\n      pop\n        /* \"#utility.yul\":3168:3211   */\n      tag_178\n        /* \"#utility.yul\":3204:3210   */\n      dup4\n        /* \"#utility.yul\":3199:3202   */\n      dup6\n        /* \"#utility.yul\":3192:3197   */\n      dup5\n        /* \"#utility.yul\":3168:3211   */\n      tag_179\n      jump\t// in\n    tag_178:\n        /* \"#utility.yul\":3236:3242   */\n      dup3\n        /* \"#utility.yul\":3231:3234   */\n      dup5\n        /* \"#utility.yul\":3227:3243   */\n      add\n        /* \"#utility.yul\":3220:3243   */\n      swap1\n      pop\n        /* \"#utility.yul\":2935:3249   */\n      swap4\n      swap3\n      pop\n      pop\n      pop\n      jump\t// out\n        /* \"#utility.yul\":3255:3628   */\n    tag_180:\n        /* \"#utility.yul\":3359:3362   */\n      0x00\n        /* \"#utility.yul\":3387:3425   */\n      tag_182\n        /* \"#utility.yul\":3419:3424   */\n      dup3\n        /* \"#utility.yul\":3387:3425   */\n      tag_183\n      jump\t// in\n    tag_182:\n        /* \"#utility.yul\":3441:3529   */\n      tag_184\n        /* \"#utility.yul\":3522:3528   */\n      dup2\n        /* \"#utility.yul\":3517:3520   */\n      dup6\n        /* \"#utility.yul\":3441:3529   */\n      tag_177\n      jump\t// in\n    tag_184:\n        /* \"#utility.yul\":3434:3529   */\n      swap4\n      pop\n        /* \"#utility.yul\":3538:3590   */\n      tag_185\n        /* \"#utility.yul\":3583:3589   */\n      dup2\n        /* \"#utility.yul\":3578:3581   */\n      dup6\n        /* \"#utility.yul\":3571:3575   */\n      0x20\n        /* \"#utility.yul\":3564:3569   */\n      dup7\n        /* \"#utility.yul\":3560:3576   */\n      add\n        /* \"#utility.yul\":3538:3590   */\n      tag_186\n      jump\t// in\n    tag_185:\n        /* \"#utility.yul\":3615:3621   */\n      dup1\n        /* \"#utility.yul\":3610:3613   */\n      dup5\n        /* \"#utility.yul\":3606:3622   */\n      add\n        /* \"#utility.yul\":3599:3622   */\n      swap2\n      pop\n        /* \"#utility.yul\":3363:3628   */\n      pop\n        /* \"#utility.yul\":3255:3628   */\n      swap3\n      swap2\n      pop\n      pop\n      jump\t// out\n        /* \"#utility.yul\":3634:4000   */\n    tag_187:\n        /* \"#utility.yul\":3776:3779   */\n      0x00\n        /* \"#utility.yul\":3797:3864   */\n      tag_189\n        /* \"#utility.yul\":3861:3863   */\n      0x18\n        /* \"#utility.yul\":3856:3859   */\n      dup4\n        /* \"#utility.yul\":3797:3864   */\n      tag_190\n      jump\t// in\n    tag_189:\n        /* \"#utility.yul\":3790:3864   */\n      swap2\n      pop\n        /* \"#utility.yul\":3873:3966   */\n      tag_191\n        /* \"#utility.yul\":3962:3965   */\n      dup3\n        /* \"#utility.yul\":3873:3966   */\n      tag_192\n      jump\t// in\n    tag_191:\n        /* \"#utility.yul\":3991:3993   */\n      0x20\n        /* \"#utility.yul\":3986:3989   */\n      dup3\n        /* \"#utility.yul\":3982:3994   */\n      add\n        /* \"#utility.yul\":3975:3994   */\n      swap1\n      pop\n        /* \"#utility.yul\":3634:4000   */\n      swap2\n      swap1\n      pop\n      jump\t// out\n        /* \"#utility.yul\":4006:4372   */\n    tag_193:\n        /* \"#utility.yul\":4148:4151   */\n      0x00\n        /* \"#utility.yul\":4169:4236   */\n      tag_195\n        /* \"#utility.yul\":4233:4235   */\n      0x1f\n        /* \"#utility.yul\":4228:4231   */\n      dup4\n        /* \"#utility.yul\":4169:4236   */\n      tag_190\n      jump\t// in\n    tag_195:\n        /* \"#utility.yul\":4162:4236   */\n      swap2\n      pop\n        /* \"#utility.yul\":4245:4338   */\n      tag_196\n        /* \"#utility.yul\":4334:4337   */\n      dup3\n        /* \"#utility.yul\":4245:4338   */\n      tag_197\n      jump\t// in\n    tag_196:\n        /* \"#utility.yul\":4363:4365   */\n      0x20\n        /* \"#utility.yul\":4358:4361   */\n      dup3\n        /* \"#utility.yul\":4354:4366   */\n      add\n        /* \"#utility.yul\":4347:4366   */\n      swap1\n      pop\n        /* \"#utility.yul\":4006:4372   */\n      swap2\n      swap1\n      pop\n      jump\t// out\n        /* \"#utility.yul\":4378:4744   */\n    tag_198:\n        /* \"#utility.yul\":4520:4523   */\n      0x00\n        /* \"#utility.yul\":4541:4608   */\n      tag_200\n        /* \"#utility.yul\":4605:4607   */\n      0x27\n        /* \"#utility.yul\":4600:4603   */\n      dup4\n        /* \"#utility.yul\":4541:4608   */\n      tag_190\n      jump\t// in\n    tag_200:\n        /* \"#utility.yul\":4534:4608   */\n      swap2\n      pop\n        /* \"#utility.yul\":4617:4710   */\n      tag_201\n        /* \"#utility.yul\":4706:4709   */\n      dup3\n        /* \"#utility.yul\":4617:4710   */\n      tag_202\n      jump\t// in\n    tag_201:\n        /* \"#utility.yul\":4735:4737   */\n      0x40\n        /* \"#utility.yul\":4730:4733   */\n      dup3\n        /* \"#utility.yul\":4726:4738   */\n      add\n        /* \"#utility.yul\":4719:4738   */\n      swap1\n      pop\n        /* \"#utility.yul\":4378:4744   */\n      swap2\n      swap1\n      pop\n      jump\t// out\n        /* \"#utility.yul\":4750:5150   */\n    tag_203:\n        /* \"#utility.yul\":4910:4913   */\n      0x00\n        /* \"#utility.yul\":4931:5015   */\n      tag_205\n        /* \"#utility.yul\":5013:5014   */\n      0x02\n        /* \"#utility.yul\":5008:5011   */\n      dup4\n        /* \"#utility.yul\":4931:5015   */\n      tag_206\n      jump\t// in\n    tag_205:\n        /* \"#utility.yul\":4924:5015   */\n      swap2\n      pop\n        /* \"#utility.yul\":5024:5117   */\n      tag_207\n        /* \"#utility.yul\":5113:5116   */\n      dup3\n        /* \"#utility.yul\":5024:5117   */\n      tag_208\n      jump\t// in\n    tag_207:\n        /* \"#utility.yul\":5142:5143   */\n      0x02\n        /* \"#utility.yul\":5137:5140   */\n      dup3\n        /* \"#utility.yul\":5133:5144   */\n      add\n        /* \"#utility.yul\":5126:5144   */\n      swap1\n      pop\n        /* \"#utility.yul\":4750:5150   */\n      swap2\n      swap1\n      pop\n      jump\t// out\n        /* \"#utility.yul\":5156:5522   */\n    tag_209:\n        /* \"#utility.yul\":5298:5301   */\n      0x00\n        /* \"#utility.yul\":5319:5386   */\n      tag_211\n        /* \"#utility.yul\":5383:5385   */\n      0x22\n        /* \"#utility.yul\":5378:5381   */\n      dup4\n        /* \"#utility.yul\":5319:5386   */\n      tag_190\n      jump\t// in\n    tag_211:\n        /* \"#utility.yul\":5312:5386   */\n      swap2\n      pop\n        /* \"#utility.yul\":5395:5488   */\n      tag_212\n        /* \"#utility.yul\":5484:5487   */\n      dup3\n        /* \"#utility.yul\":5395:5488   */\n      tag_213\n      jump\t// in\n    tag_212:\n        /* \"#utility.yul\":5513:5515   */\n      0x40\n        /* \"#utility.yul\":5508:5511   */\n      dup3\n        /* \"#utility.yul\":5504:5516   */\n      add\n        /* \"#utility.yul\":5497:5516   */\n      swap1\n      pop\n        /* \"#utility.yul\":5156:5522   */\n      swap2\n      swap1\n      pop\n      jump\t// out\n        /* \"#utility.yul\":5528:5646   */\n    tag_214:\n        /* \"#utility.yul\":5615:5639   */\n      tag_216\n        /* \"#utility.yul\":5633:5638   */\n      dup2\n        /* \"#utility.yul\":5615:5639   */\n      tag_217\n      jump\t// in\n    tag_216:\n        /* \"#utility.yul\":5610:5613   */\n      dup3\n        /* \"#utility.yul\":5603:5640   */\n      mstore\n        /* \"#utility.yul\":5528:5646   */\n      pop\n      pop\n      jump\t// out\n        /* \"#utility.yul\":5652:5764   */\n    tag_218:\n        /* \"#utility.yul\":5735:5757   */\n      tag_220\n        /* \"#utility.yul\":5751:5756   */\n      dup2\n        /* \"#utility.yul\":5735:5757   */\n      tag_221\n      jump\t// in\n    tag_220:\n        /* \"#utility.yul\":5730:5733   */\n      dup3\n        /* \"#utility.yul\":5723:5758   */\n      mstore\n        /* \"#utility.yul\":5652:5764   */\n      pop\n      pop\n      jump\t// out\n        /* \"#utility.yul\":5770:6061   */\n    tag_44:\n        /* \"#utility.yul\":5910:5913   */\n      0x00\n        /* \"#utility.yul\":5932:6035   */\n      tag_223\n        /* \"#utility.yul\":6031:6034   */\n      dup3\n        /* \"#utility.yul\":6022:6028   */\n      dup5\n        /* \"#utility.yul\":6014:6020   */\n      dup7\n        /* \"#utility.yul\":5932:6035   */\n      tag_174\n      jump\t// in\n    tag_223:\n        /* \"#utility.yul\":5925:6035   */\n      swap2\n      pop\n        /* \"#utility.yul\":6052:6055   */\n      dup2\n        /* \"#utility.yul\":6045:6055   */\n      swap1\n      pop\n        /* \"#utility.yul\":5770:6061   */\n      swap4\n      swap3\n      pop\n      pop\n      pop\n      jump\t// out\n        /* \"#utility.yul\":6067:6499   */\n    tag_31:\n        /* \"#utility.yul\":6235:6238   */\n      0x00\n        /* \"#utility.yul\":6257:6360   */\n      tag_225\n        /* \"#utility.yul\":6356:6359   */\n      dup3\n        /* \"#utility.yul\":6347:6353   */\n      dup6\n        /* \"#utility.yul\":6339:6345   */\n      dup8\n        /* \"#utility.yul\":6257:6360   */\n      tag_174\n      jump\t// in\n    tag_225:\n        /* \"#utility.yul\":6250:6360   */\n      swap2\n      pop\n        /* \"#utility.yul\":6370:6445   */\n      tag_226\n        /* \"#utility.yul\":6441:6444   */\n      dup3\n        /* \"#utility.yul\":6432:6438   */\n      dup5\n        /* \"#utility.yul\":6370:6445   */\n      tag_156\n      jump\t// in\n    tag_226:\n        /* \"#utility.yul\":6470:6472   */\n      0x14\n        /* \"#utility.yul\":6465:6468   */\n      dup3\n        /* \"#utility.yul\":6461:6473   */\n      add\n        /* \"#utility.yul\":6454:6473   */\n      swap2\n      pop\n        /* \"#utility.yul\":6490:6493   */\n      dup2\n        /* \"#utility.yul\":6483:6493   */\n      swap1\n      pop\n        /* \"#utility.yul\":6067:6499   */\n      swap5\n      swap4\n      pop\n      pop\n      pop\n      pop\n      jump\t// out\n        /* \"#utility.yul\":6505:6776   */\n    tag_33:\n        /* \"#utility.yul\":6635:6638   */\n      0x00\n        /* \"#utility.yul\":6657:6750   */\n      tag_228\n        /* \"#utility.yul\":6746:6749   */\n      dup3\n        /* \"#utility.yul\":6737:6743   */\n      dup5\n        /* \"#utility.yul\":6657:6750   */\n      tag_180\n      jump\t// in\n    tag_228:\n        /* \"#utility.yul\":6650:6750   */\n      swap2\n      pop\n        /* \"#utility.yul\":6767:6770   */\n      dup2\n        /* \"#utility.yul\":6760:6770   */\n      swap1\n      pop\n        /* \"#utility.yul\":6505:6776   */\n      swap3\n      swap2\n      pop\n      pop\n      jump\t// out\n        /* \"#utility.yul\":6782:7445   */\n    tag_69:\n        /* \"#utility.yul\":7023:7026   */\n      0x00\n        /* \"#utility.yul\":7045:7193   */\n      tag_230\n        /* \"#utility.yul\":7189:7192   */\n      dup3\n        /* \"#utility.yul\":7045:7193   */\n      tag_203\n      jump\t// in\n    tag_230:\n        /* \"#utility.yul\":7038:7193   */\n      swap2\n      pop\n        /* \"#utility.yul\":7203:7278   */\n      tag_231\n        /* \"#utility.yul\":7274:7277   */\n      dup3\n        /* \"#utility.yul\":7265:7271   */\n      dup6\n        /* \"#utility.yul\":7203:7278   */\n      tag_169\n      jump\t// in\n    tag_231:\n        /* \"#utility.yul\":7303:7305   */\n      0x20\n        /* \"#utility.yul\":7298:7301   */\n      dup3\n        /* \"#utility.yul\":7294:7306   */\n      add\n        /* \"#utility.yul\":7287:7306   */\n      swap2\n      pop\n        /* \"#utility.yul\":7316:7391   */\n      tag_232\n        /* \"#utility.yul\":7387:7390   */\n      dup3\n        /* \"#utility.yul\":7378:7384   */\n      dup5\n        /* \"#utility.yul\":7316:7391   */\n      tag_169\n      jump\t// in\n    tag_232:\n        /* \"#utility.yul\":7416:7418   */\n      0x20\n        /* \"#utility.yul\":7411:7414   */\n      dup3\n        /* \"#utility.yul\":7407:7419   */\n      add\n        /* \"#utility.yul\":7400:7419   */\n      swap2\n      pop\n        /* \"#utility.yul\":7436:7439   */\n      dup2\n        /* \"#utility.yul\":7429:7439   */\n      swap1\n      pop\n        /* \"#utility.yul\":6782:7445   */\n      swap4\n      swap3\n      pop\n      pop\n      pop\n      jump\t// out\n        /* \"#utility.yul\":7451:7661   */\n    tag_10:\n        /* \"#utility.yul\":7538:7542   */\n      0x00\n        /* \"#utility.yul\":7576:7578   */\n      0x20\n        /* \"#utility.yul\":7565:7574   */\n      dup3\n        /* \"#utility.yul\":7561:7579   */\n      add\n        /* \"#utility.yul\":7553:7579   */\n      swap1\n      pop\n        /* \"#utility.yul\":7589:7654   */\n      tag_234\n        /* \"#utility.yul\":7651:7652   */\n      0x00\n        /* \"#utility.yul\":7640:7649   */\n      dup4\n        /* \"#utility.yul\":7636:7653   */\n      add\n        /* \"#utility.yul\":7627:7633   */\n      dup5\n        /* \"#utility.yul\":7589:7654   */\n      tag_161\n      jump\t// in\n    tag_234:\n        /* \"#utility.yul\":7451:7661   */\n      swap3\n      swap2\n      pop\n      pop\n      jump\t// out\n        /* \"#utility.yul\":7667:8331   */\n    tag_46:\n        /* \"#utility.yul\":7872:7876   */\n      0x00\n        /* \"#utility.yul\":7910:7913   */\n      0xa0\n        /* \"#utility.yul\":7899:7908   */\n      dup3\n        /* \"#utility.yul\":7895:7914   */\n      add\n        /* \"#utility.yul\":7887:7914   */\n      swap1\n      pop\n        /* \"#utility.yul\":7924:7995   */\n      tag_236\n        /* \"#utility.yul\":7992:7993   */\n      0x00\n        /* \"#utility.yul\":7981:7990   */\n      dup4\n        /* \"#utility.yul\":7977:7994   */\n      add\n        /* \"#utility.yul\":7968:7974   */\n      dup9\n        /* \"#utility.yul\":7924:7995   */\n      tag_165\n      jump\t// in\n    tag_236:\n        /* \"#utility.yul\":8005:8077   */\n      tag_237\n        /* \"#utility.yul\":8073:8075   */\n      0x20\n        /* \"#utility.yul\":8062:8071   */\n      dup4\n        /* \"#utility.yul\":8058:8076   */\n      add\n        /* \"#utility.yul\":8049:8055   */\n      dup8\n        /* \"#utility.yul\":8005:8077   */\n      tag_152\n      jump\t// in\n    tag_237:\n        /* \"#utility.yul\":8087:8159   */\n      tag_238\n        /* \"#utility.yul\":8155:8157   */\n      0x40\n        /* \"#utility.yul\":8144:8153   */\n      dup4\n        /* \"#utility.yul\":8140:8158   */\n      add\n        /* \"#utility.yul\":8131:8137   */\n      dup7\n        /* \"#utility.yul\":8087:8159   */\n      tag_152\n      jump\t// in\n    tag_238:\n        /* \"#utility.yul\":8169:8241   */\n      tag_239\n        /* \"#utility.yul\":8237:8239   */\n      0x60\n        /* \"#utility.yul\":8226:8235   */\n      dup4\n        /* \"#utility.yul\":8222:8240   */\n      add\n        /* \"#utility.yul\":8213:8219   */\n      dup6\n        /* \"#utility.yul\":8169:8241   */\n      tag_214\n      jump\t// in\n    tag_239:\n        /* \"#utility.yul\":8251:8324   */\n      tag_240\n        /* \"#utility.yul\":8319:8322   */\n      0x80\n        /* \"#utility.yul\":8308:8317   */\n      dup4\n        /* \"#utility.yul\":8304:8323   */\n      add\n        /* \"#utility.yul\":8295:8301   */\n      dup5\n        /* \"#utility.yul\":8251:8324   */\n      tag_165\n      jump\t// in\n    tag_240:\n        /* \"#utility.yul\":7667:8331   */\n      swap7\n      swap6\n      pop\n      pop\n      pop\n      pop\n      pop\n      pop\n      jump\t// out\n        /* \"#utility.yul\":8337:9001   */\n    tag_108:\n        /* \"#utility.yul\":8542:8546   */\n      0x00\n        /* \"#utility.yul\":8580:8583   */\n      0xa0\n        /* \"#utility.yul\":8569:8578   */\n      dup3\n        /* \"#utility.yul\":8565:8584   */\n      add\n        /* \"#utility.yul\":8557:8584   */\n      swap1\n      pop\n        /* \"#utility.yul\":8594:8665   */\n      tag_242\n        /* \"#utility.yul\":8662:8663   */\n      0x00\n        /* \"#utility.yul\":8651:8660   */\n      dup4\n        /* \"#utility.yul\":8647:8664   */\n      add\n        /* \"#utility.yul\":8638:8644   */\n      dup9\n        /* \"#utility.yul\":8594:8665   */\n      tag_165\n      jump\t// in\n    tag_242:\n        /* \"#utility.yul\":8675:8747   */\n      tag_243\n        /* \"#utility.yul\":8743:8745   */\n      0x20\n        /* \"#utility.yul\":8732:8741   */\n      dup4\n        /* \"#utility.yul\":8728:8746   */\n      add\n        /* \"#utility.yul\":8719:8725   */\n      dup8\n        /* \"#utility.yul\":8675:8747   */\n      tag_165\n      jump\t// in\n    tag_243:\n        /* \"#utility.yul\":8757:8829   */\n      tag_244\n        /* \"#utility.yul\":8825:8827   */\n      0x40\n        /* \"#utility.yul\":8814:8823   */\n      dup4\n        /* \"#utility.yul\":8810:8828   */\n      add\n        /* \"#utility.yul\":8801:8807   */\n      dup7\n        /* \"#utility.yul\":8757:8829   */\n      tag_165\n      jump\t// in\n    tag_244:\n        /* \"#utility.yul\":8839:8911   */\n      tag_245\n        /* \"#utility.yul\":8907:8909   */\n      0x60\n        /* \"#utility.yul\":8896:8905   */\n      dup4\n        /* \"#utility.yul\":8892:8910   */\n      add\n        /* \"#utility.yul\":8883:8889   */\n      dup6\n        /* \"#utility.yul\":8839:8911   */\n      tag_214\n      jump\t// in\n    tag_245:\n        /* \"#utility.yul\":8921:8994   */\n      tag_246\n        /* \"#utility.yul\":8989:8992   */\n      0x80\n        /* \"#utility.yul\":8978:8987   */\n      dup4\n        /* \"#utility.yul\":8974:8993   */\n      add\n        /* \"#utility.yul\":8965:8971   */\n      dup5\n        /* \"#utility.yul\":8921:8994   */\n      tag_152\n      jump\t// in\n    tag_246:\n        /* \"#utility.yul\":8337:9001   */\n      swap7\n      swap6\n      pop\n      pop\n      pop\n      pop\n      pop\n      pop\n      jump\t// out\n        /* \"#utility.yul\":9007:9552   */\n    tag_112:\n        /* \"#utility.yul\":9180:9184   */\n      0x00\n        /* \"#utility.yul\":9218:9221   */\n      0x80\n        /* \"#utility.yul\":9207:9216   */\n      dup3\n        /* \"#utility.yul\":9203:9222   */\n      add\n        /* \"#utility.yul\":9195:9222   */\n      swap1\n      pop\n        /* \"#utility.yul\":9232:9303   */\n      tag_248\n        /* \"#utility.yul\":9300:9301   */\n      0x00\n        /* \"#utility.yul\":9289:9298   */\n      dup4\n        /* \"#utility.yul\":9285:9302   */\n      add\n        /* \"#utility.yul\":9276:9282   */\n      dup8\n        /* \"#utility.yul\":9232:9303   */\n      tag_165\n      jump\t// in\n    tag_248:\n        /* \"#utility.yul\":9313:9381   */\n      tag_249\n        /* \"#utility.yul\":9377:9379   */\n      0x20\n        /* \"#utility.yul\":9366:9375   */\n      dup4\n        /* \"#utility.yul\":9362:9380   */\n      add\n        /* \"#utility.yul\":9353:9359   */\n      dup7\n        /* \"#utility.yul\":9313:9381   */\n      tag_218\n      jump\t// in\n    tag_249:\n        /* \"#utility.yul\":9391:9463   */\n      tag_250\n        /* \"#utility.yul\":9459:9461   */\n      0x40\n        /* \"#utility.yul\":9448:9457   */\n      dup4\n        /* \"#utility.yul\":9444:9462   */\n      add\n        /* \"#utility.yul\":9435:9441   */\n      dup6\n        /* \"#utility.yul\":9391:9463   */\n      tag_165\n      jump\t// in\n    tag_250:\n        /* \"#utility.yul\":9473:9545   */\n      tag_251\n        /* \"#utility.yul\":9541:9543   */\n      0x60\n        /* \"#utility.yul\":9530:9539   */\n      dup4\n        /* \"#utility.yul\":9526:9544   */\n      add\n        /* \"#utility.yul\":9517:9523   */\n      dup5\n        /* \"#utility.yul\":9473:9545   */\n      tag_165\n      jump\t// in\n    tag_251:\n        /* \"#utility.yul\":9007:9552   */\n      swap6\n      swap5\n      pop\n      pop\n      pop\n      pop\n      pop\n      jump\t// out\n        /* \"#utility.yul\":9558:9977   */\n    tag_89:\n        /* \"#utility.yul\":9724:9728   */\n      0x00\n        /* \"#utility.yul\":9762:9764   */\n      0x20\n        /* \"#utility.yul\":9751:9760   */\n      dup3\n        /* \"#utility.yul\":9747:9765   */\n      add\n        /* \"#utility.yul\":9739:9765   */\n      swap1\n      pop\n        /* \"#utility.yul\":9811:9820   */\n      dup2\n        /* \"#utility.yul\":9805:9809   */\n      dup2\n        /* \"#utility.yul\":9801:9821   */\n      sub\n        /* \"#utility.yul\":9797:9798   */\n      0x00\n        /* \"#utility.yul\":9786:9795   */\n      dup4\n        /* \"#utility.yul\":9782:9799   */\n      add\n        /* \"#utility.yul\":9775:9822   */\n      mstore\n        /* \"#utility.yul\":9839:9970   */\n      tag_253\n        /* \"#utility.yul\":9965:9969   */\n      dup2\n        /* \"#utility.yul\":9839:9970   */\n      tag_187\n      jump\t// in\n    tag_253:\n        /* \"#utility.yul\":9831:9970   */\n      swap1\n      pop\n        /* \"#utility.yul\":9558:9977   */\n      swap2\n      swap1\n      pop\n      jump\t// out\n        /* \"#utility.yul\":9983:10402   */\n    tag_97:\n        /* \"#utility.yul\":10149:10153   */\n      0x00\n        /* \"#utility.yul\":10187:10189   */\n      0x20\n        /* \"#utility.yul\":10176:10185   */\n      dup3\n        /* \"#utility.yul\":10172:10190   */\n      add\n        /* \"#utility.yul\":10164:10190   */\n      swap1\n      pop\n        /* \"#utility.yul\":10236:10245   */\n      dup2\n        /* \"#utility.yul\":10230:10234   */\n      dup2\n        /* \"#utility.yul\":10226:10246   */\n      sub\n        /* \"#utility.yul\":10222:10223   */\n      0x00\n        /* \"#utility.yul\":10211:10220   */\n      dup4\n        /* \"#utility.yul\":10207:10224   */\n      add\n        /* \"#utility.yul\":10200:10247   */\n      mstore\n        /* \"#utility.yul\":10264:10395   */\n      tag_255\n        /* \"#utility.yul\":10390:10394   */\n      dup2\n        /* \"#utility.yul\":10264:10395   */\n      tag_193\n      jump\t// in\n    tag_255:\n        /* \"#utility.yul\":10256:10395   */\n      swap1\n      pop\n        /* \"#utility.yul\":9983:10402   */\n      swap2\n      swap1\n      pop\n      jump\t// out\n        /* \"#utility.yul\":10408:10827   */\n    tag_22:\n        /* \"#utility.yul\":10574:10578   */\n      0x00\n        /* \"#utility.yul\":10612:10614   */\n      0x20\n        /* \"#utility.yul\":10601:10610   */\n      dup3\n        /* \"#utility.yul\":10597:10615   */\n      add\n        /* \"#utility.yul\":10589:10615   */\n      swap1\n      pop\n        /* \"#utility.yul\":10661:10670   */\n      dup2\n        /* \"#utility.yul\":10655:10659   */\n      dup2\n        /* \"#utility.yul\":10651:10671   */\n      sub\n        /* \"#utility.yul\":10647:10648   */\n      0x00\n        /* \"#utility.yul\":10636:10645   */\n      dup4\n        /* \"#utility.yul\":10632:10649   */\n      add\n        /* \"#utility.yul\":10625:10672   */\n      mstore\n        /* \"#utility.yul\":10689:10820   */\n      tag_257\n        /* \"#utility.yul\":10815:10819   */\n      dup2\n        /* \"#utility.yul\":10689:10820   */\n      tag_198\n      jump\t// in\n    tag_257:\n        /* \"#utility.yul\":10681:10820   */\n      swap1\n      pop\n        /* \"#utility.yul\":10408:10827   */\n      swap2\n      swap1\n      pop\n      jump\t// out\n        /* \"#utility.yul\":10833:11252   */\n    tag_105:\n        /* \"#utility.yul\":10999:11003   */\n      0x00\n        /* \"#utility.yul\":11037:11039   */\n      0x20\n        /* \"#utility.yul\":11026:11035   */\n      dup3\n        /* \"#utility.yul\":11022:11040   */\n      add\n        /* \"#utility.yul\":11014:11040   */\n      swap1\n      pop\n        /* \"#utility.yul\":11086:11095   */\n      dup2\n        /* \"#utility.yul\":11080:11084   */\n      dup2\n        /* \"#utility.yul\":11076:11096   */\n      sub\n        /* \"#utility.yul\":11072:11073   */\n      0x00\n        /* \"#utility.yul\":11061:11070   */\n      dup4\n        /* \"#utility.yul\":11057:11074   */\n      add\n        /* \"#utility.yul\":11050:11097   */\n      mstore\n        /* \"#utility.yul\":11114:11245   */\n      tag_259\n        /* \"#utility.yul\":11240:11244   */\n      dup2\n        /* \"#utility.yul\":11114:11245   */\n      tag_209\n      jump\t// in\n    tag_259:\n        /* \"#utility.yul\":11106:11245   */\n      swap1\n      pop\n        /* \"#utility.yul\":10833:11252   */\n      swap2\n      swap1\n      pop\n      jump\t// out\n        /* \"#utility.yul\":11258:11480   */\n    tag_16:\n        /* \"#utility.yul\":11351:11355   */\n      0x00\n        /* \"#utility.yul\":11389:11391   */\n      0x20\n        /* \"#utility.yul\":11378:11387   */\n      dup3\n        /* \"#utility.yul\":11374:11392   */\n      add\n        /* \"#utility.yul\":11366:11392   */\n      swap1\n      pop\n        /* \"#utility.yul\":11402:11473   */\n      tag_261\n        /* \"#utility.yul\":11470:11471   */\n      0x00\n        /* \"#utility.yul\":11459:11468   */\n      dup4\n        /* \"#utility.yul\":11455:11472   */\n      add\n        /* \"#utility.yul\":11446:11452   */\n      dup5\n        /* \"#utility.yul\":11402:11473   */\n      tag_214\n      jump\t// in\n    tag_261:\n        /* \"#utility.yul\":11258:11480   */\n      swap3\n      swap2\n      pop\n      pop\n      jump\t// out\n        /* \"#utility.yul\":11486:12210   */\n    tag_28:\n        /* \"#utility.yul\":11563:11567   */\n      0x00\n        /* \"#utility.yul\":11569:11575   */\n      dup1\n        /* \"#utility.yul\":11625:11636   */\n      dup4\n        /* \"#utility.yul\":11612:11637   */\n      calldataload\n        /* \"#utility.yul\":11725:11726   */\n      0x01\n        /* \"#utility.yul\":11719:11723   */\n      0x20\n        /* \"#utility.yul\":11715:11727   */\n      sub\n        /* \"#utility.yul\":11704:11712   */\n      dup5\n        /* \"#utility.yul\":11688:11702   */\n      calldatasize\n        /* \"#utility.yul\":11684:11713   */\n      sub\n        /* \"#utility.yul\":11680:11728   */\n      sub\n        /* \"#utility.yul\":11660:11678   */\n      dup2\n        /* \"#utility.yul\":11656:11729   */\n      slt\n        /* \"#utility.yul\":11646:11814   */\n      tag_263\n      jumpi\n        /* \"#utility.yul\":11733:11812   */\n      tag_264\n      tag_265\n      jump\t// in\n    tag_264:\n        /* \"#utility.yul\":11646:11814   */\n    tag_263:\n        /* \"#utility.yul\":11845:11863   */\n      dup1\n        /* \"#utility.yul\":11835:11843   */\n      dup5\n        /* \"#utility.yul\":11831:11864   */\n      add\n        /* \"#utility.yul\":11823:11864   */\n      swap3\n      pop\n        /* \"#utility.yul\":11897:11901   */\n      dup3\n        /* \"#utility.yul\":11884:11902   */\n      calldataload\n        /* \"#utility.yul\":11874:11902   */\n      swap2\n      pop\n        /* \"#utility.yul\":11925:11943   */\n      0xffffffffffffffff\n        /* \"#utility.yul\":11917:11923   */\n      dup3\n        /* \"#utility.yul\":11914:11944   */\n      gt\n        /* \"#utility.yul\":11911:12028   */\n      iszero\n      tag_266\n      jumpi\n        /* \"#utility.yul\":11947:12026   */\n      tag_267\n      tag_268\n      jump\t// in\n    tag_267:\n        /* \"#utility.yul\":11911:12028   */\n    tag_266:\n        /* \"#utility.yul\":12055:12057   */\n      0x20\n        /* \"#utility.yul\":12049:12053   */\n      dup4\n        /* \"#utility.yul\":12045:12058   */\n      add\n        /* \"#utility.yul\":12037:12058   */\n      swap3\n      pop\n        /* \"#utility.yul\":12112:12116   */\n      0x01\n        /* \"#utility.yul\":12104:12110   */\n      dup3\n        /* \"#utility.yul\":12100:12117   */\n      mul\n        /* \"#utility.yul\":12084:12098   */\n      calldatasize\n        /* \"#utility.yul\":12080:12118   */\n      sub\n        /* \"#utility.yul\":12074:12078   */\n      dup4\n        /* \"#utility.yul\":12070:12119   */\n      sgt\n        /* \"#utility.yul\":12067:12203   */\n      iszero\n      tag_269\n      jumpi\n        /* \"#utility.yul\":12122:12201   */\n      tag_270\n      tag_271\n      jump\t// in\n    tag_270:\n        /* \"#utility.yul\":12067:12203   */\n    tag_269:\n        /* \"#utility.yul\":11576:12210   */\n      pop\n        /* \"#utility.yul\":11486:12210   */\n      swap3\n      pop\n      swap3\n      swap1\n      pop\n      jump\t// out\n        /* \"#utility.yul\":12297:12395   */\n    tag_183:\n        /* \"#utility.yul\":12348:12354   */\n      0x00\n        /* \"#utility.yul\":12382:12387   */\n      dup2\n        /* \"#utility.yul\":12376:12388   */\n      mload\n        /* \"#utility.yul\":12366:12388   */\n      swap1\n      pop\n        /* \"#utility.yul\":12297:12395   */\n      swap2\n      swap1\n      pop\n      jump\t// out\n        /* \"#utility.yul\":12401:12548   */\n    tag_177:\n        /* \"#utility.yul\":12502:12513   */\n      0x00\n        /* \"#utility.yul\":12539:12542   */\n      dup2\n        /* \"#utility.yul\":12524:12542   */\n      swap1\n      pop\n        /* \"#utility.yul\":12401:12548   */\n      swap3\n      swap2\n      pop\n      pop\n      jump\t// out\n        /* \"#utility.yul\":12554:12723   */\n    tag_190:\n        /* \"#utility.yul\":12638:12649   */\n      0x00\n        /* \"#utility.yul\":12672:12678   */\n      dup3\n        /* \"#utility.yul\":12667:12670   */\n      dup3\n        /* \"#utility.yul\":12660:12679   */\n      mstore\n        /* \"#utility.yul\":12712:12716   */\n      0x20\n        /* \"#utility.yul\":12707:12710   */\n      dup3\n        /* \"#utility.yul\":12703:12717   */\n      add\n        /* \"#utility.yul\":12688:12717   */\n      swap1\n      pop\n        /* \"#utility.yul\":12554:12723   */\n      swap3\n      swap2\n      pop\n      pop\n      jump\t// out\n        /* \"#utility.yul\":12729:12877   */\n    tag_206:\n        /* \"#utility.yul\":12831:12842   */\n      0x00\n        /* \"#utility.yul\":12868:12871   */\n      dup2\n        /* \"#utility.yul\":12853:12871   */\n      swap1\n      pop\n        /* \"#utility.yul\":12729:12877   */\n      swap3\n      swap2\n      pop\n      pop\n      jump\t// out\n        /* \"#utility.yul\":12883:13188   */\n    tag_24:\n        /* \"#utility.yul\":12923:12926   */\n      0x00\n        /* \"#utility.yul\":12942:12962   */\n      tag_279\n        /* \"#utility.yul\":12960:12961   */\n      dup3\n        /* \"#utility.yul\":12942:12962   */\n      tag_217\n      jump\t// in\n    tag_279:\n        /* \"#utility.yul\":12937:12962   */\n      swap2\n      pop\n        /* \"#utility.yul\":12976:12996   */\n      tag_280\n        /* \"#utility.yul\":12994:12995   */\n      dup4\n        /* \"#utility.yul\":12976:12996   */\n      tag_217\n      jump\t// in\n    tag_280:\n        /* \"#utility.yul\":12971:12996   */\n      swap3\n      pop\n        /* \"#utility.yul\":13130:13131   */\n      dup3\n        /* \"#utility.yul\":13062:13128   */\n      0xffffffffffffffffffffffffffffffffffffffffffffffffffffffffffffffff\n        /* \"#utility.yul\":13058:13132   */\n      sub\n        /* \"#utility.yul\":13055:13056   */\n      dup3\n        /* \"#utility.yul\":13052:13133   */\n      gt\n        /* \"#utility.yul\":13049:13156   */\n      iszero\n      tag_281\n      jumpi\n        /* \"#utility.yul\":13136:13154   */\n      tag_282\n      tag_283\n      jump\t// in\n    tag_282:\n        /* \"#utility.yul\":13049:13156   */\n    tag_281:\n        /* \"#utility.yul\":13180:13181   */\n      dup3\n        /* \"#utility.yul\":13177:13178   */\n      dup3\n        /* \"#utility.yul\":13173:13182   */\n      add\n        /* \"#utility.yul\":13166:13182   */\n      swap1\n      pop\n        /* \"#utility.yul\":12883:13188   */\n      swap3\n      swap2\n      pop\n      pop\n      jump\t// out\n        /* \"#utility.yul\":13194:13290   */\n    tag_155:\n        /* \"#utility.yul\":13231:13238   */\n      0x00\n        /* \"#utility.yul\":13260:13284   */\n      tag_285\n        /* \"#utility.yul\":13278:13283   */\n      dup3\n        /* \"#utility.yul\":13260:13284   */\n      tag_286\n      jump\t// in\n    tag_285:\n        /* \"#utility.yul\":13249:13284   */\n      swap1\n      pop\n        /* \"#utility.yul\":13194:13290   */\n      swap2\n      swap1\n      pop\n      jump\t// out\n        /* \"#utility.yul\":13296:13386   */\n    tag_164:\n        /* \"#utility.yul\":13330:13337   */\n      0x00\n        /* \"#utility.yul\":13373:13378   */\n      dup2\n        /* \"#utility.yul\":13366:13379   */\n      iszero\n        /* \"#utility.yul\":13359:13380   */\n      iszero\n        /* \"#utility.yul\":13348:13380   */\n      swap1\n      pop\n        /* \"#utility.yul\":13296:13386   */\n      swap2\n      swap1\n      pop\n      jump\t// out\n        /* \"#utility.yul\":13392:13469   */\n    tag_168:\n        /* \"#utility.yul\":13429:13436   */\n      0x00\n        /* \"#utility.yul\":13458:13463   */\n      dup2\n        /* \"#utility.yul\":13447:13463   */\n      swap1\n      pop\n        /* \"#utility.yul\":13392:13469   */\n      swap2\n      swap1\n      pop\n      jump\t// out\n        /* \"#utility.yul\":13475:13601   */\n    tag_286:\n        /* \"#utility.yul\":13512:13519   */\n      0x00\n        /* \"#utility.yul\":13552:13594   */\n      0xffffffffffffffffffffffffffffffffffffffff\n        /* \"#utility.yul\":13545:13550   */\n      dup3\n        /* \"#utility.yul\":13541:13595   */\n      and\n        /* \"#utility.yul\":13530:13595   */\n      swap1\n      pop\n        /* \"#utility.yul\":13475:13601   */\n      swap2\n      swap1\n      pop\n      jump\t// out\n        /* \"#utility.yul\":13607:13684   */\n    tag_217:\n        /* \"#utility.yul\":13644:13651   */\n      0x00\n        /* \"#utility.yul\":13673:13678   */\n      dup2\n        /* \"#utility.yul\":13662:13678   */\n      swap1\n      pop\n        /* \"#utility.yul\":13607:13684   */\n      swap2\n      swap1\n      pop\n      jump\t// out\n        /* \"#utility.yul\":13690:13776   */\n    tag_221:\n        /* \"#utility.yul\":13725:13732   */\n      0x00\n        /* \"#utility.yul\":13765:13769   */\n      0xff\n        /* \"#utility.yul\":13758:13763   */\n      dup3\n        /* \"#utility.yul\":13754:13770   */\n      and\n        /* \"#utility.yul\":13743:13770   */\n      swap1\n      pop\n        /* \"#utility.yul\":13690:13776   */\n      swap2\n      swap1\n      pop\n      jump\t// out\n        /* \"#utility.yul\":13782:13936   */\n    tag_179:\n        /* \"#utility.yul\":13866:13872   */\n      dup3\n        /* \"#utility.yul\":13861:13864   */\n      dup2\n        /* \"#utility.yul\":13856:13859   */\n      dup4\n        /* \"#utility.yul\":13843:13873   */\n      calldatacopy\n        /* \"#utility.yul\":13928:13929   */\n      0x00\n        /* \"#utility.yul\":13919:13925   */\n      dup4\n        /* \"#utility.yul\":13914:13917   */\n      dup4\n        /* \"#utility.yul\":13910:13926   */\n      add\n        /* \"#utility.yul\":13903:13930   */\n      mstore\n        /* \"#utility.yul\":13782:13936   */\n      pop\n      pop\n      pop\n      jump\t// out\n        /* \"#utility.yul\":13942:14249   */\n    tag_186:\n        /* \"#utility.yul\":14010:14011   */\n      0x00\n        /* \"#utility.yul\":14020:14133   */\n    tag_294:\n        /* \"#utility.yul\":14034:14040   */\n      dup4\n        /* \"#utility.yul\":14031:14032   */\n      dup2\n        /* \"#utility.yul\":14028:14041   */\n      lt\n        /* \"#utility.yul\":14020:14133   */\n      iszero\n      tag_296\n      jumpi\n        /* \"#utility.yul\":14119:14120   */\n      dup1\n        /* \"#utility.yul\":14114:14117   */\n      dup3\n        /* \"#utility.yul\":14110:14121   */\n      add\n        /* \"#utility.yul\":14104:14122   */\n      mload\n        /* \"#utility.yul\":14100:14101   */\n      dup2\n        /* \"#utility.yul\":14095:14098   */\n      dup5\n        /* \"#utility.yul\":14091:14102   */\n      add\n        /* \"#utility.yul\":14084:14123   */\n      mstore\n        /* \"#utility.yul\":14056:14058   */\n      0x20\n        /* \"#utility.yul\":14053:14054   */\n      dup2\n        /* \"#utility.yul\":14049:14059   */\n      add\n        /* \"#utility.yul\":14044:14059   */\n      swap1\n      pop\n        /* \"#utility.yul\":14020:14133   */\n      jump(tag_294)\n    tag_296:\n        /* \"#utility.yul\":14151:14157   */\n      dup4\n        /* \"#utility.yul\":14148:14149   */\n      dup2\n        /* \"#utility.yul\":14145:14158   */\n      gt\n        /* \"#utility.yul\":14142:14243   */\n      iszero\n      tag_297\n      jumpi\n        /* \"#utility.yul\":14231:14232   */\n      0x00\n        /* \"#utility.yul\":14222:14228   */\n      dup5\n        /* \"#utility.yul\":14217:14220   */\n      dup5\n        /* \"#utility.yul\":14213:14229   */\n      add\n        /* \"#utility.yul\":14206:14233   */\n      mstore\n        /* \"#utility.yul\":14142:14243   */\n    tag_297:\n        /* \"#utility.yul\":13991:14249   */\n      pop\n        /* \"#utility.yul\":13942:14249   */\n      pop\n      pop\n      pop\n      jump\t// out\n        /* \"#utility.yul\":14255:14355   */\n    tag_160:\n        /* \"#utility.yul\":14294:14301   */\n      0x00\n        /* \"#utility.yul\":14323:14349   */\n      tag_299\n        /* \"#utility.yul\":14343:14348   */\n      dup3\n        /* \"#utility.yul\":14323:14349   */\n      tag_300\n      jump\t// in\n    tag_299:\n        /* \"#utility.yul\":14312:14349   */\n      swap1\n      pop\n        /* \"#utility.yul\":14255:14355   */\n      swap2\n      swap1\n      pop\n      jump\t// out\n        /* \"#utility.yul\":14361:14440   */\n    tag_173:\n        /* \"#utility.yul\":14400:14407   */\n      0x00\n        /* \"#utility.yul\":14429:14434   */\n      dup2\n        /* \"#utility.yul\":14418:14434   */\n      swap1\n      pop\n        /* \"#utility.yul\":14361:14440   */\n      swap2\n      swap1\n      pop\n      jump\t// out\n        /* \"#utility.yul\":14446:14540   */\n    tag_300:\n        /* \"#utility.yul\":14485:14492   */\n      0x00\n        /* \"#utility.yul\":14514:14534   */\n      tag_303\n        /* \"#utility.yul\":14528:14533   */\n      dup3\n        /* \"#utility.yul\":14514:14534   */\n      tag_304\n      jump\t// in\n    tag_303:\n        /* \"#utility.yul\":14503:14534   */\n      swap1\n      pop\n        /* \"#utility.yul\":14446:14540   */\n      swap2\n      swap1\n      pop\n      jump\t// out\n        /* \"#utility.yul\":14546:14726   */\n    tag_283:\n        /* \"#utility.yul\":14594:14671   */\n      0x4e487b7100000000000000000000000000000000000000000000000000000000\n        /* \"#utility.yul\":14591:14592   */\n      0x00\n        /* \"#utility.yul\":14584:14672   */\n      mstore\n        /* \"#utility.yul\":14691:14695   */\n      0x11\n        /* \"#utility.yul\":14688:14689   */\n      0x04\n        /* \"#utility.yul\":14681:14696   */\n      mstore\n        /* \"#utility.yul\":14715:14719   */\n      0x24\n        /* \"#utility.yul\":14712:14713   */\n      0x00\n        /* \"#utility.yul\":14705:14720   */\n      revert\n        /* \"#utility.yul\":14732:14912   */\n    tag_78:\n        /* \"#utility.yul\":14780:14857   */\n      0x4e487b7100000000000000000000000000000000000000000000000000000000\n        /* \"#utility.yul\":14777:14778   */\n      0x00\n        /* \"#utility.yul\":14770:14858   */\n      mstore\n        /* \"#utility.yul\":14877:14881   */\n      0x21\n        /* \"#utility.yul\":14874:14875   */\n      0x04\n        /* \"#utility.yul\":14867:14882   */\n      mstore\n        /* \"#utility.yul\":14901:14905   */\n      0x24\n        /* \"#utility.yul\":14898:14899   */\n      0x00\n        /* \"#utility.yul\":14891:14906   */\n      revert\n        /* \"#utility.yul\":14918:15035   */\n    tag_128:\n        /* \"#utility.yul\":15027:15028   */\n      0x00\n        /* \"#utility.yul\":15024:15025   */\n      dup1\n        /* \"#utility.yul\":15017:15029   */\n      revert\n        /* \"#utility.yul\":15041:15158   */\n    tag_125:\n        /* \"#utility.yul\":15150:15151   */\n      0x00\n        /* \"#utility.yul\":15147:15148   */\n      dup1\n        /* \"#utility.yul\":15140:15152   */\n      revert\n        /* \"#utility.yul\":15164:15281   */\n    tag_268:\n        /* \"#utility.yul\":15273:15274   */\n      0x00\n        /* \"#utility.yul\":15270:15271   */\n      dup1\n        /* \"#utility.yul\":15263:15275   */\n      revert\n        /* \"#utility.yul\":15287:15404   */\n    tag_136:\n        /* \"#utility.yul\":15396:15397   */\n      0x00\n        /* \"#utility.yul\":15393:15394   */\n      dup1\n        /* \"#utility.yul\":15386:15398   */\n      revert\n        /* \"#utility.yul\":15410:15527   */\n    tag_265:\n        /* \"#utility.yul\":15519:15520   */\n      0x00\n        /* \"#utility.yul\":15516:15517   */\n      dup1\n        /* \"#utility.yul\":15509:15521   */\n      revert\n        /* \"#utility.yul\":15533:15650   */\n    tag_131:\n        /* \"#utility.yul\":15642:15643   */\n      0x00\n        /* \"#utility.yul\":15639:15640   */\n      dup1\n        /* \"#utility.yul\":15632:15644   */\n      revert\n        /* \"#utility.yul\":15656:15773   */\n    tag_271:\n        /* \"#utility.yul\":15765:15766   */\n      0x00\n        /* \"#utility.yul\":15762:15763   */\n      dup1\n        /* \"#utility.yul\":15755:15767   */\n      revert\n        /* \"#utility.yul\":15779:15896   */\n    tag_147:\n        /* \"#utility.yul\":15888:15889   */\n      0x00\n        /* \"#utility.yul\":15885:15886   */\n      dup1\n        /* \"#utility.yul\":15878:15890   */\n      revert\n        /* \"#utility.yul\":15902:16019   */\n    tag_140:\n        /* \"#utility.yul\":16011:16012   */\n      0x00\n        /* \"#utility.yul\":16008:16009   */\n      dup1\n        /* \"#utility.yul\":16001:16013   */\n      revert\n        /* \"#utility.yul\":16025:16119   */\n    tag_304:\n        /* \"#utility.yul\":16058:16066   */\n      0x00\n        /* \"#utility.yul\":16106:16111   */\n      dup2\n        /* \"#utility.yul\":16102:16104   */\n      0x60\n        /* \"#utility.yul\":16098:16112   */\n      shl\n        /* \"#utility.yul\":16077:16112   */\n      swap1\n      pop\n        /* \"#utility.yul\":16025:16119   */\n      swap2\n      swap1\n      pop\n      jump\t// out\n        /* \"#utility.yul\":16125:16299   */\n    tag_192:\n        /* \"#utility.yul\":16265:16291   */\n      0x45434453413a20696e76616c6964207369676e61747572650000000000000000\n        /* \"#utility.yul\":16261:16262   */\n      0x00\n        /* \"#utility.yul\":16253:16259   */\n      dup3\n        /* \"#utility.yul\":16249:16263   */\n      add\n        /* \"#utility.yul\":16242:16292   */\n      mstore\n        /* \"#utility.yul\":16125:16299   */\n      pop\n      jump\t// out\n        /* \"#utility.yul\":16305:16486   */\n    tag_197:\n        /* \"#utility.yul\":16445:16478   */\n      0x45434453413a20696e76616c6964207369676e6174757265206c656e67746800\n        /* \"#utility.yul\":16441:16442   */\n      0x00\n        /* \"#utility.yul\":16433:16439   */\n      dup3\n        /* \"#utility.yul\":16429:16443   */\n      add\n        /* \"#utility.yul\":16422:16479   */\n      mstore\n        /* \"#utility.yul\":16305:16486   */\n      pop\n      jump\t// out\n        /* \"#utility.yul\":16492:16718   */\n    tag_202:\n        /* \"#utility.yul\":16632:16666   */\n      0x506c61747a69546f6b656e466f727761726465723a20496e76616c6964207369\n        /* \"#utility.yul\":16628:16629   */\n      0x00\n        /* \"#utility.yul\":16620:16626   */\n      dup3\n        /* \"#utility.yul\":16616:16630   */\n      add\n        /* \"#utility.yul\":16609:16667   */\n      mstore\n        /* \"#utility.yul\":16701:16710   */\n      0x676e617475726500000000000000000000000000000000000000000000000000\n        /* \"#utility.yul\":16696:16698   */\n      0x20\n        /* \"#utility.yul\":16688:16694   */\n      dup3\n        /* \"#utility.yul\":16684:16699   */\n      add\n        /* \"#utility.yul\":16677:16711   */\n      mstore\n        /* \"#utility.yul\":16492:16718   */\n      pop\n      jump\t// out\n        /* \"#utility.yul\":16724:16938   */\n    tag_208:\n        /* \"#utility.yul\":16864:16930   */\n      0x1901000000000000000000000000000000000000000000000000000000000000\n        /* \"#utility.yul\":16860:16861   */\n      0x00\n        /* \"#utility.yul\":16852:16858   */\n      dup3\n        /* \"#utility.yul\":16848:16862   */\n      add\n        /* \"#utility.yul\":16841:16931   */\n      mstore\n        /* \"#utility.yul\":16724:16938   */\n      pop\n      jump\t// out\n        /* \"#utility.yul\":16944:17165   */\n    tag_213:\n        /* \"#utility.yul\":17084:17118   */\n      0x45434453413a20696e76616c6964207369676e6174757265202773272076616c\n        /* \"#utility.yul\":17080:17081   */\n      0x00\n        /* \"#utility.yul\":17072:17078   */\n      dup3\n        /* \"#utility.yul\":17068:17082   */\n      add\n        /* \"#utility.yul\":17061:17119   */\n      mstore\n        /* \"#utility.yul\":17153:17157   */\n      0x7565000000000000000000000000000000000000000000000000000000000000\n        /* \"#utility.yul\":17148:17150   */\n      0x20\n        /* \"#utility.yul\":17140:17146   */\n      dup3\n        /* \"#utility.yul\":17136:17151   */\n      add\n        /* \"#utility.yul\":17129:17158   */\n      mstore\n        /* \"#utility.yul\":16944:17165   */\n      pop\n      jump\t// out\n        /* \"#utility.yul\":17171:17293   */\n    tag_120:\n        /* \"#utility.yul\":17244:17268   */\n      tag_323\n        /* \"#utility.yul\":17262:17267   */\n      dup2\n        /* \"#utility.yul\":17244:17268   */\n      tag_155\n      jump\t// in\n    tag_323:\n        /* \"#utility.yul\":17237:17242   */\n      dup2\n        /* \"#utility.yul\":17234:17269   */\n      eq\n        /* \"#utility.yul\":17224:17287   */\n      tag_324\n      jumpi\n        /* \"#utility.yul\":17283:17284   */\n      0x00\n        /* \"#utility.yul\":17280:17281   */\n      dup1\n        /* \"#utility.yul\":17273:17285   */\n      revert\n        /* \"#utility.yul\":17224:17287   */\n    tag_324:\n        /* \"#utility.yul\":17171:17293   */\n      pop\n      jump\t// out\n\n    auxdata: 0xa264697066735822122084e67a629d90990a31bb32f69f7f840106c3f85ac23b42922e5157403c907a7764736f6c63430008070033\n}\n",
				"bytecode": {
					"linkReferences": {},
					"object": "6101406040523480156200001257600080fd5b506040518060400160405280601481526020017f506c61747a69546f6b656e466f727761726465720000000000000000000000008152506040518060400160405280600581526020017f302e302e3100000000000000000000000000000000000000000000000000000081525060008280519060200120905060008280519060200120905060007f8b73c3c69bb8fe3d512ecc4cf759cc79239f7b179b0ffacaa9a75d522b39400f90508260e081815250508161010081815250504660a08181525050620000e88184846200013a60201b60201c565b608081815250503073ffffffffffffffffffffffffffffffffffffffff1660c08173ffffffffffffffffffffffffffffffffffffffff1660601b8152505080610120818152505050505050506200024e565b6000838383463060405160200162000157959493929190620001a9565b6040516020818303038152906040528051906020012090509392505050565b620001818162000206565b82525050565b62000192816200021a565b82525050565b620001a38162000244565b82525050565b600060a082019050620001c0600083018862000187565b620001cf602083018762000187565b620001de604083018662000187565b620001ed606083018562000198565b620001fc608083018462000176565b9695505050505050565b6000620002138262000224565b9050919050565b6000819050919050565b600073ffffffffffffffffffffffffffffffffffffffff82169050919050565b6000819050919050565b60805160a05160c05160601c60e05161010051610120516110ae620002a16000396000610497015260006104d9015260006104b8015260006103ed015260006104430152600061046c01526110ae6000f3fe608060405234801561001057600080fd5b50600436106100365760003560e01c8063246eb08a1461003b5780632d0335ab1461006b575b600080fd5b610055600480360381019061005091906108ca565b61009b565b6040516100629190610b55565b60405180910390f35b6100856004803603810190610080919061089d565b610219565b6040516100929190610cdb565b60405180910390f35b60006100a8848484610261565b6100e7576040517f08c379a00000000000000000000000000000000000000000000000000000000081526004016100de90610c9b565b60405180910390fd5b600184604001356100f89190610d8b565b60008086600001602081019061010e919061089d565b73ffffffffffffffffffffffffffffffffffffffff1673ffffffffffffffffffffffffffffffffffffffff168152602001908152602001600020819055506000846020016020810190610161919061089d565b73ffffffffffffffffffffffffffffffffffffffff168580606001906101879190610cf6565b87600001602081019061019a919061089d565b6040516020016101ac93929190610add565b6040516020818303038152906040526040516101c89190610b07565b6000604051808303816000865af19150503d8060008114610205576040519150601f19603f3d011682016040523d82523d6000602084013e61020a565b606091505b50509050809150509392505050565b60008060008373ffffffffffffffffffffffffffffffffffffffff1673ffffffffffffffffffffffffffffffffffffffff168152602001908152602001600020549050919050565b6000806103087f36681a028591c327276b03aa08c79763f63827d2c649f30020177cb742928c2d86600001602081019061029b919061089d565b8760200160208101906102ae919061089d565b88604001358980606001906102c39190610cf6565b6040516102d1929190610ac4565b60405180910390206040516020016102ed959493929190610b70565b604051602081830303815290604052805190602001206103a8565b9050600061035a8286868080601f016020809104026020016040519081016040528093929190818152602001838380828437600081840152601f19601f820116905080830192505050505050506103c2565b905085600001602081019061036f919061089d565b73ffffffffffffffffffffffffffffffffffffffff168173ffffffffffffffffffffffffffffffffffffffff1614925050509392505050565b60006103bb6103b56103e9565b83610503565b9050919050565b60008060006103d18585610536565b915091506103de81610588565b819250505092915050565b60007f000000000000000000000000000000000000000000000000000000000000000073ffffffffffffffffffffffffffffffffffffffff163073ffffffffffffffffffffffffffffffffffffffff1614801561046557507f000000000000000000000000000000000000000000000000000000000000000046145b15610492577f00000000000000000000000000000000000000000000000000000000000000009050610500565b6104fd7f00000000000000000000000000000000000000000000000000000000000000007f00000000000000000000000000000000000000000000000000000000000000007f00000000000000000000000000000000000000000000000000000000000000006106f6565b90505b90565b60008282604051602001610518929190610b1e565b60405160208183030381529060405280519060200120905092915050565b6000806041835114156105785760008060006020860151925060408601519150606086015160001a905061056c87828585610730565b94509450505050610581565b60006002915091505b9250929050565b6000600481111561059c5761059b610edf565b5b8160048111156105af576105ae610edf565b5b14156105ba576106f3565b600160048111156105ce576105cd610edf565b5b8160048111156105e1576105e0610edf565b5b1415610622576040517f08c379a000000000000000000000000000000000000000000000000000000000815260040161061990610c5b565b60405180910390fd5b6002600481111561063657610635610edf565b5b81600481111561064957610648610edf565b5b141561068a576040517f08c379a000000000000000000000000000000000000000000000000000000000815260040161068190610c7b565b60405180910390fd5b6003600481111561069e5761069d610edf565b5b8160048111156106b1576106b0610edf565b5b14156106f2576040517f08c379a00000000000000000000000000000000000000000000000000000000081526004016106e990610cbb565b60405180910390fd5b5b50565b60008383834630604051602001610711959493929190610bc3565b6040516020818303038152906040528051906020012090509392505050565b6000807f7fffffffffffffffffffffffffffffff5d576e7357a4501ddfe92f46681b20a08360001c111561076b57600060039150915061080a565b6000600187878787604051600081526020016040526040516107909493929190610c16565b6020604051602081039080840390855afa1580156107b2573d6000803e3d6000fd5b505050602060405103519050600073ffffffffffffffffffffffffffffffffffffffff168173ffffffffffffffffffffffffffffffffffffffff1614156108015760006001925092505061080a565b80600092509250505b94509492505050565b60008135905061082281611061565b92915050565b60008083601f84011261083e5761083d610f13565b5b8235905067ffffffffffffffff81111561085b5761085a610f0e565b5b60208301915083600182028301111561087757610876610f27565b5b9250929050565b60006080828403121561089457610893610f1d565b5b81905092915050565b6000602082840312156108b3576108b2610f36565b5b60006108c184828501610813565b91505092915050565b6000806000604084860312156108e3576108e2610f36565b5b600084013567ffffffffffffffff81111561090157610900610f31565b5b61090d8682870161087e565b935050602084013567ffffffffffffffff81111561092e5761092d610f31565b5b61093a86828701610828565b92509250509250925092565b61094f81610de1565b82525050565b61096661096182610de1565b610e82565b82525050565b61097581610df3565b82525050565b61098481610dff565b82525050565b61099b61099682610dff565b610e94565b82525050565b60006109ad8385610d64565b93506109ba838584610e40565b82840190509392505050565b60006109d182610d59565b6109db8185610d64565b93506109eb818560208601610e4f565b80840191505092915050565b6000610a04601883610d6f565b9150610a0f82610f48565b602082019050919050565b6000610a27601f83610d6f565b9150610a3282610f71565b602082019050919050565b6000610a4a602783610d6f565b9150610a5582610f9a565b604082019050919050565b6000610a6d600283610d80565b9150610a7882610fe9565b600282019050919050565b6000610a90602283610d6f565b9150610a9b82611012565b604082019050919050565b610aaf81610e29565b82525050565b610abe81610e33565b82525050565b6000610ad18284866109a1565b91508190509392505050565b6000610aea8285876109a1565b9150610af68284610955565b601482019150819050949350505050565b6000610b1382846109c6565b915081905092915050565b6000610b2982610a60565b9150610b35828561098a565b602082019150610b45828461098a565b6020820191508190509392505050565b6000602082019050610b6a600083018461096c565b92915050565b600060a082019050610b85600083018861097b565b610b926020830187610946565b610b9f6040830186610946565b610bac6060830185610aa6565b610bb9608083018461097b565b9695505050505050565b600060a082019050610bd8600083018861097b565b610be5602083018761097b565b610bf2604083018661097b565b610bff6060830185610aa6565b610c0c6080830184610946565b9695505050505050565b6000608082019050610c2b600083018761097b565b610c386020830186610ab5565b610c45604083018561097b565b610c52606083018461097b565b95945050505050565b60006020820190508181036000830152610c74816109f7565b9050919050565b60006020820190508181036000830152610c9481610a1a565b9050919050565b60006020820190508181036000830152610cb481610a3d565b9050919050565b60006020820190508181036000830152610cd481610a83565b9050919050565b6000602082019050610cf06000830184610aa6565b92915050565b60008083356001602003843603038112610d1357610d12610f22565b5b80840192508235915067ffffffffffffffff821115610d3557610d34610f18565b5b602083019250600182023603831315610d5157610d50610f2c565b5b509250929050565b600081519050919050565b600081905092915050565b600082825260208201905092915050565b600081905092915050565b6000610d9682610e29565b9150610da183610e29565b9250827fffffffffffffffffffffffffffffffffffffffffffffffffffffffffffffffff03821115610dd657610dd5610eb0565b5b828201905092915050565b6000610dec82610e09565b9050919050565b60008115159050919050565b6000819050919050565b600073ffffffffffffffffffffffffffffffffffffffff82169050919050565b6000819050919050565b600060ff82169050919050565b82818337600083830152505050565b60005b83811015610e6d578082015181840152602081019050610e52565b83811115610e7c576000848401525b50505050565b6000610e8d82610e9e565b9050919050565b6000819050919050565b6000610ea982610f3b565b9050919050565b7f4e487b7100000000000000000000000000000000000000000000000000000000600052601160045260246000fd5b7f4e487b7100000000000000000000000000000000000000000000000000000000600052602160045260246000fd5b600080fd5b600080fd5b600080fd5b600080fd5b600080fd5b600080fd5b600080fd5b600080fd5b600080fd5b60008160601b9050919050565b7f45434453413a20696e76616c6964207369676e61747572650000000000000000600082015250565b7f45434453413a20696e76616c6964207369676e6174757265206c656e67746800600082015250565b7f506c61747a69546f6b656e466f727761726465723a20496e76616c696420736960008201527f676e617475726500000000000000000000000000000000000000000000000000602082015250565b7f1901000000000000000000000000000000000000000000000000000000000000600082015250565b7f45434453413a20696e76616c6964207369676e6174757265202773272076616c60008201527f7565000000000000000000000000000000000000000000000000000000000000602082015250565b61106a81610de1565b811461107557600080fd5b5056fea264697066735822122084e67a629d90990a31bb32f69f7f840106c3f85ac23b42922e5157403c907a7764736f6c63430008070033",
					"opcodes": "PUSH2 0x140 PUSH1 0x40 MSTORE CALLVALUE DUP1 ISZERO PUSH3 0x12 JUMPI PUSH1 0x0 DUP1 REVERT JUMPDEST POP PUSH1 0x40 MLOAD DUP1 PUSH1 0x40 ADD PUSH1 0x40 MSTORE DUP1 PUSH1 0x14 DUP2 MSTORE PUSH1 0x20 ADD PUSH32 0x506C61747A69546F6B656E466F72776172646572000000000000000000000000 DUP2 MSTORE POP PUSH1 0x40 MLOAD DUP1 PUSH1 0x40 ADD PUSH1 0x40 MSTORE DUP1 PUSH1 0x5 DUP2 MSTORE PUSH1 0x20 ADD PUSH32 0x302E302E31000000000000000000000000000000000000000000000000000000 DUP2 MSTORE POP PUSH1 0x0 DUP3 DUP1 MLOAD SWAP1 PUSH1 0x20 ADD KECCAK256 SWAP1 POP PUSH1 0x0 DUP3 DUP1 MLOAD SWAP1 PUSH1 0x20 ADD KECCAK256 SWAP1 POP PUSH1 0x0 PUSH32 0x8B73C3C69BB8FE3D512ECC4CF759CC79239F7B179B0FFACAA9A75D522B39400F SWAP1 POP DUP3 PUSH1 0xE0 DUP2 DUP2 MSTORE POP POP DUP2 PUSH2 0x100 DUP2 DUP2 MSTORE POP POP CHAINID PUSH1 0xA0 DUP2 DUP2 MSTORE POP POP PUSH3 0xE8 DUP2 DUP5 DUP5 PUSH3 0x13A PUSH1 0x20 SHL PUSH1 0x20 SHR JUMP JUMPDEST PUSH1 0x80 DUP2 DUP2 MSTORE POP POP ADDRESS PUSH20 0xFFFFFFFFFFFFFFFFFFFFFFFFFFFFFFFFFFFFFFFF AND PUSH1 0xC0 DUP2 PUSH20 0xFFFFFFFFFFFFFFFFFFFFFFFFFFFFFFFFFFFFFFFF AND PUSH1 0x60 SHL DUP2 MSTORE POP POP DUP1 PUSH2 0x120 DUP2 DUP2 MSTORE POP POP POP POP POP POP POP PUSH3 0x24E JUMP JUMPDEST PUSH1 0x0 DUP4 DUP4 DUP4 CHAINID ADDRESS PUSH1 0x40 MLOAD PUSH1 0x20 ADD PUSH3 0x157 SWAP6 SWAP5 SWAP4 SWAP3 SWAP2 SWAP1 PUSH3 0x1A9 JUMP JUMPDEST PUSH1 0x40 MLOAD PUSH1 0x20 DUP2 DUP4 SUB SUB DUP2 MSTORE SWAP1 PUSH1 0x40 MSTORE DUP1 MLOAD SWAP1 PUSH1 0x20 ADD KECCAK256 SWAP1 POP SWAP4 SWAP3 POP POP POP JUMP JUMPDEST PUSH3 0x181 DUP2 PUSH3 0x206 JUMP JUMPDEST DUP3 MSTORE POP POP JUMP JUMPDEST PUSH3 0x192 DUP2 PUSH3 0x21A JUMP JUMPDEST DUP3 MSTORE POP POP JUMP JUMPDEST PUSH3 0x1A3 DUP2 PUSH3 0x244 JUMP JUMPDEST DUP3 MSTORE POP POP JUMP JUMPDEST PUSH1 0x0 PUSH1 0xA0 DUP3 ADD SWAP1 POP PUSH3 0x1C0 PUSH1 0x0 DUP4 ADD DUP9 PUSH3 0x187 JUMP JUMPDEST PUSH3 0x1CF PUSH1 0x20 DUP4 ADD DUP8 PUSH3 0x187 JUMP JUMPDEST PUSH3 0x1DE PUSH1 0x40 DUP4 ADD DUP7 PUSH3 0x187 JUMP JUMPDEST PUSH3 0x1ED PUSH1 0x60 DUP4 ADD DUP6 PUSH3 0x198 JUMP JUMPDEST PUSH3 0x1FC PUSH1 0x80 DUP4 ADD DUP5 PUSH3 0x176 JUMP JUMPDEST SWAP7 SWAP6 POP POP POP POP POP POP JUMP JUMPDEST PUSH1 0x0 PUSH3 0x213 DUP3 PUSH3 0x224 JUMP JUMPDEST SWAP1 POP SWAP2 SWAP1 POP JUMP JUMPDEST PUSH1 0x0 DUP2 SWAP1 POP SWAP2 SWAP1 POP JUMP JUMPDEST PUSH1 0x0 PUSH20 0xFFFFFFFFFFFFFFFFFFFFFFFFFFFFFFFFFFFFFFFF DUP3 AND SWAP1 POP SWAP2 SWAP1 POP JUMP JUMPDEST PUSH1 0x0 DUP2 SWAP1 POP SWAP2 SWAP1 POP JUMP JUMPDEST PUSH1 0x80 MLOAD PUSH1 0xA0 MLOAD PUSH1 0xC0 MLOAD PUSH1 0x60 SHR PUSH1 0xE0 MLOAD PUSH2 0x100 MLOAD PUSH2 0x120 MLOAD PUSH2 0x10AE PUSH3 0x2A1 PUSH1 0x0 CODECOPY PUSH1 0x0 PUSH2 0x497 ADD MSTORE PUSH1 0x0 PUSH2 0x4D9 ADD MSTORE PUSH1 0x0 PUSH2 0x4B8 ADD MSTORE PUSH1 0x0 PUSH2 0x3ED ADD MSTORE PUSH1 0x0 PUSH2 0x443 ADD MSTORE PUSH1 0x0 PUSH2 0x46C ADD MSTORE PUSH2 0x10AE PUSH1 0x0 RETURN INVALID PUSH1 0x80 PUSH1 0x40 MSTORE CALLVALUE DUP1 ISZERO PUSH2 0x10 JUMPI PUSH1 0x0 DUP1 REVERT JUMPDEST POP PUSH1 0x4 CALLDATASIZE LT PUSH2 0x36 JUMPI PUSH1 0x0 CALLDATALOAD PUSH1 0xE0 SHR DUP1 PUSH4 0x246EB08A EQ PUSH2 0x3B JUMPI DUP1 PUSH4 0x2D0335AB EQ PUSH2 0x6B JUMPI JUMPDEST PUSH1 0x0 DUP1 REVERT JUMPDEST PUSH2 0x55 PUSH1 0x4 DUP1 CALLDATASIZE SUB DUP2 ADD SWAP1 PUSH2 0x50 SWAP2 SWAP1 PUSH2 0x8CA JUMP JUMPDEST PUSH2 0x9B JUMP JUMPDEST PUSH1 0x40 MLOAD PUSH2 0x62 SWAP2 SWAP1 PUSH2 0xB55 JUMP JUMPDEST PUSH1 0x40 MLOAD DUP1 SWAP2 SUB SWAP1 RETURN JUMPDEST PUSH2 0x85 PUSH1 0x4 DUP1 CALLDATASIZE SUB DUP2 ADD SWAP1 PUSH2 0x80 SWAP2 SWAP1 PUSH2 0x89D JUMP JUMPDEST PUSH2 0x219 JUMP JUMPDEST PUSH1 0x40 MLOAD PUSH2 0x92 SWAP2 SWAP1 PUSH2 0xCDB JUMP JUMPDEST PUSH1 0x40 MLOAD DUP1 SWAP2 SUB SWAP1 RETURN JUMPDEST PUSH1 0x0 PUSH2 0xA8 DUP5 DUP5 DUP5 PUSH2 0x261 JUMP JUMPDEST PUSH2 0xE7 JUMPI PUSH1 0x40 MLOAD PUSH32 0x8C379A000000000000000000000000000000000000000000000000000000000 DUP2 MSTORE PUSH1 0x4 ADD PUSH2 0xDE SWAP1 PUSH2 0xC9B JUMP JUMPDEST PUSH1 0x40 MLOAD DUP1 SWAP2 SUB SWAP1 REVERT JUMPDEST PUSH1 0x1 DUP5 PUSH1 0x40 ADD CALLDATALOAD PUSH2 0xF8 SWAP2 SWAP1 PUSH2 0xD8B JUMP JUMPDEST PUSH1 0x0 DUP1 DUP7 PUSH1 0x0 ADD PUSH1 0x20 DUP2 ADD SWAP1 PUSH2 0x10E SWAP2 SWAP1 PUSH2 0x89D JUMP JUMPDEST PUSH20 0xFFFFFFFFFFFFFFFFFFFFFFFFFFFFFFFFFFFFFFFF AND PUSH20 0xFFFFFFFFFFFFFFFFFFFFFFFFFFFFFFFFFFFFFFFF AND DUP2 MSTORE PUSH1 0x20 ADD SWAP1 DUP2 MSTORE PUSH1 0x20 ADD PUSH1 0x0 KECCAK256 DUP2 SWAP1 SSTORE POP PUSH1 0x0 DUP5 PUSH1 0x20 ADD PUSH1 0x20 DUP2 ADD SWAP1 PUSH2 0x161 SWAP2 SWAP1 PUSH2 0x89D JUMP JUMPDEST PUSH20 0xFFFFFFFFFFFFFFFFFFFFFFFFFFFFFFFFFFFFFFFF AND DUP6 DUP1 PUSH1 0x60 ADD SWAP1 PUSH2 0x187 SWAP2 SWAP1 PUSH2 0xCF6 JUMP JUMPDEST DUP8 PUSH1 0x0 ADD PUSH1 0x20 DUP2 ADD SWAP1 PUSH2 0x19A SWAP2 SWAP1 PUSH2 0x89D JUMP JUMPDEST PUSH1 0x40 MLOAD PUSH1 0x20 ADD PUSH2 0x1AC SWAP4 SWAP3 SWAP2 SWAP1 PUSH2 0xADD JUMP JUMPDEST PUSH1 0x40 MLOAD PUSH1 0x20 DUP2 DUP4 SUB SUB DUP2 MSTORE SWAP1 PUSH1 0x40 MSTORE PUSH1 0x40 MLOAD PUSH2 0x1C8 SWAP2 SWAP1 PUSH2 0xB07 JUMP JUMPDEST PUSH1 0x0 PUSH1 0x40 MLOAD DUP1 DUP4 SUB DUP2 PUSH1 0x0 DUP7 GAS CALL SWAP2 POP POP RETURNDATASIZE DUP1 PUSH1 0x0 DUP2 EQ PUSH2 0x205 JUMPI PUSH1 0x40 MLOAD SWAP2 POP PUSH1 0x1F NOT PUSH1 0x3F RETURNDATASIZE ADD AND DUP3 ADD PUSH1 0x40 MSTORE RETURNDATASIZE DUP3 MSTORE RETURNDATASIZE PUSH1 0x0 PUSH1 0x20 DUP5 ADD RETURNDATACOPY PUSH2 0x20A JUMP JUMPDEST PUSH1 0x60 SWAP2 POP JUMPDEST POP POP SWAP1 POP DUP1 SWAP2 POP POP SWAP4 SWAP3 POP POP POP JUMP JUMPDEST PUSH1 0x0 DUP1 PUSH1 0x0 DUP4 PUSH20 0xFFFFFFFFFFFFFFFFFFFFFFFFFFFFFFFFFFFFFFFF AND PUSH20 0xFFFFFFFFFFFFFFFFFFFFFFFFFFFFFFFFFFFFFFFF AND DUP2 MSTORE PUSH1 0x20 ADD SWAP1 DUP2 MSTORE PUSH1 0x20 ADD PUSH1 0x0 KECCAK256 SLOAD SWAP1 POP SWAP2 SWAP1 POP JUMP JUMPDEST PUSH1 0x0 DUP1 PUSH2 0x308 PUSH32 0x36681A028591C327276B03AA08C79763F63827D2C649F30020177CB742928C2D DUP7 PUSH1 0x0 ADD PUSH1 0x20 DUP2 ADD SWAP1 PUSH2 0x29B SWAP2 SWAP1 PUSH2 0x89D JUMP JUMPDEST DUP8 PUSH1 0x20 ADD PUSH1 0x20 DUP2 ADD SWAP1 PUSH2 0x2AE SWAP2 SWAP1 PUSH2 0x89D JUMP JUMPDEST DUP9 PUSH1 0x40 ADD CALLDATALOAD DUP10 DUP1 PUSH1 0x60 ADD SWAP1 PUSH2 0x2C3 SWAP2 SWAP1 PUSH2 0xCF6 JUMP JUMPDEST PUSH1 0x40 MLOAD PUSH2 0x2D1 SWAP3 SWAP2 SWAP1 PUSH2 0xAC4 JUMP JUMPDEST PUSH1 0x40 MLOAD DUP1 SWAP2 SUB SWAP1 KECCAK256 PUSH1 0x40 MLOAD PUSH1 0x20 ADD PUSH2 0x2ED SWAP6 SWAP5 SWAP4 SWAP3 SWAP2 SWAP1 PUSH2 0xB70 JUMP JUMPDEST PUSH1 0x40 MLOAD PUSH1 0x20 DUP2 DUP4 SUB SUB DUP2 MSTORE SWAP1 PUSH1 0x40 MSTORE DUP1 MLOAD SWAP1 PUSH1 0x20 ADD KECCAK256 PUSH2 0x3A8 JUMP JUMPDEST SWAP1 POP PUSH1 0x0 PUSH2 0x35A DUP3 DUP7 DUP7 DUP1 DUP1 PUSH1 0x1F ADD PUSH1 0x20 DUP1 SWAP2 DIV MUL PUSH1 0x20 ADD PUSH1 0x40 MLOAD SWAP1 DUP2 ADD PUSH1 0x40 MSTORE DUP1 SWAP4 SWAP3 SWAP2 SWAP1 DUP2 DUP2 MSTORE PUSH1 0x20 ADD DUP4 DUP4 DUP1 DUP3 DUP5 CALLDATACOPY PUSH1 0x0 DUP2 DUP5 ADD MSTORE PUSH1 0x1F NOT PUSH1 0x1F DUP3 ADD AND SWAP1 POP DUP1 DUP4 ADD SWAP3 POP POP POP POP POP POP POP PUSH2 0x3C2 JUMP JUMPDEST SWAP1 POP DUP6 PUSH1 0x0 ADD PUSH1 0x20 DUP2 ADD SWAP1 PUSH2 0x36F SWAP2 SWAP1 PUSH2 0x89D JUMP JUMPDEST PUSH20 0xFFFFFFFFFFFFFFFFFFFFFFFFFFFFFFFFFFFFFFFF AND DUP2 PUSH20 0xFFFFFFFFFFFFFFFFFFFFFFFFFFFFFFFFFFFFFFFF AND EQ SWAP3 POP POP POP SWAP4 SWAP3 POP POP POP JUMP JUMPDEST PUSH1 0x0 PUSH2 0x3BB PUSH2 0x3B5 PUSH2 0x3E9 JUMP JUMPDEST DUP4 PUSH2 0x503 JUMP JUMPDEST SWAP1 POP SWAP2 SWAP1 POP JUMP JUMPDEST PUSH1 0x0 DUP1 PUSH1 0x0 PUSH2 0x3D1 DUP6 DUP6 PUSH2 0x536 JUMP JUMPDEST SWAP2 POP SWAP2 POP PUSH2 0x3DE DUP2 PUSH2 0x588 JUMP JUMPDEST DUP2 SWAP3 POP POP POP SWAP3 SWAP2 POP POP JUMP JUMPDEST PUSH1 0x0 PUSH32 0x0 PUSH20 0xFFFFFFFFFFFFFFFFFFFFFFFFFFFFFFFFFFFFFFFF AND ADDRESS PUSH20 0xFFFFFFFFFFFFFFFFFFFFFFFFFFFFFFFFFFFFFFFF AND EQ DUP1 ISZERO PUSH2 0x465 JUMPI POP PUSH32 0x0 CHAINID EQ JUMPDEST ISZERO PUSH2 0x492 JUMPI PUSH32 0x0 SWAP1 POP PUSH2 0x500 JUMP JUMPDEST PUSH2 0x4FD PUSH32 0x0 PUSH32 0x0 PUSH32 0x0 PUSH2 0x6F6 JUMP JUMPDEST SWAP1 POP JUMPDEST SWAP1 JUMP JUMPDEST PUSH1 0x0 DUP3 DUP3 PUSH1 0x40 MLOAD PUSH1 0x20 ADD PUSH2 0x518 SWAP3 SWAP2 SWAP1 PUSH2 0xB1E JUMP JUMPDEST PUSH1 0x40 MLOAD PUSH1 0x20 DUP2 DUP4 SUB SUB DUP2 MSTORE SWAP1 PUSH1 0x40 MSTORE DUP1 MLOAD SWAP1 PUSH1 0x20 ADD KECCAK256 SWAP1 POP SWAP3 SWAP2 POP POP JUMP JUMPDEST PUSH1 0x0 DUP1 PUSH1 0x41 DUP4 MLOAD EQ ISZERO PUSH2 0x578 JUMPI PUSH1 0x0 DUP1 PUSH1 0x0 PUSH1 0x20 DUP7 ADD MLOAD SWAP3 POP PUSH1 0x40 DUP7 ADD MLOAD SWAP2 POP PUSH1 0x60 DUP7 ADD MLOAD PUSH1 0x0 BYTE SWAP1 POP PUSH2 0x56C DUP8 DUP3 DUP6 DUP6 PUSH2 0x730 JUMP JUMPDEST SWAP5 POP SWAP5 POP POP POP POP PUSH2 0x581 JUMP JUMPDEST PUSH1 0x0 PUSH1 0x2 SWAP2 POP SWAP2 POP JUMPDEST SWAP3 POP SWAP3 SWAP1 POP JUMP JUMPDEST PUSH1 0x0 PUSH1 0x4 DUP2 GT ISZERO PUSH2 0x59C JUMPI PUSH2 0x59B PUSH2 0xEDF JUMP JUMPDEST JUMPDEST DUP2 PUSH1 0x4 DUP2 GT ISZERO PUSH2 0x5AF JUMPI PUSH2 0x5AE PUSH2 0xEDF JUMP JUMPDEST JUMPDEST EQ ISZERO PUSH2 0x5BA JUMPI PUSH2 0x6F3 JUMP JUMPDEST PUSH1 0x1 PUSH1 0x4 DUP2 GT ISZERO PUSH2 0x5CE JUMPI PUSH2 0x5CD PUSH2 0xEDF JUMP JUMPDEST JUMPDEST DUP2 PUSH1 0x4 DUP2 GT ISZERO PUSH2 0x5E1 JUMPI PUSH2 0x5E0 PUSH2 0xEDF JUMP JUMPDEST JUMPDEST EQ ISZERO PUSH2 0x622 JUMPI PUSH1 0x40 MLOAD PUSH32 0x8C379A000000000000000000000000000000000000000000000000000000000 DUP2 MSTORE PUSH1 0x4 ADD PUSH2 0x619 SWAP1 PUSH2 0xC5B JUMP JUMPDEST PUSH1 0x40 MLOAD DUP1 SWAP2 SUB SWAP1 REVERT JUMPDEST PUSH1 0x2 PUSH1 0x4 DUP2 GT ISZERO PUSH2 0x636 JUMPI PUSH2 0x635 PUSH2 0xEDF JUMP JUMPDEST JUMPDEST DUP2 PUSH1 0x4 DUP2 GT ISZERO PUSH2 0x649 JUMPI PUSH2 0x648 PUSH2 0xEDF JUMP JUMPDEST JUMPDEST EQ ISZERO PUSH2 0x68A JUMPI PUSH1 0x40 MLOAD PUSH32 0x8C379A000000000000000000000000000000000000000000000000000000000 DUP2 MSTORE PUSH1 0x4 ADD PUSH2 0x681 SWAP1 PUSH2 0xC7B JUMP JUMPDEST PUSH1 0x40 MLOAD DUP1 SWAP2 SUB SWAP1 REVERT JUMPDEST PUSH1 0x3 PUSH1 0x4 DUP2 GT ISZERO PUSH2 0x69E JUMPI PUSH2 0x69D PUSH2 0xEDF JUMP JUMPDEST JUMPDEST DUP2 PUSH1 0x4 DUP2 GT ISZERO PUSH2 0x6B1 JUMPI PUSH2 0x6B0 PUSH2 0xEDF JUMP JUMPDEST JUMPDEST EQ ISZERO PUSH2 0x6F2 JUMPI PUSH1 0x40 MLOAD PUSH32 0x8C379A000000000000000000000000000000000000000000000000000000000 DUP2 MSTORE PUSH1 0x4 ADD PUSH2 0x6E9 SWAP1 PUSH2 0xCBB JUMP JUMPDEST PUSH1 0x40 MLOAD DUP1 SWAP2 SUB SWAP1 REVERT JUMPDEST JUMPDEST POP JUMP JUMPDEST PUSH1 0x0 DUP4 DUP4 DUP4 CHAINID ADDRESS PUSH1 0x40 MLOAD PUSH1 0x20 ADD PUSH2 0x711 SWAP6 SWAP5 SWAP4 SWAP3 SWAP2 SWAP1 PUSH2 0xBC3 JUMP JUMPDEST PUSH1 0x40 MLOAD PUSH1 0x20 DUP2 DUP4 SUB SUB DUP2 MSTORE SWAP1 PUSH1 0x40 MSTORE DUP1 MLOAD SWAP1 PUSH1 0x20 ADD KECCAK256 SWAP1 POP SWAP4 SWAP3 POP POP POP JUMP JUMPDEST PUSH1 0x0 DUP1 PUSH32 0x7FFFFFFFFFFFFFFFFFFFFFFFFFFFFFFF5D576E7357A4501DDFE92F46681B20A0 DUP4 PUSH1 0x0 SHR GT ISZERO PUSH2 0x76B JUMPI PUSH1 0x0 PUSH1 0x3 SWAP2 POP SWAP2 POP PUSH2 0x80A JUMP JUMPDEST PUSH1 0x0 PUSH1 0x1 DUP8 DUP8 DUP8 DUP8 PUSH1 0x40 MLOAD PUSH1 0x0 DUP2 MSTORE PUSH1 0x20 ADD PUSH1 0x40 MSTORE PUSH1 0x40 MLOAD PUSH2 0x790 SWAP5 SWAP4 SWAP3 SWAP2 SWAP1 PUSH2 0xC16 JUMP JUMPDEST PUSH1 0x20 PUSH1 0x40 MLOAD PUSH1 0x20 DUP2 SUB SWAP1 DUP1 DUP5 SUB SWAP1 DUP6 GAS STATICCALL ISZERO DUP1 ISZERO PUSH2 0x7B2 JUMPI RETURNDATASIZE PUSH1 0x0 DUP1 RETURNDATACOPY RETURNDATASIZE PUSH1 0x0 REVERT JUMPDEST POP POP POP PUSH1 0x20 PUSH1 0x40 MLOAD SUB MLOAD SWAP1 POP PUSH1 0x0 PUSH20 0xFFFFFFFFFFFFFFFFFFFFFFFFFFFFFFFFFFFFFFFF AND DUP2 PUSH20 0xFFFFFFFFFFFFFFFFFFFFFFFFFFFFFFFFFFFFFFFF AND EQ ISZERO PUSH2 0x801 JUMPI PUSH1 0x0 PUSH1 0x1 SWAP3 POP SWAP3 POP POP PUSH2 0x80A JUMP JUMPDEST DUP1 PUSH1 0x0 SWAP3 POP SWAP3 POP POP JUMPDEST SWAP5 POP SWAP5 SWAP3 POP POP POP JUMP JUMPDEST PUSH1 0x0 DUP2 CALLDATALOAD SWAP1 POP PUSH2 0x822 DUP2 PUSH2 0x1061 JUMP JUMPDEST SWAP3 SWAP2 POP POP JUMP JUMPDEST PUSH1 0x0 DUP1 DUP4 PUSH1 0x1F DUP5 ADD SLT PUSH2 0x83E JUMPI PUSH2 0x83D PUSH2 0xF13 JUMP JUMPDEST JUMPDEST DUP3 CALLDATALOAD SWAP1 POP PUSH8 0xFFFFFFFFFFFFFFFF DUP2 GT ISZERO PUSH2 0x85B JUMPI PUSH2 0x85A PUSH2 0xF0E JUMP JUMPDEST JUMPDEST PUSH1 0x20 DUP4 ADD SWAP2 POP DUP4 PUSH1 0x1 DUP3 MUL DUP4 ADD GT ISZERO PUSH2 0x877 JUMPI PUSH2 0x876 PUSH2 0xF27 JUMP JUMPDEST JUMPDEST SWAP3 POP SWAP3 SWAP1 POP JUMP JUMPDEST PUSH1 0x0 PUSH1 0x80 DUP3 DUP5 SUB SLT ISZERO PUSH2 0x894 JUMPI PUSH2 0x893 PUSH2 0xF1D JUMP JUMPDEST JUMPDEST DUP2 SWAP1 POP SWAP3 SWAP2 POP POP JUMP JUMPDEST PUSH1 0x0 PUSH1 0x20 DUP3 DUP5 SUB SLT ISZERO PUSH2 0x8B3 JUMPI PUSH2 0x8B2 PUSH2 0xF36 JUMP JUMPDEST JUMPDEST PUSH1 0x0 PUSH2 0x8C1 DUP5 DUP3 DUP6 ADD PUSH2 0x813 JUMP JUMPDEST SWAP2 POP POP SWAP3 SWAP2 POP POP JUMP JUMPDEST PUSH1 0x0 DUP1 PUSH1 0x0 PUSH1 0x40 DUP5 DUP7 SUB SLT ISZERO PUSH2 0x8E3 JUMPI PUSH2 0x8E2 PUSH2 0xF36 JUMP JUMPDEST JUMPDEST PUSH1 0x0 DUP5 ADD CALLDATALOAD PUSH8 0xFFFFFFFFFFFFFFFF DUP2 GT ISZERO PUSH2 0x901 JUMPI PUSH2 0x900 PUSH2 0xF31 JUMP JUMPDEST JUMPDEST PUSH2 0x90D DUP7 DUP3 DUP8 ADD PUSH2 0x87E JUMP JUMPDEST SWAP4 POP POP PUSH1 0x20 DUP5 ADD CALLDATALOAD PUSH8 0xFFFFFFFFFFFFFFFF DUP2 GT ISZERO PUSH2 0x92E JUMPI PUSH2 0x92D PUSH2 0xF31 JUMP JUMPDEST JUMPDEST PUSH2 0x93A DUP7 DUP3 DUP8 ADD PUSH2 0x828 JUMP JUMPDEST SWAP3 POP SWAP3 POP POP SWAP3 POP SWAP3 POP SWAP3 JUMP JUMPDEST PUSH2 0x94F DUP2 PUSH2 0xDE1 JUMP JUMPDEST DUP3 MSTORE POP POP JUMP JUMPDEST PUSH2 0x966 PUSH2 0x961 DUP3 PUSH2 0xDE1 JUMP JUMPDEST PUSH2 0xE82 JUMP JUMPDEST DUP3 MSTORE POP POP JUMP JUMPDEST PUSH2 0x975 DUP2 PUSH2 0xDF3 JUMP JUMPDEST DUP3 MSTORE POP POP JUMP JUMPDEST PUSH2 0x984 DUP2 PUSH2 0xDFF JUMP JUMPDEST DUP3 MSTORE POP POP JUMP JUMPDEST PUSH2 0x99B PUSH2 0x996 DUP3 PUSH2 0xDFF JUMP JUMPDEST PUSH2 0xE94 JUMP JUMPDEST DUP3 MSTORE POP POP JUMP JUMPDEST PUSH1 0x0 PUSH2 0x9AD DUP4 DUP6 PUSH2 0xD64 JUMP JUMPDEST SWAP4 POP PUSH2 0x9BA DUP4 DUP6 DUP5 PUSH2 0xE40 JUMP JUMPDEST DUP3 DUP5 ADD SWAP1 POP SWAP4 SWAP3 POP POP POP JUMP JUMPDEST PUSH1 0x0 PUSH2 0x9D1 DUP3 PUSH2 0xD59 JUMP JUMPDEST PUSH2 0x9DB DUP2 DUP6 PUSH2 0xD64 JUMP JUMPDEST SWAP4 POP PUSH2 0x9EB DUP2 DUP6 PUSH1 0x20 DUP7 ADD PUSH2 0xE4F JUMP JUMPDEST DUP1 DUP5 ADD SWAP2 POP POP SWAP3 SWAP2 POP POP JUMP JUMPDEST PUSH1 0x0 PUSH2 0xA04 PUSH1 0x18 DUP4 PUSH2 0xD6F JUMP JUMPDEST SWAP2 POP PUSH2 0xA0F DUP3 PUSH2 0xF48 JUMP JUMPDEST PUSH1 0x20 DUP3 ADD SWAP1 POP SWAP2 SWAP1 POP JUMP JUMPDEST PUSH1 0x0 PUSH2 0xA27 PUSH1 0x1F DUP4 PUSH2 0xD6F JUMP JUMPDEST SWAP2 POP PUSH2 0xA32 DUP3 PUSH2 0xF71 JUMP JUMPDEST PUSH1 0x20 DUP3 ADD SWAP1 POP SWAP2 SWAP1 POP JUMP JUMPDEST PUSH1 0x0 PUSH2 0xA4A PUSH1 0x27 DUP4 PUSH2 0xD6F JUMP JUMPDEST SWAP2 POP PUSH2 0xA55 DUP3 PUSH2 0xF9A JUMP JUMPDEST PUSH1 0x40 DUP3 ADD SWAP1 POP SWAP2 SWAP1 POP JUMP JUMPDEST PUSH1 0x0 PUSH2 0xA6D PUSH1 0x2 DUP4 PUSH2 0xD80 JUMP JUMPDEST SWAP2 POP PUSH2 0xA78 DUP3 PUSH2 0xFE9 JUMP JUMPDEST PUSH1 0x2 DUP3 ADD SWAP1 POP SWAP2 SWAP1 POP JUMP JUMPDEST PUSH1 0x0 PUSH2 0xA90 PUSH1 0x22 DUP4 PUSH2 0xD6F JUMP JUMPDEST SWAP2 POP PUSH2 0xA9B DUP3 PUSH2 0x1012 JUMP JUMPDEST PUSH1 0x40 DUP3 ADD SWAP1 POP SWAP2 SWAP1 POP JUMP JUMPDEST PUSH2 0xAAF DUP2 PUSH2 0xE29 JUMP JUMPDEST DUP3 MSTORE POP POP JUMP JUMPDEST PUSH2 0xABE DUP2 PUSH2 0xE33 JUMP JUMPDEST DUP3 MSTORE POP POP JUMP JUMPDEST PUSH1 0x0 PUSH2 0xAD1 DUP3 DUP5 DUP7 PUSH2 0x9A1 JUMP JUMPDEST SWAP2 POP DUP2 SWAP1 POP SWAP4 SWAP3 POP POP POP JUMP JUMPDEST PUSH1 0x0 PUSH2 0xAEA DUP3 DUP6 DUP8 PUSH2 0x9A1 JUMP JUMPDEST SWAP2 POP PUSH2 0xAF6 DUP3 DUP5 PUSH2 0x955 JUMP JUMPDEST PUSH1 0x14 DUP3 ADD SWAP2 POP DUP2 SWAP1 POP SWAP5 SWAP4 POP POP POP POP JUMP JUMPDEST PUSH1 0x0 PUSH2 0xB13 DUP3 DUP5 PUSH2 0x9C6 JUMP JUMPDEST SWAP2 POP DUP2 SWAP1 POP SWAP3 SWAP2 POP POP JUMP JUMPDEST PUSH1 0x0 PUSH2 0xB29 DUP3 PUSH2 0xA60 JUMP JUMPDEST SWAP2 POP PUSH2 0xB35 DUP3 DUP6 PUSH2 0x98A JUMP JUMPDEST PUSH1 0x20 DUP3 ADD SWAP2 POP PUSH2 0xB45 DUP3 DUP5 PUSH2 0x98A JUMP JUMPDEST PUSH1 0x20 DUP3 ADD SWAP2 POP DUP2 SWAP1 POP SWAP4 SWAP3 POP POP POP JUMP JUMPDEST PUSH1 0x0 PUSH1 0x20 DUP3 ADD SWAP1 POP PUSH2 0xB6A PUSH1 0x0 DUP4 ADD DUP5 PUSH2 0x96C JUMP JUMPDEST SWAP3 SWAP2 POP POP JUMP JUMPDEST PUSH1 0x0 PUSH1 0xA0 DUP3 ADD SWAP1 POP PUSH2 0xB85 PUSH1 0x0 DUP4 ADD DUP9 PUSH2 0x97B JUMP JUMPDEST PUSH2 0xB92 PUSH1 0x20 DUP4 ADD DUP8 PUSH2 0x946 JUMP JUMPDEST PUSH2 0xB9F PUSH1 0x40 DUP4 ADD DUP7 PUSH2 0x946 JUMP JUMPDEST PUSH2 0xBAC PUSH1 0x60 DUP4 ADD DUP6 PUSH2 0xAA6 JUMP JUMPDEST PUSH2 0xBB9 PUSH1 0x80 DUP4 ADD DUP5 PUSH2 0x97B JUMP JUMPDEST SWAP7 SWAP6 POP POP POP POP POP POP JUMP JUMPDEST PUSH1 0x0 PUSH1 0xA0 DUP3 ADD SWAP1 POP PUSH2 0xBD8 PUSH1 0x0 DUP4 ADD DUP9 PUSH2 0x97B JUMP JUMPDEST PUSH2 0xBE5 PUSH1 0x20 DUP4 ADD DUP8 PUSH2 0x97B JUMP JUMPDEST PUSH2 0xBF2 PUSH1 0x40 DUP4 ADD DUP7 PUSH2 0x97B JUMP JUMPDEST PUSH2 0xBFF PUSH1 0x60 DUP4 ADD DUP6 PUSH2 0xAA6 JUMP JUMPDEST PUSH2 0xC0C PUSH1 0x80 DUP4 ADD DUP5 PUSH2 0x946 JUMP JUMPDEST SWAP7 SWAP6 POP POP POP POP POP POP JUMP JUMPDEST PUSH1 0x0 PUSH1 0x80 DUP3 ADD SWAP1 POP PUSH2 0xC2B PUSH1 0x0 DUP4 ADD DUP8 PUSH2 0x97B JUMP JUMPDEST PUSH2 0xC38 PUSH1 0x20 DUP4 ADD DUP7 PUSH2 0xAB5 JUMP JUMPDEST PUSH2 0xC45 PUSH1 0x40 DUP4 ADD DUP6 PUSH2 0x97B JUMP JUMPDEST PUSH2 0xC52 PUSH1 0x60 DUP4 ADD DUP5 PUSH2 0x97B JUMP JUMPDEST SWAP6 SWAP5 POP POP POP POP POP JUMP JUMPDEST PUSH1 0x0 PUSH1 0x20 DUP3 ADD SWAP1 POP DUP2 DUP2 SUB PUSH1 0x0 DUP4 ADD MSTORE PUSH2 0xC74 DUP2 PUSH2 0x9F7 JUMP JUMPDEST SWAP1 POP SWAP2 SWAP1 POP JUMP JUMPDEST PUSH1 0x0 PUSH1 0x20 DUP3 ADD SWAP1 POP DUP2 DUP2 SUB PUSH1 0x0 DUP4 ADD MSTORE PUSH2 0xC94 DUP2 PUSH2 0xA1A JUMP JUMPDEST SWAP1 POP SWAP2 SWAP1 POP JUMP JUMPDEST PUSH1 0x0 PUSH1 0x20 DUP3 ADD SWAP1 POP DUP2 DUP2 SUB PUSH1 0x0 DUP4 ADD MSTORE PUSH2 0xCB4 DUP2 PUSH2 0xA3D JUMP JUMPDEST SWAP1 POP SWAP2 SWAP1 POP JUMP JUMPDEST PUSH1 0x0 PUSH1 0x20 DUP3 ADD SWAP1 POP DUP2 DUP2 SUB PUSH1 0x0 DUP4 ADD MSTORE PUSH2 0xCD4 DUP2 PUSH2 0xA83 JUMP JUMPDEST SWAP1 POP SWAP2 SWAP1 POP JUMP JUMPDEST PUSH1 0x0 PUSH1 0x20 DUP3 ADD SWAP1 POP PUSH2 0xCF0 PUSH1 0x0 DUP4 ADD DUP5 PUSH2 0xAA6 JUMP JUMPDEST SWAP3 SWAP2 POP POP JUMP JUMPDEST PUSH1 0x0 DUP1 DUP4 CALLDATALOAD PUSH1 0x1 PUSH1 0x20 SUB DUP5 CALLDATASIZE SUB SUB DUP2 SLT PUSH2 0xD13 JUMPI PUSH2 0xD12 PUSH2 0xF22 JUMP JUMPDEST JUMPDEST DUP1 DUP5 ADD SWAP3 POP DUP3 CALLDATALOAD SWAP2 POP PUSH8 0xFFFFFFFFFFFFFFFF DUP3 GT ISZERO PUSH2 0xD35 JUMPI PUSH2 0xD34 PUSH2 0xF18 JUMP JUMPDEST JUMPDEST PUSH1 0x20 DUP4 ADD SWAP3 POP PUSH1 0x1 DUP3 MUL CALLDATASIZE SUB DUP4 SGT ISZERO PUSH2 0xD51 JUMPI PUSH2 0xD50 PUSH2 0xF2C JUMP JUMPDEST JUMPDEST POP SWAP3 POP SWAP3 SWAP1 POP JUMP JUMPDEST PUSH1 0x0 DUP2 MLOAD SWAP1 POP SWAP2 SWAP1 POP JUMP JUMPDEST PUSH1 0x0 DUP2 SWAP1 POP SWAP3 SWAP2 POP POP JUMP JUMPDEST PUSH1 0x0 DUP3 DUP3 MSTORE PUSH1 0x20 DUP3 ADD SWAP1 POP SWAP3 SWAP2 POP POP JUMP JUMPDEST PUSH1 0x0 DUP2 SWAP1 POP SWAP3 SWAP2 POP POP JUMP JUMPDEST PUSH1 0x0 PUSH2 0xD96 DUP3 PUSH2 0xE29 JUMP JUMPDEST SWAP2 POP PUSH2 0xDA1 DUP4 PUSH2 0xE29 JUMP JUMPDEST SWAP3 POP DUP3 PUSH32 0xFFFFFFFFFFFFFFFFFFFFFFFFFFFFFFFFFFFFFFFFFFFFFFFFFFFFFFFFFFFFFFFF SUB DUP3 GT ISZERO PUSH2 0xDD6 JUMPI PUSH2 0xDD5 PUSH2 0xEB0 JUMP JUMPDEST JUMPDEST DUP3 DUP3 ADD SWAP1 POP SWAP3 SWAP2 POP POP JUMP JUMPDEST PUSH1 0x0 PUSH2 0xDEC DUP3 PUSH2 0xE09 JUMP JUMPDEST SWAP1 POP SWAP2 SWAP1 POP JUMP JUMPDEST PUSH1 0x0 DUP2 ISZERO ISZERO SWAP1 POP SWAP2 SWAP1 POP JUMP JUMPDEST PUSH1 0x0 DUP2 SWAP1 POP SWAP2 SWAP1 POP JUMP JUMPDEST PUSH1 0x0 PUSH20 0xFFFFFFFFFFFFFFFFFFFFFFFFFFFFFFFFFFFFFFFF DUP3 AND SWAP1 POP SWAP2 SWAP1 POP JUMP JUMPDEST PUSH1 0x0 DUP2 SWAP1 POP SWAP2 SWAP1 POP JUMP JUMPDEST PUSH1 0x0 PUSH1 0xFF DUP3 AND SWAP1 POP SWAP2 SWAP1 POP JUMP JUMPDEST DUP3 DUP2 DUP4 CALLDATACOPY PUSH1 0x0 DUP4 DUP4 ADD MSTORE POP POP POP JUMP JUMPDEST PUSH1 0x0 JUMPDEST DUP4 DUP2 LT ISZERO PUSH2 0xE6D JUMPI DUP1 DUP3 ADD MLOAD DUP2 DUP5 ADD MSTORE PUSH1 0x20 DUP2 ADD SWAP1 POP PUSH2 0xE52 JUMP JUMPDEST DUP4 DUP2 GT ISZERO PUSH2 0xE7C JUMPI PUSH1 0x0 DUP5 DUP5 ADD MSTORE JUMPDEST POP POP POP POP JUMP JUMPDEST PUSH1 0x0 PUSH2 0xE8D DUP3 PUSH2 0xE9E JUMP JUMPDEST SWAP1 POP SWAP2 SWAP1 POP JUMP JUMPDEST PUSH1 0x0 DUP2 SWAP1 POP SWAP2 SWAP1 POP JUMP JUMPDEST PUSH1 0x0 PUSH2 0xEA9 DUP3 PUSH2 0xF3B JUMP JUMPDEST SWAP1 POP SWAP2 SWAP1 POP JUMP JUMPDEST PUSH32 0x4E487B7100000000000000000000000000000000000000000000000000000000 PUSH1 0x0 MSTORE PUSH1 0x11 PUSH1 0x4 MSTORE PUSH1 0x24 PUSH1 0x0 REVERT JUMPDEST PUSH32 0x4E487B7100000000000000000000000000000000000000000000000000000000 PUSH1 0x0 MSTORE PUSH1 0x21 PUSH1 0x4 MSTORE PUSH1 0x24 PUSH1 0x0 REVERT JUMPDEST PUSH1 0x0 DUP1 REVERT JUMPDEST PUSH1 0x0 DUP1 REVERT JUMPDEST PUSH1 0x0 DUP1 REVERT JUMPDEST PUSH1 0x0 DUP1 REVERT JUMPDEST PUSH1 0x0 DUP1 REVERT JUMPDEST PUSH1 0x0 DUP1 REVERT JUMPDEST PUSH1 0x0 DUP1 REVERT JUMPDEST PUSH1 0x0 DUP1 REVERT JUMPDEST PUSH1 0x0 DUP1 REVERT JUMPDEST PUSH1 0x0 DUP2 PUSH1 0x60 SHL SWAP1 POP SWAP2 SWAP1 POP JUMP JUMPDEST PUSH32 0x45434453413A20696E76616C6964207369676E61747572650000000000000000 PUSH1 0x0 DUP3 ADD MSTORE POP JUMP JUMPDEST PUSH32 0x45434453413A20696E76616C6964207369676E6174757265206C656E67746800 PUSH1 0x0 DUP3 ADD MSTORE POP JUMP JUMPDEST PUSH32 0x506C61747A69546F6B656E466F727761726465723A20496E76616C6964207369 PUSH1 0x0 DUP3 ADD MSTORE PUSH32 0x676E617475726500000000000000000000000000000000000000000000000000 PUSH1 0x20 DUP3 ADD MSTORE POP JUMP JUMPDEST PUSH32 0x1901000000000000000000000000000000000000000000000000000000000000 PUSH1 0x0 DUP3 ADD MSTORE POP JUMP JUMPDEST PUSH32 0x45434453413A20696E76616C6964207369676E6174757265202773272076616C PUSH1 0x0 DUP3 ADD MSTORE PUSH32 0x7565000000000000000000000000000000000000000000000000000000000000 PUSH1 0x20 DUP3 ADD MSTORE POP JUMP JUMPDEST PUSH2 0x106A DUP2 PUSH2 0xDE1 JUMP JUMPDEST DUP2 EQ PUSH2 0x1075 JUMPI PUSH1 0x0 DUP1 REVERT JUMPDEST POP JUMP INVALID LOG2 PUSH5 0x6970667358 0x22 SLT KECCAK256 DUP5 0xE6 PUSH27 0x629D90990A31BB32F69F7F840106C3F85AC23B42922E5157403C90 PUSH27 0x7764736F6C63430008070033000000000000000000000000000000 "
				},
				"gasEstimates": {
					"creation": {
						"codeDepositCost": "854000",
						"executionCost": "infinite",
						"totalCost": "infinite"
					},
					"external": {
						"executeFunction((address,address,uint256,bytes),bytes)": "infinite",
						"getNonce(address)": "2841"
					},
					"internal": {
						"_verifyMetaTx(struct PlatziTokenForwarder.MetaTx calldata,bytes calldata)": "infinite"
					}
				},
				"methodIdentifiers": {
					"executeFunction((address,address,uint256,bytes),bytes)": "246eb08a",
					"getNonce(address)": "2d0335ab"
				}
			},
			"storageLayout": {
				"storage": [
					{
						"astId": 767,
						"contract": "contracts/Implementacion Tokens Ethereum/PlatziTokenForwarder.sol:PlatziTokenForwarder",
						"label": "_nonces",
						"offset": 0,
						"slot": "0",
						"type": "t_mapping(t_address,t_uint256)"
					}
				],
				"types": {
					"t_address": {
						"encoding": "inplace",
						"label": "address",
						"numberOfBytes": "20"
					},
					"t_mapping(t_address,t_uint256)": {
						"encoding": "mapping",
						"key": "t_address",
						"label": "mapping(address => uint256)",
						"numberOfBytes": "32",
						"value": "t_uint256"
					},
					"t_uint256": {
						"encoding": "inplace",
						"label": "uint256",
						"numberOfBytes": "32"
					}
				}
			},
			"userdoc": {
				"kind": "user",
				"methods": {},
				"version": 1
			}
		}
	}
}