{
	"data": {
		"bytecode": {
			"linkReferences": {},
			"object": "608060405234801561001057600080fd5b506100417f7e5b835f8ef15bb117d49cb6d0658113bc08d41d8a6edf12d3d1feb5c58753303361004660201b60201c565b6101a4565b610056828261013260201b60201c565b61012e57600160008084815260200190815260200160002060000160008373ffffffffffffffffffffffffffffffffffffffff1673ffffffffffffffffffffffffffffffffffffffff16815260200190815260200160002060006101000a81548160ff0219169083151502179055506100d361019c60201b60201c565b73ffffffffffffffffffffffffffffffffffffffff168173ffffffffffffffffffffffffffffffffffffffff16837f2f8788117e7eff1d82e926ec794901d17c78024a50270940304540a733656f0d60405160405180910390a45b5050565b600080600084815260200190815260200160002060000160008373ffffffffffffffffffffffffffffffffffffffff1673ffffffffffffffffffffffffffffffffffffffff16815260200190815260200160002060009054906101000a900460ff16905092915050565b600033905090565b611333806101b36000396000f3fe608060405234801561001057600080fd5b50600436106100a95760003560e01c806336568abe1161007157806336568abe146101645780634c2e19d0146101805780636057361d1461019c57806391d14854146101b8578063a217fddf146101e8578063d547741f14610206576100a9565b806301ffc9a7146100ae578063235ef56f146100de578063248a9ca3146100fa5780632e64cec11461012a5780632f2ff15d14610148575b600080fd5b6100c860048036038101906100c39190610ba8565b610222565b6040516100d59190610da5565b60405180910390f35b6100f860048036038101906100f39190610b0e565b61029c565b005b610114600480360381019061010f9190610b3b565b610332565b6040516101219190610dc0565b60405180910390f35b610132610351565b60405161013f9190610e7d565b60405180910390f35b610162600480360381019061015d9190610b68565b61035b565b005b61017e60048036038101906101799190610b68565b61037c565b005b61019a60048036038101906101959190610b0e565b6103ff565b005b6101b660048036038101906101b19190610bd5565b610495565b005b6101d260048036038101906101cd9190610b68565b610508565b6040516101df9190610da5565b60405180910390f35b6101f0610572565b6040516101fd9190610dc0565b60405180910390f35b610220600480360381019061021b9190610b68565b610579565b005b60007f7965db0b000000000000000000000000000000000000000000000000000000007bffffffffffffffffffffffffffffffffffffffffffffffffffffffff1916827bffffffffffffffffffffffffffffffffffffffffffffffffffffffff1916148061029557506102948261059a565b5b9050919050565b6102c67f7e5b835f8ef15bb117d49cb6d0658113bc08d41d8a6edf12d3d1feb5c587533033610508565b610305576040517f08c379a00000000000000000000000000000000000000000000000000000000081526004016102fc90610e3d565b60405180910390fd5b61032f7f3bd382f411bca881c98196b18edce31a82cf3847dab18082dd90c13022f62dfb82610604565b50565b6000806000838152602001908152602001600020600101549050919050565b6000600154905090565b61036482610332565b61036d816106e4565b6103778383610604565b505050565b6103846106f8565b73ffffffffffffffffffffffffffffffffffffffff168173ffffffffffffffffffffffffffffffffffffffff16146103f1576040517f08c379a00000000000000000000000000000000000000000000000000000000081526004016103e890610e5d565b60405180910390fd5b6103fb8282610700565b5050565b6104297f7e5b835f8ef15bb117d49cb6d0658113bc08d41d8a6edf12d3d1feb5c587533033610508565b610468576040517f08c379a000000000000000000000000000000000000000000000000000000000815260040161045f90610e3d565b60405180910390fd5b6104927f3bd382f411bca881c98196b18edce31a82cf3847dab18082dd90c13022f62dfb82610700565b50565b6104bf7f3bd382f411bca881c98196b18edce31a82cf3847dab18082dd90c13022f62dfb33610508565b6104fe576040517f08c379a00000000000000000000000000000000000000000000000000000000081526004016104f590610e1d565b60405180910390fd5b8060018190555050565b600080600084815260200190815260200160002060000160008373ffffffffffffffffffffffffffffffffffffffff1673ffffffffffffffffffffffffffffffffffffffff16815260200190815260200160002060009054906101000a900460ff16905092915050565b6000801b81565b61058282610332565b61058b816106e4565b6105958383610700565b505050565b60007f01ffc9a7000000000000000000000000000000000000000000000000000000007bffffffffffffffffffffffffffffffffffffffffffffffffffffffff1916827bffffffffffffffffffffffffffffffffffffffffffffffffffffffff1916149050919050565b61060e8282610508565b6106e057600160008084815260200190815260200160002060000160008373ffffffffffffffffffffffffffffffffffffffff1673ffffffffffffffffffffffffffffffffffffffff16815260200190815260200160002060006101000a81548160ff0219169083151502179055506106856106f8565b73ffffffffffffffffffffffffffffffffffffffff168173ffffffffffffffffffffffffffffffffffffffff16837f2f8788117e7eff1d82e926ec794901d17c78024a50270940304540a733656f0d60405160405180910390a45b5050565b6106f5816106f06106f8565b6107e1565b50565b600033905090565b61070a8282610508565b156107dd57600080600084815260200190815260200160002060000160008373ffffffffffffffffffffffffffffffffffffffff1673ffffffffffffffffffffffffffffffffffffffff16815260200190815260200160002060006101000a81548160ff0219169083151502179055506107826106f8565b73ffffffffffffffffffffffffffffffffffffffff168173ffffffffffffffffffffffffffffffffffffffff16837ff6391f5c32d9c69d2a47ea670b442974b53935d1edc7fd64eb21e047a839171b60405160405180910390a45b5050565b6107eb8282610508565b61087a576108108173ffffffffffffffffffffffffffffffffffffffff16601461087e565b61081e8360001c602061087e565b60405160200161082f929190610d6b565b6040516020818303038152906040526040517f08c379a00000000000000000000000000000000000000000000000000000000081526004016108719190610ddb565b60405180910390fd5b5050565b6060600060028360026108919190610f15565b61089b9190610ebf565b67ffffffffffffffff8111156108b4576108b36110a8565b5b6040519080825280601f01601f1916602001820160405280156108e65781602001600182028036833780820191505090505b5090507f30000000000000000000000000000000000000000000000000000000000000008160008151811061091e5761091d611079565b5b60200101907effffffffffffffffffffffffffffffffffffffffffffffffffffffffffffff1916908160001a9053507f78000000000000000000000000000000000000000000000000000000000000008160018151811061098257610981611079565b5b60200101907effffffffffffffffffffffffffffffffffffffffffffffffffffffffffffff1916908160001a905350600060018460026109c29190610f15565b6109cc9190610ebf565b90505b6001811115610a6c577f3031323334353637383961626364656600000000000000000000000000000000600f861660108110610a0e57610a0d611079565b5b1a60f81b828281518110610a2557610a24611079565b5b60200101907effffffffffffffffffffffffffffffffffffffffffffffffffffffffffffff1916908160001a905350600485901c945080610a6590611020565b90506109cf565b5060008414610ab0576040517f08c379a0000000000000000000000000000000000000000000000000000000008152600401610aa790610dfd565b60405180910390fd5b8091505092915050565b600081359050610ac9816112a1565b92915050565b600081359050610ade816112b8565b92915050565b600081359050610af3816112cf565b92915050565b600081359050610b08816112e6565b92915050565b600060208284031215610b2457610b236110d7565b5b6000610b3284828501610aba565b91505092915050565b600060208284031215610b5157610b506110d7565b5b6000610b5f84828501610acf565b91505092915050565b60008060408385031215610b7f57610b7e6110d7565b5b6000610b8d85828601610acf565b9250506020610b9e85828601610aba565b9150509250929050565b600060208284031215610bbe57610bbd6110d7565b5b6000610bcc84828501610ae4565b91505092915050565b600060208284031215610beb57610bea6110d7565b5b6000610bf984828501610af9565b91505092915050565b610c0b81610f81565b82525050565b610c1a81610f8d565b82525050565b6000610c2b82610e98565b610c358185610ea3565b9350610c45818560208601610fed565b610c4e816110dc565b840191505092915050565b6000610c6482610e98565b610c6e8185610eb4565b9350610c7e818560208601610fed565b80840191505092915050565b6000610c97602083610ea3565b9150610ca2826110ed565b602082019050919050565b6000610cba604283610ea3565b9150610cc582611116565b606082019050919050565b6000610cdd605a83610ea3565b9150610ce88261118b565b606082019050919050565b6000610d00601783610eb4565b9150610d0b82611200565b601782019050919050565b6000610d23601183610eb4565b9150610d2e82611229565b601182019050919050565b6000610d46602f83610ea3565b9150610d5182611252565b604082019050919050565b610d6581610fe3565b82525050565b6000610d7682610cf3565b9150610d828285610c59565b9150610d8d82610d16565b9150610d998284610c59565b91508190509392505050565b6000602082019050610dba6000830184610c02565b92915050565b6000602082019050610dd56000830184610c11565b92915050565b60006020820190508181036000830152610df58184610c20565b905092915050565b60006020820190508181036000830152610e1681610c8a565b9050919050565b60006020820190508181036000830152610e3681610cad565b9050919050565b60006020820190508181036000830152610e5681610cd0565b9050919050565b60006020820190508181036000830152610e7681610d39565b9050919050565b6000602082019050610e926000830184610d5c565b92915050565b600081519050919050565b600082825260208201905092915050565b600081905092915050565b6000610eca82610fe3565b9150610ed583610fe3565b9250827fffffffffffffffffffffffffffffffffffffffffffffffffffffffffffffffff03821115610f0a57610f0961104a565b5b828201905092915050565b6000610f2082610fe3565b9150610f2b83610fe3565b9250817fffffffffffffffffffffffffffffffffffffffffffffffffffffffffffffffff0483118215151615610f6457610f6361104a565b5b828202905092915050565b6000610f7a82610fc3565b9050919050565b60008115159050919050565b6000819050919050565b60007fffffffff0000000000000000000000000000000000000000000000000000000082169050919050565b600073ffffffffffffffffffffffffffffffffffffffff82169050919050565b6000819050919050565b60005b8381101561100b578082015181840152602081019050610ff0565b8381111561101a576000848401525b50505050565b600061102b82610fe3565b9150600082141561103f5761103e61104a565b5b600182039050919050565b7f4e487b7100000000000000000000000000000000000000000000000000000000600052601160045260246000fd5b7f4e487b7100000000000000000000000000000000000000000000000000000000600052603260045260246000fd5b7f4e487b7100000000000000000000000000000000000000000000000000000000600052604160045260246000fd5b600080fd5b6000601f19601f8301169050919050565b7f537472696e67733a20686578206c656e67746820696e73756666696369656e74600082015250565b7f456c207573756172696f206e6f207469656e6520656c20726f6c20575249544560008201527f52207061726120656a656375746172206c612066756e63696f6e2053746f726160208201527f6765000000000000000000000000000000000000000000000000000000000000604082015250565b7f456c207573756172696f206e6f207469656e6520656c20726f6c2041444d494e60008201527f207061726120656a656375746172206c612066756e63696f6e2064652067617260208201527f616e74697a6172206f207265766f636172207065726d69736f73000000000000604082015250565b7f416363657373436f6e74726f6c3a206163636f756e7420000000000000000000600082015250565b7f206973206d697373696e6720726f6c6520000000000000000000000000000000600082015250565b7f416363657373436f6e74726f6c3a2063616e206f6e6c792072656e6f756e636560008201527f20726f6c657320666f722073656c660000000000000000000000000000000000602082015250565b6112aa81610f6f565b81146112b557600080fd5b50565b6112c181610f8d565b81146112cc57600080fd5b50565b6112d881610f97565b81146112e357600080fd5b50565b6112ef81610fe3565b81146112fa57600080fd5b5056fea2646970667358221220d25e3fd7b5549d4e6969ea61a4c52b21bab767f03cca0294fe2a2c82f35dc2ce64736f6c63430008070033",
			"opcodes": "PUSH1 0x80 PUSH1 0x40 MSTORE CALLVALUE DUP1 ISZERO PUSH2 0x10 JUMPI PUSH1 0x0 DUP1 REVERT JUMPDEST POP PUSH2 0x41 PUSH32 0x7E5B835F8EF15BB117D49CB6D0658113BC08D41D8A6EDF12D3D1FEB5C5875330 CALLER PUSH2 0x46 PUSH1 0x20 SHL PUSH1 0x20 SHR JUMP JUMPDEST PUSH2 0x1A4 JUMP JUMPDEST PUSH2 0x56 DUP3 DUP3 PUSH2 0x132 PUSH1 0x20 SHL PUSH1 0x20 SHR JUMP JUMPDEST PUSH2 0x12E JUMPI PUSH1 0x1 PUSH1 0x0 DUP1 DUP5 DUP2 MSTORE PUSH1 0x20 ADD SWAP1 DUP2 MSTORE PUSH1 0x20 ADD PUSH1 0x0 KECCAK256 PUSH1 0x0 ADD PUSH1 0x0 DUP4 PUSH20 0xFFFFFFFFFFFFFFFFFFFFFFFFFFFFFFFFFFFFFFFF AND PUSH20 0xFFFFFFFFFFFFFFFFFFFFFFFFFFFFFFFFFFFFFFFF AND DUP2 MSTORE PUSH1 0x20 ADD SWAP1 DUP2 MSTORE PUSH1 0x20 ADD PUSH1 0x0 KECCAK256 PUSH1 0x0 PUSH2 0x100 EXP DUP2 SLOAD DUP2 PUSH1 0xFF MUL NOT AND SWAP1 DUP4 ISZERO ISZERO MUL OR SWAP1 SSTORE POP PUSH2 0xD3 PUSH2 0x19C PUSH1 0x20 SHL PUSH1 0x20 SHR JUMP JUMPDEST PUSH20 0xFFFFFFFFFFFFFFFFFFFFFFFFFFFFFFFFFFFFFFFF AND DUP2 PUSH20 0xFFFFFFFFFFFFFFFFFFFFFFFFFFFFFFFFFFFFFFFF AND DUP4 PUSH32 0x2F8788117E7EFF1D82E926EC794901D17C78024A50270940304540A733656F0D PUSH1 0x40 MLOAD PUSH1 0x40 MLOAD DUP1 SWAP2 SUB SWAP1 LOG4 JUMPDEST POP POP JUMP JUMPDEST PUSH1 0x0 DUP1 PUSH1 0x0 DUP5 DUP2 MSTORE PUSH1 0x20 ADD SWAP1 DUP2 MSTORE PUSH1 0x20 ADD PUSH1 0x0 KECCAK256 PUSH1 0x0 ADD PUSH1 0x0 DUP4 PUSH20 0xFFFFFFFFFFFFFFFFFFFFFFFFFFFFFFFFFFFFFFFF AND PUSH20 0xFFFFFFFFFFFFFFFFFFFFFFFFFFFFFFFFFFFFFFFF AND DUP2 MSTORE PUSH1 0x20 ADD SWAP1 DUP2 MSTORE PUSH1 0x20 ADD PUSH1 0x0 KECCAK256 PUSH1 0x0 SWAP1 SLOAD SWAP1 PUSH2 0x100 EXP SWAP1 DIV PUSH1 0xFF AND SWAP1 POP SWAP3 SWAP2 POP POP JUMP JUMPDEST PUSH1 0x0 CALLER SWAP1 POP SWAP1 JUMP JUMPDEST PUSH2 0x1333 DUP1 PUSH2 0x1B3 PUSH1 0x0 CODECOPY PUSH1 0x0 RETURN INVALID PUSH1 0x80 PUSH1 0x40 MSTORE CALLVALUE DUP1 ISZERO PUSH2 0x10 JUMPI PUSH1 0x0 DUP1 REVERT JUMPDEST POP PUSH1 0x4 CALLDATASIZE LT PUSH2 0xA9 JUMPI PUSH1 0x0 CALLDATALOAD PUSH1 0xE0 SHR DUP1 PUSH4 0x36568ABE GT PUSH2 0x71 JUMPI DUP1 PUSH4 0x36568ABE EQ PUSH2 0x164 JUMPI DUP1 PUSH4 0x4C2E19D0 EQ PUSH2 0x180 JUMPI DUP1 PUSH4 0x6057361D EQ PUSH2 0x19C JUMPI DUP1 PUSH4 0x91D14854 EQ PUSH2 0x1B8 JUMPI DUP1 PUSH4 0xA217FDDF EQ PUSH2 0x1E8 JUMPI DUP1 PUSH4 0xD547741F EQ PUSH2 0x206 JUMPI PUSH2 0xA9 JUMP JUMPDEST DUP1 PUSH4 0x1FFC9A7 EQ PUSH2 0xAE JUMPI DUP1 PUSH4 0x235EF56F EQ PUSH2 0xDE JUMPI DUP1 PUSH4 0x248A9CA3 EQ PUSH2 0xFA JUMPI DUP1 PUSH4 0x2E64CEC1 EQ PUSH2 0x12A JUMPI DUP1 PUSH4 0x2F2FF15D EQ PUSH2 0x148 JUMPI JUMPDEST PUSH1 0x0 DUP1 REVERT JUMPDEST PUSH2 0xC8 PUSH1 0x4 DUP1 CALLDATASIZE SUB DUP2 ADD SWAP1 PUSH2 0xC3 SWAP2 SWAP1 PUSH2 0xBA8 JUMP JUMPDEST PUSH2 0x222 JUMP JUMPDEST PUSH1 0x40 MLOAD PUSH2 0xD5 SWAP2 SWAP1 PUSH2 0xDA5 JUMP JUMPDEST PUSH1 0x40 MLOAD DUP1 SWAP2 SUB SWAP1 RETURN JUMPDEST PUSH2 0xF8 PUSH1 0x4 DUP1 CALLDATASIZE SUB DUP2 ADD SWAP1 PUSH2 0xF3 SWAP2 SWAP1 PUSH2 0xB0E JUMP JUMPDEST PUSH2 0x29C JUMP JUMPDEST STOP JUMPDEST PUSH2 0x114 PUSH1 0x4 DUP1 CALLDATASIZE SUB DUP2 ADD SWAP1 PUSH2 0x10F SWAP2 SWAP1 PUSH2 0xB3B JUMP JUMPDEST PUSH2 0x332 JUMP JUMPDEST PUSH1 0x40 MLOAD PUSH2 0x121 SWAP2 SWAP1 PUSH2 0xDC0 JUMP JUMPDEST PUSH1 0x40 MLOAD DUP1 SWAP2 SUB SWAP1 RETURN JUMPDEST PUSH2 0x132 PUSH2 0x351 JUMP JUMPDEST PUSH1 0x40 MLOAD PUSH2 0x13F SWAP2 SWAP1 PUSH2 0xE7D JUMP JUMPDEST PUSH1 0x40 MLOAD DUP1 SWAP2 SUB SWAP1 RETURN JUMPDEST PUSH2 0x162 PUSH1 0x4 DUP1 CALLDATASIZE SUB DUP2 ADD SWAP1 PUSH2 0x15D SWAP2 SWAP1 PUSH2 0xB68 JUMP JUMPDEST PUSH2 0x35B JUMP JUMPDEST STOP JUMPDEST PUSH2 0x17E PUSH1 0x4 DUP1 CALLDATASIZE SUB DUP2 ADD SWAP1 PUSH2 0x179 SWAP2 SWAP1 PUSH2 0xB68 JUMP JUMPDEST PUSH2 0x37C JUMP JUMPDEST STOP JUMPDEST PUSH2 0x19A PUSH1 0x4 DUP1 CALLDATASIZE SUB DUP2 ADD SWAP1 PUSH2 0x195 SWAP2 SWAP1 PUSH2 0xB0E JUMP JUMPDEST PUSH2 0x3FF JUMP JUMPDEST STOP JUMPDEST PUSH2 0x1B6 PUSH1 0x4 DUP1 CALLDATASIZE SUB DUP2 ADD SWAP1 PUSH2 0x1B1 SWAP2 SWAP1 PUSH2 0xBD5 JUMP JUMPDEST PUSH2 0x495 JUMP JUMPDEST STOP JUMPDEST PUSH2 0x1D2 PUSH1 0x4 DUP1 CALLDATASIZE SUB DUP2 ADD SWAP1 PUSH2 0x1CD SWAP2 SWAP1 PUSH2 0xB68 JUMP JUMPDEST PUSH2 0x508 JUMP JUMPDEST PUSH1 0x40 MLOAD PUSH2 0x1DF SWAP2 SWAP1 PUSH2 0xDA5 JUMP JUMPDEST PUSH1 0x40 MLOAD DUP1 SWAP2 SUB SWAP1 RETURN JUMPDEST PUSH2 0x1F0 PUSH2 0x572 JUMP JUMPDEST PUSH1 0x40 MLOAD PUSH2 0x1FD SWAP2 SWAP1 PUSH2 0xDC0 JUMP JUMPDEST PUSH1 0x40 MLOAD DUP1 SWAP2 SUB SWAP1 RETURN JUMPDEST PUSH2 0x220 PUSH1 0x4 DUP1 CALLDATASIZE SUB DUP2 ADD SWAP1 PUSH2 0x21B SWAP2 SWAP1 PUSH2 0xB68 JUMP JUMPDEST PUSH2 0x579 JUMP JUMPDEST STOP JUMPDEST PUSH1 0x0 PUSH32 0x7965DB0B00000000000000000000000000000000000000000000000000000000 PUSH28 0xFFFFFFFFFFFFFFFFFFFFFFFFFFFFFFFFFFFFFFFFFFFFFFFFFFFFFFFF NOT AND DUP3 PUSH28 0xFFFFFFFFFFFFFFFFFFFFFFFFFFFFFFFFFFFFFFFFFFFFFFFFFFFFFFFF NOT AND EQ DUP1 PUSH2 0x295 JUMPI POP PUSH2 0x294 DUP3 PUSH2 0x59A JUMP JUMPDEST JUMPDEST SWAP1 POP SWAP2 SWAP1 POP JUMP JUMPDEST PUSH2 0x2C6 PUSH32 0x7E5B835F8EF15BB117D49CB6D0658113BC08D41D8A6EDF12D3D1FEB5C5875330 CALLER PUSH2 0x508 JUMP JUMPDEST PUSH2 0x305 JUMPI PUSH1 0x40 MLOAD PUSH32 0x8C379A000000000000000000000000000000000000000000000000000000000 DUP2 MSTORE PUSH1 0x4 ADD PUSH2 0x2FC SWAP1 PUSH2 0xE3D JUMP JUMPDEST PUSH1 0x40 MLOAD DUP1 SWAP2 SUB SWAP1 REVERT JUMPDEST PUSH2 0x32F PUSH32 0x3BD382F411BCA881C98196B18EDCE31A82CF3847DAB18082DD90C13022F62DFB DUP3 PUSH2 0x604 JUMP JUMPDEST POP JUMP JUMPDEST PUSH1 0x0 DUP1 PUSH1 0x0 DUP4 DUP2 MSTORE PUSH1 0x20 ADD SWAP1 DUP2 MSTORE PUSH1 0x20 ADD PUSH1 0x0 KECCAK256 PUSH1 0x1 ADD SLOAD SWAP1 POP SWAP2 SWAP1 POP JUMP JUMPDEST PUSH1 0x0 PUSH1 0x1 SLOAD SWAP1 POP SWAP1 JUMP JUMPDEST PUSH2 0x364 DUP3 PUSH2 0x332 JUMP JUMPDEST PUSH2 0x36D DUP2 PUSH2 0x6E4 JUMP JUMPDEST PUSH2 0x377 DUP4 DUP4 PUSH2 0x604 JUMP JUMPDEST POP POP POP JUMP JUMPDEST PUSH2 0x384 PUSH2 0x6F8 JUMP JUMPDEST PUSH20 0xFFFFFFFFFFFFFFFFFFFFFFFFFFFFFFFFFFFFFFFF AND DUP2 PUSH20 0xFFFFFFFFFFFFFFFFFFFFFFFFFFFFFFFFFFFFFFFF AND EQ PUSH2 0x3F1 JUMPI PUSH1 0x40 MLOAD PUSH32 0x8C379A000000000000000000000000000000000000000000000000000000000 DUP2 MSTORE PUSH1 0x4 ADD PUSH2 0x3E8 SWAP1 PUSH2 0xE5D JUMP JUMPDEST PUSH1 0x40 MLOAD DUP1 SWAP2 SUB SWAP1 REVERT JUMPDEST PUSH2 0x3FB DUP3 DUP3 PUSH2 0x700 JUMP JUMPDEST POP POP JUMP JUMPDEST PUSH2 0x429 PUSH32 0x7E5B835F8EF15BB117D49CB6D0658113BC08D41D8A6EDF12D3D1FEB5C5875330 CALLER PUSH2 0x508 JUMP JUMPDEST PUSH2 0x468 JUMPI PUSH1 0x40 MLOAD PUSH32 0x8C379A000000000000000000000000000000000000000000000000000000000 DUP2 MSTORE PUSH1 0x4 ADD PUSH2 0x45F SWAP1 PUSH2 0xE3D JUMP JUMPDEST PUSH1 0x40 MLOAD DUP1 SWAP2 SUB SWAP1 REVERT JUMPDEST PUSH2 0x492 PUSH32 0x3BD382F411BCA881C98196B18EDCE31A82CF3847DAB18082DD90C13022F62DFB DUP3 PUSH2 0x700 JUMP JUMPDEST POP JUMP JUMPDEST PUSH2 0x4BF PUSH32 0x3BD382F411BCA881C98196B18EDCE31A82CF3847DAB18082DD90C13022F62DFB CALLER PUSH2 0x508 JUMP JUMPDEST PUSH2 0x4FE JUMPI PUSH1 0x40 MLOAD PUSH32 0x8C379A000000000000000000000000000000000000000000000000000000000 DUP2 MSTORE PUSH1 0x4 ADD PUSH2 0x4F5 SWAP1 PUSH2 0xE1D JUMP JUMPDEST PUSH1 0x40 MLOAD DUP1 SWAP2 SUB SWAP1 REVERT JUMPDEST DUP1 PUSH1 0x1 DUP2 SWAP1 SSTORE POP POP JUMP JUMPDEST PUSH1 0x0 DUP1 PUSH1 0x0 DUP5 DUP2 MSTORE PUSH1 0x20 ADD SWAP1 DUP2 MSTORE PUSH1 0x20 ADD PUSH1 0x0 KECCAK256 PUSH1 0x0 ADD PUSH1 0x0 DUP4 PUSH20 0xFFFFFFFFFFFFFFFFFFFFFFFFFFFFFFFFFFFFFFFF AND PUSH20 0xFFFFFFFFFFFFFFFFFFFFFFFFFFFFFFFFFFFFFFFF AND DUP2 MSTORE PUSH1 0x20 ADD SWAP1 DUP2 MSTORE PUSH1 0x20 ADD PUSH1 0x0 KECCAK256 PUSH1 0x0 SWAP1 SLOAD SWAP1 PUSH2 0x100 EXP SWAP1 DIV PUSH1 0xFF AND SWAP1 POP SWAP3 SWAP2 POP POP JUMP JUMPDEST PUSH1 0x0 DUP1 SHL DUP2 JUMP JUMPDEST PUSH2 0x582 DUP3 PUSH2 0x332 JUMP JUMPDEST PUSH2 0x58B DUP2 PUSH2 0x6E4 JUMP JUMPDEST PUSH2 0x595 DUP4 DUP4 PUSH2 0x700 JUMP JUMPDEST POP POP POP JUMP JUMPDEST PUSH1 0x0 PUSH32 0x1FFC9A700000000000000000000000000000000000000000000000000000000 PUSH28 0xFFFFFFFFFFFFFFFFFFFFFFFFFFFFFFFFFFFFFFFFFFFFFFFFFFFFFFFF NOT AND DUP3 PUSH28 0xFFFFFFFFFFFFFFFFFFFFFFFFFFFFFFFFFFFFFFFFFFFFFFFFFFFFFFFF NOT AND EQ SWAP1 POP SWAP2 SWAP1 POP JUMP JUMPDEST PUSH2 0x60E DUP3 DUP3 PUSH2 0x508 JUMP JUMPDEST PUSH2 0x6E0 JUMPI PUSH1 0x1 PUSH1 0x0 DUP1 DUP5 DUP2 MSTORE PUSH1 0x20 ADD SWAP1 DUP2 MSTORE PUSH1 0x20 ADD PUSH1 0x0 KECCAK256 PUSH1 0x0 ADD PUSH1 0x0 DUP4 PUSH20 0xFFFFFFFFFFFFFFFFFFFFFFFFFFFFFFFFFFFFFFFF AND PUSH20 0xFFFFFFFFFFFFFFFFFFFFFFFFFFFFFFFFFFFFFFFF AND DUP2 MSTORE PUSH1 0x20 ADD SWAP1 DUP2 MSTORE PUSH1 0x20 ADD PUSH1 0x0 KECCAK256 PUSH1 0x0 PUSH2 0x100 EXP DUP2 SLOAD DUP2 PUSH1 0xFF MUL NOT AND SWAP1 DUP4 ISZERO ISZERO MUL OR SWAP1 SSTORE POP PUSH2 0x685 PUSH2 0x6F8 JUMP JUMPDEST PUSH20 0xFFFFFFFFFFFFFFFFFFFFFFFFFFFFFFFFFFFFFFFF AND DUP2 PUSH20 0xFFFFFFFFFFFFFFFFFFFFFFFFFFFFFFFFFFFFFFFF AND DUP4 PUSH32 0x2F8788117E7EFF1D82E926EC794901D17C78024A50270940304540A733656F0D PUSH1 0x40 MLOAD PUSH1 0x40 MLOAD DUP1 SWAP2 SUB SWAP1 LOG4 JUMPDEST POP POP JUMP JUMPDEST PUSH2 0x6F5 DUP2 PUSH2 0x6F0 PUSH2 0x6F8 JUMP JUMPDEST PUSH2 0x7E1 JUMP JUMPDEST POP JUMP JUMPDEST PUSH1 0x0 CALLER SWAP1 POP SWAP1 JUMP JUMPDEST PUSH2 0x70A DUP3 DUP3 PUSH2 0x508 JUMP JUMPDEST ISZERO PUSH2 0x7DD JUMPI PUSH1 0x0 DUP1 PUSH1 0x0 DUP5 DUP2 MSTORE PUSH1 0x20 ADD SWAP1 DUP2 MSTORE PUSH1 0x20 ADD PUSH1 0x0 KECCAK256 PUSH1 0x0 ADD PUSH1 0x0 DUP4 PUSH20 0xFFFFFFFFFFFFFFFFFFFFFFFFFFFFFFFFFFFFFFFF AND PUSH20 0xFFFFFFFFFFFFFFFFFFFFFFFFFFFFFFFFFFFFFFFF AND DUP2 MSTORE PUSH1 0x20 ADD SWAP1 DUP2 MSTORE PUSH1 0x20 ADD PUSH1 0x0 KECCAK256 PUSH1 0x0 PUSH2 0x100 EXP DUP2 SLOAD DUP2 PUSH1 0xFF MUL NOT AND SWAP1 DUP4 ISZERO ISZERO MUL OR SWAP1 SSTORE POP PUSH2 0x782 PUSH2 0x6F8 JUMP JUMPDEST PUSH20 0xFFFFFFFFFFFFFFFFFFFFFFFFFFFFFFFFFFFFFFFF AND DUP2 PUSH20 0xFFFFFFFFFFFFFFFFFFFFFFFFFFFFFFFFFFFFFFFF AND DUP4 PUSH32 0xF6391F5C32D9C69D2A47EA670B442974B53935D1EDC7FD64EB21E047A839171B PUSH1 0x40 MLOAD PUSH1 0x40 MLOAD DUP1 SWAP2 SUB SWAP1 LOG4 JUMPDEST POP POP JUMP JUMPDEST PUSH2 0x7EB DUP3 DUP3 PUSH2 0x508 JUMP JUMPDEST PUSH2 0x87A JUMPI PUSH2 0x810 DUP2 PUSH20 0xFFFFFFFFFFFFFFFFFFFFFFFFFFFFFFFFFFFFFFFF AND PUSH1 0x14 PUSH2 0x87E JUMP JUMPDEST PUSH2 0x81E DUP4 PUSH1 0x0 SHR PUSH1 0x20 PUSH2 0x87E JUMP JUMPDEST PUSH1 0x40 MLOAD PUSH1 0x20 ADD PUSH2 0x82F SWAP3 SWAP2 SWAP1 PUSH2 0xD6B JUMP JUMPDEST PUSH1 0x40 MLOAD PUSH1 0x20 DUP2 DUP4 SUB SUB DUP2 MSTORE SWAP1 PUSH1 0x40 MSTORE PUSH1 0x40 MLOAD PUSH32 0x8C379A000000000000000000000000000000000000000000000000000000000 DUP2 MSTORE PUSH1 0x4 ADD PUSH2 0x871 SWAP2 SWAP1 PUSH2 0xDDB JUMP JUMPDEST PUSH1 0x40 MLOAD DUP1 SWAP2 SUB SWAP1 REVERT JUMPDEST POP POP JUMP JUMPDEST PUSH1 0x60 PUSH1 0x0 PUSH1 0x2 DUP4 PUSH1 0x2 PUSH2 0x891 SWAP2 SWAP1 PUSH2 0xF15 JUMP JUMPDEST PUSH2 0x89B SWAP2 SWAP1 PUSH2 0xEBF JUMP JUMPDEST PUSH8 0xFFFFFFFFFFFFFFFF DUP2 GT ISZERO PUSH2 0x8B4 JUMPI PUSH2 0x8B3 PUSH2 0x10A8 JUMP JUMPDEST JUMPDEST PUSH1 0x40 MLOAD SWAP1 DUP1 DUP3 MSTORE DUP1 PUSH1 0x1F ADD PUSH1 0x1F NOT AND PUSH1 0x20 ADD DUP3 ADD PUSH1 0x40 MSTORE DUP1 ISZERO PUSH2 0x8E6 JUMPI DUP2 PUSH1 0x20 ADD PUSH1 0x1 DUP3 MUL DUP1 CALLDATASIZE DUP4 CALLDATACOPY DUP1 DUP3 ADD SWAP2 POP POP SWAP1 POP JUMPDEST POP SWAP1 POP PUSH32 0x3000000000000000000000000000000000000000000000000000000000000000 DUP2 PUSH1 0x0 DUP2 MLOAD DUP2 LT PUSH2 0x91E JUMPI PUSH2 0x91D PUSH2 0x1079 JUMP JUMPDEST JUMPDEST PUSH1 0x20 ADD ADD SWAP1 PUSH31 0xFFFFFFFFFFFFFFFFFFFFFFFFFFFFFFFFFFFFFFFFFFFFFFFFFFFFFFFFFFFFFF NOT AND SWAP1 DUP2 PUSH1 0x0 BYTE SWAP1 MSTORE8 POP PUSH32 0x7800000000000000000000000000000000000000000000000000000000000000 DUP2 PUSH1 0x1 DUP2 MLOAD DUP2 LT PUSH2 0x982 JUMPI PUSH2 0x981 PUSH2 0x1079 JUMP JUMPDEST JUMPDEST PUSH1 0x20 ADD ADD SWAP1 PUSH31 0xFFFFFFFFFFFFFFFFFFFFFFFFFFFFFFFFFFFFFFFFFFFFFFFFFFFFFFFFFFFFFF NOT AND SWAP1 DUP2 PUSH1 0x0 BYTE SWAP1 MSTORE8 POP PUSH1 0x0 PUSH1 0x1 DUP5 PUSH1 0x2 PUSH2 0x9C2 SWAP2 SWAP1 PUSH2 0xF15 JUMP JUMPDEST PUSH2 0x9CC SWAP2 SWAP1 PUSH2 0xEBF JUMP JUMPDEST SWAP1 POP JUMPDEST PUSH1 0x1 DUP2 GT ISZERO PUSH2 0xA6C JUMPI PUSH32 0x3031323334353637383961626364656600000000000000000000000000000000 PUSH1 0xF DUP7 AND PUSH1 0x10 DUP2 LT PUSH2 0xA0E JUMPI PUSH2 0xA0D PUSH2 0x1079 JUMP JUMPDEST JUMPDEST BYTE PUSH1 0xF8 SHL DUP3 DUP3 DUP2 MLOAD DUP2 LT PUSH2 0xA25 JUMPI PUSH2 0xA24 PUSH2 0x1079 JUMP JUMPDEST JUMPDEST PUSH1 0x20 ADD ADD SWAP1 PUSH31 0xFFFFFFFFFFFFFFFFFFFFFFFFFFFFFFFFFFFFFFFFFFFFFFFFFFFFFFFFFFFFFF NOT AND SWAP1 DUP2 PUSH1 0x0 BYTE SWAP1 MSTORE8 POP PUSH1 0x4 DUP6 SWAP1 SHR SWAP5 POP DUP1 PUSH2 0xA65 SWAP1 PUSH2 0x1020 JUMP JUMPDEST SWAP1 POP PUSH2 0x9CF JUMP JUMPDEST POP PUSH1 0x0 DUP5 EQ PUSH2 0xAB0 JUMPI PUSH1 0x40 MLOAD PUSH32 0x8C379A000000000000000000000000000000000000000000000000000000000 DUP2 MSTORE PUSH1 0x4 ADD PUSH2 0xAA7 SWAP1 PUSH2 0xDFD JUMP JUMPDEST PUSH1 0x40 MLOAD DUP1 SWAP2 SUB SWAP1 REVERT JUMPDEST DUP1 SWAP2 POP POP SWAP3 SWAP2 POP POP JUMP JUMPDEST PUSH1 0x0 DUP2 CALLDATALOAD SWAP1 POP PUSH2 0xAC9 DUP2 PUSH2 0x12A1 JUMP JUMPDEST SWAP3 SWAP2 POP POP JUMP JUMPDEST PUSH1 0x0 DUP2 CALLDATALOAD SWAP1 POP PUSH2 0xADE DUP2 PUSH2 0x12B8 JUMP JUMPDEST SWAP3 SWAP2 POP POP JUMP JUMPDEST PUSH1 0x0 DUP2 CALLDATALOAD SWAP1 POP PUSH2 0xAF3 DUP2 PUSH2 0x12CF JUMP JUMPDEST SWAP3 SWAP2 POP POP JUMP JUMPDEST PUSH1 0x0 DUP2 CALLDATALOAD SWAP1 POP PUSH2 0xB08 DUP2 PUSH2 0x12E6 JUMP JUMPDEST SWAP3 SWAP2 POP POP JUMP JUMPDEST PUSH1 0x0 PUSH1 0x20 DUP3 DUP5 SUB SLT ISZERO PUSH2 0xB24 JUMPI PUSH2 0xB23 PUSH2 0x10D7 JUMP JUMPDEST JUMPDEST PUSH1 0x0 PUSH2 0xB32 DUP5 DUP3 DUP6 ADD PUSH2 0xABA JUMP JUMPDEST SWAP2 POP POP SWAP3 SWAP2 POP POP JUMP JUMPDEST PUSH1 0x0 PUSH1 0x20 DUP3 DUP5 SUB SLT ISZERO PUSH2 0xB51 JUMPI PUSH2 0xB50 PUSH2 0x10D7 JUMP JUMPDEST JUMPDEST PUSH1 0x0 PUSH2 0xB5F DUP5 DUP3 DUP6 ADD PUSH2 0xACF JUMP JUMPDEST SWAP2 POP POP SWAP3 SWAP2 POP POP JUMP JUMPDEST PUSH1 0x0 DUP1 PUSH1 0x40 DUP4 DUP6 SUB SLT ISZERO PUSH2 0xB7F JUMPI PUSH2 0xB7E PUSH2 0x10D7 JUMP JUMPDEST JUMPDEST PUSH1 0x0 PUSH2 0xB8D DUP6 DUP3 DUP7 ADD PUSH2 0xACF JUMP JUMPDEST SWAP3 POP POP PUSH1 0x20 PUSH2 0xB9E DUP6 DUP3 DUP7 ADD PUSH2 0xABA JUMP JUMPDEST SWAP2 POP POP SWAP3 POP SWAP3 SWAP1 POP JUMP JUMPDEST PUSH1 0x0 PUSH1 0x20 DUP3 DUP5 SUB SLT ISZERO PUSH2 0xBBE JUMPI PUSH2 0xBBD PUSH2 0x10D7 JUMP JUMPDEST JUMPDEST PUSH1 0x0 PUSH2 0xBCC DUP5 DUP3 DUP6 ADD PUSH2 0xAE4 JUMP JUMPDEST SWAP2 POP POP SWAP3 SWAP2 POP POP JUMP JUMPDEST PUSH1 0x0 PUSH1 0x20 DUP3 DUP5 SUB SLT ISZERO PUSH2 0xBEB JUMPI PUSH2 0xBEA PUSH2 0x10D7 JUMP JUMPDEST JUMPDEST PUSH1 0x0 PUSH2 0xBF9 DUP5 DUP3 DUP6 ADD PUSH2 0xAF9 JUMP JUMPDEST SWAP2 POP POP SWAP3 SWAP2 POP POP JUMP JUMPDEST PUSH2 0xC0B DUP2 PUSH2 0xF81 JUMP JUMPDEST DUP3 MSTORE POP POP JUMP JUMPDEST PUSH2 0xC1A DUP2 PUSH2 0xF8D JUMP JUMPDEST DUP3 MSTORE POP POP JUMP JUMPDEST PUSH1 0x0 PUSH2 0xC2B DUP3 PUSH2 0xE98 JUMP JUMPDEST PUSH2 0xC35 DUP2 DUP6 PUSH2 0xEA3 JUMP JUMPDEST SWAP4 POP PUSH2 0xC45 DUP2 DUP6 PUSH1 0x20 DUP7 ADD PUSH2 0xFED JUMP JUMPDEST PUSH2 0xC4E DUP2 PUSH2 0x10DC JUMP JUMPDEST DUP5 ADD SWAP2 POP POP SWAP3 SWAP2 POP POP JUMP JUMPDEST PUSH1 0x0 PUSH2 0xC64 DUP3 PUSH2 0xE98 JUMP JUMPDEST PUSH2 0xC6E DUP2 DUP6 PUSH2 0xEB4 JUMP JUMPDEST SWAP4 POP PUSH2 0xC7E DUP2 DUP6 PUSH1 0x20 DUP7 ADD PUSH2 0xFED JUMP JUMPDEST DUP1 DUP5 ADD SWAP2 POP POP SWAP3 SWAP2 POP POP JUMP JUMPDEST PUSH1 0x0 PUSH2 0xC97 PUSH1 0x20 DUP4 PUSH2 0xEA3 JUMP JUMPDEST SWAP2 POP PUSH2 0xCA2 DUP3 PUSH2 0x10ED JUMP JUMPDEST PUSH1 0x20 DUP3 ADD SWAP1 POP SWAP2 SWAP1 POP JUMP JUMPDEST PUSH1 0x0 PUSH2 0xCBA PUSH1 0x42 DUP4 PUSH2 0xEA3 JUMP JUMPDEST SWAP2 POP PUSH2 0xCC5 DUP3 PUSH2 0x1116 JUMP JUMPDEST PUSH1 0x60 DUP3 ADD SWAP1 POP SWAP2 SWAP1 POP JUMP JUMPDEST PUSH1 0x0 PUSH2 0xCDD PUSH1 0x5A DUP4 PUSH2 0xEA3 JUMP JUMPDEST SWAP2 POP PUSH2 0xCE8 DUP3 PUSH2 0x118B JUMP JUMPDEST PUSH1 0x60 DUP3 ADD SWAP1 POP SWAP2 SWAP1 POP JUMP JUMPDEST PUSH1 0x0 PUSH2 0xD00 PUSH1 0x17 DUP4 PUSH2 0xEB4 JUMP JUMPDEST SWAP2 POP PUSH2 0xD0B DUP3 PUSH2 0x1200 JUMP JUMPDEST PUSH1 0x17 DUP3 ADD SWAP1 POP SWAP2 SWAP1 POP JUMP JUMPDEST PUSH1 0x0 PUSH2 0xD23 PUSH1 0x11 DUP4 PUSH2 0xEB4 JUMP JUMPDEST SWAP2 POP PUSH2 0xD2E DUP3 PUSH2 0x1229 JUMP JUMPDEST PUSH1 0x11 DUP3 ADD SWAP1 POP SWAP2 SWAP1 POP JUMP JUMPDEST PUSH1 0x0 PUSH2 0xD46 PUSH1 0x2F DUP4 PUSH2 0xEA3 JUMP JUMPDEST SWAP2 POP PUSH2 0xD51 DUP3 PUSH2 0x1252 JUMP JUMPDEST PUSH1 0x40 DUP3 ADD SWAP1 POP SWAP2 SWAP1 POP JUMP JUMPDEST PUSH2 0xD65 DUP2 PUSH2 0xFE3 JUMP JUMPDEST DUP3 MSTORE POP POP JUMP JUMPDEST PUSH1 0x0 PUSH2 0xD76 DUP3 PUSH2 0xCF3 JUMP JUMPDEST SWAP2 POP PUSH2 0xD82 DUP3 DUP6 PUSH2 0xC59 JUMP JUMPDEST SWAP2 POP PUSH2 0xD8D DUP3 PUSH2 0xD16 JUMP JUMPDEST SWAP2 POP PUSH2 0xD99 DUP3 DUP5 PUSH2 0xC59 JUMP JUMPDEST SWAP2 POP DUP2 SWAP1 POP SWAP4 SWAP3 POP POP POP JUMP JUMPDEST PUSH1 0x0 PUSH1 0x20 DUP3 ADD SWAP1 POP PUSH2 0xDBA PUSH1 0x0 DUP4 ADD DUP5 PUSH2 0xC02 JUMP JUMPDEST SWAP3 SWAP2 POP POP JUMP JUMPDEST PUSH1 0x0 PUSH1 0x20 DUP3 ADD SWAP1 POP PUSH2 0xDD5 PUSH1 0x0 DUP4 ADD DUP5 PUSH2 0xC11 JUMP JUMPDEST SWAP3 SWAP2 POP POP JUMP JUMPDEST PUSH1 0x0 PUSH1 0x20 DUP3 ADD SWAP1 POP DUP2 DUP2 SUB PUSH1 0x0 DUP4 ADD MSTORE PUSH2 0xDF5 DUP2 DUP5 PUSH2 0xC20 JUMP JUMPDEST SWAP1 POP SWAP3 SWAP2 POP POP JUMP JUMPDEST PUSH1 0x0 PUSH1 0x20 DUP3 ADD SWAP1 POP DUP2 DUP2 SUB PUSH1 0x0 DUP4 ADD MSTORE PUSH2 0xE16 DUP2 PUSH2 0xC8A JUMP JUMPDEST SWAP1 POP SWAP2 SWAP1 POP JUMP JUMPDEST PUSH1 0x0 PUSH1 0x20 DUP3 ADD SWAP1 POP DUP2 DUP2 SUB PUSH1 0x0 DUP4 ADD MSTORE PUSH2 0xE36 DUP2 PUSH2 0xCAD JUMP JUMPDEST SWAP1 POP SWAP2 SWAP1 POP JUMP JUMPDEST PUSH1 0x0 PUSH1 0x20 DUP3 ADD SWAP1 POP DUP2 DUP2 SUB PUSH1 0x0 DUP4 ADD MSTORE PUSH2 0xE56 DUP2 PUSH2 0xCD0 JUMP JUMPDEST SWAP1 POP SWAP2 SWAP1 POP JUMP JUMPDEST PUSH1 0x0 PUSH1 0x20 DUP3 ADD SWAP1 POP DUP2 DUP2 SUB PUSH1 0x0 DUP4 ADD MSTORE PUSH2 0xE76 DUP2 PUSH2 0xD39 JUMP JUMPDEST SWAP1 POP SWAP2 SWAP1 POP JUMP JUMPDEST PUSH1 0x0 PUSH1 0x20 DUP3 ADD SWAP1 POP PUSH2 0xE92 PUSH1 0x0 DUP4 ADD DUP5 PUSH2 0xD5C JUMP JUMPDEST SWAP3 SWAP2 POP POP JUMP JUMPDEST PUSH1 0x0 DUP2 MLOAD SWAP1 POP SWAP2 SWAP1 POP JUMP JUMPDEST PUSH1 0x0 DUP3 DUP3 MSTORE PUSH1 0x20 DUP3 ADD SWAP1 POP SWAP3 SWAP2 POP POP JUMP JUMPDEST PUSH1 0x0 DUP2 SWAP1 POP SWAP3 SWAP2 POP POP JUMP JUMPDEST PUSH1 0x0 PUSH2 0xECA DUP3 PUSH2 0xFE3 JUMP JUMPDEST SWAP2 POP PUSH2 0xED5 DUP4 PUSH2 0xFE3 JUMP JUMPDEST SWAP3 POP DUP3 PUSH32 0xFFFFFFFFFFFFFFFFFFFFFFFFFFFFFFFFFFFFFFFFFFFFFFFFFFFFFFFFFFFFFFFF SUB DUP3 GT ISZERO PUSH2 0xF0A JUMPI PUSH2 0xF09 PUSH2 0x104A JUMP JUMPDEST JUMPDEST DUP3 DUP3 ADD SWAP1 POP SWAP3 SWAP2 POP POP JUMP JUMPDEST PUSH1 0x0 PUSH2 0xF20 DUP3 PUSH2 0xFE3 JUMP JUMPDEST SWAP2 POP PUSH2 0xF2B DUP4 PUSH2 0xFE3 JUMP JUMPDEST SWAP3 POP DUP2 PUSH32 0xFFFFFFFFFFFFFFFFFFFFFFFFFFFFFFFFFFFFFFFFFFFFFFFFFFFFFFFFFFFFFFFF DIV DUP4 GT DUP3 ISZERO ISZERO AND ISZERO PUSH2 0xF64 JUMPI PUSH2 0xF63 PUSH2 0x104A JUMP JUMPDEST JUMPDEST DUP3 DUP3 MUL SWAP1 POP SWAP3 SWAP2 POP POP JUMP JUMPDEST PUSH1 0x0 PUSH2 0xF7A DUP3 PUSH2 0xFC3 JUMP JUMPDEST SWAP1 POP SWAP2 SWAP1 POP JUMP JUMPDEST PUSH1 0x0 DUP2 ISZERO ISZERO SWAP1 POP SWAP2 SWAP1 POP JUMP JUMPDEST PUSH1 0x0 DUP2 SWAP1 POP SWAP2 SWAP1 POP JUMP JUMPDEST PUSH1 0x0 PUSH32 0xFFFFFFFF00000000000000000000000000000000000000000000000000000000 DUP3 AND SWAP1 POP SWAP2 SWAP1 POP JUMP JUMPDEST PUSH1 0x0 PUSH20 0xFFFFFFFFFFFFFFFFFFFFFFFFFFFFFFFFFFFFFFFF DUP3 AND SWAP1 POP SWAP2 SWAP1 POP JUMP JUMPDEST PUSH1 0x0 DUP2 SWAP1 POP SWAP2 SWAP1 POP JUMP JUMPDEST PUSH1 0x0 JUMPDEST DUP4 DUP2 LT ISZERO PUSH2 0x100B JUMPI DUP1 DUP3 ADD MLOAD DUP2 DUP5 ADD MSTORE PUSH1 0x20 DUP2 ADD SWAP1 POP PUSH2 0xFF0 JUMP JUMPDEST DUP4 DUP2 GT ISZERO PUSH2 0x101A JUMPI PUSH1 0x0 DUP5 DUP5 ADD MSTORE JUMPDEST POP POP POP POP JUMP JUMPDEST PUSH1 0x0 PUSH2 0x102B DUP3 PUSH2 0xFE3 JUMP JUMPDEST SWAP2 POP PUSH1 0x0 DUP3 EQ ISZERO PUSH2 0x103F JUMPI PUSH2 0x103E PUSH2 0x104A JUMP JUMPDEST JUMPDEST PUSH1 0x1 DUP3 SUB SWAP1 POP SWAP2 SWAP1 POP JUMP JUMPDEST PUSH32 0x4E487B7100000000000000000000000000000000000000000000000000000000 PUSH1 0x0 MSTORE PUSH1 0x11 PUSH1 0x4 MSTORE PUSH1 0x24 PUSH1 0x0 REVERT JUMPDEST PUSH32 0x4E487B7100000000000000000000000000000000000000000000000000000000 PUSH1 0x0 MSTORE PUSH1 0x32 PUSH1 0x4 MSTORE PUSH1 0x24 PUSH1 0x0 REVERT JUMPDEST PUSH32 0x4E487B7100000000000000000000000000000000000000000000000000000000 PUSH1 0x0 MSTORE PUSH1 0x41 PUSH1 0x4 MSTORE PUSH1 0x24 PUSH1 0x0 REVERT JUMPDEST PUSH1 0x0 DUP1 REVERT JUMPDEST PUSH1 0x0 PUSH1 0x1F NOT PUSH1 0x1F DUP4 ADD AND SWAP1 POP SWAP2 SWAP1 POP JUMP JUMPDEST PUSH32 0x537472696E67733A20686578206C656E67746820696E73756666696369656E74 PUSH1 0x0 DUP3 ADD MSTORE POP JUMP JUMPDEST PUSH32 0x456C207573756172696F206E6F207469656E6520656C20726F6C205752495445 PUSH1 0x0 DUP3 ADD MSTORE PUSH32 0x52207061726120656A656375746172206C612066756E63696F6E2053746F7261 PUSH1 0x20 DUP3 ADD MSTORE PUSH32 0x6765000000000000000000000000000000000000000000000000000000000000 PUSH1 0x40 DUP3 ADD MSTORE POP JUMP JUMPDEST PUSH32 0x456C207573756172696F206E6F207469656E6520656C20726F6C2041444D494E PUSH1 0x0 DUP3 ADD MSTORE PUSH32 0x207061726120656A656375746172206C612066756E63696F6E20646520676172 PUSH1 0x20 DUP3 ADD MSTORE PUSH32 0x616E74697A6172206F207265766F636172207065726D69736F73000000000000 PUSH1 0x40 DUP3 ADD MSTORE POP JUMP JUMPDEST PUSH32 0x416363657373436F6E74726F6C3A206163636F756E7420000000000000000000 PUSH1 0x0 DUP3 ADD MSTORE POP JUMP JUMPDEST PUSH32 0x206973206D697373696E6720726F6C6520000000000000000000000000000000 PUSH1 0x0 DUP3 ADD MSTORE POP JUMP JUMPDEST PUSH32 0x416363657373436F6E74726F6C3A2063616E206F6E6C792072656E6F756E6365 PUSH1 0x0 DUP3 ADD MSTORE PUSH32 0x20726F6C657320666F722073656C660000000000000000000000000000000000 PUSH1 0x20 DUP3 ADD MSTORE POP JUMP JUMPDEST PUSH2 0x12AA DUP2 PUSH2 0xF6F JUMP JUMPDEST DUP2 EQ PUSH2 0x12B5 JUMPI PUSH1 0x0 DUP1 REVERT JUMPDEST POP JUMP JUMPDEST PUSH2 0x12C1 DUP2 PUSH2 0xF8D JUMP JUMPDEST DUP2 EQ PUSH2 0x12CC JUMPI PUSH1 0x0 DUP1 REVERT JUMPDEST POP JUMP JUMPDEST PUSH2 0x12D8 DUP2 PUSH2 0xF97 JUMP JUMPDEST DUP2 EQ PUSH2 0x12E3 JUMPI PUSH1 0x0 DUP1 REVERT JUMPDEST POP JUMP JUMPDEST PUSH2 0x12EF DUP2 PUSH2 0xFE3 JUMP JUMPDEST DUP2 EQ PUSH2 0x12FA JUMPI PUSH1 0x0 DUP1 REVERT JUMPDEST POP JUMP INVALID LOG2 PUSH5 0x6970667358 0x22 SLT KECCAK256 0xD2 0x5E EXTCODEHASH 0xD7 0xB5 SLOAD SWAP14 0x4E PUSH10 0x69EA61A4C52B21BAB767 CREATE EXTCODECOPY 0xCA MUL SWAP5 INVALID 0x2A 0x2C DUP3 RETURN 0x5D 0xC2 0xCE PUSH5 0x736F6C6343 STOP ADDMOD SMOD STOP CALLER "
		},
		"gasEstimates": {
			"creation": {
				"codeDepositCost": "983000",
				"executionCost": "infinite",
				"totalCost": "infinite"
			},
			"external": {
				"DEFAULT_ADMIN_ROLE()": "423",
				"agregarWriter(address)": "infinite",
				"getRoleAdmin(bytes32)": "infinite",
				"grantRole(bytes32,address)": "infinite",
				"hasRole(bytes32,address)": "3206",
				"quitarWriter(address)": "infinite",
				"renounceRole(bytes32,address)": "infinite",
				"retrieve()": "2504",
				"revokeRole(bytes32,address)": "infinite",
				"store(uint256)": "24938",
				"supportsInterface(bytes4)": "728"
			}
		},
		"methodIdentifiers": {
			"DEFAULT_ADMIN_ROLE()": "a217fddf",
			"agregarWriter(address)": "235ef56f",
			"getRoleAdmin(bytes32)": "248a9ca3",
			"grantRole(bytes32,address)": "2f2ff15d",
			"hasRole(bytes32,address)": "91d14854",
			"quitarWriter(address)": "4c2e19d0",
			"renounceRole(bytes32,address)": "36568abe",
			"retrieve()": "2e64cec1",
			"revokeRole(bytes32,address)": "d547741f",
			"store(uint256)": "6057361d",
			"supportsInterface(bytes4)": "01ffc9a7"
		}
	},
	"abi": [
		{
			"inputs": [],
			"stateMutability": "nonpayable",
			"type": "constructor"
		},
		{
			"anonymous": false,
			"inputs": [
				{
					"indexed": true,
					"internalType": "bytes32",
					"name": "role",
					"type": "bytes32"
				},
				{
					"indexed": true,
					"internalType": "bytes32",
					"name": "previousAdminRole",
					"type": "bytes32"
				},
				{
					"indexed": true,
					"internalType": "bytes32",
					"name": "newAdminRole",
					"type": "bytes32"
				}
			],
			"name": "RoleAdminChanged",
			"type": "event"
		},
		{
			"anonymous": false,
			"inputs": [
				{
					"indexed": true,
					"internalType": "bytes32",
					"name": "role",
					"type": "bytes32"
				},
				{
					"indexed": true,
					"internalType": "address",
					"name": "account",
					"type": "address"
				},
				{
					"indexed": true,
					"internalType": "address",
					"name": "sender",
					"type": "address"
				}
			],
			"name": "RoleGranted",
			"type": "event"
		},
		{
			"anonymous": false,
			"inputs": [
				{
					"indexed": true,
					"internalType": "bytes32",
					"name": "role",
					"type": "bytes32"
				},
				{
					"indexed": true,
					"internalType": "address",
					"name": "account",
					"type": "address"
				},
				{
					"indexed": true,
					"internalType": "address",
					"name": "sender",
					"type": "address"
				}
			],
			"name": "RoleRevoked",
			"type": "event"
		},
		{
			"inputs": [],
			"name": "DEFAULT_ADMIN_ROLE",
			"outputs": [
				{
					"internalType": "bytes32",
					"name": "",
					"type": "bytes32"
				}
			],
			"stateMutability": "view",
			"type": "function"
		},
		{
			"inputs": [
				{
					"internalType": "address",
					"name": "cuenta",
					"type": "address"
				}
			],
			"name": "agregarWriter",
			"outputs": [],
			"stateMutability": "nonpayable",
			"type": "function"
		},
		{
			"inputs": [
				{
					"internalType": "bytes32",
					"name": "role",
					"type": "bytes32"
				}
			],
			"name": "getRoleAdmin",
			"outputs": [
				{
					"internalType": "bytes32",
					"name": "",
					"type": "bytes32"
				}
			],
			"stateMutability": "view",
			"type": "function"
		},
		{
			"inputs": [
				{
					"internalType": "bytes32",
					"name": "role",
					"type": "bytes32"
				},
				{
					"internalType": "address",
					"name": "account",
					"type": "address"
				}
			],
			"name": "grantRole",
			"outputs": [],
			"stateMutability": "nonpayable",
			"type": "function"
		},
		{
			"inputs": [
				{
					"internalType": "bytes32",
					"name": "role",
					"type": "bytes32"
				},
				{
					"internalType": "address",
					"name": "account",
					"type": "address"
				}
			],
			"name": "hasRole",
			"outputs": [
				{
					"internalType": "bool",
					"name": "",
					"type": "bool"
				}
			],
			"stateMutability": "view",
			"type": "function"
		},
		{
			"inputs": [
				{
					"internalType": "address",
					"name": "cuenta",
					"type": "address"
				}
			],
			"name": "quitarWriter",
			"outputs": [],
			"stateMutability": "nonpayable",
			"type": "function"
		},
		{
			"inputs": [
				{
					"internalType": "bytes32",
					"name": "role",
					"type": "bytes32"
				},
				{
					"internalType": "address",
					"name": "account",
					"type": "address"
				}
			],
			"name": "renounceRole",
			"outputs": [],
			"stateMutability": "nonpayable",
			"type": "function"
		},
		{
			"inputs": [],
			"name": "retrieve",
			"outputs": [
				{
					"internalType": "uint256",
					"name": "",
					"type": "uint256"
				}
			],
			"stateMutability": "view",
			"type": "function"
		},
		{
			"inputs": [
				{
					"internalType": "bytes32",
					"name": "role",
					"type": "bytes32"
				},
				{
					"internalType": "address",
					"name": "account",
					"type": "address"
				}
			],
			"name": "revokeRole",
			"outputs": [],
			"stateMutability": "nonpayable",
			"type": "function"
		},
		{
			"inputs": [
				{
					"internalType": "uint256",
					"name": "num",
					"type": "uint256"
				}
			],
			"name": "store",
			"outputs": [],
			"stateMutability": "nonpayable",
			"type": "function"
		},
		{
			"inputs": [
				{
					"internalType": "bytes4",
					"name": "interfaceId",
					"type": "bytes4"
				}
			],
			"name": "supportsInterface",
			"outputs": [
				{
					"internalType": "bool",
					"name": "",
					"type": "bool"
				}
			],
			"stateMutability": "view",
			"type": "function"
		}
	]
}