{
	"data": {
		"bytecode": {
			"linkReferences": {},
			"object": "60806040523480156200001157600080fd5b506040518060400160405280601381526020017f4465736166696f20457874656e73696f6e6573000000000000000000000000008152506040518060400160405280600281526020017f444500000000000000000000000000000000000000000000000000000000000081525081600390805190602001906200009692919062000359565b508060049080519060200190620000af92919062000359565b5050506000600560006101000a81548160ff021916908315150217905550620000ed620000e16200010860201b60201c565b6200011060201b60201c565b6200010233620186a0620001d660201b60201c565b620005b5565b600033905090565b6000600560019054906101000a900473ffffffffffffffffffffffffffffffffffffffff16905081600560016101000a81548173ffffffffffffffffffffffffffffffffffffffff021916908373ffffffffffffffffffffffffffffffffffffffff1602179055508173ffffffffffffffffffffffffffffffffffffffff168173ffffffffffffffffffffffffffffffffffffffff167f8be0079c531659141344cd1fd0a4f28419497f9722a3daafe3b4186f6b6457e060405160405180910390a35050565b600073ffffffffffffffffffffffffffffffffffffffff168273ffffffffffffffffffffffffffffffffffffffff16141562000249576040517f08c379a0000000000000000000000000000000000000000000000000000000008152600401620002409062000441565b60405180910390fd5b6200025d600083836200034f60201b60201c565b806002600082825462000271919062000491565b92505081905550806000808473ffffffffffffffffffffffffffffffffffffffff1673ffffffffffffffffffffffffffffffffffffffff1681526020019081526020016000206000828254620002c8919062000491565b925050819055508173ffffffffffffffffffffffffffffffffffffffff16600073ffffffffffffffffffffffffffffffffffffffff167fddf252ad1be2c89b69c2b068fc378daa952ba7f163c4a11628f55a4df523b3ef836040516200032f919062000463565b60405180910390a36200034b600083836200035460201b60201c565b5050565b505050565b505050565b8280546200036790620004f8565b90600052602060002090601f0160209004810192826200038b5760008555620003d7565b82601f10620003a657805160ff1916838001178555620003d7565b82800160010185558215620003d7579182015b82811115620003d6578251825591602001919060010190620003b9565b5b509050620003e69190620003ea565b5090565b5b8082111562000405576000816000905550600101620003eb565b5090565b600062000418601f8362000480565b915062000425826200058c565b602082019050919050565b6200043b81620004ee565b82525050565b600060208201905081810360008301526200045c8162000409565b9050919050565b60006020820190506200047a600083018462000430565b92915050565b600082825260208201905092915050565b60006200049e82620004ee565b9150620004ab83620004ee565b9250827fffffffffffffffffffffffffffffffffffffffffffffffffffffffffffffffff03821115620004e357620004e26200052e565b5b828201905092915050565b6000819050919050565b600060028204905060018216806200051157607f821691505b602082108114156200052857620005276200055d565b5b50919050565b7f4e487b7100000000000000000000000000000000000000000000000000000000600052601160045260246000fd5b7f4e487b7100000000000000000000000000000000000000000000000000000000600052602260045260246000fd5b7f45524332303a206d696e7420746f20746865207a65726f206164647265737300600082015250565b611dcc80620005c56000396000f3fe608060405234801561001057600080fd5b506004361061012c5760003560e01c806370a08231116100ad57806395d89b411161007157806395d89b41146102f9578063a457c2d714610317578063a9059cbb14610347578063dd62ed3e14610377578063f2fde38b146103a75761012c565b806370a082311461027b578063715018a6146102ab57806379cc6790146102b557806379d968de146102d15780638da5cb5b146102db5761012c565b806323b872dd116100f457806323b872dd146101c3578063313ce567146101f3578063395093511461021157806342966c68146102415780635c975abb1461025d5761012c565b8063066548811461013157806306fdde031461014d578063095ea7b31461016b57806318160ddd1461019b5780631c8108b1146101b9575b600080fd5b61014b60048036038101906101469190611300565b6103c3565b005b61015561041e565b60405161016291906115c2565b60405180910390f35b610185600480360381019061018091906112c0565b6104b0565b60405161019291906115a7565b60405180910390f35b6101a36104d3565b6040516101b091906117a4565b60405180910390f35b6101c16104dd565b005b6101dd60048036038101906101d8919061126d565b6104ef565b6040516101ea91906115a7565b60405180910390f35b6101fb61051e565b60405161020891906117bf565b60405180910390f35b61022b600480360381019061022691906112c0565b610527565b60405161023891906115a7565b60405180910390f35b61025b60048036038101906102569190611300565b61055e565b005b610265610572565b60405161027291906115a7565b60405180910390f35b61029560048036038101906102909190611200565b610589565b6040516102a291906117a4565b60405180910390f35b6102b36105d1565b005b6102cf60048036038101906102ca91906112c0565b6105e5565b005b6102d9610605565b005b6102e3610617565b6040516102f0919061158c565b60405180910390f35b610301610641565b60405161030e91906115c2565b60405180910390f35b610331600480360381019061032c91906112c0565b6106d3565b60405161033e91906115a7565b60405180910390f35b610361600480360381019061035c91906112c0565b61074a565b60405161036e91906115a7565b60405180910390f35b610391600480360381019061038c919061122d565b61076d565b60405161039e91906117a4565b60405180910390f35b6103c160048036038101906103bc9190611200565b6107f4565b005b600115156103cf610572565b15151415610412576040517f08c379a0000000000000000000000000000000000000000000000000000000008152600401610409906116c4565b60405180910390fd5b61041b8161055e565b50565b60606003805461042d90611908565b80601f016020809104026020016040519081016040528092919081815260200182805461045990611908565b80156104a65780601f1061047b576101008083540402835291602001916104a6565b820191906000526020600020905b81548152906001019060200180831161048957829003601f168201915b5050505050905090565b6000806104bb610878565b90506104c8818585610880565b600191505092915050565b6000600254905090565b6104e5610a4b565b6104ed610ac9565b565b6000806104fa610878565b9050610507858285610b2c565b610512858585610bb8565b60019150509392505050565b60006012905090565b600080610532610878565b9050610553818585610544858961076d565b61054e91906117f6565b610880565b600191505092915050565b61056f610569610878565b82610e39565b50565b6000600560009054906101000a900460ff16905090565b60008060008373ffffffffffffffffffffffffffffffffffffffff1673ffffffffffffffffffffffffffffffffffffffff168152602001908152602001600020549050919050565b6105d9610a4b565b6105e36000611010565b565b6105f7826105f1610878565b83610b2c565b6106018282610e39565b5050565b61060d610a4b565b6106156110d6565b565b6000600560019054906101000a900473ffffffffffffffffffffffffffffffffffffffff16905090565b60606004805461065090611908565b80601f016020809104026020016040519081016040528092919081815260200182805461067c90611908565b80156106c95780601f1061069e576101008083540402835291602001916106c9565b820191906000526020600020905b8154815290600101906020018083116106ac57829003601f168201915b5050505050905090565b6000806106de610878565b905060006106ec828661076d565b905083811015610731576040517f08c379a000000000000000000000000000000000000000000000000000000000815260040161072890611784565b60405180910390fd5b61073e8286868403610880565b60019250505092915050565b600080610755610878565b9050610762818585610bb8565b600191505092915050565b6000600160008473ffffffffffffffffffffffffffffffffffffffff1673ffffffffffffffffffffffffffffffffffffffff16815260200190815260200160002060008373ffffffffffffffffffffffffffffffffffffffff1673ffffffffffffffffffffffffffffffffffffffff16815260200190815260200160002054905092915050565b6107fc610a4b565b600073ffffffffffffffffffffffffffffffffffffffff168173ffffffffffffffffffffffffffffffffffffffff16141561086c576040517f08c379a000000000000000000000000000000000000000000000000000000000815260040161086390611644565b60405180910390fd5b61087581611010565b50565b600033905090565b600073ffffffffffffffffffffffffffffffffffffffff168373ffffffffffffffffffffffffffffffffffffffff1614156108f0576040517f08c379a00000000000000000000000000000000000000000000000000000000081526004016108e790611764565b60405180910390fd5b600073ffffffffffffffffffffffffffffffffffffffff168273ffffffffffffffffffffffffffffffffffffffff161415610960576040517f08c379a000000000000000000000000000000000000000000000000000000000815260040161095790611664565b60405180910390fd5b80600160008573ffffffffffffffffffffffffffffffffffffffff1673ffffffffffffffffffffffffffffffffffffffff16815260200190815260200160002060008473ffffffffffffffffffffffffffffffffffffffff1673ffffffffffffffffffffffffffffffffffffffff168152602001908152602001600020819055508173ffffffffffffffffffffffffffffffffffffffff168373ffffffffffffffffffffffffffffffffffffffff167f8c5be1e5ebec7d5bd14f71427d1e84f3dd0314c0f7b2291e5b200ac8c7c3b92583604051610a3e91906117a4565b60405180910390a3505050565b610a53610878565b73ffffffffffffffffffffffffffffffffffffffff16610a71610617565b73ffffffffffffffffffffffffffffffffffffffff1614610ac7576040517f08c379a0000000000000000000000000000000000000000000000000000000008152600401610abe90611704565b60405180910390fd5b565b610ad1611139565b6001600560006101000a81548160ff0219169083151502179055507f62e78cea01bee320cd4e420270b5ea74000d11b0c9f74754ebdbfc544b05a258610b15610878565b604051610b22919061158c565b60405180910390a1565b6000610b38848461076d565b90507fffffffffffffffffffffffffffffffffffffffffffffffffffffffffffffffff8114610bb25781811015610ba4576040517f08c379a0000000000000000000000000000000000000000000000000000000008152600401610b9b90611684565b60405180910390fd5b610bb18484848403610880565b5b50505050565b600073ffffffffffffffffffffffffffffffffffffffff168373ffffffffffffffffffffffffffffffffffffffff161415610c28576040517f08c379a0000000000000000000000000000000000000000000000000000000008152600401610c1f90611744565b60405180910390fd5b600073ffffffffffffffffffffffffffffffffffffffff168273ffffffffffffffffffffffffffffffffffffffff161415610c98576040517f08c379a0000000000000000000000000000000000000000000000000000000008152600401610c8f906115e4565b60405180910390fd5b610ca3838383611183565b60008060008573ffffffffffffffffffffffffffffffffffffffff1673ffffffffffffffffffffffffffffffffffffffff16815260200190815260200160002054905081811015610d29576040517f08c379a0000000000000000000000000000000000000000000000000000000008152600401610d20906116a4565b60405180910390fd5b8181036000808673ffffffffffffffffffffffffffffffffffffffff1673ffffffffffffffffffffffffffffffffffffffff16815260200190815260200160002081905550816000808573ffffffffffffffffffffffffffffffffffffffff1673ffffffffffffffffffffffffffffffffffffffff1681526020019081526020016000206000828254610dbc91906117f6565b925050819055508273ffffffffffffffffffffffffffffffffffffffff168473ffffffffffffffffffffffffffffffffffffffff167fddf252ad1be2c89b69c2b068fc378daa952ba7f163c4a11628f55a4df523b3ef84604051610e2091906117a4565b60405180910390a3610e33848484611188565b50505050565b600073ffffffffffffffffffffffffffffffffffffffff168273ffffffffffffffffffffffffffffffffffffffff161415610ea9576040517f08c379a0000000000000000000000000000000000000000000000000000000008152600401610ea090611724565b60405180910390fd5b610eb582600083611183565b60008060008473ffffffffffffffffffffffffffffffffffffffff1673ffffffffffffffffffffffffffffffffffffffff16815260200190815260200160002054905081811015610f3b576040517f08c379a0000000000000000000000000000000000000000000000000000000008152600401610f3290611624565b60405180910390fd5b8181036000808573ffffffffffffffffffffffffffffffffffffffff1673ffffffffffffffffffffffffffffffffffffffff168152602001908152602001600020819055508160026000828254610f92919061184c565b92505081905550600073ffffffffffffffffffffffffffffffffffffffff168373ffffffffffffffffffffffffffffffffffffffff167fddf252ad1be2c89b69c2b068fc378daa952ba7f163c4a11628f55a4df523b3ef84604051610ff791906117a4565b60405180910390a361100b83600084611188565b505050565b6000600560019054906101000a900473ffffffffffffffffffffffffffffffffffffffff16905081600560016101000a81548173ffffffffffffffffffffffffffffffffffffffff021916908373ffffffffffffffffffffffffffffffffffffffff1602179055508173ffffffffffffffffffffffffffffffffffffffff168173ffffffffffffffffffffffffffffffffffffffff167f8be0079c531659141344cd1fd0a4f28419497f9722a3daafe3b4186f6b6457e060405160405180910390a35050565b6110de61118d565b6000600560006101000a81548160ff0219169083151502179055507f5db9ee0a495bf2e6ff9c91a7834c1ba4fdd244a5e8aa4e537bd38aeae4b073aa611122610878565b60405161112f919061158c565b60405180910390a1565b611141610572565b15611181576040517f08c379a0000000000000000000000000000000000000000000000000000000008152600401611178906116e4565b60405180910390fd5b565b505050565b505050565b611195610572565b6111d4576040517f08c379a00000000000000000000000000000000000000000000000000000000081526004016111cb90611604565b60405180910390fd5b565b6000813590506111e581611d68565b92915050565b6000813590506111fa81611d7f565b92915050565b60006020828403121561121657611215611998565b5b6000611224848285016111d6565b91505092915050565b6000806040838503121561124457611243611998565b5b6000611252858286016111d6565b9250506020611263858286016111d6565b9150509250929050565b60008060006060848603121561128657611285611998565b5b6000611294868287016111d6565b93505060206112a5868287016111d6565b92505060406112b6868287016111eb565b9150509250925092565b600080604083850312156112d7576112d6611998565b5b60006112e5858286016111d6565b92505060206112f6858286016111eb565b9150509250929050565b60006020828403121561131657611315611998565b5b6000611324848285016111eb565b91505092915050565b61133681611880565b82525050565b61134581611892565b82525050565b6000611356826117da565b61136081856117e5565b93506113708185602086016118d5565b6113798161199d565b840191505092915050565b60006113916023836117e5565b915061139c826119ae565b604082019050919050565b60006113b46014836117e5565b91506113bf826119fd565b602082019050919050565b60006113d76022836117e5565b91506113e282611a26565b604082019050919050565b60006113fa6026836117e5565b915061140582611a75565b604082019050919050565b600061141d6022836117e5565b915061142882611ac4565b604082019050919050565b6000611440601d836117e5565b915061144b82611b13565b602082019050919050565b60006114636026836117e5565b915061146e82611b3c565b604082019050919050565b6000611486603b836117e5565b915061149182611b8b565b604082019050919050565b60006114a96010836117e5565b91506114b482611bda565b602082019050919050565b60006114cc6020836117e5565b91506114d782611c03565b602082019050919050565b60006114ef6021836117e5565b91506114fa82611c2c565b604082019050919050565b60006115126025836117e5565b915061151d82611c7b565b604082019050919050565b60006115356024836117e5565b915061154082611cca565b604082019050919050565b60006115586025836117e5565b915061156382611d19565b604082019050919050565b611577816118be565b82525050565b611586816118c8565b82525050565b60006020820190506115a1600083018461132d565b92915050565b60006020820190506115bc600083018461133c565b92915050565b600060208201905081810360008301526115dc818461134b565b905092915050565b600060208201905081810360008301526115fd81611384565b9050919050565b6000602082019050818103600083015261161d816113a7565b9050919050565b6000602082019050818103600083015261163d816113ca565b9050919050565b6000602082019050818103600083015261165d816113ed565b9050919050565b6000602082019050818103600083015261167d81611410565b9050919050565b6000602082019050818103600083015261169d81611433565b9050919050565b600060208201905081810360008301526116bd81611456565b9050919050565b600060208201905081810360008301526116dd81611479565b9050919050565b600060208201905081810360008301526116fd8161149c565b9050919050565b6000602082019050818103600083015261171d816114bf565b9050919050565b6000602082019050818103600083015261173d816114e2565b9050919050565b6000602082019050818103600083015261175d81611505565b9050919050565b6000602082019050818103600083015261177d81611528565b9050919050565b6000602082019050818103600083015261179d8161154b565b9050919050565b60006020820190506117b9600083018461156e565b92915050565b60006020820190506117d4600083018461157d565b92915050565b600081519050919050565b600082825260208201905092915050565b6000611801826118be565b915061180c836118be565b9250827fffffffffffffffffffffffffffffffffffffffffffffffffffffffffffffffff038211156118415761184061193a565b5b828201905092915050565b6000611857826118be565b9150611862836118be565b9250828210156118755761187461193a565b5b828203905092915050565b600061188b8261189e565b9050919050565b60008115159050919050565b600073ffffffffffffffffffffffffffffffffffffffff82169050919050565b6000819050919050565b600060ff82169050919050565b60005b838110156118f35780820151818401526020810190506118d8565b83811115611902576000848401525b50505050565b6000600282049050600182168061192057607f821691505b6020821081141561193457611933611969565b5b50919050565b7f4e487b7100000000000000000000000000000000000000000000000000000000600052601160045260246000fd5b7f4e487b7100000000000000000000000000000000000000000000000000000000600052602260045260246000fd5b600080fd5b6000601f19601f8301169050919050565b7f45524332303a207472616e7366657220746f20746865207a65726f206164647260008201527f6573730000000000000000000000000000000000000000000000000000000000602082015250565b7f5061757361626c653a206e6f7420706175736564000000000000000000000000600082015250565b7f45524332303a206275726e20616d6f756e7420657863656564732062616c616e60008201527f6365000000000000000000000000000000000000000000000000000000000000602082015250565b7f4f776e61626c653a206e6577206f776e657220697320746865207a65726f206160008201527f6464726573730000000000000000000000000000000000000000000000000000602082015250565b7f45524332303a20617070726f766520746f20746865207a65726f20616464726560008201527f7373000000000000000000000000000000000000000000000000000000000000602082015250565b7f45524332303a20696e73756666696369656e7420616c6c6f77616e6365000000600082015250565b7f45524332303a207472616e7366657220616d6f756e742065786365656473206260008201527f616c616e63650000000000000000000000000000000000000000000000000000602082015250565b7f456c20636f6e747261746f2065737461207061757361646f2c206e6f2073652060008201527f707565646520656a65637574617220657374612066756e63696f6e0000000000602082015250565b7f5061757361626c653a2070617573656400000000000000000000000000000000600082015250565b7f4f776e61626c653a2063616c6c6572206973206e6f7420746865206f776e6572600082015250565b7f45524332303a206275726e2066726f6d20746865207a65726f2061646472657360008201527f7300000000000000000000000000000000000000000000000000000000000000602082015250565b7f45524332303a207472616e736665722066726f6d20746865207a65726f20616460008201527f6472657373000000000000000000000000000000000000000000000000000000602082015250565b7f45524332303a20617070726f76652066726f6d20746865207a65726f2061646460008201527f7265737300000000000000000000000000000000000000000000000000000000602082015250565b7f45524332303a2064656372656173656420616c6c6f77616e63652062656c6f7760008201527f207a65726f000000000000000000000000000000000000000000000000000000602082015250565b611d7181611880565b8114611d7c57600080fd5b50565b611d88816118be565b8114611d9357600080fd5b5056fea264697066735822122010980de63236dcf009e6e4df07ae6d4767ece361361a331de8a131b26296a0c564736f6c63430008070033",
			"opcodes": "PUSH1 0x80 PUSH1 0x40 MSTORE CALLVALUE DUP1 ISZERO PUSH3 0x11 JUMPI PUSH1 0x0 DUP1 REVERT JUMPDEST POP PUSH1 0x40 MLOAD DUP1 PUSH1 0x40 ADD PUSH1 0x40 MSTORE DUP1 PUSH1 0x13 DUP2 MSTORE PUSH1 0x20 ADD PUSH32 0x4465736166696F20457874656E73696F6E657300000000000000000000000000 DUP2 MSTORE POP PUSH1 0x40 MLOAD DUP1 PUSH1 0x40 ADD PUSH1 0x40 MSTORE DUP1 PUSH1 0x2 DUP2 MSTORE PUSH1 0x20 ADD PUSH32 0x4445000000000000000000000000000000000000000000000000000000000000 DUP2 MSTORE POP DUP2 PUSH1 0x3 SWAP1 DUP1 MLOAD SWAP1 PUSH1 0x20 ADD SWAP1 PUSH3 0x96 SWAP3 SWAP2 SWAP1 PUSH3 0x359 JUMP JUMPDEST POP DUP1 PUSH1 0x4 SWAP1 DUP1 MLOAD SWAP1 PUSH1 0x20 ADD SWAP1 PUSH3 0xAF SWAP3 SWAP2 SWAP1 PUSH3 0x359 JUMP JUMPDEST POP POP POP PUSH1 0x0 PUSH1 0x5 PUSH1 0x0 PUSH2 0x100 EXP DUP2 SLOAD DUP2 PUSH1 0xFF MUL NOT AND SWAP1 DUP4 ISZERO ISZERO MUL OR SWAP1 SSTORE POP PUSH3 0xED PUSH3 0xE1 PUSH3 0x108 PUSH1 0x20 SHL PUSH1 0x20 SHR JUMP JUMPDEST PUSH3 0x110 PUSH1 0x20 SHL PUSH1 0x20 SHR JUMP JUMPDEST PUSH3 0x102 CALLER PUSH3 0x186A0 PUSH3 0x1D6 PUSH1 0x20 SHL PUSH1 0x20 SHR JUMP JUMPDEST PUSH3 0x5B5 JUMP JUMPDEST PUSH1 0x0 CALLER SWAP1 POP SWAP1 JUMP JUMPDEST PUSH1 0x0 PUSH1 0x5 PUSH1 0x1 SWAP1 SLOAD SWAP1 PUSH2 0x100 EXP SWAP1 DIV PUSH20 0xFFFFFFFFFFFFFFFFFFFFFFFFFFFFFFFFFFFFFFFF AND SWAP1 POP DUP2 PUSH1 0x5 PUSH1 0x1 PUSH2 0x100 EXP DUP2 SLOAD DUP2 PUSH20 0xFFFFFFFFFFFFFFFFFFFFFFFFFFFFFFFFFFFFFFFF MUL NOT AND SWAP1 DUP4 PUSH20 0xFFFFFFFFFFFFFFFFFFFFFFFFFFFFFFFFFFFFFFFF AND MUL OR SWAP1 SSTORE POP DUP2 PUSH20 0xFFFFFFFFFFFFFFFFFFFFFFFFFFFFFFFFFFFFFFFF AND DUP2 PUSH20 0xFFFFFFFFFFFFFFFFFFFFFFFFFFFFFFFFFFFFFFFF AND PUSH32 0x8BE0079C531659141344CD1FD0A4F28419497F9722A3DAAFE3B4186F6B6457E0 PUSH1 0x40 MLOAD PUSH1 0x40 MLOAD DUP1 SWAP2 SUB SWAP1 LOG3 POP POP JUMP JUMPDEST PUSH1 0x0 PUSH20 0xFFFFFFFFFFFFFFFFFFFFFFFFFFFFFFFFFFFFFFFF AND DUP3 PUSH20 0xFFFFFFFFFFFFFFFFFFFFFFFFFFFFFFFFFFFFFFFF AND EQ ISZERO PUSH3 0x249 JUMPI PUSH1 0x40 MLOAD PUSH32 0x8C379A000000000000000000000000000000000000000000000000000000000 DUP2 MSTORE PUSH1 0x4 ADD PUSH3 0x240 SWAP1 PUSH3 0x441 JUMP JUMPDEST PUSH1 0x40 MLOAD DUP1 SWAP2 SUB SWAP1 REVERT JUMPDEST PUSH3 0x25D PUSH1 0x0 DUP4 DUP4 PUSH3 0x34F PUSH1 0x20 SHL PUSH1 0x20 SHR JUMP JUMPDEST DUP1 PUSH1 0x2 PUSH1 0x0 DUP3 DUP3 SLOAD PUSH3 0x271 SWAP2 SWAP1 PUSH3 0x491 JUMP JUMPDEST SWAP3 POP POP DUP2 SWAP1 SSTORE POP DUP1 PUSH1 0x0 DUP1 DUP5 PUSH20 0xFFFFFFFFFFFFFFFFFFFFFFFFFFFFFFFFFFFFFFFF AND PUSH20 0xFFFFFFFFFFFFFFFFFFFFFFFFFFFFFFFFFFFFFFFF AND DUP2 MSTORE PUSH1 0x20 ADD SWAP1 DUP2 MSTORE PUSH1 0x20 ADD PUSH1 0x0 KECCAK256 PUSH1 0x0 DUP3 DUP3 SLOAD PUSH3 0x2C8 SWAP2 SWAP1 PUSH3 0x491 JUMP JUMPDEST SWAP3 POP POP DUP2 SWAP1 SSTORE POP DUP2 PUSH20 0xFFFFFFFFFFFFFFFFFFFFFFFFFFFFFFFFFFFFFFFF AND PUSH1 0x0 PUSH20 0xFFFFFFFFFFFFFFFFFFFFFFFFFFFFFFFFFFFFFFFF AND PUSH32 0xDDF252AD1BE2C89B69C2B068FC378DAA952BA7F163C4A11628F55A4DF523B3EF DUP4 PUSH1 0x40 MLOAD PUSH3 0x32F SWAP2 SWAP1 PUSH3 0x463 JUMP JUMPDEST PUSH1 0x40 MLOAD DUP1 SWAP2 SUB SWAP1 LOG3 PUSH3 0x34B PUSH1 0x0 DUP4 DUP4 PUSH3 0x354 PUSH1 0x20 SHL PUSH1 0x20 SHR JUMP JUMPDEST POP POP JUMP JUMPDEST POP POP POP JUMP JUMPDEST POP POP POP JUMP JUMPDEST DUP3 DUP1 SLOAD PUSH3 0x367 SWAP1 PUSH3 0x4F8 JUMP JUMPDEST SWAP1 PUSH1 0x0 MSTORE PUSH1 0x20 PUSH1 0x0 KECCAK256 SWAP1 PUSH1 0x1F ADD PUSH1 0x20 SWAP1 DIV DUP2 ADD SWAP3 DUP3 PUSH3 0x38B JUMPI PUSH1 0x0 DUP6 SSTORE PUSH3 0x3D7 JUMP JUMPDEST DUP3 PUSH1 0x1F LT PUSH3 0x3A6 JUMPI DUP1 MLOAD PUSH1 0xFF NOT AND DUP4 DUP1 ADD OR DUP6 SSTORE PUSH3 0x3D7 JUMP JUMPDEST DUP3 DUP1 ADD PUSH1 0x1 ADD DUP6 SSTORE DUP3 ISZERO PUSH3 0x3D7 JUMPI SWAP2 DUP3 ADD JUMPDEST DUP3 DUP2 GT ISZERO PUSH3 0x3D6 JUMPI DUP3 MLOAD DUP3 SSTORE SWAP2 PUSH1 0x20 ADD SWAP2 SWAP1 PUSH1 0x1 ADD SWAP1 PUSH3 0x3B9 JUMP JUMPDEST JUMPDEST POP SWAP1 POP PUSH3 0x3E6 SWAP2 SWAP1 PUSH3 0x3EA JUMP JUMPDEST POP SWAP1 JUMP JUMPDEST JUMPDEST DUP1 DUP3 GT ISZERO PUSH3 0x405 JUMPI PUSH1 0x0 DUP2 PUSH1 0x0 SWAP1 SSTORE POP PUSH1 0x1 ADD PUSH3 0x3EB JUMP JUMPDEST POP SWAP1 JUMP JUMPDEST PUSH1 0x0 PUSH3 0x418 PUSH1 0x1F DUP4 PUSH3 0x480 JUMP JUMPDEST SWAP2 POP PUSH3 0x425 DUP3 PUSH3 0x58C JUMP JUMPDEST PUSH1 0x20 DUP3 ADD SWAP1 POP SWAP2 SWAP1 POP JUMP JUMPDEST PUSH3 0x43B DUP2 PUSH3 0x4EE JUMP JUMPDEST DUP3 MSTORE POP POP JUMP JUMPDEST PUSH1 0x0 PUSH1 0x20 DUP3 ADD SWAP1 POP DUP2 DUP2 SUB PUSH1 0x0 DUP4 ADD MSTORE PUSH3 0x45C DUP2 PUSH3 0x409 JUMP JUMPDEST SWAP1 POP SWAP2 SWAP1 POP JUMP JUMPDEST PUSH1 0x0 PUSH1 0x20 DUP3 ADD SWAP1 POP PUSH3 0x47A PUSH1 0x0 DUP4 ADD DUP5 PUSH3 0x430 JUMP JUMPDEST SWAP3 SWAP2 POP POP JUMP JUMPDEST PUSH1 0x0 DUP3 DUP3 MSTORE PUSH1 0x20 DUP3 ADD SWAP1 POP SWAP3 SWAP2 POP POP JUMP JUMPDEST PUSH1 0x0 PUSH3 0x49E DUP3 PUSH3 0x4EE JUMP JUMPDEST SWAP2 POP PUSH3 0x4AB DUP4 PUSH3 0x4EE JUMP JUMPDEST SWAP3 POP DUP3 PUSH32 0xFFFFFFFFFFFFFFFFFFFFFFFFFFFFFFFFFFFFFFFFFFFFFFFFFFFFFFFFFFFFFFFF SUB DUP3 GT ISZERO PUSH3 0x4E3 JUMPI PUSH3 0x4E2 PUSH3 0x52E JUMP JUMPDEST JUMPDEST DUP3 DUP3 ADD SWAP1 POP SWAP3 SWAP2 POP POP JUMP JUMPDEST PUSH1 0x0 DUP2 SWAP1 POP SWAP2 SWAP1 POP JUMP JUMPDEST PUSH1 0x0 PUSH1 0x2 DUP3 DIV SWAP1 POP PUSH1 0x1 DUP3 AND DUP1 PUSH3 0x511 JUMPI PUSH1 0x7F DUP3 AND SWAP2 POP JUMPDEST PUSH1 0x20 DUP3 LT DUP2 EQ ISZERO PUSH3 0x528 JUMPI PUSH3 0x527 PUSH3 0x55D JUMP JUMPDEST JUMPDEST POP SWAP2 SWAP1 POP JUMP JUMPDEST PUSH32 0x4E487B7100000000000000000000000000000000000000000000000000000000 PUSH1 0x0 MSTORE PUSH1 0x11 PUSH1 0x4 MSTORE PUSH1 0x24 PUSH1 0x0 REVERT JUMPDEST PUSH32 0x4E487B7100000000000000000000000000000000000000000000000000000000 PUSH1 0x0 MSTORE PUSH1 0x22 PUSH1 0x4 MSTORE PUSH1 0x24 PUSH1 0x0 REVERT JUMPDEST PUSH32 0x45524332303A206D696E7420746F20746865207A65726F206164647265737300 PUSH1 0x0 DUP3 ADD MSTORE POP JUMP JUMPDEST PUSH2 0x1DCC DUP1 PUSH3 0x5C5 PUSH1 0x0 CODECOPY PUSH1 0x0 RETURN INVALID PUSH1 0x80 PUSH1 0x40 MSTORE CALLVALUE DUP1 ISZERO PUSH2 0x10 JUMPI PUSH1 0x0 DUP1 REVERT JUMPDEST POP PUSH1 0x4 CALLDATASIZE LT PUSH2 0x12C JUMPI PUSH1 0x0 CALLDATALOAD PUSH1 0xE0 SHR DUP1 PUSH4 0x70A08231 GT PUSH2 0xAD JUMPI DUP1 PUSH4 0x95D89B41 GT PUSH2 0x71 JUMPI DUP1 PUSH4 0x95D89B41 EQ PUSH2 0x2F9 JUMPI DUP1 PUSH4 0xA457C2D7 EQ PUSH2 0x317 JUMPI DUP1 PUSH4 0xA9059CBB EQ PUSH2 0x347 JUMPI DUP1 PUSH4 0xDD62ED3E EQ PUSH2 0x377 JUMPI DUP1 PUSH4 0xF2FDE38B EQ PUSH2 0x3A7 JUMPI PUSH2 0x12C JUMP JUMPDEST DUP1 PUSH4 0x70A08231 EQ PUSH2 0x27B JUMPI DUP1 PUSH4 0x715018A6 EQ PUSH2 0x2AB JUMPI DUP1 PUSH4 0x79CC6790 EQ PUSH2 0x2B5 JUMPI DUP1 PUSH4 0x79D968DE EQ PUSH2 0x2D1 JUMPI DUP1 PUSH4 0x8DA5CB5B EQ PUSH2 0x2DB JUMPI PUSH2 0x12C JUMP JUMPDEST DUP1 PUSH4 0x23B872DD GT PUSH2 0xF4 JUMPI DUP1 PUSH4 0x23B872DD EQ PUSH2 0x1C3 JUMPI DUP1 PUSH4 0x313CE567 EQ PUSH2 0x1F3 JUMPI DUP1 PUSH4 0x39509351 EQ PUSH2 0x211 JUMPI DUP1 PUSH4 0x42966C68 EQ PUSH2 0x241 JUMPI DUP1 PUSH4 0x5C975ABB EQ PUSH2 0x25D JUMPI PUSH2 0x12C JUMP JUMPDEST DUP1 PUSH4 0x6654881 EQ PUSH2 0x131 JUMPI DUP1 PUSH4 0x6FDDE03 EQ PUSH2 0x14D JUMPI DUP1 PUSH4 0x95EA7B3 EQ PUSH2 0x16B JUMPI DUP1 PUSH4 0x18160DDD EQ PUSH2 0x19B JUMPI DUP1 PUSH4 0x1C8108B1 EQ PUSH2 0x1B9 JUMPI JUMPDEST PUSH1 0x0 DUP1 REVERT JUMPDEST PUSH2 0x14B PUSH1 0x4 DUP1 CALLDATASIZE SUB DUP2 ADD SWAP1 PUSH2 0x146 SWAP2 SWAP1 PUSH2 0x1300 JUMP JUMPDEST PUSH2 0x3C3 JUMP JUMPDEST STOP JUMPDEST PUSH2 0x155 PUSH2 0x41E JUMP JUMPDEST PUSH1 0x40 MLOAD PUSH2 0x162 SWAP2 SWAP1 PUSH2 0x15C2 JUMP JUMPDEST PUSH1 0x40 MLOAD DUP1 SWAP2 SUB SWAP1 RETURN JUMPDEST PUSH2 0x185 PUSH1 0x4 DUP1 CALLDATASIZE SUB DUP2 ADD SWAP1 PUSH2 0x180 SWAP2 SWAP1 PUSH2 0x12C0 JUMP JUMPDEST PUSH2 0x4B0 JUMP JUMPDEST PUSH1 0x40 MLOAD PUSH2 0x192 SWAP2 SWAP1 PUSH2 0x15A7 JUMP JUMPDEST PUSH1 0x40 MLOAD DUP1 SWAP2 SUB SWAP1 RETURN JUMPDEST PUSH2 0x1A3 PUSH2 0x4D3 JUMP JUMPDEST PUSH1 0x40 MLOAD PUSH2 0x1B0 SWAP2 SWAP1 PUSH2 0x17A4 JUMP JUMPDEST PUSH1 0x40 MLOAD DUP1 SWAP2 SUB SWAP1 RETURN JUMPDEST PUSH2 0x1C1 PUSH2 0x4DD JUMP JUMPDEST STOP JUMPDEST PUSH2 0x1DD PUSH1 0x4 DUP1 CALLDATASIZE SUB DUP2 ADD SWAP1 PUSH2 0x1D8 SWAP2 SWAP1 PUSH2 0x126D JUMP JUMPDEST PUSH2 0x4EF JUMP JUMPDEST PUSH1 0x40 MLOAD PUSH2 0x1EA SWAP2 SWAP1 PUSH2 0x15A7 JUMP JUMPDEST PUSH1 0x40 MLOAD DUP1 SWAP2 SUB SWAP1 RETURN JUMPDEST PUSH2 0x1FB PUSH2 0x51E JUMP JUMPDEST PUSH1 0x40 MLOAD PUSH2 0x208 SWAP2 SWAP1 PUSH2 0x17BF JUMP JUMPDEST PUSH1 0x40 MLOAD DUP1 SWAP2 SUB SWAP1 RETURN JUMPDEST PUSH2 0x22B PUSH1 0x4 DUP1 CALLDATASIZE SUB DUP2 ADD SWAP1 PUSH2 0x226 SWAP2 SWAP1 PUSH2 0x12C0 JUMP JUMPDEST PUSH2 0x527 JUMP JUMPDEST PUSH1 0x40 MLOAD PUSH2 0x238 SWAP2 SWAP1 PUSH2 0x15A7 JUMP JUMPDEST PUSH1 0x40 MLOAD DUP1 SWAP2 SUB SWAP1 RETURN JUMPDEST PUSH2 0x25B PUSH1 0x4 DUP1 CALLDATASIZE SUB DUP2 ADD SWAP1 PUSH2 0x256 SWAP2 SWAP1 PUSH2 0x1300 JUMP JUMPDEST PUSH2 0x55E JUMP JUMPDEST STOP JUMPDEST PUSH2 0x265 PUSH2 0x572 JUMP JUMPDEST PUSH1 0x40 MLOAD PUSH2 0x272 SWAP2 SWAP1 PUSH2 0x15A7 JUMP JUMPDEST PUSH1 0x40 MLOAD DUP1 SWAP2 SUB SWAP1 RETURN JUMPDEST PUSH2 0x295 PUSH1 0x4 DUP1 CALLDATASIZE SUB DUP2 ADD SWAP1 PUSH2 0x290 SWAP2 SWAP1 PUSH2 0x1200 JUMP JUMPDEST PUSH2 0x589 JUMP JUMPDEST PUSH1 0x40 MLOAD PUSH2 0x2A2 SWAP2 SWAP1 PUSH2 0x17A4 JUMP JUMPDEST PUSH1 0x40 MLOAD DUP1 SWAP2 SUB SWAP1 RETURN JUMPDEST PUSH2 0x2B3 PUSH2 0x5D1 JUMP JUMPDEST STOP JUMPDEST PUSH2 0x2CF PUSH1 0x4 DUP1 CALLDATASIZE SUB DUP2 ADD SWAP1 PUSH2 0x2CA SWAP2 SWAP1 PUSH2 0x12C0 JUMP JUMPDEST PUSH2 0x5E5 JUMP JUMPDEST STOP JUMPDEST PUSH2 0x2D9 PUSH2 0x605 JUMP JUMPDEST STOP JUMPDEST PUSH2 0x2E3 PUSH2 0x617 JUMP JUMPDEST PUSH1 0x40 MLOAD PUSH2 0x2F0 SWAP2 SWAP1 PUSH2 0x158C JUMP JUMPDEST PUSH1 0x40 MLOAD DUP1 SWAP2 SUB SWAP1 RETURN JUMPDEST PUSH2 0x301 PUSH2 0x641 JUMP JUMPDEST PUSH1 0x40 MLOAD PUSH2 0x30E SWAP2 SWAP1 PUSH2 0x15C2 JUMP JUMPDEST PUSH1 0x40 MLOAD DUP1 SWAP2 SUB SWAP1 RETURN JUMPDEST PUSH2 0x331 PUSH1 0x4 DUP1 CALLDATASIZE SUB DUP2 ADD SWAP1 PUSH2 0x32C SWAP2 SWAP1 PUSH2 0x12C0 JUMP JUMPDEST PUSH2 0x6D3 JUMP JUMPDEST PUSH1 0x40 MLOAD PUSH2 0x33E SWAP2 SWAP1 PUSH2 0x15A7 JUMP JUMPDEST PUSH1 0x40 MLOAD DUP1 SWAP2 SUB SWAP1 RETURN JUMPDEST PUSH2 0x361 PUSH1 0x4 DUP1 CALLDATASIZE SUB DUP2 ADD SWAP1 PUSH2 0x35C SWAP2 SWAP1 PUSH2 0x12C0 JUMP JUMPDEST PUSH2 0x74A JUMP JUMPDEST PUSH1 0x40 MLOAD PUSH2 0x36E SWAP2 SWAP1 PUSH2 0x15A7 JUMP JUMPDEST PUSH1 0x40 MLOAD DUP1 SWAP2 SUB SWAP1 RETURN JUMPDEST PUSH2 0x391 PUSH1 0x4 DUP1 CALLDATASIZE SUB DUP2 ADD SWAP1 PUSH2 0x38C SWAP2 SWAP1 PUSH2 0x122D JUMP JUMPDEST PUSH2 0x76D JUMP JUMPDEST PUSH1 0x40 MLOAD PUSH2 0x39E SWAP2 SWAP1 PUSH2 0x17A4 JUMP JUMPDEST PUSH1 0x40 MLOAD DUP1 SWAP2 SUB SWAP1 RETURN JUMPDEST PUSH2 0x3C1 PUSH1 0x4 DUP1 CALLDATASIZE SUB DUP2 ADD SWAP1 PUSH2 0x3BC SWAP2 SWAP1 PUSH2 0x1200 JUMP JUMPDEST PUSH2 0x7F4 JUMP JUMPDEST STOP JUMPDEST PUSH1 0x1 ISZERO ISZERO PUSH2 0x3CF PUSH2 0x572 JUMP JUMPDEST ISZERO ISZERO EQ ISZERO PUSH2 0x412 JUMPI PUSH1 0x40 MLOAD PUSH32 0x8C379A000000000000000000000000000000000000000000000000000000000 DUP2 MSTORE PUSH1 0x4 ADD PUSH2 0x409 SWAP1 PUSH2 0x16C4 JUMP JUMPDEST PUSH1 0x40 MLOAD DUP1 SWAP2 SUB SWAP1 REVERT JUMPDEST PUSH2 0x41B DUP2 PUSH2 0x55E JUMP JUMPDEST POP JUMP JUMPDEST PUSH1 0x60 PUSH1 0x3 DUP1 SLOAD PUSH2 0x42D SWAP1 PUSH2 0x1908 JUMP JUMPDEST DUP1 PUSH1 0x1F ADD PUSH1 0x20 DUP1 SWAP2 DIV MUL PUSH1 0x20 ADD PUSH1 0x40 MLOAD SWAP1 DUP2 ADD PUSH1 0x40 MSTORE DUP1 SWAP3 SWAP2 SWAP1 DUP2 DUP2 MSTORE PUSH1 0x20 ADD DUP3 DUP1 SLOAD PUSH2 0x459 SWAP1 PUSH2 0x1908 JUMP JUMPDEST DUP1 ISZERO PUSH2 0x4A6 JUMPI DUP1 PUSH1 0x1F LT PUSH2 0x47B JUMPI PUSH2 0x100 DUP1 DUP4 SLOAD DIV MUL DUP4 MSTORE SWAP2 PUSH1 0x20 ADD SWAP2 PUSH2 0x4A6 JUMP JUMPDEST DUP3 ADD SWAP2 SWAP1 PUSH1 0x0 MSTORE PUSH1 0x20 PUSH1 0x0 KECCAK256 SWAP1 JUMPDEST DUP2 SLOAD DUP2 MSTORE SWAP1 PUSH1 0x1 ADD SWAP1 PUSH1 0x20 ADD DUP1 DUP4 GT PUSH2 0x489 JUMPI DUP3 SWAP1 SUB PUSH1 0x1F AND DUP3 ADD SWAP2 JUMPDEST POP POP POP POP POP SWAP1 POP SWAP1 JUMP JUMPDEST PUSH1 0x0 DUP1 PUSH2 0x4BB PUSH2 0x878 JUMP JUMPDEST SWAP1 POP PUSH2 0x4C8 DUP2 DUP6 DUP6 PUSH2 0x880 JUMP JUMPDEST PUSH1 0x1 SWAP2 POP POP SWAP3 SWAP2 POP POP JUMP JUMPDEST PUSH1 0x0 PUSH1 0x2 SLOAD SWAP1 POP SWAP1 JUMP JUMPDEST PUSH2 0x4E5 PUSH2 0xA4B JUMP JUMPDEST PUSH2 0x4ED PUSH2 0xAC9 JUMP JUMPDEST JUMP JUMPDEST PUSH1 0x0 DUP1 PUSH2 0x4FA PUSH2 0x878 JUMP JUMPDEST SWAP1 POP PUSH2 0x507 DUP6 DUP3 DUP6 PUSH2 0xB2C JUMP JUMPDEST PUSH2 0x512 DUP6 DUP6 DUP6 PUSH2 0xBB8 JUMP JUMPDEST PUSH1 0x1 SWAP2 POP POP SWAP4 SWAP3 POP POP POP JUMP JUMPDEST PUSH1 0x0 PUSH1 0x12 SWAP1 POP SWAP1 JUMP JUMPDEST PUSH1 0x0 DUP1 PUSH2 0x532 PUSH2 0x878 JUMP JUMPDEST SWAP1 POP PUSH2 0x553 DUP2 DUP6 DUP6 PUSH2 0x544 DUP6 DUP10 PUSH2 0x76D JUMP JUMPDEST PUSH2 0x54E SWAP2 SWAP1 PUSH2 0x17F6 JUMP JUMPDEST PUSH2 0x880 JUMP JUMPDEST PUSH1 0x1 SWAP2 POP POP SWAP3 SWAP2 POP POP JUMP JUMPDEST PUSH2 0x56F PUSH2 0x569 PUSH2 0x878 JUMP JUMPDEST DUP3 PUSH2 0xE39 JUMP JUMPDEST POP JUMP JUMPDEST PUSH1 0x0 PUSH1 0x5 PUSH1 0x0 SWAP1 SLOAD SWAP1 PUSH2 0x100 EXP SWAP1 DIV PUSH1 0xFF AND SWAP1 POP SWAP1 JUMP JUMPDEST PUSH1 0x0 DUP1 PUSH1 0x0 DUP4 PUSH20 0xFFFFFFFFFFFFFFFFFFFFFFFFFFFFFFFFFFFFFFFF AND PUSH20 0xFFFFFFFFFFFFFFFFFFFFFFFFFFFFFFFFFFFFFFFF AND DUP2 MSTORE PUSH1 0x20 ADD SWAP1 DUP2 MSTORE PUSH1 0x20 ADD PUSH1 0x0 KECCAK256 SLOAD SWAP1 POP SWAP2 SWAP1 POP JUMP JUMPDEST PUSH2 0x5D9 PUSH2 0xA4B JUMP JUMPDEST PUSH2 0x5E3 PUSH1 0x0 PUSH2 0x1010 JUMP JUMPDEST JUMP JUMPDEST PUSH2 0x5F7 DUP3 PUSH2 0x5F1 PUSH2 0x878 JUMP JUMPDEST DUP4 PUSH2 0xB2C JUMP JUMPDEST PUSH2 0x601 DUP3 DUP3 PUSH2 0xE39 JUMP JUMPDEST POP POP JUMP JUMPDEST PUSH2 0x60D PUSH2 0xA4B JUMP JUMPDEST PUSH2 0x615 PUSH2 0x10D6 JUMP JUMPDEST JUMP JUMPDEST PUSH1 0x0 PUSH1 0x5 PUSH1 0x1 SWAP1 SLOAD SWAP1 PUSH2 0x100 EXP SWAP1 DIV PUSH20 0xFFFFFFFFFFFFFFFFFFFFFFFFFFFFFFFFFFFFFFFF AND SWAP1 POP SWAP1 JUMP JUMPDEST PUSH1 0x60 PUSH1 0x4 DUP1 SLOAD PUSH2 0x650 SWAP1 PUSH2 0x1908 JUMP JUMPDEST DUP1 PUSH1 0x1F ADD PUSH1 0x20 DUP1 SWAP2 DIV MUL PUSH1 0x20 ADD PUSH1 0x40 MLOAD SWAP1 DUP2 ADD PUSH1 0x40 MSTORE DUP1 SWAP3 SWAP2 SWAP1 DUP2 DUP2 MSTORE PUSH1 0x20 ADD DUP3 DUP1 SLOAD PUSH2 0x67C SWAP1 PUSH2 0x1908 JUMP JUMPDEST DUP1 ISZERO PUSH2 0x6C9 JUMPI DUP1 PUSH1 0x1F LT PUSH2 0x69E JUMPI PUSH2 0x100 DUP1 DUP4 SLOAD DIV MUL DUP4 MSTORE SWAP2 PUSH1 0x20 ADD SWAP2 PUSH2 0x6C9 JUMP JUMPDEST DUP3 ADD SWAP2 SWAP1 PUSH1 0x0 MSTORE PUSH1 0x20 PUSH1 0x0 KECCAK256 SWAP1 JUMPDEST DUP2 SLOAD DUP2 MSTORE SWAP1 PUSH1 0x1 ADD SWAP1 PUSH1 0x20 ADD DUP1 DUP4 GT PUSH2 0x6AC JUMPI DUP3 SWAP1 SUB PUSH1 0x1F AND DUP3 ADD SWAP2 JUMPDEST POP POP POP POP POP SWAP1 POP SWAP1 JUMP JUMPDEST PUSH1 0x0 DUP1 PUSH2 0x6DE PUSH2 0x878 JUMP JUMPDEST SWAP1 POP PUSH1 0x0 PUSH2 0x6EC DUP3 DUP7 PUSH2 0x76D JUMP JUMPDEST SWAP1 POP DUP4 DUP2 LT ISZERO PUSH2 0x731 JUMPI PUSH1 0x40 MLOAD PUSH32 0x8C379A000000000000000000000000000000000000000000000000000000000 DUP2 MSTORE PUSH1 0x4 ADD PUSH2 0x728 SWAP1 PUSH2 0x1784 JUMP JUMPDEST PUSH1 0x40 MLOAD DUP1 SWAP2 SUB SWAP1 REVERT JUMPDEST PUSH2 0x73E DUP3 DUP7 DUP7 DUP5 SUB PUSH2 0x880 JUMP JUMPDEST PUSH1 0x1 SWAP3 POP POP POP SWAP3 SWAP2 POP POP JUMP JUMPDEST PUSH1 0x0 DUP1 PUSH2 0x755 PUSH2 0x878 JUMP JUMPDEST SWAP1 POP PUSH2 0x762 DUP2 DUP6 DUP6 PUSH2 0xBB8 JUMP JUMPDEST PUSH1 0x1 SWAP2 POP POP SWAP3 SWAP2 POP POP JUMP JUMPDEST PUSH1 0x0 PUSH1 0x1 PUSH1 0x0 DUP5 PUSH20 0xFFFFFFFFFFFFFFFFFFFFFFFFFFFFFFFFFFFFFFFF AND PUSH20 0xFFFFFFFFFFFFFFFFFFFFFFFFFFFFFFFFFFFFFFFF AND DUP2 MSTORE PUSH1 0x20 ADD SWAP1 DUP2 MSTORE PUSH1 0x20 ADD PUSH1 0x0 KECCAK256 PUSH1 0x0 DUP4 PUSH20 0xFFFFFFFFFFFFFFFFFFFFFFFFFFFFFFFFFFFFFFFF AND PUSH20 0xFFFFFFFFFFFFFFFFFFFFFFFFFFFFFFFFFFFFFFFF AND DUP2 MSTORE PUSH1 0x20 ADD SWAP1 DUP2 MSTORE PUSH1 0x20 ADD PUSH1 0x0 KECCAK256 SLOAD SWAP1 POP SWAP3 SWAP2 POP POP JUMP JUMPDEST PUSH2 0x7FC PUSH2 0xA4B JUMP JUMPDEST PUSH1 0x0 PUSH20 0xFFFFFFFFFFFFFFFFFFFFFFFFFFFFFFFFFFFFFFFF AND DUP2 PUSH20 0xFFFFFFFFFFFFFFFFFFFFFFFFFFFFFFFFFFFFFFFF AND EQ ISZERO PUSH2 0x86C JUMPI PUSH1 0x40 MLOAD PUSH32 0x8C379A000000000000000000000000000000000000000000000000000000000 DUP2 MSTORE PUSH1 0x4 ADD PUSH2 0x863 SWAP1 PUSH2 0x1644 JUMP JUMPDEST PUSH1 0x40 MLOAD DUP1 SWAP2 SUB SWAP1 REVERT JUMPDEST PUSH2 0x875 DUP2 PUSH2 0x1010 JUMP JUMPDEST POP JUMP JUMPDEST PUSH1 0x0 CALLER SWAP1 POP SWAP1 JUMP JUMPDEST PUSH1 0x0 PUSH20 0xFFFFFFFFFFFFFFFFFFFFFFFFFFFFFFFFFFFFFFFF AND DUP4 PUSH20 0xFFFFFFFFFFFFFFFFFFFFFFFFFFFFFFFFFFFFFFFF AND EQ ISZERO PUSH2 0x8F0 JUMPI PUSH1 0x40 MLOAD PUSH32 0x8C379A000000000000000000000000000000000000000000000000000000000 DUP2 MSTORE PUSH1 0x4 ADD PUSH2 0x8E7 SWAP1 PUSH2 0x1764 JUMP JUMPDEST PUSH1 0x40 MLOAD DUP1 SWAP2 SUB SWAP1 REVERT JUMPDEST PUSH1 0x0 PUSH20 0xFFFFFFFFFFFFFFFFFFFFFFFFFFFFFFFFFFFFFFFF AND DUP3 PUSH20 0xFFFFFFFFFFFFFFFFFFFFFFFFFFFFFFFFFFFFFFFF AND EQ ISZERO PUSH2 0x960 JUMPI PUSH1 0x40 MLOAD PUSH32 0x8C379A000000000000000000000000000000000000000000000000000000000 DUP2 MSTORE PUSH1 0x4 ADD PUSH2 0x957 SWAP1 PUSH2 0x1664 JUMP JUMPDEST PUSH1 0x40 MLOAD DUP1 SWAP2 SUB SWAP1 REVERT JUMPDEST DUP1 PUSH1 0x1 PUSH1 0x0 DUP6 PUSH20 0xFFFFFFFFFFFFFFFFFFFFFFFFFFFFFFFFFFFFFFFF AND PUSH20 0xFFFFFFFFFFFFFFFFFFFFFFFFFFFFFFFFFFFFFFFF AND DUP2 MSTORE PUSH1 0x20 ADD SWAP1 DUP2 MSTORE PUSH1 0x20 ADD PUSH1 0x0 KECCAK256 PUSH1 0x0 DUP5 PUSH20 0xFFFFFFFFFFFFFFFFFFFFFFFFFFFFFFFFFFFFFFFF AND PUSH20 0xFFFFFFFFFFFFFFFFFFFFFFFFFFFFFFFFFFFFFFFF AND DUP2 MSTORE PUSH1 0x20 ADD SWAP1 DUP2 MSTORE PUSH1 0x20 ADD PUSH1 0x0 KECCAK256 DUP2 SWAP1 SSTORE POP DUP2 PUSH20 0xFFFFFFFFFFFFFFFFFFFFFFFFFFFFFFFFFFFFFFFF AND DUP4 PUSH20 0xFFFFFFFFFFFFFFFFFFFFFFFFFFFFFFFFFFFFFFFF AND PUSH32 0x8C5BE1E5EBEC7D5BD14F71427D1E84F3DD0314C0F7B2291E5B200AC8C7C3B925 DUP4 PUSH1 0x40 MLOAD PUSH2 0xA3E SWAP2 SWAP1 PUSH2 0x17A4 JUMP JUMPDEST PUSH1 0x40 MLOAD DUP1 SWAP2 SUB SWAP1 LOG3 POP POP POP JUMP JUMPDEST PUSH2 0xA53 PUSH2 0x878 JUMP JUMPDEST PUSH20 0xFFFFFFFFFFFFFFFFFFFFFFFFFFFFFFFFFFFFFFFF AND PUSH2 0xA71 PUSH2 0x617 JUMP JUMPDEST PUSH20 0xFFFFFFFFFFFFFFFFFFFFFFFFFFFFFFFFFFFFFFFF AND EQ PUSH2 0xAC7 JUMPI PUSH1 0x40 MLOAD PUSH32 0x8C379A000000000000000000000000000000000000000000000000000000000 DUP2 MSTORE PUSH1 0x4 ADD PUSH2 0xABE SWAP1 PUSH2 0x1704 JUMP JUMPDEST PUSH1 0x40 MLOAD DUP1 SWAP2 SUB SWAP1 REVERT JUMPDEST JUMP JUMPDEST PUSH2 0xAD1 PUSH2 0x1139 JUMP JUMPDEST PUSH1 0x1 PUSH1 0x5 PUSH1 0x0 PUSH2 0x100 EXP DUP2 SLOAD DUP2 PUSH1 0xFF MUL NOT AND SWAP1 DUP4 ISZERO ISZERO MUL OR SWAP1 SSTORE POP PUSH32 0x62E78CEA01BEE320CD4E420270B5EA74000D11B0C9F74754EBDBFC544B05A258 PUSH2 0xB15 PUSH2 0x878 JUMP JUMPDEST PUSH1 0x40 MLOAD PUSH2 0xB22 SWAP2 SWAP1 PUSH2 0x158C JUMP JUMPDEST PUSH1 0x40 MLOAD DUP1 SWAP2 SUB SWAP1 LOG1 JUMP JUMPDEST PUSH1 0x0 PUSH2 0xB38 DUP5 DUP5 PUSH2 0x76D JUMP JUMPDEST SWAP1 POP PUSH32 0xFFFFFFFFFFFFFFFFFFFFFFFFFFFFFFFFFFFFFFFFFFFFFFFFFFFFFFFFFFFFFFFF DUP2 EQ PUSH2 0xBB2 JUMPI DUP2 DUP2 LT ISZERO PUSH2 0xBA4 JUMPI PUSH1 0x40 MLOAD PUSH32 0x8C379A000000000000000000000000000000000000000000000000000000000 DUP2 MSTORE PUSH1 0x4 ADD PUSH2 0xB9B SWAP1 PUSH2 0x1684 JUMP JUMPDEST PUSH1 0x40 MLOAD DUP1 SWAP2 SUB SWAP1 REVERT JUMPDEST PUSH2 0xBB1 DUP5 DUP5 DUP5 DUP5 SUB PUSH2 0x880 JUMP JUMPDEST JUMPDEST POP POP POP POP JUMP JUMPDEST PUSH1 0x0 PUSH20 0xFFFFFFFFFFFFFFFFFFFFFFFFFFFFFFFFFFFFFFFF AND DUP4 PUSH20 0xFFFFFFFFFFFFFFFFFFFFFFFFFFFFFFFFFFFFFFFF AND EQ ISZERO PUSH2 0xC28 JUMPI PUSH1 0x40 MLOAD PUSH32 0x8C379A000000000000000000000000000000000000000000000000000000000 DUP2 MSTORE PUSH1 0x4 ADD PUSH2 0xC1F SWAP1 PUSH2 0x1744 JUMP JUMPDEST PUSH1 0x40 MLOAD DUP1 SWAP2 SUB SWAP1 REVERT JUMPDEST PUSH1 0x0 PUSH20 0xFFFFFFFFFFFFFFFFFFFFFFFFFFFFFFFFFFFFFFFF AND DUP3 PUSH20 0xFFFFFFFFFFFFFFFFFFFFFFFFFFFFFFFFFFFFFFFF AND EQ ISZERO PUSH2 0xC98 JUMPI PUSH1 0x40 MLOAD PUSH32 0x8C379A000000000000000000000000000000000000000000000000000000000 DUP2 MSTORE PUSH1 0x4 ADD PUSH2 0xC8F SWAP1 PUSH2 0x15E4 JUMP JUMPDEST PUSH1 0x40 MLOAD DUP1 SWAP2 SUB SWAP1 REVERT JUMPDEST PUSH2 0xCA3 DUP4 DUP4 DUP4 PUSH2 0x1183 JUMP JUMPDEST PUSH1 0x0 DUP1 PUSH1 0x0 DUP6 PUSH20 0xFFFFFFFFFFFFFFFFFFFFFFFFFFFFFFFFFFFFFFFF AND PUSH20 0xFFFFFFFFFFFFFFFFFFFFFFFFFFFFFFFFFFFFFFFF AND DUP2 MSTORE PUSH1 0x20 ADD SWAP1 DUP2 MSTORE PUSH1 0x20 ADD PUSH1 0x0 KECCAK256 SLOAD SWAP1 POP DUP2 DUP2 LT ISZERO PUSH2 0xD29 JUMPI PUSH1 0x40 MLOAD PUSH32 0x8C379A000000000000000000000000000000000000000000000000000000000 DUP2 MSTORE PUSH1 0x4 ADD PUSH2 0xD20 SWAP1 PUSH2 0x16A4 JUMP JUMPDEST PUSH1 0x40 MLOAD DUP1 SWAP2 SUB SWAP1 REVERT JUMPDEST DUP2 DUP2 SUB PUSH1 0x0 DUP1 DUP7 PUSH20 0xFFFFFFFFFFFFFFFFFFFFFFFFFFFFFFFFFFFFFFFF AND PUSH20 0xFFFFFFFFFFFFFFFFFFFFFFFFFFFFFFFFFFFFFFFF AND DUP2 MSTORE PUSH1 0x20 ADD SWAP1 DUP2 MSTORE PUSH1 0x20 ADD PUSH1 0x0 KECCAK256 DUP2 SWAP1 SSTORE POP DUP2 PUSH1 0x0 DUP1 DUP6 PUSH20 0xFFFFFFFFFFFFFFFFFFFFFFFFFFFFFFFFFFFFFFFF AND PUSH20 0xFFFFFFFFFFFFFFFFFFFFFFFFFFFFFFFFFFFFFFFF AND DUP2 MSTORE PUSH1 0x20 ADD SWAP1 DUP2 MSTORE PUSH1 0x20 ADD PUSH1 0x0 KECCAK256 PUSH1 0x0 DUP3 DUP3 SLOAD PUSH2 0xDBC SWAP2 SWAP1 PUSH2 0x17F6 JUMP JUMPDEST SWAP3 POP POP DUP2 SWAP1 SSTORE POP DUP3 PUSH20 0xFFFFFFFFFFFFFFFFFFFFFFFFFFFFFFFFFFFFFFFF AND DUP5 PUSH20 0xFFFFFFFFFFFFFFFFFFFFFFFFFFFFFFFFFFFFFFFF AND PUSH32 0xDDF252AD1BE2C89B69C2B068FC378DAA952BA7F163C4A11628F55A4DF523B3EF DUP5 PUSH1 0x40 MLOAD PUSH2 0xE20 SWAP2 SWAP1 PUSH2 0x17A4 JUMP JUMPDEST PUSH1 0x40 MLOAD DUP1 SWAP2 SUB SWAP1 LOG3 PUSH2 0xE33 DUP5 DUP5 DUP5 PUSH2 0x1188 JUMP JUMPDEST POP POP POP POP JUMP JUMPDEST PUSH1 0x0 PUSH20 0xFFFFFFFFFFFFFFFFFFFFFFFFFFFFFFFFFFFFFFFF AND DUP3 PUSH20 0xFFFFFFFFFFFFFFFFFFFFFFFFFFFFFFFFFFFFFFFF AND EQ ISZERO PUSH2 0xEA9 JUMPI PUSH1 0x40 MLOAD PUSH32 0x8C379A000000000000000000000000000000000000000000000000000000000 DUP2 MSTORE PUSH1 0x4 ADD PUSH2 0xEA0 SWAP1 PUSH2 0x1724 JUMP JUMPDEST PUSH1 0x40 MLOAD DUP1 SWAP2 SUB SWAP1 REVERT JUMPDEST PUSH2 0xEB5 DUP3 PUSH1 0x0 DUP4 PUSH2 0x1183 JUMP JUMPDEST PUSH1 0x0 DUP1 PUSH1 0x0 DUP5 PUSH20 0xFFFFFFFFFFFFFFFFFFFFFFFFFFFFFFFFFFFFFFFF AND PUSH20 0xFFFFFFFFFFFFFFFFFFFFFFFFFFFFFFFFFFFFFFFF AND DUP2 MSTORE PUSH1 0x20 ADD SWAP1 DUP2 MSTORE PUSH1 0x20 ADD PUSH1 0x0 KECCAK256 SLOAD SWAP1 POP DUP2 DUP2 LT ISZERO PUSH2 0xF3B JUMPI PUSH1 0x40 MLOAD PUSH32 0x8C379A000000000000000000000000000000000000000000000000000000000 DUP2 MSTORE PUSH1 0x4 ADD PUSH2 0xF32 SWAP1 PUSH2 0x1624 JUMP JUMPDEST PUSH1 0x40 MLOAD DUP1 SWAP2 SUB SWAP1 REVERT JUMPDEST DUP2 DUP2 SUB PUSH1 0x0 DUP1 DUP6 PUSH20 0xFFFFFFFFFFFFFFFFFFFFFFFFFFFFFFFFFFFFFFFF AND PUSH20 0xFFFFFFFFFFFFFFFFFFFFFFFFFFFFFFFFFFFFFFFF AND DUP2 MSTORE PUSH1 0x20 ADD SWAP1 DUP2 MSTORE PUSH1 0x20 ADD PUSH1 0x0 KECCAK256 DUP2 SWAP1 SSTORE POP DUP2 PUSH1 0x2 PUSH1 0x0 DUP3 DUP3 SLOAD PUSH2 0xF92 SWAP2 SWAP1 PUSH2 0x184C JUMP JUMPDEST SWAP3 POP POP DUP2 SWAP1 SSTORE POP PUSH1 0x0 PUSH20 0xFFFFFFFFFFFFFFFFFFFFFFFFFFFFFFFFFFFFFFFF AND DUP4 PUSH20 0xFFFFFFFFFFFFFFFFFFFFFFFFFFFFFFFFFFFFFFFF AND PUSH32 0xDDF252AD1BE2C89B69C2B068FC378DAA952BA7F163C4A11628F55A4DF523B3EF DUP5 PUSH1 0x40 MLOAD PUSH2 0xFF7 SWAP2 SWAP1 PUSH2 0x17A4 JUMP JUMPDEST PUSH1 0x40 MLOAD DUP1 SWAP2 SUB SWAP1 LOG3 PUSH2 0x100B DUP4 PUSH1 0x0 DUP5 PUSH2 0x1188 JUMP JUMPDEST POP POP POP JUMP JUMPDEST PUSH1 0x0 PUSH1 0x5 PUSH1 0x1 SWAP1 SLOAD SWAP1 PUSH2 0x100 EXP SWAP1 DIV PUSH20 0xFFFFFFFFFFFFFFFFFFFFFFFFFFFFFFFFFFFFFFFF AND SWAP1 POP DUP2 PUSH1 0x5 PUSH1 0x1 PUSH2 0x100 EXP DUP2 SLOAD DUP2 PUSH20 0xFFFFFFFFFFFFFFFFFFFFFFFFFFFFFFFFFFFFFFFF MUL NOT AND SWAP1 DUP4 PUSH20 0xFFFFFFFFFFFFFFFFFFFFFFFFFFFFFFFFFFFFFFFF AND MUL OR SWAP1 SSTORE POP DUP2 PUSH20 0xFFFFFFFFFFFFFFFFFFFFFFFFFFFFFFFFFFFFFFFF AND DUP2 PUSH20 0xFFFFFFFFFFFFFFFFFFFFFFFFFFFFFFFFFFFFFFFF AND PUSH32 0x8BE0079C531659141344CD1FD0A4F28419497F9722A3DAAFE3B4186F6B6457E0 PUSH1 0x40 MLOAD PUSH1 0x40 MLOAD DUP1 SWAP2 SUB SWAP1 LOG3 POP POP JUMP JUMPDEST PUSH2 0x10DE PUSH2 0x118D JUMP JUMPDEST PUSH1 0x0 PUSH1 0x5 PUSH1 0x0 PUSH2 0x100 EXP DUP2 SLOAD DUP2 PUSH1 0xFF MUL NOT AND SWAP1 DUP4 ISZERO ISZERO MUL OR SWAP1 SSTORE POP PUSH32 0x5DB9EE0A495BF2E6FF9C91A7834C1BA4FDD244A5E8AA4E537BD38AEAE4B073AA PUSH2 0x1122 PUSH2 0x878 JUMP JUMPDEST PUSH1 0x40 MLOAD PUSH2 0x112F SWAP2 SWAP1 PUSH2 0x158C JUMP JUMPDEST PUSH1 0x40 MLOAD DUP1 SWAP2 SUB SWAP1 LOG1 JUMP JUMPDEST PUSH2 0x1141 PUSH2 0x572 JUMP JUMPDEST ISZERO PUSH2 0x1181 JUMPI PUSH1 0x40 MLOAD PUSH32 0x8C379A000000000000000000000000000000000000000000000000000000000 DUP2 MSTORE PUSH1 0x4 ADD PUSH2 0x1178 SWAP1 PUSH2 0x16E4 JUMP JUMPDEST PUSH1 0x40 MLOAD DUP1 SWAP2 SUB SWAP1 REVERT JUMPDEST JUMP JUMPDEST POP POP POP JUMP JUMPDEST POP POP POP JUMP JUMPDEST PUSH2 0x1195 PUSH2 0x572 JUMP JUMPDEST PUSH2 0x11D4 JUMPI PUSH1 0x40 MLOAD PUSH32 0x8C379A000000000000000000000000000000000000000000000000000000000 DUP2 MSTORE PUSH1 0x4 ADD PUSH2 0x11CB SWAP1 PUSH2 0x1604 JUMP JUMPDEST PUSH1 0x40 MLOAD DUP1 SWAP2 SUB SWAP1 REVERT JUMPDEST JUMP JUMPDEST PUSH1 0x0 DUP2 CALLDATALOAD SWAP1 POP PUSH2 0x11E5 DUP2 PUSH2 0x1D68 JUMP JUMPDEST SWAP3 SWAP2 POP POP JUMP JUMPDEST PUSH1 0x0 DUP2 CALLDATALOAD SWAP1 POP PUSH2 0x11FA DUP2 PUSH2 0x1D7F JUMP JUMPDEST SWAP3 SWAP2 POP POP JUMP JUMPDEST PUSH1 0x0 PUSH1 0x20 DUP3 DUP5 SUB SLT ISZERO PUSH2 0x1216 JUMPI PUSH2 0x1215 PUSH2 0x1998 JUMP JUMPDEST JUMPDEST PUSH1 0x0 PUSH2 0x1224 DUP5 DUP3 DUP6 ADD PUSH2 0x11D6 JUMP JUMPDEST SWAP2 POP POP SWAP3 SWAP2 POP POP JUMP JUMPDEST PUSH1 0x0 DUP1 PUSH1 0x40 DUP4 DUP6 SUB SLT ISZERO PUSH2 0x1244 JUMPI PUSH2 0x1243 PUSH2 0x1998 JUMP JUMPDEST JUMPDEST PUSH1 0x0 PUSH2 0x1252 DUP6 DUP3 DUP7 ADD PUSH2 0x11D6 JUMP JUMPDEST SWAP3 POP POP PUSH1 0x20 PUSH2 0x1263 DUP6 DUP3 DUP7 ADD PUSH2 0x11D6 JUMP JUMPDEST SWAP2 POP POP SWAP3 POP SWAP3 SWAP1 POP JUMP JUMPDEST PUSH1 0x0 DUP1 PUSH1 0x0 PUSH1 0x60 DUP5 DUP7 SUB SLT ISZERO PUSH2 0x1286 JUMPI PUSH2 0x1285 PUSH2 0x1998 JUMP JUMPDEST JUMPDEST PUSH1 0x0 PUSH2 0x1294 DUP7 DUP3 DUP8 ADD PUSH2 0x11D6 JUMP JUMPDEST SWAP4 POP POP PUSH1 0x20 PUSH2 0x12A5 DUP7 DUP3 DUP8 ADD PUSH2 0x11D6 JUMP JUMPDEST SWAP3 POP POP PUSH1 0x40 PUSH2 0x12B6 DUP7 DUP3 DUP8 ADD PUSH2 0x11EB JUMP JUMPDEST SWAP2 POP POP SWAP3 POP SWAP3 POP SWAP3 JUMP JUMPDEST PUSH1 0x0 DUP1 PUSH1 0x40 DUP4 DUP6 SUB SLT ISZERO PUSH2 0x12D7 JUMPI PUSH2 0x12D6 PUSH2 0x1998 JUMP JUMPDEST JUMPDEST PUSH1 0x0 PUSH2 0x12E5 DUP6 DUP3 DUP7 ADD PUSH2 0x11D6 JUMP JUMPDEST SWAP3 POP POP PUSH1 0x20 PUSH2 0x12F6 DUP6 DUP3 DUP7 ADD PUSH2 0x11EB JUMP JUMPDEST SWAP2 POP POP SWAP3 POP SWAP3 SWAP1 POP JUMP JUMPDEST PUSH1 0x0 PUSH1 0x20 DUP3 DUP5 SUB SLT ISZERO PUSH2 0x1316 JUMPI PUSH2 0x1315 PUSH2 0x1998 JUMP JUMPDEST JUMPDEST PUSH1 0x0 PUSH2 0x1324 DUP5 DUP3 DUP6 ADD PUSH2 0x11EB JUMP JUMPDEST SWAP2 POP POP SWAP3 SWAP2 POP POP JUMP JUMPDEST PUSH2 0x1336 DUP2 PUSH2 0x1880 JUMP JUMPDEST DUP3 MSTORE POP POP JUMP JUMPDEST PUSH2 0x1345 DUP2 PUSH2 0x1892 JUMP JUMPDEST DUP3 MSTORE POP POP JUMP JUMPDEST PUSH1 0x0 PUSH2 0x1356 DUP3 PUSH2 0x17DA JUMP JUMPDEST PUSH2 0x1360 DUP2 DUP6 PUSH2 0x17E5 JUMP JUMPDEST SWAP4 POP PUSH2 0x1370 DUP2 DUP6 PUSH1 0x20 DUP7 ADD PUSH2 0x18D5 JUMP JUMPDEST PUSH2 0x1379 DUP2 PUSH2 0x199D JUMP JUMPDEST DUP5 ADD SWAP2 POP POP SWAP3 SWAP2 POP POP JUMP JUMPDEST PUSH1 0x0 PUSH2 0x1391 PUSH1 0x23 DUP4 PUSH2 0x17E5 JUMP JUMPDEST SWAP2 POP PUSH2 0x139C DUP3 PUSH2 0x19AE JUMP JUMPDEST PUSH1 0x40 DUP3 ADD SWAP1 POP SWAP2 SWAP1 POP JUMP JUMPDEST PUSH1 0x0 PUSH2 0x13B4 PUSH1 0x14 DUP4 PUSH2 0x17E5 JUMP JUMPDEST SWAP2 POP PUSH2 0x13BF DUP3 PUSH2 0x19FD JUMP JUMPDEST PUSH1 0x20 DUP3 ADD SWAP1 POP SWAP2 SWAP1 POP JUMP JUMPDEST PUSH1 0x0 PUSH2 0x13D7 PUSH1 0x22 DUP4 PUSH2 0x17E5 JUMP JUMPDEST SWAP2 POP PUSH2 0x13E2 DUP3 PUSH2 0x1A26 JUMP JUMPDEST PUSH1 0x40 DUP3 ADD SWAP1 POP SWAP2 SWAP1 POP JUMP JUMPDEST PUSH1 0x0 PUSH2 0x13FA PUSH1 0x26 DUP4 PUSH2 0x17E5 JUMP JUMPDEST SWAP2 POP PUSH2 0x1405 DUP3 PUSH2 0x1A75 JUMP JUMPDEST PUSH1 0x40 DUP3 ADD SWAP1 POP SWAP2 SWAP1 POP JUMP JUMPDEST PUSH1 0x0 PUSH2 0x141D PUSH1 0x22 DUP4 PUSH2 0x17E5 JUMP JUMPDEST SWAP2 POP PUSH2 0x1428 DUP3 PUSH2 0x1AC4 JUMP JUMPDEST PUSH1 0x40 DUP3 ADD SWAP1 POP SWAP2 SWAP1 POP JUMP JUMPDEST PUSH1 0x0 PUSH2 0x1440 PUSH1 0x1D DUP4 PUSH2 0x17E5 JUMP JUMPDEST SWAP2 POP PUSH2 0x144B DUP3 PUSH2 0x1B13 JUMP JUMPDEST PUSH1 0x20 DUP3 ADD SWAP1 POP SWAP2 SWAP1 POP JUMP JUMPDEST PUSH1 0x0 PUSH2 0x1463 PUSH1 0x26 DUP4 PUSH2 0x17E5 JUMP JUMPDEST SWAP2 POP PUSH2 0x146E DUP3 PUSH2 0x1B3C JUMP JUMPDEST PUSH1 0x40 DUP3 ADD SWAP1 POP SWAP2 SWAP1 POP JUMP JUMPDEST PUSH1 0x0 PUSH2 0x1486 PUSH1 0x3B DUP4 PUSH2 0x17E5 JUMP JUMPDEST SWAP2 POP PUSH2 0x1491 DUP3 PUSH2 0x1B8B JUMP JUMPDEST PUSH1 0x40 DUP3 ADD SWAP1 POP SWAP2 SWAP1 POP JUMP JUMPDEST PUSH1 0x0 PUSH2 0x14A9 PUSH1 0x10 DUP4 PUSH2 0x17E5 JUMP JUMPDEST SWAP2 POP PUSH2 0x14B4 DUP3 PUSH2 0x1BDA JUMP JUMPDEST PUSH1 0x20 DUP3 ADD SWAP1 POP SWAP2 SWAP1 POP JUMP JUMPDEST PUSH1 0x0 PUSH2 0x14CC PUSH1 0x20 DUP4 PUSH2 0x17E5 JUMP JUMPDEST SWAP2 POP PUSH2 0x14D7 DUP3 PUSH2 0x1C03 JUMP JUMPDEST PUSH1 0x20 DUP3 ADD SWAP1 POP SWAP2 SWAP1 POP JUMP JUMPDEST PUSH1 0x0 PUSH2 0x14EF PUSH1 0x21 DUP4 PUSH2 0x17E5 JUMP JUMPDEST SWAP2 POP PUSH2 0x14FA DUP3 PUSH2 0x1C2C JUMP JUMPDEST PUSH1 0x40 DUP3 ADD SWAP1 POP SWAP2 SWAP1 POP JUMP JUMPDEST PUSH1 0x0 PUSH2 0x1512 PUSH1 0x25 DUP4 PUSH2 0x17E5 JUMP JUMPDEST SWAP2 POP PUSH2 0x151D DUP3 PUSH2 0x1C7B JUMP JUMPDEST PUSH1 0x40 DUP3 ADD SWAP1 POP SWAP2 SWAP1 POP JUMP JUMPDEST PUSH1 0x0 PUSH2 0x1535 PUSH1 0x24 DUP4 PUSH2 0x17E5 JUMP JUMPDEST SWAP2 POP PUSH2 0x1540 DUP3 PUSH2 0x1CCA JUMP JUMPDEST PUSH1 0x40 DUP3 ADD SWAP1 POP SWAP2 SWAP1 POP JUMP JUMPDEST PUSH1 0x0 PUSH2 0x1558 PUSH1 0x25 DUP4 PUSH2 0x17E5 JUMP JUMPDEST SWAP2 POP PUSH2 0x1563 DUP3 PUSH2 0x1D19 JUMP JUMPDEST PUSH1 0x40 DUP3 ADD SWAP1 POP SWAP2 SWAP1 POP JUMP JUMPDEST PUSH2 0x1577 DUP2 PUSH2 0x18BE JUMP JUMPDEST DUP3 MSTORE POP POP JUMP JUMPDEST PUSH2 0x1586 DUP2 PUSH2 0x18C8 JUMP JUMPDEST DUP3 MSTORE POP POP JUMP JUMPDEST PUSH1 0x0 PUSH1 0x20 DUP3 ADD SWAP1 POP PUSH2 0x15A1 PUSH1 0x0 DUP4 ADD DUP5 PUSH2 0x132D JUMP JUMPDEST SWAP3 SWAP2 POP POP JUMP JUMPDEST PUSH1 0x0 PUSH1 0x20 DUP3 ADD SWAP1 POP PUSH2 0x15BC PUSH1 0x0 DUP4 ADD DUP5 PUSH2 0x133C JUMP JUMPDEST SWAP3 SWAP2 POP POP JUMP JUMPDEST PUSH1 0x0 PUSH1 0x20 DUP3 ADD SWAP1 POP DUP2 DUP2 SUB PUSH1 0x0 DUP4 ADD MSTORE PUSH2 0x15DC DUP2 DUP5 PUSH2 0x134B JUMP JUMPDEST SWAP1 POP SWAP3 SWAP2 POP POP JUMP JUMPDEST PUSH1 0x0 PUSH1 0x20 DUP3 ADD SWAP1 POP DUP2 DUP2 SUB PUSH1 0x0 DUP4 ADD MSTORE PUSH2 0x15FD DUP2 PUSH2 0x1384 JUMP JUMPDEST SWAP1 POP SWAP2 SWAP1 POP JUMP JUMPDEST PUSH1 0x0 PUSH1 0x20 DUP3 ADD SWAP1 POP DUP2 DUP2 SUB PUSH1 0x0 DUP4 ADD MSTORE PUSH2 0x161D DUP2 PUSH2 0x13A7 JUMP JUMPDEST SWAP1 POP SWAP2 SWAP1 POP JUMP JUMPDEST PUSH1 0x0 PUSH1 0x20 DUP3 ADD SWAP1 POP DUP2 DUP2 SUB PUSH1 0x0 DUP4 ADD MSTORE PUSH2 0x163D DUP2 PUSH2 0x13CA JUMP JUMPDEST SWAP1 POP SWAP2 SWAP1 POP JUMP JUMPDEST PUSH1 0x0 PUSH1 0x20 DUP3 ADD SWAP1 POP DUP2 DUP2 SUB PUSH1 0x0 DUP4 ADD MSTORE PUSH2 0x165D DUP2 PUSH2 0x13ED JUMP JUMPDEST SWAP1 POP SWAP2 SWAP1 POP JUMP JUMPDEST PUSH1 0x0 PUSH1 0x20 DUP3 ADD SWAP1 POP DUP2 DUP2 SUB PUSH1 0x0 DUP4 ADD MSTORE PUSH2 0x167D DUP2 PUSH2 0x1410 JUMP JUMPDEST SWAP1 POP SWAP2 SWAP1 POP JUMP JUMPDEST PUSH1 0x0 PUSH1 0x20 DUP3 ADD SWAP1 POP DUP2 DUP2 SUB PUSH1 0x0 DUP4 ADD MSTORE PUSH2 0x169D DUP2 PUSH2 0x1433 JUMP JUMPDEST SWAP1 POP SWAP2 SWAP1 POP JUMP JUMPDEST PUSH1 0x0 PUSH1 0x20 DUP3 ADD SWAP1 POP DUP2 DUP2 SUB PUSH1 0x0 DUP4 ADD MSTORE PUSH2 0x16BD DUP2 PUSH2 0x1456 JUMP JUMPDEST SWAP1 POP SWAP2 SWAP1 POP JUMP JUMPDEST PUSH1 0x0 PUSH1 0x20 DUP3 ADD SWAP1 POP DUP2 DUP2 SUB PUSH1 0x0 DUP4 ADD MSTORE PUSH2 0x16DD DUP2 PUSH2 0x1479 JUMP JUMPDEST SWAP1 POP SWAP2 SWAP1 POP JUMP JUMPDEST PUSH1 0x0 PUSH1 0x20 DUP3 ADD SWAP1 POP DUP2 DUP2 SUB PUSH1 0x0 DUP4 ADD MSTORE PUSH2 0x16FD DUP2 PUSH2 0x149C JUMP JUMPDEST SWAP1 POP SWAP2 SWAP1 POP JUMP JUMPDEST PUSH1 0x0 PUSH1 0x20 DUP3 ADD SWAP1 POP DUP2 DUP2 SUB PUSH1 0x0 DUP4 ADD MSTORE PUSH2 0x171D DUP2 PUSH2 0x14BF JUMP JUMPDEST SWAP1 POP SWAP2 SWAP1 POP JUMP JUMPDEST PUSH1 0x0 PUSH1 0x20 DUP3 ADD SWAP1 POP DUP2 DUP2 SUB PUSH1 0x0 DUP4 ADD MSTORE PUSH2 0x173D DUP2 PUSH2 0x14E2 JUMP JUMPDEST SWAP1 POP SWAP2 SWAP1 POP JUMP JUMPDEST PUSH1 0x0 PUSH1 0x20 DUP3 ADD SWAP1 POP DUP2 DUP2 SUB PUSH1 0x0 DUP4 ADD MSTORE PUSH2 0x175D DUP2 PUSH2 0x1505 JUMP JUMPDEST SWAP1 POP SWAP2 SWAP1 POP JUMP JUMPDEST PUSH1 0x0 PUSH1 0x20 DUP3 ADD SWAP1 POP DUP2 DUP2 SUB PUSH1 0x0 DUP4 ADD MSTORE PUSH2 0x177D DUP2 PUSH2 0x1528 JUMP JUMPDEST SWAP1 POP SWAP2 SWAP1 POP JUMP JUMPDEST PUSH1 0x0 PUSH1 0x20 DUP3 ADD SWAP1 POP DUP2 DUP2 SUB PUSH1 0x0 DUP4 ADD MSTORE PUSH2 0x179D DUP2 PUSH2 0x154B JUMP JUMPDEST SWAP1 POP SWAP2 SWAP1 POP JUMP JUMPDEST PUSH1 0x0 PUSH1 0x20 DUP3 ADD SWAP1 POP PUSH2 0x17B9 PUSH1 0x0 DUP4 ADD DUP5 PUSH2 0x156E JUMP JUMPDEST SWAP3 SWAP2 POP POP JUMP JUMPDEST PUSH1 0x0 PUSH1 0x20 DUP3 ADD SWAP1 POP PUSH2 0x17D4 PUSH1 0x0 DUP4 ADD DUP5 PUSH2 0x157D JUMP JUMPDEST SWAP3 SWAP2 POP POP JUMP JUMPDEST PUSH1 0x0 DUP2 MLOAD SWAP1 POP SWAP2 SWAP1 POP JUMP JUMPDEST PUSH1 0x0 DUP3 DUP3 MSTORE PUSH1 0x20 DUP3 ADD SWAP1 POP SWAP3 SWAP2 POP POP JUMP JUMPDEST PUSH1 0x0 PUSH2 0x1801 DUP3 PUSH2 0x18BE JUMP JUMPDEST SWAP2 POP PUSH2 0x180C DUP4 PUSH2 0x18BE JUMP JUMPDEST SWAP3 POP DUP3 PUSH32 0xFFFFFFFFFFFFFFFFFFFFFFFFFFFFFFFFFFFFFFFFFFFFFFFFFFFFFFFFFFFFFFFF SUB DUP3 GT ISZERO PUSH2 0x1841 JUMPI PUSH2 0x1840 PUSH2 0x193A JUMP JUMPDEST JUMPDEST DUP3 DUP3 ADD SWAP1 POP SWAP3 SWAP2 POP POP JUMP JUMPDEST PUSH1 0x0 PUSH2 0x1857 DUP3 PUSH2 0x18BE JUMP JUMPDEST SWAP2 POP PUSH2 0x1862 DUP4 PUSH2 0x18BE JUMP JUMPDEST SWAP3 POP DUP3 DUP3 LT ISZERO PUSH2 0x1875 JUMPI PUSH2 0x1874 PUSH2 0x193A JUMP JUMPDEST JUMPDEST DUP3 DUP3 SUB SWAP1 POP SWAP3 SWAP2 POP POP JUMP JUMPDEST PUSH1 0x0 PUSH2 0x188B DUP3 PUSH2 0x189E JUMP JUMPDEST SWAP1 POP SWAP2 SWAP1 POP JUMP JUMPDEST PUSH1 0x0 DUP2 ISZERO ISZERO SWAP1 POP SWAP2 SWAP1 POP JUMP JUMPDEST PUSH1 0x0 PUSH20 0xFFFFFFFFFFFFFFFFFFFFFFFFFFFFFFFFFFFFFFFF DUP3 AND SWAP1 POP SWAP2 SWAP1 POP JUMP JUMPDEST PUSH1 0x0 DUP2 SWAP1 POP SWAP2 SWAP1 POP JUMP JUMPDEST PUSH1 0x0 PUSH1 0xFF DUP3 AND SWAP1 POP SWAP2 SWAP1 POP JUMP JUMPDEST PUSH1 0x0 JUMPDEST DUP4 DUP2 LT ISZERO PUSH2 0x18F3 JUMPI DUP1 DUP3 ADD MLOAD DUP2 DUP5 ADD MSTORE PUSH1 0x20 DUP2 ADD SWAP1 POP PUSH2 0x18D8 JUMP JUMPDEST DUP4 DUP2 GT ISZERO PUSH2 0x1902 JUMPI PUSH1 0x0 DUP5 DUP5 ADD MSTORE JUMPDEST POP POP POP POP JUMP JUMPDEST PUSH1 0x0 PUSH1 0x2 DUP3 DIV SWAP1 POP PUSH1 0x1 DUP3 AND DUP1 PUSH2 0x1920 JUMPI PUSH1 0x7F DUP3 AND SWAP2 POP JUMPDEST PUSH1 0x20 DUP3 LT DUP2 EQ ISZERO PUSH2 0x1934 JUMPI PUSH2 0x1933 PUSH2 0x1969 JUMP JUMPDEST JUMPDEST POP SWAP2 SWAP1 POP JUMP JUMPDEST PUSH32 0x4E487B7100000000000000000000000000000000000000000000000000000000 PUSH1 0x0 MSTORE PUSH1 0x11 PUSH1 0x4 MSTORE PUSH1 0x24 PUSH1 0x0 REVERT JUMPDEST PUSH32 0x4E487B7100000000000000000000000000000000000000000000000000000000 PUSH1 0x0 MSTORE PUSH1 0x22 PUSH1 0x4 MSTORE PUSH1 0x24 PUSH1 0x0 REVERT JUMPDEST PUSH1 0x0 DUP1 REVERT JUMPDEST PUSH1 0x0 PUSH1 0x1F NOT PUSH1 0x1F DUP4 ADD AND SWAP1 POP SWAP2 SWAP1 POP JUMP JUMPDEST PUSH32 0x45524332303A207472616E7366657220746F20746865207A65726F2061646472 PUSH1 0x0 DUP3 ADD MSTORE PUSH32 0x6573730000000000000000000000000000000000000000000000000000000000 PUSH1 0x20 DUP3 ADD MSTORE POP JUMP JUMPDEST PUSH32 0x5061757361626C653A206E6F7420706175736564000000000000000000000000 PUSH1 0x0 DUP3 ADD MSTORE POP JUMP JUMPDEST PUSH32 0x45524332303A206275726E20616D6F756E7420657863656564732062616C616E PUSH1 0x0 DUP3 ADD MSTORE PUSH32 0x6365000000000000000000000000000000000000000000000000000000000000 PUSH1 0x20 DUP3 ADD MSTORE POP JUMP JUMPDEST PUSH32 0x4F776E61626C653A206E6577206F776E657220697320746865207A65726F2061 PUSH1 0x0 DUP3 ADD MSTORE PUSH32 0x6464726573730000000000000000000000000000000000000000000000000000 PUSH1 0x20 DUP3 ADD MSTORE POP JUMP JUMPDEST PUSH32 0x45524332303A20617070726F766520746F20746865207A65726F206164647265 PUSH1 0x0 DUP3 ADD MSTORE PUSH32 0x7373000000000000000000000000000000000000000000000000000000000000 PUSH1 0x20 DUP3 ADD MSTORE POP JUMP JUMPDEST PUSH32 0x45524332303A20696E73756666696369656E7420616C6C6F77616E6365000000 PUSH1 0x0 DUP3 ADD MSTORE POP JUMP JUMPDEST PUSH32 0x45524332303A207472616E7366657220616D6F756E7420657863656564732062 PUSH1 0x0 DUP3 ADD MSTORE PUSH32 0x616C616E63650000000000000000000000000000000000000000000000000000 PUSH1 0x20 DUP3 ADD MSTORE POP JUMP JUMPDEST PUSH32 0x456C20636F6E747261746F2065737461207061757361646F2C206E6F20736520 PUSH1 0x0 DUP3 ADD MSTORE PUSH32 0x707565646520656A65637574617220657374612066756E63696F6E0000000000 PUSH1 0x20 DUP3 ADD MSTORE POP JUMP JUMPDEST PUSH32 0x5061757361626C653A2070617573656400000000000000000000000000000000 PUSH1 0x0 DUP3 ADD MSTORE POP JUMP JUMPDEST PUSH32 0x4F776E61626C653A2063616C6C6572206973206E6F7420746865206F776E6572 PUSH1 0x0 DUP3 ADD MSTORE POP JUMP JUMPDEST PUSH32 0x45524332303A206275726E2066726F6D20746865207A65726F20616464726573 PUSH1 0x0 DUP3 ADD MSTORE PUSH32 0x7300000000000000000000000000000000000000000000000000000000000000 PUSH1 0x20 DUP3 ADD MSTORE POP JUMP JUMPDEST PUSH32 0x45524332303A207472616E736665722066726F6D20746865207A65726F206164 PUSH1 0x0 DUP3 ADD MSTORE PUSH32 0x6472657373000000000000000000000000000000000000000000000000000000 PUSH1 0x20 DUP3 ADD MSTORE POP JUMP JUMPDEST PUSH32 0x45524332303A20617070726F76652066726F6D20746865207A65726F20616464 PUSH1 0x0 DUP3 ADD MSTORE PUSH32 0x7265737300000000000000000000000000000000000000000000000000000000 PUSH1 0x20 DUP3 ADD MSTORE POP JUMP JUMPDEST PUSH32 0x45524332303A2064656372656173656420616C6C6F77616E63652062656C6F77 PUSH1 0x0 DUP3 ADD MSTORE PUSH32 0x207A65726F000000000000000000000000000000000000000000000000000000 PUSH1 0x20 DUP3 ADD MSTORE POP JUMP JUMPDEST PUSH2 0x1D71 DUP2 PUSH2 0x1880 JUMP JUMPDEST DUP2 EQ PUSH2 0x1D7C JUMPI PUSH1 0x0 DUP1 REVERT JUMPDEST POP JUMP JUMPDEST PUSH2 0x1D88 DUP2 PUSH2 0x18BE JUMP JUMPDEST DUP2 EQ PUSH2 0x1D93 JUMPI PUSH1 0x0 DUP1 REVERT JUMPDEST POP JUMP INVALID LOG2 PUSH5 0x6970667358 0x22 SLT KECCAK256 LT SWAP9 0xD 0xE6 ORIGIN CALLDATASIZE 0xDC CREATE MULMOD 0xE6 0xE4 0xDF SMOD 0xAE PUSH14 0x4767ECE361361A331DE8A131B262 SWAP7 LOG0 0xC5 PUSH5 0x736F6C6343 STOP ADDMOD SMOD STOP CALLER "
		},
		"gasEstimates": {
			"creation": {
				"codeDepositCost": "1525600",
				"executionCost": "infinite",
				"totalCost": "infinite"
			},
			"external": {
				"BurnToken(uint256)": "infinite",
				"PauseContract()": "infinite",
				"UnpauseContract()": "infinite",
				"allowance(address,address)": "infinite",
				"approve(address,uint256)": "infinite",
				"balanceOf(address)": "2864",
				"burn(uint256)": "infinite",
				"burnFrom(address,uint256)": "infinite",
				"decimals()": "388",
				"decreaseAllowance(address,uint256)": "infinite",
				"increaseAllowance(address,uint256)": "infinite",
				"name()": "infinite",
				"owner()": "2683",
				"paused()": "2590",
				"renounceOwnership()": "30593",
				"symbol()": "infinite",
				"totalSupply()": "2527",
				"transfer(address,uint256)": "infinite",
				"transferFrom(address,address,uint256)": "infinite",
				"transferOwnership(address)": "31007"
			}
		},
		"methodIdentifiers": {
			"BurnToken(uint256)": "06654881",
			"PauseContract()": "1c8108b1",
			"UnpauseContract()": "79d968de",
			"allowance(address,address)": "dd62ed3e",
			"approve(address,uint256)": "095ea7b3",
			"balanceOf(address)": "70a08231",
			"burn(uint256)": "42966c68",
			"burnFrom(address,uint256)": "79cc6790",
			"decimals()": "313ce567",
			"decreaseAllowance(address,uint256)": "a457c2d7",
			"increaseAllowance(address,uint256)": "39509351",
			"name()": "06fdde03",
			"owner()": "8da5cb5b",
			"paused()": "5c975abb",
			"renounceOwnership()": "715018a6",
			"symbol()": "95d89b41",
			"totalSupply()": "18160ddd",
			"transfer(address,uint256)": "a9059cbb",
			"transferFrom(address,address,uint256)": "23b872dd",
			"transferOwnership(address)": "f2fde38b"
		}
	},
	"abi": [
		{
			"inputs": [],
			"stateMutability": "nonpayable",
			"type": "constructor"
		},
		{
			"anonymous": false,
			"inputs": [
				{
					"indexed": true,
					"internalType": "address",
					"name": "owner",
					"type": "address"
				},
				{
					"indexed": true,
					"internalType": "address",
					"name": "spender",
					"type": "address"
				},
				{
					"indexed": false,
					"internalType": "uint256",
					"name": "value",
					"type": "uint256"
				}
			],
			"name": "Approval",
			"type": "event"
		},
		{
			"anonymous": false,
			"inputs": [
				{
					"indexed": true,
					"internalType": "address",
					"name": "previousOwner",
					"type": "address"
				},
				{
					"indexed": true,
					"internalType": "address",
					"name": "newOwner",
					"type": "address"
				}
			],
			"name": "OwnershipTransferred",
			"type": "event"
		},
		{
			"anonymous": false,
			"inputs": [
				{
					"indexed": false,
					"internalType": "address",
					"name": "account",
					"type": "address"
				}
			],
			"name": "Paused",
			"type": "event"
		},
		{
			"anonymous": false,
			"inputs": [
				{
					"indexed": true,
					"internalType": "address",
					"name": "from",
					"type": "address"
				},
				{
					"indexed": true,
					"internalType": "address",
					"name": "to",
					"type": "address"
				},
				{
					"indexed": false,
					"internalType": "uint256",
					"name": "value",
					"type": "uint256"
				}
			],
			"name": "Transfer",
			"type": "event"
		},
		{
			"anonymous": false,
			"inputs": [
				{
					"indexed": false,
					"internalType": "address",
					"name": "account",
					"type": "address"
				}
			],
			"name": "Unpaused",
			"type": "event"
		},
		{
			"inputs": [
				{
					"internalType": "uint256",
					"name": "amountToBurn",
					"type": "uint256"
				}
			],
			"name": "BurnToken",
			"outputs": [],
			"stateMutability": "nonpayable",
			"type": "function"
		},
		{
			"inputs": [],
			"name": "PauseContract",
			"outputs": [],
			"stateMutability": "nonpayable",
			"type": "function"
		},
		{
			"inputs": [],
			"name": "UnpauseContract",
			"outputs": [],
			"stateMutability": "nonpayable",
			"type": "function"
		},
		{
			"inputs": [
				{
					"internalType": "address",
					"name": "owner",
					"type": "address"
				},
				{
					"internalType": "address",
					"name": "spender",
					"type": "address"
				}
			],
			"name": "allowance",
			"outputs": [
				{
					"internalType": "uint256",
					"name": "",
					"type": "uint256"
				}
			],
			"stateMutability": "view",
			"type": "function"
		},
		{
			"inputs": [
				{
					"internalType": "address",
					"name": "spender",
					"type": "address"
				},
				{
					"internalType": "uint256",
					"name": "amount",
					"type": "uint256"
				}
			],
			"name": "approve",
			"outputs": [
				{
					"internalType": "bool",
					"name": "",
					"type": "bool"
				}
			],
			"stateMutability": "nonpayable",
			"type": "function"
		},
		{
			"inputs": [
				{
					"internalType": "address",
					"name": "account",
					"type": "address"
				}
			],
			"name": "balanceOf",
			"outputs": [
				{
					"internalType": "uint256",
					"name": "",
					"type": "uint256"
				}
			],
			"stateMutability": "view",
			"type": "function"
		},
		{
			"inputs": [
				{
					"internalType": "uint256",
					"name": "amount",
					"type": "uint256"
				}
			],
			"name": "burn",
			"outputs": [],
			"stateMutability": "nonpayable",
			"type": "function"
		},
		{
			"inputs": [
				{
					"internalType": "address",
					"name": "account",
					"type": "address"
				},
				{
					"internalType": "uint256",
					"name": "amount",
					"type": "uint256"
				}
			],
			"name": "burnFrom",
			"outputs": [],
			"stateMutability": "nonpayable",
			"type": "function"
		},
		{
			"inputs": [],
			"name": "decimals",
			"outputs": [
				{
					"internalType": "uint8",
					"name": "",
					"type": "uint8"
				}
			],
			"stateMutability": "view",
			"type": "function"
		},
		{
			"inputs": [
				{
					"internalType": "address",
					"name": "spender",
					"type": "address"
				},
				{
					"internalType": "uint256",
					"name": "subtractedValue",
					"type": "uint256"
				}
			],
			"name": "decreaseAllowance",
			"outputs": [
				{
					"internalType": "bool",
					"name": "",
					"type": "bool"
				}
			],
			"stateMutability": "nonpayable",
			"type": "function"
		},
		{
			"inputs": [
				{
					"internalType": "address",
					"name": "spender",
					"type": "address"
				},
				{
					"internalType": "uint256",
					"name": "addedValue",
					"type": "uint256"
				}
			],
			"name": "increaseAllowance",
			"outputs": [
				{
					"internalType": "bool",
					"name": "",
					"type": "bool"
				}
			],
			"stateMutability": "nonpayable",
			"type": "function"
		},
		{
			"inputs": [],
			"name": "name",
			"outputs": [
				{
					"internalType": "string",
					"name": "",
					"type": "string"
				}
			],
			"stateMutability": "view",
			"type": "function"
		},
		{
			"inputs": [],
			"name": "owner",
			"outputs": [
				{
					"internalType": "address",
					"name": "",
					"type": "address"
				}
			],
			"stateMutability": "view",
			"type": "function"
		},
		{
			"inputs": [],
			"name": "paused",
			"outputs": [
				{
					"internalType": "bool",
					"name": "",
					"type": "bool"
				}
			],
			"stateMutability": "view",
			"type": "function"
		},
		{
			"inputs": [],
			"name": "renounceOwnership",
			"outputs": [],
			"stateMutability": "nonpayable",
			"type": "function"
		},
		{
			"inputs": [],
			"name": "symbol",
			"outputs": [
				{
					"internalType": "string",
					"name": "",
					"type": "string"
				}
			],
			"stateMutability": "view",
			"type": "function"
		},
		{
			"inputs": [],
			"name": "totalSupply",
			"outputs": [
				{
					"internalType": "uint256",
					"name": "",
					"type": "uint256"
				}
			],
			"stateMutability": "view",
			"type": "function"
		},
		{
			"inputs": [
				{
					"internalType": "address",
					"name": "to",
					"type": "address"
				},
				{
					"internalType": "uint256",
					"name": "amount",
					"type": "uint256"
				}
			],
			"name": "transfer",
			"outputs": [
				{
					"internalType": "bool",
					"name": "",
					"type": "bool"
				}
			],
			"stateMutability": "nonpayable",
			"type": "function"
		},
		{
			"inputs": [
				{
					"internalType": "address",
					"name": "from",
					"type": "address"
				},
				{
					"internalType": "address",
					"name": "to",
					"type": "address"
				},
				{
					"internalType": "uint256",
					"name": "amount",
					"type": "uint256"
				}
			],
			"name": "transferFrom",
			"outputs": [
				{
					"internalType": "bool",
					"name": "",
					"type": "bool"
				}
			],
			"stateMutability": "nonpayable",
			"type": "function"
		},
		{
			"inputs": [
				{
					"internalType": "address",
					"name": "newOwner",
					"type": "address"
				}
			],
			"name": "transferOwnership",
			"outputs": [],
			"stateMutability": "nonpayable",
			"type": "function"
		}
	]
}