{
  "_format": "hh-sol-artifact-1",
  "contractName": "PlatziFood",
  "sourceName": "contracts/PlatziFood.sol",
  "abi": [
    {
      "inputs": [],
      "stateMutability": "nonpayable",
      "type": "constructor"
    },
    {
      "inputs": [
        {
          "internalType": "string",
          "name": "foodUrl",
          "type": "string"
        },
        {
          "internalType": "string",
          "name": "foodName",
          "type": "string"
        },
        {
          "internalType": "string",
          "name": "originCountry",
          "type": "string"
        }
      ],
      "name": "addPlatziFood",
      "outputs": [],
      "stateMutability": "nonpayable",
      "type": "function"
    },
    {
      "inputs": [],
      "name": "getAllPlatziFoods",
      "outputs": [
        {
          "components": [
            {
              "internalType": "address",
              "name": "owner",
              "type": "address"
            },
            {
              "internalType": "string",
              "name": "foodUrl",
              "type": "string"
            },
            {
              "internalType": "string",
              "name": "foodName",
              "type": "string"
            },
            {
              "internalType": "string",
              "name": "originCountry",
              "type": "string"
            }
          ],
          "internalType": "struct PlatziFood.PlatziFoodItem[]",
          "name": "",
          "type": "tuple[]"
        }
      ],
      "stateMutability": "view",
      "type": "function"
    },
    {
      "inputs": [],
      "name": "getPlatziFoodsByOwner",
      "outputs": [
        {
          "components": [
            {
              "internalType": "address",
              "name": "owner",
              "type": "address"
            },
            {
              "internalType": "string",
              "name": "foodUrl",
              "type": "string"
            },
            {
              "internalType": "string",
              "name": "foodName",
              "type": "string"
            },
            {
              "internalType": "string",
              "name": "originCountry",
              "type": "string"
            }
          ],
          "internalType": "struct PlatziFood.PlatziFoodItem[]",
          "name": "",
          "type": "tuple[]"
        }
      ],
      "stateMutability": "view",
      "type": "function"
    }
  ],
  "bytecode": "0x608060405234801561001057600080fd5b50610ecf806100206000396000f3fe608060405234801561001057600080fd5b50600436106100415760003560e01c8063180c450f146100465780631e7c081314610062578063cb0d021814610080575b600080fd5b610060600480360381019061005b9190610a2b565b61009e565b005b61006a6101a5565b6040516100779190610c04565b60405180910390f35b610088610410565b6040516100959190610c04565b60405180910390f35b600060405180608001604052803373ffffffffffffffffffffffffffffffffffffffff16815260200185815260200184815260200183815250908060018154018082558091505060019003906000526020600020906004020160009091909190915060008201518160000160006101000a81548173ffffffffffffffffffffffffffffffffffffffff021916908373ffffffffffffffffffffffffffffffffffffffff16021790555060208201518160010190805190602001906101639291906108e2565b5060408201518160020190805190602001906101809291906108e2565b50606082015181600301908051906020019061019d9291906108e2565b505050505050565b60606000805480602002602001604051908101604052809291908181526020016000905b8282101561040757838290600052602060002090600402016040518060800160405290816000820160009054906101000a900473ffffffffffffffffffffffffffffffffffffffff1673ffffffffffffffffffffffffffffffffffffffff1673ffffffffffffffffffffffffffffffffffffffff16815260200160018201805461025290610d4f565b80601f016020809104026020016040519081016040528092919081815260200182805461027e90610d4f565b80156102cb5780601f106102a0576101008083540402835291602001916102cb565b820191906000526020600020905b8154815290600101906020018083116102ae57829003601f168201915b505050505081526020016002820180546102e490610d4f565b80601f016020809104026020016040519081016040528092919081815260200182805461031090610d4f565b801561035d5780601f106103325761010080835404028352916020019161035d565b820191906000526020600020905b81548152906001019060200180831161034057829003601f168201915b5050505050815260200160038201805461037690610d4f565b80601f01602080910402602001604051908101604052809291908181526020018280546103a290610d4f565b80156103ef5780601f106103c4576101008083540402835291602001916103ef565b820191906000526020600020905b8154815290600101906020018083116103d257829003601f168201915b505050505081525050815260200190600101906101c9565b50505050905090565b60606000805b6000805490508110156104e4573373ffffffffffffffffffffffffffffffffffffffff1660008281548110610474577f4e487b7100000000000000000000000000000000000000000000000000000000600052603260045260246000fd5b906000526020600020906004020160000160009054906101000a900473ffffffffffffffffffffffffffffffffffffffff1673ffffffffffffffffffffffffffffffffffffffff1614156104d15781806104cd90610db2565b9250505b80806104dc90610db2565b915050610416565b5060008167ffffffffffffffff811115610527577f4e487b7100000000000000000000000000000000000000000000000000000000600052604160045260246000fd5b60405190808252806020026020018201604052801561056057816020015b61054d610968565b8152602001906001900390816105455790505b5090506000805b6000805490508110156108d8573373ffffffffffffffffffffffffffffffffffffffff16600082815481106105c5577f4e487b7100000000000000000000000000000000000000000000000000000000600052603260045260246000fd5b906000526020600020906004020160000160009054906101000a900473ffffffffffffffffffffffffffffffffffffffff1673ffffffffffffffffffffffffffffffffffffffff1614156108c5576000818154811061064d577f4e487b7100000000000000000000000000000000000000000000000000000000600052603260045260246000fd5b90600052602060002090600402016040518060800160405290816000820160009054906101000a900473ffffffffffffffffffffffffffffffffffffffff1673ffffffffffffffffffffffffffffffffffffffff1673ffffffffffffffffffffffffffffffffffffffff1681526020016001820180546106cc90610d4f565b80601f01602080910402602001604051908101604052809291908181526020018280546106f890610d4f565b80156107455780601f1061071a57610100808354040283529160200191610745565b820191906000526020600020905b81548152906001019060200180831161072857829003601f168201915b5050505050815260200160028201805461075e90610d4f565b80601f016020809104026020016040519081016040528092919081815260200182805461078a90610d4f565b80156107d75780601f106107ac576101008083540402835291602001916107d7565b820191906000526020600020905b8154815290600101906020018083116107ba57829003601f168201915b505050505081526020016003820180546107f090610d4f565b80601f016020809104026020016040519081016040528092919081815260200182805461081c90610d4f565b80156108695780601f1061083e57610100808354040283529160200191610869565b820191906000526020600020905b81548152906001019060200180831161084c57829003601f168201915b5050505050815250508383815181106108ab577f4e487b7100000000000000000000000000000000000000000000000000000000600052603260045260246000fd5b602002602001018190525081806108c190610db2565b9250505b80806108d090610db2565b915050610567565b5081935050505090565b8280546108ee90610d4f565b90600052602060002090601f0160209004810192826109105760008555610957565b82601f1061092957805160ff1916838001178555610957565b82800160010185558215610957579182015b8281111561095657825182559160200191906001019061093b565b5b50905061096491906109a6565b5090565b6040518060800160405280600073ffffffffffffffffffffffffffffffffffffffff1681526020016060815260200160608152602001606081525090565b5b808211156109bf5760008160009055506001016109a7565b5090565b60006109d66109d184610c4b565b610c26565b9050828152602081018484840111156109ee57600080fd5b6109f9848285610d0d565b509392505050565b600082601f830112610a1257600080fd5b8135610a228482602086016109c3565b91505092915050565b600080600060608486031215610a4057600080fd5b600084013567ffffffffffffffff811115610a5a57600080fd5b610a6686828701610a01565b935050602084013567ffffffffffffffff811115610a8357600080fd5b610a8f86828701610a01565b925050604084013567ffffffffffffffff811115610aac57600080fd5b610ab886828701610a01565b9150509250925092565b6000610ace8383610b93565b905092915050565b610adf81610cd1565b82525050565b6000610af082610c8c565b610afa8185610caf565b935083602082028501610b0c85610c7c565b8060005b85811015610b485784840389528151610b298582610ac2565b9450610b3483610ca2565b925060208a01995050600181019050610b10565b50829750879550505050505092915050565b6000610b6582610c97565b610b6f8185610cc0565b9350610b7f818560208601610d1c565b610b8881610e88565b840191505092915050565b6000608083016000830151610bab6000860182610ad6565b5060208301518482036020860152610bc38282610b5a565b91505060408301518482036040860152610bdd8282610b5a565b91505060608301518482036060860152610bf78282610b5a565b9150508091505092915050565b60006020820190508181036000830152610c1e8184610ae5565b905092915050565b6000610c30610c41565b9050610c3c8282610d81565b919050565b6000604051905090565b600067ffffffffffffffff821115610c6657610c65610e59565b5b610c6f82610e88565b9050602081019050919050565b6000819050602082019050919050565b600081519050919050565b600081519050919050565b6000602082019050919050565b600082825260208201905092915050565b600082825260208201905092915050565b6000610cdc82610ce3565b9050919050565b600073ffffffffffffffffffffffffffffffffffffffff82169050919050565b6000819050919050565b82818337600083830152505050565b60005b83811015610d3a578082015181840152602081019050610d1f565b83811115610d49576000848401525b50505050565b60006002820490506001821680610d6757607f821691505b60208210811415610d7b57610d7a610e2a565b5b50919050565b610d8a82610e88565b810181811067ffffffffffffffff82111715610da957610da8610e59565b5b80604052505050565b6000610dbd82610d03565b91507fffffffffffffffffffffffffffffffffffffffffffffffffffffffffffffffff821415610df057610def610dfb565b5b600182019050919050565b7f4e487b7100000000000000000000000000000000000000000000000000000000600052601160045260246000fd5b7f4e487b7100000000000000000000000000000000000000000000000000000000600052602260045260246000fd5b7f4e487b7100000000000000000000000000000000000000000000000000000000600052604160045260246000fd5b6000601f19601f830116905091905056fea26469706673582212208758e0466cbcd043206fc1d453372b357218b7ae1db68b430bc2e1fb370d458b64736f6c63430008040033",
  "linkReferences": {},
  "deployedLinkReferences": {}
}