{
	"contracts/Openzeppelin/ControlAccesoReto.sol": {
		"ControlAccesoReto": {
			"abi": [
				{
					"anonymous": false,
					"inputs": [
						{
							"indexed": true,
							"internalType": "bytes32",
							"name": "role",
							"type": "bytes32"
						},
						{
							"indexed": true,
							"internalType": "bytes32",
							"name": "previousAdminRole",
							"type": "bytes32"
						},
						{
							"indexed": true,
							"internalType": "bytes32",
							"name": "newAdminRole",
							"type": "bytes32"
						}
					],
					"name": "RoleAdminChanged",
					"type": "event"
				},
				{
					"anonymous": false,
					"inputs": [
						{
							"indexed": true,
							"internalType": "bytes32",
							"name": "role",
							"type": "bytes32"
						},
						{
							"indexed": true,
							"internalType": "address",
							"name": "account",
							"type": "address"
						},
						{
							"indexed": true,
							"internalType": "address",
							"name": "sender",
							"type": "address"
						}
					],
					"name": "RoleGranted",
					"type": "event"
				},
				{
					"anonymous": false,
					"inputs": [
						{
							"indexed": true,
							"internalType": "bytes32",
							"name": "role",
							"type": "bytes32"
						},
						{
							"indexed": true,
							"internalType": "address",
							"name": "account",
							"type": "address"
						},
						{
							"indexed": true,
							"internalType": "address",
							"name": "sender",
							"type": "address"
						}
					],
					"name": "RoleRevoked",
					"type": "event"
				},
				{
					"inputs": [],
					"name": "DEFAULT_ADMIN_ROLE",
					"outputs": [
						{
							"internalType": "bytes32",
							"name": "",
							"type": "bytes32"
						}
					],
					"stateMutability": "view",
					"type": "function"
				},
				{
					"inputs": [],
					"name": "ROL_ADMIN",
					"outputs": [
						{
							"internalType": "bytes32",
							"name": "",
							"type": "bytes32"
						}
					],
					"stateMutability": "view",
					"type": "function"
				},
				{
					"inputs": [],
					"name": "ROL_WRITER",
					"outputs": [
						{
							"internalType": "bytes32",
							"name": "",
							"type": "bytes32"
						}
					],
					"stateMutability": "view",
					"type": "function"
				},
				{
					"inputs": [
						{
							"internalType": "address",
							"name": "cuenta",
							"type": "address"
						}
					],
					"name": "agregarWriter",
					"outputs": [],
					"stateMutability": "nonpayable",
					"type": "function"
				},
				{
					"inputs": [
						{
							"internalType": "bytes32",
							"name": "role",
							"type": "bytes32"
						}
					],
					"name": "getRoleAdmin",
					"outputs": [
						{
							"internalType": "bytes32",
							"name": "",
							"type": "bytes32"
						}
					],
					"stateMutability": "view",
					"type": "function"
				},
				{
					"inputs": [
						{
							"internalType": "bytes32",
							"name": "role",
							"type": "bytes32"
						},
						{
							"internalType": "address",
							"name": "account",
							"type": "address"
						}
					],
					"name": "grantRole",
					"outputs": [],
					"stateMutability": "nonpayable",
					"type": "function"
				},
				{
					"inputs": [
						{
							"internalType": "bytes32",
							"name": "role",
							"type": "bytes32"
						},
						{
							"internalType": "address",
							"name": "account",
							"type": "address"
						}
					],
					"name": "hasRole",
					"outputs": [
						{
							"internalType": "bool",
							"name": "",
							"type": "bool"
						}
					],
					"stateMutability": "view",
					"type": "function"
				},
				{
					"inputs": [
						{
							"internalType": "address",
							"name": "cuenta",
							"type": "address"
						}
					],
					"name": "quitarWriter",
					"outputs": [],
					"stateMutability": "nonpayable",
					"type": "function"
				},
				{
					"inputs": [
						{
							"internalType": "bytes32",
							"name": "role",
							"type": "bytes32"
						},
						{
							"internalType": "address",
							"name": "account",
							"type": "address"
						}
					],
					"name": "renounceRole",
					"outputs": [],
					"stateMutability": "nonpayable",
					"type": "function"
				},
				{
					"inputs": [],
					"name": "retrieve",
					"outputs": [
						{
							"internalType": "uint256",
							"name": "",
							"type": "uint256"
						}
					],
					"stateMutability": "view",
					"type": "function"
				},
				{
					"inputs": [
						{
							"internalType": "bytes32",
							"name": "role",
							"type": "bytes32"
						},
						{
							"internalType": "address",
							"name": "account",
							"type": "address"
						}
					],
					"name": "revokeRole",
					"outputs": [],
					"stateMutability": "nonpayable",
					"type": "function"
				},
				{
					"inputs": [
						{
							"internalType": "uint256",
							"name": "num",
							"type": "uint256"
						}
					],
					"name": "store",
					"outputs": [],
					"stateMutability": "nonpayable",
					"type": "function"
				},
				{
					"inputs": [
						{
							"internalType": "bytes4",
							"name": "interfaceId",
							"type": "bytes4"
						}
					],
					"name": "supportsInterface",
					"outputs": [
						{
							"internalType": "bool",
							"name": "",
							"type": "bool"
						}
					],
					"stateMutability": "view",
					"type": "function"
				}
			],
			"devdoc": {
				"custom:dev-run-script": "./scripts/deploy_with_ethers.ts",
				"details": "Store & retrieve value in a variable",
				"kind": "dev",
				"methods": {
					"getRoleAdmin(bytes32)": {
						"details": "Returns the admin role that controls `role`. See {grantRole} and {revokeRole}. To change a role's admin, use {_setRoleAdmin}."
					},
					"grantRole(bytes32,address)": {
						"details": "Grants `role` to `account`. If `account` had not been already granted `role`, emits a {RoleGranted} event. Requirements: - the caller must have ``role``'s admin role. May emit a {RoleGranted} event."
					},
					"hasRole(bytes32,address)": {
						"details": "Returns `true` if `account` has been granted `role`."
					},
					"renounceRole(bytes32,address)": {
						"details": "Revokes `role` from the calling account. Roles are often managed via {grantRole} and {revokeRole}: this function's purpose is to provide a mechanism for accounts to lose their privileges if they are compromised (such as when a trusted device is misplaced). If the calling account had been revoked `role`, emits a {RoleRevoked} event. Requirements: - the caller must be `account`. May emit a {RoleRevoked} event."
					},
					"retrieve()": {
						"details": "Return value ",
						"returns": {
							"_0": "value of 'number'"
						}
					},
					"revokeRole(bytes32,address)": {
						"details": "Revokes `role` from `account`. If `account` had been granted `role`, emits a {RoleRevoked} event. Requirements: - the caller must have ``role``'s admin role. May emit a {RoleRevoked} event."
					},
					"store(uint256)": {
						"details": "Store value in variable",
						"params": {
							"num": "value to store"
						}
					},
					"supportsInterface(bytes4)": {
						"details": "See {IERC165-supportsInterface}."
					}
				},
				"title": "Storage",
				"version": 1
			},
			"evm": {
				"assembly": "    /* \"contracts/Openzeppelin/ControlAccesoReto.sol\":270:1438  contract ControlAccesoReto is AccessControl{\r... */\n  mstore(0x40, 0x80)\n  callvalue\n  dup1\n  iszero\n  tag_1\n  jumpi\n  0x00\n  dup1\n  revert\ntag_1:\n  pop\n  dataSize(sub_0)\n  dup1\n  dataOffset(sub_0)\n  0x00\n  codecopy\n  0x00\n  return\nstop\n\nsub_0: assembly {\n        /* \"contracts/Openzeppelin/ControlAccesoReto.sol\":270:1438  contract ControlAccesoReto is AccessControl{\r... */\n      mstore(0x40, 0x80)\n      callvalue\n      dup1\n      iszero\n      tag_1\n      jumpi\n      0x00\n      dup1\n      revert\n    tag_1:\n      pop\n      jumpi(tag_2, lt(calldatasize, 0x04))\n      shr(0xe0, calldataload(0x00))\n      dup1\n      0x45d49420\n      gt\n      tag_16\n      jumpi\n      dup1\n      0x91d14854\n      gt\n      tag_17\n      jumpi\n      dup1\n      0x91d14854\n      eq\n      tag_12\n      jumpi\n      dup1\n      0xa217fddf\n      eq\n      tag_13\n      jumpi\n      dup1\n      0xadec03fc\n      eq\n      tag_14\n      jumpi\n      dup1\n      0xd547741f\n      eq\n      tag_15\n      jumpi\n      jump(tag_2)\n    tag_17:\n      dup1\n      0x45d49420\n      eq\n      tag_9\n      jumpi\n      dup1\n      0x4c2e19d0\n      eq\n      tag_10\n      jumpi\n      dup1\n      0x6057361d\n      eq\n      tag_11\n      jumpi\n      jump(tag_2)\n    tag_16:\n      dup1\n      0x01ffc9a7\n      eq\n      tag_3\n      jumpi\n      dup1\n      0x235ef56f\n      eq\n      tag_4\n      jumpi\n      dup1\n      0x248a9ca3\n      eq\n      tag_5\n      jumpi\n      dup1\n      0x2e64cec1\n      eq\n      tag_6\n      jumpi\n      dup1\n      0x2f2ff15d\n      eq\n      tag_7\n      jumpi\n      dup1\n      0x36568abe\n      eq\n      tag_8\n      jumpi\n    tag_2:\n      0x00\n      dup1\n      revert\n        /* \"@openzeppelin/contracts/access/AccessControl.sol\":2606:2808  function supportsInterface(bytes4 interfaceId) public view virtual override returns (bool) {... */\n    tag_3:\n      tag_18\n      0x04\n      dup1\n      calldatasize\n      sub\n      dup2\n      add\n      swap1\n      tag_19\n      swap2\n      swap1\n      tag_20\n      jump\t// in\n    tag_19:\n      tag_21\n      jump\t// in\n    tag_18:\n      mload(0x40)\n      tag_22\n      swap2\n      swap1\n      tag_23\n      jump\t// in\n    tag_22:\n      mload(0x40)\n      dup1\n      swap2\n      sub\n      swap1\n      return\n        /* \"contracts/Openzeppelin/ControlAccesoReto.sol\":885:984  function agregarWriter (address cuenta) public  {\r... */\n    tag_4:\n      tag_24\n      0x04\n      dup1\n      calldatasize\n      sub\n      dup2\n      add\n      swap1\n      tag_25\n      swap2\n      swap1\n      tag_26\n      jump\t// in\n    tag_25:\n      tag_27\n      jump\t// in\n    tag_24:\n      stop\n        /* \"@openzeppelin/contracts/access/AccessControl.sol\":4391:4520  function getRoleAdmin(bytes32 role) public view virtual override returns (bytes32) {... */\n    tag_5:\n      tag_28\n      0x04\n      dup1\n      calldatasize\n      sub\n      dup2\n      add\n      swap1\n      tag_29\n      swap2\n      swap1\n      tag_30\n      jump\t// in\n    tag_29:\n      tag_31\n      jump\t// in\n    tag_28:\n      mload(0x40)\n      tag_32\n      swap2\n      swap1\n      tag_33\n      jump\t// in\n    tag_32:\n      mload(0x40)\n      dup1\n      swap2\n      sub\n      swap1\n      return\n        /* \"contracts/Openzeppelin/ControlAccesoReto.sol\":1354:1435  function retrieve() public view returns (uint256){\r... */\n    tag_6:\n      tag_34\n      tag_35\n      jump\t// in\n    tag_34:\n      mload(0x40)\n      tag_36\n      swap2\n      swap1\n      tag_37\n      jump\t// in\n    tag_36:\n      mload(0x40)\n      dup1\n      swap2\n      sub\n      swap1\n      return\n        /* \"@openzeppelin/contracts/access/AccessControl.sol\":4816:4961  function grantRole(bytes32 role, address account) public virtual override onlyRole(getRoleAdmin(role)) {... */\n    tag_7:\n      tag_38\n      0x04\n      dup1\n      calldatasize\n      sub\n      dup2\n      add\n      swap1\n      tag_39\n      swap2\n      swap1\n      tag_40\n      jump\t// in\n    tag_39:\n      tag_41\n      jump\t// in\n    tag_38:\n      stop\n        /* \"@openzeppelin/contracts/access/AccessControl.sol\":5925:6139  function renounceRole(bytes32 role, address account) public virtual override {... */\n    tag_8:\n      tag_42\n      0x04\n      dup1\n      calldatasize\n      sub\n      dup2\n      add\n      swap1\n      tag_43\n      swap2\n      swap1\n      tag_40\n      jump\t// in\n    tag_43:\n      tag_44\n      jump\t// in\n    tag_42:\n      stop\n        /* \"contracts/Openzeppelin/ControlAccesoReto.sol\":452:512  bytes32 public constant ROL_WRITER = keccak256(\"ROL_WRITER\") */\n    tag_9:\n      tag_45\n      tag_46\n      jump\t// in\n    tag_45:\n      mload(0x40)\n      tag_47\n      swap2\n      swap1\n      tag_33\n      jump\t// in\n    tag_47:\n      mload(0x40)\n      dup1\n      swap2\n      sub\n      swap1\n      return\n        /* \"contracts/Openzeppelin/ControlAccesoReto.sol\":992:1091  function quitarWriter (address cuenta) public  {\r... */\n    tag_10:\n      tag_48\n      0x04\n      dup1\n      calldatasize\n      sub\n      dup2\n      add\n      swap1\n      tag_49\n      swap2\n      swap1\n      tag_26\n      jump\t// in\n    tag_49:\n      tag_50\n      jump\t// in\n    tag_48:\n      stop\n        /* \"contracts/Openzeppelin/ControlAccesoReto.sol\":1190:1265  function store(uint256 num) isWriter public {\r... */\n    tag_11:\n      tag_51\n      0x04\n      dup1\n      calldatasize\n      sub\n      dup2\n      add\n      swap1\n      tag_52\n      swap2\n      swap1\n      tag_53\n      jump\t// in\n    tag_52:\n      tag_54\n      jump\t// in\n    tag_51:\n      stop\n        /* \"@openzeppelin/contracts/access/AccessControl.sol\":2895:3040  function hasRole(bytes32 role, address account) public view virtual override returns (bool) {... */\n    tag_12:\n      tag_55\n      0x04\n      dup1\n      calldatasize\n      sub\n      dup2\n      add\n      swap1\n      tag_56\n      swap2\n      swap1\n      tag_40\n      jump\t// in\n    tag_56:\n      tag_57\n      jump\t// in\n    tag_55:\n      mload(0x40)\n      tag_58\n      swap2\n      swap1\n      tag_23\n      jump\t// in\n    tag_58:\n      mload(0x40)\n      dup1\n      swap2\n      sub\n      swap1\n      return\n        /* \"@openzeppelin/contracts/access/AccessControl.sol\":2027:2076  bytes32 public constant DEFAULT_ADMIN_ROLE = 0x00 */\n    tag_13:\n      tag_59\n      tag_60\n      jump\t// in\n    tag_59:\n      mload(0x40)\n      tag_61\n      swap2\n      swap1\n      tag_33\n      jump\t// in\n    tag_61:\n      mload(0x40)\n      dup1\n      swap2\n      sub\n      swap1\n      return\n        /* \"contracts/Openzeppelin/ControlAccesoReto.sol\":387:445  bytes32 public constant ROL_ADMIN = keccak256(\"ROL_ADMIN\") */\n    tag_14:\n      tag_62\n      tag_63\n      jump\t// in\n    tag_62:\n      mload(0x40)\n      tag_64\n      swap2\n      swap1\n      tag_33\n      jump\t// in\n    tag_64:\n      mload(0x40)\n      dup1\n      swap2\n      sub\n      swap1\n      return\n        /* \"@openzeppelin/contracts/access/AccessControl.sol\":5241:5388  function revokeRole(bytes32 role, address account) public virtual override onlyRole(getRoleAdmin(role)) {... */\n    tag_15:\n      tag_65\n      0x04\n      dup1\n      calldatasize\n      sub\n      dup2\n      add\n      swap1\n      tag_66\n      swap2\n      swap1\n      tag_40\n      jump\t// in\n    tag_66:\n      tag_67\n      jump\t// in\n    tag_65:\n      stop\n        /* \"@openzeppelin/contracts/access/AccessControl.sol\":2606:2808  function supportsInterface(bytes4 interfaceId) public view virtual override returns (bool) {... */\n    tag_21:\n        /* \"@openzeppelin/contracts/access/AccessControl.sol\":2691:2695  bool */\n      0x00\n        /* \"@openzeppelin/contracts/access/AccessControl.sol\":2729:2761  type(IAccessControl).interfaceId */\n      0x7965db0b00000000000000000000000000000000000000000000000000000000\n        /* \"@openzeppelin/contracts/access/AccessControl.sol\":2714:2761  interfaceId == type(IAccessControl).interfaceId */\n      not(0xffffffffffffffffffffffffffffffffffffffffffffffffffffffff)\n      and\n        /* \"@openzeppelin/contracts/access/AccessControl.sol\":2714:2725  interfaceId */\n      dup3\n        /* \"@openzeppelin/contracts/access/AccessControl.sol\":2714:2761  interfaceId == type(IAccessControl).interfaceId */\n      not(0xffffffffffffffffffffffffffffffffffffffffffffffffffffffff)\n      and\n      eq\n        /* \"@openzeppelin/contracts/access/AccessControl.sol\":2714:2801  interfaceId == type(IAccessControl).interfaceId || super.supportsInterface(interfaceId) */\n      dup1\n      tag_69\n      jumpi\n      pop\n        /* \"@openzeppelin/contracts/access/AccessControl.sol\":2765:2801  super.supportsInterface(interfaceId) */\n      tag_70\n        /* \"@openzeppelin/contracts/access/AccessControl.sol\":2789:2800  interfaceId */\n      dup3\n        /* \"@openzeppelin/contracts/access/AccessControl.sol\":2765:2788  super.supportsInterface */\n      tag_71\n        /* \"@openzeppelin/contracts/access/AccessControl.sol\":2765:2801  super.supportsInterface(interfaceId) */\n      jump\t// in\n    tag_70:\n        /* \"@openzeppelin/contracts/access/AccessControl.sol\":2714:2801  interfaceId == type(IAccessControl).interfaceId || super.supportsInterface(interfaceId) */\n    tag_69:\n        /* \"@openzeppelin/contracts/access/AccessControl.sol\":2707:2801  return interfaceId == type(IAccessControl).interfaceId || super.supportsInterface(interfaceId) */\n      swap1\n      pop\n        /* \"@openzeppelin/contracts/access/AccessControl.sol\":2606:2808  function supportsInterface(bytes4 interfaceId) public view virtual override returns (bool) {... */\n      swap2\n      swap1\n      pop\n      jump\t// out\n        /* \"contracts/Openzeppelin/ControlAccesoReto.sol\":885:984  function agregarWriter (address cuenta) public  {\r... */\n    tag_27:\n        /* \"contracts/Openzeppelin/ControlAccesoReto.sol\":944:974  _grantRole(ROL_WRITER, cuenta) */\n      tag_73\n        /* \"contracts/Openzeppelin/ControlAccesoReto.sol\":489:512  keccak256(\"ROL_WRITER\") */\n      0x3bd382f411bca881c98196b18edce31a82cf3847dab18082dd90c13022f62dfb\n        /* \"contracts/Openzeppelin/ControlAccesoReto.sol\":967:973  cuenta */\n      dup3\n        /* \"contracts/Openzeppelin/ControlAccesoReto.sol\":944:954  _grantRole */\n      tag_74\n        /* \"contracts/Openzeppelin/ControlAccesoReto.sol\":944:974  _grantRole(ROL_WRITER, cuenta) */\n      jump\t// in\n    tag_73:\n        /* \"contracts/Openzeppelin/ControlAccesoReto.sol\":885:984  function agregarWriter (address cuenta) public  {\r... */\n      pop\n      jump\t// out\n        /* \"@openzeppelin/contracts/access/AccessControl.sol\":4391:4520  function getRoleAdmin(bytes32 role) public view virtual override returns (bytes32) {... */\n    tag_31:\n        /* \"@openzeppelin/contracts/access/AccessControl.sol\":4465:4472  bytes32 */\n      0x00\n        /* \"@openzeppelin/contracts/access/AccessControl.sol\":4491:4497  _roles */\n      dup1\n        /* \"@openzeppelin/contracts/access/AccessControl.sol\":4491:4503  _roles[role] */\n      0x00\n        /* \"@openzeppelin/contracts/access/AccessControl.sol\":4498:4502  role */\n      dup4\n        /* \"@openzeppelin/contracts/access/AccessControl.sol\":4491:4503  _roles[role] */\n      dup2\n      mstore\n      0x20\n      add\n      swap1\n      dup2\n      mstore\n      0x20\n      add\n      0x00\n      keccak256\n        /* \"@openzeppelin/contracts/access/AccessControl.sol\":4491:4513  _roles[role].adminRole */\n      0x01\n      add\n      sload\n        /* \"@openzeppelin/contracts/access/AccessControl.sol\":4484:4513  return _roles[role].adminRole */\n      swap1\n      pop\n        /* \"@openzeppelin/contracts/access/AccessControl.sol\":4391:4520  function getRoleAdmin(bytes32 role) public view virtual override returns (bytes32) {... */\n      swap2\n      swap1\n      pop\n      jump\t// out\n        /* \"contracts/Openzeppelin/ControlAccesoReto.sol\":1354:1435  function retrieve() public view returns (uint256){\r... */\n    tag_35:\n        /* \"contracts/Openzeppelin/ControlAccesoReto.sol\":1395:1402  uint256 */\n      0x00\n        /* \"contracts/Openzeppelin/ControlAccesoReto.sol\":1421:1427  number */\n      sload(0x01)\n        /* \"contracts/Openzeppelin/ControlAccesoReto.sol\":1414:1427  return number */\n      swap1\n      pop\n        /* \"contracts/Openzeppelin/ControlAccesoReto.sol\":1354:1435  function retrieve() public view returns (uint256){\r... */\n      swap1\n      jump\t// out\n        /* \"@openzeppelin/contracts/access/AccessControl.sol\":4816:4961  function grantRole(bytes32 role, address account) public virtual override onlyRole(getRoleAdmin(role)) {... */\n    tag_41:\n        /* \"@openzeppelin/contracts/access/AccessControl.sol\":4899:4917  getRoleAdmin(role) */\n      tag_77\n        /* \"@openzeppelin/contracts/access/AccessControl.sol\":4912:4916  role */\n      dup3\n        /* \"@openzeppelin/contracts/access/AccessControl.sol\":4899:4911  getRoleAdmin */\n      tag_31\n        /* \"@openzeppelin/contracts/access/AccessControl.sol\":4899:4917  getRoleAdmin(role) */\n      jump\t// in\n    tag_77:\n        /* \"@openzeppelin/contracts/access/AccessControl.sol\":2505:2521  _checkRole(role) */\n      tag_79\n        /* \"@openzeppelin/contracts/access/AccessControl.sol\":2516:2520  role */\n      dup2\n        /* \"@openzeppelin/contracts/access/AccessControl.sol\":2505:2515  _checkRole */\n      tag_80\n        /* \"@openzeppelin/contracts/access/AccessControl.sol\":2505:2521  _checkRole(role) */\n      jump\t// in\n    tag_79:\n        /* \"@openzeppelin/contracts/access/AccessControl.sol\":4929:4954  _grantRole(role, account) */\n      tag_82\n        /* \"@openzeppelin/contracts/access/AccessControl.sol\":4940:4944  role */\n      dup4\n        /* \"@openzeppelin/contracts/access/AccessControl.sol\":4946:4953  account */\n      dup4\n        /* \"@openzeppelin/contracts/access/AccessControl.sol\":4929:4939  _grantRole */\n      tag_74\n        /* \"@openzeppelin/contracts/access/AccessControl.sol\":4929:4954  _grantRole(role, account) */\n      jump\t// in\n    tag_82:\n        /* \"@openzeppelin/contracts/access/AccessControl.sol\":4816:4961  function grantRole(bytes32 role, address account) public virtual override onlyRole(getRoleAdmin(role)) {... */\n      pop\n      pop\n      pop\n      jump\t// out\n        /* \"@openzeppelin/contracts/access/AccessControl.sol\":5925:6139  function renounceRole(bytes32 role, address account) public virtual override {... */\n    tag_44:\n        /* \"@openzeppelin/contracts/access/AccessControl.sol\":6031:6043  _msgSender() */\n      tag_84\n        /* \"@openzeppelin/contracts/access/AccessControl.sol\":6031:6041  _msgSender */\n      tag_85\n        /* \"@openzeppelin/contracts/access/AccessControl.sol\":6031:6043  _msgSender() */\n      jump\t// in\n    tag_84:\n        /* \"@openzeppelin/contracts/access/AccessControl.sol\":6020:6043  account == _msgSender() */\n      0xffffffffffffffffffffffffffffffffffffffff\n      and\n        /* \"@openzeppelin/contracts/access/AccessControl.sol\":6020:6027  account */\n      dup2\n        /* \"@openzeppelin/contracts/access/AccessControl.sol\":6020:6043  account == _msgSender() */\n      0xffffffffffffffffffffffffffffffffffffffff\n      and\n      eq\n        /* \"@openzeppelin/contracts/access/AccessControl.sol\":6012:6095  require(account == _msgSender(), \"AccessControl: can only renounce roles for self\") */\n      tag_86\n      jumpi\n      mload(0x40)\n      0x08c379a000000000000000000000000000000000000000000000000000000000\n      dup2\n      mstore\n      0x04\n      add\n      tag_87\n      swap1\n      tag_88\n      jump\t// in\n    tag_87:\n      mload(0x40)\n      dup1\n      swap2\n      sub\n      swap1\n      revert\n    tag_86:\n        /* \"@openzeppelin/contracts/access/AccessControl.sol\":6106:6132  _revokeRole(role, account) */\n      tag_89\n        /* \"@openzeppelin/contracts/access/AccessControl.sol\":6118:6122  role */\n      dup3\n        /* \"@openzeppelin/contracts/access/AccessControl.sol\":6124:6131  account */\n      dup3\n        /* \"@openzeppelin/contracts/access/AccessControl.sol\":6106:6117  _revokeRole */\n      tag_90\n        /* \"@openzeppelin/contracts/access/AccessControl.sol\":6106:6132  _revokeRole(role, account) */\n      jump\t// in\n    tag_89:\n        /* \"@openzeppelin/contracts/access/AccessControl.sol\":5925:6139  function renounceRole(bytes32 role, address account) public virtual override {... */\n      pop\n      pop\n      jump\t// out\n        /* \"contracts/Openzeppelin/ControlAccesoReto.sol\":452:512  bytes32 public constant ROL_WRITER = keccak256(\"ROL_WRITER\") */\n    tag_46:\n        /* \"contracts/Openzeppelin/ControlAccesoReto.sol\":489:512  keccak256(\"ROL_WRITER\") */\n      0x3bd382f411bca881c98196b18edce31a82cf3847dab18082dd90c13022f62dfb\n        /* \"contracts/Openzeppelin/ControlAccesoReto.sol\":452:512  bytes32 public constant ROL_WRITER = keccak256(\"ROL_WRITER\") */\n      dup2\n      jump\t// out\n        /* \"contracts/Openzeppelin/ControlAccesoReto.sol\":992:1091  function quitarWriter (address cuenta) public  {\r... */\n    tag_50:\n        /* \"contracts/Openzeppelin/ControlAccesoReto.sol\":1050:1081  _revokeRole(ROL_WRITER, cuenta) */\n      tag_92\n        /* \"contracts/Openzeppelin/ControlAccesoReto.sol\":489:512  keccak256(\"ROL_WRITER\") */\n      0x3bd382f411bca881c98196b18edce31a82cf3847dab18082dd90c13022f62dfb\n        /* \"contracts/Openzeppelin/ControlAccesoReto.sol\":1074:1080  cuenta */\n      dup3\n        /* \"contracts/Openzeppelin/ControlAccesoReto.sol\":1050:1061  _revokeRole */\n      tag_90\n        /* \"contracts/Openzeppelin/ControlAccesoReto.sol\":1050:1081  _revokeRole(ROL_WRITER, cuenta) */\n      jump\t// in\n    tag_92:\n        /* \"contracts/Openzeppelin/ControlAccesoReto.sol\":992:1091  function quitarWriter (address cuenta) public  {\r... */\n      pop\n      jump\t// out\n        /* \"contracts/Openzeppelin/ControlAccesoReto.sol\":1190:1265  function store(uint256 num) isWriter public {\r... */\n    tag_54:\n        /* \"contracts/Openzeppelin/ControlAccesoReto.sol\":563:594  hasRole(ROL_WRITER, msg.sender) */\n      tag_94\n        /* \"contracts/Openzeppelin/ControlAccesoReto.sol\":489:512  keccak256(\"ROL_WRITER\") */\n      0x3bd382f411bca881c98196b18edce31a82cf3847dab18082dd90c13022f62dfb\n        /* \"contracts/Openzeppelin/ControlAccesoReto.sol\":583:593  msg.sender */\n      caller\n        /* \"contracts/Openzeppelin/ControlAccesoReto.sol\":563:570  hasRole */\n      tag_57\n        /* \"contracts/Openzeppelin/ControlAccesoReto.sol\":563:594  hasRole(ROL_WRITER, msg.sender) */\n      jump\t// in\n    tag_94:\n        /* \"contracts/Openzeppelin/ControlAccesoReto.sol\":555:665  require(hasRole(ROL_WRITER, msg.sender), \"El usuario no tiene el rol WRITER para ejecutar la funcion Storage\") */\n      tag_95\n      jumpi\n      mload(0x40)\n      0x08c379a000000000000000000000000000000000000000000000000000000000\n      dup2\n      mstore\n      0x04\n      add\n      tag_96\n      swap1\n      tag_97\n      jump\t// in\n    tag_96:\n      mload(0x40)\n      dup1\n      swap2\n      sub\n      swap1\n      revert\n    tag_95:\n        /* \"contracts/Openzeppelin/ControlAccesoReto.sol\":1254:1257  num */\n      dup1\n        /* \"contracts/Openzeppelin/ControlAccesoReto.sol\":1245:1251  number */\n      0x01\n        /* \"contracts/Openzeppelin/ControlAccesoReto.sol\":1245:1257  number = num */\n      dup2\n      swap1\n      sstore\n      pop\n        /* \"contracts/Openzeppelin/ControlAccesoReto.sol\":1190:1265  function store(uint256 num) isWriter public {\r... */\n      pop\n      jump\t// out\n        /* \"@openzeppelin/contracts/access/AccessControl.sol\":2895:3040  function hasRole(bytes32 role, address account) public view virtual override returns (bool) {... */\n    tag_57:\n        /* \"@openzeppelin/contracts/access/AccessControl.sol\":2981:2985  bool */\n      0x00\n        /* \"@openzeppelin/contracts/access/AccessControl.sol\":3004:3010  _roles */\n      dup1\n        /* \"@openzeppelin/contracts/access/AccessControl.sol\":3004:3016  _roles[role] */\n      0x00\n        /* \"@openzeppelin/contracts/access/AccessControl.sol\":3011:3015  role */\n      dup5\n        /* \"@openzeppelin/contracts/access/AccessControl.sol\":3004:3016  _roles[role] */\n      dup2\n      mstore\n      0x20\n      add\n      swap1\n      dup2\n      mstore\n      0x20\n      add\n      0x00\n      keccak256\n        /* \"@openzeppelin/contracts/access/AccessControl.sol\":3004:3024  _roles[role].members */\n      0x00\n      add\n        /* \"@openzeppelin/contracts/access/AccessControl.sol\":3004:3033  _roles[role].members[account] */\n      0x00\n        /* \"@openzeppelin/contracts/access/AccessControl.sol\":3025:3032  account */\n      dup4\n        /* \"@openzeppelin/contracts/access/AccessControl.sol\":3004:3033  _roles[role].members[account] */\n      0xffffffffffffffffffffffffffffffffffffffff\n      and\n      0xffffffffffffffffffffffffffffffffffffffff\n      and\n      dup2\n      mstore\n      0x20\n      add\n      swap1\n      dup2\n      mstore\n      0x20\n      add\n      0x00\n      keccak256\n      0x00\n      swap1\n      sload\n      swap1\n      0x0100\n      exp\n      swap1\n      div\n      0xff\n      and\n        /* \"@openzeppelin/contracts/access/AccessControl.sol\":2997:3033  return _roles[role].members[account] */\n      swap1\n      pop\n        /* \"@openzeppelin/contracts/access/AccessControl.sol\":2895:3040  function hasRole(bytes32 role, address account) public view virtual override returns (bool) {... */\n      swap3\n      swap2\n      pop\n      pop\n      jump\t// out\n        /* \"@openzeppelin/contracts/access/AccessControl.sol\":2027:2076  bytes32 public constant DEFAULT_ADMIN_ROLE = 0x00 */\n    tag_60:\n        /* \"@openzeppelin/contracts/access/AccessControl.sol\":2072:2076  0x00 */\n      0x00\n        /* \"@openzeppelin/contracts/access/AccessControl.sol\":2027:2076  bytes32 public constant DEFAULT_ADMIN_ROLE = 0x00 */\n      dup1\n      shl\n      dup2\n      jump\t// out\n        /* \"contracts/Openzeppelin/ControlAccesoReto.sol\":387:445  bytes32 public constant ROL_ADMIN = keccak256(\"ROL_ADMIN\") */\n    tag_63:\n        /* \"contracts/Openzeppelin/ControlAccesoReto.sol\":423:445  keccak256(\"ROL_ADMIN\") */\n      0x7e5b835f8ef15bb117d49cb6d0658113bc08d41d8a6edf12d3d1feb5c5875330\n        /* \"contracts/Openzeppelin/ControlAccesoReto.sol\":387:445  bytes32 public constant ROL_ADMIN = keccak256(\"ROL_ADMIN\") */\n      dup2\n      jump\t// out\n        /* \"@openzeppelin/contracts/access/AccessControl.sol\":5241:5388  function revokeRole(bytes32 role, address account) public virtual override onlyRole(getRoleAdmin(role)) {... */\n    tag_67:\n        /* \"@openzeppelin/contracts/access/AccessControl.sol\":5325:5343  getRoleAdmin(role) */\n      tag_100\n        /* \"@openzeppelin/contracts/access/AccessControl.sol\":5338:5342  role */\n      dup3\n        /* \"@openzeppelin/contracts/access/AccessControl.sol\":5325:5337  getRoleAdmin */\n      tag_31\n        /* \"@openzeppelin/contracts/access/AccessControl.sol\":5325:5343  getRoleAdmin(role) */\n      jump\t// in\n    tag_100:\n        /* \"@openzeppelin/contracts/access/AccessControl.sol\":2505:2521  _checkRole(role) */\n      tag_102\n        /* \"@openzeppelin/contracts/access/AccessControl.sol\":2516:2520  role */\n      dup2\n        /* \"@openzeppelin/contracts/access/AccessControl.sol\":2505:2515  _checkRole */\n      tag_80\n        /* \"@openzeppelin/contracts/access/AccessControl.sol\":2505:2521  _checkRole(role) */\n      jump\t// in\n    tag_102:\n        /* \"@openzeppelin/contracts/access/AccessControl.sol\":5355:5381  _revokeRole(role, account) */\n      tag_104\n        /* \"@openzeppelin/contracts/access/AccessControl.sol\":5367:5371  role */\n      dup4\n        /* \"@openzeppelin/contracts/access/AccessControl.sol\":5373:5380  account */\n      dup4\n        /* \"@openzeppelin/contracts/access/AccessControl.sol\":5355:5366  _revokeRole */\n      tag_90\n        /* \"@openzeppelin/contracts/access/AccessControl.sol\":5355:5381  _revokeRole(role, account) */\n      jump\t// in\n    tag_104:\n        /* \"@openzeppelin/contracts/access/AccessControl.sol\":5241:5388  function revokeRole(bytes32 role, address account) public virtual override onlyRole(getRoleAdmin(role)) {... */\n      pop\n      pop\n      pop\n      jump\t// out\n        /* \"@openzeppelin/contracts/utils/introspection/ERC165.sol\":829:984  function supportsInterface(bytes4 interfaceId) public view virtual override returns (bool) {... */\n    tag_71:\n        /* \"@openzeppelin/contracts/utils/introspection/ERC165.sol\":914:918  bool */\n      0x00\n        /* \"@openzeppelin/contracts/utils/introspection/ERC165.sol\":952:977  type(IERC165).interfaceId */\n      0x01ffc9a700000000000000000000000000000000000000000000000000000000\n        /* \"@openzeppelin/contracts/utils/introspection/ERC165.sol\":937:977  interfaceId == type(IERC165).interfaceId */\n      not(0xffffffffffffffffffffffffffffffffffffffffffffffffffffffff)\n      and\n        /* \"@openzeppelin/contracts/utils/introspection/ERC165.sol\":937:948  interfaceId */\n      dup3\n        /* \"@openzeppelin/contracts/utils/introspection/ERC165.sol\":937:977  interfaceId == type(IERC165).interfaceId */\n      not(0xffffffffffffffffffffffffffffffffffffffffffffffffffffffff)\n      and\n      eq\n        /* \"@openzeppelin/contracts/utils/introspection/ERC165.sol\":930:977  return interfaceId == type(IERC165).interfaceId */\n      swap1\n      pop\n        /* \"@openzeppelin/contracts/utils/introspection/ERC165.sol\":829:984  function supportsInterface(bytes4 interfaceId) public view virtual override returns (bool) {... */\n      swap2\n      swap1\n      pop\n      jump\t// out\n        /* \"@openzeppelin/contracts/access/AccessControl.sol\":7474:7707  function _grantRole(bytes32 role, address account) internal virtual {... */\n    tag_74:\n        /* \"@openzeppelin/contracts/access/AccessControl.sol\":7557:7579  hasRole(role, account) */\n      tag_107\n        /* \"@openzeppelin/contracts/access/AccessControl.sol\":7565:7569  role */\n      dup3\n        /* \"@openzeppelin/contracts/access/AccessControl.sol\":7571:7578  account */\n      dup3\n        /* \"@openzeppelin/contracts/access/AccessControl.sol\":7557:7564  hasRole */\n      tag_57\n        /* \"@openzeppelin/contracts/access/AccessControl.sol\":7557:7579  hasRole(role, account) */\n      jump\t// in\n    tag_107:\n        /* \"@openzeppelin/contracts/access/AccessControl.sol\":7552:7701  if (!hasRole(role, account)) {... */\n      tag_108\n      jumpi\n        /* \"@openzeppelin/contracts/access/AccessControl.sol\":7627:7631  true */\n      0x01\n        /* \"@openzeppelin/contracts/access/AccessControl.sol\":7595:7601  _roles */\n      0x00\n        /* \"@openzeppelin/contracts/access/AccessControl.sol\":7595:7607  _roles[role] */\n      dup1\n        /* \"@openzeppelin/contracts/access/AccessControl.sol\":7602:7606  role */\n      dup5\n        /* \"@openzeppelin/contracts/access/AccessControl.sol\":7595:7607  _roles[role] */\n      dup2\n      mstore\n      0x20\n      add\n      swap1\n      dup2\n      mstore\n      0x20\n      add\n      0x00\n      keccak256\n        /* \"@openzeppelin/contracts/access/AccessControl.sol\":7595:7615  _roles[role].members */\n      0x00\n      add\n        /* \"@openzeppelin/contracts/access/AccessControl.sol\":7595:7624  _roles[role].members[account] */\n      0x00\n        /* \"@openzeppelin/contracts/access/AccessControl.sol\":7616:7623  account */\n      dup4\n        /* \"@openzeppelin/contracts/access/AccessControl.sol\":7595:7624  _roles[role].members[account] */\n      0xffffffffffffffffffffffffffffffffffffffff\n      and\n      0xffffffffffffffffffffffffffffffffffffffff\n      and\n      dup2\n      mstore\n      0x20\n      add\n      swap1\n      dup2\n      mstore\n      0x20\n      add\n      0x00\n      keccak256\n      0x00\n        /* \"@openzeppelin/contracts/access/AccessControl.sol\":7595:7631  _roles[role].members[account] = true */\n      0x0100\n      exp\n      dup2\n      sload\n      dup2\n      0xff\n      mul\n      not\n      and\n      swap1\n      dup4\n      iszero\n      iszero\n      mul\n      or\n      swap1\n      sstore\n      pop\n        /* \"@openzeppelin/contracts/access/AccessControl.sol\":7677:7689  _msgSender() */\n      tag_109\n        /* \"@openzeppelin/contracts/access/AccessControl.sol\":7677:7687  _msgSender */\n      tag_85\n        /* \"@openzeppelin/contracts/access/AccessControl.sol\":7677:7689  _msgSender() */\n      jump\t// in\n    tag_109:\n        /* \"@openzeppelin/contracts/access/AccessControl.sol\":7650:7690  RoleGranted(role, account, _msgSender()) */\n      0xffffffffffffffffffffffffffffffffffffffff\n      and\n        /* \"@openzeppelin/contracts/access/AccessControl.sol\":7668:7675  account */\n      dup2\n        /* \"@openzeppelin/contracts/access/AccessControl.sol\":7650:7690  RoleGranted(role, account, _msgSender()) */\n      0xffffffffffffffffffffffffffffffffffffffff\n      and\n        /* \"@openzeppelin/contracts/access/AccessControl.sol\":7662:7666  role */\n      dup4\n        /* \"@openzeppelin/contracts/access/AccessControl.sol\":7650:7690  RoleGranted(role, account, _msgSender()) */\n      0x2f8788117e7eff1d82e926ec794901d17c78024a50270940304540a733656f0d\n      mload(0x40)\n      mload(0x40)\n      dup1\n      swap2\n      sub\n      swap1\n      log4\n        /* \"@openzeppelin/contracts/access/AccessControl.sol\":7552:7701  if (!hasRole(role, account)) {... */\n    tag_108:\n        /* \"@openzeppelin/contracts/access/AccessControl.sol\":7474:7707  function _grantRole(bytes32 role, address account) internal virtual {... */\n      pop\n      pop\n      jump\t// out\n        /* \"@openzeppelin/contracts/access/AccessControl.sol\":3334:3437  function _checkRole(bytes32 role) internal view virtual {... */\n    tag_80:\n        /* \"@openzeppelin/contracts/access/AccessControl.sol\":3400:3430  _checkRole(role, _msgSender()) */\n      tag_111\n        /* \"@openzeppelin/contracts/access/AccessControl.sol\":3411:3415  role */\n      dup2\n        /* \"@openzeppelin/contracts/access/AccessControl.sol\":3417:3429  _msgSender() */\n      tag_112\n        /* \"@openzeppelin/contracts/access/AccessControl.sol\":3417:3427  _msgSender */\n      tag_85\n        /* \"@openzeppelin/contracts/access/AccessControl.sol\":3417:3429  _msgSender() */\n      jump\t// in\n    tag_112:\n        /* \"@openzeppelin/contracts/access/AccessControl.sol\":3400:3410  _checkRole */\n      tag_113\n        /* \"@openzeppelin/contracts/access/AccessControl.sol\":3400:3430  _checkRole(role, _msgSender()) */\n      jump\t// in\n    tag_111:\n        /* \"@openzeppelin/contracts/access/AccessControl.sol\":3334:3437  function _checkRole(bytes32 role) internal view virtual {... */\n      pop\n      jump\t// out\n        /* \"@openzeppelin/contracts/utils/Context.sol\":640:736  function _msgSender() internal view virtual returns (address) {... */\n    tag_85:\n        /* \"@openzeppelin/contracts/utils/Context.sol\":693:700  address */\n      0x00\n        /* \"@openzeppelin/contracts/utils/Context.sol\":719:729  msg.sender */\n      caller\n        /* \"@openzeppelin/contracts/utils/Context.sol\":712:729  return msg.sender */\n      swap1\n      pop\n        /* \"@openzeppelin/contracts/utils/Context.sol\":640:736  function _msgSender() internal view virtual returns (address) {... */\n      swap1\n      jump\t// out\n        /* \"@openzeppelin/contracts/access/AccessControl.sol\":7878:8112  function _revokeRole(bytes32 role, address account) internal virtual {... */\n    tag_90:\n        /* \"@openzeppelin/contracts/access/AccessControl.sol\":7961:7983  hasRole(role, account) */\n      tag_116\n        /* \"@openzeppelin/contracts/access/AccessControl.sol\":7969:7973  role */\n      dup3\n        /* \"@openzeppelin/contracts/access/AccessControl.sol\":7975:7982  account */\n      dup3\n        /* \"@openzeppelin/contracts/access/AccessControl.sol\":7961:7968  hasRole */\n      tag_57\n        /* \"@openzeppelin/contracts/access/AccessControl.sol\":7961:7983  hasRole(role, account) */\n      jump\t// in\n    tag_116:\n        /* \"@openzeppelin/contracts/access/AccessControl.sol\":7957:8106  if (hasRole(role, account)) {... */\n      iszero\n      tag_117\n      jumpi\n        /* \"@openzeppelin/contracts/access/AccessControl.sol\":8031:8036  false */\n      0x00\n        /* \"@openzeppelin/contracts/access/AccessControl.sol\":7999:8005  _roles */\n      dup1\n        /* \"@openzeppelin/contracts/access/AccessControl.sol\":7999:8011  _roles[role] */\n      0x00\n        /* \"@openzeppelin/contracts/access/AccessControl.sol\":8006:8010  role */\n      dup5\n        /* \"@openzeppelin/contracts/access/AccessControl.sol\":7999:8011  _roles[role] */\n      dup2\n      mstore\n      0x20\n      add\n      swap1\n      dup2\n      mstore\n      0x20\n      add\n      0x00\n      keccak256\n        /* \"@openzeppelin/contracts/access/AccessControl.sol\":7999:8019  _roles[role].members */\n      0x00\n      add\n        /* \"@openzeppelin/contracts/access/AccessControl.sol\":7999:8028  _roles[role].members[account] */\n      0x00\n        /* \"@openzeppelin/contracts/access/AccessControl.sol\":8020:8027  account */\n      dup4\n        /* \"@openzeppelin/contracts/access/AccessControl.sol\":7999:8028  _roles[role].members[account] */\n      0xffffffffffffffffffffffffffffffffffffffff\n      and\n      0xffffffffffffffffffffffffffffffffffffffff\n      and\n      dup2\n      mstore\n      0x20\n      add\n      swap1\n      dup2\n      mstore\n      0x20\n      add\n      0x00\n      keccak256\n      0x00\n        /* \"@openzeppelin/contracts/access/AccessControl.sol\":7999:8036  _roles[role].members[account] = false */\n      0x0100\n      exp\n      dup2\n      sload\n      dup2\n      0xff\n      mul\n      not\n      and\n      swap1\n      dup4\n      iszero\n      iszero\n      mul\n      or\n      swap1\n      sstore\n      pop\n        /* \"@openzeppelin/contracts/access/AccessControl.sol\":8082:8094  _msgSender() */\n      tag_118\n        /* \"@openzeppelin/contracts/access/AccessControl.sol\":8082:8092  _msgSender */\n      tag_85\n        /* \"@openzeppelin/contracts/access/AccessControl.sol\":8082:8094  _msgSender() */\n      jump\t// in\n    tag_118:\n        /* \"@openzeppelin/contracts/access/AccessControl.sol\":8055:8095  RoleRevoked(role, account, _msgSender()) */\n      0xffffffffffffffffffffffffffffffffffffffff\n      and\n        /* \"@openzeppelin/contracts/access/AccessControl.sol\":8073:8080  account */\n      dup2\n        /* \"@openzeppelin/contracts/access/AccessControl.sol\":8055:8095  RoleRevoked(role, account, _msgSender()) */\n      0xffffffffffffffffffffffffffffffffffffffff\n      and\n        /* \"@openzeppelin/contracts/access/AccessControl.sol\":8067:8071  role */\n      dup4\n        /* \"@openzeppelin/contracts/access/AccessControl.sol\":8055:8095  RoleRevoked(role, account, _msgSender()) */\n      0xf6391f5c32d9c69d2a47ea670b442974b53935d1edc7fd64eb21e047a839171b\n      mload(0x40)\n      mload(0x40)\n      dup1\n      swap2\n      sub\n      swap1\n      log4\n        /* \"@openzeppelin/contracts/access/AccessControl.sol\":7957:8106  if (hasRole(role, account)) {... */\n    tag_117:\n        /* \"@openzeppelin/contracts/access/AccessControl.sol\":7878:8112  function _revokeRole(bytes32 role, address account) internal virtual {... */\n      pop\n      pop\n      jump\t// out\n        /* \"@openzeppelin/contracts/access/AccessControl.sol\":3718:4210  function _checkRole(bytes32 role, address account) internal view virtual {... */\n    tag_113:\n        /* \"@openzeppelin/contracts/access/AccessControl.sol\":3806:3828  hasRole(role, account) */\n      tag_120\n        /* \"@openzeppelin/contracts/access/AccessControl.sol\":3814:3818  role */\n      dup3\n        /* \"@openzeppelin/contracts/access/AccessControl.sol\":3820:3827  account */\n      dup3\n        /* \"@openzeppelin/contracts/access/AccessControl.sol\":3806:3813  hasRole */\n      tag_57\n        /* \"@openzeppelin/contracts/access/AccessControl.sol\":3806:3828  hasRole(role, account) */\n      jump\t// in\n    tag_120:\n        /* \"@openzeppelin/contracts/access/AccessControl.sol\":3801:4204  if (!hasRole(role, account)) {... */\n      tag_121\n      jumpi\n        /* \"@openzeppelin/contracts/access/AccessControl.sol\":3989:4030  Strings.toHexString(uint160(account), 20) */\n      tag_122\n        /* \"@openzeppelin/contracts/access/AccessControl.sol\":4017:4024  account */\n      dup2\n        /* \"@openzeppelin/contracts/access/AccessControl.sol\":3989:4030  Strings.toHexString(uint160(account), 20) */\n      0xffffffffffffffffffffffffffffffffffffffff\n      and\n        /* \"@openzeppelin/contracts/access/AccessControl.sol\":4027:4029  20 */\n      0x14\n        /* \"@openzeppelin/contracts/access/AccessControl.sol\":3989:4008  Strings.toHexString */\n      tag_123\n        /* \"@openzeppelin/contracts/access/AccessControl.sol\":3989:4030  Strings.toHexString(uint160(account), 20) */\n      jump\t// in\n    tag_122:\n        /* \"@openzeppelin/contracts/access/AccessControl.sol\":4101:4139  Strings.toHexString(uint256(role), 32) */\n      tag_124\n        /* \"@openzeppelin/contracts/access/AccessControl.sol\":4129:4133  role */\n      dup4\n        /* \"@openzeppelin/contracts/access/AccessControl.sol\":4121:4134  uint256(role) */\n      0x00\n      shr\n        /* \"@openzeppelin/contracts/access/AccessControl.sol\":4136:4138  32 */\n      0x20\n        /* \"@openzeppelin/contracts/access/AccessControl.sol\":4101:4120  Strings.toHexString */\n      tag_123\n        /* \"@openzeppelin/contracts/access/AccessControl.sol\":4101:4139  Strings.toHexString(uint256(role), 32) */\n      jump\t// in\n    tag_124:\n        /* \"@openzeppelin/contracts/access/AccessControl.sol\":3896:4161  abi.encodePacked(... */\n      add(0x20, mload(0x40))\n      tag_125\n      swap3\n      swap2\n      swap1\n      tag_126\n      jump\t// in\n    tag_125:\n      mload(0x40)\n      0x20\n      dup2\n      dup4\n      sub\n      sub\n      dup2\n      mstore\n      swap1\n      0x40\n      mstore\n        /* \"@openzeppelin/contracts/access/AccessControl.sol\":3844:4193  revert(... */\n      mload(0x40)\n      0x08c379a000000000000000000000000000000000000000000000000000000000\n      dup2\n      mstore\n      0x04\n      add\n      tag_127\n      swap2\n      swap1\n      tag_128\n      jump\t// in\n    tag_127:\n      mload(0x40)\n      dup1\n      swap2\n      sub\n      swap1\n      revert\n        /* \"@openzeppelin/contracts/access/AccessControl.sol\":3801:4204  if (!hasRole(role, account)) {... */\n    tag_121:\n        /* \"@openzeppelin/contracts/access/AccessControl.sol\":3718:4210  function _checkRole(bytes32 role, address account) internal view virtual {... */\n      pop\n      pop\n      jump\t// out\n        /* \"@openzeppelin/contracts/utils/Strings.sol\":1652:2093  function toHexString(uint256 value, uint256 length) internal pure returns (string memory) {... */\n    tag_123:\n        /* \"@openzeppelin/contracts/utils/Strings.sol\":1727:1740  string memory */\n      0x60\n        /* \"@openzeppelin/contracts/utils/Strings.sol\":1752:1771  bytes memory buffer */\n      0x00\n        /* \"@openzeppelin/contracts/utils/Strings.sol\":1797:1798  2 */\n      0x02\n        /* \"@openzeppelin/contracts/utils/Strings.sol\":1788:1794  length */\n      dup4\n        /* \"@openzeppelin/contracts/utils/Strings.sol\":1784:1785  2 */\n      0x02\n        /* \"@openzeppelin/contracts/utils/Strings.sol\":1784:1794  2 * length */\n      tag_130\n      swap2\n      swap1\n      tag_131\n      jump\t// in\n    tag_130:\n        /* \"@openzeppelin/contracts/utils/Strings.sol\":1784:1798  2 * length + 2 */\n      tag_132\n      swap2\n      swap1\n      tag_133\n      jump\t// in\n    tag_132:\n        /* \"@openzeppelin/contracts/utils/Strings.sol\":1774:1799  new bytes(2 * length + 2) */\n      0xffffffffffffffff\n      dup2\n      gt\n      iszero\n      tag_134\n      jumpi\n      tag_135\n      tag_136\n      jump\t// in\n    tag_135:\n    tag_134:\n      mload(0x40)\n      swap1\n      dup1\n      dup3\n      mstore\n      dup1\n      0x1f\n      add\n      not(0x1f)\n      and\n      0x20\n      add\n      dup3\n      add\n      0x40\n      mstore\n      dup1\n      iszero\n      tag_137\n      jumpi\n      dup2\n      0x20\n      add\n      0x01\n      dup3\n      mul\n      dup1\n      calldatasize\n      dup4\n      calldatacopy\n      dup1\n      dup3\n      add\n      swap2\n      pop\n      pop\n      swap1\n      pop\n    tag_137:\n      pop\n        /* \"@openzeppelin/contracts/utils/Strings.sol\":1752:1799  bytes memory buffer = new bytes(2 * length + 2) */\n      swap1\n      pop\n        /* \"@openzeppelin/contracts/utils/Strings.sol\":1809:1824  buffer[0] = \"0\" */\n      0x3000000000000000000000000000000000000000000000000000000000000000\n        /* \"@openzeppelin/contracts/utils/Strings.sol\":1809:1815  buffer */\n      dup2\n        /* \"@openzeppelin/contracts/utils/Strings.sol\":1816:1817  0 */\n      0x00\n        /* \"@openzeppelin/contracts/utils/Strings.sol\":1809:1818  buffer[0] */\n      dup2\n      mload\n      dup2\n      lt\n      tag_138\n      jumpi\n      tag_139\n      tag_140\n      jump\t// in\n    tag_139:\n    tag_138:\n      0x20\n      add\n      add\n        /* \"@openzeppelin/contracts/utils/Strings.sol\":1809:1824  buffer[0] = \"0\" */\n      swap1\n      not(0xffffffffffffffffffffffffffffffffffffffffffffffffffffffffffffff)\n      and\n      swap1\n      dup2\n      0x00\n      byte\n      swap1\n      mstore8\n      pop\n        /* \"@openzeppelin/contracts/utils/Strings.sol\":1834:1849  buffer[1] = \"x\" */\n      0x7800000000000000000000000000000000000000000000000000000000000000\n        /* \"@openzeppelin/contracts/utils/Strings.sol\":1834:1840  buffer */\n      dup2\n        /* \"@openzeppelin/contracts/utils/Strings.sol\":1841:1842  1 */\n      0x01\n        /* \"@openzeppelin/contracts/utils/Strings.sol\":1834:1843  buffer[1] */\n      dup2\n      mload\n      dup2\n      lt\n      tag_141\n      jumpi\n      tag_142\n      tag_140\n      jump\t// in\n    tag_142:\n    tag_141:\n      0x20\n      add\n      add\n        /* \"@openzeppelin/contracts/utils/Strings.sol\":1834:1849  buffer[1] = \"x\" */\n      swap1\n      not(0xffffffffffffffffffffffffffffffffffffffffffffffffffffffffffffff)\n      and\n      swap1\n      dup2\n      0x00\n      byte\n      swap1\n      mstore8\n      pop\n        /* \"@openzeppelin/contracts/utils/Strings.sol\":1864:1873  uint256 i */\n      0x00\n        /* \"@openzeppelin/contracts/utils/Strings.sol\":1889:1890  1 */\n      0x01\n        /* \"@openzeppelin/contracts/utils/Strings.sol\":1880:1886  length */\n      dup5\n        /* \"@openzeppelin/contracts/utils/Strings.sol\":1876:1877  2 */\n      0x02\n        /* \"@openzeppelin/contracts/utils/Strings.sol\":1876:1886  2 * length */\n      tag_146\n      swap2\n      swap1\n      tag_131\n      jump\t// in\n    tag_146:\n        /* \"@openzeppelin/contracts/utils/Strings.sol\":1876:1890  2 * length + 1 */\n      tag_147\n      swap2\n      swap1\n      tag_133\n      jump\t// in\n    tag_147:\n        /* \"@openzeppelin/contracts/utils/Strings.sol\":1864:1890  uint256 i = 2 * length + 1 */\n      swap1\n      pop\n        /* \"@openzeppelin/contracts/utils/Strings.sol\":1859:1991  for (uint256 i = 2 * length + 1; i > 1; --i) {... */\n    tag_143:\n        /* \"@openzeppelin/contracts/utils/Strings.sol\":1896:1897  1 */\n      0x01\n        /* \"@openzeppelin/contracts/utils/Strings.sol\":1892:1893  i */\n      dup2\n        /* \"@openzeppelin/contracts/utils/Strings.sol\":1892:1897  i > 1 */\n      gt\n        /* \"@openzeppelin/contracts/utils/Strings.sol\":1859:1991  for (uint256 i = 2 * length + 1; i > 1; --i) {... */\n      iszero\n      tag_144\n      jumpi\n        /* \"@openzeppelin/contracts/utils/Strings.sol\":1930:1942  _HEX_SYMBOLS */\n      0x3031323334353637383961626364656600000000000000000000000000000000\n        /* \"@openzeppelin/contracts/utils/Strings.sol\":1951:1954  0xf */\n      0x0f\n        /* \"@openzeppelin/contracts/utils/Strings.sol\":1943:1948  value */\n      dup7\n        /* \"@openzeppelin/contracts/utils/Strings.sol\":1943:1954  value & 0xf */\n      and\n        /* \"@openzeppelin/contracts/utils/Strings.sol\":1930:1955  _HEX_SYMBOLS[value & 0xf] */\n      0x10\n      dup2\n      lt\n      tag_148\n      jumpi\n      tag_149\n      tag_140\n      jump\t// in\n    tag_149:\n    tag_148:\n      byte\n      0xf8\n      shl\n        /* \"@openzeppelin/contracts/utils/Strings.sol\":1918:1924  buffer */\n      dup3\n        /* \"@openzeppelin/contracts/utils/Strings.sol\":1925:1926  i */\n      dup3\n        /* \"@openzeppelin/contracts/utils/Strings.sol\":1918:1927  buffer[i] */\n      dup2\n      mload\n      dup2\n      lt\n      tag_150\n      jumpi\n      tag_151\n      tag_140\n      jump\t// in\n    tag_151:\n    tag_150:\n      0x20\n      add\n      add\n        /* \"@openzeppelin/contracts/utils/Strings.sol\":1918:1955  buffer[i] = _HEX_SYMBOLS[value & 0xf] */\n      swap1\n      not(0xffffffffffffffffffffffffffffffffffffffffffffffffffffffffffffff)\n      and\n      swap1\n      dup2\n      0x00\n      byte\n      swap1\n      mstore8\n      pop\n        /* \"@openzeppelin/contracts/utils/Strings.sol\":1979:1980  4 */\n      0x04\n        /* \"@openzeppelin/contracts/utils/Strings.sol\":1969:1980  value >>= 4 */\n      dup6\n      swap1\n      shr\n      swap5\n      pop\n        /* \"@openzeppelin/contracts/utils/Strings.sol\":1899:1902  --i */\n      dup1\n      tag_152\n      swap1\n      tag_153\n      jump\t// in\n    tag_152:\n      swap1\n      pop\n        /* \"@openzeppelin/contracts/utils/Strings.sol\":1859:1991  for (uint256 i = 2 * length + 1; i > 1; --i) {... */\n      jump(tag_143)\n    tag_144:\n      pop\n        /* \"@openzeppelin/contracts/utils/Strings.sol\":2017:2018  0 */\n      0x00\n        /* \"@openzeppelin/contracts/utils/Strings.sol\":2008:2013  value */\n      dup5\n        /* \"@openzeppelin/contracts/utils/Strings.sol\":2008:2018  value == 0 */\n      eq\n        /* \"@openzeppelin/contracts/utils/Strings.sol\":2000:2055  require(value == 0, \"Strings: hex length insufficient\") */\n      tag_154\n      jumpi\n      mload(0x40)\n      0x08c379a000000000000000000000000000000000000000000000000000000000\n      dup2\n      mstore\n      0x04\n      add\n      tag_155\n      swap1\n      tag_156\n      jump\t// in\n    tag_155:\n      mload(0x40)\n      dup1\n      swap2\n      sub\n      swap1\n      revert\n    tag_154:\n        /* \"@openzeppelin/contracts/utils/Strings.sol\":2079:2085  buffer */\n      dup1\n        /* \"@openzeppelin/contracts/utils/Strings.sol\":2065:2086  return string(buffer) */\n      swap2\n      pop\n      pop\n        /* \"@openzeppelin/contracts/utils/Strings.sol\":1652:2093  function toHexString(uint256 value, uint256 length) internal pure returns (string memory) {... */\n      swap3\n      swap2\n      pop\n      pop\n      jump\t// out\n        /* \"#utility.yul\":7:146   */\n    tag_158:\n        /* \"#utility.yul\":53:58   */\n      0x00\n        /* \"#utility.yul\":91:97   */\n      dup2\n        /* \"#utility.yul\":78:98   */\n      calldataload\n        /* \"#utility.yul\":69:98   */\n      swap1\n      pop\n        /* \"#utility.yul\":107:140   */\n      tag_160\n        /* \"#utility.yul\":134:139   */\n      dup2\n        /* \"#utility.yul\":107:140   */\n      tag_161\n      jump\t// in\n    tag_160:\n        /* \"#utility.yul\":7:146   */\n      swap3\n      swap2\n      pop\n      pop\n      jump\t// out\n        /* \"#utility.yul\":152:291   */\n    tag_162:\n        /* \"#utility.yul\":198:203   */\n      0x00\n        /* \"#utility.yul\":236:242   */\n      dup2\n        /* \"#utility.yul\":223:243   */\n      calldataload\n        /* \"#utility.yul\":214:243   */\n      swap1\n      pop\n        /* \"#utility.yul\":252:285   */\n      tag_164\n        /* \"#utility.yul\":279:284   */\n      dup2\n        /* \"#utility.yul\":252:285   */\n      tag_165\n      jump\t// in\n    tag_164:\n        /* \"#utility.yul\":152:291   */\n      swap3\n      swap2\n      pop\n      pop\n      jump\t// out\n        /* \"#utility.yul\":297:434   */\n    tag_166:\n        /* \"#utility.yul\":342:347   */\n      0x00\n        /* \"#utility.yul\":380:386   */\n      dup2\n        /* \"#utility.yul\":367:387   */\n      calldataload\n        /* \"#utility.yul\":358:387   */\n      swap1\n      pop\n        /* \"#utility.yul\":396:428   */\n      tag_168\n        /* \"#utility.yul\":422:427   */\n      dup2\n        /* \"#utility.yul\":396:428   */\n      tag_169\n      jump\t// in\n    tag_168:\n        /* \"#utility.yul\":297:434   */\n      swap3\n      swap2\n      pop\n      pop\n      jump\t// out\n        /* \"#utility.yul\":440:579   */\n    tag_170:\n        /* \"#utility.yul\":486:491   */\n      0x00\n        /* \"#utility.yul\":524:530   */\n      dup2\n        /* \"#utility.yul\":511:531   */\n      calldataload\n        /* \"#utility.yul\":502:531   */\n      swap1\n      pop\n        /* \"#utility.yul\":540:573   */\n      tag_172\n        /* \"#utility.yul\":567:572   */\n      dup2\n        /* \"#utility.yul\":540:573   */\n      tag_173\n      jump\t// in\n    tag_172:\n        /* \"#utility.yul\":440:579   */\n      swap3\n      swap2\n      pop\n      pop\n      jump\t// out\n        /* \"#utility.yul\":585:914   */\n    tag_26:\n        /* \"#utility.yul\":644:650   */\n      0x00\n        /* \"#utility.yul\":693:695   */\n      0x20\n        /* \"#utility.yul\":681:690   */\n      dup3\n        /* \"#utility.yul\":672:679   */\n      dup5\n        /* \"#utility.yul\":668:691   */\n      sub\n        /* \"#utility.yul\":664:696   */\n      slt\n        /* \"#utility.yul\":661:780   */\n      iszero\n      tag_175\n      jumpi\n        /* \"#utility.yul\":699:778   */\n      tag_176\n      tag_177\n      jump\t// in\n    tag_176:\n        /* \"#utility.yul\":661:780   */\n    tag_175:\n        /* \"#utility.yul\":819:820   */\n      0x00\n        /* \"#utility.yul\":844:897   */\n      tag_178\n        /* \"#utility.yul\":889:896   */\n      dup5\n        /* \"#utility.yul\":880:886   */\n      dup3\n        /* \"#utility.yul\":869:878   */\n      dup6\n        /* \"#utility.yul\":865:887   */\n      add\n        /* \"#utility.yul\":844:897   */\n      tag_158\n      jump\t// in\n    tag_178:\n        /* \"#utility.yul\":834:897   */\n      swap2\n      pop\n        /* \"#utility.yul\":790:907   */\n      pop\n        /* \"#utility.yul\":585:914   */\n      swap3\n      swap2\n      pop\n      pop\n      jump\t// out\n        /* \"#utility.yul\":920:1249   */\n    tag_30:\n        /* \"#utility.yul\":979:985   */\n      0x00\n        /* \"#utility.yul\":1028:1030   */\n      0x20\n        /* \"#utility.yul\":1016:1025   */\n      dup3\n        /* \"#utility.yul\":1007:1014   */\n      dup5\n        /* \"#utility.yul\":1003:1026   */\n      sub\n        /* \"#utility.yul\":999:1031   */\n      slt\n        /* \"#utility.yul\":996:1115   */\n      iszero\n      tag_180\n      jumpi\n        /* \"#utility.yul\":1034:1113   */\n      tag_181\n      tag_177\n      jump\t// in\n    tag_181:\n        /* \"#utility.yul\":996:1115   */\n    tag_180:\n        /* \"#utility.yul\":1154:1155   */\n      0x00\n        /* \"#utility.yul\":1179:1232   */\n      tag_182\n        /* \"#utility.yul\":1224:1231   */\n      dup5\n        /* \"#utility.yul\":1215:1221   */\n      dup3\n        /* \"#utility.yul\":1204:1213   */\n      dup6\n        /* \"#utility.yul\":1200:1222   */\n      add\n        /* \"#utility.yul\":1179:1232   */\n      tag_162\n      jump\t// in\n    tag_182:\n        /* \"#utility.yul\":1169:1232   */\n      swap2\n      pop\n        /* \"#utility.yul\":1125:1242   */\n      pop\n        /* \"#utility.yul\":920:1249   */\n      swap3\n      swap2\n      pop\n      pop\n      jump\t// out\n        /* \"#utility.yul\":1255:1729   */\n    tag_40:\n        /* \"#utility.yul\":1323:1329   */\n      0x00\n        /* \"#utility.yul\":1331:1337   */\n      dup1\n        /* \"#utility.yul\":1380:1382   */\n      0x40\n        /* \"#utility.yul\":1368:1377   */\n      dup4\n        /* \"#utility.yul\":1359:1366   */\n      dup6\n        /* \"#utility.yul\":1355:1378   */\n      sub\n        /* \"#utility.yul\":1351:1383   */\n      slt\n        /* \"#utility.yul\":1348:1467   */\n      iszero\n      tag_184\n      jumpi\n        /* \"#utility.yul\":1386:1465   */\n      tag_185\n      tag_177\n      jump\t// in\n    tag_185:\n        /* \"#utility.yul\":1348:1467   */\n    tag_184:\n        /* \"#utility.yul\":1506:1507   */\n      0x00\n        /* \"#utility.yul\":1531:1584   */\n      tag_186\n        /* \"#utility.yul\":1576:1583   */\n      dup6\n        /* \"#utility.yul\":1567:1573   */\n      dup3\n        /* \"#utility.yul\":1556:1565   */\n      dup7\n        /* \"#utility.yul\":1552:1574   */\n      add\n        /* \"#utility.yul\":1531:1584   */\n      tag_162\n      jump\t// in\n    tag_186:\n        /* \"#utility.yul\":1521:1584   */\n      swap3\n      pop\n        /* \"#utility.yul\":1477:1594   */\n      pop\n        /* \"#utility.yul\":1633:1635   */\n      0x20\n        /* \"#utility.yul\":1659:1712   */\n      tag_187\n        /* \"#utility.yul\":1704:1711   */\n      dup6\n        /* \"#utility.yul\":1695:1701   */\n      dup3\n        /* \"#utility.yul\":1684:1693   */\n      dup7\n        /* \"#utility.yul\":1680:1702   */\n      add\n        /* \"#utility.yul\":1659:1712   */\n      tag_158\n      jump\t// in\n    tag_187:\n        /* \"#utility.yul\":1649:1712   */\n      swap2\n      pop\n        /* \"#utility.yul\":1604:1722   */\n      pop\n        /* \"#utility.yul\":1255:1729   */\n      swap3\n      pop\n      swap3\n      swap1\n      pop\n      jump\t// out\n        /* \"#utility.yul\":1735:2062   */\n    tag_20:\n        /* \"#utility.yul\":1793:1799   */\n      0x00\n        /* \"#utility.yul\":1842:1844   */\n      0x20\n        /* \"#utility.yul\":1830:1839   */\n      dup3\n        /* \"#utility.yul\":1821:1828   */\n      dup5\n        /* \"#utility.yul\":1817:1840   */\n      sub\n        /* \"#utility.yul\":1813:1845   */\n      slt\n        /* \"#utility.yul\":1810:1929   */\n      iszero\n      tag_189\n      jumpi\n        /* \"#utility.yul\":1848:1927   */\n      tag_190\n      tag_177\n      jump\t// in\n    tag_190:\n        /* \"#utility.yul\":1810:1929   */\n    tag_189:\n        /* \"#utility.yul\":1968:1969   */\n      0x00\n        /* \"#utility.yul\":1993:2045   */\n      tag_191\n        /* \"#utility.yul\":2037:2044   */\n      dup5\n        /* \"#utility.yul\":2028:2034   */\n      dup3\n        /* \"#utility.yul\":2017:2026   */\n      dup6\n        /* \"#utility.yul\":2013:2035   */\n      add\n        /* \"#utility.yul\":1993:2045   */\n      tag_166\n      jump\t// in\n    tag_191:\n        /* \"#utility.yul\":1983:2045   */\n      swap2\n      pop\n        /* \"#utility.yul\":1939:2055   */\n      pop\n        /* \"#utility.yul\":1735:2062   */\n      swap3\n      swap2\n      pop\n      pop\n      jump\t// out\n        /* \"#utility.yul\":2068:2397   */\n    tag_53:\n        /* \"#utility.yul\":2127:2133   */\n      0x00\n        /* \"#utility.yul\":2176:2178   */\n      0x20\n        /* \"#utility.yul\":2164:2173   */\n      dup3\n        /* \"#utility.yul\":2155:2162   */\n      dup5\n        /* \"#utility.yul\":2151:2174   */\n      sub\n        /* \"#utility.yul\":2147:2179   */\n      slt\n        /* \"#utility.yul\":2144:2263   */\n      iszero\n      tag_193\n      jumpi\n        /* \"#utility.yul\":2182:2261   */\n      tag_194\n      tag_177\n      jump\t// in\n    tag_194:\n        /* \"#utility.yul\":2144:2263   */\n    tag_193:\n        /* \"#utility.yul\":2302:2303   */\n      0x00\n        /* \"#utility.yul\":2327:2380   */\n      tag_195\n        /* \"#utility.yul\":2372:2379   */\n      dup5\n        /* \"#utility.yul\":2363:2369   */\n      dup3\n        /* \"#utility.yul\":2352:2361   */\n      dup6\n        /* \"#utility.yul\":2348:2370   */\n      add\n        /* \"#utility.yul\":2327:2380   */\n      tag_170\n      jump\t// in\n    tag_195:\n        /* \"#utility.yul\":2317:2380   */\n      swap2\n      pop\n        /* \"#utility.yul\":2273:2390   */\n      pop\n        /* \"#utility.yul\":2068:2397   */\n      swap3\n      swap2\n      pop\n      pop\n      jump\t// out\n        /* \"#utility.yul\":2403:2512   */\n    tag_196:\n        /* \"#utility.yul\":2484:2505   */\n      tag_198\n        /* \"#utility.yul\":2499:2504   */\n      dup2\n        /* \"#utility.yul\":2484:2505   */\n      tag_199\n      jump\t// in\n    tag_198:\n        /* \"#utility.yul\":2479:2482   */\n      dup3\n        /* \"#utility.yul\":2472:2506   */\n      mstore\n        /* \"#utility.yul\":2403:2512   */\n      pop\n      pop\n      jump\t// out\n        /* \"#utility.yul\":2518:2636   */\n    tag_200:\n        /* \"#utility.yul\":2605:2629   */\n      tag_202\n        /* \"#utility.yul\":2623:2628   */\n      dup2\n        /* \"#utility.yul\":2605:2629   */\n      tag_203\n      jump\t// in\n    tag_202:\n        /* \"#utility.yul\":2600:2603   */\n      dup3\n        /* \"#utility.yul\":2593:2630   */\n      mstore\n        /* \"#utility.yul\":2518:2636   */\n      pop\n      pop\n      jump\t// out\n        /* \"#utility.yul\":2642:3006   */\n    tag_204:\n        /* \"#utility.yul\":2730:2733   */\n      0x00\n        /* \"#utility.yul\":2758:2797   */\n      tag_206\n        /* \"#utility.yul\":2791:2796   */\n      dup3\n        /* \"#utility.yul\":2758:2797   */\n      tag_207\n      jump\t// in\n    tag_206:\n        /* \"#utility.yul\":2813:2884   */\n      tag_208\n        /* \"#utility.yul\":2877:2883   */\n      dup2\n        /* \"#utility.yul\":2872:2875   */\n      dup6\n        /* \"#utility.yul\":2813:2884   */\n      tag_209\n      jump\t// in\n    tag_208:\n        /* \"#utility.yul\":2806:2884   */\n      swap4\n      pop\n        /* \"#utility.yul\":2893:2945   */\n      tag_210\n        /* \"#utility.yul\":2938:2944   */\n      dup2\n        /* \"#utility.yul\":2933:2936   */\n      dup6\n        /* \"#utility.yul\":2926:2930   */\n      0x20\n        /* \"#utility.yul\":2919:2924   */\n      dup7\n        /* \"#utility.yul\":2915:2931   */\n      add\n        /* \"#utility.yul\":2893:2945   */\n      tag_211\n      jump\t// in\n    tag_210:\n        /* \"#utility.yul\":2970:2999   */\n      tag_212\n        /* \"#utility.yul\":2992:2998   */\n      dup2\n        /* \"#utility.yul\":2970:2999   */\n      tag_213\n      jump\t// in\n    tag_212:\n        /* \"#utility.yul\":2965:2968   */\n      dup5\n        /* \"#utility.yul\":2961:3000   */\n      add\n        /* \"#utility.yul\":2954:3000   */\n      swap2\n      pop\n        /* \"#utility.yul\":2734:3006   */\n      pop\n        /* \"#utility.yul\":2642:3006   */\n      swap3\n      swap2\n      pop\n      pop\n      jump\t// out\n        /* \"#utility.yul\":3012:3389   */\n    tag_214:\n        /* \"#utility.yul\":3118:3121   */\n      0x00\n        /* \"#utility.yul\":3146:3185   */\n      tag_216\n        /* \"#utility.yul\":3179:3184   */\n      dup3\n        /* \"#utility.yul\":3146:3185   */\n      tag_207\n      jump\t// in\n    tag_216:\n        /* \"#utility.yul\":3201:3290   */\n      tag_217\n        /* \"#utility.yul\":3283:3289   */\n      dup2\n        /* \"#utility.yul\":3278:3281   */\n      dup6\n        /* \"#utility.yul\":3201:3290   */\n      tag_218\n      jump\t// in\n    tag_217:\n        /* \"#utility.yul\":3194:3290   */\n      swap4\n      pop\n        /* \"#utility.yul\":3299:3351   */\n      tag_219\n        /* \"#utility.yul\":3344:3350   */\n      dup2\n        /* \"#utility.yul\":3339:3342   */\n      dup6\n        /* \"#utility.yul\":3332:3336   */\n      0x20\n        /* \"#utility.yul\":3325:3330   */\n      dup7\n        /* \"#utility.yul\":3321:3337   */\n      add\n        /* \"#utility.yul\":3299:3351   */\n      tag_211\n      jump\t// in\n    tag_219:\n        /* \"#utility.yul\":3376:3382   */\n      dup1\n        /* \"#utility.yul\":3371:3374   */\n      dup5\n        /* \"#utility.yul\":3367:3383   */\n      add\n        /* \"#utility.yul\":3360:3383   */\n      swap2\n      pop\n        /* \"#utility.yul\":3122:3389   */\n      pop\n        /* \"#utility.yul\":3012:3389   */\n      swap3\n      swap2\n      pop\n      pop\n      jump\t// out\n        /* \"#utility.yul\":3395:3761   */\n    tag_220:\n        /* \"#utility.yul\":3537:3540   */\n      0x00\n        /* \"#utility.yul\":3558:3625   */\n      tag_222\n        /* \"#utility.yul\":3622:3624   */\n      0x20\n        /* \"#utility.yul\":3617:3620   */\n      dup4\n        /* \"#utility.yul\":3558:3625   */\n      tag_209\n      jump\t// in\n    tag_222:\n        /* \"#utility.yul\":3551:3625   */\n      swap2\n      pop\n        /* \"#utility.yul\":3634:3727   */\n      tag_223\n        /* \"#utility.yul\":3723:3726   */\n      dup3\n        /* \"#utility.yul\":3634:3727   */\n      tag_224\n      jump\t// in\n    tag_223:\n        /* \"#utility.yul\":3752:3754   */\n      0x20\n        /* \"#utility.yul\":3747:3750   */\n      dup3\n        /* \"#utility.yul\":3743:3755   */\n      add\n        /* \"#utility.yul\":3736:3755   */\n      swap1\n      pop\n        /* \"#utility.yul\":3395:3761   */\n      swap2\n      swap1\n      pop\n      jump\t// out\n        /* \"#utility.yul\":3767:4133   */\n    tag_225:\n        /* \"#utility.yul\":3909:3912   */\n      0x00\n        /* \"#utility.yul\":3930:3997   */\n      tag_227\n        /* \"#utility.yul\":3994:3996   */\n      0x42\n        /* \"#utility.yul\":3989:3992   */\n      dup4\n        /* \"#utility.yul\":3930:3997   */\n      tag_209\n      jump\t// in\n    tag_227:\n        /* \"#utility.yul\":3923:3997   */\n      swap2\n      pop\n        /* \"#utility.yul\":4006:4099   */\n      tag_228\n        /* \"#utility.yul\":4095:4098   */\n      dup3\n        /* \"#utility.yul\":4006:4099   */\n      tag_229\n      jump\t// in\n    tag_228:\n        /* \"#utility.yul\":4124:4126   */\n      0x60\n        /* \"#utility.yul\":4119:4122   */\n      dup3\n        /* \"#utility.yul\":4115:4127   */\n      add\n        /* \"#utility.yul\":4108:4127   */\n      swap1\n      pop\n        /* \"#utility.yul\":3767:4133   */\n      swap2\n      swap1\n      pop\n      jump\t// out\n        /* \"#utility.yul\":4139:4541   */\n    tag_230:\n        /* \"#utility.yul\":4299:4302   */\n      0x00\n        /* \"#utility.yul\":4320:4405   */\n      tag_232\n        /* \"#utility.yul\":4402:4404   */\n      0x17\n        /* \"#utility.yul\":4397:4400   */\n      dup4\n        /* \"#utility.yul\":4320:4405   */\n      tag_218\n      jump\t// in\n    tag_232:\n        /* \"#utility.yul\":4313:4405   */\n      swap2\n      pop\n        /* \"#utility.yul\":4414:4507   */\n      tag_233\n        /* \"#utility.yul\":4503:4506   */\n      dup3\n        /* \"#utility.yul\":4414:4507   */\n      tag_234\n      jump\t// in\n    tag_233:\n        /* \"#utility.yul\":4532:4534   */\n      0x17\n        /* \"#utility.yul\":4527:4530   */\n      dup3\n        /* \"#utility.yul\":4523:4535   */\n      add\n        /* \"#utility.yul\":4516:4535   */\n      swap1\n      pop\n        /* \"#utility.yul\":4139:4541   */\n      swap2\n      swap1\n      pop\n      jump\t// out\n        /* \"#utility.yul\":4547:4949   */\n    tag_235:\n        /* \"#utility.yul\":4707:4710   */\n      0x00\n        /* \"#utility.yul\":4728:4813   */\n      tag_237\n        /* \"#utility.yul\":4810:4812   */\n      0x11\n        /* \"#utility.yul\":4805:4808   */\n      dup4\n        /* \"#utility.yul\":4728:4813   */\n      tag_218\n      jump\t// in\n    tag_237:\n        /* \"#utility.yul\":4721:4813   */\n      swap2\n      pop\n        /* \"#utility.yul\":4822:4915   */\n      tag_238\n        /* \"#utility.yul\":4911:4914   */\n      dup3\n        /* \"#utility.yul\":4822:4915   */\n      tag_239\n      jump\t// in\n    tag_238:\n        /* \"#utility.yul\":4940:4942   */\n      0x11\n        /* \"#utility.yul\":4935:4938   */\n      dup3\n        /* \"#utility.yul\":4931:4943   */\n      add\n        /* \"#utility.yul\":4924:4943   */\n      swap1\n      pop\n        /* \"#utility.yul\":4547:4949   */\n      swap2\n      swap1\n      pop\n      jump\t// out\n        /* \"#utility.yul\":4955:5321   */\n    tag_240:\n        /* \"#utility.yul\":5097:5100   */\n      0x00\n        /* \"#utility.yul\":5118:5185   */\n      tag_242\n        /* \"#utility.yul\":5182:5184   */\n      0x2f\n        /* \"#utility.yul\":5177:5180   */\n      dup4\n        /* \"#utility.yul\":5118:5185   */\n      tag_209\n      jump\t// in\n    tag_242:\n        /* \"#utility.yul\":5111:5185   */\n      swap2\n      pop\n        /* \"#utility.yul\":5194:5287   */\n      tag_243\n        /* \"#utility.yul\":5283:5286   */\n      dup3\n        /* \"#utility.yul\":5194:5287   */\n      tag_244\n      jump\t// in\n    tag_243:\n        /* \"#utility.yul\":5312:5314   */\n      0x40\n        /* \"#utility.yul\":5307:5310   */\n      dup3\n        /* \"#utility.yul\":5303:5315   */\n      add\n        /* \"#utility.yul\":5296:5315   */\n      swap1\n      pop\n        /* \"#utility.yul\":4955:5321   */\n      swap2\n      swap1\n      pop\n      jump\t// out\n        /* \"#utility.yul\":5327:5445   */\n    tag_245:\n        /* \"#utility.yul\":5414:5438   */\n      tag_247\n        /* \"#utility.yul\":5432:5437   */\n      dup2\n        /* \"#utility.yul\":5414:5438   */\n      tag_248\n      jump\t// in\n    tag_247:\n        /* \"#utility.yul\":5409:5412   */\n      dup3\n        /* \"#utility.yul\":5402:5439   */\n      mstore\n        /* \"#utility.yul\":5327:5445   */\n      pop\n      pop\n      jump\t// out\n        /* \"#utility.yul\":5451:6418   */\n    tag_126:\n        /* \"#utility.yul\":5833:5836   */\n      0x00\n        /* \"#utility.yul\":5855:6003   */\n      tag_250\n        /* \"#utility.yul\":5999:6002   */\n      dup3\n        /* \"#utility.yul\":5855:6003   */\n      tag_230\n      jump\t// in\n    tag_250:\n        /* \"#utility.yul\":5848:6003   */\n      swap2\n      pop\n        /* \"#utility.yul\":6020:6115   */\n      tag_251\n        /* \"#utility.yul\":6111:6114   */\n      dup3\n        /* \"#utility.yul\":6102:6108   */\n      dup6\n        /* \"#utility.yul\":6020:6115   */\n      tag_214\n      jump\t// in\n    tag_251:\n        /* \"#utility.yul\":6013:6115   */\n      swap2\n      pop\n        /* \"#utility.yul\":6132:6280   */\n      tag_252\n        /* \"#utility.yul\":6276:6279   */\n      dup3\n        /* \"#utility.yul\":6132:6280   */\n      tag_235\n      jump\t// in\n    tag_252:\n        /* \"#utility.yul\":6125:6280   */\n      swap2\n      pop\n        /* \"#utility.yul\":6297:6392   */\n      tag_253\n        /* \"#utility.yul\":6388:6391   */\n      dup3\n        /* \"#utility.yul\":6379:6385   */\n      dup5\n        /* \"#utility.yul\":6297:6392   */\n      tag_214\n      jump\t// in\n    tag_253:\n        /* \"#utility.yul\":6290:6392   */\n      swap2\n      pop\n        /* \"#utility.yul\":6409:6412   */\n      dup2\n        /* \"#utility.yul\":6402:6412   */\n      swap1\n      pop\n        /* \"#utility.yul\":5451:6418   */\n      swap4\n      swap3\n      pop\n      pop\n      pop\n      jump\t// out\n        /* \"#utility.yul\":6424:6634   */\n    tag_23:\n        /* \"#utility.yul\":6511:6515   */\n      0x00\n        /* \"#utility.yul\":6549:6551   */\n      0x20\n        /* \"#utility.yul\":6538:6547   */\n      dup3\n        /* \"#utility.yul\":6534:6552   */\n      add\n        /* \"#utility.yul\":6526:6552   */\n      swap1\n      pop\n        /* \"#utility.yul\":6562:6627   */\n      tag_255\n        /* \"#utility.yul\":6624:6625   */\n      0x00\n        /* \"#utility.yul\":6613:6622   */\n      dup4\n        /* \"#utility.yul\":6609:6626   */\n      add\n        /* \"#utility.yul\":6600:6606   */\n      dup5\n        /* \"#utility.yul\":6562:6627   */\n      tag_196\n      jump\t// in\n    tag_255:\n        /* \"#utility.yul\":6424:6634   */\n      swap3\n      swap2\n      pop\n      pop\n      jump\t// out\n        /* \"#utility.yul\":6640:6862   */\n    tag_33:\n        /* \"#utility.yul\":6733:6737   */\n      0x00\n        /* \"#utility.yul\":6771:6773   */\n      0x20\n        /* \"#utility.yul\":6760:6769   */\n      dup3\n        /* \"#utility.yul\":6756:6774   */\n      add\n        /* \"#utility.yul\":6748:6774   */\n      swap1\n      pop\n        /* \"#utility.yul\":6784:6855   */\n      tag_257\n        /* \"#utility.yul\":6852:6853   */\n      0x00\n        /* \"#utility.yul\":6841:6850   */\n      dup4\n        /* \"#utility.yul\":6837:6854   */\n      add\n        /* \"#utility.yul\":6828:6834   */\n      dup5\n        /* \"#utility.yul\":6784:6855   */\n      tag_200\n      jump\t// in\n    tag_257:\n        /* \"#utility.yul\":6640:6862   */\n      swap3\n      swap2\n      pop\n      pop\n      jump\t// out\n        /* \"#utility.yul\":6868:7181   */\n    tag_128:\n        /* \"#utility.yul\":6981:6985   */\n      0x00\n        /* \"#utility.yul\":7019:7021   */\n      0x20\n        /* \"#utility.yul\":7008:7017   */\n      dup3\n        /* \"#utility.yul\":7004:7022   */\n      add\n        /* \"#utility.yul\":6996:7022   */\n      swap1\n      pop\n        /* \"#utility.yul\":7068:7077   */\n      dup2\n        /* \"#utility.yul\":7062:7066   */\n      dup2\n        /* \"#utility.yul\":7058:7078   */\n      sub\n        /* \"#utility.yul\":7054:7055   */\n      0x00\n        /* \"#utility.yul\":7043:7052   */\n      dup4\n        /* \"#utility.yul\":7039:7056   */\n      add\n        /* \"#utility.yul\":7032:7079   */\n      mstore\n        /* \"#utility.yul\":7096:7174   */\n      tag_259\n        /* \"#utility.yul\":7169:7173   */\n      dup2\n        /* \"#utility.yul\":7160:7166   */\n      dup5\n        /* \"#utility.yul\":7096:7174   */\n      tag_204\n      jump\t// in\n    tag_259:\n        /* \"#utility.yul\":7088:7174   */\n      swap1\n      pop\n        /* \"#utility.yul\":6868:7181   */\n      swap3\n      swap2\n      pop\n      pop\n      jump\t// out\n        /* \"#utility.yul\":7187:7606   */\n    tag_156:\n        /* \"#utility.yul\":7353:7357   */\n      0x00\n        /* \"#utility.yul\":7391:7393   */\n      0x20\n        /* \"#utility.yul\":7380:7389   */\n      dup3\n        /* \"#utility.yul\":7376:7394   */\n      add\n        /* \"#utility.yul\":7368:7394   */\n      swap1\n      pop\n        /* \"#utility.yul\":7440:7449   */\n      dup2\n        /* \"#utility.yul\":7434:7438   */\n      dup2\n        /* \"#utility.yul\":7430:7450   */\n      sub\n        /* \"#utility.yul\":7426:7427   */\n      0x00\n        /* \"#utility.yul\":7415:7424   */\n      dup4\n        /* \"#utility.yul\":7411:7428   */\n      add\n        /* \"#utility.yul\":7404:7451   */\n      mstore\n        /* \"#utility.yul\":7468:7599   */\n      tag_261\n        /* \"#utility.yul\":7594:7598   */\n      dup2\n        /* \"#utility.yul\":7468:7599   */\n      tag_220\n      jump\t// in\n    tag_261:\n        /* \"#utility.yul\":7460:7599   */\n      swap1\n      pop\n        /* \"#utility.yul\":7187:7606   */\n      swap2\n      swap1\n      pop\n      jump\t// out\n        /* \"#utility.yul\":7612:8031   */\n    tag_97:\n        /* \"#utility.yul\":7778:7782   */\n      0x00\n        /* \"#utility.yul\":7816:7818   */\n      0x20\n        /* \"#utility.yul\":7805:7814   */\n      dup3\n        /* \"#utility.yul\":7801:7819   */\n      add\n        /* \"#utility.yul\":7793:7819   */\n      swap1\n      pop\n        /* \"#utility.yul\":7865:7874   */\n      dup2\n        /* \"#utility.yul\":7859:7863   */\n      dup2\n        /* \"#utility.yul\":7855:7875   */\n      sub\n        /* \"#utility.yul\":7851:7852   */\n      0x00\n        /* \"#utility.yul\":7840:7849   */\n      dup4\n        /* \"#utility.yul\":7836:7853   */\n      add\n        /* \"#utility.yul\":7829:7876   */\n      mstore\n        /* \"#utility.yul\":7893:8024   */\n      tag_263\n        /* \"#utility.yul\":8019:8023   */\n      dup2\n        /* \"#utility.yul\":7893:8024   */\n      tag_225\n      jump\t// in\n    tag_263:\n        /* \"#utility.yul\":7885:8024   */\n      swap1\n      pop\n        /* \"#utility.yul\":7612:8031   */\n      swap2\n      swap1\n      pop\n      jump\t// out\n        /* \"#utility.yul\":8037:8456   */\n    tag_88:\n        /* \"#utility.yul\":8203:8207   */\n      0x00\n        /* \"#utility.yul\":8241:8243   */\n      0x20\n        /* \"#utility.yul\":8230:8239   */\n      dup3\n        /* \"#utility.yul\":8226:8244   */\n      add\n        /* \"#utility.yul\":8218:8244   */\n      swap1\n      pop\n        /* \"#utility.yul\":8290:8299   */\n      dup2\n        /* \"#utility.yul\":8284:8288   */\n      dup2\n        /* \"#utility.yul\":8280:8300   */\n      sub\n        /* \"#utility.yul\":8276:8277   */\n      0x00\n        /* \"#utility.yul\":8265:8274   */\n      dup4\n        /* \"#utility.yul\":8261:8278   */\n      add\n        /* \"#utility.yul\":8254:8301   */\n      mstore\n        /* \"#utility.yul\":8318:8449   */\n      tag_265\n        /* \"#utility.yul\":8444:8448   */\n      dup2\n        /* \"#utility.yul\":8318:8449   */\n      tag_240\n      jump\t// in\n    tag_265:\n        /* \"#utility.yul\":8310:8449   */\n      swap1\n      pop\n        /* \"#utility.yul\":8037:8456   */\n      swap2\n      swap1\n      pop\n      jump\t// out\n        /* \"#utility.yul\":8462:8684   */\n    tag_37:\n        /* \"#utility.yul\":8555:8559   */\n      0x00\n        /* \"#utility.yul\":8593:8595   */\n      0x20\n        /* \"#utility.yul\":8582:8591   */\n      dup3\n        /* \"#utility.yul\":8578:8596   */\n      add\n        /* \"#utility.yul\":8570:8596   */\n      swap1\n      pop\n        /* \"#utility.yul\":8606:8677   */\n      tag_267\n        /* \"#utility.yul\":8674:8675   */\n      0x00\n        /* \"#utility.yul\":8663:8672   */\n      dup4\n        /* \"#utility.yul\":8659:8676   */\n      add\n        /* \"#utility.yul\":8650:8656   */\n      dup5\n        /* \"#utility.yul\":8606:8677   */\n      tag_245\n      jump\t// in\n    tag_267:\n        /* \"#utility.yul\":8462:8684   */\n      swap3\n      swap2\n      pop\n      pop\n      jump\t// out\n        /* \"#utility.yul\":8771:8870   */\n    tag_207:\n        /* \"#utility.yul\":8823:8829   */\n      0x00\n        /* \"#utility.yul\":8857:8862   */\n      dup2\n        /* \"#utility.yul\":8851:8863   */\n      mload\n        /* \"#utility.yul\":8841:8863   */\n      swap1\n      pop\n        /* \"#utility.yul\":8771:8870   */\n      swap2\n      swap1\n      pop\n      jump\t// out\n        /* \"#utility.yul\":8876:9045   */\n    tag_209:\n        /* \"#utility.yul\":8960:8971   */\n      0x00\n        /* \"#utility.yul\":8994:9000   */\n      dup3\n        /* \"#utility.yul\":8989:8992   */\n      dup3\n        /* \"#utility.yul\":8982:9001   */\n      mstore\n        /* \"#utility.yul\":9034:9038   */\n      0x20\n        /* \"#utility.yul\":9029:9032   */\n      dup3\n        /* \"#utility.yul\":9025:9039   */\n      add\n        /* \"#utility.yul\":9010:9039   */\n      swap1\n      pop\n        /* \"#utility.yul\":8876:9045   */\n      swap3\n      swap2\n      pop\n      pop\n      jump\t// out\n        /* \"#utility.yul\":9051:9199   */\n    tag_218:\n        /* \"#utility.yul\":9153:9164   */\n      0x00\n        /* \"#utility.yul\":9190:9193   */\n      dup2\n        /* \"#utility.yul\":9175:9193   */\n      swap1\n      pop\n        /* \"#utility.yul\":9051:9199   */\n      swap3\n      swap2\n      pop\n      pop\n      jump\t// out\n        /* \"#utility.yul\":9205:9510   */\n    tag_133:\n        /* \"#utility.yul\":9245:9248   */\n      0x00\n        /* \"#utility.yul\":9264:9284   */\n      tag_274\n        /* \"#utility.yul\":9282:9283   */\n      dup3\n        /* \"#utility.yul\":9264:9284   */\n      tag_248\n      jump\t// in\n    tag_274:\n        /* \"#utility.yul\":9259:9284   */\n      swap2\n      pop\n        /* \"#utility.yul\":9298:9318   */\n      tag_275\n        /* \"#utility.yul\":9316:9317   */\n      dup4\n        /* \"#utility.yul\":9298:9318   */\n      tag_248\n      jump\t// in\n    tag_275:\n        /* \"#utility.yul\":9293:9318   */\n      swap3\n      pop\n        /* \"#utility.yul\":9452:9453   */\n      dup3\n        /* \"#utility.yul\":9384:9450   */\n      0xffffffffffffffffffffffffffffffffffffffffffffffffffffffffffffffff\n        /* \"#utility.yul\":9380:9454   */\n      sub\n        /* \"#utility.yul\":9377:9378   */\n      dup3\n        /* \"#utility.yul\":9374:9455   */\n      gt\n        /* \"#utility.yul\":9371:9478   */\n      iszero\n      tag_276\n      jumpi\n        /* \"#utility.yul\":9458:9476   */\n      tag_277\n      tag_278\n      jump\t// in\n    tag_277:\n        /* \"#utility.yul\":9371:9478   */\n    tag_276:\n        /* \"#utility.yul\":9502:9503   */\n      dup3\n        /* \"#utility.yul\":9499:9500   */\n      dup3\n        /* \"#utility.yul\":9495:9504   */\n      add\n        /* \"#utility.yul\":9488:9504   */\n      swap1\n      pop\n        /* \"#utility.yul\":9205:9510   */\n      swap3\n      swap2\n      pop\n      pop\n      jump\t// out\n        /* \"#utility.yul\":9516:9864   */\n    tag_131:\n        /* \"#utility.yul\":9556:9563   */\n      0x00\n        /* \"#utility.yul\":9579:9599   */\n      tag_280\n        /* \"#utility.yul\":9597:9598   */\n      dup3\n        /* \"#utility.yul\":9579:9599   */\n      tag_248\n      jump\t// in\n    tag_280:\n        /* \"#utility.yul\":9574:9599   */\n      swap2\n      pop\n        /* \"#utility.yul\":9613:9633   */\n      tag_281\n        /* \"#utility.yul\":9631:9632   */\n      dup4\n        /* \"#utility.yul\":9613:9633   */\n      tag_248\n      jump\t// in\n    tag_281:\n        /* \"#utility.yul\":9608:9633   */\n      swap3\n      pop\n        /* \"#utility.yul\":9801:9802   */\n      dup2\n        /* \"#utility.yul\":9733:9799   */\n      0xffffffffffffffffffffffffffffffffffffffffffffffffffffffffffffffff\n        /* \"#utility.yul\":9729:9803   */\n      div\n        /* \"#utility.yul\":9726:9727   */\n      dup4\n        /* \"#utility.yul\":9723:9804   */\n      gt\n        /* \"#utility.yul\":9718:9719   */\n      dup3\n        /* \"#utility.yul\":9711:9720   */\n      iszero\n        /* \"#utility.yul\":9704:9721   */\n      iszero\n        /* \"#utility.yul\":9700:9805   */\n      and\n        /* \"#utility.yul\":9697:9828   */\n      iszero\n      tag_282\n      jumpi\n        /* \"#utility.yul\":9808:9826   */\n      tag_283\n      tag_278\n      jump\t// in\n    tag_283:\n        /* \"#utility.yul\":9697:9828   */\n    tag_282:\n        /* \"#utility.yul\":9856:9857   */\n      dup3\n        /* \"#utility.yul\":9853:9854   */\n      dup3\n        /* \"#utility.yul\":9849:9858   */\n      mul\n        /* \"#utility.yul\":9838:9858   */\n      swap1\n      pop\n        /* \"#utility.yul\":9516:9864   */\n      swap3\n      swap2\n      pop\n      pop\n      jump\t// out\n        /* \"#utility.yul\":9870:9966   */\n    tag_284:\n        /* \"#utility.yul\":9907:9914   */\n      0x00\n        /* \"#utility.yul\":9936:9960   */\n      tag_286\n        /* \"#utility.yul\":9954:9959   */\n      dup3\n        /* \"#utility.yul\":9936:9960   */\n      tag_287\n      jump\t// in\n    tag_286:\n        /* \"#utility.yul\":9925:9960   */\n      swap1\n      pop\n        /* \"#utility.yul\":9870:9966   */\n      swap2\n      swap1\n      pop\n      jump\t// out\n        /* \"#utility.yul\":9972:10062   */\n    tag_199:\n        /* \"#utility.yul\":10006:10013   */\n      0x00\n        /* \"#utility.yul\":10049:10054   */\n      dup2\n        /* \"#utility.yul\":10042:10055   */\n      iszero\n        /* \"#utility.yul\":10035:10056   */\n      iszero\n        /* \"#utility.yul\":10024:10056   */\n      swap1\n      pop\n        /* \"#utility.yul\":9972:10062   */\n      swap2\n      swap1\n      pop\n      jump\t// out\n        /* \"#utility.yul\":10068:10145   */\n    tag_203:\n        /* \"#utility.yul\":10105:10112   */\n      0x00\n        /* \"#utility.yul\":10134:10139   */\n      dup2\n        /* \"#utility.yul\":10123:10139   */\n      swap1\n      pop\n        /* \"#utility.yul\":10068:10145   */\n      swap2\n      swap1\n      pop\n      jump\t// out\n        /* \"#utility.yul\":10151:10300   */\n    tag_290:\n        /* \"#utility.yul\":10187:10194   */\n      0x00\n        /* \"#utility.yul\":10227:10293   */\n      0xffffffff00000000000000000000000000000000000000000000000000000000\n        /* \"#utility.yul\":10220:10225   */\n      dup3\n        /* \"#utility.yul\":10216:10294   */\n      and\n        /* \"#utility.yul\":10205:10294   */\n      swap1\n      pop\n        /* \"#utility.yul\":10151:10300   */\n      swap2\n      swap1\n      pop\n      jump\t// out\n        /* \"#utility.yul\":10306:10432   */\n    tag_287:\n        /* \"#utility.yul\":10343:10350   */\n      0x00\n        /* \"#utility.yul\":10383:10425   */\n      0xffffffffffffffffffffffffffffffffffffffff\n        /* \"#utility.yul\":10376:10381   */\n      dup3\n        /* \"#utility.yul\":10372:10426   */\n      and\n        /* \"#utility.yul\":10361:10426   */\n      swap1\n      pop\n        /* \"#utility.yul\":10306:10432   */\n      swap2\n      swap1\n      pop\n      jump\t// out\n        /* \"#utility.yul\":10438:10515   */\n    tag_248:\n        /* \"#utility.yul\":10475:10482   */\n      0x00\n        /* \"#utility.yul\":10504:10509   */\n      dup2\n        /* \"#utility.yul\":10493:10509   */\n      swap1\n      pop\n        /* \"#utility.yul\":10438:10515   */\n      swap2\n      swap1\n      pop\n      jump\t// out\n        /* \"#utility.yul\":10521:10828   */\n    tag_211:\n        /* \"#utility.yul\":10589:10590   */\n      0x00\n        /* \"#utility.yul\":10599:10712   */\n    tag_295:\n        /* \"#utility.yul\":10613:10619   */\n      dup4\n        /* \"#utility.yul\":10610:10611   */\n      dup2\n        /* \"#utility.yul\":10607:10620   */\n      lt\n        /* \"#utility.yul\":10599:10712   */\n      iszero\n      tag_297\n      jumpi\n        /* \"#utility.yul\":10698:10699   */\n      dup1\n        /* \"#utility.yul\":10693:10696   */\n      dup3\n        /* \"#utility.yul\":10689:10700   */\n      add\n        /* \"#utility.yul\":10683:10701   */\n      mload\n        /* \"#utility.yul\":10679:10680   */\n      dup2\n        /* \"#utility.yul\":10674:10677   */\n      dup5\n        /* \"#utility.yul\":10670:10681   */\n      add\n        /* \"#utility.yul\":10663:10702   */\n      mstore\n        /* \"#utility.yul\":10635:10637   */\n      0x20\n        /* \"#utility.yul\":10632:10633   */\n      dup2\n        /* \"#utility.yul\":10628:10638   */\n      add\n        /* \"#utility.yul\":10623:10638   */\n      swap1\n      pop\n        /* \"#utility.yul\":10599:10712   */\n      jump(tag_295)\n    tag_297:\n        /* \"#utility.yul\":10730:10736   */\n      dup4\n        /* \"#utility.yul\":10727:10728   */\n      dup2\n        /* \"#utility.yul\":10724:10737   */\n      gt\n        /* \"#utility.yul\":10721:10822   */\n      iszero\n      tag_298\n      jumpi\n        /* \"#utility.yul\":10810:10811   */\n      0x00\n        /* \"#utility.yul\":10801:10807   */\n      dup5\n        /* \"#utility.yul\":10796:10799   */\n      dup5\n        /* \"#utility.yul\":10792:10808   */\n      add\n        /* \"#utility.yul\":10785:10812   */\n      mstore\n        /* \"#utility.yul\":10721:10822   */\n    tag_298:\n        /* \"#utility.yul\":10570:10828   */\n      pop\n        /* \"#utility.yul\":10521:10828   */\n      pop\n      pop\n      pop\n      jump\t// out\n        /* \"#utility.yul\":10834:11005   */\n    tag_153:\n        /* \"#utility.yul\":10873:10876   */\n      0x00\n        /* \"#utility.yul\":10896:10920   */\n      tag_300\n        /* \"#utility.yul\":10914:10919   */\n      dup3\n        /* \"#utility.yul\":10896:10920   */\n      tag_248\n      jump\t// in\n    tag_300:\n        /* \"#utility.yul\":10887:10920   */\n      swap2\n      pop\n        /* \"#utility.yul\":10942:10946   */\n      0x00\n        /* \"#utility.yul\":10935:10940   */\n      dup3\n        /* \"#utility.yul\":10932:10947   */\n      eq\n        /* \"#utility.yul\":10929:10970   */\n      iszero\n      tag_301\n      jumpi\n        /* \"#utility.yul\":10950:10968   */\n      tag_302\n      tag_278\n      jump\t// in\n    tag_302:\n        /* \"#utility.yul\":10929:10970   */\n    tag_301:\n        /* \"#utility.yul\":10997:10998   */\n      0x01\n        /* \"#utility.yul\":10990:10995   */\n      dup3\n        /* \"#utility.yul\":10986:10999   */\n      sub\n        /* \"#utility.yul\":10979:10999   */\n      swap1\n      pop\n        /* \"#utility.yul\":10834:11005   */\n      swap2\n      swap1\n      pop\n      jump\t// out\n        /* \"#utility.yul\":11011:11191   */\n    tag_278:\n        /* \"#utility.yul\":11059:11136   */\n      0x4e487b7100000000000000000000000000000000000000000000000000000000\n        /* \"#utility.yul\":11056:11057   */\n      0x00\n        /* \"#utility.yul\":11049:11137   */\n      mstore\n        /* \"#utility.yul\":11156:11160   */\n      0x11\n        /* \"#utility.yul\":11153:11154   */\n      0x04\n        /* \"#utility.yul\":11146:11161   */\n      mstore\n        /* \"#utility.yul\":11180:11184   */\n      0x24\n        /* \"#utility.yul\":11177:11178   */\n      0x00\n        /* \"#utility.yul\":11170:11185   */\n      revert\n        /* \"#utility.yul\":11197:11377   */\n    tag_140:\n        /* \"#utility.yul\":11245:11322   */\n      0x4e487b7100000000000000000000000000000000000000000000000000000000\n        /* \"#utility.yul\":11242:11243   */\n      0x00\n        /* \"#utility.yul\":11235:11323   */\n      mstore\n        /* \"#utility.yul\":11342:11346   */\n      0x32\n        /* \"#utility.yul\":11339:11340   */\n      0x04\n        /* \"#utility.yul\":11332:11347   */\n      mstore\n        /* \"#utility.yul\":11366:11370   */\n      0x24\n        /* \"#utility.yul\":11363:11364   */\n      0x00\n        /* \"#utility.yul\":11356:11371   */\n      revert\n        /* \"#utility.yul\":11383:11563   */\n    tag_136:\n        /* \"#utility.yul\":11431:11508   */\n      0x4e487b7100000000000000000000000000000000000000000000000000000000\n        /* \"#utility.yul\":11428:11429   */\n      0x00\n        /* \"#utility.yul\":11421:11509   */\n      mstore\n        /* \"#utility.yul\":11528:11532   */\n      0x41\n        /* \"#utility.yul\":11525:11526   */\n      0x04\n        /* \"#utility.yul\":11518:11533   */\n      mstore\n        /* \"#utility.yul\":11552:11556   */\n      0x24\n        /* \"#utility.yul\":11549:11550   */\n      0x00\n        /* \"#utility.yul\":11542:11557   */\n      revert\n        /* \"#utility.yul\":11692:11809   */\n    tag_177:\n        /* \"#utility.yul\":11801:11802   */\n      0x00\n        /* \"#utility.yul\":11798:11799   */\n      dup1\n        /* \"#utility.yul\":11791:11803   */\n      revert\n        /* \"#utility.yul\":11815:11917   */\n    tag_213:\n        /* \"#utility.yul\":11856:11862   */\n      0x00\n        /* \"#utility.yul\":11907:11909   */\n      0x1f\n        /* \"#utility.yul\":11903:11910   */\n      not\n        /* \"#utility.yul\":11898:11900   */\n      0x1f\n        /* \"#utility.yul\":11891:11896   */\n      dup4\n        /* \"#utility.yul\":11887:11901   */\n      add\n        /* \"#utility.yul\":11883:11911   */\n      and\n        /* \"#utility.yul\":11873:11911   */\n      swap1\n      pop\n        /* \"#utility.yul\":11815:11917   */\n      swap2\n      swap1\n      pop\n      jump\t// out\n        /* \"#utility.yul\":11923:12105   */\n    tag_224:\n        /* \"#utility.yul\":12063:12097   */\n      0x537472696e67733a20686578206c656e67746820696e73756666696369656e74\n        /* \"#utility.yul\":12059:12060   */\n      0x00\n        /* \"#utility.yul\":12051:12057   */\n      dup3\n        /* \"#utility.yul\":12047:12061   */\n      add\n        /* \"#utility.yul\":12040:12098   */\n      mstore\n        /* \"#utility.yul\":11923:12105   */\n      pop\n      jump\t// out\n        /* \"#utility.yul\":12111:12401   */\n    tag_229:\n        /* \"#utility.yul\":12251:12285   */\n      0x456c207573756172696f206e6f207469656e6520656c20726f6c205752495445\n        /* \"#utility.yul\":12247:12248   */\n      0x00\n        /* \"#utility.yul\":12239:12245   */\n      dup3\n        /* \"#utility.yul\":12235:12249   */\n      add\n        /* \"#utility.yul\":12228:12286   */\n      mstore\n        /* \"#utility.yul\":12320:12354   */\n      0x52207061726120656a656375746172206c612066756e63696f6e2053746f7261\n        /* \"#utility.yul\":12315:12317   */\n      0x20\n        /* \"#utility.yul\":12307:12313   */\n      dup3\n        /* \"#utility.yul\":12303:12318   */\n      add\n        /* \"#utility.yul\":12296:12355   */\n      mstore\n        /* \"#utility.yul\":12389:12393   */\n      0x6765000000000000000000000000000000000000000000000000000000000000\n        /* \"#utility.yul\":12384:12386   */\n      0x40\n        /* \"#utility.yul\":12376:12382   */\n      dup3\n        /* \"#utility.yul\":12372:12387   */\n      add\n        /* \"#utility.yul\":12365:12394   */\n      mstore\n        /* \"#utility.yul\":12111:12401   */\n      pop\n      jump\t// out\n        /* \"#utility.yul\":12407:12580   */\n    tag_234:\n        /* \"#utility.yul\":12547:12572   */\n      0x416363657373436f6e74726f6c3a206163636f756e7420000000000000000000\n        /* \"#utility.yul\":12543:12544   */\n      0x00\n        /* \"#utility.yul\":12535:12541   */\n      dup3\n        /* \"#utility.yul\":12531:12545   */\n      add\n        /* \"#utility.yul\":12524:12573   */\n      mstore\n        /* \"#utility.yul\":12407:12580   */\n      pop\n      jump\t// out\n        /* \"#utility.yul\":12586:12753   */\n    tag_239:\n        /* \"#utility.yul\":12726:12745   */\n      0x206973206d697373696e6720726f6c6520000000000000000000000000000000\n        /* \"#utility.yul\":12722:12723   */\n      0x00\n        /* \"#utility.yul\":12714:12720   */\n      dup3\n        /* \"#utility.yul\":12710:12724   */\n      add\n        /* \"#utility.yul\":12703:12746   */\n      mstore\n        /* \"#utility.yul\":12586:12753   */\n      pop\n      jump\t// out\n        /* \"#utility.yul\":12759:12993   */\n    tag_244:\n        /* \"#utility.yul\":12899:12933   */\n      0x416363657373436f6e74726f6c3a2063616e206f6e6c792072656e6f756e6365\n        /* \"#utility.yul\":12895:12896   */\n      0x00\n        /* \"#utility.yul\":12887:12893   */\n      dup3\n        /* \"#utility.yul\":12883:12897   */\n      add\n        /* \"#utility.yul\":12876:12934   */\n      mstore\n        /* \"#utility.yul\":12968:12985   */\n      0x20726f6c657320666f722073656c660000000000000000000000000000000000\n        /* \"#utility.yul\":12963:12965   */\n      0x20\n        /* \"#utility.yul\":12955:12961   */\n      dup3\n        /* \"#utility.yul\":12951:12966   */\n      add\n        /* \"#utility.yul\":12944:12986   */\n      mstore\n        /* \"#utility.yul\":12759:12993   */\n      pop\n      jump\t// out\n        /* \"#utility.yul\":12999:13121   */\n    tag_161:\n        /* \"#utility.yul\":13072:13096   */\n      tag_316\n        /* \"#utility.yul\":13090:13095   */\n      dup2\n        /* \"#utility.yul\":13072:13096   */\n      tag_284\n      jump\t// in\n    tag_316:\n        /* \"#utility.yul\":13065:13070   */\n      dup2\n        /* \"#utility.yul\":13062:13097   */\n      eq\n        /* \"#utility.yul\":13052:13115   */\n      tag_317\n      jumpi\n        /* \"#utility.yul\":13111:13112   */\n      0x00\n        /* \"#utility.yul\":13108:13109   */\n      dup1\n        /* \"#utility.yul\":13101:13113   */\n      revert\n        /* \"#utility.yul\":13052:13115   */\n    tag_317:\n        /* \"#utility.yul\":12999:13121   */\n      pop\n      jump\t// out\n        /* \"#utility.yul\":13127:13249   */\n    tag_165:\n        /* \"#utility.yul\":13200:13224   */\n      tag_319\n        /* \"#utility.yul\":13218:13223   */\n      dup2\n        /* \"#utility.yul\":13200:13224   */\n      tag_203\n      jump\t// in\n    tag_319:\n        /* \"#utility.yul\":13193:13198   */\n      dup2\n        /* \"#utility.yul\":13190:13225   */\n      eq\n        /* \"#utility.yul\":13180:13243   */\n      tag_320\n      jumpi\n        /* \"#utility.yul\":13239:13240   */\n      0x00\n        /* \"#utility.yul\":13236:13237   */\n      dup1\n        /* \"#utility.yul\":13229:13241   */\n      revert\n        /* \"#utility.yul\":13180:13243   */\n    tag_320:\n        /* \"#utility.yul\":13127:13249   */\n      pop\n      jump\t// out\n        /* \"#utility.yul\":13255:13375   */\n    tag_169:\n        /* \"#utility.yul\":13327:13350   */\n      tag_322\n        /* \"#utility.yul\":13344:13349   */\n      dup2\n        /* \"#utility.yul\":13327:13350   */\n      tag_290\n      jump\t// in\n    tag_322:\n        /* \"#utility.yul\":13320:13325   */\n      dup2\n        /* \"#utility.yul\":13317:13351   */\n      eq\n        /* \"#utility.yul\":13307:13369   */\n      tag_323\n      jumpi\n        /* \"#utility.yul\":13365:13366   */\n      0x00\n        /* \"#utility.yul\":13362:13363   */\n      dup1\n        /* \"#utility.yul\":13355:13367   */\n      revert\n        /* \"#utility.yul\":13307:13369   */\n    tag_323:\n        /* \"#utility.yul\":13255:13375   */\n      pop\n      jump\t// out\n        /* \"#utility.yul\":13381:13503   */\n    tag_173:\n        /* \"#utility.yul\":13454:13478   */\n      tag_325\n        /* \"#utility.yul\":13472:13477   */\n      dup2\n        /* \"#utility.yul\":13454:13478   */\n      tag_248\n      jump\t// in\n    tag_325:\n        /* \"#utility.yul\":13447:13452   */\n      dup2\n        /* \"#utility.yul\":13444:13479   */\n      eq\n        /* \"#utility.yul\":13434:13497   */\n      tag_326\n      jumpi\n        /* \"#utility.yul\":13493:13494   */\n      0x00\n        /* \"#utility.yul\":13490:13491   */\n      dup1\n        /* \"#utility.yul\":13483:13495   */\n      revert\n        /* \"#utility.yul\":13434:13497   */\n    tag_326:\n        /* \"#utility.yul\":13381:13503   */\n      pop\n      jump\t// out\n\n    auxdata: 0xa2646970667358221220a72494c5a63ac5e3c9076a596eaa9b2737412da1a9c3a268402ae4c9ccc83a3164736f6c63430008070033\n}\n",
				"bytecode": {
					"linkReferences": {},
					"object": "608060405234801561001057600080fd5b50611253806100206000396000f3fe608060405234801561001057600080fd5b50600436106100cf5760003560e01c806345d494201161008c57806391d148541161006657806391d14854146101fc578063a217fddf1461022c578063adec03fc1461024a578063d547741f14610268576100cf565b806345d49420146101a65780634c2e19d0146101c45780636057361d146101e0576100cf565b806301ffc9a7146100d4578063235ef56f14610104578063248a9ca3146101205780632e64cec1146101505780632f2ff15d1461016e57806336568abe1461018a575b600080fd5b6100ee60048036038101906100e99190610b80565b610284565b6040516100fb9190610d5a565b60405180910390f35b61011e60048036038101906101199190610ae6565b6102fe565b005b61013a60048036038101906101359190610b13565b61032b565b6040516101479190610d75565b60405180910390f35b61015861034a565b6040516101659190610e12565b60405180910390f35b61018860048036038101906101839190610b40565b610354565b005b6101a4600480360381019061019f9190610b40565b610375565b005b6101ae6103f8565b6040516101bb9190610d75565b60405180910390f35b6101de60048036038101906101d99190610ae6565b61041c565b005b6101fa60048036038101906101f59190610bad565b610449565b005b61021660048036038101906102119190610b40565b6104bc565b6040516102239190610d5a565b60405180910390f35b610234610526565b6040516102419190610d75565b60405180910390f35b61025261052d565b60405161025f9190610d75565b60405180910390f35b610282600480360381019061027d9190610b40565b610551565b005b60007f7965db0b000000000000000000000000000000000000000000000000000000007bffffffffffffffffffffffffffffffffffffffffffffffffffffffff1916827bffffffffffffffffffffffffffffffffffffffffffffffffffffffff191614806102f757506102f682610572565b5b9050919050565b6103287f3bd382f411bca881c98196b18edce31a82cf3847dab18082dd90c13022f62dfb826105dc565b50565b6000806000838152602001908152602001600020600101549050919050565b6000600154905090565b61035d8261032b565b610366816106bc565b61037083836105dc565b505050565b61037d6106d0565b73ffffffffffffffffffffffffffffffffffffffff168173ffffffffffffffffffffffffffffffffffffffff16146103ea576040517f08c379a00000000000000000000000000000000000000000000000000000000081526004016103e190610df2565b60405180910390fd5b6103f482826106d8565b5050565b7f3bd382f411bca881c98196b18edce31a82cf3847dab18082dd90c13022f62dfb81565b6104467f3bd382f411bca881c98196b18edce31a82cf3847dab18082dd90c13022f62dfb826106d8565b50565b6104737f3bd382f411bca881c98196b18edce31a82cf3847dab18082dd90c13022f62dfb336104bc565b6104b2576040517f08c379a00000000000000000000000000000000000000000000000000000000081526004016104a990610dd2565b60405180910390fd5b8060018190555050565b600080600084815260200190815260200160002060000160008373ffffffffffffffffffffffffffffffffffffffff1673ffffffffffffffffffffffffffffffffffffffff16815260200190815260200160002060009054906101000a900460ff16905092915050565b6000801b81565b7f7e5b835f8ef15bb117d49cb6d0658113bc08d41d8a6edf12d3d1feb5c587533081565b61055a8261032b565b610563816106bc565b61056d83836106d8565b505050565b60007f01ffc9a7000000000000000000000000000000000000000000000000000000007bffffffffffffffffffffffffffffffffffffffffffffffffffffffff1916827bffffffffffffffffffffffffffffffffffffffffffffffffffffffff1916149050919050565b6105e682826104bc565b6106b857600160008084815260200190815260200160002060000160008373ffffffffffffffffffffffffffffffffffffffff1673ffffffffffffffffffffffffffffffffffffffff16815260200190815260200160002060006101000a81548160ff02191690831515021790555061065d6106d0565b73ffffffffffffffffffffffffffffffffffffffff168173ffffffffffffffffffffffffffffffffffffffff16837f2f8788117e7eff1d82e926ec794901d17c78024a50270940304540a733656f0d60405160405180910390a45b5050565b6106cd816106c86106d0565b6107b9565b50565b600033905090565b6106e282826104bc565b156107b557600080600084815260200190815260200160002060000160008373ffffffffffffffffffffffffffffffffffffffff1673ffffffffffffffffffffffffffffffffffffffff16815260200190815260200160002060006101000a81548160ff02191690831515021790555061075a6106d0565b73ffffffffffffffffffffffffffffffffffffffff168173ffffffffffffffffffffffffffffffffffffffff16837ff6391f5c32d9c69d2a47ea670b442974b53935d1edc7fd64eb21e047a839171b60405160405180910390a45b5050565b6107c382826104bc565b610852576107e88173ffffffffffffffffffffffffffffffffffffffff166014610856565b6107f68360001c6020610856565b604051602001610807929190610d20565b6040516020818303038152906040526040517f08c379a00000000000000000000000000000000000000000000000000000000081526004016108499190610d90565b60405180910390fd5b5050565b6060600060028360026108699190610eaa565b6108739190610e54565b67ffffffffffffffff81111561088c5761088b61103d565b5b6040519080825280601f01601f1916602001820160405280156108be5781602001600182028036833780820191505090505b5090507f3000000000000000000000000000000000000000000000000000000000000000816000815181106108f6576108f561100e565b5b60200101907effffffffffffffffffffffffffffffffffffffffffffffffffffffffffffff1916908160001a9053507f78000000000000000000000000000000000000000000000000000000000000008160018151811061095a5761095961100e565b5b60200101907effffffffffffffffffffffffffffffffffffffffffffffffffffffffffffff1916908160001a9053506000600184600261099a9190610eaa565b6109a49190610e54565b90505b6001811115610a44577f3031323334353637383961626364656600000000000000000000000000000000600f8616601081106109e6576109e561100e565b5b1a60f81b8282815181106109fd576109fc61100e565b5b60200101907effffffffffffffffffffffffffffffffffffffffffffffffffffffffffffff1916908160001a905350600485901c945080610a3d90610fb5565b90506109a7565b5060008414610a88576040517f08c379a0000000000000000000000000000000000000000000000000000000008152600401610a7f90610db2565b60405180910390fd5b8091505092915050565b600081359050610aa1816111c1565b92915050565b600081359050610ab6816111d8565b92915050565b600081359050610acb816111ef565b92915050565b600081359050610ae081611206565b92915050565b600060208284031215610afc57610afb61106c565b5b6000610b0a84828501610a92565b91505092915050565b600060208284031215610b2957610b2861106c565b5b6000610b3784828501610aa7565b91505092915050565b60008060408385031215610b5757610b5661106c565b5b6000610b6585828601610aa7565b9250506020610b7685828601610a92565b9150509250929050565b600060208284031215610b9657610b9561106c565b5b6000610ba484828501610abc565b91505092915050565b600060208284031215610bc357610bc261106c565b5b6000610bd184828501610ad1565b91505092915050565b610be381610f16565b82525050565b610bf281610f22565b82525050565b6000610c0382610e2d565b610c0d8185610e38565b9350610c1d818560208601610f82565b610c2681611071565b840191505092915050565b6000610c3c82610e2d565b610c468185610e49565b9350610c56818560208601610f82565b80840191505092915050565b6000610c6f602083610e38565b9150610c7a82611082565b602082019050919050565b6000610c92604283610e38565b9150610c9d826110ab565b606082019050919050565b6000610cb5601783610e49565b9150610cc082611120565b601782019050919050565b6000610cd8601183610e49565b9150610ce382611149565b601182019050919050565b6000610cfb602f83610e38565b9150610d0682611172565b604082019050919050565b610d1a81610f78565b82525050565b6000610d2b82610ca8565b9150610d378285610c31565b9150610d4282610ccb565b9150610d4e8284610c31565b91508190509392505050565b6000602082019050610d6f6000830184610bda565b92915050565b6000602082019050610d8a6000830184610be9565b92915050565b60006020820190508181036000830152610daa8184610bf8565b905092915050565b60006020820190508181036000830152610dcb81610c62565b9050919050565b60006020820190508181036000830152610deb81610c85565b9050919050565b60006020820190508181036000830152610e0b81610cee565b9050919050565b6000602082019050610e276000830184610d11565b92915050565b600081519050919050565b600082825260208201905092915050565b600081905092915050565b6000610e5f82610f78565b9150610e6a83610f78565b9250827fffffffffffffffffffffffffffffffffffffffffffffffffffffffffffffffff03821115610e9f57610e9e610fdf565b5b828201905092915050565b6000610eb582610f78565b9150610ec083610f78565b9250817fffffffffffffffffffffffffffffffffffffffffffffffffffffffffffffffff0483118215151615610ef957610ef8610fdf565b5b828202905092915050565b6000610f0f82610f58565b9050919050565b60008115159050919050565b6000819050919050565b60007fffffffff0000000000000000000000000000000000000000000000000000000082169050919050565b600073ffffffffffffffffffffffffffffffffffffffff82169050919050565b6000819050919050565b60005b83811015610fa0578082015181840152602081019050610f85565b83811115610faf576000848401525b50505050565b6000610fc082610f78565b91506000821415610fd457610fd3610fdf565b5b600182039050919050565b7f4e487b7100000000000000000000000000000000000000000000000000000000600052601160045260246000fd5b7f4e487b7100000000000000000000000000000000000000000000000000000000600052603260045260246000fd5b7f4e487b7100000000000000000000000000000000000000000000000000000000600052604160045260246000fd5b600080fd5b6000601f19601f8301169050919050565b7f537472696e67733a20686578206c656e67746820696e73756666696369656e74600082015250565b7f456c207573756172696f206e6f207469656e6520656c20726f6c20575249544560008201527f52207061726120656a656375746172206c612066756e63696f6e2053746f726160208201527f6765000000000000000000000000000000000000000000000000000000000000604082015250565b7f416363657373436f6e74726f6c3a206163636f756e7420000000000000000000600082015250565b7f206973206d697373696e6720726f6c6520000000000000000000000000000000600082015250565b7f416363657373436f6e74726f6c3a2063616e206f6e6c792072656e6f756e636560008201527f20726f6c657320666f722073656c660000000000000000000000000000000000602082015250565b6111ca81610f04565b81146111d557600080fd5b50565b6111e181610f22565b81146111ec57600080fd5b50565b6111f881610f2c565b811461120357600080fd5b50565b61120f81610f78565b811461121a57600080fd5b5056fea2646970667358221220a72494c5a63ac5e3c9076a596eaa9b2737412da1a9c3a268402ae4c9ccc83a3164736f6c63430008070033",
					"opcodes": "PUSH1 0x80 PUSH1 0x40 MSTORE CALLVALUE DUP1 ISZERO PUSH2 0x10 JUMPI PUSH1 0x0 DUP1 REVERT JUMPDEST POP PUSH2 0x1253 DUP1 PUSH2 0x20 PUSH1 0x0 CODECOPY PUSH1 0x0 RETURN INVALID PUSH1 0x80 PUSH1 0x40 MSTORE CALLVALUE DUP1 ISZERO PUSH2 0x10 JUMPI PUSH1 0x0 DUP1 REVERT JUMPDEST POP PUSH1 0x4 CALLDATASIZE LT PUSH2 0xCF JUMPI PUSH1 0x0 CALLDATALOAD PUSH1 0xE0 SHR DUP1 PUSH4 0x45D49420 GT PUSH2 0x8C JUMPI DUP1 PUSH4 0x91D14854 GT PUSH2 0x66 JUMPI DUP1 PUSH4 0x91D14854 EQ PUSH2 0x1FC JUMPI DUP1 PUSH4 0xA217FDDF EQ PUSH2 0x22C JUMPI DUP1 PUSH4 0xADEC03FC EQ PUSH2 0x24A JUMPI DUP1 PUSH4 0xD547741F EQ PUSH2 0x268 JUMPI PUSH2 0xCF JUMP JUMPDEST DUP1 PUSH4 0x45D49420 EQ PUSH2 0x1A6 JUMPI DUP1 PUSH4 0x4C2E19D0 EQ PUSH2 0x1C4 JUMPI DUP1 PUSH4 0x6057361D EQ PUSH2 0x1E0 JUMPI PUSH2 0xCF JUMP JUMPDEST DUP1 PUSH4 0x1FFC9A7 EQ PUSH2 0xD4 JUMPI DUP1 PUSH4 0x235EF56F EQ PUSH2 0x104 JUMPI DUP1 PUSH4 0x248A9CA3 EQ PUSH2 0x120 JUMPI DUP1 PUSH4 0x2E64CEC1 EQ PUSH2 0x150 JUMPI DUP1 PUSH4 0x2F2FF15D EQ PUSH2 0x16E JUMPI DUP1 PUSH4 0x36568ABE EQ PUSH2 0x18A JUMPI JUMPDEST PUSH1 0x0 DUP1 REVERT JUMPDEST PUSH2 0xEE PUSH1 0x4 DUP1 CALLDATASIZE SUB DUP2 ADD SWAP1 PUSH2 0xE9 SWAP2 SWAP1 PUSH2 0xB80 JUMP JUMPDEST PUSH2 0x284 JUMP JUMPDEST PUSH1 0x40 MLOAD PUSH2 0xFB SWAP2 SWAP1 PUSH2 0xD5A JUMP JUMPDEST PUSH1 0x40 MLOAD DUP1 SWAP2 SUB SWAP1 RETURN JUMPDEST PUSH2 0x11E PUSH1 0x4 DUP1 CALLDATASIZE SUB DUP2 ADD SWAP1 PUSH2 0x119 SWAP2 SWAP1 PUSH2 0xAE6 JUMP JUMPDEST PUSH2 0x2FE JUMP JUMPDEST STOP JUMPDEST PUSH2 0x13A PUSH1 0x4 DUP1 CALLDATASIZE SUB DUP2 ADD SWAP1 PUSH2 0x135 SWAP2 SWAP1 PUSH2 0xB13 JUMP JUMPDEST PUSH2 0x32B JUMP JUMPDEST PUSH1 0x40 MLOAD PUSH2 0x147 SWAP2 SWAP1 PUSH2 0xD75 JUMP JUMPDEST PUSH1 0x40 MLOAD DUP1 SWAP2 SUB SWAP1 RETURN JUMPDEST PUSH2 0x158 PUSH2 0x34A JUMP JUMPDEST PUSH1 0x40 MLOAD PUSH2 0x165 SWAP2 SWAP1 PUSH2 0xE12 JUMP JUMPDEST PUSH1 0x40 MLOAD DUP1 SWAP2 SUB SWAP1 RETURN JUMPDEST PUSH2 0x188 PUSH1 0x4 DUP1 CALLDATASIZE SUB DUP2 ADD SWAP1 PUSH2 0x183 SWAP2 SWAP1 PUSH2 0xB40 JUMP JUMPDEST PUSH2 0x354 JUMP JUMPDEST STOP JUMPDEST PUSH2 0x1A4 PUSH1 0x4 DUP1 CALLDATASIZE SUB DUP2 ADD SWAP1 PUSH2 0x19F SWAP2 SWAP1 PUSH2 0xB40 JUMP JUMPDEST PUSH2 0x375 JUMP JUMPDEST STOP JUMPDEST PUSH2 0x1AE PUSH2 0x3F8 JUMP JUMPDEST PUSH1 0x40 MLOAD PUSH2 0x1BB SWAP2 SWAP1 PUSH2 0xD75 JUMP JUMPDEST PUSH1 0x40 MLOAD DUP1 SWAP2 SUB SWAP1 RETURN JUMPDEST PUSH2 0x1DE PUSH1 0x4 DUP1 CALLDATASIZE SUB DUP2 ADD SWAP1 PUSH2 0x1D9 SWAP2 SWAP1 PUSH2 0xAE6 JUMP JUMPDEST PUSH2 0x41C JUMP JUMPDEST STOP JUMPDEST PUSH2 0x1FA PUSH1 0x4 DUP1 CALLDATASIZE SUB DUP2 ADD SWAP1 PUSH2 0x1F5 SWAP2 SWAP1 PUSH2 0xBAD JUMP JUMPDEST PUSH2 0x449 JUMP JUMPDEST STOP JUMPDEST PUSH2 0x216 PUSH1 0x4 DUP1 CALLDATASIZE SUB DUP2 ADD SWAP1 PUSH2 0x211 SWAP2 SWAP1 PUSH2 0xB40 JUMP JUMPDEST PUSH2 0x4BC JUMP JUMPDEST PUSH1 0x40 MLOAD PUSH2 0x223 SWAP2 SWAP1 PUSH2 0xD5A JUMP JUMPDEST PUSH1 0x40 MLOAD DUP1 SWAP2 SUB SWAP1 RETURN JUMPDEST PUSH2 0x234 PUSH2 0x526 JUMP JUMPDEST PUSH1 0x40 MLOAD PUSH2 0x241 SWAP2 SWAP1 PUSH2 0xD75 JUMP JUMPDEST PUSH1 0x40 MLOAD DUP1 SWAP2 SUB SWAP1 RETURN JUMPDEST PUSH2 0x252 PUSH2 0x52D JUMP JUMPDEST PUSH1 0x40 MLOAD PUSH2 0x25F SWAP2 SWAP1 PUSH2 0xD75 JUMP JUMPDEST PUSH1 0x40 MLOAD DUP1 SWAP2 SUB SWAP1 RETURN JUMPDEST PUSH2 0x282 PUSH1 0x4 DUP1 CALLDATASIZE SUB DUP2 ADD SWAP1 PUSH2 0x27D SWAP2 SWAP1 PUSH2 0xB40 JUMP JUMPDEST PUSH2 0x551 JUMP JUMPDEST STOP JUMPDEST PUSH1 0x0 PUSH32 0x7965DB0B00000000000000000000000000000000000000000000000000000000 PUSH28 0xFFFFFFFFFFFFFFFFFFFFFFFFFFFFFFFFFFFFFFFFFFFFFFFFFFFFFFFF NOT AND DUP3 PUSH28 0xFFFFFFFFFFFFFFFFFFFFFFFFFFFFFFFFFFFFFFFFFFFFFFFFFFFFFFFF NOT AND EQ DUP1 PUSH2 0x2F7 JUMPI POP PUSH2 0x2F6 DUP3 PUSH2 0x572 JUMP JUMPDEST JUMPDEST SWAP1 POP SWAP2 SWAP1 POP JUMP JUMPDEST PUSH2 0x328 PUSH32 0x3BD382F411BCA881C98196B18EDCE31A82CF3847DAB18082DD90C13022F62DFB DUP3 PUSH2 0x5DC JUMP JUMPDEST POP JUMP JUMPDEST PUSH1 0x0 DUP1 PUSH1 0x0 DUP4 DUP2 MSTORE PUSH1 0x20 ADD SWAP1 DUP2 MSTORE PUSH1 0x20 ADD PUSH1 0x0 KECCAK256 PUSH1 0x1 ADD SLOAD SWAP1 POP SWAP2 SWAP1 POP JUMP JUMPDEST PUSH1 0x0 PUSH1 0x1 SLOAD SWAP1 POP SWAP1 JUMP JUMPDEST PUSH2 0x35D DUP3 PUSH2 0x32B JUMP JUMPDEST PUSH2 0x366 DUP2 PUSH2 0x6BC JUMP JUMPDEST PUSH2 0x370 DUP4 DUP4 PUSH2 0x5DC JUMP JUMPDEST POP POP POP JUMP JUMPDEST PUSH2 0x37D PUSH2 0x6D0 JUMP JUMPDEST PUSH20 0xFFFFFFFFFFFFFFFFFFFFFFFFFFFFFFFFFFFFFFFF AND DUP2 PUSH20 0xFFFFFFFFFFFFFFFFFFFFFFFFFFFFFFFFFFFFFFFF AND EQ PUSH2 0x3EA JUMPI PUSH1 0x40 MLOAD PUSH32 0x8C379A000000000000000000000000000000000000000000000000000000000 DUP2 MSTORE PUSH1 0x4 ADD PUSH2 0x3E1 SWAP1 PUSH2 0xDF2 JUMP JUMPDEST PUSH1 0x40 MLOAD DUP1 SWAP2 SUB SWAP1 REVERT JUMPDEST PUSH2 0x3F4 DUP3 DUP3 PUSH2 0x6D8 JUMP JUMPDEST POP POP JUMP JUMPDEST PUSH32 0x3BD382F411BCA881C98196B18EDCE31A82CF3847DAB18082DD90C13022F62DFB DUP2 JUMP JUMPDEST PUSH2 0x446 PUSH32 0x3BD382F411BCA881C98196B18EDCE31A82CF3847DAB18082DD90C13022F62DFB DUP3 PUSH2 0x6D8 JUMP JUMPDEST POP JUMP JUMPDEST PUSH2 0x473 PUSH32 0x3BD382F411BCA881C98196B18EDCE31A82CF3847DAB18082DD90C13022F62DFB CALLER PUSH2 0x4BC JUMP JUMPDEST PUSH2 0x4B2 JUMPI PUSH1 0x40 MLOAD PUSH32 0x8C379A000000000000000000000000000000000000000000000000000000000 DUP2 MSTORE PUSH1 0x4 ADD PUSH2 0x4A9 SWAP1 PUSH2 0xDD2 JUMP JUMPDEST PUSH1 0x40 MLOAD DUP1 SWAP2 SUB SWAP1 REVERT JUMPDEST DUP1 PUSH1 0x1 DUP2 SWAP1 SSTORE POP POP JUMP JUMPDEST PUSH1 0x0 DUP1 PUSH1 0x0 DUP5 DUP2 MSTORE PUSH1 0x20 ADD SWAP1 DUP2 MSTORE PUSH1 0x20 ADD PUSH1 0x0 KECCAK256 PUSH1 0x0 ADD PUSH1 0x0 DUP4 PUSH20 0xFFFFFFFFFFFFFFFFFFFFFFFFFFFFFFFFFFFFFFFF AND PUSH20 0xFFFFFFFFFFFFFFFFFFFFFFFFFFFFFFFFFFFFFFFF AND DUP2 MSTORE PUSH1 0x20 ADD SWAP1 DUP2 MSTORE PUSH1 0x20 ADD PUSH1 0x0 KECCAK256 PUSH1 0x0 SWAP1 SLOAD SWAP1 PUSH2 0x100 EXP SWAP1 DIV PUSH1 0xFF AND SWAP1 POP SWAP3 SWAP2 POP POP JUMP JUMPDEST PUSH1 0x0 DUP1 SHL DUP2 JUMP JUMPDEST PUSH32 0x7E5B835F8EF15BB117D49CB6D0658113BC08D41D8A6EDF12D3D1FEB5C5875330 DUP2 JUMP JUMPDEST PUSH2 0x55A DUP3 PUSH2 0x32B JUMP JUMPDEST PUSH2 0x563 DUP2 PUSH2 0x6BC JUMP JUMPDEST PUSH2 0x56D DUP4 DUP4 PUSH2 0x6D8 JUMP JUMPDEST POP POP POP JUMP JUMPDEST PUSH1 0x0 PUSH32 0x1FFC9A700000000000000000000000000000000000000000000000000000000 PUSH28 0xFFFFFFFFFFFFFFFFFFFFFFFFFFFFFFFFFFFFFFFFFFFFFFFFFFFFFFFF NOT AND DUP3 PUSH28 0xFFFFFFFFFFFFFFFFFFFFFFFFFFFFFFFFFFFFFFFFFFFFFFFFFFFFFFFF NOT AND EQ SWAP1 POP SWAP2 SWAP1 POP JUMP JUMPDEST PUSH2 0x5E6 DUP3 DUP3 PUSH2 0x4BC JUMP JUMPDEST PUSH2 0x6B8 JUMPI PUSH1 0x1 PUSH1 0x0 DUP1 DUP5 DUP2 MSTORE PUSH1 0x20 ADD SWAP1 DUP2 MSTORE PUSH1 0x20 ADD PUSH1 0x0 KECCAK256 PUSH1 0x0 ADD PUSH1 0x0 DUP4 PUSH20 0xFFFFFFFFFFFFFFFFFFFFFFFFFFFFFFFFFFFFFFFF AND PUSH20 0xFFFFFFFFFFFFFFFFFFFFFFFFFFFFFFFFFFFFFFFF AND DUP2 MSTORE PUSH1 0x20 ADD SWAP1 DUP2 MSTORE PUSH1 0x20 ADD PUSH1 0x0 KECCAK256 PUSH1 0x0 PUSH2 0x100 EXP DUP2 SLOAD DUP2 PUSH1 0xFF MUL NOT AND SWAP1 DUP4 ISZERO ISZERO MUL OR SWAP1 SSTORE POP PUSH2 0x65D PUSH2 0x6D0 JUMP JUMPDEST PUSH20 0xFFFFFFFFFFFFFFFFFFFFFFFFFFFFFFFFFFFFFFFF AND DUP2 PUSH20 0xFFFFFFFFFFFFFFFFFFFFFFFFFFFFFFFFFFFFFFFF AND DUP4 PUSH32 0x2F8788117E7EFF1D82E926EC794901D17C78024A50270940304540A733656F0D PUSH1 0x40 MLOAD PUSH1 0x40 MLOAD DUP1 SWAP2 SUB SWAP1 LOG4 JUMPDEST POP POP JUMP JUMPDEST PUSH2 0x6CD DUP2 PUSH2 0x6C8 PUSH2 0x6D0 JUMP JUMPDEST PUSH2 0x7B9 JUMP JUMPDEST POP JUMP JUMPDEST PUSH1 0x0 CALLER SWAP1 POP SWAP1 JUMP JUMPDEST PUSH2 0x6E2 DUP3 DUP3 PUSH2 0x4BC JUMP JUMPDEST ISZERO PUSH2 0x7B5 JUMPI PUSH1 0x0 DUP1 PUSH1 0x0 DUP5 DUP2 MSTORE PUSH1 0x20 ADD SWAP1 DUP2 MSTORE PUSH1 0x20 ADD PUSH1 0x0 KECCAK256 PUSH1 0x0 ADD PUSH1 0x0 DUP4 PUSH20 0xFFFFFFFFFFFFFFFFFFFFFFFFFFFFFFFFFFFFFFFF AND PUSH20 0xFFFFFFFFFFFFFFFFFFFFFFFFFFFFFFFFFFFFFFFF AND DUP2 MSTORE PUSH1 0x20 ADD SWAP1 DUP2 MSTORE PUSH1 0x20 ADD PUSH1 0x0 KECCAK256 PUSH1 0x0 PUSH2 0x100 EXP DUP2 SLOAD DUP2 PUSH1 0xFF MUL NOT AND SWAP1 DUP4 ISZERO ISZERO MUL OR SWAP1 SSTORE POP PUSH2 0x75A PUSH2 0x6D0 JUMP JUMPDEST PUSH20 0xFFFFFFFFFFFFFFFFFFFFFFFFFFFFFFFFFFFFFFFF AND DUP2 PUSH20 0xFFFFFFFFFFFFFFFFFFFFFFFFFFFFFFFFFFFFFFFF AND DUP4 PUSH32 0xF6391F5C32D9C69D2A47EA670B442974B53935D1EDC7FD64EB21E047A839171B PUSH1 0x40 MLOAD PUSH1 0x40 MLOAD DUP1 SWAP2 SUB SWAP1 LOG4 JUMPDEST POP POP JUMP JUMPDEST PUSH2 0x7C3 DUP3 DUP3 PUSH2 0x4BC JUMP JUMPDEST PUSH2 0x852 JUMPI PUSH2 0x7E8 DUP2 PUSH20 0xFFFFFFFFFFFFFFFFFFFFFFFFFFFFFFFFFFFFFFFF AND PUSH1 0x14 PUSH2 0x856 JUMP JUMPDEST PUSH2 0x7F6 DUP4 PUSH1 0x0 SHR PUSH1 0x20 PUSH2 0x856 JUMP JUMPDEST PUSH1 0x40 MLOAD PUSH1 0x20 ADD PUSH2 0x807 SWAP3 SWAP2 SWAP1 PUSH2 0xD20 JUMP JUMPDEST PUSH1 0x40 MLOAD PUSH1 0x20 DUP2 DUP4 SUB SUB DUP2 MSTORE SWAP1 PUSH1 0x40 MSTORE PUSH1 0x40 MLOAD PUSH32 0x8C379A000000000000000000000000000000000000000000000000000000000 DUP2 MSTORE PUSH1 0x4 ADD PUSH2 0x849 SWAP2 SWAP1 PUSH2 0xD90 JUMP JUMPDEST PUSH1 0x40 MLOAD DUP1 SWAP2 SUB SWAP1 REVERT JUMPDEST POP POP JUMP JUMPDEST PUSH1 0x60 PUSH1 0x0 PUSH1 0x2 DUP4 PUSH1 0x2 PUSH2 0x869 SWAP2 SWAP1 PUSH2 0xEAA JUMP JUMPDEST PUSH2 0x873 SWAP2 SWAP1 PUSH2 0xE54 JUMP JUMPDEST PUSH8 0xFFFFFFFFFFFFFFFF DUP2 GT ISZERO PUSH2 0x88C JUMPI PUSH2 0x88B PUSH2 0x103D JUMP JUMPDEST JUMPDEST PUSH1 0x40 MLOAD SWAP1 DUP1 DUP3 MSTORE DUP1 PUSH1 0x1F ADD PUSH1 0x1F NOT AND PUSH1 0x20 ADD DUP3 ADD PUSH1 0x40 MSTORE DUP1 ISZERO PUSH2 0x8BE JUMPI DUP2 PUSH1 0x20 ADD PUSH1 0x1 DUP3 MUL DUP1 CALLDATASIZE DUP4 CALLDATACOPY DUP1 DUP3 ADD SWAP2 POP POP SWAP1 POP JUMPDEST POP SWAP1 POP PUSH32 0x3000000000000000000000000000000000000000000000000000000000000000 DUP2 PUSH1 0x0 DUP2 MLOAD DUP2 LT PUSH2 0x8F6 JUMPI PUSH2 0x8F5 PUSH2 0x100E JUMP JUMPDEST JUMPDEST PUSH1 0x20 ADD ADD SWAP1 PUSH31 0xFFFFFFFFFFFFFFFFFFFFFFFFFFFFFFFFFFFFFFFFFFFFFFFFFFFFFFFFFFFFFF NOT AND SWAP1 DUP2 PUSH1 0x0 BYTE SWAP1 MSTORE8 POP PUSH32 0x7800000000000000000000000000000000000000000000000000000000000000 DUP2 PUSH1 0x1 DUP2 MLOAD DUP2 LT PUSH2 0x95A JUMPI PUSH2 0x959 PUSH2 0x100E JUMP JUMPDEST JUMPDEST PUSH1 0x20 ADD ADD SWAP1 PUSH31 0xFFFFFFFFFFFFFFFFFFFFFFFFFFFFFFFFFFFFFFFFFFFFFFFFFFFFFFFFFFFFFF NOT AND SWAP1 DUP2 PUSH1 0x0 BYTE SWAP1 MSTORE8 POP PUSH1 0x0 PUSH1 0x1 DUP5 PUSH1 0x2 PUSH2 0x99A SWAP2 SWAP1 PUSH2 0xEAA JUMP JUMPDEST PUSH2 0x9A4 SWAP2 SWAP1 PUSH2 0xE54 JUMP JUMPDEST SWAP1 POP JUMPDEST PUSH1 0x1 DUP2 GT ISZERO PUSH2 0xA44 JUMPI PUSH32 0x3031323334353637383961626364656600000000000000000000000000000000 PUSH1 0xF DUP7 AND PUSH1 0x10 DUP2 LT PUSH2 0x9E6 JUMPI PUSH2 0x9E5 PUSH2 0x100E JUMP JUMPDEST JUMPDEST BYTE PUSH1 0xF8 SHL DUP3 DUP3 DUP2 MLOAD DUP2 LT PUSH2 0x9FD JUMPI PUSH2 0x9FC PUSH2 0x100E JUMP JUMPDEST JUMPDEST PUSH1 0x20 ADD ADD SWAP1 PUSH31 0xFFFFFFFFFFFFFFFFFFFFFFFFFFFFFFFFFFFFFFFFFFFFFFFFFFFFFFFFFFFFFF NOT AND SWAP1 DUP2 PUSH1 0x0 BYTE SWAP1 MSTORE8 POP PUSH1 0x4 DUP6 SWAP1 SHR SWAP5 POP DUP1 PUSH2 0xA3D SWAP1 PUSH2 0xFB5 JUMP JUMPDEST SWAP1 POP PUSH2 0x9A7 JUMP JUMPDEST POP PUSH1 0x0 DUP5 EQ PUSH2 0xA88 JUMPI PUSH1 0x40 MLOAD PUSH32 0x8C379A000000000000000000000000000000000000000000000000000000000 DUP2 MSTORE PUSH1 0x4 ADD PUSH2 0xA7F SWAP1 PUSH2 0xDB2 JUMP JUMPDEST PUSH1 0x40 MLOAD DUP1 SWAP2 SUB SWAP1 REVERT JUMPDEST DUP1 SWAP2 POP POP SWAP3 SWAP2 POP POP JUMP JUMPDEST PUSH1 0x0 DUP2 CALLDATALOAD SWAP1 POP PUSH2 0xAA1 DUP2 PUSH2 0x11C1 JUMP JUMPDEST SWAP3 SWAP2 POP POP JUMP JUMPDEST PUSH1 0x0 DUP2 CALLDATALOAD SWAP1 POP PUSH2 0xAB6 DUP2 PUSH2 0x11D8 JUMP JUMPDEST SWAP3 SWAP2 POP POP JUMP JUMPDEST PUSH1 0x0 DUP2 CALLDATALOAD SWAP1 POP PUSH2 0xACB DUP2 PUSH2 0x11EF JUMP JUMPDEST SWAP3 SWAP2 POP POP JUMP JUMPDEST PUSH1 0x0 DUP2 CALLDATALOAD SWAP1 POP PUSH2 0xAE0 DUP2 PUSH2 0x1206 JUMP JUMPDEST SWAP3 SWAP2 POP POP JUMP JUMPDEST PUSH1 0x0 PUSH1 0x20 DUP3 DUP5 SUB SLT ISZERO PUSH2 0xAFC JUMPI PUSH2 0xAFB PUSH2 0x106C JUMP JUMPDEST JUMPDEST PUSH1 0x0 PUSH2 0xB0A DUP5 DUP3 DUP6 ADD PUSH2 0xA92 JUMP JUMPDEST SWAP2 POP POP SWAP3 SWAP2 POP POP JUMP JUMPDEST PUSH1 0x0 PUSH1 0x20 DUP3 DUP5 SUB SLT ISZERO PUSH2 0xB29 JUMPI PUSH2 0xB28 PUSH2 0x106C JUMP JUMPDEST JUMPDEST PUSH1 0x0 PUSH2 0xB37 DUP5 DUP3 DUP6 ADD PUSH2 0xAA7 JUMP JUMPDEST SWAP2 POP POP SWAP3 SWAP2 POP POP JUMP JUMPDEST PUSH1 0x0 DUP1 PUSH1 0x40 DUP4 DUP6 SUB SLT ISZERO PUSH2 0xB57 JUMPI PUSH2 0xB56 PUSH2 0x106C JUMP JUMPDEST JUMPDEST PUSH1 0x0 PUSH2 0xB65 DUP6 DUP3 DUP7 ADD PUSH2 0xAA7 JUMP JUMPDEST SWAP3 POP POP PUSH1 0x20 PUSH2 0xB76 DUP6 DUP3 DUP7 ADD PUSH2 0xA92 JUMP JUMPDEST SWAP2 POP POP SWAP3 POP SWAP3 SWAP1 POP JUMP JUMPDEST PUSH1 0x0 PUSH1 0x20 DUP3 DUP5 SUB SLT ISZERO PUSH2 0xB96 JUMPI PUSH2 0xB95 PUSH2 0x106C JUMP JUMPDEST JUMPDEST PUSH1 0x0 PUSH2 0xBA4 DUP5 DUP3 DUP6 ADD PUSH2 0xABC JUMP JUMPDEST SWAP2 POP POP SWAP3 SWAP2 POP POP JUMP JUMPDEST PUSH1 0x0 PUSH1 0x20 DUP3 DUP5 SUB SLT ISZERO PUSH2 0xBC3 JUMPI PUSH2 0xBC2 PUSH2 0x106C JUMP JUMPDEST JUMPDEST PUSH1 0x0 PUSH2 0xBD1 DUP5 DUP3 DUP6 ADD PUSH2 0xAD1 JUMP JUMPDEST SWAP2 POP POP SWAP3 SWAP2 POP POP JUMP JUMPDEST PUSH2 0xBE3 DUP2 PUSH2 0xF16 JUMP JUMPDEST DUP3 MSTORE POP POP JUMP JUMPDEST PUSH2 0xBF2 DUP2 PUSH2 0xF22 JUMP JUMPDEST DUP3 MSTORE POP POP JUMP JUMPDEST PUSH1 0x0 PUSH2 0xC03 DUP3 PUSH2 0xE2D JUMP JUMPDEST PUSH2 0xC0D DUP2 DUP6 PUSH2 0xE38 JUMP JUMPDEST SWAP4 POP PUSH2 0xC1D DUP2 DUP6 PUSH1 0x20 DUP7 ADD PUSH2 0xF82 JUMP JUMPDEST PUSH2 0xC26 DUP2 PUSH2 0x1071 JUMP JUMPDEST DUP5 ADD SWAP2 POP POP SWAP3 SWAP2 POP POP JUMP JUMPDEST PUSH1 0x0 PUSH2 0xC3C DUP3 PUSH2 0xE2D JUMP JUMPDEST PUSH2 0xC46 DUP2 DUP6 PUSH2 0xE49 JUMP JUMPDEST SWAP4 POP PUSH2 0xC56 DUP2 DUP6 PUSH1 0x20 DUP7 ADD PUSH2 0xF82 JUMP JUMPDEST DUP1 DUP5 ADD SWAP2 POP POP SWAP3 SWAP2 POP POP JUMP JUMPDEST PUSH1 0x0 PUSH2 0xC6F PUSH1 0x20 DUP4 PUSH2 0xE38 JUMP JUMPDEST SWAP2 POP PUSH2 0xC7A DUP3 PUSH2 0x1082 JUMP JUMPDEST PUSH1 0x20 DUP3 ADD SWAP1 POP SWAP2 SWAP1 POP JUMP JUMPDEST PUSH1 0x0 PUSH2 0xC92 PUSH1 0x42 DUP4 PUSH2 0xE38 JUMP JUMPDEST SWAP2 POP PUSH2 0xC9D DUP3 PUSH2 0x10AB JUMP JUMPDEST PUSH1 0x60 DUP3 ADD SWAP1 POP SWAP2 SWAP1 POP JUMP JUMPDEST PUSH1 0x0 PUSH2 0xCB5 PUSH1 0x17 DUP4 PUSH2 0xE49 JUMP JUMPDEST SWAP2 POP PUSH2 0xCC0 DUP3 PUSH2 0x1120 JUMP JUMPDEST PUSH1 0x17 DUP3 ADD SWAP1 POP SWAP2 SWAP1 POP JUMP JUMPDEST PUSH1 0x0 PUSH2 0xCD8 PUSH1 0x11 DUP4 PUSH2 0xE49 JUMP JUMPDEST SWAP2 POP PUSH2 0xCE3 DUP3 PUSH2 0x1149 JUMP JUMPDEST PUSH1 0x11 DUP3 ADD SWAP1 POP SWAP2 SWAP1 POP JUMP JUMPDEST PUSH1 0x0 PUSH2 0xCFB PUSH1 0x2F DUP4 PUSH2 0xE38 JUMP JUMPDEST SWAP2 POP PUSH2 0xD06 DUP3 PUSH2 0x1172 JUMP JUMPDEST PUSH1 0x40 DUP3 ADD SWAP1 POP SWAP2 SWAP1 POP JUMP JUMPDEST PUSH2 0xD1A DUP2 PUSH2 0xF78 JUMP JUMPDEST DUP3 MSTORE POP POP JUMP JUMPDEST PUSH1 0x0 PUSH2 0xD2B DUP3 PUSH2 0xCA8 JUMP JUMPDEST SWAP2 POP PUSH2 0xD37 DUP3 DUP6 PUSH2 0xC31 JUMP JUMPDEST SWAP2 POP PUSH2 0xD42 DUP3 PUSH2 0xCCB JUMP JUMPDEST SWAP2 POP PUSH2 0xD4E DUP3 DUP5 PUSH2 0xC31 JUMP JUMPDEST SWAP2 POP DUP2 SWAP1 POP SWAP4 SWAP3 POP POP POP JUMP JUMPDEST PUSH1 0x0 PUSH1 0x20 DUP3 ADD SWAP1 POP PUSH2 0xD6F PUSH1 0x0 DUP4 ADD DUP5 PUSH2 0xBDA JUMP JUMPDEST SWAP3 SWAP2 POP POP JUMP JUMPDEST PUSH1 0x0 PUSH1 0x20 DUP3 ADD SWAP1 POP PUSH2 0xD8A PUSH1 0x0 DUP4 ADD DUP5 PUSH2 0xBE9 JUMP JUMPDEST SWAP3 SWAP2 POP POP JUMP JUMPDEST PUSH1 0x0 PUSH1 0x20 DUP3 ADD SWAP1 POP DUP2 DUP2 SUB PUSH1 0x0 DUP4 ADD MSTORE PUSH2 0xDAA DUP2 DUP5 PUSH2 0xBF8 JUMP JUMPDEST SWAP1 POP SWAP3 SWAP2 POP POP JUMP JUMPDEST PUSH1 0x0 PUSH1 0x20 DUP3 ADD SWAP1 POP DUP2 DUP2 SUB PUSH1 0x0 DUP4 ADD MSTORE PUSH2 0xDCB DUP2 PUSH2 0xC62 JUMP JUMPDEST SWAP1 POP SWAP2 SWAP1 POP JUMP JUMPDEST PUSH1 0x0 PUSH1 0x20 DUP3 ADD SWAP1 POP DUP2 DUP2 SUB PUSH1 0x0 DUP4 ADD MSTORE PUSH2 0xDEB DUP2 PUSH2 0xC85 JUMP JUMPDEST SWAP1 POP SWAP2 SWAP1 POP JUMP JUMPDEST PUSH1 0x0 PUSH1 0x20 DUP3 ADD SWAP1 POP DUP2 DUP2 SUB PUSH1 0x0 DUP4 ADD MSTORE PUSH2 0xE0B DUP2 PUSH2 0xCEE JUMP JUMPDEST SWAP1 POP SWAP2 SWAP1 POP JUMP JUMPDEST PUSH1 0x0 PUSH1 0x20 DUP3 ADD SWAP1 POP PUSH2 0xE27 PUSH1 0x0 DUP4 ADD DUP5 PUSH2 0xD11 JUMP JUMPDEST SWAP3 SWAP2 POP POP JUMP JUMPDEST PUSH1 0x0 DUP2 MLOAD SWAP1 POP SWAP2 SWAP1 POP JUMP JUMPDEST PUSH1 0x0 DUP3 DUP3 MSTORE PUSH1 0x20 DUP3 ADD SWAP1 POP SWAP3 SWAP2 POP POP JUMP JUMPDEST PUSH1 0x0 DUP2 SWAP1 POP SWAP3 SWAP2 POP POP JUMP JUMPDEST PUSH1 0x0 PUSH2 0xE5F DUP3 PUSH2 0xF78 JUMP JUMPDEST SWAP2 POP PUSH2 0xE6A DUP4 PUSH2 0xF78 JUMP JUMPDEST SWAP3 POP DUP3 PUSH32 0xFFFFFFFFFFFFFFFFFFFFFFFFFFFFFFFFFFFFFFFFFFFFFFFFFFFFFFFFFFFFFFFF SUB DUP3 GT ISZERO PUSH2 0xE9F JUMPI PUSH2 0xE9E PUSH2 0xFDF JUMP JUMPDEST JUMPDEST DUP3 DUP3 ADD SWAP1 POP SWAP3 SWAP2 POP POP JUMP JUMPDEST PUSH1 0x0 PUSH2 0xEB5 DUP3 PUSH2 0xF78 JUMP JUMPDEST SWAP2 POP PUSH2 0xEC0 DUP4 PUSH2 0xF78 JUMP JUMPDEST SWAP3 POP DUP2 PUSH32 0xFFFFFFFFFFFFFFFFFFFFFFFFFFFFFFFFFFFFFFFFFFFFFFFFFFFFFFFFFFFFFFFF DIV DUP4 GT DUP3 ISZERO ISZERO AND ISZERO PUSH2 0xEF9 JUMPI PUSH2 0xEF8 PUSH2 0xFDF JUMP JUMPDEST JUMPDEST DUP3 DUP3 MUL SWAP1 POP SWAP3 SWAP2 POP POP JUMP JUMPDEST PUSH1 0x0 PUSH2 0xF0F DUP3 PUSH2 0xF58 JUMP JUMPDEST SWAP1 POP SWAP2 SWAP1 POP JUMP JUMPDEST PUSH1 0x0 DUP2 ISZERO ISZERO SWAP1 POP SWAP2 SWAP1 POP JUMP JUMPDEST PUSH1 0x0 DUP2 SWAP1 POP SWAP2 SWAP1 POP JUMP JUMPDEST PUSH1 0x0 PUSH32 0xFFFFFFFF00000000000000000000000000000000000000000000000000000000 DUP3 AND SWAP1 POP SWAP2 SWAP1 POP JUMP JUMPDEST PUSH1 0x0 PUSH20 0xFFFFFFFFFFFFFFFFFFFFFFFFFFFFFFFFFFFFFFFF DUP3 AND SWAP1 POP SWAP2 SWAP1 POP JUMP JUMPDEST PUSH1 0x0 DUP2 SWAP1 POP SWAP2 SWAP1 POP JUMP JUMPDEST PUSH1 0x0 JUMPDEST DUP4 DUP2 LT ISZERO PUSH2 0xFA0 JUMPI DUP1 DUP3 ADD MLOAD DUP2 DUP5 ADD MSTORE PUSH1 0x20 DUP2 ADD SWAP1 POP PUSH2 0xF85 JUMP JUMPDEST DUP4 DUP2 GT ISZERO PUSH2 0xFAF JUMPI PUSH1 0x0 DUP5 DUP5 ADD MSTORE JUMPDEST POP POP POP POP JUMP JUMPDEST PUSH1 0x0 PUSH2 0xFC0 DUP3 PUSH2 0xF78 JUMP JUMPDEST SWAP2 POP PUSH1 0x0 DUP3 EQ ISZERO PUSH2 0xFD4 JUMPI PUSH2 0xFD3 PUSH2 0xFDF JUMP JUMPDEST JUMPDEST PUSH1 0x1 DUP3 SUB SWAP1 POP SWAP2 SWAP1 POP JUMP JUMPDEST PUSH32 0x4E487B7100000000000000000000000000000000000000000000000000000000 PUSH1 0x0 MSTORE PUSH1 0x11 PUSH1 0x4 MSTORE PUSH1 0x24 PUSH1 0x0 REVERT JUMPDEST PUSH32 0x4E487B7100000000000000000000000000000000000000000000000000000000 PUSH1 0x0 MSTORE PUSH1 0x32 PUSH1 0x4 MSTORE PUSH1 0x24 PUSH1 0x0 REVERT JUMPDEST PUSH32 0x4E487B7100000000000000000000000000000000000000000000000000000000 PUSH1 0x0 MSTORE PUSH1 0x41 PUSH1 0x4 MSTORE PUSH1 0x24 PUSH1 0x0 REVERT JUMPDEST PUSH1 0x0 DUP1 REVERT JUMPDEST PUSH1 0x0 PUSH1 0x1F NOT PUSH1 0x1F DUP4 ADD AND SWAP1 POP SWAP2 SWAP1 POP JUMP JUMPDEST PUSH32 0x537472696E67733A20686578206C656E67746820696E73756666696369656E74 PUSH1 0x0 DUP3 ADD MSTORE POP JUMP JUMPDEST PUSH32 0x456C207573756172696F206E6F207469656E6520656C20726F6C205752495445 PUSH1 0x0 DUP3 ADD MSTORE PUSH32 0x52207061726120656A656375746172206C612066756E63696F6E2053746F7261 PUSH1 0x20 DUP3 ADD MSTORE PUSH32 0x6765000000000000000000000000000000000000000000000000000000000000 PUSH1 0x40 DUP3 ADD MSTORE POP JUMP JUMPDEST PUSH32 0x416363657373436F6E74726F6C3A206163636F756E7420000000000000000000 PUSH1 0x0 DUP3 ADD MSTORE POP JUMP JUMPDEST PUSH32 0x206973206D697373696E6720726F6C6520000000000000000000000000000000 PUSH1 0x0 DUP3 ADD MSTORE POP JUMP JUMPDEST PUSH32 0x416363657373436F6E74726F6C3A2063616E206F6E6C792072656E6F756E6365 PUSH1 0x0 DUP3 ADD MSTORE PUSH32 0x20726F6C657320666F722073656C660000000000000000000000000000000000 PUSH1 0x20 DUP3 ADD MSTORE POP JUMP JUMPDEST PUSH2 0x11CA DUP2 PUSH2 0xF04 JUMP JUMPDEST DUP2 EQ PUSH2 0x11D5 JUMPI PUSH1 0x0 DUP1 REVERT JUMPDEST POP JUMP JUMPDEST PUSH2 0x11E1 DUP2 PUSH2 0xF22 JUMP JUMPDEST DUP2 EQ PUSH2 0x11EC JUMPI PUSH1 0x0 DUP1 REVERT JUMPDEST POP JUMP JUMPDEST PUSH2 0x11F8 DUP2 PUSH2 0xF2C JUMP JUMPDEST DUP2 EQ PUSH2 0x1203 JUMPI PUSH1 0x0 DUP1 REVERT JUMPDEST POP JUMP JUMPDEST PUSH2 0x120F DUP2 PUSH2 0xF78 JUMP JUMPDEST DUP2 EQ PUSH2 0x121A JUMPI PUSH1 0x0 DUP1 REVERT JUMPDEST POP JUMP INVALID LOG2 PUSH5 0x6970667358 0x22 SLT KECCAK256 0xA7 0x24 SWAP5 0xC5 0xA6 GASPRICE 0xC5 0xE3 0xC9 SMOD PUSH11 0x596EAA9B2737412DA1A9C3 LOG2 PUSH9 0x402AE4C9CCC83A3164 PUSH20 0x6F6C634300080700330000000000000000000000 "
				},
				"gasEstimates": {
					"creation": {
						"codeDepositCost": "938200",
						"executionCost": "975",
						"totalCost": "939175"
					},
					"external": {
						"DEFAULT_ADMIN_ROLE()": "379",
						"ROL_ADMIN()": "395",
						"ROL_WRITER()": "352",
						"agregarWriter(address)": "29285",
						"getRoleAdmin(bytes32)": "infinite",
						"grantRole(bytes32,address)": "infinite",
						"hasRole(bytes32,address)": "3162",
						"quitarWriter(address)": "29310",
						"renounceRole(bytes32,address)": "infinite",
						"retrieve()": "2504",
						"revokeRole(bytes32,address)": "infinite",
						"store(uint256)": "24961",
						"supportsInterface(bytes4)": "728"
					}
				},
				"methodIdentifiers": {
					"DEFAULT_ADMIN_ROLE()": "a217fddf",
					"ROL_ADMIN()": "adec03fc",
					"ROL_WRITER()": "45d49420",
					"agregarWriter(address)": "235ef56f",
					"getRoleAdmin(bytes32)": "248a9ca3",
					"grantRole(bytes32,address)": "2f2ff15d",
					"hasRole(bytes32,address)": "91d14854",
					"quitarWriter(address)": "4c2e19d0",
					"renounceRole(bytes32,address)": "36568abe",
					"retrieve()": "2e64cec1",
					"revokeRole(bytes32,address)": "d547741f",
					"store(uint256)": "6057361d",
					"supportsInterface(bytes4)": "01ffc9a7"
				}
			},
			"storageLayout": {
				"storage": [
					{
						"astId": 24,
						"contract": "contracts/Openzeppelin/ControlAccesoReto.sol:ControlAccesoReto",
						"label": "_roles",
						"offset": 0,
						"slot": "0",
						"type": "t_mapping(t_bytes32,t_struct(RoleData)19_storage)"
					},
					{
						"astId": 684,
						"contract": "contracts/Openzeppelin/ControlAccesoReto.sol:ControlAccesoReto",
						"label": "number",
						"offset": 0,
						"slot": "1",
						"type": "t_uint256"
					}
				],
				"types": {
					"t_address": {
						"encoding": "inplace",
						"label": "address",
						"numberOfBytes": "20"
					},
					"t_bool": {
						"encoding": "inplace",
						"label": "bool",
						"numberOfBytes": "1"
					},
					"t_bytes32": {
						"encoding": "inplace",
						"label": "bytes32",
						"numberOfBytes": "32"
					},
					"t_mapping(t_address,t_bool)": {
						"encoding": "mapping",
						"key": "t_address",
						"label": "mapping(address => bool)",
						"numberOfBytes": "32",
						"value": "t_bool"
					},
					"t_mapping(t_bytes32,t_struct(RoleData)19_storage)": {
						"encoding": "mapping",
						"key": "t_bytes32",
						"label": "mapping(bytes32 => struct AccessControl.RoleData)",
						"numberOfBytes": "32",
						"value": "t_struct(RoleData)19_storage"
					},
					"t_struct(RoleData)19_storage": {
						"encoding": "inplace",
						"label": "struct AccessControl.RoleData",
						"members": [
							{
								"astId": 16,
								"contract": "contracts/Openzeppelin/ControlAccesoReto.sol:ControlAccesoReto",
								"label": "members",
								"offset": 0,
								"slot": "0",
								"type": "t_mapping(t_address,t_bool)"
							},
							{
								"astId": 18,
								"contract": "contracts/Openzeppelin/ControlAccesoReto.sol:ControlAccesoReto",
								"label": "adminRole",
								"offset": 0,
								"slot": "1",
								"type": "t_bytes32"
							}
						],
						"numberOfBytes": "64"
					},
					"t_uint256": {
						"encoding": "inplace",
						"label": "uint256",
						"numberOfBytes": "32"
					}
				}
			},
			"userdoc": {
				"kind": "user",
				"methods": {},
				"version": 1
			}
		}
	}
}