{
	"contracts/Openzeppelin/DesafioUtil.sol": {
		"DesafioUtil": {
			"abi": [
				{
					"inputs": [
						{
							"internalType": "address",
							"name": "direccionValidar",
							"type": "address"
						}
					],
					"name": "esERC20",
					"outputs": [
						{
							"internalType": "bool",
							"name": "",
							"type": "bool"
						}
					],
					"stateMutability": "view",
					"type": "function"
				},
				{
					"inputs": [
						{
							"internalType": "address",
							"name": "direccionValidar",
							"type": "address"
						}
					],
					"name": "esERC721",
					"outputs": [
						{
							"internalType": "bool",
							"name": "",
							"type": "bool"
						}
					],
					"stateMutability": "view",
					"type": "function"
				}
			],
			"devdoc": {
				"kind": "dev",
				"methods": {},
				"version": 1
			},
			"evm": {
				"assembly": "    /* \"contracts/Openzeppelin/DesafioUtil.sol\":892:1334  contract DesafioUtil {\r... */\n  mstore(0x40, 0x80)\n  callvalue\n  dup1\n  iszero\n  tag_1\n  jumpi\n  0x00\n  dup1\n  revert\ntag_1:\n  pop\n  dataSize(sub_0)\n  dup1\n  dataOffset(sub_0)\n  0x00\n  codecopy\n  0x00\n  return\nstop\n\nsub_0: assembly {\n        /* \"contracts/Openzeppelin/DesafioUtil.sol\":892:1334  contract DesafioUtil {\r... */\n      mstore(0x40, 0x80)\n      callvalue\n      dup1\n      iszero\n      tag_1\n      jumpi\n      0x00\n      dup1\n      revert\n    tag_1:\n      pop\n      jumpi(tag_2, lt(calldatasize, 0x04))\n      shr(0xe0, calldataload(0x00))\n      dup1\n      0x0a6e3308\n      eq\n      tag_3\n      jumpi\n      dup1\n      0xade60f01\n      eq\n      tag_4\n      jumpi\n    tag_2:\n      0x00\n      dup1\n      revert\n        /* \"contracts/Openzeppelin/DesafioUtil.sol\":1241:1331  function esERC721 (address direccionValidar) public view returns (bool) {\r... */\n    tag_3:\n      tag_5\n      0x04\n      dup1\n      calldatasize\n      sub\n      dup2\n      add\n      swap1\n      tag_6\n      swap2\n      swap1\n      tag_7\n      jump\t// in\n    tag_6:\n      tag_8\n      jump\t// in\n    tag_5:\n      mload(0x40)\n      tag_9\n      swap2\n      swap1\n      tag_10\n      jump\t// in\n    tag_9:\n      mload(0x40)\n      dup1\n      swap2\n      sub\n      swap1\n      return\n        /* \"contracts/Openzeppelin/DesafioUtil.sol\":1052:1233  function esERC20(address direccionValidar) public view returns (bool) {\r... */\n    tag_4:\n      tag_11\n      0x04\n      dup1\n      calldatasize\n      sub\n      dup2\n      add\n      swap1\n      tag_12\n      swap2\n      swap1\n      tag_7\n      jump\t// in\n    tag_12:\n      tag_13\n      jump\t// in\n    tag_11:\n      mload(0x40)\n      tag_14\n      swap2\n      swap1\n      tag_10\n      jump\t// in\n    tag_14:\n      mload(0x40)\n      dup1\n      swap2\n      sub\n      swap1\n      return\n        /* \"contracts/Openzeppelin/DesafioUtil.sol\":1241:1331  function esERC721 (address direccionValidar) public view returns (bool) {\r... */\n    tag_8:\n        /* \"contracts/Openzeppelin/DesafioUtil.sol\":1307:1311  bool */\n      0x00\n        /* \"contracts/Openzeppelin/DesafioUtil.sol\":1241:1331  function esERC721 (address direccionValidar) public view returns (bool) {\r... */\n      swap2\n      swap1\n      pop\n      jump\t// out\n        /* \"contracts/Openzeppelin/DesafioUtil.sol\":1052:1233  function esERC20(address direccionValidar) public view returns (bool) {\r... */\n    tag_13:\n        /* \"contracts/Openzeppelin/DesafioUtil.sol\":1116:1120  bool */\n      0x00\n        /* \"contracts/Openzeppelin/DesafioUtil.sol\":1133:1142  bytes4 id */\n      dup1\n        /* \"contracts/Openzeppelin/DesafioUtil.sol\":1145:1169  type(IERC20).interfaceId */\n      0x36372b0700000000000000000000000000000000000000000000000000000000\n        /* \"contracts/Openzeppelin/DesafioUtil.sol\":1133:1169  bytes4 id = type(IERC20).interfaceId */\n      swap1\n      pop\n        /* \"contracts/Openzeppelin/DesafioUtil.sol\":1187:1225  direccionValidar.supportsInterface(id) */\n      tag_17\n        /* \"contracts/Openzeppelin/DesafioUtil.sol\":1222:1224  id */\n      dup2\n        /* \"contracts/Openzeppelin/DesafioUtil.sol\":1187:1203  direccionValidar */\n      dup5\n        /* \"contracts/Openzeppelin/DesafioUtil.sol\":1187:1221  direccionValidar.supportsInterface */\n      0xffffffffffffffffffffffffffffffffffffffff\n      and\n      tag_18\n      swap1\n        /* \"contracts/Openzeppelin/DesafioUtil.sol\":1187:1225  direccionValidar.supportsInterface(id) */\n      swap2\n      swap1\n      0xffffffff\n      and\n      jump\t// in\n    tag_17:\n        /* \"contracts/Openzeppelin/DesafioUtil.sol\":1180:1225  return direccionValidar.supportsInterface(id) */\n      swap2\n      pop\n      pop\n        /* \"contracts/Openzeppelin/DesafioUtil.sol\":1052:1233  function esERC20(address direccionValidar) public view returns (bool) {\r... */\n      swap2\n      swap1\n      pop\n      jump\t// out\n        /* \"@openzeppelin/contracts/utils/introspection/ERC165Checker.sol\":1333:1607  function supportsInterface(address account, bytes4 interfaceId) internal view returns (bool) {... */\n    tag_18:\n        /* \"@openzeppelin/contracts/utils/introspection/ERC165Checker.sol\":1420:1424  bool */\n      0x00\n        /* \"@openzeppelin/contracts/utils/introspection/ERC165Checker.sol\":1527:1550  supportsERC165(account) */\n      tag_20\n        /* \"@openzeppelin/contracts/utils/introspection/ERC165Checker.sol\":1542:1549  account */\n      dup4\n        /* \"@openzeppelin/contracts/utils/introspection/ERC165Checker.sol\":1527:1541  supportsERC165 */\n      tag_21\n        /* \"@openzeppelin/contracts/utils/introspection/ERC165Checker.sol\":1527:1550  supportsERC165(account) */\n      jump\t// in\n    tag_20:\n        /* \"@openzeppelin/contracts/utils/introspection/ERC165Checker.sol\":1527:1600  supportsERC165(account) && _supportsERC165Interface(account, interfaceId) */\n      dup1\n      iszero\n      tag_22\n      jumpi\n      pop\n        /* \"@openzeppelin/contracts/utils/introspection/ERC165Checker.sol\":1554:1600  _supportsERC165Interface(account, interfaceId) */\n      tag_23\n        /* \"@openzeppelin/contracts/utils/introspection/ERC165Checker.sol\":1579:1586  account */\n      dup4\n        /* \"@openzeppelin/contracts/utils/introspection/ERC165Checker.sol\":1588:1599  interfaceId */\n      dup4\n        /* \"@openzeppelin/contracts/utils/introspection/ERC165Checker.sol\":1554:1578  _supportsERC165Interface */\n      tag_24\n        /* \"@openzeppelin/contracts/utils/introspection/ERC165Checker.sol\":1554:1600  _supportsERC165Interface(account, interfaceId) */\n      jump\t// in\n    tag_23:\n        /* \"@openzeppelin/contracts/utils/introspection/ERC165Checker.sol\":1527:1600  supportsERC165(account) && _supportsERC165Interface(account, interfaceId) */\n    tag_22:\n        /* \"@openzeppelin/contracts/utils/introspection/ERC165Checker.sol\":1520:1600  return supportsERC165(account) && _supportsERC165Interface(account, interfaceId) */\n      swap1\n      pop\n        /* \"@openzeppelin/contracts/utils/introspection/ERC165Checker.sol\":1333:1607  function supportsInterface(address account, bytes4 interfaceId) internal view returns (bool) {... */\n      swap3\n      swap2\n      pop\n      pop\n      jump\t// out\n        /* \"@openzeppelin/contracts/utils/introspection/ERC165Checker.sol\":704:1115  function supportsERC165(address account) internal view returns (bool) {... */\n    tag_21:\n        /* \"@openzeppelin/contracts/utils/introspection/ERC165Checker.sol\":768:772  bool */\n      0x00\n        /* \"@openzeppelin/contracts/utils/introspection/ERC165Checker.sol\":975:1035  _supportsERC165Interface(account, type(IERC165).interfaceId) */\n      tag_26\n        /* \"@openzeppelin/contracts/utils/introspection/ERC165Checker.sol\":1000:1007  account */\n      dup3\n        /* \"@openzeppelin/contracts/utils/introspection/ERC165Checker.sol\":1009:1034  type(IERC165).interfaceId */\n      0x01ffc9a700000000000000000000000000000000000000000000000000000000\n        /* \"@openzeppelin/contracts/utils/introspection/ERC165Checker.sol\":975:999  _supportsERC165Interface */\n      tag_24\n        /* \"@openzeppelin/contracts/utils/introspection/ERC165Checker.sol\":975:1035  _supportsERC165Interface(account, type(IERC165).interfaceId) */\n      jump\t// in\n    tag_26:\n        /* \"@openzeppelin/contracts/utils/introspection/ERC165Checker.sol\":975:1108  _supportsERC165Interface(account, type(IERC165).interfaceId) &&... */\n      dup1\n      iszero\n      tag_27\n      jumpi\n      pop\n        /* \"@openzeppelin/contracts/utils/introspection/ERC165Checker.sol\":1052:1108  _supportsERC165Interface(account, _INTERFACE_ID_INVALID) */\n      tag_28\n        /* \"@openzeppelin/contracts/utils/introspection/ERC165Checker.sol\":1077:1084  account */\n      dup3\n        /* \"@openzeppelin/contracts/utils/introspection/ERC165Checker.sol\":599:609  0xffffffff */\n      0xffffffff\n        /* \"@openzeppelin/contracts/utils/introspection/ERC165Checker.sol\":1086:1107  _INTERFACE_ID_INVALID */\n      0xe0\n      shl\n        /* \"@openzeppelin/contracts/utils/introspection/ERC165Checker.sol\":1052:1076  _supportsERC165Interface */\n      tag_24\n        /* \"@openzeppelin/contracts/utils/introspection/ERC165Checker.sol\":1052:1108  _supportsERC165Interface(account, _INTERFACE_ID_INVALID) */\n      jump\t// in\n    tag_28:\n        /* \"@openzeppelin/contracts/utils/introspection/ERC165Checker.sol\":1051:1108  !_supportsERC165Interface(account, _INTERFACE_ID_INVALID) */\n      iszero\n        /* \"@openzeppelin/contracts/utils/introspection/ERC165Checker.sol\":975:1108  _supportsERC165Interface(account, type(IERC165).interfaceId) &&... */\n    tag_27:\n        /* \"@openzeppelin/contracts/utils/introspection/ERC165Checker.sol\":956:1108  return... */\n      swap1\n      pop\n        /* \"@openzeppelin/contracts/utils/introspection/ERC165Checker.sol\":704:1115  function supportsERC165(address account) internal view returns (bool) {... */\n      swap2\n      swap1\n      pop\n      jump\t// out\n        /* \"@openzeppelin/contracts/utils/introspection/ERC165Checker.sol\":4223:4861  function _supportsERC165Interface(address account, bytes4 interfaceId) private view returns (bool) {... */\n    tag_24:\n        /* \"@openzeppelin/contracts/utils/introspection/ERC165Checker.sol\":4316:4320  bool */\n      0x00\n        /* \"@openzeppelin/contracts/utils/introspection/ERC165Checker.sol\":4356:4382  bytes memory encodedParams */\n      dup1\n        /* \"@openzeppelin/contracts/utils/introspection/ERC165Checker.sol\":4408:4442  IERC165.supportsInterface.selector */\n      shl(0xe0, 0x01ffc9a7)\n        /* \"@openzeppelin/contracts/utils/introspection/ERC165Checker.sol\":4444:4455  interfaceId */\n      dup4\n        /* \"@openzeppelin/contracts/utils/introspection/ERC165Checker.sol\":4385:4456  abi.encodeWithSelector(IERC165.supportsInterface.selector, interfaceId) */\n      add(0x24, mload(0x40))\n      tag_30\n      swap2\n      swap1\n      tag_31\n      jump\t// in\n    tag_30:\n      mload(0x40)\n      0x20\n      dup2\n      dup4\n      sub\n      sub\n      dup2\n      mstore\n      swap1\n      0x40\n      mstore\n      swap1\n      not(0xffffffffffffffffffffffffffffffffffffffffffffffffffffffff)\n      and\n      0x20\n      dup3\n      add\n      dup1\n      mload\n      0xffffffffffffffffffffffffffffffffffffffffffffffffffffffff\n      dup4\n      dup2\n      dup4\n      and\n      or\n      dup4\n      mstore\n      pop\n      pop\n      pop\n      pop\n        /* \"@openzeppelin/contracts/utils/introspection/ERC165Checker.sol\":4356:4456  bytes memory encodedParams = abi.encodeWithSelector(IERC165.supportsInterface.selector, interfaceId) */\n      swap1\n      pop\n        /* \"@openzeppelin/contracts/utils/introspection/ERC165Checker.sol\":4498:4510  bool success */\n      0x00\n        /* \"@openzeppelin/contracts/utils/introspection/ERC165Checker.sol\":4520:4538  uint256 returnSize */\n      dup1\n        /* \"@openzeppelin/contracts/utils/introspection/ERC165Checker.sol\":4548:4567  uint256 returnValue */\n      0x00\n        /* \"@openzeppelin/contracts/utils/introspection/ERC165Checker.sol\":4692:4696  0x20 */\n      0x20\n        /* \"@openzeppelin/contracts/utils/introspection/ERC165Checker.sol\":4686:4690  0x00 */\n      0x00\n        /* \"@openzeppelin/contracts/utils/introspection/ERC165Checker.sol\":4670:4683  encodedParams */\n      dup6\n        /* \"@openzeppelin/contracts/utils/introspection/ERC165Checker.sol\":4664:4684  mload(encodedParams) */\n      mload\n        /* \"@openzeppelin/contracts/utils/introspection/ERC165Checker.sol\":4657:4661  0x20 */\n      0x20\n        /* \"@openzeppelin/contracts/utils/introspection/ERC165Checker.sol\":4642:4655  encodedParams */\n      dup8\n        /* \"@openzeppelin/contracts/utils/introspection/ERC165Checker.sol\":4638:4662  add(encodedParams, 0x20) */\n      add\n        /* \"@openzeppelin/contracts/utils/introspection/ERC165Checker.sol\":4629:4636  account */\n      dup11\n        /* \"@openzeppelin/contracts/utils/introspection/ERC165Checker.sol\":4622:4627  30000 */\n      0x7530\n        /* \"@openzeppelin/contracts/utils/introspection/ERC165Checker.sol\":4611:4697  staticcall(30000, account, add(encodedParams, 0x20), mload(encodedParams), 0x00, 0x20) */\n      staticcall\n        /* \"@openzeppelin/contracts/utils/introspection/ERC165Checker.sol\":4600:4697  success := staticcall(30000, account, add(encodedParams, 0x20), mload(encodedParams), 0x00, 0x20) */\n      swap3\n      pop\n        /* \"@openzeppelin/contracts/utils/introspection/ERC165Checker.sol\":4724:4740  returndatasize() */\n      returndatasize\n        /* \"@openzeppelin/contracts/utils/introspection/ERC165Checker.sol\":4710:4740  returnSize := returndatasize() */\n      swap2\n      pop\n        /* \"@openzeppelin/contracts/utils/introspection/ERC165Checker.sol\":4774:4778  0x00 */\n      0x00\n        /* \"@openzeppelin/contracts/utils/introspection/ERC165Checker.sol\":4768:4779  mload(0x00) */\n      mload\n        /* \"@openzeppelin/contracts/utils/introspection/ERC165Checker.sol\":4753:4779  returnValue := mload(0x00) */\n      swap1\n      pop\n        /* \"@openzeppelin/contracts/utils/introspection/ERC165Checker.sol\":4806:4813  success */\n      dup3\n        /* \"@openzeppelin/contracts/utils/introspection/ERC165Checker.sol\":4806:4835  success && returnSize >= 0x20 */\n      dup1\n      iszero\n      tag_32\n      jumpi\n      pop\n        /* \"@openzeppelin/contracts/utils/introspection/ERC165Checker.sol\":4831:4835  0x20 */\n      0x20\n        /* \"@openzeppelin/contracts/utils/introspection/ERC165Checker.sol\":4817:4827  returnSize */\n      dup3\n        /* \"@openzeppelin/contracts/utils/introspection/ERC165Checker.sol\":4817:4835  returnSize >= 0x20 */\n      lt\n      iszero\n        /* \"@openzeppelin/contracts/utils/introspection/ERC165Checker.sol\":4806:4835  success && returnSize >= 0x20 */\n    tag_32:\n        /* \"@openzeppelin/contracts/utils/introspection/ERC165Checker.sol\":4806:4854  success && returnSize >= 0x20 && returnValue > 0 */\n      dup1\n      iszero\n      tag_33\n      jumpi\n      pop\n        /* \"@openzeppelin/contracts/utils/introspection/ERC165Checker.sol\":4853:4854  0 */\n      0x00\n        /* \"@openzeppelin/contracts/utils/introspection/ERC165Checker.sol\":4839:4850  returnValue */\n      dup2\n        /* \"@openzeppelin/contracts/utils/introspection/ERC165Checker.sol\":4839:4854  returnValue > 0 */\n      gt\n        /* \"@openzeppelin/contracts/utils/introspection/ERC165Checker.sol\":4806:4854  success && returnSize >= 0x20 && returnValue > 0 */\n    tag_33:\n        /* \"@openzeppelin/contracts/utils/introspection/ERC165Checker.sol\":4799:4854  return success && returnSize >= 0x20 && returnValue > 0 */\n      swap5\n      pop\n      pop\n      pop\n      pop\n      pop\n        /* \"@openzeppelin/contracts/utils/introspection/ERC165Checker.sol\":4223:4861  function _supportsERC165Interface(address account, bytes4 interfaceId) private view returns (bool) {... */\n      swap3\n      swap2\n      pop\n      pop\n      jump\t// out\n        /* \"#utility.yul\":7:146   */\n    tag_35:\n        /* \"#utility.yul\":53:58   */\n      0x00\n        /* \"#utility.yul\":91:97   */\n      dup2\n        /* \"#utility.yul\":78:98   */\n      calldataload\n        /* \"#utility.yul\":69:98   */\n      swap1\n      pop\n        /* \"#utility.yul\":107:140   */\n      tag_37\n        /* \"#utility.yul\":134:139   */\n      dup2\n        /* \"#utility.yul\":107:140   */\n      tag_38\n      jump\t// in\n    tag_37:\n        /* \"#utility.yul\":7:146   */\n      swap3\n      swap2\n      pop\n      pop\n      jump\t// out\n        /* \"#utility.yul\":152:481   */\n    tag_7:\n        /* \"#utility.yul\":211:217   */\n      0x00\n        /* \"#utility.yul\":260:262   */\n      0x20\n        /* \"#utility.yul\":248:257   */\n      dup3\n        /* \"#utility.yul\":239:246   */\n      dup5\n        /* \"#utility.yul\":235:258   */\n      sub\n        /* \"#utility.yul\":231:263   */\n      slt\n        /* \"#utility.yul\":228:347   */\n      iszero\n      tag_40\n      jumpi\n        /* \"#utility.yul\":266:345   */\n      tag_41\n      tag_42\n      jump\t// in\n    tag_41:\n        /* \"#utility.yul\":228:347   */\n    tag_40:\n        /* \"#utility.yul\":386:387   */\n      0x00\n        /* \"#utility.yul\":411:464   */\n      tag_43\n        /* \"#utility.yul\":456:463   */\n      dup5\n        /* \"#utility.yul\":447:453   */\n      dup3\n        /* \"#utility.yul\":436:445   */\n      dup6\n        /* \"#utility.yul\":432:454   */\n      add\n        /* \"#utility.yul\":411:464   */\n      tag_35\n      jump\t// in\n    tag_43:\n        /* \"#utility.yul\":401:464   */\n      swap2\n      pop\n        /* \"#utility.yul\":357:474   */\n      pop\n        /* \"#utility.yul\":152:481   */\n      swap3\n      swap2\n      pop\n      pop\n      jump\t// out\n        /* \"#utility.yul\":487:596   */\n    tag_44:\n        /* \"#utility.yul\":568:589   */\n      tag_46\n        /* \"#utility.yul\":583:588   */\n      dup2\n        /* \"#utility.yul\":568:589   */\n      tag_47\n      jump\t// in\n    tag_46:\n        /* \"#utility.yul\":563:566   */\n      dup3\n        /* \"#utility.yul\":556:590   */\n      mstore\n        /* \"#utility.yul\":487:596   */\n      pop\n      pop\n      jump\t// out\n        /* \"#utility.yul\":602:717   */\n    tag_48:\n        /* \"#utility.yul\":687:710   */\n      tag_50\n        /* \"#utility.yul\":704:709   */\n      dup2\n        /* \"#utility.yul\":687:710   */\n      tag_51\n      jump\t// in\n    tag_50:\n        /* \"#utility.yul\":682:685   */\n      dup3\n        /* \"#utility.yul\":675:711   */\n      mstore\n        /* \"#utility.yul\":602:717   */\n      pop\n      pop\n      jump\t// out\n        /* \"#utility.yul\":723:933   */\n    tag_10:\n        /* \"#utility.yul\":810:814   */\n      0x00\n        /* \"#utility.yul\":848:850   */\n      0x20\n        /* \"#utility.yul\":837:846   */\n      dup3\n        /* \"#utility.yul\":833:851   */\n      add\n        /* \"#utility.yul\":825:851   */\n      swap1\n      pop\n        /* \"#utility.yul\":861:926   */\n      tag_53\n        /* \"#utility.yul\":923:924   */\n      0x00\n        /* \"#utility.yul\":912:921   */\n      dup4\n        /* \"#utility.yul\":908:925   */\n      add\n        /* \"#utility.yul\":899:905   */\n      dup5\n        /* \"#utility.yul\":861:926   */\n      tag_44\n      jump\t// in\n    tag_53:\n        /* \"#utility.yul\":723:933   */\n      swap3\n      swap2\n      pop\n      pop\n      jump\t// out\n        /* \"#utility.yul\":939:1157   */\n    tag_31:\n        /* \"#utility.yul\":1030:1034   */\n      0x00\n        /* \"#utility.yul\":1068:1070   */\n      0x20\n        /* \"#utility.yul\":1057:1066   */\n      dup3\n        /* \"#utility.yul\":1053:1071   */\n      add\n        /* \"#utility.yul\":1045:1071   */\n      swap1\n      pop\n        /* \"#utility.yul\":1081:1150   */\n      tag_55\n        /* \"#utility.yul\":1147:1148   */\n      0x00\n        /* \"#utility.yul\":1136:1145   */\n      dup4\n        /* \"#utility.yul\":1132:1149   */\n      add\n        /* \"#utility.yul\":1123:1129   */\n      dup5\n        /* \"#utility.yul\":1081:1150   */\n      tag_48\n      jump\t// in\n    tag_55:\n        /* \"#utility.yul\":939:1157   */\n      swap3\n      swap2\n      pop\n      pop\n      jump\t// out\n        /* \"#utility.yul\":1244:1340   */\n    tag_58:\n        /* \"#utility.yul\":1281:1288   */\n      0x00\n        /* \"#utility.yul\":1310:1334   */\n      tag_60\n        /* \"#utility.yul\":1328:1333   */\n      dup3\n        /* \"#utility.yul\":1310:1334   */\n      tag_61\n      jump\t// in\n    tag_60:\n        /* \"#utility.yul\":1299:1334   */\n      swap1\n      pop\n        /* \"#utility.yul\":1244:1340   */\n      swap2\n      swap1\n      pop\n      jump\t// out\n        /* \"#utility.yul\":1346:1436   */\n    tag_47:\n        /* \"#utility.yul\":1380:1387   */\n      0x00\n        /* \"#utility.yul\":1423:1428   */\n      dup2\n        /* \"#utility.yul\":1416:1429   */\n      iszero\n        /* \"#utility.yul\":1409:1430   */\n      iszero\n        /* \"#utility.yul\":1398:1430   */\n      swap1\n      pop\n        /* \"#utility.yul\":1346:1436   */\n      swap2\n      swap1\n      pop\n      jump\t// out\n        /* \"#utility.yul\":1442:1591   */\n    tag_51:\n        /* \"#utility.yul\":1478:1485   */\n      0x00\n        /* \"#utility.yul\":1518:1584   */\n      0xffffffff00000000000000000000000000000000000000000000000000000000\n        /* \"#utility.yul\":1511:1516   */\n      dup3\n        /* \"#utility.yul\":1507:1585   */\n      and\n        /* \"#utility.yul\":1496:1585   */\n      swap1\n      pop\n        /* \"#utility.yul\":1442:1591   */\n      swap2\n      swap1\n      pop\n      jump\t// out\n        /* \"#utility.yul\":1597:1723   */\n    tag_61:\n        /* \"#utility.yul\":1634:1641   */\n      0x00\n        /* \"#utility.yul\":1674:1716   */\n      0xffffffffffffffffffffffffffffffffffffffff\n        /* \"#utility.yul\":1667:1672   */\n      dup3\n        /* \"#utility.yul\":1663:1717   */\n      and\n        /* \"#utility.yul\":1652:1717   */\n      swap1\n      pop\n        /* \"#utility.yul\":1597:1723   */\n      swap2\n      swap1\n      pop\n      jump\t// out\n        /* \"#utility.yul\":1852:1969   */\n    tag_42:\n        /* \"#utility.yul\":1961:1962   */\n      0x00\n        /* \"#utility.yul\":1958:1959   */\n      dup1\n        /* \"#utility.yul\":1951:1963   */\n      revert\n        /* \"#utility.yul\":1975:2097   */\n    tag_38:\n        /* \"#utility.yul\":2048:2072   */\n      tag_69\n        /* \"#utility.yul\":2066:2071   */\n      dup2\n        /* \"#utility.yul\":2048:2072   */\n      tag_58\n      jump\t// in\n    tag_69:\n        /* \"#utility.yul\":2041:2046   */\n      dup2\n        /* \"#utility.yul\":2038:2073   */\n      eq\n        /* \"#utility.yul\":2028:2091   */\n      tag_70\n      jumpi\n        /* \"#utility.yul\":2087:2088   */\n      0x00\n        /* \"#utility.yul\":2084:2085   */\n      dup1\n        /* \"#utility.yul\":2077:2089   */\n      revert\n        /* \"#utility.yul\":2028:2091   */\n    tag_70:\n        /* \"#utility.yul\":1975:2097   */\n      pop\n      jump\t// out\n\n    auxdata: 0xa264697066735822122054855eeff77a2b38c2716b5b4efc958d8931e56983ff2535ba2929dbc1cf97b164736f6c63430008070033\n}\n",
				"bytecode": {
					"linkReferences": {},
					"object": "608060405234801561001057600080fd5b5061037c806100206000396000f3fe608060405234801561001057600080fd5b50600436106100365760003560e01c80630a6e33081461003b578063ade60f011461006b575b600080fd5b6100556004803603810190610050919061023f565b61009b565b604051610062919061028a565b60405180910390f35b6100856004803603810190610080919061023f565b6100a2565b604051610092919061028a565b60405180910390f35b6000919050565b6000807f36372b070000000000000000000000000000000000000000000000000000000090506100f1818473ffffffffffffffffffffffffffffffffffffffff166100f990919063ffffffff16565b915050919050565b60006101048361011e565b80156101165750610115838361016b565b5b905092915050565b600061014a827f01ffc9a70000000000000000000000000000000000000000000000000000000061016b565b801561016457506101628263ffffffff60e01b61016b565b155b9050919050565b6000806301ffc9a760e01b8360405160240161018791906102a5565b604051602081830303815290604052907bffffffffffffffffffffffffffffffffffffffffffffffffffffffff19166020820180517bffffffffffffffffffffffffffffffffffffffffffffffffffffffff838183161783525050505090506000806000602060008551602087018a617530fa92503d91506000519050828015610212575060208210155b801561021e5750600081115b94505050505092915050565b6000813590506102398161032f565b92915050565b6000602082840312156102555761025461032a565b5b60006102638482850161022a565b91505092915050565b610275816102d2565b82525050565b610284816102de565b82525050565b600060208201905061029f600083018461026c565b92915050565b60006020820190506102ba600083018461027b565b92915050565b60006102cb8261030a565b9050919050565b60008115159050919050565b60007fffffffff0000000000000000000000000000000000000000000000000000000082169050919050565b600073ffffffffffffffffffffffffffffffffffffffff82169050919050565b600080fd5b610338816102c0565b811461034357600080fd5b5056fea264697066735822122054855eeff77a2b38c2716b5b4efc958d8931e56983ff2535ba2929dbc1cf97b164736f6c63430008070033",
					"opcodes": "PUSH1 0x80 PUSH1 0x40 MSTORE CALLVALUE DUP1 ISZERO PUSH2 0x10 JUMPI PUSH1 0x0 DUP1 REVERT JUMPDEST POP PUSH2 0x37C DUP1 PUSH2 0x20 PUSH1 0x0 CODECOPY PUSH1 0x0 RETURN INVALID PUSH1 0x80 PUSH1 0x40 MSTORE CALLVALUE DUP1 ISZERO PUSH2 0x10 JUMPI PUSH1 0x0 DUP1 REVERT JUMPDEST POP PUSH1 0x4 CALLDATASIZE LT PUSH2 0x36 JUMPI PUSH1 0x0 CALLDATALOAD PUSH1 0xE0 SHR DUP1 PUSH4 0xA6E3308 EQ PUSH2 0x3B JUMPI DUP1 PUSH4 0xADE60F01 EQ PUSH2 0x6B JUMPI JUMPDEST PUSH1 0x0 DUP1 REVERT JUMPDEST PUSH2 0x55 PUSH1 0x4 DUP1 CALLDATASIZE SUB DUP2 ADD SWAP1 PUSH2 0x50 SWAP2 SWAP1 PUSH2 0x23F JUMP JUMPDEST PUSH2 0x9B JUMP JUMPDEST PUSH1 0x40 MLOAD PUSH2 0x62 SWAP2 SWAP1 PUSH2 0x28A JUMP JUMPDEST PUSH1 0x40 MLOAD DUP1 SWAP2 SUB SWAP1 RETURN JUMPDEST PUSH2 0x85 PUSH1 0x4 DUP1 CALLDATASIZE SUB DUP2 ADD SWAP1 PUSH2 0x80 SWAP2 SWAP1 PUSH2 0x23F JUMP JUMPDEST PUSH2 0xA2 JUMP JUMPDEST PUSH1 0x40 MLOAD PUSH2 0x92 SWAP2 SWAP1 PUSH2 0x28A JUMP JUMPDEST PUSH1 0x40 MLOAD DUP1 SWAP2 SUB SWAP1 RETURN JUMPDEST PUSH1 0x0 SWAP2 SWAP1 POP JUMP JUMPDEST PUSH1 0x0 DUP1 PUSH32 0x36372B0700000000000000000000000000000000000000000000000000000000 SWAP1 POP PUSH2 0xF1 DUP2 DUP5 PUSH20 0xFFFFFFFFFFFFFFFFFFFFFFFFFFFFFFFFFFFFFFFF AND PUSH2 0xF9 SWAP1 SWAP2 SWAP1 PUSH4 0xFFFFFFFF AND JUMP JUMPDEST SWAP2 POP POP SWAP2 SWAP1 POP JUMP JUMPDEST PUSH1 0x0 PUSH2 0x104 DUP4 PUSH2 0x11E JUMP JUMPDEST DUP1 ISZERO PUSH2 0x116 JUMPI POP PUSH2 0x115 DUP4 DUP4 PUSH2 0x16B JUMP JUMPDEST JUMPDEST SWAP1 POP SWAP3 SWAP2 POP POP JUMP JUMPDEST PUSH1 0x0 PUSH2 0x14A DUP3 PUSH32 0x1FFC9A700000000000000000000000000000000000000000000000000000000 PUSH2 0x16B JUMP JUMPDEST DUP1 ISZERO PUSH2 0x164 JUMPI POP PUSH2 0x162 DUP3 PUSH4 0xFFFFFFFF PUSH1 0xE0 SHL PUSH2 0x16B JUMP JUMPDEST ISZERO JUMPDEST SWAP1 POP SWAP2 SWAP1 POP JUMP JUMPDEST PUSH1 0x0 DUP1 PUSH4 0x1FFC9A7 PUSH1 0xE0 SHL DUP4 PUSH1 0x40 MLOAD PUSH1 0x24 ADD PUSH2 0x187 SWAP2 SWAP1 PUSH2 0x2A5 JUMP JUMPDEST PUSH1 0x40 MLOAD PUSH1 0x20 DUP2 DUP4 SUB SUB DUP2 MSTORE SWAP1 PUSH1 0x40 MSTORE SWAP1 PUSH28 0xFFFFFFFFFFFFFFFFFFFFFFFFFFFFFFFFFFFFFFFFFFFFFFFFFFFFFFFF NOT AND PUSH1 0x20 DUP3 ADD DUP1 MLOAD PUSH28 0xFFFFFFFFFFFFFFFFFFFFFFFFFFFFFFFFFFFFFFFFFFFFFFFFFFFFFFFF DUP4 DUP2 DUP4 AND OR DUP4 MSTORE POP POP POP POP SWAP1 POP PUSH1 0x0 DUP1 PUSH1 0x0 PUSH1 0x20 PUSH1 0x0 DUP6 MLOAD PUSH1 0x20 DUP8 ADD DUP11 PUSH2 0x7530 STATICCALL SWAP3 POP RETURNDATASIZE SWAP2 POP PUSH1 0x0 MLOAD SWAP1 POP DUP3 DUP1 ISZERO PUSH2 0x212 JUMPI POP PUSH1 0x20 DUP3 LT ISZERO JUMPDEST DUP1 ISZERO PUSH2 0x21E JUMPI POP PUSH1 0x0 DUP2 GT JUMPDEST SWAP5 POP POP POP POP POP SWAP3 SWAP2 POP POP JUMP JUMPDEST PUSH1 0x0 DUP2 CALLDATALOAD SWAP1 POP PUSH2 0x239 DUP2 PUSH2 0x32F JUMP JUMPDEST SWAP3 SWAP2 POP POP JUMP JUMPDEST PUSH1 0x0 PUSH1 0x20 DUP3 DUP5 SUB SLT ISZERO PUSH2 0x255 JUMPI PUSH2 0x254 PUSH2 0x32A JUMP JUMPDEST JUMPDEST PUSH1 0x0 PUSH2 0x263 DUP5 DUP3 DUP6 ADD PUSH2 0x22A JUMP JUMPDEST SWAP2 POP POP SWAP3 SWAP2 POP POP JUMP JUMPDEST PUSH2 0x275 DUP2 PUSH2 0x2D2 JUMP JUMPDEST DUP3 MSTORE POP POP JUMP JUMPDEST PUSH2 0x284 DUP2 PUSH2 0x2DE JUMP JUMPDEST DUP3 MSTORE POP POP JUMP JUMPDEST PUSH1 0x0 PUSH1 0x20 DUP3 ADD SWAP1 POP PUSH2 0x29F PUSH1 0x0 DUP4 ADD DUP5 PUSH2 0x26C JUMP JUMPDEST SWAP3 SWAP2 POP POP JUMP JUMPDEST PUSH1 0x0 PUSH1 0x20 DUP3 ADD SWAP1 POP PUSH2 0x2BA PUSH1 0x0 DUP4 ADD DUP5 PUSH2 0x27B JUMP JUMPDEST SWAP3 SWAP2 POP POP JUMP JUMPDEST PUSH1 0x0 PUSH2 0x2CB DUP3 PUSH2 0x30A JUMP JUMPDEST SWAP1 POP SWAP2 SWAP1 POP JUMP JUMPDEST PUSH1 0x0 DUP2 ISZERO ISZERO SWAP1 POP SWAP2 SWAP1 POP JUMP JUMPDEST PUSH1 0x0 PUSH32 0xFFFFFFFF00000000000000000000000000000000000000000000000000000000 DUP3 AND SWAP1 POP SWAP2 SWAP1 POP JUMP JUMPDEST PUSH1 0x0 PUSH20 0xFFFFFFFFFFFFFFFFFFFFFFFFFFFFFFFFFFFFFFFF DUP3 AND SWAP1 POP SWAP2 SWAP1 POP JUMP JUMPDEST PUSH1 0x0 DUP1 REVERT JUMPDEST PUSH2 0x338 DUP2 PUSH2 0x2C0 JUMP JUMPDEST DUP2 EQ PUSH2 0x343 JUMPI PUSH1 0x0 DUP1 REVERT JUMPDEST POP JUMP INVALID LOG2 PUSH5 0x6970667358 0x22 SLT KECCAK256 SLOAD DUP6 0x5E 0xEF 0xF7 PUSH27 0x2B38C2716B5B4EFC958D8931E56983FF2535BA2929DBC1CF97B164 PUSH20 0x6F6C634300080700330000000000000000000000 "
				},
				"gasEstimates": {
					"creation": {
						"codeDepositCost": "178400",
						"executionCost": "220",
						"totalCost": "178620"
					},
					"external": {
						"esERC20(address)": "infinite",
						"esERC721(address)": "627"
					}
				},
				"methodIdentifiers": {
					"esERC20(address)": "ade60f01",
					"esERC721(address)": "0a6e3308"
				}
			},
			"storageLayout": {
				"storage": [],
				"types": null
			},
			"userdoc": {
				"kind": "user",
				"methods": {},
				"version": 1
			}
		}
	}
}