{
	"contracts/Openzeppelin/AccessControl.sol": {
		"ContratoConRoles": {
			"abi": [
				{
					"anonymous": false,
					"inputs": [
						{
							"indexed": true,
							"internalType": "bytes32",
							"name": "role",
							"type": "bytes32"
						},
						{
							"indexed": true,
							"internalType": "bytes32",
							"name": "previousAdminRole",
							"type": "bytes32"
						},
						{
							"indexed": true,
							"internalType": "bytes32",
							"name": "newAdminRole",
							"type": "bytes32"
						}
					],
					"name": "RoleAdminChanged",
					"type": "event"
				},
				{
					"anonymous": false,
					"inputs": [
						{
							"indexed": true,
							"internalType": "bytes32",
							"name": "role",
							"type": "bytes32"
						},
						{
							"indexed": true,
							"internalType": "address",
							"name": "account",
							"type": "address"
						},
						{
							"indexed": true,
							"internalType": "address",
							"name": "sender",
							"type": "address"
						}
					],
					"name": "RoleGranted",
					"type": "event"
				},
				{
					"anonymous": false,
					"inputs": [
						{
							"indexed": true,
							"internalType": "bytes32",
							"name": "role",
							"type": "bytes32"
						},
						{
							"indexed": true,
							"internalType": "address",
							"name": "account",
							"type": "address"
						},
						{
							"indexed": true,
							"internalType": "address",
							"name": "sender",
							"type": "address"
						}
					],
					"name": "RoleRevoked",
					"type": "event"
				},
				{
					"inputs": [],
					"name": "DEFAULT_ADMIN_ROLE",
					"outputs": [
						{
							"internalType": "bytes32",
							"name": "",
							"type": "bytes32"
						}
					],
					"stateMutability": "view",
					"type": "function"
				},
				{
					"inputs": [],
					"name": "ROL_ADMIN",
					"outputs": [
						{
							"internalType": "bytes32",
							"name": "",
							"type": "bytes32"
						}
					],
					"stateMutability": "view",
					"type": "function"
				},
				{
					"inputs": [],
					"name": "ROL_USUARIO",
					"outputs": [
						{
							"internalType": "bytes32",
							"name": "",
							"type": "bytes32"
						}
					],
					"stateMutability": "view",
					"type": "function"
				},
				{
					"inputs": [
						{
							"internalType": "bytes32",
							"name": "role",
							"type": "bytes32"
						},
						{
							"internalType": "address",
							"name": "account",
							"type": "address"
						}
					],
					"name": "agregarRol",
					"outputs": [],
					"stateMutability": "nonpayable",
					"type": "function"
				},
				{
					"inputs": [
						{
							"internalType": "bytes32",
							"name": "role",
							"type": "bytes32"
						}
					],
					"name": "getRoleAdmin",
					"outputs": [
						{
							"internalType": "bytes32",
							"name": "",
							"type": "bytes32"
						}
					],
					"stateMutability": "view",
					"type": "function"
				},
				{
					"inputs": [
						{
							"internalType": "bytes32",
							"name": "role",
							"type": "bytes32"
						},
						{
							"internalType": "address",
							"name": "account",
							"type": "address"
						}
					],
					"name": "grantRole",
					"outputs": [],
					"stateMutability": "nonpayable",
					"type": "function"
				},
				{
					"inputs": [
						{
							"internalType": "bytes32",
							"name": "role",
							"type": "bytes32"
						},
						{
							"internalType": "address",
							"name": "account",
							"type": "address"
						}
					],
					"name": "hasRole",
					"outputs": [
						{
							"internalType": "bool",
							"name": "",
							"type": "bool"
						}
					],
					"stateMutability": "view",
					"type": "function"
				},
				{
					"inputs": [
						{
							"internalType": "bytes32",
							"name": "role",
							"type": "bytes32"
						},
						{
							"internalType": "address",
							"name": "account",
							"type": "address"
						}
					],
					"name": "renounceRole",
					"outputs": [],
					"stateMutability": "nonpayable",
					"type": "function"
				},
				{
					"inputs": [
						{
							"internalType": "bytes32",
							"name": "role",
							"type": "bytes32"
						},
						{
							"internalType": "address",
							"name": "account",
							"type": "address"
						}
					],
					"name": "revokeRole",
					"outputs": [],
					"stateMutability": "nonpayable",
					"type": "function"
				},
				{
					"inputs": [],
					"name": "soloAdmin",
					"outputs": [],
					"stateMutability": "nonpayable",
					"type": "function"
				},
				{
					"inputs": [],
					"name": "soloUsuario",
					"outputs": [],
					"stateMutability": "nonpayable",
					"type": "function"
				},
				{
					"inputs": [
						{
							"internalType": "bytes4",
							"name": "interfaceId",
							"type": "bytes4"
						}
					],
					"name": "supportsInterface",
					"outputs": [
						{
							"internalType": "bool",
							"name": "",
							"type": "bool"
						}
					],
					"stateMutability": "view",
					"type": "function"
				}
			],
			"devdoc": {
				"kind": "dev",
				"methods": {
					"getRoleAdmin(bytes32)": {
						"details": "Returns the admin role that controls `role`. See {grantRole} and {revokeRole}. To change a role's admin, use {_setRoleAdmin}."
					},
					"grantRole(bytes32,address)": {
						"details": "Grants `role` to `account`. If `account` had not been already granted `role`, emits a {RoleGranted} event. Requirements: - the caller must have ``role``'s admin role. May emit a {RoleGranted} event."
					},
					"hasRole(bytes32,address)": {
						"details": "Returns `true` if `account` has been granted `role`."
					},
					"renounceRole(bytes32,address)": {
						"details": "Revokes `role` from the calling account. Roles are often managed via {grantRole} and {revokeRole}: this function's purpose is to provide a mechanism for accounts to lose their privileges if they are compromised (such as when a trusted device is misplaced). If the calling account had been revoked `role`, emits a {RoleRevoked} event. Requirements: - the caller must be `account`. May emit a {RoleRevoked} event."
					},
					"revokeRole(bytes32,address)": {
						"details": "Revokes `role` from `account`. If `account` had been granted `role`, emits a {RoleRevoked} event. Requirements: - the caller must have ``role``'s admin role. May emit a {RoleRevoked} event."
					},
					"supportsInterface(bytes4)": {
						"details": "See {IERC165-supportsInterface}."
					}
				},
				"version": 1
			},
			"evm": {
				"assembly": "    /* \"contracts/Openzeppelin/AccessControl.sol\":136:783  contract ContratoConRoles is AccessControl {\r... */\n  mstore(0x40, 0x80)\n  callvalue\n  dup1\n  iszero\n  tag_1\n  jumpi\n  0x00\n  dup1\n  revert\ntag_1:\n  pop\n  dataSize(sub_0)\n  dup1\n  dataOffset(sub_0)\n  0x00\n  codecopy\n  0x00\n  return\nstop\n\nsub_0: assembly {\n        /* \"contracts/Openzeppelin/AccessControl.sol\":136:783  contract ContratoConRoles is AccessControl {\r... */\n      mstore(0x40, 0x80)\n      callvalue\n      dup1\n      iszero\n      tag_1\n      jumpi\n      0x00\n      dup1\n      revert\n    tag_1:\n      pop\n      jumpi(tag_2, lt(calldatasize, 0x04))\n      shr(0xe0, calldataload(0x00))\n      dup1\n      0xa217fddf\n      gt\n      tag_15\n      jumpi\n      dup1\n      0xa217fddf\n      eq\n      tag_9\n      jumpi\n      dup1\n      0xadec03fc\n      eq\n      tag_10\n      jumpi\n      dup1\n      0xba55fc8b\n      eq\n      tag_11\n      jumpi\n      dup1\n      0xbb30ad22\n      eq\n      tag_12\n      jumpi\n      dup1\n      0xd547741f\n      eq\n      tag_13\n      jumpi\n      dup1\n      0xee19de25\n      eq\n      tag_14\n      jumpi\n      jump(tag_2)\n    tag_15:\n      dup1\n      0x01ffc9a7\n      eq\n      tag_3\n      jumpi\n      dup1\n      0x248a9ca3\n      eq\n      tag_4\n      jumpi\n      dup1\n      0x2f2ff15d\n      eq\n      tag_5\n      jumpi\n      dup1\n      0x36568abe\n      eq\n      tag_6\n      jumpi\n      dup1\n      0x5ca6f3ea\n      eq\n      tag_7\n      jumpi\n      dup1\n      0x91d14854\n      eq\n      tag_8\n      jumpi\n    tag_2:\n      0x00\n      dup1\n      revert\n        /* \"@openzeppelin/contracts/access/AccessControl.sol\":2606:2808  function supportsInterface(bytes4 interfaceId) public view virtual override returns (bool) {... */\n    tag_3:\n      tag_16\n      0x04\n      dup1\n      calldatasize\n      sub\n      dup2\n      add\n      swap1\n      tag_17\n      swap2\n      swap1\n      tag_18\n      jump\t// in\n    tag_17:\n      tag_19\n      jump\t// in\n    tag_16:\n      mload(0x40)\n      tag_20\n      swap2\n      swap1\n      tag_21\n      jump\t// in\n    tag_20:\n      mload(0x40)\n      dup1\n      swap2\n      sub\n      swap1\n      return\n        /* \"@openzeppelin/contracts/access/AccessControl.sol\":4391:4520  function getRoleAdmin(bytes32 role) public view virtual override returns (bytes32) {... */\n    tag_4:\n      tag_22\n      0x04\n      dup1\n      calldatasize\n      sub\n      dup2\n      add\n      swap1\n      tag_23\n      swap2\n      swap1\n      tag_24\n      jump\t// in\n    tag_23:\n      tag_25\n      jump\t// in\n    tag_22:\n      mload(0x40)\n      tag_26\n      swap2\n      swap1\n      tag_27\n      jump\t// in\n    tag_26:\n      mload(0x40)\n      dup1\n      swap2\n      sub\n      swap1\n      return\n        /* \"@openzeppelin/contracts/access/AccessControl.sol\":4816:4961  function grantRole(bytes32 role, address account) public virtual override onlyRole(getRoleAdmin(role)) {... */\n    tag_5:\n      tag_28\n      0x04\n      dup1\n      calldatasize\n      sub\n      dup2\n      add\n      swap1\n      tag_29\n      swap2\n      swap1\n      tag_30\n      jump\t// in\n    tag_29:\n      tag_31\n      jump\t// in\n    tag_28:\n      stop\n        /* \"@openzeppelin/contracts/access/AccessControl.sol\":5925:6139  function renounceRole(bytes32 role, address account) public virtual override {... */\n    tag_6:\n      tag_32\n      0x04\n      dup1\n      calldatasize\n      sub\n      dup2\n      add\n      swap1\n      tag_33\n      swap2\n      swap1\n      tag_30\n      jump\t// in\n    tag_33:\n      tag_34\n      jump\t// in\n    tag_32:\n      stop\n        /* \"contracts/Openzeppelin/AccessControl.sol\":340:402  bytes32 public constant ROL_USUARIO = keccak256(\"ROL_USUARIO\") */\n    tag_7:\n      tag_35\n      tag_36\n      jump\t// in\n    tag_35:\n      mload(0x40)\n      tag_37\n      swap2\n      swap1\n      tag_27\n      jump\t// in\n    tag_37:\n      mload(0x40)\n      dup1\n      swap2\n      sub\n      swap1\n      return\n        /* \"@openzeppelin/contracts/access/AccessControl.sol\":2895:3040  function hasRole(bytes32 role, address account) public view virtual override returns (bool) {... */\n    tag_8:\n      tag_38\n      0x04\n      dup1\n      calldatasize\n      sub\n      dup2\n      add\n      swap1\n      tag_39\n      swap2\n      swap1\n      tag_30\n      jump\t// in\n    tag_39:\n      tag_40\n      jump\t// in\n    tag_38:\n      mload(0x40)\n      tag_41\n      swap2\n      swap1\n      tag_21\n      jump\t// in\n    tag_41:\n      mload(0x40)\n      dup1\n      swap2\n      sub\n      swap1\n      return\n        /* \"@openzeppelin/contracts/access/AccessControl.sol\":2027:2076  bytes32 public constant DEFAULT_ADMIN_ROLE = 0x00 */\n    tag_9:\n      tag_42\n      tag_43\n      jump\t// in\n    tag_42:\n      mload(0x40)\n      tag_44\n      swap2\n      swap1\n      tag_27\n      jump\t// in\n    tag_44:\n      mload(0x40)\n      dup1\n      swap2\n      sub\n      swap1\n      return\n        /* \"contracts/Openzeppelin/AccessControl.sol\":274:332  bytes32 public constant ROL_ADMIN = keccak256(\"ROL_ADMIN\") */\n    tag_10:\n      tag_45\n      tag_46\n      jump\t// in\n    tag_45:\n      mload(0x40)\n      tag_47\n      swap2\n      swap1\n      tag_27\n      jump\t// in\n    tag_47:\n      mload(0x40)\n      dup1\n      swap2\n      sub\n      swap1\n      return\n        /* \"contracts/Openzeppelin/AccessControl.sol\":411:549  function soloAdmin() public {\r... */\n    tag_11:\n      tag_48\n      tag_49\n      jump\t// in\n    tag_48:\n      stop\n        /* \"contracts/Openzeppelin/AccessControl.sol\":557:701  function soloUsuario() public {\r... */\n    tag_12:\n      tag_50\n      tag_51\n      jump\t// in\n    tag_50:\n      stop\n        /* \"@openzeppelin/contracts/access/AccessControl.sol\":5241:5388  function revokeRole(bytes32 role, address account) public virtual override onlyRole(getRoleAdmin(role)) {... */\n    tag_13:\n      tag_52\n      0x04\n      dup1\n      calldatasize\n      sub\n      dup2\n      add\n      swap1\n      tag_53\n      swap2\n      swap1\n      tag_30\n      jump\t// in\n    tag_53:\n      tag_54\n      jump\t// in\n    tag_52:\n      stop\n        /* \"contracts/Openzeppelin/AccessControl.sol\":709:780  function agregarRol (bytes32 role, address account) public {\r... */\n    tag_14:\n      tag_55\n      0x04\n      dup1\n      calldatasize\n      sub\n      dup2\n      add\n      swap1\n      tag_56\n      swap2\n      swap1\n      tag_30\n      jump\t// in\n    tag_56:\n      tag_57\n      jump\t// in\n    tag_55:\n      stop\n        /* \"@openzeppelin/contracts/access/AccessControl.sol\":2606:2808  function supportsInterface(bytes4 interfaceId) public view virtual override returns (bool) {... */\n    tag_19:\n        /* \"@openzeppelin/contracts/access/AccessControl.sol\":2691:2695  bool */\n      0x00\n        /* \"@openzeppelin/contracts/access/AccessControl.sol\":2729:2761  type(IAccessControl).interfaceId */\n      0x7965db0b00000000000000000000000000000000000000000000000000000000\n        /* \"@openzeppelin/contracts/access/AccessControl.sol\":2714:2761  interfaceId == type(IAccessControl).interfaceId */\n      not(0xffffffffffffffffffffffffffffffffffffffffffffffffffffffff)\n      and\n        /* \"@openzeppelin/contracts/access/AccessControl.sol\":2714:2725  interfaceId */\n      dup3\n        /* \"@openzeppelin/contracts/access/AccessControl.sol\":2714:2761  interfaceId == type(IAccessControl).interfaceId */\n      not(0xffffffffffffffffffffffffffffffffffffffffffffffffffffffff)\n      and\n      eq\n        /* \"@openzeppelin/contracts/access/AccessControl.sol\":2714:2801  interfaceId == type(IAccessControl).interfaceId || super.supportsInterface(interfaceId) */\n      dup1\n      tag_59\n      jumpi\n      pop\n        /* \"@openzeppelin/contracts/access/AccessControl.sol\":2765:2801  super.supportsInterface(interfaceId) */\n      tag_60\n        /* \"@openzeppelin/contracts/access/AccessControl.sol\":2789:2800  interfaceId */\n      dup3\n        /* \"@openzeppelin/contracts/access/AccessControl.sol\":2765:2788  super.supportsInterface */\n      tag_61\n        /* \"@openzeppelin/contracts/access/AccessControl.sol\":2765:2801  super.supportsInterface(interfaceId) */\n      jump\t// in\n    tag_60:\n        /* \"@openzeppelin/contracts/access/AccessControl.sol\":2714:2801  interfaceId == type(IAccessControl).interfaceId || super.supportsInterface(interfaceId) */\n    tag_59:\n        /* \"@openzeppelin/contracts/access/AccessControl.sol\":2707:2801  return interfaceId == type(IAccessControl).interfaceId || super.supportsInterface(interfaceId) */\n      swap1\n      pop\n        /* \"@openzeppelin/contracts/access/AccessControl.sol\":2606:2808  function supportsInterface(bytes4 interfaceId) public view virtual override returns (bool) {... */\n      swap2\n      swap1\n      pop\n      jump\t// out\n        /* \"@openzeppelin/contracts/access/AccessControl.sol\":4391:4520  function getRoleAdmin(bytes32 role) public view virtual override returns (bytes32) {... */\n    tag_25:\n        /* \"@openzeppelin/contracts/access/AccessControl.sol\":4465:4472  bytes32 */\n      0x00\n        /* \"@openzeppelin/contracts/access/AccessControl.sol\":4491:4497  _roles */\n      dup1\n        /* \"@openzeppelin/contracts/access/AccessControl.sol\":4491:4503  _roles[role] */\n      0x00\n        /* \"@openzeppelin/contracts/access/AccessControl.sol\":4498:4502  role */\n      dup4\n        /* \"@openzeppelin/contracts/access/AccessControl.sol\":4491:4503  _roles[role] */\n      dup2\n      mstore\n      0x20\n      add\n      swap1\n      dup2\n      mstore\n      0x20\n      add\n      0x00\n      keccak256\n        /* \"@openzeppelin/contracts/access/AccessControl.sol\":4491:4513  _roles[role].adminRole */\n      0x01\n      add\n      sload\n        /* \"@openzeppelin/contracts/access/AccessControl.sol\":4484:4513  return _roles[role].adminRole */\n      swap1\n      pop\n        /* \"@openzeppelin/contracts/access/AccessControl.sol\":4391:4520  function getRoleAdmin(bytes32 role) public view virtual override returns (bytes32) {... */\n      swap2\n      swap1\n      pop\n      jump\t// out\n        /* \"@openzeppelin/contracts/access/AccessControl.sol\":4816:4961  function grantRole(bytes32 role, address account) public virtual override onlyRole(getRoleAdmin(role)) {... */\n    tag_31:\n        /* \"@openzeppelin/contracts/access/AccessControl.sol\":4899:4917  getRoleAdmin(role) */\n      tag_63\n        /* \"@openzeppelin/contracts/access/AccessControl.sol\":4912:4916  role */\n      dup3\n        /* \"@openzeppelin/contracts/access/AccessControl.sol\":4899:4911  getRoleAdmin */\n      tag_25\n        /* \"@openzeppelin/contracts/access/AccessControl.sol\":4899:4917  getRoleAdmin(role) */\n      jump\t// in\n    tag_63:\n        /* \"@openzeppelin/contracts/access/AccessControl.sol\":2505:2521  _checkRole(role) */\n      tag_65\n        /* \"@openzeppelin/contracts/access/AccessControl.sol\":2516:2520  role */\n      dup2\n        /* \"@openzeppelin/contracts/access/AccessControl.sol\":2505:2515  _checkRole */\n      tag_66\n        /* \"@openzeppelin/contracts/access/AccessControl.sol\":2505:2521  _checkRole(role) */\n      jump\t// in\n    tag_65:\n        /* \"@openzeppelin/contracts/access/AccessControl.sol\":4929:4954  _grantRole(role, account) */\n      tag_68\n        /* \"@openzeppelin/contracts/access/AccessControl.sol\":4940:4944  role */\n      dup4\n        /* \"@openzeppelin/contracts/access/AccessControl.sol\":4946:4953  account */\n      dup4\n        /* \"@openzeppelin/contracts/access/AccessControl.sol\":4929:4939  _grantRole */\n      tag_69\n        /* \"@openzeppelin/contracts/access/AccessControl.sol\":4929:4954  _grantRole(role, account) */\n      jump\t// in\n    tag_68:\n        /* \"@openzeppelin/contracts/access/AccessControl.sol\":4816:4961  function grantRole(bytes32 role, address account) public virtual override onlyRole(getRoleAdmin(role)) {... */\n      pop\n      pop\n      pop\n      jump\t// out\n        /* \"@openzeppelin/contracts/access/AccessControl.sol\":5925:6139  function renounceRole(bytes32 role, address account) public virtual override {... */\n    tag_34:\n        /* \"@openzeppelin/contracts/access/AccessControl.sol\":6031:6043  _msgSender() */\n      tag_71\n        /* \"@openzeppelin/contracts/access/AccessControl.sol\":6031:6041  _msgSender */\n      tag_72\n        /* \"@openzeppelin/contracts/access/AccessControl.sol\":6031:6043  _msgSender() */\n      jump\t// in\n    tag_71:\n        /* \"@openzeppelin/contracts/access/AccessControl.sol\":6020:6043  account == _msgSender() */\n      0xffffffffffffffffffffffffffffffffffffffff\n      and\n        /* \"@openzeppelin/contracts/access/AccessControl.sol\":6020:6027  account */\n      dup2\n        /* \"@openzeppelin/contracts/access/AccessControl.sol\":6020:6043  account == _msgSender() */\n      0xffffffffffffffffffffffffffffffffffffffff\n      and\n      eq\n        /* \"@openzeppelin/contracts/access/AccessControl.sol\":6012:6095  require(account == _msgSender(), \"AccessControl: can only renounce roles for self\") */\n      tag_73\n      jumpi\n      mload(0x40)\n      0x08c379a000000000000000000000000000000000000000000000000000000000\n      dup2\n      mstore\n      0x04\n      add\n      tag_74\n      swap1\n      tag_75\n      jump\t// in\n    tag_74:\n      mload(0x40)\n      dup1\n      swap2\n      sub\n      swap1\n      revert\n    tag_73:\n        /* \"@openzeppelin/contracts/access/AccessControl.sol\":6106:6132  _revokeRole(role, account) */\n      tag_76\n        /* \"@openzeppelin/contracts/access/AccessControl.sol\":6118:6122  role */\n      dup3\n        /* \"@openzeppelin/contracts/access/AccessControl.sol\":6124:6131  account */\n      dup3\n        /* \"@openzeppelin/contracts/access/AccessControl.sol\":6106:6117  _revokeRole */\n      tag_77\n        /* \"@openzeppelin/contracts/access/AccessControl.sol\":6106:6132  _revokeRole(role, account) */\n      jump\t// in\n    tag_76:\n        /* \"@openzeppelin/contracts/access/AccessControl.sol\":5925:6139  function renounceRole(bytes32 role, address account) public virtual override {... */\n      pop\n      pop\n      jump\t// out\n        /* \"contracts/Openzeppelin/AccessControl.sol\":340:402  bytes32 public constant ROL_USUARIO = keccak256(\"ROL_USUARIO\") */\n    tag_36:\n        /* \"contracts/Openzeppelin/AccessControl.sol\":378:402  keccak256(\"ROL_USUARIO\") */\n      0x575582185c1302752a00c2a38ce472577737eb5e4ab29b34daf1ccaa4c9fe08a\n        /* \"contracts/Openzeppelin/AccessControl.sol\":340:402  bytes32 public constant ROL_USUARIO = keccak256(\"ROL_USUARIO\") */\n      dup2\n      jump\t// out\n        /* \"@openzeppelin/contracts/access/AccessControl.sol\":2895:3040  function hasRole(bytes32 role, address account) public view virtual override returns (bool) {... */\n    tag_40:\n        /* \"@openzeppelin/contracts/access/AccessControl.sol\":2981:2985  bool */\n      0x00\n        /* \"@openzeppelin/contracts/access/AccessControl.sol\":3004:3010  _roles */\n      dup1\n        /* \"@openzeppelin/contracts/access/AccessControl.sol\":3004:3016  _roles[role] */\n      0x00\n        /* \"@openzeppelin/contracts/access/AccessControl.sol\":3011:3015  role */\n      dup5\n        /* \"@openzeppelin/contracts/access/AccessControl.sol\":3004:3016  _roles[role] */\n      dup2\n      mstore\n      0x20\n      add\n      swap1\n      dup2\n      mstore\n      0x20\n      add\n      0x00\n      keccak256\n        /* \"@openzeppelin/contracts/access/AccessControl.sol\":3004:3024  _roles[role].members */\n      0x00\n      add\n        /* \"@openzeppelin/contracts/access/AccessControl.sol\":3004:3033  _roles[role].members[account] */\n      0x00\n        /* \"@openzeppelin/contracts/access/AccessControl.sol\":3025:3032  account */\n      dup4\n        /* \"@openzeppelin/contracts/access/AccessControl.sol\":3004:3033  _roles[role].members[account] */\n      0xffffffffffffffffffffffffffffffffffffffff\n      and\n      0xffffffffffffffffffffffffffffffffffffffff\n      and\n      dup2\n      mstore\n      0x20\n      add\n      swap1\n      dup2\n      mstore\n      0x20\n      add\n      0x00\n      keccak256\n      0x00\n      swap1\n      sload\n      swap1\n      0x0100\n      exp\n      swap1\n      div\n      0xff\n      and\n        /* \"@openzeppelin/contracts/access/AccessControl.sol\":2997:3033  return _roles[role].members[account] */\n      swap1\n      pop\n        /* \"@openzeppelin/contracts/access/AccessControl.sol\":2895:3040  function hasRole(bytes32 role, address account) public view virtual override returns (bool) {... */\n      swap3\n      swap2\n      pop\n      pop\n      jump\t// out\n        /* \"@openzeppelin/contracts/access/AccessControl.sol\":2027:2076  bytes32 public constant DEFAULT_ADMIN_ROLE = 0x00 */\n    tag_43:\n        /* \"@openzeppelin/contracts/access/AccessControl.sol\":2072:2076  0x00 */\n      0x00\n        /* \"@openzeppelin/contracts/access/AccessControl.sol\":2027:2076  bytes32 public constant DEFAULT_ADMIN_ROLE = 0x00 */\n      dup1\n      shl\n      dup2\n      jump\t// out\n        /* \"contracts/Openzeppelin/AccessControl.sol\":274:332  bytes32 public constant ROL_ADMIN = keccak256(\"ROL_ADMIN\") */\n    tag_46:\n        /* \"contracts/Openzeppelin/AccessControl.sol\":310:332  keccak256(\"ROL_ADMIN\") */\n      0x7e5b835f8ef15bb117d49cb6d0658113bc08d41d8a6edf12d3d1feb5c5875330\n        /* \"contracts/Openzeppelin/AccessControl.sol\":274:332  bytes32 public constant ROL_ADMIN = keccak256(\"ROL_ADMIN\") */\n      dup2\n      jump\t// out\n        /* \"contracts/Openzeppelin/AccessControl.sol\":411:549  function soloAdmin() public {\r... */\n    tag_49:\n        /* \"contracts/Openzeppelin/AccessControl.sol\":458:490  hasRole(ROL_USUARIO, msg.sender) */\n      tag_80\n        /* \"contracts/Openzeppelin/AccessControl.sol\":378:402  keccak256(\"ROL_USUARIO\") */\n      0x575582185c1302752a00c2a38ce472577737eb5e4ab29b34daf1ccaa4c9fe08a\n        /* \"contracts/Openzeppelin/AccessControl.sol\":479:489  msg.sender */\n      caller\n        /* \"contracts/Openzeppelin/AccessControl.sol\":458:465  hasRole */\n      tag_40\n        /* \"contracts/Openzeppelin/AccessControl.sol\":458:490  hasRole(ROL_USUARIO, msg.sender) */\n      jump\t// in\n    tag_80:\n        /* \"contracts/Openzeppelin/AccessControl.sol\":450:541  require(hasRole(ROL_USUARIO, msg.sender), \"Esta funcion solo puede ser usada por el ADMIN\") */\n      tag_81\n      jumpi\n      mload(0x40)\n      0x08c379a000000000000000000000000000000000000000000000000000000000\n      dup2\n      mstore\n      0x04\n      add\n      tag_82\n      swap1\n      tag_83\n      jump\t// in\n    tag_82:\n      mload(0x40)\n      dup1\n      swap2\n      sub\n      swap1\n      revert\n    tag_81:\n        /* \"contracts/Openzeppelin/AccessControl.sol\":411:549  function soloAdmin() public {\r... */\n      jump\t// out\n        /* \"contracts/Openzeppelin/AccessControl.sol\":557:701  function soloUsuario() public {\r... */\n    tag_51:\n        /* \"contracts/Openzeppelin/AccessControl.sol\":606:636  hasRole(ROL_ADMIN, msg.sender) */\n      tag_85\n        /* \"contracts/Openzeppelin/AccessControl.sol\":310:332  keccak256(\"ROL_ADMIN\") */\n      0x7e5b835f8ef15bb117d49cb6d0658113bc08d41d8a6edf12d3d1feb5c5875330\n        /* \"contracts/Openzeppelin/AccessControl.sol\":625:635  msg.sender */\n      caller\n        /* \"contracts/Openzeppelin/AccessControl.sol\":606:613  hasRole */\n      tag_40\n        /* \"contracts/Openzeppelin/AccessControl.sol\":606:636  hasRole(ROL_ADMIN, msg.sender) */\n      jump\t// in\n    tag_85:\n        /* \"contracts/Openzeppelin/AccessControl.sol\":598:693  require(hasRole(ROL_ADMIN, msg.sender), \"Esta funcion solo puede ser utilizada por un USUARIO\") */\n      tag_86\n      jumpi\n      mload(0x40)\n      0x08c379a000000000000000000000000000000000000000000000000000000000\n      dup2\n      mstore\n      0x04\n      add\n      tag_87\n      swap1\n      tag_88\n      jump\t// in\n    tag_87:\n      mload(0x40)\n      dup1\n      swap2\n      sub\n      swap1\n      revert\n    tag_86:\n        /* \"contracts/Openzeppelin/AccessControl.sol\":557:701  function soloUsuario() public {\r... */\n      jump\t// out\n        /* \"@openzeppelin/contracts/access/AccessControl.sol\":5241:5388  function revokeRole(bytes32 role, address account) public virtual override onlyRole(getRoleAdmin(role)) {... */\n    tag_54:\n        /* \"@openzeppelin/contracts/access/AccessControl.sol\":5325:5343  getRoleAdmin(role) */\n      tag_89\n        /* \"@openzeppelin/contracts/access/AccessControl.sol\":5338:5342  role */\n      dup3\n        /* \"@openzeppelin/contracts/access/AccessControl.sol\":5325:5337  getRoleAdmin */\n      tag_25\n        /* \"@openzeppelin/contracts/access/AccessControl.sol\":5325:5343  getRoleAdmin(role) */\n      jump\t// in\n    tag_89:\n        /* \"@openzeppelin/contracts/access/AccessControl.sol\":2505:2521  _checkRole(role) */\n      tag_91\n        /* \"@openzeppelin/contracts/access/AccessControl.sol\":2516:2520  role */\n      dup2\n        /* \"@openzeppelin/contracts/access/AccessControl.sol\":2505:2515  _checkRole */\n      tag_66\n        /* \"@openzeppelin/contracts/access/AccessControl.sol\":2505:2521  _checkRole(role) */\n      jump\t// in\n    tag_91:\n        /* \"@openzeppelin/contracts/access/AccessControl.sol\":5355:5381  _revokeRole(role, account) */\n      tag_93\n        /* \"@openzeppelin/contracts/access/AccessControl.sol\":5367:5371  role */\n      dup4\n        /* \"@openzeppelin/contracts/access/AccessControl.sol\":5373:5380  account */\n      dup4\n        /* \"@openzeppelin/contracts/access/AccessControl.sol\":5355:5366  _revokeRole */\n      tag_77\n        /* \"@openzeppelin/contracts/access/AccessControl.sol\":5355:5381  _revokeRole(role, account) */\n      jump\t// in\n    tag_93:\n        /* \"@openzeppelin/contracts/access/AccessControl.sol\":5241:5388  function revokeRole(bytes32 role, address account) public virtual override onlyRole(getRoleAdmin(role)) {... */\n      pop\n      pop\n      pop\n      jump\t// out\n        /* \"contracts/Openzeppelin/AccessControl.sol\":709:780  function agregarRol (bytes32 role, address account) public {\r... */\n    tag_57:\n      pop\n      pop\n      jump\t// out\n        /* \"@openzeppelin/contracts/utils/introspection/ERC165.sol\":829:984  function supportsInterface(bytes4 interfaceId) public view virtual override returns (bool) {... */\n    tag_61:\n        /* \"@openzeppelin/contracts/utils/introspection/ERC165.sol\":914:918  bool */\n      0x00\n        /* \"@openzeppelin/contracts/utils/introspection/ERC165.sol\":952:977  type(IERC165).interfaceId */\n      0x01ffc9a700000000000000000000000000000000000000000000000000000000\n        /* \"@openzeppelin/contracts/utils/introspection/ERC165.sol\":937:977  interfaceId == type(IERC165).interfaceId */\n      not(0xffffffffffffffffffffffffffffffffffffffffffffffffffffffff)\n      and\n        /* \"@openzeppelin/contracts/utils/introspection/ERC165.sol\":937:948  interfaceId */\n      dup3\n        /* \"@openzeppelin/contracts/utils/introspection/ERC165.sol\":937:977  interfaceId == type(IERC165).interfaceId */\n      not(0xffffffffffffffffffffffffffffffffffffffffffffffffffffffff)\n      and\n      eq\n        /* \"@openzeppelin/contracts/utils/introspection/ERC165.sol\":930:977  return interfaceId == type(IERC165).interfaceId */\n      swap1\n      pop\n        /* \"@openzeppelin/contracts/utils/introspection/ERC165.sol\":829:984  function supportsInterface(bytes4 interfaceId) public view virtual override returns (bool) {... */\n      swap2\n      swap1\n      pop\n      jump\t// out\n        /* \"@openzeppelin/contracts/access/AccessControl.sol\":3334:3437  function _checkRole(bytes32 role) internal view virtual {... */\n    tag_66:\n        /* \"@openzeppelin/contracts/access/AccessControl.sol\":3400:3430  _checkRole(role, _msgSender()) */\n      tag_97\n        /* \"@openzeppelin/contracts/access/AccessControl.sol\":3411:3415  role */\n      dup2\n        /* \"@openzeppelin/contracts/access/AccessControl.sol\":3417:3429  _msgSender() */\n      tag_98\n        /* \"@openzeppelin/contracts/access/AccessControl.sol\":3417:3427  _msgSender */\n      tag_72\n        /* \"@openzeppelin/contracts/access/AccessControl.sol\":3417:3429  _msgSender() */\n      jump\t// in\n    tag_98:\n        /* \"@openzeppelin/contracts/access/AccessControl.sol\":3400:3410  _checkRole */\n      tag_99\n        /* \"@openzeppelin/contracts/access/AccessControl.sol\":3400:3430  _checkRole(role, _msgSender()) */\n      jump\t// in\n    tag_97:\n        /* \"@openzeppelin/contracts/access/AccessControl.sol\":3334:3437  function _checkRole(bytes32 role) internal view virtual {... */\n      pop\n      jump\t// out\n        /* \"@openzeppelin/contracts/access/AccessControl.sol\":7474:7707  function _grantRole(bytes32 role, address account) internal virtual {... */\n    tag_69:\n        /* \"@openzeppelin/contracts/access/AccessControl.sol\":7557:7579  hasRole(role, account) */\n      tag_101\n        /* \"@openzeppelin/contracts/access/AccessControl.sol\":7565:7569  role */\n      dup3\n        /* \"@openzeppelin/contracts/access/AccessControl.sol\":7571:7578  account */\n      dup3\n        /* \"@openzeppelin/contracts/access/AccessControl.sol\":7557:7564  hasRole */\n      tag_40\n        /* \"@openzeppelin/contracts/access/AccessControl.sol\":7557:7579  hasRole(role, account) */\n      jump\t// in\n    tag_101:\n        /* \"@openzeppelin/contracts/access/AccessControl.sol\":7552:7701  if (!hasRole(role, account)) {... */\n      tag_102\n      jumpi\n        /* \"@openzeppelin/contracts/access/AccessControl.sol\":7627:7631  true */\n      0x01\n        /* \"@openzeppelin/contracts/access/AccessControl.sol\":7595:7601  _roles */\n      0x00\n        /* \"@openzeppelin/contracts/access/AccessControl.sol\":7595:7607  _roles[role] */\n      dup1\n        /* \"@openzeppelin/contracts/access/AccessControl.sol\":7602:7606  role */\n      dup5\n        /* \"@openzeppelin/contracts/access/AccessControl.sol\":7595:7607  _roles[role] */\n      dup2\n      mstore\n      0x20\n      add\n      swap1\n      dup2\n      mstore\n      0x20\n      add\n      0x00\n      keccak256\n        /* \"@openzeppelin/contracts/access/AccessControl.sol\":7595:7615  _roles[role].members */\n      0x00\n      add\n        /* \"@openzeppelin/contracts/access/AccessControl.sol\":7595:7624  _roles[role].members[account] */\n      0x00\n        /* \"@openzeppelin/contracts/access/AccessControl.sol\":7616:7623  account */\n      dup4\n        /* \"@openzeppelin/contracts/access/AccessControl.sol\":7595:7624  _roles[role].members[account] */\n      0xffffffffffffffffffffffffffffffffffffffff\n      and\n      0xffffffffffffffffffffffffffffffffffffffff\n      and\n      dup2\n      mstore\n      0x20\n      add\n      swap1\n      dup2\n      mstore\n      0x20\n      add\n      0x00\n      keccak256\n      0x00\n        /* \"@openzeppelin/contracts/access/AccessControl.sol\":7595:7631  _roles[role].members[account] = true */\n      0x0100\n      exp\n      dup2\n      sload\n      dup2\n      0xff\n      mul\n      not\n      and\n      swap1\n      dup4\n      iszero\n      iszero\n      mul\n      or\n      swap1\n      sstore\n      pop\n        /* \"@openzeppelin/contracts/access/AccessControl.sol\":7677:7689  _msgSender() */\n      tag_103\n        /* \"@openzeppelin/contracts/access/AccessControl.sol\":7677:7687  _msgSender */\n      tag_72\n        /* \"@openzeppelin/contracts/access/AccessControl.sol\":7677:7689  _msgSender() */\n      jump\t// in\n    tag_103:\n        /* \"@openzeppelin/contracts/access/AccessControl.sol\":7650:7690  RoleGranted(role, account, _msgSender()) */\n      0xffffffffffffffffffffffffffffffffffffffff\n      and\n        /* \"@openzeppelin/contracts/access/AccessControl.sol\":7668:7675  account */\n      dup2\n        /* \"@openzeppelin/contracts/access/AccessControl.sol\":7650:7690  RoleGranted(role, account, _msgSender()) */\n      0xffffffffffffffffffffffffffffffffffffffff\n      and\n        /* \"@openzeppelin/contracts/access/AccessControl.sol\":7662:7666  role */\n      dup4\n        /* \"@openzeppelin/contracts/access/AccessControl.sol\":7650:7690  RoleGranted(role, account, _msgSender()) */\n      0x2f8788117e7eff1d82e926ec794901d17c78024a50270940304540a733656f0d\n      mload(0x40)\n      mload(0x40)\n      dup1\n      swap2\n      sub\n      swap1\n      log4\n        /* \"@openzeppelin/contracts/access/AccessControl.sol\":7552:7701  if (!hasRole(role, account)) {... */\n    tag_102:\n        /* \"@openzeppelin/contracts/access/AccessControl.sol\":7474:7707  function _grantRole(bytes32 role, address account) internal virtual {... */\n      pop\n      pop\n      jump\t// out\n        /* \"@openzeppelin/contracts/utils/Context.sol\":640:736  function _msgSender() internal view virtual returns (address) {... */\n    tag_72:\n        /* \"@openzeppelin/contracts/utils/Context.sol\":693:700  address */\n      0x00\n        /* \"@openzeppelin/contracts/utils/Context.sol\":719:729  msg.sender */\n      caller\n        /* \"@openzeppelin/contracts/utils/Context.sol\":712:729  return msg.sender */\n      swap1\n      pop\n        /* \"@openzeppelin/contracts/utils/Context.sol\":640:736  function _msgSender() internal view virtual returns (address) {... */\n      swap1\n      jump\t// out\n        /* \"@openzeppelin/contracts/access/AccessControl.sol\":7878:8112  function _revokeRole(bytes32 role, address account) internal virtual {... */\n    tag_77:\n        /* \"@openzeppelin/contracts/access/AccessControl.sol\":7961:7983  hasRole(role, account) */\n      tag_106\n        /* \"@openzeppelin/contracts/access/AccessControl.sol\":7969:7973  role */\n      dup3\n        /* \"@openzeppelin/contracts/access/AccessControl.sol\":7975:7982  account */\n      dup3\n        /* \"@openzeppelin/contracts/access/AccessControl.sol\":7961:7968  hasRole */\n      tag_40\n        /* \"@openzeppelin/contracts/access/AccessControl.sol\":7961:7983  hasRole(role, account) */\n      jump\t// in\n    tag_106:\n        /* \"@openzeppelin/contracts/access/AccessControl.sol\":7957:8106  if (hasRole(role, account)) {... */\n      iszero\n      tag_107\n      jumpi\n        /* \"@openzeppelin/contracts/access/AccessControl.sol\":8031:8036  false */\n      0x00\n        /* \"@openzeppelin/contracts/access/AccessControl.sol\":7999:8005  _roles */\n      dup1\n        /* \"@openzeppelin/contracts/access/AccessControl.sol\":7999:8011  _roles[role] */\n      0x00\n        /* \"@openzeppelin/contracts/access/AccessControl.sol\":8006:8010  role */\n      dup5\n        /* \"@openzeppelin/contracts/access/AccessControl.sol\":7999:8011  _roles[role] */\n      dup2\n      mstore\n      0x20\n      add\n      swap1\n      dup2\n      mstore\n      0x20\n      add\n      0x00\n      keccak256\n        /* \"@openzeppelin/contracts/access/AccessControl.sol\":7999:8019  _roles[role].members */\n      0x00\n      add\n        /* \"@openzeppelin/contracts/access/AccessControl.sol\":7999:8028  _roles[role].members[account] */\n      0x00\n        /* \"@openzeppelin/contracts/access/AccessControl.sol\":8020:8027  account */\n      dup4\n        /* \"@openzeppelin/contracts/access/AccessControl.sol\":7999:8028  _roles[role].members[account] */\n      0xffffffffffffffffffffffffffffffffffffffff\n      and\n      0xffffffffffffffffffffffffffffffffffffffff\n      and\n      dup2\n      mstore\n      0x20\n      add\n      swap1\n      dup2\n      mstore\n      0x20\n      add\n      0x00\n      keccak256\n      0x00\n        /* \"@openzeppelin/contracts/access/AccessControl.sol\":7999:8036  _roles[role].members[account] = false */\n      0x0100\n      exp\n      dup2\n      sload\n      dup2\n      0xff\n      mul\n      not\n      and\n      swap1\n      dup4\n      iszero\n      iszero\n      mul\n      or\n      swap1\n      sstore\n      pop\n        /* \"@openzeppelin/contracts/access/AccessControl.sol\":8082:8094  _msgSender() */\n      tag_108\n        /* \"@openzeppelin/contracts/access/AccessControl.sol\":8082:8092  _msgSender */\n      tag_72\n        /* \"@openzeppelin/contracts/access/AccessControl.sol\":8082:8094  _msgSender() */\n      jump\t// in\n    tag_108:\n        /* \"@openzeppelin/contracts/access/AccessControl.sol\":8055:8095  RoleRevoked(role, account, _msgSender()) */\n      0xffffffffffffffffffffffffffffffffffffffff\n      and\n        /* \"@openzeppelin/contracts/access/AccessControl.sol\":8073:8080  account */\n      dup2\n        /* \"@openzeppelin/contracts/access/AccessControl.sol\":8055:8095  RoleRevoked(role, account, _msgSender()) */\n      0xffffffffffffffffffffffffffffffffffffffff\n      and\n        /* \"@openzeppelin/contracts/access/AccessControl.sol\":8067:8071  role */\n      dup4\n        /* \"@openzeppelin/contracts/access/AccessControl.sol\":8055:8095  RoleRevoked(role, account, _msgSender()) */\n      0xf6391f5c32d9c69d2a47ea670b442974b53935d1edc7fd64eb21e047a839171b\n      mload(0x40)\n      mload(0x40)\n      dup1\n      swap2\n      sub\n      swap1\n      log4\n        /* \"@openzeppelin/contracts/access/AccessControl.sol\":7957:8106  if (hasRole(role, account)) {... */\n    tag_107:\n        /* \"@openzeppelin/contracts/access/AccessControl.sol\":7878:8112  function _revokeRole(bytes32 role, address account) internal virtual {... */\n      pop\n      pop\n      jump\t// out\n        /* \"@openzeppelin/contracts/access/AccessControl.sol\":3718:4210  function _checkRole(bytes32 role, address account) internal view virtual {... */\n    tag_99:\n        /* \"@openzeppelin/contracts/access/AccessControl.sol\":3806:3828  hasRole(role, account) */\n      tag_110\n        /* \"@openzeppelin/contracts/access/AccessControl.sol\":3814:3818  role */\n      dup3\n        /* \"@openzeppelin/contracts/access/AccessControl.sol\":3820:3827  account */\n      dup3\n        /* \"@openzeppelin/contracts/access/AccessControl.sol\":3806:3813  hasRole */\n      tag_40\n        /* \"@openzeppelin/contracts/access/AccessControl.sol\":3806:3828  hasRole(role, account) */\n      jump\t// in\n    tag_110:\n        /* \"@openzeppelin/contracts/access/AccessControl.sol\":3801:4204  if (!hasRole(role, account)) {... */\n      tag_111\n      jumpi\n        /* \"@openzeppelin/contracts/access/AccessControl.sol\":3989:4030  Strings.toHexString(uint160(account), 20) */\n      tag_112\n        /* \"@openzeppelin/contracts/access/AccessControl.sol\":4017:4024  account */\n      dup2\n        /* \"@openzeppelin/contracts/access/AccessControl.sol\":3989:4030  Strings.toHexString(uint160(account), 20) */\n      0xffffffffffffffffffffffffffffffffffffffff\n      and\n        /* \"@openzeppelin/contracts/access/AccessControl.sol\":4027:4029  20 */\n      0x14\n        /* \"@openzeppelin/contracts/access/AccessControl.sol\":3989:4008  Strings.toHexString */\n      tag_113\n        /* \"@openzeppelin/contracts/access/AccessControl.sol\":3989:4030  Strings.toHexString(uint160(account), 20) */\n      jump\t// in\n    tag_112:\n        /* \"@openzeppelin/contracts/access/AccessControl.sol\":4101:4139  Strings.toHexString(uint256(role), 32) */\n      tag_114\n        /* \"@openzeppelin/contracts/access/AccessControl.sol\":4129:4133  role */\n      dup4\n        /* \"@openzeppelin/contracts/access/AccessControl.sol\":4121:4134  uint256(role) */\n      0x00\n      shr\n        /* \"@openzeppelin/contracts/access/AccessControl.sol\":4136:4138  32 */\n      0x20\n        /* \"@openzeppelin/contracts/access/AccessControl.sol\":4101:4120  Strings.toHexString */\n      tag_113\n        /* \"@openzeppelin/contracts/access/AccessControl.sol\":4101:4139  Strings.toHexString(uint256(role), 32) */\n      jump\t// in\n    tag_114:\n        /* \"@openzeppelin/contracts/access/AccessControl.sol\":3896:4161  abi.encodePacked(... */\n      add(0x20, mload(0x40))\n      tag_115\n      swap3\n      swap2\n      swap1\n      tag_116\n      jump\t// in\n    tag_115:\n      mload(0x40)\n      0x20\n      dup2\n      dup4\n      sub\n      sub\n      dup2\n      mstore\n      swap1\n      0x40\n      mstore\n        /* \"@openzeppelin/contracts/access/AccessControl.sol\":3844:4193  revert(... */\n      mload(0x40)\n      0x08c379a000000000000000000000000000000000000000000000000000000000\n      dup2\n      mstore\n      0x04\n      add\n      tag_117\n      swap2\n      swap1\n      tag_118\n      jump\t// in\n    tag_117:\n      mload(0x40)\n      dup1\n      swap2\n      sub\n      swap1\n      revert\n        /* \"@openzeppelin/contracts/access/AccessControl.sol\":3801:4204  if (!hasRole(role, account)) {... */\n    tag_111:\n        /* \"@openzeppelin/contracts/access/AccessControl.sol\":3718:4210  function _checkRole(bytes32 role, address account) internal view virtual {... */\n      pop\n      pop\n      jump\t// out\n        /* \"@openzeppelin/contracts/utils/Strings.sol\":1652:2093  function toHexString(uint256 value, uint256 length) internal pure returns (string memory) {... */\n    tag_113:\n        /* \"@openzeppelin/contracts/utils/Strings.sol\":1727:1740  string memory */\n      0x60\n        /* \"@openzeppelin/contracts/utils/Strings.sol\":1752:1771  bytes memory buffer */\n      0x00\n        /* \"@openzeppelin/contracts/utils/Strings.sol\":1797:1798  2 */\n      0x02\n        /* \"@openzeppelin/contracts/utils/Strings.sol\":1788:1794  length */\n      dup4\n        /* \"@openzeppelin/contracts/utils/Strings.sol\":1784:1785  2 */\n      0x02\n        /* \"@openzeppelin/contracts/utils/Strings.sol\":1784:1794  2 * length */\n      tag_120\n      swap2\n      swap1\n      tag_121\n      jump\t// in\n    tag_120:\n        /* \"@openzeppelin/contracts/utils/Strings.sol\":1784:1798  2 * length + 2 */\n      tag_122\n      swap2\n      swap1\n      tag_123\n      jump\t// in\n    tag_122:\n        /* \"@openzeppelin/contracts/utils/Strings.sol\":1774:1799  new bytes(2 * length + 2) */\n      0xffffffffffffffff\n      dup2\n      gt\n      iszero\n      tag_124\n      jumpi\n      tag_125\n      tag_126\n      jump\t// in\n    tag_125:\n    tag_124:\n      mload(0x40)\n      swap1\n      dup1\n      dup3\n      mstore\n      dup1\n      0x1f\n      add\n      not(0x1f)\n      and\n      0x20\n      add\n      dup3\n      add\n      0x40\n      mstore\n      dup1\n      iszero\n      tag_127\n      jumpi\n      dup2\n      0x20\n      add\n      0x01\n      dup3\n      mul\n      dup1\n      calldatasize\n      dup4\n      calldatacopy\n      dup1\n      dup3\n      add\n      swap2\n      pop\n      pop\n      swap1\n      pop\n    tag_127:\n      pop\n        /* \"@openzeppelin/contracts/utils/Strings.sol\":1752:1799  bytes memory buffer = new bytes(2 * length + 2) */\n      swap1\n      pop\n        /* \"@openzeppelin/contracts/utils/Strings.sol\":1809:1824  buffer[0] = \"0\" */\n      0x3000000000000000000000000000000000000000000000000000000000000000\n        /* \"@openzeppelin/contracts/utils/Strings.sol\":1809:1815  buffer */\n      dup2\n        /* \"@openzeppelin/contracts/utils/Strings.sol\":1816:1817  0 */\n      0x00\n        /* \"@openzeppelin/contracts/utils/Strings.sol\":1809:1818  buffer[0] */\n      dup2\n      mload\n      dup2\n      lt\n      tag_128\n      jumpi\n      tag_129\n      tag_130\n      jump\t// in\n    tag_129:\n    tag_128:\n      0x20\n      add\n      add\n        /* \"@openzeppelin/contracts/utils/Strings.sol\":1809:1824  buffer[0] = \"0\" */\n      swap1\n      not(0xffffffffffffffffffffffffffffffffffffffffffffffffffffffffffffff)\n      and\n      swap1\n      dup2\n      0x00\n      byte\n      swap1\n      mstore8\n      pop\n        /* \"@openzeppelin/contracts/utils/Strings.sol\":1834:1849  buffer[1] = \"x\" */\n      0x7800000000000000000000000000000000000000000000000000000000000000\n        /* \"@openzeppelin/contracts/utils/Strings.sol\":1834:1840  buffer */\n      dup2\n        /* \"@openzeppelin/contracts/utils/Strings.sol\":1841:1842  1 */\n      0x01\n        /* \"@openzeppelin/contracts/utils/Strings.sol\":1834:1843  buffer[1] */\n      dup2\n      mload\n      dup2\n      lt\n      tag_131\n      jumpi\n      tag_132\n      tag_130\n      jump\t// in\n    tag_132:\n    tag_131:\n      0x20\n      add\n      add\n        /* \"@openzeppelin/contracts/utils/Strings.sol\":1834:1849  buffer[1] = \"x\" */\n      swap1\n      not(0xffffffffffffffffffffffffffffffffffffffffffffffffffffffffffffff)\n      and\n      swap1\n      dup2\n      0x00\n      byte\n      swap1\n      mstore8\n      pop\n        /* \"@openzeppelin/contracts/utils/Strings.sol\":1864:1873  uint256 i */\n      0x00\n        /* \"@openzeppelin/contracts/utils/Strings.sol\":1889:1890  1 */\n      0x01\n        /* \"@openzeppelin/contracts/utils/Strings.sol\":1880:1886  length */\n      dup5\n        /* \"@openzeppelin/contracts/utils/Strings.sol\":1876:1877  2 */\n      0x02\n        /* \"@openzeppelin/contracts/utils/Strings.sol\":1876:1886  2 * length */\n      tag_136\n      swap2\n      swap1\n      tag_121\n      jump\t// in\n    tag_136:\n        /* \"@openzeppelin/contracts/utils/Strings.sol\":1876:1890  2 * length + 1 */\n      tag_137\n      swap2\n      swap1\n      tag_123\n      jump\t// in\n    tag_137:\n        /* \"@openzeppelin/contracts/utils/Strings.sol\":1864:1890  uint256 i = 2 * length + 1 */\n      swap1\n      pop\n        /* \"@openzeppelin/contracts/utils/Strings.sol\":1859:1991  for (uint256 i = 2 * length + 1; i > 1; --i) {... */\n    tag_133:\n        /* \"@openzeppelin/contracts/utils/Strings.sol\":1896:1897  1 */\n      0x01\n        /* \"@openzeppelin/contracts/utils/Strings.sol\":1892:1893  i */\n      dup2\n        /* \"@openzeppelin/contracts/utils/Strings.sol\":1892:1897  i > 1 */\n      gt\n        /* \"@openzeppelin/contracts/utils/Strings.sol\":1859:1991  for (uint256 i = 2 * length + 1; i > 1; --i) {... */\n      iszero\n      tag_134\n      jumpi\n        /* \"@openzeppelin/contracts/utils/Strings.sol\":1930:1942  _HEX_SYMBOLS */\n      0x3031323334353637383961626364656600000000000000000000000000000000\n        /* \"@openzeppelin/contracts/utils/Strings.sol\":1951:1954  0xf */\n      0x0f\n        /* \"@openzeppelin/contracts/utils/Strings.sol\":1943:1948  value */\n      dup7\n        /* \"@openzeppelin/contracts/utils/Strings.sol\":1943:1954  value & 0xf */\n      and\n        /* \"@openzeppelin/contracts/utils/Strings.sol\":1930:1955  _HEX_SYMBOLS[value & 0xf] */\n      0x10\n      dup2\n      lt\n      tag_138\n      jumpi\n      tag_139\n      tag_130\n      jump\t// in\n    tag_139:\n    tag_138:\n      byte\n      0xf8\n      shl\n        /* \"@openzeppelin/contracts/utils/Strings.sol\":1918:1924  buffer */\n      dup3\n        /* \"@openzeppelin/contracts/utils/Strings.sol\":1925:1926  i */\n      dup3\n        /* \"@openzeppelin/contracts/utils/Strings.sol\":1918:1927  buffer[i] */\n      dup2\n      mload\n      dup2\n      lt\n      tag_140\n      jumpi\n      tag_141\n      tag_130\n      jump\t// in\n    tag_141:\n    tag_140:\n      0x20\n      add\n      add\n        /* \"@openzeppelin/contracts/utils/Strings.sol\":1918:1955  buffer[i] = _HEX_SYMBOLS[value & 0xf] */\n      swap1\n      not(0xffffffffffffffffffffffffffffffffffffffffffffffffffffffffffffff)\n      and\n      swap1\n      dup2\n      0x00\n      byte\n      swap1\n      mstore8\n      pop\n        /* \"@openzeppelin/contracts/utils/Strings.sol\":1979:1980  4 */\n      0x04\n        /* \"@openzeppelin/contracts/utils/Strings.sol\":1969:1980  value >>= 4 */\n      dup6\n      swap1\n      shr\n      swap5\n      pop\n        /* \"@openzeppelin/contracts/utils/Strings.sol\":1899:1902  --i */\n      dup1\n      tag_142\n      swap1\n      tag_143\n      jump\t// in\n    tag_142:\n      swap1\n      pop\n        /* \"@openzeppelin/contracts/utils/Strings.sol\":1859:1991  for (uint256 i = 2 * length + 1; i > 1; --i) {... */\n      jump(tag_133)\n    tag_134:\n      pop\n        /* \"@openzeppelin/contracts/utils/Strings.sol\":2017:2018  0 */\n      0x00\n        /* \"@openzeppelin/contracts/utils/Strings.sol\":2008:2013  value */\n      dup5\n        /* \"@openzeppelin/contracts/utils/Strings.sol\":2008:2018  value == 0 */\n      eq\n        /* \"@openzeppelin/contracts/utils/Strings.sol\":2000:2055  require(value == 0, \"Strings: hex length insufficient\") */\n      tag_144\n      jumpi\n      mload(0x40)\n      0x08c379a000000000000000000000000000000000000000000000000000000000\n      dup2\n      mstore\n      0x04\n      add\n      tag_145\n      swap1\n      tag_146\n      jump\t// in\n    tag_145:\n      mload(0x40)\n      dup1\n      swap2\n      sub\n      swap1\n      revert\n    tag_144:\n        /* \"@openzeppelin/contracts/utils/Strings.sol\":2079:2085  buffer */\n      dup1\n        /* \"@openzeppelin/contracts/utils/Strings.sol\":2065:2086  return string(buffer) */\n      swap2\n      pop\n      pop\n        /* \"@openzeppelin/contracts/utils/Strings.sol\":1652:2093  function toHexString(uint256 value, uint256 length) internal pure returns (string memory) {... */\n      swap3\n      swap2\n      pop\n      pop\n      jump\t// out\n        /* \"#utility.yul\":7:146   */\n    tag_148:\n        /* \"#utility.yul\":53:58   */\n      0x00\n        /* \"#utility.yul\":91:97   */\n      dup2\n        /* \"#utility.yul\":78:98   */\n      calldataload\n        /* \"#utility.yul\":69:98   */\n      swap1\n      pop\n        /* \"#utility.yul\":107:140   */\n      tag_150\n        /* \"#utility.yul\":134:139   */\n      dup2\n        /* \"#utility.yul\":107:140   */\n      tag_151\n      jump\t// in\n    tag_150:\n        /* \"#utility.yul\":7:146   */\n      swap3\n      swap2\n      pop\n      pop\n      jump\t// out\n        /* \"#utility.yul\":152:291   */\n    tag_152:\n        /* \"#utility.yul\":198:203   */\n      0x00\n        /* \"#utility.yul\":236:242   */\n      dup2\n        /* \"#utility.yul\":223:243   */\n      calldataload\n        /* \"#utility.yul\":214:243   */\n      swap1\n      pop\n        /* \"#utility.yul\":252:285   */\n      tag_154\n        /* \"#utility.yul\":279:284   */\n      dup2\n        /* \"#utility.yul\":252:285   */\n      tag_155\n      jump\t// in\n    tag_154:\n        /* \"#utility.yul\":152:291   */\n      swap3\n      swap2\n      pop\n      pop\n      jump\t// out\n        /* \"#utility.yul\":297:434   */\n    tag_156:\n        /* \"#utility.yul\":342:347   */\n      0x00\n        /* \"#utility.yul\":380:386   */\n      dup2\n        /* \"#utility.yul\":367:387   */\n      calldataload\n        /* \"#utility.yul\":358:387   */\n      swap1\n      pop\n        /* \"#utility.yul\":396:428   */\n      tag_158\n        /* \"#utility.yul\":422:427   */\n      dup2\n        /* \"#utility.yul\":396:428   */\n      tag_159\n      jump\t// in\n    tag_158:\n        /* \"#utility.yul\":297:434   */\n      swap3\n      swap2\n      pop\n      pop\n      jump\t// out\n        /* \"#utility.yul\":440:769   */\n    tag_24:\n        /* \"#utility.yul\":499:505   */\n      0x00\n        /* \"#utility.yul\":548:550   */\n      0x20\n        /* \"#utility.yul\":536:545   */\n      dup3\n        /* \"#utility.yul\":527:534   */\n      dup5\n        /* \"#utility.yul\":523:546   */\n      sub\n        /* \"#utility.yul\":519:551   */\n      slt\n        /* \"#utility.yul\":516:635   */\n      iszero\n      tag_161\n      jumpi\n        /* \"#utility.yul\":554:633   */\n      tag_162\n      tag_163\n      jump\t// in\n    tag_162:\n        /* \"#utility.yul\":516:635   */\n    tag_161:\n        /* \"#utility.yul\":674:675   */\n      0x00\n        /* \"#utility.yul\":699:752   */\n      tag_164\n        /* \"#utility.yul\":744:751   */\n      dup5\n        /* \"#utility.yul\":735:741   */\n      dup3\n        /* \"#utility.yul\":724:733   */\n      dup6\n        /* \"#utility.yul\":720:742   */\n      add\n        /* \"#utility.yul\":699:752   */\n      tag_152\n      jump\t// in\n    tag_164:\n        /* \"#utility.yul\":689:752   */\n      swap2\n      pop\n        /* \"#utility.yul\":645:762   */\n      pop\n        /* \"#utility.yul\":440:769   */\n      swap3\n      swap2\n      pop\n      pop\n      jump\t// out\n        /* \"#utility.yul\":775:1249   */\n    tag_30:\n        /* \"#utility.yul\":843:849   */\n      0x00\n        /* \"#utility.yul\":851:857   */\n      dup1\n        /* \"#utility.yul\":900:902   */\n      0x40\n        /* \"#utility.yul\":888:897   */\n      dup4\n        /* \"#utility.yul\":879:886   */\n      dup6\n        /* \"#utility.yul\":875:898   */\n      sub\n        /* \"#utility.yul\":871:903   */\n      slt\n        /* \"#utility.yul\":868:987   */\n      iszero\n      tag_166\n      jumpi\n        /* \"#utility.yul\":906:985   */\n      tag_167\n      tag_163\n      jump\t// in\n    tag_167:\n        /* \"#utility.yul\":868:987   */\n    tag_166:\n        /* \"#utility.yul\":1026:1027   */\n      0x00\n        /* \"#utility.yul\":1051:1104   */\n      tag_168\n        /* \"#utility.yul\":1096:1103   */\n      dup6\n        /* \"#utility.yul\":1087:1093   */\n      dup3\n        /* \"#utility.yul\":1076:1085   */\n      dup7\n        /* \"#utility.yul\":1072:1094   */\n      add\n        /* \"#utility.yul\":1051:1104   */\n      tag_152\n      jump\t// in\n    tag_168:\n        /* \"#utility.yul\":1041:1104   */\n      swap3\n      pop\n        /* \"#utility.yul\":997:1114   */\n      pop\n        /* \"#utility.yul\":1153:1155   */\n      0x20\n        /* \"#utility.yul\":1179:1232   */\n      tag_169\n        /* \"#utility.yul\":1224:1231   */\n      dup6\n        /* \"#utility.yul\":1215:1221   */\n      dup3\n        /* \"#utility.yul\":1204:1213   */\n      dup7\n        /* \"#utility.yul\":1200:1222   */\n      add\n        /* \"#utility.yul\":1179:1232   */\n      tag_148\n      jump\t// in\n    tag_169:\n        /* \"#utility.yul\":1169:1232   */\n      swap2\n      pop\n        /* \"#utility.yul\":1124:1242   */\n      pop\n        /* \"#utility.yul\":775:1249   */\n      swap3\n      pop\n      swap3\n      swap1\n      pop\n      jump\t// out\n        /* \"#utility.yul\":1255:1582   */\n    tag_18:\n        /* \"#utility.yul\":1313:1319   */\n      0x00\n        /* \"#utility.yul\":1362:1364   */\n      0x20\n        /* \"#utility.yul\":1350:1359   */\n      dup3\n        /* \"#utility.yul\":1341:1348   */\n      dup5\n        /* \"#utility.yul\":1337:1360   */\n      sub\n        /* \"#utility.yul\":1333:1365   */\n      slt\n        /* \"#utility.yul\":1330:1449   */\n      iszero\n      tag_171\n      jumpi\n        /* \"#utility.yul\":1368:1447   */\n      tag_172\n      tag_163\n      jump\t// in\n    tag_172:\n        /* \"#utility.yul\":1330:1449   */\n    tag_171:\n        /* \"#utility.yul\":1488:1489   */\n      0x00\n        /* \"#utility.yul\":1513:1565   */\n      tag_173\n        /* \"#utility.yul\":1557:1564   */\n      dup5\n        /* \"#utility.yul\":1548:1554   */\n      dup3\n        /* \"#utility.yul\":1537:1546   */\n      dup6\n        /* \"#utility.yul\":1533:1555   */\n      add\n        /* \"#utility.yul\":1513:1565   */\n      tag_156\n      jump\t// in\n    tag_173:\n        /* \"#utility.yul\":1503:1565   */\n      swap2\n      pop\n        /* \"#utility.yul\":1459:1575   */\n      pop\n        /* \"#utility.yul\":1255:1582   */\n      swap3\n      swap2\n      pop\n      pop\n      jump\t// out\n        /* \"#utility.yul\":1588:1697   */\n    tag_174:\n        /* \"#utility.yul\":1669:1690   */\n      tag_176\n        /* \"#utility.yul\":1684:1689   */\n      dup2\n        /* \"#utility.yul\":1669:1690   */\n      tag_177\n      jump\t// in\n    tag_176:\n        /* \"#utility.yul\":1664:1667   */\n      dup3\n        /* \"#utility.yul\":1657:1691   */\n      mstore\n        /* \"#utility.yul\":1588:1697   */\n      pop\n      pop\n      jump\t// out\n        /* \"#utility.yul\":1703:1821   */\n    tag_178:\n        /* \"#utility.yul\":1790:1814   */\n      tag_180\n        /* \"#utility.yul\":1808:1813   */\n      dup2\n        /* \"#utility.yul\":1790:1814   */\n      tag_181\n      jump\t// in\n    tag_180:\n        /* \"#utility.yul\":1785:1788   */\n      dup3\n        /* \"#utility.yul\":1778:1815   */\n      mstore\n        /* \"#utility.yul\":1703:1821   */\n      pop\n      pop\n      jump\t// out\n        /* \"#utility.yul\":1827:2191   */\n    tag_182:\n        /* \"#utility.yul\":1915:1918   */\n      0x00\n        /* \"#utility.yul\":1943:1982   */\n      tag_184\n        /* \"#utility.yul\":1976:1981   */\n      dup3\n        /* \"#utility.yul\":1943:1982   */\n      tag_185\n      jump\t// in\n    tag_184:\n        /* \"#utility.yul\":1998:2069   */\n      tag_186\n        /* \"#utility.yul\":2062:2068   */\n      dup2\n        /* \"#utility.yul\":2057:2060   */\n      dup6\n        /* \"#utility.yul\":1998:2069   */\n      tag_187\n      jump\t// in\n    tag_186:\n        /* \"#utility.yul\":1991:2069   */\n      swap4\n      pop\n        /* \"#utility.yul\":2078:2130   */\n      tag_188\n        /* \"#utility.yul\":2123:2129   */\n      dup2\n        /* \"#utility.yul\":2118:2121   */\n      dup6\n        /* \"#utility.yul\":2111:2115   */\n      0x20\n        /* \"#utility.yul\":2104:2109   */\n      dup7\n        /* \"#utility.yul\":2100:2116   */\n      add\n        /* \"#utility.yul\":2078:2130   */\n      tag_189\n      jump\t// in\n    tag_188:\n        /* \"#utility.yul\":2155:2184   */\n      tag_190\n        /* \"#utility.yul\":2177:2183   */\n      dup2\n        /* \"#utility.yul\":2155:2184   */\n      tag_191\n      jump\t// in\n    tag_190:\n        /* \"#utility.yul\":2150:2153   */\n      dup5\n        /* \"#utility.yul\":2146:2185   */\n      add\n        /* \"#utility.yul\":2139:2185   */\n      swap2\n      pop\n        /* \"#utility.yul\":1919:2191   */\n      pop\n        /* \"#utility.yul\":1827:2191   */\n      swap3\n      swap2\n      pop\n      pop\n      jump\t// out\n        /* \"#utility.yul\":2197:2574   */\n    tag_192:\n        /* \"#utility.yul\":2303:2306   */\n      0x00\n        /* \"#utility.yul\":2331:2370   */\n      tag_194\n        /* \"#utility.yul\":2364:2369   */\n      dup3\n        /* \"#utility.yul\":2331:2370   */\n      tag_185\n      jump\t// in\n    tag_194:\n        /* \"#utility.yul\":2386:2475   */\n      tag_195\n        /* \"#utility.yul\":2468:2474   */\n      dup2\n        /* \"#utility.yul\":2463:2466   */\n      dup6\n        /* \"#utility.yul\":2386:2475   */\n      tag_196\n      jump\t// in\n    tag_195:\n        /* \"#utility.yul\":2379:2475   */\n      swap4\n      pop\n        /* \"#utility.yul\":2484:2536   */\n      tag_197\n        /* \"#utility.yul\":2529:2535   */\n      dup2\n        /* \"#utility.yul\":2524:2527   */\n      dup6\n        /* \"#utility.yul\":2517:2521   */\n      0x20\n        /* \"#utility.yul\":2510:2515   */\n      dup7\n        /* \"#utility.yul\":2506:2522   */\n      add\n        /* \"#utility.yul\":2484:2536   */\n      tag_189\n      jump\t// in\n    tag_197:\n        /* \"#utility.yul\":2561:2567   */\n      dup1\n        /* \"#utility.yul\":2556:2559   */\n      dup5\n        /* \"#utility.yul\":2552:2568   */\n      add\n        /* \"#utility.yul\":2545:2568   */\n      swap2\n      pop\n        /* \"#utility.yul\":2307:2574   */\n      pop\n        /* \"#utility.yul\":2197:2574   */\n      swap3\n      swap2\n      pop\n      pop\n      jump\t// out\n        /* \"#utility.yul\":2580:2946   */\n    tag_198:\n        /* \"#utility.yul\":2722:2725   */\n      0x00\n        /* \"#utility.yul\":2743:2810   */\n      tag_200\n        /* \"#utility.yul\":2807:2809   */\n      0x20\n        /* \"#utility.yul\":2802:2805   */\n      dup4\n        /* \"#utility.yul\":2743:2810   */\n      tag_187\n      jump\t// in\n    tag_200:\n        /* \"#utility.yul\":2736:2810   */\n      swap2\n      pop\n        /* \"#utility.yul\":2819:2912   */\n      tag_201\n        /* \"#utility.yul\":2908:2911   */\n      dup3\n        /* \"#utility.yul\":2819:2912   */\n      tag_202\n      jump\t// in\n    tag_201:\n        /* \"#utility.yul\":2937:2939   */\n      0x20\n        /* \"#utility.yul\":2932:2935   */\n      dup3\n        /* \"#utility.yul\":2928:2940   */\n      add\n        /* \"#utility.yul\":2921:2940   */\n      swap1\n      pop\n        /* \"#utility.yul\":2580:2946   */\n      swap2\n      swap1\n      pop\n      jump\t// out\n        /* \"#utility.yul\":2952:3318   */\n    tag_203:\n        /* \"#utility.yul\":3094:3097   */\n      0x00\n        /* \"#utility.yul\":3115:3182   */\n      tag_205\n        /* \"#utility.yul\":3179:3181   */\n      0x2e\n        /* \"#utility.yul\":3174:3177   */\n      dup4\n        /* \"#utility.yul\":3115:3182   */\n      tag_187\n      jump\t// in\n    tag_205:\n        /* \"#utility.yul\":3108:3182   */\n      swap2\n      pop\n        /* \"#utility.yul\":3191:3284   */\n      tag_206\n        /* \"#utility.yul\":3280:3283   */\n      dup3\n        /* \"#utility.yul\":3191:3284   */\n      tag_207\n      jump\t// in\n    tag_206:\n        /* \"#utility.yul\":3309:3311   */\n      0x40\n        /* \"#utility.yul\":3304:3307   */\n      dup3\n        /* \"#utility.yul\":3300:3312   */\n      add\n        /* \"#utility.yul\":3293:3312   */\n      swap1\n      pop\n        /* \"#utility.yul\":2952:3318   */\n      swap2\n      swap1\n      pop\n      jump\t// out\n        /* \"#utility.yul\":3324:3726   */\n    tag_208:\n        /* \"#utility.yul\":3484:3487   */\n      0x00\n        /* \"#utility.yul\":3505:3590   */\n      tag_210\n        /* \"#utility.yul\":3587:3589   */\n      0x17\n        /* \"#utility.yul\":3582:3585   */\n      dup4\n        /* \"#utility.yul\":3505:3590   */\n      tag_196\n      jump\t// in\n    tag_210:\n        /* \"#utility.yul\":3498:3590   */\n      swap2\n      pop\n        /* \"#utility.yul\":3599:3692   */\n      tag_211\n        /* \"#utility.yul\":3688:3691   */\n      dup3\n        /* \"#utility.yul\":3599:3692   */\n      tag_212\n      jump\t// in\n    tag_211:\n        /* \"#utility.yul\":3717:3719   */\n      0x17\n        /* \"#utility.yul\":3712:3715   */\n      dup3\n        /* \"#utility.yul\":3708:3720   */\n      add\n        /* \"#utility.yul\":3701:3720   */\n      swap1\n      pop\n        /* \"#utility.yul\":3324:3726   */\n      swap2\n      swap1\n      pop\n      jump\t// out\n        /* \"#utility.yul\":3732:4134   */\n    tag_213:\n        /* \"#utility.yul\":3892:3895   */\n      0x00\n        /* \"#utility.yul\":3913:3998   */\n      tag_215\n        /* \"#utility.yul\":3995:3997   */\n      0x11\n        /* \"#utility.yul\":3990:3993   */\n      dup4\n        /* \"#utility.yul\":3913:3998   */\n      tag_196\n      jump\t// in\n    tag_215:\n        /* \"#utility.yul\":3906:3998   */\n      swap2\n      pop\n        /* \"#utility.yul\":4007:4100   */\n      tag_216\n        /* \"#utility.yul\":4096:4099   */\n      dup3\n        /* \"#utility.yul\":4007:4100   */\n      tag_217\n      jump\t// in\n    tag_216:\n        /* \"#utility.yul\":4125:4127   */\n      0x11\n        /* \"#utility.yul\":4120:4123   */\n      dup3\n        /* \"#utility.yul\":4116:4128   */\n      add\n        /* \"#utility.yul\":4109:4128   */\n      swap1\n      pop\n        /* \"#utility.yul\":3732:4134   */\n      swap2\n      swap1\n      pop\n      jump\t// out\n        /* \"#utility.yul\":4140:4506   */\n    tag_218:\n        /* \"#utility.yul\":4282:4285   */\n      0x00\n        /* \"#utility.yul\":4303:4370   */\n      tag_220\n        /* \"#utility.yul\":4367:4369   */\n      0x2f\n        /* \"#utility.yul\":4362:4365   */\n      dup4\n        /* \"#utility.yul\":4303:4370   */\n      tag_187\n      jump\t// in\n    tag_220:\n        /* \"#utility.yul\":4296:4370   */\n      swap2\n      pop\n        /* \"#utility.yul\":4379:4472   */\n      tag_221\n        /* \"#utility.yul\":4468:4471   */\n      dup3\n        /* \"#utility.yul\":4379:4472   */\n      tag_222\n      jump\t// in\n    tag_221:\n        /* \"#utility.yul\":4497:4499   */\n      0x40\n        /* \"#utility.yul\":4492:4495   */\n      dup3\n        /* \"#utility.yul\":4488:4500   */\n      add\n        /* \"#utility.yul\":4481:4500   */\n      swap1\n      pop\n        /* \"#utility.yul\":4140:4506   */\n      swap2\n      swap1\n      pop\n      jump\t// out\n        /* \"#utility.yul\":4512:4878   */\n    tag_223:\n        /* \"#utility.yul\":4654:4657   */\n      0x00\n        /* \"#utility.yul\":4675:4742   */\n      tag_225\n        /* \"#utility.yul\":4739:4741   */\n      0x34\n        /* \"#utility.yul\":4734:4737   */\n      dup4\n        /* \"#utility.yul\":4675:4742   */\n      tag_187\n      jump\t// in\n    tag_225:\n        /* \"#utility.yul\":4668:4742   */\n      swap2\n      pop\n        /* \"#utility.yul\":4751:4844   */\n      tag_226\n        /* \"#utility.yul\":4840:4843   */\n      dup3\n        /* \"#utility.yul\":4751:4844   */\n      tag_227\n      jump\t// in\n    tag_226:\n        /* \"#utility.yul\":4869:4871   */\n      0x40\n        /* \"#utility.yul\":4864:4867   */\n      dup3\n        /* \"#utility.yul\":4860:4872   */\n      add\n        /* \"#utility.yul\":4853:4872   */\n      swap1\n      pop\n        /* \"#utility.yul\":4512:4878   */\n      swap2\n      swap1\n      pop\n      jump\t// out\n        /* \"#utility.yul\":4884:5851   */\n    tag_116:\n        /* \"#utility.yul\":5266:5269   */\n      0x00\n        /* \"#utility.yul\":5288:5436   */\n      tag_229\n        /* \"#utility.yul\":5432:5435   */\n      dup3\n        /* \"#utility.yul\":5288:5436   */\n      tag_208\n      jump\t// in\n    tag_229:\n        /* \"#utility.yul\":5281:5436   */\n      swap2\n      pop\n        /* \"#utility.yul\":5453:5548   */\n      tag_230\n        /* \"#utility.yul\":5544:5547   */\n      dup3\n        /* \"#utility.yul\":5535:5541   */\n      dup6\n        /* \"#utility.yul\":5453:5548   */\n      tag_192\n      jump\t// in\n    tag_230:\n        /* \"#utility.yul\":5446:5548   */\n      swap2\n      pop\n        /* \"#utility.yul\":5565:5713   */\n      tag_231\n        /* \"#utility.yul\":5709:5712   */\n      dup3\n        /* \"#utility.yul\":5565:5713   */\n      tag_213\n      jump\t// in\n    tag_231:\n        /* \"#utility.yul\":5558:5713   */\n      swap2\n      pop\n        /* \"#utility.yul\":5730:5825   */\n      tag_232\n        /* \"#utility.yul\":5821:5824   */\n      dup3\n        /* \"#utility.yul\":5812:5818   */\n      dup5\n        /* \"#utility.yul\":5730:5825   */\n      tag_192\n      jump\t// in\n    tag_232:\n        /* \"#utility.yul\":5723:5825   */\n      swap2\n      pop\n        /* \"#utility.yul\":5842:5845   */\n      dup2\n        /* \"#utility.yul\":5835:5845   */\n      swap1\n      pop\n        /* \"#utility.yul\":4884:5851   */\n      swap4\n      swap3\n      pop\n      pop\n      pop\n      jump\t// out\n        /* \"#utility.yul\":5857:6067   */\n    tag_21:\n        /* \"#utility.yul\":5944:5948   */\n      0x00\n        /* \"#utility.yul\":5982:5984   */\n      0x20\n        /* \"#utility.yul\":5971:5980   */\n      dup3\n        /* \"#utility.yul\":5967:5985   */\n      add\n        /* \"#utility.yul\":5959:5985   */\n      swap1\n      pop\n        /* \"#utility.yul\":5995:6060   */\n      tag_234\n        /* \"#utility.yul\":6057:6058   */\n      0x00\n        /* \"#utility.yul\":6046:6055   */\n      dup4\n        /* \"#utility.yul\":6042:6059   */\n      add\n        /* \"#utility.yul\":6033:6039   */\n      dup5\n        /* \"#utility.yul\":5995:6060   */\n      tag_174\n      jump\t// in\n    tag_234:\n        /* \"#utility.yul\":5857:6067   */\n      swap3\n      swap2\n      pop\n      pop\n      jump\t// out\n        /* \"#utility.yul\":6073:6295   */\n    tag_27:\n        /* \"#utility.yul\":6166:6170   */\n      0x00\n        /* \"#utility.yul\":6204:6206   */\n      0x20\n        /* \"#utility.yul\":6193:6202   */\n      dup3\n        /* \"#utility.yul\":6189:6207   */\n      add\n        /* \"#utility.yul\":6181:6207   */\n      swap1\n      pop\n        /* \"#utility.yul\":6217:6288   */\n      tag_236\n        /* \"#utility.yul\":6285:6286   */\n      0x00\n        /* \"#utility.yul\":6274:6283   */\n      dup4\n        /* \"#utility.yul\":6270:6287   */\n      add\n        /* \"#utility.yul\":6261:6267   */\n      dup5\n        /* \"#utility.yul\":6217:6288   */\n      tag_178\n      jump\t// in\n    tag_236:\n        /* \"#utility.yul\":6073:6295   */\n      swap3\n      swap2\n      pop\n      pop\n      jump\t// out\n        /* \"#utility.yul\":6301:6614   */\n    tag_118:\n        /* \"#utility.yul\":6414:6418   */\n      0x00\n        /* \"#utility.yul\":6452:6454   */\n      0x20\n        /* \"#utility.yul\":6441:6450   */\n      dup3\n        /* \"#utility.yul\":6437:6455   */\n      add\n        /* \"#utility.yul\":6429:6455   */\n      swap1\n      pop\n        /* \"#utility.yul\":6501:6510   */\n      dup2\n        /* \"#utility.yul\":6495:6499   */\n      dup2\n        /* \"#utility.yul\":6491:6511   */\n      sub\n        /* \"#utility.yul\":6487:6488   */\n      0x00\n        /* \"#utility.yul\":6476:6485   */\n      dup4\n        /* \"#utility.yul\":6472:6489   */\n      add\n        /* \"#utility.yul\":6465:6512   */\n      mstore\n        /* \"#utility.yul\":6529:6607   */\n      tag_238\n        /* \"#utility.yul\":6602:6606   */\n      dup2\n        /* \"#utility.yul\":6593:6599   */\n      dup5\n        /* \"#utility.yul\":6529:6607   */\n      tag_182\n      jump\t// in\n    tag_238:\n        /* \"#utility.yul\":6521:6607   */\n      swap1\n      pop\n        /* \"#utility.yul\":6301:6614   */\n      swap3\n      swap2\n      pop\n      pop\n      jump\t// out\n        /* \"#utility.yul\":6620:7039   */\n    tag_146:\n        /* \"#utility.yul\":6786:6790   */\n      0x00\n        /* \"#utility.yul\":6824:6826   */\n      0x20\n        /* \"#utility.yul\":6813:6822   */\n      dup3\n        /* \"#utility.yul\":6809:6827   */\n      add\n        /* \"#utility.yul\":6801:6827   */\n      swap1\n      pop\n        /* \"#utility.yul\":6873:6882   */\n      dup2\n        /* \"#utility.yul\":6867:6871   */\n      dup2\n        /* \"#utility.yul\":6863:6883   */\n      sub\n        /* \"#utility.yul\":6859:6860   */\n      0x00\n        /* \"#utility.yul\":6848:6857   */\n      dup4\n        /* \"#utility.yul\":6844:6861   */\n      add\n        /* \"#utility.yul\":6837:6884   */\n      mstore\n        /* \"#utility.yul\":6901:7032   */\n      tag_240\n        /* \"#utility.yul\":7027:7031   */\n      dup2\n        /* \"#utility.yul\":6901:7032   */\n      tag_198\n      jump\t// in\n    tag_240:\n        /* \"#utility.yul\":6893:7032   */\n      swap1\n      pop\n        /* \"#utility.yul\":6620:7039   */\n      swap2\n      swap1\n      pop\n      jump\t// out\n        /* \"#utility.yul\":7045:7464   */\n    tag_83:\n        /* \"#utility.yul\":7211:7215   */\n      0x00\n        /* \"#utility.yul\":7249:7251   */\n      0x20\n        /* \"#utility.yul\":7238:7247   */\n      dup3\n        /* \"#utility.yul\":7234:7252   */\n      add\n        /* \"#utility.yul\":7226:7252   */\n      swap1\n      pop\n        /* \"#utility.yul\":7298:7307   */\n      dup2\n        /* \"#utility.yul\":7292:7296   */\n      dup2\n        /* \"#utility.yul\":7288:7308   */\n      sub\n        /* \"#utility.yul\":7284:7285   */\n      0x00\n        /* \"#utility.yul\":7273:7282   */\n      dup4\n        /* \"#utility.yul\":7269:7286   */\n      add\n        /* \"#utility.yul\":7262:7309   */\n      mstore\n        /* \"#utility.yul\":7326:7457   */\n      tag_242\n        /* \"#utility.yul\":7452:7456   */\n      dup2\n        /* \"#utility.yul\":7326:7457   */\n      tag_203\n      jump\t// in\n    tag_242:\n        /* \"#utility.yul\":7318:7457   */\n      swap1\n      pop\n        /* \"#utility.yul\":7045:7464   */\n      swap2\n      swap1\n      pop\n      jump\t// out\n        /* \"#utility.yul\":7470:7889   */\n    tag_75:\n        /* \"#utility.yul\":7636:7640   */\n      0x00\n        /* \"#utility.yul\":7674:7676   */\n      0x20\n        /* \"#utility.yul\":7663:7672   */\n      dup3\n        /* \"#utility.yul\":7659:7677   */\n      add\n        /* \"#utility.yul\":7651:7677   */\n      swap1\n      pop\n        /* \"#utility.yul\":7723:7732   */\n      dup2\n        /* \"#utility.yul\":7717:7721   */\n      dup2\n        /* \"#utility.yul\":7713:7733   */\n      sub\n        /* \"#utility.yul\":7709:7710   */\n      0x00\n        /* \"#utility.yul\":7698:7707   */\n      dup4\n        /* \"#utility.yul\":7694:7711   */\n      add\n        /* \"#utility.yul\":7687:7734   */\n      mstore\n        /* \"#utility.yul\":7751:7882   */\n      tag_244\n        /* \"#utility.yul\":7877:7881   */\n      dup2\n        /* \"#utility.yul\":7751:7882   */\n      tag_218\n      jump\t// in\n    tag_244:\n        /* \"#utility.yul\":7743:7882   */\n      swap1\n      pop\n        /* \"#utility.yul\":7470:7889   */\n      swap2\n      swap1\n      pop\n      jump\t// out\n        /* \"#utility.yul\":7895:8314   */\n    tag_88:\n        /* \"#utility.yul\":8061:8065   */\n      0x00\n        /* \"#utility.yul\":8099:8101   */\n      0x20\n        /* \"#utility.yul\":8088:8097   */\n      dup3\n        /* \"#utility.yul\":8084:8102   */\n      add\n        /* \"#utility.yul\":8076:8102   */\n      swap1\n      pop\n        /* \"#utility.yul\":8148:8157   */\n      dup2\n        /* \"#utility.yul\":8142:8146   */\n      dup2\n        /* \"#utility.yul\":8138:8158   */\n      sub\n        /* \"#utility.yul\":8134:8135   */\n      0x00\n        /* \"#utility.yul\":8123:8132   */\n      dup4\n        /* \"#utility.yul\":8119:8136   */\n      add\n        /* \"#utility.yul\":8112:8159   */\n      mstore\n        /* \"#utility.yul\":8176:8307   */\n      tag_246\n        /* \"#utility.yul\":8302:8306   */\n      dup2\n        /* \"#utility.yul\":8176:8307   */\n      tag_223\n      jump\t// in\n    tag_246:\n        /* \"#utility.yul\":8168:8307   */\n      swap1\n      pop\n        /* \"#utility.yul\":7895:8314   */\n      swap2\n      swap1\n      pop\n      jump\t// out\n        /* \"#utility.yul\":8401:8500   */\n    tag_185:\n        /* \"#utility.yul\":8453:8459   */\n      0x00\n        /* \"#utility.yul\":8487:8492   */\n      dup2\n        /* \"#utility.yul\":8481:8493   */\n      mload\n        /* \"#utility.yul\":8471:8493   */\n      swap1\n      pop\n        /* \"#utility.yul\":8401:8500   */\n      swap2\n      swap1\n      pop\n      jump\t// out\n        /* \"#utility.yul\":8506:8675   */\n    tag_187:\n        /* \"#utility.yul\":8590:8601   */\n      0x00\n        /* \"#utility.yul\":8624:8630   */\n      dup3\n        /* \"#utility.yul\":8619:8622   */\n      dup3\n        /* \"#utility.yul\":8612:8631   */\n      mstore\n        /* \"#utility.yul\":8664:8668   */\n      0x20\n        /* \"#utility.yul\":8659:8662   */\n      dup3\n        /* \"#utility.yul\":8655:8669   */\n      add\n        /* \"#utility.yul\":8640:8669   */\n      swap1\n      pop\n        /* \"#utility.yul\":8506:8675   */\n      swap3\n      swap2\n      pop\n      pop\n      jump\t// out\n        /* \"#utility.yul\":8681:8829   */\n    tag_196:\n        /* \"#utility.yul\":8783:8794   */\n      0x00\n        /* \"#utility.yul\":8820:8823   */\n      dup2\n        /* \"#utility.yul\":8805:8823   */\n      swap1\n      pop\n        /* \"#utility.yul\":8681:8829   */\n      swap3\n      swap2\n      pop\n      pop\n      jump\t// out\n        /* \"#utility.yul\":8835:9140   */\n    tag_123:\n        /* \"#utility.yul\":8875:8878   */\n      0x00\n        /* \"#utility.yul\":8894:8914   */\n      tag_253\n        /* \"#utility.yul\":8912:8913   */\n      dup3\n        /* \"#utility.yul\":8894:8914   */\n      tag_254\n      jump\t// in\n    tag_253:\n        /* \"#utility.yul\":8889:8914   */\n      swap2\n      pop\n        /* \"#utility.yul\":8928:8948   */\n      tag_255\n        /* \"#utility.yul\":8946:8947   */\n      dup4\n        /* \"#utility.yul\":8928:8948   */\n      tag_254\n      jump\t// in\n    tag_255:\n        /* \"#utility.yul\":8923:8948   */\n      swap3\n      pop\n        /* \"#utility.yul\":9082:9083   */\n      dup3\n        /* \"#utility.yul\":9014:9080   */\n      0xffffffffffffffffffffffffffffffffffffffffffffffffffffffffffffffff\n        /* \"#utility.yul\":9010:9084   */\n      sub\n        /* \"#utility.yul\":9007:9008   */\n      dup3\n        /* \"#utility.yul\":9004:9085   */\n      gt\n        /* \"#utility.yul\":9001:9108   */\n      iszero\n      tag_256\n      jumpi\n        /* \"#utility.yul\":9088:9106   */\n      tag_257\n      tag_258\n      jump\t// in\n    tag_257:\n        /* \"#utility.yul\":9001:9108   */\n    tag_256:\n        /* \"#utility.yul\":9132:9133   */\n      dup3\n        /* \"#utility.yul\":9129:9130   */\n      dup3\n        /* \"#utility.yul\":9125:9134   */\n      add\n        /* \"#utility.yul\":9118:9134   */\n      swap1\n      pop\n        /* \"#utility.yul\":8835:9140   */\n      swap3\n      swap2\n      pop\n      pop\n      jump\t// out\n        /* \"#utility.yul\":9146:9494   */\n    tag_121:\n        /* \"#utility.yul\":9186:9193   */\n      0x00\n        /* \"#utility.yul\":9209:9229   */\n      tag_260\n        /* \"#utility.yul\":9227:9228   */\n      dup3\n        /* \"#utility.yul\":9209:9229   */\n      tag_254\n      jump\t// in\n    tag_260:\n        /* \"#utility.yul\":9204:9229   */\n      swap2\n      pop\n        /* \"#utility.yul\":9243:9263   */\n      tag_261\n        /* \"#utility.yul\":9261:9262   */\n      dup4\n        /* \"#utility.yul\":9243:9263   */\n      tag_254\n      jump\t// in\n    tag_261:\n        /* \"#utility.yul\":9238:9263   */\n      swap3\n      pop\n        /* \"#utility.yul\":9431:9432   */\n      dup2\n        /* \"#utility.yul\":9363:9429   */\n      0xffffffffffffffffffffffffffffffffffffffffffffffffffffffffffffffff\n        /* \"#utility.yul\":9359:9433   */\n      div\n        /* \"#utility.yul\":9356:9357   */\n      dup4\n        /* \"#utility.yul\":9353:9434   */\n      gt\n        /* \"#utility.yul\":9348:9349   */\n      dup3\n        /* \"#utility.yul\":9341:9350   */\n      iszero\n        /* \"#utility.yul\":9334:9351   */\n      iszero\n        /* \"#utility.yul\":9330:9435   */\n      and\n        /* \"#utility.yul\":9327:9458   */\n      iszero\n      tag_262\n      jumpi\n        /* \"#utility.yul\":9438:9456   */\n      tag_263\n      tag_258\n      jump\t// in\n    tag_263:\n        /* \"#utility.yul\":9327:9458   */\n    tag_262:\n        /* \"#utility.yul\":9486:9487   */\n      dup3\n        /* \"#utility.yul\":9483:9484   */\n      dup3\n        /* \"#utility.yul\":9479:9488   */\n      mul\n        /* \"#utility.yul\":9468:9488   */\n      swap1\n      pop\n        /* \"#utility.yul\":9146:9494   */\n      swap3\n      swap2\n      pop\n      pop\n      jump\t// out\n        /* \"#utility.yul\":9500:9596   */\n    tag_264:\n        /* \"#utility.yul\":9537:9544   */\n      0x00\n        /* \"#utility.yul\":9566:9590   */\n      tag_266\n        /* \"#utility.yul\":9584:9589   */\n      dup3\n        /* \"#utility.yul\":9566:9590   */\n      tag_267\n      jump\t// in\n    tag_266:\n        /* \"#utility.yul\":9555:9590   */\n      swap1\n      pop\n        /* \"#utility.yul\":9500:9596   */\n      swap2\n      swap1\n      pop\n      jump\t// out\n        /* \"#utility.yul\":9602:9692   */\n    tag_177:\n        /* \"#utility.yul\":9636:9643   */\n      0x00\n        /* \"#utility.yul\":9679:9684   */\n      dup2\n        /* \"#utility.yul\":9672:9685   */\n      iszero\n        /* \"#utility.yul\":9665:9686   */\n      iszero\n        /* \"#utility.yul\":9654:9686   */\n      swap1\n      pop\n        /* \"#utility.yul\":9602:9692   */\n      swap2\n      swap1\n      pop\n      jump\t// out\n        /* \"#utility.yul\":9698:9775   */\n    tag_181:\n        /* \"#utility.yul\":9735:9742   */\n      0x00\n        /* \"#utility.yul\":9764:9769   */\n      dup2\n        /* \"#utility.yul\":9753:9769   */\n      swap1\n      pop\n        /* \"#utility.yul\":9698:9775   */\n      swap2\n      swap1\n      pop\n      jump\t// out\n        /* \"#utility.yul\":9781:9930   */\n    tag_270:\n        /* \"#utility.yul\":9817:9824   */\n      0x00\n        /* \"#utility.yul\":9857:9923   */\n      0xffffffff00000000000000000000000000000000000000000000000000000000\n        /* \"#utility.yul\":9850:9855   */\n      dup3\n        /* \"#utility.yul\":9846:9924   */\n      and\n        /* \"#utility.yul\":9835:9924   */\n      swap1\n      pop\n        /* \"#utility.yul\":9781:9930   */\n      swap2\n      swap1\n      pop\n      jump\t// out\n        /* \"#utility.yul\":9936:10062   */\n    tag_267:\n        /* \"#utility.yul\":9973:9980   */\n      0x00\n        /* \"#utility.yul\":10013:10055   */\n      0xffffffffffffffffffffffffffffffffffffffff\n        /* \"#utility.yul\":10006:10011   */\n      dup3\n        /* \"#utility.yul\":10002:10056   */\n      and\n        /* \"#utility.yul\":9991:10056   */\n      swap1\n      pop\n        /* \"#utility.yul\":9936:10062   */\n      swap2\n      swap1\n      pop\n      jump\t// out\n        /* \"#utility.yul\":10068:10145   */\n    tag_254:\n        /* \"#utility.yul\":10105:10112   */\n      0x00\n        /* \"#utility.yul\":10134:10139   */\n      dup2\n        /* \"#utility.yul\":10123:10139   */\n      swap1\n      pop\n        /* \"#utility.yul\":10068:10145   */\n      swap2\n      swap1\n      pop\n      jump\t// out\n        /* \"#utility.yul\":10151:10458   */\n    tag_189:\n        /* \"#utility.yul\":10219:10220   */\n      0x00\n        /* \"#utility.yul\":10229:10342   */\n    tag_275:\n        /* \"#utility.yul\":10243:10249   */\n      dup4\n        /* \"#utility.yul\":10240:10241   */\n      dup2\n        /* \"#utility.yul\":10237:10250   */\n      lt\n        /* \"#utility.yul\":10229:10342   */\n      iszero\n      tag_277\n      jumpi\n        /* \"#utility.yul\":10328:10329   */\n      dup1\n        /* \"#utility.yul\":10323:10326   */\n      dup3\n        /* \"#utility.yul\":10319:10330   */\n      add\n        /* \"#utility.yul\":10313:10331   */\n      mload\n        /* \"#utility.yul\":10309:10310   */\n      dup2\n        /* \"#utility.yul\":10304:10307   */\n      dup5\n        /* \"#utility.yul\":10300:10311   */\n      add\n        /* \"#utility.yul\":10293:10332   */\n      mstore\n        /* \"#utility.yul\":10265:10267   */\n      0x20\n        /* \"#utility.yul\":10262:10263   */\n      dup2\n        /* \"#utility.yul\":10258:10268   */\n      add\n        /* \"#utility.yul\":10253:10268   */\n      swap1\n      pop\n        /* \"#utility.yul\":10229:10342   */\n      jump(tag_275)\n    tag_277:\n        /* \"#utility.yul\":10360:10366   */\n      dup4\n        /* \"#utility.yul\":10357:10358   */\n      dup2\n        /* \"#utility.yul\":10354:10367   */\n      gt\n        /* \"#utility.yul\":10351:10452   */\n      iszero\n      tag_278\n      jumpi\n        /* \"#utility.yul\":10440:10441   */\n      0x00\n        /* \"#utility.yul\":10431:10437   */\n      dup5\n        /* \"#utility.yul\":10426:10429   */\n      dup5\n        /* \"#utility.yul\":10422:10438   */\n      add\n        /* \"#utility.yul\":10415:10442   */\n      mstore\n        /* \"#utility.yul\":10351:10452   */\n    tag_278:\n        /* \"#utility.yul\":10200:10458   */\n      pop\n        /* \"#utility.yul\":10151:10458   */\n      pop\n      pop\n      pop\n      jump\t// out\n        /* \"#utility.yul\":10464:10635   */\n    tag_143:\n        /* \"#utility.yul\":10503:10506   */\n      0x00\n        /* \"#utility.yul\":10526:10550   */\n      tag_280\n        /* \"#utility.yul\":10544:10549   */\n      dup3\n        /* \"#utility.yul\":10526:10550   */\n      tag_254\n      jump\t// in\n    tag_280:\n        /* \"#utility.yul\":10517:10550   */\n      swap2\n      pop\n        /* \"#utility.yul\":10572:10576   */\n      0x00\n        /* \"#utility.yul\":10565:10570   */\n      dup3\n        /* \"#utility.yul\":10562:10577   */\n      eq\n        /* \"#utility.yul\":10559:10600   */\n      iszero\n      tag_281\n      jumpi\n        /* \"#utility.yul\":10580:10598   */\n      tag_282\n      tag_258\n      jump\t// in\n    tag_282:\n        /* \"#utility.yul\":10559:10600   */\n    tag_281:\n        /* \"#utility.yul\":10627:10628   */\n      0x01\n        /* \"#utility.yul\":10620:10625   */\n      dup3\n        /* \"#utility.yul\":10616:10629   */\n      sub\n        /* \"#utility.yul\":10609:10629   */\n      swap1\n      pop\n        /* \"#utility.yul\":10464:10635   */\n      swap2\n      swap1\n      pop\n      jump\t// out\n        /* \"#utility.yul\":10641:10821   */\n    tag_258:\n        /* \"#utility.yul\":10689:10766   */\n      0x4e487b7100000000000000000000000000000000000000000000000000000000\n        /* \"#utility.yul\":10686:10687   */\n      0x00\n        /* \"#utility.yul\":10679:10767   */\n      mstore\n        /* \"#utility.yul\":10786:10790   */\n      0x11\n        /* \"#utility.yul\":10783:10784   */\n      0x04\n        /* \"#utility.yul\":10776:10791   */\n      mstore\n        /* \"#utility.yul\":10810:10814   */\n      0x24\n        /* \"#utility.yul\":10807:10808   */\n      0x00\n        /* \"#utility.yul\":10800:10815   */\n      revert\n        /* \"#utility.yul\":10827:11007   */\n    tag_130:\n        /* \"#utility.yul\":10875:10952   */\n      0x4e487b7100000000000000000000000000000000000000000000000000000000\n        /* \"#utility.yul\":10872:10873   */\n      0x00\n        /* \"#utility.yul\":10865:10953   */\n      mstore\n        /* \"#utility.yul\":10972:10976   */\n      0x32\n        /* \"#utility.yul\":10969:10970   */\n      0x04\n        /* \"#utility.yul\":10962:10977   */\n      mstore\n        /* \"#utility.yul\":10996:11000   */\n      0x24\n        /* \"#utility.yul\":10993:10994   */\n      0x00\n        /* \"#utility.yul\":10986:11001   */\n      revert\n        /* \"#utility.yul\":11013:11193   */\n    tag_126:\n        /* \"#utility.yul\":11061:11138   */\n      0x4e487b7100000000000000000000000000000000000000000000000000000000\n        /* \"#utility.yul\":11058:11059   */\n      0x00\n        /* \"#utility.yul\":11051:11139   */\n      mstore\n        /* \"#utility.yul\":11158:11162   */\n      0x41\n        /* \"#utility.yul\":11155:11156   */\n      0x04\n        /* \"#utility.yul\":11148:11163   */\n      mstore\n        /* \"#utility.yul\":11182:11186   */\n      0x24\n        /* \"#utility.yul\":11179:11180   */\n      0x00\n        /* \"#utility.yul\":11172:11187   */\n      revert\n        /* \"#utility.yul\":11322:11439   */\n    tag_163:\n        /* \"#utility.yul\":11431:11432   */\n      0x00\n        /* \"#utility.yul\":11428:11429   */\n      dup1\n        /* \"#utility.yul\":11421:11433   */\n      revert\n        /* \"#utility.yul\":11445:11547   */\n    tag_191:\n        /* \"#utility.yul\":11486:11492   */\n      0x00\n        /* \"#utility.yul\":11537:11539   */\n      0x1f\n        /* \"#utility.yul\":11533:11540   */\n      not\n        /* \"#utility.yul\":11528:11530   */\n      0x1f\n        /* \"#utility.yul\":11521:11526   */\n      dup4\n        /* \"#utility.yul\":11517:11531   */\n      add\n        /* \"#utility.yul\":11513:11541   */\n      and\n        /* \"#utility.yul\":11503:11541   */\n      swap1\n      pop\n        /* \"#utility.yul\":11445:11547   */\n      swap2\n      swap1\n      pop\n      jump\t// out\n        /* \"#utility.yul\":11553:11735   */\n    tag_202:\n        /* \"#utility.yul\":11693:11727   */\n      0x537472696e67733a20686578206c656e67746820696e73756666696369656e74\n        /* \"#utility.yul\":11689:11690   */\n      0x00\n        /* \"#utility.yul\":11681:11687   */\n      dup3\n        /* \"#utility.yul\":11677:11691   */\n      add\n        /* \"#utility.yul\":11670:11728   */\n      mstore\n        /* \"#utility.yul\":11553:11735   */\n      pop\n      jump\t// out\n        /* \"#utility.yul\":11741:11974   */\n    tag_207:\n        /* \"#utility.yul\":11881:11915   */\n      0x457374612066756e63696f6e20736f6c6f207075656465207365722075736164\n        /* \"#utility.yul\":11877:11878   */\n      0x00\n        /* \"#utility.yul\":11869:11875   */\n      dup3\n        /* \"#utility.yul\":11865:11879   */\n      add\n        /* \"#utility.yul\":11858:11916   */\n      mstore\n        /* \"#utility.yul\":11950:11966   */\n      0x6120706f7220656c2041444d494e000000000000000000000000000000000000\n        /* \"#utility.yul\":11945:11947   */\n      0x20\n        /* \"#utility.yul\":11937:11943   */\n      dup3\n        /* \"#utility.yul\":11933:11948   */\n      add\n        /* \"#utility.yul\":11926:11967   */\n      mstore\n        /* \"#utility.yul\":11741:11974   */\n      pop\n      jump\t// out\n        /* \"#utility.yul\":11980:12153   */\n    tag_212:\n        /* \"#utility.yul\":12120:12145   */\n      0x416363657373436f6e74726f6c3a206163636f756e7420000000000000000000\n        /* \"#utility.yul\":12116:12117   */\n      0x00\n        /* \"#utility.yul\":12108:12114   */\n      dup3\n        /* \"#utility.yul\":12104:12118   */\n      add\n        /* \"#utility.yul\":12097:12146   */\n      mstore\n        /* \"#utility.yul\":11980:12153   */\n      pop\n      jump\t// out\n        /* \"#utility.yul\":12159:12326   */\n    tag_217:\n        /* \"#utility.yul\":12299:12318   */\n      0x206973206d697373696e6720726f6c6520000000000000000000000000000000\n        /* \"#utility.yul\":12295:12296   */\n      0x00\n        /* \"#utility.yul\":12287:12293   */\n      dup3\n        /* \"#utility.yul\":12283:12297   */\n      add\n        /* \"#utility.yul\":12276:12319   */\n      mstore\n        /* \"#utility.yul\":12159:12326   */\n      pop\n      jump\t// out\n        /* \"#utility.yul\":12332:12566   */\n    tag_222:\n        /* \"#utility.yul\":12472:12506   */\n      0x416363657373436f6e74726f6c3a2063616e206f6e6c792072656e6f756e6365\n        /* \"#utility.yul\":12468:12469   */\n      0x00\n        /* \"#utility.yul\":12460:12466   */\n      dup3\n        /* \"#utility.yul\":12456:12470   */\n      add\n        /* \"#utility.yul\":12449:12507   */\n      mstore\n        /* \"#utility.yul\":12541:12558   */\n      0x20726f6c657320666f722073656c660000000000000000000000000000000000\n        /* \"#utility.yul\":12536:12538   */\n      0x20\n        /* \"#utility.yul\":12528:12534   */\n      dup3\n        /* \"#utility.yul\":12524:12539   */\n      add\n        /* \"#utility.yul\":12517:12559   */\n      mstore\n        /* \"#utility.yul\":12332:12566   */\n      pop\n      jump\t// out\n        /* \"#utility.yul\":12572:12811   */\n    tag_227:\n        /* \"#utility.yul\":12712:12746   */\n      0x457374612066756e63696f6e20736f6c6f20707565646520736572207574696c\n        /* \"#utility.yul\":12708:12709   */\n      0x00\n        /* \"#utility.yul\":12700:12706   */\n      dup3\n        /* \"#utility.yul\":12696:12710   */\n      add\n        /* \"#utility.yul\":12689:12747   */\n      mstore\n        /* \"#utility.yul\":12781:12803   */\n      0x697a61646120706f7220756e205553554152494f000000000000000000000000\n        /* \"#utility.yul\":12776:12778   */\n      0x20\n        /* \"#utility.yul\":12768:12774   */\n      dup3\n        /* \"#utility.yul\":12764:12779   */\n      add\n        /* \"#utility.yul\":12757:12804   */\n      mstore\n        /* \"#utility.yul\":12572:12811   */\n      pop\n      jump\t// out\n        /* \"#utility.yul\":12817:12939   */\n    tag_151:\n        /* \"#utility.yul\":12890:12914   */\n      tag_297\n        /* \"#utility.yul\":12908:12913   */\n      dup2\n        /* \"#utility.yul\":12890:12914   */\n      tag_264\n      jump\t// in\n    tag_297:\n        /* \"#utility.yul\":12883:12888   */\n      dup2\n        /* \"#utility.yul\":12880:12915   */\n      eq\n        /* \"#utility.yul\":12870:12933   */\n      tag_298\n      jumpi\n        /* \"#utility.yul\":12929:12930   */\n      0x00\n        /* \"#utility.yul\":12926:12927   */\n      dup1\n        /* \"#utility.yul\":12919:12931   */\n      revert\n        /* \"#utility.yul\":12870:12933   */\n    tag_298:\n        /* \"#utility.yul\":12817:12939   */\n      pop\n      jump\t// out\n        /* \"#utility.yul\":12945:13067   */\n    tag_155:\n        /* \"#utility.yul\":13018:13042   */\n      tag_300\n        /* \"#utility.yul\":13036:13041   */\n      dup2\n        /* \"#utility.yul\":13018:13042   */\n      tag_181\n      jump\t// in\n    tag_300:\n        /* \"#utility.yul\":13011:13016   */\n      dup2\n        /* \"#utility.yul\":13008:13043   */\n      eq\n        /* \"#utility.yul\":12998:13061   */\n      tag_301\n      jumpi\n        /* \"#utility.yul\":13057:13058   */\n      0x00\n        /* \"#utility.yul\":13054:13055   */\n      dup1\n        /* \"#utility.yul\":13047:13059   */\n      revert\n        /* \"#utility.yul\":12998:13061   */\n    tag_301:\n        /* \"#utility.yul\":12945:13067   */\n      pop\n      jump\t// out\n        /* \"#utility.yul\":13073:13193   */\n    tag_159:\n        /* \"#utility.yul\":13145:13168   */\n      tag_303\n        /* \"#utility.yul\":13162:13167   */\n      dup2\n        /* \"#utility.yul\":13145:13168   */\n      tag_270\n      jump\t// in\n    tag_303:\n        /* \"#utility.yul\":13138:13143   */\n      dup2\n        /* \"#utility.yul\":13135:13169   */\n      eq\n        /* \"#utility.yul\":13125:13187   */\n      tag_304\n      jumpi\n        /* \"#utility.yul\":13183:13184   */\n      0x00\n        /* \"#utility.yul\":13180:13181   */\n      dup1\n        /* \"#utility.yul\":13173:13185   */\n      revert\n        /* \"#utility.yul\":13125:13187   */\n    tag_304:\n        /* \"#utility.yul\":13073:13193   */\n      pop\n      jump\t// out\n\n    auxdata: 0xa264697066735822122024e5be8e0de5aa16af7e59d71993d7275177251458ad7574d97fc2d774ea8b0264736f6c63430008070033\n}\n",
				"bytecode": {
					"linkReferences": {},
					"object": "608060405234801561001057600080fd5b506111b5806100206000396000f3fe608060405234801561001057600080fd5b50600436106100b45760003560e01c8063a217fddf11610071578063a217fddf1461019f578063adec03fc146101bd578063ba55fc8b146101db578063bb30ad22146101e5578063d547741f146101ef578063ee19de251461020b576100b4565b806301ffc9a7146100b9578063248a9ca3146100e95780632f2ff15d1461011957806336568abe146101355780635ca6f3ea1461015157806391d148541461016f575b600080fd5b6100d360048036038101906100ce9190610ae4565b610227565b6040516100e09190610ca5565b60405180910390f35b61010360048036038101906100fe9190610a77565b6102a1565b6040516101109190610cc0565b60405180910390f35b610133600480360381019061012e9190610aa4565b6102c0565b005b61014f600480360381019061014a9190610aa4565b6102e1565b005b610159610364565b6040516101669190610cc0565b60405180910390f35b61018960048036038101906101849190610aa4565b610388565b6040516101969190610ca5565b60405180910390f35b6101a76103f2565b6040516101b49190610cc0565b60405180910390f35b6101c56103f9565b6040516101d29190610cc0565b60405180910390f35b6101e361041d565b005b6101ed610488565b005b61020960048036038101906102049190610aa4565b6104f3565b005b61022560048036038101906102209190610aa4565b610514565b005b60007f7965db0b000000000000000000000000000000000000000000000000000000007bffffffffffffffffffffffffffffffffffffffffffffffffffffffff1916827bffffffffffffffffffffffffffffffffffffffffffffffffffffffff1916148061029a575061029982610518565b5b9050919050565b6000806000838152602001908152602001600020600101549050919050565b6102c9826102a1565b6102d281610582565b6102dc8383610596565b505050565b6102e9610676565b73ffffffffffffffffffffffffffffffffffffffff168173ffffffffffffffffffffffffffffffffffffffff1614610356576040517f08c379a000000000000000000000000000000000000000000000000000000000815260040161034d90610d3d565b60405180910390fd5b610360828261067e565b5050565b7f575582185c1302752a00c2a38ce472577737eb5e4ab29b34daf1ccaa4c9fe08a81565b600080600084815260200190815260200160002060000160008373ffffffffffffffffffffffffffffffffffffffff1673ffffffffffffffffffffffffffffffffffffffff16815260200190815260200160002060009054906101000a900460ff16905092915050565b6000801b81565b7f7e5b835f8ef15bb117d49cb6d0658113bc08d41d8a6edf12d3d1feb5c587533081565b6104477f575582185c1302752a00c2a38ce472577737eb5e4ab29b34daf1ccaa4c9fe08a33610388565b610486576040517f08c379a000000000000000000000000000000000000000000000000000000000815260040161047d90610d1d565b60405180910390fd5b565b6104b27f7e5b835f8ef15bb117d49cb6d0658113bc08d41d8a6edf12d3d1feb5c587533033610388565b6104f1576040517f08c379a00000000000000000000000000000000000000000000000000000000081526004016104e890610d5d565b60405180910390fd5b565b6104fc826102a1565b61050581610582565b61050f838361067e565b505050565b5050565b60007f01ffc9a7000000000000000000000000000000000000000000000000000000007bffffffffffffffffffffffffffffffffffffffffffffffffffffffff1916827bffffffffffffffffffffffffffffffffffffffffffffffffffffffff1916149050919050565b6105938161058e610676565b61075f565b50565b6105a08282610388565b61067257600160008084815260200190815260200160002060000160008373ffffffffffffffffffffffffffffffffffffffff1673ffffffffffffffffffffffffffffffffffffffff16815260200190815260200160002060006101000a81548160ff021916908315150217905550610617610676565b73ffffffffffffffffffffffffffffffffffffffff168173ffffffffffffffffffffffffffffffffffffffff16837f2f8788117e7eff1d82e926ec794901d17c78024a50270940304540a733656f0d60405160405180910390a45b5050565b600033905090565b6106888282610388565b1561075b57600080600084815260200190815260200160002060000160008373ffffffffffffffffffffffffffffffffffffffff1673ffffffffffffffffffffffffffffffffffffffff16815260200190815260200160002060006101000a81548160ff021916908315150217905550610700610676565b73ffffffffffffffffffffffffffffffffffffffff168173ffffffffffffffffffffffffffffffffffffffff16837ff6391f5c32d9c69d2a47ea670b442974b53935d1edc7fd64eb21e047a839171b60405160405180910390a45b5050565b6107698282610388565b6107f85761078e8173ffffffffffffffffffffffffffffffffffffffff1660146107fc565b61079c8360001c60206107fc565b6040516020016107ad929190610c6b565b6040516020818303038152906040526040517f08c379a00000000000000000000000000000000000000000000000000000000081526004016107ef9190610cdb565b60405180910390fd5b5050565b60606000600283600261080f9190610dfa565b6108199190610da4565b67ffffffffffffffff81111561083257610831610f8d565b5b6040519080825280601f01601f1916602001820160405280156108645781602001600182028036833780820191505090505b5090507f30000000000000000000000000000000000000000000000000000000000000008160008151811061089c5761089b610f5e565b5b60200101907effffffffffffffffffffffffffffffffffffffffffffffffffffffffffffff1916908160001a9053507f780000000000000000000000000000000000000000000000000000000000000081600181518110610900576108ff610f5e565b5b60200101907effffffffffffffffffffffffffffffffffffffffffffffffffffffffffffff1916908160001a905350600060018460026109409190610dfa565b61094a9190610da4565b90505b60018111156109ea577f3031323334353637383961626364656600000000000000000000000000000000600f86166010811061098c5761098b610f5e565b5b1a60f81b8282815181106109a3576109a2610f5e565b5b60200101907effffffffffffffffffffffffffffffffffffffffffffffffffffffffffffff1916908160001a905350600485901c9450806109e390610f05565b905061094d565b5060008414610a2e576040517f08c379a0000000000000000000000000000000000000000000000000000000008152600401610a2590610cfd565b60405180910390fd5b8091505092915050565b600081359050610a478161113a565b92915050565b600081359050610a5c81611151565b92915050565b600081359050610a7181611168565b92915050565b600060208284031215610a8d57610a8c610fbc565b5b6000610a9b84828501610a4d565b91505092915050565b60008060408385031215610abb57610aba610fbc565b5b6000610ac985828601610a4d565b9250506020610ada85828601610a38565b9150509250929050565b600060208284031215610afa57610af9610fbc565b5b6000610b0884828501610a62565b91505092915050565b610b1a81610e66565b82525050565b610b2981610e72565b82525050565b6000610b3a82610d7d565b610b448185610d88565b9350610b54818560208601610ed2565b610b5d81610fc1565b840191505092915050565b6000610b7382610d7d565b610b7d8185610d99565b9350610b8d818560208601610ed2565b80840191505092915050565b6000610ba6602083610d88565b9150610bb182610fd2565b602082019050919050565b6000610bc9602e83610d88565b9150610bd482610ffb565b604082019050919050565b6000610bec601783610d99565b9150610bf78261104a565b601782019050919050565b6000610c0f601183610d99565b9150610c1a82611073565b601182019050919050565b6000610c32602f83610d88565b9150610c3d8261109c565b604082019050919050565b6000610c55603483610d88565b9150610c60826110eb565b604082019050919050565b6000610c7682610bdf565b9150610c828285610b68565b9150610c8d82610c02565b9150610c998284610b68565b91508190509392505050565b6000602082019050610cba6000830184610b11565b92915050565b6000602082019050610cd56000830184610b20565b92915050565b60006020820190508181036000830152610cf58184610b2f565b905092915050565b60006020820190508181036000830152610d1681610b99565b9050919050565b60006020820190508181036000830152610d3681610bbc565b9050919050565b60006020820190508181036000830152610d5681610c25565b9050919050565b60006020820190508181036000830152610d7681610c48565b9050919050565b600081519050919050565b600082825260208201905092915050565b600081905092915050565b6000610daf82610ec8565b9150610dba83610ec8565b9250827fffffffffffffffffffffffffffffffffffffffffffffffffffffffffffffffff03821115610def57610dee610f2f565b5b828201905092915050565b6000610e0582610ec8565b9150610e1083610ec8565b9250817fffffffffffffffffffffffffffffffffffffffffffffffffffffffffffffffff0483118215151615610e4957610e48610f2f565b5b828202905092915050565b6000610e5f82610ea8565b9050919050565b60008115159050919050565b6000819050919050565b60007fffffffff0000000000000000000000000000000000000000000000000000000082169050919050565b600073ffffffffffffffffffffffffffffffffffffffff82169050919050565b6000819050919050565b60005b83811015610ef0578082015181840152602081019050610ed5565b83811115610eff576000848401525b50505050565b6000610f1082610ec8565b91506000821415610f2457610f23610f2f565b5b600182039050919050565b7f4e487b7100000000000000000000000000000000000000000000000000000000600052601160045260246000fd5b7f4e487b7100000000000000000000000000000000000000000000000000000000600052603260045260246000fd5b7f4e487b7100000000000000000000000000000000000000000000000000000000600052604160045260246000fd5b600080fd5b6000601f19601f8301169050919050565b7f537472696e67733a20686578206c656e67746820696e73756666696369656e74600082015250565b7f457374612066756e63696f6e20736f6c6f20707565646520736572207573616460008201527f6120706f7220656c2041444d494e000000000000000000000000000000000000602082015250565b7f416363657373436f6e74726f6c3a206163636f756e7420000000000000000000600082015250565b7f206973206d697373696e6720726f6c6520000000000000000000000000000000600082015250565b7f416363657373436f6e74726f6c3a2063616e206f6e6c792072656e6f756e636560008201527f20726f6c657320666f722073656c660000000000000000000000000000000000602082015250565b7f457374612066756e63696f6e20736f6c6f20707565646520736572207574696c60008201527f697a61646120706f7220756e205553554152494f000000000000000000000000602082015250565b61114381610e54565b811461114e57600080fd5b50565b61115a81610e72565b811461116557600080fd5b50565b61117181610e7c565b811461117c57600080fd5b5056fea264697066735822122024e5be8e0de5aa16af7e59d71993d7275177251458ad7574d97fc2d774ea8b0264736f6c63430008070033",
					"opcodes": "PUSH1 0x80 PUSH1 0x40 MSTORE CALLVALUE DUP1 ISZERO PUSH2 0x10 JUMPI PUSH1 0x0 DUP1 REVERT JUMPDEST POP PUSH2 0x11B5 DUP1 PUSH2 0x20 PUSH1 0x0 CODECOPY PUSH1 0x0 RETURN INVALID PUSH1 0x80 PUSH1 0x40 MSTORE CALLVALUE DUP1 ISZERO PUSH2 0x10 JUMPI PUSH1 0x0 DUP1 REVERT JUMPDEST POP PUSH1 0x4 CALLDATASIZE LT PUSH2 0xB4 JUMPI PUSH1 0x0 CALLDATALOAD PUSH1 0xE0 SHR DUP1 PUSH4 0xA217FDDF GT PUSH2 0x71 JUMPI DUP1 PUSH4 0xA217FDDF EQ PUSH2 0x19F JUMPI DUP1 PUSH4 0xADEC03FC EQ PUSH2 0x1BD JUMPI DUP1 PUSH4 0xBA55FC8B EQ PUSH2 0x1DB JUMPI DUP1 PUSH4 0xBB30AD22 EQ PUSH2 0x1E5 JUMPI DUP1 PUSH4 0xD547741F EQ PUSH2 0x1EF JUMPI DUP1 PUSH4 0xEE19DE25 EQ PUSH2 0x20B JUMPI PUSH2 0xB4 JUMP JUMPDEST DUP1 PUSH4 0x1FFC9A7 EQ PUSH2 0xB9 JUMPI DUP1 PUSH4 0x248A9CA3 EQ PUSH2 0xE9 JUMPI DUP1 PUSH4 0x2F2FF15D EQ PUSH2 0x119 JUMPI DUP1 PUSH4 0x36568ABE EQ PUSH2 0x135 JUMPI DUP1 PUSH4 0x5CA6F3EA EQ PUSH2 0x151 JUMPI DUP1 PUSH4 0x91D14854 EQ PUSH2 0x16F JUMPI JUMPDEST PUSH1 0x0 DUP1 REVERT JUMPDEST PUSH2 0xD3 PUSH1 0x4 DUP1 CALLDATASIZE SUB DUP2 ADD SWAP1 PUSH2 0xCE SWAP2 SWAP1 PUSH2 0xAE4 JUMP JUMPDEST PUSH2 0x227 JUMP JUMPDEST PUSH1 0x40 MLOAD PUSH2 0xE0 SWAP2 SWAP1 PUSH2 0xCA5 JUMP JUMPDEST PUSH1 0x40 MLOAD DUP1 SWAP2 SUB SWAP1 RETURN JUMPDEST PUSH2 0x103 PUSH1 0x4 DUP1 CALLDATASIZE SUB DUP2 ADD SWAP1 PUSH2 0xFE SWAP2 SWAP1 PUSH2 0xA77 JUMP JUMPDEST PUSH2 0x2A1 JUMP JUMPDEST PUSH1 0x40 MLOAD PUSH2 0x110 SWAP2 SWAP1 PUSH2 0xCC0 JUMP JUMPDEST PUSH1 0x40 MLOAD DUP1 SWAP2 SUB SWAP1 RETURN JUMPDEST PUSH2 0x133 PUSH1 0x4 DUP1 CALLDATASIZE SUB DUP2 ADD SWAP1 PUSH2 0x12E SWAP2 SWAP1 PUSH2 0xAA4 JUMP JUMPDEST PUSH2 0x2C0 JUMP JUMPDEST STOP JUMPDEST PUSH2 0x14F PUSH1 0x4 DUP1 CALLDATASIZE SUB DUP2 ADD SWAP1 PUSH2 0x14A SWAP2 SWAP1 PUSH2 0xAA4 JUMP JUMPDEST PUSH2 0x2E1 JUMP JUMPDEST STOP JUMPDEST PUSH2 0x159 PUSH2 0x364 JUMP JUMPDEST PUSH1 0x40 MLOAD PUSH2 0x166 SWAP2 SWAP1 PUSH2 0xCC0 JUMP JUMPDEST PUSH1 0x40 MLOAD DUP1 SWAP2 SUB SWAP1 RETURN JUMPDEST PUSH2 0x189 PUSH1 0x4 DUP1 CALLDATASIZE SUB DUP2 ADD SWAP1 PUSH2 0x184 SWAP2 SWAP1 PUSH2 0xAA4 JUMP JUMPDEST PUSH2 0x388 JUMP JUMPDEST PUSH1 0x40 MLOAD PUSH2 0x196 SWAP2 SWAP1 PUSH2 0xCA5 JUMP JUMPDEST PUSH1 0x40 MLOAD DUP1 SWAP2 SUB SWAP1 RETURN JUMPDEST PUSH2 0x1A7 PUSH2 0x3F2 JUMP JUMPDEST PUSH1 0x40 MLOAD PUSH2 0x1B4 SWAP2 SWAP1 PUSH2 0xCC0 JUMP JUMPDEST PUSH1 0x40 MLOAD DUP1 SWAP2 SUB SWAP1 RETURN JUMPDEST PUSH2 0x1C5 PUSH2 0x3F9 JUMP JUMPDEST PUSH1 0x40 MLOAD PUSH2 0x1D2 SWAP2 SWAP1 PUSH2 0xCC0 JUMP JUMPDEST PUSH1 0x40 MLOAD DUP1 SWAP2 SUB SWAP1 RETURN JUMPDEST PUSH2 0x1E3 PUSH2 0x41D JUMP JUMPDEST STOP JUMPDEST PUSH2 0x1ED PUSH2 0x488 JUMP JUMPDEST STOP JUMPDEST PUSH2 0x209 PUSH1 0x4 DUP1 CALLDATASIZE SUB DUP2 ADD SWAP1 PUSH2 0x204 SWAP2 SWAP1 PUSH2 0xAA4 JUMP JUMPDEST PUSH2 0x4F3 JUMP JUMPDEST STOP JUMPDEST PUSH2 0x225 PUSH1 0x4 DUP1 CALLDATASIZE SUB DUP2 ADD SWAP1 PUSH2 0x220 SWAP2 SWAP1 PUSH2 0xAA4 JUMP JUMPDEST PUSH2 0x514 JUMP JUMPDEST STOP JUMPDEST PUSH1 0x0 PUSH32 0x7965DB0B00000000000000000000000000000000000000000000000000000000 PUSH28 0xFFFFFFFFFFFFFFFFFFFFFFFFFFFFFFFFFFFFFFFFFFFFFFFFFFFFFFFF NOT AND DUP3 PUSH28 0xFFFFFFFFFFFFFFFFFFFFFFFFFFFFFFFFFFFFFFFFFFFFFFFFFFFFFFFF NOT AND EQ DUP1 PUSH2 0x29A JUMPI POP PUSH2 0x299 DUP3 PUSH2 0x518 JUMP JUMPDEST JUMPDEST SWAP1 POP SWAP2 SWAP1 POP JUMP JUMPDEST PUSH1 0x0 DUP1 PUSH1 0x0 DUP4 DUP2 MSTORE PUSH1 0x20 ADD SWAP1 DUP2 MSTORE PUSH1 0x20 ADD PUSH1 0x0 KECCAK256 PUSH1 0x1 ADD SLOAD SWAP1 POP SWAP2 SWAP1 POP JUMP JUMPDEST PUSH2 0x2C9 DUP3 PUSH2 0x2A1 JUMP JUMPDEST PUSH2 0x2D2 DUP2 PUSH2 0x582 JUMP JUMPDEST PUSH2 0x2DC DUP4 DUP4 PUSH2 0x596 JUMP JUMPDEST POP POP POP JUMP JUMPDEST PUSH2 0x2E9 PUSH2 0x676 JUMP JUMPDEST PUSH20 0xFFFFFFFFFFFFFFFFFFFFFFFFFFFFFFFFFFFFFFFF AND DUP2 PUSH20 0xFFFFFFFFFFFFFFFFFFFFFFFFFFFFFFFFFFFFFFFF AND EQ PUSH2 0x356 JUMPI PUSH1 0x40 MLOAD PUSH32 0x8C379A000000000000000000000000000000000000000000000000000000000 DUP2 MSTORE PUSH1 0x4 ADD PUSH2 0x34D SWAP1 PUSH2 0xD3D JUMP JUMPDEST PUSH1 0x40 MLOAD DUP1 SWAP2 SUB SWAP1 REVERT JUMPDEST PUSH2 0x360 DUP3 DUP3 PUSH2 0x67E JUMP JUMPDEST POP POP JUMP JUMPDEST PUSH32 0x575582185C1302752A00C2A38CE472577737EB5E4AB29B34DAF1CCAA4C9FE08A DUP2 JUMP JUMPDEST PUSH1 0x0 DUP1 PUSH1 0x0 DUP5 DUP2 MSTORE PUSH1 0x20 ADD SWAP1 DUP2 MSTORE PUSH1 0x20 ADD PUSH1 0x0 KECCAK256 PUSH1 0x0 ADD PUSH1 0x0 DUP4 PUSH20 0xFFFFFFFFFFFFFFFFFFFFFFFFFFFFFFFFFFFFFFFF AND PUSH20 0xFFFFFFFFFFFFFFFFFFFFFFFFFFFFFFFFFFFFFFFF AND DUP2 MSTORE PUSH1 0x20 ADD SWAP1 DUP2 MSTORE PUSH1 0x20 ADD PUSH1 0x0 KECCAK256 PUSH1 0x0 SWAP1 SLOAD SWAP1 PUSH2 0x100 EXP SWAP1 DIV PUSH1 0xFF AND SWAP1 POP SWAP3 SWAP2 POP POP JUMP JUMPDEST PUSH1 0x0 DUP1 SHL DUP2 JUMP JUMPDEST PUSH32 0x7E5B835F8EF15BB117D49CB6D0658113BC08D41D8A6EDF12D3D1FEB5C5875330 DUP2 JUMP JUMPDEST PUSH2 0x447 PUSH32 0x575582185C1302752A00C2A38CE472577737EB5E4AB29B34DAF1CCAA4C9FE08A CALLER PUSH2 0x388 JUMP JUMPDEST PUSH2 0x486 JUMPI PUSH1 0x40 MLOAD PUSH32 0x8C379A000000000000000000000000000000000000000000000000000000000 DUP2 MSTORE PUSH1 0x4 ADD PUSH2 0x47D SWAP1 PUSH2 0xD1D JUMP JUMPDEST PUSH1 0x40 MLOAD DUP1 SWAP2 SUB SWAP1 REVERT JUMPDEST JUMP JUMPDEST PUSH2 0x4B2 PUSH32 0x7E5B835F8EF15BB117D49CB6D0658113BC08D41D8A6EDF12D3D1FEB5C5875330 CALLER PUSH2 0x388 JUMP JUMPDEST PUSH2 0x4F1 JUMPI PUSH1 0x40 MLOAD PUSH32 0x8C379A000000000000000000000000000000000000000000000000000000000 DUP2 MSTORE PUSH1 0x4 ADD PUSH2 0x4E8 SWAP1 PUSH2 0xD5D JUMP JUMPDEST PUSH1 0x40 MLOAD DUP1 SWAP2 SUB SWAP1 REVERT JUMPDEST JUMP JUMPDEST PUSH2 0x4FC DUP3 PUSH2 0x2A1 JUMP JUMPDEST PUSH2 0x505 DUP2 PUSH2 0x582 JUMP JUMPDEST PUSH2 0x50F DUP4 DUP4 PUSH2 0x67E JUMP JUMPDEST POP POP POP JUMP JUMPDEST POP POP JUMP JUMPDEST PUSH1 0x0 PUSH32 0x1FFC9A700000000000000000000000000000000000000000000000000000000 PUSH28 0xFFFFFFFFFFFFFFFFFFFFFFFFFFFFFFFFFFFFFFFFFFFFFFFFFFFFFFFF NOT AND DUP3 PUSH28 0xFFFFFFFFFFFFFFFFFFFFFFFFFFFFFFFFFFFFFFFFFFFFFFFFFFFFFFFF NOT AND EQ SWAP1 POP SWAP2 SWAP1 POP JUMP JUMPDEST PUSH2 0x593 DUP2 PUSH2 0x58E PUSH2 0x676 JUMP JUMPDEST PUSH2 0x75F JUMP JUMPDEST POP JUMP JUMPDEST PUSH2 0x5A0 DUP3 DUP3 PUSH2 0x388 JUMP JUMPDEST PUSH2 0x672 JUMPI PUSH1 0x1 PUSH1 0x0 DUP1 DUP5 DUP2 MSTORE PUSH1 0x20 ADD SWAP1 DUP2 MSTORE PUSH1 0x20 ADD PUSH1 0x0 KECCAK256 PUSH1 0x0 ADD PUSH1 0x0 DUP4 PUSH20 0xFFFFFFFFFFFFFFFFFFFFFFFFFFFFFFFFFFFFFFFF AND PUSH20 0xFFFFFFFFFFFFFFFFFFFFFFFFFFFFFFFFFFFFFFFF AND DUP2 MSTORE PUSH1 0x20 ADD SWAP1 DUP2 MSTORE PUSH1 0x20 ADD PUSH1 0x0 KECCAK256 PUSH1 0x0 PUSH2 0x100 EXP DUP2 SLOAD DUP2 PUSH1 0xFF MUL NOT AND SWAP1 DUP4 ISZERO ISZERO MUL OR SWAP1 SSTORE POP PUSH2 0x617 PUSH2 0x676 JUMP JUMPDEST PUSH20 0xFFFFFFFFFFFFFFFFFFFFFFFFFFFFFFFFFFFFFFFF AND DUP2 PUSH20 0xFFFFFFFFFFFFFFFFFFFFFFFFFFFFFFFFFFFFFFFF AND DUP4 PUSH32 0x2F8788117E7EFF1D82E926EC794901D17C78024A50270940304540A733656F0D PUSH1 0x40 MLOAD PUSH1 0x40 MLOAD DUP1 SWAP2 SUB SWAP1 LOG4 JUMPDEST POP POP JUMP JUMPDEST PUSH1 0x0 CALLER SWAP1 POP SWAP1 JUMP JUMPDEST PUSH2 0x688 DUP3 DUP3 PUSH2 0x388 JUMP JUMPDEST ISZERO PUSH2 0x75B JUMPI PUSH1 0x0 DUP1 PUSH1 0x0 DUP5 DUP2 MSTORE PUSH1 0x20 ADD SWAP1 DUP2 MSTORE PUSH1 0x20 ADD PUSH1 0x0 KECCAK256 PUSH1 0x0 ADD PUSH1 0x0 DUP4 PUSH20 0xFFFFFFFFFFFFFFFFFFFFFFFFFFFFFFFFFFFFFFFF AND PUSH20 0xFFFFFFFFFFFFFFFFFFFFFFFFFFFFFFFFFFFFFFFF AND DUP2 MSTORE PUSH1 0x20 ADD SWAP1 DUP2 MSTORE PUSH1 0x20 ADD PUSH1 0x0 KECCAK256 PUSH1 0x0 PUSH2 0x100 EXP DUP2 SLOAD DUP2 PUSH1 0xFF MUL NOT AND SWAP1 DUP4 ISZERO ISZERO MUL OR SWAP1 SSTORE POP PUSH2 0x700 PUSH2 0x676 JUMP JUMPDEST PUSH20 0xFFFFFFFFFFFFFFFFFFFFFFFFFFFFFFFFFFFFFFFF AND DUP2 PUSH20 0xFFFFFFFFFFFFFFFFFFFFFFFFFFFFFFFFFFFFFFFF AND DUP4 PUSH32 0xF6391F5C32D9C69D2A47EA670B442974B53935D1EDC7FD64EB21E047A839171B PUSH1 0x40 MLOAD PUSH1 0x40 MLOAD DUP1 SWAP2 SUB SWAP1 LOG4 JUMPDEST POP POP JUMP JUMPDEST PUSH2 0x769 DUP3 DUP3 PUSH2 0x388 JUMP JUMPDEST PUSH2 0x7F8 JUMPI PUSH2 0x78E DUP2 PUSH20 0xFFFFFFFFFFFFFFFFFFFFFFFFFFFFFFFFFFFFFFFF AND PUSH1 0x14 PUSH2 0x7FC JUMP JUMPDEST PUSH2 0x79C DUP4 PUSH1 0x0 SHR PUSH1 0x20 PUSH2 0x7FC JUMP JUMPDEST PUSH1 0x40 MLOAD PUSH1 0x20 ADD PUSH2 0x7AD SWAP3 SWAP2 SWAP1 PUSH2 0xC6B JUMP JUMPDEST PUSH1 0x40 MLOAD PUSH1 0x20 DUP2 DUP4 SUB SUB DUP2 MSTORE SWAP1 PUSH1 0x40 MSTORE PUSH1 0x40 MLOAD PUSH32 0x8C379A000000000000000000000000000000000000000000000000000000000 DUP2 MSTORE PUSH1 0x4 ADD PUSH2 0x7EF SWAP2 SWAP1 PUSH2 0xCDB JUMP JUMPDEST PUSH1 0x40 MLOAD DUP1 SWAP2 SUB SWAP1 REVERT JUMPDEST POP POP JUMP JUMPDEST PUSH1 0x60 PUSH1 0x0 PUSH1 0x2 DUP4 PUSH1 0x2 PUSH2 0x80F SWAP2 SWAP1 PUSH2 0xDFA JUMP JUMPDEST PUSH2 0x819 SWAP2 SWAP1 PUSH2 0xDA4 JUMP JUMPDEST PUSH8 0xFFFFFFFFFFFFFFFF DUP2 GT ISZERO PUSH2 0x832 JUMPI PUSH2 0x831 PUSH2 0xF8D JUMP JUMPDEST JUMPDEST PUSH1 0x40 MLOAD SWAP1 DUP1 DUP3 MSTORE DUP1 PUSH1 0x1F ADD PUSH1 0x1F NOT AND PUSH1 0x20 ADD DUP3 ADD PUSH1 0x40 MSTORE DUP1 ISZERO PUSH2 0x864 JUMPI DUP2 PUSH1 0x20 ADD PUSH1 0x1 DUP3 MUL DUP1 CALLDATASIZE DUP4 CALLDATACOPY DUP1 DUP3 ADD SWAP2 POP POP SWAP1 POP JUMPDEST POP SWAP1 POP PUSH32 0x3000000000000000000000000000000000000000000000000000000000000000 DUP2 PUSH1 0x0 DUP2 MLOAD DUP2 LT PUSH2 0x89C JUMPI PUSH2 0x89B PUSH2 0xF5E JUMP JUMPDEST JUMPDEST PUSH1 0x20 ADD ADD SWAP1 PUSH31 0xFFFFFFFFFFFFFFFFFFFFFFFFFFFFFFFFFFFFFFFFFFFFFFFFFFFFFFFFFFFFFF NOT AND SWAP1 DUP2 PUSH1 0x0 BYTE SWAP1 MSTORE8 POP PUSH32 0x7800000000000000000000000000000000000000000000000000000000000000 DUP2 PUSH1 0x1 DUP2 MLOAD DUP2 LT PUSH2 0x900 JUMPI PUSH2 0x8FF PUSH2 0xF5E JUMP JUMPDEST JUMPDEST PUSH1 0x20 ADD ADD SWAP1 PUSH31 0xFFFFFFFFFFFFFFFFFFFFFFFFFFFFFFFFFFFFFFFFFFFFFFFFFFFFFFFFFFFFFF NOT AND SWAP1 DUP2 PUSH1 0x0 BYTE SWAP1 MSTORE8 POP PUSH1 0x0 PUSH1 0x1 DUP5 PUSH1 0x2 PUSH2 0x940 SWAP2 SWAP1 PUSH2 0xDFA JUMP JUMPDEST PUSH2 0x94A SWAP2 SWAP1 PUSH2 0xDA4 JUMP JUMPDEST SWAP1 POP JUMPDEST PUSH1 0x1 DUP2 GT ISZERO PUSH2 0x9EA JUMPI PUSH32 0x3031323334353637383961626364656600000000000000000000000000000000 PUSH1 0xF DUP7 AND PUSH1 0x10 DUP2 LT PUSH2 0x98C JUMPI PUSH2 0x98B PUSH2 0xF5E JUMP JUMPDEST JUMPDEST BYTE PUSH1 0xF8 SHL DUP3 DUP3 DUP2 MLOAD DUP2 LT PUSH2 0x9A3 JUMPI PUSH2 0x9A2 PUSH2 0xF5E JUMP JUMPDEST JUMPDEST PUSH1 0x20 ADD ADD SWAP1 PUSH31 0xFFFFFFFFFFFFFFFFFFFFFFFFFFFFFFFFFFFFFFFFFFFFFFFFFFFFFFFFFFFFFF NOT AND SWAP1 DUP2 PUSH1 0x0 BYTE SWAP1 MSTORE8 POP PUSH1 0x4 DUP6 SWAP1 SHR SWAP5 POP DUP1 PUSH2 0x9E3 SWAP1 PUSH2 0xF05 JUMP JUMPDEST SWAP1 POP PUSH2 0x94D JUMP JUMPDEST POP PUSH1 0x0 DUP5 EQ PUSH2 0xA2E JUMPI PUSH1 0x40 MLOAD PUSH32 0x8C379A000000000000000000000000000000000000000000000000000000000 DUP2 MSTORE PUSH1 0x4 ADD PUSH2 0xA25 SWAP1 PUSH2 0xCFD JUMP JUMPDEST PUSH1 0x40 MLOAD DUP1 SWAP2 SUB SWAP1 REVERT JUMPDEST DUP1 SWAP2 POP POP SWAP3 SWAP2 POP POP JUMP JUMPDEST PUSH1 0x0 DUP2 CALLDATALOAD SWAP1 POP PUSH2 0xA47 DUP2 PUSH2 0x113A JUMP JUMPDEST SWAP3 SWAP2 POP POP JUMP JUMPDEST PUSH1 0x0 DUP2 CALLDATALOAD SWAP1 POP PUSH2 0xA5C DUP2 PUSH2 0x1151 JUMP JUMPDEST SWAP3 SWAP2 POP POP JUMP JUMPDEST PUSH1 0x0 DUP2 CALLDATALOAD SWAP1 POP PUSH2 0xA71 DUP2 PUSH2 0x1168 JUMP JUMPDEST SWAP3 SWAP2 POP POP JUMP JUMPDEST PUSH1 0x0 PUSH1 0x20 DUP3 DUP5 SUB SLT ISZERO PUSH2 0xA8D JUMPI PUSH2 0xA8C PUSH2 0xFBC JUMP JUMPDEST JUMPDEST PUSH1 0x0 PUSH2 0xA9B DUP5 DUP3 DUP6 ADD PUSH2 0xA4D JUMP JUMPDEST SWAP2 POP POP SWAP3 SWAP2 POP POP JUMP JUMPDEST PUSH1 0x0 DUP1 PUSH1 0x40 DUP4 DUP6 SUB SLT ISZERO PUSH2 0xABB JUMPI PUSH2 0xABA PUSH2 0xFBC JUMP JUMPDEST JUMPDEST PUSH1 0x0 PUSH2 0xAC9 DUP6 DUP3 DUP7 ADD PUSH2 0xA4D JUMP JUMPDEST SWAP3 POP POP PUSH1 0x20 PUSH2 0xADA DUP6 DUP3 DUP7 ADD PUSH2 0xA38 JUMP JUMPDEST SWAP2 POP POP SWAP3 POP SWAP3 SWAP1 POP JUMP JUMPDEST PUSH1 0x0 PUSH1 0x20 DUP3 DUP5 SUB SLT ISZERO PUSH2 0xAFA JUMPI PUSH2 0xAF9 PUSH2 0xFBC JUMP JUMPDEST JUMPDEST PUSH1 0x0 PUSH2 0xB08 DUP5 DUP3 DUP6 ADD PUSH2 0xA62 JUMP JUMPDEST SWAP2 POP POP SWAP3 SWAP2 POP POP JUMP JUMPDEST PUSH2 0xB1A DUP2 PUSH2 0xE66 JUMP JUMPDEST DUP3 MSTORE POP POP JUMP JUMPDEST PUSH2 0xB29 DUP2 PUSH2 0xE72 JUMP JUMPDEST DUP3 MSTORE POP POP JUMP JUMPDEST PUSH1 0x0 PUSH2 0xB3A DUP3 PUSH2 0xD7D JUMP JUMPDEST PUSH2 0xB44 DUP2 DUP6 PUSH2 0xD88 JUMP JUMPDEST SWAP4 POP PUSH2 0xB54 DUP2 DUP6 PUSH1 0x20 DUP7 ADD PUSH2 0xED2 JUMP JUMPDEST PUSH2 0xB5D DUP2 PUSH2 0xFC1 JUMP JUMPDEST DUP5 ADD SWAP2 POP POP SWAP3 SWAP2 POP POP JUMP JUMPDEST PUSH1 0x0 PUSH2 0xB73 DUP3 PUSH2 0xD7D JUMP JUMPDEST PUSH2 0xB7D DUP2 DUP6 PUSH2 0xD99 JUMP JUMPDEST SWAP4 POP PUSH2 0xB8D DUP2 DUP6 PUSH1 0x20 DUP7 ADD PUSH2 0xED2 JUMP JUMPDEST DUP1 DUP5 ADD SWAP2 POP POP SWAP3 SWAP2 POP POP JUMP JUMPDEST PUSH1 0x0 PUSH2 0xBA6 PUSH1 0x20 DUP4 PUSH2 0xD88 JUMP JUMPDEST SWAP2 POP PUSH2 0xBB1 DUP3 PUSH2 0xFD2 JUMP JUMPDEST PUSH1 0x20 DUP3 ADD SWAP1 POP SWAP2 SWAP1 POP JUMP JUMPDEST PUSH1 0x0 PUSH2 0xBC9 PUSH1 0x2E DUP4 PUSH2 0xD88 JUMP JUMPDEST SWAP2 POP PUSH2 0xBD4 DUP3 PUSH2 0xFFB JUMP JUMPDEST PUSH1 0x40 DUP3 ADD SWAP1 POP SWAP2 SWAP1 POP JUMP JUMPDEST PUSH1 0x0 PUSH2 0xBEC PUSH1 0x17 DUP4 PUSH2 0xD99 JUMP JUMPDEST SWAP2 POP PUSH2 0xBF7 DUP3 PUSH2 0x104A JUMP JUMPDEST PUSH1 0x17 DUP3 ADD SWAP1 POP SWAP2 SWAP1 POP JUMP JUMPDEST PUSH1 0x0 PUSH2 0xC0F PUSH1 0x11 DUP4 PUSH2 0xD99 JUMP JUMPDEST SWAP2 POP PUSH2 0xC1A DUP3 PUSH2 0x1073 JUMP JUMPDEST PUSH1 0x11 DUP3 ADD SWAP1 POP SWAP2 SWAP1 POP JUMP JUMPDEST PUSH1 0x0 PUSH2 0xC32 PUSH1 0x2F DUP4 PUSH2 0xD88 JUMP JUMPDEST SWAP2 POP PUSH2 0xC3D DUP3 PUSH2 0x109C JUMP JUMPDEST PUSH1 0x40 DUP3 ADD SWAP1 POP SWAP2 SWAP1 POP JUMP JUMPDEST PUSH1 0x0 PUSH2 0xC55 PUSH1 0x34 DUP4 PUSH2 0xD88 JUMP JUMPDEST SWAP2 POP PUSH2 0xC60 DUP3 PUSH2 0x10EB JUMP JUMPDEST PUSH1 0x40 DUP3 ADD SWAP1 POP SWAP2 SWAP1 POP JUMP JUMPDEST PUSH1 0x0 PUSH2 0xC76 DUP3 PUSH2 0xBDF JUMP JUMPDEST SWAP2 POP PUSH2 0xC82 DUP3 DUP6 PUSH2 0xB68 JUMP JUMPDEST SWAP2 POP PUSH2 0xC8D DUP3 PUSH2 0xC02 JUMP JUMPDEST SWAP2 POP PUSH2 0xC99 DUP3 DUP5 PUSH2 0xB68 JUMP JUMPDEST SWAP2 POP DUP2 SWAP1 POP SWAP4 SWAP3 POP POP POP JUMP JUMPDEST PUSH1 0x0 PUSH1 0x20 DUP3 ADD SWAP1 POP PUSH2 0xCBA PUSH1 0x0 DUP4 ADD DUP5 PUSH2 0xB11 JUMP JUMPDEST SWAP3 SWAP2 POP POP JUMP JUMPDEST PUSH1 0x0 PUSH1 0x20 DUP3 ADD SWAP1 POP PUSH2 0xCD5 PUSH1 0x0 DUP4 ADD DUP5 PUSH2 0xB20 JUMP JUMPDEST SWAP3 SWAP2 POP POP JUMP JUMPDEST PUSH1 0x0 PUSH1 0x20 DUP3 ADD SWAP1 POP DUP2 DUP2 SUB PUSH1 0x0 DUP4 ADD MSTORE PUSH2 0xCF5 DUP2 DUP5 PUSH2 0xB2F JUMP JUMPDEST SWAP1 POP SWAP3 SWAP2 POP POP JUMP JUMPDEST PUSH1 0x0 PUSH1 0x20 DUP3 ADD SWAP1 POP DUP2 DUP2 SUB PUSH1 0x0 DUP4 ADD MSTORE PUSH2 0xD16 DUP2 PUSH2 0xB99 JUMP JUMPDEST SWAP1 POP SWAP2 SWAP1 POP JUMP JUMPDEST PUSH1 0x0 PUSH1 0x20 DUP3 ADD SWAP1 POP DUP2 DUP2 SUB PUSH1 0x0 DUP4 ADD MSTORE PUSH2 0xD36 DUP2 PUSH2 0xBBC JUMP JUMPDEST SWAP1 POP SWAP2 SWAP1 POP JUMP JUMPDEST PUSH1 0x0 PUSH1 0x20 DUP3 ADD SWAP1 POP DUP2 DUP2 SUB PUSH1 0x0 DUP4 ADD MSTORE PUSH2 0xD56 DUP2 PUSH2 0xC25 JUMP JUMPDEST SWAP1 POP SWAP2 SWAP1 POP JUMP JUMPDEST PUSH1 0x0 PUSH1 0x20 DUP3 ADD SWAP1 POP DUP2 DUP2 SUB PUSH1 0x0 DUP4 ADD MSTORE PUSH2 0xD76 DUP2 PUSH2 0xC48 JUMP JUMPDEST SWAP1 POP SWAP2 SWAP1 POP JUMP JUMPDEST PUSH1 0x0 DUP2 MLOAD SWAP1 POP SWAP2 SWAP1 POP JUMP JUMPDEST PUSH1 0x0 DUP3 DUP3 MSTORE PUSH1 0x20 DUP3 ADD SWAP1 POP SWAP3 SWAP2 POP POP JUMP JUMPDEST PUSH1 0x0 DUP2 SWAP1 POP SWAP3 SWAP2 POP POP JUMP JUMPDEST PUSH1 0x0 PUSH2 0xDAF DUP3 PUSH2 0xEC8 JUMP JUMPDEST SWAP2 POP PUSH2 0xDBA DUP4 PUSH2 0xEC8 JUMP JUMPDEST SWAP3 POP DUP3 PUSH32 0xFFFFFFFFFFFFFFFFFFFFFFFFFFFFFFFFFFFFFFFFFFFFFFFFFFFFFFFFFFFFFFFF SUB DUP3 GT ISZERO PUSH2 0xDEF JUMPI PUSH2 0xDEE PUSH2 0xF2F JUMP JUMPDEST JUMPDEST DUP3 DUP3 ADD SWAP1 POP SWAP3 SWAP2 POP POP JUMP JUMPDEST PUSH1 0x0 PUSH2 0xE05 DUP3 PUSH2 0xEC8 JUMP JUMPDEST SWAP2 POP PUSH2 0xE10 DUP4 PUSH2 0xEC8 JUMP JUMPDEST SWAP3 POP DUP2 PUSH32 0xFFFFFFFFFFFFFFFFFFFFFFFFFFFFFFFFFFFFFFFFFFFFFFFFFFFFFFFFFFFFFFFF DIV DUP4 GT DUP3 ISZERO ISZERO AND ISZERO PUSH2 0xE49 JUMPI PUSH2 0xE48 PUSH2 0xF2F JUMP JUMPDEST JUMPDEST DUP3 DUP3 MUL SWAP1 POP SWAP3 SWAP2 POP POP JUMP JUMPDEST PUSH1 0x0 PUSH2 0xE5F DUP3 PUSH2 0xEA8 JUMP JUMPDEST SWAP1 POP SWAP2 SWAP1 POP JUMP JUMPDEST PUSH1 0x0 DUP2 ISZERO ISZERO SWAP1 POP SWAP2 SWAP1 POP JUMP JUMPDEST PUSH1 0x0 DUP2 SWAP1 POP SWAP2 SWAP1 POP JUMP JUMPDEST PUSH1 0x0 PUSH32 0xFFFFFFFF00000000000000000000000000000000000000000000000000000000 DUP3 AND SWAP1 POP SWAP2 SWAP1 POP JUMP JUMPDEST PUSH1 0x0 PUSH20 0xFFFFFFFFFFFFFFFFFFFFFFFFFFFFFFFFFFFFFFFF DUP3 AND SWAP1 POP SWAP2 SWAP1 POP JUMP JUMPDEST PUSH1 0x0 DUP2 SWAP1 POP SWAP2 SWAP1 POP JUMP JUMPDEST PUSH1 0x0 JUMPDEST DUP4 DUP2 LT ISZERO PUSH2 0xEF0 JUMPI DUP1 DUP3 ADD MLOAD DUP2 DUP5 ADD MSTORE PUSH1 0x20 DUP2 ADD SWAP1 POP PUSH2 0xED5 JUMP JUMPDEST DUP4 DUP2 GT ISZERO PUSH2 0xEFF JUMPI PUSH1 0x0 DUP5 DUP5 ADD MSTORE JUMPDEST POP POP POP POP JUMP JUMPDEST PUSH1 0x0 PUSH2 0xF10 DUP3 PUSH2 0xEC8 JUMP JUMPDEST SWAP2 POP PUSH1 0x0 DUP3 EQ ISZERO PUSH2 0xF24 JUMPI PUSH2 0xF23 PUSH2 0xF2F JUMP JUMPDEST JUMPDEST PUSH1 0x1 DUP3 SUB SWAP1 POP SWAP2 SWAP1 POP JUMP JUMPDEST PUSH32 0x4E487B7100000000000000000000000000000000000000000000000000000000 PUSH1 0x0 MSTORE PUSH1 0x11 PUSH1 0x4 MSTORE PUSH1 0x24 PUSH1 0x0 REVERT JUMPDEST PUSH32 0x4E487B7100000000000000000000000000000000000000000000000000000000 PUSH1 0x0 MSTORE PUSH1 0x32 PUSH1 0x4 MSTORE PUSH1 0x24 PUSH1 0x0 REVERT JUMPDEST PUSH32 0x4E487B7100000000000000000000000000000000000000000000000000000000 PUSH1 0x0 MSTORE PUSH1 0x41 PUSH1 0x4 MSTORE PUSH1 0x24 PUSH1 0x0 REVERT JUMPDEST PUSH1 0x0 DUP1 REVERT JUMPDEST PUSH1 0x0 PUSH1 0x1F NOT PUSH1 0x1F DUP4 ADD AND SWAP1 POP SWAP2 SWAP1 POP JUMP JUMPDEST PUSH32 0x537472696E67733A20686578206C656E67746820696E73756666696369656E74 PUSH1 0x0 DUP3 ADD MSTORE POP JUMP JUMPDEST PUSH32 0x457374612066756E63696F6E20736F6C6F207075656465207365722075736164 PUSH1 0x0 DUP3 ADD MSTORE PUSH32 0x6120706F7220656C2041444D494E000000000000000000000000000000000000 PUSH1 0x20 DUP3 ADD MSTORE POP JUMP JUMPDEST PUSH32 0x416363657373436F6E74726F6C3A206163636F756E7420000000000000000000 PUSH1 0x0 DUP3 ADD MSTORE POP JUMP JUMPDEST PUSH32 0x206973206D697373696E6720726F6C6520000000000000000000000000000000 PUSH1 0x0 DUP3 ADD MSTORE POP JUMP JUMPDEST PUSH32 0x416363657373436F6E74726F6C3A2063616E206F6E6C792072656E6F756E6365 PUSH1 0x0 DUP3 ADD MSTORE PUSH32 0x20726F6C657320666F722073656C660000000000000000000000000000000000 PUSH1 0x20 DUP3 ADD MSTORE POP JUMP JUMPDEST PUSH32 0x457374612066756E63696F6E20736F6C6F20707565646520736572207574696C PUSH1 0x0 DUP3 ADD MSTORE PUSH32 0x697A61646120706F7220756E205553554152494F000000000000000000000000 PUSH1 0x20 DUP3 ADD MSTORE POP JUMP JUMPDEST PUSH2 0x1143 DUP2 PUSH2 0xE54 JUMP JUMPDEST DUP2 EQ PUSH2 0x114E JUMPI PUSH1 0x0 DUP1 REVERT JUMPDEST POP JUMP JUMPDEST PUSH2 0x115A DUP2 PUSH2 0xE72 JUMP JUMPDEST DUP2 EQ PUSH2 0x1165 JUMPI PUSH1 0x0 DUP1 REVERT JUMPDEST POP JUMP JUMPDEST PUSH2 0x1171 DUP2 PUSH2 0xE7C JUMP JUMPDEST DUP2 EQ PUSH2 0x117C JUMPI PUSH1 0x0 DUP1 REVERT JUMPDEST POP JUMP INVALID LOG2 PUSH5 0x6970667358 0x22 SLT KECCAK256 0x24 0xE5 0xBE DUP15 0xD 0xE5 0xAA AND 0xAF PUSH31 0x59D71993D7275177251458AD7574D97FC2D774EA8B0264736F6C6343000807 STOP CALLER "
				},
				"gasEstimates": {
					"creation": {
						"codeDepositCost": "906600",
						"executionCost": "942",
						"totalCost": "907542"
					},
					"external": {
						"DEFAULT_ADMIN_ROLE()": "335",
						"ROL_ADMIN()": "351",
						"ROL_USUARIO()": "418",
						"agregarRol(bytes32,address)": "738",
						"getRoleAdmin(bytes32)": "infinite",
						"grantRole(bytes32,address)": "infinite",
						"hasRole(bytes32,address)": "3251",
						"renounceRole(bytes32,address)": "infinite",
						"revokeRole(bytes32,address)": "infinite",
						"soloAdmin()": "2869",
						"soloUsuario()": "2891",
						"supportsInterface(bytes4)": "728"
					}
				},
				"methodIdentifiers": {
					"DEFAULT_ADMIN_ROLE()": "a217fddf",
					"ROL_ADMIN()": "adec03fc",
					"ROL_USUARIO()": "5ca6f3ea",
					"agregarRol(bytes32,address)": "ee19de25",
					"getRoleAdmin(bytes32)": "248a9ca3",
					"grantRole(bytes32,address)": "2f2ff15d",
					"hasRole(bytes32,address)": "91d14854",
					"renounceRole(bytes32,address)": "36568abe",
					"revokeRole(bytes32,address)": "d547741f",
					"soloAdmin()": "ba55fc8b",
					"soloUsuario()": "bb30ad22",
					"supportsInterface(bytes4)": "01ffc9a7"
				}
			},
			"storageLayout": {
				"storage": [
					{
						"astId": 24,
						"contract": "contracts/Openzeppelin/AccessControl.sol:ContratoConRoles",
						"label": "_roles",
						"offset": 0,
						"slot": "0",
						"type": "t_mapping(t_bytes32,t_struct(RoleData)19_storage)"
					}
				],
				"types": {
					"t_address": {
						"encoding": "inplace",
						"label": "address",
						"numberOfBytes": "20"
					},
					"t_bool": {
						"encoding": "inplace",
						"label": "bool",
						"numberOfBytes": "1"
					},
					"t_bytes32": {
						"encoding": "inplace",
						"label": "bytes32",
						"numberOfBytes": "32"
					},
					"t_mapping(t_address,t_bool)": {
						"encoding": "mapping",
						"key": "t_address",
						"label": "mapping(address => bool)",
						"numberOfBytes": "32",
						"value": "t_bool"
					},
					"t_mapping(t_bytes32,t_struct(RoleData)19_storage)": {
						"encoding": "mapping",
						"key": "t_bytes32",
						"label": "mapping(bytes32 => struct AccessControl.RoleData)",
						"numberOfBytes": "32",
						"value": "t_struct(RoleData)19_storage"
					},
					"t_struct(RoleData)19_storage": {
						"encoding": "inplace",
						"label": "struct AccessControl.RoleData",
						"members": [
							{
								"astId": 16,
								"contract": "contracts/Openzeppelin/AccessControl.sol:ContratoConRoles",
								"label": "members",
								"offset": 0,
								"slot": "0",
								"type": "t_mapping(t_address,t_bool)"
							},
							{
								"astId": 18,
								"contract": "contracts/Openzeppelin/AccessControl.sol:ContratoConRoles",
								"label": "adminRole",
								"offset": 0,
								"slot": "1",
								"type": "t_bytes32"
							}
						],
						"numberOfBytes": "64"
					}
				}
			},
			"userdoc": {
				"kind": "user",
				"methods": {},
				"version": 1
			}
		}
	}
}