{
	"contracts/Openzeppelin/ControlAccesoReto.sol": {
		"ControlAccesoReto": {
			"abi": [
				{
					"anonymous": false,
					"inputs": [
						{
							"indexed": true,
							"internalType": "bytes32",
							"name": "role",
							"type": "bytes32"
						},
						{
							"indexed": true,
							"internalType": "bytes32",
							"name": "previousAdminRole",
							"type": "bytes32"
						},
						{
							"indexed": true,
							"internalType": "bytes32",
							"name": "newAdminRole",
							"type": "bytes32"
						}
					],
					"name": "RoleAdminChanged",
					"type": "event"
				},
				{
					"anonymous": false,
					"inputs": [
						{
							"indexed": true,
							"internalType": "bytes32",
							"name": "role",
							"type": "bytes32"
						},
						{
							"indexed": true,
							"internalType": "address",
							"name": "account",
							"type": "address"
						},
						{
							"indexed": true,
							"internalType": "address",
							"name": "sender",
							"type": "address"
						}
					],
					"name": "RoleGranted",
					"type": "event"
				},
				{
					"anonymous": false,
					"inputs": [
						{
							"indexed": true,
							"internalType": "bytes32",
							"name": "role",
							"type": "bytes32"
						},
						{
							"indexed": true,
							"internalType": "address",
							"name": "account",
							"type": "address"
						},
						{
							"indexed": true,
							"internalType": "address",
							"name": "sender",
							"type": "address"
						}
					],
					"name": "RoleRevoked",
					"type": "event"
				},
				{
					"inputs": [],
					"name": "DEFAULT_ADMIN_ROLE",
					"outputs": [
						{
							"internalType": "bytes32",
							"name": "",
							"type": "bytes32"
						}
					],
					"stateMutability": "view",
					"type": "function"
				},
				{
					"inputs": [],
					"name": "ROL_ADMIN",
					"outputs": [
						{
							"internalType": "bytes32",
							"name": "",
							"type": "bytes32"
						}
					],
					"stateMutability": "view",
					"type": "function"
				},
				{
					"inputs": [],
					"name": "ROL_WRITER",
					"outputs": [
						{
							"internalType": "bytes32",
							"name": "",
							"type": "bytes32"
						}
					],
					"stateMutability": "view",
					"type": "function"
				},
				{
					"inputs": [],
					"name": "_grantRole",
					"outputs": [],
					"stateMutability": "nonpayable",
					"type": "function"
				},
				{
					"inputs": [],
					"name": "_hasRole",
					"outputs": [],
					"stateMutability": "nonpayable",
					"type": "function"
				},
				{
					"inputs": [],
					"name": "_revokeRole",
					"outputs": [],
					"stateMutability": "nonpayable",
					"type": "function"
				},
				{
					"inputs": [
						{
							"internalType": "bytes32",
							"name": "role",
							"type": "bytes32"
						}
					],
					"name": "getRoleAdmin",
					"outputs": [
						{
							"internalType": "bytes32",
							"name": "",
							"type": "bytes32"
						}
					],
					"stateMutability": "view",
					"type": "function"
				},
				{
					"inputs": [
						{
							"internalType": "bytes32",
							"name": "role",
							"type": "bytes32"
						},
						{
							"internalType": "address",
							"name": "account",
							"type": "address"
						}
					],
					"name": "grantRole",
					"outputs": [],
					"stateMutability": "nonpayable",
					"type": "function"
				},
				{
					"inputs": [
						{
							"internalType": "bytes32",
							"name": "role",
							"type": "bytes32"
						},
						{
							"internalType": "address",
							"name": "account",
							"type": "address"
						}
					],
					"name": "hasRole",
					"outputs": [
						{
							"internalType": "bool",
							"name": "",
							"type": "bool"
						}
					],
					"stateMutability": "view",
					"type": "function"
				},
				{
					"inputs": [
						{
							"internalType": "bytes32",
							"name": "role",
							"type": "bytes32"
						},
						{
							"internalType": "address",
							"name": "account",
							"type": "address"
						}
					],
					"name": "renounceRole",
					"outputs": [],
					"stateMutability": "nonpayable",
					"type": "function"
				},
				{
					"inputs": [],
					"name": "retrieve",
					"outputs": [
						{
							"internalType": "uint256",
							"name": "",
							"type": "uint256"
						}
					],
					"stateMutability": "view",
					"type": "function"
				},
				{
					"inputs": [
						{
							"internalType": "bytes32",
							"name": "role",
							"type": "bytes32"
						},
						{
							"internalType": "address",
							"name": "account",
							"type": "address"
						}
					],
					"name": "revokeRole",
					"outputs": [],
					"stateMutability": "nonpayable",
					"type": "function"
				},
				{
					"inputs": [
						{
							"internalType": "uint256",
							"name": "num",
							"type": "uint256"
						}
					],
					"name": "store",
					"outputs": [],
					"stateMutability": "nonpayable",
					"type": "function"
				},
				{
					"inputs": [
						{
							"internalType": "bytes4",
							"name": "interfaceId",
							"type": "bytes4"
						}
					],
					"name": "supportsInterface",
					"outputs": [
						{
							"internalType": "bool",
							"name": "",
							"type": "bool"
						}
					],
					"stateMutability": "view",
					"type": "function"
				}
			],
			"devdoc": {
				"custom:dev-run-script": "./scripts/deploy_with_ethers.ts",
				"details": "Store & retrieve value in a variable",
				"kind": "dev",
				"methods": {
					"getRoleAdmin(bytes32)": {
						"details": "Returns the admin role that controls `role`. See {grantRole} and {revokeRole}. To change a role's admin, use {_setRoleAdmin}."
					},
					"grantRole(bytes32,address)": {
						"details": "Grants `role` to `account`. If `account` had not been already granted `role`, emits a {RoleGranted} event. Requirements: - the caller must have ``role``'s admin role. May emit a {RoleGranted} event."
					},
					"hasRole(bytes32,address)": {
						"details": "Returns `true` if `account` has been granted `role`."
					},
					"renounceRole(bytes32,address)": {
						"details": "Revokes `role` from the calling account. Roles are often managed via {grantRole} and {revokeRole}: this function's purpose is to provide a mechanism for accounts to lose their privileges if they are compromised (such as when a trusted device is misplaced). If the calling account had been revoked `role`, emits a {RoleRevoked} event. Requirements: - the caller must be `account`. May emit a {RoleRevoked} event."
					},
					"retrieve()": {
						"details": "Return value ",
						"returns": {
							"_0": "value of 'number'"
						}
					},
					"revokeRole(bytes32,address)": {
						"details": "Revokes `role` from `account`. If `account` had been granted `role`, emits a {RoleRevoked} event. Requirements: - the caller must have ``role``'s admin role. May emit a {RoleRevoked} event."
					},
					"store(uint256)": {
						"details": "Store value in variable",
						"params": {
							"num": "value to store"
						}
					},
					"supportsInterface(bytes4)": {
						"details": "See {IERC165-supportsInterface}."
					}
				},
				"title": "Storage",
				"version": 1
			},
			"evm": {
				"assembly": "    /* \"contracts/Openzeppelin/ControlAccesoReto.sol\":270:992  contract ControlAccesoReto is AccessControl{\r... */\n  mstore(0x40, 0x80)\n  callvalue\n  dup1\n  iszero\n  tag_1\n  jumpi\n  0x00\n  dup1\n  revert\ntag_1:\n  pop\n  dataSize(sub_0)\n  dup1\n  dataOffset(sub_0)\n  0x00\n  codecopy\n  0x00\n  return\nstop\n\nsub_0: assembly {\n        /* \"contracts/Openzeppelin/ControlAccesoReto.sol\":270:992  contract ControlAccesoReto is AccessControl{\r... */\n      mstore(0x40, 0x80)\n      callvalue\n      dup1\n      iszero\n      tag_1\n      jumpi\n      0x00\n      dup1\n      revert\n    tag_1:\n      pop\n      jumpi(tag_2, lt(calldatasize, 0x04))\n      shr(0xe0, calldataload(0x00))\n      dup1\n      0x71cc6c6e\n      gt\n      tag_17\n      jumpi\n      dup1\n      0xadec03fc\n      gt\n      tag_18\n      jumpi\n      dup1\n      0xadec03fc\n      eq\n      tag_13\n      jumpi\n      dup1\n      0xc23312dd\n      eq\n      tag_14\n      jumpi\n      dup1\n      0xd547741f\n      eq\n      tag_15\n      jumpi\n      dup1\n      0xffecbb25\n      eq\n      tag_16\n      jumpi\n      jump(tag_2)\n    tag_18:\n      dup1\n      0x71cc6c6e\n      eq\n      tag_10\n      jumpi\n      dup1\n      0x91d14854\n      eq\n      tag_11\n      jumpi\n      dup1\n      0xa217fddf\n      eq\n      tag_12\n      jumpi\n      jump(tag_2)\n    tag_17:\n      dup1\n      0x2f2ff15d\n      gt\n      tag_19\n      jumpi\n      dup1\n      0x2f2ff15d\n      eq\n      tag_6\n      jumpi\n      dup1\n      0x36568abe\n      eq\n      tag_7\n      jumpi\n      dup1\n      0x45d49420\n      eq\n      tag_8\n      jumpi\n      dup1\n      0x6057361d\n      eq\n      tag_9\n      jumpi\n      jump(tag_2)\n    tag_19:\n      dup1\n      0x01ffc9a7\n      eq\n      tag_3\n      jumpi\n      dup1\n      0x248a9ca3\n      eq\n      tag_4\n      jumpi\n      dup1\n      0x2e64cec1\n      eq\n      tag_5\n      jumpi\n    tag_2:\n      0x00\n      dup1\n      revert\n        /* \"@openzeppelin/contracts/access/AccessControl.sol\":2606:2808  function supportsInterface(bytes4 interfaceId) public view virtual override returns (bool) {... */\n    tag_3:\n      tag_20\n      0x04\n      dup1\n      calldatasize\n      sub\n      dup2\n      add\n      swap1\n      tag_21\n      swap2\n      swap1\n      tag_22\n      jump\t// in\n    tag_21:\n      tag_23\n      jump\t// in\n    tag_20:\n      mload(0x40)\n      tag_24\n      swap2\n      swap1\n      tag_25\n      jump\t// in\n    tag_24:\n      mload(0x40)\n      dup1\n      swap2\n      sub\n      swap1\n      return\n        /* \"@openzeppelin/contracts/access/AccessControl.sol\":4391:4520  function getRoleAdmin(bytes32 role) public view virtual override returns (bytes32) {... */\n    tag_4:\n      tag_26\n      0x04\n      dup1\n      calldatasize\n      sub\n      dup2\n      add\n      swap1\n      tag_27\n      swap2\n      swap1\n      tag_28\n      jump\t// in\n    tag_27:\n      tag_29\n      jump\t// in\n    tag_26:\n      mload(0x40)\n      tag_30\n      swap2\n      swap1\n      tag_31\n      jump\t// in\n    tag_30:\n      mload(0x40)\n      dup1\n      swap2\n      sub\n      swap1\n      return\n        /* \"contracts/Openzeppelin/ControlAccesoReto.sol\":908:989  function retrieve() public view returns (uint256){\r... */\n    tag_5:\n      tag_32\n      tag_33\n      jump\t// in\n    tag_32:\n      mload(0x40)\n      tag_34\n      swap2\n      swap1\n      tag_35\n      jump\t// in\n    tag_34:\n      mload(0x40)\n      dup1\n      swap2\n      sub\n      swap1\n      return\n        /* \"@openzeppelin/contracts/access/AccessControl.sol\":4816:4961  function grantRole(bytes32 role, address account) public virtual override onlyRole(getRoleAdmin(role)) {... */\n    tag_6:\n      tag_36\n      0x04\n      dup1\n      calldatasize\n      sub\n      dup2\n      add\n      swap1\n      tag_37\n      swap2\n      swap1\n      tag_38\n      jump\t// in\n    tag_37:\n      tag_39\n      jump\t// in\n    tag_36:\n      stop\n        /* \"@openzeppelin/contracts/access/AccessControl.sol\":5925:6139  function renounceRole(bytes32 role, address account) public virtual override {... */\n    tag_7:\n      tag_40\n      0x04\n      dup1\n      calldatasize\n      sub\n      dup2\n      add\n      swap1\n      tag_41\n      swap2\n      swap1\n      tag_38\n      jump\t// in\n    tag_41:\n      tag_42\n      jump\t// in\n    tag_40:\n      stop\n        /* \"contracts/Openzeppelin/ControlAccesoReto.sol\":452:512  bytes32 public constant ROL_WRITER = keccak256(\"ROL_WRITER\") */\n    tag_8:\n      tag_43\n      tag_44\n      jump\t// in\n    tag_43:\n      mload(0x40)\n      tag_45\n      swap2\n      swap1\n      tag_31\n      jump\t// in\n    tag_45:\n      mload(0x40)\n      dup1\n      swap2\n      sub\n      swap1\n      return\n        /* \"contracts/Openzeppelin/ControlAccesoReto.sol\":753:819  function store(uint256 num) public {\r... */\n    tag_9:\n      tag_46\n      0x04\n      dup1\n      calldatasize\n      sub\n      dup2\n      add\n      swap1\n      tag_47\n      swap2\n      swap1\n      tag_48\n      jump\t// in\n    tag_47:\n      tag_49\n      jump\t// in\n    tag_46:\n      stop\n        /* \"contracts/Openzeppelin/ControlAccesoReto.sol\":523:560  function _hasRole() public {\r... */\n    tag_10:\n      tag_50\n      tag_51\n      jump\t// in\n    tag_50:\n      stop\n        /* \"@openzeppelin/contracts/access/AccessControl.sol\":2895:3040  function hasRole(bytes32 role, address account) public view virtual override returns (bool) {... */\n    tag_11:\n      tag_52\n      0x04\n      dup1\n      calldatasize\n      sub\n      dup2\n      add\n      swap1\n      tag_53\n      swap2\n      swap1\n      tag_38\n      jump\t// in\n    tag_53:\n      tag_54\n      jump\t// in\n    tag_52:\n      mload(0x40)\n      tag_55\n      swap2\n      swap1\n      tag_25\n      jump\t// in\n    tag_55:\n      mload(0x40)\n      dup1\n      swap2\n      sub\n      swap1\n      return\n        /* \"@openzeppelin/contracts/access/AccessControl.sol\":2027:2076  bytes32 public constant DEFAULT_ADMIN_ROLE = 0x00 */\n    tag_12:\n      tag_56\n      tag_57\n      jump\t// in\n    tag_56:\n      mload(0x40)\n      tag_58\n      swap2\n      swap1\n      tag_31\n      jump\t// in\n    tag_58:\n      mload(0x40)\n      dup1\n      swap2\n      sub\n      swap1\n      return\n        /* \"contracts/Openzeppelin/ControlAccesoReto.sol\":387:445  bytes32 public constant ROL_ADMIN = keccak256(\"ROL_ADMIN\") */\n    tag_13:\n      tag_59\n      tag_60\n      jump\t// in\n    tag_59:\n      mload(0x40)\n      tag_61\n      swap2\n      swap1\n      tag_31\n      jump\t// in\n    tag_61:\n      mload(0x40)\n      dup1\n      swap2\n      sub\n      swap1\n      return\n        /* \"contracts/Openzeppelin/ControlAccesoReto.sol\":568:606  function _grantRole() public{\r... */\n    tag_14:\n      tag_62\n      tag_63\n      jump\t// in\n    tag_62:\n      stop\n        /* \"@openzeppelin/contracts/access/AccessControl.sol\":5241:5388  function revokeRole(bytes32 role, address account) public virtual override onlyRole(getRoleAdmin(role)) {... */\n    tag_15:\n      tag_64\n      0x04\n      dup1\n      calldatasize\n      sub\n      dup2\n      add\n      swap1\n      tag_65\n      swap2\n      swap1\n      tag_38\n      jump\t// in\n    tag_65:\n      tag_66\n      jump\t// in\n    tag_64:\n      stop\n        /* \"contracts/Openzeppelin/ControlAccesoReto.sol\":614:654  function _revokeRole() public {\r... */\n    tag_16:\n      tag_67\n      tag_68\n      jump\t// in\n    tag_67:\n      stop\n        /* \"@openzeppelin/contracts/access/AccessControl.sol\":2606:2808  function supportsInterface(bytes4 interfaceId) public view virtual override returns (bool) {... */\n    tag_23:\n        /* \"@openzeppelin/contracts/access/AccessControl.sol\":2691:2695  bool */\n      0x00\n        /* \"@openzeppelin/contracts/access/AccessControl.sol\":2729:2761  type(IAccessControl).interfaceId */\n      0x7965db0b00000000000000000000000000000000000000000000000000000000\n        /* \"@openzeppelin/contracts/access/AccessControl.sol\":2714:2761  interfaceId == type(IAccessControl).interfaceId */\n      not(0xffffffffffffffffffffffffffffffffffffffffffffffffffffffff)\n      and\n        /* \"@openzeppelin/contracts/access/AccessControl.sol\":2714:2725  interfaceId */\n      dup3\n        /* \"@openzeppelin/contracts/access/AccessControl.sol\":2714:2761  interfaceId == type(IAccessControl).interfaceId */\n      not(0xffffffffffffffffffffffffffffffffffffffffffffffffffffffff)\n      and\n      eq\n        /* \"@openzeppelin/contracts/access/AccessControl.sol\":2714:2801  interfaceId == type(IAccessControl).interfaceId || super.supportsInterface(interfaceId) */\n      dup1\n      tag_70\n      jumpi\n      pop\n        /* \"@openzeppelin/contracts/access/AccessControl.sol\":2765:2801  super.supportsInterface(interfaceId) */\n      tag_71\n        /* \"@openzeppelin/contracts/access/AccessControl.sol\":2789:2800  interfaceId */\n      dup3\n        /* \"@openzeppelin/contracts/access/AccessControl.sol\":2765:2788  super.supportsInterface */\n      tag_72\n        /* \"@openzeppelin/contracts/access/AccessControl.sol\":2765:2801  super.supportsInterface(interfaceId) */\n      jump\t// in\n    tag_71:\n        /* \"@openzeppelin/contracts/access/AccessControl.sol\":2714:2801  interfaceId == type(IAccessControl).interfaceId || super.supportsInterface(interfaceId) */\n    tag_70:\n        /* \"@openzeppelin/contracts/access/AccessControl.sol\":2707:2801  return interfaceId == type(IAccessControl).interfaceId || super.supportsInterface(interfaceId) */\n      swap1\n      pop\n        /* \"@openzeppelin/contracts/access/AccessControl.sol\":2606:2808  function supportsInterface(bytes4 interfaceId) public view virtual override returns (bool) {... */\n      swap2\n      swap1\n      pop\n      jump\t// out\n        /* \"@openzeppelin/contracts/access/AccessControl.sol\":4391:4520  function getRoleAdmin(bytes32 role) public view virtual override returns (bytes32) {... */\n    tag_29:\n        /* \"@openzeppelin/contracts/access/AccessControl.sol\":4465:4472  bytes32 */\n      0x00\n        /* \"@openzeppelin/contracts/access/AccessControl.sol\":4491:4497  _roles */\n      dup1\n        /* \"@openzeppelin/contracts/access/AccessControl.sol\":4491:4503  _roles[role] */\n      0x00\n        /* \"@openzeppelin/contracts/access/AccessControl.sol\":4498:4502  role */\n      dup4\n        /* \"@openzeppelin/contracts/access/AccessControl.sol\":4491:4503  _roles[role] */\n      dup2\n      mstore\n      0x20\n      add\n      swap1\n      dup2\n      mstore\n      0x20\n      add\n      0x00\n      keccak256\n        /* \"@openzeppelin/contracts/access/AccessControl.sol\":4491:4513  _roles[role].adminRole */\n      0x01\n      add\n      sload\n        /* \"@openzeppelin/contracts/access/AccessControl.sol\":4484:4513  return _roles[role].adminRole */\n      swap1\n      pop\n        /* \"@openzeppelin/contracts/access/AccessControl.sol\":4391:4520  function getRoleAdmin(bytes32 role) public view virtual override returns (bytes32) {... */\n      swap2\n      swap1\n      pop\n      jump\t// out\n        /* \"contracts/Openzeppelin/ControlAccesoReto.sol\":908:989  function retrieve() public view returns (uint256){\r... */\n    tag_33:\n        /* \"contracts/Openzeppelin/ControlAccesoReto.sol\":949:956  uint256 */\n      0x00\n        /* \"contracts/Openzeppelin/ControlAccesoReto.sol\":975:981  number */\n      sload(0x01)\n        /* \"contracts/Openzeppelin/ControlAccesoReto.sol\":968:981  return number */\n      swap1\n      pop\n        /* \"contracts/Openzeppelin/ControlAccesoReto.sol\":908:989  function retrieve() public view returns (uint256){\r... */\n      swap1\n      jump\t// out\n        /* \"@openzeppelin/contracts/access/AccessControl.sol\":4816:4961  function grantRole(bytes32 role, address account) public virtual override onlyRole(getRoleAdmin(role)) {... */\n    tag_39:\n        /* \"@openzeppelin/contracts/access/AccessControl.sol\":4899:4917  getRoleAdmin(role) */\n      tag_75\n        /* \"@openzeppelin/contracts/access/AccessControl.sol\":4912:4916  role */\n      dup3\n        /* \"@openzeppelin/contracts/access/AccessControl.sol\":4899:4911  getRoleAdmin */\n      tag_29\n        /* \"@openzeppelin/contracts/access/AccessControl.sol\":4899:4917  getRoleAdmin(role) */\n      jump\t// in\n    tag_75:\n        /* \"@openzeppelin/contracts/access/AccessControl.sol\":2505:2521  _checkRole(role) */\n      tag_77\n        /* \"@openzeppelin/contracts/access/AccessControl.sol\":2516:2520  role */\n      dup2\n        /* \"@openzeppelin/contracts/access/AccessControl.sol\":2505:2515  _checkRole */\n      tag_78\n        /* \"@openzeppelin/contracts/access/AccessControl.sol\":2505:2521  _checkRole(role) */\n      jump\t// in\n    tag_77:\n        /* \"@openzeppelin/contracts/access/AccessControl.sol\":4929:4954  _grantRole(role, account) */\n      tag_80\n        /* \"@openzeppelin/contracts/access/AccessControl.sol\":4940:4944  role */\n      dup4\n        /* \"@openzeppelin/contracts/access/AccessControl.sol\":4946:4953  account */\n      dup4\n        /* \"@openzeppelin/contracts/access/AccessControl.sol\":4929:4939  _grantRole */\n      tag_81\n        /* \"@openzeppelin/contracts/access/AccessControl.sol\":4929:4954  _grantRole(role, account) */\n      jump\t// in\n    tag_80:\n        /* \"@openzeppelin/contracts/access/AccessControl.sol\":4816:4961  function grantRole(bytes32 role, address account) public virtual override onlyRole(getRoleAdmin(role)) {... */\n      pop\n      pop\n      pop\n      jump\t// out\n        /* \"@openzeppelin/contracts/access/AccessControl.sol\":5925:6139  function renounceRole(bytes32 role, address account) public virtual override {... */\n    tag_42:\n        /* \"@openzeppelin/contracts/access/AccessControl.sol\":6031:6043  _msgSender() */\n      tag_83\n        /* \"@openzeppelin/contracts/access/AccessControl.sol\":6031:6041  _msgSender */\n      tag_84\n        /* \"@openzeppelin/contracts/access/AccessControl.sol\":6031:6043  _msgSender() */\n      jump\t// in\n    tag_83:\n        /* \"@openzeppelin/contracts/access/AccessControl.sol\":6020:6043  account == _msgSender() */\n      0xffffffffffffffffffffffffffffffffffffffff\n      and\n        /* \"@openzeppelin/contracts/access/AccessControl.sol\":6020:6027  account */\n      dup2\n        /* \"@openzeppelin/contracts/access/AccessControl.sol\":6020:6043  account == _msgSender() */\n      0xffffffffffffffffffffffffffffffffffffffff\n      and\n      eq\n        /* \"@openzeppelin/contracts/access/AccessControl.sol\":6012:6095  require(account == _msgSender(), \"AccessControl: can only renounce roles for self\") */\n      tag_85\n      jumpi\n      mload(0x40)\n      0x08c379a000000000000000000000000000000000000000000000000000000000\n      dup2\n      mstore\n      0x04\n      add\n      tag_86\n      swap1\n      tag_87\n      jump\t// in\n    tag_86:\n      mload(0x40)\n      dup1\n      swap2\n      sub\n      swap1\n      revert\n    tag_85:\n        /* \"@openzeppelin/contracts/access/AccessControl.sol\":6106:6132  _revokeRole(role, account) */\n      tag_88\n        /* \"@openzeppelin/contracts/access/AccessControl.sol\":6118:6122  role */\n      dup3\n        /* \"@openzeppelin/contracts/access/AccessControl.sol\":6124:6131  account */\n      dup3\n        /* \"@openzeppelin/contracts/access/AccessControl.sol\":6106:6117  _revokeRole */\n      tag_89\n        /* \"@openzeppelin/contracts/access/AccessControl.sol\":6106:6132  _revokeRole(role, account) */\n      jump\t// in\n    tag_88:\n        /* \"@openzeppelin/contracts/access/AccessControl.sol\":5925:6139  function renounceRole(bytes32 role, address account) public virtual override {... */\n      pop\n      pop\n      jump\t// out\n        /* \"contracts/Openzeppelin/ControlAccesoReto.sol\":452:512  bytes32 public constant ROL_WRITER = keccak256(\"ROL_WRITER\") */\n    tag_44:\n        /* \"contracts/Openzeppelin/ControlAccesoReto.sol\":489:512  keccak256(\"ROL_WRITER\") */\n      0x3bd382f411bca881c98196b18edce31a82cf3847dab18082dd90c13022f62dfb\n        /* \"contracts/Openzeppelin/ControlAccesoReto.sol\":452:512  bytes32 public constant ROL_WRITER = keccak256(\"ROL_WRITER\") */\n      dup2\n      jump\t// out\n        /* \"contracts/Openzeppelin/ControlAccesoReto.sol\":753:819  function store(uint256 num) public {\r... */\n    tag_49:\n        /* \"contracts/Openzeppelin/ControlAccesoReto.sol\":808:811  num */\n      dup1\n        /* \"contracts/Openzeppelin/ControlAccesoReto.sol\":799:805  number */\n      0x01\n        /* \"contracts/Openzeppelin/ControlAccesoReto.sol\":799:811  number = num */\n      dup2\n      swap1\n      sstore\n      pop\n        /* \"contracts/Openzeppelin/ControlAccesoReto.sol\":753:819  function store(uint256 num) public {\r... */\n      pop\n      jump\t// out\n        /* \"contracts/Openzeppelin/ControlAccesoReto.sol\":523:560  function _hasRole() public {\r... */\n    tag_51:\n      jump\t// out\n        /* \"@openzeppelin/contracts/access/AccessControl.sol\":2895:3040  function hasRole(bytes32 role, address account) public view virtual override returns (bool) {... */\n    tag_54:\n        /* \"@openzeppelin/contracts/access/AccessControl.sol\":2981:2985  bool */\n      0x00\n        /* \"@openzeppelin/contracts/access/AccessControl.sol\":3004:3010  _roles */\n      dup1\n        /* \"@openzeppelin/contracts/access/AccessControl.sol\":3004:3016  _roles[role] */\n      0x00\n        /* \"@openzeppelin/contracts/access/AccessControl.sol\":3011:3015  role */\n      dup5\n        /* \"@openzeppelin/contracts/access/AccessControl.sol\":3004:3016  _roles[role] */\n      dup2\n      mstore\n      0x20\n      add\n      swap1\n      dup2\n      mstore\n      0x20\n      add\n      0x00\n      keccak256\n        /* \"@openzeppelin/contracts/access/AccessControl.sol\":3004:3024  _roles[role].members */\n      0x00\n      add\n        /* \"@openzeppelin/contracts/access/AccessControl.sol\":3004:3033  _roles[role].members[account] */\n      0x00\n        /* \"@openzeppelin/contracts/access/AccessControl.sol\":3025:3032  account */\n      dup4\n        /* \"@openzeppelin/contracts/access/AccessControl.sol\":3004:3033  _roles[role].members[account] */\n      0xffffffffffffffffffffffffffffffffffffffff\n      and\n      0xffffffffffffffffffffffffffffffffffffffff\n      and\n      dup2\n      mstore\n      0x20\n      add\n      swap1\n      dup2\n      mstore\n      0x20\n      add\n      0x00\n      keccak256\n      0x00\n      swap1\n      sload\n      swap1\n      0x0100\n      exp\n      swap1\n      div\n      0xff\n      and\n        /* \"@openzeppelin/contracts/access/AccessControl.sol\":2997:3033  return _roles[role].members[account] */\n      swap1\n      pop\n        /* \"@openzeppelin/contracts/access/AccessControl.sol\":2895:3040  function hasRole(bytes32 role, address account) public view virtual override returns (bool) {... */\n      swap3\n      swap2\n      pop\n      pop\n      jump\t// out\n        /* \"@openzeppelin/contracts/access/AccessControl.sol\":2027:2076  bytes32 public constant DEFAULT_ADMIN_ROLE = 0x00 */\n    tag_57:\n        /* \"@openzeppelin/contracts/access/AccessControl.sol\":2072:2076  0x00 */\n      0x00\n        /* \"@openzeppelin/contracts/access/AccessControl.sol\":2027:2076  bytes32 public constant DEFAULT_ADMIN_ROLE = 0x00 */\n      dup1\n      shl\n      dup2\n      jump\t// out\n        /* \"contracts/Openzeppelin/ControlAccesoReto.sol\":387:445  bytes32 public constant ROL_ADMIN = keccak256(\"ROL_ADMIN\") */\n    tag_60:\n        /* \"contracts/Openzeppelin/ControlAccesoReto.sol\":423:445  keccak256(\"ROL_ADMIN\") */\n      0x7e5b835f8ef15bb117d49cb6d0658113bc08d41d8a6edf12d3d1feb5c5875330\n        /* \"contracts/Openzeppelin/ControlAccesoReto.sol\":387:445  bytes32 public constant ROL_ADMIN = keccak256(\"ROL_ADMIN\") */\n      dup2\n      jump\t// out\n        /* \"contracts/Openzeppelin/ControlAccesoReto.sol\":568:606  function _grantRole() public{\r... */\n    tag_63:\n      jump\t// out\n        /* \"@openzeppelin/contracts/access/AccessControl.sol\":5241:5388  function revokeRole(bytes32 role, address account) public virtual override onlyRole(getRoleAdmin(role)) {... */\n    tag_66:\n        /* \"@openzeppelin/contracts/access/AccessControl.sol\":5325:5343  getRoleAdmin(role) */\n      tag_94\n        /* \"@openzeppelin/contracts/access/AccessControl.sol\":5338:5342  role */\n      dup3\n        /* \"@openzeppelin/contracts/access/AccessControl.sol\":5325:5337  getRoleAdmin */\n      tag_29\n        /* \"@openzeppelin/contracts/access/AccessControl.sol\":5325:5343  getRoleAdmin(role) */\n      jump\t// in\n    tag_94:\n        /* \"@openzeppelin/contracts/access/AccessControl.sol\":2505:2521  _checkRole(role) */\n      tag_96\n        /* \"@openzeppelin/contracts/access/AccessControl.sol\":2516:2520  role */\n      dup2\n        /* \"@openzeppelin/contracts/access/AccessControl.sol\":2505:2515  _checkRole */\n      tag_78\n        /* \"@openzeppelin/contracts/access/AccessControl.sol\":2505:2521  _checkRole(role) */\n      jump\t// in\n    tag_96:\n        /* \"@openzeppelin/contracts/access/AccessControl.sol\":5355:5381  _revokeRole(role, account) */\n      tag_98\n        /* \"@openzeppelin/contracts/access/AccessControl.sol\":5367:5371  role */\n      dup4\n        /* \"@openzeppelin/contracts/access/AccessControl.sol\":5373:5380  account */\n      dup4\n        /* \"@openzeppelin/contracts/access/AccessControl.sol\":5355:5366  _revokeRole */\n      tag_89\n        /* \"@openzeppelin/contracts/access/AccessControl.sol\":5355:5381  _revokeRole(role, account) */\n      jump\t// in\n    tag_98:\n        /* \"@openzeppelin/contracts/access/AccessControl.sol\":5241:5388  function revokeRole(bytes32 role, address account) public virtual override onlyRole(getRoleAdmin(role)) {... */\n      pop\n      pop\n      pop\n      jump\t// out\n        /* \"contracts/Openzeppelin/ControlAccesoReto.sol\":614:654  function _revokeRole() public {\r... */\n    tag_68:\n      jump\t// out\n        /* \"@openzeppelin/contracts/utils/introspection/ERC165.sol\":829:984  function supportsInterface(bytes4 interfaceId) public view virtual override returns (bool) {... */\n    tag_72:\n        /* \"@openzeppelin/contracts/utils/introspection/ERC165.sol\":914:918  bool */\n      0x00\n        /* \"@openzeppelin/contracts/utils/introspection/ERC165.sol\":952:977  type(IERC165).interfaceId */\n      0x01ffc9a700000000000000000000000000000000000000000000000000000000\n        /* \"@openzeppelin/contracts/utils/introspection/ERC165.sol\":937:977  interfaceId == type(IERC165).interfaceId */\n      not(0xffffffffffffffffffffffffffffffffffffffffffffffffffffffff)\n      and\n        /* \"@openzeppelin/contracts/utils/introspection/ERC165.sol\":937:948  interfaceId */\n      dup3\n        /* \"@openzeppelin/contracts/utils/introspection/ERC165.sol\":937:977  interfaceId == type(IERC165).interfaceId */\n      not(0xffffffffffffffffffffffffffffffffffffffffffffffffffffffff)\n      and\n      eq\n        /* \"@openzeppelin/contracts/utils/introspection/ERC165.sol\":930:977  return interfaceId == type(IERC165).interfaceId */\n      swap1\n      pop\n        /* \"@openzeppelin/contracts/utils/introspection/ERC165.sol\":829:984  function supportsInterface(bytes4 interfaceId) public view virtual override returns (bool) {... */\n      swap2\n      swap1\n      pop\n      jump\t// out\n        /* \"@openzeppelin/contracts/access/AccessControl.sol\":3334:3437  function _checkRole(bytes32 role) internal view virtual {... */\n    tag_78:\n        /* \"@openzeppelin/contracts/access/AccessControl.sol\":3400:3430  _checkRole(role, _msgSender()) */\n      tag_102\n        /* \"@openzeppelin/contracts/access/AccessControl.sol\":3411:3415  role */\n      dup2\n        /* \"@openzeppelin/contracts/access/AccessControl.sol\":3417:3429  _msgSender() */\n      tag_103\n        /* \"@openzeppelin/contracts/access/AccessControl.sol\":3417:3427  _msgSender */\n      tag_84\n        /* \"@openzeppelin/contracts/access/AccessControl.sol\":3417:3429  _msgSender() */\n      jump\t// in\n    tag_103:\n        /* \"@openzeppelin/contracts/access/AccessControl.sol\":3400:3410  _checkRole */\n      tag_104\n        /* \"@openzeppelin/contracts/access/AccessControl.sol\":3400:3430  _checkRole(role, _msgSender()) */\n      jump\t// in\n    tag_102:\n        /* \"@openzeppelin/contracts/access/AccessControl.sol\":3334:3437  function _checkRole(bytes32 role) internal view virtual {... */\n      pop\n      jump\t// out\n        /* \"@openzeppelin/contracts/access/AccessControl.sol\":7474:7707  function _grantRole(bytes32 role, address account) internal virtual {... */\n    tag_81:\n        /* \"@openzeppelin/contracts/access/AccessControl.sol\":7557:7579  hasRole(role, account) */\n      tag_106\n        /* \"@openzeppelin/contracts/access/AccessControl.sol\":7565:7569  role */\n      dup3\n        /* \"@openzeppelin/contracts/access/AccessControl.sol\":7571:7578  account */\n      dup3\n        /* \"@openzeppelin/contracts/access/AccessControl.sol\":7557:7564  hasRole */\n      tag_54\n        /* \"@openzeppelin/contracts/access/AccessControl.sol\":7557:7579  hasRole(role, account) */\n      jump\t// in\n    tag_106:\n        /* \"@openzeppelin/contracts/access/AccessControl.sol\":7552:7701  if (!hasRole(role, account)) {... */\n      tag_107\n      jumpi\n        /* \"@openzeppelin/contracts/access/AccessControl.sol\":7627:7631  true */\n      0x01\n        /* \"@openzeppelin/contracts/access/AccessControl.sol\":7595:7601  _roles */\n      0x00\n        /* \"@openzeppelin/contracts/access/AccessControl.sol\":7595:7607  _roles[role] */\n      dup1\n        /* \"@openzeppelin/contracts/access/AccessControl.sol\":7602:7606  role */\n      dup5\n        /* \"@openzeppelin/contracts/access/AccessControl.sol\":7595:7607  _roles[role] */\n      dup2\n      mstore\n      0x20\n      add\n      swap1\n      dup2\n      mstore\n      0x20\n      add\n      0x00\n      keccak256\n        /* \"@openzeppelin/contracts/access/AccessControl.sol\":7595:7615  _roles[role].members */\n      0x00\n      add\n        /* \"@openzeppelin/contracts/access/AccessControl.sol\":7595:7624  _roles[role].members[account] */\n      0x00\n        /* \"@openzeppelin/contracts/access/AccessControl.sol\":7616:7623  account */\n      dup4\n        /* \"@openzeppelin/contracts/access/AccessControl.sol\":7595:7624  _roles[role].members[account] */\n      0xffffffffffffffffffffffffffffffffffffffff\n      and\n      0xffffffffffffffffffffffffffffffffffffffff\n      and\n      dup2\n      mstore\n      0x20\n      add\n      swap1\n      dup2\n      mstore\n      0x20\n      add\n      0x00\n      keccak256\n      0x00\n        /* \"@openzeppelin/contracts/access/AccessControl.sol\":7595:7631  _roles[role].members[account] = true */\n      0x0100\n      exp\n      dup2\n      sload\n      dup2\n      0xff\n      mul\n      not\n      and\n      swap1\n      dup4\n      iszero\n      iszero\n      mul\n      or\n      swap1\n      sstore\n      pop\n        /* \"@openzeppelin/contracts/access/AccessControl.sol\":7677:7689  _msgSender() */\n      tag_108\n        /* \"@openzeppelin/contracts/access/AccessControl.sol\":7677:7687  _msgSender */\n      tag_84\n        /* \"@openzeppelin/contracts/access/AccessControl.sol\":7677:7689  _msgSender() */\n      jump\t// in\n    tag_108:\n        /* \"@openzeppelin/contracts/access/AccessControl.sol\":7650:7690  RoleGranted(role, account, _msgSender()) */\n      0xffffffffffffffffffffffffffffffffffffffff\n      and\n        /* \"@openzeppelin/contracts/access/AccessControl.sol\":7668:7675  account */\n      dup2\n        /* \"@openzeppelin/contracts/access/AccessControl.sol\":7650:7690  RoleGranted(role, account, _msgSender()) */\n      0xffffffffffffffffffffffffffffffffffffffff\n      and\n        /* \"@openzeppelin/contracts/access/AccessControl.sol\":7662:7666  role */\n      dup4\n        /* \"@openzeppelin/contracts/access/AccessControl.sol\":7650:7690  RoleGranted(role, account, _msgSender()) */\n      0x2f8788117e7eff1d82e926ec794901d17c78024a50270940304540a733656f0d\n      mload(0x40)\n      mload(0x40)\n      dup1\n      swap2\n      sub\n      swap1\n      log4\n        /* \"@openzeppelin/contracts/access/AccessControl.sol\":7552:7701  if (!hasRole(role, account)) {... */\n    tag_107:\n        /* \"@openzeppelin/contracts/access/AccessControl.sol\":7474:7707  function _grantRole(bytes32 role, address account) internal virtual {... */\n      pop\n      pop\n      jump\t// out\n        /* \"@openzeppelin/contracts/utils/Context.sol\":640:736  function _msgSender() internal view virtual returns (address) {... */\n    tag_84:\n        /* \"@openzeppelin/contracts/utils/Context.sol\":693:700  address */\n      0x00\n        /* \"@openzeppelin/contracts/utils/Context.sol\":719:729  msg.sender */\n      caller\n        /* \"@openzeppelin/contracts/utils/Context.sol\":712:729  return msg.sender */\n      swap1\n      pop\n        /* \"@openzeppelin/contracts/utils/Context.sol\":640:736  function _msgSender() internal view virtual returns (address) {... */\n      swap1\n      jump\t// out\n        /* \"@openzeppelin/contracts/access/AccessControl.sol\":7878:8112  function _revokeRole(bytes32 role, address account) internal virtual {... */\n    tag_89:\n        /* \"@openzeppelin/contracts/access/AccessControl.sol\":7961:7983  hasRole(role, account) */\n      tag_111\n        /* \"@openzeppelin/contracts/access/AccessControl.sol\":7969:7973  role */\n      dup3\n        /* \"@openzeppelin/contracts/access/AccessControl.sol\":7975:7982  account */\n      dup3\n        /* \"@openzeppelin/contracts/access/AccessControl.sol\":7961:7968  hasRole */\n      tag_54\n        /* \"@openzeppelin/contracts/access/AccessControl.sol\":7961:7983  hasRole(role, account) */\n      jump\t// in\n    tag_111:\n        /* \"@openzeppelin/contracts/access/AccessControl.sol\":7957:8106  if (hasRole(role, account)) {... */\n      iszero\n      tag_112\n      jumpi\n        /* \"@openzeppelin/contracts/access/AccessControl.sol\":8031:8036  false */\n      0x00\n        /* \"@openzeppelin/contracts/access/AccessControl.sol\":7999:8005  _roles */\n      dup1\n        /* \"@openzeppelin/contracts/access/AccessControl.sol\":7999:8011  _roles[role] */\n      0x00\n        /* \"@openzeppelin/contracts/access/AccessControl.sol\":8006:8010  role */\n      dup5\n        /* \"@openzeppelin/contracts/access/AccessControl.sol\":7999:8011  _roles[role] */\n      dup2\n      mstore\n      0x20\n      add\n      swap1\n      dup2\n      mstore\n      0x20\n      add\n      0x00\n      keccak256\n        /* \"@openzeppelin/contracts/access/AccessControl.sol\":7999:8019  _roles[role].members */\n      0x00\n      add\n        /* \"@openzeppelin/contracts/access/AccessControl.sol\":7999:8028  _roles[role].members[account] */\n      0x00\n        /* \"@openzeppelin/contracts/access/AccessControl.sol\":8020:8027  account */\n      dup4\n        /* \"@openzeppelin/contracts/access/AccessControl.sol\":7999:8028  _roles[role].members[account] */\n      0xffffffffffffffffffffffffffffffffffffffff\n      and\n      0xffffffffffffffffffffffffffffffffffffffff\n      and\n      dup2\n      mstore\n      0x20\n      add\n      swap1\n      dup2\n      mstore\n      0x20\n      add\n      0x00\n      keccak256\n      0x00\n        /* \"@openzeppelin/contracts/access/AccessControl.sol\":7999:8036  _roles[role].members[account] = false */\n      0x0100\n      exp\n      dup2\n      sload\n      dup2\n      0xff\n      mul\n      not\n      and\n      swap1\n      dup4\n      iszero\n      iszero\n      mul\n      or\n      swap1\n      sstore\n      pop\n        /* \"@openzeppelin/contracts/access/AccessControl.sol\":8082:8094  _msgSender() */\n      tag_113\n        /* \"@openzeppelin/contracts/access/AccessControl.sol\":8082:8092  _msgSender */\n      tag_84\n        /* \"@openzeppelin/contracts/access/AccessControl.sol\":8082:8094  _msgSender() */\n      jump\t// in\n    tag_113:\n        /* \"@openzeppelin/contracts/access/AccessControl.sol\":8055:8095  RoleRevoked(role, account, _msgSender()) */\n      0xffffffffffffffffffffffffffffffffffffffff\n      and\n        /* \"@openzeppelin/contracts/access/AccessControl.sol\":8073:8080  account */\n      dup2\n        /* \"@openzeppelin/contracts/access/AccessControl.sol\":8055:8095  RoleRevoked(role, account, _msgSender()) */\n      0xffffffffffffffffffffffffffffffffffffffff\n      and\n        /* \"@openzeppelin/contracts/access/AccessControl.sol\":8067:8071  role */\n      dup4\n        /* \"@openzeppelin/contracts/access/AccessControl.sol\":8055:8095  RoleRevoked(role, account, _msgSender()) */\n      0xf6391f5c32d9c69d2a47ea670b442974b53935d1edc7fd64eb21e047a839171b\n      mload(0x40)\n      mload(0x40)\n      dup1\n      swap2\n      sub\n      swap1\n      log4\n        /* \"@openzeppelin/contracts/access/AccessControl.sol\":7957:8106  if (hasRole(role, account)) {... */\n    tag_112:\n        /* \"@openzeppelin/contracts/access/AccessControl.sol\":7878:8112  function _revokeRole(bytes32 role, address account) internal virtual {... */\n      pop\n      pop\n      jump\t// out\n        /* \"@openzeppelin/contracts/access/AccessControl.sol\":3718:4210  function _checkRole(bytes32 role, address account) internal view virtual {... */\n    tag_104:\n        /* \"@openzeppelin/contracts/access/AccessControl.sol\":3806:3828  hasRole(role, account) */\n      tag_115\n        /* \"@openzeppelin/contracts/access/AccessControl.sol\":3814:3818  role */\n      dup3\n        /* \"@openzeppelin/contracts/access/AccessControl.sol\":3820:3827  account */\n      dup3\n        /* \"@openzeppelin/contracts/access/AccessControl.sol\":3806:3813  hasRole */\n      tag_54\n        /* \"@openzeppelin/contracts/access/AccessControl.sol\":3806:3828  hasRole(role, account) */\n      jump\t// in\n    tag_115:\n        /* \"@openzeppelin/contracts/access/AccessControl.sol\":3801:4204  if (!hasRole(role, account)) {... */\n      tag_116\n      jumpi\n        /* \"@openzeppelin/contracts/access/AccessControl.sol\":3989:4030  Strings.toHexString(uint160(account), 20) */\n      tag_117\n        /* \"@openzeppelin/contracts/access/AccessControl.sol\":4017:4024  account */\n      dup2\n        /* \"@openzeppelin/contracts/access/AccessControl.sol\":3989:4030  Strings.toHexString(uint160(account), 20) */\n      0xffffffffffffffffffffffffffffffffffffffff\n      and\n        /* \"@openzeppelin/contracts/access/AccessControl.sol\":4027:4029  20 */\n      0x14\n        /* \"@openzeppelin/contracts/access/AccessControl.sol\":3989:4008  Strings.toHexString */\n      tag_118\n        /* \"@openzeppelin/contracts/access/AccessControl.sol\":3989:4030  Strings.toHexString(uint160(account), 20) */\n      jump\t// in\n    tag_117:\n        /* \"@openzeppelin/contracts/access/AccessControl.sol\":4101:4139  Strings.toHexString(uint256(role), 32) */\n      tag_119\n        /* \"@openzeppelin/contracts/access/AccessControl.sol\":4129:4133  role */\n      dup4\n        /* \"@openzeppelin/contracts/access/AccessControl.sol\":4121:4134  uint256(role) */\n      0x00\n      shr\n        /* \"@openzeppelin/contracts/access/AccessControl.sol\":4136:4138  32 */\n      0x20\n        /* \"@openzeppelin/contracts/access/AccessControl.sol\":4101:4120  Strings.toHexString */\n      tag_118\n        /* \"@openzeppelin/contracts/access/AccessControl.sol\":4101:4139  Strings.toHexString(uint256(role), 32) */\n      jump\t// in\n    tag_119:\n        /* \"@openzeppelin/contracts/access/AccessControl.sol\":3896:4161  abi.encodePacked(... */\n      add(0x20, mload(0x40))\n      tag_120\n      swap3\n      swap2\n      swap1\n      tag_121\n      jump\t// in\n    tag_120:\n      mload(0x40)\n      0x20\n      dup2\n      dup4\n      sub\n      sub\n      dup2\n      mstore\n      swap1\n      0x40\n      mstore\n        /* \"@openzeppelin/contracts/access/AccessControl.sol\":3844:4193  revert(... */\n      mload(0x40)\n      0x08c379a000000000000000000000000000000000000000000000000000000000\n      dup2\n      mstore\n      0x04\n      add\n      tag_122\n      swap2\n      swap1\n      tag_123\n      jump\t// in\n    tag_122:\n      mload(0x40)\n      dup1\n      swap2\n      sub\n      swap1\n      revert\n        /* \"@openzeppelin/contracts/access/AccessControl.sol\":3801:4204  if (!hasRole(role, account)) {... */\n    tag_116:\n        /* \"@openzeppelin/contracts/access/AccessControl.sol\":3718:4210  function _checkRole(bytes32 role, address account) internal view virtual {... */\n      pop\n      pop\n      jump\t// out\n        /* \"@openzeppelin/contracts/utils/Strings.sol\":1652:2093  function toHexString(uint256 value, uint256 length) internal pure returns (string memory) {... */\n    tag_118:\n        /* \"@openzeppelin/contracts/utils/Strings.sol\":1727:1740  string memory */\n      0x60\n        /* \"@openzeppelin/contracts/utils/Strings.sol\":1752:1771  bytes memory buffer */\n      0x00\n        /* \"@openzeppelin/contracts/utils/Strings.sol\":1797:1798  2 */\n      0x02\n        /* \"@openzeppelin/contracts/utils/Strings.sol\":1788:1794  length */\n      dup4\n        /* \"@openzeppelin/contracts/utils/Strings.sol\":1784:1785  2 */\n      0x02\n        /* \"@openzeppelin/contracts/utils/Strings.sol\":1784:1794  2 * length */\n      tag_125\n      swap2\n      swap1\n      tag_126\n      jump\t// in\n    tag_125:\n        /* \"@openzeppelin/contracts/utils/Strings.sol\":1784:1798  2 * length + 2 */\n      tag_127\n      swap2\n      swap1\n      tag_128\n      jump\t// in\n    tag_127:\n        /* \"@openzeppelin/contracts/utils/Strings.sol\":1774:1799  new bytes(2 * length + 2) */\n      0xffffffffffffffff\n      dup2\n      gt\n      iszero\n      tag_129\n      jumpi\n      tag_130\n      tag_131\n      jump\t// in\n    tag_130:\n    tag_129:\n      mload(0x40)\n      swap1\n      dup1\n      dup3\n      mstore\n      dup1\n      0x1f\n      add\n      not(0x1f)\n      and\n      0x20\n      add\n      dup3\n      add\n      0x40\n      mstore\n      dup1\n      iszero\n      tag_132\n      jumpi\n      dup2\n      0x20\n      add\n      0x01\n      dup3\n      mul\n      dup1\n      calldatasize\n      dup4\n      calldatacopy\n      dup1\n      dup3\n      add\n      swap2\n      pop\n      pop\n      swap1\n      pop\n    tag_132:\n      pop\n        /* \"@openzeppelin/contracts/utils/Strings.sol\":1752:1799  bytes memory buffer = new bytes(2 * length + 2) */\n      swap1\n      pop\n        /* \"@openzeppelin/contracts/utils/Strings.sol\":1809:1824  buffer[0] = \"0\" */\n      0x3000000000000000000000000000000000000000000000000000000000000000\n        /* \"@openzeppelin/contracts/utils/Strings.sol\":1809:1815  buffer */\n      dup2\n        /* \"@openzeppelin/contracts/utils/Strings.sol\":1816:1817  0 */\n      0x00\n        /* \"@openzeppelin/contracts/utils/Strings.sol\":1809:1818  buffer[0] */\n      dup2\n      mload\n      dup2\n      lt\n      tag_133\n      jumpi\n      tag_134\n      tag_135\n      jump\t// in\n    tag_134:\n    tag_133:\n      0x20\n      add\n      add\n        /* \"@openzeppelin/contracts/utils/Strings.sol\":1809:1824  buffer[0] = \"0\" */\n      swap1\n      not(0xffffffffffffffffffffffffffffffffffffffffffffffffffffffffffffff)\n      and\n      swap1\n      dup2\n      0x00\n      byte\n      swap1\n      mstore8\n      pop\n        /* \"@openzeppelin/contracts/utils/Strings.sol\":1834:1849  buffer[1] = \"x\" */\n      0x7800000000000000000000000000000000000000000000000000000000000000\n        /* \"@openzeppelin/contracts/utils/Strings.sol\":1834:1840  buffer */\n      dup2\n        /* \"@openzeppelin/contracts/utils/Strings.sol\":1841:1842  1 */\n      0x01\n        /* \"@openzeppelin/contracts/utils/Strings.sol\":1834:1843  buffer[1] */\n      dup2\n      mload\n      dup2\n      lt\n      tag_136\n      jumpi\n      tag_137\n      tag_135\n      jump\t// in\n    tag_137:\n    tag_136:\n      0x20\n      add\n      add\n        /* \"@openzeppelin/contracts/utils/Strings.sol\":1834:1849  buffer[1] = \"x\" */\n      swap1\n      not(0xffffffffffffffffffffffffffffffffffffffffffffffffffffffffffffff)\n      and\n      swap1\n      dup2\n      0x00\n      byte\n      swap1\n      mstore8\n      pop\n        /* \"@openzeppelin/contracts/utils/Strings.sol\":1864:1873  uint256 i */\n      0x00\n        /* \"@openzeppelin/contracts/utils/Strings.sol\":1889:1890  1 */\n      0x01\n        /* \"@openzeppelin/contracts/utils/Strings.sol\":1880:1886  length */\n      dup5\n        /* \"@openzeppelin/contracts/utils/Strings.sol\":1876:1877  2 */\n      0x02\n        /* \"@openzeppelin/contracts/utils/Strings.sol\":1876:1886  2 * length */\n      tag_141\n      swap2\n      swap1\n      tag_126\n      jump\t// in\n    tag_141:\n        /* \"@openzeppelin/contracts/utils/Strings.sol\":1876:1890  2 * length + 1 */\n      tag_142\n      swap2\n      swap1\n      tag_128\n      jump\t// in\n    tag_142:\n        /* \"@openzeppelin/contracts/utils/Strings.sol\":1864:1890  uint256 i = 2 * length + 1 */\n      swap1\n      pop\n        /* \"@openzeppelin/contracts/utils/Strings.sol\":1859:1991  for (uint256 i = 2 * length + 1; i > 1; --i) {... */\n    tag_138:\n        /* \"@openzeppelin/contracts/utils/Strings.sol\":1896:1897  1 */\n      0x01\n        /* \"@openzeppelin/contracts/utils/Strings.sol\":1892:1893  i */\n      dup2\n        /* \"@openzeppelin/contracts/utils/Strings.sol\":1892:1897  i > 1 */\n      gt\n        /* \"@openzeppelin/contracts/utils/Strings.sol\":1859:1991  for (uint256 i = 2 * length + 1; i > 1; --i) {... */\n      iszero\n      tag_139\n      jumpi\n        /* \"@openzeppelin/contracts/utils/Strings.sol\":1930:1942  _HEX_SYMBOLS */\n      0x3031323334353637383961626364656600000000000000000000000000000000\n        /* \"@openzeppelin/contracts/utils/Strings.sol\":1951:1954  0xf */\n      0x0f\n        /* \"@openzeppelin/contracts/utils/Strings.sol\":1943:1948  value */\n      dup7\n        /* \"@openzeppelin/contracts/utils/Strings.sol\":1943:1954  value & 0xf */\n      and\n        /* \"@openzeppelin/contracts/utils/Strings.sol\":1930:1955  _HEX_SYMBOLS[value & 0xf] */\n      0x10\n      dup2\n      lt\n      tag_143\n      jumpi\n      tag_144\n      tag_135\n      jump\t// in\n    tag_144:\n    tag_143:\n      byte\n      0xf8\n      shl\n        /* \"@openzeppelin/contracts/utils/Strings.sol\":1918:1924  buffer */\n      dup3\n        /* \"@openzeppelin/contracts/utils/Strings.sol\":1925:1926  i */\n      dup3\n        /* \"@openzeppelin/contracts/utils/Strings.sol\":1918:1927  buffer[i] */\n      dup2\n      mload\n      dup2\n      lt\n      tag_145\n      jumpi\n      tag_146\n      tag_135\n      jump\t// in\n    tag_146:\n    tag_145:\n      0x20\n      add\n      add\n        /* \"@openzeppelin/contracts/utils/Strings.sol\":1918:1955  buffer[i] = _HEX_SYMBOLS[value & 0xf] */\n      swap1\n      not(0xffffffffffffffffffffffffffffffffffffffffffffffffffffffffffffff)\n      and\n      swap1\n      dup2\n      0x00\n      byte\n      swap1\n      mstore8\n      pop\n        /* \"@openzeppelin/contracts/utils/Strings.sol\":1979:1980  4 */\n      0x04\n        /* \"@openzeppelin/contracts/utils/Strings.sol\":1969:1980  value >>= 4 */\n      dup6\n      swap1\n      shr\n      swap5\n      pop\n        /* \"@openzeppelin/contracts/utils/Strings.sol\":1899:1902  --i */\n      dup1\n      tag_147\n      swap1\n      tag_148\n      jump\t// in\n    tag_147:\n      swap1\n      pop\n        /* \"@openzeppelin/contracts/utils/Strings.sol\":1859:1991  for (uint256 i = 2 * length + 1; i > 1; --i) {... */\n      jump(tag_138)\n    tag_139:\n      pop\n        /* \"@openzeppelin/contracts/utils/Strings.sol\":2017:2018  0 */\n      0x00\n        /* \"@openzeppelin/contracts/utils/Strings.sol\":2008:2013  value */\n      dup5\n        /* \"@openzeppelin/contracts/utils/Strings.sol\":2008:2018  value == 0 */\n      eq\n        /* \"@openzeppelin/contracts/utils/Strings.sol\":2000:2055  require(value == 0, \"Strings: hex length insufficient\") */\n      tag_149\n      jumpi\n      mload(0x40)\n      0x08c379a000000000000000000000000000000000000000000000000000000000\n      dup2\n      mstore\n      0x04\n      add\n      tag_150\n      swap1\n      tag_151\n      jump\t// in\n    tag_150:\n      mload(0x40)\n      dup1\n      swap2\n      sub\n      swap1\n      revert\n    tag_149:\n        /* \"@openzeppelin/contracts/utils/Strings.sol\":2079:2085  buffer */\n      dup1\n        /* \"@openzeppelin/contracts/utils/Strings.sol\":2065:2086  return string(buffer) */\n      swap2\n      pop\n      pop\n        /* \"@openzeppelin/contracts/utils/Strings.sol\":1652:2093  function toHexString(uint256 value, uint256 length) internal pure returns (string memory) {... */\n      swap3\n      swap2\n      pop\n      pop\n      jump\t// out\n        /* \"#utility.yul\":7:146   */\n    tag_153:\n        /* \"#utility.yul\":53:58   */\n      0x00\n        /* \"#utility.yul\":91:97   */\n      dup2\n        /* \"#utility.yul\":78:98   */\n      calldataload\n        /* \"#utility.yul\":69:98   */\n      swap1\n      pop\n        /* \"#utility.yul\":107:140   */\n      tag_155\n        /* \"#utility.yul\":134:139   */\n      dup2\n        /* \"#utility.yul\":107:140   */\n      tag_156\n      jump\t// in\n    tag_155:\n        /* \"#utility.yul\":7:146   */\n      swap3\n      swap2\n      pop\n      pop\n      jump\t// out\n        /* \"#utility.yul\":152:291   */\n    tag_157:\n        /* \"#utility.yul\":198:203   */\n      0x00\n        /* \"#utility.yul\":236:242   */\n      dup2\n        /* \"#utility.yul\":223:243   */\n      calldataload\n        /* \"#utility.yul\":214:243   */\n      swap1\n      pop\n        /* \"#utility.yul\":252:285   */\n      tag_159\n        /* \"#utility.yul\":279:284   */\n      dup2\n        /* \"#utility.yul\":252:285   */\n      tag_160\n      jump\t// in\n    tag_159:\n        /* \"#utility.yul\":152:291   */\n      swap3\n      swap2\n      pop\n      pop\n      jump\t// out\n        /* \"#utility.yul\":297:434   */\n    tag_161:\n        /* \"#utility.yul\":342:347   */\n      0x00\n        /* \"#utility.yul\":380:386   */\n      dup2\n        /* \"#utility.yul\":367:387   */\n      calldataload\n        /* \"#utility.yul\":358:387   */\n      swap1\n      pop\n        /* \"#utility.yul\":396:428   */\n      tag_163\n        /* \"#utility.yul\":422:427   */\n      dup2\n        /* \"#utility.yul\":396:428   */\n      tag_164\n      jump\t// in\n    tag_163:\n        /* \"#utility.yul\":297:434   */\n      swap3\n      swap2\n      pop\n      pop\n      jump\t// out\n        /* \"#utility.yul\":440:579   */\n    tag_165:\n        /* \"#utility.yul\":486:491   */\n      0x00\n        /* \"#utility.yul\":524:530   */\n      dup2\n        /* \"#utility.yul\":511:531   */\n      calldataload\n        /* \"#utility.yul\":502:531   */\n      swap1\n      pop\n        /* \"#utility.yul\":540:573   */\n      tag_167\n        /* \"#utility.yul\":567:572   */\n      dup2\n        /* \"#utility.yul\":540:573   */\n      tag_168\n      jump\t// in\n    tag_167:\n        /* \"#utility.yul\":440:579   */\n      swap3\n      swap2\n      pop\n      pop\n      jump\t// out\n        /* \"#utility.yul\":585:914   */\n    tag_28:\n        /* \"#utility.yul\":644:650   */\n      0x00\n        /* \"#utility.yul\":693:695   */\n      0x20\n        /* \"#utility.yul\":681:690   */\n      dup3\n        /* \"#utility.yul\":672:679   */\n      dup5\n        /* \"#utility.yul\":668:691   */\n      sub\n        /* \"#utility.yul\":664:696   */\n      slt\n        /* \"#utility.yul\":661:780   */\n      iszero\n      tag_170\n      jumpi\n        /* \"#utility.yul\":699:778   */\n      tag_171\n      tag_172\n      jump\t// in\n    tag_171:\n        /* \"#utility.yul\":661:780   */\n    tag_170:\n        /* \"#utility.yul\":819:820   */\n      0x00\n        /* \"#utility.yul\":844:897   */\n      tag_173\n        /* \"#utility.yul\":889:896   */\n      dup5\n        /* \"#utility.yul\":880:886   */\n      dup3\n        /* \"#utility.yul\":869:878   */\n      dup6\n        /* \"#utility.yul\":865:887   */\n      add\n        /* \"#utility.yul\":844:897   */\n      tag_157\n      jump\t// in\n    tag_173:\n        /* \"#utility.yul\":834:897   */\n      swap2\n      pop\n        /* \"#utility.yul\":790:907   */\n      pop\n        /* \"#utility.yul\":585:914   */\n      swap3\n      swap2\n      pop\n      pop\n      jump\t// out\n        /* \"#utility.yul\":920:1394   */\n    tag_38:\n        /* \"#utility.yul\":988:994   */\n      0x00\n        /* \"#utility.yul\":996:1002   */\n      dup1\n        /* \"#utility.yul\":1045:1047   */\n      0x40\n        /* \"#utility.yul\":1033:1042   */\n      dup4\n        /* \"#utility.yul\":1024:1031   */\n      dup6\n        /* \"#utility.yul\":1020:1043   */\n      sub\n        /* \"#utility.yul\":1016:1048   */\n      slt\n        /* \"#utility.yul\":1013:1132   */\n      iszero\n      tag_175\n      jumpi\n        /* \"#utility.yul\":1051:1130   */\n      tag_176\n      tag_172\n      jump\t// in\n    tag_176:\n        /* \"#utility.yul\":1013:1132   */\n    tag_175:\n        /* \"#utility.yul\":1171:1172   */\n      0x00\n        /* \"#utility.yul\":1196:1249   */\n      tag_177\n        /* \"#utility.yul\":1241:1248   */\n      dup6\n        /* \"#utility.yul\":1232:1238   */\n      dup3\n        /* \"#utility.yul\":1221:1230   */\n      dup7\n        /* \"#utility.yul\":1217:1239   */\n      add\n        /* \"#utility.yul\":1196:1249   */\n      tag_157\n      jump\t// in\n    tag_177:\n        /* \"#utility.yul\":1186:1249   */\n      swap3\n      pop\n        /* \"#utility.yul\":1142:1259   */\n      pop\n        /* \"#utility.yul\":1298:1300   */\n      0x20\n        /* \"#utility.yul\":1324:1377   */\n      tag_178\n        /* \"#utility.yul\":1369:1376   */\n      dup6\n        /* \"#utility.yul\":1360:1366   */\n      dup3\n        /* \"#utility.yul\":1349:1358   */\n      dup7\n        /* \"#utility.yul\":1345:1367   */\n      add\n        /* \"#utility.yul\":1324:1377   */\n      tag_153\n      jump\t// in\n    tag_178:\n        /* \"#utility.yul\":1314:1377   */\n      swap2\n      pop\n        /* \"#utility.yul\":1269:1387   */\n      pop\n        /* \"#utility.yul\":920:1394   */\n      swap3\n      pop\n      swap3\n      swap1\n      pop\n      jump\t// out\n        /* \"#utility.yul\":1400:1727   */\n    tag_22:\n        /* \"#utility.yul\":1458:1464   */\n      0x00\n        /* \"#utility.yul\":1507:1509   */\n      0x20\n        /* \"#utility.yul\":1495:1504   */\n      dup3\n        /* \"#utility.yul\":1486:1493   */\n      dup5\n        /* \"#utility.yul\":1482:1505   */\n      sub\n        /* \"#utility.yul\":1478:1510   */\n      slt\n        /* \"#utility.yul\":1475:1594   */\n      iszero\n      tag_180\n      jumpi\n        /* \"#utility.yul\":1513:1592   */\n      tag_181\n      tag_172\n      jump\t// in\n    tag_181:\n        /* \"#utility.yul\":1475:1594   */\n    tag_180:\n        /* \"#utility.yul\":1633:1634   */\n      0x00\n        /* \"#utility.yul\":1658:1710   */\n      tag_182\n        /* \"#utility.yul\":1702:1709   */\n      dup5\n        /* \"#utility.yul\":1693:1699   */\n      dup3\n        /* \"#utility.yul\":1682:1691   */\n      dup6\n        /* \"#utility.yul\":1678:1700   */\n      add\n        /* \"#utility.yul\":1658:1710   */\n      tag_161\n      jump\t// in\n    tag_182:\n        /* \"#utility.yul\":1648:1710   */\n      swap2\n      pop\n        /* \"#utility.yul\":1604:1720   */\n      pop\n        /* \"#utility.yul\":1400:1727   */\n      swap3\n      swap2\n      pop\n      pop\n      jump\t// out\n        /* \"#utility.yul\":1733:2062   */\n    tag_48:\n        /* \"#utility.yul\":1792:1798   */\n      0x00\n        /* \"#utility.yul\":1841:1843   */\n      0x20\n        /* \"#utility.yul\":1829:1838   */\n      dup3\n        /* \"#utility.yul\":1820:1827   */\n      dup5\n        /* \"#utility.yul\":1816:1839   */\n      sub\n        /* \"#utility.yul\":1812:1844   */\n      slt\n        /* \"#utility.yul\":1809:1928   */\n      iszero\n      tag_184\n      jumpi\n        /* \"#utility.yul\":1847:1926   */\n      tag_185\n      tag_172\n      jump\t// in\n    tag_185:\n        /* \"#utility.yul\":1809:1928   */\n    tag_184:\n        /* \"#utility.yul\":1967:1968   */\n      0x00\n        /* \"#utility.yul\":1992:2045   */\n      tag_186\n        /* \"#utility.yul\":2037:2044   */\n      dup5\n        /* \"#utility.yul\":2028:2034   */\n      dup3\n        /* \"#utility.yul\":2017:2026   */\n      dup6\n        /* \"#utility.yul\":2013:2035   */\n      add\n        /* \"#utility.yul\":1992:2045   */\n      tag_165\n      jump\t// in\n    tag_186:\n        /* \"#utility.yul\":1982:2045   */\n      swap2\n      pop\n        /* \"#utility.yul\":1938:2055   */\n      pop\n        /* \"#utility.yul\":1733:2062   */\n      swap3\n      swap2\n      pop\n      pop\n      jump\t// out\n        /* \"#utility.yul\":2068:2177   */\n    tag_187:\n        /* \"#utility.yul\":2149:2170   */\n      tag_189\n        /* \"#utility.yul\":2164:2169   */\n      dup2\n        /* \"#utility.yul\":2149:2170   */\n      tag_190\n      jump\t// in\n    tag_189:\n        /* \"#utility.yul\":2144:2147   */\n      dup3\n        /* \"#utility.yul\":2137:2171   */\n      mstore\n        /* \"#utility.yul\":2068:2177   */\n      pop\n      pop\n      jump\t// out\n        /* \"#utility.yul\":2183:2301   */\n    tag_191:\n        /* \"#utility.yul\":2270:2294   */\n      tag_193\n        /* \"#utility.yul\":2288:2293   */\n      dup2\n        /* \"#utility.yul\":2270:2294   */\n      tag_194\n      jump\t// in\n    tag_193:\n        /* \"#utility.yul\":2265:2268   */\n      dup3\n        /* \"#utility.yul\":2258:2295   */\n      mstore\n        /* \"#utility.yul\":2183:2301   */\n      pop\n      pop\n      jump\t// out\n        /* \"#utility.yul\":2307:2671   */\n    tag_195:\n        /* \"#utility.yul\":2395:2398   */\n      0x00\n        /* \"#utility.yul\":2423:2462   */\n      tag_197\n        /* \"#utility.yul\":2456:2461   */\n      dup3\n        /* \"#utility.yul\":2423:2462   */\n      tag_198\n      jump\t// in\n    tag_197:\n        /* \"#utility.yul\":2478:2549   */\n      tag_199\n        /* \"#utility.yul\":2542:2548   */\n      dup2\n        /* \"#utility.yul\":2537:2540   */\n      dup6\n        /* \"#utility.yul\":2478:2549   */\n      tag_200\n      jump\t// in\n    tag_199:\n        /* \"#utility.yul\":2471:2549   */\n      swap4\n      pop\n        /* \"#utility.yul\":2558:2610   */\n      tag_201\n        /* \"#utility.yul\":2603:2609   */\n      dup2\n        /* \"#utility.yul\":2598:2601   */\n      dup6\n        /* \"#utility.yul\":2591:2595   */\n      0x20\n        /* \"#utility.yul\":2584:2589   */\n      dup7\n        /* \"#utility.yul\":2580:2596   */\n      add\n        /* \"#utility.yul\":2558:2610   */\n      tag_202\n      jump\t// in\n    tag_201:\n        /* \"#utility.yul\":2635:2664   */\n      tag_203\n        /* \"#utility.yul\":2657:2663   */\n      dup2\n        /* \"#utility.yul\":2635:2664   */\n      tag_204\n      jump\t// in\n    tag_203:\n        /* \"#utility.yul\":2630:2633   */\n      dup5\n        /* \"#utility.yul\":2626:2665   */\n      add\n        /* \"#utility.yul\":2619:2665   */\n      swap2\n      pop\n        /* \"#utility.yul\":2399:2671   */\n      pop\n        /* \"#utility.yul\":2307:2671   */\n      swap3\n      swap2\n      pop\n      pop\n      jump\t// out\n        /* \"#utility.yul\":2677:3054   */\n    tag_205:\n        /* \"#utility.yul\":2783:2786   */\n      0x00\n        /* \"#utility.yul\":2811:2850   */\n      tag_207\n        /* \"#utility.yul\":2844:2849   */\n      dup3\n        /* \"#utility.yul\":2811:2850   */\n      tag_198\n      jump\t// in\n    tag_207:\n        /* \"#utility.yul\":2866:2955   */\n      tag_208\n        /* \"#utility.yul\":2948:2954   */\n      dup2\n        /* \"#utility.yul\":2943:2946   */\n      dup6\n        /* \"#utility.yul\":2866:2955   */\n      tag_209\n      jump\t// in\n    tag_208:\n        /* \"#utility.yul\":2859:2955   */\n      swap4\n      pop\n        /* \"#utility.yul\":2964:3016   */\n      tag_210\n        /* \"#utility.yul\":3009:3015   */\n      dup2\n        /* \"#utility.yul\":3004:3007   */\n      dup6\n        /* \"#utility.yul\":2997:3001   */\n      0x20\n        /* \"#utility.yul\":2990:2995   */\n      dup7\n        /* \"#utility.yul\":2986:3002   */\n      add\n        /* \"#utility.yul\":2964:3016   */\n      tag_202\n      jump\t// in\n    tag_210:\n        /* \"#utility.yul\":3041:3047   */\n      dup1\n        /* \"#utility.yul\":3036:3039   */\n      dup5\n        /* \"#utility.yul\":3032:3048   */\n      add\n        /* \"#utility.yul\":3025:3048   */\n      swap2\n      pop\n        /* \"#utility.yul\":2787:3054   */\n      pop\n        /* \"#utility.yul\":2677:3054   */\n      swap3\n      swap2\n      pop\n      pop\n      jump\t// out\n        /* \"#utility.yul\":3060:3426   */\n    tag_211:\n        /* \"#utility.yul\":3202:3205   */\n      0x00\n        /* \"#utility.yul\":3223:3290   */\n      tag_213\n        /* \"#utility.yul\":3287:3289   */\n      0x20\n        /* \"#utility.yul\":3282:3285   */\n      dup4\n        /* \"#utility.yul\":3223:3290   */\n      tag_200\n      jump\t// in\n    tag_213:\n        /* \"#utility.yul\":3216:3290   */\n      swap2\n      pop\n        /* \"#utility.yul\":3299:3392   */\n      tag_214\n        /* \"#utility.yul\":3388:3391   */\n      dup3\n        /* \"#utility.yul\":3299:3392   */\n      tag_215\n      jump\t// in\n    tag_214:\n        /* \"#utility.yul\":3417:3419   */\n      0x20\n        /* \"#utility.yul\":3412:3415   */\n      dup3\n        /* \"#utility.yul\":3408:3420   */\n      add\n        /* \"#utility.yul\":3401:3420   */\n      swap1\n      pop\n        /* \"#utility.yul\":3060:3426   */\n      swap2\n      swap1\n      pop\n      jump\t// out\n        /* \"#utility.yul\":3432:3834   */\n    tag_216:\n        /* \"#utility.yul\":3592:3595   */\n      0x00\n        /* \"#utility.yul\":3613:3698   */\n      tag_218\n        /* \"#utility.yul\":3695:3697   */\n      0x17\n        /* \"#utility.yul\":3690:3693   */\n      dup4\n        /* \"#utility.yul\":3613:3698   */\n      tag_209\n      jump\t// in\n    tag_218:\n        /* \"#utility.yul\":3606:3698   */\n      swap2\n      pop\n        /* \"#utility.yul\":3707:3800   */\n      tag_219\n        /* \"#utility.yul\":3796:3799   */\n      dup3\n        /* \"#utility.yul\":3707:3800   */\n      tag_220\n      jump\t// in\n    tag_219:\n        /* \"#utility.yul\":3825:3827   */\n      0x17\n        /* \"#utility.yul\":3820:3823   */\n      dup3\n        /* \"#utility.yul\":3816:3828   */\n      add\n        /* \"#utility.yul\":3809:3828   */\n      swap1\n      pop\n        /* \"#utility.yul\":3432:3834   */\n      swap2\n      swap1\n      pop\n      jump\t// out\n        /* \"#utility.yul\":3840:4242   */\n    tag_221:\n        /* \"#utility.yul\":4000:4003   */\n      0x00\n        /* \"#utility.yul\":4021:4106   */\n      tag_223\n        /* \"#utility.yul\":4103:4105   */\n      0x11\n        /* \"#utility.yul\":4098:4101   */\n      dup4\n        /* \"#utility.yul\":4021:4106   */\n      tag_209\n      jump\t// in\n    tag_223:\n        /* \"#utility.yul\":4014:4106   */\n      swap2\n      pop\n        /* \"#utility.yul\":4115:4208   */\n      tag_224\n        /* \"#utility.yul\":4204:4207   */\n      dup3\n        /* \"#utility.yul\":4115:4208   */\n      tag_225\n      jump\t// in\n    tag_224:\n        /* \"#utility.yul\":4233:4235   */\n      0x11\n        /* \"#utility.yul\":4228:4231   */\n      dup3\n        /* \"#utility.yul\":4224:4236   */\n      add\n        /* \"#utility.yul\":4217:4236   */\n      swap1\n      pop\n        /* \"#utility.yul\":3840:4242   */\n      swap2\n      swap1\n      pop\n      jump\t// out\n        /* \"#utility.yul\":4248:4614   */\n    tag_226:\n        /* \"#utility.yul\":4390:4393   */\n      0x00\n        /* \"#utility.yul\":4411:4478   */\n      tag_228\n        /* \"#utility.yul\":4475:4477   */\n      0x2f\n        /* \"#utility.yul\":4470:4473   */\n      dup4\n        /* \"#utility.yul\":4411:4478   */\n      tag_200\n      jump\t// in\n    tag_228:\n        /* \"#utility.yul\":4404:4478   */\n      swap2\n      pop\n        /* \"#utility.yul\":4487:4580   */\n      tag_229\n        /* \"#utility.yul\":4576:4579   */\n      dup3\n        /* \"#utility.yul\":4487:4580   */\n      tag_230\n      jump\t// in\n    tag_229:\n        /* \"#utility.yul\":4605:4607   */\n      0x40\n        /* \"#utility.yul\":4600:4603   */\n      dup3\n        /* \"#utility.yul\":4596:4608   */\n      add\n        /* \"#utility.yul\":4589:4608   */\n      swap1\n      pop\n        /* \"#utility.yul\":4248:4614   */\n      swap2\n      swap1\n      pop\n      jump\t// out\n        /* \"#utility.yul\":4620:4738   */\n    tag_231:\n        /* \"#utility.yul\":4707:4731   */\n      tag_233\n        /* \"#utility.yul\":4725:4730   */\n      dup2\n        /* \"#utility.yul\":4707:4731   */\n      tag_234\n      jump\t// in\n    tag_233:\n        /* \"#utility.yul\":4702:4705   */\n      dup3\n        /* \"#utility.yul\":4695:4732   */\n      mstore\n        /* \"#utility.yul\":4620:4738   */\n      pop\n      pop\n      jump\t// out\n        /* \"#utility.yul\":4744:5711   */\n    tag_121:\n        /* \"#utility.yul\":5126:5129   */\n      0x00\n        /* \"#utility.yul\":5148:5296   */\n      tag_236\n        /* \"#utility.yul\":5292:5295   */\n      dup3\n        /* \"#utility.yul\":5148:5296   */\n      tag_216\n      jump\t// in\n    tag_236:\n        /* \"#utility.yul\":5141:5296   */\n      swap2\n      pop\n        /* \"#utility.yul\":5313:5408   */\n      tag_237\n        /* \"#utility.yul\":5404:5407   */\n      dup3\n        /* \"#utility.yul\":5395:5401   */\n      dup6\n        /* \"#utility.yul\":5313:5408   */\n      tag_205\n      jump\t// in\n    tag_237:\n        /* \"#utility.yul\":5306:5408   */\n      swap2\n      pop\n        /* \"#utility.yul\":5425:5573   */\n      tag_238\n        /* \"#utility.yul\":5569:5572   */\n      dup3\n        /* \"#utility.yul\":5425:5573   */\n      tag_221\n      jump\t// in\n    tag_238:\n        /* \"#utility.yul\":5418:5573   */\n      swap2\n      pop\n        /* \"#utility.yul\":5590:5685   */\n      tag_239\n        /* \"#utility.yul\":5681:5684   */\n      dup3\n        /* \"#utility.yul\":5672:5678   */\n      dup5\n        /* \"#utility.yul\":5590:5685   */\n      tag_205\n      jump\t// in\n    tag_239:\n        /* \"#utility.yul\":5583:5685   */\n      swap2\n      pop\n        /* \"#utility.yul\":5702:5705   */\n      dup2\n        /* \"#utility.yul\":5695:5705   */\n      swap1\n      pop\n        /* \"#utility.yul\":4744:5711   */\n      swap4\n      swap3\n      pop\n      pop\n      pop\n      jump\t// out\n        /* \"#utility.yul\":5717:5927   */\n    tag_25:\n        /* \"#utility.yul\":5804:5808   */\n      0x00\n        /* \"#utility.yul\":5842:5844   */\n      0x20\n        /* \"#utility.yul\":5831:5840   */\n      dup3\n        /* \"#utility.yul\":5827:5845   */\n      add\n        /* \"#utility.yul\":5819:5845   */\n      swap1\n      pop\n        /* \"#utility.yul\":5855:5920   */\n      tag_241\n        /* \"#utility.yul\":5917:5918   */\n      0x00\n        /* \"#utility.yul\":5906:5915   */\n      dup4\n        /* \"#utility.yul\":5902:5919   */\n      add\n        /* \"#utility.yul\":5893:5899   */\n      dup5\n        /* \"#utility.yul\":5855:5920   */\n      tag_187\n      jump\t// in\n    tag_241:\n        /* \"#utility.yul\":5717:5927   */\n      swap3\n      swap2\n      pop\n      pop\n      jump\t// out\n        /* \"#utility.yul\":5933:6155   */\n    tag_31:\n        /* \"#utility.yul\":6026:6030   */\n      0x00\n        /* \"#utility.yul\":6064:6066   */\n      0x20\n        /* \"#utility.yul\":6053:6062   */\n      dup3\n        /* \"#utility.yul\":6049:6067   */\n      add\n        /* \"#utility.yul\":6041:6067   */\n      swap1\n      pop\n        /* \"#utility.yul\":6077:6148   */\n      tag_243\n        /* \"#utility.yul\":6145:6146   */\n      0x00\n        /* \"#utility.yul\":6134:6143   */\n      dup4\n        /* \"#utility.yul\":6130:6147   */\n      add\n        /* \"#utility.yul\":6121:6127   */\n      dup5\n        /* \"#utility.yul\":6077:6148   */\n      tag_191\n      jump\t// in\n    tag_243:\n        /* \"#utility.yul\":5933:6155   */\n      swap3\n      swap2\n      pop\n      pop\n      jump\t// out\n        /* \"#utility.yul\":6161:6474   */\n    tag_123:\n        /* \"#utility.yul\":6274:6278   */\n      0x00\n        /* \"#utility.yul\":6312:6314   */\n      0x20\n        /* \"#utility.yul\":6301:6310   */\n      dup3\n        /* \"#utility.yul\":6297:6315   */\n      add\n        /* \"#utility.yul\":6289:6315   */\n      swap1\n      pop\n        /* \"#utility.yul\":6361:6370   */\n      dup2\n        /* \"#utility.yul\":6355:6359   */\n      dup2\n        /* \"#utility.yul\":6351:6371   */\n      sub\n        /* \"#utility.yul\":6347:6348   */\n      0x00\n        /* \"#utility.yul\":6336:6345   */\n      dup4\n        /* \"#utility.yul\":6332:6349   */\n      add\n        /* \"#utility.yul\":6325:6372   */\n      mstore\n        /* \"#utility.yul\":6389:6467   */\n      tag_245\n        /* \"#utility.yul\":6462:6466   */\n      dup2\n        /* \"#utility.yul\":6453:6459   */\n      dup5\n        /* \"#utility.yul\":6389:6467   */\n      tag_195\n      jump\t// in\n    tag_245:\n        /* \"#utility.yul\":6381:6467   */\n      swap1\n      pop\n        /* \"#utility.yul\":6161:6474   */\n      swap3\n      swap2\n      pop\n      pop\n      jump\t// out\n        /* \"#utility.yul\":6480:6899   */\n    tag_151:\n        /* \"#utility.yul\":6646:6650   */\n      0x00\n        /* \"#utility.yul\":6684:6686   */\n      0x20\n        /* \"#utility.yul\":6673:6682   */\n      dup3\n        /* \"#utility.yul\":6669:6687   */\n      add\n        /* \"#utility.yul\":6661:6687   */\n      swap1\n      pop\n        /* \"#utility.yul\":6733:6742   */\n      dup2\n        /* \"#utility.yul\":6727:6731   */\n      dup2\n        /* \"#utility.yul\":6723:6743   */\n      sub\n        /* \"#utility.yul\":6719:6720   */\n      0x00\n        /* \"#utility.yul\":6708:6717   */\n      dup4\n        /* \"#utility.yul\":6704:6721   */\n      add\n        /* \"#utility.yul\":6697:6744   */\n      mstore\n        /* \"#utility.yul\":6761:6892   */\n      tag_247\n        /* \"#utility.yul\":6887:6891   */\n      dup2\n        /* \"#utility.yul\":6761:6892   */\n      tag_211\n      jump\t// in\n    tag_247:\n        /* \"#utility.yul\":6753:6892   */\n      swap1\n      pop\n        /* \"#utility.yul\":6480:6899   */\n      swap2\n      swap1\n      pop\n      jump\t// out\n        /* \"#utility.yul\":6905:7324   */\n    tag_87:\n        /* \"#utility.yul\":7071:7075   */\n      0x00\n        /* \"#utility.yul\":7109:7111   */\n      0x20\n        /* \"#utility.yul\":7098:7107   */\n      dup3\n        /* \"#utility.yul\":7094:7112   */\n      add\n        /* \"#utility.yul\":7086:7112   */\n      swap1\n      pop\n        /* \"#utility.yul\":7158:7167   */\n      dup2\n        /* \"#utility.yul\":7152:7156   */\n      dup2\n        /* \"#utility.yul\":7148:7168   */\n      sub\n        /* \"#utility.yul\":7144:7145   */\n      0x00\n        /* \"#utility.yul\":7133:7142   */\n      dup4\n        /* \"#utility.yul\":7129:7146   */\n      add\n        /* \"#utility.yul\":7122:7169   */\n      mstore\n        /* \"#utility.yul\":7186:7317   */\n      tag_249\n        /* \"#utility.yul\":7312:7316   */\n      dup2\n        /* \"#utility.yul\":7186:7317   */\n      tag_226\n      jump\t// in\n    tag_249:\n        /* \"#utility.yul\":7178:7317   */\n      swap1\n      pop\n        /* \"#utility.yul\":6905:7324   */\n      swap2\n      swap1\n      pop\n      jump\t// out\n        /* \"#utility.yul\":7330:7552   */\n    tag_35:\n        /* \"#utility.yul\":7423:7427   */\n      0x00\n        /* \"#utility.yul\":7461:7463   */\n      0x20\n        /* \"#utility.yul\":7450:7459   */\n      dup3\n        /* \"#utility.yul\":7446:7464   */\n      add\n        /* \"#utility.yul\":7438:7464   */\n      swap1\n      pop\n        /* \"#utility.yul\":7474:7545   */\n      tag_251\n        /* \"#utility.yul\":7542:7543   */\n      0x00\n        /* \"#utility.yul\":7531:7540   */\n      dup4\n        /* \"#utility.yul\":7527:7544   */\n      add\n        /* \"#utility.yul\":7518:7524   */\n      dup5\n        /* \"#utility.yul\":7474:7545   */\n      tag_231\n      jump\t// in\n    tag_251:\n        /* \"#utility.yul\":7330:7552   */\n      swap3\n      swap2\n      pop\n      pop\n      jump\t// out\n        /* \"#utility.yul\":7639:7738   */\n    tag_198:\n        /* \"#utility.yul\":7691:7697   */\n      0x00\n        /* \"#utility.yul\":7725:7730   */\n      dup2\n        /* \"#utility.yul\":7719:7731   */\n      mload\n        /* \"#utility.yul\":7709:7731   */\n      swap1\n      pop\n        /* \"#utility.yul\":7639:7738   */\n      swap2\n      swap1\n      pop\n      jump\t// out\n        /* \"#utility.yul\":7744:7913   */\n    tag_200:\n        /* \"#utility.yul\":7828:7839   */\n      0x00\n        /* \"#utility.yul\":7862:7868   */\n      dup3\n        /* \"#utility.yul\":7857:7860   */\n      dup3\n        /* \"#utility.yul\":7850:7869   */\n      mstore\n        /* \"#utility.yul\":7902:7906   */\n      0x20\n        /* \"#utility.yul\":7897:7900   */\n      dup3\n        /* \"#utility.yul\":7893:7907   */\n      add\n        /* \"#utility.yul\":7878:7907   */\n      swap1\n      pop\n        /* \"#utility.yul\":7744:7913   */\n      swap3\n      swap2\n      pop\n      pop\n      jump\t// out\n        /* \"#utility.yul\":7919:8067   */\n    tag_209:\n        /* \"#utility.yul\":8021:8032   */\n      0x00\n        /* \"#utility.yul\":8058:8061   */\n      dup2\n        /* \"#utility.yul\":8043:8061   */\n      swap1\n      pop\n        /* \"#utility.yul\":7919:8067   */\n      swap3\n      swap2\n      pop\n      pop\n      jump\t// out\n        /* \"#utility.yul\":8073:8378   */\n    tag_128:\n        /* \"#utility.yul\":8113:8116   */\n      0x00\n        /* \"#utility.yul\":8132:8152   */\n      tag_258\n        /* \"#utility.yul\":8150:8151   */\n      dup3\n        /* \"#utility.yul\":8132:8152   */\n      tag_234\n      jump\t// in\n    tag_258:\n        /* \"#utility.yul\":8127:8152   */\n      swap2\n      pop\n        /* \"#utility.yul\":8166:8186   */\n      tag_259\n        /* \"#utility.yul\":8184:8185   */\n      dup4\n        /* \"#utility.yul\":8166:8186   */\n      tag_234\n      jump\t// in\n    tag_259:\n        /* \"#utility.yul\":8161:8186   */\n      swap3\n      pop\n        /* \"#utility.yul\":8320:8321   */\n      dup3\n        /* \"#utility.yul\":8252:8318   */\n      0xffffffffffffffffffffffffffffffffffffffffffffffffffffffffffffffff\n        /* \"#utility.yul\":8248:8322   */\n      sub\n        /* \"#utility.yul\":8245:8246   */\n      dup3\n        /* \"#utility.yul\":8242:8323   */\n      gt\n        /* \"#utility.yul\":8239:8346   */\n      iszero\n      tag_260\n      jumpi\n        /* \"#utility.yul\":8326:8344   */\n      tag_261\n      tag_262\n      jump\t// in\n    tag_261:\n        /* \"#utility.yul\":8239:8346   */\n    tag_260:\n        /* \"#utility.yul\":8370:8371   */\n      dup3\n        /* \"#utility.yul\":8367:8368   */\n      dup3\n        /* \"#utility.yul\":8363:8372   */\n      add\n        /* \"#utility.yul\":8356:8372   */\n      swap1\n      pop\n        /* \"#utility.yul\":8073:8378   */\n      swap3\n      swap2\n      pop\n      pop\n      jump\t// out\n        /* \"#utility.yul\":8384:8732   */\n    tag_126:\n        /* \"#utility.yul\":8424:8431   */\n      0x00\n        /* \"#utility.yul\":8447:8467   */\n      tag_264\n        /* \"#utility.yul\":8465:8466   */\n      dup3\n        /* \"#utility.yul\":8447:8467   */\n      tag_234\n      jump\t// in\n    tag_264:\n        /* \"#utility.yul\":8442:8467   */\n      swap2\n      pop\n        /* \"#utility.yul\":8481:8501   */\n      tag_265\n        /* \"#utility.yul\":8499:8500   */\n      dup4\n        /* \"#utility.yul\":8481:8501   */\n      tag_234\n      jump\t// in\n    tag_265:\n        /* \"#utility.yul\":8476:8501   */\n      swap3\n      pop\n        /* \"#utility.yul\":8669:8670   */\n      dup2\n        /* \"#utility.yul\":8601:8667   */\n      0xffffffffffffffffffffffffffffffffffffffffffffffffffffffffffffffff\n        /* \"#utility.yul\":8597:8671   */\n      div\n        /* \"#utility.yul\":8594:8595   */\n      dup4\n        /* \"#utility.yul\":8591:8672   */\n      gt\n        /* \"#utility.yul\":8586:8587   */\n      dup3\n        /* \"#utility.yul\":8579:8588   */\n      iszero\n        /* \"#utility.yul\":8572:8589   */\n      iszero\n        /* \"#utility.yul\":8568:8673   */\n      and\n        /* \"#utility.yul\":8565:8696   */\n      iszero\n      tag_266\n      jumpi\n        /* \"#utility.yul\":8676:8694   */\n      tag_267\n      tag_262\n      jump\t// in\n    tag_267:\n        /* \"#utility.yul\":8565:8696   */\n    tag_266:\n        /* \"#utility.yul\":8724:8725   */\n      dup3\n        /* \"#utility.yul\":8721:8722   */\n      dup3\n        /* \"#utility.yul\":8717:8726   */\n      mul\n        /* \"#utility.yul\":8706:8726   */\n      swap1\n      pop\n        /* \"#utility.yul\":8384:8732   */\n      swap3\n      swap2\n      pop\n      pop\n      jump\t// out\n        /* \"#utility.yul\":8738:8834   */\n    tag_268:\n        /* \"#utility.yul\":8775:8782   */\n      0x00\n        /* \"#utility.yul\":8804:8828   */\n      tag_270\n        /* \"#utility.yul\":8822:8827   */\n      dup3\n        /* \"#utility.yul\":8804:8828   */\n      tag_271\n      jump\t// in\n    tag_270:\n        /* \"#utility.yul\":8793:8828   */\n      swap1\n      pop\n        /* \"#utility.yul\":8738:8834   */\n      swap2\n      swap1\n      pop\n      jump\t// out\n        /* \"#utility.yul\":8840:8930   */\n    tag_190:\n        /* \"#utility.yul\":8874:8881   */\n      0x00\n        /* \"#utility.yul\":8917:8922   */\n      dup2\n        /* \"#utility.yul\":8910:8923   */\n      iszero\n        /* \"#utility.yul\":8903:8924   */\n      iszero\n        /* \"#utility.yul\":8892:8924   */\n      swap1\n      pop\n        /* \"#utility.yul\":8840:8930   */\n      swap2\n      swap1\n      pop\n      jump\t// out\n        /* \"#utility.yul\":8936:9013   */\n    tag_194:\n        /* \"#utility.yul\":8973:8980   */\n      0x00\n        /* \"#utility.yul\":9002:9007   */\n      dup2\n        /* \"#utility.yul\":8991:9007   */\n      swap1\n      pop\n        /* \"#utility.yul\":8936:9013   */\n      swap2\n      swap1\n      pop\n      jump\t// out\n        /* \"#utility.yul\":9019:9168   */\n    tag_274:\n        /* \"#utility.yul\":9055:9062   */\n      0x00\n        /* \"#utility.yul\":9095:9161   */\n      0xffffffff00000000000000000000000000000000000000000000000000000000\n        /* \"#utility.yul\":9088:9093   */\n      dup3\n        /* \"#utility.yul\":9084:9162   */\n      and\n        /* \"#utility.yul\":9073:9162   */\n      swap1\n      pop\n        /* \"#utility.yul\":9019:9168   */\n      swap2\n      swap1\n      pop\n      jump\t// out\n        /* \"#utility.yul\":9174:9300   */\n    tag_271:\n        /* \"#utility.yul\":9211:9218   */\n      0x00\n        /* \"#utility.yul\":9251:9293   */\n      0xffffffffffffffffffffffffffffffffffffffff\n        /* \"#utility.yul\":9244:9249   */\n      dup3\n        /* \"#utility.yul\":9240:9294   */\n      and\n        /* \"#utility.yul\":9229:9294   */\n      swap1\n      pop\n        /* \"#utility.yul\":9174:9300   */\n      swap2\n      swap1\n      pop\n      jump\t// out\n        /* \"#utility.yul\":9306:9383   */\n    tag_234:\n        /* \"#utility.yul\":9343:9350   */\n      0x00\n        /* \"#utility.yul\":9372:9377   */\n      dup2\n        /* \"#utility.yul\":9361:9377   */\n      swap1\n      pop\n        /* \"#utility.yul\":9306:9383   */\n      swap2\n      swap1\n      pop\n      jump\t// out\n        /* \"#utility.yul\":9389:9696   */\n    tag_202:\n        /* \"#utility.yul\":9457:9458   */\n      0x00\n        /* \"#utility.yul\":9467:9580   */\n    tag_279:\n        /* \"#utility.yul\":9481:9487   */\n      dup4\n        /* \"#utility.yul\":9478:9479   */\n      dup2\n        /* \"#utility.yul\":9475:9488   */\n      lt\n        /* \"#utility.yul\":9467:9580   */\n      iszero\n      tag_281\n      jumpi\n        /* \"#utility.yul\":9566:9567   */\n      dup1\n        /* \"#utility.yul\":9561:9564   */\n      dup3\n        /* \"#utility.yul\":9557:9568   */\n      add\n        /* \"#utility.yul\":9551:9569   */\n      mload\n        /* \"#utility.yul\":9547:9548   */\n      dup2\n        /* \"#utility.yul\":9542:9545   */\n      dup5\n        /* \"#utility.yul\":9538:9549   */\n      add\n        /* \"#utility.yul\":9531:9570   */\n      mstore\n        /* \"#utility.yul\":9503:9505   */\n      0x20\n        /* \"#utility.yul\":9500:9501   */\n      dup2\n        /* \"#utility.yul\":9496:9506   */\n      add\n        /* \"#utility.yul\":9491:9506   */\n      swap1\n      pop\n        /* \"#utility.yul\":9467:9580   */\n      jump(tag_279)\n    tag_281:\n        /* \"#utility.yul\":9598:9604   */\n      dup4\n        /* \"#utility.yul\":9595:9596   */\n      dup2\n        /* \"#utility.yul\":9592:9605   */\n      gt\n        /* \"#utility.yul\":9589:9690   */\n      iszero\n      tag_282\n      jumpi\n        /* \"#utility.yul\":9678:9679   */\n      0x00\n        /* \"#utility.yul\":9669:9675   */\n      dup5\n        /* \"#utility.yul\":9664:9667   */\n      dup5\n        /* \"#utility.yul\":9660:9676   */\n      add\n        /* \"#utility.yul\":9653:9680   */\n      mstore\n        /* \"#utility.yul\":9589:9690   */\n    tag_282:\n        /* \"#utility.yul\":9438:9696   */\n      pop\n        /* \"#utility.yul\":9389:9696   */\n      pop\n      pop\n      pop\n      jump\t// out\n        /* \"#utility.yul\":9702:9873   */\n    tag_148:\n        /* \"#utility.yul\":9741:9744   */\n      0x00\n        /* \"#utility.yul\":9764:9788   */\n      tag_284\n        /* \"#utility.yul\":9782:9787   */\n      dup3\n        /* \"#utility.yul\":9764:9788   */\n      tag_234\n      jump\t// in\n    tag_284:\n        /* \"#utility.yul\":9755:9788   */\n      swap2\n      pop\n        /* \"#utility.yul\":9810:9814   */\n      0x00\n        /* \"#utility.yul\":9803:9808   */\n      dup3\n        /* \"#utility.yul\":9800:9815   */\n      eq\n        /* \"#utility.yul\":9797:9838   */\n      iszero\n      tag_285\n      jumpi\n        /* \"#utility.yul\":9818:9836   */\n      tag_286\n      tag_262\n      jump\t// in\n    tag_286:\n        /* \"#utility.yul\":9797:9838   */\n    tag_285:\n        /* \"#utility.yul\":9865:9866   */\n      0x01\n        /* \"#utility.yul\":9858:9863   */\n      dup3\n        /* \"#utility.yul\":9854:9867   */\n      sub\n        /* \"#utility.yul\":9847:9867   */\n      swap1\n      pop\n        /* \"#utility.yul\":9702:9873   */\n      swap2\n      swap1\n      pop\n      jump\t// out\n        /* \"#utility.yul\":9879:10059   */\n    tag_262:\n        /* \"#utility.yul\":9927:10004   */\n      0x4e487b7100000000000000000000000000000000000000000000000000000000\n        /* \"#utility.yul\":9924:9925   */\n      0x00\n        /* \"#utility.yul\":9917:10005   */\n      mstore\n        /* \"#utility.yul\":10024:10028   */\n      0x11\n        /* \"#utility.yul\":10021:10022   */\n      0x04\n        /* \"#utility.yul\":10014:10029   */\n      mstore\n        /* \"#utility.yul\":10048:10052   */\n      0x24\n        /* \"#utility.yul\":10045:10046   */\n      0x00\n        /* \"#utility.yul\":10038:10053   */\n      revert\n        /* \"#utility.yul\":10065:10245   */\n    tag_135:\n        /* \"#utility.yul\":10113:10190   */\n      0x4e487b7100000000000000000000000000000000000000000000000000000000\n        /* \"#utility.yul\":10110:10111   */\n      0x00\n        /* \"#utility.yul\":10103:10191   */\n      mstore\n        /* \"#utility.yul\":10210:10214   */\n      0x32\n        /* \"#utility.yul\":10207:10208   */\n      0x04\n        /* \"#utility.yul\":10200:10215   */\n      mstore\n        /* \"#utility.yul\":10234:10238   */\n      0x24\n        /* \"#utility.yul\":10231:10232   */\n      0x00\n        /* \"#utility.yul\":10224:10239   */\n      revert\n        /* \"#utility.yul\":10251:10431   */\n    tag_131:\n        /* \"#utility.yul\":10299:10376   */\n      0x4e487b7100000000000000000000000000000000000000000000000000000000\n        /* \"#utility.yul\":10296:10297   */\n      0x00\n        /* \"#utility.yul\":10289:10377   */\n      mstore\n        /* \"#utility.yul\":10396:10400   */\n      0x41\n        /* \"#utility.yul\":10393:10394   */\n      0x04\n        /* \"#utility.yul\":10386:10401   */\n      mstore\n        /* \"#utility.yul\":10420:10424   */\n      0x24\n        /* \"#utility.yul\":10417:10418   */\n      0x00\n        /* \"#utility.yul\":10410:10425   */\n      revert\n        /* \"#utility.yul\":10560:10677   */\n    tag_172:\n        /* \"#utility.yul\":10669:10670   */\n      0x00\n        /* \"#utility.yul\":10666:10667   */\n      dup1\n        /* \"#utility.yul\":10659:10671   */\n      revert\n        /* \"#utility.yul\":10683:10785   */\n    tag_204:\n        /* \"#utility.yul\":10724:10730   */\n      0x00\n        /* \"#utility.yul\":10775:10777   */\n      0x1f\n        /* \"#utility.yul\":10771:10778   */\n      not\n        /* \"#utility.yul\":10766:10768   */\n      0x1f\n        /* \"#utility.yul\":10759:10764   */\n      dup4\n        /* \"#utility.yul\":10755:10769   */\n      add\n        /* \"#utility.yul\":10751:10779   */\n      and\n        /* \"#utility.yul\":10741:10779   */\n      swap1\n      pop\n        /* \"#utility.yul\":10683:10785   */\n      swap2\n      swap1\n      pop\n      jump\t// out\n        /* \"#utility.yul\":10791:10973   */\n    tag_215:\n        /* \"#utility.yul\":10931:10965   */\n      0x537472696e67733a20686578206c656e67746820696e73756666696369656e74\n        /* \"#utility.yul\":10927:10928   */\n      0x00\n        /* \"#utility.yul\":10919:10925   */\n      dup3\n        /* \"#utility.yul\":10915:10929   */\n      add\n        /* \"#utility.yul\":10908:10966   */\n      mstore\n        /* \"#utility.yul\":10791:10973   */\n      pop\n      jump\t// out\n        /* \"#utility.yul\":10979:11152   */\n    tag_220:\n        /* \"#utility.yul\":11119:11144   */\n      0x416363657373436f6e74726f6c3a206163636f756e7420000000000000000000\n        /* \"#utility.yul\":11115:11116   */\n      0x00\n        /* \"#utility.yul\":11107:11113   */\n      dup3\n        /* \"#utility.yul\":11103:11117   */\n      add\n        /* \"#utility.yul\":11096:11145   */\n      mstore\n        /* \"#utility.yul\":10979:11152   */\n      pop\n      jump\t// out\n        /* \"#utility.yul\":11158:11325   */\n    tag_225:\n        /* \"#utility.yul\":11298:11317   */\n      0x206973206d697373696e6720726f6c6520000000000000000000000000000000\n        /* \"#utility.yul\":11294:11295   */\n      0x00\n        /* \"#utility.yul\":11286:11292   */\n      dup3\n        /* \"#utility.yul\":11282:11296   */\n      add\n        /* \"#utility.yul\":11275:11318   */\n      mstore\n        /* \"#utility.yul\":11158:11325   */\n      pop\n      jump\t// out\n        /* \"#utility.yul\":11331:11565   */\n    tag_230:\n        /* \"#utility.yul\":11471:11505   */\n      0x416363657373436f6e74726f6c3a2063616e206f6e6c792072656e6f756e6365\n        /* \"#utility.yul\":11467:11468   */\n      0x00\n        /* \"#utility.yul\":11459:11465   */\n      dup3\n        /* \"#utility.yul\":11455:11469   */\n      add\n        /* \"#utility.yul\":11448:11506   */\n      mstore\n        /* \"#utility.yul\":11540:11557   */\n      0x20726f6c657320666f722073656c660000000000000000000000000000000000\n        /* \"#utility.yul\":11535:11537   */\n      0x20\n        /* \"#utility.yul\":11527:11533   */\n      dup3\n        /* \"#utility.yul\":11523:11538   */\n      add\n        /* \"#utility.yul\":11516:11558   */\n      mstore\n        /* \"#utility.yul\":11331:11565   */\n      pop\n      jump\t// out\n        /* \"#utility.yul\":11571:11693   */\n    tag_156:\n        /* \"#utility.yul\":11644:11668   */\n      tag_299\n        /* \"#utility.yul\":11662:11667   */\n      dup2\n        /* \"#utility.yul\":11644:11668   */\n      tag_268\n      jump\t// in\n    tag_299:\n        /* \"#utility.yul\":11637:11642   */\n      dup2\n        /* \"#utility.yul\":11634:11669   */\n      eq\n        /* \"#utility.yul\":11624:11687   */\n      tag_300\n      jumpi\n        /* \"#utility.yul\":11683:11684   */\n      0x00\n        /* \"#utility.yul\":11680:11681   */\n      dup1\n        /* \"#utility.yul\":11673:11685   */\n      revert\n        /* \"#utility.yul\":11624:11687   */\n    tag_300:\n        /* \"#utility.yul\":11571:11693   */\n      pop\n      jump\t// out\n        /* \"#utility.yul\":11699:11821   */\n    tag_160:\n        /* \"#utility.yul\":11772:11796   */\n      tag_302\n        /* \"#utility.yul\":11790:11795   */\n      dup2\n        /* \"#utility.yul\":11772:11796   */\n      tag_194\n      jump\t// in\n    tag_302:\n        /* \"#utility.yul\":11765:11770   */\n      dup2\n        /* \"#utility.yul\":11762:11797   */\n      eq\n        /* \"#utility.yul\":11752:11815   */\n      tag_303\n      jumpi\n        /* \"#utility.yul\":11811:11812   */\n      0x00\n        /* \"#utility.yul\":11808:11809   */\n      dup1\n        /* \"#utility.yul\":11801:11813   */\n      revert\n        /* \"#utility.yul\":11752:11815   */\n    tag_303:\n        /* \"#utility.yul\":11699:11821   */\n      pop\n      jump\t// out\n        /* \"#utility.yul\":11827:11947   */\n    tag_164:\n        /* \"#utility.yul\":11899:11922   */\n      tag_305\n        /* \"#utility.yul\":11916:11921   */\n      dup2\n        /* \"#utility.yul\":11899:11922   */\n      tag_274\n      jump\t// in\n    tag_305:\n        /* \"#utility.yul\":11892:11897   */\n      dup2\n        /* \"#utility.yul\":11889:11923   */\n      eq\n        /* \"#utility.yul\":11879:11941   */\n      tag_306\n      jumpi\n        /* \"#utility.yul\":11937:11938   */\n      0x00\n        /* \"#utility.yul\":11934:11935   */\n      dup1\n        /* \"#utility.yul\":11927:11939   */\n      revert\n        /* \"#utility.yul\":11879:11941   */\n    tag_306:\n        /* \"#utility.yul\":11827:11947   */\n      pop\n      jump\t// out\n        /* \"#utility.yul\":11953:12075   */\n    tag_168:\n        /* \"#utility.yul\":12026:12050   */\n      tag_308\n        /* \"#utility.yul\":12044:12049   */\n      dup2\n        /* \"#utility.yul\":12026:12050   */\n      tag_234\n      jump\t// in\n    tag_308:\n        /* \"#utility.yul\":12019:12024   */\n      dup2\n        /* \"#utility.yul\":12016:12051   */\n      eq\n        /* \"#utility.yul\":12006:12069   */\n      tag_309\n      jumpi\n        /* \"#utility.yul\":12065:12066   */\n      0x00\n        /* \"#utility.yul\":12062:12063   */\n      dup1\n        /* \"#utility.yul\":12055:12067   */\n      revert\n        /* \"#utility.yul\":12006:12069   */\n    tag_309:\n        /* \"#utility.yul\":11953:12075   */\n      pop\n      jump\t// out\n\n    auxdata: 0xa2646970667358221220c807340d2eff033600e4ed825338c6f8c5f2b1c4151885ec11928e417503327d64736f6c63430008070033\n}\n",
				"bytecode": {
					"linkReferences": {},
					"object": "608060405234801561001057600080fd5b506110b2806100206000396000f3fe608060405234801561001057600080fd5b50600436106100ea5760003560e01c806371cc6c6e1161008c578063adec03fc11610066578063adec03fc14610237578063c23312dd14610255578063d547741f1461025f578063ffecbb251461027b576100ea565b806371cc6c6e146101df57806391d14854146101e9578063a217fddf14610219576100ea565b80632f2ff15d116100c85780632f2ff15d1461016d57806336568abe1461018957806345d49420146101a55780636057361d146101c3576100ea565b806301ffc9a7146100ef578063248a9ca31461011f5780632e64cec11461014f575b600080fd5b61010960048036038101906101049190610a97565b610285565b6040516101169190610c4e565b60405180910390f35b61013960048036038101906101349190610a2a565b6102ff565b6040516101469190610c69565b60405180910390f35b61015761031e565b6040516101649190610ce6565b60405180910390f35b61018760048036038101906101829190610a57565b610328565b005b6101a3600480360381019061019e9190610a57565b610349565b005b6101ad6103cc565b6040516101ba9190610c69565b60405180910390f35b6101dd60048036038101906101d89190610ac4565b6103f0565b005b6101e76103fa565b005b61020360048036038101906101fe9190610a57565b6103fc565b6040516102109190610c4e565b60405180910390f35b610221610466565b60405161022e9190610c69565b60405180910390f35b61023f61046d565b60405161024c9190610c69565b60405180910390f35b61025d610491565b005b61027960048036038101906102749190610a57565b610493565b005b6102836104b4565b005b60007f7965db0b000000000000000000000000000000000000000000000000000000007bffffffffffffffffffffffffffffffffffffffffffffffffffffffff1916827bffffffffffffffffffffffffffffffffffffffffffffffffffffffff191614806102f857506102f7826104b6565b5b9050919050565b6000806000838152602001908152602001600020600101549050919050565b6000600154905090565b610331826102ff565b61033a81610520565b6103448383610534565b505050565b610351610614565b73ffffffffffffffffffffffffffffffffffffffff168173ffffffffffffffffffffffffffffffffffffffff16146103be576040517f08c379a00000000000000000000000000000000000000000000000000000000081526004016103b590610cc6565b60405180910390fd5b6103c8828261061c565b5050565b7f3bd382f411bca881c98196b18edce31a82cf3847dab18082dd90c13022f62dfb81565b8060018190555050565b565b600080600084815260200190815260200160002060000160008373ffffffffffffffffffffffffffffffffffffffff1673ffffffffffffffffffffffffffffffffffffffff16815260200190815260200160002060009054906101000a900460ff16905092915050565b6000801b81565b7f7e5b835f8ef15bb117d49cb6d0658113bc08d41d8a6edf12d3d1feb5c587533081565b565b61049c826102ff565b6104a581610520565b6104af838361061c565b505050565b565b60007f01ffc9a7000000000000000000000000000000000000000000000000000000007bffffffffffffffffffffffffffffffffffffffffffffffffffffffff1916827bffffffffffffffffffffffffffffffffffffffffffffffffffffffff1916149050919050565b6105318161052c610614565b6106fd565b50565b61053e82826103fc565b61061057600160008084815260200190815260200160002060000160008373ffffffffffffffffffffffffffffffffffffffff1673ffffffffffffffffffffffffffffffffffffffff16815260200190815260200160002060006101000a81548160ff0219169083151502179055506105b5610614565b73ffffffffffffffffffffffffffffffffffffffff168173ffffffffffffffffffffffffffffffffffffffff16837f2f8788117e7eff1d82e926ec794901d17c78024a50270940304540a733656f0d60405160405180910390a45b5050565b600033905090565b61062682826103fc565b156106f957600080600084815260200190815260200160002060000160008373ffffffffffffffffffffffffffffffffffffffff1673ffffffffffffffffffffffffffffffffffffffff16815260200190815260200160002060006101000a81548160ff02191690831515021790555061069e610614565b73ffffffffffffffffffffffffffffffffffffffff168173ffffffffffffffffffffffffffffffffffffffff16837ff6391f5c32d9c69d2a47ea670b442974b53935d1edc7fd64eb21e047a839171b60405160405180910390a45b5050565b61070782826103fc565b6107965761072c8173ffffffffffffffffffffffffffffffffffffffff16601461079a565b61073a8360001c602061079a565b60405160200161074b929190610c14565b6040516020818303038152906040526040517f08c379a000000000000000000000000000000000000000000000000000000000815260040161078d9190610c84565b60405180910390fd5b5050565b6060600060028360026107ad9190610d7e565b6107b79190610d28565b67ffffffffffffffff8111156107d0576107cf610f11565b5b6040519080825280601f01601f1916602001820160405280156108025781602001600182028036833780820191505090505b5090507f30000000000000000000000000000000000000000000000000000000000000008160008151811061083a57610839610ee2565b5b60200101907effffffffffffffffffffffffffffffffffffffffffffffffffffffffffffff1916908160001a9053507f78000000000000000000000000000000000000000000000000000000000000008160018151811061089e5761089d610ee2565b5b60200101907effffffffffffffffffffffffffffffffffffffffffffffffffffffffffffff1916908160001a905350600060018460026108de9190610d7e565b6108e89190610d28565b90505b6001811115610988577f3031323334353637383961626364656600000000000000000000000000000000600f86166010811061092a57610929610ee2565b5b1a60f81b82828151811061094157610940610ee2565b5b60200101907effffffffffffffffffffffffffffffffffffffffffffffffffffffffffffff1916908160001a905350600485901c94508061098190610e89565b90506108eb565b50600084146109cc576040517f08c379a00000000000000000000000000000000000000000000000000000000081526004016109c390610ca6565b60405180910390fd5b8091505092915050565b6000813590506109e581611020565b92915050565b6000813590506109fa81611037565b92915050565b600081359050610a0f8161104e565b92915050565b600081359050610a2481611065565b92915050565b600060208284031215610a4057610a3f610f40565b5b6000610a4e848285016109eb565b91505092915050565b60008060408385031215610a6e57610a6d610f40565b5b6000610a7c858286016109eb565b9250506020610a8d858286016109d6565b9150509250929050565b600060208284031215610aad57610aac610f40565b5b6000610abb84828501610a00565b91505092915050565b600060208284031215610ada57610ad9610f40565b5b6000610ae884828501610a15565b91505092915050565b610afa81610dea565b82525050565b610b0981610df6565b82525050565b6000610b1a82610d01565b610b248185610d0c565b9350610b34818560208601610e56565b610b3d81610f45565b840191505092915050565b6000610b5382610d01565b610b5d8185610d1d565b9350610b6d818560208601610e56565b80840191505092915050565b6000610b86602083610d0c565b9150610b9182610f56565b602082019050919050565b6000610ba9601783610d1d565b9150610bb482610f7f565b601782019050919050565b6000610bcc601183610d1d565b9150610bd782610fa8565b601182019050919050565b6000610bef602f83610d0c565b9150610bfa82610fd1565b604082019050919050565b610c0e81610e4c565b82525050565b6000610c1f82610b9c565b9150610c2b8285610b48565b9150610c3682610bbf565b9150610c428284610b48565b91508190509392505050565b6000602082019050610c636000830184610af1565b92915050565b6000602082019050610c7e6000830184610b00565b92915050565b60006020820190508181036000830152610c9e8184610b0f565b905092915050565b60006020820190508181036000830152610cbf81610b79565b9050919050565b60006020820190508181036000830152610cdf81610be2565b9050919050565b6000602082019050610cfb6000830184610c05565b92915050565b600081519050919050565b600082825260208201905092915050565b600081905092915050565b6000610d3382610e4c565b9150610d3e83610e4c565b9250827fffffffffffffffffffffffffffffffffffffffffffffffffffffffffffffffff03821115610d7357610d72610eb3565b5b828201905092915050565b6000610d8982610e4c565b9150610d9483610e4c565b9250817fffffffffffffffffffffffffffffffffffffffffffffffffffffffffffffffff0483118215151615610dcd57610dcc610eb3565b5b828202905092915050565b6000610de382610e2c565b9050919050565b60008115159050919050565b6000819050919050565b60007fffffffff0000000000000000000000000000000000000000000000000000000082169050919050565b600073ffffffffffffffffffffffffffffffffffffffff82169050919050565b6000819050919050565b60005b83811015610e74578082015181840152602081019050610e59565b83811115610e83576000848401525b50505050565b6000610e9482610e4c565b91506000821415610ea857610ea7610eb3565b5b600182039050919050565b7f4e487b7100000000000000000000000000000000000000000000000000000000600052601160045260246000fd5b7f4e487b7100000000000000000000000000000000000000000000000000000000600052603260045260246000fd5b7f4e487b7100000000000000000000000000000000000000000000000000000000600052604160045260246000fd5b600080fd5b6000601f19601f8301169050919050565b7f537472696e67733a20686578206c656e67746820696e73756666696369656e74600082015250565b7f416363657373436f6e74726f6c3a206163636f756e7420000000000000000000600082015250565b7f206973206d697373696e6720726f6c6520000000000000000000000000000000600082015250565b7f416363657373436f6e74726f6c3a2063616e206f6e6c792072656e6f756e636560008201527f20726f6c657320666f722073656c660000000000000000000000000000000000602082015250565b61102981610dd8565b811461103457600080fd5b50565b61104081610df6565b811461104b57600080fd5b50565b61105781610e00565b811461106257600080fd5b50565b61106e81610e4c565b811461107957600080fd5b5056fea2646970667358221220c807340d2eff033600e4ed825338c6f8c5f2b1c4151885ec11928e417503327d64736f6c63430008070033",
					"opcodes": "PUSH1 0x80 PUSH1 0x40 MSTORE CALLVALUE DUP1 ISZERO PUSH2 0x10 JUMPI PUSH1 0x0 DUP1 REVERT JUMPDEST POP PUSH2 0x10B2 DUP1 PUSH2 0x20 PUSH1 0x0 CODECOPY PUSH1 0x0 RETURN INVALID PUSH1 0x80 PUSH1 0x40 MSTORE CALLVALUE DUP1 ISZERO PUSH2 0x10 JUMPI PUSH1 0x0 DUP1 REVERT JUMPDEST POP PUSH1 0x4 CALLDATASIZE LT PUSH2 0xEA JUMPI PUSH1 0x0 CALLDATALOAD PUSH1 0xE0 SHR DUP1 PUSH4 0x71CC6C6E GT PUSH2 0x8C JUMPI DUP1 PUSH4 0xADEC03FC GT PUSH2 0x66 JUMPI DUP1 PUSH4 0xADEC03FC EQ PUSH2 0x237 JUMPI DUP1 PUSH4 0xC23312DD EQ PUSH2 0x255 JUMPI DUP1 PUSH4 0xD547741F EQ PUSH2 0x25F JUMPI DUP1 PUSH4 0xFFECBB25 EQ PUSH2 0x27B JUMPI PUSH2 0xEA JUMP JUMPDEST DUP1 PUSH4 0x71CC6C6E EQ PUSH2 0x1DF JUMPI DUP1 PUSH4 0x91D14854 EQ PUSH2 0x1E9 JUMPI DUP1 PUSH4 0xA217FDDF EQ PUSH2 0x219 JUMPI PUSH2 0xEA JUMP JUMPDEST DUP1 PUSH4 0x2F2FF15D GT PUSH2 0xC8 JUMPI DUP1 PUSH4 0x2F2FF15D EQ PUSH2 0x16D JUMPI DUP1 PUSH4 0x36568ABE EQ PUSH2 0x189 JUMPI DUP1 PUSH4 0x45D49420 EQ PUSH2 0x1A5 JUMPI DUP1 PUSH4 0x6057361D EQ PUSH2 0x1C3 JUMPI PUSH2 0xEA JUMP JUMPDEST DUP1 PUSH4 0x1FFC9A7 EQ PUSH2 0xEF JUMPI DUP1 PUSH4 0x248A9CA3 EQ PUSH2 0x11F JUMPI DUP1 PUSH4 0x2E64CEC1 EQ PUSH2 0x14F JUMPI JUMPDEST PUSH1 0x0 DUP1 REVERT JUMPDEST PUSH2 0x109 PUSH1 0x4 DUP1 CALLDATASIZE SUB DUP2 ADD SWAP1 PUSH2 0x104 SWAP2 SWAP1 PUSH2 0xA97 JUMP JUMPDEST PUSH2 0x285 JUMP JUMPDEST PUSH1 0x40 MLOAD PUSH2 0x116 SWAP2 SWAP1 PUSH2 0xC4E JUMP JUMPDEST PUSH1 0x40 MLOAD DUP1 SWAP2 SUB SWAP1 RETURN JUMPDEST PUSH2 0x139 PUSH1 0x4 DUP1 CALLDATASIZE SUB DUP2 ADD SWAP1 PUSH2 0x134 SWAP2 SWAP1 PUSH2 0xA2A JUMP JUMPDEST PUSH2 0x2FF JUMP JUMPDEST PUSH1 0x40 MLOAD PUSH2 0x146 SWAP2 SWAP1 PUSH2 0xC69 JUMP JUMPDEST PUSH1 0x40 MLOAD DUP1 SWAP2 SUB SWAP1 RETURN JUMPDEST PUSH2 0x157 PUSH2 0x31E JUMP JUMPDEST PUSH1 0x40 MLOAD PUSH2 0x164 SWAP2 SWAP1 PUSH2 0xCE6 JUMP JUMPDEST PUSH1 0x40 MLOAD DUP1 SWAP2 SUB SWAP1 RETURN JUMPDEST PUSH2 0x187 PUSH1 0x4 DUP1 CALLDATASIZE SUB DUP2 ADD SWAP1 PUSH2 0x182 SWAP2 SWAP1 PUSH2 0xA57 JUMP JUMPDEST PUSH2 0x328 JUMP JUMPDEST STOP JUMPDEST PUSH2 0x1A3 PUSH1 0x4 DUP1 CALLDATASIZE SUB DUP2 ADD SWAP1 PUSH2 0x19E SWAP2 SWAP1 PUSH2 0xA57 JUMP JUMPDEST PUSH2 0x349 JUMP JUMPDEST STOP JUMPDEST PUSH2 0x1AD PUSH2 0x3CC JUMP JUMPDEST PUSH1 0x40 MLOAD PUSH2 0x1BA SWAP2 SWAP1 PUSH2 0xC69 JUMP JUMPDEST PUSH1 0x40 MLOAD DUP1 SWAP2 SUB SWAP1 RETURN JUMPDEST PUSH2 0x1DD PUSH1 0x4 DUP1 CALLDATASIZE SUB DUP2 ADD SWAP1 PUSH2 0x1D8 SWAP2 SWAP1 PUSH2 0xAC4 JUMP JUMPDEST PUSH2 0x3F0 JUMP JUMPDEST STOP JUMPDEST PUSH2 0x1E7 PUSH2 0x3FA JUMP JUMPDEST STOP JUMPDEST PUSH2 0x203 PUSH1 0x4 DUP1 CALLDATASIZE SUB DUP2 ADD SWAP1 PUSH2 0x1FE SWAP2 SWAP1 PUSH2 0xA57 JUMP JUMPDEST PUSH2 0x3FC JUMP JUMPDEST PUSH1 0x40 MLOAD PUSH2 0x210 SWAP2 SWAP1 PUSH2 0xC4E JUMP JUMPDEST PUSH1 0x40 MLOAD DUP1 SWAP2 SUB SWAP1 RETURN JUMPDEST PUSH2 0x221 PUSH2 0x466 JUMP JUMPDEST PUSH1 0x40 MLOAD PUSH2 0x22E SWAP2 SWAP1 PUSH2 0xC69 JUMP JUMPDEST PUSH1 0x40 MLOAD DUP1 SWAP2 SUB SWAP1 RETURN JUMPDEST PUSH2 0x23F PUSH2 0x46D JUMP JUMPDEST PUSH1 0x40 MLOAD PUSH2 0x24C SWAP2 SWAP1 PUSH2 0xC69 JUMP JUMPDEST PUSH1 0x40 MLOAD DUP1 SWAP2 SUB SWAP1 RETURN JUMPDEST PUSH2 0x25D PUSH2 0x491 JUMP JUMPDEST STOP JUMPDEST PUSH2 0x279 PUSH1 0x4 DUP1 CALLDATASIZE SUB DUP2 ADD SWAP1 PUSH2 0x274 SWAP2 SWAP1 PUSH2 0xA57 JUMP JUMPDEST PUSH2 0x493 JUMP JUMPDEST STOP JUMPDEST PUSH2 0x283 PUSH2 0x4B4 JUMP JUMPDEST STOP JUMPDEST PUSH1 0x0 PUSH32 0x7965DB0B00000000000000000000000000000000000000000000000000000000 PUSH28 0xFFFFFFFFFFFFFFFFFFFFFFFFFFFFFFFFFFFFFFFFFFFFFFFFFFFFFFFF NOT AND DUP3 PUSH28 0xFFFFFFFFFFFFFFFFFFFFFFFFFFFFFFFFFFFFFFFFFFFFFFFFFFFFFFFF NOT AND EQ DUP1 PUSH2 0x2F8 JUMPI POP PUSH2 0x2F7 DUP3 PUSH2 0x4B6 JUMP JUMPDEST JUMPDEST SWAP1 POP SWAP2 SWAP1 POP JUMP JUMPDEST PUSH1 0x0 DUP1 PUSH1 0x0 DUP4 DUP2 MSTORE PUSH1 0x20 ADD SWAP1 DUP2 MSTORE PUSH1 0x20 ADD PUSH1 0x0 KECCAK256 PUSH1 0x1 ADD SLOAD SWAP1 POP SWAP2 SWAP1 POP JUMP JUMPDEST PUSH1 0x0 PUSH1 0x1 SLOAD SWAP1 POP SWAP1 JUMP JUMPDEST PUSH2 0x331 DUP3 PUSH2 0x2FF JUMP JUMPDEST PUSH2 0x33A DUP2 PUSH2 0x520 JUMP JUMPDEST PUSH2 0x344 DUP4 DUP4 PUSH2 0x534 JUMP JUMPDEST POP POP POP JUMP JUMPDEST PUSH2 0x351 PUSH2 0x614 JUMP JUMPDEST PUSH20 0xFFFFFFFFFFFFFFFFFFFFFFFFFFFFFFFFFFFFFFFF AND DUP2 PUSH20 0xFFFFFFFFFFFFFFFFFFFFFFFFFFFFFFFFFFFFFFFF AND EQ PUSH2 0x3BE JUMPI PUSH1 0x40 MLOAD PUSH32 0x8C379A000000000000000000000000000000000000000000000000000000000 DUP2 MSTORE PUSH1 0x4 ADD PUSH2 0x3B5 SWAP1 PUSH2 0xCC6 JUMP JUMPDEST PUSH1 0x40 MLOAD DUP1 SWAP2 SUB SWAP1 REVERT JUMPDEST PUSH2 0x3C8 DUP3 DUP3 PUSH2 0x61C JUMP JUMPDEST POP POP JUMP JUMPDEST PUSH32 0x3BD382F411BCA881C98196B18EDCE31A82CF3847DAB18082DD90C13022F62DFB DUP2 JUMP JUMPDEST DUP1 PUSH1 0x1 DUP2 SWAP1 SSTORE POP POP JUMP JUMPDEST JUMP JUMPDEST PUSH1 0x0 DUP1 PUSH1 0x0 DUP5 DUP2 MSTORE PUSH1 0x20 ADD SWAP1 DUP2 MSTORE PUSH1 0x20 ADD PUSH1 0x0 KECCAK256 PUSH1 0x0 ADD PUSH1 0x0 DUP4 PUSH20 0xFFFFFFFFFFFFFFFFFFFFFFFFFFFFFFFFFFFFFFFF AND PUSH20 0xFFFFFFFFFFFFFFFFFFFFFFFFFFFFFFFFFFFFFFFF AND DUP2 MSTORE PUSH1 0x20 ADD SWAP1 DUP2 MSTORE PUSH1 0x20 ADD PUSH1 0x0 KECCAK256 PUSH1 0x0 SWAP1 SLOAD SWAP1 PUSH2 0x100 EXP SWAP1 DIV PUSH1 0xFF AND SWAP1 POP SWAP3 SWAP2 POP POP JUMP JUMPDEST PUSH1 0x0 DUP1 SHL DUP2 JUMP JUMPDEST PUSH32 0x7E5B835F8EF15BB117D49CB6D0658113BC08D41D8A6EDF12D3D1FEB5C5875330 DUP2 JUMP JUMPDEST JUMP JUMPDEST PUSH2 0x49C DUP3 PUSH2 0x2FF JUMP JUMPDEST PUSH2 0x4A5 DUP2 PUSH2 0x520 JUMP JUMPDEST PUSH2 0x4AF DUP4 DUP4 PUSH2 0x61C JUMP JUMPDEST POP POP POP JUMP JUMPDEST JUMP JUMPDEST PUSH1 0x0 PUSH32 0x1FFC9A700000000000000000000000000000000000000000000000000000000 PUSH28 0xFFFFFFFFFFFFFFFFFFFFFFFFFFFFFFFFFFFFFFFFFFFFFFFFFFFFFFFF NOT AND DUP3 PUSH28 0xFFFFFFFFFFFFFFFFFFFFFFFFFFFFFFFFFFFFFFFFFFFFFFFFFFFFFFFF NOT AND EQ SWAP1 POP SWAP2 SWAP1 POP JUMP JUMPDEST PUSH2 0x531 DUP2 PUSH2 0x52C PUSH2 0x614 JUMP JUMPDEST PUSH2 0x6FD JUMP JUMPDEST POP JUMP JUMPDEST PUSH2 0x53E DUP3 DUP3 PUSH2 0x3FC JUMP JUMPDEST PUSH2 0x610 JUMPI PUSH1 0x1 PUSH1 0x0 DUP1 DUP5 DUP2 MSTORE PUSH1 0x20 ADD SWAP1 DUP2 MSTORE PUSH1 0x20 ADD PUSH1 0x0 KECCAK256 PUSH1 0x0 ADD PUSH1 0x0 DUP4 PUSH20 0xFFFFFFFFFFFFFFFFFFFFFFFFFFFFFFFFFFFFFFFF AND PUSH20 0xFFFFFFFFFFFFFFFFFFFFFFFFFFFFFFFFFFFFFFFF AND DUP2 MSTORE PUSH1 0x20 ADD SWAP1 DUP2 MSTORE PUSH1 0x20 ADD PUSH1 0x0 KECCAK256 PUSH1 0x0 PUSH2 0x100 EXP DUP2 SLOAD DUP2 PUSH1 0xFF MUL NOT AND SWAP1 DUP4 ISZERO ISZERO MUL OR SWAP1 SSTORE POP PUSH2 0x5B5 PUSH2 0x614 JUMP JUMPDEST PUSH20 0xFFFFFFFFFFFFFFFFFFFFFFFFFFFFFFFFFFFFFFFF AND DUP2 PUSH20 0xFFFFFFFFFFFFFFFFFFFFFFFFFFFFFFFFFFFFFFFF AND DUP4 PUSH32 0x2F8788117E7EFF1D82E926EC794901D17C78024A50270940304540A733656F0D PUSH1 0x40 MLOAD PUSH1 0x40 MLOAD DUP1 SWAP2 SUB SWAP1 LOG4 JUMPDEST POP POP JUMP JUMPDEST PUSH1 0x0 CALLER SWAP1 POP SWAP1 JUMP JUMPDEST PUSH2 0x626 DUP3 DUP3 PUSH2 0x3FC JUMP JUMPDEST ISZERO PUSH2 0x6F9 JUMPI PUSH1 0x0 DUP1 PUSH1 0x0 DUP5 DUP2 MSTORE PUSH1 0x20 ADD SWAP1 DUP2 MSTORE PUSH1 0x20 ADD PUSH1 0x0 KECCAK256 PUSH1 0x0 ADD PUSH1 0x0 DUP4 PUSH20 0xFFFFFFFFFFFFFFFFFFFFFFFFFFFFFFFFFFFFFFFF AND PUSH20 0xFFFFFFFFFFFFFFFFFFFFFFFFFFFFFFFFFFFFFFFF AND DUP2 MSTORE PUSH1 0x20 ADD SWAP1 DUP2 MSTORE PUSH1 0x20 ADD PUSH1 0x0 KECCAK256 PUSH1 0x0 PUSH2 0x100 EXP DUP2 SLOAD DUP2 PUSH1 0xFF MUL NOT AND SWAP1 DUP4 ISZERO ISZERO MUL OR SWAP1 SSTORE POP PUSH2 0x69E PUSH2 0x614 JUMP JUMPDEST PUSH20 0xFFFFFFFFFFFFFFFFFFFFFFFFFFFFFFFFFFFFFFFF AND DUP2 PUSH20 0xFFFFFFFFFFFFFFFFFFFFFFFFFFFFFFFFFFFFFFFF AND DUP4 PUSH32 0xF6391F5C32D9C69D2A47EA670B442974B53935D1EDC7FD64EB21E047A839171B PUSH1 0x40 MLOAD PUSH1 0x40 MLOAD DUP1 SWAP2 SUB SWAP1 LOG4 JUMPDEST POP POP JUMP JUMPDEST PUSH2 0x707 DUP3 DUP3 PUSH2 0x3FC JUMP JUMPDEST PUSH2 0x796 JUMPI PUSH2 0x72C DUP2 PUSH20 0xFFFFFFFFFFFFFFFFFFFFFFFFFFFFFFFFFFFFFFFF AND PUSH1 0x14 PUSH2 0x79A JUMP JUMPDEST PUSH2 0x73A DUP4 PUSH1 0x0 SHR PUSH1 0x20 PUSH2 0x79A JUMP JUMPDEST PUSH1 0x40 MLOAD PUSH1 0x20 ADD PUSH2 0x74B SWAP3 SWAP2 SWAP1 PUSH2 0xC14 JUMP JUMPDEST PUSH1 0x40 MLOAD PUSH1 0x20 DUP2 DUP4 SUB SUB DUP2 MSTORE SWAP1 PUSH1 0x40 MSTORE PUSH1 0x40 MLOAD PUSH32 0x8C379A000000000000000000000000000000000000000000000000000000000 DUP2 MSTORE PUSH1 0x4 ADD PUSH2 0x78D SWAP2 SWAP1 PUSH2 0xC84 JUMP JUMPDEST PUSH1 0x40 MLOAD DUP1 SWAP2 SUB SWAP1 REVERT JUMPDEST POP POP JUMP JUMPDEST PUSH1 0x60 PUSH1 0x0 PUSH1 0x2 DUP4 PUSH1 0x2 PUSH2 0x7AD SWAP2 SWAP1 PUSH2 0xD7E JUMP JUMPDEST PUSH2 0x7B7 SWAP2 SWAP1 PUSH2 0xD28 JUMP JUMPDEST PUSH8 0xFFFFFFFFFFFFFFFF DUP2 GT ISZERO PUSH2 0x7D0 JUMPI PUSH2 0x7CF PUSH2 0xF11 JUMP JUMPDEST JUMPDEST PUSH1 0x40 MLOAD SWAP1 DUP1 DUP3 MSTORE DUP1 PUSH1 0x1F ADD PUSH1 0x1F NOT AND PUSH1 0x20 ADD DUP3 ADD PUSH1 0x40 MSTORE DUP1 ISZERO PUSH2 0x802 JUMPI DUP2 PUSH1 0x20 ADD PUSH1 0x1 DUP3 MUL DUP1 CALLDATASIZE DUP4 CALLDATACOPY DUP1 DUP3 ADD SWAP2 POP POP SWAP1 POP JUMPDEST POP SWAP1 POP PUSH32 0x3000000000000000000000000000000000000000000000000000000000000000 DUP2 PUSH1 0x0 DUP2 MLOAD DUP2 LT PUSH2 0x83A JUMPI PUSH2 0x839 PUSH2 0xEE2 JUMP JUMPDEST JUMPDEST PUSH1 0x20 ADD ADD SWAP1 PUSH31 0xFFFFFFFFFFFFFFFFFFFFFFFFFFFFFFFFFFFFFFFFFFFFFFFFFFFFFFFFFFFFFF NOT AND SWAP1 DUP2 PUSH1 0x0 BYTE SWAP1 MSTORE8 POP PUSH32 0x7800000000000000000000000000000000000000000000000000000000000000 DUP2 PUSH1 0x1 DUP2 MLOAD DUP2 LT PUSH2 0x89E JUMPI PUSH2 0x89D PUSH2 0xEE2 JUMP JUMPDEST JUMPDEST PUSH1 0x20 ADD ADD SWAP1 PUSH31 0xFFFFFFFFFFFFFFFFFFFFFFFFFFFFFFFFFFFFFFFFFFFFFFFFFFFFFFFFFFFFFF NOT AND SWAP1 DUP2 PUSH1 0x0 BYTE SWAP1 MSTORE8 POP PUSH1 0x0 PUSH1 0x1 DUP5 PUSH1 0x2 PUSH2 0x8DE SWAP2 SWAP1 PUSH2 0xD7E JUMP JUMPDEST PUSH2 0x8E8 SWAP2 SWAP1 PUSH2 0xD28 JUMP JUMPDEST SWAP1 POP JUMPDEST PUSH1 0x1 DUP2 GT ISZERO PUSH2 0x988 JUMPI PUSH32 0x3031323334353637383961626364656600000000000000000000000000000000 PUSH1 0xF DUP7 AND PUSH1 0x10 DUP2 LT PUSH2 0x92A JUMPI PUSH2 0x929 PUSH2 0xEE2 JUMP JUMPDEST JUMPDEST BYTE PUSH1 0xF8 SHL DUP3 DUP3 DUP2 MLOAD DUP2 LT PUSH2 0x941 JUMPI PUSH2 0x940 PUSH2 0xEE2 JUMP JUMPDEST JUMPDEST PUSH1 0x20 ADD ADD SWAP1 PUSH31 0xFFFFFFFFFFFFFFFFFFFFFFFFFFFFFFFFFFFFFFFFFFFFFFFFFFFFFFFFFFFFFF NOT AND SWAP1 DUP2 PUSH1 0x0 BYTE SWAP1 MSTORE8 POP PUSH1 0x4 DUP6 SWAP1 SHR SWAP5 POP DUP1 PUSH2 0x981 SWAP1 PUSH2 0xE89 JUMP JUMPDEST SWAP1 POP PUSH2 0x8EB JUMP JUMPDEST POP PUSH1 0x0 DUP5 EQ PUSH2 0x9CC JUMPI PUSH1 0x40 MLOAD PUSH32 0x8C379A000000000000000000000000000000000000000000000000000000000 DUP2 MSTORE PUSH1 0x4 ADD PUSH2 0x9C3 SWAP1 PUSH2 0xCA6 JUMP JUMPDEST PUSH1 0x40 MLOAD DUP1 SWAP2 SUB SWAP1 REVERT JUMPDEST DUP1 SWAP2 POP POP SWAP3 SWAP2 POP POP JUMP JUMPDEST PUSH1 0x0 DUP2 CALLDATALOAD SWAP1 POP PUSH2 0x9E5 DUP2 PUSH2 0x1020 JUMP JUMPDEST SWAP3 SWAP2 POP POP JUMP JUMPDEST PUSH1 0x0 DUP2 CALLDATALOAD SWAP1 POP PUSH2 0x9FA DUP2 PUSH2 0x1037 JUMP JUMPDEST SWAP3 SWAP2 POP POP JUMP JUMPDEST PUSH1 0x0 DUP2 CALLDATALOAD SWAP1 POP PUSH2 0xA0F DUP2 PUSH2 0x104E JUMP JUMPDEST SWAP3 SWAP2 POP POP JUMP JUMPDEST PUSH1 0x0 DUP2 CALLDATALOAD SWAP1 POP PUSH2 0xA24 DUP2 PUSH2 0x1065 JUMP JUMPDEST SWAP3 SWAP2 POP POP JUMP JUMPDEST PUSH1 0x0 PUSH1 0x20 DUP3 DUP5 SUB SLT ISZERO PUSH2 0xA40 JUMPI PUSH2 0xA3F PUSH2 0xF40 JUMP JUMPDEST JUMPDEST PUSH1 0x0 PUSH2 0xA4E DUP5 DUP3 DUP6 ADD PUSH2 0x9EB JUMP JUMPDEST SWAP2 POP POP SWAP3 SWAP2 POP POP JUMP JUMPDEST PUSH1 0x0 DUP1 PUSH1 0x40 DUP4 DUP6 SUB SLT ISZERO PUSH2 0xA6E JUMPI PUSH2 0xA6D PUSH2 0xF40 JUMP JUMPDEST JUMPDEST PUSH1 0x0 PUSH2 0xA7C DUP6 DUP3 DUP7 ADD PUSH2 0x9EB JUMP JUMPDEST SWAP3 POP POP PUSH1 0x20 PUSH2 0xA8D DUP6 DUP3 DUP7 ADD PUSH2 0x9D6 JUMP JUMPDEST SWAP2 POP POP SWAP3 POP SWAP3 SWAP1 POP JUMP JUMPDEST PUSH1 0x0 PUSH1 0x20 DUP3 DUP5 SUB SLT ISZERO PUSH2 0xAAD JUMPI PUSH2 0xAAC PUSH2 0xF40 JUMP JUMPDEST JUMPDEST PUSH1 0x0 PUSH2 0xABB DUP5 DUP3 DUP6 ADD PUSH2 0xA00 JUMP JUMPDEST SWAP2 POP POP SWAP3 SWAP2 POP POP JUMP JUMPDEST PUSH1 0x0 PUSH1 0x20 DUP3 DUP5 SUB SLT ISZERO PUSH2 0xADA JUMPI PUSH2 0xAD9 PUSH2 0xF40 JUMP JUMPDEST JUMPDEST PUSH1 0x0 PUSH2 0xAE8 DUP5 DUP3 DUP6 ADD PUSH2 0xA15 JUMP JUMPDEST SWAP2 POP POP SWAP3 SWAP2 POP POP JUMP JUMPDEST PUSH2 0xAFA DUP2 PUSH2 0xDEA JUMP JUMPDEST DUP3 MSTORE POP POP JUMP JUMPDEST PUSH2 0xB09 DUP2 PUSH2 0xDF6 JUMP JUMPDEST DUP3 MSTORE POP POP JUMP JUMPDEST PUSH1 0x0 PUSH2 0xB1A DUP3 PUSH2 0xD01 JUMP JUMPDEST PUSH2 0xB24 DUP2 DUP6 PUSH2 0xD0C JUMP JUMPDEST SWAP4 POP PUSH2 0xB34 DUP2 DUP6 PUSH1 0x20 DUP7 ADD PUSH2 0xE56 JUMP JUMPDEST PUSH2 0xB3D DUP2 PUSH2 0xF45 JUMP JUMPDEST DUP5 ADD SWAP2 POP POP SWAP3 SWAP2 POP POP JUMP JUMPDEST PUSH1 0x0 PUSH2 0xB53 DUP3 PUSH2 0xD01 JUMP JUMPDEST PUSH2 0xB5D DUP2 DUP6 PUSH2 0xD1D JUMP JUMPDEST SWAP4 POP PUSH2 0xB6D DUP2 DUP6 PUSH1 0x20 DUP7 ADD PUSH2 0xE56 JUMP JUMPDEST DUP1 DUP5 ADD SWAP2 POP POP SWAP3 SWAP2 POP POP JUMP JUMPDEST PUSH1 0x0 PUSH2 0xB86 PUSH1 0x20 DUP4 PUSH2 0xD0C JUMP JUMPDEST SWAP2 POP PUSH2 0xB91 DUP3 PUSH2 0xF56 JUMP JUMPDEST PUSH1 0x20 DUP3 ADD SWAP1 POP SWAP2 SWAP1 POP JUMP JUMPDEST PUSH1 0x0 PUSH2 0xBA9 PUSH1 0x17 DUP4 PUSH2 0xD1D JUMP JUMPDEST SWAP2 POP PUSH2 0xBB4 DUP3 PUSH2 0xF7F JUMP JUMPDEST PUSH1 0x17 DUP3 ADD SWAP1 POP SWAP2 SWAP1 POP JUMP JUMPDEST PUSH1 0x0 PUSH2 0xBCC PUSH1 0x11 DUP4 PUSH2 0xD1D JUMP JUMPDEST SWAP2 POP PUSH2 0xBD7 DUP3 PUSH2 0xFA8 JUMP JUMPDEST PUSH1 0x11 DUP3 ADD SWAP1 POP SWAP2 SWAP1 POP JUMP JUMPDEST PUSH1 0x0 PUSH2 0xBEF PUSH1 0x2F DUP4 PUSH2 0xD0C JUMP JUMPDEST SWAP2 POP PUSH2 0xBFA DUP3 PUSH2 0xFD1 JUMP JUMPDEST PUSH1 0x40 DUP3 ADD SWAP1 POP SWAP2 SWAP1 POP JUMP JUMPDEST PUSH2 0xC0E DUP2 PUSH2 0xE4C JUMP JUMPDEST DUP3 MSTORE POP POP JUMP JUMPDEST PUSH1 0x0 PUSH2 0xC1F DUP3 PUSH2 0xB9C JUMP JUMPDEST SWAP2 POP PUSH2 0xC2B DUP3 DUP6 PUSH2 0xB48 JUMP JUMPDEST SWAP2 POP PUSH2 0xC36 DUP3 PUSH2 0xBBF JUMP JUMPDEST SWAP2 POP PUSH2 0xC42 DUP3 DUP5 PUSH2 0xB48 JUMP JUMPDEST SWAP2 POP DUP2 SWAP1 POP SWAP4 SWAP3 POP POP POP JUMP JUMPDEST PUSH1 0x0 PUSH1 0x20 DUP3 ADD SWAP1 POP PUSH2 0xC63 PUSH1 0x0 DUP4 ADD DUP5 PUSH2 0xAF1 JUMP JUMPDEST SWAP3 SWAP2 POP POP JUMP JUMPDEST PUSH1 0x0 PUSH1 0x20 DUP3 ADD SWAP1 POP PUSH2 0xC7E PUSH1 0x0 DUP4 ADD DUP5 PUSH2 0xB00 JUMP JUMPDEST SWAP3 SWAP2 POP POP JUMP JUMPDEST PUSH1 0x0 PUSH1 0x20 DUP3 ADD SWAP1 POP DUP2 DUP2 SUB PUSH1 0x0 DUP4 ADD MSTORE PUSH2 0xC9E DUP2 DUP5 PUSH2 0xB0F JUMP JUMPDEST SWAP1 POP SWAP3 SWAP2 POP POP JUMP JUMPDEST PUSH1 0x0 PUSH1 0x20 DUP3 ADD SWAP1 POP DUP2 DUP2 SUB PUSH1 0x0 DUP4 ADD MSTORE PUSH2 0xCBF DUP2 PUSH2 0xB79 JUMP JUMPDEST SWAP1 POP SWAP2 SWAP1 POP JUMP JUMPDEST PUSH1 0x0 PUSH1 0x20 DUP3 ADD SWAP1 POP DUP2 DUP2 SUB PUSH1 0x0 DUP4 ADD MSTORE PUSH2 0xCDF DUP2 PUSH2 0xBE2 JUMP JUMPDEST SWAP1 POP SWAP2 SWAP1 POP JUMP JUMPDEST PUSH1 0x0 PUSH1 0x20 DUP3 ADD SWAP1 POP PUSH2 0xCFB PUSH1 0x0 DUP4 ADD DUP5 PUSH2 0xC05 JUMP JUMPDEST SWAP3 SWAP2 POP POP JUMP JUMPDEST PUSH1 0x0 DUP2 MLOAD SWAP1 POP SWAP2 SWAP1 POP JUMP JUMPDEST PUSH1 0x0 DUP3 DUP3 MSTORE PUSH1 0x20 DUP3 ADD SWAP1 POP SWAP3 SWAP2 POP POP JUMP JUMPDEST PUSH1 0x0 DUP2 SWAP1 POP SWAP3 SWAP2 POP POP JUMP JUMPDEST PUSH1 0x0 PUSH2 0xD33 DUP3 PUSH2 0xE4C JUMP JUMPDEST SWAP2 POP PUSH2 0xD3E DUP4 PUSH2 0xE4C JUMP JUMPDEST SWAP3 POP DUP3 PUSH32 0xFFFFFFFFFFFFFFFFFFFFFFFFFFFFFFFFFFFFFFFFFFFFFFFFFFFFFFFFFFFFFFFF SUB DUP3 GT ISZERO PUSH2 0xD73 JUMPI PUSH2 0xD72 PUSH2 0xEB3 JUMP JUMPDEST JUMPDEST DUP3 DUP3 ADD SWAP1 POP SWAP3 SWAP2 POP POP JUMP JUMPDEST PUSH1 0x0 PUSH2 0xD89 DUP3 PUSH2 0xE4C JUMP JUMPDEST SWAP2 POP PUSH2 0xD94 DUP4 PUSH2 0xE4C JUMP JUMPDEST SWAP3 POP DUP2 PUSH32 0xFFFFFFFFFFFFFFFFFFFFFFFFFFFFFFFFFFFFFFFFFFFFFFFFFFFFFFFFFFFFFFFF DIV DUP4 GT DUP3 ISZERO ISZERO AND ISZERO PUSH2 0xDCD JUMPI PUSH2 0xDCC PUSH2 0xEB3 JUMP JUMPDEST JUMPDEST DUP3 DUP3 MUL SWAP1 POP SWAP3 SWAP2 POP POP JUMP JUMPDEST PUSH1 0x0 PUSH2 0xDE3 DUP3 PUSH2 0xE2C JUMP JUMPDEST SWAP1 POP SWAP2 SWAP1 POP JUMP JUMPDEST PUSH1 0x0 DUP2 ISZERO ISZERO SWAP1 POP SWAP2 SWAP1 POP JUMP JUMPDEST PUSH1 0x0 DUP2 SWAP1 POP SWAP2 SWAP1 POP JUMP JUMPDEST PUSH1 0x0 PUSH32 0xFFFFFFFF00000000000000000000000000000000000000000000000000000000 DUP3 AND SWAP1 POP SWAP2 SWAP1 POP JUMP JUMPDEST PUSH1 0x0 PUSH20 0xFFFFFFFFFFFFFFFFFFFFFFFFFFFFFFFFFFFFFFFF DUP3 AND SWAP1 POP SWAP2 SWAP1 POP JUMP JUMPDEST PUSH1 0x0 DUP2 SWAP1 POP SWAP2 SWAP1 POP JUMP JUMPDEST PUSH1 0x0 JUMPDEST DUP4 DUP2 LT ISZERO PUSH2 0xE74 JUMPI DUP1 DUP3 ADD MLOAD DUP2 DUP5 ADD MSTORE PUSH1 0x20 DUP2 ADD SWAP1 POP PUSH2 0xE59 JUMP JUMPDEST DUP4 DUP2 GT ISZERO PUSH2 0xE83 JUMPI PUSH1 0x0 DUP5 DUP5 ADD MSTORE JUMPDEST POP POP POP POP JUMP JUMPDEST PUSH1 0x0 PUSH2 0xE94 DUP3 PUSH2 0xE4C JUMP JUMPDEST SWAP2 POP PUSH1 0x0 DUP3 EQ ISZERO PUSH2 0xEA8 JUMPI PUSH2 0xEA7 PUSH2 0xEB3 JUMP JUMPDEST JUMPDEST PUSH1 0x1 DUP3 SUB SWAP1 POP SWAP2 SWAP1 POP JUMP JUMPDEST PUSH32 0x4E487B7100000000000000000000000000000000000000000000000000000000 PUSH1 0x0 MSTORE PUSH1 0x11 PUSH1 0x4 MSTORE PUSH1 0x24 PUSH1 0x0 REVERT JUMPDEST PUSH32 0x4E487B7100000000000000000000000000000000000000000000000000000000 PUSH1 0x0 MSTORE PUSH1 0x32 PUSH1 0x4 MSTORE PUSH1 0x24 PUSH1 0x0 REVERT JUMPDEST PUSH32 0x4E487B7100000000000000000000000000000000000000000000000000000000 PUSH1 0x0 MSTORE PUSH1 0x41 PUSH1 0x4 MSTORE PUSH1 0x24 PUSH1 0x0 REVERT JUMPDEST PUSH1 0x0 DUP1 REVERT JUMPDEST PUSH1 0x0 PUSH1 0x1F NOT PUSH1 0x1F DUP4 ADD AND SWAP1 POP SWAP2 SWAP1 POP JUMP JUMPDEST PUSH32 0x537472696E67733A20686578206C656E67746820696E73756666696369656E74 PUSH1 0x0 DUP3 ADD MSTORE POP JUMP JUMPDEST PUSH32 0x416363657373436F6E74726F6C3A206163636F756E7420000000000000000000 PUSH1 0x0 DUP3 ADD MSTORE POP JUMP JUMPDEST PUSH32 0x206973206D697373696E6720726F6C6520000000000000000000000000000000 PUSH1 0x0 DUP3 ADD MSTORE POP JUMP JUMPDEST PUSH32 0x416363657373436F6E74726F6C3A2063616E206F6E6C792072656E6F756E6365 PUSH1 0x0 DUP3 ADD MSTORE PUSH32 0x20726F6C657320666F722073656C660000000000000000000000000000000000 PUSH1 0x20 DUP3 ADD MSTORE POP JUMP JUMPDEST PUSH2 0x1029 DUP2 PUSH2 0xDD8 JUMP JUMPDEST DUP2 EQ PUSH2 0x1034 JUMPI PUSH1 0x0 DUP1 REVERT JUMPDEST POP JUMP JUMPDEST PUSH2 0x1040 DUP2 PUSH2 0xDF6 JUMP JUMPDEST DUP2 EQ PUSH2 0x104B JUMPI PUSH1 0x0 DUP1 REVERT JUMPDEST POP JUMP JUMPDEST PUSH2 0x1057 DUP2 PUSH2 0xE00 JUMP JUMPDEST DUP2 EQ PUSH2 0x1062 JUMPI PUSH1 0x0 DUP1 REVERT JUMPDEST POP JUMP JUMPDEST PUSH2 0x106E DUP2 PUSH2 0xE4C JUMP JUMPDEST DUP2 EQ PUSH2 0x1079 JUMPI PUSH1 0x0 DUP1 REVERT JUMPDEST POP JUMP INVALID LOG2 PUSH5 0x6970667358 0x22 SLT KECCAK256 0xC8 SMOD CALLVALUE 0xD 0x2E SELFDESTRUCT SUB CALLDATASIZE STOP 0xE4 0xED DUP3 MSTORE8 CODESIZE 0xC6 0xF8 0xC5 CALLCODE 0xB1 0xC4 ISZERO XOR DUP6 0xEC GT SWAP3 DUP15 COINBASE PUSH22 0x3327D64736F6C634300080700330000000000000000 "
				},
				"gasEstimates": {
					"creation": {
						"codeDepositCost": "854800",
						"executionCost": "890",
						"totalCost": "855690"
					},
					"external": {
						"DEFAULT_ADMIN_ROLE()": "402",
						"ROL_ADMIN()": "351",
						"ROL_WRITER()": "396",
						"_grantRole()": "188",
						"_hasRole()": "167",
						"_revokeRole()": "232",
						"getRoleAdmin(bytes32)": "infinite",
						"grantRole(bytes32,address)": "infinite",
						"hasRole(bytes32,address)": "3185",
						"renounceRole(bytes32,address)": "infinite",
						"retrieve()": "2505",
						"revokeRole(bytes32,address)": "infinite",
						"store(uint256)": "22609",
						"supportsInterface(bytes4)": "751"
					}
				},
				"methodIdentifiers": {
					"DEFAULT_ADMIN_ROLE()": "a217fddf",
					"ROL_ADMIN()": "adec03fc",
					"ROL_WRITER()": "45d49420",
					"_grantRole()": "c23312dd",
					"_hasRole()": "71cc6c6e",
					"_revokeRole()": "ffecbb25",
					"getRoleAdmin(bytes32)": "248a9ca3",
					"grantRole(bytes32,address)": "2f2ff15d",
					"hasRole(bytes32,address)": "91d14854",
					"renounceRole(bytes32,address)": "36568abe",
					"retrieve()": "2e64cec1",
					"revokeRole(bytes32,address)": "d547741f",
					"store(uint256)": "6057361d",
					"supportsInterface(bytes4)": "01ffc9a7"
				}
			},
			"storageLayout": {
				"storage": [
					{
						"astId": 24,
						"contract": "contracts/Openzeppelin/ControlAccesoReto.sol:ControlAccesoReto",
						"label": "_roles",
						"offset": 0,
						"slot": "0",
						"type": "t_mapping(t_bytes32,t_struct(RoleData)19_storage)"
					},
					{
						"astId": 684,
						"contract": "contracts/Openzeppelin/ControlAccesoReto.sol:ControlAccesoReto",
						"label": "number",
						"offset": 0,
						"slot": "1",
						"type": "t_uint256"
					}
				],
				"types": {
					"t_address": {
						"encoding": "inplace",
						"label": "address",
						"numberOfBytes": "20"
					},
					"t_bool": {
						"encoding": "inplace",
						"label": "bool",
						"numberOfBytes": "1"
					},
					"t_bytes32": {
						"encoding": "inplace",
						"label": "bytes32",
						"numberOfBytes": "32"
					},
					"t_mapping(t_address,t_bool)": {
						"encoding": "mapping",
						"key": "t_address",
						"label": "mapping(address => bool)",
						"numberOfBytes": "32",
						"value": "t_bool"
					},
					"t_mapping(t_bytes32,t_struct(RoleData)19_storage)": {
						"encoding": "mapping",
						"key": "t_bytes32",
						"label": "mapping(bytes32 => struct AccessControl.RoleData)",
						"numberOfBytes": "32",
						"value": "t_struct(RoleData)19_storage"
					},
					"t_struct(RoleData)19_storage": {
						"encoding": "inplace",
						"label": "struct AccessControl.RoleData",
						"members": [
							{
								"astId": 16,
								"contract": "contracts/Openzeppelin/ControlAccesoReto.sol:ControlAccesoReto",
								"label": "members",
								"offset": 0,
								"slot": "0",
								"type": "t_mapping(t_address,t_bool)"
							},
							{
								"astId": 18,
								"contract": "contracts/Openzeppelin/ControlAccesoReto.sol:ControlAccesoReto",
								"label": "adminRole",
								"offset": 0,
								"slot": "1",
								"type": "t_bytes32"
							}
						],
						"numberOfBytes": "64"
					},
					"t_uint256": {
						"encoding": "inplace",
						"label": "uint256",
						"numberOfBytes": "32"
					}
				}
			},
			"userdoc": {
				"kind": "user",
				"methods": {},
				"version": 1
			}
		}
	}
}