{
	"contracts/Openzeppelin/ControlAccesoReto.sol": {
		"Storage": {
			"abi": [
				{
					"inputs": [],
					"name": "ROL_ADMIN",
					"outputs": [
						{
							"internalType": "bytes32",
							"name": "",
							"type": "bytes32"
						}
					],
					"stateMutability": "view",
					"type": "function"
				},
				{
					"inputs": [],
					"name": "ROL_WRITER",
					"outputs": [
						{
							"internalType": "bytes32",
							"name": "",
							"type": "bytes32"
						}
					],
					"stateMutability": "view",
					"type": "function"
				},
				{
					"inputs": [],
					"name": "_grantRole",
					"outputs": [],
					"stateMutability": "nonpayable",
					"type": "function"
				},
				{
					"inputs": [],
					"name": "_hasRole",
					"outputs": [],
					"stateMutability": "nonpayable",
					"type": "function"
				},
				{
					"inputs": [],
					"name": "_revokeRole",
					"outputs": [],
					"stateMutability": "nonpayable",
					"type": "function"
				},
				{
					"inputs": [],
					"name": "retrieve",
					"outputs": [
						{
							"internalType": "uint256",
							"name": "",
							"type": "uint256"
						}
					],
					"stateMutability": "view",
					"type": "function"
				},
				{
					"inputs": [
						{
							"internalType": "uint256",
							"name": "num",
							"type": "uint256"
						}
					],
					"name": "store",
					"outputs": [],
					"stateMutability": "nonpayable",
					"type": "function"
				}
			],
			"devdoc": {
				"custom:dev-run-script": "./scripts/deploy_with_ethers.ts",
				"details": "Store & retrieve value in a variable",
				"kind": "dev",
				"methods": {
					"retrieve()": {
						"details": "Return value ",
						"returns": {
							"_0": "value of 'number'"
						}
					},
					"store(uint256)": {
						"details": "Store value in variable",
						"params": {
							"num": "value to store"
						}
					}
				},
				"title": "Storage",
				"version": 1
			},
			"evm": {
				"assembly": "    /* \"contracts/Openzeppelin/ControlAccesoReto.sol\":270:970  contract Storage {\r... */\n  mstore(0x40, 0x80)\n  callvalue\n  dup1\n  iszero\n  tag_1\n  jumpi\n  0x00\n  dup1\n  revert\ntag_1:\n  pop\n  dataSize(sub_0)\n  dup1\n  dataOffset(sub_0)\n  0x00\n  codecopy\n  0x00\n  return\nstop\n\nsub_0: assembly {\n        /* \"contracts/Openzeppelin/ControlAccesoReto.sol\":270:970  contract Storage {\r... */\n      mstore(0x40, 0x80)\n      callvalue\n      dup1\n      iszero\n      tag_1\n      jumpi\n      0x00\n      dup1\n      revert\n    tag_1:\n      pop\n      jumpi(tag_2, lt(calldatasize, 0x04))\n      shr(0xe0, calldataload(0x00))\n      dup1\n      0x71cc6c6e\n      gt\n      tag_10\n      jumpi\n      dup1\n      0x71cc6c6e\n      eq\n      tag_6\n      jumpi\n      dup1\n      0xadec03fc\n      eq\n      tag_7\n      jumpi\n      dup1\n      0xc23312dd\n      eq\n      tag_8\n      jumpi\n      dup1\n      0xffecbb25\n      eq\n      tag_9\n      jumpi\n      jump(tag_2)\n    tag_10:\n      dup1\n      0x2e64cec1\n      eq\n      tag_3\n      jumpi\n      dup1\n      0x45d49420\n      eq\n      tag_4\n      jumpi\n      dup1\n      0x6057361d\n      eq\n      tag_5\n      jumpi\n    tag_2:\n      0x00\n      dup1\n      revert\n        /* \"contracts/Openzeppelin/ControlAccesoReto.sol\":886:967  function retrieve() public view returns (uint256){\r... */\n    tag_3:\n      tag_11\n      tag_12\n      jump\t// in\n    tag_11:\n      mload(0x40)\n      tag_13\n      swap2\n      swap1\n      tag_14\n      jump\t// in\n    tag_13:\n      mload(0x40)\n      dup1\n      swap2\n      sub\n      swap1\n      return\n        /* \"contracts/Openzeppelin/ControlAccesoReto.sol\":426:486  bytes32 public constant ROL_WRITER = keccak256(\"ROL_WRITER\") */\n    tag_4:\n      tag_15\n      tag_16\n      jump\t// in\n    tag_15:\n      mload(0x40)\n      tag_17\n      swap2\n      swap1\n      tag_18\n      jump\t// in\n    tag_17:\n      mload(0x40)\n      dup1\n      swap2\n      sub\n      swap1\n      return\n        /* \"contracts/Openzeppelin/ControlAccesoReto.sol\":727:793  function store(uint256 num) public {\r... */\n    tag_5:\n      tag_19\n      0x04\n      dup1\n      calldatasize\n      sub\n      dup2\n      add\n      swap1\n      tag_20\n      swap2\n      swap1\n      tag_21\n      jump\t// in\n    tag_20:\n      tag_22\n      jump\t// in\n    tag_19:\n      stop\n        /* \"contracts/Openzeppelin/ControlAccesoReto.sol\":497:534  function _hasRole() public {\r... */\n    tag_6:\n      tag_23\n      tag_24\n      jump\t// in\n    tag_23:\n      stop\n        /* \"contracts/Openzeppelin/ControlAccesoReto.sol\":361:419  bytes32 public constant ROL_ADMIN = keccak256(\"ROL_ADMIN\") */\n    tag_7:\n      tag_25\n      tag_26\n      jump\t// in\n    tag_25:\n      mload(0x40)\n      tag_27\n      swap2\n      swap1\n      tag_18\n      jump\t// in\n    tag_27:\n      mload(0x40)\n      dup1\n      swap2\n      sub\n      swap1\n      return\n        /* \"contracts/Openzeppelin/ControlAccesoReto.sol\":542:580  function _grantRole() public{\r... */\n    tag_8:\n      tag_28\n      tag_29\n      jump\t// in\n    tag_28:\n      stop\n        /* \"contracts/Openzeppelin/ControlAccesoReto.sol\":588:628  function _revokeRole() public {\r... */\n    tag_9:\n      tag_30\n      tag_31\n      jump\t// in\n    tag_30:\n      stop\n        /* \"contracts/Openzeppelin/ControlAccesoReto.sol\":886:967  function retrieve() public view returns (uint256){\r... */\n    tag_12:\n        /* \"contracts/Openzeppelin/ControlAccesoReto.sol\":927:934  uint256 */\n      0x00\n        /* \"contracts/Openzeppelin/ControlAccesoReto.sol\":953:959  number */\n      dup1\n      sload\n        /* \"contracts/Openzeppelin/ControlAccesoReto.sol\":946:959  return number */\n      swap1\n      pop\n        /* \"contracts/Openzeppelin/ControlAccesoReto.sol\":886:967  function retrieve() public view returns (uint256){\r... */\n      swap1\n      jump\t// out\n        /* \"contracts/Openzeppelin/ControlAccesoReto.sol\":426:486  bytes32 public constant ROL_WRITER = keccak256(\"ROL_WRITER\") */\n    tag_16:\n        /* \"contracts/Openzeppelin/ControlAccesoReto.sol\":463:486  keccak256(\"ROL_WRITER\") */\n      0x3bd382f411bca881c98196b18edce31a82cf3847dab18082dd90c13022f62dfb\n        /* \"contracts/Openzeppelin/ControlAccesoReto.sol\":426:486  bytes32 public constant ROL_WRITER = keccak256(\"ROL_WRITER\") */\n      dup2\n      jump\t// out\n        /* \"contracts/Openzeppelin/ControlAccesoReto.sol\":727:793  function store(uint256 num) public {\r... */\n    tag_22:\n        /* \"contracts/Openzeppelin/ControlAccesoReto.sol\":782:785  num */\n      dup1\n        /* \"contracts/Openzeppelin/ControlAccesoReto.sol\":773:779  number */\n      0x00\n        /* \"contracts/Openzeppelin/ControlAccesoReto.sol\":773:785  number = num */\n      dup2\n      swap1\n      sstore\n      pop\n        /* \"contracts/Openzeppelin/ControlAccesoReto.sol\":727:793  function store(uint256 num) public {\r... */\n      pop\n      jump\t// out\n        /* \"contracts/Openzeppelin/ControlAccesoReto.sol\":497:534  function _hasRole() public {\r... */\n    tag_24:\n      jump\t// out\n        /* \"contracts/Openzeppelin/ControlAccesoReto.sol\":361:419  bytes32 public constant ROL_ADMIN = keccak256(\"ROL_ADMIN\") */\n    tag_26:\n        /* \"contracts/Openzeppelin/ControlAccesoReto.sol\":397:419  keccak256(\"ROL_ADMIN\") */\n      0x7e5b835f8ef15bb117d49cb6d0658113bc08d41d8a6edf12d3d1feb5c5875330\n        /* \"contracts/Openzeppelin/ControlAccesoReto.sol\":361:419  bytes32 public constant ROL_ADMIN = keccak256(\"ROL_ADMIN\") */\n      dup2\n      jump\t// out\n        /* \"contracts/Openzeppelin/ControlAccesoReto.sol\":542:580  function _grantRole() public{\r... */\n    tag_29:\n      jump\t// out\n        /* \"contracts/Openzeppelin/ControlAccesoReto.sol\":588:628  function _revokeRole() public {\r... */\n    tag_31:\n      jump\t// out\n        /* \"#utility.yul\":7:146   */\n    tag_38:\n        /* \"#utility.yul\":53:58   */\n      0x00\n        /* \"#utility.yul\":91:97   */\n      dup2\n        /* \"#utility.yul\":78:98   */\n      calldataload\n        /* \"#utility.yul\":69:98   */\n      swap1\n      pop\n        /* \"#utility.yul\":107:140   */\n      tag_40\n        /* \"#utility.yul\":134:139   */\n      dup2\n        /* \"#utility.yul\":107:140   */\n      tag_41\n      jump\t// in\n    tag_40:\n        /* \"#utility.yul\":7:146   */\n      swap3\n      swap2\n      pop\n      pop\n      jump\t// out\n        /* \"#utility.yul\":152:481   */\n    tag_21:\n        /* \"#utility.yul\":211:217   */\n      0x00\n        /* \"#utility.yul\":260:262   */\n      0x20\n        /* \"#utility.yul\":248:257   */\n      dup3\n        /* \"#utility.yul\":239:246   */\n      dup5\n        /* \"#utility.yul\":235:258   */\n      sub\n        /* \"#utility.yul\":231:263   */\n      slt\n        /* \"#utility.yul\":228:347   */\n      iszero\n      tag_43\n      jumpi\n        /* \"#utility.yul\":266:345   */\n      tag_44\n      tag_45\n      jump\t// in\n    tag_44:\n        /* \"#utility.yul\":228:347   */\n    tag_43:\n        /* \"#utility.yul\":386:387   */\n      0x00\n        /* \"#utility.yul\":411:464   */\n      tag_46\n        /* \"#utility.yul\":456:463   */\n      dup5\n        /* \"#utility.yul\":447:453   */\n      dup3\n        /* \"#utility.yul\":436:445   */\n      dup6\n        /* \"#utility.yul\":432:454   */\n      add\n        /* \"#utility.yul\":411:464   */\n      tag_38\n      jump\t// in\n    tag_46:\n        /* \"#utility.yul\":401:464   */\n      swap2\n      pop\n        /* \"#utility.yul\":357:474   */\n      pop\n        /* \"#utility.yul\":152:481   */\n      swap3\n      swap2\n      pop\n      pop\n      jump\t// out\n        /* \"#utility.yul\":487:605   */\n    tag_47:\n        /* \"#utility.yul\":574:598   */\n      tag_49\n        /* \"#utility.yul\":592:597   */\n      dup2\n        /* \"#utility.yul\":574:598   */\n      tag_50\n      jump\t// in\n    tag_49:\n        /* \"#utility.yul\":569:572   */\n      dup3\n        /* \"#utility.yul\":562:599   */\n      mstore\n        /* \"#utility.yul\":487:605   */\n      pop\n      pop\n      jump\t// out\n        /* \"#utility.yul\":611:729   */\n    tag_51:\n        /* \"#utility.yul\":698:722   */\n      tag_53\n        /* \"#utility.yul\":716:721   */\n      dup2\n        /* \"#utility.yul\":698:722   */\n      tag_54\n      jump\t// in\n    tag_53:\n        /* \"#utility.yul\":693:696   */\n      dup3\n        /* \"#utility.yul\":686:723   */\n      mstore\n        /* \"#utility.yul\":611:729   */\n      pop\n      pop\n      jump\t// out\n        /* \"#utility.yul\":735:957   */\n    tag_18:\n        /* \"#utility.yul\":828:832   */\n      0x00\n        /* \"#utility.yul\":866:868   */\n      0x20\n        /* \"#utility.yul\":855:864   */\n      dup3\n        /* \"#utility.yul\":851:869   */\n      add\n        /* \"#utility.yul\":843:869   */\n      swap1\n      pop\n        /* \"#utility.yul\":879:950   */\n      tag_56\n        /* \"#utility.yul\":947:948   */\n      0x00\n        /* \"#utility.yul\":936:945   */\n      dup4\n        /* \"#utility.yul\":932:949   */\n      add\n        /* \"#utility.yul\":923:929   */\n      dup5\n        /* \"#utility.yul\":879:950   */\n      tag_47\n      jump\t// in\n    tag_56:\n        /* \"#utility.yul\":735:957   */\n      swap3\n      swap2\n      pop\n      pop\n      jump\t// out\n        /* \"#utility.yul\":963:1185   */\n    tag_14:\n        /* \"#utility.yul\":1056:1060   */\n      0x00\n        /* \"#utility.yul\":1094:1096   */\n      0x20\n        /* \"#utility.yul\":1083:1092   */\n      dup3\n        /* \"#utility.yul\":1079:1097   */\n      add\n        /* \"#utility.yul\":1071:1097   */\n      swap1\n      pop\n        /* \"#utility.yul\":1107:1178   */\n      tag_58\n        /* \"#utility.yul\":1175:1176   */\n      0x00\n        /* \"#utility.yul\":1164:1173   */\n      dup4\n        /* \"#utility.yul\":1160:1177   */\n      add\n        /* \"#utility.yul\":1151:1157   */\n      dup5\n        /* \"#utility.yul\":1107:1178   */\n      tag_51\n      jump\t// in\n    tag_58:\n        /* \"#utility.yul\":963:1185   */\n      swap3\n      swap2\n      pop\n      pop\n      jump\t// out\n        /* \"#utility.yul\":1272:1349   */\n    tag_50:\n        /* \"#utility.yul\":1309:1316   */\n      0x00\n        /* \"#utility.yul\":1338:1343   */\n      dup2\n        /* \"#utility.yul\":1327:1343   */\n      swap1\n      pop\n        /* \"#utility.yul\":1272:1349   */\n      swap2\n      swap1\n      pop\n      jump\t// out\n        /* \"#utility.yul\":1355:1432   */\n    tag_54:\n        /* \"#utility.yul\":1392:1399   */\n      0x00\n        /* \"#utility.yul\":1421:1426   */\n      dup2\n        /* \"#utility.yul\":1410:1426   */\n      swap1\n      pop\n        /* \"#utility.yul\":1355:1432   */\n      swap2\n      swap1\n      pop\n      jump\t// out\n        /* \"#utility.yul\":1561:1678   */\n    tag_45:\n        /* \"#utility.yul\":1670:1671   */\n      0x00\n        /* \"#utility.yul\":1667:1668   */\n      dup1\n        /* \"#utility.yul\":1660:1672   */\n      revert\n        /* \"#utility.yul\":1684:1806   */\n    tag_41:\n        /* \"#utility.yul\":1757:1781   */\n      tag_67\n        /* \"#utility.yul\":1775:1780   */\n      dup2\n        /* \"#utility.yul\":1757:1781   */\n      tag_54\n      jump\t// in\n    tag_67:\n        /* \"#utility.yul\":1750:1755   */\n      dup2\n        /* \"#utility.yul\":1747:1782   */\n      eq\n        /* \"#utility.yul\":1737:1800   */\n      tag_68\n      jumpi\n        /* \"#utility.yul\":1796:1797   */\n      0x00\n        /* \"#utility.yul\":1793:1794   */\n      dup1\n        /* \"#utility.yul\":1786:1798   */\n      revert\n        /* \"#utility.yul\":1737:1800   */\n    tag_68:\n        /* \"#utility.yul\":1684:1806   */\n      pop\n      jump\t// out\n\n    auxdata: 0xa2646970667358221220512ffda2a87d31673dc04135f71f5a5cd514c98b13804c5a7612db3c0e6ff7f464736f6c63430008070033\n}\n",
				"bytecode": {
					"linkReferences": {},
					"object": "608060405234801561001057600080fd5b50610273806100206000396000f3fe608060405234801561001057600080fd5b506004361061007d5760003560e01c806371cc6c6e1161005b57806371cc6c6e146100da578063adec03fc146100e4578063c23312dd14610102578063ffecbb251461010c5761007d565b80632e64cec11461008257806345d49420146100a05780636057361d146100be575b600080fd5b61008a610116565b60405161009791906101f2565b60405180910390f35b6100a861011f565b6040516100b591906101d7565b60405180910390f35b6100d860048036038101906100d3919061018c565b610143565b005b6100e261014d565b005b6100ec61014f565b6040516100f991906101d7565b60405180910390f35b61010a610173565b005b610114610175565b005b60008054905090565b7f3bd382f411bca881c98196b18edce31a82cf3847dab18082dd90c13022f62dfb81565b8060008190555050565b565b7f7e5b835f8ef15bb117d49cb6d0658113bc08d41d8a6edf12d3d1feb5c587533081565b565b565b60008135905061018681610226565b92915050565b6000602082840312156101a2576101a1610221565b5b60006101b084828501610177565b91505092915050565b6101c28161020d565b82525050565b6101d181610217565b82525050565b60006020820190506101ec60008301846101b9565b92915050565b600060208201905061020760008301846101c8565b92915050565b6000819050919050565b6000819050919050565b600080fd5b61022f81610217565b811461023a57600080fd5b5056fea2646970667358221220512ffda2a87d31673dc04135f71f5a5cd514c98b13804c5a7612db3c0e6ff7f464736f6c63430008070033",
					"opcodes": "PUSH1 0x80 PUSH1 0x40 MSTORE CALLVALUE DUP1 ISZERO PUSH2 0x10 JUMPI PUSH1 0x0 DUP1 REVERT JUMPDEST POP PUSH2 0x273 DUP1 PUSH2 0x20 PUSH1 0x0 CODECOPY PUSH1 0x0 RETURN INVALID PUSH1 0x80 PUSH1 0x40 MSTORE CALLVALUE DUP1 ISZERO PUSH2 0x10 JUMPI PUSH1 0x0 DUP1 REVERT JUMPDEST POP PUSH1 0x4 CALLDATASIZE LT PUSH2 0x7D JUMPI PUSH1 0x0 CALLDATALOAD PUSH1 0xE0 SHR DUP1 PUSH4 0x71CC6C6E GT PUSH2 0x5B JUMPI DUP1 PUSH4 0x71CC6C6E EQ PUSH2 0xDA JUMPI DUP1 PUSH4 0xADEC03FC EQ PUSH2 0xE4 JUMPI DUP1 PUSH4 0xC23312DD EQ PUSH2 0x102 JUMPI DUP1 PUSH4 0xFFECBB25 EQ PUSH2 0x10C JUMPI PUSH2 0x7D JUMP JUMPDEST DUP1 PUSH4 0x2E64CEC1 EQ PUSH2 0x82 JUMPI DUP1 PUSH4 0x45D49420 EQ PUSH2 0xA0 JUMPI DUP1 PUSH4 0x6057361D EQ PUSH2 0xBE JUMPI JUMPDEST PUSH1 0x0 DUP1 REVERT JUMPDEST PUSH2 0x8A PUSH2 0x116 JUMP JUMPDEST PUSH1 0x40 MLOAD PUSH2 0x97 SWAP2 SWAP1 PUSH2 0x1F2 JUMP JUMPDEST PUSH1 0x40 MLOAD DUP1 SWAP2 SUB SWAP1 RETURN JUMPDEST PUSH2 0xA8 PUSH2 0x11F JUMP JUMPDEST PUSH1 0x40 MLOAD PUSH2 0xB5 SWAP2 SWAP1 PUSH2 0x1D7 JUMP JUMPDEST PUSH1 0x40 MLOAD DUP1 SWAP2 SUB SWAP1 RETURN JUMPDEST PUSH2 0xD8 PUSH1 0x4 DUP1 CALLDATASIZE SUB DUP2 ADD SWAP1 PUSH2 0xD3 SWAP2 SWAP1 PUSH2 0x18C JUMP JUMPDEST PUSH2 0x143 JUMP JUMPDEST STOP JUMPDEST PUSH2 0xE2 PUSH2 0x14D JUMP JUMPDEST STOP JUMPDEST PUSH2 0xEC PUSH2 0x14F JUMP JUMPDEST PUSH1 0x40 MLOAD PUSH2 0xF9 SWAP2 SWAP1 PUSH2 0x1D7 JUMP JUMPDEST PUSH1 0x40 MLOAD DUP1 SWAP2 SUB SWAP1 RETURN JUMPDEST PUSH2 0x10A PUSH2 0x173 JUMP JUMPDEST STOP JUMPDEST PUSH2 0x114 PUSH2 0x175 JUMP JUMPDEST STOP JUMPDEST PUSH1 0x0 DUP1 SLOAD SWAP1 POP SWAP1 JUMP JUMPDEST PUSH32 0x3BD382F411BCA881C98196B18EDCE31A82CF3847DAB18082DD90C13022F62DFB DUP2 JUMP JUMPDEST DUP1 PUSH1 0x0 DUP2 SWAP1 SSTORE POP POP JUMP JUMPDEST JUMP JUMPDEST PUSH32 0x7E5B835F8EF15BB117D49CB6D0658113BC08D41D8A6EDF12D3D1FEB5C5875330 DUP2 JUMP JUMPDEST JUMP JUMPDEST JUMP JUMPDEST PUSH1 0x0 DUP2 CALLDATALOAD SWAP1 POP PUSH2 0x186 DUP2 PUSH2 0x226 JUMP JUMPDEST SWAP3 SWAP2 POP POP JUMP JUMPDEST PUSH1 0x0 PUSH1 0x20 DUP3 DUP5 SUB SLT ISZERO PUSH2 0x1A2 JUMPI PUSH2 0x1A1 PUSH2 0x221 JUMP JUMPDEST JUMPDEST PUSH1 0x0 PUSH2 0x1B0 DUP5 DUP3 DUP6 ADD PUSH2 0x177 JUMP JUMPDEST SWAP2 POP POP SWAP3 SWAP2 POP POP JUMP JUMPDEST PUSH2 0x1C2 DUP2 PUSH2 0x20D JUMP JUMPDEST DUP3 MSTORE POP POP JUMP JUMPDEST PUSH2 0x1D1 DUP2 PUSH2 0x217 JUMP JUMPDEST DUP3 MSTORE POP POP JUMP JUMPDEST PUSH1 0x0 PUSH1 0x20 DUP3 ADD SWAP1 POP PUSH2 0x1EC PUSH1 0x0 DUP4 ADD DUP5 PUSH2 0x1B9 JUMP JUMPDEST SWAP3 SWAP2 POP POP JUMP JUMPDEST PUSH1 0x0 PUSH1 0x20 DUP3 ADD SWAP1 POP PUSH2 0x207 PUSH1 0x0 DUP4 ADD DUP5 PUSH2 0x1C8 JUMP JUMPDEST SWAP3 SWAP2 POP POP JUMP JUMPDEST PUSH1 0x0 DUP2 SWAP1 POP SWAP2 SWAP1 POP JUMP JUMPDEST PUSH1 0x0 DUP2 SWAP1 POP SWAP2 SWAP1 POP JUMP JUMPDEST PUSH1 0x0 DUP1 REVERT JUMPDEST PUSH2 0x22F DUP2 PUSH2 0x217 JUMP JUMPDEST DUP2 EQ PUSH2 0x23A JUMPI PUSH1 0x0 DUP1 REVERT JUMPDEST POP JUMP INVALID LOG2 PUSH5 0x6970667358 0x22 SLT KECCAK256 MLOAD 0x2F REVERT LOG2 0xA8 PUSH30 0x31673DC04135F71F5A5CD514C98B13804C5A7612DB3C0E6FF7F464736F6C PUSH4 0x43000807 STOP CALLER "
				},
				"gasEstimates": {
					"creation": {
						"codeDepositCost": "125400",
						"executionCost": "171",
						"totalCost": "125571"
					},
					"external": {
						"ROL_ADMIN()": "351",
						"ROL_WRITER()": "352",
						"_grantRole()": "188",
						"_hasRole()": "144",
						"_revokeRole()": "210",
						"retrieve()": "2438",
						"store(uint256)": "22565"
					}
				},
				"methodIdentifiers": {
					"ROL_ADMIN()": "adec03fc",
					"ROL_WRITER()": "45d49420",
					"_grantRole()": "c23312dd",
					"_hasRole()": "71cc6c6e",
					"_revokeRole()": "ffecbb25",
					"retrieve()": "2e64cec1",
					"store(uint256)": "6057361d"
				}
			},
			"storageLayout": {
				"storage": [
					{
						"astId": 682,
						"contract": "contracts/Openzeppelin/ControlAccesoReto.sol:Storage",
						"label": "number",
						"offset": 0,
						"slot": "0",
						"type": "t_uint256"
					}
				],
				"types": {
					"t_uint256": {
						"encoding": "inplace",
						"label": "uint256",
						"numberOfBytes": "32"
					}
				}
			},
			"userdoc": {
				"kind": "user",
				"methods": {},
				"version": 1
			}
		}
	}
}