{
	"contracts/Openzeppelin/ControlAccesoReto.sol": {
		"ControlAccesoReto": {
			"abi": [
				{
					"anonymous": false,
					"inputs": [
						{
							"indexed": true,
							"internalType": "bytes32",
							"name": "role",
							"type": "bytes32"
						},
						{
							"indexed": true,
							"internalType": "bytes32",
							"name": "previousAdminRole",
							"type": "bytes32"
						},
						{
							"indexed": true,
							"internalType": "bytes32",
							"name": "newAdminRole",
							"type": "bytes32"
						}
					],
					"name": "RoleAdminChanged",
					"type": "event"
				},
				{
					"anonymous": false,
					"inputs": [
						{
							"indexed": true,
							"internalType": "bytes32",
							"name": "role",
							"type": "bytes32"
						},
						{
							"indexed": true,
							"internalType": "address",
							"name": "account",
							"type": "address"
						},
						{
							"indexed": true,
							"internalType": "address",
							"name": "sender",
							"type": "address"
						}
					],
					"name": "RoleGranted",
					"type": "event"
				},
				{
					"anonymous": false,
					"inputs": [
						{
							"indexed": true,
							"internalType": "bytes32",
							"name": "role",
							"type": "bytes32"
						},
						{
							"indexed": true,
							"internalType": "address",
							"name": "account",
							"type": "address"
						},
						{
							"indexed": true,
							"internalType": "address",
							"name": "sender",
							"type": "address"
						}
					],
					"name": "RoleRevoked",
					"type": "event"
				},
				{
					"inputs": [],
					"name": "DEFAULT_ADMIN_ROLE",
					"outputs": [
						{
							"internalType": "bytes32",
							"name": "",
							"type": "bytes32"
						}
					],
					"stateMutability": "view",
					"type": "function"
				},
				{
					"inputs": [],
					"name": "ROL_ADMIN",
					"outputs": [
						{
							"internalType": "bytes32",
							"name": "",
							"type": "bytes32"
						}
					],
					"stateMutability": "view",
					"type": "function"
				},
				{
					"inputs": [],
					"name": "ROL_WRITER",
					"outputs": [
						{
							"internalType": "bytes32",
							"name": "",
							"type": "bytes32"
						}
					],
					"stateMutability": "view",
					"type": "function"
				},
				{
					"inputs": [
						{
							"internalType": "address",
							"name": "cuenta",
							"type": "address"
						}
					],
					"name": "agregarWriter",
					"outputs": [],
					"stateMutability": "nonpayable",
					"type": "function"
				},
				{
					"inputs": [
						{
							"internalType": "bytes32",
							"name": "role",
							"type": "bytes32"
						}
					],
					"name": "getRoleAdmin",
					"outputs": [
						{
							"internalType": "bytes32",
							"name": "",
							"type": "bytes32"
						}
					],
					"stateMutability": "view",
					"type": "function"
				},
				{
					"inputs": [
						{
							"internalType": "bytes32",
							"name": "role",
							"type": "bytes32"
						},
						{
							"internalType": "address",
							"name": "account",
							"type": "address"
						}
					],
					"name": "grantRole",
					"outputs": [],
					"stateMutability": "nonpayable",
					"type": "function"
				},
				{
					"inputs": [
						{
							"internalType": "bytes32",
							"name": "role",
							"type": "bytes32"
						},
						{
							"internalType": "address",
							"name": "account",
							"type": "address"
						}
					],
					"name": "hasRole",
					"outputs": [
						{
							"internalType": "bool",
							"name": "",
							"type": "bool"
						}
					],
					"stateMutability": "view",
					"type": "function"
				},
				{
					"inputs": [
						{
							"internalType": "address",
							"name": "cuenta",
							"type": "address"
						}
					],
					"name": "quitarWriter",
					"outputs": [],
					"stateMutability": "nonpayable",
					"type": "function"
				},
				{
					"inputs": [
						{
							"internalType": "bytes32",
							"name": "role",
							"type": "bytes32"
						},
						{
							"internalType": "address",
							"name": "account",
							"type": "address"
						}
					],
					"name": "renounceRole",
					"outputs": [],
					"stateMutability": "nonpayable",
					"type": "function"
				},
				{
					"inputs": [],
					"name": "retrieve",
					"outputs": [
						{
							"internalType": "uint256",
							"name": "",
							"type": "uint256"
						}
					],
					"stateMutability": "view",
					"type": "function"
				},
				{
					"inputs": [
						{
							"internalType": "bytes32",
							"name": "role",
							"type": "bytes32"
						},
						{
							"internalType": "address",
							"name": "account",
							"type": "address"
						}
					],
					"name": "revokeRole",
					"outputs": [],
					"stateMutability": "nonpayable",
					"type": "function"
				},
				{
					"inputs": [
						{
							"internalType": "uint256",
							"name": "num",
							"type": "uint256"
						}
					],
					"name": "store",
					"outputs": [],
					"stateMutability": "nonpayable",
					"type": "function"
				},
				{
					"inputs": [
						{
							"internalType": "bytes4",
							"name": "interfaceId",
							"type": "bytes4"
						}
					],
					"name": "supportsInterface",
					"outputs": [
						{
							"internalType": "bool",
							"name": "",
							"type": "bool"
						}
					],
					"stateMutability": "view",
					"type": "function"
				}
			],
			"devdoc": {
				"custom:dev-run-script": "./scripts/deploy_with_ethers.ts",
				"details": "Store & retrieve value in a variable",
				"kind": "dev",
				"methods": {
					"getRoleAdmin(bytes32)": {
						"details": "Returns the admin role that controls `role`. See {grantRole} and {revokeRole}. To change a role's admin, use {_setRoleAdmin}."
					},
					"grantRole(bytes32,address)": {
						"details": "Grants `role` to `account`. If `account` had not been already granted `role`, emits a {RoleGranted} event. Requirements: - the caller must have ``role``'s admin role. May emit a {RoleGranted} event."
					},
					"hasRole(bytes32,address)": {
						"details": "Returns `true` if `account` has been granted `role`."
					},
					"renounceRole(bytes32,address)": {
						"details": "Revokes `role` from the calling account. Roles are often managed via {grantRole} and {revokeRole}: this function's purpose is to provide a mechanism for accounts to lose their privileges if they are compromised (such as when a trusted device is misplaced). If the calling account had been revoked `role`, emits a {RoleRevoked} event. Requirements: - the caller must be `account`. May emit a {RoleRevoked} event."
					},
					"retrieve()": {
						"details": "Return value ",
						"returns": {
							"_0": "value of 'number'"
						}
					},
					"revokeRole(bytes32,address)": {
						"details": "Revokes `role` from `account`. If `account` had been granted `role`, emits a {RoleRevoked} event. Requirements: - the caller must have ``role``'s admin role. May emit a {RoleRevoked} event."
					},
					"store(uint256)": {
						"details": "Store value in variable",
						"params": {
							"num": "value to store"
						}
					},
					"supportsInterface(bytes4)": {
						"details": "See {IERC165-supportsInterface}."
					}
				},
				"title": "Storage",
				"version": 1
			},
			"evm": {
				"assembly": "    /* \"contracts/Openzeppelin/ControlAccesoReto.sol\":270:1450  contract ControlAccesoReto is AccessControl{\r... */\n  mstore(0x40, 0x80)\n  callvalue\n  dup1\n  iszero\n  tag_1\n  jumpi\n  0x00\n  dup1\n  revert\ntag_1:\n  pop\n  dataSize(sub_0)\n  dup1\n  dataOffset(sub_0)\n  0x00\n  codecopy\n  0x00\n  return\nstop\n\nsub_0: assembly {\n        /* \"contracts/Openzeppelin/ControlAccesoReto.sol\":270:1450  contract ControlAccesoReto is AccessControl{\r... */\n      mstore(0x40, 0x80)\n      callvalue\n      dup1\n      iszero\n      tag_1\n      jumpi\n      0x00\n      dup1\n      revert\n    tag_1:\n      pop\n      jumpi(tag_2, lt(calldatasize, 0x04))\n      shr(0xe0, calldataload(0x00))\n      dup1\n      0x45d49420\n      gt\n      tag_16\n      jumpi\n      dup1\n      0x91d14854\n      gt\n      tag_17\n      jumpi\n      dup1\n      0x91d14854\n      eq\n      tag_12\n      jumpi\n      dup1\n      0xa217fddf\n      eq\n      tag_13\n      jumpi\n      dup1\n      0xadec03fc\n      eq\n      tag_14\n      jumpi\n      dup1\n      0xd547741f\n      eq\n      tag_15\n      jumpi\n      jump(tag_2)\n    tag_17:\n      dup1\n      0x45d49420\n      eq\n      tag_9\n      jumpi\n      dup1\n      0x4c2e19d0\n      eq\n      tag_10\n      jumpi\n      dup1\n      0x6057361d\n      eq\n      tag_11\n      jumpi\n      jump(tag_2)\n    tag_16:\n      dup1\n      0x01ffc9a7\n      eq\n      tag_3\n      jumpi\n      dup1\n      0x235ef56f\n      eq\n      tag_4\n      jumpi\n      dup1\n      0x248a9ca3\n      eq\n      tag_5\n      jumpi\n      dup1\n      0x2e64cec1\n      eq\n      tag_6\n      jumpi\n      dup1\n      0x2f2ff15d\n      eq\n      tag_7\n      jumpi\n      dup1\n      0x36568abe\n      eq\n      tag_8\n      jumpi\n    tag_2:\n      0x00\n      dup1\n      revert\n        /* \"@openzeppelin/contracts/access/AccessControl.sol\":2606:2808  function supportsInterface(bytes4 interfaceId) public view virtual override returns (bool) {... */\n    tag_3:\n      tag_18\n      0x04\n      dup1\n      calldatasize\n      sub\n      dup2\n      add\n      swap1\n      tag_19\n      swap2\n      swap1\n      tag_20\n      jump\t// in\n    tag_19:\n      tag_21\n      jump\t// in\n    tag_18:\n      mload(0x40)\n      tag_22\n      swap2\n      swap1\n      tag_23\n      jump\t// in\n    tag_22:\n      mload(0x40)\n      dup1\n      swap2\n      sub\n      swap1\n      return\n        /* \"contracts/Openzeppelin/ControlAccesoReto.sol\":885:991  function agregarWriter (address cuenta) public isAdmin {\r... */\n    tag_4:\n      tag_24\n      0x04\n      dup1\n      calldatasize\n      sub\n      dup2\n      add\n      swap1\n      tag_25\n      swap2\n      swap1\n      tag_26\n      jump\t// in\n    tag_25:\n      tag_27\n      jump\t// in\n    tag_24:\n      stop\n        /* \"@openzeppelin/contracts/access/AccessControl.sol\":4391:4520  function getRoleAdmin(bytes32 role) public view virtual override returns (bytes32) {... */\n    tag_5:\n      tag_28\n      0x04\n      dup1\n      calldatasize\n      sub\n      dup2\n      add\n      swap1\n      tag_29\n      swap2\n      swap1\n      tag_30\n      jump\t// in\n    tag_29:\n      tag_31\n      jump\t// in\n    tag_28:\n      mload(0x40)\n      tag_32\n      swap2\n      swap1\n      tag_33\n      jump\t// in\n    tag_32:\n      mload(0x40)\n      dup1\n      swap2\n      sub\n      swap1\n      return\n        /* \"contracts/Openzeppelin/ControlAccesoReto.sol\":1366:1447  function retrieve() public view returns (uint256){\r... */\n    tag_6:\n      tag_34\n      tag_35\n      jump\t// in\n    tag_34:\n      mload(0x40)\n      tag_36\n      swap2\n      swap1\n      tag_37\n      jump\t// in\n    tag_36:\n      mload(0x40)\n      dup1\n      swap2\n      sub\n      swap1\n      return\n        /* \"@openzeppelin/contracts/access/AccessControl.sol\":4816:4961  function grantRole(bytes32 role, address account) public virtual override onlyRole(getRoleAdmin(role)) {... */\n    tag_7:\n      tag_38\n      0x04\n      dup1\n      calldatasize\n      sub\n      dup2\n      add\n      swap1\n      tag_39\n      swap2\n      swap1\n      tag_40\n      jump\t// in\n    tag_39:\n      tag_41\n      jump\t// in\n    tag_38:\n      stop\n        /* \"@openzeppelin/contracts/access/AccessControl.sol\":5925:6139  function renounceRole(bytes32 role, address account) public virtual override {... */\n    tag_8:\n      tag_42\n      0x04\n      dup1\n      calldatasize\n      sub\n      dup2\n      add\n      swap1\n      tag_43\n      swap2\n      swap1\n      tag_40\n      jump\t// in\n    tag_43:\n      tag_44\n      jump\t// in\n    tag_42:\n      stop\n        /* \"contracts/Openzeppelin/ControlAccesoReto.sol\":452:512  bytes32 public constant ROL_WRITER = keccak256(\"ROL_WRITER\") */\n    tag_9:\n      tag_45\n      tag_46\n      jump\t// in\n    tag_45:\n      mload(0x40)\n      tag_47\n      swap2\n      swap1\n      tag_33\n      jump\t// in\n    tag_47:\n      mload(0x40)\n      dup1\n      swap2\n      sub\n      swap1\n      return\n        /* \"contracts/Openzeppelin/ControlAccesoReto.sol\":999:1103  function quitarWriter (address cuenta) public isAdmin {\r... */\n    tag_10:\n      tag_48\n      0x04\n      dup1\n      calldatasize\n      sub\n      dup2\n      add\n      swap1\n      tag_49\n      swap2\n      swap1\n      tag_26\n      jump\t// in\n    tag_49:\n      tag_50\n      jump\t// in\n    tag_48:\n      stop\n        /* \"contracts/Openzeppelin/ControlAccesoReto.sol\":1202:1277  function store(uint256 num) isWriter public {\r... */\n    tag_11:\n      tag_51\n      0x04\n      dup1\n      calldatasize\n      sub\n      dup2\n      add\n      swap1\n      tag_52\n      swap2\n      swap1\n      tag_53\n      jump\t// in\n    tag_52:\n      tag_54\n      jump\t// in\n    tag_51:\n      stop\n        /* \"@openzeppelin/contracts/access/AccessControl.sol\":2895:3040  function hasRole(bytes32 role, address account) public view virtual override returns (bool) {... */\n    tag_12:\n      tag_55\n      0x04\n      dup1\n      calldatasize\n      sub\n      dup2\n      add\n      swap1\n      tag_56\n      swap2\n      swap1\n      tag_40\n      jump\t// in\n    tag_56:\n      tag_57\n      jump\t// in\n    tag_55:\n      mload(0x40)\n      tag_58\n      swap2\n      swap1\n      tag_23\n      jump\t// in\n    tag_58:\n      mload(0x40)\n      dup1\n      swap2\n      sub\n      swap1\n      return\n        /* \"@openzeppelin/contracts/access/AccessControl.sol\":2027:2076  bytes32 public constant DEFAULT_ADMIN_ROLE = 0x00 */\n    tag_13:\n      tag_59\n      tag_60\n      jump\t// in\n    tag_59:\n      mload(0x40)\n      tag_61\n      swap2\n      swap1\n      tag_33\n      jump\t// in\n    tag_61:\n      mload(0x40)\n      dup1\n      swap2\n      sub\n      swap1\n      return\n        /* \"contracts/Openzeppelin/ControlAccesoReto.sol\":387:445  bytes32 public constant ROL_ADMIN = keccak256(\"ROL_ADMIN\") */\n    tag_14:\n      tag_62\n      tag_63\n      jump\t// in\n    tag_62:\n      mload(0x40)\n      tag_64\n      swap2\n      swap1\n      tag_33\n      jump\t// in\n    tag_64:\n      mload(0x40)\n      dup1\n      swap2\n      sub\n      swap1\n      return\n        /* \"@openzeppelin/contracts/access/AccessControl.sol\":5241:5388  function revokeRole(bytes32 role, address account) public virtual override onlyRole(getRoleAdmin(role)) {... */\n    tag_15:\n      tag_65\n      0x04\n      dup1\n      calldatasize\n      sub\n      dup2\n      add\n      swap1\n      tag_66\n      swap2\n      swap1\n      tag_40\n      jump\t// in\n    tag_66:\n      tag_67\n      jump\t// in\n    tag_65:\n      stop\n        /* \"@openzeppelin/contracts/access/AccessControl.sol\":2606:2808  function supportsInterface(bytes4 interfaceId) public view virtual override returns (bool) {... */\n    tag_21:\n        /* \"@openzeppelin/contracts/access/AccessControl.sol\":2691:2695  bool */\n      0x00\n        /* \"@openzeppelin/contracts/access/AccessControl.sol\":2729:2761  type(IAccessControl).interfaceId */\n      0x7965db0b00000000000000000000000000000000000000000000000000000000\n        /* \"@openzeppelin/contracts/access/AccessControl.sol\":2714:2761  interfaceId == type(IAccessControl).interfaceId */\n      not(0xffffffffffffffffffffffffffffffffffffffffffffffffffffffff)\n      and\n        /* \"@openzeppelin/contracts/access/AccessControl.sol\":2714:2725  interfaceId */\n      dup3\n        /* \"@openzeppelin/contracts/access/AccessControl.sol\":2714:2761  interfaceId == type(IAccessControl).interfaceId */\n      not(0xffffffffffffffffffffffffffffffffffffffffffffffffffffffff)\n      and\n      eq\n        /* \"@openzeppelin/contracts/access/AccessControl.sol\":2714:2801  interfaceId == type(IAccessControl).interfaceId || super.supportsInterface(interfaceId) */\n      dup1\n      tag_69\n      jumpi\n      pop\n        /* \"@openzeppelin/contracts/access/AccessControl.sol\":2765:2801  super.supportsInterface(interfaceId) */\n      tag_70\n        /* \"@openzeppelin/contracts/access/AccessControl.sol\":2789:2800  interfaceId */\n      dup3\n        /* \"@openzeppelin/contracts/access/AccessControl.sol\":2765:2788  super.supportsInterface */\n      tag_71\n        /* \"@openzeppelin/contracts/access/AccessControl.sol\":2765:2801  super.supportsInterface(interfaceId) */\n      jump\t// in\n    tag_70:\n        /* \"@openzeppelin/contracts/access/AccessControl.sol\":2714:2801  interfaceId == type(IAccessControl).interfaceId || super.supportsInterface(interfaceId) */\n    tag_69:\n        /* \"@openzeppelin/contracts/access/AccessControl.sol\":2707:2801  return interfaceId == type(IAccessControl).interfaceId || super.supportsInterface(interfaceId) */\n      swap1\n      pop\n        /* \"@openzeppelin/contracts/access/AccessControl.sol\":2606:2808  function supportsInterface(bytes4 interfaceId) public view virtual override returns (bool) {... */\n      swap2\n      swap1\n      pop\n      jump\t// out\n        /* \"contracts/Openzeppelin/ControlAccesoReto.sol\":885:991  function agregarWriter (address cuenta) public isAdmin {\r... */\n    tag_27:\n        /* \"contracts/Openzeppelin/ControlAccesoReto.sol\":732:762  hasRole(ROL_ADMIN, msg.sender) */\n      tag_73\n        /* \"contracts/Openzeppelin/ControlAccesoReto.sol\":423:445  keccak256(\"ROL_ADMIN\") */\n      0x7e5b835f8ef15bb117d49cb6d0658113bc08d41d8a6edf12d3d1feb5c5875330\n        /* \"contracts/Openzeppelin/ControlAccesoReto.sol\":751:761  msg.sender */\n      caller\n        /* \"contracts/Openzeppelin/ControlAccesoReto.sol\":732:739  hasRole */\n      tag_57\n        /* \"contracts/Openzeppelin/ControlAccesoReto.sol\":732:762  hasRole(ROL_ADMIN, msg.sender) */\n      jump\t// in\n    tag_73:\n        /* \"contracts/Openzeppelin/ControlAccesoReto.sol\":724:857  require(hasRole(ROL_ADMIN, msg.sender), \"El usuario no tiene el rol ADMIN para ejecutar la funcion de garantizar o revocar permisos\") */\n      tag_74\n      jumpi\n      mload(0x40)\n      0x08c379a000000000000000000000000000000000000000000000000000000000\n      dup2\n      mstore\n      0x04\n      add\n      tag_75\n      swap1\n      tag_76\n      jump\t// in\n    tag_75:\n      mload(0x40)\n      dup1\n      swap2\n      sub\n      swap1\n      revert\n    tag_74:\n        /* \"contracts/Openzeppelin/ControlAccesoReto.sol\":951:981  _grantRole(ROL_WRITER, cuenta) */\n      tag_78\n        /* \"contracts/Openzeppelin/ControlAccesoReto.sol\":489:512  keccak256(\"ROL_WRITER\") */\n      0x3bd382f411bca881c98196b18edce31a82cf3847dab18082dd90c13022f62dfb\n        /* \"contracts/Openzeppelin/ControlAccesoReto.sol\":974:980  cuenta */\n      dup3\n        /* \"contracts/Openzeppelin/ControlAccesoReto.sol\":951:961  _grantRole */\n      tag_79\n        /* \"contracts/Openzeppelin/ControlAccesoReto.sol\":951:981  _grantRole(ROL_WRITER, cuenta) */\n      jump\t// in\n    tag_78:\n        /* \"contracts/Openzeppelin/ControlAccesoReto.sol\":885:991  function agregarWriter (address cuenta) public isAdmin {\r... */\n      pop\n      jump\t// out\n        /* \"@openzeppelin/contracts/access/AccessControl.sol\":4391:4520  function getRoleAdmin(bytes32 role) public view virtual override returns (bytes32) {... */\n    tag_31:\n        /* \"@openzeppelin/contracts/access/AccessControl.sol\":4465:4472  bytes32 */\n      0x00\n        /* \"@openzeppelin/contracts/access/AccessControl.sol\":4491:4497  _roles */\n      dup1\n        /* \"@openzeppelin/contracts/access/AccessControl.sol\":4491:4503  _roles[role] */\n      0x00\n        /* \"@openzeppelin/contracts/access/AccessControl.sol\":4498:4502  role */\n      dup4\n        /* \"@openzeppelin/contracts/access/AccessControl.sol\":4491:4503  _roles[role] */\n      dup2\n      mstore\n      0x20\n      add\n      swap1\n      dup2\n      mstore\n      0x20\n      add\n      0x00\n      keccak256\n        /* \"@openzeppelin/contracts/access/AccessControl.sol\":4491:4513  _roles[role].adminRole */\n      0x01\n      add\n      sload\n        /* \"@openzeppelin/contracts/access/AccessControl.sol\":4484:4513  return _roles[role].adminRole */\n      swap1\n      pop\n        /* \"@openzeppelin/contracts/access/AccessControl.sol\":4391:4520  function getRoleAdmin(bytes32 role) public view virtual override returns (bytes32) {... */\n      swap2\n      swap1\n      pop\n      jump\t// out\n        /* \"contracts/Openzeppelin/ControlAccesoReto.sol\":1366:1447  function retrieve() public view returns (uint256){\r... */\n    tag_35:\n        /* \"contracts/Openzeppelin/ControlAccesoReto.sol\":1407:1414  uint256 */\n      0x00\n        /* \"contracts/Openzeppelin/ControlAccesoReto.sol\":1433:1439  number */\n      sload(0x01)\n        /* \"contracts/Openzeppelin/ControlAccesoReto.sol\":1426:1439  return number */\n      swap1\n      pop\n        /* \"contracts/Openzeppelin/ControlAccesoReto.sol\":1366:1447  function retrieve() public view returns (uint256){\r... */\n      swap1\n      jump\t// out\n        /* \"@openzeppelin/contracts/access/AccessControl.sol\":4816:4961  function grantRole(bytes32 role, address account) public virtual override onlyRole(getRoleAdmin(role)) {... */\n    tag_41:\n        /* \"@openzeppelin/contracts/access/AccessControl.sol\":4899:4917  getRoleAdmin(role) */\n      tag_82\n        /* \"@openzeppelin/contracts/access/AccessControl.sol\":4912:4916  role */\n      dup3\n        /* \"@openzeppelin/contracts/access/AccessControl.sol\":4899:4911  getRoleAdmin */\n      tag_31\n        /* \"@openzeppelin/contracts/access/AccessControl.sol\":4899:4917  getRoleAdmin(role) */\n      jump\t// in\n    tag_82:\n        /* \"@openzeppelin/contracts/access/AccessControl.sol\":2505:2521  _checkRole(role) */\n      tag_84\n        /* \"@openzeppelin/contracts/access/AccessControl.sol\":2516:2520  role */\n      dup2\n        /* \"@openzeppelin/contracts/access/AccessControl.sol\":2505:2515  _checkRole */\n      tag_85\n        /* \"@openzeppelin/contracts/access/AccessControl.sol\":2505:2521  _checkRole(role) */\n      jump\t// in\n    tag_84:\n        /* \"@openzeppelin/contracts/access/AccessControl.sol\":4929:4954  _grantRole(role, account) */\n      tag_87\n        /* \"@openzeppelin/contracts/access/AccessControl.sol\":4940:4944  role */\n      dup4\n        /* \"@openzeppelin/contracts/access/AccessControl.sol\":4946:4953  account */\n      dup4\n        /* \"@openzeppelin/contracts/access/AccessControl.sol\":4929:4939  _grantRole */\n      tag_79\n        /* \"@openzeppelin/contracts/access/AccessControl.sol\":4929:4954  _grantRole(role, account) */\n      jump\t// in\n    tag_87:\n        /* \"@openzeppelin/contracts/access/AccessControl.sol\":4816:4961  function grantRole(bytes32 role, address account) public virtual override onlyRole(getRoleAdmin(role)) {... */\n      pop\n      pop\n      pop\n      jump\t// out\n        /* \"@openzeppelin/contracts/access/AccessControl.sol\":5925:6139  function renounceRole(bytes32 role, address account) public virtual override {... */\n    tag_44:\n        /* \"@openzeppelin/contracts/access/AccessControl.sol\":6031:6043  _msgSender() */\n      tag_89\n        /* \"@openzeppelin/contracts/access/AccessControl.sol\":6031:6041  _msgSender */\n      tag_90\n        /* \"@openzeppelin/contracts/access/AccessControl.sol\":6031:6043  _msgSender() */\n      jump\t// in\n    tag_89:\n        /* \"@openzeppelin/contracts/access/AccessControl.sol\":6020:6043  account == _msgSender() */\n      0xffffffffffffffffffffffffffffffffffffffff\n      and\n        /* \"@openzeppelin/contracts/access/AccessControl.sol\":6020:6027  account */\n      dup2\n        /* \"@openzeppelin/contracts/access/AccessControl.sol\":6020:6043  account == _msgSender() */\n      0xffffffffffffffffffffffffffffffffffffffff\n      and\n      eq\n        /* \"@openzeppelin/contracts/access/AccessControl.sol\":6012:6095  require(account == _msgSender(), \"AccessControl: can only renounce roles for self\") */\n      tag_91\n      jumpi\n      mload(0x40)\n      0x08c379a000000000000000000000000000000000000000000000000000000000\n      dup2\n      mstore\n      0x04\n      add\n      tag_92\n      swap1\n      tag_93\n      jump\t// in\n    tag_92:\n      mload(0x40)\n      dup1\n      swap2\n      sub\n      swap1\n      revert\n    tag_91:\n        /* \"@openzeppelin/contracts/access/AccessControl.sol\":6106:6132  _revokeRole(role, account) */\n      tag_94\n        /* \"@openzeppelin/contracts/access/AccessControl.sol\":6118:6122  role */\n      dup3\n        /* \"@openzeppelin/contracts/access/AccessControl.sol\":6124:6131  account */\n      dup3\n        /* \"@openzeppelin/contracts/access/AccessControl.sol\":6106:6117  _revokeRole */\n      tag_95\n        /* \"@openzeppelin/contracts/access/AccessControl.sol\":6106:6132  _revokeRole(role, account) */\n      jump\t// in\n    tag_94:\n        /* \"@openzeppelin/contracts/access/AccessControl.sol\":5925:6139  function renounceRole(bytes32 role, address account) public virtual override {... */\n      pop\n      pop\n      jump\t// out\n        /* \"contracts/Openzeppelin/ControlAccesoReto.sol\":452:512  bytes32 public constant ROL_WRITER = keccak256(\"ROL_WRITER\") */\n    tag_46:\n        /* \"contracts/Openzeppelin/ControlAccesoReto.sol\":489:512  keccak256(\"ROL_WRITER\") */\n      0x3bd382f411bca881c98196b18edce31a82cf3847dab18082dd90c13022f62dfb\n        /* \"contracts/Openzeppelin/ControlAccesoReto.sol\":452:512  bytes32 public constant ROL_WRITER = keccak256(\"ROL_WRITER\") */\n      dup2\n      jump\t// out\n        /* \"contracts/Openzeppelin/ControlAccesoReto.sol\":999:1103  function quitarWriter (address cuenta) public isAdmin {\r... */\n    tag_50:\n        /* \"contracts/Openzeppelin/ControlAccesoReto.sol\":732:762  hasRole(ROL_ADMIN, msg.sender) */\n      tag_97\n        /* \"contracts/Openzeppelin/ControlAccesoReto.sol\":423:445  keccak256(\"ROL_ADMIN\") */\n      0x7e5b835f8ef15bb117d49cb6d0658113bc08d41d8a6edf12d3d1feb5c5875330\n        /* \"contracts/Openzeppelin/ControlAccesoReto.sol\":751:761  msg.sender */\n      caller\n        /* \"contracts/Openzeppelin/ControlAccesoReto.sol\":732:739  hasRole */\n      tag_57\n        /* \"contracts/Openzeppelin/ControlAccesoReto.sol\":732:762  hasRole(ROL_ADMIN, msg.sender) */\n      jump\t// in\n    tag_97:\n        /* \"contracts/Openzeppelin/ControlAccesoReto.sol\":724:857  require(hasRole(ROL_ADMIN, msg.sender), \"El usuario no tiene el rol ADMIN para ejecutar la funcion de garantizar o revocar permisos\") */\n      tag_98\n      jumpi\n      mload(0x40)\n      0x08c379a000000000000000000000000000000000000000000000000000000000\n      dup2\n      mstore\n      0x04\n      add\n      tag_99\n      swap1\n      tag_76\n      jump\t// in\n    tag_99:\n      mload(0x40)\n      dup1\n      swap2\n      sub\n      swap1\n      revert\n    tag_98:\n        /* \"contracts/Openzeppelin/ControlAccesoReto.sol\":1064:1095  _revokeRole(ROL_WRITER, cuenta) */\n      tag_101\n        /* \"contracts/Openzeppelin/ControlAccesoReto.sol\":489:512  keccak256(\"ROL_WRITER\") */\n      0x3bd382f411bca881c98196b18edce31a82cf3847dab18082dd90c13022f62dfb\n        /* \"contracts/Openzeppelin/ControlAccesoReto.sol\":1088:1094  cuenta */\n      dup3\n        /* \"contracts/Openzeppelin/ControlAccesoReto.sol\":1064:1075  _revokeRole */\n      tag_95\n        /* \"contracts/Openzeppelin/ControlAccesoReto.sol\":1064:1095  _revokeRole(ROL_WRITER, cuenta) */\n      jump\t// in\n    tag_101:\n        /* \"contracts/Openzeppelin/ControlAccesoReto.sol\":999:1103  function quitarWriter (address cuenta) public isAdmin {\r... */\n      pop\n      jump\t// out\n        /* \"contracts/Openzeppelin/ControlAccesoReto.sol\":1202:1277  function store(uint256 num) isWriter public {\r... */\n    tag_54:\n        /* \"contracts/Openzeppelin/ControlAccesoReto.sol\":563:594  hasRole(ROL_WRITER, msg.sender) */\n      tag_103\n        /* \"contracts/Openzeppelin/ControlAccesoReto.sol\":489:512  keccak256(\"ROL_WRITER\") */\n      0x3bd382f411bca881c98196b18edce31a82cf3847dab18082dd90c13022f62dfb\n        /* \"contracts/Openzeppelin/ControlAccesoReto.sol\":583:593  msg.sender */\n      caller\n        /* \"contracts/Openzeppelin/ControlAccesoReto.sol\":563:570  hasRole */\n      tag_57\n        /* \"contracts/Openzeppelin/ControlAccesoReto.sol\":563:594  hasRole(ROL_WRITER, msg.sender) */\n      jump\t// in\n    tag_103:\n        /* \"contracts/Openzeppelin/ControlAccesoReto.sol\":555:665  require(hasRole(ROL_WRITER, msg.sender), \"El usuario no tiene el rol WRITER para ejecutar la funcion Storage\") */\n      tag_104\n      jumpi\n      mload(0x40)\n      0x08c379a000000000000000000000000000000000000000000000000000000000\n      dup2\n      mstore\n      0x04\n      add\n      tag_105\n      swap1\n      tag_106\n      jump\t// in\n    tag_105:\n      mload(0x40)\n      dup1\n      swap2\n      sub\n      swap1\n      revert\n    tag_104:\n        /* \"contracts/Openzeppelin/ControlAccesoReto.sol\":1266:1269  num */\n      dup1\n        /* \"contracts/Openzeppelin/ControlAccesoReto.sol\":1257:1263  number */\n      0x01\n        /* \"contracts/Openzeppelin/ControlAccesoReto.sol\":1257:1269  number = num */\n      dup2\n      swap1\n      sstore\n      pop\n        /* \"contracts/Openzeppelin/ControlAccesoReto.sol\":1202:1277  function store(uint256 num) isWriter public {\r... */\n      pop\n      jump\t// out\n        /* \"@openzeppelin/contracts/access/AccessControl.sol\":2895:3040  function hasRole(bytes32 role, address account) public view virtual override returns (bool) {... */\n    tag_57:\n        /* \"@openzeppelin/contracts/access/AccessControl.sol\":2981:2985  bool */\n      0x00\n        /* \"@openzeppelin/contracts/access/AccessControl.sol\":3004:3010  _roles */\n      dup1\n        /* \"@openzeppelin/contracts/access/AccessControl.sol\":3004:3016  _roles[role] */\n      0x00\n        /* \"@openzeppelin/contracts/access/AccessControl.sol\":3011:3015  role */\n      dup5\n        /* \"@openzeppelin/contracts/access/AccessControl.sol\":3004:3016  _roles[role] */\n      dup2\n      mstore\n      0x20\n      add\n      swap1\n      dup2\n      mstore\n      0x20\n      add\n      0x00\n      keccak256\n        /* \"@openzeppelin/contracts/access/AccessControl.sol\":3004:3024  _roles[role].members */\n      0x00\n      add\n        /* \"@openzeppelin/contracts/access/AccessControl.sol\":3004:3033  _roles[role].members[account] */\n      0x00\n        /* \"@openzeppelin/contracts/access/AccessControl.sol\":3025:3032  account */\n      dup4\n        /* \"@openzeppelin/contracts/access/AccessControl.sol\":3004:3033  _roles[role].members[account] */\n      0xffffffffffffffffffffffffffffffffffffffff\n      and\n      0xffffffffffffffffffffffffffffffffffffffff\n      and\n      dup2\n      mstore\n      0x20\n      add\n      swap1\n      dup2\n      mstore\n      0x20\n      add\n      0x00\n      keccak256\n      0x00\n      swap1\n      sload\n      swap1\n      0x0100\n      exp\n      swap1\n      div\n      0xff\n      and\n        /* \"@openzeppelin/contracts/access/AccessControl.sol\":2997:3033  return _roles[role].members[account] */\n      swap1\n      pop\n        /* \"@openzeppelin/contracts/access/AccessControl.sol\":2895:3040  function hasRole(bytes32 role, address account) public view virtual override returns (bool) {... */\n      swap3\n      swap2\n      pop\n      pop\n      jump\t// out\n        /* \"@openzeppelin/contracts/access/AccessControl.sol\":2027:2076  bytes32 public constant DEFAULT_ADMIN_ROLE = 0x00 */\n    tag_60:\n        /* \"@openzeppelin/contracts/access/AccessControl.sol\":2072:2076  0x00 */\n      0x00\n        /* \"@openzeppelin/contracts/access/AccessControl.sol\":2027:2076  bytes32 public constant DEFAULT_ADMIN_ROLE = 0x00 */\n      dup1\n      shl\n      dup2\n      jump\t// out\n        /* \"contracts/Openzeppelin/ControlAccesoReto.sol\":387:445  bytes32 public constant ROL_ADMIN = keccak256(\"ROL_ADMIN\") */\n    tag_63:\n        /* \"contracts/Openzeppelin/ControlAccesoReto.sol\":423:445  keccak256(\"ROL_ADMIN\") */\n      0x7e5b835f8ef15bb117d49cb6d0658113bc08d41d8a6edf12d3d1feb5c5875330\n        /* \"contracts/Openzeppelin/ControlAccesoReto.sol\":387:445  bytes32 public constant ROL_ADMIN = keccak256(\"ROL_ADMIN\") */\n      dup2\n      jump\t// out\n        /* \"@openzeppelin/contracts/access/AccessControl.sol\":5241:5388  function revokeRole(bytes32 role, address account) public virtual override onlyRole(getRoleAdmin(role)) {... */\n    tag_67:\n        /* \"@openzeppelin/contracts/access/AccessControl.sol\":5325:5343  getRoleAdmin(role) */\n      tag_109\n        /* \"@openzeppelin/contracts/access/AccessControl.sol\":5338:5342  role */\n      dup3\n        /* \"@openzeppelin/contracts/access/AccessControl.sol\":5325:5337  getRoleAdmin */\n      tag_31\n        /* \"@openzeppelin/contracts/access/AccessControl.sol\":5325:5343  getRoleAdmin(role) */\n      jump\t// in\n    tag_109:\n        /* \"@openzeppelin/contracts/access/AccessControl.sol\":2505:2521  _checkRole(role) */\n      tag_111\n        /* \"@openzeppelin/contracts/access/AccessControl.sol\":2516:2520  role */\n      dup2\n        /* \"@openzeppelin/contracts/access/AccessControl.sol\":2505:2515  _checkRole */\n      tag_85\n        /* \"@openzeppelin/contracts/access/AccessControl.sol\":2505:2521  _checkRole(role) */\n      jump\t// in\n    tag_111:\n        /* \"@openzeppelin/contracts/access/AccessControl.sol\":5355:5381  _revokeRole(role, account) */\n      tag_113\n        /* \"@openzeppelin/contracts/access/AccessControl.sol\":5367:5371  role */\n      dup4\n        /* \"@openzeppelin/contracts/access/AccessControl.sol\":5373:5380  account */\n      dup4\n        /* \"@openzeppelin/contracts/access/AccessControl.sol\":5355:5366  _revokeRole */\n      tag_95\n        /* \"@openzeppelin/contracts/access/AccessControl.sol\":5355:5381  _revokeRole(role, account) */\n      jump\t// in\n    tag_113:\n        /* \"@openzeppelin/contracts/access/AccessControl.sol\":5241:5388  function revokeRole(bytes32 role, address account) public virtual override onlyRole(getRoleAdmin(role)) {... */\n      pop\n      pop\n      pop\n      jump\t// out\n        /* \"@openzeppelin/contracts/utils/introspection/ERC165.sol\":829:984  function supportsInterface(bytes4 interfaceId) public view virtual override returns (bool) {... */\n    tag_71:\n        /* \"@openzeppelin/contracts/utils/introspection/ERC165.sol\":914:918  bool */\n      0x00\n        /* \"@openzeppelin/contracts/utils/introspection/ERC165.sol\":952:977  type(IERC165).interfaceId */\n      0x01ffc9a700000000000000000000000000000000000000000000000000000000\n        /* \"@openzeppelin/contracts/utils/introspection/ERC165.sol\":937:977  interfaceId == type(IERC165).interfaceId */\n      not(0xffffffffffffffffffffffffffffffffffffffffffffffffffffffff)\n      and\n        /* \"@openzeppelin/contracts/utils/introspection/ERC165.sol\":937:948  interfaceId */\n      dup3\n        /* \"@openzeppelin/contracts/utils/introspection/ERC165.sol\":937:977  interfaceId == type(IERC165).interfaceId */\n      not(0xffffffffffffffffffffffffffffffffffffffffffffffffffffffff)\n      and\n      eq\n        /* \"@openzeppelin/contracts/utils/introspection/ERC165.sol\":930:977  return interfaceId == type(IERC165).interfaceId */\n      swap1\n      pop\n        /* \"@openzeppelin/contracts/utils/introspection/ERC165.sol\":829:984  function supportsInterface(bytes4 interfaceId) public view virtual override returns (bool) {... */\n      swap2\n      swap1\n      pop\n      jump\t// out\n        /* \"@openzeppelin/contracts/access/AccessControl.sol\":7474:7707  function _grantRole(bytes32 role, address account) internal virtual {... */\n    tag_79:\n        /* \"@openzeppelin/contracts/access/AccessControl.sol\":7557:7579  hasRole(role, account) */\n      tag_116\n        /* \"@openzeppelin/contracts/access/AccessControl.sol\":7565:7569  role */\n      dup3\n        /* \"@openzeppelin/contracts/access/AccessControl.sol\":7571:7578  account */\n      dup3\n        /* \"@openzeppelin/contracts/access/AccessControl.sol\":7557:7564  hasRole */\n      tag_57\n        /* \"@openzeppelin/contracts/access/AccessControl.sol\":7557:7579  hasRole(role, account) */\n      jump\t// in\n    tag_116:\n        /* \"@openzeppelin/contracts/access/AccessControl.sol\":7552:7701  if (!hasRole(role, account)) {... */\n      tag_117\n      jumpi\n        /* \"@openzeppelin/contracts/access/AccessControl.sol\":7627:7631  true */\n      0x01\n        /* \"@openzeppelin/contracts/access/AccessControl.sol\":7595:7601  _roles */\n      0x00\n        /* \"@openzeppelin/contracts/access/AccessControl.sol\":7595:7607  _roles[role] */\n      dup1\n        /* \"@openzeppelin/contracts/access/AccessControl.sol\":7602:7606  role */\n      dup5\n        /* \"@openzeppelin/contracts/access/AccessControl.sol\":7595:7607  _roles[role] */\n      dup2\n      mstore\n      0x20\n      add\n      swap1\n      dup2\n      mstore\n      0x20\n      add\n      0x00\n      keccak256\n        /* \"@openzeppelin/contracts/access/AccessControl.sol\":7595:7615  _roles[role].members */\n      0x00\n      add\n        /* \"@openzeppelin/contracts/access/AccessControl.sol\":7595:7624  _roles[role].members[account] */\n      0x00\n        /* \"@openzeppelin/contracts/access/AccessControl.sol\":7616:7623  account */\n      dup4\n        /* \"@openzeppelin/contracts/access/AccessControl.sol\":7595:7624  _roles[role].members[account] */\n      0xffffffffffffffffffffffffffffffffffffffff\n      and\n      0xffffffffffffffffffffffffffffffffffffffff\n      and\n      dup2\n      mstore\n      0x20\n      add\n      swap1\n      dup2\n      mstore\n      0x20\n      add\n      0x00\n      keccak256\n      0x00\n        /* \"@openzeppelin/contracts/access/AccessControl.sol\":7595:7631  _roles[role].members[account] = true */\n      0x0100\n      exp\n      dup2\n      sload\n      dup2\n      0xff\n      mul\n      not\n      and\n      swap1\n      dup4\n      iszero\n      iszero\n      mul\n      or\n      swap1\n      sstore\n      pop\n        /* \"@openzeppelin/contracts/access/AccessControl.sol\":7677:7689  _msgSender() */\n      tag_118\n        /* \"@openzeppelin/contracts/access/AccessControl.sol\":7677:7687  _msgSender */\n      tag_90\n        /* \"@openzeppelin/contracts/access/AccessControl.sol\":7677:7689  _msgSender() */\n      jump\t// in\n    tag_118:\n        /* \"@openzeppelin/contracts/access/AccessControl.sol\":7650:7690  RoleGranted(role, account, _msgSender()) */\n      0xffffffffffffffffffffffffffffffffffffffff\n      and\n        /* \"@openzeppelin/contracts/access/AccessControl.sol\":7668:7675  account */\n      dup2\n        /* \"@openzeppelin/contracts/access/AccessControl.sol\":7650:7690  RoleGranted(role, account, _msgSender()) */\n      0xffffffffffffffffffffffffffffffffffffffff\n      and\n        /* \"@openzeppelin/contracts/access/AccessControl.sol\":7662:7666  role */\n      dup4\n        /* \"@openzeppelin/contracts/access/AccessControl.sol\":7650:7690  RoleGranted(role, account, _msgSender()) */\n      0x2f8788117e7eff1d82e926ec794901d17c78024a50270940304540a733656f0d\n      mload(0x40)\n      mload(0x40)\n      dup1\n      swap2\n      sub\n      swap1\n      log4\n        /* \"@openzeppelin/contracts/access/AccessControl.sol\":7552:7701  if (!hasRole(role, account)) {... */\n    tag_117:\n        /* \"@openzeppelin/contracts/access/AccessControl.sol\":7474:7707  function _grantRole(bytes32 role, address account) internal virtual {... */\n      pop\n      pop\n      jump\t// out\n        /* \"@openzeppelin/contracts/access/AccessControl.sol\":3334:3437  function _checkRole(bytes32 role) internal view virtual {... */\n    tag_85:\n        /* \"@openzeppelin/contracts/access/AccessControl.sol\":3400:3430  _checkRole(role, _msgSender()) */\n      tag_120\n        /* \"@openzeppelin/contracts/access/AccessControl.sol\":3411:3415  role */\n      dup2\n        /* \"@openzeppelin/contracts/access/AccessControl.sol\":3417:3429  _msgSender() */\n      tag_121\n        /* \"@openzeppelin/contracts/access/AccessControl.sol\":3417:3427  _msgSender */\n      tag_90\n        /* \"@openzeppelin/contracts/access/AccessControl.sol\":3417:3429  _msgSender() */\n      jump\t// in\n    tag_121:\n        /* \"@openzeppelin/contracts/access/AccessControl.sol\":3400:3410  _checkRole */\n      tag_122\n        /* \"@openzeppelin/contracts/access/AccessControl.sol\":3400:3430  _checkRole(role, _msgSender()) */\n      jump\t// in\n    tag_120:\n        /* \"@openzeppelin/contracts/access/AccessControl.sol\":3334:3437  function _checkRole(bytes32 role) internal view virtual {... */\n      pop\n      jump\t// out\n        /* \"@openzeppelin/contracts/utils/Context.sol\":640:736  function _msgSender() internal view virtual returns (address) {... */\n    tag_90:\n        /* \"@openzeppelin/contracts/utils/Context.sol\":693:700  address */\n      0x00\n        /* \"@openzeppelin/contracts/utils/Context.sol\":719:729  msg.sender */\n      caller\n        /* \"@openzeppelin/contracts/utils/Context.sol\":712:729  return msg.sender */\n      swap1\n      pop\n        /* \"@openzeppelin/contracts/utils/Context.sol\":640:736  function _msgSender() internal view virtual returns (address) {... */\n      swap1\n      jump\t// out\n        /* \"@openzeppelin/contracts/access/AccessControl.sol\":7878:8112  function _revokeRole(bytes32 role, address account) internal virtual {... */\n    tag_95:\n        /* \"@openzeppelin/contracts/access/AccessControl.sol\":7961:7983  hasRole(role, account) */\n      tag_125\n        /* \"@openzeppelin/contracts/access/AccessControl.sol\":7969:7973  role */\n      dup3\n        /* \"@openzeppelin/contracts/access/AccessControl.sol\":7975:7982  account */\n      dup3\n        /* \"@openzeppelin/contracts/access/AccessControl.sol\":7961:7968  hasRole */\n      tag_57\n        /* \"@openzeppelin/contracts/access/AccessControl.sol\":7961:7983  hasRole(role, account) */\n      jump\t// in\n    tag_125:\n        /* \"@openzeppelin/contracts/access/AccessControl.sol\":7957:8106  if (hasRole(role, account)) {... */\n      iszero\n      tag_126\n      jumpi\n        /* \"@openzeppelin/contracts/access/AccessControl.sol\":8031:8036  false */\n      0x00\n        /* \"@openzeppelin/contracts/access/AccessControl.sol\":7999:8005  _roles */\n      dup1\n        /* \"@openzeppelin/contracts/access/AccessControl.sol\":7999:8011  _roles[role] */\n      0x00\n        /* \"@openzeppelin/contracts/access/AccessControl.sol\":8006:8010  role */\n      dup5\n        /* \"@openzeppelin/contracts/access/AccessControl.sol\":7999:8011  _roles[role] */\n      dup2\n      mstore\n      0x20\n      add\n      swap1\n      dup2\n      mstore\n      0x20\n      add\n      0x00\n      keccak256\n        /* \"@openzeppelin/contracts/access/AccessControl.sol\":7999:8019  _roles[role].members */\n      0x00\n      add\n        /* \"@openzeppelin/contracts/access/AccessControl.sol\":7999:8028  _roles[role].members[account] */\n      0x00\n        /* \"@openzeppelin/contracts/access/AccessControl.sol\":8020:8027  account */\n      dup4\n        /* \"@openzeppelin/contracts/access/AccessControl.sol\":7999:8028  _roles[role].members[account] */\n      0xffffffffffffffffffffffffffffffffffffffff\n      and\n      0xffffffffffffffffffffffffffffffffffffffff\n      and\n      dup2\n      mstore\n      0x20\n      add\n      swap1\n      dup2\n      mstore\n      0x20\n      add\n      0x00\n      keccak256\n      0x00\n        /* \"@openzeppelin/contracts/access/AccessControl.sol\":7999:8036  _roles[role].members[account] = false */\n      0x0100\n      exp\n      dup2\n      sload\n      dup2\n      0xff\n      mul\n      not\n      and\n      swap1\n      dup4\n      iszero\n      iszero\n      mul\n      or\n      swap1\n      sstore\n      pop\n        /* \"@openzeppelin/contracts/access/AccessControl.sol\":8082:8094  _msgSender() */\n      tag_127\n        /* \"@openzeppelin/contracts/access/AccessControl.sol\":8082:8092  _msgSender */\n      tag_90\n        /* \"@openzeppelin/contracts/access/AccessControl.sol\":8082:8094  _msgSender() */\n      jump\t// in\n    tag_127:\n        /* \"@openzeppelin/contracts/access/AccessControl.sol\":8055:8095  RoleRevoked(role, account, _msgSender()) */\n      0xffffffffffffffffffffffffffffffffffffffff\n      and\n        /* \"@openzeppelin/contracts/access/AccessControl.sol\":8073:8080  account */\n      dup2\n        /* \"@openzeppelin/contracts/access/AccessControl.sol\":8055:8095  RoleRevoked(role, account, _msgSender()) */\n      0xffffffffffffffffffffffffffffffffffffffff\n      and\n        /* \"@openzeppelin/contracts/access/AccessControl.sol\":8067:8071  role */\n      dup4\n        /* \"@openzeppelin/contracts/access/AccessControl.sol\":8055:8095  RoleRevoked(role, account, _msgSender()) */\n      0xf6391f5c32d9c69d2a47ea670b442974b53935d1edc7fd64eb21e047a839171b\n      mload(0x40)\n      mload(0x40)\n      dup1\n      swap2\n      sub\n      swap1\n      log4\n        /* \"@openzeppelin/contracts/access/AccessControl.sol\":7957:8106  if (hasRole(role, account)) {... */\n    tag_126:\n        /* \"@openzeppelin/contracts/access/AccessControl.sol\":7878:8112  function _revokeRole(bytes32 role, address account) internal virtual {... */\n      pop\n      pop\n      jump\t// out\n        /* \"@openzeppelin/contracts/access/AccessControl.sol\":3718:4210  function _checkRole(bytes32 role, address account) internal view virtual {... */\n    tag_122:\n        /* \"@openzeppelin/contracts/access/AccessControl.sol\":3806:3828  hasRole(role, account) */\n      tag_129\n        /* \"@openzeppelin/contracts/access/AccessControl.sol\":3814:3818  role */\n      dup3\n        /* \"@openzeppelin/contracts/access/AccessControl.sol\":3820:3827  account */\n      dup3\n        /* \"@openzeppelin/contracts/access/AccessControl.sol\":3806:3813  hasRole */\n      tag_57\n        /* \"@openzeppelin/contracts/access/AccessControl.sol\":3806:3828  hasRole(role, account) */\n      jump\t// in\n    tag_129:\n        /* \"@openzeppelin/contracts/access/AccessControl.sol\":3801:4204  if (!hasRole(role, account)) {... */\n      tag_130\n      jumpi\n        /* \"@openzeppelin/contracts/access/AccessControl.sol\":3989:4030  Strings.toHexString(uint160(account), 20) */\n      tag_131\n        /* \"@openzeppelin/contracts/access/AccessControl.sol\":4017:4024  account */\n      dup2\n        /* \"@openzeppelin/contracts/access/AccessControl.sol\":3989:4030  Strings.toHexString(uint160(account), 20) */\n      0xffffffffffffffffffffffffffffffffffffffff\n      and\n        /* \"@openzeppelin/contracts/access/AccessControl.sol\":4027:4029  20 */\n      0x14\n        /* \"@openzeppelin/contracts/access/AccessControl.sol\":3989:4008  Strings.toHexString */\n      tag_132\n        /* \"@openzeppelin/contracts/access/AccessControl.sol\":3989:4030  Strings.toHexString(uint160(account), 20) */\n      jump\t// in\n    tag_131:\n        /* \"@openzeppelin/contracts/access/AccessControl.sol\":4101:4139  Strings.toHexString(uint256(role), 32) */\n      tag_133\n        /* \"@openzeppelin/contracts/access/AccessControl.sol\":4129:4133  role */\n      dup4\n        /* \"@openzeppelin/contracts/access/AccessControl.sol\":4121:4134  uint256(role) */\n      0x00\n      shr\n        /* \"@openzeppelin/contracts/access/AccessControl.sol\":4136:4138  32 */\n      0x20\n        /* \"@openzeppelin/contracts/access/AccessControl.sol\":4101:4120  Strings.toHexString */\n      tag_132\n        /* \"@openzeppelin/contracts/access/AccessControl.sol\":4101:4139  Strings.toHexString(uint256(role), 32) */\n      jump\t// in\n    tag_133:\n        /* \"@openzeppelin/contracts/access/AccessControl.sol\":3896:4161  abi.encodePacked(... */\n      add(0x20, mload(0x40))\n      tag_134\n      swap3\n      swap2\n      swap1\n      tag_135\n      jump\t// in\n    tag_134:\n      mload(0x40)\n      0x20\n      dup2\n      dup4\n      sub\n      sub\n      dup2\n      mstore\n      swap1\n      0x40\n      mstore\n        /* \"@openzeppelin/contracts/access/AccessControl.sol\":3844:4193  revert(... */\n      mload(0x40)\n      0x08c379a000000000000000000000000000000000000000000000000000000000\n      dup2\n      mstore\n      0x04\n      add\n      tag_136\n      swap2\n      swap1\n      tag_137\n      jump\t// in\n    tag_136:\n      mload(0x40)\n      dup1\n      swap2\n      sub\n      swap1\n      revert\n        /* \"@openzeppelin/contracts/access/AccessControl.sol\":3801:4204  if (!hasRole(role, account)) {... */\n    tag_130:\n        /* \"@openzeppelin/contracts/access/AccessControl.sol\":3718:4210  function _checkRole(bytes32 role, address account) internal view virtual {... */\n      pop\n      pop\n      jump\t// out\n        /* \"@openzeppelin/contracts/utils/Strings.sol\":1652:2093  function toHexString(uint256 value, uint256 length) internal pure returns (string memory) {... */\n    tag_132:\n        /* \"@openzeppelin/contracts/utils/Strings.sol\":1727:1740  string memory */\n      0x60\n        /* \"@openzeppelin/contracts/utils/Strings.sol\":1752:1771  bytes memory buffer */\n      0x00\n        /* \"@openzeppelin/contracts/utils/Strings.sol\":1797:1798  2 */\n      0x02\n        /* \"@openzeppelin/contracts/utils/Strings.sol\":1788:1794  length */\n      dup4\n        /* \"@openzeppelin/contracts/utils/Strings.sol\":1784:1785  2 */\n      0x02\n        /* \"@openzeppelin/contracts/utils/Strings.sol\":1784:1794  2 * length */\n      tag_139\n      swap2\n      swap1\n      tag_140\n      jump\t// in\n    tag_139:\n        /* \"@openzeppelin/contracts/utils/Strings.sol\":1784:1798  2 * length + 2 */\n      tag_141\n      swap2\n      swap1\n      tag_142\n      jump\t// in\n    tag_141:\n        /* \"@openzeppelin/contracts/utils/Strings.sol\":1774:1799  new bytes(2 * length + 2) */\n      0xffffffffffffffff\n      dup2\n      gt\n      iszero\n      tag_143\n      jumpi\n      tag_144\n      tag_145\n      jump\t// in\n    tag_144:\n    tag_143:\n      mload(0x40)\n      swap1\n      dup1\n      dup3\n      mstore\n      dup1\n      0x1f\n      add\n      not(0x1f)\n      and\n      0x20\n      add\n      dup3\n      add\n      0x40\n      mstore\n      dup1\n      iszero\n      tag_146\n      jumpi\n      dup2\n      0x20\n      add\n      0x01\n      dup3\n      mul\n      dup1\n      calldatasize\n      dup4\n      calldatacopy\n      dup1\n      dup3\n      add\n      swap2\n      pop\n      pop\n      swap1\n      pop\n    tag_146:\n      pop\n        /* \"@openzeppelin/contracts/utils/Strings.sol\":1752:1799  bytes memory buffer = new bytes(2 * length + 2) */\n      swap1\n      pop\n        /* \"@openzeppelin/contracts/utils/Strings.sol\":1809:1824  buffer[0] = \"0\" */\n      0x3000000000000000000000000000000000000000000000000000000000000000\n        /* \"@openzeppelin/contracts/utils/Strings.sol\":1809:1815  buffer */\n      dup2\n        /* \"@openzeppelin/contracts/utils/Strings.sol\":1816:1817  0 */\n      0x00\n        /* \"@openzeppelin/contracts/utils/Strings.sol\":1809:1818  buffer[0] */\n      dup2\n      mload\n      dup2\n      lt\n      tag_147\n      jumpi\n      tag_148\n      tag_149\n      jump\t// in\n    tag_148:\n    tag_147:\n      0x20\n      add\n      add\n        /* \"@openzeppelin/contracts/utils/Strings.sol\":1809:1824  buffer[0] = \"0\" */\n      swap1\n      not(0xffffffffffffffffffffffffffffffffffffffffffffffffffffffffffffff)\n      and\n      swap1\n      dup2\n      0x00\n      byte\n      swap1\n      mstore8\n      pop\n        /* \"@openzeppelin/contracts/utils/Strings.sol\":1834:1849  buffer[1] = \"x\" */\n      0x7800000000000000000000000000000000000000000000000000000000000000\n        /* \"@openzeppelin/contracts/utils/Strings.sol\":1834:1840  buffer */\n      dup2\n        /* \"@openzeppelin/contracts/utils/Strings.sol\":1841:1842  1 */\n      0x01\n        /* \"@openzeppelin/contracts/utils/Strings.sol\":1834:1843  buffer[1] */\n      dup2\n      mload\n      dup2\n      lt\n      tag_150\n      jumpi\n      tag_151\n      tag_149\n      jump\t// in\n    tag_151:\n    tag_150:\n      0x20\n      add\n      add\n        /* \"@openzeppelin/contracts/utils/Strings.sol\":1834:1849  buffer[1] = \"x\" */\n      swap1\n      not(0xffffffffffffffffffffffffffffffffffffffffffffffffffffffffffffff)\n      and\n      swap1\n      dup2\n      0x00\n      byte\n      swap1\n      mstore8\n      pop\n        /* \"@openzeppelin/contracts/utils/Strings.sol\":1864:1873  uint256 i */\n      0x00\n        /* \"@openzeppelin/contracts/utils/Strings.sol\":1889:1890  1 */\n      0x01\n        /* \"@openzeppelin/contracts/utils/Strings.sol\":1880:1886  length */\n      dup5\n        /* \"@openzeppelin/contracts/utils/Strings.sol\":1876:1877  2 */\n      0x02\n        /* \"@openzeppelin/contracts/utils/Strings.sol\":1876:1886  2 * length */\n      tag_155\n      swap2\n      swap1\n      tag_140\n      jump\t// in\n    tag_155:\n        /* \"@openzeppelin/contracts/utils/Strings.sol\":1876:1890  2 * length + 1 */\n      tag_156\n      swap2\n      swap1\n      tag_142\n      jump\t// in\n    tag_156:\n        /* \"@openzeppelin/contracts/utils/Strings.sol\":1864:1890  uint256 i = 2 * length + 1 */\n      swap1\n      pop\n        /* \"@openzeppelin/contracts/utils/Strings.sol\":1859:1991  for (uint256 i = 2 * length + 1; i > 1; --i) {... */\n    tag_152:\n        /* \"@openzeppelin/contracts/utils/Strings.sol\":1896:1897  1 */\n      0x01\n        /* \"@openzeppelin/contracts/utils/Strings.sol\":1892:1893  i */\n      dup2\n        /* \"@openzeppelin/contracts/utils/Strings.sol\":1892:1897  i > 1 */\n      gt\n        /* \"@openzeppelin/contracts/utils/Strings.sol\":1859:1991  for (uint256 i = 2 * length + 1; i > 1; --i) {... */\n      iszero\n      tag_153\n      jumpi\n        /* \"@openzeppelin/contracts/utils/Strings.sol\":1930:1942  _HEX_SYMBOLS */\n      0x3031323334353637383961626364656600000000000000000000000000000000\n        /* \"@openzeppelin/contracts/utils/Strings.sol\":1951:1954  0xf */\n      0x0f\n        /* \"@openzeppelin/contracts/utils/Strings.sol\":1943:1948  value */\n      dup7\n        /* \"@openzeppelin/contracts/utils/Strings.sol\":1943:1954  value & 0xf */\n      and\n        /* \"@openzeppelin/contracts/utils/Strings.sol\":1930:1955  _HEX_SYMBOLS[value & 0xf] */\n      0x10\n      dup2\n      lt\n      tag_157\n      jumpi\n      tag_158\n      tag_149\n      jump\t// in\n    tag_158:\n    tag_157:\n      byte\n      0xf8\n      shl\n        /* \"@openzeppelin/contracts/utils/Strings.sol\":1918:1924  buffer */\n      dup3\n        /* \"@openzeppelin/contracts/utils/Strings.sol\":1925:1926  i */\n      dup3\n        /* \"@openzeppelin/contracts/utils/Strings.sol\":1918:1927  buffer[i] */\n      dup2\n      mload\n      dup2\n      lt\n      tag_159\n      jumpi\n      tag_160\n      tag_149\n      jump\t// in\n    tag_160:\n    tag_159:\n      0x20\n      add\n      add\n        /* \"@openzeppelin/contracts/utils/Strings.sol\":1918:1955  buffer[i] = _HEX_SYMBOLS[value & 0xf] */\n      swap1\n      not(0xffffffffffffffffffffffffffffffffffffffffffffffffffffffffffffff)\n      and\n      swap1\n      dup2\n      0x00\n      byte\n      swap1\n      mstore8\n      pop\n        /* \"@openzeppelin/contracts/utils/Strings.sol\":1979:1980  4 */\n      0x04\n        /* \"@openzeppelin/contracts/utils/Strings.sol\":1969:1980  value >>= 4 */\n      dup6\n      swap1\n      shr\n      swap5\n      pop\n        /* \"@openzeppelin/contracts/utils/Strings.sol\":1899:1902  --i */\n      dup1\n      tag_161\n      swap1\n      tag_162\n      jump\t// in\n    tag_161:\n      swap1\n      pop\n        /* \"@openzeppelin/contracts/utils/Strings.sol\":1859:1991  for (uint256 i = 2 * length + 1; i > 1; --i) {... */\n      jump(tag_152)\n    tag_153:\n      pop\n        /* \"@openzeppelin/contracts/utils/Strings.sol\":2017:2018  0 */\n      0x00\n        /* \"@openzeppelin/contracts/utils/Strings.sol\":2008:2013  value */\n      dup5\n        /* \"@openzeppelin/contracts/utils/Strings.sol\":2008:2018  value == 0 */\n      eq\n        /* \"@openzeppelin/contracts/utils/Strings.sol\":2000:2055  require(value == 0, \"Strings: hex length insufficient\") */\n      tag_163\n      jumpi\n      mload(0x40)\n      0x08c379a000000000000000000000000000000000000000000000000000000000\n      dup2\n      mstore\n      0x04\n      add\n      tag_164\n      swap1\n      tag_165\n      jump\t// in\n    tag_164:\n      mload(0x40)\n      dup1\n      swap2\n      sub\n      swap1\n      revert\n    tag_163:\n        /* \"@openzeppelin/contracts/utils/Strings.sol\":2079:2085  buffer */\n      dup1\n        /* \"@openzeppelin/contracts/utils/Strings.sol\":2065:2086  return string(buffer) */\n      swap2\n      pop\n      pop\n        /* \"@openzeppelin/contracts/utils/Strings.sol\":1652:2093  function toHexString(uint256 value, uint256 length) internal pure returns (string memory) {... */\n      swap3\n      swap2\n      pop\n      pop\n      jump\t// out\n        /* \"#utility.yul\":7:146   */\n    tag_167:\n        /* \"#utility.yul\":53:58   */\n      0x00\n        /* \"#utility.yul\":91:97   */\n      dup2\n        /* \"#utility.yul\":78:98   */\n      calldataload\n        /* \"#utility.yul\":69:98   */\n      swap1\n      pop\n        /* \"#utility.yul\":107:140   */\n      tag_169\n        /* \"#utility.yul\":134:139   */\n      dup2\n        /* \"#utility.yul\":107:140   */\n      tag_170\n      jump\t// in\n    tag_169:\n        /* \"#utility.yul\":7:146   */\n      swap3\n      swap2\n      pop\n      pop\n      jump\t// out\n        /* \"#utility.yul\":152:291   */\n    tag_171:\n        /* \"#utility.yul\":198:203   */\n      0x00\n        /* \"#utility.yul\":236:242   */\n      dup2\n        /* \"#utility.yul\":223:243   */\n      calldataload\n        /* \"#utility.yul\":214:243   */\n      swap1\n      pop\n        /* \"#utility.yul\":252:285   */\n      tag_173\n        /* \"#utility.yul\":279:284   */\n      dup2\n        /* \"#utility.yul\":252:285   */\n      tag_174\n      jump\t// in\n    tag_173:\n        /* \"#utility.yul\":152:291   */\n      swap3\n      swap2\n      pop\n      pop\n      jump\t// out\n        /* \"#utility.yul\":297:434   */\n    tag_175:\n        /* \"#utility.yul\":342:347   */\n      0x00\n        /* \"#utility.yul\":380:386   */\n      dup2\n        /* \"#utility.yul\":367:387   */\n      calldataload\n        /* \"#utility.yul\":358:387   */\n      swap1\n      pop\n        /* \"#utility.yul\":396:428   */\n      tag_177\n        /* \"#utility.yul\":422:427   */\n      dup2\n        /* \"#utility.yul\":396:428   */\n      tag_178\n      jump\t// in\n    tag_177:\n        /* \"#utility.yul\":297:434   */\n      swap3\n      swap2\n      pop\n      pop\n      jump\t// out\n        /* \"#utility.yul\":440:579   */\n    tag_179:\n        /* \"#utility.yul\":486:491   */\n      0x00\n        /* \"#utility.yul\":524:530   */\n      dup2\n        /* \"#utility.yul\":511:531   */\n      calldataload\n        /* \"#utility.yul\":502:531   */\n      swap1\n      pop\n        /* \"#utility.yul\":540:573   */\n      tag_181\n        /* \"#utility.yul\":567:572   */\n      dup2\n        /* \"#utility.yul\":540:573   */\n      tag_182\n      jump\t// in\n    tag_181:\n        /* \"#utility.yul\":440:579   */\n      swap3\n      swap2\n      pop\n      pop\n      jump\t// out\n        /* \"#utility.yul\":585:914   */\n    tag_26:\n        /* \"#utility.yul\":644:650   */\n      0x00\n        /* \"#utility.yul\":693:695   */\n      0x20\n        /* \"#utility.yul\":681:690   */\n      dup3\n        /* \"#utility.yul\":672:679   */\n      dup5\n        /* \"#utility.yul\":668:691   */\n      sub\n        /* \"#utility.yul\":664:696   */\n      slt\n        /* \"#utility.yul\":661:780   */\n      iszero\n      tag_184\n      jumpi\n        /* \"#utility.yul\":699:778   */\n      tag_185\n      tag_186\n      jump\t// in\n    tag_185:\n        /* \"#utility.yul\":661:780   */\n    tag_184:\n        /* \"#utility.yul\":819:820   */\n      0x00\n        /* \"#utility.yul\":844:897   */\n      tag_187\n        /* \"#utility.yul\":889:896   */\n      dup5\n        /* \"#utility.yul\":880:886   */\n      dup3\n        /* \"#utility.yul\":869:878   */\n      dup6\n        /* \"#utility.yul\":865:887   */\n      add\n        /* \"#utility.yul\":844:897   */\n      tag_167\n      jump\t// in\n    tag_187:\n        /* \"#utility.yul\":834:897   */\n      swap2\n      pop\n        /* \"#utility.yul\":790:907   */\n      pop\n        /* \"#utility.yul\":585:914   */\n      swap3\n      swap2\n      pop\n      pop\n      jump\t// out\n        /* \"#utility.yul\":920:1249   */\n    tag_30:\n        /* \"#utility.yul\":979:985   */\n      0x00\n        /* \"#utility.yul\":1028:1030   */\n      0x20\n        /* \"#utility.yul\":1016:1025   */\n      dup3\n        /* \"#utility.yul\":1007:1014   */\n      dup5\n        /* \"#utility.yul\":1003:1026   */\n      sub\n        /* \"#utility.yul\":999:1031   */\n      slt\n        /* \"#utility.yul\":996:1115   */\n      iszero\n      tag_189\n      jumpi\n        /* \"#utility.yul\":1034:1113   */\n      tag_190\n      tag_186\n      jump\t// in\n    tag_190:\n        /* \"#utility.yul\":996:1115   */\n    tag_189:\n        /* \"#utility.yul\":1154:1155   */\n      0x00\n        /* \"#utility.yul\":1179:1232   */\n      tag_191\n        /* \"#utility.yul\":1224:1231   */\n      dup5\n        /* \"#utility.yul\":1215:1221   */\n      dup3\n        /* \"#utility.yul\":1204:1213   */\n      dup6\n        /* \"#utility.yul\":1200:1222   */\n      add\n        /* \"#utility.yul\":1179:1232   */\n      tag_171\n      jump\t// in\n    tag_191:\n        /* \"#utility.yul\":1169:1232   */\n      swap2\n      pop\n        /* \"#utility.yul\":1125:1242   */\n      pop\n        /* \"#utility.yul\":920:1249   */\n      swap3\n      swap2\n      pop\n      pop\n      jump\t// out\n        /* \"#utility.yul\":1255:1729   */\n    tag_40:\n        /* \"#utility.yul\":1323:1329   */\n      0x00\n        /* \"#utility.yul\":1331:1337   */\n      dup1\n        /* \"#utility.yul\":1380:1382   */\n      0x40\n        /* \"#utility.yul\":1368:1377   */\n      dup4\n        /* \"#utility.yul\":1359:1366   */\n      dup6\n        /* \"#utility.yul\":1355:1378   */\n      sub\n        /* \"#utility.yul\":1351:1383   */\n      slt\n        /* \"#utility.yul\":1348:1467   */\n      iszero\n      tag_193\n      jumpi\n        /* \"#utility.yul\":1386:1465   */\n      tag_194\n      tag_186\n      jump\t// in\n    tag_194:\n        /* \"#utility.yul\":1348:1467   */\n    tag_193:\n        /* \"#utility.yul\":1506:1507   */\n      0x00\n        /* \"#utility.yul\":1531:1584   */\n      tag_195\n        /* \"#utility.yul\":1576:1583   */\n      dup6\n        /* \"#utility.yul\":1567:1573   */\n      dup3\n        /* \"#utility.yul\":1556:1565   */\n      dup7\n        /* \"#utility.yul\":1552:1574   */\n      add\n        /* \"#utility.yul\":1531:1584   */\n      tag_171\n      jump\t// in\n    tag_195:\n        /* \"#utility.yul\":1521:1584   */\n      swap3\n      pop\n        /* \"#utility.yul\":1477:1594   */\n      pop\n        /* \"#utility.yul\":1633:1635   */\n      0x20\n        /* \"#utility.yul\":1659:1712   */\n      tag_196\n        /* \"#utility.yul\":1704:1711   */\n      dup6\n        /* \"#utility.yul\":1695:1701   */\n      dup3\n        /* \"#utility.yul\":1684:1693   */\n      dup7\n        /* \"#utility.yul\":1680:1702   */\n      add\n        /* \"#utility.yul\":1659:1712   */\n      tag_167\n      jump\t// in\n    tag_196:\n        /* \"#utility.yul\":1649:1712   */\n      swap2\n      pop\n        /* \"#utility.yul\":1604:1722   */\n      pop\n        /* \"#utility.yul\":1255:1729   */\n      swap3\n      pop\n      swap3\n      swap1\n      pop\n      jump\t// out\n        /* \"#utility.yul\":1735:2062   */\n    tag_20:\n        /* \"#utility.yul\":1793:1799   */\n      0x00\n        /* \"#utility.yul\":1842:1844   */\n      0x20\n        /* \"#utility.yul\":1830:1839   */\n      dup3\n        /* \"#utility.yul\":1821:1828   */\n      dup5\n        /* \"#utility.yul\":1817:1840   */\n      sub\n        /* \"#utility.yul\":1813:1845   */\n      slt\n        /* \"#utility.yul\":1810:1929   */\n      iszero\n      tag_198\n      jumpi\n        /* \"#utility.yul\":1848:1927   */\n      tag_199\n      tag_186\n      jump\t// in\n    tag_199:\n        /* \"#utility.yul\":1810:1929   */\n    tag_198:\n        /* \"#utility.yul\":1968:1969   */\n      0x00\n        /* \"#utility.yul\":1993:2045   */\n      tag_200\n        /* \"#utility.yul\":2037:2044   */\n      dup5\n        /* \"#utility.yul\":2028:2034   */\n      dup3\n        /* \"#utility.yul\":2017:2026   */\n      dup6\n        /* \"#utility.yul\":2013:2035   */\n      add\n        /* \"#utility.yul\":1993:2045   */\n      tag_175\n      jump\t// in\n    tag_200:\n        /* \"#utility.yul\":1983:2045   */\n      swap2\n      pop\n        /* \"#utility.yul\":1939:2055   */\n      pop\n        /* \"#utility.yul\":1735:2062   */\n      swap3\n      swap2\n      pop\n      pop\n      jump\t// out\n        /* \"#utility.yul\":2068:2397   */\n    tag_53:\n        /* \"#utility.yul\":2127:2133   */\n      0x00\n        /* \"#utility.yul\":2176:2178   */\n      0x20\n        /* \"#utility.yul\":2164:2173   */\n      dup3\n        /* \"#utility.yul\":2155:2162   */\n      dup5\n        /* \"#utility.yul\":2151:2174   */\n      sub\n        /* \"#utility.yul\":2147:2179   */\n      slt\n        /* \"#utility.yul\":2144:2263   */\n      iszero\n      tag_202\n      jumpi\n        /* \"#utility.yul\":2182:2261   */\n      tag_203\n      tag_186\n      jump\t// in\n    tag_203:\n        /* \"#utility.yul\":2144:2263   */\n    tag_202:\n        /* \"#utility.yul\":2302:2303   */\n      0x00\n        /* \"#utility.yul\":2327:2380   */\n      tag_204\n        /* \"#utility.yul\":2372:2379   */\n      dup5\n        /* \"#utility.yul\":2363:2369   */\n      dup3\n        /* \"#utility.yul\":2352:2361   */\n      dup6\n        /* \"#utility.yul\":2348:2370   */\n      add\n        /* \"#utility.yul\":2327:2380   */\n      tag_179\n      jump\t// in\n    tag_204:\n        /* \"#utility.yul\":2317:2380   */\n      swap2\n      pop\n        /* \"#utility.yul\":2273:2390   */\n      pop\n        /* \"#utility.yul\":2068:2397   */\n      swap3\n      swap2\n      pop\n      pop\n      jump\t// out\n        /* \"#utility.yul\":2403:2512   */\n    tag_205:\n        /* \"#utility.yul\":2484:2505   */\n      tag_207\n        /* \"#utility.yul\":2499:2504   */\n      dup2\n        /* \"#utility.yul\":2484:2505   */\n      tag_208\n      jump\t// in\n    tag_207:\n        /* \"#utility.yul\":2479:2482   */\n      dup3\n        /* \"#utility.yul\":2472:2506   */\n      mstore\n        /* \"#utility.yul\":2403:2512   */\n      pop\n      pop\n      jump\t// out\n        /* \"#utility.yul\":2518:2636   */\n    tag_209:\n        /* \"#utility.yul\":2605:2629   */\n      tag_211\n        /* \"#utility.yul\":2623:2628   */\n      dup2\n        /* \"#utility.yul\":2605:2629   */\n      tag_212\n      jump\t// in\n    tag_211:\n        /* \"#utility.yul\":2600:2603   */\n      dup3\n        /* \"#utility.yul\":2593:2630   */\n      mstore\n        /* \"#utility.yul\":2518:2636   */\n      pop\n      pop\n      jump\t// out\n        /* \"#utility.yul\":2642:3006   */\n    tag_213:\n        /* \"#utility.yul\":2730:2733   */\n      0x00\n        /* \"#utility.yul\":2758:2797   */\n      tag_215\n        /* \"#utility.yul\":2791:2796   */\n      dup3\n        /* \"#utility.yul\":2758:2797   */\n      tag_216\n      jump\t// in\n    tag_215:\n        /* \"#utility.yul\":2813:2884   */\n      tag_217\n        /* \"#utility.yul\":2877:2883   */\n      dup2\n        /* \"#utility.yul\":2872:2875   */\n      dup6\n        /* \"#utility.yul\":2813:2884   */\n      tag_218\n      jump\t// in\n    tag_217:\n        /* \"#utility.yul\":2806:2884   */\n      swap4\n      pop\n        /* \"#utility.yul\":2893:2945   */\n      tag_219\n        /* \"#utility.yul\":2938:2944   */\n      dup2\n        /* \"#utility.yul\":2933:2936   */\n      dup6\n        /* \"#utility.yul\":2926:2930   */\n      0x20\n        /* \"#utility.yul\":2919:2924   */\n      dup7\n        /* \"#utility.yul\":2915:2931   */\n      add\n        /* \"#utility.yul\":2893:2945   */\n      tag_220\n      jump\t// in\n    tag_219:\n        /* \"#utility.yul\":2970:2999   */\n      tag_221\n        /* \"#utility.yul\":2992:2998   */\n      dup2\n        /* \"#utility.yul\":2970:2999   */\n      tag_222\n      jump\t// in\n    tag_221:\n        /* \"#utility.yul\":2965:2968   */\n      dup5\n        /* \"#utility.yul\":2961:3000   */\n      add\n        /* \"#utility.yul\":2954:3000   */\n      swap2\n      pop\n        /* \"#utility.yul\":2734:3006   */\n      pop\n        /* \"#utility.yul\":2642:3006   */\n      swap3\n      swap2\n      pop\n      pop\n      jump\t// out\n        /* \"#utility.yul\":3012:3389   */\n    tag_223:\n        /* \"#utility.yul\":3118:3121   */\n      0x00\n        /* \"#utility.yul\":3146:3185   */\n      tag_225\n        /* \"#utility.yul\":3179:3184   */\n      dup3\n        /* \"#utility.yul\":3146:3185   */\n      tag_216\n      jump\t// in\n    tag_225:\n        /* \"#utility.yul\":3201:3290   */\n      tag_226\n        /* \"#utility.yul\":3283:3289   */\n      dup2\n        /* \"#utility.yul\":3278:3281   */\n      dup6\n        /* \"#utility.yul\":3201:3290   */\n      tag_227\n      jump\t// in\n    tag_226:\n        /* \"#utility.yul\":3194:3290   */\n      swap4\n      pop\n        /* \"#utility.yul\":3299:3351   */\n      tag_228\n        /* \"#utility.yul\":3344:3350   */\n      dup2\n        /* \"#utility.yul\":3339:3342   */\n      dup6\n        /* \"#utility.yul\":3332:3336   */\n      0x20\n        /* \"#utility.yul\":3325:3330   */\n      dup7\n        /* \"#utility.yul\":3321:3337   */\n      add\n        /* \"#utility.yul\":3299:3351   */\n      tag_220\n      jump\t// in\n    tag_228:\n        /* \"#utility.yul\":3376:3382   */\n      dup1\n        /* \"#utility.yul\":3371:3374   */\n      dup5\n        /* \"#utility.yul\":3367:3383   */\n      add\n        /* \"#utility.yul\":3360:3383   */\n      swap2\n      pop\n        /* \"#utility.yul\":3122:3389   */\n      pop\n        /* \"#utility.yul\":3012:3389   */\n      swap3\n      swap2\n      pop\n      pop\n      jump\t// out\n        /* \"#utility.yul\":3395:3761   */\n    tag_229:\n        /* \"#utility.yul\":3537:3540   */\n      0x00\n        /* \"#utility.yul\":3558:3625   */\n      tag_231\n        /* \"#utility.yul\":3622:3624   */\n      0x20\n        /* \"#utility.yul\":3617:3620   */\n      dup4\n        /* \"#utility.yul\":3558:3625   */\n      tag_218\n      jump\t// in\n    tag_231:\n        /* \"#utility.yul\":3551:3625   */\n      swap2\n      pop\n        /* \"#utility.yul\":3634:3727   */\n      tag_232\n        /* \"#utility.yul\":3723:3726   */\n      dup3\n        /* \"#utility.yul\":3634:3727   */\n      tag_233\n      jump\t// in\n    tag_232:\n        /* \"#utility.yul\":3752:3754   */\n      0x20\n        /* \"#utility.yul\":3747:3750   */\n      dup3\n        /* \"#utility.yul\":3743:3755   */\n      add\n        /* \"#utility.yul\":3736:3755   */\n      swap1\n      pop\n        /* \"#utility.yul\":3395:3761   */\n      swap2\n      swap1\n      pop\n      jump\t// out\n        /* \"#utility.yul\":3767:4133   */\n    tag_234:\n        /* \"#utility.yul\":3909:3912   */\n      0x00\n        /* \"#utility.yul\":3930:3997   */\n      tag_236\n        /* \"#utility.yul\":3994:3996   */\n      0x42\n        /* \"#utility.yul\":3989:3992   */\n      dup4\n        /* \"#utility.yul\":3930:3997   */\n      tag_218\n      jump\t// in\n    tag_236:\n        /* \"#utility.yul\":3923:3997   */\n      swap2\n      pop\n        /* \"#utility.yul\":4006:4099   */\n      tag_237\n        /* \"#utility.yul\":4095:4098   */\n      dup3\n        /* \"#utility.yul\":4006:4099   */\n      tag_238\n      jump\t// in\n    tag_237:\n        /* \"#utility.yul\":4124:4126   */\n      0x60\n        /* \"#utility.yul\":4119:4122   */\n      dup3\n        /* \"#utility.yul\":4115:4127   */\n      add\n        /* \"#utility.yul\":4108:4127   */\n      swap1\n      pop\n        /* \"#utility.yul\":3767:4133   */\n      swap2\n      swap1\n      pop\n      jump\t// out\n        /* \"#utility.yul\":4139:4505   */\n    tag_239:\n        /* \"#utility.yul\":4281:4284   */\n      0x00\n        /* \"#utility.yul\":4302:4369   */\n      tag_241\n        /* \"#utility.yul\":4366:4368   */\n      0x5a\n        /* \"#utility.yul\":4361:4364   */\n      dup4\n        /* \"#utility.yul\":4302:4369   */\n      tag_218\n      jump\t// in\n    tag_241:\n        /* \"#utility.yul\":4295:4369   */\n      swap2\n      pop\n        /* \"#utility.yul\":4378:4471   */\n      tag_242\n        /* \"#utility.yul\":4467:4470   */\n      dup3\n        /* \"#utility.yul\":4378:4471   */\n      tag_243\n      jump\t// in\n    tag_242:\n        /* \"#utility.yul\":4496:4498   */\n      0x60\n        /* \"#utility.yul\":4491:4494   */\n      dup3\n        /* \"#utility.yul\":4487:4499   */\n      add\n        /* \"#utility.yul\":4480:4499   */\n      swap1\n      pop\n        /* \"#utility.yul\":4139:4505   */\n      swap2\n      swap1\n      pop\n      jump\t// out\n        /* \"#utility.yul\":4511:4913   */\n    tag_244:\n        /* \"#utility.yul\":4671:4674   */\n      0x00\n        /* \"#utility.yul\":4692:4777   */\n      tag_246\n        /* \"#utility.yul\":4774:4776   */\n      0x17\n        /* \"#utility.yul\":4769:4772   */\n      dup4\n        /* \"#utility.yul\":4692:4777   */\n      tag_227\n      jump\t// in\n    tag_246:\n        /* \"#utility.yul\":4685:4777   */\n      swap2\n      pop\n        /* \"#utility.yul\":4786:4879   */\n      tag_247\n        /* \"#utility.yul\":4875:4878   */\n      dup3\n        /* \"#utility.yul\":4786:4879   */\n      tag_248\n      jump\t// in\n    tag_247:\n        /* \"#utility.yul\":4904:4906   */\n      0x17\n        /* \"#utility.yul\":4899:4902   */\n      dup3\n        /* \"#utility.yul\":4895:4907   */\n      add\n        /* \"#utility.yul\":4888:4907   */\n      swap1\n      pop\n        /* \"#utility.yul\":4511:4913   */\n      swap2\n      swap1\n      pop\n      jump\t// out\n        /* \"#utility.yul\":4919:5321   */\n    tag_249:\n        /* \"#utility.yul\":5079:5082   */\n      0x00\n        /* \"#utility.yul\":5100:5185   */\n      tag_251\n        /* \"#utility.yul\":5182:5184   */\n      0x11\n        /* \"#utility.yul\":5177:5180   */\n      dup4\n        /* \"#utility.yul\":5100:5185   */\n      tag_227\n      jump\t// in\n    tag_251:\n        /* \"#utility.yul\":5093:5185   */\n      swap2\n      pop\n        /* \"#utility.yul\":5194:5287   */\n      tag_252\n        /* \"#utility.yul\":5283:5286   */\n      dup3\n        /* \"#utility.yul\":5194:5287   */\n      tag_253\n      jump\t// in\n    tag_252:\n        /* \"#utility.yul\":5312:5314   */\n      0x11\n        /* \"#utility.yul\":5307:5310   */\n      dup3\n        /* \"#utility.yul\":5303:5315   */\n      add\n        /* \"#utility.yul\":5296:5315   */\n      swap1\n      pop\n        /* \"#utility.yul\":4919:5321   */\n      swap2\n      swap1\n      pop\n      jump\t// out\n        /* \"#utility.yul\":5327:5693   */\n    tag_254:\n        /* \"#utility.yul\":5469:5472   */\n      0x00\n        /* \"#utility.yul\":5490:5557   */\n      tag_256\n        /* \"#utility.yul\":5554:5556   */\n      0x2f\n        /* \"#utility.yul\":5549:5552   */\n      dup4\n        /* \"#utility.yul\":5490:5557   */\n      tag_218\n      jump\t// in\n    tag_256:\n        /* \"#utility.yul\":5483:5557   */\n      swap2\n      pop\n        /* \"#utility.yul\":5566:5659   */\n      tag_257\n        /* \"#utility.yul\":5655:5658   */\n      dup3\n        /* \"#utility.yul\":5566:5659   */\n      tag_258\n      jump\t// in\n    tag_257:\n        /* \"#utility.yul\":5684:5686   */\n      0x40\n        /* \"#utility.yul\":5679:5682   */\n      dup3\n        /* \"#utility.yul\":5675:5687   */\n      add\n        /* \"#utility.yul\":5668:5687   */\n      swap1\n      pop\n        /* \"#utility.yul\":5327:5693   */\n      swap2\n      swap1\n      pop\n      jump\t// out\n        /* \"#utility.yul\":5699:5817   */\n    tag_259:\n        /* \"#utility.yul\":5786:5810   */\n      tag_261\n        /* \"#utility.yul\":5804:5809   */\n      dup2\n        /* \"#utility.yul\":5786:5810   */\n      tag_262\n      jump\t// in\n    tag_261:\n        /* \"#utility.yul\":5781:5784   */\n      dup3\n        /* \"#utility.yul\":5774:5811   */\n      mstore\n        /* \"#utility.yul\":5699:5817   */\n      pop\n      pop\n      jump\t// out\n        /* \"#utility.yul\":5823:6790   */\n    tag_135:\n        /* \"#utility.yul\":6205:6208   */\n      0x00\n        /* \"#utility.yul\":6227:6375   */\n      tag_264\n        /* \"#utility.yul\":6371:6374   */\n      dup3\n        /* \"#utility.yul\":6227:6375   */\n      tag_244\n      jump\t// in\n    tag_264:\n        /* \"#utility.yul\":6220:6375   */\n      swap2\n      pop\n        /* \"#utility.yul\":6392:6487   */\n      tag_265\n        /* \"#utility.yul\":6483:6486   */\n      dup3\n        /* \"#utility.yul\":6474:6480   */\n      dup6\n        /* \"#utility.yul\":6392:6487   */\n      tag_223\n      jump\t// in\n    tag_265:\n        /* \"#utility.yul\":6385:6487   */\n      swap2\n      pop\n        /* \"#utility.yul\":6504:6652   */\n      tag_266\n        /* \"#utility.yul\":6648:6651   */\n      dup3\n        /* \"#utility.yul\":6504:6652   */\n      tag_249\n      jump\t// in\n    tag_266:\n        /* \"#utility.yul\":6497:6652   */\n      swap2\n      pop\n        /* \"#utility.yul\":6669:6764   */\n      tag_267\n        /* \"#utility.yul\":6760:6763   */\n      dup3\n        /* \"#utility.yul\":6751:6757   */\n      dup5\n        /* \"#utility.yul\":6669:6764   */\n      tag_223\n      jump\t// in\n    tag_267:\n        /* \"#utility.yul\":6662:6764   */\n      swap2\n      pop\n        /* \"#utility.yul\":6781:6784   */\n      dup2\n        /* \"#utility.yul\":6774:6784   */\n      swap1\n      pop\n        /* \"#utility.yul\":5823:6790   */\n      swap4\n      swap3\n      pop\n      pop\n      pop\n      jump\t// out\n        /* \"#utility.yul\":6796:7006   */\n    tag_23:\n        /* \"#utility.yul\":6883:6887   */\n      0x00\n        /* \"#utility.yul\":6921:6923   */\n      0x20\n        /* \"#utility.yul\":6910:6919   */\n      dup3\n        /* \"#utility.yul\":6906:6924   */\n      add\n        /* \"#utility.yul\":6898:6924   */\n      swap1\n      pop\n        /* \"#utility.yul\":6934:6999   */\n      tag_269\n        /* \"#utility.yul\":6996:6997   */\n      0x00\n        /* \"#utility.yul\":6985:6994   */\n      dup4\n        /* \"#utility.yul\":6981:6998   */\n      add\n        /* \"#utility.yul\":6972:6978   */\n      dup5\n        /* \"#utility.yul\":6934:6999   */\n      tag_205\n      jump\t// in\n    tag_269:\n        /* \"#utility.yul\":6796:7006   */\n      swap3\n      swap2\n      pop\n      pop\n      jump\t// out\n        /* \"#utility.yul\":7012:7234   */\n    tag_33:\n        /* \"#utility.yul\":7105:7109   */\n      0x00\n        /* \"#utility.yul\":7143:7145   */\n      0x20\n        /* \"#utility.yul\":7132:7141   */\n      dup3\n        /* \"#utility.yul\":7128:7146   */\n      add\n        /* \"#utility.yul\":7120:7146   */\n      swap1\n      pop\n        /* \"#utility.yul\":7156:7227   */\n      tag_271\n        /* \"#utility.yul\":7224:7225   */\n      0x00\n        /* \"#utility.yul\":7213:7222   */\n      dup4\n        /* \"#utility.yul\":7209:7226   */\n      add\n        /* \"#utility.yul\":7200:7206   */\n      dup5\n        /* \"#utility.yul\":7156:7227   */\n      tag_209\n      jump\t// in\n    tag_271:\n        /* \"#utility.yul\":7012:7234   */\n      swap3\n      swap2\n      pop\n      pop\n      jump\t// out\n        /* \"#utility.yul\":7240:7553   */\n    tag_137:\n        /* \"#utility.yul\":7353:7357   */\n      0x00\n        /* \"#utility.yul\":7391:7393   */\n      0x20\n        /* \"#utility.yul\":7380:7389   */\n      dup3\n        /* \"#utility.yul\":7376:7394   */\n      add\n        /* \"#utility.yul\":7368:7394   */\n      swap1\n      pop\n        /* \"#utility.yul\":7440:7449   */\n      dup2\n        /* \"#utility.yul\":7434:7438   */\n      dup2\n        /* \"#utility.yul\":7430:7450   */\n      sub\n        /* \"#utility.yul\":7426:7427   */\n      0x00\n        /* \"#utility.yul\":7415:7424   */\n      dup4\n        /* \"#utility.yul\":7411:7428   */\n      add\n        /* \"#utility.yul\":7404:7451   */\n      mstore\n        /* \"#utility.yul\":7468:7546   */\n      tag_273\n        /* \"#utility.yul\":7541:7545   */\n      dup2\n        /* \"#utility.yul\":7532:7538   */\n      dup5\n        /* \"#utility.yul\":7468:7546   */\n      tag_213\n      jump\t// in\n    tag_273:\n        /* \"#utility.yul\":7460:7546   */\n      swap1\n      pop\n        /* \"#utility.yul\":7240:7553   */\n      swap3\n      swap2\n      pop\n      pop\n      jump\t// out\n        /* \"#utility.yul\":7559:7978   */\n    tag_165:\n        /* \"#utility.yul\":7725:7729   */\n      0x00\n        /* \"#utility.yul\":7763:7765   */\n      0x20\n        /* \"#utility.yul\":7752:7761   */\n      dup3\n        /* \"#utility.yul\":7748:7766   */\n      add\n        /* \"#utility.yul\":7740:7766   */\n      swap1\n      pop\n        /* \"#utility.yul\":7812:7821   */\n      dup2\n        /* \"#utility.yul\":7806:7810   */\n      dup2\n        /* \"#utility.yul\":7802:7822   */\n      sub\n        /* \"#utility.yul\":7798:7799   */\n      0x00\n        /* \"#utility.yul\":7787:7796   */\n      dup4\n        /* \"#utility.yul\":7783:7800   */\n      add\n        /* \"#utility.yul\":7776:7823   */\n      mstore\n        /* \"#utility.yul\":7840:7971   */\n      tag_275\n        /* \"#utility.yul\":7966:7970   */\n      dup2\n        /* \"#utility.yul\":7840:7971   */\n      tag_229\n      jump\t// in\n    tag_275:\n        /* \"#utility.yul\":7832:7971   */\n      swap1\n      pop\n        /* \"#utility.yul\":7559:7978   */\n      swap2\n      swap1\n      pop\n      jump\t// out\n        /* \"#utility.yul\":7984:8403   */\n    tag_106:\n        /* \"#utility.yul\":8150:8154   */\n      0x00\n        /* \"#utility.yul\":8188:8190   */\n      0x20\n        /* \"#utility.yul\":8177:8186   */\n      dup3\n        /* \"#utility.yul\":8173:8191   */\n      add\n        /* \"#utility.yul\":8165:8191   */\n      swap1\n      pop\n        /* \"#utility.yul\":8237:8246   */\n      dup2\n        /* \"#utility.yul\":8231:8235   */\n      dup2\n        /* \"#utility.yul\":8227:8247   */\n      sub\n        /* \"#utility.yul\":8223:8224   */\n      0x00\n        /* \"#utility.yul\":8212:8221   */\n      dup4\n        /* \"#utility.yul\":8208:8225   */\n      add\n        /* \"#utility.yul\":8201:8248   */\n      mstore\n        /* \"#utility.yul\":8265:8396   */\n      tag_277\n        /* \"#utility.yul\":8391:8395   */\n      dup2\n        /* \"#utility.yul\":8265:8396   */\n      tag_234\n      jump\t// in\n    tag_277:\n        /* \"#utility.yul\":8257:8396   */\n      swap1\n      pop\n        /* \"#utility.yul\":7984:8403   */\n      swap2\n      swap1\n      pop\n      jump\t// out\n        /* \"#utility.yul\":8409:8828   */\n    tag_76:\n        /* \"#utility.yul\":8575:8579   */\n      0x00\n        /* \"#utility.yul\":8613:8615   */\n      0x20\n        /* \"#utility.yul\":8602:8611   */\n      dup3\n        /* \"#utility.yul\":8598:8616   */\n      add\n        /* \"#utility.yul\":8590:8616   */\n      swap1\n      pop\n        /* \"#utility.yul\":8662:8671   */\n      dup2\n        /* \"#utility.yul\":8656:8660   */\n      dup2\n        /* \"#utility.yul\":8652:8672   */\n      sub\n        /* \"#utility.yul\":8648:8649   */\n      0x00\n        /* \"#utility.yul\":8637:8646   */\n      dup4\n        /* \"#utility.yul\":8633:8650   */\n      add\n        /* \"#utility.yul\":8626:8673   */\n      mstore\n        /* \"#utility.yul\":8690:8821   */\n      tag_279\n        /* \"#utility.yul\":8816:8820   */\n      dup2\n        /* \"#utility.yul\":8690:8821   */\n      tag_239\n      jump\t// in\n    tag_279:\n        /* \"#utility.yul\":8682:8821   */\n      swap1\n      pop\n        /* \"#utility.yul\":8409:8828   */\n      swap2\n      swap1\n      pop\n      jump\t// out\n        /* \"#utility.yul\":8834:9253   */\n    tag_93:\n        /* \"#utility.yul\":9000:9004   */\n      0x00\n        /* \"#utility.yul\":9038:9040   */\n      0x20\n        /* \"#utility.yul\":9027:9036   */\n      dup3\n        /* \"#utility.yul\":9023:9041   */\n      add\n        /* \"#utility.yul\":9015:9041   */\n      swap1\n      pop\n        /* \"#utility.yul\":9087:9096   */\n      dup2\n        /* \"#utility.yul\":9081:9085   */\n      dup2\n        /* \"#utility.yul\":9077:9097   */\n      sub\n        /* \"#utility.yul\":9073:9074   */\n      0x00\n        /* \"#utility.yul\":9062:9071   */\n      dup4\n        /* \"#utility.yul\":9058:9075   */\n      add\n        /* \"#utility.yul\":9051:9098   */\n      mstore\n        /* \"#utility.yul\":9115:9246   */\n      tag_281\n        /* \"#utility.yul\":9241:9245   */\n      dup2\n        /* \"#utility.yul\":9115:9246   */\n      tag_254\n      jump\t// in\n    tag_281:\n        /* \"#utility.yul\":9107:9246   */\n      swap1\n      pop\n        /* \"#utility.yul\":8834:9253   */\n      swap2\n      swap1\n      pop\n      jump\t// out\n        /* \"#utility.yul\":9259:9481   */\n    tag_37:\n        /* \"#utility.yul\":9352:9356   */\n      0x00\n        /* \"#utility.yul\":9390:9392   */\n      0x20\n        /* \"#utility.yul\":9379:9388   */\n      dup3\n        /* \"#utility.yul\":9375:9393   */\n      add\n        /* \"#utility.yul\":9367:9393   */\n      swap1\n      pop\n        /* \"#utility.yul\":9403:9474   */\n      tag_283\n        /* \"#utility.yul\":9471:9472   */\n      0x00\n        /* \"#utility.yul\":9460:9469   */\n      dup4\n        /* \"#utility.yul\":9456:9473   */\n      add\n        /* \"#utility.yul\":9447:9453   */\n      dup5\n        /* \"#utility.yul\":9403:9474   */\n      tag_259\n      jump\t// in\n    tag_283:\n        /* \"#utility.yul\":9259:9481   */\n      swap3\n      swap2\n      pop\n      pop\n      jump\t// out\n        /* \"#utility.yul\":9568:9667   */\n    tag_216:\n        /* \"#utility.yul\":9620:9626   */\n      0x00\n        /* \"#utility.yul\":9654:9659   */\n      dup2\n        /* \"#utility.yul\":9648:9660   */\n      mload\n        /* \"#utility.yul\":9638:9660   */\n      swap1\n      pop\n        /* \"#utility.yul\":9568:9667   */\n      swap2\n      swap1\n      pop\n      jump\t// out\n        /* \"#utility.yul\":9673:9842   */\n    tag_218:\n        /* \"#utility.yul\":9757:9768   */\n      0x00\n        /* \"#utility.yul\":9791:9797   */\n      dup3\n        /* \"#utility.yul\":9786:9789   */\n      dup3\n        /* \"#utility.yul\":9779:9798   */\n      mstore\n        /* \"#utility.yul\":9831:9835   */\n      0x20\n        /* \"#utility.yul\":9826:9829   */\n      dup3\n        /* \"#utility.yul\":9822:9836   */\n      add\n        /* \"#utility.yul\":9807:9836   */\n      swap1\n      pop\n        /* \"#utility.yul\":9673:9842   */\n      swap3\n      swap2\n      pop\n      pop\n      jump\t// out\n        /* \"#utility.yul\":9848:9996   */\n    tag_227:\n        /* \"#utility.yul\":9950:9961   */\n      0x00\n        /* \"#utility.yul\":9987:9990   */\n      dup2\n        /* \"#utility.yul\":9972:9990   */\n      swap1\n      pop\n        /* \"#utility.yul\":9848:9996   */\n      swap3\n      swap2\n      pop\n      pop\n      jump\t// out\n        /* \"#utility.yul\":10002:10307   */\n    tag_142:\n        /* \"#utility.yul\":10042:10045   */\n      0x00\n        /* \"#utility.yul\":10061:10081   */\n      tag_290\n        /* \"#utility.yul\":10079:10080   */\n      dup3\n        /* \"#utility.yul\":10061:10081   */\n      tag_262\n      jump\t// in\n    tag_290:\n        /* \"#utility.yul\":10056:10081   */\n      swap2\n      pop\n        /* \"#utility.yul\":10095:10115   */\n      tag_291\n        /* \"#utility.yul\":10113:10114   */\n      dup4\n        /* \"#utility.yul\":10095:10115   */\n      tag_262\n      jump\t// in\n    tag_291:\n        /* \"#utility.yul\":10090:10115   */\n      swap3\n      pop\n        /* \"#utility.yul\":10249:10250   */\n      dup3\n        /* \"#utility.yul\":10181:10247   */\n      0xffffffffffffffffffffffffffffffffffffffffffffffffffffffffffffffff\n        /* \"#utility.yul\":10177:10251   */\n      sub\n        /* \"#utility.yul\":10174:10175   */\n      dup3\n        /* \"#utility.yul\":10171:10252   */\n      gt\n        /* \"#utility.yul\":10168:10275   */\n      iszero\n      tag_292\n      jumpi\n        /* \"#utility.yul\":10255:10273   */\n      tag_293\n      tag_294\n      jump\t// in\n    tag_293:\n        /* \"#utility.yul\":10168:10275   */\n    tag_292:\n        /* \"#utility.yul\":10299:10300   */\n      dup3\n        /* \"#utility.yul\":10296:10297   */\n      dup3\n        /* \"#utility.yul\":10292:10301   */\n      add\n        /* \"#utility.yul\":10285:10301   */\n      swap1\n      pop\n        /* \"#utility.yul\":10002:10307   */\n      swap3\n      swap2\n      pop\n      pop\n      jump\t// out\n        /* \"#utility.yul\":10313:10661   */\n    tag_140:\n        /* \"#utility.yul\":10353:10360   */\n      0x00\n        /* \"#utility.yul\":10376:10396   */\n      tag_296\n        /* \"#utility.yul\":10394:10395   */\n      dup3\n        /* \"#utility.yul\":10376:10396   */\n      tag_262\n      jump\t// in\n    tag_296:\n        /* \"#utility.yul\":10371:10396   */\n      swap2\n      pop\n        /* \"#utility.yul\":10410:10430   */\n      tag_297\n        /* \"#utility.yul\":10428:10429   */\n      dup4\n        /* \"#utility.yul\":10410:10430   */\n      tag_262\n      jump\t// in\n    tag_297:\n        /* \"#utility.yul\":10405:10430   */\n      swap3\n      pop\n        /* \"#utility.yul\":10598:10599   */\n      dup2\n        /* \"#utility.yul\":10530:10596   */\n      0xffffffffffffffffffffffffffffffffffffffffffffffffffffffffffffffff\n        /* \"#utility.yul\":10526:10600   */\n      div\n        /* \"#utility.yul\":10523:10524   */\n      dup4\n        /* \"#utility.yul\":10520:10601   */\n      gt\n        /* \"#utility.yul\":10515:10516   */\n      dup3\n        /* \"#utility.yul\":10508:10517   */\n      iszero\n        /* \"#utility.yul\":10501:10518   */\n      iszero\n        /* \"#utility.yul\":10497:10602   */\n      and\n        /* \"#utility.yul\":10494:10625   */\n      iszero\n      tag_298\n      jumpi\n        /* \"#utility.yul\":10605:10623   */\n      tag_299\n      tag_294\n      jump\t// in\n    tag_299:\n        /* \"#utility.yul\":10494:10625   */\n    tag_298:\n        /* \"#utility.yul\":10653:10654   */\n      dup3\n        /* \"#utility.yul\":10650:10651   */\n      dup3\n        /* \"#utility.yul\":10646:10655   */\n      mul\n        /* \"#utility.yul\":10635:10655   */\n      swap1\n      pop\n        /* \"#utility.yul\":10313:10661   */\n      swap3\n      swap2\n      pop\n      pop\n      jump\t// out\n        /* \"#utility.yul\":10667:10763   */\n    tag_300:\n        /* \"#utility.yul\":10704:10711   */\n      0x00\n        /* \"#utility.yul\":10733:10757   */\n      tag_302\n        /* \"#utility.yul\":10751:10756   */\n      dup3\n        /* \"#utility.yul\":10733:10757   */\n      tag_303\n      jump\t// in\n    tag_302:\n        /* \"#utility.yul\":10722:10757   */\n      swap1\n      pop\n        /* \"#utility.yul\":10667:10763   */\n      swap2\n      swap1\n      pop\n      jump\t// out\n        /* \"#utility.yul\":10769:10859   */\n    tag_208:\n        /* \"#utility.yul\":10803:10810   */\n      0x00\n        /* \"#utility.yul\":10846:10851   */\n      dup2\n        /* \"#utility.yul\":10839:10852   */\n      iszero\n        /* \"#utility.yul\":10832:10853   */\n      iszero\n        /* \"#utility.yul\":10821:10853   */\n      swap1\n      pop\n        /* \"#utility.yul\":10769:10859   */\n      swap2\n      swap1\n      pop\n      jump\t// out\n        /* \"#utility.yul\":10865:10942   */\n    tag_212:\n        /* \"#utility.yul\":10902:10909   */\n      0x00\n        /* \"#utility.yul\":10931:10936   */\n      dup2\n        /* \"#utility.yul\":10920:10936   */\n      swap1\n      pop\n        /* \"#utility.yul\":10865:10942   */\n      swap2\n      swap1\n      pop\n      jump\t// out\n        /* \"#utility.yul\":10948:11097   */\n    tag_306:\n        /* \"#utility.yul\":10984:10991   */\n      0x00\n        /* \"#utility.yul\":11024:11090   */\n      0xffffffff00000000000000000000000000000000000000000000000000000000\n        /* \"#utility.yul\":11017:11022   */\n      dup3\n        /* \"#utility.yul\":11013:11091   */\n      and\n        /* \"#utility.yul\":11002:11091   */\n      swap1\n      pop\n        /* \"#utility.yul\":10948:11097   */\n      swap2\n      swap1\n      pop\n      jump\t// out\n        /* \"#utility.yul\":11103:11229   */\n    tag_303:\n        /* \"#utility.yul\":11140:11147   */\n      0x00\n        /* \"#utility.yul\":11180:11222   */\n      0xffffffffffffffffffffffffffffffffffffffff\n        /* \"#utility.yul\":11173:11178   */\n      dup3\n        /* \"#utility.yul\":11169:11223   */\n      and\n        /* \"#utility.yul\":11158:11223   */\n      swap1\n      pop\n        /* \"#utility.yul\":11103:11229   */\n      swap2\n      swap1\n      pop\n      jump\t// out\n        /* \"#utility.yul\":11235:11312   */\n    tag_262:\n        /* \"#utility.yul\":11272:11279   */\n      0x00\n        /* \"#utility.yul\":11301:11306   */\n      dup2\n        /* \"#utility.yul\":11290:11306   */\n      swap1\n      pop\n        /* \"#utility.yul\":11235:11312   */\n      swap2\n      swap1\n      pop\n      jump\t// out\n        /* \"#utility.yul\":11318:11625   */\n    tag_220:\n        /* \"#utility.yul\":11386:11387   */\n      0x00\n        /* \"#utility.yul\":11396:11509   */\n    tag_311:\n        /* \"#utility.yul\":11410:11416   */\n      dup4\n        /* \"#utility.yul\":11407:11408   */\n      dup2\n        /* \"#utility.yul\":11404:11417   */\n      lt\n        /* \"#utility.yul\":11396:11509   */\n      iszero\n      tag_313\n      jumpi\n        /* \"#utility.yul\":11495:11496   */\n      dup1\n        /* \"#utility.yul\":11490:11493   */\n      dup3\n        /* \"#utility.yul\":11486:11497   */\n      add\n        /* \"#utility.yul\":11480:11498   */\n      mload\n        /* \"#utility.yul\":11476:11477   */\n      dup2\n        /* \"#utility.yul\":11471:11474   */\n      dup5\n        /* \"#utility.yul\":11467:11478   */\n      add\n        /* \"#utility.yul\":11460:11499   */\n      mstore\n        /* \"#utility.yul\":11432:11434   */\n      0x20\n        /* \"#utility.yul\":11429:11430   */\n      dup2\n        /* \"#utility.yul\":11425:11435   */\n      add\n        /* \"#utility.yul\":11420:11435   */\n      swap1\n      pop\n        /* \"#utility.yul\":11396:11509   */\n      jump(tag_311)\n    tag_313:\n        /* \"#utility.yul\":11527:11533   */\n      dup4\n        /* \"#utility.yul\":11524:11525   */\n      dup2\n        /* \"#utility.yul\":11521:11534   */\n      gt\n        /* \"#utility.yul\":11518:11619   */\n      iszero\n      tag_314\n      jumpi\n        /* \"#utility.yul\":11607:11608   */\n      0x00\n        /* \"#utility.yul\":11598:11604   */\n      dup5\n        /* \"#utility.yul\":11593:11596   */\n      dup5\n        /* \"#utility.yul\":11589:11605   */\n      add\n        /* \"#utility.yul\":11582:11609   */\n      mstore\n        /* \"#utility.yul\":11518:11619   */\n    tag_314:\n        /* \"#utility.yul\":11367:11625   */\n      pop\n        /* \"#utility.yul\":11318:11625   */\n      pop\n      pop\n      pop\n      jump\t// out\n        /* \"#utility.yul\":11631:11802   */\n    tag_162:\n        /* \"#utility.yul\":11670:11673   */\n      0x00\n        /* \"#utility.yul\":11693:11717   */\n      tag_316\n        /* \"#utility.yul\":11711:11716   */\n      dup3\n        /* \"#utility.yul\":11693:11717   */\n      tag_262\n      jump\t// in\n    tag_316:\n        /* \"#utility.yul\":11684:11717   */\n      swap2\n      pop\n        /* \"#utility.yul\":11739:11743   */\n      0x00\n        /* \"#utility.yul\":11732:11737   */\n      dup3\n        /* \"#utility.yul\":11729:11744   */\n      eq\n        /* \"#utility.yul\":11726:11767   */\n      iszero\n      tag_317\n      jumpi\n        /* \"#utility.yul\":11747:11765   */\n      tag_318\n      tag_294\n      jump\t// in\n    tag_318:\n        /* \"#utility.yul\":11726:11767   */\n    tag_317:\n        /* \"#utility.yul\":11794:11795   */\n      0x01\n        /* \"#utility.yul\":11787:11792   */\n      dup3\n        /* \"#utility.yul\":11783:11796   */\n      sub\n        /* \"#utility.yul\":11776:11796   */\n      swap1\n      pop\n        /* \"#utility.yul\":11631:11802   */\n      swap2\n      swap1\n      pop\n      jump\t// out\n        /* \"#utility.yul\":11808:11988   */\n    tag_294:\n        /* \"#utility.yul\":11856:11933   */\n      0x4e487b7100000000000000000000000000000000000000000000000000000000\n        /* \"#utility.yul\":11853:11854   */\n      0x00\n        /* \"#utility.yul\":11846:11934   */\n      mstore\n        /* \"#utility.yul\":11953:11957   */\n      0x11\n        /* \"#utility.yul\":11950:11951   */\n      0x04\n        /* \"#utility.yul\":11943:11958   */\n      mstore\n        /* \"#utility.yul\":11977:11981   */\n      0x24\n        /* \"#utility.yul\":11974:11975   */\n      0x00\n        /* \"#utility.yul\":11967:11982   */\n      revert\n        /* \"#utility.yul\":11994:12174   */\n    tag_149:\n        /* \"#utility.yul\":12042:12119   */\n      0x4e487b7100000000000000000000000000000000000000000000000000000000\n        /* \"#utility.yul\":12039:12040   */\n      0x00\n        /* \"#utility.yul\":12032:12120   */\n      mstore\n        /* \"#utility.yul\":12139:12143   */\n      0x32\n        /* \"#utility.yul\":12136:12137   */\n      0x04\n        /* \"#utility.yul\":12129:12144   */\n      mstore\n        /* \"#utility.yul\":12163:12167   */\n      0x24\n        /* \"#utility.yul\":12160:12161   */\n      0x00\n        /* \"#utility.yul\":12153:12168   */\n      revert\n        /* \"#utility.yul\":12180:12360   */\n    tag_145:\n        /* \"#utility.yul\":12228:12305   */\n      0x4e487b7100000000000000000000000000000000000000000000000000000000\n        /* \"#utility.yul\":12225:12226   */\n      0x00\n        /* \"#utility.yul\":12218:12306   */\n      mstore\n        /* \"#utility.yul\":12325:12329   */\n      0x41\n        /* \"#utility.yul\":12322:12323   */\n      0x04\n        /* \"#utility.yul\":12315:12330   */\n      mstore\n        /* \"#utility.yul\":12349:12353   */\n      0x24\n        /* \"#utility.yul\":12346:12347   */\n      0x00\n        /* \"#utility.yul\":12339:12354   */\n      revert\n        /* \"#utility.yul\":12489:12606   */\n    tag_186:\n        /* \"#utility.yul\":12598:12599   */\n      0x00\n        /* \"#utility.yul\":12595:12596   */\n      dup1\n        /* \"#utility.yul\":12588:12600   */\n      revert\n        /* \"#utility.yul\":12612:12714   */\n    tag_222:\n        /* \"#utility.yul\":12653:12659   */\n      0x00\n        /* \"#utility.yul\":12704:12706   */\n      0x1f\n        /* \"#utility.yul\":12700:12707   */\n      not\n        /* \"#utility.yul\":12695:12697   */\n      0x1f\n        /* \"#utility.yul\":12688:12693   */\n      dup4\n        /* \"#utility.yul\":12684:12698   */\n      add\n        /* \"#utility.yul\":12680:12708   */\n      and\n        /* \"#utility.yul\":12670:12708   */\n      swap1\n      pop\n        /* \"#utility.yul\":12612:12714   */\n      swap2\n      swap1\n      pop\n      jump\t// out\n        /* \"#utility.yul\":12720:12902   */\n    tag_233:\n        /* \"#utility.yul\":12860:12894   */\n      0x537472696e67733a20686578206c656e67746820696e73756666696369656e74\n        /* \"#utility.yul\":12856:12857   */\n      0x00\n        /* \"#utility.yul\":12848:12854   */\n      dup3\n        /* \"#utility.yul\":12844:12858   */\n      add\n        /* \"#utility.yul\":12837:12895   */\n      mstore\n        /* \"#utility.yul\":12720:12902   */\n      pop\n      jump\t// out\n        /* \"#utility.yul\":12908:13198   */\n    tag_238:\n        /* \"#utility.yul\":13048:13082   */\n      0x456c207573756172696f206e6f207469656e6520656c20726f6c205752495445\n        /* \"#utility.yul\":13044:13045   */\n      0x00\n        /* \"#utility.yul\":13036:13042   */\n      dup3\n        /* \"#utility.yul\":13032:13046   */\n      add\n        /* \"#utility.yul\":13025:13083   */\n      mstore\n        /* \"#utility.yul\":13117:13151   */\n      0x52207061726120656a656375746172206c612066756e63696f6e2053746f7261\n        /* \"#utility.yul\":13112:13114   */\n      0x20\n        /* \"#utility.yul\":13104:13110   */\n      dup3\n        /* \"#utility.yul\":13100:13115   */\n      add\n        /* \"#utility.yul\":13093:13152   */\n      mstore\n        /* \"#utility.yul\":13186:13190   */\n      0x6765000000000000000000000000000000000000000000000000000000000000\n        /* \"#utility.yul\":13181:13183   */\n      0x40\n        /* \"#utility.yul\":13173:13179   */\n      dup3\n        /* \"#utility.yul\":13169:13184   */\n      add\n        /* \"#utility.yul\":13162:13191   */\n      mstore\n        /* \"#utility.yul\":12908:13198   */\n      pop\n      jump\t// out\n        /* \"#utility.yul\":13204:13518   */\n    tag_243:\n        /* \"#utility.yul\":13344:13378   */\n      0x456c207573756172696f206e6f207469656e6520656c20726f6c2041444d494e\n        /* \"#utility.yul\":13340:13341   */\n      0x00\n        /* \"#utility.yul\":13332:13338   */\n      dup3\n        /* \"#utility.yul\":13328:13342   */\n      add\n        /* \"#utility.yul\":13321:13379   */\n      mstore\n        /* \"#utility.yul\":13413:13447   */\n      0x207061726120656a656375746172206c612066756e63696f6e20646520676172\n        /* \"#utility.yul\":13408:13410   */\n      0x20\n        /* \"#utility.yul\":13400:13406   */\n      dup3\n        /* \"#utility.yul\":13396:13411   */\n      add\n        /* \"#utility.yul\":13389:13448   */\n      mstore\n        /* \"#utility.yul\":13482:13510   */\n      0x616e74697a6172206f207265766f636172207065726d69736f73000000000000\n        /* \"#utility.yul\":13477:13479   */\n      0x40\n        /* \"#utility.yul\":13469:13475   */\n      dup3\n        /* \"#utility.yul\":13465:13480   */\n      add\n        /* \"#utility.yul\":13458:13511   */\n      mstore\n        /* \"#utility.yul\":13204:13518   */\n      pop\n      jump\t// out\n        /* \"#utility.yul\":13524:13697   */\n    tag_248:\n        /* \"#utility.yul\":13664:13689   */\n      0x416363657373436f6e74726f6c3a206163636f756e7420000000000000000000\n        /* \"#utility.yul\":13660:13661   */\n      0x00\n        /* \"#utility.yul\":13652:13658   */\n      dup3\n        /* \"#utility.yul\":13648:13662   */\n      add\n        /* \"#utility.yul\":13641:13690   */\n      mstore\n        /* \"#utility.yul\":13524:13697   */\n      pop\n      jump\t// out\n        /* \"#utility.yul\":13703:13870   */\n    tag_253:\n        /* \"#utility.yul\":13843:13862   */\n      0x206973206d697373696e6720726f6c6520000000000000000000000000000000\n        /* \"#utility.yul\":13839:13840   */\n      0x00\n        /* \"#utility.yul\":13831:13837   */\n      dup3\n        /* \"#utility.yul\":13827:13841   */\n      add\n        /* \"#utility.yul\":13820:13863   */\n      mstore\n        /* \"#utility.yul\":13703:13870   */\n      pop\n      jump\t// out\n        /* \"#utility.yul\":13876:14110   */\n    tag_258:\n        /* \"#utility.yul\":14016:14050   */\n      0x416363657373436f6e74726f6c3a2063616e206f6e6c792072656e6f756e6365\n        /* \"#utility.yul\":14012:14013   */\n      0x00\n        /* \"#utility.yul\":14004:14010   */\n      dup3\n        /* \"#utility.yul\":14000:14014   */\n      add\n        /* \"#utility.yul\":13993:14051   */\n      mstore\n        /* \"#utility.yul\":14085:14102   */\n      0x20726f6c657320666f722073656c660000000000000000000000000000000000\n        /* \"#utility.yul\":14080:14082   */\n      0x20\n        /* \"#utility.yul\":14072:14078   */\n      dup3\n        /* \"#utility.yul\":14068:14083   */\n      add\n        /* \"#utility.yul\":14061:14103   */\n      mstore\n        /* \"#utility.yul\":13876:14110   */\n      pop\n      jump\t// out\n        /* \"#utility.yul\":14116:14238   */\n    tag_170:\n        /* \"#utility.yul\":14189:14213   */\n      tag_333\n        /* \"#utility.yul\":14207:14212   */\n      dup2\n        /* \"#utility.yul\":14189:14213   */\n      tag_300\n      jump\t// in\n    tag_333:\n        /* \"#utility.yul\":14182:14187   */\n      dup2\n        /* \"#utility.yul\":14179:14214   */\n      eq\n        /* \"#utility.yul\":14169:14232   */\n      tag_334\n      jumpi\n        /* \"#utility.yul\":14228:14229   */\n      0x00\n        /* \"#utility.yul\":14225:14226   */\n      dup1\n        /* \"#utility.yul\":14218:14230   */\n      revert\n        /* \"#utility.yul\":14169:14232   */\n    tag_334:\n        /* \"#utility.yul\":14116:14238   */\n      pop\n      jump\t// out\n        /* \"#utility.yul\":14244:14366   */\n    tag_174:\n        /* \"#utility.yul\":14317:14341   */\n      tag_336\n        /* \"#utility.yul\":14335:14340   */\n      dup2\n        /* \"#utility.yul\":14317:14341   */\n      tag_212\n      jump\t// in\n    tag_336:\n        /* \"#utility.yul\":14310:14315   */\n      dup2\n        /* \"#utility.yul\":14307:14342   */\n      eq\n        /* \"#utility.yul\":14297:14360   */\n      tag_337\n      jumpi\n        /* \"#utility.yul\":14356:14357   */\n      0x00\n        /* \"#utility.yul\":14353:14354   */\n      dup1\n        /* \"#utility.yul\":14346:14358   */\n      revert\n        /* \"#utility.yul\":14297:14360   */\n    tag_337:\n        /* \"#utility.yul\":14244:14366   */\n      pop\n      jump\t// out\n        /* \"#utility.yul\":14372:14492   */\n    tag_178:\n        /* \"#utility.yul\":14444:14467   */\n      tag_339\n        /* \"#utility.yul\":14461:14466   */\n      dup2\n        /* \"#utility.yul\":14444:14467   */\n      tag_306\n      jump\t// in\n    tag_339:\n        /* \"#utility.yul\":14437:14442   */\n      dup2\n        /* \"#utility.yul\":14434:14468   */\n      eq\n        /* \"#utility.yul\":14424:14486   */\n      tag_340\n      jumpi\n        /* \"#utility.yul\":14482:14483   */\n      0x00\n        /* \"#utility.yul\":14479:14480   */\n      dup1\n        /* \"#utility.yul\":14472:14484   */\n      revert\n        /* \"#utility.yul\":14424:14486   */\n    tag_340:\n        /* \"#utility.yul\":14372:14492   */\n      pop\n      jump\t// out\n        /* \"#utility.yul\":14498:14620   */\n    tag_182:\n        /* \"#utility.yul\":14571:14595   */\n      tag_342\n        /* \"#utility.yul\":14589:14594   */\n      dup2\n        /* \"#utility.yul\":14571:14595   */\n      tag_262\n      jump\t// in\n    tag_342:\n        /* \"#utility.yul\":14564:14569   */\n      dup2\n        /* \"#utility.yul\":14561:14596   */\n      eq\n        /* \"#utility.yul\":14551:14614   */\n      tag_343\n      jumpi\n        /* \"#utility.yul\":14610:14611   */\n      0x00\n        /* \"#utility.yul\":14607:14608   */\n      dup1\n        /* \"#utility.yul\":14600:14612   */\n      revert\n        /* \"#utility.yul\":14551:14614   */\n    tag_343:\n        /* \"#utility.yul\":14498:14620   */\n      pop\n      jump\t// out\n\n    auxdata: 0xa2646970667358221220634fc0a801b918744bcb089fc614b69274ba3882de2623f8d1872d153012514264736f6c63430008070033\n}\n",
				"bytecode": {
					"linkReferences": {},
					"object": "608060405234801561001057600080fd5b506113dd806100206000396000f3fe608060405234801561001057600080fd5b50600436106100cf5760003560e01c806345d494201161008c57806391d148541161006657806391d14854146101fc578063a217fddf1461022c578063adec03fc1461024a578063d547741f14610268576100cf565b806345d49420146101a65780634c2e19d0146101c45780636057361d146101e0576100cf565b806301ffc9a7146100d4578063235ef56f14610104578063248a9ca3146101205780632e64cec1146101505780632f2ff15d1461016e57806336568abe1461018a575b600080fd5b6100ee60048036038101906100e99190610c52565b610284565b6040516100fb9190610e4f565b60405180910390f35b61011e60048036038101906101199190610bb8565b6102fe565b005b61013a60048036038101906101359190610be5565b610394565b6040516101479190610e6a565b60405180910390f35b6101586103b3565b6040516101659190610f27565b60405180910390f35b61018860048036038101906101839190610c12565b6103bd565b005b6101a4600480360381019061019f9190610c12565b6103de565b005b6101ae610461565b6040516101bb9190610e6a565b60405180910390f35b6101de60048036038101906101d99190610bb8565b610485565b005b6101fa60048036038101906101f59190610c7f565b61051b565b005b61021660048036038101906102119190610c12565b61058e565b6040516102239190610e4f565b60405180910390f35b6102346105f8565b6040516102419190610e6a565b60405180910390f35b6102526105ff565b60405161025f9190610e6a565b60405180910390f35b610282600480360381019061027d9190610c12565b610623565b005b60007f7965db0b000000000000000000000000000000000000000000000000000000007bffffffffffffffffffffffffffffffffffffffffffffffffffffffff1916827bffffffffffffffffffffffffffffffffffffffffffffffffffffffff191614806102f757506102f682610644565b5b9050919050565b6103287f7e5b835f8ef15bb117d49cb6d0658113bc08d41d8a6edf12d3d1feb5c58753303361058e565b610367576040517f08c379a000000000000000000000000000000000000000000000000000000000815260040161035e90610ee7565b60405180910390fd5b6103917f3bd382f411bca881c98196b18edce31a82cf3847dab18082dd90c13022f62dfb826106ae565b50565b6000806000838152602001908152602001600020600101549050919050565b6000600154905090565b6103c682610394565b6103cf8161078e565b6103d983836106ae565b505050565b6103e66107a2565b73ffffffffffffffffffffffffffffffffffffffff168173ffffffffffffffffffffffffffffffffffffffff1614610453576040517f08c379a000000000000000000000000000000000000000000000000000000000815260040161044a90610f07565b60405180910390fd5b61045d82826107aa565b5050565b7f3bd382f411bca881c98196b18edce31a82cf3847dab18082dd90c13022f62dfb81565b6104af7f7e5b835f8ef15bb117d49cb6d0658113bc08d41d8a6edf12d3d1feb5c58753303361058e565b6104ee576040517f08c379a00000000000000000000000000000000000000000000000000000000081526004016104e590610ee7565b60405180910390fd5b6105187f3bd382f411bca881c98196b18edce31a82cf3847dab18082dd90c13022f62dfb826107aa565b50565b6105457f3bd382f411bca881c98196b18edce31a82cf3847dab18082dd90c13022f62dfb3361058e565b610584576040517f08c379a000000000000000000000000000000000000000000000000000000000815260040161057b90610ec7565b60405180910390fd5b8060018190555050565b600080600084815260200190815260200160002060000160008373ffffffffffffffffffffffffffffffffffffffff1673ffffffffffffffffffffffffffffffffffffffff16815260200190815260200160002060009054906101000a900460ff16905092915050565b6000801b81565b7f7e5b835f8ef15bb117d49cb6d0658113bc08d41d8a6edf12d3d1feb5c587533081565b61062c82610394565b6106358161078e565b61063f83836107aa565b505050565b60007f01ffc9a7000000000000000000000000000000000000000000000000000000007bffffffffffffffffffffffffffffffffffffffffffffffffffffffff1916827bffffffffffffffffffffffffffffffffffffffffffffffffffffffff1916149050919050565b6106b8828261058e565b61078a57600160008084815260200190815260200160002060000160008373ffffffffffffffffffffffffffffffffffffffff1673ffffffffffffffffffffffffffffffffffffffff16815260200190815260200160002060006101000a81548160ff02191690831515021790555061072f6107a2565b73ffffffffffffffffffffffffffffffffffffffff168173ffffffffffffffffffffffffffffffffffffffff16837f2f8788117e7eff1d82e926ec794901d17c78024a50270940304540a733656f0d60405160405180910390a45b5050565b61079f8161079a6107a2565b61088b565b50565b600033905090565b6107b4828261058e565b1561088757600080600084815260200190815260200160002060000160008373ffffffffffffffffffffffffffffffffffffffff1673ffffffffffffffffffffffffffffffffffffffff16815260200190815260200160002060006101000a81548160ff02191690831515021790555061082c6107a2565b73ffffffffffffffffffffffffffffffffffffffff168173ffffffffffffffffffffffffffffffffffffffff16837ff6391f5c32d9c69d2a47ea670b442974b53935d1edc7fd64eb21e047a839171b60405160405180910390a45b5050565b610895828261058e565b610924576108ba8173ffffffffffffffffffffffffffffffffffffffff166014610928565b6108c88360001c6020610928565b6040516020016108d9929190610e15565b6040516020818303038152906040526040517f08c379a000000000000000000000000000000000000000000000000000000000815260040161091b9190610e85565b60405180910390fd5b5050565b60606000600283600261093b9190610fbf565b6109459190610f69565b67ffffffffffffffff81111561095e5761095d611152565b5b6040519080825280601f01601f1916602001820160405280156109905781602001600182028036833780820191505090505b5090507f3000000000000000000000000000000000000000000000000000000000000000816000815181106109c8576109c7611123565b5b60200101907effffffffffffffffffffffffffffffffffffffffffffffffffffffffffffff1916908160001a9053507f780000000000000000000000000000000000000000000000000000000000000081600181518110610a2c57610a2b611123565b5b60200101907effffffffffffffffffffffffffffffffffffffffffffffffffffffffffffff1916908160001a90535060006001846002610a6c9190610fbf565b610a769190610f69565b90505b6001811115610b16577f3031323334353637383961626364656600000000000000000000000000000000600f861660108110610ab857610ab7611123565b5b1a60f81b828281518110610acf57610ace611123565b5b60200101907effffffffffffffffffffffffffffffffffffffffffffffffffffffffffffff1916908160001a905350600485901c945080610b0f906110ca565b9050610a79565b5060008414610b5a576040517f08c379a0000000000000000000000000000000000000000000000000000000008152600401610b5190610ea7565b60405180910390fd5b8091505092915050565b600081359050610b738161134b565b92915050565b600081359050610b8881611362565b92915050565b600081359050610b9d81611379565b92915050565b600081359050610bb281611390565b92915050565b600060208284031215610bce57610bcd611181565b5b6000610bdc84828501610b64565b91505092915050565b600060208284031215610bfb57610bfa611181565b5b6000610c0984828501610b79565b91505092915050565b60008060408385031215610c2957610c28611181565b5b6000610c3785828601610b79565b9250506020610c4885828601610b64565b9150509250929050565b600060208284031215610c6857610c67611181565b5b6000610c7684828501610b8e565b91505092915050565b600060208284031215610c9557610c94611181565b5b6000610ca384828501610ba3565b91505092915050565b610cb58161102b565b82525050565b610cc481611037565b82525050565b6000610cd582610f42565b610cdf8185610f4d565b9350610cef818560208601611097565b610cf881611186565b840191505092915050565b6000610d0e82610f42565b610d188185610f5e565b9350610d28818560208601611097565b80840191505092915050565b6000610d41602083610f4d565b9150610d4c82611197565b602082019050919050565b6000610d64604283610f4d565b9150610d6f826111c0565b606082019050919050565b6000610d87605a83610f4d565b9150610d9282611235565b606082019050919050565b6000610daa601783610f5e565b9150610db5826112aa565b601782019050919050565b6000610dcd601183610f5e565b9150610dd8826112d3565b601182019050919050565b6000610df0602f83610f4d565b9150610dfb826112fc565b604082019050919050565b610e0f8161108d565b82525050565b6000610e2082610d9d565b9150610e2c8285610d03565b9150610e3782610dc0565b9150610e438284610d03565b91508190509392505050565b6000602082019050610e646000830184610cac565b92915050565b6000602082019050610e7f6000830184610cbb565b92915050565b60006020820190508181036000830152610e9f8184610cca565b905092915050565b60006020820190508181036000830152610ec081610d34565b9050919050565b60006020820190508181036000830152610ee081610d57565b9050919050565b60006020820190508181036000830152610f0081610d7a565b9050919050565b60006020820190508181036000830152610f2081610de3565b9050919050565b6000602082019050610f3c6000830184610e06565b92915050565b600081519050919050565b600082825260208201905092915050565b600081905092915050565b6000610f748261108d565b9150610f7f8361108d565b9250827fffffffffffffffffffffffffffffffffffffffffffffffffffffffffffffffff03821115610fb457610fb36110f4565b5b828201905092915050565b6000610fca8261108d565b9150610fd58361108d565b9250817fffffffffffffffffffffffffffffffffffffffffffffffffffffffffffffffff048311821515161561100e5761100d6110f4565b5b828202905092915050565b60006110248261106d565b9050919050565b60008115159050919050565b6000819050919050565b60007fffffffff0000000000000000000000000000000000000000000000000000000082169050919050565b600073ffffffffffffffffffffffffffffffffffffffff82169050919050565b6000819050919050565b60005b838110156110b557808201518184015260208101905061109a565b838111156110c4576000848401525b50505050565b60006110d58261108d565b915060008214156110e9576110e86110f4565b5b600182039050919050565b7f4e487b7100000000000000000000000000000000000000000000000000000000600052601160045260246000fd5b7f4e487b7100000000000000000000000000000000000000000000000000000000600052603260045260246000fd5b7f4e487b7100000000000000000000000000000000000000000000000000000000600052604160045260246000fd5b600080fd5b6000601f19601f8301169050919050565b7f537472696e67733a20686578206c656e67746820696e73756666696369656e74600082015250565b7f456c207573756172696f206e6f207469656e6520656c20726f6c20575249544560008201527f52207061726120656a656375746172206c612066756e63696f6e2053746f726160208201527f6765000000000000000000000000000000000000000000000000000000000000604082015250565b7f456c207573756172696f206e6f207469656e6520656c20726f6c2041444d494e60008201527f207061726120656a656375746172206c612066756e63696f6e2064652067617260208201527f616e74697a6172206f207265766f636172207065726d69736f73000000000000604082015250565b7f416363657373436f6e74726f6c3a206163636f756e7420000000000000000000600082015250565b7f206973206d697373696e6720726f6c6520000000000000000000000000000000600082015250565b7f416363657373436f6e74726f6c3a2063616e206f6e6c792072656e6f756e636560008201527f20726f6c657320666f722073656c660000000000000000000000000000000000602082015250565b61135481611019565b811461135f57600080fd5b50565b61136b81611037565b811461137657600080fd5b50565b61138281611041565b811461138d57600080fd5b50565b6113998161108d565b81146113a457600080fd5b5056fea2646970667358221220634fc0a801b918744bcb089fc614b69274ba3882de2623f8d1872d153012514264736f6c63430008070033",
					"opcodes": "PUSH1 0x80 PUSH1 0x40 MSTORE CALLVALUE DUP1 ISZERO PUSH2 0x10 JUMPI PUSH1 0x0 DUP1 REVERT JUMPDEST POP PUSH2 0x13DD DUP1 PUSH2 0x20 PUSH1 0x0 CODECOPY PUSH1 0x0 RETURN INVALID PUSH1 0x80 PUSH1 0x40 MSTORE CALLVALUE DUP1 ISZERO PUSH2 0x10 JUMPI PUSH1 0x0 DUP1 REVERT JUMPDEST POP PUSH1 0x4 CALLDATASIZE LT PUSH2 0xCF JUMPI PUSH1 0x0 CALLDATALOAD PUSH1 0xE0 SHR DUP1 PUSH4 0x45D49420 GT PUSH2 0x8C JUMPI DUP1 PUSH4 0x91D14854 GT PUSH2 0x66 JUMPI DUP1 PUSH4 0x91D14854 EQ PUSH2 0x1FC JUMPI DUP1 PUSH4 0xA217FDDF EQ PUSH2 0x22C JUMPI DUP1 PUSH4 0xADEC03FC EQ PUSH2 0x24A JUMPI DUP1 PUSH4 0xD547741F EQ PUSH2 0x268 JUMPI PUSH2 0xCF JUMP JUMPDEST DUP1 PUSH4 0x45D49420 EQ PUSH2 0x1A6 JUMPI DUP1 PUSH4 0x4C2E19D0 EQ PUSH2 0x1C4 JUMPI DUP1 PUSH4 0x6057361D EQ PUSH2 0x1E0 JUMPI PUSH2 0xCF JUMP JUMPDEST DUP1 PUSH4 0x1FFC9A7 EQ PUSH2 0xD4 JUMPI DUP1 PUSH4 0x235EF56F EQ PUSH2 0x104 JUMPI DUP1 PUSH4 0x248A9CA3 EQ PUSH2 0x120 JUMPI DUP1 PUSH4 0x2E64CEC1 EQ PUSH2 0x150 JUMPI DUP1 PUSH4 0x2F2FF15D EQ PUSH2 0x16E JUMPI DUP1 PUSH4 0x36568ABE EQ PUSH2 0x18A JUMPI JUMPDEST PUSH1 0x0 DUP1 REVERT JUMPDEST PUSH2 0xEE PUSH1 0x4 DUP1 CALLDATASIZE SUB DUP2 ADD SWAP1 PUSH2 0xE9 SWAP2 SWAP1 PUSH2 0xC52 JUMP JUMPDEST PUSH2 0x284 JUMP JUMPDEST PUSH1 0x40 MLOAD PUSH2 0xFB SWAP2 SWAP1 PUSH2 0xE4F JUMP JUMPDEST PUSH1 0x40 MLOAD DUP1 SWAP2 SUB SWAP1 RETURN JUMPDEST PUSH2 0x11E PUSH1 0x4 DUP1 CALLDATASIZE SUB DUP2 ADD SWAP1 PUSH2 0x119 SWAP2 SWAP1 PUSH2 0xBB8 JUMP JUMPDEST PUSH2 0x2FE JUMP JUMPDEST STOP JUMPDEST PUSH2 0x13A PUSH1 0x4 DUP1 CALLDATASIZE SUB DUP2 ADD SWAP1 PUSH2 0x135 SWAP2 SWAP1 PUSH2 0xBE5 JUMP JUMPDEST PUSH2 0x394 JUMP JUMPDEST PUSH1 0x40 MLOAD PUSH2 0x147 SWAP2 SWAP1 PUSH2 0xE6A JUMP JUMPDEST PUSH1 0x40 MLOAD DUP1 SWAP2 SUB SWAP1 RETURN JUMPDEST PUSH2 0x158 PUSH2 0x3B3 JUMP JUMPDEST PUSH1 0x40 MLOAD PUSH2 0x165 SWAP2 SWAP1 PUSH2 0xF27 JUMP JUMPDEST PUSH1 0x40 MLOAD DUP1 SWAP2 SUB SWAP1 RETURN JUMPDEST PUSH2 0x188 PUSH1 0x4 DUP1 CALLDATASIZE SUB DUP2 ADD SWAP1 PUSH2 0x183 SWAP2 SWAP1 PUSH2 0xC12 JUMP JUMPDEST PUSH2 0x3BD JUMP JUMPDEST STOP JUMPDEST PUSH2 0x1A4 PUSH1 0x4 DUP1 CALLDATASIZE SUB DUP2 ADD SWAP1 PUSH2 0x19F SWAP2 SWAP1 PUSH2 0xC12 JUMP JUMPDEST PUSH2 0x3DE JUMP JUMPDEST STOP JUMPDEST PUSH2 0x1AE PUSH2 0x461 JUMP JUMPDEST PUSH1 0x40 MLOAD PUSH2 0x1BB SWAP2 SWAP1 PUSH2 0xE6A JUMP JUMPDEST PUSH1 0x40 MLOAD DUP1 SWAP2 SUB SWAP1 RETURN JUMPDEST PUSH2 0x1DE PUSH1 0x4 DUP1 CALLDATASIZE SUB DUP2 ADD SWAP1 PUSH2 0x1D9 SWAP2 SWAP1 PUSH2 0xBB8 JUMP JUMPDEST PUSH2 0x485 JUMP JUMPDEST STOP JUMPDEST PUSH2 0x1FA PUSH1 0x4 DUP1 CALLDATASIZE SUB DUP2 ADD SWAP1 PUSH2 0x1F5 SWAP2 SWAP1 PUSH2 0xC7F JUMP JUMPDEST PUSH2 0x51B JUMP JUMPDEST STOP JUMPDEST PUSH2 0x216 PUSH1 0x4 DUP1 CALLDATASIZE SUB DUP2 ADD SWAP1 PUSH2 0x211 SWAP2 SWAP1 PUSH2 0xC12 JUMP JUMPDEST PUSH2 0x58E JUMP JUMPDEST PUSH1 0x40 MLOAD PUSH2 0x223 SWAP2 SWAP1 PUSH2 0xE4F JUMP JUMPDEST PUSH1 0x40 MLOAD DUP1 SWAP2 SUB SWAP1 RETURN JUMPDEST PUSH2 0x234 PUSH2 0x5F8 JUMP JUMPDEST PUSH1 0x40 MLOAD PUSH2 0x241 SWAP2 SWAP1 PUSH2 0xE6A JUMP JUMPDEST PUSH1 0x40 MLOAD DUP1 SWAP2 SUB SWAP1 RETURN JUMPDEST PUSH2 0x252 PUSH2 0x5FF JUMP JUMPDEST PUSH1 0x40 MLOAD PUSH2 0x25F SWAP2 SWAP1 PUSH2 0xE6A JUMP JUMPDEST PUSH1 0x40 MLOAD DUP1 SWAP2 SUB SWAP1 RETURN JUMPDEST PUSH2 0x282 PUSH1 0x4 DUP1 CALLDATASIZE SUB DUP2 ADD SWAP1 PUSH2 0x27D SWAP2 SWAP1 PUSH2 0xC12 JUMP JUMPDEST PUSH2 0x623 JUMP JUMPDEST STOP JUMPDEST PUSH1 0x0 PUSH32 0x7965DB0B00000000000000000000000000000000000000000000000000000000 PUSH28 0xFFFFFFFFFFFFFFFFFFFFFFFFFFFFFFFFFFFFFFFFFFFFFFFFFFFFFFFF NOT AND DUP3 PUSH28 0xFFFFFFFFFFFFFFFFFFFFFFFFFFFFFFFFFFFFFFFFFFFFFFFFFFFFFFFF NOT AND EQ DUP1 PUSH2 0x2F7 JUMPI POP PUSH2 0x2F6 DUP3 PUSH2 0x644 JUMP JUMPDEST JUMPDEST SWAP1 POP SWAP2 SWAP1 POP JUMP JUMPDEST PUSH2 0x328 PUSH32 0x7E5B835F8EF15BB117D49CB6D0658113BC08D41D8A6EDF12D3D1FEB5C5875330 CALLER PUSH2 0x58E JUMP JUMPDEST PUSH2 0x367 JUMPI PUSH1 0x40 MLOAD PUSH32 0x8C379A000000000000000000000000000000000000000000000000000000000 DUP2 MSTORE PUSH1 0x4 ADD PUSH2 0x35E SWAP1 PUSH2 0xEE7 JUMP JUMPDEST PUSH1 0x40 MLOAD DUP1 SWAP2 SUB SWAP1 REVERT JUMPDEST PUSH2 0x391 PUSH32 0x3BD382F411BCA881C98196B18EDCE31A82CF3847DAB18082DD90C13022F62DFB DUP3 PUSH2 0x6AE JUMP JUMPDEST POP JUMP JUMPDEST PUSH1 0x0 DUP1 PUSH1 0x0 DUP4 DUP2 MSTORE PUSH1 0x20 ADD SWAP1 DUP2 MSTORE PUSH1 0x20 ADD PUSH1 0x0 KECCAK256 PUSH1 0x1 ADD SLOAD SWAP1 POP SWAP2 SWAP1 POP JUMP JUMPDEST PUSH1 0x0 PUSH1 0x1 SLOAD SWAP1 POP SWAP1 JUMP JUMPDEST PUSH2 0x3C6 DUP3 PUSH2 0x394 JUMP JUMPDEST PUSH2 0x3CF DUP2 PUSH2 0x78E JUMP JUMPDEST PUSH2 0x3D9 DUP4 DUP4 PUSH2 0x6AE JUMP JUMPDEST POP POP POP JUMP JUMPDEST PUSH2 0x3E6 PUSH2 0x7A2 JUMP JUMPDEST PUSH20 0xFFFFFFFFFFFFFFFFFFFFFFFFFFFFFFFFFFFFFFFF AND DUP2 PUSH20 0xFFFFFFFFFFFFFFFFFFFFFFFFFFFFFFFFFFFFFFFF AND EQ PUSH2 0x453 JUMPI PUSH1 0x40 MLOAD PUSH32 0x8C379A000000000000000000000000000000000000000000000000000000000 DUP2 MSTORE PUSH1 0x4 ADD PUSH2 0x44A SWAP1 PUSH2 0xF07 JUMP JUMPDEST PUSH1 0x40 MLOAD DUP1 SWAP2 SUB SWAP1 REVERT JUMPDEST PUSH2 0x45D DUP3 DUP3 PUSH2 0x7AA JUMP JUMPDEST POP POP JUMP JUMPDEST PUSH32 0x3BD382F411BCA881C98196B18EDCE31A82CF3847DAB18082DD90C13022F62DFB DUP2 JUMP JUMPDEST PUSH2 0x4AF PUSH32 0x7E5B835F8EF15BB117D49CB6D0658113BC08D41D8A6EDF12D3D1FEB5C5875330 CALLER PUSH2 0x58E JUMP JUMPDEST PUSH2 0x4EE JUMPI PUSH1 0x40 MLOAD PUSH32 0x8C379A000000000000000000000000000000000000000000000000000000000 DUP2 MSTORE PUSH1 0x4 ADD PUSH2 0x4E5 SWAP1 PUSH2 0xEE7 JUMP JUMPDEST PUSH1 0x40 MLOAD DUP1 SWAP2 SUB SWAP1 REVERT JUMPDEST PUSH2 0x518 PUSH32 0x3BD382F411BCA881C98196B18EDCE31A82CF3847DAB18082DD90C13022F62DFB DUP3 PUSH2 0x7AA JUMP JUMPDEST POP JUMP JUMPDEST PUSH2 0x545 PUSH32 0x3BD382F411BCA881C98196B18EDCE31A82CF3847DAB18082DD90C13022F62DFB CALLER PUSH2 0x58E JUMP JUMPDEST PUSH2 0x584 JUMPI PUSH1 0x40 MLOAD PUSH32 0x8C379A000000000000000000000000000000000000000000000000000000000 DUP2 MSTORE PUSH1 0x4 ADD PUSH2 0x57B SWAP1 PUSH2 0xEC7 JUMP JUMPDEST PUSH1 0x40 MLOAD DUP1 SWAP2 SUB SWAP1 REVERT JUMPDEST DUP1 PUSH1 0x1 DUP2 SWAP1 SSTORE POP POP JUMP JUMPDEST PUSH1 0x0 DUP1 PUSH1 0x0 DUP5 DUP2 MSTORE PUSH1 0x20 ADD SWAP1 DUP2 MSTORE PUSH1 0x20 ADD PUSH1 0x0 KECCAK256 PUSH1 0x0 ADD PUSH1 0x0 DUP4 PUSH20 0xFFFFFFFFFFFFFFFFFFFFFFFFFFFFFFFFFFFFFFFF AND PUSH20 0xFFFFFFFFFFFFFFFFFFFFFFFFFFFFFFFFFFFFFFFF AND DUP2 MSTORE PUSH1 0x20 ADD SWAP1 DUP2 MSTORE PUSH1 0x20 ADD PUSH1 0x0 KECCAK256 PUSH1 0x0 SWAP1 SLOAD SWAP1 PUSH2 0x100 EXP SWAP1 DIV PUSH1 0xFF AND SWAP1 POP SWAP3 SWAP2 POP POP JUMP JUMPDEST PUSH1 0x0 DUP1 SHL DUP2 JUMP JUMPDEST PUSH32 0x7E5B835F8EF15BB117D49CB6D0658113BC08D41D8A6EDF12D3D1FEB5C5875330 DUP2 JUMP JUMPDEST PUSH2 0x62C DUP3 PUSH2 0x394 JUMP JUMPDEST PUSH2 0x635 DUP2 PUSH2 0x78E JUMP JUMPDEST PUSH2 0x63F DUP4 DUP4 PUSH2 0x7AA JUMP JUMPDEST POP POP POP JUMP JUMPDEST PUSH1 0x0 PUSH32 0x1FFC9A700000000000000000000000000000000000000000000000000000000 PUSH28 0xFFFFFFFFFFFFFFFFFFFFFFFFFFFFFFFFFFFFFFFFFFFFFFFFFFFFFFFF NOT AND DUP3 PUSH28 0xFFFFFFFFFFFFFFFFFFFFFFFFFFFFFFFFFFFFFFFFFFFFFFFFFFFFFFFF NOT AND EQ SWAP1 POP SWAP2 SWAP1 POP JUMP JUMPDEST PUSH2 0x6B8 DUP3 DUP3 PUSH2 0x58E JUMP JUMPDEST PUSH2 0x78A JUMPI PUSH1 0x1 PUSH1 0x0 DUP1 DUP5 DUP2 MSTORE PUSH1 0x20 ADD SWAP1 DUP2 MSTORE PUSH1 0x20 ADD PUSH1 0x0 KECCAK256 PUSH1 0x0 ADD PUSH1 0x0 DUP4 PUSH20 0xFFFFFFFFFFFFFFFFFFFFFFFFFFFFFFFFFFFFFFFF AND PUSH20 0xFFFFFFFFFFFFFFFFFFFFFFFFFFFFFFFFFFFFFFFF AND DUP2 MSTORE PUSH1 0x20 ADD SWAP1 DUP2 MSTORE PUSH1 0x20 ADD PUSH1 0x0 KECCAK256 PUSH1 0x0 PUSH2 0x100 EXP DUP2 SLOAD DUP2 PUSH1 0xFF MUL NOT AND SWAP1 DUP4 ISZERO ISZERO MUL OR SWAP1 SSTORE POP PUSH2 0x72F PUSH2 0x7A2 JUMP JUMPDEST PUSH20 0xFFFFFFFFFFFFFFFFFFFFFFFFFFFFFFFFFFFFFFFF AND DUP2 PUSH20 0xFFFFFFFFFFFFFFFFFFFFFFFFFFFFFFFFFFFFFFFF AND DUP4 PUSH32 0x2F8788117E7EFF1D82E926EC794901D17C78024A50270940304540A733656F0D PUSH1 0x40 MLOAD PUSH1 0x40 MLOAD DUP1 SWAP2 SUB SWAP1 LOG4 JUMPDEST POP POP JUMP JUMPDEST PUSH2 0x79F DUP2 PUSH2 0x79A PUSH2 0x7A2 JUMP JUMPDEST PUSH2 0x88B JUMP JUMPDEST POP JUMP JUMPDEST PUSH1 0x0 CALLER SWAP1 POP SWAP1 JUMP JUMPDEST PUSH2 0x7B4 DUP3 DUP3 PUSH2 0x58E JUMP JUMPDEST ISZERO PUSH2 0x887 JUMPI PUSH1 0x0 DUP1 PUSH1 0x0 DUP5 DUP2 MSTORE PUSH1 0x20 ADD SWAP1 DUP2 MSTORE PUSH1 0x20 ADD PUSH1 0x0 KECCAK256 PUSH1 0x0 ADD PUSH1 0x0 DUP4 PUSH20 0xFFFFFFFFFFFFFFFFFFFFFFFFFFFFFFFFFFFFFFFF AND PUSH20 0xFFFFFFFFFFFFFFFFFFFFFFFFFFFFFFFFFFFFFFFF AND DUP2 MSTORE PUSH1 0x20 ADD SWAP1 DUP2 MSTORE PUSH1 0x20 ADD PUSH1 0x0 KECCAK256 PUSH1 0x0 PUSH2 0x100 EXP DUP2 SLOAD DUP2 PUSH1 0xFF MUL NOT AND SWAP1 DUP4 ISZERO ISZERO MUL OR SWAP1 SSTORE POP PUSH2 0x82C PUSH2 0x7A2 JUMP JUMPDEST PUSH20 0xFFFFFFFFFFFFFFFFFFFFFFFFFFFFFFFFFFFFFFFF AND DUP2 PUSH20 0xFFFFFFFFFFFFFFFFFFFFFFFFFFFFFFFFFFFFFFFF AND DUP4 PUSH32 0xF6391F5C32D9C69D2A47EA670B442974B53935D1EDC7FD64EB21E047A839171B PUSH1 0x40 MLOAD PUSH1 0x40 MLOAD DUP1 SWAP2 SUB SWAP1 LOG4 JUMPDEST POP POP JUMP JUMPDEST PUSH2 0x895 DUP3 DUP3 PUSH2 0x58E JUMP JUMPDEST PUSH2 0x924 JUMPI PUSH2 0x8BA DUP2 PUSH20 0xFFFFFFFFFFFFFFFFFFFFFFFFFFFFFFFFFFFFFFFF AND PUSH1 0x14 PUSH2 0x928 JUMP JUMPDEST PUSH2 0x8C8 DUP4 PUSH1 0x0 SHR PUSH1 0x20 PUSH2 0x928 JUMP JUMPDEST PUSH1 0x40 MLOAD PUSH1 0x20 ADD PUSH2 0x8D9 SWAP3 SWAP2 SWAP1 PUSH2 0xE15 JUMP JUMPDEST PUSH1 0x40 MLOAD PUSH1 0x20 DUP2 DUP4 SUB SUB DUP2 MSTORE SWAP1 PUSH1 0x40 MSTORE PUSH1 0x40 MLOAD PUSH32 0x8C379A000000000000000000000000000000000000000000000000000000000 DUP2 MSTORE PUSH1 0x4 ADD PUSH2 0x91B SWAP2 SWAP1 PUSH2 0xE85 JUMP JUMPDEST PUSH1 0x40 MLOAD DUP1 SWAP2 SUB SWAP1 REVERT JUMPDEST POP POP JUMP JUMPDEST PUSH1 0x60 PUSH1 0x0 PUSH1 0x2 DUP4 PUSH1 0x2 PUSH2 0x93B SWAP2 SWAP1 PUSH2 0xFBF JUMP JUMPDEST PUSH2 0x945 SWAP2 SWAP1 PUSH2 0xF69 JUMP JUMPDEST PUSH8 0xFFFFFFFFFFFFFFFF DUP2 GT ISZERO PUSH2 0x95E JUMPI PUSH2 0x95D PUSH2 0x1152 JUMP JUMPDEST JUMPDEST PUSH1 0x40 MLOAD SWAP1 DUP1 DUP3 MSTORE DUP1 PUSH1 0x1F ADD PUSH1 0x1F NOT AND PUSH1 0x20 ADD DUP3 ADD PUSH1 0x40 MSTORE DUP1 ISZERO PUSH2 0x990 JUMPI DUP2 PUSH1 0x20 ADD PUSH1 0x1 DUP3 MUL DUP1 CALLDATASIZE DUP4 CALLDATACOPY DUP1 DUP3 ADD SWAP2 POP POP SWAP1 POP JUMPDEST POP SWAP1 POP PUSH32 0x3000000000000000000000000000000000000000000000000000000000000000 DUP2 PUSH1 0x0 DUP2 MLOAD DUP2 LT PUSH2 0x9C8 JUMPI PUSH2 0x9C7 PUSH2 0x1123 JUMP JUMPDEST JUMPDEST PUSH1 0x20 ADD ADD SWAP1 PUSH31 0xFFFFFFFFFFFFFFFFFFFFFFFFFFFFFFFFFFFFFFFFFFFFFFFFFFFFFFFFFFFFFF NOT AND SWAP1 DUP2 PUSH1 0x0 BYTE SWAP1 MSTORE8 POP PUSH32 0x7800000000000000000000000000000000000000000000000000000000000000 DUP2 PUSH1 0x1 DUP2 MLOAD DUP2 LT PUSH2 0xA2C JUMPI PUSH2 0xA2B PUSH2 0x1123 JUMP JUMPDEST JUMPDEST PUSH1 0x20 ADD ADD SWAP1 PUSH31 0xFFFFFFFFFFFFFFFFFFFFFFFFFFFFFFFFFFFFFFFFFFFFFFFFFFFFFFFFFFFFFF NOT AND SWAP1 DUP2 PUSH1 0x0 BYTE SWAP1 MSTORE8 POP PUSH1 0x0 PUSH1 0x1 DUP5 PUSH1 0x2 PUSH2 0xA6C SWAP2 SWAP1 PUSH2 0xFBF JUMP JUMPDEST PUSH2 0xA76 SWAP2 SWAP1 PUSH2 0xF69 JUMP JUMPDEST SWAP1 POP JUMPDEST PUSH1 0x1 DUP2 GT ISZERO PUSH2 0xB16 JUMPI PUSH32 0x3031323334353637383961626364656600000000000000000000000000000000 PUSH1 0xF DUP7 AND PUSH1 0x10 DUP2 LT PUSH2 0xAB8 JUMPI PUSH2 0xAB7 PUSH2 0x1123 JUMP JUMPDEST JUMPDEST BYTE PUSH1 0xF8 SHL DUP3 DUP3 DUP2 MLOAD DUP2 LT PUSH2 0xACF JUMPI PUSH2 0xACE PUSH2 0x1123 JUMP JUMPDEST JUMPDEST PUSH1 0x20 ADD ADD SWAP1 PUSH31 0xFFFFFFFFFFFFFFFFFFFFFFFFFFFFFFFFFFFFFFFFFFFFFFFFFFFFFFFFFFFFFF NOT AND SWAP1 DUP2 PUSH1 0x0 BYTE SWAP1 MSTORE8 POP PUSH1 0x4 DUP6 SWAP1 SHR SWAP5 POP DUP1 PUSH2 0xB0F SWAP1 PUSH2 0x10CA JUMP JUMPDEST SWAP1 POP PUSH2 0xA79 JUMP JUMPDEST POP PUSH1 0x0 DUP5 EQ PUSH2 0xB5A JUMPI PUSH1 0x40 MLOAD PUSH32 0x8C379A000000000000000000000000000000000000000000000000000000000 DUP2 MSTORE PUSH1 0x4 ADD PUSH2 0xB51 SWAP1 PUSH2 0xEA7 JUMP JUMPDEST PUSH1 0x40 MLOAD DUP1 SWAP2 SUB SWAP1 REVERT JUMPDEST DUP1 SWAP2 POP POP SWAP3 SWAP2 POP POP JUMP JUMPDEST PUSH1 0x0 DUP2 CALLDATALOAD SWAP1 POP PUSH2 0xB73 DUP2 PUSH2 0x134B JUMP JUMPDEST SWAP3 SWAP2 POP POP JUMP JUMPDEST PUSH1 0x0 DUP2 CALLDATALOAD SWAP1 POP PUSH2 0xB88 DUP2 PUSH2 0x1362 JUMP JUMPDEST SWAP3 SWAP2 POP POP JUMP JUMPDEST PUSH1 0x0 DUP2 CALLDATALOAD SWAP1 POP PUSH2 0xB9D DUP2 PUSH2 0x1379 JUMP JUMPDEST SWAP3 SWAP2 POP POP JUMP JUMPDEST PUSH1 0x0 DUP2 CALLDATALOAD SWAP1 POP PUSH2 0xBB2 DUP2 PUSH2 0x1390 JUMP JUMPDEST SWAP3 SWAP2 POP POP JUMP JUMPDEST PUSH1 0x0 PUSH1 0x20 DUP3 DUP5 SUB SLT ISZERO PUSH2 0xBCE JUMPI PUSH2 0xBCD PUSH2 0x1181 JUMP JUMPDEST JUMPDEST PUSH1 0x0 PUSH2 0xBDC DUP5 DUP3 DUP6 ADD PUSH2 0xB64 JUMP JUMPDEST SWAP2 POP POP SWAP3 SWAP2 POP POP JUMP JUMPDEST PUSH1 0x0 PUSH1 0x20 DUP3 DUP5 SUB SLT ISZERO PUSH2 0xBFB JUMPI PUSH2 0xBFA PUSH2 0x1181 JUMP JUMPDEST JUMPDEST PUSH1 0x0 PUSH2 0xC09 DUP5 DUP3 DUP6 ADD PUSH2 0xB79 JUMP JUMPDEST SWAP2 POP POP SWAP3 SWAP2 POP POP JUMP JUMPDEST PUSH1 0x0 DUP1 PUSH1 0x40 DUP4 DUP6 SUB SLT ISZERO PUSH2 0xC29 JUMPI PUSH2 0xC28 PUSH2 0x1181 JUMP JUMPDEST JUMPDEST PUSH1 0x0 PUSH2 0xC37 DUP6 DUP3 DUP7 ADD PUSH2 0xB79 JUMP JUMPDEST SWAP3 POP POP PUSH1 0x20 PUSH2 0xC48 DUP6 DUP3 DUP7 ADD PUSH2 0xB64 JUMP JUMPDEST SWAP2 POP POP SWAP3 POP SWAP3 SWAP1 POP JUMP JUMPDEST PUSH1 0x0 PUSH1 0x20 DUP3 DUP5 SUB SLT ISZERO PUSH2 0xC68 JUMPI PUSH2 0xC67 PUSH2 0x1181 JUMP JUMPDEST JUMPDEST PUSH1 0x0 PUSH2 0xC76 DUP5 DUP3 DUP6 ADD PUSH2 0xB8E JUMP JUMPDEST SWAP2 POP POP SWAP3 SWAP2 POP POP JUMP JUMPDEST PUSH1 0x0 PUSH1 0x20 DUP3 DUP5 SUB SLT ISZERO PUSH2 0xC95 JUMPI PUSH2 0xC94 PUSH2 0x1181 JUMP JUMPDEST JUMPDEST PUSH1 0x0 PUSH2 0xCA3 DUP5 DUP3 DUP6 ADD PUSH2 0xBA3 JUMP JUMPDEST SWAP2 POP POP SWAP3 SWAP2 POP POP JUMP JUMPDEST PUSH2 0xCB5 DUP2 PUSH2 0x102B JUMP JUMPDEST DUP3 MSTORE POP POP JUMP JUMPDEST PUSH2 0xCC4 DUP2 PUSH2 0x1037 JUMP JUMPDEST DUP3 MSTORE POP POP JUMP JUMPDEST PUSH1 0x0 PUSH2 0xCD5 DUP3 PUSH2 0xF42 JUMP JUMPDEST PUSH2 0xCDF DUP2 DUP6 PUSH2 0xF4D JUMP JUMPDEST SWAP4 POP PUSH2 0xCEF DUP2 DUP6 PUSH1 0x20 DUP7 ADD PUSH2 0x1097 JUMP JUMPDEST PUSH2 0xCF8 DUP2 PUSH2 0x1186 JUMP JUMPDEST DUP5 ADD SWAP2 POP POP SWAP3 SWAP2 POP POP JUMP JUMPDEST PUSH1 0x0 PUSH2 0xD0E DUP3 PUSH2 0xF42 JUMP JUMPDEST PUSH2 0xD18 DUP2 DUP6 PUSH2 0xF5E JUMP JUMPDEST SWAP4 POP PUSH2 0xD28 DUP2 DUP6 PUSH1 0x20 DUP7 ADD PUSH2 0x1097 JUMP JUMPDEST DUP1 DUP5 ADD SWAP2 POP POP SWAP3 SWAP2 POP POP JUMP JUMPDEST PUSH1 0x0 PUSH2 0xD41 PUSH1 0x20 DUP4 PUSH2 0xF4D JUMP JUMPDEST SWAP2 POP PUSH2 0xD4C DUP3 PUSH2 0x1197 JUMP JUMPDEST PUSH1 0x20 DUP3 ADD SWAP1 POP SWAP2 SWAP1 POP JUMP JUMPDEST PUSH1 0x0 PUSH2 0xD64 PUSH1 0x42 DUP4 PUSH2 0xF4D JUMP JUMPDEST SWAP2 POP PUSH2 0xD6F DUP3 PUSH2 0x11C0 JUMP JUMPDEST PUSH1 0x60 DUP3 ADD SWAP1 POP SWAP2 SWAP1 POP JUMP JUMPDEST PUSH1 0x0 PUSH2 0xD87 PUSH1 0x5A DUP4 PUSH2 0xF4D JUMP JUMPDEST SWAP2 POP PUSH2 0xD92 DUP3 PUSH2 0x1235 JUMP JUMPDEST PUSH1 0x60 DUP3 ADD SWAP1 POP SWAP2 SWAP1 POP JUMP JUMPDEST PUSH1 0x0 PUSH2 0xDAA PUSH1 0x17 DUP4 PUSH2 0xF5E JUMP JUMPDEST SWAP2 POP PUSH2 0xDB5 DUP3 PUSH2 0x12AA JUMP JUMPDEST PUSH1 0x17 DUP3 ADD SWAP1 POP SWAP2 SWAP1 POP JUMP JUMPDEST PUSH1 0x0 PUSH2 0xDCD PUSH1 0x11 DUP4 PUSH2 0xF5E JUMP JUMPDEST SWAP2 POP PUSH2 0xDD8 DUP3 PUSH2 0x12D3 JUMP JUMPDEST PUSH1 0x11 DUP3 ADD SWAP1 POP SWAP2 SWAP1 POP JUMP JUMPDEST PUSH1 0x0 PUSH2 0xDF0 PUSH1 0x2F DUP4 PUSH2 0xF4D JUMP JUMPDEST SWAP2 POP PUSH2 0xDFB DUP3 PUSH2 0x12FC JUMP JUMPDEST PUSH1 0x40 DUP3 ADD SWAP1 POP SWAP2 SWAP1 POP JUMP JUMPDEST PUSH2 0xE0F DUP2 PUSH2 0x108D JUMP JUMPDEST DUP3 MSTORE POP POP JUMP JUMPDEST PUSH1 0x0 PUSH2 0xE20 DUP3 PUSH2 0xD9D JUMP JUMPDEST SWAP2 POP PUSH2 0xE2C DUP3 DUP6 PUSH2 0xD03 JUMP JUMPDEST SWAP2 POP PUSH2 0xE37 DUP3 PUSH2 0xDC0 JUMP JUMPDEST SWAP2 POP PUSH2 0xE43 DUP3 DUP5 PUSH2 0xD03 JUMP JUMPDEST SWAP2 POP DUP2 SWAP1 POP SWAP4 SWAP3 POP POP POP JUMP JUMPDEST PUSH1 0x0 PUSH1 0x20 DUP3 ADD SWAP1 POP PUSH2 0xE64 PUSH1 0x0 DUP4 ADD DUP5 PUSH2 0xCAC JUMP JUMPDEST SWAP3 SWAP2 POP POP JUMP JUMPDEST PUSH1 0x0 PUSH1 0x20 DUP3 ADD SWAP1 POP PUSH2 0xE7F PUSH1 0x0 DUP4 ADD DUP5 PUSH2 0xCBB JUMP JUMPDEST SWAP3 SWAP2 POP POP JUMP JUMPDEST PUSH1 0x0 PUSH1 0x20 DUP3 ADD SWAP1 POP DUP2 DUP2 SUB PUSH1 0x0 DUP4 ADD MSTORE PUSH2 0xE9F DUP2 DUP5 PUSH2 0xCCA JUMP JUMPDEST SWAP1 POP SWAP3 SWAP2 POP POP JUMP JUMPDEST PUSH1 0x0 PUSH1 0x20 DUP3 ADD SWAP1 POP DUP2 DUP2 SUB PUSH1 0x0 DUP4 ADD MSTORE PUSH2 0xEC0 DUP2 PUSH2 0xD34 JUMP JUMPDEST SWAP1 POP SWAP2 SWAP1 POP JUMP JUMPDEST PUSH1 0x0 PUSH1 0x20 DUP3 ADD SWAP1 POP DUP2 DUP2 SUB PUSH1 0x0 DUP4 ADD MSTORE PUSH2 0xEE0 DUP2 PUSH2 0xD57 JUMP JUMPDEST SWAP1 POP SWAP2 SWAP1 POP JUMP JUMPDEST PUSH1 0x0 PUSH1 0x20 DUP3 ADD SWAP1 POP DUP2 DUP2 SUB PUSH1 0x0 DUP4 ADD MSTORE PUSH2 0xF00 DUP2 PUSH2 0xD7A JUMP JUMPDEST SWAP1 POP SWAP2 SWAP1 POP JUMP JUMPDEST PUSH1 0x0 PUSH1 0x20 DUP3 ADD SWAP1 POP DUP2 DUP2 SUB PUSH1 0x0 DUP4 ADD MSTORE PUSH2 0xF20 DUP2 PUSH2 0xDE3 JUMP JUMPDEST SWAP1 POP SWAP2 SWAP1 POP JUMP JUMPDEST PUSH1 0x0 PUSH1 0x20 DUP3 ADD SWAP1 POP PUSH2 0xF3C PUSH1 0x0 DUP4 ADD DUP5 PUSH2 0xE06 JUMP JUMPDEST SWAP3 SWAP2 POP POP JUMP JUMPDEST PUSH1 0x0 DUP2 MLOAD SWAP1 POP SWAP2 SWAP1 POP JUMP JUMPDEST PUSH1 0x0 DUP3 DUP3 MSTORE PUSH1 0x20 DUP3 ADD SWAP1 POP SWAP3 SWAP2 POP POP JUMP JUMPDEST PUSH1 0x0 DUP2 SWAP1 POP SWAP3 SWAP2 POP POP JUMP JUMPDEST PUSH1 0x0 PUSH2 0xF74 DUP3 PUSH2 0x108D JUMP JUMPDEST SWAP2 POP PUSH2 0xF7F DUP4 PUSH2 0x108D JUMP JUMPDEST SWAP3 POP DUP3 PUSH32 0xFFFFFFFFFFFFFFFFFFFFFFFFFFFFFFFFFFFFFFFFFFFFFFFFFFFFFFFFFFFFFFFF SUB DUP3 GT ISZERO PUSH2 0xFB4 JUMPI PUSH2 0xFB3 PUSH2 0x10F4 JUMP JUMPDEST JUMPDEST DUP3 DUP3 ADD SWAP1 POP SWAP3 SWAP2 POP POP JUMP JUMPDEST PUSH1 0x0 PUSH2 0xFCA DUP3 PUSH2 0x108D JUMP JUMPDEST SWAP2 POP PUSH2 0xFD5 DUP4 PUSH2 0x108D JUMP JUMPDEST SWAP3 POP DUP2 PUSH32 0xFFFFFFFFFFFFFFFFFFFFFFFFFFFFFFFFFFFFFFFFFFFFFFFFFFFFFFFFFFFFFFFF DIV DUP4 GT DUP3 ISZERO ISZERO AND ISZERO PUSH2 0x100E JUMPI PUSH2 0x100D PUSH2 0x10F4 JUMP JUMPDEST JUMPDEST DUP3 DUP3 MUL SWAP1 POP SWAP3 SWAP2 POP POP JUMP JUMPDEST PUSH1 0x0 PUSH2 0x1024 DUP3 PUSH2 0x106D JUMP JUMPDEST SWAP1 POP SWAP2 SWAP1 POP JUMP JUMPDEST PUSH1 0x0 DUP2 ISZERO ISZERO SWAP1 POP SWAP2 SWAP1 POP JUMP JUMPDEST PUSH1 0x0 DUP2 SWAP1 POP SWAP2 SWAP1 POP JUMP JUMPDEST PUSH1 0x0 PUSH32 0xFFFFFFFF00000000000000000000000000000000000000000000000000000000 DUP3 AND SWAP1 POP SWAP2 SWAP1 POP JUMP JUMPDEST PUSH1 0x0 PUSH20 0xFFFFFFFFFFFFFFFFFFFFFFFFFFFFFFFFFFFFFFFF DUP3 AND SWAP1 POP SWAP2 SWAP1 POP JUMP JUMPDEST PUSH1 0x0 DUP2 SWAP1 POP SWAP2 SWAP1 POP JUMP JUMPDEST PUSH1 0x0 JUMPDEST DUP4 DUP2 LT ISZERO PUSH2 0x10B5 JUMPI DUP1 DUP3 ADD MLOAD DUP2 DUP5 ADD MSTORE PUSH1 0x20 DUP2 ADD SWAP1 POP PUSH2 0x109A JUMP JUMPDEST DUP4 DUP2 GT ISZERO PUSH2 0x10C4 JUMPI PUSH1 0x0 DUP5 DUP5 ADD MSTORE JUMPDEST POP POP POP POP JUMP JUMPDEST PUSH1 0x0 PUSH2 0x10D5 DUP3 PUSH2 0x108D JUMP JUMPDEST SWAP2 POP PUSH1 0x0 DUP3 EQ ISZERO PUSH2 0x10E9 JUMPI PUSH2 0x10E8 PUSH2 0x10F4 JUMP JUMPDEST JUMPDEST PUSH1 0x1 DUP3 SUB SWAP1 POP SWAP2 SWAP1 POP JUMP JUMPDEST PUSH32 0x4E487B7100000000000000000000000000000000000000000000000000000000 PUSH1 0x0 MSTORE PUSH1 0x11 PUSH1 0x4 MSTORE PUSH1 0x24 PUSH1 0x0 REVERT JUMPDEST PUSH32 0x4E487B7100000000000000000000000000000000000000000000000000000000 PUSH1 0x0 MSTORE PUSH1 0x32 PUSH1 0x4 MSTORE PUSH1 0x24 PUSH1 0x0 REVERT JUMPDEST PUSH32 0x4E487B7100000000000000000000000000000000000000000000000000000000 PUSH1 0x0 MSTORE PUSH1 0x41 PUSH1 0x4 MSTORE PUSH1 0x24 PUSH1 0x0 REVERT JUMPDEST PUSH1 0x0 DUP1 REVERT JUMPDEST PUSH1 0x0 PUSH1 0x1F NOT PUSH1 0x1F DUP4 ADD AND SWAP1 POP SWAP2 SWAP1 POP JUMP JUMPDEST PUSH32 0x537472696E67733A20686578206C656E67746820696E73756666696369656E74 PUSH1 0x0 DUP3 ADD MSTORE POP JUMP JUMPDEST PUSH32 0x456C207573756172696F206E6F207469656E6520656C20726F6C205752495445 PUSH1 0x0 DUP3 ADD MSTORE PUSH32 0x52207061726120656A656375746172206C612066756E63696F6E2053746F7261 PUSH1 0x20 DUP3 ADD MSTORE PUSH32 0x6765000000000000000000000000000000000000000000000000000000000000 PUSH1 0x40 DUP3 ADD MSTORE POP JUMP JUMPDEST PUSH32 0x456C207573756172696F206E6F207469656E6520656C20726F6C2041444D494E PUSH1 0x0 DUP3 ADD MSTORE PUSH32 0x207061726120656A656375746172206C612066756E63696F6E20646520676172 PUSH1 0x20 DUP3 ADD MSTORE PUSH32 0x616E74697A6172206F207265766F636172207065726D69736F73000000000000 PUSH1 0x40 DUP3 ADD MSTORE POP JUMP JUMPDEST PUSH32 0x416363657373436F6E74726F6C3A206163636F756E7420000000000000000000 PUSH1 0x0 DUP3 ADD MSTORE POP JUMP JUMPDEST PUSH32 0x206973206D697373696E6720726F6C6520000000000000000000000000000000 PUSH1 0x0 DUP3 ADD MSTORE POP JUMP JUMPDEST PUSH32 0x416363657373436F6E74726F6C3A2063616E206F6E6C792072656E6F756E6365 PUSH1 0x0 DUP3 ADD MSTORE PUSH32 0x20726F6C657320666F722073656C660000000000000000000000000000000000 PUSH1 0x20 DUP3 ADD MSTORE POP JUMP JUMPDEST PUSH2 0x1354 DUP2 PUSH2 0x1019 JUMP JUMPDEST DUP2 EQ PUSH2 0x135F JUMPI PUSH1 0x0 DUP1 REVERT JUMPDEST POP JUMP JUMPDEST PUSH2 0x136B DUP2 PUSH2 0x1037 JUMP JUMPDEST DUP2 EQ PUSH2 0x1376 JUMPI PUSH1 0x0 DUP1 REVERT JUMPDEST POP JUMP JUMPDEST PUSH2 0x1382 DUP2 PUSH2 0x1041 JUMP JUMPDEST DUP2 EQ PUSH2 0x138D JUMPI PUSH1 0x0 DUP1 REVERT JUMPDEST POP JUMP JUMPDEST PUSH2 0x1399 DUP2 PUSH2 0x108D JUMP JUMPDEST DUP2 EQ PUSH2 0x13A4 JUMPI PUSH1 0x0 DUP1 REVERT JUMPDEST POP JUMP INVALID LOG2 PUSH5 0x6970667358 0x22 SLT KECCAK256 PUSH4 0x4FC0A801 0xB9 XOR PUSH21 0x4BCB089FC614B69274BA3882DE2623F8D1872D1530 SLT MLOAD TIMESTAMP PUSH5 0x736F6C6343 STOP ADDMOD SMOD STOP CALLER "
				},
				"gasEstimates": {
					"creation": {
						"codeDepositCost": "1017000",
						"executionCost": "1054",
						"totalCost": "1018054"
					},
					"external": {
						"DEFAULT_ADMIN_ROLE()": "379",
						"ROL_ADMIN()": "395",
						"ROL_WRITER()": "352",
						"agregarWriter(address)": "infinite",
						"getRoleAdmin(bytes32)": "infinite",
						"grantRole(bytes32,address)": "infinite",
						"hasRole(bytes32,address)": "3162",
						"quitarWriter(address)": "infinite",
						"renounceRole(bytes32,address)": "infinite",
						"retrieve()": "2504",
						"revokeRole(bytes32,address)": "infinite",
						"store(uint256)": "24961",
						"supportsInterface(bytes4)": "728"
					}
				},
				"methodIdentifiers": {
					"DEFAULT_ADMIN_ROLE()": "a217fddf",
					"ROL_ADMIN()": "adec03fc",
					"ROL_WRITER()": "45d49420",
					"agregarWriter(address)": "235ef56f",
					"getRoleAdmin(bytes32)": "248a9ca3",
					"grantRole(bytes32,address)": "2f2ff15d",
					"hasRole(bytes32,address)": "91d14854",
					"quitarWriter(address)": "4c2e19d0",
					"renounceRole(bytes32,address)": "36568abe",
					"retrieve()": "2e64cec1",
					"revokeRole(bytes32,address)": "d547741f",
					"store(uint256)": "6057361d",
					"supportsInterface(bytes4)": "01ffc9a7"
				}
			},
			"storageLayout": {
				"storage": [
					{
						"astId": 24,
						"contract": "contracts/Openzeppelin/ControlAccesoReto.sol:ControlAccesoReto",
						"label": "_roles",
						"offset": 0,
						"slot": "0",
						"type": "t_mapping(t_bytes32,t_struct(RoleData)19_storage)"
					},
					{
						"astId": 684,
						"contract": "contracts/Openzeppelin/ControlAccesoReto.sol:ControlAccesoReto",
						"label": "number",
						"offset": 0,
						"slot": "1",
						"type": "t_uint256"
					}
				],
				"types": {
					"t_address": {
						"encoding": "inplace",
						"label": "address",
						"numberOfBytes": "20"
					},
					"t_bool": {
						"encoding": "inplace",
						"label": "bool",
						"numberOfBytes": "1"
					},
					"t_bytes32": {
						"encoding": "inplace",
						"label": "bytes32",
						"numberOfBytes": "32"
					},
					"t_mapping(t_address,t_bool)": {
						"encoding": "mapping",
						"key": "t_address",
						"label": "mapping(address => bool)",
						"numberOfBytes": "32",
						"value": "t_bool"
					},
					"t_mapping(t_bytes32,t_struct(RoleData)19_storage)": {
						"encoding": "mapping",
						"key": "t_bytes32",
						"label": "mapping(bytes32 => struct AccessControl.RoleData)",
						"numberOfBytes": "32",
						"value": "t_struct(RoleData)19_storage"
					},
					"t_struct(RoleData)19_storage": {
						"encoding": "inplace",
						"label": "struct AccessControl.RoleData",
						"members": [
							{
								"astId": 16,
								"contract": "contracts/Openzeppelin/ControlAccesoReto.sol:ControlAccesoReto",
								"label": "members",
								"offset": 0,
								"slot": "0",
								"type": "t_mapping(t_address,t_bool)"
							},
							{
								"astId": 18,
								"contract": "contracts/Openzeppelin/ControlAccesoReto.sol:ControlAccesoReto",
								"label": "adminRole",
								"offset": 0,
								"slot": "1",
								"type": "t_bytes32"
							}
						],
						"numberOfBytes": "64"
					},
					"t_uint256": {
						"encoding": "inplace",
						"label": "uint256",
						"numberOfBytes": "32"
					}
				}
			},
			"userdoc": {
				"kind": "user",
				"methods": {},
				"version": 1
			}
		}
	}
}