{
	"contracts/SupplyChain/SupplyChain.sol": {
		"SupplyChain": {
			"abi": [
				{
					"anonymous": false,
					"inputs": [
						{
							"indexed": false,
							"internalType": "uint256",
							"name": "productId",
							"type": "uint256"
						},
						{
							"indexed": false,
							"internalType": "enum SupplyChain.Status",
							"name": "status",
							"type": "uint8"
						},
						{
							"indexed": false,
							"internalType": "string",
							"name": "metadata",
							"type": "string"
						},
						{
							"indexed": false,
							"internalType": "address",
							"name": "author",
							"type": "address"
						}
					],
					"name": "RegisteredStep",
					"type": "event"
				},
				{
					"inputs": [
						{
							"internalType": "uint256",
							"name": "",
							"type": "uint256"
						},
						{
							"internalType": "uint256",
							"name": "",
							"type": "uint256"
						}
					],
					"name": "products",
					"outputs": [
						{
							"internalType": "enum SupplyChain.Status",
							"name": "status",
							"type": "uint8"
						},
						{
							"internalType": "string",
							"name": "metadata",
							"type": "string"
						}
					],
					"stateMutability": "view",
					"type": "function"
				},
				{
					"inputs": [
						{
							"internalType": "uint256",
							"name": "productId",
							"type": "uint256"
						}
					],
					"name": "registerProduct",
					"outputs": [
						{
							"internalType": "bool",
							"name": "success",
							"type": "bool"
						}
					],
					"stateMutability": "nonpayable",
					"type": "function"
				},
				{
					"inputs": [
						{
							"internalType": "uint256",
							"name": "productId",
							"type": "uint256"
						},
						{
							"internalType": "string",
							"name": "metadata",
							"type": "string"
						}
					],
					"name": "registerStep",
					"outputs": [
						{
							"internalType": "bool",
							"name": "success",
							"type": "bool"
						}
					],
					"stateMutability": "nonpayable",
					"type": "function"
				}
			],
			"devdoc": {
				"kind": "dev",
				"methods": {},
				"version": 1
			},
			"evm": {
				"assembly": "    /* \"contracts/SupplyChain/SupplyChain.sol\":74:2221  contract SupplyChain {\r... */\n  mstore(0x40, 0x80)\n  callvalue\n  dup1\n  iszero\n  tag_1\n  jumpi\n  0x00\n  dup1\n  revert\ntag_1:\n  pop\n  dataSize(sub_0)\n  dup1\n  dataOffset(sub_0)\n  0x00\n  codecopy\n  0x00\n  return\nstop\n\nsub_0: assembly {\n        /* \"contracts/SupplyChain/SupplyChain.sol\":74:2221  contract SupplyChain {\r... */\n      mstore(0x40, 0x80)\n      callvalue\n      dup1\n      iszero\n      tag_1\n      jumpi\n      0x00\n      dup1\n      revert\n    tag_1:\n      pop\n      jumpi(tag_2, lt(calldatasize, 0x04))\n      shr(0xe0, calldataload(0x00))\n      dup1\n      0xa590fbdb\n      eq\n      tag_3\n      jumpi\n      dup1\n      0xc08e0f96\n      eq\n      tag_4\n      jumpi\n      dup1\n      0xd21cb5f1\n      eq\n      tag_5\n      jumpi\n    tag_2:\n      0x00\n      dup1\n      revert\n        /* \"contracts/SupplyChain/SupplyChain.sol\":701:741  mapping (uint => Step[]) public products */\n    tag_3:\n      tag_6\n      0x04\n      dup1\n      calldatasize\n      sub\n      dup2\n      add\n      swap1\n      tag_7\n      swap2\n      swap1\n      tag_8\n      jump\t// in\n    tag_7:\n      tag_9\n      jump\t// in\n    tag_6:\n      mload(0x40)\n      tag_10\n      swap3\n      swap2\n      swap1\n      tag_11\n      jump\t// in\n    tag_10:\n      mload(0x40)\n      dup1\n      swap2\n      sub\n      swap1\n      return\n        /* \"contracts/SupplyChain/SupplyChain.sol\":801:1167  function registerProduct(uint productId) public returns (bool success) { //Registrar un producto desde cero\r... */\n    tag_4:\n      tag_12\n      0x04\n      dup1\n      calldatasize\n      sub\n      dup2\n      add\n      swap1\n      tag_13\n      swap2\n      swap1\n      tag_14\n      jump\t// in\n    tag_13:\n      tag_15\n      jump\t// in\n    tag_12:\n      mload(0x40)\n      tag_16\n      swap2\n      swap1\n      tag_17\n      jump\t// in\n    tag_16:\n      mload(0x40)\n      dup1\n      swap2\n      sub\n      swap1\n      return\n        /* \"contracts/SupplyChain/SupplyChain.sol\":1235:2218  function registerStep(uint productId, string calldata metadata) public returns (bool success) {\r... */\n    tag_5:\n      tag_18\n      0x04\n      dup1\n      calldatasize\n      sub\n      dup2\n      add\n      swap1\n      tag_19\n      swap2\n      swap1\n      tag_20\n      jump\t// in\n    tag_19:\n      tag_21\n      jump\t// in\n    tag_18:\n      mload(0x40)\n      tag_22\n      swap2\n      swap1\n      tag_17\n      jump\t// in\n    tag_22:\n      mload(0x40)\n      dup1\n      swap2\n      sub\n      swap1\n      return\n        /* \"contracts/SupplyChain/SupplyChain.sol\":701:741  mapping (uint => Step[]) public products */\n    tag_9:\n      mstore(0x20, 0x00)\n      dup2\n      0x00\n      mstore\n      keccak256(0x00, 0x40)\n      dup2\n      dup2\n      sload\n      dup2\n      lt\n      tag_23\n      jumpi\n      0x00\n      dup1\n      revert\n    tag_23:\n      swap1\n      0x00\n      mstore\n      keccak256(0x00, 0x20)\n      swap1\n      0x02\n      mul\n      add\n      0x00\n      swap2\n      pop\n      swap2\n      pop\n      pop\n      dup1\n      0x00\n      add\n      0x00\n      swap1\n      sload\n      swap1\n      0x0100\n      exp\n      swap1\n      div\n      0xff\n      and\n      swap1\n      dup1\n      0x01\n      add\n      dup1\n      sload\n      tag_25\n      swap1\n      tag_26\n      jump\t// in\n    tag_25:\n      dup1\n      0x1f\n      add\n      0x20\n      dup1\n      swap2\n      div\n      mul\n      0x20\n      add\n      mload(0x40)\n      swap1\n      dup2\n      add\n      0x40\n      mstore\n      dup1\n      swap3\n      swap2\n      swap1\n      dup2\n      dup2\n      mstore\n      0x20\n      add\n      dup3\n      dup1\n      sload\n      tag_27\n      swap1\n      tag_26\n      jump\t// in\n    tag_27:\n      dup1\n      iszero\n      tag_28\n      jumpi\n      dup1\n      0x1f\n      lt\n      tag_29\n      jumpi\n      0x0100\n      dup1\n      dup4\n      sload\n      div\n      mul\n      dup4\n      mstore\n      swap2\n      0x20\n      add\n      swap2\n      jump(tag_28)\n    tag_29:\n      dup3\n      add\n      swap2\n      swap1\n      0x00\n      mstore\n      keccak256(0x00, 0x20)\n      swap1\n    tag_30:\n      dup2\n      sload\n      dup2\n      mstore\n      swap1\n      0x01\n      add\n      swap1\n      0x20\n      add\n      dup1\n      dup4\n      gt\n      tag_30\n      jumpi\n      dup3\n      swap1\n      sub\n      0x1f\n      and\n      dup3\n      add\n      swap2\n    tag_28:\n      pop\n      pop\n      pop\n      pop\n      pop\n      swap1\n      pop\n      dup3\n      jump\t// out\n        /* \"contracts/SupplyChain/SupplyChain.sol\":801:1167  function registerProduct(uint productId) public returns (bool success) { //Registrar un producto desde cero\r... */\n    tag_15:\n        /* \"contracts/SupplyChain/SupplyChain.sol\":858:870  bool success */\n      0x00\n        /* \"contracts/SupplyChain/SupplyChain.sol\":957:958  0 */\n      dup1\n        /* \"contracts/SupplyChain/SupplyChain.sol\":927:935  products */\n      0x00\n        /* \"contracts/SupplyChain/SupplyChain.sol\":927:946  products[productId] */\n      dup1\n        /* \"contracts/SupplyChain/SupplyChain.sol\":936:945  productId */\n      dup5\n        /* \"contracts/SupplyChain/SupplyChain.sol\":927:946  products[productId] */\n      dup2\n      mstore\n      0x20\n      add\n      swap1\n      dup2\n      mstore\n      0x20\n      add\n      0x00\n      keccak256\n        /* \"contracts/SupplyChain/SupplyChain.sol\":927:953  products[productId].length */\n      dup1\n      sload\n      swap1\n      pop\n        /* \"contracts/SupplyChain/SupplyChain.sol\":927:958  products[productId].length == 0 */\n      eq\n        /* \"contracts/SupplyChain/SupplyChain.sol\":918:990  require (products[productId].length == 0, \"This product already exists\") */\n      tag_32\n      jumpi\n      mload(0x40)\n      0x08c379a000000000000000000000000000000000000000000000000000000000\n      dup2\n      mstore\n      0x04\n      add\n      tag_33\n      swap1\n      tag_34\n      jump\t// in\n    tag_33:\n      mload(0x40)\n      dup1\n      swap2\n      sub\n      swap1\n      revert\n    tag_32:\n        /* \"contracts/SupplyChain/SupplyChain.sol\":1044:1052  products */\n      0x00\n        /* \"contracts/SupplyChain/SupplyChain.sol\":1044:1063  products[productId] */\n      dup1\n        /* \"contracts/SupplyChain/SupplyChain.sol\":1053:1062  productId */\n      dup4\n        /* \"contracts/SupplyChain/SupplyChain.sol\":1044:1063  products[productId] */\n      dup2\n      mstore\n      0x20\n      add\n      swap1\n      dup2\n      mstore\n      0x20\n      add\n      0x00\n      keccak256\n        /* \"contracts/SupplyChain/SupplyChain.sol\":1069:1092  Step(Status.CREATED,\"\") */\n      mload(0x40)\n      dup1\n      0x40\n      add\n      0x40\n      mstore\n      dup1\n        /* \"contracts/SupplyChain/SupplyChain.sol\":1074:1088  Status.CREATED */\n      0x00\n        /* \"contracts/SupplyChain/SupplyChain.sol\":1069:1092  Step(Status.CREATED,\"\") */\n      0x04\n      dup2\n      gt\n      iszero\n      tag_35\n      jumpi\n      tag_36\n      tag_37\n      jump\t// in\n    tag_36:\n    tag_35:\n      dup2\n      mstore\n      0x20\n      add\n      mload(0x40)\n      dup1\n      0x20\n      add\n      0x40\n      mstore\n      dup1\n      0x00\n      dup2\n      mstore\n      pop\n      dup2\n      mstore\n      pop\n        /* \"contracts/SupplyChain/SupplyChain.sol\":1044:1093  products[productId].push(Step(Status.CREATED,\"\")) */\n      swap1\n      dup1\n      0x01\n      dup2\n      sload\n      add\n      dup1\n      dup3\n      sstore\n      dup1\n      swap2\n      pop\n      pop\n      0x01\n      swap1\n      sub\n      swap1\n      0x00\n      mstore\n      keccak256(0x00, 0x20)\n      swap1\n      0x02\n      mul\n      add\n      0x00\n      swap1\n      swap2\n      swap1\n      swap2\n      swap1\n      swap2\n      pop\n      0x00\n      dup3\n      add\n      mload\n      dup2\n      0x00\n      add\n      exp(0x0100, 0x00)\n      dup2\n      sload\n      dup2\n      0xff\n      mul\n      not\n      and\n      swap1\n      dup4\n      0x04\n      dup2\n      gt\n      iszero\n      tag_39\n      jumpi\n      tag_40\n      tag_37\n      jump\t// in\n    tag_40:\n    tag_39:\n      mul\n      or\n      swap1\n      sstore\n      pop\n      0x20\n      dup3\n      add\n      mload\n      dup2\n      0x01\n      add\n      swap1\n      dup1\n      mload\n      swap1\n      0x20\n      add\n      swap1\n      tag_41\n      swap3\n      swap2\n      swap1\n      tag_42\n      jump\t// in\n    tag_41:\n      pop\n      pop\n      pop\n        /* \"contracts/SupplyChain/SupplyChain.sol\":801:1167  function registerProduct(uint productId) public returns (bool success) { //Registrar un producto desde cero\r... */\n      swap2\n      swap1\n      pop\n      jump\t// out\n        /* \"contracts/SupplyChain/SupplyChain.sol\":1235:2218  function registerStep(uint productId, string calldata metadata) public returns (bool success) {\r... */\n    tag_21:\n        /* \"contracts/SupplyChain/SupplyChain.sol\":1315:1327  bool success */\n      0x00\n        /* \"contracts/SupplyChain/SupplyChain.sol\":1445:1446  0 */\n      dup1\n        /* \"contracts/SupplyChain/SupplyChain.sol\":1416:1424  products */\n      0x00\n        /* \"contracts/SupplyChain/SupplyChain.sol\":1416:1435  products[productId] */\n      dup1\n        /* \"contracts/SupplyChain/SupplyChain.sol\":1425:1434  productId */\n      dup7\n        /* \"contracts/SupplyChain/SupplyChain.sol\":1416:1435  products[productId] */\n      dup2\n      mstore\n      0x20\n      add\n      swap1\n      dup2\n      mstore\n      0x20\n      add\n      0x00\n      keccak256\n        /* \"contracts/SupplyChain/SupplyChain.sol\":1416:1442  products[productId].length */\n      dup1\n      sload\n      swap1\n      pop\n        /* \"contracts/SupplyChain/SupplyChain.sol\":1416:1446  products[productId].length > 0 */\n      gt\n        /* \"contracts/SupplyChain/SupplyChain.sol\":1408:1478  require(products[productId].length > 0, \"This product doesn't exists\") */\n      tag_44\n      jumpi\n      mload(0x40)\n      0x08c379a000000000000000000000000000000000000000000000000000000000\n      dup2\n      mstore\n      0x04\n      add\n      tag_45\n      swap1\n      tag_46\n      jump\t// in\n    tag_45:\n      mload(0x40)\n      dup1\n      swap2\n      sub\n      swap1\n      revert\n    tag_44:\n        /* \"contracts/SupplyChain/SupplyChain.sol\":1489:1513  Step[] memory stepsArray */\n      0x00\n        /* \"contracts/SupplyChain/SupplyChain.sol\":1516:1524  products */\n      dup1\n        /* \"contracts/SupplyChain/SupplyChain.sol\":1516:1535  products[productId] */\n      0x00\n        /* \"contracts/SupplyChain/SupplyChain.sol\":1525:1534  productId */\n      dup7\n        /* \"contracts/SupplyChain/SupplyChain.sol\":1516:1535  products[productId] */\n      dup2\n      mstore\n      0x20\n      add\n      swap1\n      dup2\n      mstore\n      0x20\n      add\n      0x00\n      keccak256\n        /* \"contracts/SupplyChain/SupplyChain.sol\":1489:1535  Step[] memory stepsArray = products[productId] */\n      dup1\n      sload\n      dup1\n      0x20\n      mul\n      0x20\n      add\n      mload(0x40)\n      swap1\n      dup2\n      add\n      0x40\n      mstore\n      dup1\n      swap3\n      swap2\n      swap1\n      dup2\n      dup2\n      mstore\n      0x20\n      add\n      0x00\n      swap1\n    tag_47:\n      dup3\n      dup3\n      lt\n      iszero\n      tag_48\n      jumpi\n      dup4\n      dup3\n      swap1\n      0x00\n      mstore\n      keccak256(0x00, 0x20)\n      swap1\n      0x02\n      mul\n      add\n      mload(0x40)\n      dup1\n      0x40\n      add\n      0x40\n      mstore\n      swap1\n      dup2\n      0x00\n      dup3\n      add\n      0x00\n      swap1\n      sload\n      swap1\n      0x0100\n      exp\n      swap1\n      div\n      0xff\n      and\n      0x04\n      dup2\n      gt\n      iszero\n      tag_50\n      jumpi\n      tag_51\n      tag_37\n      jump\t// in\n    tag_51:\n    tag_50:\n      0x04\n      dup2\n      gt\n      iszero\n      tag_52\n      jumpi\n      tag_53\n      tag_37\n      jump\t// in\n    tag_53:\n    tag_52:\n      dup2\n      mstore\n      0x20\n      add\n      0x01\n      dup3\n      add\n      dup1\n      sload\n      tag_54\n      swap1\n      tag_26\n      jump\t// in\n    tag_54:\n      dup1\n      0x1f\n      add\n      0x20\n      dup1\n      swap2\n      div\n      mul\n      0x20\n      add\n      mload(0x40)\n      swap1\n      dup2\n      add\n      0x40\n      mstore\n      dup1\n      swap3\n      swap2\n      swap1\n      dup2\n      dup2\n      mstore\n      0x20\n      add\n      dup3\n      dup1\n      sload\n      tag_55\n      swap1\n      tag_26\n      jump\t// in\n    tag_55:\n      dup1\n      iszero\n      tag_56\n      jumpi\n      dup1\n      0x1f\n      lt\n      tag_57\n      jumpi\n      0x0100\n      dup1\n      dup4\n      sload\n      div\n      mul\n      dup4\n      mstore\n      swap2\n      0x20\n      add\n      swap2\n      jump(tag_56)\n    tag_57:\n      dup3\n      add\n      swap2\n      swap1\n      0x00\n      mstore\n      keccak256(0x00, 0x20)\n      swap1\n    tag_58:\n      dup2\n      sload\n      dup2\n      mstore\n      swap1\n      0x01\n      add\n      swap1\n      0x20\n      add\n      dup1\n      dup4\n      gt\n      tag_58\n      jumpi\n      dup3\n      swap1\n      sub\n      0x1f\n      and\n      dup3\n      add\n      swap2\n    tag_56:\n      pop\n      pop\n      pop\n      pop\n      pop\n      dup2\n      mstore\n      pop\n      pop\n      dup2\n      mstore\n      0x20\n      add\n      swap1\n      0x01\n      add\n      swap1\n      jump(tag_47)\n    tag_48:\n      pop\n      pop\n      pop\n      pop\n      swap1\n      pop\n        /* \"contracts/SupplyChain/SupplyChain.sol\":1546:1564  uint currentStatus */\n      0x00\n        /* \"contracts/SupplyChain/SupplyChain.sol\":1616:1617  1 */\n      0x01\n        /* \"contracts/SupplyChain/SupplyChain.sol\":1573:1583  stepsArray */\n      dup3\n        /* \"contracts/SupplyChain/SupplyChain.sol\":1604:1605  1 */\n      0x01\n        /* \"contracts/SupplyChain/SupplyChain.sol\":1584:1594  stepsArray */\n      dup5\n        /* \"contracts/SupplyChain/SupplyChain.sol\":1584:1601  stepsArray.length */\n      mload\n        /* \"contracts/SupplyChain/SupplyChain.sol\":1584:1605  stepsArray.length - 1 */\n      tag_59\n      swap2\n      swap1\n      tag_60\n      jump\t// in\n    tag_59:\n        /* \"contracts/SupplyChain/SupplyChain.sol\":1573:1606  stepsArray[stepsArray.length - 1] */\n      dup2\n      mload\n      dup2\n      lt\n      tag_61\n      jumpi\n      tag_62\n      tag_63\n      jump\t// in\n    tag_62:\n    tag_61:\n      0x20\n      mul\n      0x20\n      add\n      add\n      mload\n        /* \"contracts/SupplyChain/SupplyChain.sol\":1573:1613  stepsArray[stepsArray.length - 1].status */\n      0x00\n      add\n      mload\n        /* \"contracts/SupplyChain/SupplyChain.sol\":1567:1614  uint (stepsArray[stepsArray.length - 1].status) */\n      0x04\n      dup2\n      gt\n      iszero\n      tag_64\n      jumpi\n      tag_65\n      tag_37\n      jump\t// in\n    tag_65:\n    tag_64:\n        /* \"contracts/SupplyChain/SupplyChain.sol\":1567:1617  uint (stepsArray[stepsArray.length - 1].status) +1 */\n      tag_66\n      swap2\n      swap1\n      tag_67\n      jump\t// in\n    tag_66:\n        /* \"contracts/SupplyChain/SupplyChain.sol\":1546:1617  uint currentStatus = uint (stepsArray[stepsArray.length - 1].status) +1 */\n      swap1\n      pop\n        /* \"contracts/SupplyChain/SupplyChain.sol\":1728:1744  Status.DELIVERED */\n      0x04\n        /* \"contracts/SupplyChain/SupplyChain.sol\":1722:1745  uint (Status.DELIVERED) */\n      dup1\n      dup2\n      gt\n      iszero\n      tag_68\n      jumpi\n      tag_69\n      tag_37\n      jump\t// in\n    tag_69:\n    tag_68:\n        /* \"contracts/SupplyChain/SupplyChain.sol\":1706:1719  currentStatus */\n      dup2\n        /* \"contracts/SupplyChain/SupplyChain.sol\":1706:1745  currentStatus > uint (Status.DELIVERED) */\n      gt\n        /* \"contracts/SupplyChain/SupplyChain.sol\":1702:1813  if (currentStatus > uint (Status.DELIVERED)) {\r... */\n      iszero\n      tag_70\n      jumpi\n        /* \"contracts/SupplyChain/SupplyChain.sol\":1762:1801  revert(\"The product has no more steps\") */\n      mload(0x40)\n      0x08c379a000000000000000000000000000000000000000000000000000000000\n      dup2\n      mstore\n      0x04\n      add\n      tag_71\n      swap1\n      tag_72\n      jump\t// in\n    tag_71:\n      mload(0x40)\n      dup1\n      swap2\n      sub\n      swap1\n      revert\n        /* \"contracts/SupplyChain/SupplyChain.sol\":1702:1813  if (currentStatus > uint (Status.DELIVERED)) {\r... */\n    tag_70:\n        /* \"contracts/SupplyChain/SupplyChain.sol\":1867:1883  Step memory step */\n      0x00\n        /* \"contracts/SupplyChain/SupplyChain.sol\":1886:1923  Step(Status(currentStatus), metadata) */\n      mload(0x40)\n      dup1\n      0x40\n      add\n      0x40\n      mstore\n      dup1\n        /* \"contracts/SupplyChain/SupplyChain.sol\":1898:1911  currentStatus */\n      dup4\n        /* \"contracts/SupplyChain/SupplyChain.sol\":1891:1912  Status(currentStatus) */\n      0x04\n      dup2\n      gt\n      iszero\n      tag_73\n      jumpi\n      tag_74\n      tag_37\n      jump\t// in\n    tag_74:\n    tag_73:\n        /* \"contracts/SupplyChain/SupplyChain.sol\":1886:1923  Step(Status(currentStatus), metadata) */\n      0x04\n      dup2\n      gt\n      iszero\n      tag_75\n      jumpi\n      tag_76\n      tag_37\n      jump\t// in\n    tag_76:\n    tag_75:\n      dup2\n      mstore\n      0x20\n      add\n        /* \"contracts/SupplyChain/SupplyChain.sol\":1914:1922  metadata */\n      dup8\n      dup8\n        /* \"contracts/SupplyChain/SupplyChain.sol\":1886:1923  Step(Status(currentStatus), metadata) */\n      dup1\n      dup1\n      0x1f\n      add\n      0x20\n      dup1\n      swap2\n      div\n      mul\n      0x20\n      add\n      mload(0x40)\n      swap1\n      dup2\n      add\n      0x40\n      mstore\n      dup1\n      swap4\n      swap3\n      swap2\n      swap1\n      dup2\n      dup2\n      mstore\n      0x20\n      add\n      dup4\n      dup4\n      dup1\n      dup3\n      dup5\n      calldatacopy\n      0x00\n      dup2\n      dup5\n      add\n      mstore\n      not(0x1f)\n      0x1f\n      dup3\n      add\n      and\n      swap1\n      pop\n      dup1\n      dup4\n      add\n      swap3\n      pop\n      pop\n      pop\n      pop\n      pop\n      pop\n      pop\n      dup2\n      mstore\n      pop\n        /* \"contracts/SupplyChain/SupplyChain.sol\":1867:1923  Step memory step = Step(Status(currentStatus), metadata) */\n      swap1\n      pop\n        /* \"contracts/SupplyChain/SupplyChain.sol\":1982:1990  products */\n      0x00\n        /* \"contracts/SupplyChain/SupplyChain.sol\":1982:2001  products[productId] */\n      dup1\n        /* \"contracts/SupplyChain/SupplyChain.sol\":1991:2000  productId */\n      dup9\n        /* \"contracts/SupplyChain/SupplyChain.sol\":1982:2001  products[productId] */\n      dup2\n      mstore\n      0x20\n      add\n      swap1\n      dup2\n      mstore\n      0x20\n      add\n      0x00\n      keccak256\n        /* \"contracts/SupplyChain/SupplyChain.sol\":2007:2011  step */\n      dup2\n        /* \"contracts/SupplyChain/SupplyChain.sol\":1982:2012  products[productId].push(step) */\n      swap1\n      dup1\n      0x01\n      dup2\n      sload\n      add\n      dup1\n      dup3\n      sstore\n      dup1\n      swap2\n      pop\n      pop\n      0x01\n      swap1\n      sub\n      swap1\n      0x00\n      mstore\n      keccak256(0x00, 0x20)\n      swap1\n      0x02\n      mul\n      add\n      0x00\n      swap1\n      swap2\n      swap1\n      swap2\n      swap1\n      swap2\n      pop\n      0x00\n      dup3\n      add\n      mload\n      dup2\n      0x00\n      add\n      exp(0x0100, 0x00)\n      dup2\n      sload\n      dup2\n      0xff\n      mul\n      not\n      and\n      swap1\n      dup4\n      0x04\n      dup2\n      gt\n      iszero\n      tag_78\n      jumpi\n      tag_79\n      tag_37\n      jump\t// in\n    tag_79:\n    tag_78:\n      mul\n      or\n      swap1\n      sstore\n      pop\n      0x20\n      dup3\n      add\n      mload\n      dup2\n      0x01\n      add\n      swap1\n      dup1\n      mload\n      swap1\n      0x20\n      add\n      swap1\n      tag_80\n      swap3\n      swap2\n      swap1\n      tag_42\n      jump\t// in\n    tag_80:\n      pop\n      pop\n      pop\n        /* \"contracts/SupplyChain/SupplyChain.sol\":2114:2185  RegisteredStep(productId, Status (currentStatus), metadata, msg.sender) */\n      0xd9383aed0754623db576930ac0e5fd2e888ec2ba0a3cbaa724e47c49c70d9128\n        /* \"contracts/SupplyChain/SupplyChain.sol\":2129:2138  productId */\n      dup8\n        /* \"contracts/SupplyChain/SupplyChain.sol\":2148:2161  currentStatus */\n      dup4\n        /* \"contracts/SupplyChain/SupplyChain.sol\":2140:2162  Status (currentStatus) */\n      0x04\n      dup2\n      gt\n      iszero\n      tag_81\n      jumpi\n      tag_82\n      tag_37\n      jump\t// in\n    tag_82:\n    tag_81:\n        /* \"contracts/SupplyChain/SupplyChain.sol\":2164:2172  metadata */\n      dup9\n      dup9\n        /* \"contracts/SupplyChain/SupplyChain.sol\":2174:2184  msg.sender */\n      caller\n        /* \"contracts/SupplyChain/SupplyChain.sol\":2114:2185  RegisteredStep(productId, Status (currentStatus), metadata, msg.sender) */\n      mload(0x40)\n      tag_83\n      swap6\n      swap5\n      swap4\n      swap3\n      swap2\n      swap1\n      tag_84\n      jump\t// in\n    tag_83:\n      mload(0x40)\n      dup1\n      swap2\n      sub\n      swap1\n      log1\n        /* \"contracts/SupplyChain/SupplyChain.sol\":2206:2210  true */\n      0x01\n        /* \"contracts/SupplyChain/SupplyChain.sol\":2196:2210  success = true */\n      swap4\n      pop\n        /* \"contracts/SupplyChain/SupplyChain.sol\":1329:2218  {\r... */\n      pop\n      pop\n      pop\n        /* \"contracts/SupplyChain/SupplyChain.sol\":1235:2218  function registerStep(uint productId, string calldata metadata) public returns (bool success) {\r... */\n      swap4\n      swap3\n      pop\n      pop\n      pop\n      jump\t// out\n    tag_42:\n      dup3\n      dup1\n      sload\n      tag_85\n      swap1\n      tag_26\n      jump\t// in\n    tag_85:\n      swap1\n      0x00\n      mstore\n      keccak256(0x00, 0x20)\n      swap1\n      0x1f\n      add\n      0x20\n      swap1\n      div\n      dup2\n      add\n      swap3\n      dup3\n      tag_87\n      jumpi\n      0x00\n      dup6\n      sstore\n      jump(tag_86)\n    tag_87:\n      dup3\n      0x1f\n      lt\n      tag_88\n      jumpi\n      dup1\n      mload\n      not(0xff)\n      and\n      dup4\n      dup1\n      add\n      or\n      dup6\n      sstore\n      jump(tag_86)\n    tag_88:\n      dup3\n      dup1\n      add\n      0x01\n      add\n      dup6\n      sstore\n      dup3\n      iszero\n      tag_86\n      jumpi\n      swap2\n      dup3\n      add\n    tag_89:\n      dup3\n      dup2\n      gt\n      iszero\n      tag_90\n      jumpi\n      dup3\n      mload\n      dup3\n      sstore\n      swap2\n      0x20\n      add\n      swap2\n      swap1\n      0x01\n      add\n      swap1\n      jump(tag_89)\n    tag_90:\n    tag_86:\n      pop\n      swap1\n      pop\n      tag_91\n      swap2\n      swap1\n      tag_92\n      jump\t// in\n    tag_91:\n      pop\n      swap1\n      jump\t// out\n    tag_92:\n    tag_93:\n      dup1\n      dup3\n      gt\n      iszero\n      tag_94\n      jumpi\n      0x00\n      dup2\n      0x00\n      swap1\n      sstore\n      pop\n      0x01\n      add\n      jump(tag_93)\n    tag_94:\n      pop\n      swap1\n      jump\t// out\n        /* \"#utility.yul\":21:574   */\n    tag_96:\n        /* \"#utility.yul\":79:87   */\n      0x00\n        /* \"#utility.yul\":89:95   */\n      dup1\n        /* \"#utility.yul\":139:142   */\n      dup4\n        /* \"#utility.yul\":132:136   */\n      0x1f\n        /* \"#utility.yul\":124:130   */\n      dup5\n        /* \"#utility.yul\":120:137   */\n      add\n        /* \"#utility.yul\":116:143   */\n      slt\n        /* \"#utility.yul\":106:228   */\n      tag_98\n      jumpi\n        /* \"#utility.yul\":147:226   */\n      tag_99\n      tag_100\n      jump\t// in\n    tag_99:\n        /* \"#utility.yul\":106:228   */\n    tag_98:\n        /* \"#utility.yul\":260:266   */\n      dup3\n        /* \"#utility.yul\":247:267   */\n      calldataload\n        /* \"#utility.yul\":237:267   */\n      swap1\n      pop\n        /* \"#utility.yul\":290:308   */\n      0xffffffffffffffff\n        /* \"#utility.yul\":282:288   */\n      dup2\n        /* \"#utility.yul\":279:309   */\n      gt\n        /* \"#utility.yul\":276:393   */\n      iszero\n      tag_101\n      jumpi\n        /* \"#utility.yul\":312:391   */\n      tag_102\n      tag_103\n      jump\t// in\n    tag_102:\n        /* \"#utility.yul\":276:393   */\n    tag_101:\n        /* \"#utility.yul\":426:430   */\n      0x20\n        /* \"#utility.yul\":418:424   */\n      dup4\n        /* \"#utility.yul\":414:431   */\n      add\n        /* \"#utility.yul\":402:431   */\n      swap2\n      pop\n        /* \"#utility.yul\":480:483   */\n      dup4\n        /* \"#utility.yul\":472:476   */\n      0x01\n        /* \"#utility.yul\":464:470   */\n      dup3\n        /* \"#utility.yul\":460:477   */\n      mul\n        /* \"#utility.yul\":450:458   */\n      dup4\n        /* \"#utility.yul\":446:478   */\n      add\n        /* \"#utility.yul\":443:484   */\n      gt\n        /* \"#utility.yul\":440:568   */\n      iszero\n      tag_104\n      jumpi\n        /* \"#utility.yul\":487:566   */\n      tag_105\n      tag_106\n      jump\t// in\n    tag_105:\n        /* \"#utility.yul\":440:568   */\n    tag_104:\n        /* \"#utility.yul\":21:574   */\n      swap3\n      pop\n      swap3\n      swap1\n      pop\n      jump\t// out\n        /* \"#utility.yul\":580:719   */\n    tag_107:\n        /* \"#utility.yul\":626:631   */\n      0x00\n        /* \"#utility.yul\":664:670   */\n      dup2\n        /* \"#utility.yul\":651:671   */\n      calldataload\n        /* \"#utility.yul\":642:671   */\n      swap1\n      pop\n        /* \"#utility.yul\":680:713   */\n      tag_109\n        /* \"#utility.yul\":707:712   */\n      dup2\n        /* \"#utility.yul\":680:713   */\n      tag_110\n      jump\t// in\n    tag_109:\n        /* \"#utility.yul\":580:719   */\n      swap3\n      swap2\n      pop\n      pop\n      jump\t// out\n        /* \"#utility.yul\":725:1054   */\n    tag_14:\n        /* \"#utility.yul\":784:790   */\n      0x00\n        /* \"#utility.yul\":833:835   */\n      0x20\n        /* \"#utility.yul\":821:830   */\n      dup3\n        /* \"#utility.yul\":812:819   */\n      dup5\n        /* \"#utility.yul\":808:831   */\n      sub\n        /* \"#utility.yul\":804:836   */\n      slt\n        /* \"#utility.yul\":801:920   */\n      iszero\n      tag_112\n      jumpi\n        /* \"#utility.yul\":839:918   */\n      tag_113\n      tag_114\n      jump\t// in\n    tag_113:\n        /* \"#utility.yul\":801:920   */\n    tag_112:\n        /* \"#utility.yul\":959:960   */\n      0x00\n        /* \"#utility.yul\":984:1037   */\n      tag_115\n        /* \"#utility.yul\":1029:1036   */\n      dup5\n        /* \"#utility.yul\":1020:1026   */\n      dup3\n        /* \"#utility.yul\":1009:1018   */\n      dup6\n        /* \"#utility.yul\":1005:1027   */\n      add\n        /* \"#utility.yul\":984:1037   */\n      tag_107\n      jump\t// in\n    tag_115:\n        /* \"#utility.yul\":974:1037   */\n      swap2\n      pop\n        /* \"#utility.yul\":930:1047   */\n      pop\n        /* \"#utility.yul\":725:1054   */\n      swap3\n      swap2\n      pop\n      pop\n      jump\t// out\n        /* \"#utility.yul\":1060:1734   */\n    tag_20:\n        /* \"#utility.yul\":1140:1146   */\n      0x00\n        /* \"#utility.yul\":1148:1154   */\n      dup1\n        /* \"#utility.yul\":1156:1162   */\n      0x00\n        /* \"#utility.yul\":1205:1207   */\n      0x40\n        /* \"#utility.yul\":1193:1202   */\n      dup5\n        /* \"#utility.yul\":1184:1191   */\n      dup7\n        /* \"#utility.yul\":1180:1203   */\n      sub\n        /* \"#utility.yul\":1176:1208   */\n      slt\n        /* \"#utility.yul\":1173:1292   */\n      iszero\n      tag_117\n      jumpi\n        /* \"#utility.yul\":1211:1290   */\n      tag_118\n      tag_114\n      jump\t// in\n    tag_118:\n        /* \"#utility.yul\":1173:1292   */\n    tag_117:\n        /* \"#utility.yul\":1331:1332   */\n      0x00\n        /* \"#utility.yul\":1356:1409   */\n      tag_119\n        /* \"#utility.yul\":1401:1408   */\n      dup7\n        /* \"#utility.yul\":1392:1398   */\n      dup3\n        /* \"#utility.yul\":1381:1390   */\n      dup8\n        /* \"#utility.yul\":1377:1399   */\n      add\n        /* \"#utility.yul\":1356:1409   */\n      tag_107\n      jump\t// in\n    tag_119:\n        /* \"#utility.yul\":1346:1409   */\n      swap4\n      pop\n        /* \"#utility.yul\":1302:1419   */\n      pop\n        /* \"#utility.yul\":1486:1488   */\n      0x20\n        /* \"#utility.yul\":1475:1484   */\n      dup5\n        /* \"#utility.yul\":1471:1489   */\n      add\n        /* \"#utility.yul\":1458:1490   */\n      calldataload\n        /* \"#utility.yul\":1517:1535   */\n      0xffffffffffffffff\n        /* \"#utility.yul\":1509:1515   */\n      dup2\n        /* \"#utility.yul\":1506:1536   */\n      gt\n        /* \"#utility.yul\":1503:1620   */\n      iszero\n      tag_120\n      jumpi\n        /* \"#utility.yul\":1539:1618   */\n      tag_121\n      tag_122\n      jump\t// in\n    tag_121:\n        /* \"#utility.yul\":1503:1620   */\n    tag_120:\n        /* \"#utility.yul\":1652:1717   */\n      tag_123\n        /* \"#utility.yul\":1709:1716   */\n      dup7\n        /* \"#utility.yul\":1700:1706   */\n      dup3\n        /* \"#utility.yul\":1689:1698   */\n      dup8\n        /* \"#utility.yul\":1685:1707   */\n      add\n        /* \"#utility.yul\":1652:1717   */\n      tag_96\n      jump\t// in\n    tag_123:\n        /* \"#utility.yul\":1634:1717   */\n      swap3\n      pop\n      swap3\n      pop\n        /* \"#utility.yul\":1429:1727   */\n      pop\n        /* \"#utility.yul\":1060:1734   */\n      swap3\n      pop\n      swap3\n      pop\n      swap3\n      jump\t// out\n        /* \"#utility.yul\":1740:2214   */\n    tag_8:\n        /* \"#utility.yul\":1808:1814   */\n      0x00\n        /* \"#utility.yul\":1816:1822   */\n      dup1\n        /* \"#utility.yul\":1865:1867   */\n      0x40\n        /* \"#utility.yul\":1853:1862   */\n      dup4\n        /* \"#utility.yul\":1844:1851   */\n      dup6\n        /* \"#utility.yul\":1840:1863   */\n      sub\n        /* \"#utility.yul\":1836:1868   */\n      slt\n        /* \"#utility.yul\":1833:1952   */\n      iszero\n      tag_125\n      jumpi\n        /* \"#utility.yul\":1871:1950   */\n      tag_126\n      tag_114\n      jump\t// in\n    tag_126:\n        /* \"#utility.yul\":1833:1952   */\n    tag_125:\n        /* \"#utility.yul\":1991:1992   */\n      0x00\n        /* \"#utility.yul\":2016:2069   */\n      tag_127\n        /* \"#utility.yul\":2061:2068   */\n      dup6\n        /* \"#utility.yul\":2052:2058   */\n      dup3\n        /* \"#utility.yul\":2041:2050   */\n      dup7\n        /* \"#utility.yul\":2037:2059   */\n      add\n        /* \"#utility.yul\":2016:2069   */\n      tag_107\n      jump\t// in\n    tag_127:\n        /* \"#utility.yul\":2006:2069   */\n      swap3\n      pop\n        /* \"#utility.yul\":1962:2079   */\n      pop\n        /* \"#utility.yul\":2118:2120   */\n      0x20\n        /* \"#utility.yul\":2144:2197   */\n      tag_128\n        /* \"#utility.yul\":2189:2196   */\n      dup6\n        /* \"#utility.yul\":2180:2186   */\n      dup3\n        /* \"#utility.yul\":2169:2178   */\n      dup7\n        /* \"#utility.yul\":2165:2187   */\n      add\n        /* \"#utility.yul\":2144:2197   */\n      tag_107\n      jump\t// in\n    tag_128:\n        /* \"#utility.yul\":2134:2197   */\n      swap2\n      pop\n        /* \"#utility.yul\":2089:2207   */\n      pop\n        /* \"#utility.yul\":1740:2214   */\n      swap3\n      pop\n      swap3\n      swap1\n      pop\n      jump\t// out\n        /* \"#utility.yul\":2220:2338   */\n    tag_129:\n        /* \"#utility.yul\":2307:2331   */\n      tag_131\n        /* \"#utility.yul\":2325:2330   */\n      dup2\n        /* \"#utility.yul\":2307:2331   */\n      tag_132\n      jump\t// in\n    tag_131:\n        /* \"#utility.yul\":2302:2305   */\n      dup3\n        /* \"#utility.yul\":2295:2332   */\n      mstore\n        /* \"#utility.yul\":2220:2338   */\n      pop\n      pop\n      jump\t// out\n        /* \"#utility.yul\":2344:2453   */\n    tag_133:\n        /* \"#utility.yul\":2425:2446   */\n      tag_135\n        /* \"#utility.yul\":2440:2445   */\n      dup2\n        /* \"#utility.yul\":2425:2446   */\n      tag_136\n      jump\t// in\n    tag_135:\n        /* \"#utility.yul\":2420:2423   */\n      dup3\n        /* \"#utility.yul\":2413:2447   */\n      mstore\n        /* \"#utility.yul\":2344:2453   */\n      pop\n      pop\n      jump\t// out\n        /* \"#utility.yul\":2459:2604   */\n    tag_137:\n        /* \"#utility.yul\":2553:2597   */\n      tag_139\n        /* \"#utility.yul\":2591:2596   */\n      dup2\n        /* \"#utility.yul\":2553:2597   */\n      tag_140\n      jump\t// in\n    tag_139:\n        /* \"#utility.yul\":2548:2551   */\n      dup3\n        /* \"#utility.yul\":2541:2598   */\n      mstore\n        /* \"#utility.yul\":2459:2604   */\n      pop\n      pop\n      jump\t// out\n        /* \"#utility.yul\":2634:2938   */\n    tag_141:\n        /* \"#utility.yul\":2732:2735   */\n      0x00\n        /* \"#utility.yul\":2753:2824   */\n      tag_143\n        /* \"#utility.yul\":2817:2823   */\n      dup4\n        /* \"#utility.yul\":2812:2815   */\n      dup6\n        /* \"#utility.yul\":2753:2824   */\n      tag_144\n      jump\t// in\n    tag_143:\n        /* \"#utility.yul\":2746:2824   */\n      swap4\n      pop\n        /* \"#utility.yul\":2834:2877   */\n      tag_145\n        /* \"#utility.yul\":2870:2876   */\n      dup4\n        /* \"#utility.yul\":2865:2868   */\n      dup6\n        /* \"#utility.yul\":2858:2863   */\n      dup5\n        /* \"#utility.yul\":2834:2877   */\n      tag_146\n      jump\t// in\n    tag_145:\n        /* \"#utility.yul\":2902:2931   */\n      tag_147\n        /* \"#utility.yul\":2924:2930   */\n      dup4\n        /* \"#utility.yul\":2902:2931   */\n      tag_148\n      jump\t// in\n    tag_147:\n        /* \"#utility.yul\":2897:2900   */\n      dup5\n        /* \"#utility.yul\":2893:2932   */\n      add\n        /* \"#utility.yul\":2886:2932   */\n      swap1\n      pop\n        /* \"#utility.yul\":2634:2938   */\n      swap4\n      swap3\n      pop\n      pop\n      pop\n      jump\t// out\n        /* \"#utility.yul\":2944:3308   */\n    tag_149:\n        /* \"#utility.yul\":3032:3035   */\n      0x00\n        /* \"#utility.yul\":3060:3099   */\n      tag_151\n        /* \"#utility.yul\":3093:3098   */\n      dup3\n        /* \"#utility.yul\":3060:3099   */\n      tag_152\n      jump\t// in\n    tag_151:\n        /* \"#utility.yul\":3115:3186   */\n      tag_153\n        /* \"#utility.yul\":3179:3185   */\n      dup2\n        /* \"#utility.yul\":3174:3177   */\n      dup6\n        /* \"#utility.yul\":3115:3186   */\n      tag_144\n      jump\t// in\n    tag_153:\n        /* \"#utility.yul\":3108:3186   */\n      swap4\n      pop\n        /* \"#utility.yul\":3195:3247   */\n      tag_154\n        /* \"#utility.yul\":3240:3246   */\n      dup2\n        /* \"#utility.yul\":3235:3238   */\n      dup6\n        /* \"#utility.yul\":3228:3232   */\n      0x20\n        /* \"#utility.yul\":3221:3226   */\n      dup7\n        /* \"#utility.yul\":3217:3233   */\n      add\n        /* \"#utility.yul\":3195:3247   */\n      tag_155\n      jump\t// in\n    tag_154:\n        /* \"#utility.yul\":3272:3301   */\n      tag_156\n        /* \"#utility.yul\":3294:3300   */\n      dup2\n        /* \"#utility.yul\":3272:3301   */\n      tag_148\n      jump\t// in\n    tag_156:\n        /* \"#utility.yul\":3267:3270   */\n      dup5\n        /* \"#utility.yul\":3263:3302   */\n      add\n        /* \"#utility.yul\":3256:3302   */\n      swap2\n      pop\n        /* \"#utility.yul\":3036:3308   */\n      pop\n        /* \"#utility.yul\":2944:3308   */\n      swap3\n      swap2\n      pop\n      pop\n      jump\t// out\n        /* \"#utility.yul\":3314:3680   */\n    tag_157:\n        /* \"#utility.yul\":3456:3459   */\n      0x00\n        /* \"#utility.yul\":3477:3544   */\n      tag_159\n        /* \"#utility.yul\":3541:3543   */\n      0x1b\n        /* \"#utility.yul\":3536:3539   */\n      dup4\n        /* \"#utility.yul\":3477:3544   */\n      tag_144\n      jump\t// in\n    tag_159:\n        /* \"#utility.yul\":3470:3544   */\n      swap2\n      pop\n        /* \"#utility.yul\":3553:3646   */\n      tag_160\n        /* \"#utility.yul\":3642:3645   */\n      dup3\n        /* \"#utility.yul\":3553:3646   */\n      tag_161\n      jump\t// in\n    tag_160:\n        /* \"#utility.yul\":3671:3673   */\n      0x20\n        /* \"#utility.yul\":3666:3669   */\n      dup3\n        /* \"#utility.yul\":3662:3674   */\n      add\n        /* \"#utility.yul\":3655:3674   */\n      swap1\n      pop\n        /* \"#utility.yul\":3314:3680   */\n      swap2\n      swap1\n      pop\n      jump\t// out\n        /* \"#utility.yul\":3686:4052   */\n    tag_162:\n        /* \"#utility.yul\":3828:3831   */\n      0x00\n        /* \"#utility.yul\":3849:3916   */\n      tag_164\n        /* \"#utility.yul\":3913:3915   */\n      0x1b\n        /* \"#utility.yul\":3908:3911   */\n      dup4\n        /* \"#utility.yul\":3849:3916   */\n      tag_144\n      jump\t// in\n    tag_164:\n        /* \"#utility.yul\":3842:3916   */\n      swap2\n      pop\n        /* \"#utility.yul\":3925:4018   */\n      tag_165\n        /* \"#utility.yul\":4014:4017   */\n      dup3\n        /* \"#utility.yul\":3925:4018   */\n      tag_166\n      jump\t// in\n    tag_165:\n        /* \"#utility.yul\":4043:4045   */\n      0x20\n        /* \"#utility.yul\":4038:4041   */\n      dup3\n        /* \"#utility.yul\":4034:4046   */\n      add\n        /* \"#utility.yul\":4027:4046   */\n      swap1\n      pop\n        /* \"#utility.yul\":3686:4052   */\n      swap2\n      swap1\n      pop\n      jump\t// out\n        /* \"#utility.yul\":4058:4424   */\n    tag_167:\n        /* \"#utility.yul\":4200:4203   */\n      0x00\n        /* \"#utility.yul\":4221:4288   */\n      tag_169\n        /* \"#utility.yul\":4285:4287   */\n      0x1d\n        /* \"#utility.yul\":4280:4283   */\n      dup4\n        /* \"#utility.yul\":4221:4288   */\n      tag_144\n      jump\t// in\n    tag_169:\n        /* \"#utility.yul\":4214:4288   */\n      swap2\n      pop\n        /* \"#utility.yul\":4297:4390   */\n      tag_170\n        /* \"#utility.yul\":4386:4389   */\n      dup3\n        /* \"#utility.yul\":4297:4390   */\n      tag_171\n      jump\t// in\n    tag_170:\n        /* \"#utility.yul\":4415:4417   */\n      0x20\n        /* \"#utility.yul\":4410:4413   */\n      dup3\n        /* \"#utility.yul\":4406:4418   */\n      add\n        /* \"#utility.yul\":4399:4418   */\n      swap1\n      pop\n        /* \"#utility.yul\":4058:4424   */\n      swap2\n      swap1\n      pop\n      jump\t// out\n        /* \"#utility.yul\":4430:4548   */\n    tag_172:\n        /* \"#utility.yul\":4517:4541   */\n      tag_174\n        /* \"#utility.yul\":4535:4540   */\n      dup2\n        /* \"#utility.yul\":4517:4541   */\n      tag_175\n      jump\t// in\n    tag_174:\n        /* \"#utility.yul\":4512:4515   */\n      dup3\n        /* \"#utility.yul\":4505:4542   */\n      mstore\n        /* \"#utility.yul\":4430:4548   */\n      pop\n      pop\n      jump\t// out\n        /* \"#utility.yul\":4554:4764   */\n    tag_17:\n        /* \"#utility.yul\":4641:4645   */\n      0x00\n        /* \"#utility.yul\":4679:4681   */\n      0x20\n        /* \"#utility.yul\":4668:4677   */\n      dup3\n        /* \"#utility.yul\":4664:4682   */\n      add\n        /* \"#utility.yul\":4656:4682   */\n      swap1\n      pop\n        /* \"#utility.yul\":4692:4757   */\n      tag_177\n        /* \"#utility.yul\":4754:4755   */\n      0x00\n        /* \"#utility.yul\":4743:4752   */\n      dup4\n        /* \"#utility.yul\":4739:4756   */\n      add\n        /* \"#utility.yul\":4730:4736   */\n      dup5\n        /* \"#utility.yul\":4692:4757   */\n      tag_133\n      jump\t// in\n    tag_177:\n        /* \"#utility.yul\":4554:4764   */\n      swap3\n      swap2\n      pop\n      pop\n      jump\t// out\n        /* \"#utility.yul\":4770:5207   */\n    tag_11:\n        /* \"#utility.yul\":4918:4922   */\n      0x00\n        /* \"#utility.yul\":4956:4958   */\n      0x40\n        /* \"#utility.yul\":4945:4954   */\n      dup3\n        /* \"#utility.yul\":4941:4959   */\n      add\n        /* \"#utility.yul\":4933:4959   */\n      swap1\n      pop\n        /* \"#utility.yul\":4969:5047   */\n      tag_179\n        /* \"#utility.yul\":5044:5045   */\n      0x00\n        /* \"#utility.yul\":5033:5042   */\n      dup4\n        /* \"#utility.yul\":5029:5046   */\n      add\n        /* \"#utility.yul\":5020:5026   */\n      dup6\n        /* \"#utility.yul\":4969:5047   */\n      tag_137\n      jump\t// in\n    tag_179:\n        /* \"#utility.yul\":5094:5103   */\n      dup2\n        /* \"#utility.yul\":5088:5092   */\n      dup2\n        /* \"#utility.yul\":5084:5104   */\n      sub\n        /* \"#utility.yul\":5079:5081   */\n      0x20\n        /* \"#utility.yul\":5068:5077   */\n      dup4\n        /* \"#utility.yul\":5064:5082   */\n      add\n        /* \"#utility.yul\":5057:5105   */\n      mstore\n        /* \"#utility.yul\":5122:5200   */\n      tag_180\n        /* \"#utility.yul\":5195:5199   */\n      dup2\n        /* \"#utility.yul\":5186:5192   */\n      dup5\n        /* \"#utility.yul\":5122:5200   */\n      tag_149\n      jump\t// in\n    tag_180:\n        /* \"#utility.yul\":5114:5200   */\n      swap1\n      pop\n        /* \"#utility.yul\":4770:5207   */\n      swap4\n      swap3\n      pop\n      pop\n      pop\n      jump\t// out\n        /* \"#utility.yul\":5213:5632   */\n    tag_46:\n        /* \"#utility.yul\":5379:5383   */\n      0x00\n        /* \"#utility.yul\":5417:5419   */\n      0x20\n        /* \"#utility.yul\":5406:5415   */\n      dup3\n        /* \"#utility.yul\":5402:5420   */\n      add\n        /* \"#utility.yul\":5394:5420   */\n      swap1\n      pop\n        /* \"#utility.yul\":5466:5475   */\n      dup2\n        /* \"#utility.yul\":5460:5464   */\n      dup2\n        /* \"#utility.yul\":5456:5476   */\n      sub\n        /* \"#utility.yul\":5452:5453   */\n      0x00\n        /* \"#utility.yul\":5441:5450   */\n      dup4\n        /* \"#utility.yul\":5437:5454   */\n      add\n        /* \"#utility.yul\":5430:5477   */\n      mstore\n        /* \"#utility.yul\":5494:5625   */\n      tag_182\n        /* \"#utility.yul\":5620:5624   */\n      dup2\n        /* \"#utility.yul\":5494:5625   */\n      tag_157\n      jump\t// in\n    tag_182:\n        /* \"#utility.yul\":5486:5625   */\n      swap1\n      pop\n        /* \"#utility.yul\":5213:5632   */\n      swap2\n      swap1\n      pop\n      jump\t// out\n        /* \"#utility.yul\":5638:6057   */\n    tag_34:\n        /* \"#utility.yul\":5804:5808   */\n      0x00\n        /* \"#utility.yul\":5842:5844   */\n      0x20\n        /* \"#utility.yul\":5831:5840   */\n      dup3\n        /* \"#utility.yul\":5827:5845   */\n      add\n        /* \"#utility.yul\":5819:5845   */\n      swap1\n      pop\n        /* \"#utility.yul\":5891:5900   */\n      dup2\n        /* \"#utility.yul\":5885:5889   */\n      dup2\n        /* \"#utility.yul\":5881:5901   */\n      sub\n        /* \"#utility.yul\":5877:5878   */\n      0x00\n        /* \"#utility.yul\":5866:5875   */\n      dup4\n        /* \"#utility.yul\":5862:5879   */\n      add\n        /* \"#utility.yul\":5855:5902   */\n      mstore\n        /* \"#utility.yul\":5919:6050   */\n      tag_184\n        /* \"#utility.yul\":6045:6049   */\n      dup2\n        /* \"#utility.yul\":5919:6050   */\n      tag_162\n      jump\t// in\n    tag_184:\n        /* \"#utility.yul\":5911:6050   */\n      swap1\n      pop\n        /* \"#utility.yul\":5638:6057   */\n      swap2\n      swap1\n      pop\n      jump\t// out\n        /* \"#utility.yul\":6063:6482   */\n    tag_72:\n        /* \"#utility.yul\":6229:6233   */\n      0x00\n        /* \"#utility.yul\":6267:6269   */\n      0x20\n        /* \"#utility.yul\":6256:6265   */\n      dup3\n        /* \"#utility.yul\":6252:6270   */\n      add\n        /* \"#utility.yul\":6244:6270   */\n      swap1\n      pop\n        /* \"#utility.yul\":6316:6325   */\n      dup2\n        /* \"#utility.yul\":6310:6314   */\n      dup2\n        /* \"#utility.yul\":6306:6326   */\n      sub\n        /* \"#utility.yul\":6302:6303   */\n      0x00\n        /* \"#utility.yul\":6291:6300   */\n      dup4\n        /* \"#utility.yul\":6287:6304   */\n      add\n        /* \"#utility.yul\":6280:6327   */\n      mstore\n        /* \"#utility.yul\":6344:6475   */\n      tag_186\n        /* \"#utility.yul\":6470:6474   */\n      dup2\n        /* \"#utility.yul\":6344:6475   */\n      tag_167\n      jump\t// in\n    tag_186:\n        /* \"#utility.yul\":6336:6475   */\n      swap1\n      pop\n        /* \"#utility.yul\":6063:6482   */\n      swap2\n      swap1\n      pop\n      jump\t// out\n        /* \"#utility.yul\":6488:7166   */\n    tag_84:\n        /* \"#utility.yul\":6702:6706   */\n      0x00\n        /* \"#utility.yul\":6740:6743   */\n      0x80\n        /* \"#utility.yul\":6729:6738   */\n      dup3\n        /* \"#utility.yul\":6725:6744   */\n      add\n        /* \"#utility.yul\":6717:6744   */\n      swap1\n      pop\n        /* \"#utility.yul\":6754:6825   */\n      tag_188\n        /* \"#utility.yul\":6822:6823   */\n      0x00\n        /* \"#utility.yul\":6811:6820   */\n      dup4\n        /* \"#utility.yul\":6807:6824   */\n      add\n        /* \"#utility.yul\":6798:6804   */\n      dup9\n        /* \"#utility.yul\":6754:6825   */\n      tag_172\n      jump\t// in\n    tag_188:\n        /* \"#utility.yul\":6835:6914   */\n      tag_189\n        /* \"#utility.yul\":6910:6912   */\n      0x20\n        /* \"#utility.yul\":6899:6908   */\n      dup4\n        /* \"#utility.yul\":6895:6913   */\n      add\n        /* \"#utility.yul\":6886:6892   */\n      dup8\n        /* \"#utility.yul\":6835:6914   */\n      tag_137\n      jump\t// in\n    tag_189:\n        /* \"#utility.yul\":6961:6970   */\n      dup2\n        /* \"#utility.yul\":6955:6959   */\n      dup2\n        /* \"#utility.yul\":6951:6971   */\n      sub\n        /* \"#utility.yul\":6946:6948   */\n      0x40\n        /* \"#utility.yul\":6935:6944   */\n      dup4\n        /* \"#utility.yul\":6931:6949   */\n      add\n        /* \"#utility.yul\":6924:6972   */\n      mstore\n        /* \"#utility.yul\":6989:7077   */\n      tag_190\n        /* \"#utility.yul\":7072:7076   */\n      dup2\n        /* \"#utility.yul\":7063:7069   */\n      dup6\n        /* \"#utility.yul\":7055:7061   */\n      dup8\n        /* \"#utility.yul\":6989:7077   */\n      tag_141\n      jump\t// in\n    tag_190:\n        /* \"#utility.yul\":6981:7077   */\n      swap1\n      pop\n        /* \"#utility.yul\":7087:7159   */\n      tag_191\n        /* \"#utility.yul\":7155:7157   */\n      0x60\n        /* \"#utility.yul\":7144:7153   */\n      dup4\n        /* \"#utility.yul\":7140:7158   */\n      add\n        /* \"#utility.yul\":7131:7137   */\n      dup5\n        /* \"#utility.yul\":7087:7159   */\n      tag_129\n      jump\t// in\n    tag_191:\n        /* \"#utility.yul\":6488:7166   */\n      swap7\n      swap6\n      pop\n      pop\n      pop\n      pop\n      pop\n      pop\n      jump\t// out\n        /* \"#utility.yul\":7253:7352   */\n    tag_152:\n        /* \"#utility.yul\":7305:7311   */\n      0x00\n        /* \"#utility.yul\":7339:7344   */\n      dup2\n        /* \"#utility.yul\":7333:7345   */\n      mload\n        /* \"#utility.yul\":7323:7345   */\n      swap1\n      pop\n        /* \"#utility.yul\":7253:7352   */\n      swap2\n      swap1\n      pop\n      jump\t// out\n        /* \"#utility.yul\":7358:7527   */\n    tag_144:\n        /* \"#utility.yul\":7442:7453   */\n      0x00\n        /* \"#utility.yul\":7476:7482   */\n      dup3\n        /* \"#utility.yul\":7471:7474   */\n      dup3\n        /* \"#utility.yul\":7464:7483   */\n      mstore\n        /* \"#utility.yul\":7516:7520   */\n      0x20\n        /* \"#utility.yul\":7511:7514   */\n      dup3\n        /* \"#utility.yul\":7507:7521   */\n      add\n        /* \"#utility.yul\":7492:7521   */\n      swap1\n      pop\n        /* \"#utility.yul\":7358:7527   */\n      swap3\n      swap2\n      pop\n      pop\n      jump\t// out\n        /* \"#utility.yul\":7533:7838   */\n    tag_67:\n        /* \"#utility.yul\":7573:7576   */\n      0x00\n        /* \"#utility.yul\":7592:7612   */\n      tag_197\n        /* \"#utility.yul\":7610:7611   */\n      dup3\n        /* \"#utility.yul\":7592:7612   */\n      tag_175\n      jump\t// in\n    tag_197:\n        /* \"#utility.yul\":7587:7612   */\n      swap2\n      pop\n        /* \"#utility.yul\":7626:7646   */\n      tag_198\n        /* \"#utility.yul\":7644:7645   */\n      dup4\n        /* \"#utility.yul\":7626:7646   */\n      tag_175\n      jump\t// in\n    tag_198:\n        /* \"#utility.yul\":7621:7646   */\n      swap3\n      pop\n        /* \"#utility.yul\":7780:7781   */\n      dup3\n        /* \"#utility.yul\":7712:7778   */\n      0xffffffffffffffffffffffffffffffffffffffffffffffffffffffffffffffff\n        /* \"#utility.yul\":7708:7782   */\n      sub\n        /* \"#utility.yul\":7705:7706   */\n      dup3\n        /* \"#utility.yul\":7702:7783   */\n      gt\n        /* \"#utility.yul\":7699:7806   */\n      iszero\n      tag_199\n      jumpi\n        /* \"#utility.yul\":7786:7804   */\n      tag_200\n      tag_201\n      jump\t// in\n    tag_200:\n        /* \"#utility.yul\":7699:7806   */\n    tag_199:\n        /* \"#utility.yul\":7830:7831   */\n      dup3\n        /* \"#utility.yul\":7827:7828   */\n      dup3\n        /* \"#utility.yul\":7823:7832   */\n      add\n        /* \"#utility.yul\":7816:7832   */\n      swap1\n      pop\n        /* \"#utility.yul\":7533:7838   */\n      swap3\n      swap2\n      pop\n      pop\n      jump\t// out\n        /* \"#utility.yul\":7844:8035   */\n    tag_60:\n        /* \"#utility.yul\":7884:7888   */\n      0x00\n        /* \"#utility.yul\":7904:7924   */\n      tag_203\n        /* \"#utility.yul\":7922:7923   */\n      dup3\n        /* \"#utility.yul\":7904:7924   */\n      tag_175\n      jump\t// in\n    tag_203:\n        /* \"#utility.yul\":7899:7924   */\n      swap2\n      pop\n        /* \"#utility.yul\":7938:7958   */\n      tag_204\n        /* \"#utility.yul\":7956:7957   */\n      dup4\n        /* \"#utility.yul\":7938:7958   */\n      tag_175\n      jump\t// in\n    tag_204:\n        /* \"#utility.yul\":7933:7958   */\n      swap3\n      pop\n        /* \"#utility.yul\":7977:7978   */\n      dup3\n        /* \"#utility.yul\":7974:7975   */\n      dup3\n        /* \"#utility.yul\":7971:7979   */\n      lt\n        /* \"#utility.yul\":7968:8002   */\n      iszero\n      tag_205\n      jumpi\n        /* \"#utility.yul\":7982:8000   */\n      tag_206\n      tag_201\n      jump\t// in\n    tag_206:\n        /* \"#utility.yul\":7968:8002   */\n    tag_205:\n        /* \"#utility.yul\":8027:8028   */\n      dup3\n        /* \"#utility.yul\":8024:8025   */\n      dup3\n        /* \"#utility.yul\":8020:8029   */\n      sub\n        /* \"#utility.yul\":8012:8029   */\n      swap1\n      pop\n        /* \"#utility.yul\":7844:8035   */\n      swap3\n      swap2\n      pop\n      pop\n      jump\t// out\n        /* \"#utility.yul\":8041:8137   */\n    tag_132:\n        /* \"#utility.yul\":8078:8085   */\n      0x00\n        /* \"#utility.yul\":8107:8131   */\n      tag_208\n        /* \"#utility.yul\":8125:8130   */\n      dup3\n        /* \"#utility.yul\":8107:8131   */\n      tag_209\n      jump\t// in\n    tag_208:\n        /* \"#utility.yul\":8096:8131   */\n      swap1\n      pop\n        /* \"#utility.yul\":8041:8137   */\n      swap2\n      swap1\n      pop\n      jump\t// out\n        /* \"#utility.yul\":8143:8233   */\n    tag_136:\n        /* \"#utility.yul\":8177:8184   */\n      0x00\n        /* \"#utility.yul\":8220:8225   */\n      dup2\n        /* \"#utility.yul\":8213:8226   */\n      iszero\n        /* \"#utility.yul\":8206:8227   */\n      iszero\n        /* \"#utility.yul\":8195:8227   */\n      swap1\n      pop\n        /* \"#utility.yul\":8143:8233   */\n      swap2\n      swap1\n      pop\n      jump\t// out\n        /* \"#utility.yul\":8239:8368   */\n    tag_211:\n        /* \"#utility.yul\":8285:8292   */\n      0x00\n        /* \"#utility.yul\":8314:8319   */\n      dup2\n        /* \"#utility.yul\":8303:8319   */\n      swap1\n      pop\n        /* \"#utility.yul\":8320:8362   */\n      tag_213\n        /* \"#utility.yul\":8356:8361   */\n      dup3\n        /* \"#utility.yul\":8320:8362   */\n      tag_214\n      jump\t// in\n    tag_213:\n        /* \"#utility.yul\":8239:8368   */\n      swap2\n      swap1\n      pop\n      jump\t// out\n        /* \"#utility.yul\":8374:8500   */\n    tag_209:\n        /* \"#utility.yul\":8411:8418   */\n      0x00\n        /* \"#utility.yul\":8451:8493   */\n      0xffffffffffffffffffffffffffffffffffffffff\n        /* \"#utility.yul\":8444:8449   */\n      dup3\n        /* \"#utility.yul\":8440:8494   */\n      and\n        /* \"#utility.yul\":8429:8494   */\n      swap1\n      pop\n        /* \"#utility.yul\":8374:8500   */\n      swap2\n      swap1\n      pop\n      jump\t// out\n        /* \"#utility.yul\":8506:8583   */\n    tag_175:\n        /* \"#utility.yul\":8543:8550   */\n      0x00\n        /* \"#utility.yul\":8572:8577   */\n      dup2\n        /* \"#utility.yul\":8561:8577   */\n      swap1\n      pop\n        /* \"#utility.yul\":8506:8583   */\n      swap2\n      swap1\n      pop\n      jump\t// out\n        /* \"#utility.yul\":8589:8718   */\n    tag_140:\n        /* \"#utility.yul\":8646:8655   */\n      0x00\n        /* \"#utility.yul\":8679:8712   */\n      tag_218\n        /* \"#utility.yul\":8706:8711   */\n      dup3\n        /* \"#utility.yul\":8679:8712   */\n      tag_211\n      jump\t// in\n    tag_218:\n        /* \"#utility.yul\":8666:8712   */\n      swap1\n      pop\n        /* \"#utility.yul\":8589:8718   */\n      swap2\n      swap1\n      pop\n      jump\t// out\n        /* \"#utility.yul\":8724:8878   */\n    tag_146:\n        /* \"#utility.yul\":8808:8814   */\n      dup3\n        /* \"#utility.yul\":8803:8806   */\n      dup2\n        /* \"#utility.yul\":8798:8801   */\n      dup4\n        /* \"#utility.yul\":8785:8815   */\n      calldatacopy\n        /* \"#utility.yul\":8870:8871   */\n      0x00\n        /* \"#utility.yul\":8861:8867   */\n      dup4\n        /* \"#utility.yul\":8856:8859   */\n      dup4\n        /* \"#utility.yul\":8852:8868   */\n      add\n        /* \"#utility.yul\":8845:8872   */\n      mstore\n        /* \"#utility.yul\":8724:8878   */\n      pop\n      pop\n      pop\n      jump\t// out\n        /* \"#utility.yul\":8884:9191   */\n    tag_155:\n        /* \"#utility.yul\":8952:8953   */\n      0x00\n        /* \"#utility.yul\":8962:9075   */\n    tag_221:\n        /* \"#utility.yul\":8976:8982   */\n      dup4\n        /* \"#utility.yul\":8973:8974   */\n      dup2\n        /* \"#utility.yul\":8970:8983   */\n      lt\n        /* \"#utility.yul\":8962:9075   */\n      iszero\n      tag_223\n      jumpi\n        /* \"#utility.yul\":9061:9062   */\n      dup1\n        /* \"#utility.yul\":9056:9059   */\n      dup3\n        /* \"#utility.yul\":9052:9063   */\n      add\n        /* \"#utility.yul\":9046:9064   */\n      mload\n        /* \"#utility.yul\":9042:9043   */\n      dup2\n        /* \"#utility.yul\":9037:9040   */\n      dup5\n        /* \"#utility.yul\":9033:9044   */\n      add\n        /* \"#utility.yul\":9026:9065   */\n      mstore\n        /* \"#utility.yul\":8998:9000   */\n      0x20\n        /* \"#utility.yul\":8995:8996   */\n      dup2\n        /* \"#utility.yul\":8991:9001   */\n      add\n        /* \"#utility.yul\":8986:9001   */\n      swap1\n      pop\n        /* \"#utility.yul\":8962:9075   */\n      jump(tag_221)\n    tag_223:\n        /* \"#utility.yul\":9093:9099   */\n      dup4\n        /* \"#utility.yul\":9090:9091   */\n      dup2\n        /* \"#utility.yul\":9087:9100   */\n      gt\n        /* \"#utility.yul\":9084:9185   */\n      iszero\n      tag_224\n      jumpi\n        /* \"#utility.yul\":9173:9174   */\n      0x00\n        /* \"#utility.yul\":9164:9170   */\n      dup5\n        /* \"#utility.yul\":9159:9162   */\n      dup5\n        /* \"#utility.yul\":9155:9171   */\n      add\n        /* \"#utility.yul\":9148:9175   */\n      mstore\n        /* \"#utility.yul\":9084:9185   */\n    tag_224:\n        /* \"#utility.yul\":8933:9191   */\n      pop\n        /* \"#utility.yul\":8884:9191   */\n      pop\n      pop\n      pop\n      jump\t// out\n        /* \"#utility.yul\":9197:9517   */\n    tag_26:\n        /* \"#utility.yul\":9241:9247   */\n      0x00\n        /* \"#utility.yul\":9278:9279   */\n      0x02\n        /* \"#utility.yul\":9272:9276   */\n      dup3\n        /* \"#utility.yul\":9268:9280   */\n      div\n        /* \"#utility.yul\":9258:9280   */\n      swap1\n      pop\n        /* \"#utility.yul\":9325:9326   */\n      0x01\n        /* \"#utility.yul\":9319:9323   */\n      dup3\n        /* \"#utility.yul\":9315:9327   */\n      and\n        /* \"#utility.yul\":9346:9364   */\n      dup1\n        /* \"#utility.yul\":9336:9417   */\n      tag_226\n      jumpi\n        /* \"#utility.yul\":9402:9406   */\n      0x7f\n        /* \"#utility.yul\":9394:9400   */\n      dup3\n        /* \"#utility.yul\":9390:9407   */\n      and\n        /* \"#utility.yul\":9380:9407   */\n      swap2\n      pop\n        /* \"#utility.yul\":9336:9417   */\n    tag_226:\n        /* \"#utility.yul\":9464:9466   */\n      0x20\n        /* \"#utility.yul\":9456:9462   */\n      dup3\n        /* \"#utility.yul\":9453:9467   */\n      lt\n        /* \"#utility.yul\":9433:9451   */\n      dup2\n        /* \"#utility.yul\":9430:9468   */\n      eq\n        /* \"#utility.yul\":9427:9511   */\n      iszero\n      tag_227\n      jumpi\n        /* \"#utility.yul\":9483:9501   */\n      tag_228\n      tag_229\n      jump\t// in\n    tag_228:\n        /* \"#utility.yul\":9427:9511   */\n    tag_227:\n        /* \"#utility.yul\":9248:9517   */\n      pop\n        /* \"#utility.yul\":9197:9517   */\n      swap2\n      swap1\n      pop\n      jump\t// out\n        /* \"#utility.yul\":9523:9703   */\n    tag_201:\n        /* \"#utility.yul\":9571:9648   */\n      0x4e487b7100000000000000000000000000000000000000000000000000000000\n        /* \"#utility.yul\":9568:9569   */\n      0x00\n        /* \"#utility.yul\":9561:9649   */\n      mstore\n        /* \"#utility.yul\":9668:9672   */\n      0x11\n        /* \"#utility.yul\":9665:9666   */\n      0x04\n        /* \"#utility.yul\":9658:9673   */\n      mstore\n        /* \"#utility.yul\":9692:9696   */\n      0x24\n        /* \"#utility.yul\":9689:9690   */\n      0x00\n        /* \"#utility.yul\":9682:9697   */\n      revert\n        /* \"#utility.yul\":9709:9889   */\n    tag_37:\n        /* \"#utility.yul\":9757:9834   */\n      0x4e487b7100000000000000000000000000000000000000000000000000000000\n        /* \"#utility.yul\":9754:9755   */\n      0x00\n        /* \"#utility.yul\":9747:9835   */\n      mstore\n        /* \"#utility.yul\":9854:9858   */\n      0x21\n        /* \"#utility.yul\":9851:9852   */\n      0x04\n        /* \"#utility.yul\":9844:9859   */\n      mstore\n        /* \"#utility.yul\":9878:9882   */\n      0x24\n        /* \"#utility.yul\":9875:9876   */\n      0x00\n        /* \"#utility.yul\":9868:9883   */\n      revert\n        /* \"#utility.yul\":9895:10075   */\n    tag_229:\n        /* \"#utility.yul\":9943:10020   */\n      0x4e487b7100000000000000000000000000000000000000000000000000000000\n        /* \"#utility.yul\":9940:9941   */\n      0x00\n        /* \"#utility.yul\":9933:10021   */\n      mstore\n        /* \"#utility.yul\":10040:10044   */\n      0x22\n        /* \"#utility.yul\":10037:10038   */\n      0x04\n        /* \"#utility.yul\":10030:10045   */\n      mstore\n        /* \"#utility.yul\":10064:10068   */\n      0x24\n        /* \"#utility.yul\":10061:10062   */\n      0x00\n        /* \"#utility.yul\":10054:10069   */\n      revert\n        /* \"#utility.yul\":10081:10261   */\n    tag_63:\n        /* \"#utility.yul\":10129:10206   */\n      0x4e487b7100000000000000000000000000000000000000000000000000000000\n        /* \"#utility.yul\":10126:10127   */\n      0x00\n        /* \"#utility.yul\":10119:10207   */\n      mstore\n        /* \"#utility.yul\":10226:10230   */\n      0x32\n        /* \"#utility.yul\":10223:10224   */\n      0x04\n        /* \"#utility.yul\":10216:10231   */\n      mstore\n        /* \"#utility.yul\":10250:10254   */\n      0x24\n        /* \"#utility.yul\":10247:10248   */\n      0x00\n        /* \"#utility.yul\":10240:10255   */\n      revert\n        /* \"#utility.yul\":10267:10384   */\n    tag_103:\n        /* \"#utility.yul\":10376:10377   */\n      0x00\n        /* \"#utility.yul\":10373:10374   */\n      dup1\n        /* \"#utility.yul\":10366:10378   */\n      revert\n        /* \"#utility.yul\":10390:10507   */\n    tag_100:\n        /* \"#utility.yul\":10499:10500   */\n      0x00\n        /* \"#utility.yul\":10496:10497   */\n      dup1\n        /* \"#utility.yul\":10489:10501   */\n      revert\n        /* \"#utility.yul\":10513:10630   */\n    tag_106:\n        /* \"#utility.yul\":10622:10623   */\n      0x00\n        /* \"#utility.yul\":10619:10620   */\n      dup1\n        /* \"#utility.yul\":10612:10624   */\n      revert\n        /* \"#utility.yul\":10636:10753   */\n    tag_122:\n        /* \"#utility.yul\":10745:10746   */\n      0x00\n        /* \"#utility.yul\":10742:10743   */\n      dup1\n        /* \"#utility.yul\":10735:10747   */\n      revert\n        /* \"#utility.yul\":10759:10876   */\n    tag_114:\n        /* \"#utility.yul\":10868:10869   */\n      0x00\n        /* \"#utility.yul\":10865:10866   */\n      dup1\n        /* \"#utility.yul\":10858:10870   */\n      revert\n        /* \"#utility.yul\":10882:10984   */\n    tag_148:\n        /* \"#utility.yul\":10923:10929   */\n      0x00\n        /* \"#utility.yul\":10974:10976   */\n      0x1f\n        /* \"#utility.yul\":10970:10977   */\n      not\n        /* \"#utility.yul\":10965:10967   */\n      0x1f\n        /* \"#utility.yul\":10958:10963   */\n      dup4\n        /* \"#utility.yul\":10954:10968   */\n      add\n        /* \"#utility.yul\":10950:10978   */\n      and\n        /* \"#utility.yul\":10940:10978   */\n      swap1\n      pop\n        /* \"#utility.yul\":10882:10984   */\n      swap2\n      swap1\n      pop\n      jump\t// out\n        /* \"#utility.yul\":10990:11167   */\n    tag_161:\n        /* \"#utility.yul\":11130:11159   */\n      0x546869732070726f6475637420646f65736e2774206578697374730000000000\n        /* \"#utility.yul\":11126:11127   */\n      0x00\n        /* \"#utility.yul\":11118:11124   */\n      dup3\n        /* \"#utility.yul\":11114:11128   */\n      add\n        /* \"#utility.yul\":11107:11160   */\n      mstore\n        /* \"#utility.yul\":10990:11167   */\n      pop\n      jump\t// out\n        /* \"#utility.yul\":11173:11350   */\n    tag_166:\n        /* \"#utility.yul\":11313:11342   */\n      0x546869732070726f6475637420616c7265616479206578697374730000000000\n        /* \"#utility.yul\":11309:11310   */\n      0x00\n        /* \"#utility.yul\":11301:11307   */\n      dup3\n        /* \"#utility.yul\":11297:11311   */\n      add\n        /* \"#utility.yul\":11290:11343   */\n      mstore\n        /* \"#utility.yul\":11173:11350   */\n      pop\n      jump\t// out\n        /* \"#utility.yul\":11356:11535   */\n    tag_171:\n        /* \"#utility.yul\":11496:11527   */\n      0x5468652070726f6475637420686173206e6f206d6f7265207374657073000000\n        /* \"#utility.yul\":11492:11493   */\n      0x00\n        /* \"#utility.yul\":11484:11490   */\n      dup3\n        /* \"#utility.yul\":11480:11494   */\n      add\n        /* \"#utility.yul\":11473:11528   */\n      mstore\n        /* \"#utility.yul\":11356:11535   */\n      pop\n      jump\t// out\n        /* \"#utility.yul\":11541:11655   */\n    tag_214:\n        /* \"#utility.yul\":11623:11624   */\n      0x05\n        /* \"#utility.yul\":11616:11621   */\n      dup2\n        /* \"#utility.yul\":11613:11625   */\n      lt\n        /* \"#utility.yul\":11603:11649   */\n      tag_244\n      jumpi\n        /* \"#utility.yul\":11629:11647   */\n      tag_245\n      tag_37\n      jump\t// in\n    tag_245:\n        /* \"#utility.yul\":11603:11649   */\n    tag_244:\n        /* \"#utility.yul\":11541:11655   */\n      pop\n      jump\t// out\n        /* \"#utility.yul\":11661:11783   */\n    tag_110:\n        /* \"#utility.yul\":11734:11758   */\n      tag_247\n        /* \"#utility.yul\":11752:11757   */\n      dup2\n        /* \"#utility.yul\":11734:11758   */\n      tag_175\n      jump\t// in\n    tag_247:\n        /* \"#utility.yul\":11727:11732   */\n      dup2\n        /* \"#utility.yul\":11724:11759   */\n      eq\n        /* \"#utility.yul\":11714:11777   */\n      tag_248\n      jumpi\n        /* \"#utility.yul\":11773:11774   */\n      0x00\n        /* \"#utility.yul\":11770:11771   */\n      dup1\n        /* \"#utility.yul\":11763:11775   */\n      revert\n        /* \"#utility.yul\":11714:11777   */\n    tag_248:\n        /* \"#utility.yul\":11661:11783   */\n      pop\n      jump\t// out\n\n    auxdata: 0xa264697066735822122011a3db031d7e35202c5277c59d40d08a94baf831c7728ae6953e55ce1ce9550b64736f6c63430008070033\n}\n",
				"bytecode": {
					"linkReferences": {},
					"object": "608060405234801561001057600080fd5b50610d94806100206000396000f3fe608060405234801561001057600080fd5b50600436106100415760003560e01c8063a590fbdb14610046578063c08e0f9614610077578063d21cb5f1146100a7575b600080fd5b610060600480360381019061005b9190610807565b6100d7565b60405161006e92919061096d565b60405180910390f35b610091600480360381019061008c919061077a565b6101ad565b60405161009e9190610952565b60405180910390f35b6100c160048036038101906100bc91906107a7565b6102cc565b6040516100ce9190610952565b60405180910390f35b600060205281600052604060002081815481106100f357600080fd5b9060005260206000209060020201600091509150508060000160009054906101000a900460ff169080600101805461012a90610ba0565b80601f016020809104026020016040519081016040528092919081815260200182805461015690610ba0565b80156101a35780601f10610178576101008083540402835291602001916101a3565b820191906000526020600020905b81548152906001019060200180831161018657829003601f168201915b5050505050905082565b6000806000808481526020019081526020016000208054905014610206576040517f08c379a00000000000000000000000000000000000000000000000000000000081526004016101fd906109bd565b60405180910390fd5b60008083815260200190815260200160002060405180604001604052806000600481111561023757610236610c01565b5b815260200160405180602001604052806000815250815250908060018154018082558091505060019003906000526020600020906002020160009091909190915060008201518160000160006101000a81548160ff021916908360048111156102a3576102a2610c01565b5b021790555060208201518160010190805190602001906102c492919061066c565b505050919050565b6000806000808681526020019081526020016000208054905011610325576040517f08c379a000000000000000000000000000000000000000000000000000000000815260040161031c9061099d565b60405180910390fd5b6000806000868152602001908152602001600020805480602002602001604051908101604052809291908181526020016000905b8282101561045857838290600052602060002090600202016040518060400160405290816000820160009054906101000a900460ff1660048111156103a1576103a0610c01565b5b60048111156103b3576103b2610c01565b5b81526020016001820180546103c790610ba0565b80601f01602080910402602001604051908101604052809291908181526020018280546103f390610ba0565b80156104405780601f1061041557610100808354040283529160200191610440565b820191906000526020600020905b81548152906001019060200180831161042357829003601f168201915b50505050508152505081526020019060010190610359565b5050505090506000600182600184516104719190610abd565b8151811061048257610481610c5f565b5b60200260200101516000015160048111156104a05761049f610c01565b5b6104aa9190610a67565b90506004808111156104bf576104be610c01565b5b811115610501576040517f08c379a00000000000000000000000000000000000000000000000000000000081526004016104f8906109dd565b60405180910390fd5b6000604051806040016040528083600481111561052157610520610c01565b5b600481111561053357610532610c01565b5b815260200187878080601f016020809104026020016040519081016040528093929190818152602001838380828437600081840152601f19601f82011690508083019250505050505050815250905060008088815260200190815260200160002081908060018154018082558091505060019003906000526020600020906002020160009091909190915060008201518160000160006101000a81548160ff021916908360048111156105e9576105e8610c01565b5b0217905550602082015181600101908051906020019061060a92919061066c565b5050507fd9383aed0754623db576930ac0e5fd2e888ec2ba0a3cbaa724e47c49c70d91288783600481111561064257610641610c01565b5b8888336040516106569594939291906109fd565b60405180910390a1600193505050509392505050565b82805461067890610ba0565b90600052602060002090601f01602090048101928261069a57600085556106e1565b82601f106106b357805160ff19168380011785556106e1565b828001600101855582156106e1579182015b828111156106e05782518255916020019190600101906106c5565b5b5090506106ee91906106f2565b5090565b5b8082111561070b5760008160009055506001016106f3565b5090565b60008083601f84011261072557610724610c93565b5b8235905067ffffffffffffffff81111561074257610741610c8e565b5b60208301915083600182028301111561075e5761075d610c98565b5b9250929050565b60008135905061077481610d47565b92915050565b6000602082840312156107905761078f610ca2565b5b600061079e84828501610765565b91505092915050565b6000806000604084860312156107c0576107bf610ca2565b5b60006107ce86828701610765565b935050602084013567ffffffffffffffff8111156107ef576107ee610c9d565b5b6107fb8682870161070f565b92509250509250925092565b6000806040838503121561081e5761081d610ca2565b5b600061082c85828601610765565b925050602061083d85828601610765565b9150509250929050565b61085081610af1565b82525050565b61085f81610b03565b82525050565b61086e81610b4c565b82525050565b60006108808385610a56565b935061088d838584610b5e565b61089683610ca7565b840190509392505050565b60006108ac82610a4b565b6108b68185610a56565b93506108c6818560208601610b6d565b6108cf81610ca7565b840191505092915050565b60006108e7601b83610a56565b91506108f282610cb8565b602082019050919050565b600061090a601b83610a56565b915061091582610ce1565b602082019050919050565b600061092d601d83610a56565b915061093882610d0a565b602082019050919050565b61094c81610b42565b82525050565b60006020820190506109676000830184610856565b92915050565b60006040820190506109826000830185610865565b818103602083015261099481846108a1565b90509392505050565b600060208201905081810360008301526109b6816108da565b9050919050565b600060208201905081810360008301526109d6816108fd565b9050919050565b600060208201905081810360008301526109f681610920565b9050919050565b6000608082019050610a126000830188610943565b610a1f6020830187610865565b8181036040830152610a32818587610874565b9050610a416060830184610847565b9695505050505050565b600081519050919050565b600082825260208201905092915050565b6000610a7282610b42565b9150610a7d83610b42565b9250827fffffffffffffffffffffffffffffffffffffffffffffffffffffffffffffffff03821115610ab257610ab1610bd2565b5b828201905092915050565b6000610ac882610b42565b9150610ad383610b42565b925082821015610ae657610ae5610bd2565b5b828203905092915050565b6000610afc82610b22565b9050919050565b60008115159050919050565b6000819050610b1d82610d33565b919050565b600073ffffffffffffffffffffffffffffffffffffffff82169050919050565b6000819050919050565b6000610b5782610b0f565b9050919050565b82818337600083830152505050565b60005b83811015610b8b578082015181840152602081019050610b70565b83811115610b9a576000848401525b50505050565b60006002820490506001821680610bb857607f821691505b60208210811415610bcc57610bcb610c30565b5b50919050565b7f4e487b7100000000000000000000000000000000000000000000000000000000600052601160045260246000fd5b7f4e487b7100000000000000000000000000000000000000000000000000000000600052602160045260246000fd5b7f4e487b7100000000000000000000000000000000000000000000000000000000600052602260045260246000fd5b7f4e487b7100000000000000000000000000000000000000000000000000000000600052603260045260246000fd5b600080fd5b600080fd5b600080fd5b600080fd5b600080fd5b6000601f19601f8301169050919050565b7f546869732070726f6475637420646f65736e2774206578697374730000000000600082015250565b7f546869732070726f6475637420616c7265616479206578697374730000000000600082015250565b7f5468652070726f6475637420686173206e6f206d6f7265207374657073000000600082015250565b60058110610d4457610d43610c01565b5b50565b610d5081610b42565b8114610d5b57600080fd5b5056fea264697066735822122011a3db031d7e35202c5277c59d40d08a94baf831c7728ae6953e55ce1ce9550b64736f6c63430008070033",
					"opcodes": "PUSH1 0x80 PUSH1 0x40 MSTORE CALLVALUE DUP1 ISZERO PUSH2 0x10 JUMPI PUSH1 0x0 DUP1 REVERT JUMPDEST POP PUSH2 0xD94 DUP1 PUSH2 0x20 PUSH1 0x0 CODECOPY PUSH1 0x0 RETURN INVALID PUSH1 0x80 PUSH1 0x40 MSTORE CALLVALUE DUP1 ISZERO PUSH2 0x10 JUMPI PUSH1 0x0 DUP1 REVERT JUMPDEST POP PUSH1 0x4 CALLDATASIZE LT PUSH2 0x41 JUMPI PUSH1 0x0 CALLDATALOAD PUSH1 0xE0 SHR DUP1 PUSH4 0xA590FBDB EQ PUSH2 0x46 JUMPI DUP1 PUSH4 0xC08E0F96 EQ PUSH2 0x77 JUMPI DUP1 PUSH4 0xD21CB5F1 EQ PUSH2 0xA7 JUMPI JUMPDEST PUSH1 0x0 DUP1 REVERT JUMPDEST PUSH2 0x60 PUSH1 0x4 DUP1 CALLDATASIZE SUB DUP2 ADD SWAP1 PUSH2 0x5B SWAP2 SWAP1 PUSH2 0x807 JUMP JUMPDEST PUSH2 0xD7 JUMP JUMPDEST PUSH1 0x40 MLOAD PUSH2 0x6E SWAP3 SWAP2 SWAP1 PUSH2 0x96D JUMP JUMPDEST PUSH1 0x40 MLOAD DUP1 SWAP2 SUB SWAP1 RETURN JUMPDEST PUSH2 0x91 PUSH1 0x4 DUP1 CALLDATASIZE SUB DUP2 ADD SWAP1 PUSH2 0x8C SWAP2 SWAP1 PUSH2 0x77A JUMP JUMPDEST PUSH2 0x1AD JUMP JUMPDEST PUSH1 0x40 MLOAD PUSH2 0x9E SWAP2 SWAP1 PUSH2 0x952 JUMP JUMPDEST PUSH1 0x40 MLOAD DUP1 SWAP2 SUB SWAP1 RETURN JUMPDEST PUSH2 0xC1 PUSH1 0x4 DUP1 CALLDATASIZE SUB DUP2 ADD SWAP1 PUSH2 0xBC SWAP2 SWAP1 PUSH2 0x7A7 JUMP JUMPDEST PUSH2 0x2CC JUMP JUMPDEST PUSH1 0x40 MLOAD PUSH2 0xCE SWAP2 SWAP1 PUSH2 0x952 JUMP JUMPDEST PUSH1 0x40 MLOAD DUP1 SWAP2 SUB SWAP1 RETURN JUMPDEST PUSH1 0x0 PUSH1 0x20 MSTORE DUP2 PUSH1 0x0 MSTORE PUSH1 0x40 PUSH1 0x0 KECCAK256 DUP2 DUP2 SLOAD DUP2 LT PUSH2 0xF3 JUMPI PUSH1 0x0 DUP1 REVERT JUMPDEST SWAP1 PUSH1 0x0 MSTORE PUSH1 0x20 PUSH1 0x0 KECCAK256 SWAP1 PUSH1 0x2 MUL ADD PUSH1 0x0 SWAP2 POP SWAP2 POP POP DUP1 PUSH1 0x0 ADD PUSH1 0x0 SWAP1 SLOAD SWAP1 PUSH2 0x100 EXP SWAP1 DIV PUSH1 0xFF AND SWAP1 DUP1 PUSH1 0x1 ADD DUP1 SLOAD PUSH2 0x12A SWAP1 PUSH2 0xBA0 JUMP JUMPDEST DUP1 PUSH1 0x1F ADD PUSH1 0x20 DUP1 SWAP2 DIV MUL PUSH1 0x20 ADD PUSH1 0x40 MLOAD SWAP1 DUP2 ADD PUSH1 0x40 MSTORE DUP1 SWAP3 SWAP2 SWAP1 DUP2 DUP2 MSTORE PUSH1 0x20 ADD DUP3 DUP1 SLOAD PUSH2 0x156 SWAP1 PUSH2 0xBA0 JUMP JUMPDEST DUP1 ISZERO PUSH2 0x1A3 JUMPI DUP1 PUSH1 0x1F LT PUSH2 0x178 JUMPI PUSH2 0x100 DUP1 DUP4 SLOAD DIV MUL DUP4 MSTORE SWAP2 PUSH1 0x20 ADD SWAP2 PUSH2 0x1A3 JUMP JUMPDEST DUP3 ADD SWAP2 SWAP1 PUSH1 0x0 MSTORE PUSH1 0x20 PUSH1 0x0 KECCAK256 SWAP1 JUMPDEST DUP2 SLOAD DUP2 MSTORE SWAP1 PUSH1 0x1 ADD SWAP1 PUSH1 0x20 ADD DUP1 DUP4 GT PUSH2 0x186 JUMPI DUP3 SWAP1 SUB PUSH1 0x1F AND DUP3 ADD SWAP2 JUMPDEST POP POP POP POP POP SWAP1 POP DUP3 JUMP JUMPDEST PUSH1 0x0 DUP1 PUSH1 0x0 DUP1 DUP5 DUP2 MSTORE PUSH1 0x20 ADD SWAP1 DUP2 MSTORE PUSH1 0x20 ADD PUSH1 0x0 KECCAK256 DUP1 SLOAD SWAP1 POP EQ PUSH2 0x206 JUMPI PUSH1 0x40 MLOAD PUSH32 0x8C379A000000000000000000000000000000000000000000000000000000000 DUP2 MSTORE PUSH1 0x4 ADD PUSH2 0x1FD SWAP1 PUSH2 0x9BD JUMP JUMPDEST PUSH1 0x40 MLOAD DUP1 SWAP2 SUB SWAP1 REVERT JUMPDEST PUSH1 0x0 DUP1 DUP4 DUP2 MSTORE PUSH1 0x20 ADD SWAP1 DUP2 MSTORE PUSH1 0x20 ADD PUSH1 0x0 KECCAK256 PUSH1 0x40 MLOAD DUP1 PUSH1 0x40 ADD PUSH1 0x40 MSTORE DUP1 PUSH1 0x0 PUSH1 0x4 DUP2 GT ISZERO PUSH2 0x237 JUMPI PUSH2 0x236 PUSH2 0xC01 JUMP JUMPDEST JUMPDEST DUP2 MSTORE PUSH1 0x20 ADD PUSH1 0x40 MLOAD DUP1 PUSH1 0x20 ADD PUSH1 0x40 MSTORE DUP1 PUSH1 0x0 DUP2 MSTORE POP DUP2 MSTORE POP SWAP1 DUP1 PUSH1 0x1 DUP2 SLOAD ADD DUP1 DUP3 SSTORE DUP1 SWAP2 POP POP PUSH1 0x1 SWAP1 SUB SWAP1 PUSH1 0x0 MSTORE PUSH1 0x20 PUSH1 0x0 KECCAK256 SWAP1 PUSH1 0x2 MUL ADD PUSH1 0x0 SWAP1 SWAP2 SWAP1 SWAP2 SWAP1 SWAP2 POP PUSH1 0x0 DUP3 ADD MLOAD DUP2 PUSH1 0x0 ADD PUSH1 0x0 PUSH2 0x100 EXP DUP2 SLOAD DUP2 PUSH1 0xFF MUL NOT AND SWAP1 DUP4 PUSH1 0x4 DUP2 GT ISZERO PUSH2 0x2A3 JUMPI PUSH2 0x2A2 PUSH2 0xC01 JUMP JUMPDEST JUMPDEST MUL OR SWAP1 SSTORE POP PUSH1 0x20 DUP3 ADD MLOAD DUP2 PUSH1 0x1 ADD SWAP1 DUP1 MLOAD SWAP1 PUSH1 0x20 ADD SWAP1 PUSH2 0x2C4 SWAP3 SWAP2 SWAP1 PUSH2 0x66C JUMP JUMPDEST POP POP POP SWAP2 SWAP1 POP JUMP JUMPDEST PUSH1 0x0 DUP1 PUSH1 0x0 DUP1 DUP7 DUP2 MSTORE PUSH1 0x20 ADD SWAP1 DUP2 MSTORE PUSH1 0x20 ADD PUSH1 0x0 KECCAK256 DUP1 SLOAD SWAP1 POP GT PUSH2 0x325 JUMPI PUSH1 0x40 MLOAD PUSH32 0x8C379A000000000000000000000000000000000000000000000000000000000 DUP2 MSTORE PUSH1 0x4 ADD PUSH2 0x31C SWAP1 PUSH2 0x99D JUMP JUMPDEST PUSH1 0x40 MLOAD DUP1 SWAP2 SUB SWAP1 REVERT JUMPDEST PUSH1 0x0 DUP1 PUSH1 0x0 DUP7 DUP2 MSTORE PUSH1 0x20 ADD SWAP1 DUP2 MSTORE PUSH1 0x20 ADD PUSH1 0x0 KECCAK256 DUP1 SLOAD DUP1 PUSH1 0x20 MUL PUSH1 0x20 ADD PUSH1 0x40 MLOAD SWAP1 DUP2 ADD PUSH1 0x40 MSTORE DUP1 SWAP3 SWAP2 SWAP1 DUP2 DUP2 MSTORE PUSH1 0x20 ADD PUSH1 0x0 SWAP1 JUMPDEST DUP3 DUP3 LT ISZERO PUSH2 0x458 JUMPI DUP4 DUP3 SWAP1 PUSH1 0x0 MSTORE PUSH1 0x20 PUSH1 0x0 KECCAK256 SWAP1 PUSH1 0x2 MUL ADD PUSH1 0x40 MLOAD DUP1 PUSH1 0x40 ADD PUSH1 0x40 MSTORE SWAP1 DUP2 PUSH1 0x0 DUP3 ADD PUSH1 0x0 SWAP1 SLOAD SWAP1 PUSH2 0x100 EXP SWAP1 DIV PUSH1 0xFF AND PUSH1 0x4 DUP2 GT ISZERO PUSH2 0x3A1 JUMPI PUSH2 0x3A0 PUSH2 0xC01 JUMP JUMPDEST JUMPDEST PUSH1 0x4 DUP2 GT ISZERO PUSH2 0x3B3 JUMPI PUSH2 0x3B2 PUSH2 0xC01 JUMP JUMPDEST JUMPDEST DUP2 MSTORE PUSH1 0x20 ADD PUSH1 0x1 DUP3 ADD DUP1 SLOAD PUSH2 0x3C7 SWAP1 PUSH2 0xBA0 JUMP JUMPDEST DUP1 PUSH1 0x1F ADD PUSH1 0x20 DUP1 SWAP2 DIV MUL PUSH1 0x20 ADD PUSH1 0x40 MLOAD SWAP1 DUP2 ADD PUSH1 0x40 MSTORE DUP1 SWAP3 SWAP2 SWAP1 DUP2 DUP2 MSTORE PUSH1 0x20 ADD DUP3 DUP1 SLOAD PUSH2 0x3F3 SWAP1 PUSH2 0xBA0 JUMP JUMPDEST DUP1 ISZERO PUSH2 0x440 JUMPI DUP1 PUSH1 0x1F LT PUSH2 0x415 JUMPI PUSH2 0x100 DUP1 DUP4 SLOAD DIV MUL DUP4 MSTORE SWAP2 PUSH1 0x20 ADD SWAP2 PUSH2 0x440 JUMP JUMPDEST DUP3 ADD SWAP2 SWAP1 PUSH1 0x0 MSTORE PUSH1 0x20 PUSH1 0x0 KECCAK256 SWAP1 JUMPDEST DUP2 SLOAD DUP2 MSTORE SWAP1 PUSH1 0x1 ADD SWAP1 PUSH1 0x20 ADD DUP1 DUP4 GT PUSH2 0x423 JUMPI DUP3 SWAP1 SUB PUSH1 0x1F AND DUP3 ADD SWAP2 JUMPDEST POP POP POP POP POP DUP2 MSTORE POP POP DUP2 MSTORE PUSH1 0x20 ADD SWAP1 PUSH1 0x1 ADD SWAP1 PUSH2 0x359 JUMP JUMPDEST POP POP POP POP SWAP1 POP PUSH1 0x0 PUSH1 0x1 DUP3 PUSH1 0x1 DUP5 MLOAD PUSH2 0x471 SWAP2 SWAP1 PUSH2 0xABD JUMP JUMPDEST DUP2 MLOAD DUP2 LT PUSH2 0x482 JUMPI PUSH2 0x481 PUSH2 0xC5F JUMP JUMPDEST JUMPDEST PUSH1 0x20 MUL PUSH1 0x20 ADD ADD MLOAD PUSH1 0x0 ADD MLOAD PUSH1 0x4 DUP2 GT ISZERO PUSH2 0x4A0 JUMPI PUSH2 0x49F PUSH2 0xC01 JUMP JUMPDEST JUMPDEST PUSH2 0x4AA SWAP2 SWAP1 PUSH2 0xA67 JUMP JUMPDEST SWAP1 POP PUSH1 0x4 DUP1 DUP2 GT ISZERO PUSH2 0x4BF JUMPI PUSH2 0x4BE PUSH2 0xC01 JUMP JUMPDEST JUMPDEST DUP2 GT ISZERO PUSH2 0x501 JUMPI PUSH1 0x40 MLOAD PUSH32 0x8C379A000000000000000000000000000000000000000000000000000000000 DUP2 MSTORE PUSH1 0x4 ADD PUSH2 0x4F8 SWAP1 PUSH2 0x9DD JUMP JUMPDEST PUSH1 0x40 MLOAD DUP1 SWAP2 SUB SWAP1 REVERT JUMPDEST PUSH1 0x0 PUSH1 0x40 MLOAD DUP1 PUSH1 0x40 ADD PUSH1 0x40 MSTORE DUP1 DUP4 PUSH1 0x4 DUP2 GT ISZERO PUSH2 0x521 JUMPI PUSH2 0x520 PUSH2 0xC01 JUMP JUMPDEST JUMPDEST PUSH1 0x4 DUP2 GT ISZERO PUSH2 0x533 JUMPI PUSH2 0x532 PUSH2 0xC01 JUMP JUMPDEST JUMPDEST DUP2 MSTORE PUSH1 0x20 ADD DUP8 DUP8 DUP1 DUP1 PUSH1 0x1F ADD PUSH1 0x20 DUP1 SWAP2 DIV MUL PUSH1 0x20 ADD PUSH1 0x40 MLOAD SWAP1 DUP2 ADD PUSH1 0x40 MSTORE DUP1 SWAP4 SWAP3 SWAP2 SWAP1 DUP2 DUP2 MSTORE PUSH1 0x20 ADD DUP4 DUP4 DUP1 DUP3 DUP5 CALLDATACOPY PUSH1 0x0 DUP2 DUP5 ADD MSTORE PUSH1 0x1F NOT PUSH1 0x1F DUP3 ADD AND SWAP1 POP DUP1 DUP4 ADD SWAP3 POP POP POP POP POP POP POP DUP2 MSTORE POP SWAP1 POP PUSH1 0x0 DUP1 DUP9 DUP2 MSTORE PUSH1 0x20 ADD SWAP1 DUP2 MSTORE PUSH1 0x20 ADD PUSH1 0x0 KECCAK256 DUP2 SWAP1 DUP1 PUSH1 0x1 DUP2 SLOAD ADD DUP1 DUP3 SSTORE DUP1 SWAP2 POP POP PUSH1 0x1 SWAP1 SUB SWAP1 PUSH1 0x0 MSTORE PUSH1 0x20 PUSH1 0x0 KECCAK256 SWAP1 PUSH1 0x2 MUL ADD PUSH1 0x0 SWAP1 SWAP2 SWAP1 SWAP2 SWAP1 SWAP2 POP PUSH1 0x0 DUP3 ADD MLOAD DUP2 PUSH1 0x0 ADD PUSH1 0x0 PUSH2 0x100 EXP DUP2 SLOAD DUP2 PUSH1 0xFF MUL NOT AND SWAP1 DUP4 PUSH1 0x4 DUP2 GT ISZERO PUSH2 0x5E9 JUMPI PUSH2 0x5E8 PUSH2 0xC01 JUMP JUMPDEST JUMPDEST MUL OR SWAP1 SSTORE POP PUSH1 0x20 DUP3 ADD MLOAD DUP2 PUSH1 0x1 ADD SWAP1 DUP1 MLOAD SWAP1 PUSH1 0x20 ADD SWAP1 PUSH2 0x60A SWAP3 SWAP2 SWAP1 PUSH2 0x66C JUMP JUMPDEST POP POP POP PUSH32 0xD9383AED0754623DB576930AC0E5FD2E888EC2BA0A3CBAA724E47C49C70D9128 DUP8 DUP4 PUSH1 0x4 DUP2 GT ISZERO PUSH2 0x642 JUMPI PUSH2 0x641 PUSH2 0xC01 JUMP JUMPDEST JUMPDEST DUP9 DUP9 CALLER PUSH1 0x40 MLOAD PUSH2 0x656 SWAP6 SWAP5 SWAP4 SWAP3 SWAP2 SWAP1 PUSH2 0x9FD JUMP JUMPDEST PUSH1 0x40 MLOAD DUP1 SWAP2 SUB SWAP1 LOG1 PUSH1 0x1 SWAP4 POP POP POP POP SWAP4 SWAP3 POP POP POP JUMP JUMPDEST DUP3 DUP1 SLOAD PUSH2 0x678 SWAP1 PUSH2 0xBA0 JUMP JUMPDEST SWAP1 PUSH1 0x0 MSTORE PUSH1 0x20 PUSH1 0x0 KECCAK256 SWAP1 PUSH1 0x1F ADD PUSH1 0x20 SWAP1 DIV DUP2 ADD SWAP3 DUP3 PUSH2 0x69A JUMPI PUSH1 0x0 DUP6 SSTORE PUSH2 0x6E1 JUMP JUMPDEST DUP3 PUSH1 0x1F LT PUSH2 0x6B3 JUMPI DUP1 MLOAD PUSH1 0xFF NOT AND DUP4 DUP1 ADD OR DUP6 SSTORE PUSH2 0x6E1 JUMP JUMPDEST DUP3 DUP1 ADD PUSH1 0x1 ADD DUP6 SSTORE DUP3 ISZERO PUSH2 0x6E1 JUMPI SWAP2 DUP3 ADD JUMPDEST DUP3 DUP2 GT ISZERO PUSH2 0x6E0 JUMPI DUP3 MLOAD DUP3 SSTORE SWAP2 PUSH1 0x20 ADD SWAP2 SWAP1 PUSH1 0x1 ADD SWAP1 PUSH2 0x6C5 JUMP JUMPDEST JUMPDEST POP SWAP1 POP PUSH2 0x6EE SWAP2 SWAP1 PUSH2 0x6F2 JUMP JUMPDEST POP SWAP1 JUMP JUMPDEST JUMPDEST DUP1 DUP3 GT ISZERO PUSH2 0x70B JUMPI PUSH1 0x0 DUP2 PUSH1 0x0 SWAP1 SSTORE POP PUSH1 0x1 ADD PUSH2 0x6F3 JUMP JUMPDEST POP SWAP1 JUMP JUMPDEST PUSH1 0x0 DUP1 DUP4 PUSH1 0x1F DUP5 ADD SLT PUSH2 0x725 JUMPI PUSH2 0x724 PUSH2 0xC93 JUMP JUMPDEST JUMPDEST DUP3 CALLDATALOAD SWAP1 POP PUSH8 0xFFFFFFFFFFFFFFFF DUP2 GT ISZERO PUSH2 0x742 JUMPI PUSH2 0x741 PUSH2 0xC8E JUMP JUMPDEST JUMPDEST PUSH1 0x20 DUP4 ADD SWAP2 POP DUP4 PUSH1 0x1 DUP3 MUL DUP4 ADD GT ISZERO PUSH2 0x75E JUMPI PUSH2 0x75D PUSH2 0xC98 JUMP JUMPDEST JUMPDEST SWAP3 POP SWAP3 SWAP1 POP JUMP JUMPDEST PUSH1 0x0 DUP2 CALLDATALOAD SWAP1 POP PUSH2 0x774 DUP2 PUSH2 0xD47 JUMP JUMPDEST SWAP3 SWAP2 POP POP JUMP JUMPDEST PUSH1 0x0 PUSH1 0x20 DUP3 DUP5 SUB SLT ISZERO PUSH2 0x790 JUMPI PUSH2 0x78F PUSH2 0xCA2 JUMP JUMPDEST JUMPDEST PUSH1 0x0 PUSH2 0x79E DUP5 DUP3 DUP6 ADD PUSH2 0x765 JUMP JUMPDEST SWAP2 POP POP SWAP3 SWAP2 POP POP JUMP JUMPDEST PUSH1 0x0 DUP1 PUSH1 0x0 PUSH1 0x40 DUP5 DUP7 SUB SLT ISZERO PUSH2 0x7C0 JUMPI PUSH2 0x7BF PUSH2 0xCA2 JUMP JUMPDEST JUMPDEST PUSH1 0x0 PUSH2 0x7CE DUP7 DUP3 DUP8 ADD PUSH2 0x765 JUMP JUMPDEST SWAP4 POP POP PUSH1 0x20 DUP5 ADD CALLDATALOAD PUSH8 0xFFFFFFFFFFFFFFFF DUP2 GT ISZERO PUSH2 0x7EF JUMPI PUSH2 0x7EE PUSH2 0xC9D JUMP JUMPDEST JUMPDEST PUSH2 0x7FB DUP7 DUP3 DUP8 ADD PUSH2 0x70F JUMP JUMPDEST SWAP3 POP SWAP3 POP POP SWAP3 POP SWAP3 POP SWAP3 JUMP JUMPDEST PUSH1 0x0 DUP1 PUSH1 0x40 DUP4 DUP6 SUB SLT ISZERO PUSH2 0x81E JUMPI PUSH2 0x81D PUSH2 0xCA2 JUMP JUMPDEST JUMPDEST PUSH1 0x0 PUSH2 0x82C DUP6 DUP3 DUP7 ADD PUSH2 0x765 JUMP JUMPDEST SWAP3 POP POP PUSH1 0x20 PUSH2 0x83D DUP6 DUP3 DUP7 ADD PUSH2 0x765 JUMP JUMPDEST SWAP2 POP POP SWAP3 POP SWAP3 SWAP1 POP JUMP JUMPDEST PUSH2 0x850 DUP2 PUSH2 0xAF1 JUMP JUMPDEST DUP3 MSTORE POP POP JUMP JUMPDEST PUSH2 0x85F DUP2 PUSH2 0xB03 JUMP JUMPDEST DUP3 MSTORE POP POP JUMP JUMPDEST PUSH2 0x86E DUP2 PUSH2 0xB4C JUMP JUMPDEST DUP3 MSTORE POP POP JUMP JUMPDEST PUSH1 0x0 PUSH2 0x880 DUP4 DUP6 PUSH2 0xA56 JUMP JUMPDEST SWAP4 POP PUSH2 0x88D DUP4 DUP6 DUP5 PUSH2 0xB5E JUMP JUMPDEST PUSH2 0x896 DUP4 PUSH2 0xCA7 JUMP JUMPDEST DUP5 ADD SWAP1 POP SWAP4 SWAP3 POP POP POP JUMP JUMPDEST PUSH1 0x0 PUSH2 0x8AC DUP3 PUSH2 0xA4B JUMP JUMPDEST PUSH2 0x8B6 DUP2 DUP6 PUSH2 0xA56 JUMP JUMPDEST SWAP4 POP PUSH2 0x8C6 DUP2 DUP6 PUSH1 0x20 DUP7 ADD PUSH2 0xB6D JUMP JUMPDEST PUSH2 0x8CF DUP2 PUSH2 0xCA7 JUMP JUMPDEST DUP5 ADD SWAP2 POP POP SWAP3 SWAP2 POP POP JUMP JUMPDEST PUSH1 0x0 PUSH2 0x8E7 PUSH1 0x1B DUP4 PUSH2 0xA56 JUMP JUMPDEST SWAP2 POP PUSH2 0x8F2 DUP3 PUSH2 0xCB8 JUMP JUMPDEST PUSH1 0x20 DUP3 ADD SWAP1 POP SWAP2 SWAP1 POP JUMP JUMPDEST PUSH1 0x0 PUSH2 0x90A PUSH1 0x1B DUP4 PUSH2 0xA56 JUMP JUMPDEST SWAP2 POP PUSH2 0x915 DUP3 PUSH2 0xCE1 JUMP JUMPDEST PUSH1 0x20 DUP3 ADD SWAP1 POP SWAP2 SWAP1 POP JUMP JUMPDEST PUSH1 0x0 PUSH2 0x92D PUSH1 0x1D DUP4 PUSH2 0xA56 JUMP JUMPDEST SWAP2 POP PUSH2 0x938 DUP3 PUSH2 0xD0A JUMP JUMPDEST PUSH1 0x20 DUP3 ADD SWAP1 POP SWAP2 SWAP1 POP JUMP JUMPDEST PUSH2 0x94C DUP2 PUSH2 0xB42 JUMP JUMPDEST DUP3 MSTORE POP POP JUMP JUMPDEST PUSH1 0x0 PUSH1 0x20 DUP3 ADD SWAP1 POP PUSH2 0x967 PUSH1 0x0 DUP4 ADD DUP5 PUSH2 0x856 JUMP JUMPDEST SWAP3 SWAP2 POP POP JUMP JUMPDEST PUSH1 0x0 PUSH1 0x40 DUP3 ADD SWAP1 POP PUSH2 0x982 PUSH1 0x0 DUP4 ADD DUP6 PUSH2 0x865 JUMP JUMPDEST DUP2 DUP2 SUB PUSH1 0x20 DUP4 ADD MSTORE PUSH2 0x994 DUP2 DUP5 PUSH2 0x8A1 JUMP JUMPDEST SWAP1 POP SWAP4 SWAP3 POP POP POP JUMP JUMPDEST PUSH1 0x0 PUSH1 0x20 DUP3 ADD SWAP1 POP DUP2 DUP2 SUB PUSH1 0x0 DUP4 ADD MSTORE PUSH2 0x9B6 DUP2 PUSH2 0x8DA JUMP JUMPDEST SWAP1 POP SWAP2 SWAP1 POP JUMP JUMPDEST PUSH1 0x0 PUSH1 0x20 DUP3 ADD SWAP1 POP DUP2 DUP2 SUB PUSH1 0x0 DUP4 ADD MSTORE PUSH2 0x9D6 DUP2 PUSH2 0x8FD JUMP JUMPDEST SWAP1 POP SWAP2 SWAP1 POP JUMP JUMPDEST PUSH1 0x0 PUSH1 0x20 DUP3 ADD SWAP1 POP DUP2 DUP2 SUB PUSH1 0x0 DUP4 ADD MSTORE PUSH2 0x9F6 DUP2 PUSH2 0x920 JUMP JUMPDEST SWAP1 POP SWAP2 SWAP1 POP JUMP JUMPDEST PUSH1 0x0 PUSH1 0x80 DUP3 ADD SWAP1 POP PUSH2 0xA12 PUSH1 0x0 DUP4 ADD DUP9 PUSH2 0x943 JUMP JUMPDEST PUSH2 0xA1F PUSH1 0x20 DUP4 ADD DUP8 PUSH2 0x865 JUMP JUMPDEST DUP2 DUP2 SUB PUSH1 0x40 DUP4 ADD MSTORE PUSH2 0xA32 DUP2 DUP6 DUP8 PUSH2 0x874 JUMP JUMPDEST SWAP1 POP PUSH2 0xA41 PUSH1 0x60 DUP4 ADD DUP5 PUSH2 0x847 JUMP JUMPDEST SWAP7 SWAP6 POP POP POP POP POP POP JUMP JUMPDEST PUSH1 0x0 DUP2 MLOAD SWAP1 POP SWAP2 SWAP1 POP JUMP JUMPDEST PUSH1 0x0 DUP3 DUP3 MSTORE PUSH1 0x20 DUP3 ADD SWAP1 POP SWAP3 SWAP2 POP POP JUMP JUMPDEST PUSH1 0x0 PUSH2 0xA72 DUP3 PUSH2 0xB42 JUMP JUMPDEST SWAP2 POP PUSH2 0xA7D DUP4 PUSH2 0xB42 JUMP JUMPDEST SWAP3 POP DUP3 PUSH32 0xFFFFFFFFFFFFFFFFFFFFFFFFFFFFFFFFFFFFFFFFFFFFFFFFFFFFFFFFFFFFFFFF SUB DUP3 GT ISZERO PUSH2 0xAB2 JUMPI PUSH2 0xAB1 PUSH2 0xBD2 JUMP JUMPDEST JUMPDEST DUP3 DUP3 ADD SWAP1 POP SWAP3 SWAP2 POP POP JUMP JUMPDEST PUSH1 0x0 PUSH2 0xAC8 DUP3 PUSH2 0xB42 JUMP JUMPDEST SWAP2 POP PUSH2 0xAD3 DUP4 PUSH2 0xB42 JUMP JUMPDEST SWAP3 POP DUP3 DUP3 LT ISZERO PUSH2 0xAE6 JUMPI PUSH2 0xAE5 PUSH2 0xBD2 JUMP JUMPDEST JUMPDEST DUP3 DUP3 SUB SWAP1 POP SWAP3 SWAP2 POP POP JUMP JUMPDEST PUSH1 0x0 PUSH2 0xAFC DUP3 PUSH2 0xB22 JUMP JUMPDEST SWAP1 POP SWAP2 SWAP1 POP JUMP JUMPDEST PUSH1 0x0 DUP2 ISZERO ISZERO SWAP1 POP SWAP2 SWAP1 POP JUMP JUMPDEST PUSH1 0x0 DUP2 SWAP1 POP PUSH2 0xB1D DUP3 PUSH2 0xD33 JUMP JUMPDEST SWAP2 SWAP1 POP JUMP JUMPDEST PUSH1 0x0 PUSH20 0xFFFFFFFFFFFFFFFFFFFFFFFFFFFFFFFFFFFFFFFF DUP3 AND SWAP1 POP SWAP2 SWAP1 POP JUMP JUMPDEST PUSH1 0x0 DUP2 SWAP1 POP SWAP2 SWAP1 POP JUMP JUMPDEST PUSH1 0x0 PUSH2 0xB57 DUP3 PUSH2 0xB0F JUMP JUMPDEST SWAP1 POP SWAP2 SWAP1 POP JUMP JUMPDEST DUP3 DUP2 DUP4 CALLDATACOPY PUSH1 0x0 DUP4 DUP4 ADD MSTORE POP POP POP JUMP JUMPDEST PUSH1 0x0 JUMPDEST DUP4 DUP2 LT ISZERO PUSH2 0xB8B JUMPI DUP1 DUP3 ADD MLOAD DUP2 DUP5 ADD MSTORE PUSH1 0x20 DUP2 ADD SWAP1 POP PUSH2 0xB70 JUMP JUMPDEST DUP4 DUP2 GT ISZERO PUSH2 0xB9A JUMPI PUSH1 0x0 DUP5 DUP5 ADD MSTORE JUMPDEST POP POP POP POP JUMP JUMPDEST PUSH1 0x0 PUSH1 0x2 DUP3 DIV SWAP1 POP PUSH1 0x1 DUP3 AND DUP1 PUSH2 0xBB8 JUMPI PUSH1 0x7F DUP3 AND SWAP2 POP JUMPDEST PUSH1 0x20 DUP3 LT DUP2 EQ ISZERO PUSH2 0xBCC JUMPI PUSH2 0xBCB PUSH2 0xC30 JUMP JUMPDEST JUMPDEST POP SWAP2 SWAP1 POP JUMP JUMPDEST PUSH32 0x4E487B7100000000000000000000000000000000000000000000000000000000 PUSH1 0x0 MSTORE PUSH1 0x11 PUSH1 0x4 MSTORE PUSH1 0x24 PUSH1 0x0 REVERT JUMPDEST PUSH32 0x4E487B7100000000000000000000000000000000000000000000000000000000 PUSH1 0x0 MSTORE PUSH1 0x21 PUSH1 0x4 MSTORE PUSH1 0x24 PUSH1 0x0 REVERT JUMPDEST PUSH32 0x4E487B7100000000000000000000000000000000000000000000000000000000 PUSH1 0x0 MSTORE PUSH1 0x22 PUSH1 0x4 MSTORE PUSH1 0x24 PUSH1 0x0 REVERT JUMPDEST PUSH32 0x4E487B7100000000000000000000000000000000000000000000000000000000 PUSH1 0x0 MSTORE PUSH1 0x32 PUSH1 0x4 MSTORE PUSH1 0x24 PUSH1 0x0 REVERT JUMPDEST PUSH1 0x0 DUP1 REVERT JUMPDEST PUSH1 0x0 DUP1 REVERT JUMPDEST PUSH1 0x0 DUP1 REVERT JUMPDEST PUSH1 0x0 DUP1 REVERT JUMPDEST PUSH1 0x0 DUP1 REVERT JUMPDEST PUSH1 0x0 PUSH1 0x1F NOT PUSH1 0x1F DUP4 ADD AND SWAP1 POP SWAP2 SWAP1 POP JUMP JUMPDEST PUSH32 0x546869732070726F6475637420646F65736E2774206578697374730000000000 PUSH1 0x0 DUP3 ADD MSTORE POP JUMP JUMPDEST PUSH32 0x546869732070726F6475637420616C7265616479206578697374730000000000 PUSH1 0x0 DUP3 ADD MSTORE POP JUMP JUMPDEST PUSH32 0x5468652070726F6475637420686173206E6F206D6F7265207374657073000000 PUSH1 0x0 DUP3 ADD MSTORE POP JUMP JUMPDEST PUSH1 0x5 DUP2 LT PUSH2 0xD44 JUMPI PUSH2 0xD43 PUSH2 0xC01 JUMP JUMPDEST JUMPDEST POP JUMP JUMPDEST PUSH2 0xD50 DUP2 PUSH2 0xB42 JUMP JUMPDEST DUP2 EQ PUSH2 0xD5B JUMPI PUSH1 0x0 DUP1 REVERT JUMPDEST POP JUMP INVALID LOG2 PUSH5 0x6970667358 0x22 SLT KECCAK256 GT LOG3 0xDB SUB SAR PUSH31 0x35202C5277C59D40D08A94BAF831C7728AE6953E55CE1CE9550B64736F6C63 NUMBER STOP ADDMOD SMOD STOP CALLER "
				},
				"gasEstimates": {
					"creation": {
						"codeDepositCost": "695200",
						"executionCost": "728",
						"totalCost": "695928"
					},
					"external": {
						"products(uint256,uint256)": "infinite",
						"registerProduct(uint256)": "infinite",
						"registerStep(uint256,string)": "infinite"
					}
				},
				"methodIdentifiers": {
					"products(uint256,uint256)": "a590fbdb",
					"registerProduct(uint256)": "c08e0f96",
					"registerStep(uint256,string)": "d21cb5f1"
				}
			},
			"storageLayout": {
				"storage": [
					{
						"astId": 30,
						"contract": "contracts/SupplyChain/SupplyChain.sol:SupplyChain",
						"label": "products",
						"offset": 0,
						"slot": "0",
						"type": "t_mapping(t_uint256,t_array(t_struct(Step)7_storage)dyn_storage)"
					}
				],
				"types": {
					"t_array(t_struct(Step)7_storage)dyn_storage": {
						"base": "t_struct(Step)7_storage",
						"encoding": "dynamic_array",
						"label": "struct SupplyChain.Step[]",
						"numberOfBytes": "32"
					},
					"t_enum(Status)13": {
						"encoding": "inplace",
						"label": "enum SupplyChain.Status",
						"numberOfBytes": "1"
					},
					"t_mapping(t_uint256,t_array(t_struct(Step)7_storage)dyn_storage)": {
						"encoding": "mapping",
						"key": "t_uint256",
						"label": "mapping(uint256 => struct SupplyChain.Step[])",
						"numberOfBytes": "32",
						"value": "t_array(t_struct(Step)7_storage)dyn_storage"
					},
					"t_string_storage": {
						"encoding": "bytes",
						"label": "string",
						"numberOfBytes": "32"
					},
					"t_struct(Step)7_storage": {
						"encoding": "inplace",
						"label": "struct SupplyChain.Step",
						"members": [
							{
								"astId": 4,
								"contract": "contracts/SupplyChain/SupplyChain.sol:SupplyChain",
								"label": "status",
								"offset": 0,
								"slot": "0",
								"type": "t_enum(Status)13"
							},
							{
								"astId": 6,
								"contract": "contracts/SupplyChain/SupplyChain.sol:SupplyChain",
								"label": "metadata",
								"offset": 0,
								"slot": "1",
								"type": "t_string_storage"
							}
						],
						"numberOfBytes": "64"
					},
					"t_uint256": {
						"encoding": "inplace",
						"label": "uint256",
						"numberOfBytes": "32"
					}
				}
			},
			"userdoc": {
				"kind": "user",
				"methods": {},
				"version": 1
			}
		}
	}
}