{
	"contracts/Ciberseguridad/Event.sol": {
		"Event": {
			"abi": [
				{
					"inputs": [
						{
							"internalType": "uint256",
							"name": "_threshold",
							"type": "uint256"
						}
					],
					"stateMutability": "nonpayable",
					"type": "constructor"
				},
				{
					"anonymous": false,
					"inputs": [
						{
							"indexed": false,
							"internalType": "string",
							"name": "_event",
							"type": "string"
						}
					],
					"name": "newEventCreated",
					"type": "event"
				},
				{
					"inputs": [
						{
							"internalType": "string",
							"name": "_event",
							"type": "string"
						}
					],
					"name": "createEvent",
					"outputs": [
						{
							"internalType": "bool",
							"name": "success",
							"type": "bool"
						}
					],
					"stateMutability": "nonpayable",
					"type": "function"
				},
				{
					"inputs": [
						{
							"internalType": "address",
							"name": "",
							"type": "address"
						},
						{
							"internalType": "uint256",
							"name": "",
							"type": "uint256"
						}
					],
					"name": "events",
					"outputs": [
						{
							"internalType": "string",
							"name": "",
							"type": "string"
						}
					],
					"stateMutability": "view",
					"type": "function"
				},
				{
					"inputs": [
						{
							"internalType": "address",
							"name": "",
							"type": "address"
						}
					],
					"name": "eventsCounter",
					"outputs": [
						{
							"internalType": "uint256",
							"name": "",
							"type": "uint256"
						}
					],
					"stateMutability": "view",
					"type": "function"
				},
				{
					"inputs": [],
					"name": "threshold",
					"outputs": [
						{
							"internalType": "uint256",
							"name": "",
							"type": "uint256"
						}
					],
					"stateMutability": "view",
					"type": "function"
				}
			],
			"devdoc": {
				"kind": "dev",
				"methods": {},
				"version": 1
			},
			"evm": {
				"assembly": "    /* \"contracts/Ciberseguridad/Event.sol\":72:925  contract Event {\r... */\n  mstore(0x40, 0x80)\n    /* \"contracts/Ciberseguridad/Event.sol\":417:521  constructor(uint256 _threshold) {\r... */\n  callvalue\n  dup1\n  iszero\n  tag_1\n  jumpi\n  0x00\n  dup1\n  revert\ntag_1:\n  pop\n  mload(0x40)\n  sub(codesize, bytecodeSize)\n  dup1\n  bytecodeSize\n  dup4\n  codecopy\n  dup2\n  dup2\n  add\n  0x40\n  mstore\n  dup2\n  add\n  swap1\n  tag_2\n  swap2\n  swap1\n  tag_3\n  jump\t// in\ntag_2:\n    /* \"contracts/Ciberseguridad/Event.sol\":474:484  _threshold */\n  dup1\n    /* \"contracts/Ciberseguridad/Event.sol\":462:471  threshold */\n  0x02\n    /* \"contracts/Ciberseguridad/Event.sol\":462:484  threshold = _threshold */\n  dup2\n  swap1\n  sstore\n  pop\n    /* \"contracts/Ciberseguridad/Event.sol\":503:513  msg.sender */\n  caller\n    /* \"contracts/Ciberseguridad/Event.sol\":495:500  owner */\n  0x03\n  0x00\n    /* \"contracts/Ciberseguridad/Event.sol\":495:513  owner = msg.sender */\n  0x0100\n  exp\n  dup2\n  sload\n  dup2\n  0xffffffffffffffffffffffffffffffffffffffff\n  mul\n  not\n  and\n  swap1\n  dup4\n  0xffffffffffffffffffffffffffffffffffffffff\n  and\n  mul\n  or\n  swap1\n  sstore\n  pop\n    /* \"contracts/Ciberseguridad/Event.sol\":417:521  constructor(uint256 _threshold) {\r... */\n  pop\n    /* \"contracts/Ciberseguridad/Event.sol\":72:925  contract Event {\r... */\n  jump(tag_6)\n    /* \"#utility.yul\":7:150   */\ntag_8:\n    /* \"#utility.yul\":64:69   */\n  0x00\n    /* \"#utility.yul\":95:101   */\n  dup2\n    /* \"#utility.yul\":89:102   */\n  mload\n    /* \"#utility.yul\":80:102   */\n  swap1\n  pop\n    /* \"#utility.yul\":111:144   */\n  tag_10\n    /* \"#utility.yul\":138:143   */\n  dup2\n    /* \"#utility.yul\":111:144   */\n  tag_11\n  jump\t// in\ntag_10:\n    /* \"#utility.yul\":7:150   */\n  swap3\n  swap2\n  pop\n  pop\n  jump\t// out\n    /* \"#utility.yul\":156:507   */\ntag_3:\n    /* \"#utility.yul\":226:232   */\n  0x00\n    /* \"#utility.yul\":275:277   */\n  0x20\n    /* \"#utility.yul\":263:272   */\n  dup3\n    /* \"#utility.yul\":254:261   */\n  dup5\n    /* \"#utility.yul\":250:273   */\n  sub\n    /* \"#utility.yul\":246:278   */\n  slt\n    /* \"#utility.yul\":243:362   */\n  iszero\n  tag_13\n  jumpi\n    /* \"#utility.yul\":281:360   */\n  tag_14\n  tag_15\n  jump\t// in\ntag_14:\n    /* \"#utility.yul\":243:362   */\ntag_13:\n    /* \"#utility.yul\":401:402   */\n  0x00\n    /* \"#utility.yul\":426:490   */\n  tag_16\n    /* \"#utility.yul\":482:489   */\n  dup5\n    /* \"#utility.yul\":473:479   */\n  dup3\n    /* \"#utility.yul\":462:471   */\n  dup6\n    /* \"#utility.yul\":458:480   */\n  add\n    /* \"#utility.yul\":426:490   */\n  tag_8\n  jump\t// in\ntag_16:\n    /* \"#utility.yul\":416:490   */\n  swap2\n  pop\n    /* \"#utility.yul\":372:500   */\n  pop\n    /* \"#utility.yul\":156:507   */\n  swap3\n  swap2\n  pop\n  pop\n  jump\t// out\n    /* \"#utility.yul\":594:671   */\ntag_19:\n    /* \"#utility.yul\":631:638   */\n  0x00\n    /* \"#utility.yul\":660:665   */\n  dup2\n    /* \"#utility.yul\":649:665   */\n  swap1\n  pop\n    /* \"#utility.yul\":594:671   */\n  swap2\n  swap1\n  pop\n  jump\t// out\n    /* \"#utility.yul\":800:917   */\ntag_15:\n    /* \"#utility.yul\":909:910   */\n  0x00\n    /* \"#utility.yul\":906:907   */\n  dup1\n    /* \"#utility.yul\":899:911   */\n  revert\n    /* \"#utility.yul\":923:1045   */\ntag_11:\n    /* \"#utility.yul\":996:1020   */\n  tag_25\n    /* \"#utility.yul\":1014:1019   */\n  dup2\n    /* \"#utility.yul\":996:1020   */\n  tag_19\n  jump\t// in\ntag_25:\n    /* \"#utility.yul\":989:994   */\n  dup2\n    /* \"#utility.yul\":986:1021   */\n  eq\n    /* \"#utility.yul\":976:1039   */\n  tag_26\n  jumpi\n    /* \"#utility.yul\":1035:1036   */\n  0x00\n    /* \"#utility.yul\":1032:1033   */\n  dup1\n    /* \"#utility.yul\":1025:1037   */\n  revert\n    /* \"#utility.yul\":976:1039   */\ntag_26:\n    /* \"#utility.yul\":923:1045   */\n  pop\n  jump\t// out\n    /* \"contracts/Ciberseguridad/Event.sol\":72:925  contract Event {\r... */\ntag_6:\n  dataSize(sub_0)\n  dup1\n  dataOffset(sub_0)\n  0x00\n  codecopy\n  0x00\n  return\nstop\n\nsub_0: assembly {\n        /* \"contracts/Ciberseguridad/Event.sol\":72:925  contract Event {\r... */\n      mstore(0x40, 0x80)\n      callvalue\n      dup1\n      iszero\n      tag_1\n      jumpi\n      0x00\n      dup1\n      revert\n    tag_1:\n      pop\n      jumpi(tag_2, lt(calldatasize, 0x04))\n      shr(0xe0, calldataload(0x00))\n      dup1\n      0x0ad3430e\n      eq\n      tag_3\n      jumpi\n      dup1\n      0x42cde4e8\n      eq\n      tag_4\n      jumpi\n      dup1\n      0x74dcdc63\n      eq\n      tag_5\n      jumpi\n      dup1\n      0x9bc2bc71\n      eq\n      tag_6\n      jumpi\n    tag_2:\n      0x00\n      dup1\n      revert\n        /* \"contracts/Ciberseguridad/Event.sol\":209:257  mapping(address => uint256) public eventsCounter */\n    tag_3:\n      tag_7\n      0x04\n      dup1\n      calldatasize\n      sub\n      dup2\n      add\n      swap1\n      tag_8\n      swap2\n      swap1\n      tag_9\n      jump\t// in\n    tag_8:\n      tag_10\n      jump\t// in\n    tag_7:\n      mload(0x40)\n      tag_11\n      swap2\n      swap1\n      tag_12\n      jump\t// in\n    tag_11:\n      mload(0x40)\n      dup1\n      swap2\n      sub\n      swap1\n      return\n        /* \"contracts/Ciberseguridad/Event.sol\":264:288  uint256 public threshold */\n    tag_4:\n      tag_13\n      tag_14\n      jump\t// in\n    tag_13:\n      mload(0x40)\n      tag_15\n      swap2\n      swap1\n      tag_12\n      jump\t// in\n    tag_15:\n      mload(0x40)\n      dup1\n      swap2\n      sub\n      swap1\n      return\n        /* \"contracts/Ciberseguridad/Event.sol\":141:202  mapping(address => mapping (uint256 => string)) public events */\n    tag_5:\n      tag_16\n      0x04\n      dup1\n      calldatasize\n      sub\n      dup2\n      add\n      swap1\n      tag_17\n      swap2\n      swap1\n      tag_18\n      jump\t// in\n    tag_17:\n      tag_19\n      jump\t// in\n    tag_16:\n      mload(0x40)\n      tag_20\n      swap2\n      swap1\n      tag_21\n      jump\t// in\n    tag_20:\n      mload(0x40)\n      dup1\n      swap2\n      sub\n      swap1\n      return\n        /* \"contracts/Ciberseguridad/Event.sol\":529:904  function createEvent(string memory _event) public returns (bool success) {\r... */\n    tag_6:\n      tag_22\n      0x04\n      dup1\n      calldatasize\n      sub\n      dup2\n      add\n      swap1\n      tag_23\n      swap2\n      swap1\n      tag_24\n      jump\t// in\n    tag_23:\n      tag_25\n      jump\t// in\n    tag_22:\n      mload(0x40)\n      tag_26\n      swap2\n      swap1\n      tag_27\n      jump\t// in\n    tag_26:\n      mload(0x40)\n      dup1\n      swap2\n      sub\n      swap1\n      return\n        /* \"contracts/Ciberseguridad/Event.sol\":209:257  mapping(address => uint256) public eventsCounter */\n    tag_10:\n      mstore(0x20, 0x01)\n      dup1\n      0x00\n      mstore\n      keccak256(0x00, 0x40)\n      0x00\n      swap2\n      pop\n      swap1\n      pop\n      sload\n      dup2\n      jump\t// out\n        /* \"contracts/Ciberseguridad/Event.sol\":264:288  uint256 public threshold */\n    tag_14:\n      sload(0x02)\n      dup2\n      jump\t// out\n        /* \"contracts/Ciberseguridad/Event.sol\":141:202  mapping(address => mapping (uint256 => string)) public events */\n    tag_19:\n      mstore(0x20, 0x00)\n      dup2\n      0x00\n      mstore\n      mstore(0x20, keccak256(0x00, 0x40))\n      dup1\n      0x00\n      mstore\n      keccak256(0x00, 0x40)\n      0x00\n      swap2\n      pop\n      swap2\n      pop\n      pop\n      dup1\n      sload\n      tag_28\n      swap1\n      tag_29\n      jump\t// in\n    tag_28:\n      dup1\n      0x1f\n      add\n      0x20\n      dup1\n      swap2\n      div\n      mul\n      0x20\n      add\n      mload(0x40)\n      swap1\n      dup2\n      add\n      0x40\n      mstore\n      dup1\n      swap3\n      swap2\n      swap1\n      dup2\n      dup2\n      mstore\n      0x20\n      add\n      dup3\n      dup1\n      sload\n      tag_30\n      swap1\n      tag_29\n      jump\t// in\n    tag_30:\n      dup1\n      iszero\n      tag_31\n      jumpi\n      dup1\n      0x1f\n      lt\n      tag_32\n      jumpi\n      0x0100\n      dup1\n      dup4\n      sload\n      div\n      mul\n      dup4\n      mstore\n      swap2\n      0x20\n      add\n      swap2\n      jump(tag_31)\n    tag_32:\n      dup3\n      add\n      swap2\n      swap1\n      0x00\n      mstore\n      keccak256(0x00, 0x20)\n      swap1\n    tag_33:\n      dup2\n      sload\n      dup2\n      mstore\n      swap1\n      0x01\n      add\n      swap1\n      0x20\n      add\n      dup1\n      dup4\n      gt\n      tag_33\n      jumpi\n      dup3\n      swap1\n      sub\n      0x1f\n      and\n      dup3\n      add\n      swap2\n    tag_31:\n      pop\n      pop\n      pop\n      pop\n      pop\n      dup2\n      jump\t// out\n        /* \"contracts/Ciberseguridad/Event.sol\":529:904  function createEvent(string memory _event) public returns (bool success) {\r... */\n    tag_25:\n        /* \"contracts/Ciberseguridad/Event.sol\":588:600  bool success */\n      0x00\n        /* \"contracts/Ciberseguridad/Event.sol\":613:628  uint256 eventId */\n      dup1\n        /* \"contracts/Ciberseguridad/Event.sol\":659:660  1 */\n      0x01\n        /* \"contracts/Ciberseguridad/Event.sol\":631:644  eventsCounter */\n      dup1\n        /* \"contracts/Ciberseguridad/Event.sol\":631:656  eventsCounter[msg.sender] */\n      0x00\n        /* \"contracts/Ciberseguridad/Event.sol\":645:655  msg.sender */\n      caller\n        /* \"contracts/Ciberseguridad/Event.sol\":631:656  eventsCounter[msg.sender] */\n      0xffffffffffffffffffffffffffffffffffffffff\n      and\n      0xffffffffffffffffffffffffffffffffffffffff\n      and\n      dup2\n      mstore\n      0x20\n      add\n      swap1\n      dup2\n      mstore\n      0x20\n      add\n      0x00\n      keccak256\n      sload\n        /* \"contracts/Ciberseguridad/Event.sol\":631:660  eventsCounter[msg.sender] + 1 */\n      tag_35\n      swap2\n      swap1\n      tag_36\n      jump\t// in\n    tag_35:\n        /* \"contracts/Ciberseguridad/Event.sol\":613:660  uint256 eventId = eventsCounter[msg.sender] + 1 */\n      swap1\n      pop\n        /* \"contracts/Ciberseguridad/Event.sol\":684:693  threshold */\n      sload(0x02)\n        /* \"contracts/Ciberseguridad/Event.sol\":674:681  eventId */\n      dup2\n        /* \"contracts/Ciberseguridad/Event.sol\":674:693  eventId > threshold */\n      gt\n        /* \"contracts/Ciberseguridad/Event.sol\":671:732  if(eventId > threshold){\r... */\n      iszero\n      tag_37\n      jumpi\n        /* \"contracts/Ciberseguridad/Event.sol\":719:720  1 */\n      0x01\n        /* \"contracts/Ciberseguridad/Event.sol\":709:720  eventId = 1 */\n      swap1\n      pop\n        /* \"contracts/Ciberseguridad/Event.sol\":671:732  if(eventId > threshold){\r... */\n    tag_37:\n        /* \"contracts/Ciberseguridad/Event.sol\":772:779  eventId */\n      dup1\n        /* \"contracts/Ciberseguridad/Event.sol\":744:757  eventsCounter */\n      0x01\n        /* \"contracts/Ciberseguridad/Event.sol\":744:769  eventsCounter[msg.sender] */\n      0x00\n        /* \"contracts/Ciberseguridad/Event.sol\":758:768  msg.sender */\n      caller\n        /* \"contracts/Ciberseguridad/Event.sol\":744:769  eventsCounter[msg.sender] */\n      0xffffffffffffffffffffffffffffffffffffffff\n      and\n      0xffffffffffffffffffffffffffffffffffffffff\n      and\n      dup2\n      mstore\n      0x20\n      add\n      swap1\n      dup2\n      mstore\n      0x20\n      add\n      0x00\n      keccak256\n        /* \"contracts/Ciberseguridad/Event.sol\":744:779  eventsCounter[msg.sender] = eventId */\n      dup2\n      swap1\n      sstore\n      pop\n        /* \"contracts/Ciberseguridad/Event.sol\":822:828  _event */\n      dup3\n        /* \"contracts/Ciberseguridad/Event.sol\":792:798  events */\n      0x00\n        /* \"contracts/Ciberseguridad/Event.sol\":792:810  events[msg.sender] */\n      dup1\n        /* \"contracts/Ciberseguridad/Event.sol\":799:809  msg.sender */\n      caller\n        /* \"contracts/Ciberseguridad/Event.sol\":792:810  events[msg.sender] */\n      0xffffffffffffffffffffffffffffffffffffffff\n      and\n      0xffffffffffffffffffffffffffffffffffffffff\n      and\n      dup2\n      mstore\n      0x20\n      add\n      swap1\n      dup2\n      mstore\n      0x20\n      add\n      0x00\n      keccak256\n        /* \"contracts/Ciberseguridad/Event.sol\":792:819  events[msg.sender][eventId] */\n      0x00\n        /* \"contracts/Ciberseguridad/Event.sol\":811:818  eventId */\n      dup4\n        /* \"contracts/Ciberseguridad/Event.sol\":792:819  events[msg.sender][eventId] */\n      dup2\n      mstore\n      0x20\n      add\n      swap1\n      dup2\n      mstore\n      0x20\n      add\n      0x00\n      keccak256\n        /* \"contracts/Ciberseguridad/Event.sol\":792:828  events[msg.sender][eventId] = _event */\n      swap1\n      dup1\n      mload\n      swap1\n      0x20\n      add\n      swap1\n      tag_38\n      swap3\n      swap2\n      swap1\n      tag_39\n      jump\t// in\n    tag_38:\n      pop\n        /* \"contracts/Ciberseguridad/Event.sol\":846:869  newEventCreated(_event) */\n      0x3c0c8dea9e5e5486a7d5b25f41716a0ee7b12a2a013316408a2fe0870a2f5710\n        /* \"contracts/Ciberseguridad/Event.sol\":862:868  _event */\n      dup4\n        /* \"contracts/Ciberseguridad/Event.sol\":846:869  newEventCreated(_event) */\n      mload(0x40)\n      tag_40\n      swap2\n      swap1\n      tag_21\n      jump\t// in\n    tag_40:\n      mload(0x40)\n      dup1\n      swap2\n      sub\n      swap1\n      log1\n        /* \"contracts/Ciberseguridad/Event.sol\":892:896  true */\n      0x01\n        /* \"contracts/Ciberseguridad/Event.sol\":882:896  success = true */\n      swap2\n      pop\n        /* \"contracts/Ciberseguridad/Event.sol\":602:904  {\r... */\n      pop\n        /* \"contracts/Ciberseguridad/Event.sol\":529:904  function createEvent(string memory _event) public returns (bool success) {\r... */\n      swap2\n      swap1\n      pop\n      jump\t// out\n    tag_39:\n      dup3\n      dup1\n      sload\n      tag_41\n      swap1\n      tag_29\n      jump\t// in\n    tag_41:\n      swap1\n      0x00\n      mstore\n      keccak256(0x00, 0x20)\n      swap1\n      0x1f\n      add\n      0x20\n      swap1\n      div\n      dup2\n      add\n      swap3\n      dup3\n      tag_43\n      jumpi\n      0x00\n      dup6\n      sstore\n      jump(tag_42)\n    tag_43:\n      dup3\n      0x1f\n      lt\n      tag_44\n      jumpi\n      dup1\n      mload\n      not(0xff)\n      and\n      dup4\n      dup1\n      add\n      or\n      dup6\n      sstore\n      jump(tag_42)\n    tag_44:\n      dup3\n      dup1\n      add\n      0x01\n      add\n      dup6\n      sstore\n      dup3\n      iszero\n      tag_42\n      jumpi\n      swap2\n      dup3\n      add\n    tag_45:\n      dup3\n      dup2\n      gt\n      iszero\n      tag_46\n      jumpi\n      dup3\n      mload\n      dup3\n      sstore\n      swap2\n      0x20\n      add\n      swap2\n      swap1\n      0x01\n      add\n      swap1\n      jump(tag_45)\n    tag_46:\n    tag_42:\n      pop\n      swap1\n      pop\n      tag_47\n      swap2\n      swap1\n      tag_48\n      jump\t// in\n    tag_47:\n      pop\n      swap1\n      jump\t// out\n    tag_48:\n    tag_49:\n      dup1\n      dup3\n      gt\n      iszero\n      tag_50\n      jumpi\n      0x00\n      dup2\n      0x00\n      swap1\n      sstore\n      pop\n      0x01\n      add\n      jump(tag_49)\n    tag_50:\n      pop\n      swap1\n      jump\t// out\n        /* \"#utility.yul\":7:419   */\n    tag_52:\n        /* \"#utility.yul\":85:90   */\n      0x00\n        /* \"#utility.yul\":110:176   */\n      tag_54\n        /* \"#utility.yul\":126:175   */\n      tag_55\n        /* \"#utility.yul\":168:174   */\n      dup5\n        /* \"#utility.yul\":126:175   */\n      tag_56\n      jump\t// in\n    tag_55:\n        /* \"#utility.yul\":110:176   */\n      tag_57\n      jump\t// in\n    tag_54:\n        /* \"#utility.yul\":101:176   */\n      swap1\n      pop\n        /* \"#utility.yul\":199:205   */\n      dup3\n        /* \"#utility.yul\":192:197   */\n      dup2\n        /* \"#utility.yul\":185:206   */\n      mstore\n        /* \"#utility.yul\":237:241   */\n      0x20\n        /* \"#utility.yul\":230:235   */\n      dup2\n        /* \"#utility.yul\":226:242   */\n      add\n        /* \"#utility.yul\":275:278   */\n      dup5\n        /* \"#utility.yul\":266:272   */\n      dup5\n        /* \"#utility.yul\":261:264   */\n      dup5\n        /* \"#utility.yul\":257:273   */\n      add\n        /* \"#utility.yul\":254:279   */\n      gt\n        /* \"#utility.yul\":251:363   */\n      iszero\n      tag_58\n      jumpi\n        /* \"#utility.yul\":282:361   */\n      tag_59\n      tag_60\n      jump\t// in\n    tag_59:\n        /* \"#utility.yul\":251:363   */\n    tag_58:\n        /* \"#utility.yul\":372:413   */\n      tag_61\n        /* \"#utility.yul\":406:412   */\n      dup5\n        /* \"#utility.yul\":401:404   */\n      dup3\n        /* \"#utility.yul\":396:399   */\n      dup6\n        /* \"#utility.yul\":372:413   */\n      tag_62\n      jump\t// in\n    tag_61:\n        /* \"#utility.yul\":91:419   */\n      pop\n        /* \"#utility.yul\":7:419   */\n      swap4\n      swap3\n      pop\n      pop\n      pop\n      jump\t// out\n        /* \"#utility.yul\":425:564   */\n    tag_63:\n        /* \"#utility.yul\":471:476   */\n      0x00\n        /* \"#utility.yul\":509:515   */\n      dup2\n        /* \"#utility.yul\":496:516   */\n      calldataload\n        /* \"#utility.yul\":487:516   */\n      swap1\n      pop\n        /* \"#utility.yul\":525:558   */\n      tag_65\n        /* \"#utility.yul\":552:557   */\n      dup2\n        /* \"#utility.yul\":525:558   */\n      tag_66\n      jump\t// in\n    tag_65:\n        /* \"#utility.yul\":425:564   */\n      swap3\n      swap2\n      pop\n      pop\n      jump\t// out\n        /* \"#utility.yul\":584:924   */\n    tag_67:\n        /* \"#utility.yul\":640:645   */\n      0x00\n        /* \"#utility.yul\":689:692   */\n      dup3\n        /* \"#utility.yul\":682:686   */\n      0x1f\n        /* \"#utility.yul\":674:680   */\n      dup4\n        /* \"#utility.yul\":670:687   */\n      add\n        /* \"#utility.yul\":666:693   */\n      slt\n        /* \"#utility.yul\":656:778   */\n      tag_69\n      jumpi\n        /* \"#utility.yul\":697:776   */\n      tag_70\n      tag_71\n      jump\t// in\n    tag_70:\n        /* \"#utility.yul\":656:778   */\n    tag_69:\n        /* \"#utility.yul\":814:820   */\n      dup2\n        /* \"#utility.yul\":801:821   */\n      calldataload\n        /* \"#utility.yul\":839:918   */\n      tag_72\n        /* \"#utility.yul\":914:917   */\n      dup5\n        /* \"#utility.yul\":906:912   */\n      dup3\n        /* \"#utility.yul\":899:903   */\n      0x20\n        /* \"#utility.yul\":891:897   */\n      dup7\n        /* \"#utility.yul\":887:904   */\n      add\n        /* \"#utility.yul\":839:918   */\n      tag_52\n      jump\t// in\n    tag_72:\n        /* \"#utility.yul\":830:918   */\n      swap2\n      pop\n        /* \"#utility.yul\":646:924   */\n      pop\n        /* \"#utility.yul\":584:924   */\n      swap3\n      swap2\n      pop\n      pop\n      jump\t// out\n        /* \"#utility.yul\":930:1069   */\n    tag_73:\n        /* \"#utility.yul\":976:981   */\n      0x00\n        /* \"#utility.yul\":1014:1020   */\n      dup2\n        /* \"#utility.yul\":1001:1021   */\n      calldataload\n        /* \"#utility.yul\":992:1021   */\n      swap1\n      pop\n        /* \"#utility.yul\":1030:1063   */\n      tag_75\n        /* \"#utility.yul\":1057:1062   */\n      dup2\n        /* \"#utility.yul\":1030:1063   */\n      tag_76\n      jump\t// in\n    tag_75:\n        /* \"#utility.yul\":930:1069   */\n      swap3\n      swap2\n      pop\n      pop\n      jump\t// out\n        /* \"#utility.yul\":1075:1404   */\n    tag_9:\n        /* \"#utility.yul\":1134:1140   */\n      0x00\n        /* \"#utility.yul\":1183:1185   */\n      0x20\n        /* \"#utility.yul\":1171:1180   */\n      dup3\n        /* \"#utility.yul\":1162:1169   */\n      dup5\n        /* \"#utility.yul\":1158:1181   */\n      sub\n        /* \"#utility.yul\":1154:1186   */\n      slt\n        /* \"#utility.yul\":1151:1270   */\n      iszero\n      tag_78\n      jumpi\n        /* \"#utility.yul\":1189:1268   */\n      tag_79\n      tag_80\n      jump\t// in\n    tag_79:\n        /* \"#utility.yul\":1151:1270   */\n    tag_78:\n        /* \"#utility.yul\":1309:1310   */\n      0x00\n        /* \"#utility.yul\":1334:1387   */\n      tag_81\n        /* \"#utility.yul\":1379:1386   */\n      dup5\n        /* \"#utility.yul\":1370:1376   */\n      dup3\n        /* \"#utility.yul\":1359:1368   */\n      dup6\n        /* \"#utility.yul\":1355:1377   */\n      add\n        /* \"#utility.yul\":1334:1387   */\n      tag_63\n      jump\t// in\n    tag_81:\n        /* \"#utility.yul\":1324:1387   */\n      swap2\n      pop\n        /* \"#utility.yul\":1280:1397   */\n      pop\n        /* \"#utility.yul\":1075:1404   */\n      swap3\n      swap2\n      pop\n      pop\n      jump\t// out\n        /* \"#utility.yul\":1410:1884   */\n    tag_18:\n        /* \"#utility.yul\":1478:1484   */\n      0x00\n        /* \"#utility.yul\":1486:1492   */\n      dup1\n        /* \"#utility.yul\":1535:1537   */\n      0x40\n        /* \"#utility.yul\":1523:1532   */\n      dup4\n        /* \"#utility.yul\":1514:1521   */\n      dup6\n        /* \"#utility.yul\":1510:1533   */\n      sub\n        /* \"#utility.yul\":1506:1538   */\n      slt\n        /* \"#utility.yul\":1503:1622   */\n      iszero\n      tag_83\n      jumpi\n        /* \"#utility.yul\":1541:1620   */\n      tag_84\n      tag_80\n      jump\t// in\n    tag_84:\n        /* \"#utility.yul\":1503:1622   */\n    tag_83:\n        /* \"#utility.yul\":1661:1662   */\n      0x00\n        /* \"#utility.yul\":1686:1739   */\n      tag_85\n        /* \"#utility.yul\":1731:1738   */\n      dup6\n        /* \"#utility.yul\":1722:1728   */\n      dup3\n        /* \"#utility.yul\":1711:1720   */\n      dup7\n        /* \"#utility.yul\":1707:1729   */\n      add\n        /* \"#utility.yul\":1686:1739   */\n      tag_63\n      jump\t// in\n    tag_85:\n        /* \"#utility.yul\":1676:1739   */\n      swap3\n      pop\n        /* \"#utility.yul\":1632:1749   */\n      pop\n        /* \"#utility.yul\":1788:1790   */\n      0x20\n        /* \"#utility.yul\":1814:1867   */\n      tag_86\n        /* \"#utility.yul\":1859:1866   */\n      dup6\n        /* \"#utility.yul\":1850:1856   */\n      dup3\n        /* \"#utility.yul\":1839:1848   */\n      dup7\n        /* \"#utility.yul\":1835:1857   */\n      add\n        /* \"#utility.yul\":1814:1867   */\n      tag_73\n      jump\t// in\n    tag_86:\n        /* \"#utility.yul\":1804:1867   */\n      swap2\n      pop\n        /* \"#utility.yul\":1759:1877   */\n      pop\n        /* \"#utility.yul\":1410:1884   */\n      swap3\n      pop\n      swap3\n      swap1\n      pop\n      jump\t// out\n        /* \"#utility.yul\":1890:2399   */\n    tag_24:\n        /* \"#utility.yul\":1959:1965   */\n      0x00\n        /* \"#utility.yul\":2008:2010   */\n      0x20\n        /* \"#utility.yul\":1996:2005   */\n      dup3\n        /* \"#utility.yul\":1987:1994   */\n      dup5\n        /* \"#utility.yul\":1983:2006   */\n      sub\n        /* \"#utility.yul\":1979:2011   */\n      slt\n        /* \"#utility.yul\":1976:2095   */\n      iszero\n      tag_88\n      jumpi\n        /* \"#utility.yul\":2014:2093   */\n      tag_89\n      tag_80\n      jump\t// in\n    tag_89:\n        /* \"#utility.yul\":1976:2095   */\n    tag_88:\n        /* \"#utility.yul\":2162:2163   */\n      0x00\n        /* \"#utility.yul\":2151:2160   */\n      dup3\n        /* \"#utility.yul\":2147:2164   */\n      add\n        /* \"#utility.yul\":2134:2165   */\n      calldataload\n        /* \"#utility.yul\":2192:2210   */\n      0xffffffffffffffff\n        /* \"#utility.yul\":2184:2190   */\n      dup2\n        /* \"#utility.yul\":2181:2211   */\n      gt\n        /* \"#utility.yul\":2178:2295   */\n      iszero\n      tag_90\n      jumpi\n        /* \"#utility.yul\":2214:2293   */\n      tag_91\n      tag_92\n      jump\t// in\n    tag_91:\n        /* \"#utility.yul\":2178:2295   */\n    tag_90:\n        /* \"#utility.yul\":2319:2382   */\n      tag_93\n        /* \"#utility.yul\":2374:2381   */\n      dup5\n        /* \"#utility.yul\":2365:2371   */\n      dup3\n        /* \"#utility.yul\":2354:2363   */\n      dup6\n        /* \"#utility.yul\":2350:2372   */\n      add\n        /* \"#utility.yul\":2319:2382   */\n      tag_67\n      jump\t// in\n    tag_93:\n        /* \"#utility.yul\":2309:2382   */\n      swap2\n      pop\n        /* \"#utility.yul\":2105:2392   */\n      pop\n        /* \"#utility.yul\":1890:2399   */\n      swap3\n      swap2\n      pop\n      pop\n      jump\t// out\n        /* \"#utility.yul\":2405:2514   */\n    tag_94:\n        /* \"#utility.yul\":2486:2507   */\n      tag_96\n        /* \"#utility.yul\":2501:2506   */\n      dup2\n        /* \"#utility.yul\":2486:2507   */\n      tag_97\n      jump\t// in\n    tag_96:\n        /* \"#utility.yul\":2481:2484   */\n      dup3\n        /* \"#utility.yul\":2474:2508   */\n      mstore\n        /* \"#utility.yul\":2405:2514   */\n      pop\n      pop\n      jump\t// out\n        /* \"#utility.yul\":2520:2884   */\n    tag_98:\n        /* \"#utility.yul\":2608:2611   */\n      0x00\n        /* \"#utility.yul\":2636:2675   */\n      tag_100\n        /* \"#utility.yul\":2669:2674   */\n      dup3\n        /* \"#utility.yul\":2636:2675   */\n      tag_101\n      jump\t// in\n    tag_100:\n        /* \"#utility.yul\":2691:2762   */\n      tag_102\n        /* \"#utility.yul\":2755:2761   */\n      dup2\n        /* \"#utility.yul\":2750:2753   */\n      dup6\n        /* \"#utility.yul\":2691:2762   */\n      tag_103\n      jump\t// in\n    tag_102:\n        /* \"#utility.yul\":2684:2762   */\n      swap4\n      pop\n        /* \"#utility.yul\":2771:2823   */\n      tag_104\n        /* \"#utility.yul\":2816:2822   */\n      dup2\n        /* \"#utility.yul\":2811:2814   */\n      dup6\n        /* \"#utility.yul\":2804:2808   */\n      0x20\n        /* \"#utility.yul\":2797:2802   */\n      dup7\n        /* \"#utility.yul\":2793:2809   */\n      add\n        /* \"#utility.yul\":2771:2823   */\n      tag_105\n      jump\t// in\n    tag_104:\n        /* \"#utility.yul\":2848:2877   */\n      tag_106\n        /* \"#utility.yul\":2870:2876   */\n      dup2\n        /* \"#utility.yul\":2848:2877   */\n      tag_107\n      jump\t// in\n    tag_106:\n        /* \"#utility.yul\":2843:2846   */\n      dup5\n        /* \"#utility.yul\":2839:2878   */\n      add\n        /* \"#utility.yul\":2832:2878   */\n      swap2\n      pop\n        /* \"#utility.yul\":2612:2884   */\n      pop\n        /* \"#utility.yul\":2520:2884   */\n      swap3\n      swap2\n      pop\n      pop\n      jump\t// out\n        /* \"#utility.yul\":2890:3008   */\n    tag_108:\n        /* \"#utility.yul\":2977:3001   */\n      tag_110\n        /* \"#utility.yul\":2995:3000   */\n      dup2\n        /* \"#utility.yul\":2977:3001   */\n      tag_111\n      jump\t// in\n    tag_110:\n        /* \"#utility.yul\":2972:2975   */\n      dup3\n        /* \"#utility.yul\":2965:3002   */\n      mstore\n        /* \"#utility.yul\":2890:3008   */\n      pop\n      pop\n      jump\t// out\n        /* \"#utility.yul\":3014:3224   */\n    tag_27:\n        /* \"#utility.yul\":3101:3105   */\n      0x00\n        /* \"#utility.yul\":3139:3141   */\n      0x20\n        /* \"#utility.yul\":3128:3137   */\n      dup3\n        /* \"#utility.yul\":3124:3142   */\n      add\n        /* \"#utility.yul\":3116:3142   */\n      swap1\n      pop\n        /* \"#utility.yul\":3152:3217   */\n      tag_113\n        /* \"#utility.yul\":3214:3215   */\n      0x00\n        /* \"#utility.yul\":3203:3212   */\n      dup4\n        /* \"#utility.yul\":3199:3216   */\n      add\n        /* \"#utility.yul\":3190:3196   */\n      dup5\n        /* \"#utility.yul\":3152:3217   */\n      tag_94\n      jump\t// in\n    tag_113:\n        /* \"#utility.yul\":3014:3224   */\n      swap3\n      swap2\n      pop\n      pop\n      jump\t// out\n        /* \"#utility.yul\":3230:3543   */\n    tag_21:\n        /* \"#utility.yul\":3343:3347   */\n      0x00\n        /* \"#utility.yul\":3381:3383   */\n      0x20\n        /* \"#utility.yul\":3370:3379   */\n      dup3\n        /* \"#utility.yul\":3366:3384   */\n      add\n        /* \"#utility.yul\":3358:3384   */\n      swap1\n      pop\n        /* \"#utility.yul\":3430:3439   */\n      dup2\n        /* \"#utility.yul\":3424:3428   */\n      dup2\n        /* \"#utility.yul\":3420:3440   */\n      sub\n        /* \"#utility.yul\":3416:3417   */\n      0x00\n        /* \"#utility.yul\":3405:3414   */\n      dup4\n        /* \"#utility.yul\":3401:3418   */\n      add\n        /* \"#utility.yul\":3394:3441   */\n      mstore\n        /* \"#utility.yul\":3458:3536   */\n      tag_115\n        /* \"#utility.yul\":3531:3535   */\n      dup2\n        /* \"#utility.yul\":3522:3528   */\n      dup5\n        /* \"#utility.yul\":3458:3536   */\n      tag_98\n      jump\t// in\n    tag_115:\n        /* \"#utility.yul\":3450:3536   */\n      swap1\n      pop\n        /* \"#utility.yul\":3230:3543   */\n      swap3\n      swap2\n      pop\n      pop\n      jump\t// out\n        /* \"#utility.yul\":3549:3771   */\n    tag_12:\n        /* \"#utility.yul\":3642:3646   */\n      0x00\n        /* \"#utility.yul\":3680:3682   */\n      0x20\n        /* \"#utility.yul\":3669:3678   */\n      dup3\n        /* \"#utility.yul\":3665:3683   */\n      add\n        /* \"#utility.yul\":3657:3683   */\n      swap1\n      pop\n        /* \"#utility.yul\":3693:3764   */\n      tag_117\n        /* \"#utility.yul\":3761:3762   */\n      0x00\n        /* \"#utility.yul\":3750:3759   */\n      dup4\n        /* \"#utility.yul\":3746:3763   */\n      add\n        /* \"#utility.yul\":3737:3743   */\n      dup5\n        /* \"#utility.yul\":3693:3764   */\n      tag_108\n      jump\t// in\n    tag_117:\n        /* \"#utility.yul\":3549:3771   */\n      swap3\n      swap2\n      pop\n      pop\n      jump\t// out\n        /* \"#utility.yul\":3777:3906   */\n    tag_57:\n        /* \"#utility.yul\":3811:3817   */\n      0x00\n        /* \"#utility.yul\":3838:3858   */\n      tag_119\n      tag_120\n      jump\t// in\n    tag_119:\n        /* \"#utility.yul\":3828:3858   */\n      swap1\n      pop\n        /* \"#utility.yul\":3867:3900   */\n      tag_121\n        /* \"#utility.yul\":3895:3899   */\n      dup3\n        /* \"#utility.yul\":3887:3893   */\n      dup3\n        /* \"#utility.yul\":3867:3900   */\n      tag_122\n      jump\t// in\n    tag_121:\n        /* \"#utility.yul\":3777:3906   */\n      swap2\n      swap1\n      pop\n      jump\t// out\n        /* \"#utility.yul\":3912:3987   */\n    tag_120:\n        /* \"#utility.yul\":3945:3951   */\n      0x00\n        /* \"#utility.yul\":3978:3980   */\n      0x40\n        /* \"#utility.yul\":3972:3981   */\n      mload\n        /* \"#utility.yul\":3962:3981   */\n      swap1\n      pop\n        /* \"#utility.yul\":3912:3987   */\n      swap1\n      jump\t// out\n        /* \"#utility.yul\":3993:4301   */\n    tag_56:\n        /* \"#utility.yul\":4055:4059   */\n      0x00\n        /* \"#utility.yul\":4145:4163   */\n      0xffffffffffffffff\n        /* \"#utility.yul\":4137:4143   */\n      dup3\n        /* \"#utility.yul\":4134:4164   */\n      gt\n        /* \"#utility.yul\":4131:4187   */\n      iszero\n      tag_125\n      jumpi\n        /* \"#utility.yul\":4167:4185   */\n      tag_126\n      tag_127\n      jump\t// in\n    tag_126:\n        /* \"#utility.yul\":4131:4187   */\n    tag_125:\n        /* \"#utility.yul\":4205:4234   */\n      tag_128\n        /* \"#utility.yul\":4227:4233   */\n      dup3\n        /* \"#utility.yul\":4205:4234   */\n      tag_107\n      jump\t// in\n    tag_128:\n        /* \"#utility.yul\":4197:4234   */\n      swap1\n      pop\n        /* \"#utility.yul\":4289:4293   */\n      0x20\n        /* \"#utility.yul\":4283:4287   */\n      dup2\n        /* \"#utility.yul\":4279:4294   */\n      add\n        /* \"#utility.yul\":4271:4294   */\n      swap1\n      pop\n        /* \"#utility.yul\":3993:4301   */\n      swap2\n      swap1\n      pop\n      jump\t// out\n        /* \"#utility.yul\":4307:4406   */\n    tag_101:\n        /* \"#utility.yul\":4359:4365   */\n      0x00\n        /* \"#utility.yul\":4393:4398   */\n      dup2\n        /* \"#utility.yul\":4387:4399   */\n      mload\n        /* \"#utility.yul\":4377:4399   */\n      swap1\n      pop\n        /* \"#utility.yul\":4307:4406   */\n      swap2\n      swap1\n      pop\n      jump\t// out\n        /* \"#utility.yul\":4412:4581   */\n    tag_103:\n        /* \"#utility.yul\":4496:4507   */\n      0x00\n        /* \"#utility.yul\":4530:4536   */\n      dup3\n        /* \"#utility.yul\":4525:4528   */\n      dup3\n        /* \"#utility.yul\":4518:4537   */\n      mstore\n        /* \"#utility.yul\":4570:4574   */\n      0x20\n        /* \"#utility.yul\":4565:4568   */\n      dup3\n        /* \"#utility.yul\":4561:4575   */\n      add\n        /* \"#utility.yul\":4546:4575   */\n      swap1\n      pop\n        /* \"#utility.yul\":4412:4581   */\n      swap3\n      swap2\n      pop\n      pop\n      jump\t// out\n        /* \"#utility.yul\":4587:4892   */\n    tag_36:\n        /* \"#utility.yul\":4627:4630   */\n      0x00\n        /* \"#utility.yul\":4646:4666   */\n      tag_132\n        /* \"#utility.yul\":4664:4665   */\n      dup3\n        /* \"#utility.yul\":4646:4666   */\n      tag_111\n      jump\t// in\n    tag_132:\n        /* \"#utility.yul\":4641:4666   */\n      swap2\n      pop\n        /* \"#utility.yul\":4680:4700   */\n      tag_133\n        /* \"#utility.yul\":4698:4699   */\n      dup4\n        /* \"#utility.yul\":4680:4700   */\n      tag_111\n      jump\t// in\n    tag_133:\n        /* \"#utility.yul\":4675:4700   */\n      swap3\n      pop\n        /* \"#utility.yul\":4834:4835   */\n      dup3\n        /* \"#utility.yul\":4766:4832   */\n      0xffffffffffffffffffffffffffffffffffffffffffffffffffffffffffffffff\n        /* \"#utility.yul\":4762:4836   */\n      sub\n        /* \"#utility.yul\":4759:4760   */\n      dup3\n        /* \"#utility.yul\":4756:4837   */\n      gt\n        /* \"#utility.yul\":4753:4860   */\n      iszero\n      tag_134\n      jumpi\n        /* \"#utility.yul\":4840:4858   */\n      tag_135\n      tag_136\n      jump\t// in\n    tag_135:\n        /* \"#utility.yul\":4753:4860   */\n    tag_134:\n        /* \"#utility.yul\":4884:4885   */\n      dup3\n        /* \"#utility.yul\":4881:4882   */\n      dup3\n        /* \"#utility.yul\":4877:4886   */\n      add\n        /* \"#utility.yul\":4870:4886   */\n      swap1\n      pop\n        /* \"#utility.yul\":4587:4892   */\n      swap3\n      swap2\n      pop\n      pop\n      jump\t// out\n        /* \"#utility.yul\":4898:4994   */\n    tag_137:\n        /* \"#utility.yul\":4935:4942   */\n      0x00\n        /* \"#utility.yul\":4964:4988   */\n      tag_139\n        /* \"#utility.yul\":4982:4987   */\n      dup3\n        /* \"#utility.yul\":4964:4988   */\n      tag_140\n      jump\t// in\n    tag_139:\n        /* \"#utility.yul\":4953:4988   */\n      swap1\n      pop\n        /* \"#utility.yul\":4898:4994   */\n      swap2\n      swap1\n      pop\n      jump\t// out\n        /* \"#utility.yul\":5000:5090   */\n    tag_97:\n        /* \"#utility.yul\":5034:5041   */\n      0x00\n        /* \"#utility.yul\":5077:5082   */\n      dup2\n        /* \"#utility.yul\":5070:5083   */\n      iszero\n        /* \"#utility.yul\":5063:5084   */\n      iszero\n        /* \"#utility.yul\":5052:5084   */\n      swap1\n      pop\n        /* \"#utility.yul\":5000:5090   */\n      swap2\n      swap1\n      pop\n      jump\t// out\n        /* \"#utility.yul\":5096:5222   */\n    tag_140:\n        /* \"#utility.yul\":5133:5140   */\n      0x00\n        /* \"#utility.yul\":5173:5215   */\n      0xffffffffffffffffffffffffffffffffffffffff\n        /* \"#utility.yul\":5166:5171   */\n      dup3\n        /* \"#utility.yul\":5162:5216   */\n      and\n        /* \"#utility.yul\":5151:5216   */\n      swap1\n      pop\n        /* \"#utility.yul\":5096:5222   */\n      swap2\n      swap1\n      pop\n      jump\t// out\n        /* \"#utility.yul\":5228:5305   */\n    tag_111:\n        /* \"#utility.yul\":5265:5272   */\n      0x00\n        /* \"#utility.yul\":5294:5299   */\n      dup2\n        /* \"#utility.yul\":5283:5299   */\n      swap1\n      pop\n        /* \"#utility.yul\":5228:5305   */\n      swap2\n      swap1\n      pop\n      jump\t// out\n        /* \"#utility.yul\":5311:5465   */\n    tag_62:\n        /* \"#utility.yul\":5395:5401   */\n      dup3\n        /* \"#utility.yul\":5390:5393   */\n      dup2\n        /* \"#utility.yul\":5385:5388   */\n      dup4\n        /* \"#utility.yul\":5372:5402   */\n      calldatacopy\n        /* \"#utility.yul\":5457:5458   */\n      0x00\n        /* \"#utility.yul\":5448:5454   */\n      dup4\n        /* \"#utility.yul\":5443:5446   */\n      dup4\n        /* \"#utility.yul\":5439:5455   */\n      add\n        /* \"#utility.yul\":5432:5459   */\n      mstore\n        /* \"#utility.yul\":5311:5465   */\n      pop\n      pop\n      pop\n      jump\t// out\n        /* \"#utility.yul\":5471:5778   */\n    tag_105:\n        /* \"#utility.yul\":5539:5540   */\n      0x00\n        /* \"#utility.yul\":5549:5662   */\n    tag_146:\n        /* \"#utility.yul\":5563:5569   */\n      dup4\n        /* \"#utility.yul\":5560:5561   */\n      dup2\n        /* \"#utility.yul\":5557:5570   */\n      lt\n        /* \"#utility.yul\":5549:5662   */\n      iszero\n      tag_148\n      jumpi\n        /* \"#utility.yul\":5648:5649   */\n      dup1\n        /* \"#utility.yul\":5643:5646   */\n      dup3\n        /* \"#utility.yul\":5639:5650   */\n      add\n        /* \"#utility.yul\":5633:5651   */\n      mload\n        /* \"#utility.yul\":5629:5630   */\n      dup2\n        /* \"#utility.yul\":5624:5627   */\n      dup5\n        /* \"#utility.yul\":5620:5631   */\n      add\n        /* \"#utility.yul\":5613:5652   */\n      mstore\n        /* \"#utility.yul\":5585:5587   */\n      0x20\n        /* \"#utility.yul\":5582:5583   */\n      dup2\n        /* \"#utility.yul\":5578:5588   */\n      add\n        /* \"#utility.yul\":5573:5588   */\n      swap1\n      pop\n        /* \"#utility.yul\":5549:5662   */\n      jump(tag_146)\n    tag_148:\n        /* \"#utility.yul\":5680:5686   */\n      dup4\n        /* \"#utility.yul\":5677:5678   */\n      dup2\n        /* \"#utility.yul\":5674:5687   */\n      gt\n        /* \"#utility.yul\":5671:5772   */\n      iszero\n      tag_149\n      jumpi\n        /* \"#utility.yul\":5760:5761   */\n      0x00\n        /* \"#utility.yul\":5751:5757   */\n      dup5\n        /* \"#utility.yul\":5746:5749   */\n      dup5\n        /* \"#utility.yul\":5742:5758   */\n      add\n        /* \"#utility.yul\":5735:5762   */\n      mstore\n        /* \"#utility.yul\":5671:5772   */\n    tag_149:\n        /* \"#utility.yul\":5520:5778   */\n      pop\n        /* \"#utility.yul\":5471:5778   */\n      pop\n      pop\n      pop\n      jump\t// out\n        /* \"#utility.yul\":5784:6104   */\n    tag_29:\n        /* \"#utility.yul\":5828:5834   */\n      0x00\n        /* \"#utility.yul\":5865:5866   */\n      0x02\n        /* \"#utility.yul\":5859:5863   */\n      dup3\n        /* \"#utility.yul\":5855:5867   */\n      div\n        /* \"#utility.yul\":5845:5867   */\n      swap1\n      pop\n        /* \"#utility.yul\":5912:5913   */\n      0x01\n        /* \"#utility.yul\":5906:5910   */\n      dup3\n        /* \"#utility.yul\":5902:5914   */\n      and\n        /* \"#utility.yul\":5933:5951   */\n      dup1\n        /* \"#utility.yul\":5923:6004   */\n      tag_151\n      jumpi\n        /* \"#utility.yul\":5989:5993   */\n      0x7f\n        /* \"#utility.yul\":5981:5987   */\n      dup3\n        /* \"#utility.yul\":5977:5994   */\n      and\n        /* \"#utility.yul\":5967:5994   */\n      swap2\n      pop\n        /* \"#utility.yul\":5923:6004   */\n    tag_151:\n        /* \"#utility.yul\":6051:6053   */\n      0x20\n        /* \"#utility.yul\":6043:6049   */\n      dup3\n        /* \"#utility.yul\":6040:6054   */\n      lt\n        /* \"#utility.yul\":6020:6038   */\n      dup2\n        /* \"#utility.yul\":6017:6055   */\n      eq\n        /* \"#utility.yul\":6014:6098   */\n      iszero\n      tag_152\n      jumpi\n        /* \"#utility.yul\":6070:6088   */\n      tag_153\n      tag_154\n      jump\t// in\n    tag_153:\n        /* \"#utility.yul\":6014:6098   */\n    tag_152:\n        /* \"#utility.yul\":5835:6104   */\n      pop\n        /* \"#utility.yul\":5784:6104   */\n      swap2\n      swap1\n      pop\n      jump\t// out\n        /* \"#utility.yul\":6110:6391   */\n    tag_122:\n        /* \"#utility.yul\":6193:6220   */\n      tag_156\n        /* \"#utility.yul\":6215:6219   */\n      dup3\n        /* \"#utility.yul\":6193:6220   */\n      tag_107\n      jump\t// in\n    tag_156:\n        /* \"#utility.yul\":6185:6191   */\n      dup2\n        /* \"#utility.yul\":6181:6221   */\n      add\n        /* \"#utility.yul\":6323:6329   */\n      dup2\n        /* \"#utility.yul\":6311:6321   */\n      dup2\n        /* \"#utility.yul\":6308:6330   */\n      lt\n        /* \"#utility.yul\":6287:6305   */\n      0xffffffffffffffff\n        /* \"#utility.yul\":6275:6285   */\n      dup3\n        /* \"#utility.yul\":6272:6306   */\n      gt\n        /* \"#utility.yul\":6269:6331   */\n      or\n        /* \"#utility.yul\":6266:6354   */\n      iszero\n      tag_157\n      jumpi\n        /* \"#utility.yul\":6334:6352   */\n      tag_158\n      tag_127\n      jump\t// in\n    tag_158:\n        /* \"#utility.yul\":6266:6354   */\n    tag_157:\n        /* \"#utility.yul\":6374:6384   */\n      dup1\n        /* \"#utility.yul\":6370:6372   */\n      0x40\n        /* \"#utility.yul\":6363:6385   */\n      mstore\n        /* \"#utility.yul\":6153:6391   */\n      pop\n        /* \"#utility.yul\":6110:6391   */\n      pop\n      pop\n      jump\t// out\n        /* \"#utility.yul\":6397:6577   */\n    tag_136:\n        /* \"#utility.yul\":6445:6522   */\n      0x4e487b7100000000000000000000000000000000000000000000000000000000\n        /* \"#utility.yul\":6442:6443   */\n      0x00\n        /* \"#utility.yul\":6435:6523   */\n      mstore\n        /* \"#utility.yul\":6542:6546   */\n      0x11\n        /* \"#utility.yul\":6539:6540   */\n      0x04\n        /* \"#utility.yul\":6532:6547   */\n      mstore\n        /* \"#utility.yul\":6566:6570   */\n      0x24\n        /* \"#utility.yul\":6563:6564   */\n      0x00\n        /* \"#utility.yul\":6556:6571   */\n      revert\n        /* \"#utility.yul\":6583:6763   */\n    tag_154:\n        /* \"#utility.yul\":6631:6708   */\n      0x4e487b7100000000000000000000000000000000000000000000000000000000\n        /* \"#utility.yul\":6628:6629   */\n      0x00\n        /* \"#utility.yul\":6621:6709   */\n      mstore\n        /* \"#utility.yul\":6728:6732   */\n      0x22\n        /* \"#utility.yul\":6725:6726   */\n      0x04\n        /* \"#utility.yul\":6718:6733   */\n      mstore\n        /* \"#utility.yul\":6752:6756   */\n      0x24\n        /* \"#utility.yul\":6749:6750   */\n      0x00\n        /* \"#utility.yul\":6742:6757   */\n      revert\n        /* \"#utility.yul\":6769:6949   */\n    tag_127:\n        /* \"#utility.yul\":6817:6894   */\n      0x4e487b7100000000000000000000000000000000000000000000000000000000\n        /* \"#utility.yul\":6814:6815   */\n      0x00\n        /* \"#utility.yul\":6807:6895   */\n      mstore\n        /* \"#utility.yul\":6914:6918   */\n      0x41\n        /* \"#utility.yul\":6911:6912   */\n      0x04\n        /* \"#utility.yul\":6904:6919   */\n      mstore\n        /* \"#utility.yul\":6938:6942   */\n      0x24\n        /* \"#utility.yul\":6935:6936   */\n      0x00\n        /* \"#utility.yul\":6928:6943   */\n      revert\n        /* \"#utility.yul\":6955:7072   */\n    tag_71:\n        /* \"#utility.yul\":7064:7065   */\n      0x00\n        /* \"#utility.yul\":7061:7062   */\n      dup1\n        /* \"#utility.yul\":7054:7066   */\n      revert\n        /* \"#utility.yul\":7078:7195   */\n    tag_60:\n        /* \"#utility.yul\":7187:7188   */\n      0x00\n        /* \"#utility.yul\":7184:7185   */\n      dup1\n        /* \"#utility.yul\":7177:7189   */\n      revert\n        /* \"#utility.yul\":7201:7318   */\n    tag_92:\n        /* \"#utility.yul\":7310:7311   */\n      0x00\n        /* \"#utility.yul\":7307:7308   */\n      dup1\n        /* \"#utility.yul\":7300:7312   */\n      revert\n        /* \"#utility.yul\":7324:7441   */\n    tag_80:\n        /* \"#utility.yul\":7433:7434   */\n      0x00\n        /* \"#utility.yul\":7430:7431   */\n      dup1\n        /* \"#utility.yul\":7423:7435   */\n      revert\n        /* \"#utility.yul\":7447:7549   */\n    tag_107:\n        /* \"#utility.yul\":7488:7494   */\n      0x00\n        /* \"#utility.yul\":7539:7541   */\n      0x1f\n        /* \"#utility.yul\":7535:7542   */\n      not\n        /* \"#utility.yul\":7530:7532   */\n      0x1f\n        /* \"#utility.yul\":7523:7528   */\n      dup4\n        /* \"#utility.yul\":7519:7533   */\n      add\n        /* \"#utility.yul\":7515:7543   */\n      and\n        /* \"#utility.yul\":7505:7543   */\n      swap1\n      pop\n        /* \"#utility.yul\":7447:7549   */\n      swap2\n      swap1\n      pop\n      jump\t// out\n        /* \"#utility.yul\":7555:7677   */\n    tag_66:\n        /* \"#utility.yul\":7628:7652   */\n      tag_168\n        /* \"#utility.yul\":7646:7651   */\n      dup2\n        /* \"#utility.yul\":7628:7652   */\n      tag_137\n      jump\t// in\n    tag_168:\n        /* \"#utility.yul\":7621:7626   */\n      dup2\n        /* \"#utility.yul\":7618:7653   */\n      eq\n        /* \"#utility.yul\":7608:7671   */\n      tag_169\n      jumpi\n        /* \"#utility.yul\":7667:7668   */\n      0x00\n        /* \"#utility.yul\":7664:7665   */\n      dup1\n        /* \"#utility.yul\":7657:7669   */\n      revert\n        /* \"#utility.yul\":7608:7671   */\n    tag_169:\n        /* \"#utility.yul\":7555:7677   */\n      pop\n      jump\t// out\n        /* \"#utility.yul\":7683:7805   */\n    tag_76:\n        /* \"#utility.yul\":7756:7780   */\n      tag_171\n        /* \"#utility.yul\":7774:7779   */\n      dup2\n        /* \"#utility.yul\":7756:7780   */\n      tag_111\n      jump\t// in\n    tag_171:\n        /* \"#utility.yul\":7749:7754   */\n      dup2\n        /* \"#utility.yul\":7746:7781   */\n      eq\n        /* \"#utility.yul\":7736:7799   */\n      tag_172\n      jumpi\n        /* \"#utility.yul\":7795:7796   */\n      0x00\n        /* \"#utility.yul\":7792:7793   */\n      dup1\n        /* \"#utility.yul\":7785:7797   */\n      revert\n        /* \"#utility.yul\":7736:7799   */\n    tag_172:\n        /* \"#utility.yul\":7683:7805   */\n      pop\n      jump\t// out\n\n    auxdata: 0xa264697066735822122031f8aa288cdfc375e4c33ccd1885311871e990e1e68b5bcc85073e2fc4547ecb64736f6c63430008070033\n}\n",
				"bytecode": {
					"linkReferences": {},
					"object": "608060405234801561001057600080fd5b5060405161097638038061097683398181016040528101906100329190610095565b8060028190555033600360006101000a81548173ffffffffffffffffffffffffffffffffffffffff021916908373ffffffffffffffffffffffffffffffffffffffff160217905550506100e8565b60008151905061008f816100d1565b92915050565b6000602082840312156100ab576100aa6100cc565b5b60006100b984828501610080565b91505092915050565b6000819050919050565b600080fd5b6100da816100c2565b81146100e557600080fd5b50565b61087f806100f76000396000f3fe608060405234801561001057600080fd5b506004361061004c5760003560e01c80630ad3430e1461005157806342cde4e81461008157806374dcdc631461009f5780639bc2bc71146100cf575b600080fd5b61006b6004803603810190610066919061044f565b6100ff565b6040516100789190610599565b60405180910390f35b610089610117565b6040516100969190610599565b60405180910390f35b6100b960048036038101906100b4919061047c565b61011d565b6040516100c69190610577565b60405180910390f35b6100e960048036038101906100e491906104bc565b6101ca565b6040516100f6919061055c565b60405180910390f35b60016020528060005260406000206000915090505481565b60025481565b600060205281600052604060002060205280600052604060002060009150915050805461014990610706565b80601f016020809104026020016040519081016040528092919081815260200182805461017590610706565b80156101c25780601f10610197576101008083540402835291602001916101c2565b820191906000526020600020905b8154815290600101906020018083116101a557829003601f168201915b505050505081565b60008060018060003373ffffffffffffffffffffffffffffffffffffffff1673ffffffffffffffffffffffffffffffffffffffff168152602001908152602001600020546102189190610626565b905060025481111561022957600190505b80600160003373ffffffffffffffffffffffffffffffffffffffff1673ffffffffffffffffffffffffffffffffffffffff16815260200190815260200160002081905550826000803373ffffffffffffffffffffffffffffffffffffffff1673ffffffffffffffffffffffffffffffffffffffff168152602001908152602001600020600083815260200190815260200160002090805190602001906102d0929190610312565b507f3c0c8dea9e5e5486a7d5b25f41716a0ee7b12a2a013316408a2fe0870a2f5710836040516103009190610577565b60405180910390a16001915050919050565b82805461031e90610706565b90600052602060002090601f0160209004810192826103405760008555610387565b82601f1061035957805160ff1916838001178555610387565b82800160010185558215610387579182015b8281111561038657825182559160200191906001019061036b565b5b5090506103949190610398565b5090565b5b808211156103b1576000816000905550600101610399565b5090565b60006103c86103c3846105d9565b6105b4565b9050828152602081018484840111156103e4576103e36107fb565b5b6103ef8482856106c4565b509392505050565b6000813590506104068161081b565b92915050565b600082601f830112610421576104206107f6565b5b81356104318482602086016103b5565b91505092915050565b60008135905061044981610832565b92915050565b60006020828403121561046557610464610805565b5b6000610473848285016103f7565b91505092915050565b6000806040838503121561049357610492610805565b5b60006104a1858286016103f7565b92505060206104b28582860161043a565b9150509250929050565b6000602082840312156104d2576104d1610805565b5b600082013567ffffffffffffffff8111156104f0576104ef610800565b5b6104fc8482850161040c565b91505092915050565b61050e8161068e565b82525050565b600061051f8261060a565b6105298185610615565b93506105398185602086016106d3565b6105428161080a565b840191505092915050565b610556816106ba565b82525050565b60006020820190506105716000830184610505565b92915050565b600060208201905081810360008301526105918184610514565b905092915050565b60006020820190506105ae600083018461054d565b92915050565b60006105be6105cf565b90506105ca8282610738565b919050565b6000604051905090565b600067ffffffffffffffff8211156105f4576105f36107c7565b5b6105fd8261080a565b9050602081019050919050565b600081519050919050565b600082825260208201905092915050565b6000610631826106ba565b915061063c836106ba565b9250827fffffffffffffffffffffffffffffffffffffffffffffffffffffffffffffffff0382111561067157610670610769565b5b828201905092915050565b60006106878261069a565b9050919050565b60008115159050919050565b600073ffffffffffffffffffffffffffffffffffffffff82169050919050565b6000819050919050565b82818337600083830152505050565b60005b838110156106f15780820151818401526020810190506106d6565b83811115610700576000848401525b50505050565b6000600282049050600182168061071e57607f821691505b6020821081141561073257610731610798565b5b50919050565b6107418261080a565b810181811067ffffffffffffffff821117156107605761075f6107c7565b5b80604052505050565b7f4e487b7100000000000000000000000000000000000000000000000000000000600052601160045260246000fd5b7f4e487b7100000000000000000000000000000000000000000000000000000000600052602260045260246000fd5b7f4e487b7100000000000000000000000000000000000000000000000000000000600052604160045260246000fd5b600080fd5b600080fd5b600080fd5b600080fd5b6000601f19601f8301169050919050565b6108248161067c565b811461082f57600080fd5b50565b61083b816106ba565b811461084657600080fd5b5056fea264697066735822122031f8aa288cdfc375e4c33ccd1885311871e990e1e68b5bcc85073e2fc4547ecb64736f6c63430008070033",
					"opcodes": "PUSH1 0x80 PUSH1 0x40 MSTORE CALLVALUE DUP1 ISZERO PUSH2 0x10 JUMPI PUSH1 0x0 DUP1 REVERT JUMPDEST POP PUSH1 0x40 MLOAD PUSH2 0x976 CODESIZE SUB DUP1 PUSH2 0x976 DUP4 CODECOPY DUP2 DUP2 ADD PUSH1 0x40 MSTORE DUP2 ADD SWAP1 PUSH2 0x32 SWAP2 SWAP1 PUSH2 0x95 JUMP JUMPDEST DUP1 PUSH1 0x2 DUP2 SWAP1 SSTORE POP CALLER PUSH1 0x3 PUSH1 0x0 PUSH2 0x100 EXP DUP2 SLOAD DUP2 PUSH20 0xFFFFFFFFFFFFFFFFFFFFFFFFFFFFFFFFFFFFFFFF MUL NOT AND SWAP1 DUP4 PUSH20 0xFFFFFFFFFFFFFFFFFFFFFFFFFFFFFFFFFFFFFFFF AND MUL OR SWAP1 SSTORE POP POP PUSH2 0xE8 JUMP JUMPDEST PUSH1 0x0 DUP2 MLOAD SWAP1 POP PUSH2 0x8F DUP2 PUSH2 0xD1 JUMP JUMPDEST SWAP3 SWAP2 POP POP JUMP JUMPDEST PUSH1 0x0 PUSH1 0x20 DUP3 DUP5 SUB SLT ISZERO PUSH2 0xAB JUMPI PUSH2 0xAA PUSH2 0xCC JUMP JUMPDEST JUMPDEST PUSH1 0x0 PUSH2 0xB9 DUP5 DUP3 DUP6 ADD PUSH2 0x80 JUMP JUMPDEST SWAP2 POP POP SWAP3 SWAP2 POP POP JUMP JUMPDEST PUSH1 0x0 DUP2 SWAP1 POP SWAP2 SWAP1 POP JUMP JUMPDEST PUSH1 0x0 DUP1 REVERT JUMPDEST PUSH2 0xDA DUP2 PUSH2 0xC2 JUMP JUMPDEST DUP2 EQ PUSH2 0xE5 JUMPI PUSH1 0x0 DUP1 REVERT JUMPDEST POP JUMP JUMPDEST PUSH2 0x87F DUP1 PUSH2 0xF7 PUSH1 0x0 CODECOPY PUSH1 0x0 RETURN INVALID PUSH1 0x80 PUSH1 0x40 MSTORE CALLVALUE DUP1 ISZERO PUSH2 0x10 JUMPI PUSH1 0x0 DUP1 REVERT JUMPDEST POP PUSH1 0x4 CALLDATASIZE LT PUSH2 0x4C JUMPI PUSH1 0x0 CALLDATALOAD PUSH1 0xE0 SHR DUP1 PUSH4 0xAD3430E EQ PUSH2 0x51 JUMPI DUP1 PUSH4 0x42CDE4E8 EQ PUSH2 0x81 JUMPI DUP1 PUSH4 0x74DCDC63 EQ PUSH2 0x9F JUMPI DUP1 PUSH4 0x9BC2BC71 EQ PUSH2 0xCF JUMPI JUMPDEST PUSH1 0x0 DUP1 REVERT JUMPDEST PUSH2 0x6B PUSH1 0x4 DUP1 CALLDATASIZE SUB DUP2 ADD SWAP1 PUSH2 0x66 SWAP2 SWAP1 PUSH2 0x44F JUMP JUMPDEST PUSH2 0xFF JUMP JUMPDEST PUSH1 0x40 MLOAD PUSH2 0x78 SWAP2 SWAP1 PUSH2 0x599 JUMP JUMPDEST PUSH1 0x40 MLOAD DUP1 SWAP2 SUB SWAP1 RETURN JUMPDEST PUSH2 0x89 PUSH2 0x117 JUMP JUMPDEST PUSH1 0x40 MLOAD PUSH2 0x96 SWAP2 SWAP1 PUSH2 0x599 JUMP JUMPDEST PUSH1 0x40 MLOAD DUP1 SWAP2 SUB SWAP1 RETURN JUMPDEST PUSH2 0xB9 PUSH1 0x4 DUP1 CALLDATASIZE SUB DUP2 ADD SWAP1 PUSH2 0xB4 SWAP2 SWAP1 PUSH2 0x47C JUMP JUMPDEST PUSH2 0x11D JUMP JUMPDEST PUSH1 0x40 MLOAD PUSH2 0xC6 SWAP2 SWAP1 PUSH2 0x577 JUMP JUMPDEST PUSH1 0x40 MLOAD DUP1 SWAP2 SUB SWAP1 RETURN JUMPDEST PUSH2 0xE9 PUSH1 0x4 DUP1 CALLDATASIZE SUB DUP2 ADD SWAP1 PUSH2 0xE4 SWAP2 SWAP1 PUSH2 0x4BC JUMP JUMPDEST PUSH2 0x1CA JUMP JUMPDEST PUSH1 0x40 MLOAD PUSH2 0xF6 SWAP2 SWAP1 PUSH2 0x55C JUMP JUMPDEST PUSH1 0x40 MLOAD DUP1 SWAP2 SUB SWAP1 RETURN JUMPDEST PUSH1 0x1 PUSH1 0x20 MSTORE DUP1 PUSH1 0x0 MSTORE PUSH1 0x40 PUSH1 0x0 KECCAK256 PUSH1 0x0 SWAP2 POP SWAP1 POP SLOAD DUP2 JUMP JUMPDEST PUSH1 0x2 SLOAD DUP2 JUMP JUMPDEST PUSH1 0x0 PUSH1 0x20 MSTORE DUP2 PUSH1 0x0 MSTORE PUSH1 0x40 PUSH1 0x0 KECCAK256 PUSH1 0x20 MSTORE DUP1 PUSH1 0x0 MSTORE PUSH1 0x40 PUSH1 0x0 KECCAK256 PUSH1 0x0 SWAP2 POP SWAP2 POP POP DUP1 SLOAD PUSH2 0x149 SWAP1 PUSH2 0x706 JUMP JUMPDEST DUP1 PUSH1 0x1F ADD PUSH1 0x20 DUP1 SWAP2 DIV MUL PUSH1 0x20 ADD PUSH1 0x40 MLOAD SWAP1 DUP2 ADD PUSH1 0x40 MSTORE DUP1 SWAP3 SWAP2 SWAP1 DUP2 DUP2 MSTORE PUSH1 0x20 ADD DUP3 DUP1 SLOAD PUSH2 0x175 SWAP1 PUSH2 0x706 JUMP JUMPDEST DUP1 ISZERO PUSH2 0x1C2 JUMPI DUP1 PUSH1 0x1F LT PUSH2 0x197 JUMPI PUSH2 0x100 DUP1 DUP4 SLOAD DIV MUL DUP4 MSTORE SWAP2 PUSH1 0x20 ADD SWAP2 PUSH2 0x1C2 JUMP JUMPDEST DUP3 ADD SWAP2 SWAP1 PUSH1 0x0 MSTORE PUSH1 0x20 PUSH1 0x0 KECCAK256 SWAP1 JUMPDEST DUP2 SLOAD DUP2 MSTORE SWAP1 PUSH1 0x1 ADD SWAP1 PUSH1 0x20 ADD DUP1 DUP4 GT PUSH2 0x1A5 JUMPI DUP3 SWAP1 SUB PUSH1 0x1F AND DUP3 ADD SWAP2 JUMPDEST POP POP POP POP POP DUP2 JUMP JUMPDEST PUSH1 0x0 DUP1 PUSH1 0x1 DUP1 PUSH1 0x0 CALLER PUSH20 0xFFFFFFFFFFFFFFFFFFFFFFFFFFFFFFFFFFFFFFFF AND PUSH20 0xFFFFFFFFFFFFFFFFFFFFFFFFFFFFFFFFFFFFFFFF AND DUP2 MSTORE PUSH1 0x20 ADD SWAP1 DUP2 MSTORE PUSH1 0x20 ADD PUSH1 0x0 KECCAK256 SLOAD PUSH2 0x218 SWAP2 SWAP1 PUSH2 0x626 JUMP JUMPDEST SWAP1 POP PUSH1 0x2 SLOAD DUP2 GT ISZERO PUSH2 0x229 JUMPI PUSH1 0x1 SWAP1 POP JUMPDEST DUP1 PUSH1 0x1 PUSH1 0x0 CALLER PUSH20 0xFFFFFFFFFFFFFFFFFFFFFFFFFFFFFFFFFFFFFFFF AND PUSH20 0xFFFFFFFFFFFFFFFFFFFFFFFFFFFFFFFFFFFFFFFF AND DUP2 MSTORE PUSH1 0x20 ADD SWAP1 DUP2 MSTORE PUSH1 0x20 ADD PUSH1 0x0 KECCAK256 DUP2 SWAP1 SSTORE POP DUP3 PUSH1 0x0 DUP1 CALLER PUSH20 0xFFFFFFFFFFFFFFFFFFFFFFFFFFFFFFFFFFFFFFFF AND PUSH20 0xFFFFFFFFFFFFFFFFFFFFFFFFFFFFFFFFFFFFFFFF AND DUP2 MSTORE PUSH1 0x20 ADD SWAP1 DUP2 MSTORE PUSH1 0x20 ADD PUSH1 0x0 KECCAK256 PUSH1 0x0 DUP4 DUP2 MSTORE PUSH1 0x20 ADD SWAP1 DUP2 MSTORE PUSH1 0x20 ADD PUSH1 0x0 KECCAK256 SWAP1 DUP1 MLOAD SWAP1 PUSH1 0x20 ADD SWAP1 PUSH2 0x2D0 SWAP3 SWAP2 SWAP1 PUSH2 0x312 JUMP JUMPDEST POP PUSH32 0x3C0C8DEA9E5E5486A7D5B25F41716A0EE7B12A2A013316408A2FE0870A2F5710 DUP4 PUSH1 0x40 MLOAD PUSH2 0x300 SWAP2 SWAP1 PUSH2 0x577 JUMP JUMPDEST PUSH1 0x40 MLOAD DUP1 SWAP2 SUB SWAP1 LOG1 PUSH1 0x1 SWAP2 POP POP SWAP2 SWAP1 POP JUMP JUMPDEST DUP3 DUP1 SLOAD PUSH2 0x31E SWAP1 PUSH2 0x706 JUMP JUMPDEST SWAP1 PUSH1 0x0 MSTORE PUSH1 0x20 PUSH1 0x0 KECCAK256 SWAP1 PUSH1 0x1F ADD PUSH1 0x20 SWAP1 DIV DUP2 ADD SWAP3 DUP3 PUSH2 0x340 JUMPI PUSH1 0x0 DUP6 SSTORE PUSH2 0x387 JUMP JUMPDEST DUP3 PUSH1 0x1F LT PUSH2 0x359 JUMPI DUP1 MLOAD PUSH1 0xFF NOT AND DUP4 DUP1 ADD OR DUP6 SSTORE PUSH2 0x387 JUMP JUMPDEST DUP3 DUP1 ADD PUSH1 0x1 ADD DUP6 SSTORE DUP3 ISZERO PUSH2 0x387 JUMPI SWAP2 DUP3 ADD JUMPDEST DUP3 DUP2 GT ISZERO PUSH2 0x386 JUMPI DUP3 MLOAD DUP3 SSTORE SWAP2 PUSH1 0x20 ADD SWAP2 SWAP1 PUSH1 0x1 ADD SWAP1 PUSH2 0x36B JUMP JUMPDEST JUMPDEST POP SWAP1 POP PUSH2 0x394 SWAP2 SWAP1 PUSH2 0x398 JUMP JUMPDEST POP SWAP1 JUMP JUMPDEST JUMPDEST DUP1 DUP3 GT ISZERO PUSH2 0x3B1 JUMPI PUSH1 0x0 DUP2 PUSH1 0x0 SWAP1 SSTORE POP PUSH1 0x1 ADD PUSH2 0x399 JUMP JUMPDEST POP SWAP1 JUMP JUMPDEST PUSH1 0x0 PUSH2 0x3C8 PUSH2 0x3C3 DUP5 PUSH2 0x5D9 JUMP JUMPDEST PUSH2 0x5B4 JUMP JUMPDEST SWAP1 POP DUP3 DUP2 MSTORE PUSH1 0x20 DUP2 ADD DUP5 DUP5 DUP5 ADD GT ISZERO PUSH2 0x3E4 JUMPI PUSH2 0x3E3 PUSH2 0x7FB JUMP JUMPDEST JUMPDEST PUSH2 0x3EF DUP5 DUP3 DUP6 PUSH2 0x6C4 JUMP JUMPDEST POP SWAP4 SWAP3 POP POP POP JUMP JUMPDEST PUSH1 0x0 DUP2 CALLDATALOAD SWAP1 POP PUSH2 0x406 DUP2 PUSH2 0x81B JUMP JUMPDEST SWAP3 SWAP2 POP POP JUMP JUMPDEST PUSH1 0x0 DUP3 PUSH1 0x1F DUP4 ADD SLT PUSH2 0x421 JUMPI PUSH2 0x420 PUSH2 0x7F6 JUMP JUMPDEST JUMPDEST DUP2 CALLDATALOAD PUSH2 0x431 DUP5 DUP3 PUSH1 0x20 DUP7 ADD PUSH2 0x3B5 JUMP JUMPDEST SWAP2 POP POP SWAP3 SWAP2 POP POP JUMP JUMPDEST PUSH1 0x0 DUP2 CALLDATALOAD SWAP1 POP PUSH2 0x449 DUP2 PUSH2 0x832 JUMP JUMPDEST SWAP3 SWAP2 POP POP JUMP JUMPDEST PUSH1 0x0 PUSH1 0x20 DUP3 DUP5 SUB SLT ISZERO PUSH2 0x465 JUMPI PUSH2 0x464 PUSH2 0x805 JUMP JUMPDEST JUMPDEST PUSH1 0x0 PUSH2 0x473 DUP5 DUP3 DUP6 ADD PUSH2 0x3F7 JUMP JUMPDEST SWAP2 POP POP SWAP3 SWAP2 POP POP JUMP JUMPDEST PUSH1 0x0 DUP1 PUSH1 0x40 DUP4 DUP6 SUB SLT ISZERO PUSH2 0x493 JUMPI PUSH2 0x492 PUSH2 0x805 JUMP JUMPDEST JUMPDEST PUSH1 0x0 PUSH2 0x4A1 DUP6 DUP3 DUP7 ADD PUSH2 0x3F7 JUMP JUMPDEST SWAP3 POP POP PUSH1 0x20 PUSH2 0x4B2 DUP6 DUP3 DUP7 ADD PUSH2 0x43A JUMP JUMPDEST SWAP2 POP POP SWAP3 POP SWAP3 SWAP1 POP JUMP JUMPDEST PUSH1 0x0 PUSH1 0x20 DUP3 DUP5 SUB SLT ISZERO PUSH2 0x4D2 JUMPI PUSH2 0x4D1 PUSH2 0x805 JUMP JUMPDEST JUMPDEST PUSH1 0x0 DUP3 ADD CALLDATALOAD PUSH8 0xFFFFFFFFFFFFFFFF DUP2 GT ISZERO PUSH2 0x4F0 JUMPI PUSH2 0x4EF PUSH2 0x800 JUMP JUMPDEST JUMPDEST PUSH2 0x4FC DUP5 DUP3 DUP6 ADD PUSH2 0x40C JUMP JUMPDEST SWAP2 POP POP SWAP3 SWAP2 POP POP JUMP JUMPDEST PUSH2 0x50E DUP2 PUSH2 0x68E JUMP JUMPDEST DUP3 MSTORE POP POP JUMP JUMPDEST PUSH1 0x0 PUSH2 0x51F DUP3 PUSH2 0x60A JUMP JUMPDEST PUSH2 0x529 DUP2 DUP6 PUSH2 0x615 JUMP JUMPDEST SWAP4 POP PUSH2 0x539 DUP2 DUP6 PUSH1 0x20 DUP7 ADD PUSH2 0x6D3 JUMP JUMPDEST PUSH2 0x542 DUP2 PUSH2 0x80A JUMP JUMPDEST DUP5 ADD SWAP2 POP POP SWAP3 SWAP2 POP POP JUMP JUMPDEST PUSH2 0x556 DUP2 PUSH2 0x6BA JUMP JUMPDEST DUP3 MSTORE POP POP JUMP JUMPDEST PUSH1 0x0 PUSH1 0x20 DUP3 ADD SWAP1 POP PUSH2 0x571 PUSH1 0x0 DUP4 ADD DUP5 PUSH2 0x505 JUMP JUMPDEST SWAP3 SWAP2 POP POP JUMP JUMPDEST PUSH1 0x0 PUSH1 0x20 DUP3 ADD SWAP1 POP DUP2 DUP2 SUB PUSH1 0x0 DUP4 ADD MSTORE PUSH2 0x591 DUP2 DUP5 PUSH2 0x514 JUMP JUMPDEST SWAP1 POP SWAP3 SWAP2 POP POP JUMP JUMPDEST PUSH1 0x0 PUSH1 0x20 DUP3 ADD SWAP1 POP PUSH2 0x5AE PUSH1 0x0 DUP4 ADD DUP5 PUSH2 0x54D JUMP JUMPDEST SWAP3 SWAP2 POP POP JUMP JUMPDEST PUSH1 0x0 PUSH2 0x5BE PUSH2 0x5CF JUMP JUMPDEST SWAP1 POP PUSH2 0x5CA DUP3 DUP3 PUSH2 0x738 JUMP JUMPDEST SWAP2 SWAP1 POP JUMP JUMPDEST PUSH1 0x0 PUSH1 0x40 MLOAD SWAP1 POP SWAP1 JUMP JUMPDEST PUSH1 0x0 PUSH8 0xFFFFFFFFFFFFFFFF DUP3 GT ISZERO PUSH2 0x5F4 JUMPI PUSH2 0x5F3 PUSH2 0x7C7 JUMP JUMPDEST JUMPDEST PUSH2 0x5FD DUP3 PUSH2 0x80A JUMP JUMPDEST SWAP1 POP PUSH1 0x20 DUP2 ADD SWAP1 POP SWAP2 SWAP1 POP JUMP JUMPDEST PUSH1 0x0 DUP2 MLOAD SWAP1 POP SWAP2 SWAP1 POP JUMP JUMPDEST PUSH1 0x0 DUP3 DUP3 MSTORE PUSH1 0x20 DUP3 ADD SWAP1 POP SWAP3 SWAP2 POP POP JUMP JUMPDEST PUSH1 0x0 PUSH2 0x631 DUP3 PUSH2 0x6BA JUMP JUMPDEST SWAP2 POP PUSH2 0x63C DUP4 PUSH2 0x6BA JUMP JUMPDEST SWAP3 POP DUP3 PUSH32 0xFFFFFFFFFFFFFFFFFFFFFFFFFFFFFFFFFFFFFFFFFFFFFFFFFFFFFFFFFFFFFFFF SUB DUP3 GT ISZERO PUSH2 0x671 JUMPI PUSH2 0x670 PUSH2 0x769 JUMP JUMPDEST JUMPDEST DUP3 DUP3 ADD SWAP1 POP SWAP3 SWAP2 POP POP JUMP JUMPDEST PUSH1 0x0 PUSH2 0x687 DUP3 PUSH2 0x69A JUMP JUMPDEST SWAP1 POP SWAP2 SWAP1 POP JUMP JUMPDEST PUSH1 0x0 DUP2 ISZERO ISZERO SWAP1 POP SWAP2 SWAP1 POP JUMP JUMPDEST PUSH1 0x0 PUSH20 0xFFFFFFFFFFFFFFFFFFFFFFFFFFFFFFFFFFFFFFFF DUP3 AND SWAP1 POP SWAP2 SWAP1 POP JUMP JUMPDEST PUSH1 0x0 DUP2 SWAP1 POP SWAP2 SWAP1 POP JUMP JUMPDEST DUP3 DUP2 DUP4 CALLDATACOPY PUSH1 0x0 DUP4 DUP4 ADD MSTORE POP POP POP JUMP JUMPDEST PUSH1 0x0 JUMPDEST DUP4 DUP2 LT ISZERO PUSH2 0x6F1 JUMPI DUP1 DUP3 ADD MLOAD DUP2 DUP5 ADD MSTORE PUSH1 0x20 DUP2 ADD SWAP1 POP PUSH2 0x6D6 JUMP JUMPDEST DUP4 DUP2 GT ISZERO PUSH2 0x700 JUMPI PUSH1 0x0 DUP5 DUP5 ADD MSTORE JUMPDEST POP POP POP POP JUMP JUMPDEST PUSH1 0x0 PUSH1 0x2 DUP3 DIV SWAP1 POP PUSH1 0x1 DUP3 AND DUP1 PUSH2 0x71E JUMPI PUSH1 0x7F DUP3 AND SWAP2 POP JUMPDEST PUSH1 0x20 DUP3 LT DUP2 EQ ISZERO PUSH2 0x732 JUMPI PUSH2 0x731 PUSH2 0x798 JUMP JUMPDEST JUMPDEST POP SWAP2 SWAP1 POP JUMP JUMPDEST PUSH2 0x741 DUP3 PUSH2 0x80A JUMP JUMPDEST DUP2 ADD DUP2 DUP2 LT PUSH8 0xFFFFFFFFFFFFFFFF DUP3 GT OR ISZERO PUSH2 0x760 JUMPI PUSH2 0x75F PUSH2 0x7C7 JUMP JUMPDEST JUMPDEST DUP1 PUSH1 0x40 MSTORE POP POP POP JUMP JUMPDEST PUSH32 0x4E487B7100000000000000000000000000000000000000000000000000000000 PUSH1 0x0 MSTORE PUSH1 0x11 PUSH1 0x4 MSTORE PUSH1 0x24 PUSH1 0x0 REVERT JUMPDEST PUSH32 0x4E487B7100000000000000000000000000000000000000000000000000000000 PUSH1 0x0 MSTORE PUSH1 0x22 PUSH1 0x4 MSTORE PUSH1 0x24 PUSH1 0x0 REVERT JUMPDEST PUSH32 0x4E487B7100000000000000000000000000000000000000000000000000000000 PUSH1 0x0 MSTORE PUSH1 0x41 PUSH1 0x4 MSTORE PUSH1 0x24 PUSH1 0x0 REVERT JUMPDEST PUSH1 0x0 DUP1 REVERT JUMPDEST PUSH1 0x0 DUP1 REVERT JUMPDEST PUSH1 0x0 DUP1 REVERT JUMPDEST PUSH1 0x0 DUP1 REVERT JUMPDEST PUSH1 0x0 PUSH1 0x1F NOT PUSH1 0x1F DUP4 ADD AND SWAP1 POP SWAP2 SWAP1 POP JUMP JUMPDEST PUSH2 0x824 DUP2 PUSH2 0x67C JUMP JUMPDEST DUP2 EQ PUSH2 0x82F JUMPI PUSH1 0x0 DUP1 REVERT JUMPDEST POP JUMP JUMPDEST PUSH2 0x83B DUP2 PUSH2 0x6BA JUMP JUMPDEST DUP2 EQ PUSH2 0x846 JUMPI PUSH1 0x0 DUP1 REVERT JUMPDEST POP JUMP INVALID LOG2 PUSH5 0x6970667358 0x22 SLT KECCAK256 BALANCE 0xF8 0xAA 0x28 DUP13 0xDF 0xC3 PUSH22 0xE4C33CCD1885311871E990E1E68B5BCC85073E2FC454 PUSH31 0xCB64736F6C6343000807003300000000000000000000000000000000000000 "
				},
				"gasEstimates": {
					"creation": {
						"codeDepositCost": "435000",
						"executionCost": "infinite",
						"totalCost": "infinite"
					},
					"external": {
						"createEvent(string)": "infinite",
						"events(address,uint256)": "infinite",
						"eventsCounter(address)": "2792",
						"threshold()": "2429"
					}
				},
				"methodIdentifiers": {
					"createEvent(string)": "9bc2bc71",
					"events(address,uint256)": "74dcdc63",
					"eventsCounter(address)": "0ad3430e",
					"threshold()": "42cde4e8"
				}
			},
			"storageLayout": {
				"storage": [
					{
						"astId": 11,
						"contract": "contracts/Ciberseguridad/Event.sol:Event",
						"label": "events",
						"offset": 0,
						"slot": "0",
						"type": "t_mapping(t_address,t_mapping(t_uint256,t_string_storage))"
					},
					{
						"astId": 15,
						"contract": "contracts/Ciberseguridad/Event.sol:Event",
						"label": "eventsCounter",
						"offset": 0,
						"slot": "1",
						"type": "t_mapping(t_address,t_uint256)"
					},
					{
						"astId": 17,
						"contract": "contracts/Ciberseguridad/Event.sol:Event",
						"label": "threshold",
						"offset": 0,
						"slot": "2",
						"type": "t_uint256"
					},
					{
						"astId": 19,
						"contract": "contracts/Ciberseguridad/Event.sol:Event",
						"label": "owner",
						"offset": 0,
						"slot": "3",
						"type": "t_address"
					}
				],
				"types": {
					"t_address": {
						"encoding": "inplace",
						"label": "address",
						"numberOfBytes": "20"
					},
					"t_mapping(t_address,t_mapping(t_uint256,t_string_storage))": {
						"encoding": "mapping",
						"key": "t_address",
						"label": "mapping(address => mapping(uint256 => string))",
						"numberOfBytes": "32",
						"value": "t_mapping(t_uint256,t_string_storage)"
					},
					"t_mapping(t_address,t_uint256)": {
						"encoding": "mapping",
						"key": "t_address",
						"label": "mapping(address => uint256)",
						"numberOfBytes": "32",
						"value": "t_uint256"
					},
					"t_mapping(t_uint256,t_string_storage)": {
						"encoding": "mapping",
						"key": "t_uint256",
						"label": "mapping(uint256 => string)",
						"numberOfBytes": "32",
						"value": "t_string_storage"
					},
					"t_string_storage": {
						"encoding": "bytes",
						"label": "string",
						"numberOfBytes": "32"
					},
					"t_uint256": {
						"encoding": "inplace",
						"label": "uint256",
						"numberOfBytes": "32"
					}
				}
			},
			"userdoc": {
				"kind": "user",
				"methods": {},
				"version": 1
			}
		}
	}
}