{
	"contracts/Ciberseguridad/Event.sol": {
		"Event": {
			"abi": [
				{
					"inputs": [
						{
							"internalType": "uint256",
							"name": "_threshold",
							"type": "uint256"
						}
					],
					"stateMutability": "nonpayable",
					"type": "constructor"
				},
				{
					"anonymous": false,
					"inputs": [
						{
							"indexed": false,
							"internalType": "string",
							"name": "_event",
							"type": "string"
						}
					],
					"name": "newEventCreated",
					"type": "event"
				},
				{
					"inputs": [
						{
							"internalType": "string",
							"name": "_event",
							"type": "string"
						}
					],
					"name": "createEvent",
					"outputs": [
						{
							"internalType": "bool",
							"name": "success",
							"type": "bool"
						}
					],
					"stateMutability": "nonpayable",
					"type": "function"
				},
				{
					"inputs": [
						{
							"internalType": "address",
							"name": "",
							"type": "address"
						},
						{
							"internalType": "uint256",
							"name": "",
							"type": "uint256"
						}
					],
					"name": "events",
					"outputs": [
						{
							"internalType": "string",
							"name": "",
							"type": "string"
						}
					],
					"stateMutability": "view",
					"type": "function"
				},
				{
					"inputs": [
						{
							"internalType": "address",
							"name": "",
							"type": "address"
						}
					],
					"name": "eventsCounter",
					"outputs": [
						{
							"internalType": "uint256",
							"name": "",
							"type": "uint256"
						}
					],
					"stateMutability": "view",
					"type": "function"
				},
				{
					"inputs": [
						{
							"internalType": "uint256",
							"name": "_threshold",
							"type": "uint256"
						}
					],
					"name": "setThreshold",
					"outputs": [],
					"stateMutability": "nonpayable",
					"type": "function"
				},
				{
					"inputs": [],
					"name": "threshold",
					"outputs": [
						{
							"internalType": "uint256",
							"name": "",
							"type": "uint256"
						}
					],
					"stateMutability": "view",
					"type": "function"
				}
			],
			"devdoc": {
				"kind": "dev",
				"methods": {},
				"version": 1
			},
			"evm": {
				"assembly": "    /* \"contracts/Ciberseguridad/Event.sol\":72:1170  contract Event {\r... */\n  mstore(0x40, 0x80)\n    /* \"contracts/Ciberseguridad/Event.sol\":562:666  constructor(uint256 _threshold) {\r... */\n  callvalue\n  dup1\n  iszero\n  tag_1\n  jumpi\n  0x00\n  dup1\n  revert\ntag_1:\n  pop\n  mload(0x40)\n  sub(codesize, bytecodeSize)\n  dup1\n  bytecodeSize\n  dup4\n  codecopy\n  dup2\n  dup2\n  add\n  0x40\n  mstore\n  dup2\n  add\n  swap1\n  tag_2\n  swap2\n  swap1\n  tag_3\n  jump\t// in\ntag_2:\n    /* \"contracts/Ciberseguridad/Event.sol\":619:629  _threshold */\n  dup1\n    /* \"contracts/Ciberseguridad/Event.sol\":607:616  threshold */\n  0x02\n    /* \"contracts/Ciberseguridad/Event.sol\":607:629  threshold = _threshold */\n  dup2\n  swap1\n  sstore\n  pop\n    /* \"contracts/Ciberseguridad/Event.sol\":648:658  msg.sender */\n  caller\n    /* \"contracts/Ciberseguridad/Event.sol\":640:645  owner */\n  0x03\n  0x00\n    /* \"contracts/Ciberseguridad/Event.sol\":640:658  owner = msg.sender */\n  0x0100\n  exp\n  dup2\n  sload\n  dup2\n  0xffffffffffffffffffffffffffffffffffffffff\n  mul\n  not\n  and\n  swap1\n  dup4\n  0xffffffffffffffffffffffffffffffffffffffff\n  and\n  mul\n  or\n  swap1\n  sstore\n  pop\n    /* \"contracts/Ciberseguridad/Event.sol\":562:666  constructor(uint256 _threshold) {\r... */\n  pop\n    /* \"contracts/Ciberseguridad/Event.sol\":72:1170  contract Event {\r... */\n  jump(tag_6)\n    /* \"#utility.yul\":7:150   */\ntag_8:\n    /* \"#utility.yul\":64:69   */\n  0x00\n    /* \"#utility.yul\":95:101   */\n  dup2\n    /* \"#utility.yul\":89:102   */\n  mload\n    /* \"#utility.yul\":80:102   */\n  swap1\n  pop\n    /* \"#utility.yul\":111:144   */\n  tag_10\n    /* \"#utility.yul\":138:143   */\n  dup2\n    /* \"#utility.yul\":111:144   */\n  tag_11\n  jump\t// in\ntag_10:\n    /* \"#utility.yul\":7:150   */\n  swap3\n  swap2\n  pop\n  pop\n  jump\t// out\n    /* \"#utility.yul\":156:507   */\ntag_3:\n    /* \"#utility.yul\":226:232   */\n  0x00\n    /* \"#utility.yul\":275:277   */\n  0x20\n    /* \"#utility.yul\":263:272   */\n  dup3\n    /* \"#utility.yul\":254:261   */\n  dup5\n    /* \"#utility.yul\":250:273   */\n  sub\n    /* \"#utility.yul\":246:278   */\n  slt\n    /* \"#utility.yul\":243:362   */\n  iszero\n  tag_13\n  jumpi\n    /* \"#utility.yul\":281:360   */\n  tag_14\n  tag_15\n  jump\t// in\ntag_14:\n    /* \"#utility.yul\":243:362   */\ntag_13:\n    /* \"#utility.yul\":401:402   */\n  0x00\n    /* \"#utility.yul\":426:490   */\n  tag_16\n    /* \"#utility.yul\":482:489   */\n  dup5\n    /* \"#utility.yul\":473:479   */\n  dup3\n    /* \"#utility.yul\":462:471   */\n  dup6\n    /* \"#utility.yul\":458:480   */\n  add\n    /* \"#utility.yul\":426:490   */\n  tag_8\n  jump\t// in\ntag_16:\n    /* \"#utility.yul\":416:490   */\n  swap2\n  pop\n    /* \"#utility.yul\":372:500   */\n  pop\n    /* \"#utility.yul\":156:507   */\n  swap3\n  swap2\n  pop\n  pop\n  jump\t// out\n    /* \"#utility.yul\":594:671   */\ntag_19:\n    /* \"#utility.yul\":631:638   */\n  0x00\n    /* \"#utility.yul\":660:665   */\n  dup2\n    /* \"#utility.yul\":649:665   */\n  swap1\n  pop\n    /* \"#utility.yul\":594:671   */\n  swap2\n  swap1\n  pop\n  jump\t// out\n    /* \"#utility.yul\":800:917   */\ntag_15:\n    /* \"#utility.yul\":909:910   */\n  0x00\n    /* \"#utility.yul\":906:907   */\n  dup1\n    /* \"#utility.yul\":899:911   */\n  revert\n    /* \"#utility.yul\":923:1045   */\ntag_11:\n    /* \"#utility.yul\":996:1020   */\n  tag_25\n    /* \"#utility.yul\":1014:1019   */\n  dup2\n    /* \"#utility.yul\":996:1020   */\n  tag_19\n  jump\t// in\ntag_25:\n    /* \"#utility.yul\":989:994   */\n  dup2\n    /* \"#utility.yul\":986:1021   */\n  eq\n    /* \"#utility.yul\":976:1039   */\n  tag_26\n  jumpi\n    /* \"#utility.yul\":1035:1036   */\n  0x00\n    /* \"#utility.yul\":1032:1033   */\n  dup1\n    /* \"#utility.yul\":1025:1037   */\n  revert\n    /* \"#utility.yul\":976:1039   */\ntag_26:\n    /* \"#utility.yul\":923:1045   */\n  pop\n  jump\t// out\n    /* \"contracts/Ciberseguridad/Event.sol\":72:1170  contract Event {\r... */\ntag_6:\n  dataSize(sub_0)\n  dup1\n  dataOffset(sub_0)\n  0x00\n  codecopy\n  0x00\n  return\nstop\n\nsub_0: assembly {\n        /* \"contracts/Ciberseguridad/Event.sol\":72:1170  contract Event {\r... */\n      mstore(0x40, 0x80)\n      callvalue\n      dup1\n      iszero\n      tag_1\n      jumpi\n      0x00\n      dup1\n      revert\n    tag_1:\n      pop\n      jumpi(tag_2, lt(calldatasize, 0x04))\n      shr(0xe0, calldataload(0x00))\n      dup1\n      0x0ad3430e\n      eq\n      tag_3\n      jumpi\n      dup1\n      0x42cde4e8\n      eq\n      tag_4\n      jumpi\n      dup1\n      0x74dcdc63\n      eq\n      tag_5\n      jumpi\n      dup1\n      0x960bfe04\n      eq\n      tag_6\n      jumpi\n      dup1\n      0x9bc2bc71\n      eq\n      tag_7\n      jumpi\n    tag_2:\n      0x00\n      dup1\n      revert\n        /* \"contracts/Ciberseguridad/Event.sol\":348:396  mapping(address => uint256) public eventsCounter */\n    tag_3:\n      tag_8\n      0x04\n      dup1\n      calldatasize\n      sub\n      dup2\n      add\n      swap1\n      tag_9\n      swap2\n      swap1\n      tag_10\n      jump\t// in\n    tag_9:\n      tag_11\n      jump\t// in\n    tag_8:\n      mload(0x40)\n      tag_12\n      swap2\n      swap1\n      tag_13\n      jump\t// in\n    tag_12:\n      mload(0x40)\n      dup1\n      swap2\n      sub\n      swap1\n      return\n        /* \"contracts/Ciberseguridad/Event.sol\":409:433  uint256 public threshold */\n    tag_4:\n      tag_14\n      tag_15\n      jump\t// in\n    tag_14:\n      mload(0x40)\n      tag_16\n      swap2\n      swap1\n      tag_13\n      jump\t// in\n    tag_16:\n      mload(0x40)\n      dup1\n      swap2\n      sub\n      swap1\n      return\n        /* \"contracts/Ciberseguridad/Event.sol\":219:280  mapping(address => mapping (uint256 => string)) public events */\n    tag_5:\n      tag_17\n      0x04\n      dup1\n      calldatasize\n      sub\n      dup2\n      add\n      swap1\n      tag_18\n      swap2\n      swap1\n      tag_19\n      jump\t// in\n    tag_18:\n      tag_20\n      jump\t// in\n    tag_17:\n      mload(0x40)\n      tag_21\n      swap2\n      swap1\n      tag_22\n      jump\t// in\n    tag_21:\n      mload(0x40)\n      dup1\n      swap2\n      sub\n      swap1\n      return\n        /* \"contracts/Ciberseguridad/Event.sol\":1057:1157  function setThreshold(uint256 _threshold) public onlyOwner {\r... */\n    tag_6:\n      tag_23\n      0x04\n      dup1\n      calldatasize\n      sub\n      dup2\n      add\n      swap1\n      tag_24\n      swap2\n      swap1\n      tag_25\n      jump\t// in\n    tag_24:\n      tag_26\n      jump\t// in\n    tag_23:\n      stop\n        /* \"contracts/Ciberseguridad/Event.sol\":674:1049  function createEvent(string memory _event) public returns (bool success) {\r... */\n    tag_7:\n      tag_27\n      0x04\n      dup1\n      calldatasize\n      sub\n      dup2\n      add\n      swap1\n      tag_28\n      swap2\n      swap1\n      tag_29\n      jump\t// in\n    tag_28:\n      tag_30\n      jump\t// in\n    tag_27:\n      mload(0x40)\n      tag_31\n      swap2\n      swap1\n      tag_32\n      jump\t// in\n    tag_31:\n      mload(0x40)\n      dup1\n      swap2\n      sub\n      swap1\n      return\n        /* \"contracts/Ciberseguridad/Event.sol\":348:396  mapping(address => uint256) public eventsCounter */\n    tag_11:\n      mstore(0x20, 0x01)\n      dup1\n      0x00\n      mstore\n      keccak256(0x00, 0x40)\n      0x00\n      swap2\n      pop\n      swap1\n      pop\n      sload\n      dup2\n      jump\t// out\n        /* \"contracts/Ciberseguridad/Event.sol\":409:433  uint256 public threshold */\n    tag_15:\n      sload(0x02)\n      dup2\n      jump\t// out\n        /* \"contracts/Ciberseguridad/Event.sol\":219:280  mapping(address => mapping (uint256 => string)) public events */\n    tag_20:\n      mstore(0x20, 0x00)\n      dup2\n      0x00\n      mstore\n      mstore(0x20, keccak256(0x00, 0x40))\n      dup1\n      0x00\n      mstore\n      keccak256(0x00, 0x40)\n      0x00\n      swap2\n      pop\n      swap2\n      pop\n      pop\n      dup1\n      sload\n      tag_33\n      swap1\n      tag_34\n      jump\t// in\n    tag_33:\n      dup1\n      0x1f\n      add\n      0x20\n      dup1\n      swap2\n      div\n      mul\n      0x20\n      add\n      mload(0x40)\n      swap1\n      dup2\n      add\n      0x40\n      mstore\n      dup1\n      swap3\n      swap2\n      swap1\n      dup2\n      dup2\n      mstore\n      0x20\n      add\n      dup3\n      dup1\n      sload\n      tag_35\n      swap1\n      tag_34\n      jump\t// in\n    tag_35:\n      dup1\n      iszero\n      tag_36\n      jumpi\n      dup1\n      0x1f\n      lt\n      tag_37\n      jumpi\n      0x0100\n      dup1\n      dup4\n      sload\n      div\n      mul\n      dup4\n      mstore\n      swap2\n      0x20\n      add\n      swap2\n      jump(tag_36)\n    tag_37:\n      dup3\n      add\n      swap2\n      swap1\n      0x00\n      mstore\n      keccak256(0x00, 0x20)\n      swap1\n    tag_38:\n      dup2\n      sload\n      dup2\n      mstore\n      swap1\n      0x01\n      add\n      swap1\n      0x20\n      add\n      dup1\n      dup4\n      gt\n      tag_38\n      jumpi\n      dup3\n      swap1\n      sub\n      0x1f\n      and\n      dup3\n      add\n      swap2\n    tag_36:\n      pop\n      pop\n      pop\n      pop\n      pop\n      dup2\n      jump\t// out\n        /* \"contracts/Ciberseguridad/Event.sol\":1057:1157  function setThreshold(uint256 _threshold) public onlyOwner {\r... */\n    tag_26:\n        /* \"contracts/Ciberseguridad/Event.sol\":524:529  owner */\n      0x03\n      0x00\n      swap1\n      sload\n      swap1\n      0x0100\n      exp\n      swap1\n      div\n      0xffffffffffffffffffffffffffffffffffffffff\n      and\n        /* \"contracts/Ciberseguridad/Event.sol\":510:529  msg.sender == owner */\n      0xffffffffffffffffffffffffffffffffffffffff\n      and\n        /* \"contracts/Ciberseguridad/Event.sol\":510:520  msg.sender */\n      caller\n        /* \"contracts/Ciberseguridad/Event.sol\":510:529  msg.sender == owner */\n      0xffffffffffffffffffffffffffffffffffffffff\n      and\n      eq\n        /* \"contracts/Ciberseguridad/Event.sol\":502:534  require(msg.sender == owner, \"\") */\n      tag_40\n      jumpi\n      mload(0x40)\n      0x08c379a000000000000000000000000000000000000000000000000000000000\n      dup2\n      mstore\n      0x04\n      add\n      tag_41\n      swap1\n      tag_42\n      jump\t// in\n    tag_41:\n      mload(0x40)\n      dup1\n      swap2\n      sub\n      swap1\n      revert\n    tag_40:\n        /* \"contracts/Ciberseguridad/Event.sol\":1139:1149  _threshold */\n      dup1\n        /* \"contracts/Ciberseguridad/Event.sol\":1127:1136  threshold */\n      0x02\n        /* \"contracts/Ciberseguridad/Event.sol\":1127:1149  threshold = _threshold */\n      dup2\n      swap1\n      sstore\n      pop\n        /* \"contracts/Ciberseguridad/Event.sol\":1057:1157  function setThreshold(uint256 _threshold) public onlyOwner {\r... */\n      pop\n      jump\t// out\n        /* \"contracts/Ciberseguridad/Event.sol\":674:1049  function createEvent(string memory _event) public returns (bool success) {\r... */\n    tag_30:\n        /* \"contracts/Ciberseguridad/Event.sol\":733:745  bool success */\n      0x00\n        /* \"contracts/Ciberseguridad/Event.sol\":758:773  uint256 eventId */\n      dup1\n        /* \"contracts/Ciberseguridad/Event.sol\":804:805  1 */\n      0x01\n        /* \"contracts/Ciberseguridad/Event.sol\":776:789  eventsCounter */\n      dup1\n        /* \"contracts/Ciberseguridad/Event.sol\":776:801  eventsCounter[msg.sender] */\n      0x00\n        /* \"contracts/Ciberseguridad/Event.sol\":790:800  msg.sender */\n      caller\n        /* \"contracts/Ciberseguridad/Event.sol\":776:801  eventsCounter[msg.sender] */\n      0xffffffffffffffffffffffffffffffffffffffff\n      and\n      0xffffffffffffffffffffffffffffffffffffffff\n      and\n      dup2\n      mstore\n      0x20\n      add\n      swap1\n      dup2\n      mstore\n      0x20\n      add\n      0x00\n      keccak256\n      sload\n        /* \"contracts/Ciberseguridad/Event.sol\":776:805  eventsCounter[msg.sender] + 1 */\n      tag_45\n      swap2\n      swap1\n      tag_46\n      jump\t// in\n    tag_45:\n        /* \"contracts/Ciberseguridad/Event.sol\":758:805  uint256 eventId = eventsCounter[msg.sender] + 1 */\n      swap1\n      pop\n        /* \"contracts/Ciberseguridad/Event.sol\":829:838  threshold */\n      sload(0x02)\n        /* \"contracts/Ciberseguridad/Event.sol\":819:826  eventId */\n      dup2\n        /* \"contracts/Ciberseguridad/Event.sol\":819:838  eventId > threshold */\n      gt\n        /* \"contracts/Ciberseguridad/Event.sol\":816:877  if(eventId > threshold){\r... */\n      iszero\n      tag_47\n      jumpi\n        /* \"contracts/Ciberseguridad/Event.sol\":864:865  1 */\n      0x01\n        /* \"contracts/Ciberseguridad/Event.sol\":854:865  eventId = 1 */\n      swap1\n      pop\n        /* \"contracts/Ciberseguridad/Event.sol\":816:877  if(eventId > threshold){\r... */\n    tag_47:\n        /* \"contracts/Ciberseguridad/Event.sol\":917:924  eventId */\n      dup1\n        /* \"contracts/Ciberseguridad/Event.sol\":889:902  eventsCounter */\n      0x01\n        /* \"contracts/Ciberseguridad/Event.sol\":889:914  eventsCounter[msg.sender] */\n      0x00\n        /* \"contracts/Ciberseguridad/Event.sol\":903:913  msg.sender */\n      caller\n        /* \"contracts/Ciberseguridad/Event.sol\":889:914  eventsCounter[msg.sender] */\n      0xffffffffffffffffffffffffffffffffffffffff\n      and\n      0xffffffffffffffffffffffffffffffffffffffff\n      and\n      dup2\n      mstore\n      0x20\n      add\n      swap1\n      dup2\n      mstore\n      0x20\n      add\n      0x00\n      keccak256\n        /* \"contracts/Ciberseguridad/Event.sol\":889:924  eventsCounter[msg.sender] = eventId */\n      dup2\n      swap1\n      sstore\n      pop\n        /* \"contracts/Ciberseguridad/Event.sol\":967:973  _event */\n      dup3\n        /* \"contracts/Ciberseguridad/Event.sol\":937:943  events */\n      0x00\n        /* \"contracts/Ciberseguridad/Event.sol\":937:955  events[msg.sender] */\n      dup1\n        /* \"contracts/Ciberseguridad/Event.sol\":944:954  msg.sender */\n      caller\n        /* \"contracts/Ciberseguridad/Event.sol\":937:955  events[msg.sender] */\n      0xffffffffffffffffffffffffffffffffffffffff\n      and\n      0xffffffffffffffffffffffffffffffffffffffff\n      and\n      dup2\n      mstore\n      0x20\n      add\n      swap1\n      dup2\n      mstore\n      0x20\n      add\n      0x00\n      keccak256\n        /* \"contracts/Ciberseguridad/Event.sol\":937:964  events[msg.sender][eventId] */\n      0x00\n        /* \"contracts/Ciberseguridad/Event.sol\":956:963  eventId */\n      dup4\n        /* \"contracts/Ciberseguridad/Event.sol\":937:964  events[msg.sender][eventId] */\n      dup2\n      mstore\n      0x20\n      add\n      swap1\n      dup2\n      mstore\n      0x20\n      add\n      0x00\n      keccak256\n        /* \"contracts/Ciberseguridad/Event.sol\":937:973  events[msg.sender][eventId] = _event */\n      swap1\n      dup1\n      mload\n      swap1\n      0x20\n      add\n      swap1\n      tag_48\n      swap3\n      swap2\n      swap1\n      tag_49\n      jump\t// in\n    tag_48:\n      pop\n        /* \"contracts/Ciberseguridad/Event.sol\":991:1014  newEventCreated(_event) */\n      0x3c0c8dea9e5e5486a7d5b25f41716a0ee7b12a2a013316408a2fe0870a2f5710\n        /* \"contracts/Ciberseguridad/Event.sol\":1007:1013  _event */\n      dup4\n        /* \"contracts/Ciberseguridad/Event.sol\":991:1014  newEventCreated(_event) */\n      mload(0x40)\n      tag_50\n      swap2\n      swap1\n      tag_22\n      jump\t// in\n    tag_50:\n      mload(0x40)\n      dup1\n      swap2\n      sub\n      swap1\n      log1\n        /* \"contracts/Ciberseguridad/Event.sol\":1037:1041  true */\n      0x01\n        /* \"contracts/Ciberseguridad/Event.sol\":1027:1041  success = true */\n      swap2\n      pop\n        /* \"contracts/Ciberseguridad/Event.sol\":747:1049  {\r... */\n      pop\n        /* \"contracts/Ciberseguridad/Event.sol\":674:1049  function createEvent(string memory _event) public returns (bool success) {\r... */\n      swap2\n      swap1\n      pop\n      jump\t// out\n    tag_49:\n      dup3\n      dup1\n      sload\n      tag_51\n      swap1\n      tag_34\n      jump\t// in\n    tag_51:\n      swap1\n      0x00\n      mstore\n      keccak256(0x00, 0x20)\n      swap1\n      0x1f\n      add\n      0x20\n      swap1\n      div\n      dup2\n      add\n      swap3\n      dup3\n      tag_53\n      jumpi\n      0x00\n      dup6\n      sstore\n      jump(tag_52)\n    tag_53:\n      dup3\n      0x1f\n      lt\n      tag_54\n      jumpi\n      dup1\n      mload\n      not(0xff)\n      and\n      dup4\n      dup1\n      add\n      or\n      dup6\n      sstore\n      jump(tag_52)\n    tag_54:\n      dup3\n      dup1\n      add\n      0x01\n      add\n      dup6\n      sstore\n      dup3\n      iszero\n      tag_52\n      jumpi\n      swap2\n      dup3\n      add\n    tag_55:\n      dup3\n      dup2\n      gt\n      iszero\n      tag_56\n      jumpi\n      dup3\n      mload\n      dup3\n      sstore\n      swap2\n      0x20\n      add\n      swap2\n      swap1\n      0x01\n      add\n      swap1\n      jump(tag_55)\n    tag_56:\n    tag_52:\n      pop\n      swap1\n      pop\n      tag_57\n      swap2\n      swap1\n      tag_58\n      jump\t// in\n    tag_57:\n      pop\n      swap1\n      jump\t// out\n    tag_58:\n    tag_59:\n      dup1\n      dup3\n      gt\n      iszero\n      tag_60\n      jumpi\n      0x00\n      dup2\n      0x00\n      swap1\n      sstore\n      pop\n      0x01\n      add\n      jump(tag_59)\n    tag_60:\n      pop\n      swap1\n      jump\t// out\n        /* \"#utility.yul\":7:419   */\n    tag_62:\n        /* \"#utility.yul\":85:90   */\n      0x00\n        /* \"#utility.yul\":110:176   */\n      tag_64\n        /* \"#utility.yul\":126:175   */\n      tag_65\n        /* \"#utility.yul\":168:174   */\n      dup5\n        /* \"#utility.yul\":126:175   */\n      tag_66\n      jump\t// in\n    tag_65:\n        /* \"#utility.yul\":110:176   */\n      tag_67\n      jump\t// in\n    tag_64:\n        /* \"#utility.yul\":101:176   */\n      swap1\n      pop\n        /* \"#utility.yul\":199:205   */\n      dup3\n        /* \"#utility.yul\":192:197   */\n      dup2\n        /* \"#utility.yul\":185:206   */\n      mstore\n        /* \"#utility.yul\":237:241   */\n      0x20\n        /* \"#utility.yul\":230:235   */\n      dup2\n        /* \"#utility.yul\":226:242   */\n      add\n        /* \"#utility.yul\":275:278   */\n      dup5\n        /* \"#utility.yul\":266:272   */\n      dup5\n        /* \"#utility.yul\":261:264   */\n      dup5\n        /* \"#utility.yul\":257:273   */\n      add\n        /* \"#utility.yul\":254:279   */\n      gt\n        /* \"#utility.yul\":251:363   */\n      iszero\n      tag_68\n      jumpi\n        /* \"#utility.yul\":282:361   */\n      tag_69\n      tag_70\n      jump\t// in\n    tag_69:\n        /* \"#utility.yul\":251:363   */\n    tag_68:\n        /* \"#utility.yul\":372:413   */\n      tag_71\n        /* \"#utility.yul\":406:412   */\n      dup5\n        /* \"#utility.yul\":401:404   */\n      dup3\n        /* \"#utility.yul\":396:399   */\n      dup6\n        /* \"#utility.yul\":372:413   */\n      tag_72\n      jump\t// in\n    tag_71:\n        /* \"#utility.yul\":91:419   */\n      pop\n        /* \"#utility.yul\":7:419   */\n      swap4\n      swap3\n      pop\n      pop\n      pop\n      jump\t// out\n        /* \"#utility.yul\":425:564   */\n    tag_73:\n        /* \"#utility.yul\":471:476   */\n      0x00\n        /* \"#utility.yul\":509:515   */\n      dup2\n        /* \"#utility.yul\":496:516   */\n      calldataload\n        /* \"#utility.yul\":487:516   */\n      swap1\n      pop\n        /* \"#utility.yul\":525:558   */\n      tag_75\n        /* \"#utility.yul\":552:557   */\n      dup2\n        /* \"#utility.yul\":525:558   */\n      tag_76\n      jump\t// in\n    tag_75:\n        /* \"#utility.yul\":425:564   */\n      swap3\n      swap2\n      pop\n      pop\n      jump\t// out\n        /* \"#utility.yul\":584:924   */\n    tag_77:\n        /* \"#utility.yul\":640:645   */\n      0x00\n        /* \"#utility.yul\":689:692   */\n      dup3\n        /* \"#utility.yul\":682:686   */\n      0x1f\n        /* \"#utility.yul\":674:680   */\n      dup4\n        /* \"#utility.yul\":670:687   */\n      add\n        /* \"#utility.yul\":666:693   */\n      slt\n        /* \"#utility.yul\":656:778   */\n      tag_79\n      jumpi\n        /* \"#utility.yul\":697:776   */\n      tag_80\n      tag_81\n      jump\t// in\n    tag_80:\n        /* \"#utility.yul\":656:778   */\n    tag_79:\n        /* \"#utility.yul\":814:820   */\n      dup2\n        /* \"#utility.yul\":801:821   */\n      calldataload\n        /* \"#utility.yul\":839:918   */\n      tag_82\n        /* \"#utility.yul\":914:917   */\n      dup5\n        /* \"#utility.yul\":906:912   */\n      dup3\n        /* \"#utility.yul\":899:903   */\n      0x20\n        /* \"#utility.yul\":891:897   */\n      dup7\n        /* \"#utility.yul\":887:904   */\n      add\n        /* \"#utility.yul\":839:918   */\n      tag_62\n      jump\t// in\n    tag_82:\n        /* \"#utility.yul\":830:918   */\n      swap2\n      pop\n        /* \"#utility.yul\":646:924   */\n      pop\n        /* \"#utility.yul\":584:924   */\n      swap3\n      swap2\n      pop\n      pop\n      jump\t// out\n        /* \"#utility.yul\":930:1069   */\n    tag_83:\n        /* \"#utility.yul\":976:981   */\n      0x00\n        /* \"#utility.yul\":1014:1020   */\n      dup2\n        /* \"#utility.yul\":1001:1021   */\n      calldataload\n        /* \"#utility.yul\":992:1021   */\n      swap1\n      pop\n        /* \"#utility.yul\":1030:1063   */\n      tag_85\n        /* \"#utility.yul\":1057:1062   */\n      dup2\n        /* \"#utility.yul\":1030:1063   */\n      tag_86\n      jump\t// in\n    tag_85:\n        /* \"#utility.yul\":930:1069   */\n      swap3\n      swap2\n      pop\n      pop\n      jump\t// out\n        /* \"#utility.yul\":1075:1404   */\n    tag_10:\n        /* \"#utility.yul\":1134:1140   */\n      0x00\n        /* \"#utility.yul\":1183:1185   */\n      0x20\n        /* \"#utility.yul\":1171:1180   */\n      dup3\n        /* \"#utility.yul\":1162:1169   */\n      dup5\n        /* \"#utility.yul\":1158:1181   */\n      sub\n        /* \"#utility.yul\":1154:1186   */\n      slt\n        /* \"#utility.yul\":1151:1270   */\n      iszero\n      tag_88\n      jumpi\n        /* \"#utility.yul\":1189:1268   */\n      tag_89\n      tag_90\n      jump\t// in\n    tag_89:\n        /* \"#utility.yul\":1151:1270   */\n    tag_88:\n        /* \"#utility.yul\":1309:1310   */\n      0x00\n        /* \"#utility.yul\":1334:1387   */\n      tag_91\n        /* \"#utility.yul\":1379:1386   */\n      dup5\n        /* \"#utility.yul\":1370:1376   */\n      dup3\n        /* \"#utility.yul\":1359:1368   */\n      dup6\n        /* \"#utility.yul\":1355:1377   */\n      add\n        /* \"#utility.yul\":1334:1387   */\n      tag_73\n      jump\t// in\n    tag_91:\n        /* \"#utility.yul\":1324:1387   */\n      swap2\n      pop\n        /* \"#utility.yul\":1280:1397   */\n      pop\n        /* \"#utility.yul\":1075:1404   */\n      swap3\n      swap2\n      pop\n      pop\n      jump\t// out\n        /* \"#utility.yul\":1410:1884   */\n    tag_19:\n        /* \"#utility.yul\":1478:1484   */\n      0x00\n        /* \"#utility.yul\":1486:1492   */\n      dup1\n        /* \"#utility.yul\":1535:1537   */\n      0x40\n        /* \"#utility.yul\":1523:1532   */\n      dup4\n        /* \"#utility.yul\":1514:1521   */\n      dup6\n        /* \"#utility.yul\":1510:1533   */\n      sub\n        /* \"#utility.yul\":1506:1538   */\n      slt\n        /* \"#utility.yul\":1503:1622   */\n      iszero\n      tag_93\n      jumpi\n        /* \"#utility.yul\":1541:1620   */\n      tag_94\n      tag_90\n      jump\t// in\n    tag_94:\n        /* \"#utility.yul\":1503:1622   */\n    tag_93:\n        /* \"#utility.yul\":1661:1662   */\n      0x00\n        /* \"#utility.yul\":1686:1739   */\n      tag_95\n        /* \"#utility.yul\":1731:1738   */\n      dup6\n        /* \"#utility.yul\":1722:1728   */\n      dup3\n        /* \"#utility.yul\":1711:1720   */\n      dup7\n        /* \"#utility.yul\":1707:1729   */\n      add\n        /* \"#utility.yul\":1686:1739   */\n      tag_73\n      jump\t// in\n    tag_95:\n        /* \"#utility.yul\":1676:1739   */\n      swap3\n      pop\n        /* \"#utility.yul\":1632:1749   */\n      pop\n        /* \"#utility.yul\":1788:1790   */\n      0x20\n        /* \"#utility.yul\":1814:1867   */\n      tag_96\n        /* \"#utility.yul\":1859:1866   */\n      dup6\n        /* \"#utility.yul\":1850:1856   */\n      dup3\n        /* \"#utility.yul\":1839:1848   */\n      dup7\n        /* \"#utility.yul\":1835:1857   */\n      add\n        /* \"#utility.yul\":1814:1867   */\n      tag_83\n      jump\t// in\n    tag_96:\n        /* \"#utility.yul\":1804:1867   */\n      swap2\n      pop\n        /* \"#utility.yul\":1759:1877   */\n      pop\n        /* \"#utility.yul\":1410:1884   */\n      swap3\n      pop\n      swap3\n      swap1\n      pop\n      jump\t// out\n        /* \"#utility.yul\":1890:2399   */\n    tag_29:\n        /* \"#utility.yul\":1959:1965   */\n      0x00\n        /* \"#utility.yul\":2008:2010   */\n      0x20\n        /* \"#utility.yul\":1996:2005   */\n      dup3\n        /* \"#utility.yul\":1987:1994   */\n      dup5\n        /* \"#utility.yul\":1983:2006   */\n      sub\n        /* \"#utility.yul\":1979:2011   */\n      slt\n        /* \"#utility.yul\":1976:2095   */\n      iszero\n      tag_98\n      jumpi\n        /* \"#utility.yul\":2014:2093   */\n      tag_99\n      tag_90\n      jump\t// in\n    tag_99:\n        /* \"#utility.yul\":1976:2095   */\n    tag_98:\n        /* \"#utility.yul\":2162:2163   */\n      0x00\n        /* \"#utility.yul\":2151:2160   */\n      dup3\n        /* \"#utility.yul\":2147:2164   */\n      add\n        /* \"#utility.yul\":2134:2165   */\n      calldataload\n        /* \"#utility.yul\":2192:2210   */\n      0xffffffffffffffff\n        /* \"#utility.yul\":2184:2190   */\n      dup2\n        /* \"#utility.yul\":2181:2211   */\n      gt\n        /* \"#utility.yul\":2178:2295   */\n      iszero\n      tag_100\n      jumpi\n        /* \"#utility.yul\":2214:2293   */\n      tag_101\n      tag_102\n      jump\t// in\n    tag_101:\n        /* \"#utility.yul\":2178:2295   */\n    tag_100:\n        /* \"#utility.yul\":2319:2382   */\n      tag_103\n        /* \"#utility.yul\":2374:2381   */\n      dup5\n        /* \"#utility.yul\":2365:2371   */\n      dup3\n        /* \"#utility.yul\":2354:2363   */\n      dup6\n        /* \"#utility.yul\":2350:2372   */\n      add\n        /* \"#utility.yul\":2319:2382   */\n      tag_77\n      jump\t// in\n    tag_103:\n        /* \"#utility.yul\":2309:2382   */\n      swap2\n      pop\n        /* \"#utility.yul\":2105:2392   */\n      pop\n        /* \"#utility.yul\":1890:2399   */\n      swap3\n      swap2\n      pop\n      pop\n      jump\t// out\n        /* \"#utility.yul\":2405:2734   */\n    tag_25:\n        /* \"#utility.yul\":2464:2470   */\n      0x00\n        /* \"#utility.yul\":2513:2515   */\n      0x20\n        /* \"#utility.yul\":2501:2510   */\n      dup3\n        /* \"#utility.yul\":2492:2499   */\n      dup5\n        /* \"#utility.yul\":2488:2511   */\n      sub\n        /* \"#utility.yul\":2484:2516   */\n      slt\n        /* \"#utility.yul\":2481:2600   */\n      iszero\n      tag_105\n      jumpi\n        /* \"#utility.yul\":2519:2598   */\n      tag_106\n      tag_90\n      jump\t// in\n    tag_106:\n        /* \"#utility.yul\":2481:2600   */\n    tag_105:\n        /* \"#utility.yul\":2639:2640   */\n      0x00\n        /* \"#utility.yul\":2664:2717   */\n      tag_107\n        /* \"#utility.yul\":2709:2716   */\n      dup5\n        /* \"#utility.yul\":2700:2706   */\n      dup3\n        /* \"#utility.yul\":2689:2698   */\n      dup6\n        /* \"#utility.yul\":2685:2707   */\n      add\n        /* \"#utility.yul\":2664:2717   */\n      tag_83\n      jump\t// in\n    tag_107:\n        /* \"#utility.yul\":2654:2717   */\n      swap2\n      pop\n        /* \"#utility.yul\":2610:2727   */\n      pop\n        /* \"#utility.yul\":2405:2734   */\n      swap3\n      swap2\n      pop\n      pop\n      jump\t// out\n        /* \"#utility.yul\":2740:2849   */\n    tag_108:\n        /* \"#utility.yul\":2821:2842   */\n      tag_110\n        /* \"#utility.yul\":2836:2841   */\n      dup2\n        /* \"#utility.yul\":2821:2842   */\n      tag_111\n      jump\t// in\n    tag_110:\n        /* \"#utility.yul\":2816:2819   */\n      dup3\n        /* \"#utility.yul\":2809:2843   */\n      mstore\n        /* \"#utility.yul\":2740:2849   */\n      pop\n      pop\n      jump\t// out\n        /* \"#utility.yul\":2855:3219   */\n    tag_112:\n        /* \"#utility.yul\":2943:2946   */\n      0x00\n        /* \"#utility.yul\":2971:3010   */\n      tag_114\n        /* \"#utility.yul\":3004:3009   */\n      dup3\n        /* \"#utility.yul\":2971:3010   */\n      tag_115\n      jump\t// in\n    tag_114:\n        /* \"#utility.yul\":3026:3097   */\n      tag_116\n        /* \"#utility.yul\":3090:3096   */\n      dup2\n        /* \"#utility.yul\":3085:3088   */\n      dup6\n        /* \"#utility.yul\":3026:3097   */\n      tag_117\n      jump\t// in\n    tag_116:\n        /* \"#utility.yul\":3019:3097   */\n      swap4\n      pop\n        /* \"#utility.yul\":3106:3158   */\n      tag_118\n        /* \"#utility.yul\":3151:3157   */\n      dup2\n        /* \"#utility.yul\":3146:3149   */\n      dup6\n        /* \"#utility.yul\":3139:3143   */\n      0x20\n        /* \"#utility.yul\":3132:3137   */\n      dup7\n        /* \"#utility.yul\":3128:3144   */\n      add\n        /* \"#utility.yul\":3106:3158   */\n      tag_119\n      jump\t// in\n    tag_118:\n        /* \"#utility.yul\":3183:3212   */\n      tag_120\n        /* \"#utility.yul\":3205:3211   */\n      dup2\n        /* \"#utility.yul\":3183:3212   */\n      tag_121\n      jump\t// in\n    tag_120:\n        /* \"#utility.yul\":3178:3181   */\n      dup5\n        /* \"#utility.yul\":3174:3213   */\n      add\n        /* \"#utility.yul\":3167:3213   */\n      swap2\n      pop\n        /* \"#utility.yul\":2947:3219   */\n      pop\n        /* \"#utility.yul\":2855:3219   */\n      swap3\n      swap2\n      pop\n      pop\n      jump\t// out\n        /* \"#utility.yul\":3225:3589   */\n    tag_122:\n        /* \"#utility.yul\":3367:3370   */\n      0x00\n        /* \"#utility.yul\":3388:3454   */\n      tag_124\n        /* \"#utility.yul\":3452:3453   */\n      0x00\n        /* \"#utility.yul\":3447:3450   */\n      dup4\n        /* \"#utility.yul\":3388:3454   */\n      tag_117\n      jump\t// in\n    tag_124:\n        /* \"#utility.yul\":3381:3454   */\n      swap2\n      pop\n        /* \"#utility.yul\":3463:3556   */\n      tag_125\n        /* \"#utility.yul\":3552:3555   */\n      dup3\n        /* \"#utility.yul\":3463:3556   */\n      tag_126\n      jump\t// in\n    tag_125:\n        /* \"#utility.yul\":3581:3582   */\n      0x00\n        /* \"#utility.yul\":3576:3579   */\n      dup3\n        /* \"#utility.yul\":3572:3583   */\n      add\n        /* \"#utility.yul\":3565:3583   */\n      swap1\n      pop\n        /* \"#utility.yul\":3225:3589   */\n      swap2\n      swap1\n      pop\n      jump\t// out\n        /* \"#utility.yul\":3595:3713   */\n    tag_127:\n        /* \"#utility.yul\":3682:3706   */\n      tag_129\n        /* \"#utility.yul\":3700:3705   */\n      dup2\n        /* \"#utility.yul\":3682:3706   */\n      tag_130\n      jump\t// in\n    tag_129:\n        /* \"#utility.yul\":3677:3680   */\n      dup3\n        /* \"#utility.yul\":3670:3707   */\n      mstore\n        /* \"#utility.yul\":3595:3713   */\n      pop\n      pop\n      jump\t// out\n        /* \"#utility.yul\":3719:3929   */\n    tag_32:\n        /* \"#utility.yul\":3806:3810   */\n      0x00\n        /* \"#utility.yul\":3844:3846   */\n      0x20\n        /* \"#utility.yul\":3833:3842   */\n      dup3\n        /* \"#utility.yul\":3829:3847   */\n      add\n        /* \"#utility.yul\":3821:3847   */\n      swap1\n      pop\n        /* \"#utility.yul\":3857:3922   */\n      tag_132\n        /* \"#utility.yul\":3919:3920   */\n      0x00\n        /* \"#utility.yul\":3908:3917   */\n      dup4\n        /* \"#utility.yul\":3904:3921   */\n      add\n        /* \"#utility.yul\":3895:3901   */\n      dup5\n        /* \"#utility.yul\":3857:3922   */\n      tag_108\n      jump\t// in\n    tag_132:\n        /* \"#utility.yul\":3719:3929   */\n      swap3\n      swap2\n      pop\n      pop\n      jump\t// out\n        /* \"#utility.yul\":3935:4248   */\n    tag_22:\n        /* \"#utility.yul\":4048:4052   */\n      0x00\n        /* \"#utility.yul\":4086:4088   */\n      0x20\n        /* \"#utility.yul\":4075:4084   */\n      dup3\n        /* \"#utility.yul\":4071:4089   */\n      add\n        /* \"#utility.yul\":4063:4089   */\n      swap1\n      pop\n        /* \"#utility.yul\":4135:4144   */\n      dup2\n        /* \"#utility.yul\":4129:4133   */\n      dup2\n        /* \"#utility.yul\":4125:4145   */\n      sub\n        /* \"#utility.yul\":4121:4122   */\n      0x00\n        /* \"#utility.yul\":4110:4119   */\n      dup4\n        /* \"#utility.yul\":4106:4123   */\n      add\n        /* \"#utility.yul\":4099:4146   */\n      mstore\n        /* \"#utility.yul\":4163:4241   */\n      tag_134\n        /* \"#utility.yul\":4236:4240   */\n      dup2\n        /* \"#utility.yul\":4227:4233   */\n      dup5\n        /* \"#utility.yul\":4163:4241   */\n      tag_112\n      jump\t// in\n    tag_134:\n        /* \"#utility.yul\":4155:4241   */\n      swap1\n      pop\n        /* \"#utility.yul\":3935:4248   */\n      swap3\n      swap2\n      pop\n      pop\n      jump\t// out\n        /* \"#utility.yul\":4254:4673   */\n    tag_42:\n        /* \"#utility.yul\":4420:4424   */\n      0x00\n        /* \"#utility.yul\":4458:4460   */\n      0x20\n        /* \"#utility.yul\":4447:4456   */\n      dup3\n        /* \"#utility.yul\":4443:4461   */\n      add\n        /* \"#utility.yul\":4435:4461   */\n      swap1\n      pop\n        /* \"#utility.yul\":4507:4516   */\n      dup2\n        /* \"#utility.yul\":4501:4505   */\n      dup2\n        /* \"#utility.yul\":4497:4517   */\n      sub\n        /* \"#utility.yul\":4493:4494   */\n      0x00\n        /* \"#utility.yul\":4482:4491   */\n      dup4\n        /* \"#utility.yul\":4478:4495   */\n      add\n        /* \"#utility.yul\":4471:4518   */\n      mstore\n        /* \"#utility.yul\":4535:4666   */\n      tag_136\n        /* \"#utility.yul\":4661:4665   */\n      dup2\n        /* \"#utility.yul\":4535:4666   */\n      tag_122\n      jump\t// in\n    tag_136:\n        /* \"#utility.yul\":4527:4666   */\n      swap1\n      pop\n        /* \"#utility.yul\":4254:4673   */\n      swap2\n      swap1\n      pop\n      jump\t// out\n        /* \"#utility.yul\":4679:4901   */\n    tag_13:\n        /* \"#utility.yul\":4772:4776   */\n      0x00\n        /* \"#utility.yul\":4810:4812   */\n      0x20\n        /* \"#utility.yul\":4799:4808   */\n      dup3\n        /* \"#utility.yul\":4795:4813   */\n      add\n        /* \"#utility.yul\":4787:4813   */\n      swap1\n      pop\n        /* \"#utility.yul\":4823:4894   */\n      tag_138\n        /* \"#utility.yul\":4891:4892   */\n      0x00\n        /* \"#utility.yul\":4880:4889   */\n      dup4\n        /* \"#utility.yul\":4876:4893   */\n      add\n        /* \"#utility.yul\":4867:4873   */\n      dup5\n        /* \"#utility.yul\":4823:4894   */\n      tag_127\n      jump\t// in\n    tag_138:\n        /* \"#utility.yul\":4679:4901   */\n      swap3\n      swap2\n      pop\n      pop\n      jump\t// out\n        /* \"#utility.yul\":4907:5036   */\n    tag_67:\n        /* \"#utility.yul\":4941:4947   */\n      0x00\n        /* \"#utility.yul\":4968:4988   */\n      tag_140\n      tag_141\n      jump\t// in\n    tag_140:\n        /* \"#utility.yul\":4958:4988   */\n      swap1\n      pop\n        /* \"#utility.yul\":4997:5030   */\n      tag_142\n        /* \"#utility.yul\":5025:5029   */\n      dup3\n        /* \"#utility.yul\":5017:5023   */\n      dup3\n        /* \"#utility.yul\":4997:5030   */\n      tag_143\n      jump\t// in\n    tag_142:\n        /* \"#utility.yul\":4907:5036   */\n      swap2\n      swap1\n      pop\n      jump\t// out\n        /* \"#utility.yul\":5042:5117   */\n    tag_141:\n        /* \"#utility.yul\":5075:5081   */\n      0x00\n        /* \"#utility.yul\":5108:5110   */\n      0x40\n        /* \"#utility.yul\":5102:5111   */\n      mload\n        /* \"#utility.yul\":5092:5111   */\n      swap1\n      pop\n        /* \"#utility.yul\":5042:5117   */\n      swap1\n      jump\t// out\n        /* \"#utility.yul\":5123:5431   */\n    tag_66:\n        /* \"#utility.yul\":5185:5189   */\n      0x00\n        /* \"#utility.yul\":5275:5293   */\n      0xffffffffffffffff\n        /* \"#utility.yul\":5267:5273   */\n      dup3\n        /* \"#utility.yul\":5264:5294   */\n      gt\n        /* \"#utility.yul\":5261:5317   */\n      iszero\n      tag_146\n      jumpi\n        /* \"#utility.yul\":5297:5315   */\n      tag_147\n      tag_148\n      jump\t// in\n    tag_147:\n        /* \"#utility.yul\":5261:5317   */\n    tag_146:\n        /* \"#utility.yul\":5335:5364   */\n      tag_149\n        /* \"#utility.yul\":5357:5363   */\n      dup3\n        /* \"#utility.yul\":5335:5364   */\n      tag_121\n      jump\t// in\n    tag_149:\n        /* \"#utility.yul\":5327:5364   */\n      swap1\n      pop\n        /* \"#utility.yul\":5419:5423   */\n      0x20\n        /* \"#utility.yul\":5413:5417   */\n      dup2\n        /* \"#utility.yul\":5409:5424   */\n      add\n        /* \"#utility.yul\":5401:5424   */\n      swap1\n      pop\n        /* \"#utility.yul\":5123:5431   */\n      swap2\n      swap1\n      pop\n      jump\t// out\n        /* \"#utility.yul\":5437:5536   */\n    tag_115:\n        /* \"#utility.yul\":5489:5495   */\n      0x00\n        /* \"#utility.yul\":5523:5528   */\n      dup2\n        /* \"#utility.yul\":5517:5529   */\n      mload\n        /* \"#utility.yul\":5507:5529   */\n      swap1\n      pop\n        /* \"#utility.yul\":5437:5536   */\n      swap2\n      swap1\n      pop\n      jump\t// out\n        /* \"#utility.yul\":5542:5711   */\n    tag_117:\n        /* \"#utility.yul\":5626:5637   */\n      0x00\n        /* \"#utility.yul\":5660:5666   */\n      dup3\n        /* \"#utility.yul\":5655:5658   */\n      dup3\n        /* \"#utility.yul\":5648:5667   */\n      mstore\n        /* \"#utility.yul\":5700:5704   */\n      0x20\n        /* \"#utility.yul\":5695:5698   */\n      dup3\n        /* \"#utility.yul\":5691:5705   */\n      add\n        /* \"#utility.yul\":5676:5705   */\n      swap1\n      pop\n        /* \"#utility.yul\":5542:5711   */\n      swap3\n      swap2\n      pop\n      pop\n      jump\t// out\n        /* \"#utility.yul\":5717:6022   */\n    tag_46:\n        /* \"#utility.yul\":5757:5760   */\n      0x00\n        /* \"#utility.yul\":5776:5796   */\n      tag_153\n        /* \"#utility.yul\":5794:5795   */\n      dup3\n        /* \"#utility.yul\":5776:5796   */\n      tag_130\n      jump\t// in\n    tag_153:\n        /* \"#utility.yul\":5771:5796   */\n      swap2\n      pop\n        /* \"#utility.yul\":5810:5830   */\n      tag_154\n        /* \"#utility.yul\":5828:5829   */\n      dup4\n        /* \"#utility.yul\":5810:5830   */\n      tag_130\n      jump\t// in\n    tag_154:\n        /* \"#utility.yul\":5805:5830   */\n      swap3\n      pop\n        /* \"#utility.yul\":5964:5965   */\n      dup3\n        /* \"#utility.yul\":5896:5962   */\n      0xffffffffffffffffffffffffffffffffffffffffffffffffffffffffffffffff\n        /* \"#utility.yul\":5892:5966   */\n      sub\n        /* \"#utility.yul\":5889:5890   */\n      dup3\n        /* \"#utility.yul\":5886:5967   */\n      gt\n        /* \"#utility.yul\":5883:5990   */\n      iszero\n      tag_155\n      jumpi\n        /* \"#utility.yul\":5970:5988   */\n      tag_156\n      tag_157\n      jump\t// in\n    tag_156:\n        /* \"#utility.yul\":5883:5990   */\n    tag_155:\n        /* \"#utility.yul\":6014:6015   */\n      dup3\n        /* \"#utility.yul\":6011:6012   */\n      dup3\n        /* \"#utility.yul\":6007:6016   */\n      add\n        /* \"#utility.yul\":6000:6016   */\n      swap1\n      pop\n        /* \"#utility.yul\":5717:6022   */\n      swap3\n      swap2\n      pop\n      pop\n      jump\t// out\n        /* \"#utility.yul\":6028:6124   */\n    tag_158:\n        /* \"#utility.yul\":6065:6072   */\n      0x00\n        /* \"#utility.yul\":6094:6118   */\n      tag_160\n        /* \"#utility.yul\":6112:6117   */\n      dup3\n        /* \"#utility.yul\":6094:6118   */\n      tag_161\n      jump\t// in\n    tag_160:\n        /* \"#utility.yul\":6083:6118   */\n      swap1\n      pop\n        /* \"#utility.yul\":6028:6124   */\n      swap2\n      swap1\n      pop\n      jump\t// out\n        /* \"#utility.yul\":6130:6220   */\n    tag_111:\n        /* \"#utility.yul\":6164:6171   */\n      0x00\n        /* \"#utility.yul\":6207:6212   */\n      dup2\n        /* \"#utility.yul\":6200:6213   */\n      iszero\n        /* \"#utility.yul\":6193:6214   */\n      iszero\n        /* \"#utility.yul\":6182:6214   */\n      swap1\n      pop\n        /* \"#utility.yul\":6130:6220   */\n      swap2\n      swap1\n      pop\n      jump\t// out\n        /* \"#utility.yul\":6226:6352   */\n    tag_161:\n        /* \"#utility.yul\":6263:6270   */\n      0x00\n        /* \"#utility.yul\":6303:6345   */\n      0xffffffffffffffffffffffffffffffffffffffff\n        /* \"#utility.yul\":6296:6301   */\n      dup3\n        /* \"#utility.yul\":6292:6346   */\n      and\n        /* \"#utility.yul\":6281:6346   */\n      swap1\n      pop\n        /* \"#utility.yul\":6226:6352   */\n      swap2\n      swap1\n      pop\n      jump\t// out\n        /* \"#utility.yul\":6358:6435   */\n    tag_130:\n        /* \"#utility.yul\":6395:6402   */\n      0x00\n        /* \"#utility.yul\":6424:6429   */\n      dup2\n        /* \"#utility.yul\":6413:6429   */\n      swap1\n      pop\n        /* \"#utility.yul\":6358:6435   */\n      swap2\n      swap1\n      pop\n      jump\t// out\n        /* \"#utility.yul\":6441:6595   */\n    tag_72:\n        /* \"#utility.yul\":6525:6531   */\n      dup3\n        /* \"#utility.yul\":6520:6523   */\n      dup2\n        /* \"#utility.yul\":6515:6518   */\n      dup4\n        /* \"#utility.yul\":6502:6532   */\n      calldatacopy\n        /* \"#utility.yul\":6587:6588   */\n      0x00\n        /* \"#utility.yul\":6578:6584   */\n      dup4\n        /* \"#utility.yul\":6573:6576   */\n      dup4\n        /* \"#utility.yul\":6569:6585   */\n      add\n        /* \"#utility.yul\":6562:6589   */\n      mstore\n        /* \"#utility.yul\":6441:6595   */\n      pop\n      pop\n      pop\n      jump\t// out\n        /* \"#utility.yul\":6601:6908   */\n    tag_119:\n        /* \"#utility.yul\":6669:6670   */\n      0x00\n        /* \"#utility.yul\":6679:6792   */\n    tag_167:\n        /* \"#utility.yul\":6693:6699   */\n      dup4\n        /* \"#utility.yul\":6690:6691   */\n      dup2\n        /* \"#utility.yul\":6687:6700   */\n      lt\n        /* \"#utility.yul\":6679:6792   */\n      iszero\n      tag_169\n      jumpi\n        /* \"#utility.yul\":6778:6779   */\n      dup1\n        /* \"#utility.yul\":6773:6776   */\n      dup3\n        /* \"#utility.yul\":6769:6780   */\n      add\n        /* \"#utility.yul\":6763:6781   */\n      mload\n        /* \"#utility.yul\":6759:6760   */\n      dup2\n        /* \"#utility.yul\":6754:6757   */\n      dup5\n        /* \"#utility.yul\":6750:6761   */\n      add\n        /* \"#utility.yul\":6743:6782   */\n      mstore\n        /* \"#utility.yul\":6715:6717   */\n      0x20\n        /* \"#utility.yul\":6712:6713   */\n      dup2\n        /* \"#utility.yul\":6708:6718   */\n      add\n        /* \"#utility.yul\":6703:6718   */\n      swap1\n      pop\n        /* \"#utility.yul\":6679:6792   */\n      jump(tag_167)\n    tag_169:\n        /* \"#utility.yul\":6810:6816   */\n      dup4\n        /* \"#utility.yul\":6807:6808   */\n      dup2\n        /* \"#utility.yul\":6804:6817   */\n      gt\n        /* \"#utility.yul\":6801:6902   */\n      iszero\n      tag_170\n      jumpi\n        /* \"#utility.yul\":6890:6891   */\n      0x00\n        /* \"#utility.yul\":6881:6887   */\n      dup5\n        /* \"#utility.yul\":6876:6879   */\n      dup5\n        /* \"#utility.yul\":6872:6888   */\n      add\n        /* \"#utility.yul\":6865:6892   */\n      mstore\n        /* \"#utility.yul\":6801:6902   */\n    tag_170:\n        /* \"#utility.yul\":6650:6908   */\n      pop\n        /* \"#utility.yul\":6601:6908   */\n      pop\n      pop\n      pop\n      jump\t// out\n        /* \"#utility.yul\":6914:7234   */\n    tag_34:\n        /* \"#utility.yul\":6958:6964   */\n      0x00\n        /* \"#utility.yul\":6995:6996   */\n      0x02\n        /* \"#utility.yul\":6989:6993   */\n      dup3\n        /* \"#utility.yul\":6985:6997   */\n      div\n        /* \"#utility.yul\":6975:6997   */\n      swap1\n      pop\n        /* \"#utility.yul\":7042:7043   */\n      0x01\n        /* \"#utility.yul\":7036:7040   */\n      dup3\n        /* \"#utility.yul\":7032:7044   */\n      and\n        /* \"#utility.yul\":7063:7081   */\n      dup1\n        /* \"#utility.yul\":7053:7134   */\n      tag_172\n      jumpi\n        /* \"#utility.yul\":7119:7123   */\n      0x7f\n        /* \"#utility.yul\":7111:7117   */\n      dup3\n        /* \"#utility.yul\":7107:7124   */\n      and\n        /* \"#utility.yul\":7097:7124   */\n      swap2\n      pop\n        /* \"#utility.yul\":7053:7134   */\n    tag_172:\n        /* \"#utility.yul\":7181:7183   */\n      0x20\n        /* \"#utility.yul\":7173:7179   */\n      dup3\n        /* \"#utility.yul\":7170:7184   */\n      lt\n        /* \"#utility.yul\":7150:7168   */\n      dup2\n        /* \"#utility.yul\":7147:7185   */\n      eq\n        /* \"#utility.yul\":7144:7228   */\n      iszero\n      tag_173\n      jumpi\n        /* \"#utility.yul\":7200:7218   */\n      tag_174\n      tag_175\n      jump\t// in\n    tag_174:\n        /* \"#utility.yul\":7144:7228   */\n    tag_173:\n        /* \"#utility.yul\":6965:7234   */\n      pop\n        /* \"#utility.yul\":6914:7234   */\n      swap2\n      swap1\n      pop\n      jump\t// out\n        /* \"#utility.yul\":7240:7521   */\n    tag_143:\n        /* \"#utility.yul\":7323:7350   */\n      tag_177\n        /* \"#utility.yul\":7345:7349   */\n      dup3\n        /* \"#utility.yul\":7323:7350   */\n      tag_121\n      jump\t// in\n    tag_177:\n        /* \"#utility.yul\":7315:7321   */\n      dup2\n        /* \"#utility.yul\":7311:7351   */\n      add\n        /* \"#utility.yul\":7453:7459   */\n      dup2\n        /* \"#utility.yul\":7441:7451   */\n      dup2\n        /* \"#utility.yul\":7438:7460   */\n      lt\n        /* \"#utility.yul\":7417:7435   */\n      0xffffffffffffffff\n        /* \"#utility.yul\":7405:7415   */\n      dup3\n        /* \"#utility.yul\":7402:7436   */\n      gt\n        /* \"#utility.yul\":7399:7461   */\n      or\n        /* \"#utility.yul\":7396:7484   */\n      iszero\n      tag_178\n      jumpi\n        /* \"#utility.yul\":7464:7482   */\n      tag_179\n      tag_148\n      jump\t// in\n    tag_179:\n        /* \"#utility.yul\":7396:7484   */\n    tag_178:\n        /* \"#utility.yul\":7504:7514   */\n      dup1\n        /* \"#utility.yul\":7500:7502   */\n      0x40\n        /* \"#utility.yul\":7493:7515   */\n      mstore\n        /* \"#utility.yul\":7283:7521   */\n      pop\n        /* \"#utility.yul\":7240:7521   */\n      pop\n      pop\n      jump\t// out\n        /* \"#utility.yul\":7527:7707   */\n    tag_157:\n        /* \"#utility.yul\":7575:7652   */\n      0x4e487b7100000000000000000000000000000000000000000000000000000000\n        /* \"#utility.yul\":7572:7573   */\n      0x00\n        /* \"#utility.yul\":7565:7653   */\n      mstore\n        /* \"#utility.yul\":7672:7676   */\n      0x11\n        /* \"#utility.yul\":7669:7670   */\n      0x04\n        /* \"#utility.yul\":7662:7677   */\n      mstore\n        /* \"#utility.yul\":7696:7700   */\n      0x24\n        /* \"#utility.yul\":7693:7694   */\n      0x00\n        /* \"#utility.yul\":7686:7701   */\n      revert\n        /* \"#utility.yul\":7713:7893   */\n    tag_175:\n        /* \"#utility.yul\":7761:7838   */\n      0x4e487b7100000000000000000000000000000000000000000000000000000000\n        /* \"#utility.yul\":7758:7759   */\n      0x00\n        /* \"#utility.yul\":7751:7839   */\n      mstore\n        /* \"#utility.yul\":7858:7862   */\n      0x22\n        /* \"#utility.yul\":7855:7856   */\n      0x04\n        /* \"#utility.yul\":7848:7863   */\n      mstore\n        /* \"#utility.yul\":7882:7886   */\n      0x24\n        /* \"#utility.yul\":7879:7880   */\n      0x00\n        /* \"#utility.yul\":7872:7887   */\n      revert\n        /* \"#utility.yul\":7899:8079   */\n    tag_148:\n        /* \"#utility.yul\":7947:8024   */\n      0x4e487b7100000000000000000000000000000000000000000000000000000000\n        /* \"#utility.yul\":7944:7945   */\n      0x00\n        /* \"#utility.yul\":7937:8025   */\n      mstore\n        /* \"#utility.yul\":8044:8048   */\n      0x41\n        /* \"#utility.yul\":8041:8042   */\n      0x04\n        /* \"#utility.yul\":8034:8049   */\n      mstore\n        /* \"#utility.yul\":8068:8072   */\n      0x24\n        /* \"#utility.yul\":8065:8066   */\n      0x00\n        /* \"#utility.yul\":8058:8073   */\n      revert\n        /* \"#utility.yul\":8085:8202   */\n    tag_81:\n        /* \"#utility.yul\":8194:8195   */\n      0x00\n        /* \"#utility.yul\":8191:8192   */\n      dup1\n        /* \"#utility.yul\":8184:8196   */\n      revert\n        /* \"#utility.yul\":8208:8325   */\n    tag_70:\n        /* \"#utility.yul\":8317:8318   */\n      0x00\n        /* \"#utility.yul\":8314:8315   */\n      dup1\n        /* \"#utility.yul\":8307:8319   */\n      revert\n        /* \"#utility.yul\":8331:8448   */\n    tag_102:\n        /* \"#utility.yul\":8440:8441   */\n      0x00\n        /* \"#utility.yul\":8437:8438   */\n      dup1\n        /* \"#utility.yul\":8430:8442   */\n      revert\n        /* \"#utility.yul\":8454:8571   */\n    tag_90:\n        /* \"#utility.yul\":8563:8564   */\n      0x00\n        /* \"#utility.yul\":8560:8561   */\n      dup1\n        /* \"#utility.yul\":8553:8565   */\n      revert\n        /* \"#utility.yul\":8577:8679   */\n    tag_121:\n        /* \"#utility.yul\":8618:8624   */\n      0x00\n        /* \"#utility.yul\":8669:8671   */\n      0x1f\n        /* \"#utility.yul\":8665:8672   */\n      not\n        /* \"#utility.yul\":8660:8662   */\n      0x1f\n        /* \"#utility.yul\":8653:8658   */\n      dup4\n        /* \"#utility.yul\":8649:8663   */\n      add\n        /* \"#utility.yul\":8645:8673   */\n      and\n        /* \"#utility.yul\":8635:8673   */\n      swap1\n      pop\n        /* \"#utility.yul\":8577:8679   */\n      swap2\n      swap1\n      pop\n      jump\t// out\n        /* \"#utility.yul\":8685:8799   */\n    tag_126:\n      pop\n      jump\t// out\n        /* \"#utility.yul\":8805:8927   */\n    tag_76:\n        /* \"#utility.yul\":8878:8902   */\n      tag_190\n        /* \"#utility.yul\":8896:8901   */\n      dup2\n        /* \"#utility.yul\":8878:8902   */\n      tag_158\n      jump\t// in\n    tag_190:\n        /* \"#utility.yul\":8871:8876   */\n      dup2\n        /* \"#utility.yul\":8868:8903   */\n      eq\n        /* \"#utility.yul\":8858:8921   */\n      tag_191\n      jumpi\n        /* \"#utility.yul\":8917:8918   */\n      0x00\n        /* \"#utility.yul\":8914:8915   */\n      dup1\n        /* \"#utility.yul\":8907:8919   */\n      revert\n        /* \"#utility.yul\":8858:8921   */\n    tag_191:\n        /* \"#utility.yul\":8805:8927   */\n      pop\n      jump\t// out\n        /* \"#utility.yul\":8933:9055   */\n    tag_86:\n        /* \"#utility.yul\":9006:9030   */\n      tag_193\n        /* \"#utility.yul\":9024:9029   */\n      dup2\n        /* \"#utility.yul\":9006:9030   */\n      tag_130\n      jump\t// in\n    tag_193:\n        /* \"#utility.yul\":8999:9004   */\n      dup2\n        /* \"#utility.yul\":8996:9031   */\n      eq\n        /* \"#utility.yul\":8986:9049   */\n      tag_194\n      jumpi\n        /* \"#utility.yul\":9045:9046   */\n      0x00\n        /* \"#utility.yul\":9042:9043   */\n      dup1\n        /* \"#utility.yul\":9035:9047   */\n      revert\n        /* \"#utility.yul\":8986:9049   */\n    tag_194:\n        /* \"#utility.yul\":8933:9055   */\n      pop\n      jump\t// out\n\n    auxdata: 0xa264697066735822122062867a256c8c213ee8453415f7d30711139c815c506d197ab08c923ca091dbfa64736f6c63430008070033\n}\n",
				"bytecode": {
					"linkReferences": {},
					"object": "608060405234801561001057600080fd5b50604051610aaa380380610aaa83398181016040528101906100329190610095565b8060028190555033600360006101000a81548173ffffffffffffffffffffffffffffffffffffffff021916908373ffffffffffffffffffffffffffffffffffffffff160217905550506100e8565b60008151905061008f816100d1565b92915050565b6000602082840312156100ab576100aa6100cc565b5b60006100b984828501610080565b91505092915050565b6000819050919050565b600080fd5b6100da816100c2565b81146100e557600080fd5b50565b6109b3806100f76000396000f3fe608060405234801561001057600080fd5b50600436106100575760003560e01c80630ad3430e1461005c57806342cde4e81461008c57806374dcdc63146100aa578063960bfe04146100da5780639bc2bc71146100f6575b600080fd5b61007660048036038101906100719190610510565b610126565b60405161008391906106ca565b60405180910390f35b61009461013e565b6040516100a191906106ca565b60405180910390f35b6100c460048036038101906100bf919061053d565b610144565b6040516100d19190610688565b60405180910390f35b6100f460048036038101906100ef91906105c6565b6101f1565b005b610110600480360381019061010b919061057d565b61028b565b60405161011d919061066d565b60405180910390f35b60016020528060005260406000206000915090505481565b60025481565b600060205281600052604060002060205280600052604060002060009150915050805461017090610837565b80601f016020809104026020016040519081016040528092919081815260200182805461019c90610837565b80156101e95780601f106101be576101008083540402835291602001916101e9565b820191906000526020600020905b8154815290600101906020018083116101cc57829003601f168201915b505050505081565b600360009054906101000a900473ffffffffffffffffffffffffffffffffffffffff1673ffffffffffffffffffffffffffffffffffffffff163373ffffffffffffffffffffffffffffffffffffffff1614610281576040517f08c379a0000000000000000000000000000000000000000000000000000000008152600401610278906106aa565b60405180910390fd5b8060028190555050565b60008060018060003373ffffffffffffffffffffffffffffffffffffffff1673ffffffffffffffffffffffffffffffffffffffff168152602001908152602001600020546102d99190610757565b90506002548111156102ea57600190505b80600160003373ffffffffffffffffffffffffffffffffffffffff1673ffffffffffffffffffffffffffffffffffffffff16815260200190815260200160002081905550826000803373ffffffffffffffffffffffffffffffffffffffff1673ffffffffffffffffffffffffffffffffffffffff168152602001908152602001600020600083815260200190815260200160002090805190602001906103919291906103d3565b507f3c0c8dea9e5e5486a7d5b25f41716a0ee7b12a2a013316408a2fe0870a2f5710836040516103c19190610688565b60405180910390a16001915050919050565b8280546103df90610837565b90600052602060002090601f0160209004810192826104015760008555610448565b82601f1061041a57805160ff1916838001178555610448565b82800160010185558215610448579182015b8281111561044757825182559160200191906001019061042c565b5b5090506104559190610459565b5090565b5b8082111561047257600081600090555060010161045a565b5090565b60006104896104848461070a565b6106e5565b9050828152602081018484840111156104a5576104a461092c565b5b6104b08482856107f5565b509392505050565b6000813590506104c78161094f565b92915050565b600082601f8301126104e2576104e1610927565b5b81356104f2848260208601610476565b91505092915050565b60008135905061050a81610966565b92915050565b60006020828403121561052657610525610936565b5b6000610534848285016104b8565b91505092915050565b6000806040838503121561055457610553610936565b5b6000610562858286016104b8565b9250506020610573858286016104fb565b9150509250929050565b60006020828403121561059357610592610936565b5b600082013567ffffffffffffffff8111156105b1576105b0610931565b5b6105bd848285016104cd565b91505092915050565b6000602082840312156105dc576105db610936565b5b60006105ea848285016104fb565b91505092915050565b6105fc816107bf565b82525050565b600061060d8261073b565b6106178185610746565b9350610627818560208601610804565b6106308161093b565b840191505092915050565b6000610648600083610746565b91506106538261094c565b600082019050919050565b610667816107eb565b82525050565b600060208201905061068260008301846105f3565b92915050565b600060208201905081810360008301526106a28184610602565b905092915050565b600060208201905081810360008301526106c38161063b565b9050919050565b60006020820190506106df600083018461065e565b92915050565b60006106ef610700565b90506106fb8282610869565b919050565b6000604051905090565b600067ffffffffffffffff821115610725576107246108f8565b5b61072e8261093b565b9050602081019050919050565b600081519050919050565b600082825260208201905092915050565b6000610762826107eb565b915061076d836107eb565b9250827fffffffffffffffffffffffffffffffffffffffffffffffffffffffffffffffff038211156107a2576107a161089a565b5b828201905092915050565b60006107b8826107cb565b9050919050565b60008115159050919050565b600073ffffffffffffffffffffffffffffffffffffffff82169050919050565b6000819050919050565b82818337600083830152505050565b60005b83811015610822578082015181840152602081019050610807565b83811115610831576000848401525b50505050565b6000600282049050600182168061084f57607f821691505b60208210811415610863576108626108c9565b5b50919050565b6108728261093b565b810181811067ffffffffffffffff82111715610891576108906108f8565b5b80604052505050565b7f4e487b7100000000000000000000000000000000000000000000000000000000600052601160045260246000fd5b7f4e487b7100000000000000000000000000000000000000000000000000000000600052602260045260246000fd5b7f4e487b7100000000000000000000000000000000000000000000000000000000600052604160045260246000fd5b600080fd5b600080fd5b600080fd5b600080fd5b6000601f19601f8301169050919050565b50565b610958816107ad565b811461096357600080fd5b50565b61096f816107eb565b811461097a57600080fd5b5056fea264697066735822122062867a256c8c213ee8453415f7d30711139c815c506d197ab08c923ca091dbfa64736f6c63430008070033",
					"opcodes": "PUSH1 0x80 PUSH1 0x40 MSTORE CALLVALUE DUP1 ISZERO PUSH2 0x10 JUMPI PUSH1 0x0 DUP1 REVERT JUMPDEST POP PUSH1 0x40 MLOAD PUSH2 0xAAA CODESIZE SUB DUP1 PUSH2 0xAAA DUP4 CODECOPY DUP2 DUP2 ADD PUSH1 0x40 MSTORE DUP2 ADD SWAP1 PUSH2 0x32 SWAP2 SWAP1 PUSH2 0x95 JUMP JUMPDEST DUP1 PUSH1 0x2 DUP2 SWAP1 SSTORE POP CALLER PUSH1 0x3 PUSH1 0x0 PUSH2 0x100 EXP DUP2 SLOAD DUP2 PUSH20 0xFFFFFFFFFFFFFFFFFFFFFFFFFFFFFFFFFFFFFFFF MUL NOT AND SWAP1 DUP4 PUSH20 0xFFFFFFFFFFFFFFFFFFFFFFFFFFFFFFFFFFFFFFFF AND MUL OR SWAP1 SSTORE POP POP PUSH2 0xE8 JUMP JUMPDEST PUSH1 0x0 DUP2 MLOAD SWAP1 POP PUSH2 0x8F DUP2 PUSH2 0xD1 JUMP JUMPDEST SWAP3 SWAP2 POP POP JUMP JUMPDEST PUSH1 0x0 PUSH1 0x20 DUP3 DUP5 SUB SLT ISZERO PUSH2 0xAB JUMPI PUSH2 0xAA PUSH2 0xCC JUMP JUMPDEST JUMPDEST PUSH1 0x0 PUSH2 0xB9 DUP5 DUP3 DUP6 ADD PUSH2 0x80 JUMP JUMPDEST SWAP2 POP POP SWAP3 SWAP2 POP POP JUMP JUMPDEST PUSH1 0x0 DUP2 SWAP1 POP SWAP2 SWAP1 POP JUMP JUMPDEST PUSH1 0x0 DUP1 REVERT JUMPDEST PUSH2 0xDA DUP2 PUSH2 0xC2 JUMP JUMPDEST DUP2 EQ PUSH2 0xE5 JUMPI PUSH1 0x0 DUP1 REVERT JUMPDEST POP JUMP JUMPDEST PUSH2 0x9B3 DUP1 PUSH2 0xF7 PUSH1 0x0 CODECOPY PUSH1 0x0 RETURN INVALID PUSH1 0x80 PUSH1 0x40 MSTORE CALLVALUE DUP1 ISZERO PUSH2 0x10 JUMPI PUSH1 0x0 DUP1 REVERT JUMPDEST POP PUSH1 0x4 CALLDATASIZE LT PUSH2 0x57 JUMPI PUSH1 0x0 CALLDATALOAD PUSH1 0xE0 SHR DUP1 PUSH4 0xAD3430E EQ PUSH2 0x5C JUMPI DUP1 PUSH4 0x42CDE4E8 EQ PUSH2 0x8C JUMPI DUP1 PUSH4 0x74DCDC63 EQ PUSH2 0xAA JUMPI DUP1 PUSH4 0x960BFE04 EQ PUSH2 0xDA JUMPI DUP1 PUSH4 0x9BC2BC71 EQ PUSH2 0xF6 JUMPI JUMPDEST PUSH1 0x0 DUP1 REVERT JUMPDEST PUSH2 0x76 PUSH1 0x4 DUP1 CALLDATASIZE SUB DUP2 ADD SWAP1 PUSH2 0x71 SWAP2 SWAP1 PUSH2 0x510 JUMP JUMPDEST PUSH2 0x126 JUMP JUMPDEST PUSH1 0x40 MLOAD PUSH2 0x83 SWAP2 SWAP1 PUSH2 0x6CA JUMP JUMPDEST PUSH1 0x40 MLOAD DUP1 SWAP2 SUB SWAP1 RETURN JUMPDEST PUSH2 0x94 PUSH2 0x13E JUMP JUMPDEST PUSH1 0x40 MLOAD PUSH2 0xA1 SWAP2 SWAP1 PUSH2 0x6CA JUMP JUMPDEST PUSH1 0x40 MLOAD DUP1 SWAP2 SUB SWAP1 RETURN JUMPDEST PUSH2 0xC4 PUSH1 0x4 DUP1 CALLDATASIZE SUB DUP2 ADD SWAP1 PUSH2 0xBF SWAP2 SWAP1 PUSH2 0x53D JUMP JUMPDEST PUSH2 0x144 JUMP JUMPDEST PUSH1 0x40 MLOAD PUSH2 0xD1 SWAP2 SWAP1 PUSH2 0x688 JUMP JUMPDEST PUSH1 0x40 MLOAD DUP1 SWAP2 SUB SWAP1 RETURN JUMPDEST PUSH2 0xF4 PUSH1 0x4 DUP1 CALLDATASIZE SUB DUP2 ADD SWAP1 PUSH2 0xEF SWAP2 SWAP1 PUSH2 0x5C6 JUMP JUMPDEST PUSH2 0x1F1 JUMP JUMPDEST STOP JUMPDEST PUSH2 0x110 PUSH1 0x4 DUP1 CALLDATASIZE SUB DUP2 ADD SWAP1 PUSH2 0x10B SWAP2 SWAP1 PUSH2 0x57D JUMP JUMPDEST PUSH2 0x28B JUMP JUMPDEST PUSH1 0x40 MLOAD PUSH2 0x11D SWAP2 SWAP1 PUSH2 0x66D JUMP JUMPDEST PUSH1 0x40 MLOAD DUP1 SWAP2 SUB SWAP1 RETURN JUMPDEST PUSH1 0x1 PUSH1 0x20 MSTORE DUP1 PUSH1 0x0 MSTORE PUSH1 0x40 PUSH1 0x0 KECCAK256 PUSH1 0x0 SWAP2 POP SWAP1 POP SLOAD DUP2 JUMP JUMPDEST PUSH1 0x2 SLOAD DUP2 JUMP JUMPDEST PUSH1 0x0 PUSH1 0x20 MSTORE DUP2 PUSH1 0x0 MSTORE PUSH1 0x40 PUSH1 0x0 KECCAK256 PUSH1 0x20 MSTORE DUP1 PUSH1 0x0 MSTORE PUSH1 0x40 PUSH1 0x0 KECCAK256 PUSH1 0x0 SWAP2 POP SWAP2 POP POP DUP1 SLOAD PUSH2 0x170 SWAP1 PUSH2 0x837 JUMP JUMPDEST DUP1 PUSH1 0x1F ADD PUSH1 0x20 DUP1 SWAP2 DIV MUL PUSH1 0x20 ADD PUSH1 0x40 MLOAD SWAP1 DUP2 ADD PUSH1 0x40 MSTORE DUP1 SWAP3 SWAP2 SWAP1 DUP2 DUP2 MSTORE PUSH1 0x20 ADD DUP3 DUP1 SLOAD PUSH2 0x19C SWAP1 PUSH2 0x837 JUMP JUMPDEST DUP1 ISZERO PUSH2 0x1E9 JUMPI DUP1 PUSH1 0x1F LT PUSH2 0x1BE JUMPI PUSH2 0x100 DUP1 DUP4 SLOAD DIV MUL DUP4 MSTORE SWAP2 PUSH1 0x20 ADD SWAP2 PUSH2 0x1E9 JUMP JUMPDEST DUP3 ADD SWAP2 SWAP1 PUSH1 0x0 MSTORE PUSH1 0x20 PUSH1 0x0 KECCAK256 SWAP1 JUMPDEST DUP2 SLOAD DUP2 MSTORE SWAP1 PUSH1 0x1 ADD SWAP1 PUSH1 0x20 ADD DUP1 DUP4 GT PUSH2 0x1CC JUMPI DUP3 SWAP1 SUB PUSH1 0x1F AND DUP3 ADD SWAP2 JUMPDEST POP POP POP POP POP DUP2 JUMP JUMPDEST PUSH1 0x3 PUSH1 0x0 SWAP1 SLOAD SWAP1 PUSH2 0x100 EXP SWAP1 DIV PUSH20 0xFFFFFFFFFFFFFFFFFFFFFFFFFFFFFFFFFFFFFFFF AND PUSH20 0xFFFFFFFFFFFFFFFFFFFFFFFFFFFFFFFFFFFFFFFF AND CALLER PUSH20 0xFFFFFFFFFFFFFFFFFFFFFFFFFFFFFFFFFFFFFFFF AND EQ PUSH2 0x281 JUMPI PUSH1 0x40 MLOAD PUSH32 0x8C379A000000000000000000000000000000000000000000000000000000000 DUP2 MSTORE PUSH1 0x4 ADD PUSH2 0x278 SWAP1 PUSH2 0x6AA JUMP JUMPDEST PUSH1 0x40 MLOAD DUP1 SWAP2 SUB SWAP1 REVERT JUMPDEST DUP1 PUSH1 0x2 DUP2 SWAP1 SSTORE POP POP JUMP JUMPDEST PUSH1 0x0 DUP1 PUSH1 0x1 DUP1 PUSH1 0x0 CALLER PUSH20 0xFFFFFFFFFFFFFFFFFFFFFFFFFFFFFFFFFFFFFFFF AND PUSH20 0xFFFFFFFFFFFFFFFFFFFFFFFFFFFFFFFFFFFFFFFF AND DUP2 MSTORE PUSH1 0x20 ADD SWAP1 DUP2 MSTORE PUSH1 0x20 ADD PUSH1 0x0 KECCAK256 SLOAD PUSH2 0x2D9 SWAP2 SWAP1 PUSH2 0x757 JUMP JUMPDEST SWAP1 POP PUSH1 0x2 SLOAD DUP2 GT ISZERO PUSH2 0x2EA JUMPI PUSH1 0x1 SWAP1 POP JUMPDEST DUP1 PUSH1 0x1 PUSH1 0x0 CALLER PUSH20 0xFFFFFFFFFFFFFFFFFFFFFFFFFFFFFFFFFFFFFFFF AND PUSH20 0xFFFFFFFFFFFFFFFFFFFFFFFFFFFFFFFFFFFFFFFF AND DUP2 MSTORE PUSH1 0x20 ADD SWAP1 DUP2 MSTORE PUSH1 0x20 ADD PUSH1 0x0 KECCAK256 DUP2 SWAP1 SSTORE POP DUP3 PUSH1 0x0 DUP1 CALLER PUSH20 0xFFFFFFFFFFFFFFFFFFFFFFFFFFFFFFFFFFFFFFFF AND PUSH20 0xFFFFFFFFFFFFFFFFFFFFFFFFFFFFFFFFFFFFFFFF AND DUP2 MSTORE PUSH1 0x20 ADD SWAP1 DUP2 MSTORE PUSH1 0x20 ADD PUSH1 0x0 KECCAK256 PUSH1 0x0 DUP4 DUP2 MSTORE PUSH1 0x20 ADD SWAP1 DUP2 MSTORE PUSH1 0x20 ADD PUSH1 0x0 KECCAK256 SWAP1 DUP1 MLOAD SWAP1 PUSH1 0x20 ADD SWAP1 PUSH2 0x391 SWAP3 SWAP2 SWAP1 PUSH2 0x3D3 JUMP JUMPDEST POP PUSH32 0x3C0C8DEA9E5E5486A7D5B25F41716A0EE7B12A2A013316408A2FE0870A2F5710 DUP4 PUSH1 0x40 MLOAD PUSH2 0x3C1 SWAP2 SWAP1 PUSH2 0x688 JUMP JUMPDEST PUSH1 0x40 MLOAD DUP1 SWAP2 SUB SWAP1 LOG1 PUSH1 0x1 SWAP2 POP POP SWAP2 SWAP1 POP JUMP JUMPDEST DUP3 DUP1 SLOAD PUSH2 0x3DF SWAP1 PUSH2 0x837 JUMP JUMPDEST SWAP1 PUSH1 0x0 MSTORE PUSH1 0x20 PUSH1 0x0 KECCAK256 SWAP1 PUSH1 0x1F ADD PUSH1 0x20 SWAP1 DIV DUP2 ADD SWAP3 DUP3 PUSH2 0x401 JUMPI PUSH1 0x0 DUP6 SSTORE PUSH2 0x448 JUMP JUMPDEST DUP3 PUSH1 0x1F LT PUSH2 0x41A JUMPI DUP1 MLOAD PUSH1 0xFF NOT AND DUP4 DUP1 ADD OR DUP6 SSTORE PUSH2 0x448 JUMP JUMPDEST DUP3 DUP1 ADD PUSH1 0x1 ADD DUP6 SSTORE DUP3 ISZERO PUSH2 0x448 JUMPI SWAP2 DUP3 ADD JUMPDEST DUP3 DUP2 GT ISZERO PUSH2 0x447 JUMPI DUP3 MLOAD DUP3 SSTORE SWAP2 PUSH1 0x20 ADD SWAP2 SWAP1 PUSH1 0x1 ADD SWAP1 PUSH2 0x42C JUMP JUMPDEST JUMPDEST POP SWAP1 POP PUSH2 0x455 SWAP2 SWAP1 PUSH2 0x459 JUMP JUMPDEST POP SWAP1 JUMP JUMPDEST JUMPDEST DUP1 DUP3 GT ISZERO PUSH2 0x472 JUMPI PUSH1 0x0 DUP2 PUSH1 0x0 SWAP1 SSTORE POP PUSH1 0x1 ADD PUSH2 0x45A JUMP JUMPDEST POP SWAP1 JUMP JUMPDEST PUSH1 0x0 PUSH2 0x489 PUSH2 0x484 DUP5 PUSH2 0x70A JUMP JUMPDEST PUSH2 0x6E5 JUMP JUMPDEST SWAP1 POP DUP3 DUP2 MSTORE PUSH1 0x20 DUP2 ADD DUP5 DUP5 DUP5 ADD GT ISZERO PUSH2 0x4A5 JUMPI PUSH2 0x4A4 PUSH2 0x92C JUMP JUMPDEST JUMPDEST PUSH2 0x4B0 DUP5 DUP3 DUP6 PUSH2 0x7F5 JUMP JUMPDEST POP SWAP4 SWAP3 POP POP POP JUMP JUMPDEST PUSH1 0x0 DUP2 CALLDATALOAD SWAP1 POP PUSH2 0x4C7 DUP2 PUSH2 0x94F JUMP JUMPDEST SWAP3 SWAP2 POP POP JUMP JUMPDEST PUSH1 0x0 DUP3 PUSH1 0x1F DUP4 ADD SLT PUSH2 0x4E2 JUMPI PUSH2 0x4E1 PUSH2 0x927 JUMP JUMPDEST JUMPDEST DUP2 CALLDATALOAD PUSH2 0x4F2 DUP5 DUP3 PUSH1 0x20 DUP7 ADD PUSH2 0x476 JUMP JUMPDEST SWAP2 POP POP SWAP3 SWAP2 POP POP JUMP JUMPDEST PUSH1 0x0 DUP2 CALLDATALOAD SWAP1 POP PUSH2 0x50A DUP2 PUSH2 0x966 JUMP JUMPDEST SWAP3 SWAP2 POP POP JUMP JUMPDEST PUSH1 0x0 PUSH1 0x20 DUP3 DUP5 SUB SLT ISZERO PUSH2 0x526 JUMPI PUSH2 0x525 PUSH2 0x936 JUMP JUMPDEST JUMPDEST PUSH1 0x0 PUSH2 0x534 DUP5 DUP3 DUP6 ADD PUSH2 0x4B8 JUMP JUMPDEST SWAP2 POP POP SWAP3 SWAP2 POP POP JUMP JUMPDEST PUSH1 0x0 DUP1 PUSH1 0x40 DUP4 DUP6 SUB SLT ISZERO PUSH2 0x554 JUMPI PUSH2 0x553 PUSH2 0x936 JUMP JUMPDEST JUMPDEST PUSH1 0x0 PUSH2 0x562 DUP6 DUP3 DUP7 ADD PUSH2 0x4B8 JUMP JUMPDEST SWAP3 POP POP PUSH1 0x20 PUSH2 0x573 DUP6 DUP3 DUP7 ADD PUSH2 0x4FB JUMP JUMPDEST SWAP2 POP POP SWAP3 POP SWAP3 SWAP1 POP JUMP JUMPDEST PUSH1 0x0 PUSH1 0x20 DUP3 DUP5 SUB SLT ISZERO PUSH2 0x593 JUMPI PUSH2 0x592 PUSH2 0x936 JUMP JUMPDEST JUMPDEST PUSH1 0x0 DUP3 ADD CALLDATALOAD PUSH8 0xFFFFFFFFFFFFFFFF DUP2 GT ISZERO PUSH2 0x5B1 JUMPI PUSH2 0x5B0 PUSH2 0x931 JUMP JUMPDEST JUMPDEST PUSH2 0x5BD DUP5 DUP3 DUP6 ADD PUSH2 0x4CD JUMP JUMPDEST SWAP2 POP POP SWAP3 SWAP2 POP POP JUMP JUMPDEST PUSH1 0x0 PUSH1 0x20 DUP3 DUP5 SUB SLT ISZERO PUSH2 0x5DC JUMPI PUSH2 0x5DB PUSH2 0x936 JUMP JUMPDEST JUMPDEST PUSH1 0x0 PUSH2 0x5EA DUP5 DUP3 DUP6 ADD PUSH2 0x4FB JUMP JUMPDEST SWAP2 POP POP SWAP3 SWAP2 POP POP JUMP JUMPDEST PUSH2 0x5FC DUP2 PUSH2 0x7BF JUMP JUMPDEST DUP3 MSTORE POP POP JUMP JUMPDEST PUSH1 0x0 PUSH2 0x60D DUP3 PUSH2 0x73B JUMP JUMPDEST PUSH2 0x617 DUP2 DUP6 PUSH2 0x746 JUMP JUMPDEST SWAP4 POP PUSH2 0x627 DUP2 DUP6 PUSH1 0x20 DUP7 ADD PUSH2 0x804 JUMP JUMPDEST PUSH2 0x630 DUP2 PUSH2 0x93B JUMP JUMPDEST DUP5 ADD SWAP2 POP POP SWAP3 SWAP2 POP POP JUMP JUMPDEST PUSH1 0x0 PUSH2 0x648 PUSH1 0x0 DUP4 PUSH2 0x746 JUMP JUMPDEST SWAP2 POP PUSH2 0x653 DUP3 PUSH2 0x94C JUMP JUMPDEST PUSH1 0x0 DUP3 ADD SWAP1 POP SWAP2 SWAP1 POP JUMP JUMPDEST PUSH2 0x667 DUP2 PUSH2 0x7EB JUMP JUMPDEST DUP3 MSTORE POP POP JUMP JUMPDEST PUSH1 0x0 PUSH1 0x20 DUP3 ADD SWAP1 POP PUSH2 0x682 PUSH1 0x0 DUP4 ADD DUP5 PUSH2 0x5F3 JUMP JUMPDEST SWAP3 SWAP2 POP POP JUMP JUMPDEST PUSH1 0x0 PUSH1 0x20 DUP3 ADD SWAP1 POP DUP2 DUP2 SUB PUSH1 0x0 DUP4 ADD MSTORE PUSH2 0x6A2 DUP2 DUP5 PUSH2 0x602 JUMP JUMPDEST SWAP1 POP SWAP3 SWAP2 POP POP JUMP JUMPDEST PUSH1 0x0 PUSH1 0x20 DUP3 ADD SWAP1 POP DUP2 DUP2 SUB PUSH1 0x0 DUP4 ADD MSTORE PUSH2 0x6C3 DUP2 PUSH2 0x63B JUMP JUMPDEST SWAP1 POP SWAP2 SWAP1 POP JUMP JUMPDEST PUSH1 0x0 PUSH1 0x20 DUP3 ADD SWAP1 POP PUSH2 0x6DF PUSH1 0x0 DUP4 ADD DUP5 PUSH2 0x65E JUMP JUMPDEST SWAP3 SWAP2 POP POP JUMP JUMPDEST PUSH1 0x0 PUSH2 0x6EF PUSH2 0x700 JUMP JUMPDEST SWAP1 POP PUSH2 0x6FB DUP3 DUP3 PUSH2 0x869 JUMP JUMPDEST SWAP2 SWAP1 POP JUMP JUMPDEST PUSH1 0x0 PUSH1 0x40 MLOAD SWAP1 POP SWAP1 JUMP JUMPDEST PUSH1 0x0 PUSH8 0xFFFFFFFFFFFFFFFF DUP3 GT ISZERO PUSH2 0x725 JUMPI PUSH2 0x724 PUSH2 0x8F8 JUMP JUMPDEST JUMPDEST PUSH2 0x72E DUP3 PUSH2 0x93B JUMP JUMPDEST SWAP1 POP PUSH1 0x20 DUP2 ADD SWAP1 POP SWAP2 SWAP1 POP JUMP JUMPDEST PUSH1 0x0 DUP2 MLOAD SWAP1 POP SWAP2 SWAP1 POP JUMP JUMPDEST PUSH1 0x0 DUP3 DUP3 MSTORE PUSH1 0x20 DUP3 ADD SWAP1 POP SWAP3 SWAP2 POP POP JUMP JUMPDEST PUSH1 0x0 PUSH2 0x762 DUP3 PUSH2 0x7EB JUMP JUMPDEST SWAP2 POP PUSH2 0x76D DUP4 PUSH2 0x7EB JUMP JUMPDEST SWAP3 POP DUP3 PUSH32 0xFFFFFFFFFFFFFFFFFFFFFFFFFFFFFFFFFFFFFFFFFFFFFFFFFFFFFFFFFFFFFFFF SUB DUP3 GT ISZERO PUSH2 0x7A2 JUMPI PUSH2 0x7A1 PUSH2 0x89A JUMP JUMPDEST JUMPDEST DUP3 DUP3 ADD SWAP1 POP SWAP3 SWAP2 POP POP JUMP JUMPDEST PUSH1 0x0 PUSH2 0x7B8 DUP3 PUSH2 0x7CB JUMP JUMPDEST SWAP1 POP SWAP2 SWAP1 POP JUMP JUMPDEST PUSH1 0x0 DUP2 ISZERO ISZERO SWAP1 POP SWAP2 SWAP1 POP JUMP JUMPDEST PUSH1 0x0 PUSH20 0xFFFFFFFFFFFFFFFFFFFFFFFFFFFFFFFFFFFFFFFF DUP3 AND SWAP1 POP SWAP2 SWAP1 POP JUMP JUMPDEST PUSH1 0x0 DUP2 SWAP1 POP SWAP2 SWAP1 POP JUMP JUMPDEST DUP3 DUP2 DUP4 CALLDATACOPY PUSH1 0x0 DUP4 DUP4 ADD MSTORE POP POP POP JUMP JUMPDEST PUSH1 0x0 JUMPDEST DUP4 DUP2 LT ISZERO PUSH2 0x822 JUMPI DUP1 DUP3 ADD MLOAD DUP2 DUP5 ADD MSTORE PUSH1 0x20 DUP2 ADD SWAP1 POP PUSH2 0x807 JUMP JUMPDEST DUP4 DUP2 GT ISZERO PUSH2 0x831 JUMPI PUSH1 0x0 DUP5 DUP5 ADD MSTORE JUMPDEST POP POP POP POP JUMP JUMPDEST PUSH1 0x0 PUSH1 0x2 DUP3 DIV SWAP1 POP PUSH1 0x1 DUP3 AND DUP1 PUSH2 0x84F JUMPI PUSH1 0x7F DUP3 AND SWAP2 POP JUMPDEST PUSH1 0x20 DUP3 LT DUP2 EQ ISZERO PUSH2 0x863 JUMPI PUSH2 0x862 PUSH2 0x8C9 JUMP JUMPDEST JUMPDEST POP SWAP2 SWAP1 POP JUMP JUMPDEST PUSH2 0x872 DUP3 PUSH2 0x93B JUMP JUMPDEST DUP2 ADD DUP2 DUP2 LT PUSH8 0xFFFFFFFFFFFFFFFF DUP3 GT OR ISZERO PUSH2 0x891 JUMPI PUSH2 0x890 PUSH2 0x8F8 JUMP JUMPDEST JUMPDEST DUP1 PUSH1 0x40 MSTORE POP POP POP JUMP JUMPDEST PUSH32 0x4E487B7100000000000000000000000000000000000000000000000000000000 PUSH1 0x0 MSTORE PUSH1 0x11 PUSH1 0x4 MSTORE PUSH1 0x24 PUSH1 0x0 REVERT JUMPDEST PUSH32 0x4E487B7100000000000000000000000000000000000000000000000000000000 PUSH1 0x0 MSTORE PUSH1 0x22 PUSH1 0x4 MSTORE PUSH1 0x24 PUSH1 0x0 REVERT JUMPDEST PUSH32 0x4E487B7100000000000000000000000000000000000000000000000000000000 PUSH1 0x0 MSTORE PUSH1 0x41 PUSH1 0x4 MSTORE PUSH1 0x24 PUSH1 0x0 REVERT JUMPDEST PUSH1 0x0 DUP1 REVERT JUMPDEST PUSH1 0x0 DUP1 REVERT JUMPDEST PUSH1 0x0 DUP1 REVERT JUMPDEST PUSH1 0x0 DUP1 REVERT JUMPDEST PUSH1 0x0 PUSH1 0x1F NOT PUSH1 0x1F DUP4 ADD AND SWAP1 POP SWAP2 SWAP1 POP JUMP JUMPDEST POP JUMP JUMPDEST PUSH2 0x958 DUP2 PUSH2 0x7AD JUMP JUMPDEST DUP2 EQ PUSH2 0x963 JUMPI PUSH1 0x0 DUP1 REVERT JUMPDEST POP JUMP JUMPDEST PUSH2 0x96F DUP2 PUSH2 0x7EB JUMP JUMPDEST DUP2 EQ PUSH2 0x97A JUMPI PUSH1 0x0 DUP1 REVERT JUMPDEST POP JUMP INVALID LOG2 PUSH5 0x6970667358 0x22 SLT KECCAK256 PUSH3 0x867A25 PUSH13 0x8C213EE8453415F7D30711139C DUP2 0x5C POP PUSH14 0x197AB08C923CA091DBFA64736F6C PUSH4 0x43000807 STOP CALLER "
				},
				"gasEstimates": {
					"creation": {
						"codeDepositCost": "496600",
						"executionCost": "infinite",
						"totalCost": "infinite"
					},
					"external": {
						"createEvent(string)": "infinite",
						"events(address,uint256)": "infinite",
						"eventsCounter(address)": "2792",
						"setThreshold(uint256)": "24734",
						"threshold()": "2429"
					}
				},
				"methodIdentifiers": {
					"createEvent(string)": "9bc2bc71",
					"events(address,uint256)": "74dcdc63",
					"eventsCounter(address)": "0ad3430e",
					"setThreshold(uint256)": "960bfe04",
					"threshold()": "42cde4e8"
				}
			},
			"storageLayout": {
				"storage": [
					{
						"astId": 11,
						"contract": "contracts/Ciberseguridad/Event.sol:Event",
						"label": "events",
						"offset": 0,
						"slot": "0",
						"type": "t_mapping(t_address,t_mapping(t_uint256,t_string_storage))"
					},
					{
						"astId": 15,
						"contract": "contracts/Ciberseguridad/Event.sol:Event",
						"label": "eventsCounter",
						"offset": 0,
						"slot": "1",
						"type": "t_mapping(t_address,t_uint256)"
					},
					{
						"astId": 17,
						"contract": "contracts/Ciberseguridad/Event.sol:Event",
						"label": "threshold",
						"offset": 0,
						"slot": "2",
						"type": "t_uint256"
					},
					{
						"astId": 19,
						"contract": "contracts/Ciberseguridad/Event.sol:Event",
						"label": "owner",
						"offset": 0,
						"slot": "3",
						"type": "t_address"
					}
				],
				"types": {
					"t_address": {
						"encoding": "inplace",
						"label": "address",
						"numberOfBytes": "20"
					},
					"t_mapping(t_address,t_mapping(t_uint256,t_string_storage))": {
						"encoding": "mapping",
						"key": "t_address",
						"label": "mapping(address => mapping(uint256 => string))",
						"numberOfBytes": "32",
						"value": "t_mapping(t_uint256,t_string_storage)"
					},
					"t_mapping(t_address,t_uint256)": {
						"encoding": "mapping",
						"key": "t_address",
						"label": "mapping(address => uint256)",
						"numberOfBytes": "32",
						"value": "t_uint256"
					},
					"t_mapping(t_uint256,t_string_storage)": {
						"encoding": "mapping",
						"key": "t_uint256",
						"label": "mapping(uint256 => string)",
						"numberOfBytes": "32",
						"value": "t_string_storage"
					},
					"t_string_storage": {
						"encoding": "bytes",
						"label": "string",
						"numberOfBytes": "32"
					},
					"t_uint256": {
						"encoding": "inplace",
						"label": "uint256",
						"numberOfBytes": "32"
					}
				}
			},
			"userdoc": {
				"kind": "user",
				"methods": {},
				"version": 1
			}
		}
	}
}