{
	"contracts/Ciberseguridad/Event.sol": {
		"Event": {
			"abi": [
				{
					"anonymous": false,
					"inputs": [
						{
							"indexed": false,
							"internalType": "string",
							"name": "_event",
							"type": "string"
						}
					],
					"name": "newEventCreated",
					"type": "event"
				},
				{
					"inputs": [
						{
							"internalType": "address",
							"name": "",
							"type": "address"
						},
						{
							"internalType": "uint256",
							"name": "",
							"type": "uint256"
						}
					],
					"name": "events",
					"outputs": [
						{
							"internalType": "string",
							"name": "",
							"type": "string"
						}
					],
					"stateMutability": "view",
					"type": "function"
				}
			],
			"devdoc": {
				"kind": "dev",
				"methods": {},
				"version": 1
			},
			"evm": {
				"assembly": "    /* \"contracts/Ciberseguridad/Event.sol\":72:218  contract Event {\r... */\n  mstore(0x40, 0x80)\n  callvalue\n  dup1\n  iszero\n  tag_1\n  jumpi\n  0x00\n  dup1\n  revert\ntag_1:\n  pop\n  dataSize(sub_0)\n  dup1\n  dataOffset(sub_0)\n  0x00\n  codecopy\n  0x00\n  return\nstop\n\nsub_0: assembly {\n        /* \"contracts/Ciberseguridad/Event.sol\":72:218  contract Event {\r... */\n      mstore(0x40, 0x80)\n      callvalue\n      dup1\n      iszero\n      tag_1\n      jumpi\n      0x00\n      dup1\n      revert\n    tag_1:\n      pop\n      jumpi(tag_2, lt(calldatasize, 0x04))\n      shr(0xe0, calldataload(0x00))\n      dup1\n      0x74dcdc63\n      eq\n      tag_3\n      jumpi\n    tag_2:\n      0x00\n      dup1\n      revert\n        /* \"contracts/Ciberseguridad/Event.sol\":141:202  mapping(address => mapping (uint256 => string)) public events */\n    tag_3:\n      tag_4\n      0x04\n      dup1\n      calldatasize\n      sub\n      dup2\n      add\n      swap1\n      tag_5\n      swap2\n      swap1\n      tag_6\n      jump\t// in\n    tag_5:\n      tag_7\n      jump\t// in\n    tag_4:\n      mload(0x40)\n      tag_8\n      swap2\n      swap1\n      tag_9\n      jump\t// in\n    tag_8:\n      mload(0x40)\n      dup1\n      swap2\n      sub\n      swap1\n      return\n    tag_7:\n      mstore(0x20, 0x00)\n      dup2\n      0x00\n      mstore\n      mstore(0x20, keccak256(0x00, 0x40))\n      dup1\n      0x00\n      mstore\n      keccak256(0x00, 0x40)\n      0x00\n      swap2\n      pop\n      swap2\n      pop\n      pop\n      dup1\n      sload\n      tag_10\n      swap1\n      tag_11\n      jump\t// in\n    tag_10:\n      dup1\n      0x1f\n      add\n      0x20\n      dup1\n      swap2\n      div\n      mul\n      0x20\n      add\n      mload(0x40)\n      swap1\n      dup2\n      add\n      0x40\n      mstore\n      dup1\n      swap3\n      swap2\n      swap1\n      dup2\n      dup2\n      mstore\n      0x20\n      add\n      dup3\n      dup1\n      sload\n      tag_12\n      swap1\n      tag_11\n      jump\t// in\n    tag_12:\n      dup1\n      iszero\n      tag_13\n      jumpi\n      dup1\n      0x1f\n      lt\n      tag_14\n      jumpi\n      0x0100\n      dup1\n      dup4\n      sload\n      div\n      mul\n      dup4\n      mstore\n      swap2\n      0x20\n      add\n      swap2\n      jump(tag_13)\n    tag_14:\n      dup3\n      add\n      swap2\n      swap1\n      0x00\n      mstore\n      keccak256(0x00, 0x20)\n      swap1\n    tag_15:\n      dup2\n      sload\n      dup2\n      mstore\n      swap1\n      0x01\n      add\n      swap1\n      0x20\n      add\n      dup1\n      dup4\n      gt\n      tag_15\n      jumpi\n      dup3\n      swap1\n      sub\n      0x1f\n      and\n      dup3\n      add\n      swap2\n    tag_13:\n      pop\n      pop\n      pop\n      pop\n      pop\n      dup2\n      jump\t// out\n        /* \"#utility.yul\":7:146   */\n    tag_17:\n        /* \"#utility.yul\":53:58   */\n      0x00\n        /* \"#utility.yul\":91:97   */\n      dup2\n        /* \"#utility.yul\":78:98   */\n      calldataload\n        /* \"#utility.yul\":69:98   */\n      swap1\n      pop\n        /* \"#utility.yul\":107:140   */\n      tag_19\n        /* \"#utility.yul\":134:139   */\n      dup2\n        /* \"#utility.yul\":107:140   */\n      tag_20\n      jump\t// in\n    tag_19:\n        /* \"#utility.yul\":7:146   */\n      swap3\n      swap2\n      pop\n      pop\n      jump\t// out\n        /* \"#utility.yul\":152:291   */\n    tag_21:\n        /* \"#utility.yul\":198:203   */\n      0x00\n        /* \"#utility.yul\":236:242   */\n      dup2\n        /* \"#utility.yul\":223:243   */\n      calldataload\n        /* \"#utility.yul\":214:243   */\n      swap1\n      pop\n        /* \"#utility.yul\":252:285   */\n      tag_23\n        /* \"#utility.yul\":279:284   */\n      dup2\n        /* \"#utility.yul\":252:285   */\n      tag_24\n      jump\t// in\n    tag_23:\n        /* \"#utility.yul\":152:291   */\n      swap3\n      swap2\n      pop\n      pop\n      jump\t// out\n        /* \"#utility.yul\":297:771   */\n    tag_6:\n        /* \"#utility.yul\":365:371   */\n      0x00\n        /* \"#utility.yul\":373:379   */\n      dup1\n        /* \"#utility.yul\":422:424   */\n      0x40\n        /* \"#utility.yul\":410:419   */\n      dup4\n        /* \"#utility.yul\":401:408   */\n      dup6\n        /* \"#utility.yul\":397:420   */\n      sub\n        /* \"#utility.yul\":393:425   */\n      slt\n        /* \"#utility.yul\":390:509   */\n      iszero\n      tag_26\n      jumpi\n        /* \"#utility.yul\":428:507   */\n      tag_27\n      tag_28\n      jump\t// in\n    tag_27:\n        /* \"#utility.yul\":390:509   */\n    tag_26:\n        /* \"#utility.yul\":548:549   */\n      0x00\n        /* \"#utility.yul\":573:626   */\n      tag_29\n        /* \"#utility.yul\":618:625   */\n      dup6\n        /* \"#utility.yul\":609:615   */\n      dup3\n        /* \"#utility.yul\":598:607   */\n      dup7\n        /* \"#utility.yul\":594:616   */\n      add\n        /* \"#utility.yul\":573:626   */\n      tag_17\n      jump\t// in\n    tag_29:\n        /* \"#utility.yul\":563:626   */\n      swap3\n      pop\n        /* \"#utility.yul\":519:636   */\n      pop\n        /* \"#utility.yul\":675:677   */\n      0x20\n        /* \"#utility.yul\":701:754   */\n      tag_30\n        /* \"#utility.yul\":746:753   */\n      dup6\n        /* \"#utility.yul\":737:743   */\n      dup3\n        /* \"#utility.yul\":726:735   */\n      dup7\n        /* \"#utility.yul\":722:744   */\n      add\n        /* \"#utility.yul\":701:754   */\n      tag_21\n      jump\t// in\n    tag_30:\n        /* \"#utility.yul\":691:754   */\n      swap2\n      pop\n        /* \"#utility.yul\":646:764   */\n      pop\n        /* \"#utility.yul\":297:771   */\n      swap3\n      pop\n      swap3\n      swap1\n      pop\n      jump\t// out\n        /* \"#utility.yul\":777:1141   */\n    tag_31:\n        /* \"#utility.yul\":865:868   */\n      0x00\n        /* \"#utility.yul\":893:932   */\n      tag_33\n        /* \"#utility.yul\":926:931   */\n      dup3\n        /* \"#utility.yul\":893:932   */\n      tag_34\n      jump\t// in\n    tag_33:\n        /* \"#utility.yul\":948:1019   */\n      tag_35\n        /* \"#utility.yul\":1012:1018   */\n      dup2\n        /* \"#utility.yul\":1007:1010   */\n      dup6\n        /* \"#utility.yul\":948:1019   */\n      tag_36\n      jump\t// in\n    tag_35:\n        /* \"#utility.yul\":941:1019   */\n      swap4\n      pop\n        /* \"#utility.yul\":1028:1080   */\n      tag_37\n        /* \"#utility.yul\":1073:1079   */\n      dup2\n        /* \"#utility.yul\":1068:1071   */\n      dup6\n        /* \"#utility.yul\":1061:1065   */\n      0x20\n        /* \"#utility.yul\":1054:1059   */\n      dup7\n        /* \"#utility.yul\":1050:1066   */\n      add\n        /* \"#utility.yul\":1028:1080   */\n      tag_38\n      jump\t// in\n    tag_37:\n        /* \"#utility.yul\":1105:1134   */\n      tag_39\n        /* \"#utility.yul\":1127:1133   */\n      dup2\n        /* \"#utility.yul\":1105:1134   */\n      tag_40\n      jump\t// in\n    tag_39:\n        /* \"#utility.yul\":1100:1103   */\n      dup5\n        /* \"#utility.yul\":1096:1135   */\n      add\n        /* \"#utility.yul\":1089:1135   */\n      swap2\n      pop\n        /* \"#utility.yul\":869:1141   */\n      pop\n        /* \"#utility.yul\":777:1141   */\n      swap3\n      swap2\n      pop\n      pop\n      jump\t// out\n        /* \"#utility.yul\":1147:1460   */\n    tag_9:\n        /* \"#utility.yul\":1260:1264   */\n      0x00\n        /* \"#utility.yul\":1298:1300   */\n      0x20\n        /* \"#utility.yul\":1287:1296   */\n      dup3\n        /* \"#utility.yul\":1283:1301   */\n      add\n        /* \"#utility.yul\":1275:1301   */\n      swap1\n      pop\n        /* \"#utility.yul\":1347:1356   */\n      dup2\n        /* \"#utility.yul\":1341:1345   */\n      dup2\n        /* \"#utility.yul\":1337:1357   */\n      sub\n        /* \"#utility.yul\":1333:1334   */\n      0x00\n        /* \"#utility.yul\":1322:1331   */\n      dup4\n        /* \"#utility.yul\":1318:1335   */\n      add\n        /* \"#utility.yul\":1311:1358   */\n      mstore\n        /* \"#utility.yul\":1375:1453   */\n      tag_42\n        /* \"#utility.yul\":1448:1452   */\n      dup2\n        /* \"#utility.yul\":1439:1445   */\n      dup5\n        /* \"#utility.yul\":1375:1453   */\n      tag_31\n      jump\t// in\n    tag_42:\n        /* \"#utility.yul\":1367:1453   */\n      swap1\n      pop\n        /* \"#utility.yul\":1147:1460   */\n      swap3\n      swap2\n      pop\n      pop\n      jump\t// out\n        /* \"#utility.yul\":1547:1646   */\n    tag_34:\n        /* \"#utility.yul\":1599:1605   */\n      0x00\n        /* \"#utility.yul\":1633:1638   */\n      dup2\n        /* \"#utility.yul\":1627:1639   */\n      mload\n        /* \"#utility.yul\":1617:1639   */\n      swap1\n      pop\n        /* \"#utility.yul\":1547:1646   */\n      swap2\n      swap1\n      pop\n      jump\t// out\n        /* \"#utility.yul\":1652:1821   */\n    tag_36:\n        /* \"#utility.yul\":1736:1747   */\n      0x00\n        /* \"#utility.yul\":1770:1776   */\n      dup3\n        /* \"#utility.yul\":1765:1768   */\n      dup3\n        /* \"#utility.yul\":1758:1777   */\n      mstore\n        /* \"#utility.yul\":1810:1814   */\n      0x20\n        /* \"#utility.yul\":1805:1808   */\n      dup3\n        /* \"#utility.yul\":1801:1815   */\n      add\n        /* \"#utility.yul\":1786:1815   */\n      swap1\n      pop\n        /* \"#utility.yul\":1652:1821   */\n      swap3\n      swap2\n      pop\n      pop\n      jump\t// out\n        /* \"#utility.yul\":1827:1923   */\n    tag_47:\n        /* \"#utility.yul\":1864:1871   */\n      0x00\n        /* \"#utility.yul\":1893:1917   */\n      tag_49\n        /* \"#utility.yul\":1911:1916   */\n      dup3\n        /* \"#utility.yul\":1893:1917   */\n      tag_50\n      jump\t// in\n    tag_49:\n        /* \"#utility.yul\":1882:1917   */\n      swap1\n      pop\n        /* \"#utility.yul\":1827:1923   */\n      swap2\n      swap1\n      pop\n      jump\t// out\n        /* \"#utility.yul\":1929:2055   */\n    tag_50:\n        /* \"#utility.yul\":1966:1973   */\n      0x00\n        /* \"#utility.yul\":2006:2048   */\n      0xffffffffffffffffffffffffffffffffffffffff\n        /* \"#utility.yul\":1999:2004   */\n      dup3\n        /* \"#utility.yul\":1995:2049   */\n      and\n        /* \"#utility.yul\":1984:2049   */\n      swap1\n      pop\n        /* \"#utility.yul\":1929:2055   */\n      swap2\n      swap1\n      pop\n      jump\t// out\n        /* \"#utility.yul\":2061:2138   */\n    tag_52:\n        /* \"#utility.yul\":2098:2105   */\n      0x00\n        /* \"#utility.yul\":2127:2132   */\n      dup2\n        /* \"#utility.yul\":2116:2132   */\n      swap1\n      pop\n        /* \"#utility.yul\":2061:2138   */\n      swap2\n      swap1\n      pop\n      jump\t// out\n        /* \"#utility.yul\":2144:2451   */\n    tag_38:\n        /* \"#utility.yul\":2212:2213   */\n      0x00\n        /* \"#utility.yul\":2222:2335   */\n    tag_55:\n        /* \"#utility.yul\":2236:2242   */\n      dup4\n        /* \"#utility.yul\":2233:2234   */\n      dup2\n        /* \"#utility.yul\":2230:2243   */\n      lt\n        /* \"#utility.yul\":2222:2335   */\n      iszero\n      tag_57\n      jumpi\n        /* \"#utility.yul\":2321:2322   */\n      dup1\n        /* \"#utility.yul\":2316:2319   */\n      dup3\n        /* \"#utility.yul\":2312:2323   */\n      add\n        /* \"#utility.yul\":2306:2324   */\n      mload\n        /* \"#utility.yul\":2302:2303   */\n      dup2\n        /* \"#utility.yul\":2297:2300   */\n      dup5\n        /* \"#utility.yul\":2293:2304   */\n      add\n        /* \"#utility.yul\":2286:2325   */\n      mstore\n        /* \"#utility.yul\":2258:2260   */\n      0x20\n        /* \"#utility.yul\":2255:2256   */\n      dup2\n        /* \"#utility.yul\":2251:2261   */\n      add\n        /* \"#utility.yul\":2246:2261   */\n      swap1\n      pop\n        /* \"#utility.yul\":2222:2335   */\n      jump(tag_55)\n    tag_57:\n        /* \"#utility.yul\":2353:2359   */\n      dup4\n        /* \"#utility.yul\":2350:2351   */\n      dup2\n        /* \"#utility.yul\":2347:2360   */\n      gt\n        /* \"#utility.yul\":2344:2445   */\n      iszero\n      tag_58\n      jumpi\n        /* \"#utility.yul\":2433:2434   */\n      0x00\n        /* \"#utility.yul\":2424:2430   */\n      dup5\n        /* \"#utility.yul\":2419:2422   */\n      dup5\n        /* \"#utility.yul\":2415:2431   */\n      add\n        /* \"#utility.yul\":2408:2435   */\n      mstore\n        /* \"#utility.yul\":2344:2445   */\n    tag_58:\n        /* \"#utility.yul\":2193:2451   */\n      pop\n        /* \"#utility.yul\":2144:2451   */\n      pop\n      pop\n      pop\n      jump\t// out\n        /* \"#utility.yul\":2457:2777   */\n    tag_11:\n        /* \"#utility.yul\":2501:2507   */\n      0x00\n        /* \"#utility.yul\":2538:2539   */\n      0x02\n        /* \"#utility.yul\":2532:2536   */\n      dup3\n        /* \"#utility.yul\":2528:2540   */\n      div\n        /* \"#utility.yul\":2518:2540   */\n      swap1\n      pop\n        /* \"#utility.yul\":2585:2586   */\n      0x01\n        /* \"#utility.yul\":2579:2583   */\n      dup3\n        /* \"#utility.yul\":2575:2587   */\n      and\n        /* \"#utility.yul\":2606:2624   */\n      dup1\n        /* \"#utility.yul\":2596:2677   */\n      tag_60\n      jumpi\n        /* \"#utility.yul\":2662:2666   */\n      0x7f\n        /* \"#utility.yul\":2654:2660   */\n      dup3\n        /* \"#utility.yul\":2650:2667   */\n      and\n        /* \"#utility.yul\":2640:2667   */\n      swap2\n      pop\n        /* \"#utility.yul\":2596:2677   */\n    tag_60:\n        /* \"#utility.yul\":2724:2726   */\n      0x20\n        /* \"#utility.yul\":2716:2722   */\n      dup3\n        /* \"#utility.yul\":2713:2727   */\n      lt\n        /* \"#utility.yul\":2693:2711   */\n      dup2\n        /* \"#utility.yul\":2690:2728   */\n      eq\n        /* \"#utility.yul\":2687:2771   */\n      iszero\n      tag_61\n      jumpi\n        /* \"#utility.yul\":2743:2761   */\n      tag_62\n      tag_63\n      jump\t// in\n    tag_62:\n        /* \"#utility.yul\":2687:2771   */\n    tag_61:\n        /* \"#utility.yul\":2508:2777   */\n      pop\n        /* \"#utility.yul\":2457:2777   */\n      swap2\n      swap1\n      pop\n      jump\t// out\n        /* \"#utility.yul\":2783:2963   */\n    tag_63:\n        /* \"#utility.yul\":2831:2908   */\n      0x4e487b7100000000000000000000000000000000000000000000000000000000\n        /* \"#utility.yul\":2828:2829   */\n      0x00\n        /* \"#utility.yul\":2821:2909   */\n      mstore\n        /* \"#utility.yul\":2928:2932   */\n      0x22\n        /* \"#utility.yul\":2925:2926   */\n      0x04\n        /* \"#utility.yul\":2918:2933   */\n      mstore\n        /* \"#utility.yul\":2952:2956   */\n      0x24\n        /* \"#utility.yul\":2949:2950   */\n      0x00\n        /* \"#utility.yul\":2942:2957   */\n      revert\n        /* \"#utility.yul\":3092:3209   */\n    tag_28:\n        /* \"#utility.yul\":3201:3202   */\n      0x00\n        /* \"#utility.yul\":3198:3199   */\n      dup1\n        /* \"#utility.yul\":3191:3203   */\n      revert\n        /* \"#utility.yul\":3215:3317   */\n    tag_40:\n        /* \"#utility.yul\":3256:3262   */\n      0x00\n        /* \"#utility.yul\":3307:3309   */\n      0x1f\n        /* \"#utility.yul\":3303:3310   */\n      not\n        /* \"#utility.yul\":3298:3300   */\n      0x1f\n        /* \"#utility.yul\":3291:3296   */\n      dup4\n        /* \"#utility.yul\":3287:3301   */\n      add\n        /* \"#utility.yul\":3283:3311   */\n      and\n        /* \"#utility.yul\":3273:3311   */\n      swap1\n      pop\n        /* \"#utility.yul\":3215:3317   */\n      swap2\n      swap1\n      pop\n      jump\t// out\n        /* \"#utility.yul\":3323:3445   */\n    tag_20:\n        /* \"#utility.yul\":3396:3420   */\n      tag_70\n        /* \"#utility.yul\":3414:3419   */\n      dup2\n        /* \"#utility.yul\":3396:3420   */\n      tag_47\n      jump\t// in\n    tag_70:\n        /* \"#utility.yul\":3389:3394   */\n      dup2\n        /* \"#utility.yul\":3386:3421   */\n      eq\n        /* \"#utility.yul\":3376:3439   */\n      tag_71\n      jumpi\n        /* \"#utility.yul\":3435:3436   */\n      0x00\n        /* \"#utility.yul\":3432:3433   */\n      dup1\n        /* \"#utility.yul\":3425:3437   */\n      revert\n        /* \"#utility.yul\":3376:3439   */\n    tag_71:\n        /* \"#utility.yul\":3323:3445   */\n      pop\n      jump\t// out\n        /* \"#utility.yul\":3451:3573   */\n    tag_24:\n        /* \"#utility.yul\":3524:3548   */\n      tag_73\n        /* \"#utility.yul\":3542:3547   */\n      dup2\n        /* \"#utility.yul\":3524:3548   */\n      tag_52\n      jump\t// in\n    tag_73:\n        /* \"#utility.yul\":3517:3522   */\n      dup2\n        /* \"#utility.yul\":3514:3549   */\n      eq\n        /* \"#utility.yul\":3504:3567   */\n      tag_74\n      jumpi\n        /* \"#utility.yul\":3563:3564   */\n      0x00\n        /* \"#utility.yul\":3560:3561   */\n      dup1\n        /* \"#utility.yul\":3553:3565   */\n      revert\n        /* \"#utility.yul\":3504:3567   */\n    tag_74:\n        /* \"#utility.yul\":3451:3573   */\n      pop\n      jump\t// out\n\n    auxdata: 0xa26469706673582212202f96fce44938d89691bcf2d951e25dd1e0da0774a05cea270ab468721cbd86c264736f6c63430008070033\n}\n",
				"bytecode": {
					"linkReferences": {},
					"object": "608060405234801561001057600080fd5b50610338806100206000396000f3fe608060405234801561001057600080fd5b506004361061002b5760003560e01c806374dcdc6314610030575b600080fd5b61004a60048036038101906100459190610137565b610060565b60405161005791906101b0565b60405180910390f35b600060205281600052604060002060205280600052604060002060009150915050805461008c9061025d565b80601f01602080910402602001604051908101604052809291908181526020018280546100b89061025d565b80156101055780601f106100da57610100808354040283529160200191610105565b820191906000526020600020905b8154815290600101906020018083116100e857829003601f168201915b505050505081565b60008135905061011c816102d4565b92915050565b600081359050610131816102eb565b92915050565b6000806040838503121561014e5761014d6102be565b5b600061015c8582860161010d565b925050602061016d85828601610122565b9150509250929050565b6000610182826101d2565b61018c81856101dd565b935061019c81856020860161022a565b6101a5816102c3565b840191505092915050565b600060208201905081810360008301526101ca8184610177565b905092915050565b600081519050919050565b600082825260208201905092915050565b60006101f982610200565b9050919050565b600073ffffffffffffffffffffffffffffffffffffffff82169050919050565b6000819050919050565b60005b8381101561024857808201518184015260208101905061022d565b83811115610257576000848401525b50505050565b6000600282049050600182168061027557607f821691505b602082108114156102895761028861028f565b5b50919050565b7f4e487b7100000000000000000000000000000000000000000000000000000000600052602260045260246000fd5b600080fd5b6000601f19601f8301169050919050565b6102dd816101ee565b81146102e857600080fd5b50565b6102f481610220565b81146102ff57600080fd5b5056fea26469706673582212202f96fce44938d89691bcf2d951e25dd1e0da0774a05cea270ab468721cbd86c264736f6c63430008070033",
					"opcodes": "PUSH1 0x80 PUSH1 0x40 MSTORE CALLVALUE DUP1 ISZERO PUSH2 0x10 JUMPI PUSH1 0x0 DUP1 REVERT JUMPDEST POP PUSH2 0x338 DUP1 PUSH2 0x20 PUSH1 0x0 CODECOPY PUSH1 0x0 RETURN INVALID PUSH1 0x80 PUSH1 0x40 MSTORE CALLVALUE DUP1 ISZERO PUSH2 0x10 JUMPI PUSH1 0x0 DUP1 REVERT JUMPDEST POP PUSH1 0x4 CALLDATASIZE LT PUSH2 0x2B JUMPI PUSH1 0x0 CALLDATALOAD PUSH1 0xE0 SHR DUP1 PUSH4 0x74DCDC63 EQ PUSH2 0x30 JUMPI JUMPDEST PUSH1 0x0 DUP1 REVERT JUMPDEST PUSH2 0x4A PUSH1 0x4 DUP1 CALLDATASIZE SUB DUP2 ADD SWAP1 PUSH2 0x45 SWAP2 SWAP1 PUSH2 0x137 JUMP JUMPDEST PUSH2 0x60 JUMP JUMPDEST PUSH1 0x40 MLOAD PUSH2 0x57 SWAP2 SWAP1 PUSH2 0x1B0 JUMP JUMPDEST PUSH1 0x40 MLOAD DUP1 SWAP2 SUB SWAP1 RETURN JUMPDEST PUSH1 0x0 PUSH1 0x20 MSTORE DUP2 PUSH1 0x0 MSTORE PUSH1 0x40 PUSH1 0x0 KECCAK256 PUSH1 0x20 MSTORE DUP1 PUSH1 0x0 MSTORE PUSH1 0x40 PUSH1 0x0 KECCAK256 PUSH1 0x0 SWAP2 POP SWAP2 POP POP DUP1 SLOAD PUSH2 0x8C SWAP1 PUSH2 0x25D JUMP JUMPDEST DUP1 PUSH1 0x1F ADD PUSH1 0x20 DUP1 SWAP2 DIV MUL PUSH1 0x20 ADD PUSH1 0x40 MLOAD SWAP1 DUP2 ADD PUSH1 0x40 MSTORE DUP1 SWAP3 SWAP2 SWAP1 DUP2 DUP2 MSTORE PUSH1 0x20 ADD DUP3 DUP1 SLOAD PUSH2 0xB8 SWAP1 PUSH2 0x25D JUMP JUMPDEST DUP1 ISZERO PUSH2 0x105 JUMPI DUP1 PUSH1 0x1F LT PUSH2 0xDA JUMPI PUSH2 0x100 DUP1 DUP4 SLOAD DIV MUL DUP4 MSTORE SWAP2 PUSH1 0x20 ADD SWAP2 PUSH2 0x105 JUMP JUMPDEST DUP3 ADD SWAP2 SWAP1 PUSH1 0x0 MSTORE PUSH1 0x20 PUSH1 0x0 KECCAK256 SWAP1 JUMPDEST DUP2 SLOAD DUP2 MSTORE SWAP1 PUSH1 0x1 ADD SWAP1 PUSH1 0x20 ADD DUP1 DUP4 GT PUSH2 0xE8 JUMPI DUP3 SWAP1 SUB PUSH1 0x1F AND DUP3 ADD SWAP2 JUMPDEST POP POP POP POP POP DUP2 JUMP JUMPDEST PUSH1 0x0 DUP2 CALLDATALOAD SWAP1 POP PUSH2 0x11C DUP2 PUSH2 0x2D4 JUMP JUMPDEST SWAP3 SWAP2 POP POP JUMP JUMPDEST PUSH1 0x0 DUP2 CALLDATALOAD SWAP1 POP PUSH2 0x131 DUP2 PUSH2 0x2EB JUMP JUMPDEST SWAP3 SWAP2 POP POP JUMP JUMPDEST PUSH1 0x0 DUP1 PUSH1 0x40 DUP4 DUP6 SUB SLT ISZERO PUSH2 0x14E JUMPI PUSH2 0x14D PUSH2 0x2BE JUMP JUMPDEST JUMPDEST PUSH1 0x0 PUSH2 0x15C DUP6 DUP3 DUP7 ADD PUSH2 0x10D JUMP JUMPDEST SWAP3 POP POP PUSH1 0x20 PUSH2 0x16D DUP6 DUP3 DUP7 ADD PUSH2 0x122 JUMP JUMPDEST SWAP2 POP POP SWAP3 POP SWAP3 SWAP1 POP JUMP JUMPDEST PUSH1 0x0 PUSH2 0x182 DUP3 PUSH2 0x1D2 JUMP JUMPDEST PUSH2 0x18C DUP2 DUP6 PUSH2 0x1DD JUMP JUMPDEST SWAP4 POP PUSH2 0x19C DUP2 DUP6 PUSH1 0x20 DUP7 ADD PUSH2 0x22A JUMP JUMPDEST PUSH2 0x1A5 DUP2 PUSH2 0x2C3 JUMP JUMPDEST DUP5 ADD SWAP2 POP POP SWAP3 SWAP2 POP POP JUMP JUMPDEST PUSH1 0x0 PUSH1 0x20 DUP3 ADD SWAP1 POP DUP2 DUP2 SUB PUSH1 0x0 DUP4 ADD MSTORE PUSH2 0x1CA DUP2 DUP5 PUSH2 0x177 JUMP JUMPDEST SWAP1 POP SWAP3 SWAP2 POP POP JUMP JUMPDEST PUSH1 0x0 DUP2 MLOAD SWAP1 POP SWAP2 SWAP1 POP JUMP JUMPDEST PUSH1 0x0 DUP3 DUP3 MSTORE PUSH1 0x20 DUP3 ADD SWAP1 POP SWAP3 SWAP2 POP POP JUMP JUMPDEST PUSH1 0x0 PUSH2 0x1F9 DUP3 PUSH2 0x200 JUMP JUMPDEST SWAP1 POP SWAP2 SWAP1 POP JUMP JUMPDEST PUSH1 0x0 PUSH20 0xFFFFFFFFFFFFFFFFFFFFFFFFFFFFFFFFFFFFFFFF DUP3 AND SWAP1 POP SWAP2 SWAP1 POP JUMP JUMPDEST PUSH1 0x0 DUP2 SWAP1 POP SWAP2 SWAP1 POP JUMP JUMPDEST PUSH1 0x0 JUMPDEST DUP4 DUP2 LT ISZERO PUSH2 0x248 JUMPI DUP1 DUP3 ADD MLOAD DUP2 DUP5 ADD MSTORE PUSH1 0x20 DUP2 ADD SWAP1 POP PUSH2 0x22D JUMP JUMPDEST DUP4 DUP2 GT ISZERO PUSH2 0x257 JUMPI PUSH1 0x0 DUP5 DUP5 ADD MSTORE JUMPDEST POP POP POP POP JUMP JUMPDEST PUSH1 0x0 PUSH1 0x2 DUP3 DIV SWAP1 POP PUSH1 0x1 DUP3 AND DUP1 PUSH2 0x275 JUMPI PUSH1 0x7F DUP3 AND SWAP2 POP JUMPDEST PUSH1 0x20 DUP3 LT DUP2 EQ ISZERO PUSH2 0x289 JUMPI PUSH2 0x288 PUSH2 0x28F JUMP JUMPDEST JUMPDEST POP SWAP2 SWAP1 POP JUMP JUMPDEST PUSH32 0x4E487B7100000000000000000000000000000000000000000000000000000000 PUSH1 0x0 MSTORE PUSH1 0x22 PUSH1 0x4 MSTORE PUSH1 0x24 PUSH1 0x0 REVERT JUMPDEST PUSH1 0x0 DUP1 REVERT JUMPDEST PUSH1 0x0 PUSH1 0x1F NOT PUSH1 0x1F DUP4 ADD AND SWAP1 POP SWAP2 SWAP1 POP JUMP JUMPDEST PUSH2 0x2DD DUP2 PUSH2 0x1EE JUMP JUMPDEST DUP2 EQ PUSH2 0x2E8 JUMPI PUSH1 0x0 DUP1 REVERT JUMPDEST POP JUMP JUMPDEST PUSH2 0x2F4 DUP2 PUSH2 0x220 JUMP JUMPDEST DUP2 EQ PUSH2 0x2FF JUMPI PUSH1 0x0 DUP1 REVERT JUMPDEST POP JUMP INVALID LOG2 PUSH5 0x6970667358 0x22 SLT KECCAK256 0x2F SWAP7 0xFC 0xE4 0x49 CODESIZE 0xD8 SWAP7 SWAP2 0xBC CALLCODE 0xD9 MLOAD 0xE2 0x5D 0xD1 0xE0 0xDA SMOD PUSH21 0xA05CEA270AB468721CBD86C264736F6C6343000807 STOP CALLER "
				},
				"gasEstimates": {
					"creation": {
						"codeDepositCost": "164800",
						"executionCost": "208",
						"totalCost": "165008"
					},
					"external": {
						"events(address,uint256)": "infinite"
					}
				},
				"methodIdentifiers": {
					"events(address,uint256)": "74dcdc63"
				}
			},
			"storageLayout": {
				"storage": [
					{
						"astId": 11,
						"contract": "contracts/Ciberseguridad/Event.sol:Event",
						"label": "events",
						"offset": 0,
						"slot": "0",
						"type": "t_mapping(t_address,t_mapping(t_uint256,t_string_storage))"
					}
				],
				"types": {
					"t_address": {
						"encoding": "inplace",
						"label": "address",
						"numberOfBytes": "20"
					},
					"t_mapping(t_address,t_mapping(t_uint256,t_string_storage))": {
						"encoding": "mapping",
						"key": "t_address",
						"label": "mapping(address => mapping(uint256 => string))",
						"numberOfBytes": "32",
						"value": "t_mapping(t_uint256,t_string_storage)"
					},
					"t_mapping(t_uint256,t_string_storage)": {
						"encoding": "mapping",
						"key": "t_uint256",
						"label": "mapping(uint256 => string)",
						"numberOfBytes": "32",
						"value": "t_string_storage"
					},
					"t_string_storage": {
						"encoding": "bytes",
						"label": "string",
						"numberOfBytes": "32"
					},
					"t_uint256": {
						"encoding": "inplace",
						"label": "uint256",
						"numberOfBytes": "32"
					}
				}
			},
			"userdoc": {
				"kind": "user",
				"methods": {},
				"version": 1
			}
		}
	}
}