{
	"contracts/Ciberseguridad/Event.sol": {
		"Event": {
			"abi": [
				{
					"inputs": [
						{
							"internalType": "uint256",
							"name": "_threshold",
							"type": "uint256"
						}
					],
					"stateMutability": "nonpayable",
					"type": "constructor"
				},
				{
					"anonymous": false,
					"inputs": [
						{
							"indexed": false,
							"internalType": "string",
							"name": "_event",
							"type": "string"
						}
					],
					"name": "newEventCreated",
					"type": "event"
				},
				{
					"inputs": [
						{
							"internalType": "address",
							"name": "",
							"type": "address"
						},
						{
							"internalType": "uint256",
							"name": "",
							"type": "uint256"
						}
					],
					"name": "events",
					"outputs": [
						{
							"internalType": "string",
							"name": "",
							"type": "string"
						}
					],
					"stateMutability": "view",
					"type": "function"
				},
				{
					"inputs": [
						{
							"internalType": "address",
							"name": "",
							"type": "address"
						}
					],
					"name": "eventsCounter",
					"outputs": [
						{
							"internalType": "uint256",
							"name": "",
							"type": "uint256"
						}
					],
					"stateMutability": "view",
					"type": "function"
				},
				{
					"inputs": [],
					"name": "threshold",
					"outputs": [
						{
							"internalType": "uint256",
							"name": "",
							"type": "uint256"
						}
					],
					"stateMutability": "view",
					"type": "function"
				}
			],
			"devdoc": {
				"kind": "dev",
				"methods": {},
				"version": 1
			},
			"evm": {
				"assembly": "    /* \"contracts/Ciberseguridad/Event.sol\":72:536  contract Event {\r... */\n  mstore(0x40, 0x80)\n    /* \"contracts/Ciberseguridad/Event.sol\":417:521  constructor(uint256 _threshold) {\r... */\n  callvalue\n  dup1\n  iszero\n  tag_1\n  jumpi\n  0x00\n  dup1\n  revert\ntag_1:\n  pop\n  mload(0x40)\n  sub(codesize, bytecodeSize)\n  dup1\n  bytecodeSize\n  dup4\n  codecopy\n  dup2\n  dup2\n  add\n  0x40\n  mstore\n  dup2\n  add\n  swap1\n  tag_2\n  swap2\n  swap1\n  tag_3\n  jump\t// in\ntag_2:\n    /* \"contracts/Ciberseguridad/Event.sol\":474:484  _threshold */\n  dup1\n    /* \"contracts/Ciberseguridad/Event.sol\":462:471  threshold */\n  0x02\n    /* \"contracts/Ciberseguridad/Event.sol\":462:484  threshold = _threshold */\n  dup2\n  swap1\n  sstore\n  pop\n    /* \"contracts/Ciberseguridad/Event.sol\":503:513  msg.sender */\n  caller\n    /* \"contracts/Ciberseguridad/Event.sol\":495:500  owner */\n  0x03\n  0x00\n    /* \"contracts/Ciberseguridad/Event.sol\":495:513  owner = msg.sender */\n  0x0100\n  exp\n  dup2\n  sload\n  dup2\n  0xffffffffffffffffffffffffffffffffffffffff\n  mul\n  not\n  and\n  swap1\n  dup4\n  0xffffffffffffffffffffffffffffffffffffffff\n  and\n  mul\n  or\n  swap1\n  sstore\n  pop\n    /* \"contracts/Ciberseguridad/Event.sol\":417:521  constructor(uint256 _threshold) {\r... */\n  pop\n    /* \"contracts/Ciberseguridad/Event.sol\":72:536  contract Event {\r... */\n  jump(tag_6)\n    /* \"#utility.yul\":7:150   */\ntag_8:\n    /* \"#utility.yul\":64:69   */\n  0x00\n    /* \"#utility.yul\":95:101   */\n  dup2\n    /* \"#utility.yul\":89:102   */\n  mload\n    /* \"#utility.yul\":80:102   */\n  swap1\n  pop\n    /* \"#utility.yul\":111:144   */\n  tag_10\n    /* \"#utility.yul\":138:143   */\n  dup2\n    /* \"#utility.yul\":111:144   */\n  tag_11\n  jump\t// in\ntag_10:\n    /* \"#utility.yul\":7:150   */\n  swap3\n  swap2\n  pop\n  pop\n  jump\t// out\n    /* \"#utility.yul\":156:507   */\ntag_3:\n    /* \"#utility.yul\":226:232   */\n  0x00\n    /* \"#utility.yul\":275:277   */\n  0x20\n    /* \"#utility.yul\":263:272   */\n  dup3\n    /* \"#utility.yul\":254:261   */\n  dup5\n    /* \"#utility.yul\":250:273   */\n  sub\n    /* \"#utility.yul\":246:278   */\n  slt\n    /* \"#utility.yul\":243:362   */\n  iszero\n  tag_13\n  jumpi\n    /* \"#utility.yul\":281:360   */\n  tag_14\n  tag_15\n  jump\t// in\ntag_14:\n    /* \"#utility.yul\":243:362   */\ntag_13:\n    /* \"#utility.yul\":401:402   */\n  0x00\n    /* \"#utility.yul\":426:490   */\n  tag_16\n    /* \"#utility.yul\":482:489   */\n  dup5\n    /* \"#utility.yul\":473:479   */\n  dup3\n    /* \"#utility.yul\":462:471   */\n  dup6\n    /* \"#utility.yul\":458:480   */\n  add\n    /* \"#utility.yul\":426:490   */\n  tag_8\n  jump\t// in\ntag_16:\n    /* \"#utility.yul\":416:490   */\n  swap2\n  pop\n    /* \"#utility.yul\":372:500   */\n  pop\n    /* \"#utility.yul\":156:507   */\n  swap3\n  swap2\n  pop\n  pop\n  jump\t// out\n    /* \"#utility.yul\":594:671   */\ntag_19:\n    /* \"#utility.yul\":631:638   */\n  0x00\n    /* \"#utility.yul\":660:665   */\n  dup2\n    /* \"#utility.yul\":649:665   */\n  swap1\n  pop\n    /* \"#utility.yul\":594:671   */\n  swap2\n  swap1\n  pop\n  jump\t// out\n    /* \"#utility.yul\":800:917   */\ntag_15:\n    /* \"#utility.yul\":909:910   */\n  0x00\n    /* \"#utility.yul\":906:907   */\n  dup1\n    /* \"#utility.yul\":899:911   */\n  revert\n    /* \"#utility.yul\":923:1045   */\ntag_11:\n    /* \"#utility.yul\":996:1020   */\n  tag_25\n    /* \"#utility.yul\":1014:1019   */\n  dup2\n    /* \"#utility.yul\":996:1020   */\n  tag_19\n  jump\t// in\ntag_25:\n    /* \"#utility.yul\":989:994   */\n  dup2\n    /* \"#utility.yul\":986:1021   */\n  eq\n    /* \"#utility.yul\":976:1039   */\n  tag_26\n  jumpi\n    /* \"#utility.yul\":1035:1036   */\n  0x00\n    /* \"#utility.yul\":1032:1033   */\n  dup1\n    /* \"#utility.yul\":1025:1037   */\n  revert\n    /* \"#utility.yul\":976:1039   */\ntag_26:\n    /* \"#utility.yul\":923:1045   */\n  pop\n  jump\t// out\n    /* \"contracts/Ciberseguridad/Event.sol\":72:536  contract Event {\r... */\ntag_6:\n  dataSize(sub_0)\n  dup1\n  dataOffset(sub_0)\n  0x00\n  codecopy\n  0x00\n  return\nstop\n\nsub_0: assembly {\n        /* \"contracts/Ciberseguridad/Event.sol\":72:536  contract Event {\r... */\n      mstore(0x40, 0x80)\n      callvalue\n      dup1\n      iszero\n      tag_1\n      jumpi\n      0x00\n      dup1\n      revert\n    tag_1:\n      pop\n      jumpi(tag_2, lt(calldatasize, 0x04))\n      shr(0xe0, calldataload(0x00))\n      dup1\n      0x0ad3430e\n      eq\n      tag_3\n      jumpi\n      dup1\n      0x42cde4e8\n      eq\n      tag_4\n      jumpi\n      dup1\n      0x74dcdc63\n      eq\n      tag_5\n      jumpi\n    tag_2:\n      0x00\n      dup1\n      revert\n        /* \"contracts/Ciberseguridad/Event.sol\":209:257  mapping(address => uint256) public eventsCounter */\n    tag_3:\n      tag_6\n      0x04\n      dup1\n      calldatasize\n      sub\n      dup2\n      add\n      swap1\n      tag_7\n      swap2\n      swap1\n      tag_8\n      jump\t// in\n    tag_7:\n      tag_9\n      jump\t// in\n    tag_6:\n      mload(0x40)\n      tag_10\n      swap2\n      swap1\n      tag_11\n      jump\t// in\n    tag_10:\n      mload(0x40)\n      dup1\n      swap2\n      sub\n      swap1\n      return\n        /* \"contracts/Ciberseguridad/Event.sol\":264:288  uint256 public threshold */\n    tag_4:\n      tag_12\n      tag_13\n      jump\t// in\n    tag_12:\n      mload(0x40)\n      tag_14\n      swap2\n      swap1\n      tag_11\n      jump\t// in\n    tag_14:\n      mload(0x40)\n      dup1\n      swap2\n      sub\n      swap1\n      return\n        /* \"contracts/Ciberseguridad/Event.sol\":141:202  mapping(address => mapping (uint256 => string)) public events */\n    tag_5:\n      tag_15\n      0x04\n      dup1\n      calldatasize\n      sub\n      dup2\n      add\n      swap1\n      tag_16\n      swap2\n      swap1\n      tag_17\n      jump\t// in\n    tag_16:\n      tag_18\n      jump\t// in\n    tag_15:\n      mload(0x40)\n      tag_19\n      swap2\n      swap1\n      tag_20\n      jump\t// in\n    tag_19:\n      mload(0x40)\n      dup1\n      swap2\n      sub\n      swap1\n      return\n        /* \"contracts/Ciberseguridad/Event.sol\":209:257  mapping(address => uint256) public eventsCounter */\n    tag_9:\n      mstore(0x20, 0x01)\n      dup1\n      0x00\n      mstore\n      keccak256(0x00, 0x40)\n      0x00\n      swap2\n      pop\n      swap1\n      pop\n      sload\n      dup2\n      jump\t// out\n        /* \"contracts/Ciberseguridad/Event.sol\":264:288  uint256 public threshold */\n    tag_13:\n      sload(0x02)\n      dup2\n      jump\t// out\n        /* \"contracts/Ciberseguridad/Event.sol\":141:202  mapping(address => mapping (uint256 => string)) public events */\n    tag_18:\n      mstore(0x20, 0x00)\n      dup2\n      0x00\n      mstore\n      mstore(0x20, keccak256(0x00, 0x40))\n      dup1\n      0x00\n      mstore\n      keccak256(0x00, 0x40)\n      0x00\n      swap2\n      pop\n      swap2\n      pop\n      pop\n      dup1\n      sload\n      tag_21\n      swap1\n      tag_22\n      jump\t// in\n    tag_21:\n      dup1\n      0x1f\n      add\n      0x20\n      dup1\n      swap2\n      div\n      mul\n      0x20\n      add\n      mload(0x40)\n      swap1\n      dup2\n      add\n      0x40\n      mstore\n      dup1\n      swap3\n      swap2\n      swap1\n      dup2\n      dup2\n      mstore\n      0x20\n      add\n      dup3\n      dup1\n      sload\n      tag_23\n      swap1\n      tag_22\n      jump\t// in\n    tag_23:\n      dup1\n      iszero\n      tag_24\n      jumpi\n      dup1\n      0x1f\n      lt\n      tag_25\n      jumpi\n      0x0100\n      dup1\n      dup4\n      sload\n      div\n      mul\n      dup4\n      mstore\n      swap2\n      0x20\n      add\n      swap2\n      jump(tag_24)\n    tag_25:\n      dup3\n      add\n      swap2\n      swap1\n      0x00\n      mstore\n      keccak256(0x00, 0x20)\n      swap1\n    tag_26:\n      dup2\n      sload\n      dup2\n      mstore\n      swap1\n      0x01\n      add\n      swap1\n      0x20\n      add\n      dup1\n      dup4\n      gt\n      tag_26\n      jumpi\n      dup3\n      swap1\n      sub\n      0x1f\n      and\n      dup3\n      add\n      swap2\n    tag_24:\n      pop\n      pop\n      pop\n      pop\n      pop\n      dup2\n      jump\t// out\n        /* \"#utility.yul\":7:146   */\n    tag_28:\n        /* \"#utility.yul\":53:58   */\n      0x00\n        /* \"#utility.yul\":91:97   */\n      dup2\n        /* \"#utility.yul\":78:98   */\n      calldataload\n        /* \"#utility.yul\":69:98   */\n      swap1\n      pop\n        /* \"#utility.yul\":107:140   */\n      tag_30\n        /* \"#utility.yul\":134:139   */\n      dup2\n        /* \"#utility.yul\":107:140   */\n      tag_31\n      jump\t// in\n    tag_30:\n        /* \"#utility.yul\":7:146   */\n      swap3\n      swap2\n      pop\n      pop\n      jump\t// out\n        /* \"#utility.yul\":152:291   */\n    tag_32:\n        /* \"#utility.yul\":198:203   */\n      0x00\n        /* \"#utility.yul\":236:242   */\n      dup2\n        /* \"#utility.yul\":223:243   */\n      calldataload\n        /* \"#utility.yul\":214:243   */\n      swap1\n      pop\n        /* \"#utility.yul\":252:285   */\n      tag_34\n        /* \"#utility.yul\":279:284   */\n      dup2\n        /* \"#utility.yul\":252:285   */\n      tag_35\n      jump\t// in\n    tag_34:\n        /* \"#utility.yul\":152:291   */\n      swap3\n      swap2\n      pop\n      pop\n      jump\t// out\n        /* \"#utility.yul\":297:626   */\n    tag_8:\n        /* \"#utility.yul\":356:362   */\n      0x00\n        /* \"#utility.yul\":405:407   */\n      0x20\n        /* \"#utility.yul\":393:402   */\n      dup3\n        /* \"#utility.yul\":384:391   */\n      dup5\n        /* \"#utility.yul\":380:403   */\n      sub\n        /* \"#utility.yul\":376:408   */\n      slt\n        /* \"#utility.yul\":373:492   */\n      iszero\n      tag_37\n      jumpi\n        /* \"#utility.yul\":411:490   */\n      tag_38\n      tag_39\n      jump\t// in\n    tag_38:\n        /* \"#utility.yul\":373:492   */\n    tag_37:\n        /* \"#utility.yul\":531:532   */\n      0x00\n        /* \"#utility.yul\":556:609   */\n      tag_40\n        /* \"#utility.yul\":601:608   */\n      dup5\n        /* \"#utility.yul\":592:598   */\n      dup3\n        /* \"#utility.yul\":581:590   */\n      dup6\n        /* \"#utility.yul\":577:599   */\n      add\n        /* \"#utility.yul\":556:609   */\n      tag_28\n      jump\t// in\n    tag_40:\n        /* \"#utility.yul\":546:609   */\n      swap2\n      pop\n        /* \"#utility.yul\":502:619   */\n      pop\n        /* \"#utility.yul\":297:626   */\n      swap3\n      swap2\n      pop\n      pop\n      jump\t// out\n        /* \"#utility.yul\":632:1106   */\n    tag_17:\n        /* \"#utility.yul\":700:706   */\n      0x00\n        /* \"#utility.yul\":708:714   */\n      dup1\n        /* \"#utility.yul\":757:759   */\n      0x40\n        /* \"#utility.yul\":745:754   */\n      dup4\n        /* \"#utility.yul\":736:743   */\n      dup6\n        /* \"#utility.yul\":732:755   */\n      sub\n        /* \"#utility.yul\":728:760   */\n      slt\n        /* \"#utility.yul\":725:844   */\n      iszero\n      tag_42\n      jumpi\n        /* \"#utility.yul\":763:842   */\n      tag_43\n      tag_39\n      jump\t// in\n    tag_43:\n        /* \"#utility.yul\":725:844   */\n    tag_42:\n        /* \"#utility.yul\":883:884   */\n      0x00\n        /* \"#utility.yul\":908:961   */\n      tag_44\n        /* \"#utility.yul\":953:960   */\n      dup6\n        /* \"#utility.yul\":944:950   */\n      dup3\n        /* \"#utility.yul\":933:942   */\n      dup7\n        /* \"#utility.yul\":929:951   */\n      add\n        /* \"#utility.yul\":908:961   */\n      tag_28\n      jump\t// in\n    tag_44:\n        /* \"#utility.yul\":898:961   */\n      swap3\n      pop\n        /* \"#utility.yul\":854:971   */\n      pop\n        /* \"#utility.yul\":1010:1012   */\n      0x20\n        /* \"#utility.yul\":1036:1089   */\n      tag_45\n        /* \"#utility.yul\":1081:1088   */\n      dup6\n        /* \"#utility.yul\":1072:1078   */\n      dup3\n        /* \"#utility.yul\":1061:1070   */\n      dup7\n        /* \"#utility.yul\":1057:1079   */\n      add\n        /* \"#utility.yul\":1036:1089   */\n      tag_32\n      jump\t// in\n    tag_45:\n        /* \"#utility.yul\":1026:1089   */\n      swap2\n      pop\n        /* \"#utility.yul\":981:1099   */\n      pop\n        /* \"#utility.yul\":632:1106   */\n      swap3\n      pop\n      swap3\n      swap1\n      pop\n      jump\t// out\n        /* \"#utility.yul\":1112:1476   */\n    tag_46:\n        /* \"#utility.yul\":1200:1203   */\n      0x00\n        /* \"#utility.yul\":1228:1267   */\n      tag_48\n        /* \"#utility.yul\":1261:1266   */\n      dup3\n        /* \"#utility.yul\":1228:1267   */\n      tag_49\n      jump\t// in\n    tag_48:\n        /* \"#utility.yul\":1283:1354   */\n      tag_50\n        /* \"#utility.yul\":1347:1353   */\n      dup2\n        /* \"#utility.yul\":1342:1345   */\n      dup6\n        /* \"#utility.yul\":1283:1354   */\n      tag_51\n      jump\t// in\n    tag_50:\n        /* \"#utility.yul\":1276:1354   */\n      swap4\n      pop\n        /* \"#utility.yul\":1363:1415   */\n      tag_52\n        /* \"#utility.yul\":1408:1414   */\n      dup2\n        /* \"#utility.yul\":1403:1406   */\n      dup6\n        /* \"#utility.yul\":1396:1400   */\n      0x20\n        /* \"#utility.yul\":1389:1394   */\n      dup7\n        /* \"#utility.yul\":1385:1401   */\n      add\n        /* \"#utility.yul\":1363:1415   */\n      tag_53\n      jump\t// in\n    tag_52:\n        /* \"#utility.yul\":1440:1469   */\n      tag_54\n        /* \"#utility.yul\":1462:1468   */\n      dup2\n        /* \"#utility.yul\":1440:1469   */\n      tag_55\n      jump\t// in\n    tag_54:\n        /* \"#utility.yul\":1435:1438   */\n      dup5\n        /* \"#utility.yul\":1431:1470   */\n      add\n        /* \"#utility.yul\":1424:1470   */\n      swap2\n      pop\n        /* \"#utility.yul\":1204:1476   */\n      pop\n        /* \"#utility.yul\":1112:1476   */\n      swap3\n      swap2\n      pop\n      pop\n      jump\t// out\n        /* \"#utility.yul\":1482:1600   */\n    tag_56:\n        /* \"#utility.yul\":1569:1593   */\n      tag_58\n        /* \"#utility.yul\":1587:1592   */\n      dup2\n        /* \"#utility.yul\":1569:1593   */\n      tag_59\n      jump\t// in\n    tag_58:\n        /* \"#utility.yul\":1564:1567   */\n      dup3\n        /* \"#utility.yul\":1557:1594   */\n      mstore\n        /* \"#utility.yul\":1482:1600   */\n      pop\n      pop\n      jump\t// out\n        /* \"#utility.yul\":1606:1919   */\n    tag_20:\n        /* \"#utility.yul\":1719:1723   */\n      0x00\n        /* \"#utility.yul\":1757:1759   */\n      0x20\n        /* \"#utility.yul\":1746:1755   */\n      dup3\n        /* \"#utility.yul\":1742:1760   */\n      add\n        /* \"#utility.yul\":1734:1760   */\n      swap1\n      pop\n        /* \"#utility.yul\":1806:1815   */\n      dup2\n        /* \"#utility.yul\":1800:1804   */\n      dup2\n        /* \"#utility.yul\":1796:1816   */\n      sub\n        /* \"#utility.yul\":1792:1793   */\n      0x00\n        /* \"#utility.yul\":1781:1790   */\n      dup4\n        /* \"#utility.yul\":1777:1794   */\n      add\n        /* \"#utility.yul\":1770:1817   */\n      mstore\n        /* \"#utility.yul\":1834:1912   */\n      tag_61\n        /* \"#utility.yul\":1907:1911   */\n      dup2\n        /* \"#utility.yul\":1898:1904   */\n      dup5\n        /* \"#utility.yul\":1834:1912   */\n      tag_46\n      jump\t// in\n    tag_61:\n        /* \"#utility.yul\":1826:1912   */\n      swap1\n      pop\n        /* \"#utility.yul\":1606:1919   */\n      swap3\n      swap2\n      pop\n      pop\n      jump\t// out\n        /* \"#utility.yul\":1925:2147   */\n    tag_11:\n        /* \"#utility.yul\":2018:2022   */\n      0x00\n        /* \"#utility.yul\":2056:2058   */\n      0x20\n        /* \"#utility.yul\":2045:2054   */\n      dup3\n        /* \"#utility.yul\":2041:2059   */\n      add\n        /* \"#utility.yul\":2033:2059   */\n      swap1\n      pop\n        /* \"#utility.yul\":2069:2140   */\n      tag_63\n        /* \"#utility.yul\":2137:2138   */\n      0x00\n        /* \"#utility.yul\":2126:2135   */\n      dup4\n        /* \"#utility.yul\":2122:2139   */\n      add\n        /* \"#utility.yul\":2113:2119   */\n      dup5\n        /* \"#utility.yul\":2069:2140   */\n      tag_56\n      jump\t// in\n    tag_63:\n        /* \"#utility.yul\":1925:2147   */\n      swap3\n      swap2\n      pop\n      pop\n      jump\t// out\n        /* \"#utility.yul\":2234:2333   */\n    tag_49:\n        /* \"#utility.yul\":2286:2292   */\n      0x00\n        /* \"#utility.yul\":2320:2325   */\n      dup2\n        /* \"#utility.yul\":2314:2326   */\n      mload\n        /* \"#utility.yul\":2304:2326   */\n      swap1\n      pop\n        /* \"#utility.yul\":2234:2333   */\n      swap2\n      swap1\n      pop\n      jump\t// out\n        /* \"#utility.yul\":2339:2508   */\n    tag_51:\n        /* \"#utility.yul\":2423:2434   */\n      0x00\n        /* \"#utility.yul\":2457:2463   */\n      dup3\n        /* \"#utility.yul\":2452:2455   */\n      dup3\n        /* \"#utility.yul\":2445:2464   */\n      mstore\n        /* \"#utility.yul\":2497:2501   */\n      0x20\n        /* \"#utility.yul\":2492:2495   */\n      dup3\n        /* \"#utility.yul\":2488:2502   */\n      add\n        /* \"#utility.yul\":2473:2502   */\n      swap1\n      pop\n        /* \"#utility.yul\":2339:2508   */\n      swap3\n      swap2\n      pop\n      pop\n      jump\t// out\n        /* \"#utility.yul\":2514:2610   */\n    tag_68:\n        /* \"#utility.yul\":2551:2558   */\n      0x00\n        /* \"#utility.yul\":2580:2604   */\n      tag_70\n        /* \"#utility.yul\":2598:2603   */\n      dup3\n        /* \"#utility.yul\":2580:2604   */\n      tag_71\n      jump\t// in\n    tag_70:\n        /* \"#utility.yul\":2569:2604   */\n      swap1\n      pop\n        /* \"#utility.yul\":2514:2610   */\n      swap2\n      swap1\n      pop\n      jump\t// out\n        /* \"#utility.yul\":2616:2742   */\n    tag_71:\n        /* \"#utility.yul\":2653:2660   */\n      0x00\n        /* \"#utility.yul\":2693:2735   */\n      0xffffffffffffffffffffffffffffffffffffffff\n        /* \"#utility.yul\":2686:2691   */\n      dup3\n        /* \"#utility.yul\":2682:2736   */\n      and\n        /* \"#utility.yul\":2671:2736   */\n      swap1\n      pop\n        /* \"#utility.yul\":2616:2742   */\n      swap2\n      swap1\n      pop\n      jump\t// out\n        /* \"#utility.yul\":2748:2825   */\n    tag_59:\n        /* \"#utility.yul\":2785:2792   */\n      0x00\n        /* \"#utility.yul\":2814:2819   */\n      dup2\n        /* \"#utility.yul\":2803:2819   */\n      swap1\n      pop\n        /* \"#utility.yul\":2748:2825   */\n      swap2\n      swap1\n      pop\n      jump\t// out\n        /* \"#utility.yul\":2831:3138   */\n    tag_53:\n        /* \"#utility.yul\":2899:2900   */\n      0x00\n        /* \"#utility.yul\":2909:3022   */\n    tag_75:\n        /* \"#utility.yul\":2923:2929   */\n      dup4\n        /* \"#utility.yul\":2920:2921   */\n      dup2\n        /* \"#utility.yul\":2917:2930   */\n      lt\n        /* \"#utility.yul\":2909:3022   */\n      iszero\n      tag_77\n      jumpi\n        /* \"#utility.yul\":3008:3009   */\n      dup1\n        /* \"#utility.yul\":3003:3006   */\n      dup3\n        /* \"#utility.yul\":2999:3010   */\n      add\n        /* \"#utility.yul\":2993:3011   */\n      mload\n        /* \"#utility.yul\":2989:2990   */\n      dup2\n        /* \"#utility.yul\":2984:2987   */\n      dup5\n        /* \"#utility.yul\":2980:2991   */\n      add\n        /* \"#utility.yul\":2973:3012   */\n      mstore\n        /* \"#utility.yul\":2945:2947   */\n      0x20\n        /* \"#utility.yul\":2942:2943   */\n      dup2\n        /* \"#utility.yul\":2938:2948   */\n      add\n        /* \"#utility.yul\":2933:2948   */\n      swap1\n      pop\n        /* \"#utility.yul\":2909:3022   */\n      jump(tag_75)\n    tag_77:\n        /* \"#utility.yul\":3040:3046   */\n      dup4\n        /* \"#utility.yul\":3037:3038   */\n      dup2\n        /* \"#utility.yul\":3034:3047   */\n      gt\n        /* \"#utility.yul\":3031:3132   */\n      iszero\n      tag_78\n      jumpi\n        /* \"#utility.yul\":3120:3121   */\n      0x00\n        /* \"#utility.yul\":3111:3117   */\n      dup5\n        /* \"#utility.yul\":3106:3109   */\n      dup5\n        /* \"#utility.yul\":3102:3118   */\n      add\n        /* \"#utility.yul\":3095:3122   */\n      mstore\n        /* \"#utility.yul\":3031:3132   */\n    tag_78:\n        /* \"#utility.yul\":2880:3138   */\n      pop\n        /* \"#utility.yul\":2831:3138   */\n      pop\n      pop\n      pop\n      jump\t// out\n        /* \"#utility.yul\":3144:3464   */\n    tag_22:\n        /* \"#utility.yul\":3188:3194   */\n      0x00\n        /* \"#utility.yul\":3225:3226   */\n      0x02\n        /* \"#utility.yul\":3219:3223   */\n      dup3\n        /* \"#utility.yul\":3215:3227   */\n      div\n        /* \"#utility.yul\":3205:3227   */\n      swap1\n      pop\n        /* \"#utility.yul\":3272:3273   */\n      0x01\n        /* \"#utility.yul\":3266:3270   */\n      dup3\n        /* \"#utility.yul\":3262:3274   */\n      and\n        /* \"#utility.yul\":3293:3311   */\n      dup1\n        /* \"#utility.yul\":3283:3364   */\n      tag_80\n      jumpi\n        /* \"#utility.yul\":3349:3353   */\n      0x7f\n        /* \"#utility.yul\":3341:3347   */\n      dup3\n        /* \"#utility.yul\":3337:3354   */\n      and\n        /* \"#utility.yul\":3327:3354   */\n      swap2\n      pop\n        /* \"#utility.yul\":3283:3364   */\n    tag_80:\n        /* \"#utility.yul\":3411:3413   */\n      0x20\n        /* \"#utility.yul\":3403:3409   */\n      dup3\n        /* \"#utility.yul\":3400:3414   */\n      lt\n        /* \"#utility.yul\":3380:3398   */\n      dup2\n        /* \"#utility.yul\":3377:3415   */\n      eq\n        /* \"#utility.yul\":3374:3458   */\n      iszero\n      tag_81\n      jumpi\n        /* \"#utility.yul\":3430:3448   */\n      tag_82\n      tag_83\n      jump\t// in\n    tag_82:\n        /* \"#utility.yul\":3374:3458   */\n    tag_81:\n        /* \"#utility.yul\":3195:3464   */\n      pop\n        /* \"#utility.yul\":3144:3464   */\n      swap2\n      swap1\n      pop\n      jump\t// out\n        /* \"#utility.yul\":3470:3650   */\n    tag_83:\n        /* \"#utility.yul\":3518:3595   */\n      0x4e487b7100000000000000000000000000000000000000000000000000000000\n        /* \"#utility.yul\":3515:3516   */\n      0x00\n        /* \"#utility.yul\":3508:3596   */\n      mstore\n        /* \"#utility.yul\":3615:3619   */\n      0x22\n        /* \"#utility.yul\":3612:3613   */\n      0x04\n        /* \"#utility.yul\":3605:3620   */\n      mstore\n        /* \"#utility.yul\":3639:3643   */\n      0x24\n        /* \"#utility.yul\":3636:3637   */\n      0x00\n        /* \"#utility.yul\":3629:3644   */\n      revert\n        /* \"#utility.yul\":3779:3896   */\n    tag_39:\n        /* \"#utility.yul\":3888:3889   */\n      0x00\n        /* \"#utility.yul\":3885:3886   */\n      dup1\n        /* \"#utility.yul\":3878:3890   */\n      revert\n        /* \"#utility.yul\":3902:4004   */\n    tag_55:\n        /* \"#utility.yul\":3943:3949   */\n      0x00\n        /* \"#utility.yul\":3994:3996   */\n      0x1f\n        /* \"#utility.yul\":3990:3997   */\n      not\n        /* \"#utility.yul\":3985:3987   */\n      0x1f\n        /* \"#utility.yul\":3978:3983   */\n      dup4\n        /* \"#utility.yul\":3974:3988   */\n      add\n        /* \"#utility.yul\":3970:3998   */\n      and\n        /* \"#utility.yul\":3960:3998   */\n      swap1\n      pop\n        /* \"#utility.yul\":3902:4004   */\n      swap2\n      swap1\n      pop\n      jump\t// out\n        /* \"#utility.yul\":4010:4132   */\n    tag_31:\n        /* \"#utility.yul\":4083:4107   */\n      tag_90\n        /* \"#utility.yul\":4101:4106   */\n      dup2\n        /* \"#utility.yul\":4083:4107   */\n      tag_68\n      jump\t// in\n    tag_90:\n        /* \"#utility.yul\":4076:4081   */\n      dup2\n        /* \"#utility.yul\":4073:4108   */\n      eq\n        /* \"#utility.yul\":4063:4126   */\n      tag_91\n      jumpi\n        /* \"#utility.yul\":4122:4123   */\n      0x00\n        /* \"#utility.yul\":4119:4120   */\n      dup1\n        /* \"#utility.yul\":4112:4124   */\n      revert\n        /* \"#utility.yul\":4063:4126   */\n    tag_91:\n        /* \"#utility.yul\":4010:4132   */\n      pop\n      jump\t// out\n        /* \"#utility.yul\":4138:4260   */\n    tag_35:\n        /* \"#utility.yul\":4211:4235   */\n      tag_93\n        /* \"#utility.yul\":4229:4234   */\n      dup2\n        /* \"#utility.yul\":4211:4235   */\n      tag_59\n      jump\t// in\n    tag_93:\n        /* \"#utility.yul\":4204:4209   */\n      dup2\n        /* \"#utility.yul\":4201:4236   */\n      eq\n        /* \"#utility.yul\":4191:4254   */\n      tag_94\n      jumpi\n        /* \"#utility.yul\":4250:4251   */\n      0x00\n        /* \"#utility.yul\":4247:4248   */\n      dup1\n        /* \"#utility.yul\":4240:4252   */\n      revert\n        /* \"#utility.yul\":4191:4254   */\n    tag_94:\n        /* \"#utility.yul\":4138:4260   */\n      pop\n      jump\t// out\n\n    auxdata: 0xa2646970667358221220a0d6fda7d0b9dbf3fb97b88ad8056168d70d4f7eac28b1a0f45d7f2b44b9c3e264736f6c63430008070033\n}\n",
				"bytecode": {
					"linkReferences": {},
					"object": "608060405234801561001057600080fd5b5060405161050838038061050883398181016040528101906100329190610095565b8060028190555033600360006101000a81548173ffffffffffffffffffffffffffffffffffffffff021916908373ffffffffffffffffffffffffffffffffffffffff160217905550506100e8565b60008151905061008f816100d1565b92915050565b6000602082840312156100ab576100aa6100cc565b5b60006100b984828501610080565b91505092915050565b6000819050919050565b600080fd5b6100da816100c2565b81146100e557600080fd5b50565b610411806100f76000396000f3fe608060405234801561001057600080fd5b50600436106100415760003560e01c80630ad3430e1461004657806342cde4e81461007657806374dcdc6314610094575b600080fd5b610060600480360381019061005b91906101b9565b6100c4565b60405161006d9190610290565b60405180910390f35b61007e6100dc565b60405161008b9190610290565b60405180910390f35b6100ae60048036038101906100a991906101e6565b6100e2565b6040516100bb919061026e565b60405180910390f35b60016020528060005260406000206000915090505481565b60025481565b600060205281600052604060002060205280600052604060002060009150915050805461010e90610336565b80601f016020809104026020016040519081016040528092919081815260200182805461013a90610336565b80156101875780601f1061015c57610100808354040283529160200191610187565b820191906000526020600020905b81548152906001019060200180831161016a57829003601f168201915b505050505081565b60008135905061019e816103ad565b92915050565b6000813590506101b3816103c4565b92915050565b6000602082840312156101cf576101ce610397565b5b60006101dd8482850161018f565b91505092915050565b600080604083850312156101fd576101fc610397565b5b600061020b8582860161018f565b925050602061021c858286016101a4565b9150509250929050565b6000610231826102ab565b61023b81856102b6565b935061024b818560208601610303565b6102548161039c565b840191505092915050565b610268816102f9565b82525050565b600060208201905081810360008301526102888184610226565b905092915050565b60006020820190506102a5600083018461025f565b92915050565b600081519050919050565b600082825260208201905092915050565b60006102d2826102d9565b9050919050565b600073ffffffffffffffffffffffffffffffffffffffff82169050919050565b6000819050919050565b60005b83811015610321578082015181840152602081019050610306565b83811115610330576000848401525b50505050565b6000600282049050600182168061034e57607f821691505b6020821081141561036257610361610368565b5b50919050565b7f4e487b7100000000000000000000000000000000000000000000000000000000600052602260045260246000fd5b600080fd5b6000601f19601f8301169050919050565b6103b6816102c7565b81146103c157600080fd5b50565b6103cd816102f9565b81146103d857600080fd5b5056fea2646970667358221220a0d6fda7d0b9dbf3fb97b88ad8056168d70d4f7eac28b1a0f45d7f2b44b9c3e264736f6c63430008070033",
					"opcodes": "PUSH1 0x80 PUSH1 0x40 MSTORE CALLVALUE DUP1 ISZERO PUSH2 0x10 JUMPI PUSH1 0x0 DUP1 REVERT JUMPDEST POP PUSH1 0x40 MLOAD PUSH2 0x508 CODESIZE SUB DUP1 PUSH2 0x508 DUP4 CODECOPY DUP2 DUP2 ADD PUSH1 0x40 MSTORE DUP2 ADD SWAP1 PUSH2 0x32 SWAP2 SWAP1 PUSH2 0x95 JUMP JUMPDEST DUP1 PUSH1 0x2 DUP2 SWAP1 SSTORE POP CALLER PUSH1 0x3 PUSH1 0x0 PUSH2 0x100 EXP DUP2 SLOAD DUP2 PUSH20 0xFFFFFFFFFFFFFFFFFFFFFFFFFFFFFFFFFFFFFFFF MUL NOT AND SWAP1 DUP4 PUSH20 0xFFFFFFFFFFFFFFFFFFFFFFFFFFFFFFFFFFFFFFFF AND MUL OR SWAP1 SSTORE POP POP PUSH2 0xE8 JUMP JUMPDEST PUSH1 0x0 DUP2 MLOAD SWAP1 POP PUSH2 0x8F DUP2 PUSH2 0xD1 JUMP JUMPDEST SWAP3 SWAP2 POP POP JUMP JUMPDEST PUSH1 0x0 PUSH1 0x20 DUP3 DUP5 SUB SLT ISZERO PUSH2 0xAB JUMPI PUSH2 0xAA PUSH2 0xCC JUMP JUMPDEST JUMPDEST PUSH1 0x0 PUSH2 0xB9 DUP5 DUP3 DUP6 ADD PUSH2 0x80 JUMP JUMPDEST SWAP2 POP POP SWAP3 SWAP2 POP POP JUMP JUMPDEST PUSH1 0x0 DUP2 SWAP1 POP SWAP2 SWAP1 POP JUMP JUMPDEST PUSH1 0x0 DUP1 REVERT JUMPDEST PUSH2 0xDA DUP2 PUSH2 0xC2 JUMP JUMPDEST DUP2 EQ PUSH2 0xE5 JUMPI PUSH1 0x0 DUP1 REVERT JUMPDEST POP JUMP JUMPDEST PUSH2 0x411 DUP1 PUSH2 0xF7 PUSH1 0x0 CODECOPY PUSH1 0x0 RETURN INVALID PUSH1 0x80 PUSH1 0x40 MSTORE CALLVALUE DUP1 ISZERO PUSH2 0x10 JUMPI PUSH1 0x0 DUP1 REVERT JUMPDEST POP PUSH1 0x4 CALLDATASIZE LT PUSH2 0x41 JUMPI PUSH1 0x0 CALLDATALOAD PUSH1 0xE0 SHR DUP1 PUSH4 0xAD3430E EQ PUSH2 0x46 JUMPI DUP1 PUSH4 0x42CDE4E8 EQ PUSH2 0x76 JUMPI DUP1 PUSH4 0x74DCDC63 EQ PUSH2 0x94 JUMPI JUMPDEST PUSH1 0x0 DUP1 REVERT JUMPDEST PUSH2 0x60 PUSH1 0x4 DUP1 CALLDATASIZE SUB DUP2 ADD SWAP1 PUSH2 0x5B SWAP2 SWAP1 PUSH2 0x1B9 JUMP JUMPDEST PUSH2 0xC4 JUMP JUMPDEST PUSH1 0x40 MLOAD PUSH2 0x6D SWAP2 SWAP1 PUSH2 0x290 JUMP JUMPDEST PUSH1 0x40 MLOAD DUP1 SWAP2 SUB SWAP1 RETURN JUMPDEST PUSH2 0x7E PUSH2 0xDC JUMP JUMPDEST PUSH1 0x40 MLOAD PUSH2 0x8B SWAP2 SWAP1 PUSH2 0x290 JUMP JUMPDEST PUSH1 0x40 MLOAD DUP1 SWAP2 SUB SWAP1 RETURN JUMPDEST PUSH2 0xAE PUSH1 0x4 DUP1 CALLDATASIZE SUB DUP2 ADD SWAP1 PUSH2 0xA9 SWAP2 SWAP1 PUSH2 0x1E6 JUMP JUMPDEST PUSH2 0xE2 JUMP JUMPDEST PUSH1 0x40 MLOAD PUSH2 0xBB SWAP2 SWAP1 PUSH2 0x26E JUMP JUMPDEST PUSH1 0x40 MLOAD DUP1 SWAP2 SUB SWAP1 RETURN JUMPDEST PUSH1 0x1 PUSH1 0x20 MSTORE DUP1 PUSH1 0x0 MSTORE PUSH1 0x40 PUSH1 0x0 KECCAK256 PUSH1 0x0 SWAP2 POP SWAP1 POP SLOAD DUP2 JUMP JUMPDEST PUSH1 0x2 SLOAD DUP2 JUMP JUMPDEST PUSH1 0x0 PUSH1 0x20 MSTORE DUP2 PUSH1 0x0 MSTORE PUSH1 0x40 PUSH1 0x0 KECCAK256 PUSH1 0x20 MSTORE DUP1 PUSH1 0x0 MSTORE PUSH1 0x40 PUSH1 0x0 KECCAK256 PUSH1 0x0 SWAP2 POP SWAP2 POP POP DUP1 SLOAD PUSH2 0x10E SWAP1 PUSH2 0x336 JUMP JUMPDEST DUP1 PUSH1 0x1F ADD PUSH1 0x20 DUP1 SWAP2 DIV MUL PUSH1 0x20 ADD PUSH1 0x40 MLOAD SWAP1 DUP2 ADD PUSH1 0x40 MSTORE DUP1 SWAP3 SWAP2 SWAP1 DUP2 DUP2 MSTORE PUSH1 0x20 ADD DUP3 DUP1 SLOAD PUSH2 0x13A SWAP1 PUSH2 0x336 JUMP JUMPDEST DUP1 ISZERO PUSH2 0x187 JUMPI DUP1 PUSH1 0x1F LT PUSH2 0x15C JUMPI PUSH2 0x100 DUP1 DUP4 SLOAD DIV MUL DUP4 MSTORE SWAP2 PUSH1 0x20 ADD SWAP2 PUSH2 0x187 JUMP JUMPDEST DUP3 ADD SWAP2 SWAP1 PUSH1 0x0 MSTORE PUSH1 0x20 PUSH1 0x0 KECCAK256 SWAP1 JUMPDEST DUP2 SLOAD DUP2 MSTORE SWAP1 PUSH1 0x1 ADD SWAP1 PUSH1 0x20 ADD DUP1 DUP4 GT PUSH2 0x16A JUMPI DUP3 SWAP1 SUB PUSH1 0x1F AND DUP3 ADD SWAP2 JUMPDEST POP POP POP POP POP DUP2 JUMP JUMPDEST PUSH1 0x0 DUP2 CALLDATALOAD SWAP1 POP PUSH2 0x19E DUP2 PUSH2 0x3AD JUMP JUMPDEST SWAP3 SWAP2 POP POP JUMP JUMPDEST PUSH1 0x0 DUP2 CALLDATALOAD SWAP1 POP PUSH2 0x1B3 DUP2 PUSH2 0x3C4 JUMP JUMPDEST SWAP3 SWAP2 POP POP JUMP JUMPDEST PUSH1 0x0 PUSH1 0x20 DUP3 DUP5 SUB SLT ISZERO PUSH2 0x1CF JUMPI PUSH2 0x1CE PUSH2 0x397 JUMP JUMPDEST JUMPDEST PUSH1 0x0 PUSH2 0x1DD DUP5 DUP3 DUP6 ADD PUSH2 0x18F JUMP JUMPDEST SWAP2 POP POP SWAP3 SWAP2 POP POP JUMP JUMPDEST PUSH1 0x0 DUP1 PUSH1 0x40 DUP4 DUP6 SUB SLT ISZERO PUSH2 0x1FD JUMPI PUSH2 0x1FC PUSH2 0x397 JUMP JUMPDEST JUMPDEST PUSH1 0x0 PUSH2 0x20B DUP6 DUP3 DUP7 ADD PUSH2 0x18F JUMP JUMPDEST SWAP3 POP POP PUSH1 0x20 PUSH2 0x21C DUP6 DUP3 DUP7 ADD PUSH2 0x1A4 JUMP JUMPDEST SWAP2 POP POP SWAP3 POP SWAP3 SWAP1 POP JUMP JUMPDEST PUSH1 0x0 PUSH2 0x231 DUP3 PUSH2 0x2AB JUMP JUMPDEST PUSH2 0x23B DUP2 DUP6 PUSH2 0x2B6 JUMP JUMPDEST SWAP4 POP PUSH2 0x24B DUP2 DUP6 PUSH1 0x20 DUP7 ADD PUSH2 0x303 JUMP JUMPDEST PUSH2 0x254 DUP2 PUSH2 0x39C JUMP JUMPDEST DUP5 ADD SWAP2 POP POP SWAP3 SWAP2 POP POP JUMP JUMPDEST PUSH2 0x268 DUP2 PUSH2 0x2F9 JUMP JUMPDEST DUP3 MSTORE POP POP JUMP JUMPDEST PUSH1 0x0 PUSH1 0x20 DUP3 ADD SWAP1 POP DUP2 DUP2 SUB PUSH1 0x0 DUP4 ADD MSTORE PUSH2 0x288 DUP2 DUP5 PUSH2 0x226 JUMP JUMPDEST SWAP1 POP SWAP3 SWAP2 POP POP JUMP JUMPDEST PUSH1 0x0 PUSH1 0x20 DUP3 ADD SWAP1 POP PUSH2 0x2A5 PUSH1 0x0 DUP4 ADD DUP5 PUSH2 0x25F JUMP JUMPDEST SWAP3 SWAP2 POP POP JUMP JUMPDEST PUSH1 0x0 DUP2 MLOAD SWAP1 POP SWAP2 SWAP1 POP JUMP JUMPDEST PUSH1 0x0 DUP3 DUP3 MSTORE PUSH1 0x20 DUP3 ADD SWAP1 POP SWAP3 SWAP2 POP POP JUMP JUMPDEST PUSH1 0x0 PUSH2 0x2D2 DUP3 PUSH2 0x2D9 JUMP JUMPDEST SWAP1 POP SWAP2 SWAP1 POP JUMP JUMPDEST PUSH1 0x0 PUSH20 0xFFFFFFFFFFFFFFFFFFFFFFFFFFFFFFFFFFFFFFFF DUP3 AND SWAP1 POP SWAP2 SWAP1 POP JUMP JUMPDEST PUSH1 0x0 DUP2 SWAP1 POP SWAP2 SWAP1 POP JUMP JUMPDEST PUSH1 0x0 JUMPDEST DUP4 DUP2 LT ISZERO PUSH2 0x321 JUMPI DUP1 DUP3 ADD MLOAD DUP2 DUP5 ADD MSTORE PUSH1 0x20 DUP2 ADD SWAP1 POP PUSH2 0x306 JUMP JUMPDEST DUP4 DUP2 GT ISZERO PUSH2 0x330 JUMPI PUSH1 0x0 DUP5 DUP5 ADD MSTORE JUMPDEST POP POP POP POP JUMP JUMPDEST PUSH1 0x0 PUSH1 0x2 DUP3 DIV SWAP1 POP PUSH1 0x1 DUP3 AND DUP1 PUSH2 0x34E JUMPI PUSH1 0x7F DUP3 AND SWAP2 POP JUMPDEST PUSH1 0x20 DUP3 LT DUP2 EQ ISZERO PUSH2 0x362 JUMPI PUSH2 0x361 PUSH2 0x368 JUMP JUMPDEST JUMPDEST POP SWAP2 SWAP1 POP JUMP JUMPDEST PUSH32 0x4E487B7100000000000000000000000000000000000000000000000000000000 PUSH1 0x0 MSTORE PUSH1 0x22 PUSH1 0x4 MSTORE PUSH1 0x24 PUSH1 0x0 REVERT JUMPDEST PUSH1 0x0 DUP1 REVERT JUMPDEST PUSH1 0x0 PUSH1 0x1F NOT PUSH1 0x1F DUP4 ADD AND SWAP1 POP SWAP2 SWAP1 POP JUMP JUMPDEST PUSH2 0x3B6 DUP2 PUSH2 0x2C7 JUMP JUMPDEST DUP2 EQ PUSH2 0x3C1 JUMPI PUSH1 0x0 DUP1 REVERT JUMPDEST POP JUMP JUMPDEST PUSH2 0x3CD DUP2 PUSH2 0x2F9 JUMP JUMPDEST DUP2 EQ PUSH2 0x3D8 JUMPI PUSH1 0x0 DUP1 REVERT JUMPDEST POP JUMP INVALID LOG2 PUSH5 0x6970667358 0x22 SLT KECCAK256 LOG0 0xD6 REVERT 0xA7 0xD0 0xB9 0xDB RETURN 0xFB SWAP8 0xB8 DUP11 0xD8 SDIV PUSH2 0x68D7 0xD 0x4F PUSH31 0xAC28B1A0F45D7F2B44B9C3E264736F6C634300080700330000000000000000 "
				},
				"gasEstimates": {
					"creation": {
						"codeDepositCost": "208200",
						"executionCost": "infinite",
						"totalCost": "infinite"
					},
					"external": {
						"events(address,uint256)": "infinite",
						"eventsCounter(address)": "2792",
						"threshold()": "2429"
					}
				},
				"methodIdentifiers": {
					"events(address,uint256)": "74dcdc63",
					"eventsCounter(address)": "0ad3430e",
					"threshold()": "42cde4e8"
				}
			},
			"storageLayout": {
				"storage": [
					{
						"astId": 11,
						"contract": "contracts/Ciberseguridad/Event.sol:Event",
						"label": "events",
						"offset": 0,
						"slot": "0",
						"type": "t_mapping(t_address,t_mapping(t_uint256,t_string_storage))"
					},
					{
						"astId": 15,
						"contract": "contracts/Ciberseguridad/Event.sol:Event",
						"label": "eventsCounter",
						"offset": 0,
						"slot": "1",
						"type": "t_mapping(t_address,t_uint256)"
					},
					{
						"astId": 17,
						"contract": "contracts/Ciberseguridad/Event.sol:Event",
						"label": "threshold",
						"offset": 0,
						"slot": "2",
						"type": "t_uint256"
					},
					{
						"astId": 19,
						"contract": "contracts/Ciberseguridad/Event.sol:Event",
						"label": "owner",
						"offset": 0,
						"slot": "3",
						"type": "t_address"
					}
				],
				"types": {
					"t_address": {
						"encoding": "inplace",
						"label": "address",
						"numberOfBytes": "20"
					},
					"t_mapping(t_address,t_mapping(t_uint256,t_string_storage))": {
						"encoding": "mapping",
						"key": "t_address",
						"label": "mapping(address => mapping(uint256 => string))",
						"numberOfBytes": "32",
						"value": "t_mapping(t_uint256,t_string_storage)"
					},
					"t_mapping(t_address,t_uint256)": {
						"encoding": "mapping",
						"key": "t_address",
						"label": "mapping(address => uint256)",
						"numberOfBytes": "32",
						"value": "t_uint256"
					},
					"t_mapping(t_uint256,t_string_storage)": {
						"encoding": "mapping",
						"key": "t_uint256",
						"label": "mapping(uint256 => string)",
						"numberOfBytes": "32",
						"value": "t_string_storage"
					},
					"t_string_storage": {
						"encoding": "bytes",
						"label": "string",
						"numberOfBytes": "32"
					},
					"t_uint256": {
						"encoding": "inplace",
						"label": "uint256",
						"numberOfBytes": "32"
					}
				}
			},
			"userdoc": {
				"kind": "user",
				"methods": {},
				"version": 1
			}
		}
	}
}