{
	"contracts/Challenge_vulnerable.sol": {
		"Challenge_vulnerable": {
			"abi": [
				{
					"inputs": [],
					"stateMutability": "nonpayable",
					"type": "constructor"
				},
				{
					"inputs": [],
					"name": "depositar",
					"outputs": [],
					"stateMutability": "payable",
					"type": "function"
				},
				{
					"inputs": [
						{
							"internalType": "uint256",
							"name": "amount",
							"type": "uint256"
						}
					],
					"name": "mint",
					"outputs": [],
					"stateMutability": "nonpayable",
					"type": "function"
				},
				{
					"inputs": [],
					"name": "retirar",
					"outputs": [],
					"stateMutability": "nonpayable",
					"type": "function"
				}
			],
			"devdoc": {
				"kind": "dev",
				"methods": {},
				"version": 1
			},
			"evm": {
				"assembly": "    /* \"contracts/Challenge_vulnerable.sol\":103:949  contract Challenge_vulnerable {\r... */\n  mstore(0x40, 0x80)\n    /* \"contracts/Challenge_vulnerable.sol\":208:259  constructor() {\r... */\n  callvalue\n  dup1\n  iszero\n  tag_1\n  jumpi\n  0x00\n  dup1\n  revert\ntag_1:\n  pop\n    /* \"contracts/Challenge_vulnerable.sol\":241:251  msg.sender */\n  caller\n    /* \"contracts/Challenge_vulnerable.sol\":233:238  owner */\n  0x00\n  dup1\n    /* \"contracts/Challenge_vulnerable.sol\":233:251  owner = msg.sender */\n  0x0100\n  exp\n  dup2\n  sload\n  dup2\n  0xffffffffffffffffffffffffffffffffffffffff\n  mul\n  not\n  and\n  swap1\n  dup4\n  0xffffffffffffffffffffffffffffffffffffffff\n  and\n  mul\n  or\n  swap1\n  sstore\n  pop\n    /* \"contracts/Challenge_vulnerable.sol\":103:949  contract Challenge_vulnerable {\r... */\n  dataSize(sub_0)\n  dup1\n  dataOffset(sub_0)\n  0x00\n  codecopy\n  0x00\n  return\nstop\n\nsub_0: assembly {\n        /* \"contracts/Challenge_vulnerable.sol\":103:949  contract Challenge_vulnerable {\r... */\n      mstore(0x40, 0x80)\n      jumpi(tag_1, lt(calldatasize, 0x04))\n      shr(0xe0, calldataload(0x00))\n      dup1\n      0x3d922f90\n      eq\n      tag_2\n      jumpi\n      dup1\n      0x4735a442\n      eq\n      tag_3\n      jumpi\n      dup1\n      0xa0712d68\n      eq\n      tag_4\n      jumpi\n    tag_1:\n      0x00\n      dup1\n      revert\n        /* \"contracts/Challenge_vulnerable.sol\":426:514  function depositar() public payable{\r... */\n    tag_2:\n      tag_5\n      tag_6\n      jump\t// in\n    tag_5:\n      stop\n        /* \"contracts/Challenge_vulnerable.sol\":522:946  function retirar() public {\r... */\n    tag_3:\n      callvalue\n      dup1\n      iszero\n      tag_7\n      jumpi\n      0x00\n      dup1\n      revert\n    tag_7:\n      pop\n      tag_8\n      tag_9\n      jump\t// in\n    tag_8:\n      stop\n        /* \"contracts/Challenge_vulnerable.sol\":267:418  function mint(uint amount) public {\r... */\n    tag_4:\n      callvalue\n      dup1\n      iszero\n      tag_10\n      jumpi\n      0x00\n      dup1\n      revert\n    tag_10:\n      pop\n      tag_11\n      0x04\n      dup1\n      calldatasize\n      sub\n      dup2\n      add\n      swap1\n      tag_12\n      swap2\n      swap1\n      tag_13\n      jump\t// in\n    tag_12:\n      tag_14\n      jump\t// in\n    tag_11:\n      stop\n        /* \"contracts/Challenge_vulnerable.sol\":426:514  function depositar() public payable{\r... */\n    tag_6:\n        /* \"contracts/Challenge_vulnerable.sol\":496:505  msg.value */\n      callvalue\n        /* \"contracts/Challenge_vulnerable.sol\":472:480  balances */\n      0x01\n        /* \"contracts/Challenge_vulnerable.sol\":472:492  balances[msg.sender] */\n      0x00\n        /* \"contracts/Challenge_vulnerable.sol\":481:491  msg.sender */\n      caller\n        /* \"contracts/Challenge_vulnerable.sol\":472:492  balances[msg.sender] */\n      0xffffffffffffffffffffffffffffffffffffffff\n      and\n      0xffffffffffffffffffffffffffffffffffffffff\n      and\n      dup2\n      mstore\n      0x20\n      add\n      swap1\n      dup2\n      mstore\n      0x20\n      add\n      0x00\n      keccak256\n      0x00\n        /* \"contracts/Challenge_vulnerable.sol\":472:505  balances[msg.sender] += msg.value */\n      dup3\n      dup3\n      sload\n      tag_16\n      swap2\n      swap1\n      tag_17\n      jump\t// in\n    tag_16:\n      swap3\n      pop\n      pop\n      dup2\n      swap1\n      sstore\n      pop\n        /* \"contracts/Challenge_vulnerable.sol\":426:514  function depositar() public payable{\r... */\n      jump\t// out\n        /* \"contracts/Challenge_vulnerable.sol\":522:946  function retirar() public {\r... */\n    tag_9:\n        /* \"contracts/Challenge_vulnerable.sol\":590:591  0 */\n      0x00\n        /* \"contracts/Challenge_vulnerable.sol\":567:575  balances */\n      0x01\n        /* \"contracts/Challenge_vulnerable.sol\":567:587  balances[msg.sender] */\n      0x00\n        /* \"contracts/Challenge_vulnerable.sol\":576:586  msg.sender */\n      caller\n        /* \"contracts/Challenge_vulnerable.sol\":567:587  balances[msg.sender] */\n      0xffffffffffffffffffffffffffffffffffffffff\n      and\n      0xffffffffffffffffffffffffffffffffffffffff\n      and\n      dup2\n      mstore\n      0x20\n      add\n      swap1\n      dup2\n      mstore\n      0x20\n      add\n      0x00\n      keccak256\n      sload\n        /* \"contracts/Challenge_vulnerable.sol\":567:591  balances[msg.sender] > 0 */\n      gt\n        /* \"contracts/Challenge_vulnerable.sol\":559:592  require(balances[msg.sender] > 0) */\n      tag_19\n      jumpi\n      0x00\n      dup1\n      revert\n    tag_19:\n        /* \"contracts/Challenge_vulnerable.sol\":603:613  uint monto */\n      0x00\n        /* \"contracts/Challenge_vulnerable.sol\":616:624  balances */\n      0x01\n        /* \"contracts/Challenge_vulnerable.sol\":616:636  balances[msg.sender] */\n      0x00\n        /* \"contracts/Challenge_vulnerable.sol\":625:635  msg.sender */\n      caller\n        /* \"contracts/Challenge_vulnerable.sol\":616:636  balances[msg.sender] */\n      0xffffffffffffffffffffffffffffffffffffffff\n      and\n      0xffffffffffffffffffffffffffffffffffffffff\n      and\n      dup2\n      mstore\n      0x20\n      add\n      swap1\n      dup2\n      mstore\n      0x20\n      add\n      0x00\n      keccak256\n      sload\n        /* \"contracts/Challenge_vulnerable.sol\":603:636  uint monto = balances[msg.sender] */\n      swap1\n      pop\n        /* \"contracts/Challenge_vulnerable.sol\":680:681  0 */\n      0x00\n        /* \"contracts/Challenge_vulnerable.sol\":657:665  balances */\n      0x01\n        /* \"contracts/Challenge_vulnerable.sol\":657:677  balances[msg.sender] */\n      0x00\n        /* \"contracts/Challenge_vulnerable.sol\":666:676  msg.sender */\n      caller\n        /* \"contracts/Challenge_vulnerable.sol\":657:677  balances[msg.sender] */\n      0xffffffffffffffffffffffffffffffffffffffff\n      and\n      0xffffffffffffffffffffffffffffffffffffffff\n      and\n      dup2\n      mstore\n      0x20\n      add\n      swap1\n      dup2\n      mstore\n      0x20\n      add\n      0x00\n      keccak256\n        /* \"contracts/Challenge_vulnerable.sol\":657:681  balances[msg.sender] = 0 */\n      dup2\n      swap1\n      sstore\n      pop\n        /* \"contracts/Challenge_vulnerable.sol\":741:753  bool success */\n      0x00\n        /* \"contracts/Challenge_vulnerable.sol\":759:769  msg.sender */\n      caller\n        /* \"contracts/Challenge_vulnerable.sol\":759:774  msg.sender.call */\n      0xffffffffffffffffffffffffffffffffffffffff\n      and\n        /* \"contracts/Challenge_vulnerable.sol\":781:786  monto */\n      dup3\n        /* \"contracts/Challenge_vulnerable.sol\":792:797  10000 */\n      0x2710\n        /* \"contracts/Challenge_vulnerable.sol\":759:802  msg.sender.call{value:monto, gas:10000}(\"\") */\n      swap1\n      mload(0x40)\n      tag_20\n      swap1\n      tag_21\n      jump\t// in\n    tag_20:\n      0x00\n      mload(0x40)\n      dup1\n      dup4\n      sub\n      dup2\n      dup6\n      dup9\n      dup9\n      call\n      swap4\n      pop\n      pop\n      pop\n      pop\n      returndatasize\n      dup1\n      0x00\n      dup2\n      eq\n      tag_24\n      jumpi\n      mload(0x40)\n      swap2\n      pop\n      and(add(returndatasize, 0x3f), not(0x1f))\n      dup3\n      add\n      0x40\n      mstore\n      returndatasize\n      dup3\n      mstore\n      returndatasize\n      0x00\n      0x20\n      dup5\n      add\n      returndatacopy\n      jump(tag_23)\n    tag_24:\n      0x60\n      swap2\n      pop\n    tag_23:\n      pop\n        /* \"contracts/Challenge_vulnerable.sol\":740:802  (bool success, ) = msg.sender.call{value:monto, gas:10000}(\"\") */\n      pop\n      swap1\n      pop\n        /* \"contracts/Challenge_vulnerable.sol\":872:879  success */\n      dup1\n        /* \"contracts/Challenge_vulnerable.sol\":867:889  if (!success) revert() */\n      tag_25\n      jumpi\n        /* \"contracts/Challenge_vulnerable.sol\":881:889  revert() */\n      0x00\n      dup1\n      revert\n        /* \"contracts/Challenge_vulnerable.sol\":867:889  if (!success) revert() */\n    tag_25:\n        /* \"contracts/Challenge_vulnerable.sol\":548:946  {\r... */\n      pop\n      pop\n        /* \"contracts/Challenge_vulnerable.sol\":522:946  function retirar() public {\r... */\n      jump\t// out\n        /* \"contracts/Challenge_vulnerable.sol\":267:418  function mint(uint amount) public {\r... */\n    tag_14:\n        /* \"contracts/Challenge_vulnerable.sol\":329:339  msg.sender */\n      caller\n        /* \"contracts/Challenge_vulnerable.sol\":320:339  owner == msg.sender */\n      0xffffffffffffffffffffffffffffffffffffffff\n      and\n        /* \"contracts/Challenge_vulnerable.sol\":320:325  owner */\n      0x00\n      dup1\n      sload\n      swap1\n      0x0100\n      exp\n      swap1\n      div\n      0xffffffffffffffffffffffffffffffffffffffff\n      and\n        /* \"contracts/Challenge_vulnerable.sol\":320:339  owner == msg.sender */\n      0xffffffffffffffffffffffffffffffffffffffff\n      and\n      eq\n        /* \"contracts/Challenge_vulnerable.sol\":312:369  require(owner == msg.sender, \"The user is not the owner\") */\n      tag_27\n      jumpi\n      mload(0x40)\n      0x08c379a000000000000000000000000000000000000000000000000000000000\n      dup2\n      mstore\n      0x04\n      add\n      tag_28\n      swap1\n      tag_29\n      jump\t// in\n    tag_28:\n      mload(0x40)\n      dup1\n      swap2\n      sub\n      swap1\n      revert\n    tag_27:\n        /* \"contracts/Challenge_vulnerable.sol\":404:410  amount */\n      dup1\n        /* \"contracts/Challenge_vulnerable.sol\":380:388  balances */\n      0x01\n        /* \"contracts/Challenge_vulnerable.sol\":380:400  balances[msg.sender] */\n      0x00\n        /* \"contracts/Challenge_vulnerable.sol\":389:399  msg.sender */\n      caller\n        /* \"contracts/Challenge_vulnerable.sol\":380:400  balances[msg.sender] */\n      0xffffffffffffffffffffffffffffffffffffffff\n      and\n      0xffffffffffffffffffffffffffffffffffffffff\n      and\n      dup2\n      mstore\n      0x20\n      add\n      swap1\n      dup2\n      mstore\n      0x20\n      add\n      0x00\n      keccak256\n      0x00\n        /* \"contracts/Challenge_vulnerable.sol\":380:410  balances[msg.sender] += amount */\n      dup3\n      dup3\n      sload\n      tag_30\n      swap2\n      swap1\n      tag_17\n      jump\t// in\n    tag_30:\n      swap3\n      pop\n      pop\n      dup2\n      swap1\n      sstore\n      pop\n        /* \"contracts/Challenge_vulnerable.sol\":267:418  function mint(uint amount) public {\r... */\n      pop\n      jump\t// out\n        /* \"#utility.yul\":7:146   */\n    tag_32:\n        /* \"#utility.yul\":53:58   */\n      0x00\n        /* \"#utility.yul\":91:97   */\n      dup2\n        /* \"#utility.yul\":78:98   */\n      calldataload\n        /* \"#utility.yul\":69:98   */\n      swap1\n      pop\n        /* \"#utility.yul\":107:140   */\n      tag_34\n        /* \"#utility.yul\":134:139   */\n      dup2\n        /* \"#utility.yul\":107:140   */\n      tag_35\n      jump\t// in\n    tag_34:\n        /* \"#utility.yul\":7:146   */\n      swap3\n      swap2\n      pop\n      pop\n      jump\t// out\n        /* \"#utility.yul\":152:481   */\n    tag_13:\n        /* \"#utility.yul\":211:217   */\n      0x00\n        /* \"#utility.yul\":260:262   */\n      0x20\n        /* \"#utility.yul\":248:257   */\n      dup3\n        /* \"#utility.yul\":239:246   */\n      dup5\n        /* \"#utility.yul\":235:258   */\n      sub\n        /* \"#utility.yul\":231:263   */\n      slt\n        /* \"#utility.yul\":228:347   */\n      iszero\n      tag_37\n      jumpi\n        /* \"#utility.yul\":266:345   */\n      tag_38\n      tag_39\n      jump\t// in\n    tag_38:\n        /* \"#utility.yul\":228:347   */\n    tag_37:\n        /* \"#utility.yul\":386:387   */\n      0x00\n        /* \"#utility.yul\":411:464   */\n      tag_40\n        /* \"#utility.yul\":456:463   */\n      dup5\n        /* \"#utility.yul\":447:453   */\n      dup3\n        /* \"#utility.yul\":436:445   */\n      dup6\n        /* \"#utility.yul\":432:454   */\n      add\n        /* \"#utility.yul\":411:464   */\n      tag_32\n      jump\t// in\n    tag_40:\n        /* \"#utility.yul\":401:464   */\n      swap2\n      pop\n        /* \"#utility.yul\":357:474   */\n      pop\n        /* \"#utility.yul\":152:481   */\n      swap3\n      swap2\n      pop\n      pop\n      jump\t// out\n        /* \"#utility.yul\":487:853   */\n    tag_41:\n        /* \"#utility.yul\":629:632   */\n      0x00\n        /* \"#utility.yul\":650:717   */\n      tag_43\n        /* \"#utility.yul\":714:716   */\n      0x19\n        /* \"#utility.yul\":709:712   */\n      dup4\n        /* \"#utility.yul\":650:717   */\n      tag_44\n      jump\t// in\n    tag_43:\n        /* \"#utility.yul\":643:717   */\n      swap2\n      pop\n        /* \"#utility.yul\":726:819   */\n      tag_45\n        /* \"#utility.yul\":815:818   */\n      dup3\n        /* \"#utility.yul\":726:819   */\n      tag_46\n      jump\t// in\n    tag_45:\n        /* \"#utility.yul\":844:846   */\n      0x20\n        /* \"#utility.yul\":839:842   */\n      dup3\n        /* \"#utility.yul\":835:847   */\n      add\n        /* \"#utility.yul\":828:847   */\n      swap1\n      pop\n        /* \"#utility.yul\":487:853   */\n      swap2\n      swap1\n      pop\n      jump\t// out\n        /* \"#utility.yul\":859:1257   */\n    tag_47:\n        /* \"#utility.yul\":1018:1021   */\n      0x00\n        /* \"#utility.yul\":1039:1122   */\n      tag_49\n        /* \"#utility.yul\":1120:1121   */\n      0x00\n        /* \"#utility.yul\":1115:1118   */\n      dup4\n        /* \"#utility.yul\":1039:1122   */\n      tag_50\n      jump\t// in\n    tag_49:\n        /* \"#utility.yul\":1032:1122   */\n      swap2\n      pop\n        /* \"#utility.yul\":1131:1224   */\n      tag_51\n        /* \"#utility.yul\":1220:1223   */\n      dup3\n        /* \"#utility.yul\":1131:1224   */\n      tag_52\n      jump\t// in\n    tag_51:\n        /* \"#utility.yul\":1249:1250   */\n      0x00\n        /* \"#utility.yul\":1244:1247   */\n      dup3\n        /* \"#utility.yul\":1240:1251   */\n      add\n        /* \"#utility.yul\":1233:1251   */\n      swap1\n      pop\n        /* \"#utility.yul\":859:1257   */\n      swap2\n      swap1\n      pop\n      jump\t// out\n        /* \"#utility.yul\":1263:1642   */\n    tag_21:\n        /* \"#utility.yul\":1447:1450   */\n      0x00\n        /* \"#utility.yul\":1469:1616   */\n      tag_54\n        /* \"#utility.yul\":1612:1615   */\n      dup3\n        /* \"#utility.yul\":1469:1616   */\n      tag_47\n      jump\t// in\n    tag_54:\n        /* \"#utility.yul\":1462:1616   */\n      swap2\n      pop\n        /* \"#utility.yul\":1633:1636   */\n      dup2\n        /* \"#utility.yul\":1626:1636   */\n      swap1\n      pop\n        /* \"#utility.yul\":1263:1642   */\n      swap2\n      swap1\n      pop\n      jump\t// out\n        /* \"#utility.yul\":1648:2067   */\n    tag_29:\n        /* \"#utility.yul\":1814:1818   */\n      0x00\n        /* \"#utility.yul\":1852:1854   */\n      0x20\n        /* \"#utility.yul\":1841:1850   */\n      dup3\n        /* \"#utility.yul\":1837:1855   */\n      add\n        /* \"#utility.yul\":1829:1855   */\n      swap1\n      pop\n        /* \"#utility.yul\":1901:1910   */\n      dup2\n        /* \"#utility.yul\":1895:1899   */\n      dup2\n        /* \"#utility.yul\":1891:1911   */\n      sub\n        /* \"#utility.yul\":1887:1888   */\n      0x00\n        /* \"#utility.yul\":1876:1885   */\n      dup4\n        /* \"#utility.yul\":1872:1889   */\n      add\n        /* \"#utility.yul\":1865:1912   */\n      mstore\n        /* \"#utility.yul\":1929:2060   */\n      tag_56\n        /* \"#utility.yul\":2055:2059   */\n      dup2\n        /* \"#utility.yul\":1929:2060   */\n      tag_41\n      jump\t// in\n    tag_56:\n        /* \"#utility.yul\":1921:2060   */\n      swap1\n      pop\n        /* \"#utility.yul\":1648:2067   */\n      swap2\n      swap1\n      pop\n      jump\t// out\n        /* \"#utility.yul\":2154:2301   */\n    tag_50:\n        /* \"#utility.yul\":2255:2266   */\n      0x00\n        /* \"#utility.yul\":2292:2295   */\n      dup2\n        /* \"#utility.yul\":2277:2295   */\n      swap1\n      pop\n        /* \"#utility.yul\":2154:2301   */\n      swap3\n      swap2\n      pop\n      pop\n      jump\t// out\n        /* \"#utility.yul\":2307:2476   */\n    tag_44:\n        /* \"#utility.yul\":2391:2402   */\n      0x00\n        /* \"#utility.yul\":2425:2431   */\n      dup3\n        /* \"#utility.yul\":2420:2423   */\n      dup3\n        /* \"#utility.yul\":2413:2432   */\n      mstore\n        /* \"#utility.yul\":2465:2469   */\n      0x20\n        /* \"#utility.yul\":2460:2463   */\n      dup3\n        /* \"#utility.yul\":2456:2470   */\n      add\n        /* \"#utility.yul\":2441:2470   */\n      swap1\n      pop\n        /* \"#utility.yul\":2307:2476   */\n      swap3\n      swap2\n      pop\n      pop\n      jump\t// out\n        /* \"#utility.yul\":2482:2787   */\n    tag_17:\n        /* \"#utility.yul\":2522:2525   */\n      0x00\n        /* \"#utility.yul\":2541:2561   */\n      tag_62\n        /* \"#utility.yul\":2559:2560   */\n      dup3\n        /* \"#utility.yul\":2541:2561   */\n      tag_63\n      jump\t// in\n    tag_62:\n        /* \"#utility.yul\":2536:2561   */\n      swap2\n      pop\n        /* \"#utility.yul\":2575:2595   */\n      tag_64\n        /* \"#utility.yul\":2593:2594   */\n      dup4\n        /* \"#utility.yul\":2575:2595   */\n      tag_63\n      jump\t// in\n    tag_64:\n        /* \"#utility.yul\":2570:2595   */\n      swap3\n      pop\n        /* \"#utility.yul\":2729:2730   */\n      dup3\n        /* \"#utility.yul\":2661:2727   */\n      0xffffffffffffffffffffffffffffffffffffffffffffffffffffffffffffffff\n        /* \"#utility.yul\":2657:2731   */\n      sub\n        /* \"#utility.yul\":2654:2655   */\n      dup3\n        /* \"#utility.yul\":2651:2732   */\n      gt\n        /* \"#utility.yul\":2648:2755   */\n      iszero\n      tag_65\n      jumpi\n        /* \"#utility.yul\":2735:2753   */\n      tag_66\n      tag_67\n      jump\t// in\n    tag_66:\n        /* \"#utility.yul\":2648:2755   */\n    tag_65:\n        /* \"#utility.yul\":2779:2780   */\n      dup3\n        /* \"#utility.yul\":2776:2777   */\n      dup3\n        /* \"#utility.yul\":2772:2781   */\n      add\n        /* \"#utility.yul\":2765:2781   */\n      swap1\n      pop\n        /* \"#utility.yul\":2482:2787   */\n      swap3\n      swap2\n      pop\n      pop\n      jump\t// out\n        /* \"#utility.yul\":2793:2870   */\n    tag_63:\n        /* \"#utility.yul\":2830:2837   */\n      0x00\n        /* \"#utility.yul\":2859:2864   */\n      dup2\n        /* \"#utility.yul\":2848:2864   */\n      swap1\n      pop\n        /* \"#utility.yul\":2793:2870   */\n      swap2\n      swap1\n      pop\n      jump\t// out\n        /* \"#utility.yul\":2876:3056   */\n    tag_67:\n        /* \"#utility.yul\":2924:3001   */\n      0x4e487b7100000000000000000000000000000000000000000000000000000000\n        /* \"#utility.yul\":2921:2922   */\n      0x00\n        /* \"#utility.yul\":2914:3002   */\n      mstore\n        /* \"#utility.yul\":3021:3025   */\n      0x11\n        /* \"#utility.yul\":3018:3019   */\n      0x04\n        /* \"#utility.yul\":3011:3026   */\n      mstore\n        /* \"#utility.yul\":3045:3049   */\n      0x24\n        /* \"#utility.yul\":3042:3043   */\n      0x00\n        /* \"#utility.yul\":3035:3050   */\n      revert\n        /* \"#utility.yul\":3185:3302   */\n    tag_39:\n        /* \"#utility.yul\":3294:3295   */\n      0x00\n        /* \"#utility.yul\":3291:3292   */\n      dup1\n        /* \"#utility.yul\":3284:3296   */\n      revert\n        /* \"#utility.yul\":3308:3483   */\n    tag_46:\n        /* \"#utility.yul\":3448:3475   */\n      0x5468652075736572206973206e6f7420746865206f776e657200000000000000\n        /* \"#utility.yul\":3444:3445   */\n      0x00\n        /* \"#utility.yul\":3436:3442   */\n      dup3\n        /* \"#utility.yul\":3432:3446   */\n      add\n        /* \"#utility.yul\":3425:3476   */\n      mstore\n        /* \"#utility.yul\":3308:3483   */\n      pop\n      jump\t// out\n        /* \"#utility.yul\":3489:3603   */\n    tag_52:\n      pop\n      jump\t// out\n        /* \"#utility.yul\":3609:3731   */\n    tag_35:\n        /* \"#utility.yul\":3682:3706   */\n      tag_76\n        /* \"#utility.yul\":3700:3705   */\n      dup2\n        /* \"#utility.yul\":3682:3706   */\n      tag_63\n      jump\t// in\n    tag_76:\n        /* \"#utility.yul\":3675:3680   */\n      dup2\n        /* \"#utility.yul\":3672:3707   */\n      eq\n        /* \"#utility.yul\":3662:3725   */\n      tag_77\n      jumpi\n        /* \"#utility.yul\":3721:3722   */\n      0x00\n        /* \"#utility.yul\":3718:3719   */\n      dup1\n        /* \"#utility.yul\":3711:3723   */\n      revert\n        /* \"#utility.yul\":3662:3725   */\n    tag_77:\n        /* \"#utility.yul\":3609:3731   */\n      pop\n      jump\t// out\n\n    auxdata: 0xa2646970667358221220f58a0ebace0c2321231296337eb4f5e0eecea8510dce0148ca969cc4719275e364736f6c63430008070033\n}\n",
				"bytecode": {
					"linkReferences": {},
					"object": "608060405234801561001057600080fd5b50336000806101000a81548173ffffffffffffffffffffffffffffffffffffffff021916908373ffffffffffffffffffffffffffffffffffffffff1602179055506104fc806100606000396000f3fe6080604052600436106100345760003560e01c80633d922f90146100395780634735a44214610043578063a0712d681461005a575b600080fd5b610041610083565b005b34801561004f57600080fd5b506100586100db565b005b34801561006657600080fd5b50610081600480360381019061007c919061032b565b61022f565b005b34600160003373ffffffffffffffffffffffffffffffffffffffff1673ffffffffffffffffffffffffffffffffffffffff16815260200190815260200160002060008282546100d291906103ef565b92505081905550565b6000600160003373ffffffffffffffffffffffffffffffffffffffff1673ffffffffffffffffffffffffffffffffffffffff168152602001908152602001600020541161012757600080fd5b6000600160003373ffffffffffffffffffffffffffffffffffffffff1673ffffffffffffffffffffffffffffffffffffffff1681526020019081526020016000205490506000600160003373ffffffffffffffffffffffffffffffffffffffff1673ffffffffffffffffffffffffffffffffffffffff1681526020019081526020016000208190555060003373ffffffffffffffffffffffffffffffffffffffff1682612710906040516101da9061039e565b600060405180830381858888f193505050503d8060008114610218576040519150601f19603f3d011682016040523d82523d6000602084013e61021d565b606091505b505090508061022b57600080fd5b5050565b3373ffffffffffffffffffffffffffffffffffffffff1660008054906101000a900473ffffffffffffffffffffffffffffffffffffffff1673ffffffffffffffffffffffffffffffffffffffff16146102bd576040517f08c379a00000000000000000000000000000000000000000000000000000000081526004016102b4906103b3565b60405180910390fd5b80600160003373ffffffffffffffffffffffffffffffffffffffff1673ffffffffffffffffffffffffffffffffffffffff168152602001908152602001600020600082825461030c91906103ef565b9250508190555050565b600081359050610325816104af565b92915050565b6000602082840312156103415761034061047e565b5b600061034f84828501610316565b91505092915050565b60006103656019836103de565b915061037082610483565b602082019050919050565b60006103886000836103d3565b9150610393826104ac565b600082019050919050565b60006103a98261037b565b9150819050919050565b600060208201905081810360008301526103cc81610358565b9050919050565b600081905092915050565b600082825260208201905092915050565b60006103fa82610445565b915061040583610445565b9250827fffffffffffffffffffffffffffffffffffffffffffffffffffffffffffffffff0382111561043a5761043961044f565b5b828201905092915050565b6000819050919050565b7f4e487b7100000000000000000000000000000000000000000000000000000000600052601160045260246000fd5b600080fd5b7f5468652075736572206973206e6f7420746865206f776e657200000000000000600082015250565b50565b6104b881610445565b81146104c357600080fd5b5056fea2646970667358221220f58a0ebace0c2321231296337eb4f5e0eecea8510dce0148ca969cc4719275e364736f6c63430008070033",
					"opcodes": "PUSH1 0x80 PUSH1 0x40 MSTORE CALLVALUE DUP1 ISZERO PUSH2 0x10 JUMPI PUSH1 0x0 DUP1 REVERT JUMPDEST POP CALLER PUSH1 0x0 DUP1 PUSH2 0x100 EXP DUP2 SLOAD DUP2 PUSH20 0xFFFFFFFFFFFFFFFFFFFFFFFFFFFFFFFFFFFFFFFF MUL NOT AND SWAP1 DUP4 PUSH20 0xFFFFFFFFFFFFFFFFFFFFFFFFFFFFFFFFFFFFFFFF AND MUL OR SWAP1 SSTORE POP PUSH2 0x4FC DUP1 PUSH2 0x60 PUSH1 0x0 CODECOPY PUSH1 0x0 RETURN INVALID PUSH1 0x80 PUSH1 0x40 MSTORE PUSH1 0x4 CALLDATASIZE LT PUSH2 0x34 JUMPI PUSH1 0x0 CALLDATALOAD PUSH1 0xE0 SHR DUP1 PUSH4 0x3D922F90 EQ PUSH2 0x39 JUMPI DUP1 PUSH4 0x4735A442 EQ PUSH2 0x43 JUMPI DUP1 PUSH4 0xA0712D68 EQ PUSH2 0x5A JUMPI JUMPDEST PUSH1 0x0 DUP1 REVERT JUMPDEST PUSH2 0x41 PUSH2 0x83 JUMP JUMPDEST STOP JUMPDEST CALLVALUE DUP1 ISZERO PUSH2 0x4F JUMPI PUSH1 0x0 DUP1 REVERT JUMPDEST POP PUSH2 0x58 PUSH2 0xDB JUMP JUMPDEST STOP JUMPDEST CALLVALUE DUP1 ISZERO PUSH2 0x66 JUMPI PUSH1 0x0 DUP1 REVERT JUMPDEST POP PUSH2 0x81 PUSH1 0x4 DUP1 CALLDATASIZE SUB DUP2 ADD SWAP1 PUSH2 0x7C SWAP2 SWAP1 PUSH2 0x32B JUMP JUMPDEST PUSH2 0x22F JUMP JUMPDEST STOP JUMPDEST CALLVALUE PUSH1 0x1 PUSH1 0x0 CALLER PUSH20 0xFFFFFFFFFFFFFFFFFFFFFFFFFFFFFFFFFFFFFFFF AND PUSH20 0xFFFFFFFFFFFFFFFFFFFFFFFFFFFFFFFFFFFFFFFF AND DUP2 MSTORE PUSH1 0x20 ADD SWAP1 DUP2 MSTORE PUSH1 0x20 ADD PUSH1 0x0 KECCAK256 PUSH1 0x0 DUP3 DUP3 SLOAD PUSH2 0xD2 SWAP2 SWAP1 PUSH2 0x3EF JUMP JUMPDEST SWAP3 POP POP DUP2 SWAP1 SSTORE POP JUMP JUMPDEST PUSH1 0x0 PUSH1 0x1 PUSH1 0x0 CALLER PUSH20 0xFFFFFFFFFFFFFFFFFFFFFFFFFFFFFFFFFFFFFFFF AND PUSH20 0xFFFFFFFFFFFFFFFFFFFFFFFFFFFFFFFFFFFFFFFF AND DUP2 MSTORE PUSH1 0x20 ADD SWAP1 DUP2 MSTORE PUSH1 0x20 ADD PUSH1 0x0 KECCAK256 SLOAD GT PUSH2 0x127 JUMPI PUSH1 0x0 DUP1 REVERT JUMPDEST PUSH1 0x0 PUSH1 0x1 PUSH1 0x0 CALLER PUSH20 0xFFFFFFFFFFFFFFFFFFFFFFFFFFFFFFFFFFFFFFFF AND PUSH20 0xFFFFFFFFFFFFFFFFFFFFFFFFFFFFFFFFFFFFFFFF AND DUP2 MSTORE PUSH1 0x20 ADD SWAP1 DUP2 MSTORE PUSH1 0x20 ADD PUSH1 0x0 KECCAK256 SLOAD SWAP1 POP PUSH1 0x0 PUSH1 0x1 PUSH1 0x0 CALLER PUSH20 0xFFFFFFFFFFFFFFFFFFFFFFFFFFFFFFFFFFFFFFFF AND PUSH20 0xFFFFFFFFFFFFFFFFFFFFFFFFFFFFFFFFFFFFFFFF AND DUP2 MSTORE PUSH1 0x20 ADD SWAP1 DUP2 MSTORE PUSH1 0x20 ADD PUSH1 0x0 KECCAK256 DUP2 SWAP1 SSTORE POP PUSH1 0x0 CALLER PUSH20 0xFFFFFFFFFFFFFFFFFFFFFFFFFFFFFFFFFFFFFFFF AND DUP3 PUSH2 0x2710 SWAP1 PUSH1 0x40 MLOAD PUSH2 0x1DA SWAP1 PUSH2 0x39E JUMP JUMPDEST PUSH1 0x0 PUSH1 0x40 MLOAD DUP1 DUP4 SUB DUP2 DUP6 DUP9 DUP9 CALL SWAP4 POP POP POP POP RETURNDATASIZE DUP1 PUSH1 0x0 DUP2 EQ PUSH2 0x218 JUMPI PUSH1 0x40 MLOAD SWAP2 POP PUSH1 0x1F NOT PUSH1 0x3F RETURNDATASIZE ADD AND DUP3 ADD PUSH1 0x40 MSTORE RETURNDATASIZE DUP3 MSTORE RETURNDATASIZE PUSH1 0x0 PUSH1 0x20 DUP5 ADD RETURNDATACOPY PUSH2 0x21D JUMP JUMPDEST PUSH1 0x60 SWAP2 POP JUMPDEST POP POP SWAP1 POP DUP1 PUSH2 0x22B JUMPI PUSH1 0x0 DUP1 REVERT JUMPDEST POP POP JUMP JUMPDEST CALLER PUSH20 0xFFFFFFFFFFFFFFFFFFFFFFFFFFFFFFFFFFFFFFFF AND PUSH1 0x0 DUP1 SLOAD SWAP1 PUSH2 0x100 EXP SWAP1 DIV PUSH20 0xFFFFFFFFFFFFFFFFFFFFFFFFFFFFFFFFFFFFFFFF AND PUSH20 0xFFFFFFFFFFFFFFFFFFFFFFFFFFFFFFFFFFFFFFFF AND EQ PUSH2 0x2BD JUMPI PUSH1 0x40 MLOAD PUSH32 0x8C379A000000000000000000000000000000000000000000000000000000000 DUP2 MSTORE PUSH1 0x4 ADD PUSH2 0x2B4 SWAP1 PUSH2 0x3B3 JUMP JUMPDEST PUSH1 0x40 MLOAD DUP1 SWAP2 SUB SWAP1 REVERT JUMPDEST DUP1 PUSH1 0x1 PUSH1 0x0 CALLER PUSH20 0xFFFFFFFFFFFFFFFFFFFFFFFFFFFFFFFFFFFFFFFF AND PUSH20 0xFFFFFFFFFFFFFFFFFFFFFFFFFFFFFFFFFFFFFFFF AND DUP2 MSTORE PUSH1 0x20 ADD SWAP1 DUP2 MSTORE PUSH1 0x20 ADD PUSH1 0x0 KECCAK256 PUSH1 0x0 DUP3 DUP3 SLOAD PUSH2 0x30C SWAP2 SWAP1 PUSH2 0x3EF JUMP JUMPDEST SWAP3 POP POP DUP2 SWAP1 SSTORE POP POP JUMP JUMPDEST PUSH1 0x0 DUP2 CALLDATALOAD SWAP1 POP PUSH2 0x325 DUP2 PUSH2 0x4AF JUMP JUMPDEST SWAP3 SWAP2 POP POP JUMP JUMPDEST PUSH1 0x0 PUSH1 0x20 DUP3 DUP5 SUB SLT ISZERO PUSH2 0x341 JUMPI PUSH2 0x340 PUSH2 0x47E JUMP JUMPDEST JUMPDEST PUSH1 0x0 PUSH2 0x34F DUP5 DUP3 DUP6 ADD PUSH2 0x316 JUMP JUMPDEST SWAP2 POP POP SWAP3 SWAP2 POP POP JUMP JUMPDEST PUSH1 0x0 PUSH2 0x365 PUSH1 0x19 DUP4 PUSH2 0x3DE JUMP JUMPDEST SWAP2 POP PUSH2 0x370 DUP3 PUSH2 0x483 JUMP JUMPDEST PUSH1 0x20 DUP3 ADD SWAP1 POP SWAP2 SWAP1 POP JUMP JUMPDEST PUSH1 0x0 PUSH2 0x388 PUSH1 0x0 DUP4 PUSH2 0x3D3 JUMP JUMPDEST SWAP2 POP PUSH2 0x393 DUP3 PUSH2 0x4AC JUMP JUMPDEST PUSH1 0x0 DUP3 ADD SWAP1 POP SWAP2 SWAP1 POP JUMP JUMPDEST PUSH1 0x0 PUSH2 0x3A9 DUP3 PUSH2 0x37B JUMP JUMPDEST SWAP2 POP DUP2 SWAP1 POP SWAP2 SWAP1 POP JUMP JUMPDEST PUSH1 0x0 PUSH1 0x20 DUP3 ADD SWAP1 POP DUP2 DUP2 SUB PUSH1 0x0 DUP4 ADD MSTORE PUSH2 0x3CC DUP2 PUSH2 0x358 JUMP JUMPDEST SWAP1 POP SWAP2 SWAP1 POP JUMP JUMPDEST PUSH1 0x0 DUP2 SWAP1 POP SWAP3 SWAP2 POP POP JUMP JUMPDEST PUSH1 0x0 DUP3 DUP3 MSTORE PUSH1 0x20 DUP3 ADD SWAP1 POP SWAP3 SWAP2 POP POP JUMP JUMPDEST PUSH1 0x0 PUSH2 0x3FA DUP3 PUSH2 0x445 JUMP JUMPDEST SWAP2 POP PUSH2 0x405 DUP4 PUSH2 0x445 JUMP JUMPDEST SWAP3 POP DUP3 PUSH32 0xFFFFFFFFFFFFFFFFFFFFFFFFFFFFFFFFFFFFFFFFFFFFFFFFFFFFFFFFFFFFFFFF SUB DUP3 GT ISZERO PUSH2 0x43A JUMPI PUSH2 0x439 PUSH2 0x44F JUMP JUMPDEST JUMPDEST DUP3 DUP3 ADD SWAP1 POP SWAP3 SWAP2 POP POP JUMP JUMPDEST PUSH1 0x0 DUP2 SWAP1 POP SWAP2 SWAP1 POP JUMP JUMPDEST PUSH32 0x4E487B7100000000000000000000000000000000000000000000000000000000 PUSH1 0x0 MSTORE PUSH1 0x11 PUSH1 0x4 MSTORE PUSH1 0x24 PUSH1 0x0 REVERT JUMPDEST PUSH1 0x0 DUP1 REVERT JUMPDEST PUSH32 0x5468652075736572206973206E6F7420746865206F776E657200000000000000 PUSH1 0x0 DUP3 ADD MSTORE POP JUMP JUMPDEST POP JUMP JUMPDEST PUSH2 0x4B8 DUP2 PUSH2 0x445 JUMP JUMPDEST DUP2 EQ PUSH2 0x4C3 JUMPI PUSH1 0x0 DUP1 REVERT JUMPDEST POP JUMP INVALID LOG2 PUSH5 0x6970667358 0x22 SLT KECCAK256 CREATE2 DUP11 0xE 0xBA 0xCE 0xC 0x23 0x21 0x23 SLT SWAP7 CALLER PUSH31 0xB4F5E0EECEA8510DCE0148CA969CC4719275E364736F6C6343000807003300 "
				},
				"gasEstimates": {
					"creation": {
						"codeDepositCost": "255200",
						"executionCost": "24560",
						"totalCost": "279760"
					},
					"external": {
						"depositar()": "infinite",
						"mint(uint256)": "infinite",
						"retirar()": "infinite"
					}
				},
				"methodIdentifiers": {
					"depositar()": "3d922f90",
					"mint(uint256)": "a0712d68",
					"retirar()": "4735a442"
				}
			},
			"storageLayout": {
				"storage": [
					{
						"astId": 3,
						"contract": "contracts/Challenge_vulnerable.sol:Challenge_vulnerable",
						"label": "owner",
						"offset": 0,
						"slot": "0",
						"type": "t_address"
					},
					{
						"astId": 7,
						"contract": "contracts/Challenge_vulnerable.sol:Challenge_vulnerable",
						"label": "balances",
						"offset": 0,
						"slot": "1",
						"type": "t_mapping(t_address,t_uint256)"
					}
				],
				"types": {
					"t_address": {
						"encoding": "inplace",
						"label": "address",
						"numberOfBytes": "20"
					},
					"t_mapping(t_address,t_uint256)": {
						"encoding": "mapping",
						"key": "t_address",
						"label": "mapping(address => uint256)",
						"numberOfBytes": "32",
						"value": "t_uint256"
					},
					"t_uint256": {
						"encoding": "inplace",
						"label": "uint256",
						"numberOfBytes": "32"
					}
				}
			},
			"userdoc": {
				"kind": "user",
				"methods": {},
				"version": 1
			}
		}
	}
}