{
	"contracts/PokemonFactory.sol": {
		"PokemonFactory": {
			"abi": [
				{
					"anonymous": false,
					"inputs": [
						{
							"components": [
								{
									"internalType": "uint8",
									"name": "pokemonId",
									"type": "uint8"
								},
								{
									"internalType": "bytes16",
									"name": "pokemonName",
									"type": "bytes16"
								}
							],
							"indexed": false,
							"internalType": "struct PokemonFactory.Pokemon",
							"name": "newPokemon",
							"type": "tuple"
						}
					],
					"name": "eventNewPokemon",
					"type": "event"
				},
				{
					"inputs": [
						{
							"internalType": "bytes16",
							"name": "_abilityName",
							"type": "bytes16"
						},
						{
							"internalType": "string",
							"name": "_abilityDescription",
							"type": "string"
						}
					],
					"name": "AddAbility",
					"outputs": [],
					"stateMutability": "nonpayable",
					"type": "function"
				},
				{
					"inputs": [
						{
							"internalType": "bytes16",
							"name": "_typeName",
							"type": "bytes16"
						}
					],
					"name": "AddType",
					"outputs": [],
					"stateMutability": "nonpayable",
					"type": "function"
				},
				{
					"inputs": [
						{
							"internalType": "bytes16",
							"name": "_weaknessName",
							"type": "bytes16"
						}
					],
					"name": "AddWeakness",
					"outputs": [],
					"stateMutability": "nonpayable",
					"type": "function"
				},
				{
					"inputs": [
						{
							"internalType": "uint8",
							"name": "_pokemonId",
							"type": "uint8"
						},
						{
							"internalType": "uint8",
							"name": "_abilityId",
							"type": "uint8"
						}
					],
					"name": "GiveAbilityToPokemon",
					"outputs": [],
					"stateMutability": "nonpayable",
					"type": "function"
				},
				{
					"inputs": [
						{
							"internalType": "uint8",
							"name": "_pokemonId",
							"type": "uint8"
						},
						{
							"internalType": "uint8",
							"name": "_typeId",
							"type": "uint8"
						}
					],
					"name": "GiveTypeToPokemon",
					"outputs": [],
					"stateMutability": "nonpayable",
					"type": "function"
				},
				{
					"inputs": [
						{
							"internalType": "uint8",
							"name": "_pokemonId",
							"type": "uint8"
						},
						{
							"internalType": "uint8",
							"name": "_weaknessId",
							"type": "uint8"
						}
					],
					"name": "GiveWeaknessToPokemon",
					"outputs": [],
					"stateMutability": "nonpayable",
					"type": "function"
				},
				{
					"inputs": [
						{
							"internalType": "uint256",
							"name": "",
							"type": "uint256"
						}
					],
					"name": "allAbilities",
					"outputs": [
						{
							"internalType": "bytes16",
							"name": "abilityName",
							"type": "bytes16"
						},
						{
							"internalType": "string",
							"name": "abilityDescription",
							"type": "string"
						}
					],
					"stateMutability": "view",
					"type": "function"
				},
				{
					"inputs": [
						{
							"internalType": "uint256",
							"name": "",
							"type": "uint256"
						}
					],
					"name": "allTypes",
					"outputs": [
						{
							"internalType": "bytes16",
							"name": "",
							"type": "bytes16"
						}
					],
					"stateMutability": "view",
					"type": "function"
				},
				{
					"inputs": [
						{
							"internalType": "uint256",
							"name": "",
							"type": "uint256"
						}
					],
					"name": "allWeaknesses",
					"outputs": [
						{
							"internalType": "bytes16",
							"name": "",
							"type": "bytes16"
						}
					],
					"stateMutability": "view",
					"type": "function"
				},
				{
					"inputs": [
						{
							"internalType": "uint8",
							"name": "_pokemonId",
							"type": "uint8"
						},
						{
							"internalType": "bytes16",
							"name": "pokemonName",
							"type": "bytes16"
						}
					],
					"name": "createPokemon",
					"outputs": [],
					"stateMutability": "nonpayable",
					"type": "function"
				},
				{
					"inputs": [
						{
							"internalType": "uint8",
							"name": "_pokemonId",
							"type": "uint8"
						}
					],
					"name": "getAbilitiesOfAPokemon",
					"outputs": [
						{
							"internalType": "uint8[]",
							"name": "",
							"type": "uint8[]"
						}
					],
					"stateMutability": "view",
					"type": "function"
				},
				{
					"inputs": [],
					"name": "getAllAbilities",
					"outputs": [
						{
							"components": [
								{
									"internalType": "bytes16",
									"name": "abilityName",
									"type": "bytes16"
								},
								{
									"internalType": "string",
									"name": "abilityDescription",
									"type": "string"
								}
							],
							"internalType": "struct PokemonFactory.Ability[]",
							"name": "",
							"type": "tuple[]"
						}
					],
					"stateMutability": "view",
					"type": "function"
				},
				{
					"inputs": [],
					"name": "getAllPokemons",
					"outputs": [
						{
							"components": [
								{
									"internalType": "uint8",
									"name": "pokemonId",
									"type": "uint8"
								},
								{
									"internalType": "bytes16",
									"name": "pokemonName",
									"type": "bytes16"
								}
							],
							"internalType": "struct PokemonFactory.Pokemon[]",
							"name": "",
							"type": "tuple[]"
						}
					],
					"stateMutability": "view",
					"type": "function"
				},
				{
					"inputs": [
						{
							"internalType": "uint8",
							"name": "_pokemonId",
							"type": "uint8"
						}
					],
					"name": "getTypesOfAPokemon",
					"outputs": [
						{
							"internalType": "uint8[]",
							"name": "",
							"type": "uint8[]"
						}
					],
					"stateMutability": "view",
					"type": "function"
				},
				{
					"inputs": [
						{
							"internalType": "uint8",
							"name": "_pokemonId",
							"type": "uint8"
						}
					],
					"name": "getWeaknessOfAPokemon",
					"outputs": [
						{
							"internalType": "uint8[]",
							"name": "",
							"type": "uint8[]"
						}
					],
					"stateMutability": "view",
					"type": "function"
				},
				{
					"inputs": [
						{
							"internalType": "uint8",
							"name": "",
							"type": "uint8"
						}
					],
					"name": "pokemonToOwner",
					"outputs": [
						{
							"internalType": "address",
							"name": "",
							"type": "address"
						}
					],
					"stateMutability": "view",
					"type": "function"
				},
				{
					"inputs": [
						{
							"internalType": "uint256",
							"name": "",
							"type": "uint256"
						}
					],
					"name": "pokemons",
					"outputs": [
						{
							"internalType": "uint8",
							"name": "pokemonId",
							"type": "uint8"
						},
						{
							"internalType": "bytes16",
							"name": "pokemonName",
							"type": "bytes16"
						}
					],
					"stateMutability": "view",
					"type": "function"
				}
			],
			"devdoc": {
				"kind": "dev",
				"methods": {},
				"version": 1
			},
			"evm": {
				"assembly": "    /* \"contracts/PokemonFactory.sol\":68:6386  contract PokemonFactory {\r... */\n  mstore(0x40, 0x80)\n  callvalue\n  dup1\n  iszero\n  tag_1\n  jumpi\n  0x00\n  dup1\n  revert\ntag_1:\n  pop\n  dataSize(sub_0)\n  dup1\n  dataOffset(sub_0)\n  0x00\n  codecopy\n  0x00\n  return\nstop\n\nsub_0: assembly {\n        /* \"contracts/PokemonFactory.sol\":68:6386  contract PokemonFactory {\r... */\n      mstore(0x40, 0x80)\n      callvalue\n      dup1\n      iszero\n      tag_1\n      jumpi\n      0x00\n      dup1\n      revert\n    tag_1:\n      pop\n      jumpi(tag_2, lt(calldatasize, 0x04))\n      shr(0xe0, calldataload(0x00))\n      dup1\n      0x85831079\n      gt\n      tag_20\n      jumpi\n      dup1\n      0xbd995256\n      gt\n      tag_21\n      jumpi\n      dup1\n      0xbd995256\n      eq\n      tag_15\n      jumpi\n      dup1\n      0xd8d13661\n      eq\n      tag_16\n      jumpi\n      dup1\n      0xdb233616\n      eq\n      tag_17\n      jumpi\n      dup1\n      0xe8cbf77c\n      eq\n      tag_18\n      jumpi\n      dup1\n      0xfbb63f43\n      eq\n      tag_19\n      jumpi\n      jump(tag_2)\n    tag_21:\n      dup1\n      0x85831079\n      eq\n      tag_11\n      jumpi\n      dup1\n      0xa39ee7e3\n      eq\n      tag_12\n      jumpi\n      dup1\n      0xb9de03c1\n      eq\n      tag_13\n      jumpi\n      dup1\n      0xbd5ec3e2\n      eq\n      tag_14\n      jumpi\n      jump(tag_2)\n    tag_20:\n      dup1\n      0x5e916790\n      gt\n      tag_22\n      jumpi\n      dup1\n      0x5e916790\n      eq\n      tag_7\n      jumpi\n      dup1\n      0x6df0a108\n      eq\n      tag_8\n      jumpi\n      dup1\n      0x72b801c4\n      eq\n      tag_9\n      jumpi\n      dup1\n      0x7d809a10\n      eq\n      tag_10\n      jumpi\n      jump(tag_2)\n    tag_22:\n      dup1\n      0x228578e6\n      eq\n      tag_3\n      jumpi\n      dup1\n      0x2a56023e\n      eq\n      tag_4\n      jumpi\n      dup1\n      0x45928a6c\n      eq\n      tag_5\n      jumpi\n      dup1\n      0x49a8fb96\n      eq\n      tag_6\n      jumpi\n    tag_2:\n      0x00\n      dup1\n      revert\n        /* \"contracts/PokemonFactory.sol\":5664:5808  function getWeaknessOfAPokemon(uint8 _pokemonId) public view returns (uint8[] memory) {\r... */\n    tag_3:\n      tag_23\n      0x04\n      dup1\n      calldatasize\n      sub\n      dup2\n      add\n      swap1\n      tag_24\n      swap2\n      swap1\n      tag_25\n      jump\t// in\n    tag_24:\n      tag_26\n      jump\t// in\n    tag_23:\n      mload(0x40)\n      tag_27\n      swap2\n      swap1\n      tag_28\n      jump\t// in\n    tag_27:\n      mload(0x40)\n      dup1\n      swap2\n      sub\n      swap1\n      return\n        /* \"contracts/PokemonFactory.sol\":2653:3072  function GiveAbilityToPokemon (uint8 _pokemonId, uint8 _abilityId) public {\r... */\n    tag_4:\n      tag_29\n      0x04\n      dup1\n      calldatasize\n      sub\n      dup2\n      add\n      swap1\n      tag_30\n      swap2\n      swap1\n      tag_31\n      jump\t// in\n    tag_30:\n      tag_32\n      jump\t// in\n    tag_29:\n      stop\n        /* \"contracts/PokemonFactory.sol\":563:610  mapping(uint8 => address) public pokemonToOwner */\n    tag_5:\n      tag_33\n      0x04\n      dup1\n      calldatasize\n      sub\n      dup2\n      add\n      swap1\n      tag_34\n      swap2\n      swap1\n      tag_25\n      jump\t// in\n    tag_34:\n      tag_35\n      jump\t// in\n    tag_33:\n      mload(0x40)\n      tag_36\n      swap2\n      swap1\n      tag_37\n      jump\t// in\n    tag_36:\n      mload(0x40)\n      dup1\n      swap2\n      sub\n      swap1\n      return\n        /* \"contracts/PokemonFactory.sol\":4740:4885  function AddWeakness(bytes16 _weaknessName) public {\r... */\n    tag_6:\n      tag_38\n      0x04\n      dup1\n      calldatasize\n      sub\n      dup2\n      add\n      swap1\n      tag_39\n      swap2\n      swap1\n      tag_40\n      jump\t// in\n    tag_39:\n      tag_41\n      jump\t// in\n    tag_38:\n      stop\n        /* \"contracts/PokemonFactory.sol\":6132:6232  function getAllPokemons () public view returns (Pokemon[] memory) {\r... */\n    tag_7:\n      tag_42\n      tag_43\n      jump\t// in\n    tag_42:\n      mload(0x40)\n      tag_44\n      swap2\n      swap1\n      tag_45\n      jump\t// in\n    tag_44:\n      mload(0x40)\n      dup1\n      swap2\n      sub\n      swap1\n      return\n        /* \"contracts/PokemonFactory.sol\":807:836  Ability[] public allAbilities */\n    tag_8:\n      tag_46\n      0x04\n      dup1\n      calldatasize\n      sub\n      dup2\n      add\n      swap1\n      tag_47\n      swap2\n      swap1\n      tag_48\n      jump\t// in\n    tag_47:\n      tag_49\n      jump\t// in\n    tag_46:\n      mload(0x40)\n      tag_50\n      swap3\n      swap2\n      swap1\n      tag_51\n      jump\t// in\n    tag_50:\n      mload(0x40)\n      dup1\n      swap2\n      sub\n      swap1\n      return\n        /* \"contracts/PokemonFactory.sol\":4893:5316  function GiveWeaknessToPokemon (uint8 _pokemonId, uint8 _weaknessId) public {\r... */\n    tag_9:\n      tag_52\n      0x04\n      dup1\n      calldatasize\n      sub\n      dup2\n      add\n      swap1\n      tag_53\n      swap2\n      swap1\n      tag_31\n      jump\t// in\n    tag_53:\n      tag_54\n      jump\t// in\n    tag_52:\n      stop\n        /* \"contracts/PokemonFactory.sol\":1635:2325  function createPokemon (uint8 _pokemonId, bytes16 pokemonName) public {\r... */\n    tag_10:\n      tag_55\n      0x04\n      dup1\n      calldatasize\n      sub\n      dup2\n      add\n      swap1\n      tag_56\n      swap2\n      swap1\n      tag_57\n      jump\t// in\n    tag_56:\n      tag_58\n      jump\t// in\n    tag_55:\n      stop\n        /* \"contracts/PokemonFactory.sol\":455:482  Pokemon[]  public  pokemons */\n    tag_11:\n      tag_59\n      0x04\n      dup1\n      calldatasize\n      sub\n      dup2\n      add\n      swap1\n      tag_60\n      swap2\n      swap1\n      tag_48\n      jump\t// in\n    tag_60:\n      tag_61\n      jump\t// in\n    tag_59:\n      mload(0x40)\n      tag_62\n      swap3\n      swap2\n      swap1\n      tag_63\n      jump\t// in\n    tag_62:\n      mload(0x40)\n      dup1\n      swap2\n      sub\n      swap1\n      return\n        /* \"contracts/PokemonFactory.sol\":3660:3786  function AddType (bytes16 _typeName) public {\r... */\n    tag_12:\n      tag_64\n      0x04\n      dup1\n      calldatasize\n      sub\n      dup2\n      add\n      swap1\n      tag_65\n      swap2\n      swap1\n      tag_40\n      jump\t// in\n    tag_65:\n      tag_66\n      jump\t// in\n    tag_64:\n      stop\n        /* \"contracts/PokemonFactory.sol\":3428:3572  function getAbilitiesOfAPokemon(uint8 _pokemonId) public view returns (uint8[] memory) {\r... */\n    tag_13:\n      tag_67\n      0x04\n      dup1\n      calldatasize\n      sub\n      dup2\n      add\n      swap1\n      tag_68\n      swap2\n      swap1\n      tag_25\n      jump\t// in\n    tag_68:\n      tag_69\n      jump\t// in\n    tag_67:\n      mload(0x40)\n      tag_70\n      swap2\n      swap1\n      tag_28\n      jump\t// in\n    tag_70:\n      mload(0x40)\n      dup1\n      swap2\n      sub\n      swap1\n      return\n        /* \"contracts/PokemonFactory.sol\":1043:1068  bytes16[] public allTypes */\n    tag_14:\n      tag_71\n      0x04\n      dup1\n      calldatasize\n      sub\n      dup2\n      add\n      swap1\n      tag_72\n      swap2\n      swap1\n      tag_48\n      jump\t// in\n    tag_72:\n      tag_73\n      jump\t// in\n    tag_71:\n      mload(0x40)\n      tag_74\n      swap2\n      swap1\n      tag_75\n      jump\t// in\n    tag_74:\n      mload(0x40)\n      dup1\n      swap2\n      sub\n      swap1\n      return\n        /* \"contracts/PokemonFactory.sol\":4509:4645  function getTypesOfAPokemon(uint8 _pokemonId) public view returns (uint8[] memory) {\r... */\n    tag_15:\n      tag_76\n      0x04\n      dup1\n      calldatasize\n      sub\n      dup2\n      add\n      swap1\n      tag_77\n      swap2\n      swap1\n      tag_25\n      jump\t// in\n    tag_77:\n      tag_78\n      jump\t// in\n    tag_76:\n      mload(0x40)\n      tag_79\n      swap2\n      swap1\n      tag_28\n      jump\t// in\n    tag_79:\n      mload(0x40)\n      dup1\n      swap2\n      sub\n      swap1\n      return\n        /* \"contracts/PokemonFactory.sol\":6278:6383  function getAllAbilities () public view returns (Ability[] memory) {\r... */\n    tag_16:\n      tag_80\n      tag_81\n      jump\t// in\n    tag_80:\n      mload(0x40)\n      tag_82\n      swap2\n      swap1\n      tag_83\n      jump\t// in\n    tag_82:\n      mload(0x40)\n      dup1\n      swap2\n      sub\n      swap1\n      return\n        /* \"contracts/PokemonFactory.sol\":3794:4184  function GiveTypeToPokemon (uint8 _pokemonId, uint8 _typeId) public {\r... */\n    tag_17:\n      tag_84\n      0x04\n      dup1\n      calldatasize\n      sub\n      dup2\n      add\n      swap1\n      tag_85\n      swap2\n      swap1\n      tag_31\n      jump\t// in\n    tag_85:\n      tag_86\n      jump\t// in\n    tag_84:\n      stop\n        /* \"contracts/PokemonFactory.sol\":1267:1297  bytes16[] public allWeaknesses */\n    tag_18:\n      tag_87\n      0x04\n      dup1\n      calldatasize\n      sub\n      dup2\n      add\n      swap1\n      tag_88\n      swap2\n      swap1\n      tag_48\n      jump\t// in\n    tag_88:\n      tag_89\n      jump\t// in\n    tag_87:\n      mload(0x40)\n      tag_90\n      swap2\n      swap1\n      tag_75\n      jump\t// in\n    tag_90:\n      mload(0x40)\n      dup1\n      swap2\n      sub\n      swap1\n      return\n        /* \"contracts/PokemonFactory.sol\":2423:2645  function AddAbility (bytes16 _abilityName, string memory _abilityDescription) public {\r... */\n    tag_19:\n      tag_91\n      0x04\n      dup1\n      calldatasize\n      sub\n      dup2\n      add\n      swap1\n      tag_92\n      swap2\n      swap1\n      tag_93\n      jump\t// in\n    tag_92:\n      tag_94\n      jump\t// in\n    tag_91:\n      stop\n        /* \"contracts/PokemonFactory.sol\":5664:5808  function getWeaknessOfAPokemon(uint8 _pokemonId) public view returns (uint8[] memory) {\r... */\n    tag_26:\n        /* \"contracts/PokemonFactory.sol\":5734:5748  uint8[] memory */\n      0x60\n        /* \"contracts/PokemonFactory.sol\":5768:5788  weaknessesOfAPokemon */\n      0x08\n        /* \"contracts/PokemonFactory.sol\":5768:5800  weaknessesOfAPokemon[_pokemonId] */\n      0x00\n        /* \"contracts/PokemonFactory.sol\":5789:5799  _pokemonId */\n      dup4\n        /* \"contracts/PokemonFactory.sol\":5768:5800  weaknessesOfAPokemon[_pokemonId] */\n      0xff\n      and\n      0xff\n      and\n      dup2\n      mstore\n      0x20\n      add\n      swap1\n      dup2\n      mstore\n      0x20\n      add\n      0x00\n      keccak256\n        /* \"contracts/PokemonFactory.sol\":5761:5800  return weaknessesOfAPokemon[_pokemonId] */\n      dup1\n      sload\n      dup1\n      0x20\n      mul\n      0x20\n      add\n      mload(0x40)\n      swap1\n      dup2\n      add\n      0x40\n      mstore\n      dup1\n      swap3\n      swap2\n      swap1\n      dup2\n      dup2\n      mstore\n      0x20\n      add\n      dup3\n      dup1\n      sload\n      dup1\n      iszero\n      tag_96\n      jumpi\n      0x20\n      mul\n      dup3\n      add\n      swap2\n      swap1\n      0x00\n      mstore\n      keccak256(0x00, 0x20)\n      swap1\n      0x00\n      swap1\n    tag_97:\n      dup3\n      dup3\n      swap1\n      sload\n      swap1\n      0x0100\n      exp\n      swap1\n      div\n      0xff\n      and\n      0xff\n      and\n      dup2\n      mstore\n      0x20\n      add\n      swap1\n      0x01\n      add\n      swap1\n      0x20\n      dup3\n      0x00\n      add\n      div\n      swap3\n      dup4\n      add\n      swap3\n      0x01\n      sub\n      dup3\n      mul\n      swap2\n      pop\n      dup1\n      dup5\n      gt\n      tag_97\n      jumpi\n      swap1\n      pop\n    tag_96:\n      pop\n      pop\n      pop\n      pop\n      pop\n      swap1\n      pop\n        /* \"contracts/PokemonFactory.sol\":5664:5808  function getWeaknessOfAPokemon(uint8 _pokemonId) public view returns (uint8[] memory) {\r... */\n      swap2\n      swap1\n      pop\n      jump\t// out\n        /* \"contracts/PokemonFactory.sol\":2653:3072  function GiveAbilityToPokemon (uint8 _pokemonId, uint8 _abilityId) public {\r... */\n    tag_32:\n        /* \"contracts/PokemonFactory.sol\":2811:2836  pokemonExists(_pokemonId) */\n      tag_99\n        /* \"contracts/PokemonFactory.sol\":2825:2835  _pokemonId */\n      dup3\n        /* \"contracts/PokemonFactory.sol\":2811:2824  pokemonExists */\n      tag_100\n        /* \"contracts/PokemonFactory.sol\":2811:2836  pokemonExists(_pokemonId) */\n      jump\t// in\n    tag_99:\n        /* \"contracts/PokemonFactory.sol\":2803:2867  require(pokemonExists(_pokemonId), \"The pokemon does not exist\") */\n      tag_101\n      jumpi\n      mload(0x40)\n      0x08c379a000000000000000000000000000000000000000000000000000000000\n      dup2\n      mstore\n      0x04\n      add\n      tag_102\n      swap1\n      tag_103\n      jump\t// in\n    tag_102:\n      mload(0x40)\n      dup1\n      swap2\n      sub\n      swap1\n      revert\n    tag_101:\n        /* \"contracts/PokemonFactory.sol\":2886:2911  abilityExists(_abilityId) */\n      tag_104\n        /* \"contracts/PokemonFactory.sol\":2900:2910  _abilityId */\n      dup2\n        /* \"contracts/PokemonFactory.sol\":2886:2899  abilityExists */\n      tag_105\n        /* \"contracts/PokemonFactory.sol\":2886:2911  abilityExists(_abilityId) */\n      jump\t// in\n    tag_104:\n        /* \"contracts/PokemonFactory.sol\":2878:2942  require(abilityExists(_abilityId), \"The ability does not exist\") */\n      tag_106\n      jumpi\n      mload(0x40)\n      0x08c379a000000000000000000000000000000000000000000000000000000000\n      dup2\n      mstore\n      0x04\n      add\n      tag_107\n      swap1\n      tag_108\n      jump\t// in\n    tag_107:\n      mload(0x40)\n      dup1\n      swap2\n      sub\n      swap1\n      revert\n    tag_106:\n        /* \"contracts/PokemonFactory.sol\":2955:2974  abilitiesOfAPokemon */\n      0x04\n        /* \"contracts/PokemonFactory.sol\":2955:2986  abilitiesOfAPokemon[_pokemonId] */\n      0x00\n        /* \"contracts/PokemonFactory.sol\":2975:2985  _pokemonId */\n      dup4\n        /* \"contracts/PokemonFactory.sol\":2955:2986  abilitiesOfAPokemon[_pokemonId] */\n      0xff\n      and\n      0xff\n      and\n      dup2\n      mstore\n      0x20\n      add\n      swap1\n      dup2\n      mstore\n      0x20\n      add\n      0x00\n      keccak256\n        /* \"contracts/PokemonFactory.sol\":2992:3002  _abilityId */\n      dup2\n        /* \"contracts/PokemonFactory.sol\":2955:3003  abilitiesOfAPokemon[_pokemonId].push(_abilityId) */\n      swap1\n      dup1\n      0x01\n      dup2\n      sload\n      add\n      dup1\n      dup3\n      sstore\n      dup1\n      swap2\n      pop\n      pop\n      0x01\n      swap1\n      sub\n      swap1\n      0x00\n      mstore\n      keccak256(0x00, 0x20)\n      swap1\n      0x20\n      swap2\n      dup3\n      dup3\n      div\n      add\n      swap2\n      swap1\n      mod\n      swap1\n      swap2\n      swap1\n      swap2\n      swap1\n      swap2\n      0x0100\n      exp\n      dup2\n      sload\n      dup2\n      0xff\n      mul\n      not\n      and\n      swap1\n      dup4\n      0xff\n      and\n      mul\n      or\n      swap1\n      sstore\n      pop\n        /* \"contracts/PokemonFactory.sol\":2653:3072  function GiveAbilityToPokemon (uint8 _pokemonId, uint8 _abilityId) public {\r... */\n      pop\n      pop\n      jump\t// out\n        /* \"contracts/PokemonFactory.sol\":563:610  mapping(uint8 => address) public pokemonToOwner */\n    tag_35:\n      mstore(0x20, 0x01)\n      dup1\n      0x00\n      mstore\n      keccak256(0x00, 0x40)\n      0x00\n      swap2\n      pop\n      sload\n      swap1\n      0x0100\n      exp\n      swap1\n      div\n      0xffffffffffffffffffffffffffffffffffffffff\n      and\n      dup2\n      jump\t// out\n        /* \"contracts/PokemonFactory.sol\":4740:4885  function AddWeakness(bytes16 _weaknessName) public {\r... */\n    tag_41:\n        /* \"contracts/PokemonFactory.sol\":4802:4815  allWeaknesses */\n      0x07\n        /* \"contracts/PokemonFactory.sol\":4821:4834  _weaknessName */\n      dup2\n        /* \"contracts/PokemonFactory.sol\":4802:4835  allWeaknesses.push(_weaknessName) */\n      swap1\n      dup1\n      0x01\n      dup2\n      sload\n      add\n      dup1\n      dup3\n      sstore\n      dup1\n      swap2\n      pop\n      pop\n      0x01\n      swap1\n      sub\n      swap1\n      0x00\n      mstore\n      keccak256(0x00, 0x20)\n      swap1\n      0x02\n      swap2\n      dup3\n      dup3\n      div\n      add\n      swap2\n      swap1\n      mod\n      0x10\n      mul\n      swap1\n      swap2\n      swap1\n      swap2\n      swap1\n      swap2\n      0x0100\n      exp\n      dup2\n      sload\n      dup2\n      0xffffffffffffffffffffffffffffffff\n      mul\n      not\n      and\n      swap1\n      dup4\n      0x80\n      shr\n      mul\n      or\n      swap1\n      sstore\n      pop\n        /* \"contracts/PokemonFactory.sol\":4740:4885  function AddWeakness(bytes16 _weaknessName) public {\r... */\n      pop\n      jump\t// out\n        /* \"contracts/PokemonFactory.sol\":6132:6232  function getAllPokemons () public view returns (Pokemon[] memory) {\r... */\n    tag_43:\n        /* \"contracts/PokemonFactory.sol\":6180:6196  Pokemon[] memory */\n      0x60\n        /* \"contracts/PokemonFactory.sol\":6216:6224  pokemons */\n      0x00\n        /* \"contracts/PokemonFactory.sol\":6209:6224  return pokemons */\n      dup1\n      sload\n      dup1\n      0x20\n      mul\n      0x20\n      add\n      mload(0x40)\n      swap1\n      dup2\n      add\n      0x40\n      mstore\n      dup1\n      swap3\n      swap2\n      swap1\n      dup2\n      dup2\n      mstore\n      0x20\n      add\n      0x00\n      swap1\n    tag_113:\n      dup3\n      dup3\n      lt\n      iszero\n      tag_114\n      jumpi\n      dup4\n      dup3\n      swap1\n      0x00\n      mstore\n      keccak256(0x00, 0x20)\n      add\n      mload(0x40)\n      dup1\n      0x40\n      add\n      0x40\n      mstore\n      swap1\n      dup2\n      0x00\n      dup3\n      add\n      0x00\n      swap1\n      sload\n      swap1\n      0x0100\n      exp\n      swap1\n      div\n      0xff\n      and\n      0xff\n      and\n      0xff\n      and\n      dup2\n      mstore\n      0x20\n      add\n      0x00\n      dup3\n      add\n      0x01\n      swap1\n      sload\n      swap1\n      0x0100\n      exp\n      swap1\n      div\n      0x80\n      shl\n      not(0xffffffffffffffffffffffffffffffff)\n      and\n      not(0xffffffffffffffffffffffffffffffff)\n      and\n      dup2\n      mstore\n      pop\n      pop\n      dup2\n      mstore\n      0x20\n      add\n      swap1\n      0x01\n      add\n      swap1\n      jump(tag_113)\n    tag_114:\n      pop\n      pop\n      pop\n      pop\n      swap1\n      pop\n        /* \"contracts/PokemonFactory.sol\":6132:6232  function getAllPokemons () public view returns (Pokemon[] memory) {\r... */\n      swap1\n      jump\t// out\n        /* \"contracts/PokemonFactory.sol\":807:836  Ability[] public allAbilities */\n    tag_49:\n      0x03\n      dup2\n      dup2\n      sload\n      dup2\n      lt\n      tag_116\n      jumpi\n      0x00\n      dup1\n      revert\n    tag_116:\n      swap1\n      0x00\n      mstore\n      keccak256(0x00, 0x20)\n      swap1\n      0x02\n      mul\n      add\n      0x00\n      swap2\n      pop\n      swap1\n      pop\n      dup1\n      0x00\n      add\n      0x00\n      swap1\n      sload\n      swap1\n      0x0100\n      exp\n      swap1\n      div\n      0x80\n      shl\n      swap1\n      dup1\n      0x01\n      add\n      dup1\n      sload\n      tag_118\n      swap1\n      tag_119\n      jump\t// in\n    tag_118:\n      dup1\n      0x1f\n      add\n      0x20\n      dup1\n      swap2\n      div\n      mul\n      0x20\n      add\n      mload(0x40)\n      swap1\n      dup2\n      add\n      0x40\n      mstore\n      dup1\n      swap3\n      swap2\n      swap1\n      dup2\n      dup2\n      mstore\n      0x20\n      add\n      dup3\n      dup1\n      sload\n      tag_120\n      swap1\n      tag_119\n      jump\t// in\n    tag_120:\n      dup1\n      iszero\n      tag_121\n      jumpi\n      dup1\n      0x1f\n      lt\n      tag_122\n      jumpi\n      0x0100\n      dup1\n      dup4\n      sload\n      div\n      mul\n      dup4\n      mstore\n      swap2\n      0x20\n      add\n      swap2\n      jump(tag_121)\n    tag_122:\n      dup3\n      add\n      swap2\n      swap1\n      0x00\n      mstore\n      keccak256(0x00, 0x20)\n      swap1\n    tag_123:\n      dup2\n      sload\n      dup2\n      mstore\n      swap1\n      0x01\n      add\n      swap1\n      0x20\n      add\n      dup1\n      dup4\n      gt\n      tag_123\n      jumpi\n      dup3\n      swap1\n      sub\n      0x1f\n      and\n      dup3\n      add\n      swap2\n    tag_121:\n      pop\n      pop\n      pop\n      pop\n      pop\n      swap1\n      pop\n      dup3\n      jump\t// out\n        /* \"contracts/PokemonFactory.sol\":4893:5316  function GiveWeaknessToPokemon (uint8 _pokemonId, uint8 _weaknessId) public {\r... */\n    tag_54:\n        /* \"contracts/PokemonFactory.sol\":5053:5078  pokemonExists(_pokemonId) */\n      tag_125\n        /* \"contracts/PokemonFactory.sol\":5067:5077  _pokemonId */\n      dup3\n        /* \"contracts/PokemonFactory.sol\":5053:5066  pokemonExists */\n      tag_100\n        /* \"contracts/PokemonFactory.sol\":5053:5078  pokemonExists(_pokemonId) */\n      jump\t// in\n    tag_125:\n        /* \"contracts/PokemonFactory.sol\":5045:5109  require(pokemonExists(_pokemonId), \"The pokemon does not exist\") */\n      tag_126\n      jumpi\n      mload(0x40)\n      0x08c379a000000000000000000000000000000000000000000000000000000000\n      dup2\n      mstore\n      0x04\n      add\n      tag_127\n      swap1\n      tag_103\n      jump\t// in\n    tag_127:\n      mload(0x40)\n      dup1\n      swap2\n      sub\n      swap1\n      revert\n    tag_126:\n        /* \"contracts/PokemonFactory.sol\":5128:5155  weaknessExists(_weaknessId) */\n      tag_128\n        /* \"contracts/PokemonFactory.sol\":5143:5154  _weaknessId */\n      dup2\n        /* \"contracts/PokemonFactory.sol\":5128:5142  weaknessExists */\n      tag_129\n        /* \"contracts/PokemonFactory.sol\":5128:5155  weaknessExists(_weaknessId) */\n      jump\t// in\n    tag_128:\n        /* \"contracts/PokemonFactory.sol\":5120:5187  require(weaknessExists(_weaknessId), \"The weakness does not exist\") */\n      tag_130\n      jumpi\n      mload(0x40)\n      0x08c379a000000000000000000000000000000000000000000000000000000000\n      dup2\n      mstore\n      0x04\n      add\n      tag_131\n      swap1\n      tag_132\n      jump\t// in\n    tag_131:\n      mload(0x40)\n      dup1\n      swap2\n      sub\n      swap1\n      revert\n    tag_130:\n        /* \"contracts/PokemonFactory.sol\":5200:5220  weaknessesOfAPokemon */\n      0x08\n        /* \"contracts/PokemonFactory.sol\":5200:5232  weaknessesOfAPokemon[_pokemonId] */\n      0x00\n        /* \"contracts/PokemonFactory.sol\":5221:5231  _pokemonId */\n      dup4\n        /* \"contracts/PokemonFactory.sol\":5200:5232  weaknessesOfAPokemon[_pokemonId] */\n      0xff\n      and\n      0xff\n      and\n      dup2\n      mstore\n      0x20\n      add\n      swap1\n      dup2\n      mstore\n      0x20\n      add\n      0x00\n      keccak256\n        /* \"contracts/PokemonFactory.sol\":5238:5249  _weaknessId */\n      dup2\n        /* \"contracts/PokemonFactory.sol\":5200:5250  weaknessesOfAPokemon[_pokemonId].push(_weaknessId) */\n      swap1\n      dup1\n      0x01\n      dup2\n      sload\n      add\n      dup1\n      dup3\n      sstore\n      dup1\n      swap2\n      pop\n      pop\n      0x01\n      swap1\n      sub\n      swap1\n      0x00\n      mstore\n      keccak256(0x00, 0x20)\n      swap1\n      0x20\n      swap2\n      dup3\n      dup3\n      div\n      add\n      swap2\n      swap1\n      mod\n      swap1\n      swap2\n      swap1\n      swap2\n      swap1\n      swap2\n      0x0100\n      exp\n      dup2\n      sload\n      dup2\n      0xff\n      mul\n      not\n      and\n      swap1\n      dup4\n      0xff\n      and\n      mul\n      or\n      swap1\n      sstore\n      pop\n        /* \"contracts/PokemonFactory.sol\":4893:5316  function GiveWeaknessToPokemon (uint8 _pokemonId, uint8 _weaknessId) public {\r... */\n      pop\n      pop\n      jump\t// out\n        /* \"contracts/PokemonFactory.sol\":1635:2325  function createPokemon (uint8 _pokemonId, bytes16 pokemonName) public {\r... */\n    tag_58:\n        /* \"contracts/PokemonFactory.sol\":1805:1806  0 */\n      0x00\n        /* \"contracts/PokemonFactory.sol\":1793:1803  _pokemonId */\n      dup3\n        /* \"contracts/PokemonFactory.sol\":1793:1806  _pokemonId>=0 */\n      0xff\n      and\n      lt\n      iszero\n        /* \"contracts/PokemonFactory.sol\":1785:1855  require(_pokemonId>=0, \"The ID value must be greater or equal than 0\") */\n      tag_135\n      jumpi\n      mload(0x40)\n      0x08c379a000000000000000000000000000000000000000000000000000000000\n      dup2\n      mstore\n      0x04\n      add\n      tag_136\n      swap1\n      tag_137\n      jump\t// in\n    tag_136:\n      mload(0x40)\n      dup1\n      swap2\n      sub\n      swap1\n      revert\n    tag_135:\n        /* \"contracts/PokemonFactory.sol\":1903:1904  2 */\n      0x02\n        /* \"contracts/PokemonFactory.sol\":1874:1901  bytes16(pokemonName).length */\n      0x10\n        /* \"contracts/PokemonFactory.sol\":1874:1904  bytes16(pokemonName).length >2 */\n      0xff\n      and\n      gt\n        /* \"contracts/PokemonFactory.sol\":1866:1957  require(bytes16(pokemonName).length >2,  \"The name size must be greater than 2 characters\") */\n      tag_138\n      jumpi\n      mload(0x40)\n      0x08c379a000000000000000000000000000000000000000000000000000000000\n      dup2\n      mstore\n      0x04\n      add\n      tag_139\n      swap1\n      tag_140\n      jump\t// in\n    tag_139:\n      mload(0x40)\n      dup1\n      swap2\n      sub\n      swap1\n      revert\n    tag_138:\n        /* \"contracts/PokemonFactory.sol\":1970:1978  pokemons */\n      0x00\n        /* \"contracts/PokemonFactory.sol\":1984:2016  Pokemon(_pokemonId, pokemonName) */\n      mload(0x40)\n      dup1\n      0x40\n      add\n      0x40\n      mstore\n      dup1\n        /* \"contracts/PokemonFactory.sol\":1992:2002  _pokemonId */\n      dup5\n        /* \"contracts/PokemonFactory.sol\":1984:2016  Pokemon(_pokemonId, pokemonName) */\n      0xff\n      and\n      dup2\n      mstore\n      0x20\n      add\n        /* \"contracts/PokemonFactory.sol\":2004:2015  pokemonName */\n      dup4\n        /* \"contracts/PokemonFactory.sol\":1984:2016  Pokemon(_pokemonId, pokemonName) */\n      not(0xffffffffffffffffffffffffffffffff)\n      and\n      dup2\n      mstore\n      pop\n        /* \"contracts/PokemonFactory.sol\":1970:2017  pokemons.push(Pokemon(_pokemonId, pokemonName)) */\n      swap1\n      dup1\n      0x01\n      dup2\n      sload\n      add\n      dup1\n      dup3\n      sstore\n      dup1\n      swap2\n      pop\n      pop\n      0x01\n      swap1\n      sub\n      swap1\n      0x00\n      mstore\n      keccak256(0x00, 0x20)\n      add\n      0x00\n      swap1\n      swap2\n      swap1\n      swap2\n      swap1\n      swap2\n      pop\n      0x00\n      dup3\n      add\n      mload\n      dup2\n      0x00\n      add\n      exp(0x0100, 0x00)\n      dup2\n      sload\n      dup2\n      0xff\n      mul\n      not\n      and\n      swap1\n      dup4\n      0xff\n      and\n      mul\n      or\n      swap1\n      sstore\n      pop\n      0x20\n      dup3\n      add\n      mload\n      dup2\n      0x00\n      add\n      exp(0x0100, 0x01)\n      dup2\n      sload\n      dup2\n      0xffffffffffffffffffffffffffffffff\n      mul\n      not\n      and\n      swap1\n      dup4\n      0x80\n      shr\n      mul\n      or\n      swap1\n      sstore\n      pop\n      pop\n      pop\n        /* \"contracts/PokemonFactory.sol\":2092:2102  msg.sender */\n      caller\n        /* \"contracts/PokemonFactory.sol\":2063:2077  pokemonToOwner */\n      0x01\n        /* \"contracts/PokemonFactory.sol\":2063:2089  pokemonToOwner[_pokemonId] */\n      0x00\n        /* \"contracts/PokemonFactory.sol\":2078:2088  _pokemonId */\n      dup5\n        /* \"contracts/PokemonFactory.sol\":2063:2089  pokemonToOwner[_pokemonId] */\n      0xff\n      and\n      0xff\n      and\n      dup2\n      mstore\n      0x20\n      add\n      swap1\n      dup2\n      mstore\n      0x20\n      add\n      0x00\n      keccak256\n      0x00\n        /* \"contracts/PokemonFactory.sol\":2063:2102  pokemonToOwner[_pokemonId] = msg.sender */\n      0x0100\n      exp\n      dup2\n      sload\n      dup2\n      0xffffffffffffffffffffffffffffffffffffffff\n      mul\n      not\n      and\n      swap1\n      dup4\n      0xffffffffffffffffffffffffffffffffffffffff\n      and\n      mul\n      or\n      swap1\n      sstore\n      pop\n        /* \"contracts/PokemonFactory.sol\":2169:2186  ownerPokemonCount */\n      0x02\n        /* \"contracts/PokemonFactory.sol\":2169:2198  ownerPokemonCount[msg.sender] */\n      0x00\n        /* \"contracts/PokemonFactory.sol\":2187:2197  msg.sender */\n      caller\n        /* \"contracts/PokemonFactory.sol\":2169:2198  ownerPokemonCount[msg.sender] */\n      0xffffffffffffffffffffffffffffffffffffffff\n      and\n      0xffffffffffffffffffffffffffffffffffffffff\n      and\n      dup2\n      mstore\n      0x20\n      add\n      swap1\n      dup2\n      mstore\n      0x20\n      add\n      0x00\n      keccak256\n      0x00\n        /* \"contracts/PokemonFactory.sol\":2169:2200  ownerPokemonCount[msg.sender]++ */\n      dup2\n      dup2\n      swap1\n      sload\n      swap1\n      0x0100\n      exp\n      swap1\n      div\n      0xff\n      and\n      dup1\n      swap3\n      swap2\n      swap1\n      tag_142\n      swap1\n      tag_143\n      jump\t// in\n    tag_142:\n      swap2\n      swap1\n      0x0100\n      exp\n      dup2\n      sload\n      dup2\n      0xff\n      mul\n      not\n      and\n      swap1\n      dup4\n      0xff\n      and\n      mul\n      or\n      swap1\n      sstore\n      pop\n      pop\n        /* \"contracts/PokemonFactory.sol\":2237:2285  eventNewPokemon(Pokemon(_pokemonId,pokemonName)) */\n      0x44f95b0b736d151f7ae290ba182bd361afba80b07a2ac501daf85ed0e518eb44\n        /* \"contracts/PokemonFactory.sol\":2253:2284  Pokemon(_pokemonId,pokemonName) */\n      mload(0x40)\n      dup1\n      0x40\n      add\n      0x40\n      mstore\n      dup1\n        /* \"contracts/PokemonFactory.sol\":2261:2271  _pokemonId */\n      dup5\n        /* \"contracts/PokemonFactory.sol\":2253:2284  Pokemon(_pokemonId,pokemonName) */\n      0xff\n      and\n      dup2\n      mstore\n      0x20\n      add\n        /* \"contracts/PokemonFactory.sol\":2272:2283  pokemonName */\n      dup4\n        /* \"contracts/PokemonFactory.sol\":2253:2284  Pokemon(_pokemonId,pokemonName) */\n      not(0xffffffffffffffffffffffffffffffff)\n      and\n      dup2\n      mstore\n      pop\n        /* \"contracts/PokemonFactory.sol\":2237:2285  eventNewPokemon(Pokemon(_pokemonId,pokemonName)) */\n      mload(0x40)\n      tag_144\n      swap2\n      swap1\n      tag_145\n      jump\t// in\n    tag_144:\n      mload(0x40)\n      dup1\n      swap2\n      sub\n      swap1\n      log1\n        /* \"contracts/PokemonFactory.sol\":1635:2325  function createPokemon (uint8 _pokemonId, bytes16 pokemonName) public {\r... */\n      pop\n      pop\n      jump\t// out\n        /* \"contracts/PokemonFactory.sol\":455:482  Pokemon[]  public  pokemons */\n    tag_61:\n      0x00\n      dup2\n      dup2\n      sload\n      dup2\n      lt\n      tag_146\n      jumpi\n      0x00\n      dup1\n      revert\n    tag_146:\n      swap1\n      0x00\n      mstore\n      keccak256(0x00, 0x20)\n      add\n      0x00\n      swap2\n      pop\n      swap1\n      pop\n      dup1\n      0x00\n      add\n      0x00\n      swap1\n      sload\n      swap1\n      0x0100\n      exp\n      swap1\n      div\n      0xff\n      and\n      swap1\n      dup1\n      0x00\n      add\n      0x01\n      swap1\n      sload\n      swap1\n      0x0100\n      exp\n      swap1\n      div\n      0x80\n      shl\n      swap1\n      pop\n      dup3\n      jump\t// out\n        /* \"contracts/PokemonFactory.sol\":3660:3786  function AddType (bytes16 _typeName) public {\r... */\n    tag_66:\n        /* \"contracts/PokemonFactory.sol\":3715:3723  allTypes */\n      0x05\n        /* \"contracts/PokemonFactory.sol\":3729:3738  _typeName */\n      dup2\n        /* \"contracts/PokemonFactory.sol\":3715:3739  allTypes.push(_typeName) */\n      swap1\n      dup1\n      0x01\n      dup2\n      sload\n      add\n      dup1\n      dup3\n      sstore\n      dup1\n      swap2\n      pop\n      pop\n      0x01\n      swap1\n      sub\n      swap1\n      0x00\n      mstore\n      keccak256(0x00, 0x20)\n      swap1\n      0x02\n      swap2\n      dup3\n      dup3\n      div\n      add\n      swap2\n      swap1\n      mod\n      0x10\n      mul\n      swap1\n      swap2\n      swap1\n      swap2\n      swap1\n      swap2\n      0x0100\n      exp\n      dup2\n      sload\n      dup2\n      0xffffffffffffffffffffffffffffffff\n      mul\n      not\n      and\n      swap1\n      dup4\n      0x80\n      shr\n      mul\n      or\n      swap1\n      sstore\n      pop\n        /* \"contracts/PokemonFactory.sol\":3660:3786  function AddType (bytes16 _typeName) public {\r... */\n      pop\n      jump\t// out\n        /* \"contracts/PokemonFactory.sol\":3428:3572  function getAbilitiesOfAPokemon(uint8 _pokemonId) public view returns (uint8[] memory) {\r... */\n    tag_69:\n        /* \"contracts/PokemonFactory.sol\":3499:3513  uint8[] memory */\n      0x60\n        /* \"contracts/PokemonFactory.sol\":3533:3552  abilitiesOfAPokemon */\n      0x04\n        /* \"contracts/PokemonFactory.sol\":3533:3564  abilitiesOfAPokemon[_pokemonId] */\n      0x00\n        /* \"contracts/PokemonFactory.sol\":3553:3563  _pokemonId */\n      dup4\n        /* \"contracts/PokemonFactory.sol\":3533:3564  abilitiesOfAPokemon[_pokemonId] */\n      0xff\n      and\n      0xff\n      and\n      dup2\n      mstore\n      0x20\n      add\n      swap1\n      dup2\n      mstore\n      0x20\n      add\n      0x00\n      keccak256\n        /* \"contracts/PokemonFactory.sol\":3526:3564  return abilitiesOfAPokemon[_pokemonId] */\n      dup1\n      sload\n      dup1\n      0x20\n      mul\n      0x20\n      add\n      mload(0x40)\n      swap1\n      dup2\n      add\n      0x40\n      mstore\n      dup1\n      swap3\n      swap2\n      swap1\n      dup2\n      dup2\n      mstore\n      0x20\n      add\n      dup3\n      dup1\n      sload\n      dup1\n      iszero\n      tag_151\n      jumpi\n      0x20\n      mul\n      dup3\n      add\n      swap2\n      swap1\n      0x00\n      mstore\n      keccak256(0x00, 0x20)\n      swap1\n      0x00\n      swap1\n    tag_152:\n      dup3\n      dup3\n      swap1\n      sload\n      swap1\n      0x0100\n      exp\n      swap1\n      div\n      0xff\n      and\n      0xff\n      and\n      dup2\n      mstore\n      0x20\n      add\n      swap1\n      0x01\n      add\n      swap1\n      0x20\n      dup3\n      0x00\n      add\n      div\n      swap3\n      dup4\n      add\n      swap3\n      0x01\n      sub\n      dup3\n      mul\n      swap2\n      pop\n      dup1\n      dup5\n      gt\n      tag_152\n      jumpi\n      swap1\n      pop\n    tag_151:\n      pop\n      pop\n      pop\n      pop\n      pop\n      swap1\n      pop\n        /* \"contracts/PokemonFactory.sol\":3428:3572  function getAbilitiesOfAPokemon(uint8 _pokemonId) public view returns (uint8[] memory) {\r... */\n      swap2\n      swap1\n      pop\n      jump\t// out\n        /* \"contracts/PokemonFactory.sol\":1043:1068  bytes16[] public allTypes */\n    tag_73:\n      0x05\n      dup2\n      dup2\n      sload\n      dup2\n      lt\n      tag_153\n      jumpi\n      0x00\n      dup1\n      revert\n    tag_153:\n      swap1\n      0x00\n      mstore\n      keccak256(0x00, 0x20)\n      swap1\n      0x02\n      swap2\n      dup3\n      dup3\n      div\n      add\n      swap2\n      swap1\n      mod\n      0x10\n      mul\n      swap2\n      pop\n      sload\n      swap1\n      0x0100\n      exp\n      swap1\n      div\n      0x80\n      shl\n      dup2\n      jump\t// out\n        /* \"contracts/PokemonFactory.sol\":4509:4645  function getTypesOfAPokemon(uint8 _pokemonId) public view returns (uint8[] memory) {\r... */\n    tag_78:\n        /* \"contracts/PokemonFactory.sol\":4576:4590  uint8[] memory */\n      0x60\n        /* \"contracts/PokemonFactory.sol\":4610:4625  typesOfAPokemon */\n      0x06\n        /* \"contracts/PokemonFactory.sol\":4610:4637  typesOfAPokemon[_pokemonId] */\n      0x00\n        /* \"contracts/PokemonFactory.sol\":4626:4636  _pokemonId */\n      dup4\n        /* \"contracts/PokemonFactory.sol\":4610:4637  typesOfAPokemon[_pokemonId] */\n      0xff\n      and\n      0xff\n      and\n      dup2\n      mstore\n      0x20\n      add\n      swap1\n      dup2\n      mstore\n      0x20\n      add\n      0x00\n      keccak256\n        /* \"contracts/PokemonFactory.sol\":4603:4637  return typesOfAPokemon[_pokemonId] */\n      dup1\n      sload\n      dup1\n      0x20\n      mul\n      0x20\n      add\n      mload(0x40)\n      swap1\n      dup2\n      add\n      0x40\n      mstore\n      dup1\n      swap3\n      swap2\n      swap1\n      dup2\n      dup2\n      mstore\n      0x20\n      add\n      dup3\n      dup1\n      sload\n      dup1\n      iszero\n      tag_156\n      jumpi\n      0x20\n      mul\n      dup3\n      add\n      swap2\n      swap1\n      0x00\n      mstore\n      keccak256(0x00, 0x20)\n      swap1\n      0x00\n      swap1\n    tag_157:\n      dup3\n      dup3\n      swap1\n      sload\n      swap1\n      0x0100\n      exp\n      swap1\n      div\n      0xff\n      and\n      0xff\n      and\n      dup2\n      mstore\n      0x20\n      add\n      swap1\n      0x01\n      add\n      swap1\n      0x20\n      dup3\n      0x00\n      add\n      div\n      swap3\n      dup4\n      add\n      swap3\n      0x01\n      sub\n      dup3\n      mul\n      swap2\n      pop\n      dup1\n      dup5\n      gt\n      tag_157\n      jumpi\n      swap1\n      pop\n    tag_156:\n      pop\n      pop\n      pop\n      pop\n      pop\n      swap1\n      pop\n        /* \"contracts/PokemonFactory.sol\":4509:4645  function getTypesOfAPokemon(uint8 _pokemonId) public view returns (uint8[] memory) {\r... */\n      swap2\n      swap1\n      pop\n      jump\t// out\n        /* \"contracts/PokemonFactory.sol\":6278:6383  function getAllAbilities () public view returns (Ability[] memory) {\r... */\n    tag_81:\n        /* \"contracts/PokemonFactory.sol\":6327:6343  Ability[] memory */\n      0x60\n        /* \"contracts/PokemonFactory.sol\":6363:6375  allAbilities */\n      0x03\n        /* \"contracts/PokemonFactory.sol\":6356:6375  return allAbilities */\n      dup1\n      sload\n      dup1\n      0x20\n      mul\n      0x20\n      add\n      mload(0x40)\n      swap1\n      dup2\n      add\n      0x40\n      mstore\n      dup1\n      swap3\n      swap2\n      swap1\n      dup2\n      dup2\n      mstore\n      0x20\n      add\n      0x00\n      swap1\n    tag_159:\n      dup3\n      dup3\n      lt\n      iszero\n      tag_160\n      jumpi\n      dup4\n      dup3\n      swap1\n      0x00\n      mstore\n      keccak256(0x00, 0x20)\n      swap1\n      0x02\n      mul\n      add\n      mload(0x40)\n      dup1\n      0x40\n      add\n      0x40\n      mstore\n      swap1\n      dup2\n      0x00\n      dup3\n      add\n      0x00\n      swap1\n      sload\n      swap1\n      0x0100\n      exp\n      swap1\n      div\n      0x80\n      shl\n      not(0xffffffffffffffffffffffffffffffff)\n      and\n      not(0xffffffffffffffffffffffffffffffff)\n      and\n      dup2\n      mstore\n      0x20\n      add\n      0x01\n      dup3\n      add\n      dup1\n      sload\n      tag_162\n      swap1\n      tag_119\n      jump\t// in\n    tag_162:\n      dup1\n      0x1f\n      add\n      0x20\n      dup1\n      swap2\n      div\n      mul\n      0x20\n      add\n      mload(0x40)\n      swap1\n      dup2\n      add\n      0x40\n      mstore\n      dup1\n      swap3\n      swap2\n      swap1\n      dup2\n      dup2\n      mstore\n      0x20\n      add\n      dup3\n      dup1\n      sload\n      tag_163\n      swap1\n      tag_119\n      jump\t// in\n    tag_163:\n      dup1\n      iszero\n      tag_164\n      jumpi\n      dup1\n      0x1f\n      lt\n      tag_165\n      jumpi\n      0x0100\n      dup1\n      dup4\n      sload\n      div\n      mul\n      dup4\n      mstore\n      swap2\n      0x20\n      add\n      swap2\n      jump(tag_164)\n    tag_165:\n      dup3\n      add\n      swap2\n      swap1\n      0x00\n      mstore\n      keccak256(0x00, 0x20)\n      swap1\n    tag_166:\n      dup2\n      sload\n      dup2\n      mstore\n      swap1\n      0x01\n      add\n      swap1\n      0x20\n      add\n      dup1\n      dup4\n      gt\n      tag_166\n      jumpi\n      dup3\n      swap1\n      sub\n      0x1f\n      and\n      dup3\n      add\n      swap2\n    tag_164:\n      pop\n      pop\n      pop\n      pop\n      pop\n      dup2\n      mstore\n      pop\n      pop\n      dup2\n      mstore\n      0x20\n      add\n      swap1\n      0x01\n      add\n      swap1\n      jump(tag_159)\n    tag_160:\n      pop\n      pop\n      pop\n      pop\n      swap1\n      pop\n        /* \"contracts/PokemonFactory.sol\":6278:6383  function getAllAbilities () public view returns (Ability[] memory) {\r... */\n      swap1\n      jump\t// out\n        /* \"contracts/PokemonFactory.sol\":3794:4184  function GiveTypeToPokemon (uint8 _pokemonId, uint8 _typeId) public {\r... */\n    tag_86:\n        /* \"contracts/PokemonFactory.sol\":3946:3971  pokemonExists(_pokemonId) */\n      tag_168\n        /* \"contracts/PokemonFactory.sol\":3960:3970  _pokemonId */\n      dup3\n        /* \"contracts/PokemonFactory.sol\":3946:3959  pokemonExists */\n      tag_100\n        /* \"contracts/PokemonFactory.sol\":3946:3971  pokemonExists(_pokemonId) */\n      jump\t// in\n    tag_168:\n        /* \"contracts/PokemonFactory.sol\":3938:4002  require(pokemonExists(_pokemonId), \"The pokemon does not exist\") */\n      tag_169\n      jumpi\n      mload(0x40)\n      0x08c379a000000000000000000000000000000000000000000000000000000000\n      dup2\n      mstore\n      0x04\n      add\n      tag_170\n      swap1\n      tag_103\n      jump\t// in\n    tag_170:\n      mload(0x40)\n      dup1\n      swap2\n      sub\n      swap1\n      revert\n    tag_169:\n        /* \"contracts/PokemonFactory.sol\":4021:4040  typeExists(_typeId) */\n      tag_171\n        /* \"contracts/PokemonFactory.sol\":4032:4039  _typeId */\n      dup2\n        /* \"contracts/PokemonFactory.sol\":4021:4031  typeExists */\n      tag_172\n        /* \"contracts/PokemonFactory.sol\":4021:4040  typeExists(_typeId) */\n      jump\t// in\n    tag_171:\n        /* \"contracts/PokemonFactory.sol\":4013:4068  require(typeExists(_typeId), \"The type does not exist\") */\n      tag_173\n      jumpi\n      mload(0x40)\n      0x08c379a000000000000000000000000000000000000000000000000000000000\n      dup2\n      mstore\n      0x04\n      add\n      tag_174\n      swap1\n      tag_175\n      jump\t// in\n    tag_174:\n      mload(0x40)\n      dup1\n      swap2\n      sub\n      swap1\n      revert\n    tag_173:\n        /* \"contracts/PokemonFactory.sol\":4081:4096  typesOfAPokemon */\n      0x06\n        /* \"contracts/PokemonFactory.sol\":4081:4108  typesOfAPokemon[_pokemonId] */\n      0x00\n        /* \"contracts/PokemonFactory.sol\":4097:4107  _pokemonId */\n      dup4\n        /* \"contracts/PokemonFactory.sol\":4081:4108  typesOfAPokemon[_pokemonId] */\n      0xff\n      and\n      0xff\n      and\n      dup2\n      mstore\n      0x20\n      add\n      swap1\n      dup2\n      mstore\n      0x20\n      add\n      0x00\n      keccak256\n        /* \"contracts/PokemonFactory.sol\":4114:4121  _typeId */\n      dup2\n        /* \"contracts/PokemonFactory.sol\":4081:4122  typesOfAPokemon[_pokemonId].push(_typeId) */\n      swap1\n      dup1\n      0x01\n      dup2\n      sload\n      add\n      dup1\n      dup3\n      sstore\n      dup1\n      swap2\n      pop\n      pop\n      0x01\n      swap1\n      sub\n      swap1\n      0x00\n      mstore\n      keccak256(0x00, 0x20)\n      swap1\n      0x20\n      swap2\n      dup3\n      dup3\n      div\n      add\n      swap2\n      swap1\n      mod\n      swap1\n      swap2\n      swap1\n      swap2\n      swap1\n      swap2\n      0x0100\n      exp\n      dup2\n      sload\n      dup2\n      0xff\n      mul\n      not\n      and\n      swap1\n      dup4\n      0xff\n      and\n      mul\n      or\n      swap1\n      sstore\n      pop\n        /* \"contracts/PokemonFactory.sol\":3794:4184  function GiveTypeToPokemon (uint8 _pokemonId, uint8 _typeId) public {\r... */\n      pop\n      pop\n      jump\t// out\n        /* \"contracts/PokemonFactory.sol\":1267:1297  bytes16[] public allWeaknesses */\n    tag_89:\n      0x07\n      dup2\n      dup2\n      sload\n      dup2\n      lt\n      tag_177\n      jumpi\n      0x00\n      dup1\n      revert\n    tag_177:\n      swap1\n      0x00\n      mstore\n      keccak256(0x00, 0x20)\n      swap1\n      0x02\n      swap2\n      dup3\n      dup3\n      div\n      add\n      swap2\n      swap1\n      mod\n      0x10\n      mul\n      swap2\n      pop\n      sload\n      swap1\n      0x0100\n      exp\n      swap1\n      div\n      0x80\n      shl\n      dup2\n      jump\t// out\n        /* \"contracts/PokemonFactory.sol\":2423:2645  function AddAbility (bytes16 _abilityName, string memory _abilityDescription) public {\r... */\n    tag_94:\n        /* \"contracts/PokemonFactory.sol\":2519:2531  allAbilities */\n      0x03\n        /* \"contracts/PokemonFactory.sol\":2537:2579  Ability(_abilityName, _abilityDescription) */\n      mload(0x40)\n      dup1\n      0x40\n      add\n      0x40\n      mstore\n      dup1\n        /* \"contracts/PokemonFactory.sol\":2545:2557  _abilityName */\n      dup5\n        /* \"contracts/PokemonFactory.sol\":2537:2579  Ability(_abilityName, _abilityDescription) */\n      not(0xffffffffffffffffffffffffffffffff)\n      and\n      dup2\n      mstore\n      0x20\n      add\n        /* \"contracts/PokemonFactory.sol\":2559:2578  _abilityDescription */\n      dup4\n        /* \"contracts/PokemonFactory.sol\":2537:2579  Ability(_abilityName, _abilityDescription) */\n      dup2\n      mstore\n      pop\n        /* \"contracts/PokemonFactory.sol\":2519:2580  allAbilities.push(Ability(_abilityName, _abilityDescription)) */\n      swap1\n      dup1\n      0x01\n      dup2\n      sload\n      add\n      dup1\n      dup3\n      sstore\n      dup1\n      swap2\n      pop\n      pop\n      0x01\n      swap1\n      sub\n      swap1\n      0x00\n      mstore\n      keccak256(0x00, 0x20)\n      swap1\n      0x02\n      mul\n      add\n      0x00\n      swap1\n      swap2\n      swap1\n      swap2\n      swap1\n      swap2\n      pop\n      0x00\n      dup3\n      add\n      mload\n      dup2\n      0x00\n      add\n      exp(0x0100, 0x00)\n      dup2\n      sload\n      dup2\n      0xffffffffffffffffffffffffffffffff\n      mul\n      not\n      and\n      swap1\n      dup4\n      0x80\n      shr\n      mul\n      or\n      swap1\n      sstore\n      pop\n      0x20\n      dup3\n      add\n      mload\n      dup2\n      0x01\n      add\n      swap1\n      dup1\n      mload\n      swap1\n      0x20\n      add\n      swap1\n      tag_181\n      swap3\n      swap2\n      swap1\n      tag_182\n      jump\t// in\n    tag_181:\n      pop\n      pop\n      pop\n        /* \"contracts/PokemonFactory.sol\":2423:2645  function AddAbility (bytes16 _abilityName, string memory _abilityDescription) public {\r... */\n      pop\n      pop\n      jump\t// out\n        /* \"contracts/PokemonFactory.sol\":5902:6087  function pokemonExists (uint8 _pokemonId) private view returns (bool) {\r... */\n    tag_100:\n        /* \"contracts/PokemonFactory.sol\":5966:5970  bool */\n      0x00\n        /* \"contracts/PokemonFactory.sol\":5983:5999  bytes16 tempName */\n      dup1\n        /* \"contracts/PokemonFactory.sol\":6002:6010  pokemons */\n      0x00\n        /* \"contracts/PokemonFactory.sol\":6011:6021  _pokemonId */\n      dup4\n        /* \"contracts/PokemonFactory.sol\":6002:6022  pokemons[_pokemonId] */\n      0xff\n      and\n      dup2\n      sload\n      dup2\n      lt\n      tag_184\n      jumpi\n      tag_185\n      tag_186\n      jump\t// in\n    tag_185:\n    tag_184:\n      swap1\n      0x00\n      mstore\n      keccak256(0x00, 0x20)\n      add\n        /* \"contracts/PokemonFactory.sol\":6002:6034  pokemons[_pokemonId].pokemonName */\n      0x00\n      add\n      0x01\n      swap1\n      sload\n      swap1\n      0x0100\n      exp\n      swap1\n      div\n      0x80\n      shl\n        /* \"contracts/PokemonFactory.sol\":5983:6034  bytes16 tempName = pokemons[_pokemonId].pokemonName */\n      swap1\n      pop\n        /* \"contracts/PokemonFactory.sol\":6078:6079  1 */\n      0x01\n        /* \"contracts/PokemonFactory.sol\":6052:6076  bytes16(tempName).length */\n      0x10\n        /* \"contracts/PokemonFactory.sol\":6052:6079  bytes16(tempName).length >1 */\n      0xff\n      and\n      gt\n        /* \"contracts/PokemonFactory.sol\":6045:6079  return bytes16(tempName).length >1 */\n      swap2\n      pop\n      pop\n        /* \"contracts/PokemonFactory.sol\":5902:6087  function pokemonExists (uint8 _pokemonId) private view returns (bool) {\r... */\n      swap2\n      swap1\n      pop\n      jump\t// out\n        /* \"contracts/PokemonFactory.sol\":3166:3355  function abilityExists (uint8 _abilityId) private view returns (bool) {\r... */\n    tag_105:\n        /* \"contracts/PokemonFactory.sol\":3230:3234  bool */\n      0x00\n        /* \"contracts/PokemonFactory.sol\":3247:3263  bytes16 tempName */\n      dup1\n        /* \"contracts/PokemonFactory.sol\":3266:3278  allAbilities */\n      0x03\n        /* \"contracts/PokemonFactory.sol\":3279:3289  _abilityId */\n      dup4\n        /* \"contracts/PokemonFactory.sol\":3266:3290  allAbilities[_abilityId] */\n      0xff\n      and\n      dup2\n      sload\n      dup2\n      lt\n      tag_189\n      jumpi\n      tag_190\n      tag_186\n      jump\t// in\n    tag_190:\n    tag_189:\n      swap1\n      0x00\n      mstore\n      keccak256(0x00, 0x20)\n      swap1\n      0x02\n      mul\n      add\n        /* \"contracts/PokemonFactory.sol\":3266:3302  allAbilities[_abilityId].abilityName */\n      0x00\n      add\n      0x00\n      swap1\n      sload\n      swap1\n      0x0100\n      exp\n      swap1\n      div\n      0x80\n      shl\n        /* \"contracts/PokemonFactory.sol\":3247:3302  bytes16 tempName = allAbilities[_abilityId].abilityName */\n      swap1\n      pop\n        /* \"contracts/PokemonFactory.sol\":3346:3347  1 */\n      0x01\n        /* \"contracts/PokemonFactory.sol\":3320:3344  bytes16(tempName).length */\n      0x10\n        /* \"contracts/PokemonFactory.sol\":3320:3347  bytes16(tempName).length >1 */\n      0xff\n      and\n      gt\n        /* \"contracts/PokemonFactory.sol\":3313:3347  return bytes16(tempName).length >1 */\n      swap2\n      pop\n      pop\n        /* \"contracts/PokemonFactory.sol\":3166:3355  function abilityExists (uint8 _abilityId) private view returns (bool) {\r... */\n      swap2\n      swap1\n      pop\n      jump\t// out\n        /* \"contracts/PokemonFactory.sol\":5411:5592  function weaknessExists (uint8 _weaknessId) private view returns (bool) {\r... */\n    tag_129:\n        /* \"contracts/PokemonFactory.sol\":5477:5481  bool */\n      0x00\n        /* \"contracts/PokemonFactory.sol\":5494:5510  bytes16 tempName */\n      dup1\n        /* \"contracts/PokemonFactory.sol\":5513:5526  allWeaknesses */\n      0x07\n        /* \"contracts/PokemonFactory.sol\":5527:5538  _weaknessId */\n      dup4\n        /* \"contracts/PokemonFactory.sol\":5513:5539  allWeaknesses[_weaknessId] */\n      0xff\n      and\n      dup2\n      sload\n      dup2\n      lt\n      tag_193\n      jumpi\n      tag_194\n      tag_186\n      jump\t// in\n    tag_194:\n    tag_193:\n      swap1\n      0x00\n      mstore\n      keccak256(0x00, 0x20)\n      swap1\n      0x02\n      swap2\n      dup3\n      dup3\n      div\n      add\n      swap2\n      swap1\n      mod\n      0x10\n      mul\n      swap1\n      sload\n      swap1\n      0x0100\n      exp\n      swap1\n      div\n      0x80\n      shl\n        /* \"contracts/PokemonFactory.sol\":5494:5539  bytes16 tempName = allWeaknesses[_weaknessId] */\n      swap1\n      pop\n        /* \"contracts/PokemonFactory.sol\":5583:5584  1 */\n      0x01\n        /* \"contracts/PokemonFactory.sol\":5557:5581  bytes16(tempName).length */\n      0x10\n        /* \"contracts/PokemonFactory.sol\":5557:5584  bytes16(tempName).length >1 */\n      0xff\n      and\n      gt\n        /* \"contracts/PokemonFactory.sol\":5550:5584  return bytes16(tempName).length >1 */\n      swap2\n      pop\n      pop\n        /* \"contracts/PokemonFactory.sol\":5411:5592  function weaknessExists (uint8 _weaknessId) private view returns (bool) {\r... */\n      swap2\n      swap1\n      pop\n      jump\t// out\n        /* \"contracts/PokemonFactory.sol\":4276:4440  function typeExists (uint8 _typeId) private view returns (bool) {\r... */\n    tag_172:\n        /* \"contracts/PokemonFactory.sol\":4334:4338  bool */\n      0x00\n        /* \"contracts/PokemonFactory.sol\":4351:4367  bytes16 tempName */\n      dup1\n        /* \"contracts/PokemonFactory.sol\":4370:4378  allTypes */\n      0x05\n        /* \"contracts/PokemonFactory.sol\":4379:4386  _typeId */\n      dup4\n        /* \"contracts/PokemonFactory.sol\":4370:4387  allTypes[_typeId] */\n      0xff\n      and\n      dup2\n      sload\n      dup2\n      lt\n      tag_197\n      jumpi\n      tag_198\n      tag_186\n      jump\t// in\n    tag_198:\n    tag_197:\n      swap1\n      0x00\n      mstore\n      keccak256(0x00, 0x20)\n      swap1\n      0x02\n      swap2\n      dup3\n      dup3\n      div\n      add\n      swap2\n      swap1\n      mod\n      0x10\n      mul\n      swap1\n      sload\n      swap1\n      0x0100\n      exp\n      swap1\n      div\n      0x80\n      shl\n        /* \"contracts/PokemonFactory.sol\":4351:4387  bytes16 tempName = allTypes[_typeId] */\n      swap1\n      pop\n        /* \"contracts/PokemonFactory.sol\":4431:4432  1 */\n      0x01\n        /* \"contracts/PokemonFactory.sol\":4405:4429  bytes16(tempName).length */\n      0x10\n        /* \"contracts/PokemonFactory.sol\":4405:4432  bytes16(tempName).length >1 */\n      0xff\n      and\n      gt\n        /* \"contracts/PokemonFactory.sol\":4398:4432  return bytes16(tempName).length >1 */\n      swap2\n      pop\n      pop\n        /* \"contracts/PokemonFactory.sol\":4276:4440  function typeExists (uint8 _typeId) private view returns (bool) {\r... */\n      swap2\n      swap1\n      pop\n      jump\t// out\n    tag_182:\n      dup3\n      dup1\n      sload\n      tag_200\n      swap1\n      tag_119\n      jump\t// in\n    tag_200:\n      swap1\n      0x00\n      mstore\n      keccak256(0x00, 0x20)\n      swap1\n      0x1f\n      add\n      0x20\n      swap1\n      div\n      dup2\n      add\n      swap3\n      dup3\n      tag_202\n      jumpi\n      0x00\n      dup6\n      sstore\n      jump(tag_201)\n    tag_202:\n      dup3\n      0x1f\n      lt\n      tag_203\n      jumpi\n      dup1\n      mload\n      not(0xff)\n      and\n      dup4\n      dup1\n      add\n      or\n      dup6\n      sstore\n      jump(tag_201)\n    tag_203:\n      dup3\n      dup1\n      add\n      0x01\n      add\n      dup6\n      sstore\n      dup3\n      iszero\n      tag_201\n      jumpi\n      swap2\n      dup3\n      add\n    tag_204:\n      dup3\n      dup2\n      gt\n      iszero\n      tag_205\n      jumpi\n      dup3\n      mload\n      dup3\n      sstore\n      swap2\n      0x20\n      add\n      swap2\n      swap1\n      0x01\n      add\n      swap1\n      jump(tag_204)\n    tag_205:\n    tag_201:\n      pop\n      swap1\n      pop\n      tag_206\n      swap2\n      swap1\n      tag_207\n      jump\t// in\n    tag_206:\n      pop\n      swap1\n      jump\t// out\n    tag_207:\n    tag_208:\n      dup1\n      dup3\n      gt\n      iszero\n      tag_209\n      jumpi\n      0x00\n      dup2\n      0x00\n      swap1\n      sstore\n      pop\n      0x01\n      add\n      jump(tag_208)\n    tag_209:\n      pop\n      swap1\n      jump\t// out\n        /* \"#utility.yul\":7:419   */\n    tag_211:\n        /* \"#utility.yul\":85:90   */\n      0x00\n        /* \"#utility.yul\":110:176   */\n      tag_213\n        /* \"#utility.yul\":126:175   */\n      tag_214\n        /* \"#utility.yul\":168:174   */\n      dup5\n        /* \"#utility.yul\":126:175   */\n      tag_215\n      jump\t// in\n    tag_214:\n        /* \"#utility.yul\":110:176   */\n      tag_216\n      jump\t// in\n    tag_213:\n        /* \"#utility.yul\":101:176   */\n      swap1\n      pop\n        /* \"#utility.yul\":199:205   */\n      dup3\n        /* \"#utility.yul\":192:197   */\n      dup2\n        /* \"#utility.yul\":185:206   */\n      mstore\n        /* \"#utility.yul\":237:241   */\n      0x20\n        /* \"#utility.yul\":230:235   */\n      dup2\n        /* \"#utility.yul\":226:242   */\n      add\n        /* \"#utility.yul\":275:278   */\n      dup5\n        /* \"#utility.yul\":266:272   */\n      dup5\n        /* \"#utility.yul\":261:264   */\n      dup5\n        /* \"#utility.yul\":257:273   */\n      add\n        /* \"#utility.yul\":254:279   */\n      gt\n        /* \"#utility.yul\":251:363   */\n      iszero\n      tag_217\n      jumpi\n        /* \"#utility.yul\":282:361   */\n      tag_218\n      tag_219\n      jump\t// in\n    tag_218:\n        /* \"#utility.yul\":251:363   */\n    tag_217:\n        /* \"#utility.yul\":372:413   */\n      tag_220\n        /* \"#utility.yul\":406:412   */\n      dup5\n        /* \"#utility.yul\":401:404   */\n      dup3\n        /* \"#utility.yul\":396:399   */\n      dup6\n        /* \"#utility.yul\":372:413   */\n      tag_221\n      jump\t// in\n    tag_220:\n        /* \"#utility.yul\":91:419   */\n      pop\n        /* \"#utility.yul\":7:419   */\n      swap4\n      swap3\n      pop\n      pop\n      pop\n      jump\t// out\n        /* \"#utility.yul\":425:564   */\n    tag_222:\n        /* \"#utility.yul\":471:476   */\n      0x00\n        /* \"#utility.yul\":509:515   */\n      dup2\n        /* \"#utility.yul\":496:516   */\n      calldataload\n        /* \"#utility.yul\":487:516   */\n      swap1\n      pop\n        /* \"#utility.yul\":525:558   */\n      tag_224\n        /* \"#utility.yul\":552:557   */\n      dup2\n        /* \"#utility.yul\":525:558   */\n      tag_225\n      jump\t// in\n    tag_224:\n        /* \"#utility.yul\":425:564   */\n      swap3\n      swap2\n      pop\n      pop\n      jump\t// out\n        /* \"#utility.yul\":584:924   */\n    tag_226:\n        /* \"#utility.yul\":640:645   */\n      0x00\n        /* \"#utility.yul\":689:692   */\n      dup3\n        /* \"#utility.yul\":682:686   */\n      0x1f\n        /* \"#utility.yul\":674:680   */\n      dup4\n        /* \"#utility.yul\":670:687   */\n      add\n        /* \"#utility.yul\":666:693   */\n      slt\n        /* \"#utility.yul\":656:778   */\n      tag_228\n      jumpi\n        /* \"#utility.yul\":697:776   */\n      tag_229\n      tag_230\n      jump\t// in\n    tag_229:\n        /* \"#utility.yul\":656:778   */\n    tag_228:\n        /* \"#utility.yul\":814:820   */\n      dup2\n        /* \"#utility.yul\":801:821   */\n      calldataload\n        /* \"#utility.yul\":839:918   */\n      tag_231\n        /* \"#utility.yul\":914:917   */\n      dup5\n        /* \"#utility.yul\":906:912   */\n      dup3\n        /* \"#utility.yul\":899:903   */\n      0x20\n        /* \"#utility.yul\":891:897   */\n      dup7\n        /* \"#utility.yul\":887:904   */\n      add\n        /* \"#utility.yul\":839:918   */\n      tag_211\n      jump\t// in\n    tag_231:\n        /* \"#utility.yul\":830:918   */\n      swap2\n      pop\n        /* \"#utility.yul\":646:924   */\n      pop\n        /* \"#utility.yul\":584:924   */\n      swap3\n      swap2\n      pop\n      pop\n      jump\t// out\n        /* \"#utility.yul\":930:1069   */\n    tag_232:\n        /* \"#utility.yul\":976:981   */\n      0x00\n        /* \"#utility.yul\":1014:1020   */\n      dup2\n        /* \"#utility.yul\":1001:1021   */\n      calldataload\n        /* \"#utility.yul\":992:1021   */\n      swap1\n      pop\n        /* \"#utility.yul\":1030:1063   */\n      tag_234\n        /* \"#utility.yul\":1057:1062   */\n      dup2\n        /* \"#utility.yul\":1030:1063   */\n      tag_235\n      jump\t// in\n    tag_234:\n        /* \"#utility.yul\":930:1069   */\n      swap3\n      swap2\n      pop\n      pop\n      jump\t// out\n        /* \"#utility.yul\":1075:1210   */\n    tag_236:\n        /* \"#utility.yul\":1119:1124   */\n      0x00\n        /* \"#utility.yul\":1157:1163   */\n      dup2\n        /* \"#utility.yul\":1144:1164   */\n      calldataload\n        /* \"#utility.yul\":1135:1164   */\n      swap1\n      pop\n        /* \"#utility.yul\":1173:1204   */\n      tag_238\n        /* \"#utility.yul\":1198:1203   */\n      dup2\n        /* \"#utility.yul\":1173:1204   */\n      tag_239\n      jump\t// in\n    tag_238:\n        /* \"#utility.yul\":1075:1210   */\n      swap3\n      swap2\n      pop\n      pop\n      jump\t// out\n        /* \"#utility.yul\":1216:1545   */\n    tag_40:\n        /* \"#utility.yul\":1275:1281   */\n      0x00\n        /* \"#utility.yul\":1324:1326   */\n      0x20\n        /* \"#utility.yul\":1312:1321   */\n      dup3\n        /* \"#utility.yul\":1303:1310   */\n      dup5\n        /* \"#utility.yul\":1299:1322   */\n      sub\n        /* \"#utility.yul\":1295:1327   */\n      slt\n        /* \"#utility.yul\":1292:1411   */\n      iszero\n      tag_241\n      jumpi\n        /* \"#utility.yul\":1330:1409   */\n      tag_242\n      tag_243\n      jump\t// in\n    tag_242:\n        /* \"#utility.yul\":1292:1411   */\n    tag_241:\n        /* \"#utility.yul\":1450:1451   */\n      0x00\n        /* \"#utility.yul\":1475:1528   */\n      tag_244\n        /* \"#utility.yul\":1520:1527   */\n      dup5\n        /* \"#utility.yul\":1511:1517   */\n      dup3\n        /* \"#utility.yul\":1500:1509   */\n      dup6\n        /* \"#utility.yul\":1496:1518   */\n      add\n        /* \"#utility.yul\":1475:1528   */\n      tag_222\n      jump\t// in\n    tag_244:\n        /* \"#utility.yul\":1465:1528   */\n      swap2\n      pop\n        /* \"#utility.yul\":1421:1538   */\n      pop\n        /* \"#utility.yul\":1216:1545   */\n      swap3\n      swap2\n      pop\n      pop\n      jump\t// out\n        /* \"#utility.yul\":1551:2205   */\n    tag_93:\n        /* \"#utility.yul\":1629:1635   */\n      0x00\n        /* \"#utility.yul\":1637:1643   */\n      dup1\n        /* \"#utility.yul\":1686:1688   */\n      0x40\n        /* \"#utility.yul\":1674:1683   */\n      dup4\n        /* \"#utility.yul\":1665:1672   */\n      dup6\n        /* \"#utility.yul\":1661:1684   */\n      sub\n        /* \"#utility.yul\":1657:1689   */\n      slt\n        /* \"#utility.yul\":1654:1773   */\n      iszero\n      tag_246\n      jumpi\n        /* \"#utility.yul\":1692:1771   */\n      tag_247\n      tag_243\n      jump\t// in\n    tag_247:\n        /* \"#utility.yul\":1654:1773   */\n    tag_246:\n        /* \"#utility.yul\":1812:1813   */\n      0x00\n        /* \"#utility.yul\":1837:1890   */\n      tag_248\n        /* \"#utility.yul\":1882:1889   */\n      dup6\n        /* \"#utility.yul\":1873:1879   */\n      dup3\n        /* \"#utility.yul\":1862:1871   */\n      dup7\n        /* \"#utility.yul\":1858:1880   */\n      add\n        /* \"#utility.yul\":1837:1890   */\n      tag_222\n      jump\t// in\n    tag_248:\n        /* \"#utility.yul\":1827:1890   */\n      swap3\n      pop\n        /* \"#utility.yul\":1783:1900   */\n      pop\n        /* \"#utility.yul\":1967:1969   */\n      0x20\n        /* \"#utility.yul\":1956:1965   */\n      dup4\n        /* \"#utility.yul\":1952:1970   */\n      add\n        /* \"#utility.yul\":1939:1971   */\n      calldataload\n        /* \"#utility.yul\":1998:2016   */\n      0xffffffffffffffff\n        /* \"#utility.yul\":1990:1996   */\n      dup2\n        /* \"#utility.yul\":1987:2017   */\n      gt\n        /* \"#utility.yul\":1984:2101   */\n      iszero\n      tag_249\n      jumpi\n        /* \"#utility.yul\":2020:2099   */\n      tag_250\n      tag_251\n      jump\t// in\n    tag_250:\n        /* \"#utility.yul\":1984:2101   */\n    tag_249:\n        /* \"#utility.yul\":2125:2188   */\n      tag_252\n        /* \"#utility.yul\":2180:2187   */\n      dup6\n        /* \"#utility.yul\":2171:2177   */\n      dup3\n        /* \"#utility.yul\":2160:2169   */\n      dup7\n        /* \"#utility.yul\":2156:2178   */\n      add\n        /* \"#utility.yul\":2125:2188   */\n      tag_226\n      jump\t// in\n    tag_252:\n        /* \"#utility.yul\":2115:2188   */\n      swap2\n      pop\n        /* \"#utility.yul\":1910:2198   */\n      pop\n        /* \"#utility.yul\":1551:2205   */\n      swap3\n      pop\n      swap3\n      swap1\n      pop\n      jump\t// out\n        /* \"#utility.yul\":2211:2540   */\n    tag_48:\n        /* \"#utility.yul\":2270:2276   */\n      0x00\n        /* \"#utility.yul\":2319:2321   */\n      0x20\n        /* \"#utility.yul\":2307:2316   */\n      dup3\n        /* \"#utility.yul\":2298:2305   */\n      dup5\n        /* \"#utility.yul\":2294:2317   */\n      sub\n        /* \"#utility.yul\":2290:2322   */\n      slt\n        /* \"#utility.yul\":2287:2406   */\n      iszero\n      tag_254\n      jumpi\n        /* \"#utility.yul\":2325:2404   */\n      tag_255\n      tag_243\n      jump\t// in\n    tag_255:\n        /* \"#utility.yul\":2287:2406   */\n    tag_254:\n        /* \"#utility.yul\":2445:2446   */\n      0x00\n        /* \"#utility.yul\":2470:2523   */\n      tag_256\n        /* \"#utility.yul\":2515:2522   */\n      dup5\n        /* \"#utility.yul\":2506:2512   */\n      dup3\n        /* \"#utility.yul\":2495:2504   */\n      dup6\n        /* \"#utility.yul\":2491:2513   */\n      add\n        /* \"#utility.yul\":2470:2523   */\n      tag_232\n      jump\t// in\n    tag_256:\n        /* \"#utility.yul\":2460:2523   */\n      swap2\n      pop\n        /* \"#utility.yul\":2416:2533   */\n      pop\n        /* \"#utility.yul\":2211:2540   */\n      swap3\n      swap2\n      pop\n      pop\n      jump\t// out\n        /* \"#utility.yul\":2546:2871   */\n    tag_25:\n        /* \"#utility.yul\":2603:2609   */\n      0x00\n        /* \"#utility.yul\":2652:2654   */\n      0x20\n        /* \"#utility.yul\":2640:2649   */\n      dup3\n        /* \"#utility.yul\":2631:2638   */\n      dup5\n        /* \"#utility.yul\":2627:2650   */\n      sub\n        /* \"#utility.yul\":2623:2655   */\n      slt\n        /* \"#utility.yul\":2620:2739   */\n      iszero\n      tag_258\n      jumpi\n        /* \"#utility.yul\":2658:2737   */\n      tag_259\n      tag_243\n      jump\t// in\n    tag_259:\n        /* \"#utility.yul\":2620:2739   */\n    tag_258:\n        /* \"#utility.yul\":2778:2779   */\n      0x00\n        /* \"#utility.yul\":2803:2854   */\n      tag_260\n        /* \"#utility.yul\":2846:2853   */\n      dup5\n        /* \"#utility.yul\":2837:2843   */\n      dup3\n        /* \"#utility.yul\":2826:2835   */\n      dup6\n        /* \"#utility.yul\":2822:2844   */\n      add\n        /* \"#utility.yul\":2803:2854   */\n      tag_236\n      jump\t// in\n    tag_260:\n        /* \"#utility.yul\":2793:2854   */\n      swap2\n      pop\n        /* \"#utility.yul\":2749:2864   */\n      pop\n        /* \"#utility.yul\":2546:2871   */\n      swap3\n      swap2\n      pop\n      pop\n      jump\t// out\n        /* \"#utility.yul\":2877:3347   */\n    tag_57:\n        /* \"#utility.yul\":2943:2949   */\n      0x00\n        /* \"#utility.yul\":2951:2957   */\n      dup1\n        /* \"#utility.yul\":3000:3002   */\n      0x40\n        /* \"#utility.yul\":2988:2997   */\n      dup4\n        /* \"#utility.yul\":2979:2986   */\n      dup6\n        /* \"#utility.yul\":2975:2998   */\n      sub\n        /* \"#utility.yul\":2971:3003   */\n      slt\n        /* \"#utility.yul\":2968:3087   */\n      iszero\n      tag_262\n      jumpi\n        /* \"#utility.yul\":3006:3085   */\n      tag_263\n      tag_243\n      jump\t// in\n    tag_263:\n        /* \"#utility.yul\":2968:3087   */\n    tag_262:\n        /* \"#utility.yul\":3126:3127   */\n      0x00\n        /* \"#utility.yul\":3151:3202   */\n      tag_264\n        /* \"#utility.yul\":3194:3201   */\n      dup6\n        /* \"#utility.yul\":3185:3191   */\n      dup3\n        /* \"#utility.yul\":3174:3183   */\n      dup7\n        /* \"#utility.yul\":3170:3192   */\n      add\n        /* \"#utility.yul\":3151:3202   */\n      tag_236\n      jump\t// in\n    tag_264:\n        /* \"#utility.yul\":3141:3202   */\n      swap3\n      pop\n        /* \"#utility.yul\":3097:3212   */\n      pop\n        /* \"#utility.yul\":3251:3253   */\n      0x20\n        /* \"#utility.yul\":3277:3330   */\n      tag_265\n        /* \"#utility.yul\":3322:3329   */\n      dup6\n        /* \"#utility.yul\":3313:3319   */\n      dup3\n        /* \"#utility.yul\":3302:3311   */\n      dup7\n        /* \"#utility.yul\":3298:3320   */\n      add\n        /* \"#utility.yul\":3277:3330   */\n      tag_222\n      jump\t// in\n    tag_265:\n        /* \"#utility.yul\":3267:3330   */\n      swap2\n      pop\n        /* \"#utility.yul\":3222:3340   */\n      pop\n        /* \"#utility.yul\":2877:3347   */\n      swap3\n      pop\n      swap3\n      swap1\n      pop\n      jump\t// out\n        /* \"#utility.yul\":3353:3819   */\n    tag_31:\n        /* \"#utility.yul\":3417:3423   */\n      0x00\n        /* \"#utility.yul\":3425:3431   */\n      dup1\n        /* \"#utility.yul\":3474:3476   */\n      0x40\n        /* \"#utility.yul\":3462:3471   */\n      dup4\n        /* \"#utility.yul\":3453:3460   */\n      dup6\n        /* \"#utility.yul\":3449:3472   */\n      sub\n        /* \"#utility.yul\":3445:3477   */\n      slt\n        /* \"#utility.yul\":3442:3561   */\n      iszero\n      tag_267\n      jumpi\n        /* \"#utility.yul\":3480:3559   */\n      tag_268\n      tag_243\n      jump\t// in\n    tag_268:\n        /* \"#utility.yul\":3442:3561   */\n    tag_267:\n        /* \"#utility.yul\":3600:3601   */\n      0x00\n        /* \"#utility.yul\":3625:3676   */\n      tag_269\n        /* \"#utility.yul\":3668:3675   */\n      dup6\n        /* \"#utility.yul\":3659:3665   */\n      dup3\n        /* \"#utility.yul\":3648:3657   */\n      dup7\n        /* \"#utility.yul\":3644:3666   */\n      add\n        /* \"#utility.yul\":3625:3676   */\n      tag_236\n      jump\t// in\n    tag_269:\n        /* \"#utility.yul\":3615:3676   */\n      swap3\n      pop\n        /* \"#utility.yul\":3571:3686   */\n      pop\n        /* \"#utility.yul\":3725:3727   */\n      0x20\n        /* \"#utility.yul\":3751:3802   */\n      tag_270\n        /* \"#utility.yul\":3794:3801   */\n      dup6\n        /* \"#utility.yul\":3785:3791   */\n      dup3\n        /* \"#utility.yul\":3774:3783   */\n      dup7\n        /* \"#utility.yul\":3770:3792   */\n      add\n        /* \"#utility.yul\":3751:3802   */\n      tag_236\n      jump\t// in\n    tag_270:\n        /* \"#utility.yul\":3741:3802   */\n      swap2\n      pop\n        /* \"#utility.yul\":3696:3812   */\n      pop\n        /* \"#utility.yul\":3353:3819   */\n      swap3\n      pop\n      swap3\n      swap1\n      pop\n      jump\t// out\n        /* \"#utility.yul\":3825:4073   */\n    tag_271:\n        /* \"#utility.yul\":3940:3950   */\n      0x00\n        /* \"#utility.yul\":3975:4067   */\n      tag_273\n        /* \"#utility.yul\":4063:4066   */\n      dup4\n        /* \"#utility.yul\":4055:4061   */\n      dup4\n        /* \"#utility.yul\":3975:4067   */\n      tag_274\n      jump\t// in\n    tag_273:\n        /* \"#utility.yul\":3961:4067   */\n      swap1\n      pop\n        /* \"#utility.yul\":3825:4073   */\n      swap3\n      swap2\n      pop\n      pop\n      jump\t// out\n        /* \"#utility.yul\":4079:4346   */\n    tag_275:\n        /* \"#utility.yul\":4192:4202   */\n      0x00\n        /* \"#utility.yul\":4213:4303   */\n      tag_277\n        /* \"#utility.yul\":4299:4302   */\n      dup4\n        /* \"#utility.yul\":4291:4297   */\n      dup4\n        /* \"#utility.yul\":4213:4303   */\n      tag_278\n      jump\t// in\n    tag_277:\n        /* \"#utility.yul\":4335:4339   */\n      0x40\n        /* \"#utility.yul\":4330:4333   */\n      dup4\n        /* \"#utility.yul\":4326:4340   */\n      add\n        /* \"#utility.yul\":4312:4340   */\n      swap1\n      pop\n        /* \"#utility.yul\":4079:4346   */\n      swap3\n      swap2\n      pop\n      pop\n      jump\t// out\n        /* \"#utility.yul\":4352:4523   */\n    tag_279:\n        /* \"#utility.yul\":4417:4427   */\n      0x00\n        /* \"#utility.yul\":4438:4480   */\n      tag_281\n        /* \"#utility.yul\":4476:4479   */\n      dup4\n        /* \"#utility.yul\":4468:4474   */\n      dup4\n        /* \"#utility.yul\":4438:4480   */\n      tag_282\n      jump\t// in\n    tag_281:\n        /* \"#utility.yul\":4512:4516   */\n      0x20\n        /* \"#utility.yul\":4507:4510   */\n      dup4\n        /* \"#utility.yul\":4503:4517   */\n      add\n        /* \"#utility.yul\":4489:4517   */\n      swap1\n      pop\n        /* \"#utility.yul\":4352:4523   */\n      swap3\n      swap2\n      pop\n      pop\n      jump\t// out\n        /* \"#utility.yul\":4529:4647   */\n    tag_283:\n        /* \"#utility.yul\":4616:4640   */\n      tag_285\n        /* \"#utility.yul\":4634:4639   */\n      dup2\n        /* \"#utility.yul\":4616:4640   */\n      tag_286\n      jump\t// in\n    tag_285:\n        /* \"#utility.yul\":4611:4614   */\n      dup3\n        /* \"#utility.yul\":4604:4641   */\n      mstore\n        /* \"#utility.yul\":4529:4647   */\n      pop\n      pop\n      jump\t// out\n        /* \"#utility.yul\":4727:5822   */\n    tag_287:\n        /* \"#utility.yul\":4892:4895   */\n      0x00\n        /* \"#utility.yul\":4921:4998   */\n      tag_289\n        /* \"#utility.yul\":4992:4997   */\n      dup3\n        /* \"#utility.yul\":4921:4998   */\n      tag_290\n      jump\t// in\n    tag_289:\n        /* \"#utility.yul\":5014:5123   */\n      tag_291\n        /* \"#utility.yul\":5116:5122   */\n      dup2\n        /* \"#utility.yul\":5111:5114   */\n      dup6\n        /* \"#utility.yul\":5014:5123   */\n      tag_292\n      jump\t// in\n    tag_291:\n        /* \"#utility.yul\":5007:5123   */\n      swap4\n      pop\n        /* \"#utility.yul\":5149:5152   */\n      dup4\n        /* \"#utility.yul\":5194:5198   */\n      0x20\n        /* \"#utility.yul\":5186:5192   */\n      dup3\n        /* \"#utility.yul\":5182:5199   */\n      mul\n        /* \"#utility.yul\":5177:5180   */\n      dup6\n        /* \"#utility.yul\":5173:5200   */\n      add\n        /* \"#utility.yul\":5224:5303   */\n      tag_293\n        /* \"#utility.yul\":5297:5302   */\n      dup6\n        /* \"#utility.yul\":5224:5303   */\n      tag_294\n      jump\t// in\n    tag_293:\n        /* \"#utility.yul\":5326:5333   */\n      dup1\n        /* \"#utility.yul\":5357:5358   */\n      0x00\n        /* \"#utility.yul\":5342:5777   */\n    tag_295:\n        /* \"#utility.yul\":5367:5373   */\n      dup6\n        /* \"#utility.yul\":5364:5365   */\n      dup2\n        /* \"#utility.yul\":5361:5374   */\n      lt\n        /* \"#utility.yul\":5342:5777   */\n      iszero\n      tag_297\n      jumpi\n        /* \"#utility.yul\":5438:5447   */\n      dup5\n        /* \"#utility.yul\":5432:5436   */\n      dup5\n        /* \"#utility.yul\":5428:5448   */\n      sub\n        /* \"#utility.yul\":5423:5426   */\n      dup10\n        /* \"#utility.yul\":5416:5449   */\n      mstore\n        /* \"#utility.yul\":5489:5495   */\n      dup2\n        /* \"#utility.yul\":5483:5496   */\n      mload\n        /* \"#utility.yul\":5517:5627   */\n      tag_298\n        /* \"#utility.yul\":5622:5626   */\n      dup6\n        /* \"#utility.yul\":5607:5620   */\n      dup3\n        /* \"#utility.yul\":5517:5627   */\n      tag_271\n      jump\t// in\n    tag_298:\n        /* \"#utility.yul\":5509:5627   */\n      swap5\n      pop\n        /* \"#utility.yul\":5650:5733   */\n      tag_299\n        /* \"#utility.yul\":5726:5732   */\n      dup4\n        /* \"#utility.yul\":5650:5733   */\n      tag_300\n      jump\t// in\n    tag_299:\n        /* \"#utility.yul\":5640:5733   */\n      swap3\n      pop\n        /* \"#utility.yul\":5762:5766   */\n      0x20\n        /* \"#utility.yul\":5757:5760   */\n      dup11\n        /* \"#utility.yul\":5753:5767   */\n      add\n        /* \"#utility.yul\":5746:5767   */\n      swap10\n      pop\n        /* \"#utility.yul\":5402:5777   */\n      pop\n        /* \"#utility.yul\":5389:5390   */\n      0x01\n        /* \"#utility.yul\":5386:5387   */\n      dup2\n        /* \"#utility.yul\":5382:5391   */\n      add\n        /* \"#utility.yul\":5377:5391   */\n      swap1\n      pop\n        /* \"#utility.yul\":5342:5777   */\n      jump(tag_295)\n    tag_297:\n        /* \"#utility.yul\":5346:5360   */\n      pop\n        /* \"#utility.yul\":5793:5797   */\n      dup3\n        /* \"#utility.yul\":5786:5797   */\n      swap8\n      pop\n        /* \"#utility.yul\":5813:5816   */\n      dup8\n        /* \"#utility.yul\":5806:5816   */\n      swap6\n      pop\n        /* \"#utility.yul\":4897:5822   */\n      pop\n      pop\n      pop\n      pop\n      pop\n        /* \"#utility.yul\":4727:5822   */\n      swap3\n      swap2\n      pop\n      pop\n      jump\t// out\n        /* \"#utility.yul\":5902:6810   */\n    tag_301:\n        /* \"#utility.yul\":6065:6068   */\n      0x00\n        /* \"#utility.yul\":6094:6170   */\n      tag_303\n        /* \"#utility.yul\":6164:6169   */\n      dup3\n        /* \"#utility.yul\":6094:6170   */\n      tag_304\n      jump\t// in\n    tag_303:\n        /* \"#utility.yul\":6186:6294   */\n      tag_305\n        /* \"#utility.yul\":6287:6293   */\n      dup2\n        /* \"#utility.yul\":6282:6285   */\n      dup6\n        /* \"#utility.yul\":6186:6294   */\n      tag_306\n      jump\t// in\n    tag_305:\n        /* \"#utility.yul\":6179:6294   */\n      swap4\n      pop\n        /* \"#utility.yul\":6318:6396   */\n      tag_307\n        /* \"#utility.yul\":6390:6395   */\n      dup4\n        /* \"#utility.yul\":6318:6396   */\n      tag_308\n      jump\t// in\n    tag_307:\n        /* \"#utility.yul\":6419:6426   */\n      dup1\n        /* \"#utility.yul\":6450:6451   */\n      0x00\n        /* \"#utility.yul\":6435:6785   */\n    tag_309:\n        /* \"#utility.yul\":6460:6466   */\n      dup4\n        /* \"#utility.yul\":6457:6458   */\n      dup2\n        /* \"#utility.yul\":6454:6467   */\n      lt\n        /* \"#utility.yul\":6435:6785   */\n      iszero\n      tag_311\n      jumpi\n        /* \"#utility.yul\":6536:6542   */\n      dup2\n        /* \"#utility.yul\":6530:6543   */\n      mload\n        /* \"#utility.yul\":6563:6670   */\n      tag_312\n        /* \"#utility.yul\":6666:6669   */\n      dup9\n        /* \"#utility.yul\":6651:6664   */\n      dup3\n        /* \"#utility.yul\":6563:6670   */\n      tag_275\n      jump\t// in\n    tag_312:\n        /* \"#utility.yul\":6556:6670   */\n      swap8\n      pop\n        /* \"#utility.yul\":6693:6775   */\n      tag_313\n        /* \"#utility.yul\":6768:6774   */\n      dup4\n        /* \"#utility.yul\":6693:6775   */\n      tag_314\n      jump\t// in\n    tag_313:\n        /* \"#utility.yul\":6683:6775   */\n      swap3\n      pop\n        /* \"#utility.yul\":6495:6785   */\n      pop\n        /* \"#utility.yul\":6482:6483   */\n      0x01\n        /* \"#utility.yul\":6479:6480   */\n      dup2\n        /* \"#utility.yul\":6475:6484   */\n      add\n        /* \"#utility.yul\":6470:6484   */\n      swap1\n      pop\n        /* \"#utility.yul\":6435:6785   */\n      jump(tag_309)\n    tag_311:\n        /* \"#utility.yul\":6439:6453   */\n      pop\n        /* \"#utility.yul\":6801:6804   */\n      dup6\n        /* \"#utility.yul\":6794:6804   */\n      swap4\n      pop\n        /* \"#utility.yul\":6070:6810   */\n      pop\n      pop\n      pop\n        /* \"#utility.yul\":5902:6810   */\n      swap3\n      swap2\n      pop\n      pop\n      jump\t// out\n        /* \"#utility.yul\":6842:7558   */\n    tag_315:\n        /* \"#utility.yul\":6957:6960   */\n      0x00\n        /* \"#utility.yul\":6986:7038   */\n      tag_317\n        /* \"#utility.yul\":7032:7037   */\n      dup3\n        /* \"#utility.yul\":6986:7038   */\n      tag_318\n      jump\t// in\n    tag_317:\n        /* \"#utility.yul\":7054:7138   */\n      tag_319\n        /* \"#utility.yul\":7131:7137   */\n      dup2\n        /* \"#utility.yul\":7126:7129   */\n      dup6\n        /* \"#utility.yul\":7054:7138   */\n      tag_320\n      jump\t// in\n    tag_319:\n        /* \"#utility.yul\":7047:7138   */\n      swap4\n      pop\n        /* \"#utility.yul\":7162:7216   */\n      tag_321\n        /* \"#utility.yul\":7210:7215   */\n      dup4\n        /* \"#utility.yul\":7162:7216   */\n      tag_322\n      jump\t// in\n    tag_321:\n        /* \"#utility.yul\":7239:7246   */\n      dup1\n        /* \"#utility.yul\":7270:7271   */\n      0x00\n        /* \"#utility.yul\":7255:7533   */\n    tag_323:\n        /* \"#utility.yul\":7280:7286   */\n      dup4\n        /* \"#utility.yul\":7277:7278   */\n      dup2\n        /* \"#utility.yul\":7274:7287   */\n      lt\n        /* \"#utility.yul\":7255:7533   */\n      iszero\n      tag_325\n      jumpi\n        /* \"#utility.yul\":7356:7362   */\n      dup2\n        /* \"#utility.yul\":7350:7363   */\n      mload\n        /* \"#utility.yul\":7383:7442   */\n      tag_326\n        /* \"#utility.yul\":7438:7441   */\n      dup9\n        /* \"#utility.yul\":7423:7436   */\n      dup3\n        /* \"#utility.yul\":7383:7442   */\n      tag_279\n      jump\t// in\n    tag_326:\n        /* \"#utility.yul\":7376:7442   */\n      swap8\n      pop\n        /* \"#utility.yul\":7465:7523   */\n      tag_327\n        /* \"#utility.yul\":7516:7522   */\n      dup4\n        /* \"#utility.yul\":7465:7523   */\n      tag_328\n      jump\t// in\n    tag_327:\n        /* \"#utility.yul\":7455:7523   */\n      swap3\n      pop\n        /* \"#utility.yul\":7315:7533   */\n      pop\n        /* \"#utility.yul\":7302:7303   */\n      0x01\n        /* \"#utility.yul\":7299:7300   */\n      dup2\n        /* \"#utility.yul\":7295:7304   */\n      add\n        /* \"#utility.yul\":7290:7304   */\n      swap1\n      pop\n        /* \"#utility.yul\":7255:7533   */\n      jump(tag_323)\n    tag_325:\n        /* \"#utility.yul\":7259:7273   */\n      pop\n        /* \"#utility.yul\":7549:7552   */\n      dup6\n        /* \"#utility.yul\":7542:7552   */\n      swap4\n      pop\n        /* \"#utility.yul\":6962:7558   */\n      pop\n      pop\n      pop\n        /* \"#utility.yul\":6842:7558   */\n      swap3\n      swap2\n      pop\n      pop\n      jump\t// out\n        /* \"#utility.yul\":7564:7672   */\n    tag_329:\n        /* \"#utility.yul\":7641:7665   */\n      tag_331\n        /* \"#utility.yul\":7659:7664   */\n      dup2\n        /* \"#utility.yul\":7641:7665   */\n      tag_332\n      jump\t// in\n    tag_331:\n        /* \"#utility.yul\":7636:7639   */\n      dup3\n        /* \"#utility.yul\":7629:7666   */\n      mstore\n        /* \"#utility.yul\":7564:7672   */\n      pop\n      pop\n      jump\t// out\n        /* \"#utility.yul\":7678:7796   */\n    tag_333:\n        /* \"#utility.yul\":7765:7789   */\n      tag_335\n        /* \"#utility.yul\":7783:7788   */\n      dup2\n        /* \"#utility.yul\":7765:7789   */\n      tag_332\n      jump\t// in\n    tag_335:\n        /* \"#utility.yul\":7760:7763   */\n      dup3\n        /* \"#utility.yul\":7753:7790   */\n      mstore\n        /* \"#utility.yul\":7678:7796   */\n      pop\n      pop\n      jump\t// out\n        /* \"#utility.yul\":7802:8146   */\n    tag_336:\n        /* \"#utility.yul\":7880:7883   */\n      0x00\n        /* \"#utility.yul\":7908:7947   */\n      tag_338\n        /* \"#utility.yul\":7941:7946   */\n      dup3\n        /* \"#utility.yul\":7908:7947   */\n      tag_339\n      jump\t// in\n    tag_338:\n        /* \"#utility.yul\":7963:8024   */\n      tag_340\n        /* \"#utility.yul\":8017:8023   */\n      dup2\n        /* \"#utility.yul\":8012:8015   */\n      dup6\n        /* \"#utility.yul\":7963:8024   */\n      tag_341\n      jump\t// in\n    tag_340:\n        /* \"#utility.yul\":7956:8024   */\n      swap4\n      pop\n        /* \"#utility.yul\":8033:8085   */\n      tag_342\n        /* \"#utility.yul\":8078:8084   */\n      dup2\n        /* \"#utility.yul\":8073:8076   */\n      dup6\n        /* \"#utility.yul\":8066:8070   */\n      0x20\n        /* \"#utility.yul\":8059:8064   */\n      dup7\n        /* \"#utility.yul\":8055:8071   */\n      add\n        /* \"#utility.yul\":8033:8085   */\n      tag_343\n      jump\t// in\n    tag_342:\n        /* \"#utility.yul\":8110:8139   */\n      tag_344\n        /* \"#utility.yul\":8132:8138   */\n      dup2\n        /* \"#utility.yul\":8110:8139   */\n      tag_345\n      jump\t// in\n    tag_344:\n        /* \"#utility.yul\":8105:8108   */\n      dup5\n        /* \"#utility.yul\":8101:8140   */\n      add\n        /* \"#utility.yul\":8094:8140   */\n      swap2\n      pop\n        /* \"#utility.yul\":7884:8146   */\n      pop\n        /* \"#utility.yul\":7802:8146   */\n      swap3\n      swap2\n      pop\n      pop\n      jump\t// out\n        /* \"#utility.yul\":8152:8516   */\n    tag_346:\n        /* \"#utility.yul\":8240:8243   */\n      0x00\n        /* \"#utility.yul\":8268:8307   */\n      tag_348\n        /* \"#utility.yul\":8301:8306   */\n      dup3\n        /* \"#utility.yul\":8268:8307   */\n      tag_339\n      jump\t// in\n    tag_348:\n        /* \"#utility.yul\":8323:8394   */\n      tag_349\n        /* \"#utility.yul\":8387:8393   */\n      dup2\n        /* \"#utility.yul\":8382:8385   */\n      dup6\n        /* \"#utility.yul\":8323:8394   */\n      tag_350\n      jump\t// in\n    tag_349:\n        /* \"#utility.yul\":8316:8394   */\n      swap4\n      pop\n        /* \"#utility.yul\":8403:8455   */\n      tag_351\n        /* \"#utility.yul\":8448:8454   */\n      dup2\n        /* \"#utility.yul\":8443:8446   */\n      dup6\n        /* \"#utility.yul\":8436:8440   */\n      0x20\n        /* \"#utility.yul\":8429:8434   */\n      dup7\n        /* \"#utility.yul\":8425:8441   */\n      add\n        /* \"#utility.yul\":8403:8455   */\n      tag_343\n      jump\t// in\n    tag_351:\n        /* \"#utility.yul\":8480:8509   */\n      tag_352\n        /* \"#utility.yul\":8502:8508   */\n      dup2\n        /* \"#utility.yul\":8480:8509   */\n      tag_345\n      jump\t// in\n    tag_352:\n        /* \"#utility.yul\":8475:8478   */\n      dup5\n        /* \"#utility.yul\":8471:8510   */\n      add\n        /* \"#utility.yul\":8464:8510   */\n      swap2\n      pop\n        /* \"#utility.yul\":8244:8516   */\n      pop\n        /* \"#utility.yul\":8152:8516   */\n      swap3\n      swap2\n      pop\n      pop\n      jump\t// out\n        /* \"#utility.yul\":8522:8888   */\n    tag_353:\n        /* \"#utility.yul\":8664:8667   */\n      0x00\n        /* \"#utility.yul\":8685:8752   */\n      tag_355\n        /* \"#utility.yul\":8749:8751   */\n      0x17\n        /* \"#utility.yul\":8744:8747   */\n      dup4\n        /* \"#utility.yul\":8685:8752   */\n      tag_350\n      jump\t// in\n    tag_355:\n        /* \"#utility.yul\":8678:8752   */\n      swap2\n      pop\n        /* \"#utility.yul\":8761:8854   */\n      tag_356\n        /* \"#utility.yul\":8850:8853   */\n      dup3\n        /* \"#utility.yul\":8761:8854   */\n      tag_357\n      jump\t// in\n    tag_356:\n        /* \"#utility.yul\":8879:8881   */\n      0x20\n        /* \"#utility.yul\":8874:8877   */\n      dup3\n        /* \"#utility.yul\":8870:8882   */\n      add\n        /* \"#utility.yul\":8863:8882   */\n      swap1\n      pop\n        /* \"#utility.yul\":8522:8888   */\n      swap2\n      swap1\n      pop\n      jump\t// out\n        /* \"#utility.yul\":8894:9260   */\n    tag_358:\n        /* \"#utility.yul\":9036:9039   */\n      0x00\n        /* \"#utility.yul\":9057:9124   */\n      tag_360\n        /* \"#utility.yul\":9121:9123   */\n      0x2f\n        /* \"#utility.yul\":9116:9119   */\n      dup4\n        /* \"#utility.yul\":9057:9124   */\n      tag_350\n      jump\t// in\n    tag_360:\n        /* \"#utility.yul\":9050:9124   */\n      swap2\n      pop\n        /* \"#utility.yul\":9133:9226   */\n      tag_361\n        /* \"#utility.yul\":9222:9225   */\n      dup3\n        /* \"#utility.yul\":9133:9226   */\n      tag_362\n      jump\t// in\n    tag_361:\n        /* \"#utility.yul\":9251:9253   */\n      0x40\n        /* \"#utility.yul\":9246:9249   */\n      dup3\n        /* \"#utility.yul\":9242:9254   */\n      add\n        /* \"#utility.yul\":9235:9254   */\n      swap1\n      pop\n        /* \"#utility.yul\":8894:9260   */\n      swap2\n      swap1\n      pop\n      jump\t// out\n        /* \"#utility.yul\":9266:9632   */\n    tag_363:\n        /* \"#utility.yul\":9408:9411   */\n      0x00\n        /* \"#utility.yul\":9429:9496   */\n      tag_365\n        /* \"#utility.yul\":9493:9495   */\n      0x1a\n        /* \"#utility.yul\":9488:9491   */\n      dup4\n        /* \"#utility.yul\":9429:9496   */\n      tag_350\n      jump\t// in\n    tag_365:\n        /* \"#utility.yul\":9422:9496   */\n      swap2\n      pop\n        /* \"#utility.yul\":9505:9598   */\n      tag_366\n        /* \"#utility.yul\":9594:9597   */\n      dup3\n        /* \"#utility.yul\":9505:9598   */\n      tag_367\n      jump\t// in\n    tag_366:\n        /* \"#utility.yul\":9623:9625   */\n      0x20\n        /* \"#utility.yul\":9618:9621   */\n      dup3\n        /* \"#utility.yul\":9614:9626   */\n      add\n        /* \"#utility.yul\":9607:9626   */\n      swap1\n      pop\n        /* \"#utility.yul\":9266:9632   */\n      swap2\n      swap1\n      pop\n      jump\t// out\n        /* \"#utility.yul\":9638:10004   */\n    tag_368:\n        /* \"#utility.yul\":9780:9783   */\n      0x00\n        /* \"#utility.yul\":9801:9868   */\n      tag_370\n        /* \"#utility.yul\":9865:9867   */\n      0x2c\n        /* \"#utility.yul\":9860:9863   */\n      dup4\n        /* \"#utility.yul\":9801:9868   */\n      tag_350\n      jump\t// in\n    tag_370:\n        /* \"#utility.yul\":9794:9868   */\n      swap2\n      pop\n        /* \"#utility.yul\":9877:9970   */\n      tag_371\n        /* \"#utility.yul\":9966:9969   */\n      dup3\n        /* \"#utility.yul\":9877:9970   */\n      tag_372\n      jump\t// in\n    tag_371:\n        /* \"#utility.yul\":9995:9997   */\n      0x40\n        /* \"#utility.yul\":9990:9993   */\n      dup3\n        /* \"#utility.yul\":9986:9998   */\n      add\n        /* \"#utility.yul\":9979:9998   */\n      swap1\n      pop\n        /* \"#utility.yul\":9638:10004   */\n      swap2\n      swap1\n      pop\n      jump\t// out\n        /* \"#utility.yul\":10010:10376   */\n    tag_373:\n        /* \"#utility.yul\":10152:10155   */\n      0x00\n        /* \"#utility.yul\":10173:10240   */\n      tag_375\n        /* \"#utility.yul\":10237:10239   */\n      0x1a\n        /* \"#utility.yul\":10232:10235   */\n      dup4\n        /* \"#utility.yul\":10173:10240   */\n      tag_350\n      jump\t// in\n    tag_375:\n        /* \"#utility.yul\":10166:10240   */\n      swap2\n      pop\n        /* \"#utility.yul\":10249:10342   */\n      tag_376\n        /* \"#utility.yul\":10338:10341   */\n      dup3\n        /* \"#utility.yul\":10249:10342   */\n      tag_377\n      jump\t// in\n    tag_376:\n        /* \"#utility.yul\":10367:10369   */\n      0x20\n        /* \"#utility.yul\":10362:10365   */\n      dup3\n        /* \"#utility.yul\":10358:10370   */\n      add\n        /* \"#utility.yul\":10351:10370   */\n      swap1\n      pop\n        /* \"#utility.yul\":10010:10376   */\n      swap2\n      swap1\n      pop\n      jump\t// out\n        /* \"#utility.yul\":10382:10748   */\n    tag_378:\n        /* \"#utility.yul\":10524:10527   */\n      0x00\n        /* \"#utility.yul\":10545:10612   */\n      tag_380\n        /* \"#utility.yul\":10609:10611   */\n      0x1b\n        /* \"#utility.yul\":10604:10607   */\n      dup4\n        /* \"#utility.yul\":10545:10612   */\n      tag_350\n      jump\t// in\n    tag_380:\n        /* \"#utility.yul\":10538:10612   */\n      swap2\n      pop\n        /* \"#utility.yul\":10621:10714   */\n      tag_381\n        /* \"#utility.yul\":10710:10713   */\n      dup3\n        /* \"#utility.yul\":10621:10714   */\n      tag_382\n      jump\t// in\n    tag_381:\n        /* \"#utility.yul\":10739:10741   */\n      0x20\n        /* \"#utility.yul\":10734:10737   */\n      dup3\n        /* \"#utility.yul\":10730:10742   */\n      add\n        /* \"#utility.yul\":10723:10742   */\n      swap1\n      pop\n        /* \"#utility.yul\":10382:10748   */\n      swap2\n      swap1\n      pop\n      jump\t// out\n        /* \"#utility.yul\":10824:11437   */\n    tag_274:\n        /* \"#utility.yul\":10929:10932   */\n      0x00\n        /* \"#utility.yul\":10965:10969   */\n      0x40\n        /* \"#utility.yul\":10960:10963   */\n      dup4\n        /* \"#utility.yul\":10956:10970   */\n      add\n        /* \"#utility.yul\":11059:11063   */\n      0x00\n        /* \"#utility.yul\":11052:11057   */\n      dup4\n        /* \"#utility.yul\":11048:11064   */\n      add\n        /* \"#utility.yul\":11042:11065   */\n      mload\n        /* \"#utility.yul\":11078:11141   */\n      tag_384\n        /* \"#utility.yul\":11135:11139   */\n      0x00\n        /* \"#utility.yul\":11130:11133   */\n      dup7\n        /* \"#utility.yul\":11126:11140   */\n      add\n        /* \"#utility.yul\":11112:11124   */\n      dup3\n        /* \"#utility.yul\":11078:11141   */\n      tag_329\n      jump\t// in\n    tag_384:\n        /* \"#utility.yul\":10980:11151   */\n      pop\n        /* \"#utility.yul\":11247:11251   */\n      0x20\n        /* \"#utility.yul\":11240:11245   */\n      dup4\n        /* \"#utility.yul\":11236:11252   */\n      add\n        /* \"#utility.yul\":11230:11253   */\n      mload\n        /* \"#utility.yul\":11300:11303   */\n      dup5\n        /* \"#utility.yul\":11294:11298   */\n      dup3\n        /* \"#utility.yul\":11290:11304   */\n      sub\n        /* \"#utility.yul\":11283:11287   */\n      0x20\n        /* \"#utility.yul\":11278:11281   */\n      dup7\n        /* \"#utility.yul\":11274:11288   */\n      add\n        /* \"#utility.yul\":11267:11305   */\n      mstore\n        /* \"#utility.yul\":11326:11399   */\n      tag_385\n        /* \"#utility.yul\":11394:11398   */\n      dup3\n        /* \"#utility.yul\":11380:11392   */\n      dup3\n        /* \"#utility.yul\":11326:11399   */\n      tag_336\n      jump\t// in\n    tag_385:\n        /* \"#utility.yul\":11318:11399   */\n      swap2\n      pop\n        /* \"#utility.yul\":11161:11410   */\n      pop\n        /* \"#utility.yul\":11427:11431   */\n      dup1\n        /* \"#utility.yul\":11420:11431   */\n      swap2\n      pop\n        /* \"#utility.yul\":10934:11437   */\n      pop\n        /* \"#utility.yul\":10824:11437   */\n      swap3\n      swap2\n      pop\n      pop\n      jump\t// out\n        /* \"#utility.yul\":11513:12012   */\n    tag_278:\n        /* \"#utility.yul\":11644:11648   */\n      0x40\n        /* \"#utility.yul\":11639:11642   */\n      dup3\n        /* \"#utility.yul\":11635:11649   */\n      add\n        /* \"#utility.yul\":11736:11740   */\n      0x00\n        /* \"#utility.yul\":11729:11734   */\n      dup3\n        /* \"#utility.yul\":11725:11741   */\n      add\n        /* \"#utility.yul\":11719:11742   */\n      mload\n        /* \"#utility.yul\":11755:11814   */\n      tag_387\n        /* \"#utility.yul\":11808:11812   */\n      0x00\n        /* \"#utility.yul\":11803:11806   */\n      dup6\n        /* \"#utility.yul\":11799:11813   */\n      add\n        /* \"#utility.yul\":11785:11797   */\n      dup3\n        /* \"#utility.yul\":11755:11814   */\n      tag_282\n      jump\t// in\n    tag_387:\n        /* \"#utility.yul\":11659:11824   */\n      pop\n        /* \"#utility.yul\":11913:11917   */\n      0x20\n        /* \"#utility.yul\":11906:11911   */\n      dup3\n        /* \"#utility.yul\":11902:11918   */\n      add\n        /* \"#utility.yul\":11896:11919   */\n      mload\n        /* \"#utility.yul\":11932:11995   */\n      tag_388\n        /* \"#utility.yul\":11989:11993   */\n      0x20\n        /* \"#utility.yul\":11984:11987   */\n      dup6\n        /* \"#utility.yul\":11980:11994   */\n      add\n        /* \"#utility.yul\":11966:11978   */\n      dup3\n        /* \"#utility.yul\":11932:11995   */\n      tag_329\n      jump\t// in\n    tag_388:\n        /* \"#utility.yul\":11834:12005   */\n      pop\n        /* \"#utility.yul\":11613:12012   */\n      pop\n        /* \"#utility.yul\":11513:12012   */\n      pop\n      pop\n      jump\t// out\n        /* \"#utility.yul\":12088:12597   */\n    tag_389:\n        /* \"#utility.yul\":12229:12233   */\n      0x40\n        /* \"#utility.yul\":12224:12227   */\n      dup3\n        /* \"#utility.yul\":12220:12234   */\n      add\n        /* \"#utility.yul\":12321:12325   */\n      0x00\n        /* \"#utility.yul\":12314:12319   */\n      dup3\n        /* \"#utility.yul\":12310:12326   */\n      add\n        /* \"#utility.yul\":12304:12327   */\n      mload\n        /* \"#utility.yul\":12340:12399   */\n      tag_391\n        /* \"#utility.yul\":12393:12397   */\n      0x00\n        /* \"#utility.yul\":12388:12391   */\n      dup6\n        /* \"#utility.yul\":12384:12398   */\n      add\n        /* \"#utility.yul\":12370:12382   */\n      dup3\n        /* \"#utility.yul\":12340:12399   */\n      tag_282\n      jump\t// in\n    tag_391:\n        /* \"#utility.yul\":12244:12409   */\n      pop\n        /* \"#utility.yul\":12498:12502   */\n      0x20\n        /* \"#utility.yul\":12491:12496   */\n      dup3\n        /* \"#utility.yul\":12487:12503   */\n      add\n        /* \"#utility.yul\":12481:12504   */\n      mload\n        /* \"#utility.yul\":12517:12580   */\n      tag_392\n        /* \"#utility.yul\":12574:12578   */\n      0x20\n        /* \"#utility.yul\":12569:12572   */\n      dup6\n        /* \"#utility.yul\":12565:12579   */\n      add\n        /* \"#utility.yul\":12551:12563   */\n      dup3\n        /* \"#utility.yul\":12517:12580   */\n      tag_329\n      jump\t// in\n    tag_392:\n        /* \"#utility.yul\":12419:12590   */\n      pop\n        /* \"#utility.yul\":12198:12597   */\n      pop\n        /* \"#utility.yul\":12088:12597   */\n      pop\n      pop\n      jump\t// out\n        /* \"#utility.yul\":12603:12705   */\n    tag_282:\n        /* \"#utility.yul\":12676:12698   */\n      tag_394\n        /* \"#utility.yul\":12692:12697   */\n      dup2\n        /* \"#utility.yul\":12676:12698   */\n      tag_395\n      jump\t// in\n    tag_394:\n        /* \"#utility.yul\":12671:12674   */\n      dup3\n        /* \"#utility.yul\":12664:12699   */\n      mstore\n        /* \"#utility.yul\":12603:12705   */\n      pop\n      pop\n      jump\t// out\n        /* \"#utility.yul\":12711:12823   */\n    tag_396:\n        /* \"#utility.yul\":12794:12816   */\n      tag_398\n        /* \"#utility.yul\":12810:12815   */\n      dup2\n        /* \"#utility.yul\":12794:12816   */\n      tag_395\n      jump\t// in\n    tag_398:\n        /* \"#utility.yul\":12789:12792   */\n      dup3\n        /* \"#utility.yul\":12782:12817   */\n      mstore\n        /* \"#utility.yul\":12711:12823   */\n      pop\n      pop\n      jump\t// out\n        /* \"#utility.yul\":12829:13051   */\n    tag_37:\n        /* \"#utility.yul\":12922:12926   */\n      0x00\n        /* \"#utility.yul\":12960:12962   */\n      0x20\n        /* \"#utility.yul\":12949:12958   */\n      dup3\n        /* \"#utility.yul\":12945:12963   */\n      add\n        /* \"#utility.yul\":12937:12963   */\n      swap1\n      pop\n        /* \"#utility.yul\":12973:13044   */\n      tag_400\n        /* \"#utility.yul\":13041:13042   */\n      0x00\n        /* \"#utility.yul\":13030:13039   */\n      dup4\n        /* \"#utility.yul\":13026:13043   */\n      add\n        /* \"#utility.yul\":13017:13023   */\n      dup5\n        /* \"#utility.yul\":12973:13044   */\n      tag_283\n      jump\t// in\n    tag_400:\n        /* \"#utility.yul\":12829:13051   */\n      swap3\n      swap2\n      pop\n      pop\n      jump\t// out\n        /* \"#utility.yul\":13057:13522   */\n    tag_83:\n        /* \"#utility.yul\":13246:13250   */\n      0x00\n        /* \"#utility.yul\":13284:13286   */\n      0x20\n        /* \"#utility.yul\":13273:13282   */\n      dup3\n        /* \"#utility.yul\":13269:13287   */\n      add\n        /* \"#utility.yul\":13261:13287   */\n      swap1\n      pop\n        /* \"#utility.yul\":13333:13342   */\n      dup2\n        /* \"#utility.yul\":13327:13331   */\n      dup2\n        /* \"#utility.yul\":13323:13343   */\n      sub\n        /* \"#utility.yul\":13319:13320   */\n      0x00\n        /* \"#utility.yul\":13308:13317   */\n      dup4\n        /* \"#utility.yul\":13304:13321   */\n      add\n        /* \"#utility.yul\":13297:13344   */\n      mstore\n        /* \"#utility.yul\":13361:13515   */\n      tag_402\n        /* \"#utility.yul\":13510:13514   */\n      dup2\n        /* \"#utility.yul\":13501:13507   */\n      dup5\n        /* \"#utility.yul\":13361:13515   */\n      tag_287\n      jump\t// in\n    tag_402:\n        /* \"#utility.yul\":13353:13515   */\n      swap1\n      pop\n        /* \"#utility.yul\":13057:13522   */\n      swap3\n      swap2\n      pop\n      pop\n      jump\t// out\n        /* \"#utility.yul\":13528:13989   */\n    tag_45:\n        /* \"#utility.yul\":13715:13719   */\n      0x00\n        /* \"#utility.yul\":13753:13755   */\n      0x20\n        /* \"#utility.yul\":13742:13751   */\n      dup3\n        /* \"#utility.yul\":13738:13756   */\n      add\n        /* \"#utility.yul\":13730:13756   */\n      swap1\n      pop\n        /* \"#utility.yul\":13802:13811   */\n      dup2\n        /* \"#utility.yul\":13796:13800   */\n      dup2\n        /* \"#utility.yul\":13792:13812   */\n      sub\n        /* \"#utility.yul\":13788:13789   */\n      0x00\n        /* \"#utility.yul\":13777:13786   */\n      dup4\n        /* \"#utility.yul\":13773:13790   */\n      add\n        /* \"#utility.yul\":13766:13813   */\n      mstore\n        /* \"#utility.yul\":13830:13982   */\n      tag_404\n        /* \"#utility.yul\":13977:13981   */\n      dup2\n        /* \"#utility.yul\":13968:13974   */\n      dup5\n        /* \"#utility.yul\":13830:13982   */\n      tag_301\n      jump\t// in\n    tag_404:\n        /* \"#utility.yul\":13822:13982   */\n      swap1\n      pop\n        /* \"#utility.yul\":13528:13989   */\n      swap3\n      swap2\n      pop\n      pop\n      jump\t// out\n        /* \"#utility.yul\":13995:14360   */\n    tag_28:\n        /* \"#utility.yul\":14134:14138   */\n      0x00\n        /* \"#utility.yul\":14172:14174   */\n      0x20\n        /* \"#utility.yul\":14161:14170   */\n      dup3\n        /* \"#utility.yul\":14157:14175   */\n      add\n        /* \"#utility.yul\":14149:14175   */\n      swap1\n      pop\n        /* \"#utility.yul\":14221:14230   */\n      dup2\n        /* \"#utility.yul\":14215:14219   */\n      dup2\n        /* \"#utility.yul\":14211:14231   */\n      sub\n        /* \"#utility.yul\":14207:14208   */\n      0x00\n        /* \"#utility.yul\":14196:14205   */\n      dup4\n        /* \"#utility.yul\":14192:14209   */\n      add\n        /* \"#utility.yul\":14185:14232   */\n      mstore\n        /* \"#utility.yul\":14249:14353   */\n      tag_406\n        /* \"#utility.yul\":14348:14352   */\n      dup2\n        /* \"#utility.yul\":14339:14345   */\n      dup5\n        /* \"#utility.yul\":14249:14353   */\n      tag_315\n      jump\t// in\n    tag_406:\n        /* \"#utility.yul\":14241:14353   */\n      swap1\n      pop\n        /* \"#utility.yul\":13995:14360   */\n      swap3\n      swap2\n      pop\n      pop\n      jump\t// out\n        /* \"#utility.yul\":14366:14588   */\n    tag_75:\n        /* \"#utility.yul\":14459:14463   */\n      0x00\n        /* \"#utility.yul\":14497:14499   */\n      0x20\n        /* \"#utility.yul\":14486:14495   */\n      dup3\n        /* \"#utility.yul\":14482:14500   */\n      add\n        /* \"#utility.yul\":14474:14500   */\n      swap1\n      pop\n        /* \"#utility.yul\":14510:14581   */\n      tag_408\n        /* \"#utility.yul\":14578:14579   */\n      0x00\n        /* \"#utility.yul\":14567:14576   */\n      dup4\n        /* \"#utility.yul\":14563:14580   */\n      add\n        /* \"#utility.yul\":14554:14560   */\n      dup5\n        /* \"#utility.yul\":14510:14581   */\n      tag_333\n      jump\t// in\n    tag_408:\n        /* \"#utility.yul\":14366:14588   */\n      swap3\n      swap2\n      pop\n      pop\n      jump\t// out\n        /* \"#utility.yul\":14594:15017   */\n    tag_51:\n        /* \"#utility.yul\":14735:14739   */\n      0x00\n        /* \"#utility.yul\":14773:14775   */\n      0x40\n        /* \"#utility.yul\":14762:14771   */\n      dup3\n        /* \"#utility.yul\":14758:14776   */\n      add\n        /* \"#utility.yul\":14750:14776   */\n      swap1\n      pop\n        /* \"#utility.yul\":14786:14857   */\n      tag_410\n        /* \"#utility.yul\":14854:14855   */\n      0x00\n        /* \"#utility.yul\":14843:14852   */\n      dup4\n        /* \"#utility.yul\":14839:14856   */\n      add\n        /* \"#utility.yul\":14830:14836   */\n      dup6\n        /* \"#utility.yul\":14786:14857   */\n      tag_333\n      jump\t// in\n    tag_410:\n        /* \"#utility.yul\":14904:14913   */\n      dup2\n        /* \"#utility.yul\":14898:14902   */\n      dup2\n        /* \"#utility.yul\":14894:14914   */\n      sub\n        /* \"#utility.yul\":14889:14891   */\n      0x20\n        /* \"#utility.yul\":14878:14887   */\n      dup4\n        /* \"#utility.yul\":14874:14892   */\n      add\n        /* \"#utility.yul\":14867:14915   */\n      mstore\n        /* \"#utility.yul\":14932:15010   */\n      tag_411\n        /* \"#utility.yul\":15005:15009   */\n      dup2\n        /* \"#utility.yul\":14996:15002   */\n      dup5\n        /* \"#utility.yul\":14932:15010   */\n      tag_346\n      jump\t// in\n    tag_411:\n        /* \"#utility.yul\":14924:15010   */\n      swap1\n      pop\n        /* \"#utility.yul\":14594:15017   */\n      swap4\n      swap3\n      pop\n      pop\n      pop\n      jump\t// out\n        /* \"#utility.yul\":15023:15442   */\n    tag_175:\n        /* \"#utility.yul\":15189:15193   */\n      0x00\n        /* \"#utility.yul\":15227:15229   */\n      0x20\n        /* \"#utility.yul\":15216:15225   */\n      dup3\n        /* \"#utility.yul\":15212:15230   */\n      add\n        /* \"#utility.yul\":15204:15230   */\n      swap1\n      pop\n        /* \"#utility.yul\":15276:15285   */\n      dup2\n        /* \"#utility.yul\":15270:15274   */\n      dup2\n        /* \"#utility.yul\":15266:15286   */\n      sub\n        /* \"#utility.yul\":15262:15263   */\n      0x00\n        /* \"#utility.yul\":15251:15260   */\n      dup4\n        /* \"#utility.yul\":15247:15264   */\n      add\n        /* \"#utility.yul\":15240:15287   */\n      mstore\n        /* \"#utility.yul\":15304:15435   */\n      tag_413\n        /* \"#utility.yul\":15430:15434   */\n      dup2\n        /* \"#utility.yul\":15304:15435   */\n      tag_353\n      jump\t// in\n    tag_413:\n        /* \"#utility.yul\":15296:15435   */\n      swap1\n      pop\n        /* \"#utility.yul\":15023:15442   */\n      swap2\n      swap1\n      pop\n      jump\t// out\n        /* \"#utility.yul\":15448:15867   */\n    tag_140:\n        /* \"#utility.yul\":15614:15618   */\n      0x00\n        /* \"#utility.yul\":15652:15654   */\n      0x20\n        /* \"#utility.yul\":15641:15650   */\n      dup3\n        /* \"#utility.yul\":15637:15655   */\n      add\n        /* \"#utility.yul\":15629:15655   */\n      swap1\n      pop\n        /* \"#utility.yul\":15701:15710   */\n      dup2\n        /* \"#utility.yul\":15695:15699   */\n      dup2\n        /* \"#utility.yul\":15691:15711   */\n      sub\n        /* \"#utility.yul\":15687:15688   */\n      0x00\n        /* \"#utility.yul\":15676:15685   */\n      dup4\n        /* \"#utility.yul\":15672:15689   */\n      add\n        /* \"#utility.yul\":15665:15712   */\n      mstore\n        /* \"#utility.yul\":15729:15860   */\n      tag_415\n        /* \"#utility.yul\":15855:15859   */\n      dup2\n        /* \"#utility.yul\":15729:15860   */\n      tag_358\n      jump\t// in\n    tag_415:\n        /* \"#utility.yul\":15721:15860   */\n      swap1\n      pop\n        /* \"#utility.yul\":15448:15867   */\n      swap2\n      swap1\n      pop\n      jump\t// out\n        /* \"#utility.yul\":15873:16292   */\n    tag_108:\n        /* \"#utility.yul\":16039:16043   */\n      0x00\n        /* \"#utility.yul\":16077:16079   */\n      0x20\n        /* \"#utility.yul\":16066:16075   */\n      dup3\n        /* \"#utility.yul\":16062:16080   */\n      add\n        /* \"#utility.yul\":16054:16080   */\n      swap1\n      pop\n        /* \"#utility.yul\":16126:16135   */\n      dup2\n        /* \"#utility.yul\":16120:16124   */\n      dup2\n        /* \"#utility.yul\":16116:16136   */\n      sub\n        /* \"#utility.yul\":16112:16113   */\n      0x00\n        /* \"#utility.yul\":16101:16110   */\n      dup4\n        /* \"#utility.yul\":16097:16114   */\n      add\n        /* \"#utility.yul\":16090:16137   */\n      mstore\n        /* \"#utility.yul\":16154:16285   */\n      tag_417\n        /* \"#utility.yul\":16280:16284   */\n      dup2\n        /* \"#utility.yul\":16154:16285   */\n      tag_363\n      jump\t// in\n    tag_417:\n        /* \"#utility.yul\":16146:16285   */\n      swap1\n      pop\n        /* \"#utility.yul\":15873:16292   */\n      swap2\n      swap1\n      pop\n      jump\t// out\n        /* \"#utility.yul\":16298:16717   */\n    tag_137:\n        /* \"#utility.yul\":16464:16468   */\n      0x00\n        /* \"#utility.yul\":16502:16504   */\n      0x20\n        /* \"#utility.yul\":16491:16500   */\n      dup3\n        /* \"#utility.yul\":16487:16505   */\n      add\n        /* \"#utility.yul\":16479:16505   */\n      swap1\n      pop\n        /* \"#utility.yul\":16551:16560   */\n      dup2\n        /* \"#utility.yul\":16545:16549   */\n      dup2\n        /* \"#utility.yul\":16541:16561   */\n      sub\n        /* \"#utility.yul\":16537:16538   */\n      0x00\n        /* \"#utility.yul\":16526:16535   */\n      dup4\n        /* \"#utility.yul\":16522:16539   */\n      add\n        /* \"#utility.yul\":16515:16562   */\n      mstore\n        /* \"#utility.yul\":16579:16710   */\n      tag_419\n        /* \"#utility.yul\":16705:16709   */\n      dup2\n        /* \"#utility.yul\":16579:16710   */\n      tag_368\n      jump\t// in\n    tag_419:\n        /* \"#utility.yul\":16571:16710   */\n      swap1\n      pop\n        /* \"#utility.yul\":16298:16717   */\n      swap2\n      swap1\n      pop\n      jump\t// out\n        /* \"#utility.yul\":16723:17142   */\n    tag_103:\n        /* \"#utility.yul\":16889:16893   */\n      0x00\n        /* \"#utility.yul\":16927:16929   */\n      0x20\n        /* \"#utility.yul\":16916:16925   */\n      dup3\n        /* \"#utility.yul\":16912:16930   */\n      add\n        /* \"#utility.yul\":16904:16930   */\n      swap1\n      pop\n        /* \"#utility.yul\":16976:16985   */\n      dup2\n        /* \"#utility.yul\":16970:16974   */\n      dup2\n        /* \"#utility.yul\":16966:16986   */\n      sub\n        /* \"#utility.yul\":16962:16963   */\n      0x00\n        /* \"#utility.yul\":16951:16960   */\n      dup4\n        /* \"#utility.yul\":16947:16964   */\n      add\n        /* \"#utility.yul\":16940:16987   */\n      mstore\n        /* \"#utility.yul\":17004:17135   */\n      tag_421\n        /* \"#utility.yul\":17130:17134   */\n      dup2\n        /* \"#utility.yul\":17004:17135   */\n      tag_373\n      jump\t// in\n    tag_421:\n        /* \"#utility.yul\":16996:17135   */\n      swap1\n      pop\n        /* \"#utility.yul\":16723:17142   */\n      swap2\n      swap1\n      pop\n      jump\t// out\n        /* \"#utility.yul\":17148:17567   */\n    tag_132:\n        /* \"#utility.yul\":17314:17318   */\n      0x00\n        /* \"#utility.yul\":17352:17354   */\n      0x20\n        /* \"#utility.yul\":17341:17350   */\n      dup3\n        /* \"#utility.yul\":17337:17355   */\n      add\n        /* \"#utility.yul\":17329:17355   */\n      swap1\n      pop\n        /* \"#utility.yul\":17401:17410   */\n      dup2\n        /* \"#utility.yul\":17395:17399   */\n      dup2\n        /* \"#utility.yul\":17391:17411   */\n      sub\n        /* \"#utility.yul\":17387:17388   */\n      0x00\n        /* \"#utility.yul\":17376:17385   */\n      dup4\n        /* \"#utility.yul\":17372:17389   */\n      add\n        /* \"#utility.yul\":17365:17412   */\n      mstore\n        /* \"#utility.yul\":17429:17560   */\n      tag_423\n        /* \"#utility.yul\":17555:17559   */\n      dup2\n        /* \"#utility.yul\":17429:17560   */\n      tag_378\n      jump\t// in\n    tag_423:\n        /* \"#utility.yul\":17421:17560   */\n      swap1\n      pop\n        /* \"#utility.yul\":17148:17567   */\n      swap2\n      swap1\n      pop\n      jump\t// out\n        /* \"#utility.yul\":17573:17883   */\n    tag_145:\n        /* \"#utility.yul\":17710:17714   */\n      0x00\n        /* \"#utility.yul\":17748:17750   */\n      0x40\n        /* \"#utility.yul\":17737:17746   */\n      dup3\n        /* \"#utility.yul\":17733:17751   */\n      add\n        /* \"#utility.yul\":17725:17751   */\n      swap1\n      pop\n        /* \"#utility.yul\":17761:17876   */\n      tag_425\n        /* \"#utility.yul\":17873:17874   */\n      0x00\n        /* \"#utility.yul\":17862:17871   */\n      dup4\n        /* \"#utility.yul\":17858:17875   */\n      add\n        /* \"#utility.yul\":17849:17855   */\n      dup5\n        /* \"#utility.yul\":17761:17876   */\n      tag_389\n      jump\t// in\n    tag_425:\n        /* \"#utility.yul\":17573:17883   */\n      swap3\n      swap2\n      pop\n      pop\n      jump\t// out\n        /* \"#utility.yul\":17889:18213   */\n    tag_63:\n        /* \"#utility.yul\":18006:18010   */\n      0x00\n        /* \"#utility.yul\":18044:18046   */\n      0x40\n        /* \"#utility.yul\":18033:18042   */\n      dup3\n        /* \"#utility.yul\":18029:18047   */\n      add\n        /* \"#utility.yul\":18021:18047   */\n      swap1\n      pop\n        /* \"#utility.yul\":18057:18124   */\n      tag_427\n        /* \"#utility.yul\":18121:18122   */\n      0x00\n        /* \"#utility.yul\":18110:18119   */\n      dup4\n        /* \"#utility.yul\":18106:18123   */\n      add\n        /* \"#utility.yul\":18097:18103   */\n      dup6\n        /* \"#utility.yul\":18057:18124   */\n      tag_396\n      jump\t// in\n    tag_427:\n        /* \"#utility.yul\":18134:18206   */\n      tag_428\n        /* \"#utility.yul\":18202:18204   */\n      0x20\n        /* \"#utility.yul\":18191:18200   */\n      dup4\n        /* \"#utility.yul\":18187:18205   */\n      add\n        /* \"#utility.yul\":18178:18184   */\n      dup5\n        /* \"#utility.yul\":18134:18206   */\n      tag_333\n      jump\t// in\n    tag_428:\n        /* \"#utility.yul\":17889:18213   */\n      swap4\n      swap3\n      pop\n      pop\n      pop\n      jump\t// out\n        /* \"#utility.yul\":18219:18348   */\n    tag_216:\n        /* \"#utility.yul\":18253:18259   */\n      0x00\n        /* \"#utility.yul\":18280:18300   */\n      tag_430\n      tag_431\n      jump\t// in\n    tag_430:\n        /* \"#utility.yul\":18270:18300   */\n      swap1\n      pop\n        /* \"#utility.yul\":18309:18342   */\n      tag_432\n        /* \"#utility.yul\":18337:18341   */\n      dup3\n        /* \"#utility.yul\":18329:18335   */\n      dup3\n        /* \"#utility.yul\":18309:18342   */\n      tag_433\n      jump\t// in\n    tag_432:\n        /* \"#utility.yul\":18219:18348   */\n      swap2\n      swap1\n      pop\n      jump\t// out\n        /* \"#utility.yul\":18354:18429   */\n    tag_431:\n        /* \"#utility.yul\":18387:18393   */\n      0x00\n        /* \"#utility.yul\":18420:18422   */\n      0x40\n        /* \"#utility.yul\":18414:18423   */\n      mload\n        /* \"#utility.yul\":18404:18423   */\n      swap1\n      pop\n        /* \"#utility.yul\":18354:18429   */\n      swap1\n      jump\t// out\n        /* \"#utility.yul\":18435:18743   */\n    tag_215:\n        /* \"#utility.yul\":18497:18501   */\n      0x00\n        /* \"#utility.yul\":18587:18605   */\n      0xffffffffffffffff\n        /* \"#utility.yul\":18579:18585   */\n      dup3\n        /* \"#utility.yul\":18576:18606   */\n      gt\n        /* \"#utility.yul\":18573:18629   */\n      iszero\n      tag_436\n      jumpi\n        /* \"#utility.yul\":18609:18627   */\n      tag_437\n      tag_438\n      jump\t// in\n    tag_437:\n        /* \"#utility.yul\":18573:18629   */\n    tag_436:\n        /* \"#utility.yul\":18647:18676   */\n      tag_439\n        /* \"#utility.yul\":18669:18675   */\n      dup3\n        /* \"#utility.yul\":18647:18676   */\n      tag_345\n      jump\t// in\n    tag_439:\n        /* \"#utility.yul\":18639:18676   */\n      swap1\n      pop\n        /* \"#utility.yul\":18731:18735   */\n      0x20\n        /* \"#utility.yul\":18725:18729   */\n      dup2\n        /* \"#utility.yul\":18721:18736   */\n      add\n        /* \"#utility.yul\":18713:18736   */\n      swap1\n      pop\n        /* \"#utility.yul\":18435:18743   */\n      swap2\n      swap1\n      pop\n      jump\t// out\n        /* \"#utility.yul\":18749:18904   */\n    tag_294:\n        /* \"#utility.yul\":18839:18843   */\n      0x00\n        /* \"#utility.yul\":18862:18865   */\n      dup2\n        /* \"#utility.yul\":18854:18865   */\n      swap1\n      pop\n        /* \"#utility.yul\":18892:18896   */\n      0x20\n        /* \"#utility.yul\":18887:18890   */\n      dup3\n        /* \"#utility.yul\":18883:18897   */\n      add\n        /* \"#utility.yul\":18875:18897   */\n      swap1\n      pop\n        /* \"#utility.yul\":18749:18904   */\n      swap2\n      swap1\n      pop\n      jump\t// out\n        /* \"#utility.yul\":18910:19064   */\n    tag_308:\n        /* \"#utility.yul\":18999:19003   */\n      0x00\n        /* \"#utility.yul\":19022:19025   */\n      dup2\n        /* \"#utility.yul\":19014:19025   */\n      swap1\n      pop\n        /* \"#utility.yul\":19052:19056   */\n      0x20\n        /* \"#utility.yul\":19047:19050   */\n      dup3\n        /* \"#utility.yul\":19043:19057   */\n      add\n        /* \"#utility.yul\":19035:19057   */\n      swap1\n      pop\n        /* \"#utility.yul\":18910:19064   */\n      swap2\n      swap1\n      pop\n      jump\t// out\n        /* \"#utility.yul\":19070:19200   */\n    tag_322:\n        /* \"#utility.yul\":19135:19139   */\n      0x00\n        /* \"#utility.yul\":19158:19161   */\n      dup2\n        /* \"#utility.yul\":19150:19161   */\n      swap1\n      pop\n        /* \"#utility.yul\":19188:19192   */\n      0x20\n        /* \"#utility.yul\":19183:19186   */\n      dup3\n        /* \"#utility.yul\":19179:19193   */\n      add\n        /* \"#utility.yul\":19171:19193   */\n      swap1\n      pop\n        /* \"#utility.yul\":19070:19200   */\n      swap2\n      swap1\n      pop\n      jump\t// out\n        /* \"#utility.yul\":19206:19343   */\n    tag_290:\n        /* \"#utility.yul\":19296:19302   */\n      0x00\n        /* \"#utility.yul\":19330:19335   */\n      dup2\n        /* \"#utility.yul\":19324:19336   */\n      mload\n        /* \"#utility.yul\":19314:19336   */\n      swap1\n      pop\n        /* \"#utility.yul\":19206:19343   */\n      swap2\n      swap1\n      pop\n      jump\t// out\n        /* \"#utility.yul\":19349:19485   */\n    tag_304:\n        /* \"#utility.yul\":19438:19444   */\n      0x00\n        /* \"#utility.yul\":19472:19477   */\n      dup2\n        /* \"#utility.yul\":19466:19478   */\n      mload\n        /* \"#utility.yul\":19456:19478   */\n      swap1\n      pop\n        /* \"#utility.yul\":19349:19485   */\n      swap2\n      swap1\n      pop\n      jump\t// out\n        /* \"#utility.yul\":19491:19603   */\n    tag_318:\n        /* \"#utility.yul\":19556:19562   */\n      0x00\n        /* \"#utility.yul\":19590:19595   */\n      dup2\n        /* \"#utility.yul\":19584:19596   */\n      mload\n        /* \"#utility.yul\":19574:19596   */\n      swap1\n      pop\n        /* \"#utility.yul\":19491:19603   */\n      swap2\n      swap1\n      pop\n      jump\t// out\n        /* \"#utility.yul\":19609:19708   */\n    tag_339:\n        /* \"#utility.yul\":19661:19667   */\n      0x00\n        /* \"#utility.yul\":19695:19700   */\n      dup2\n        /* \"#utility.yul\":19689:19701   */\n      mload\n        /* \"#utility.yul\":19679:19701   */\n      swap1\n      pop\n        /* \"#utility.yul\":19609:19708   */\n      swap2\n      swap1\n      pop\n      jump\t// out\n        /* \"#utility.yul\":19714:19850   */\n    tag_300:\n        /* \"#utility.yul\":19807:19811   */\n      0x00\n        /* \"#utility.yul\":19839:19843   */\n      0x20\n        /* \"#utility.yul\":19834:19837   */\n      dup3\n        /* \"#utility.yul\":19830:19844   */\n      add\n        /* \"#utility.yul\":19822:19844   */\n      swap1\n      pop\n        /* \"#utility.yul\":19714:19850   */\n      swap2\n      swap1\n      pop\n      jump\t// out\n        /* \"#utility.yul\":19856:19991   */\n    tag_314:\n        /* \"#utility.yul\":19948:19952   */\n      0x00\n        /* \"#utility.yul\":19980:19984   */\n      0x20\n        /* \"#utility.yul\":19975:19978   */\n      dup3\n        /* \"#utility.yul\":19971:19985   */\n      add\n        /* \"#utility.yul\":19963:19985   */\n      swap1\n      pop\n        /* \"#utility.yul\":19856:19991   */\n      swap2\n      swap1\n      pop\n      jump\t// out\n        /* \"#utility.yul\":19997:20108   */\n    tag_328:\n        /* \"#utility.yul\":20065:20069   */\n      0x00\n        /* \"#utility.yul\":20097:20101   */\n      0x20\n        /* \"#utility.yul\":20092:20095   */\n      dup3\n        /* \"#utility.yul\":20088:20102   */\n      add\n        /* \"#utility.yul\":20080:20102   */\n      swap1\n      pop\n        /* \"#utility.yul\":19997:20108   */\n      swap2\n      swap1\n      pop\n      jump\t// out\n        /* \"#utility.yul\":20114:20321   */\n    tag_292:\n        /* \"#utility.yul\":20236:20247   */\n      0x00\n        /* \"#utility.yul\":20270:20276   */\n      dup3\n        /* \"#utility.yul\":20265:20268   */\n      dup3\n        /* \"#utility.yul\":20258:20277   */\n      mstore\n        /* \"#utility.yul\":20310:20314   */\n      0x20\n        /* \"#utility.yul\":20305:20308   */\n      dup3\n        /* \"#utility.yul\":20301:20315   */\n      add\n        /* \"#utility.yul\":20286:20315   */\n      swap1\n      pop\n        /* \"#utility.yul\":20114:20321   */\n      swap3\n      swap2\n      pop\n      pop\n      jump\t// out\n        /* \"#utility.yul\":20327:20533   */\n    tag_306:\n        /* \"#utility.yul\":20448:20459   */\n      0x00\n        /* \"#utility.yul\":20482:20488   */\n      dup3\n        /* \"#utility.yul\":20477:20480   */\n      dup3\n        /* \"#utility.yul\":20470:20489   */\n      mstore\n        /* \"#utility.yul\":20522:20526   */\n      0x20\n        /* \"#utility.yul\":20517:20520   */\n      dup3\n        /* \"#utility.yul\":20513:20527   */\n      add\n        /* \"#utility.yul\":20498:20527   */\n      swap1\n      pop\n        /* \"#utility.yul\":20327:20533   */\n      swap3\n      swap2\n      pop\n      pop\n      jump\t// out\n        /* \"#utility.yul\":20539:20721   */\n    tag_320:\n        /* \"#utility.yul\":20636:20647   */\n      0x00\n        /* \"#utility.yul\":20670:20676   */\n      dup3\n        /* \"#utility.yul\":20665:20668   */\n      dup3\n        /* \"#utility.yul\":20658:20677   */\n      mstore\n        /* \"#utility.yul\":20710:20714   */\n      0x20\n        /* \"#utility.yul\":20705:20708   */\n      dup3\n        /* \"#utility.yul\":20701:20715   */\n      add\n        /* \"#utility.yul\":20686:20715   */\n      swap1\n      pop\n        /* \"#utility.yul\":20539:20721   */\n      swap3\n      swap2\n      pop\n      pop\n      jump\t// out\n        /* \"#utility.yul\":20727:20886   */\n    tag_341:\n        /* \"#utility.yul\":20801:20812   */\n      0x00\n        /* \"#utility.yul\":20835:20841   */\n      dup3\n        /* \"#utility.yul\":20830:20833   */\n      dup3\n        /* \"#utility.yul\":20823:20842   */\n      mstore\n        /* \"#utility.yul\":20875:20879   */\n      0x20\n        /* \"#utility.yul\":20870:20873   */\n      dup3\n        /* \"#utility.yul\":20866:20880   */\n      add\n        /* \"#utility.yul\":20851:20880   */\n      swap1\n      pop\n        /* \"#utility.yul\":20727:20886   */\n      swap3\n      swap2\n      pop\n      pop\n      jump\t// out\n        /* \"#utility.yul\":20892:21061   */\n    tag_350:\n        /* \"#utility.yul\":20976:20987   */\n      0x00\n        /* \"#utility.yul\":21010:21016   */\n      dup3\n        /* \"#utility.yul\":21005:21008   */\n      dup3\n        /* \"#utility.yul\":20998:21017   */\n      mstore\n        /* \"#utility.yul\":21050:21054   */\n      0x20\n        /* \"#utility.yul\":21045:21048   */\n      dup3\n        /* \"#utility.yul\":21041:21055   */\n      add\n        /* \"#utility.yul\":21026:21055   */\n      swap1\n      pop\n        /* \"#utility.yul\":20892:21061   */\n      swap3\n      swap2\n      pop\n      pop\n      jump\t// out\n        /* \"#utility.yul\":21067:21163   */\n    tag_286:\n        /* \"#utility.yul\":21104:21111   */\n      0x00\n        /* \"#utility.yul\":21133:21157   */\n      tag_456\n        /* \"#utility.yul\":21151:21156   */\n      dup3\n        /* \"#utility.yul\":21133:21157   */\n      tag_457\n      jump\t// in\n    tag_456:\n        /* \"#utility.yul\":21122:21157   */\n      swap1\n      pop\n        /* \"#utility.yul\":21067:21163   */\n      swap2\n      swap1\n      pop\n      jump\t// out\n        /* \"#utility.yul\":21169:21319   */\n    tag_332:\n        /* \"#utility.yul\":21206:21213   */\n      0x00\n        /* \"#utility.yul\":21246:21312   */\n      0xffffffffffffffffffffffffffffffff00000000000000000000000000000000\n        /* \"#utility.yul\":21239:21244   */\n      dup3\n        /* \"#utility.yul\":21235:21313   */\n      and\n        /* \"#utility.yul\":21224:21313   */\n      swap1\n      pop\n        /* \"#utility.yul\":21169:21319   */\n      swap2\n      swap1\n      pop\n      jump\t// out\n        /* \"#utility.yul\":21325:21451   */\n    tag_457:\n        /* \"#utility.yul\":21362:21369   */\n      0x00\n        /* \"#utility.yul\":21402:21444   */\n      0xffffffffffffffffffffffffffffffffffffffff\n        /* \"#utility.yul\":21395:21400   */\n      dup3\n        /* \"#utility.yul\":21391:21445   */\n      and\n        /* \"#utility.yul\":21380:21445   */\n      swap1\n      pop\n        /* \"#utility.yul\":21325:21451   */\n      swap2\n      swap1\n      pop\n      jump\t// out\n        /* \"#utility.yul\":21457:21534   */\n    tag_460:\n        /* \"#utility.yul\":21494:21501   */\n      0x00\n        /* \"#utility.yul\":21523:21528   */\n      dup2\n        /* \"#utility.yul\":21512:21528   */\n      swap1\n      pop\n        /* \"#utility.yul\":21457:21534   */\n      swap2\n      swap1\n      pop\n      jump\t// out\n        /* \"#utility.yul\":21540:21626   */\n    tag_395:\n        /* \"#utility.yul\":21575:21582   */\n      0x00\n        /* \"#utility.yul\":21615:21619   */\n      0xff\n        /* \"#utility.yul\":21608:21613   */\n      dup3\n        /* \"#utility.yul\":21604:21620   */\n      and\n        /* \"#utility.yul\":21593:21620   */\n      swap1\n      pop\n        /* \"#utility.yul\":21540:21626   */\n      swap2\n      swap1\n      pop\n      jump\t// out\n        /* \"#utility.yul\":21632:21786   */\n    tag_221:\n        /* \"#utility.yul\":21716:21722   */\n      dup3\n        /* \"#utility.yul\":21711:21714   */\n      dup2\n        /* \"#utility.yul\":21706:21709   */\n      dup4\n        /* \"#utility.yul\":21693:21723   */\n      calldatacopy\n        /* \"#utility.yul\":21778:21779   */\n      0x00\n        /* \"#utility.yul\":21769:21775   */\n      dup4\n        /* \"#utility.yul\":21764:21767   */\n      dup4\n        /* \"#utility.yul\":21760:21776   */\n      add\n        /* \"#utility.yul\":21753:21780   */\n      mstore\n        /* \"#utility.yul\":21632:21786   */\n      pop\n      pop\n      pop\n      jump\t// out\n        /* \"#utility.yul\":21792:22099   */\n    tag_343:\n        /* \"#utility.yul\":21860:21861   */\n      0x00\n        /* \"#utility.yul\":21870:21983   */\n    tag_465:\n        /* \"#utility.yul\":21884:21890   */\n      dup4\n        /* \"#utility.yul\":21881:21882   */\n      dup2\n        /* \"#utility.yul\":21878:21891   */\n      lt\n        /* \"#utility.yul\":21870:21983   */\n      iszero\n      tag_467\n      jumpi\n        /* \"#utility.yul\":21969:21970   */\n      dup1\n        /* \"#utility.yul\":21964:21967   */\n      dup3\n        /* \"#utility.yul\":21960:21971   */\n      add\n        /* \"#utility.yul\":21954:21972   */\n      mload\n        /* \"#utility.yul\":21950:21951   */\n      dup2\n        /* \"#utility.yul\":21945:21948   */\n      dup5\n        /* \"#utility.yul\":21941:21952   */\n      add\n        /* \"#utility.yul\":21934:21973   */\n      mstore\n        /* \"#utility.yul\":21906:21908   */\n      0x20\n        /* \"#utility.yul\":21903:21904   */\n      dup2\n        /* \"#utility.yul\":21899:21909   */\n      add\n        /* \"#utility.yul\":21894:21909   */\n      swap1\n      pop\n        /* \"#utility.yul\":21870:21983   */\n      jump(tag_465)\n    tag_467:\n        /* \"#utility.yul\":22001:22007   */\n      dup4\n        /* \"#utility.yul\":21998:21999   */\n      dup2\n        /* \"#utility.yul\":21995:22008   */\n      gt\n        /* \"#utility.yul\":21992:22093   */\n      iszero\n      tag_468\n      jumpi\n        /* \"#utility.yul\":22081:22082   */\n      0x00\n        /* \"#utility.yul\":22072:22078   */\n      dup5\n        /* \"#utility.yul\":22067:22070   */\n      dup5\n        /* \"#utility.yul\":22063:22079   */\n      add\n        /* \"#utility.yul\":22056:22083   */\n      mstore\n        /* \"#utility.yul\":21992:22093   */\n    tag_468:\n        /* \"#utility.yul\":21841:22099   */\n      pop\n        /* \"#utility.yul\":21792:22099   */\n      pop\n      pop\n      pop\n      jump\t// out\n        /* \"#utility.yul\":22105:22425   */\n    tag_119:\n        /* \"#utility.yul\":22149:22155   */\n      0x00\n        /* \"#utility.yul\":22186:22187   */\n      0x02\n        /* \"#utility.yul\":22180:22184   */\n      dup3\n        /* \"#utility.yul\":22176:22188   */\n      div\n        /* \"#utility.yul\":22166:22188   */\n      swap1\n      pop\n        /* \"#utility.yul\":22233:22234   */\n      0x01\n        /* \"#utility.yul\":22227:22231   */\n      dup3\n        /* \"#utility.yul\":22223:22235   */\n      and\n        /* \"#utility.yul\":22254:22272   */\n      dup1\n        /* \"#utility.yul\":22244:22325   */\n      tag_470\n      jumpi\n        /* \"#utility.yul\":22310:22314   */\n      0x7f\n        /* \"#utility.yul\":22302:22308   */\n      dup3\n        /* \"#utility.yul\":22298:22315   */\n      and\n        /* \"#utility.yul\":22288:22315   */\n      swap2\n      pop\n        /* \"#utility.yul\":22244:22325   */\n    tag_470:\n        /* \"#utility.yul\":22372:22374   */\n      0x20\n        /* \"#utility.yul\":22364:22370   */\n      dup3\n        /* \"#utility.yul\":22361:22375   */\n      lt\n        /* \"#utility.yul\":22341:22359   */\n      dup2\n        /* \"#utility.yul\":22338:22376   */\n      eq\n        /* \"#utility.yul\":22335:22419   */\n      iszero\n      tag_471\n      jumpi\n        /* \"#utility.yul\":22391:22409   */\n      tag_472\n      tag_473\n      jump\t// in\n    tag_472:\n        /* \"#utility.yul\":22335:22419   */\n    tag_471:\n        /* \"#utility.yul\":22156:22425   */\n      pop\n        /* \"#utility.yul\":22105:22425   */\n      swap2\n      swap1\n      pop\n      jump\t// out\n        /* \"#utility.yul\":22431:22712   */\n    tag_433:\n        /* \"#utility.yul\":22514:22541   */\n      tag_475\n        /* \"#utility.yul\":22536:22540   */\n      dup3\n        /* \"#utility.yul\":22514:22541   */\n      tag_345\n      jump\t// in\n    tag_475:\n        /* \"#utility.yul\":22506:22512   */\n      dup2\n        /* \"#utility.yul\":22502:22542   */\n      add\n        /* \"#utility.yul\":22644:22650   */\n      dup2\n        /* \"#utility.yul\":22632:22642   */\n      dup2\n        /* \"#utility.yul\":22629:22651   */\n      lt\n        /* \"#utility.yul\":22608:22626   */\n      0xffffffffffffffff\n        /* \"#utility.yul\":22596:22606   */\n      dup3\n        /* \"#utility.yul\":22593:22627   */\n      gt\n        /* \"#utility.yul\":22590:22652   */\n      or\n        /* \"#utility.yul\":22587:22675   */\n      iszero\n      tag_476\n      jumpi\n        /* \"#utility.yul\":22655:22673   */\n      tag_477\n      tag_438\n      jump\t// in\n    tag_477:\n        /* \"#utility.yul\":22587:22675   */\n    tag_476:\n        /* \"#utility.yul\":22695:22705   */\n      dup1\n        /* \"#utility.yul\":22691:22693   */\n      0x40\n        /* \"#utility.yul\":22684:22706   */\n      mstore\n        /* \"#utility.yul\":22474:22712   */\n      pop\n        /* \"#utility.yul\":22431:22712   */\n      pop\n      pop\n      jump\t// out\n        /* \"#utility.yul\":22718:22885   */\n    tag_143:\n        /* \"#utility.yul\":22755:22758   */\n      0x00\n        /* \"#utility.yul\":22778:22800   */\n      tag_479\n        /* \"#utility.yul\":22794:22799   */\n      dup3\n        /* \"#utility.yul\":22778:22800   */\n      tag_395\n      jump\t// in\n    tag_479:\n        /* \"#utility.yul\":22769:22800   */\n      swap2\n      pop\n        /* \"#utility.yul\":22822:22826   */\n      0xff\n        /* \"#utility.yul\":22815:22820   */\n      dup3\n        /* \"#utility.yul\":22812:22827   */\n      eq\n        /* \"#utility.yul\":22809:22850   */\n      iszero\n      tag_480\n      jumpi\n        /* \"#utility.yul\":22830:22848   */\n      tag_481\n      tag_482\n      jump\t// in\n    tag_481:\n        /* \"#utility.yul\":22809:22850   */\n    tag_480:\n        /* \"#utility.yul\":22877:22878   */\n      0x01\n        /* \"#utility.yul\":22870:22875   */\n      dup3\n        /* \"#utility.yul\":22866:22879   */\n      add\n        /* \"#utility.yul\":22859:22879   */\n      swap1\n      pop\n        /* \"#utility.yul\":22718:22885   */\n      swap2\n      swap1\n      pop\n      jump\t// out\n        /* \"#utility.yul\":22891:23071   */\n    tag_482:\n        /* \"#utility.yul\":22939:23016   */\n      0x4e487b7100000000000000000000000000000000000000000000000000000000\n        /* \"#utility.yul\":22936:22937   */\n      0x00\n        /* \"#utility.yul\":22929:23017   */\n      mstore\n        /* \"#utility.yul\":23036:23040   */\n      0x11\n        /* \"#utility.yul\":23033:23034   */\n      0x04\n        /* \"#utility.yul\":23026:23041   */\n      mstore\n        /* \"#utility.yul\":23060:23064   */\n      0x24\n        /* \"#utility.yul\":23057:23058   */\n      0x00\n        /* \"#utility.yul\":23050:23065   */\n      revert\n        /* \"#utility.yul\":23077:23257   */\n    tag_473:\n        /* \"#utility.yul\":23125:23202   */\n      0x4e487b7100000000000000000000000000000000000000000000000000000000\n        /* \"#utility.yul\":23122:23123   */\n      0x00\n        /* \"#utility.yul\":23115:23203   */\n      mstore\n        /* \"#utility.yul\":23222:23226   */\n      0x22\n        /* \"#utility.yul\":23219:23220   */\n      0x04\n        /* \"#utility.yul\":23212:23227   */\n      mstore\n        /* \"#utility.yul\":23246:23250   */\n      0x24\n        /* \"#utility.yul\":23243:23244   */\n      0x00\n        /* \"#utility.yul\":23236:23251   */\n      revert\n        /* \"#utility.yul\":23263:23443   */\n    tag_186:\n        /* \"#utility.yul\":23311:23388   */\n      0x4e487b7100000000000000000000000000000000000000000000000000000000\n        /* \"#utility.yul\":23308:23309   */\n      0x00\n        /* \"#utility.yul\":23301:23389   */\n      mstore\n        /* \"#utility.yul\":23408:23412   */\n      0x32\n        /* \"#utility.yul\":23405:23406   */\n      0x04\n        /* \"#utility.yul\":23398:23413   */\n      mstore\n        /* \"#utility.yul\":23432:23436   */\n      0x24\n        /* \"#utility.yul\":23429:23430   */\n      0x00\n        /* \"#utility.yul\":23422:23437   */\n      revert\n        /* \"#utility.yul\":23449:23629   */\n    tag_438:\n        /* \"#utility.yul\":23497:23574   */\n      0x4e487b7100000000000000000000000000000000000000000000000000000000\n        /* \"#utility.yul\":23494:23495   */\n      0x00\n        /* \"#utility.yul\":23487:23575   */\n      mstore\n        /* \"#utility.yul\":23594:23598   */\n      0x41\n        /* \"#utility.yul\":23591:23592   */\n      0x04\n        /* \"#utility.yul\":23584:23599   */\n      mstore\n        /* \"#utility.yul\":23618:23622   */\n      0x24\n        /* \"#utility.yul\":23615:23616   */\n      0x00\n        /* \"#utility.yul\":23608:23623   */\n      revert\n        /* \"#utility.yul\":23635:23752   */\n    tag_230:\n        /* \"#utility.yul\":23744:23745   */\n      0x00\n        /* \"#utility.yul\":23741:23742   */\n      dup1\n        /* \"#utility.yul\":23734:23746   */\n      revert\n        /* \"#utility.yul\":23758:23875   */\n    tag_219:\n        /* \"#utility.yul\":23867:23868   */\n      0x00\n        /* \"#utility.yul\":23864:23865   */\n      dup1\n        /* \"#utility.yul\":23857:23869   */\n      revert\n        /* \"#utility.yul\":23881:23998   */\n    tag_251:\n        /* \"#utility.yul\":23990:23991   */\n      0x00\n        /* \"#utility.yul\":23987:23988   */\n      dup1\n        /* \"#utility.yul\":23980:23992   */\n      revert\n        /* \"#utility.yul\":24004:24121   */\n    tag_243:\n        /* \"#utility.yul\":24113:24114   */\n      0x00\n        /* \"#utility.yul\":24110:24111   */\n      dup1\n        /* \"#utility.yul\":24103:24115   */\n      revert\n        /* \"#utility.yul\":24127:24229   */\n    tag_345:\n        /* \"#utility.yul\":24168:24174   */\n      0x00\n        /* \"#utility.yul\":24219:24221   */\n      0x1f\n        /* \"#utility.yul\":24215:24222   */\n      not\n        /* \"#utility.yul\":24210:24212   */\n      0x1f\n        /* \"#utility.yul\":24203:24208   */\n      dup4\n        /* \"#utility.yul\":24199:24213   */\n      add\n        /* \"#utility.yul\":24195:24223   */\n      and\n        /* \"#utility.yul\":24185:24223   */\n      swap1\n      pop\n        /* \"#utility.yul\":24127:24229   */\n      swap2\n      swap1\n      pop\n      jump\t// out\n        /* \"#utility.yul\":24235:24408   */\n    tag_357:\n        /* \"#utility.yul\":24375:24400   */\n      0x546865207479706520646f6573206e6f74206578697374000000000000000000\n        /* \"#utility.yul\":24371:24372   */\n      0x00\n        /* \"#utility.yul\":24363:24369   */\n      dup3\n        /* \"#utility.yul\":24359:24373   */\n      add\n        /* \"#utility.yul\":24352:24401   */\n      mstore\n        /* \"#utility.yul\":24235:24408   */\n      pop\n      jump\t// out\n        /* \"#utility.yul\":24414:24648   */\n    tag_362:\n        /* \"#utility.yul\":24554:24588   */\n      0x546865206e616d652073697a65206d7573742062652067726561746572207468\n        /* \"#utility.yul\":24550:24551   */\n      0x00\n        /* \"#utility.yul\":24542:24548   */\n      dup3\n        /* \"#utility.yul\":24538:24552   */\n      add\n        /* \"#utility.yul\":24531:24589   */\n      mstore\n        /* \"#utility.yul\":24623:24640   */\n      0x616e203220636861726163746572730000000000000000000000000000000000\n        /* \"#utility.yul\":24618:24620   */\n      0x20\n        /* \"#utility.yul\":24610:24616   */\n      dup3\n        /* \"#utility.yul\":24606:24621   */\n      add\n        /* \"#utility.yul\":24599:24641   */\n      mstore\n        /* \"#utility.yul\":24414:24648   */\n      pop\n      jump\t// out\n        /* \"#utility.yul\":24654:24830   */\n    tag_367:\n        /* \"#utility.yul\":24794:24822   */\n      0x546865206162696c69747920646f6573206e6f74206578697374000000000000\n        /* \"#utility.yul\":24790:24791   */\n      0x00\n        /* \"#utility.yul\":24782:24788   */\n      dup3\n        /* \"#utility.yul\":24778:24792   */\n      add\n        /* \"#utility.yul\":24771:24823   */\n      mstore\n        /* \"#utility.yul\":24654:24830   */\n      pop\n      jump\t// out\n        /* \"#utility.yul\":24836:25067   */\n    tag_372:\n        /* \"#utility.yul\":24976:25010   */\n      0x5468652049442076616c7565206d7573742062652067726561746572206f7220\n        /* \"#utility.yul\":24972:24973   */\n      0x00\n        /* \"#utility.yul\":24964:24970   */\n      dup3\n        /* \"#utility.yul\":24960:24974   */\n      add\n        /* \"#utility.yul\":24953:25011   */\n      mstore\n        /* \"#utility.yul\":25045:25059   */\n      0x657175616c207468616e20300000000000000000000000000000000000000000\n        /* \"#utility.yul\":25040:25042   */\n      0x20\n        /* \"#utility.yul\":25032:25038   */\n      dup3\n        /* \"#utility.yul\":25028:25043   */\n      add\n        /* \"#utility.yul\":25021:25060   */\n      mstore\n        /* \"#utility.yul\":24836:25067   */\n      pop\n      jump\t// out\n        /* \"#utility.yul\":25073:25249   */\n    tag_377:\n        /* \"#utility.yul\":25213:25241   */\n      0x54686520706f6b656d6f6e20646f6573206e6f74206578697374000000000000\n        /* \"#utility.yul\":25209:25210   */\n      0x00\n        /* \"#utility.yul\":25201:25207   */\n      dup3\n        /* \"#utility.yul\":25197:25211   */\n      add\n        /* \"#utility.yul\":25190:25242   */\n      mstore\n        /* \"#utility.yul\":25073:25249   */\n      pop\n      jump\t// out\n        /* \"#utility.yul\":25255:25432   */\n    tag_382:\n        /* \"#utility.yul\":25395:25424   */\n      0x546865207765616b6e65737320646f6573206e6f742065786973740000000000\n        /* \"#utility.yul\":25391:25392   */\n      0x00\n        /* \"#utility.yul\":25383:25389   */\n      dup3\n        /* \"#utility.yul\":25379:25393   */\n      add\n        /* \"#utility.yul\":25372:25425   */\n      mstore\n        /* \"#utility.yul\":25255:25432   */\n      pop\n      jump\t// out\n        /* \"#utility.yul\":25438:25560   */\n    tag_225:\n        /* \"#utility.yul\":25511:25535   */\n      tag_499\n        /* \"#utility.yul\":25529:25534   */\n      dup2\n        /* \"#utility.yul\":25511:25535   */\n      tag_332\n      jump\t// in\n    tag_499:\n        /* \"#utility.yul\":25504:25509   */\n      dup2\n        /* \"#utility.yul\":25501:25536   */\n      eq\n        /* \"#utility.yul\":25491:25554   */\n      tag_500\n      jumpi\n        /* \"#utility.yul\":25550:25551   */\n      0x00\n        /* \"#utility.yul\":25547:25548   */\n      dup1\n        /* \"#utility.yul\":25540:25552   */\n      revert\n        /* \"#utility.yul\":25491:25554   */\n    tag_500:\n        /* \"#utility.yul\":25438:25560   */\n      pop\n      jump\t// out\n        /* \"#utility.yul\":25566:25688   */\n    tag_235:\n        /* \"#utility.yul\":25639:25663   */\n      tag_502\n        /* \"#utility.yul\":25657:25662   */\n      dup2\n        /* \"#utility.yul\":25639:25663   */\n      tag_460\n      jump\t// in\n    tag_502:\n        /* \"#utility.yul\":25632:25637   */\n      dup2\n        /* \"#utility.yul\":25629:25664   */\n      eq\n        /* \"#utility.yul\":25619:25682   */\n      tag_503\n      jumpi\n        /* \"#utility.yul\":25678:25679   */\n      0x00\n        /* \"#utility.yul\":25675:25676   */\n      dup1\n        /* \"#utility.yul\":25668:25680   */\n      revert\n        /* \"#utility.yul\":25619:25682   */\n    tag_503:\n        /* \"#utility.yul\":25566:25688   */\n      pop\n      jump\t// out\n        /* \"#utility.yul\":25694:25812   */\n    tag_239:\n        /* \"#utility.yul\":25765:25787   */\n      tag_505\n        /* \"#utility.yul\":25781:25786   */\n      dup2\n        /* \"#utility.yul\":25765:25787   */\n      tag_395\n      jump\t// in\n    tag_505:\n        /* \"#utility.yul\":25758:25763   */\n      dup2\n        /* \"#utility.yul\":25755:25788   */\n      eq\n        /* \"#utility.yul\":25745:25806   */\n      tag_506\n      jumpi\n        /* \"#utility.yul\":25802:25803   */\n      0x00\n        /* \"#utility.yul\":25799:25800   */\n      dup1\n        /* \"#utility.yul\":25792:25804   */\n      revert\n        /* \"#utility.yul\":25745:25806   */\n    tag_506:\n        /* \"#utility.yul\":25694:25812   */\n      pop\n      jump\t// out\n\n    auxdata: 0xa26469706673582212209cabd25b5942039ab5c7f6772b52d5697d25f68cc2ff1a070bdf96a523b4a51664736f6c63430008070033\n}\n",
				"bytecode": {
					"linkReferences": {},
					"object": "608060405234801561001057600080fd5b50611de1806100206000396000f3fe608060405234801561001057600080fd5b506004361061010b5760003560e01c806385831079116100a2578063bd99525611610071578063bd995256146102dc578063d8d136611461030c578063db2336161461032a578063e8cbf77c14610346578063fbb63f43146103765761010b565b8063858310791461022f578063a39ee7e314610260578063b9de03c11461027c578063bd5ec3e2146102ac5761010b565b80635e916790116100de5780635e916790146101a85780636df0a108146101c657806372b801c4146101f75780637d809a10146102135761010b565b8063228578e6146101105780632a56023e1461014057806345928a6c1461015c57806349a8fb961461018c575b600080fd5b61012a600480360381019061012591906112b5565b610392565b6040516101379190611760565b60405180910390f35b61015a60048036038101906101559190611322565b610429565b005b610176600480360381019061017191906112b5565b610519565b6040516101839190611701565b60405180910390f35b6101a660048036038101906101a191906111ff565b61054c565b005b6101b06105a6565b6040516101bd919061173e565b60405180910390f35b6101e060048036038101906101db9190611288565b61065b565b6040516101ee92919061179d565b60405180910390f35b610211600480360381019061020c9190611322565b610724565b005b61022d600480360381019061022891906112e2565b610814565b005b61024960048036038101906102449190611288565b610a79565b6040516102579291906118a8565b60405180910390f35b61027a600480360381019061027591906111ff565b610ac3565b005b610296600480360381019061029191906112b5565b610b1d565b6040516102a39190611760565b60405180910390f35b6102c660048036038101906102c19190611288565b610bb4565b6040516102d39190611782565b60405180910390f35b6102f660048036038101906102f191906112b5565b610beb565b6040516103039190611760565b60405180910390f35b610314610c82565b604051610321919061171c565b60405180910390f35b610344600480360381019061033f9190611322565b610db0565b005b610360600480360381019061035b9190611288565b610ea0565b60405161036d9190611782565b60405180910390f35b610390600480360381019061038b919061122c565b610ed7565b005b6060600860008360ff1660ff16815260200190815260200160002080548060200260200160405190810160405280929190818152602001828054801561041d57602002820191906000526020600020906000905b82829054906101000a900460ff1660ff16815260200190600101906020826000010492830192600103820291508084116103e65790505b50505050509050919050565b61043282610f7d565b610471576040517f08c379a00000000000000000000000000000000000000000000000000000000081526004016104689061184d565b60405180910390fd5b61047a81610fc4565b6104b9576040517f08c379a00000000000000000000000000000000000000000000000000000000081526004016104b09061180d565b60405180910390fd5b600460008360ff1660ff1681526020019081526020016000208190806001815401808255809150506001900390600052602060002090602091828204019190069091909190916101000a81548160ff021916908360ff1602179055505050565b60016020528060005260406000206000915054906101000a900473ffffffffffffffffffffffffffffffffffffffff1681565b60078190806001815401808255809150506001900390600052602060002090600291828204019190066010029091909190916101000a8154816fffffffffffffffffffffffffffffffff021916908360801c021790555050565b60606000805480602002602001604051908101604052809291908181526020016000905b82821015610652578382906000526020600020016040518060400160405290816000820160009054906101000a900460ff1660ff1660ff1681526020016000820160019054906101000a900460801b6fffffffffffffffffffffffffffffffff19166fffffffffffffffffffffffffffffffff191681525050815260200190600101906105ca565b50505050905090565b6003818154811061066b57600080fd5b90600052602060002090600202016000915090508060000160009054906101000a900460801b908060010180546106a190611ab6565b80601f01602080910402602001604051908101604052809291908181526020018280546106cd90611ab6565b801561071a5780601f106106ef5761010080835404028352916020019161071a565b820191906000526020600020905b8154815290600101906020018083116106fd57829003601f168201915b5050505050905082565b61072d82610f7d565b61076c576040517f08c379a00000000000000000000000000000000000000000000000000000000081526004016107639061184d565b60405180910390fd5b6107758161100f565b6107b4576040517f08c379a00000000000000000000000000000000000000000000000000000000081526004016107ab9061186d565b60405180910390fd5b600860008360ff1660ff1681526020019081526020016000208190806001815401808255809150506001900390600052602060002090602091828204019190069091909190916101000a81548160ff021916908360ff1602179055505050565b60008260ff16101561085b576040517f08c379a00000000000000000000000000000000000000000000000000000000081526004016108529061182d565b60405180910390fd5b6002601060ff16116108a2576040517f08c379a0000000000000000000000000000000000000000000000000000000008152600401610899906117ed565b60405180910390fd5b600060405180604001604052808460ff168152602001836fffffffffffffffffffffffffffffffff19168152509080600181540180825580915050600190039060005260206000200160009091909190915060008201518160000160006101000a81548160ff021916908360ff16021790555060208201518160000160016101000a8154816fffffffffffffffffffffffffffffffff021916908360801c0217905550505033600160008460ff1660ff16815260200190815260200160002060006101000a81548173ffffffffffffffffffffffffffffffffffffffff021916908373ffffffffffffffffffffffffffffffffffffffff160217905550600260003373ffffffffffffffffffffffffffffffffffffffff1673ffffffffffffffffffffffffffffffffffffffff168152602001908152602001600020600081819054906101000a900460ff16809291906109fb90611b19565b91906101000a81548160ff021916908360ff160217905550507f44f95b0b736d151f7ae290ba182bd361afba80b07a2ac501daf85ed0e518eb4460405180604001604052808460ff168152602001836fffffffffffffffffffffffffffffffff1916815250604051610a6d919061188d565b60405180910390a15050565b60008181548110610a8957600080fd5b906000526020600020016000915090508060000160009054906101000a900460ff16908060000160019054906101000a900460801b905082565b60058190806001815401808255809150506001900390600052602060002090600291828204019190066010029091909190916101000a8154816fffffffffffffffffffffffffffffffff021916908360801c021790555050565b6060600460008360ff1660ff168152602001908152602001600020805480602002602001604051908101604052809291908181526020018280548015610ba857602002820191906000526020600020906000905b82829054906101000a900460ff1660ff1681526020019060010190602082600001049283019260010382029150808411610b715790505b50505050509050919050565b60058181548110610bc457600080fd5b9060005260206000209060029182820401919006601002915054906101000a900460801b81565b6060600660008360ff1660ff168152602001908152602001600020805480602002602001604051908101604052809291908181526020018280548015610c7657602002820191906000526020600020906000905b82829054906101000a900460ff1660ff1681526020019060010190602082600001049283019260010382029150808411610c3f5790505b50505050509050919050565b60606003805480602002602001604051908101604052809291908181526020016000905b82821015610da757838290600052602060002090600202016040518060400160405290816000820160009054906101000a900460801b6fffffffffffffffffffffffffffffffff19166fffffffffffffffffffffffffffffffff19168152602001600182018054610d1690611ab6565b80601f0160208091040260200160405190810160405280929190818152602001828054610d4290611ab6565b8015610d8f5780601f10610d6457610100808354040283529160200191610d8f565b820191906000526020600020905b815481529060010190602001808311610d7257829003601f168201915b50505050508152505081526020019060010190610ca6565b50505050905090565b610db982610f7d565b610df8576040517f08c379a0000000000000000000000000000000000000000000000000000000008152600401610def9061184d565b60405180910390fd5b610e018161105e565b610e40576040517f08c379a0000000000000000000000000000000000000000000000000000000008152600401610e37906117cd565b60405180910390fd5b600660008360ff1660ff1681526020019081526020016000208190806001815401808255809150506001900390600052602060002090602091828204019190069091909190916101000a81548160ff021916908360ff1602179055505050565b60078181548110610eb057600080fd5b9060005260206000209060029182820401919006601002915054906101000a900460801b81565b60036040518060400160405280846fffffffffffffffffffffffffffffffff1916815260200183815250908060018154018082558091505060019003906000526020600020906002020160009091909190915060008201518160000160006101000a8154816fffffffffffffffffffffffffffffffff021916908360801c02179055506020820151816001019080519060200190610f769291906110ad565b5050505050565b60008060008360ff1681548110610f9757610f96611ba1565b5b9060005260206000200160000160019054906101000a900460801b90506001601060ff1611915050919050565b60008060038360ff1681548110610fde57610fdd611ba1565b5b906000526020600020906002020160000160009054906101000a900460801b90506001601060ff1611915050919050565b60008060078360ff168154811061102957611028611ba1565b5b90600052602060002090600291828204019190066010029054906101000a900460801b90506001601060ff1611915050919050565b60008060058360ff168154811061107857611077611ba1565b5b90600052602060002090600291828204019190066010029054906101000a900460801b90506001601060ff1611915050919050565b8280546110b990611ab6565b90600052602060002090601f0160209004810192826110db5760008555611122565b82601f106110f457805160ff1916838001178555611122565b82800160010185558215611122579182015b82811115611121578251825591602001919060010190611106565b5b50905061112f9190611133565b5090565b5b8082111561114c576000816000905550600101611134565b5090565b600061116361115e846118f6565b6118d1565b90508281526020810184848401111561117f5761117e611c04565b5b61118a848285611a74565b509392505050565b6000813590506111a181611d66565b92915050565b600082601f8301126111bc576111bb611bff565b5b81356111cc848260208601611150565b91505092915050565b6000813590506111e481611d7d565b92915050565b6000813590506111f981611d94565b92915050565b60006020828403121561121557611214611c0e565b5b600061122384828501611192565b91505092915050565b6000806040838503121561124357611242611c0e565b5b600061125185828601611192565b925050602083013567ffffffffffffffff81111561127257611271611c09565b5b61127e858286016111a7565b9150509250929050565b60006020828403121561129e5761129d611c0e565b5b60006112ac848285016111d5565b91505092915050565b6000602082840312156112cb576112ca611c0e565b5b60006112d9848285016111ea565b91505092915050565b600080604083850312156112f9576112f8611c0e565b5b6000611307858286016111ea565b925050602061131885828601611192565b9150509250929050565b6000806040838503121561133957611338611c0e565b5b6000611347858286016111ea565b9250506020611358858286016111ea565b9150509250929050565b600061136e8383611648565b905092915050565b60006113828383611685565b60408301905092915050565b600061139a83836116e3565b60208301905092915050565b6113af816119ff565b82525050565b60006113c082611957565b6113ca81856119aa565b9350836020820285016113dc85611927565b8060005b8581101561141857848403895281516113f98582611362565b945061140483611983565b925060208a019950506001810190506113e0565b50829750879550505050505092915050565b600061143582611962565b61143f81856119bb565b935061144a83611937565b8060005b8381101561147b5781516114628882611376565b975061146d83611990565b92505060018101905061144e565b5085935050505092915050565b60006114938261196d565b61149d81856119cc565b93506114a883611947565b8060005b838110156114d95781516114c0888261138e565b97506114cb8361199d565b9250506001810190506114ac565b5085935050505092915050565b6114ef81611a11565b82525050565b6114fe81611a11565b82525050565b600061150f82611978565b61151981856119dd565b9350611529818560208601611a83565b61153281611c13565b840191505092915050565b600061154882611978565b61155281856119ee565b9350611562818560208601611a83565b61156b81611c13565b840191505092915050565b60006115836017836119ee565b915061158e82611c24565b602082019050919050565b60006115a6602f836119ee565b91506115b182611c4d565b604082019050919050565b60006115c9601a836119ee565b91506115d482611c9c565b602082019050919050565b60006115ec602c836119ee565b91506115f782611cc5565b604082019050919050565b600061160f601a836119ee565b915061161a82611d14565b602082019050919050565b6000611632601b836119ee565b915061163d82611d3d565b602082019050919050565b600060408301600083015161166060008601826114e6565b50602083015184820360208601526116788282611504565b9150508091505092915050565b60408201600082015161169b60008501826116e3565b5060208201516116ae60208501826114e6565b50505050565b6040820160008201516116ca60008501826116e3565b5060208201516116dd60208501826114e6565b50505050565b6116ec81611a67565b82525050565b6116fb81611a67565b82525050565b600060208201905061171660008301846113a6565b92915050565b6000602082019050818103600083015261173681846113b5565b905092915050565b60006020820190508181036000830152611758818461142a565b905092915050565b6000602082019050818103600083015261177a8184611488565b905092915050565b600060208201905061179760008301846114f5565b92915050565b60006040820190506117b260008301856114f5565b81810360208301526117c4818461153d565b90509392505050565b600060208201905081810360008301526117e681611576565b9050919050565b6000602082019050818103600083015261180681611599565b9050919050565b60006020820190508181036000830152611826816115bc565b9050919050565b60006020820190508181036000830152611846816115df565b9050919050565b6000602082019050818103600083015261186681611602565b9050919050565b6000602082019050818103600083015261188681611625565b9050919050565b60006040820190506118a260008301846116b4565b92915050565b60006040820190506118bd60008301856116f2565b6118ca60208301846114f5565b9392505050565b60006118db6118ec565b90506118e78282611ae8565b919050565b6000604051905090565b600067ffffffffffffffff82111561191157611910611bd0565b5b61191a82611c13565b9050602081019050919050565b6000819050602082019050919050565b6000819050602082019050919050565b6000819050602082019050919050565b600081519050919050565b600081519050919050565b600081519050919050565b600081519050919050565b6000602082019050919050565b6000602082019050919050565b6000602082019050919050565b600082825260208201905092915050565b600082825260208201905092915050565b600082825260208201905092915050565b600082825260208201905092915050565b600082825260208201905092915050565b6000611a0a82611a3d565b9050919050565b60007fffffffffffffffffffffffffffffffff0000000000000000000000000000000082169050919050565b600073ffffffffffffffffffffffffffffffffffffffff82169050919050565b6000819050919050565b600060ff82169050919050565b82818337600083830152505050565b60005b83811015611aa1578082015181840152602081019050611a86565b83811115611ab0576000848401525b50505050565b60006002820490506001821680611ace57607f821691505b60208210811415611ae257611ae1611b72565b5b50919050565b611af182611c13565b810181811067ffffffffffffffff82111715611b1057611b0f611bd0565b5b80604052505050565b6000611b2482611a67565b915060ff821415611b3857611b37611b43565b5b600182019050919050565b7f4e487b7100000000000000000000000000000000000000000000000000000000600052601160045260246000fd5b7f4e487b7100000000000000000000000000000000000000000000000000000000600052602260045260246000fd5b7f4e487b7100000000000000000000000000000000000000000000000000000000600052603260045260246000fd5b7f4e487b7100000000000000000000000000000000000000000000000000000000600052604160045260246000fd5b600080fd5b600080fd5b600080fd5b600080fd5b6000601f19601f8301169050919050565b7f546865207479706520646f6573206e6f74206578697374000000000000000000600082015250565b7f546865206e616d652073697a65206d757374206265206772656174657220746860008201527f616e203220636861726163746572730000000000000000000000000000000000602082015250565b7f546865206162696c69747920646f6573206e6f74206578697374000000000000600082015250565b7f5468652049442076616c7565206d7573742062652067726561746572206f722060008201527f657175616c207468616e20300000000000000000000000000000000000000000602082015250565b7f54686520706f6b656d6f6e20646f6573206e6f74206578697374000000000000600082015250565b7f546865207765616b6e65737320646f6573206e6f742065786973740000000000600082015250565b611d6f81611a11565b8114611d7a57600080fd5b50565b611d8681611a5d565b8114611d9157600080fd5b50565b611d9d81611a67565b8114611da857600080fd5b5056fea26469706673582212209cabd25b5942039ab5c7f6772b52d5697d25f68cc2ff1a070bdf96a523b4a51664736f6c63430008070033",
					"opcodes": "PUSH1 0x80 PUSH1 0x40 MSTORE CALLVALUE DUP1 ISZERO PUSH2 0x10 JUMPI PUSH1 0x0 DUP1 REVERT JUMPDEST POP PUSH2 0x1DE1 DUP1 PUSH2 0x20 PUSH1 0x0 CODECOPY PUSH1 0x0 RETURN INVALID PUSH1 0x80 PUSH1 0x40 MSTORE CALLVALUE DUP1 ISZERO PUSH2 0x10 JUMPI PUSH1 0x0 DUP1 REVERT JUMPDEST POP PUSH1 0x4 CALLDATASIZE LT PUSH2 0x10B JUMPI PUSH1 0x0 CALLDATALOAD PUSH1 0xE0 SHR DUP1 PUSH4 0x85831079 GT PUSH2 0xA2 JUMPI DUP1 PUSH4 0xBD995256 GT PUSH2 0x71 JUMPI DUP1 PUSH4 0xBD995256 EQ PUSH2 0x2DC JUMPI DUP1 PUSH4 0xD8D13661 EQ PUSH2 0x30C JUMPI DUP1 PUSH4 0xDB233616 EQ PUSH2 0x32A JUMPI DUP1 PUSH4 0xE8CBF77C EQ PUSH2 0x346 JUMPI DUP1 PUSH4 0xFBB63F43 EQ PUSH2 0x376 JUMPI PUSH2 0x10B JUMP JUMPDEST DUP1 PUSH4 0x85831079 EQ PUSH2 0x22F JUMPI DUP1 PUSH4 0xA39EE7E3 EQ PUSH2 0x260 JUMPI DUP1 PUSH4 0xB9DE03C1 EQ PUSH2 0x27C JUMPI DUP1 PUSH4 0xBD5EC3E2 EQ PUSH2 0x2AC JUMPI PUSH2 0x10B JUMP JUMPDEST DUP1 PUSH4 0x5E916790 GT PUSH2 0xDE JUMPI DUP1 PUSH4 0x5E916790 EQ PUSH2 0x1A8 JUMPI DUP1 PUSH4 0x6DF0A108 EQ PUSH2 0x1C6 JUMPI DUP1 PUSH4 0x72B801C4 EQ PUSH2 0x1F7 JUMPI DUP1 PUSH4 0x7D809A10 EQ PUSH2 0x213 JUMPI PUSH2 0x10B JUMP JUMPDEST DUP1 PUSH4 0x228578E6 EQ PUSH2 0x110 JUMPI DUP1 PUSH4 0x2A56023E EQ PUSH2 0x140 JUMPI DUP1 PUSH4 0x45928A6C EQ PUSH2 0x15C JUMPI DUP1 PUSH4 0x49A8FB96 EQ PUSH2 0x18C JUMPI JUMPDEST PUSH1 0x0 DUP1 REVERT JUMPDEST PUSH2 0x12A PUSH1 0x4 DUP1 CALLDATASIZE SUB DUP2 ADD SWAP1 PUSH2 0x125 SWAP2 SWAP1 PUSH2 0x12B5 JUMP JUMPDEST PUSH2 0x392 JUMP JUMPDEST PUSH1 0x40 MLOAD PUSH2 0x137 SWAP2 SWAP1 PUSH2 0x1760 JUMP JUMPDEST PUSH1 0x40 MLOAD DUP1 SWAP2 SUB SWAP1 RETURN JUMPDEST PUSH2 0x15A PUSH1 0x4 DUP1 CALLDATASIZE SUB DUP2 ADD SWAP1 PUSH2 0x155 SWAP2 SWAP1 PUSH2 0x1322 JUMP JUMPDEST PUSH2 0x429 JUMP JUMPDEST STOP JUMPDEST PUSH2 0x176 PUSH1 0x4 DUP1 CALLDATASIZE SUB DUP2 ADD SWAP1 PUSH2 0x171 SWAP2 SWAP1 PUSH2 0x12B5 JUMP JUMPDEST PUSH2 0x519 JUMP JUMPDEST PUSH1 0x40 MLOAD PUSH2 0x183 SWAP2 SWAP1 PUSH2 0x1701 JUMP JUMPDEST PUSH1 0x40 MLOAD DUP1 SWAP2 SUB SWAP1 RETURN JUMPDEST PUSH2 0x1A6 PUSH1 0x4 DUP1 CALLDATASIZE SUB DUP2 ADD SWAP1 PUSH2 0x1A1 SWAP2 SWAP1 PUSH2 0x11FF JUMP JUMPDEST PUSH2 0x54C JUMP JUMPDEST STOP JUMPDEST PUSH2 0x1B0 PUSH2 0x5A6 JUMP JUMPDEST PUSH1 0x40 MLOAD PUSH2 0x1BD SWAP2 SWAP1 PUSH2 0x173E JUMP JUMPDEST PUSH1 0x40 MLOAD DUP1 SWAP2 SUB SWAP1 RETURN JUMPDEST PUSH2 0x1E0 PUSH1 0x4 DUP1 CALLDATASIZE SUB DUP2 ADD SWAP1 PUSH2 0x1DB SWAP2 SWAP1 PUSH2 0x1288 JUMP JUMPDEST PUSH2 0x65B JUMP JUMPDEST PUSH1 0x40 MLOAD PUSH2 0x1EE SWAP3 SWAP2 SWAP1 PUSH2 0x179D JUMP JUMPDEST PUSH1 0x40 MLOAD DUP1 SWAP2 SUB SWAP1 RETURN JUMPDEST PUSH2 0x211 PUSH1 0x4 DUP1 CALLDATASIZE SUB DUP2 ADD SWAP1 PUSH2 0x20C SWAP2 SWAP1 PUSH2 0x1322 JUMP JUMPDEST PUSH2 0x724 JUMP JUMPDEST STOP JUMPDEST PUSH2 0x22D PUSH1 0x4 DUP1 CALLDATASIZE SUB DUP2 ADD SWAP1 PUSH2 0x228 SWAP2 SWAP1 PUSH2 0x12E2 JUMP JUMPDEST PUSH2 0x814 JUMP JUMPDEST STOP JUMPDEST PUSH2 0x249 PUSH1 0x4 DUP1 CALLDATASIZE SUB DUP2 ADD SWAP1 PUSH2 0x244 SWAP2 SWAP1 PUSH2 0x1288 JUMP JUMPDEST PUSH2 0xA79 JUMP JUMPDEST PUSH1 0x40 MLOAD PUSH2 0x257 SWAP3 SWAP2 SWAP1 PUSH2 0x18A8 JUMP JUMPDEST PUSH1 0x40 MLOAD DUP1 SWAP2 SUB SWAP1 RETURN JUMPDEST PUSH2 0x27A PUSH1 0x4 DUP1 CALLDATASIZE SUB DUP2 ADD SWAP1 PUSH2 0x275 SWAP2 SWAP1 PUSH2 0x11FF JUMP JUMPDEST PUSH2 0xAC3 JUMP JUMPDEST STOP JUMPDEST PUSH2 0x296 PUSH1 0x4 DUP1 CALLDATASIZE SUB DUP2 ADD SWAP1 PUSH2 0x291 SWAP2 SWAP1 PUSH2 0x12B5 JUMP JUMPDEST PUSH2 0xB1D JUMP JUMPDEST PUSH1 0x40 MLOAD PUSH2 0x2A3 SWAP2 SWAP1 PUSH2 0x1760 JUMP JUMPDEST PUSH1 0x40 MLOAD DUP1 SWAP2 SUB SWAP1 RETURN JUMPDEST PUSH2 0x2C6 PUSH1 0x4 DUP1 CALLDATASIZE SUB DUP2 ADD SWAP1 PUSH2 0x2C1 SWAP2 SWAP1 PUSH2 0x1288 JUMP JUMPDEST PUSH2 0xBB4 JUMP JUMPDEST PUSH1 0x40 MLOAD PUSH2 0x2D3 SWAP2 SWAP1 PUSH2 0x1782 JUMP JUMPDEST PUSH1 0x40 MLOAD DUP1 SWAP2 SUB SWAP1 RETURN JUMPDEST PUSH2 0x2F6 PUSH1 0x4 DUP1 CALLDATASIZE SUB DUP2 ADD SWAP1 PUSH2 0x2F1 SWAP2 SWAP1 PUSH2 0x12B5 JUMP JUMPDEST PUSH2 0xBEB JUMP JUMPDEST PUSH1 0x40 MLOAD PUSH2 0x303 SWAP2 SWAP1 PUSH2 0x1760 JUMP JUMPDEST PUSH1 0x40 MLOAD DUP1 SWAP2 SUB SWAP1 RETURN JUMPDEST PUSH2 0x314 PUSH2 0xC82 JUMP JUMPDEST PUSH1 0x40 MLOAD PUSH2 0x321 SWAP2 SWAP1 PUSH2 0x171C JUMP JUMPDEST PUSH1 0x40 MLOAD DUP1 SWAP2 SUB SWAP1 RETURN JUMPDEST PUSH2 0x344 PUSH1 0x4 DUP1 CALLDATASIZE SUB DUP2 ADD SWAP1 PUSH2 0x33F SWAP2 SWAP1 PUSH2 0x1322 JUMP JUMPDEST PUSH2 0xDB0 JUMP JUMPDEST STOP JUMPDEST PUSH2 0x360 PUSH1 0x4 DUP1 CALLDATASIZE SUB DUP2 ADD SWAP1 PUSH2 0x35B SWAP2 SWAP1 PUSH2 0x1288 JUMP JUMPDEST PUSH2 0xEA0 JUMP JUMPDEST PUSH1 0x40 MLOAD PUSH2 0x36D SWAP2 SWAP1 PUSH2 0x1782 JUMP JUMPDEST PUSH1 0x40 MLOAD DUP1 SWAP2 SUB SWAP1 RETURN JUMPDEST PUSH2 0x390 PUSH1 0x4 DUP1 CALLDATASIZE SUB DUP2 ADD SWAP1 PUSH2 0x38B SWAP2 SWAP1 PUSH2 0x122C JUMP JUMPDEST PUSH2 0xED7 JUMP JUMPDEST STOP JUMPDEST PUSH1 0x60 PUSH1 0x8 PUSH1 0x0 DUP4 PUSH1 0xFF AND PUSH1 0xFF AND DUP2 MSTORE PUSH1 0x20 ADD SWAP1 DUP2 MSTORE PUSH1 0x20 ADD PUSH1 0x0 KECCAK256 DUP1 SLOAD DUP1 PUSH1 0x20 MUL PUSH1 0x20 ADD PUSH1 0x40 MLOAD SWAP1 DUP2 ADD PUSH1 0x40 MSTORE DUP1 SWAP3 SWAP2 SWAP1 DUP2 DUP2 MSTORE PUSH1 0x20 ADD DUP3 DUP1 SLOAD DUP1 ISZERO PUSH2 0x41D JUMPI PUSH1 0x20 MUL DUP3 ADD SWAP2 SWAP1 PUSH1 0x0 MSTORE PUSH1 0x20 PUSH1 0x0 KECCAK256 SWAP1 PUSH1 0x0 SWAP1 JUMPDEST DUP3 DUP3 SWAP1 SLOAD SWAP1 PUSH2 0x100 EXP SWAP1 DIV PUSH1 0xFF AND PUSH1 0xFF AND DUP2 MSTORE PUSH1 0x20 ADD SWAP1 PUSH1 0x1 ADD SWAP1 PUSH1 0x20 DUP3 PUSH1 0x0 ADD DIV SWAP3 DUP4 ADD SWAP3 PUSH1 0x1 SUB DUP3 MUL SWAP2 POP DUP1 DUP5 GT PUSH2 0x3E6 JUMPI SWAP1 POP JUMPDEST POP POP POP POP POP SWAP1 POP SWAP2 SWAP1 POP JUMP JUMPDEST PUSH2 0x432 DUP3 PUSH2 0xF7D JUMP JUMPDEST PUSH2 0x471 JUMPI PUSH1 0x40 MLOAD PUSH32 0x8C379A000000000000000000000000000000000000000000000000000000000 DUP2 MSTORE PUSH1 0x4 ADD PUSH2 0x468 SWAP1 PUSH2 0x184D JUMP JUMPDEST PUSH1 0x40 MLOAD DUP1 SWAP2 SUB SWAP1 REVERT JUMPDEST PUSH2 0x47A DUP2 PUSH2 0xFC4 JUMP JUMPDEST PUSH2 0x4B9 JUMPI PUSH1 0x40 MLOAD PUSH32 0x8C379A000000000000000000000000000000000000000000000000000000000 DUP2 MSTORE PUSH1 0x4 ADD PUSH2 0x4B0 SWAP1 PUSH2 0x180D JUMP JUMPDEST PUSH1 0x40 MLOAD DUP1 SWAP2 SUB SWAP1 REVERT JUMPDEST PUSH1 0x4 PUSH1 0x0 DUP4 PUSH1 0xFF AND PUSH1 0xFF AND DUP2 MSTORE PUSH1 0x20 ADD SWAP1 DUP2 MSTORE PUSH1 0x20 ADD PUSH1 0x0 KECCAK256 DUP2 SWAP1 DUP1 PUSH1 0x1 DUP2 SLOAD ADD DUP1 DUP3 SSTORE DUP1 SWAP2 POP POP PUSH1 0x1 SWAP1 SUB SWAP1 PUSH1 0x0 MSTORE PUSH1 0x20 PUSH1 0x0 KECCAK256 SWAP1 PUSH1 0x20 SWAP2 DUP3 DUP3 DIV ADD SWAP2 SWAP1 MOD SWAP1 SWAP2 SWAP1 SWAP2 SWAP1 SWAP2 PUSH2 0x100 EXP DUP2 SLOAD DUP2 PUSH1 0xFF MUL NOT AND SWAP1 DUP4 PUSH1 0xFF AND MUL OR SWAP1 SSTORE POP POP POP JUMP JUMPDEST PUSH1 0x1 PUSH1 0x20 MSTORE DUP1 PUSH1 0x0 MSTORE PUSH1 0x40 PUSH1 0x0 KECCAK256 PUSH1 0x0 SWAP2 POP SLOAD SWAP1 PUSH2 0x100 EXP SWAP1 DIV PUSH20 0xFFFFFFFFFFFFFFFFFFFFFFFFFFFFFFFFFFFFFFFF AND DUP2 JUMP JUMPDEST PUSH1 0x7 DUP2 SWAP1 DUP1 PUSH1 0x1 DUP2 SLOAD ADD DUP1 DUP3 SSTORE DUP1 SWAP2 POP POP PUSH1 0x1 SWAP1 SUB SWAP1 PUSH1 0x0 MSTORE PUSH1 0x20 PUSH1 0x0 KECCAK256 SWAP1 PUSH1 0x2 SWAP2 DUP3 DUP3 DIV ADD SWAP2 SWAP1 MOD PUSH1 0x10 MUL SWAP1 SWAP2 SWAP1 SWAP2 SWAP1 SWAP2 PUSH2 0x100 EXP DUP2 SLOAD DUP2 PUSH16 0xFFFFFFFFFFFFFFFFFFFFFFFFFFFFFFFF MUL NOT AND SWAP1 DUP4 PUSH1 0x80 SHR MUL OR SWAP1 SSTORE POP POP JUMP JUMPDEST PUSH1 0x60 PUSH1 0x0 DUP1 SLOAD DUP1 PUSH1 0x20 MUL PUSH1 0x20 ADD PUSH1 0x40 MLOAD SWAP1 DUP2 ADD PUSH1 0x40 MSTORE DUP1 SWAP3 SWAP2 SWAP1 DUP2 DUP2 MSTORE PUSH1 0x20 ADD PUSH1 0x0 SWAP1 JUMPDEST DUP3 DUP3 LT ISZERO PUSH2 0x652 JUMPI DUP4 DUP3 SWAP1 PUSH1 0x0 MSTORE PUSH1 0x20 PUSH1 0x0 KECCAK256 ADD PUSH1 0x40 MLOAD DUP1 PUSH1 0x40 ADD PUSH1 0x40 MSTORE SWAP1 DUP2 PUSH1 0x0 DUP3 ADD PUSH1 0x0 SWAP1 SLOAD SWAP1 PUSH2 0x100 EXP SWAP1 DIV PUSH1 0xFF AND PUSH1 0xFF AND PUSH1 0xFF AND DUP2 MSTORE PUSH1 0x20 ADD PUSH1 0x0 DUP3 ADD PUSH1 0x1 SWAP1 SLOAD SWAP1 PUSH2 0x100 EXP SWAP1 DIV PUSH1 0x80 SHL PUSH16 0xFFFFFFFFFFFFFFFFFFFFFFFFFFFFFFFF NOT AND PUSH16 0xFFFFFFFFFFFFFFFFFFFFFFFFFFFFFFFF NOT AND DUP2 MSTORE POP POP DUP2 MSTORE PUSH1 0x20 ADD SWAP1 PUSH1 0x1 ADD SWAP1 PUSH2 0x5CA JUMP JUMPDEST POP POP POP POP SWAP1 POP SWAP1 JUMP JUMPDEST PUSH1 0x3 DUP2 DUP2 SLOAD DUP2 LT PUSH2 0x66B JUMPI PUSH1 0x0 DUP1 REVERT JUMPDEST SWAP1 PUSH1 0x0 MSTORE PUSH1 0x20 PUSH1 0x0 KECCAK256 SWAP1 PUSH1 0x2 MUL ADD PUSH1 0x0 SWAP2 POP SWAP1 POP DUP1 PUSH1 0x0 ADD PUSH1 0x0 SWAP1 SLOAD SWAP1 PUSH2 0x100 EXP SWAP1 DIV PUSH1 0x80 SHL SWAP1 DUP1 PUSH1 0x1 ADD DUP1 SLOAD PUSH2 0x6A1 SWAP1 PUSH2 0x1AB6 JUMP JUMPDEST DUP1 PUSH1 0x1F ADD PUSH1 0x20 DUP1 SWAP2 DIV MUL PUSH1 0x20 ADD PUSH1 0x40 MLOAD SWAP1 DUP2 ADD PUSH1 0x40 MSTORE DUP1 SWAP3 SWAP2 SWAP1 DUP2 DUP2 MSTORE PUSH1 0x20 ADD DUP3 DUP1 SLOAD PUSH2 0x6CD SWAP1 PUSH2 0x1AB6 JUMP JUMPDEST DUP1 ISZERO PUSH2 0x71A JUMPI DUP1 PUSH1 0x1F LT PUSH2 0x6EF JUMPI PUSH2 0x100 DUP1 DUP4 SLOAD DIV MUL DUP4 MSTORE SWAP2 PUSH1 0x20 ADD SWAP2 PUSH2 0x71A JUMP JUMPDEST DUP3 ADD SWAP2 SWAP1 PUSH1 0x0 MSTORE PUSH1 0x20 PUSH1 0x0 KECCAK256 SWAP1 JUMPDEST DUP2 SLOAD DUP2 MSTORE SWAP1 PUSH1 0x1 ADD SWAP1 PUSH1 0x20 ADD DUP1 DUP4 GT PUSH2 0x6FD JUMPI DUP3 SWAP1 SUB PUSH1 0x1F AND DUP3 ADD SWAP2 JUMPDEST POP POP POP POP POP SWAP1 POP DUP3 JUMP JUMPDEST PUSH2 0x72D DUP3 PUSH2 0xF7D JUMP JUMPDEST PUSH2 0x76C JUMPI PUSH1 0x40 MLOAD PUSH32 0x8C379A000000000000000000000000000000000000000000000000000000000 DUP2 MSTORE PUSH1 0x4 ADD PUSH2 0x763 SWAP1 PUSH2 0x184D JUMP JUMPDEST PUSH1 0x40 MLOAD DUP1 SWAP2 SUB SWAP1 REVERT JUMPDEST PUSH2 0x775 DUP2 PUSH2 0x100F JUMP JUMPDEST PUSH2 0x7B4 JUMPI PUSH1 0x40 MLOAD PUSH32 0x8C379A000000000000000000000000000000000000000000000000000000000 DUP2 MSTORE PUSH1 0x4 ADD PUSH2 0x7AB SWAP1 PUSH2 0x186D JUMP JUMPDEST PUSH1 0x40 MLOAD DUP1 SWAP2 SUB SWAP1 REVERT JUMPDEST PUSH1 0x8 PUSH1 0x0 DUP4 PUSH1 0xFF AND PUSH1 0xFF AND DUP2 MSTORE PUSH1 0x20 ADD SWAP1 DUP2 MSTORE PUSH1 0x20 ADD PUSH1 0x0 KECCAK256 DUP2 SWAP1 DUP1 PUSH1 0x1 DUP2 SLOAD ADD DUP1 DUP3 SSTORE DUP1 SWAP2 POP POP PUSH1 0x1 SWAP1 SUB SWAP1 PUSH1 0x0 MSTORE PUSH1 0x20 PUSH1 0x0 KECCAK256 SWAP1 PUSH1 0x20 SWAP2 DUP3 DUP3 DIV ADD SWAP2 SWAP1 MOD SWAP1 SWAP2 SWAP1 SWAP2 SWAP1 SWAP2 PUSH2 0x100 EXP DUP2 SLOAD DUP2 PUSH1 0xFF MUL NOT AND SWAP1 DUP4 PUSH1 0xFF AND MUL OR SWAP1 SSTORE POP POP POP JUMP JUMPDEST PUSH1 0x0 DUP3 PUSH1 0xFF AND LT ISZERO PUSH2 0x85B JUMPI PUSH1 0x40 MLOAD PUSH32 0x8C379A000000000000000000000000000000000000000000000000000000000 DUP2 MSTORE PUSH1 0x4 ADD PUSH2 0x852 SWAP1 PUSH2 0x182D JUMP JUMPDEST PUSH1 0x40 MLOAD DUP1 SWAP2 SUB SWAP1 REVERT JUMPDEST PUSH1 0x2 PUSH1 0x10 PUSH1 0xFF AND GT PUSH2 0x8A2 JUMPI PUSH1 0x40 MLOAD PUSH32 0x8C379A000000000000000000000000000000000000000000000000000000000 DUP2 MSTORE PUSH1 0x4 ADD PUSH2 0x899 SWAP1 PUSH2 0x17ED JUMP JUMPDEST PUSH1 0x40 MLOAD DUP1 SWAP2 SUB SWAP1 REVERT JUMPDEST PUSH1 0x0 PUSH1 0x40 MLOAD DUP1 PUSH1 0x40 ADD PUSH1 0x40 MSTORE DUP1 DUP5 PUSH1 0xFF AND DUP2 MSTORE PUSH1 0x20 ADD DUP4 PUSH16 0xFFFFFFFFFFFFFFFFFFFFFFFFFFFFFFFF NOT AND DUP2 MSTORE POP SWAP1 DUP1 PUSH1 0x1 DUP2 SLOAD ADD DUP1 DUP3 SSTORE DUP1 SWAP2 POP POP PUSH1 0x1 SWAP1 SUB SWAP1 PUSH1 0x0 MSTORE PUSH1 0x20 PUSH1 0x0 KECCAK256 ADD PUSH1 0x0 SWAP1 SWAP2 SWAP1 SWAP2 SWAP1 SWAP2 POP PUSH1 0x0 DUP3 ADD MLOAD DUP2 PUSH1 0x0 ADD PUSH1 0x0 PUSH2 0x100 EXP DUP2 SLOAD DUP2 PUSH1 0xFF MUL NOT AND SWAP1 DUP4 PUSH1 0xFF AND MUL OR SWAP1 SSTORE POP PUSH1 0x20 DUP3 ADD MLOAD DUP2 PUSH1 0x0 ADD PUSH1 0x1 PUSH2 0x100 EXP DUP2 SLOAD DUP2 PUSH16 0xFFFFFFFFFFFFFFFFFFFFFFFFFFFFFFFF MUL NOT AND SWAP1 DUP4 PUSH1 0x80 SHR MUL OR SWAP1 SSTORE POP POP POP CALLER PUSH1 0x1 PUSH1 0x0 DUP5 PUSH1 0xFF AND PUSH1 0xFF AND DUP2 MSTORE PUSH1 0x20 ADD SWAP1 DUP2 MSTORE PUSH1 0x20 ADD PUSH1 0x0 KECCAK256 PUSH1 0x0 PUSH2 0x100 EXP DUP2 SLOAD DUP2 PUSH20 0xFFFFFFFFFFFFFFFFFFFFFFFFFFFFFFFFFFFFFFFF MUL NOT AND SWAP1 DUP4 PUSH20 0xFFFFFFFFFFFFFFFFFFFFFFFFFFFFFFFFFFFFFFFF AND MUL OR SWAP1 SSTORE POP PUSH1 0x2 PUSH1 0x0 CALLER PUSH20 0xFFFFFFFFFFFFFFFFFFFFFFFFFFFFFFFFFFFFFFFF AND PUSH20 0xFFFFFFFFFFFFFFFFFFFFFFFFFFFFFFFFFFFFFFFF AND DUP2 MSTORE PUSH1 0x20 ADD SWAP1 DUP2 MSTORE PUSH1 0x20 ADD PUSH1 0x0 KECCAK256 PUSH1 0x0 DUP2 DUP2 SWAP1 SLOAD SWAP1 PUSH2 0x100 EXP SWAP1 DIV PUSH1 0xFF AND DUP1 SWAP3 SWAP2 SWAP1 PUSH2 0x9FB SWAP1 PUSH2 0x1B19 JUMP JUMPDEST SWAP2 SWAP1 PUSH2 0x100 EXP DUP2 SLOAD DUP2 PUSH1 0xFF MUL NOT AND SWAP1 DUP4 PUSH1 0xFF AND MUL OR SWAP1 SSTORE POP POP PUSH32 0x44F95B0B736D151F7AE290BA182BD361AFBA80B07A2AC501DAF85ED0E518EB44 PUSH1 0x40 MLOAD DUP1 PUSH1 0x40 ADD PUSH1 0x40 MSTORE DUP1 DUP5 PUSH1 0xFF AND DUP2 MSTORE PUSH1 0x20 ADD DUP4 PUSH16 0xFFFFFFFFFFFFFFFFFFFFFFFFFFFFFFFF NOT AND DUP2 MSTORE POP PUSH1 0x40 MLOAD PUSH2 0xA6D SWAP2 SWAP1 PUSH2 0x188D JUMP JUMPDEST PUSH1 0x40 MLOAD DUP1 SWAP2 SUB SWAP1 LOG1 POP POP JUMP JUMPDEST PUSH1 0x0 DUP2 DUP2 SLOAD DUP2 LT PUSH2 0xA89 JUMPI PUSH1 0x0 DUP1 REVERT JUMPDEST SWAP1 PUSH1 0x0 MSTORE PUSH1 0x20 PUSH1 0x0 KECCAK256 ADD PUSH1 0x0 SWAP2 POP SWAP1 POP DUP1 PUSH1 0x0 ADD PUSH1 0x0 SWAP1 SLOAD SWAP1 PUSH2 0x100 EXP SWAP1 DIV PUSH1 0xFF AND SWAP1 DUP1 PUSH1 0x0 ADD PUSH1 0x1 SWAP1 SLOAD SWAP1 PUSH2 0x100 EXP SWAP1 DIV PUSH1 0x80 SHL SWAP1 POP DUP3 JUMP JUMPDEST PUSH1 0x5 DUP2 SWAP1 DUP1 PUSH1 0x1 DUP2 SLOAD ADD DUP1 DUP3 SSTORE DUP1 SWAP2 POP POP PUSH1 0x1 SWAP1 SUB SWAP1 PUSH1 0x0 MSTORE PUSH1 0x20 PUSH1 0x0 KECCAK256 SWAP1 PUSH1 0x2 SWAP2 DUP3 DUP3 DIV ADD SWAP2 SWAP1 MOD PUSH1 0x10 MUL SWAP1 SWAP2 SWAP1 SWAP2 SWAP1 SWAP2 PUSH2 0x100 EXP DUP2 SLOAD DUP2 PUSH16 0xFFFFFFFFFFFFFFFFFFFFFFFFFFFFFFFF MUL NOT AND SWAP1 DUP4 PUSH1 0x80 SHR MUL OR SWAP1 SSTORE POP POP JUMP JUMPDEST PUSH1 0x60 PUSH1 0x4 PUSH1 0x0 DUP4 PUSH1 0xFF AND PUSH1 0xFF AND DUP2 MSTORE PUSH1 0x20 ADD SWAP1 DUP2 MSTORE PUSH1 0x20 ADD PUSH1 0x0 KECCAK256 DUP1 SLOAD DUP1 PUSH1 0x20 MUL PUSH1 0x20 ADD PUSH1 0x40 MLOAD SWAP1 DUP2 ADD PUSH1 0x40 MSTORE DUP1 SWAP3 SWAP2 SWAP1 DUP2 DUP2 MSTORE PUSH1 0x20 ADD DUP3 DUP1 SLOAD DUP1 ISZERO PUSH2 0xBA8 JUMPI PUSH1 0x20 MUL DUP3 ADD SWAP2 SWAP1 PUSH1 0x0 MSTORE PUSH1 0x20 PUSH1 0x0 KECCAK256 SWAP1 PUSH1 0x0 SWAP1 JUMPDEST DUP3 DUP3 SWAP1 SLOAD SWAP1 PUSH2 0x100 EXP SWAP1 DIV PUSH1 0xFF AND PUSH1 0xFF AND DUP2 MSTORE PUSH1 0x20 ADD SWAP1 PUSH1 0x1 ADD SWAP1 PUSH1 0x20 DUP3 PUSH1 0x0 ADD DIV SWAP3 DUP4 ADD SWAP3 PUSH1 0x1 SUB DUP3 MUL SWAP2 POP DUP1 DUP5 GT PUSH2 0xB71 JUMPI SWAP1 POP JUMPDEST POP POP POP POP POP SWAP1 POP SWAP2 SWAP1 POP JUMP JUMPDEST PUSH1 0x5 DUP2 DUP2 SLOAD DUP2 LT PUSH2 0xBC4 JUMPI PUSH1 0x0 DUP1 REVERT JUMPDEST SWAP1 PUSH1 0x0 MSTORE PUSH1 0x20 PUSH1 0x0 KECCAK256 SWAP1 PUSH1 0x2 SWAP2 DUP3 DUP3 DIV ADD SWAP2 SWAP1 MOD PUSH1 0x10 MUL SWAP2 POP SLOAD SWAP1 PUSH2 0x100 EXP SWAP1 DIV PUSH1 0x80 SHL DUP2 JUMP JUMPDEST PUSH1 0x60 PUSH1 0x6 PUSH1 0x0 DUP4 PUSH1 0xFF AND PUSH1 0xFF AND DUP2 MSTORE PUSH1 0x20 ADD SWAP1 DUP2 MSTORE PUSH1 0x20 ADD PUSH1 0x0 KECCAK256 DUP1 SLOAD DUP1 PUSH1 0x20 MUL PUSH1 0x20 ADD PUSH1 0x40 MLOAD SWAP1 DUP2 ADD PUSH1 0x40 MSTORE DUP1 SWAP3 SWAP2 SWAP1 DUP2 DUP2 MSTORE PUSH1 0x20 ADD DUP3 DUP1 SLOAD DUP1 ISZERO PUSH2 0xC76 JUMPI PUSH1 0x20 MUL DUP3 ADD SWAP2 SWAP1 PUSH1 0x0 MSTORE PUSH1 0x20 PUSH1 0x0 KECCAK256 SWAP1 PUSH1 0x0 SWAP1 JUMPDEST DUP3 DUP3 SWAP1 SLOAD SWAP1 PUSH2 0x100 EXP SWAP1 DIV PUSH1 0xFF AND PUSH1 0xFF AND DUP2 MSTORE PUSH1 0x20 ADD SWAP1 PUSH1 0x1 ADD SWAP1 PUSH1 0x20 DUP3 PUSH1 0x0 ADD DIV SWAP3 DUP4 ADD SWAP3 PUSH1 0x1 SUB DUP3 MUL SWAP2 POP DUP1 DUP5 GT PUSH2 0xC3F JUMPI SWAP1 POP JUMPDEST POP POP POP POP POP SWAP1 POP SWAP2 SWAP1 POP JUMP JUMPDEST PUSH1 0x60 PUSH1 0x3 DUP1 SLOAD DUP1 PUSH1 0x20 MUL PUSH1 0x20 ADD PUSH1 0x40 MLOAD SWAP1 DUP2 ADD PUSH1 0x40 MSTORE DUP1 SWAP3 SWAP2 SWAP1 DUP2 DUP2 MSTORE PUSH1 0x20 ADD PUSH1 0x0 SWAP1 JUMPDEST DUP3 DUP3 LT ISZERO PUSH2 0xDA7 JUMPI DUP4 DUP3 SWAP1 PUSH1 0x0 MSTORE PUSH1 0x20 PUSH1 0x0 KECCAK256 SWAP1 PUSH1 0x2 MUL ADD PUSH1 0x40 MLOAD DUP1 PUSH1 0x40 ADD PUSH1 0x40 MSTORE SWAP1 DUP2 PUSH1 0x0 DUP3 ADD PUSH1 0x0 SWAP1 SLOAD SWAP1 PUSH2 0x100 EXP SWAP1 DIV PUSH1 0x80 SHL PUSH16 0xFFFFFFFFFFFFFFFFFFFFFFFFFFFFFFFF NOT AND PUSH16 0xFFFFFFFFFFFFFFFFFFFFFFFFFFFFFFFF NOT AND DUP2 MSTORE PUSH1 0x20 ADD PUSH1 0x1 DUP3 ADD DUP1 SLOAD PUSH2 0xD16 SWAP1 PUSH2 0x1AB6 JUMP JUMPDEST DUP1 PUSH1 0x1F ADD PUSH1 0x20 DUP1 SWAP2 DIV MUL PUSH1 0x20 ADD PUSH1 0x40 MLOAD SWAP1 DUP2 ADD PUSH1 0x40 MSTORE DUP1 SWAP3 SWAP2 SWAP1 DUP2 DUP2 MSTORE PUSH1 0x20 ADD DUP3 DUP1 SLOAD PUSH2 0xD42 SWAP1 PUSH2 0x1AB6 JUMP JUMPDEST DUP1 ISZERO PUSH2 0xD8F JUMPI DUP1 PUSH1 0x1F LT PUSH2 0xD64 JUMPI PUSH2 0x100 DUP1 DUP4 SLOAD DIV MUL DUP4 MSTORE SWAP2 PUSH1 0x20 ADD SWAP2 PUSH2 0xD8F JUMP JUMPDEST DUP3 ADD SWAP2 SWAP1 PUSH1 0x0 MSTORE PUSH1 0x20 PUSH1 0x0 KECCAK256 SWAP1 JUMPDEST DUP2 SLOAD DUP2 MSTORE SWAP1 PUSH1 0x1 ADD SWAP1 PUSH1 0x20 ADD DUP1 DUP4 GT PUSH2 0xD72 JUMPI DUP3 SWAP1 SUB PUSH1 0x1F AND DUP3 ADD SWAP2 JUMPDEST POP POP POP POP POP DUP2 MSTORE POP POP DUP2 MSTORE PUSH1 0x20 ADD SWAP1 PUSH1 0x1 ADD SWAP1 PUSH2 0xCA6 JUMP JUMPDEST POP POP POP POP SWAP1 POP SWAP1 JUMP JUMPDEST PUSH2 0xDB9 DUP3 PUSH2 0xF7D JUMP JUMPDEST PUSH2 0xDF8 JUMPI PUSH1 0x40 MLOAD PUSH32 0x8C379A000000000000000000000000000000000000000000000000000000000 DUP2 MSTORE PUSH1 0x4 ADD PUSH2 0xDEF SWAP1 PUSH2 0x184D JUMP JUMPDEST PUSH1 0x40 MLOAD DUP1 SWAP2 SUB SWAP1 REVERT JUMPDEST PUSH2 0xE01 DUP2 PUSH2 0x105E JUMP JUMPDEST PUSH2 0xE40 JUMPI PUSH1 0x40 MLOAD PUSH32 0x8C379A000000000000000000000000000000000000000000000000000000000 DUP2 MSTORE PUSH1 0x4 ADD PUSH2 0xE37 SWAP1 PUSH2 0x17CD JUMP JUMPDEST PUSH1 0x40 MLOAD DUP1 SWAP2 SUB SWAP1 REVERT JUMPDEST PUSH1 0x6 PUSH1 0x0 DUP4 PUSH1 0xFF AND PUSH1 0xFF AND DUP2 MSTORE PUSH1 0x20 ADD SWAP1 DUP2 MSTORE PUSH1 0x20 ADD PUSH1 0x0 KECCAK256 DUP2 SWAP1 DUP1 PUSH1 0x1 DUP2 SLOAD ADD DUP1 DUP3 SSTORE DUP1 SWAP2 POP POP PUSH1 0x1 SWAP1 SUB SWAP1 PUSH1 0x0 MSTORE PUSH1 0x20 PUSH1 0x0 KECCAK256 SWAP1 PUSH1 0x20 SWAP2 DUP3 DUP3 DIV ADD SWAP2 SWAP1 MOD SWAP1 SWAP2 SWAP1 SWAP2 SWAP1 SWAP2 PUSH2 0x100 EXP DUP2 SLOAD DUP2 PUSH1 0xFF MUL NOT AND SWAP1 DUP4 PUSH1 0xFF AND MUL OR SWAP1 SSTORE POP POP POP JUMP JUMPDEST PUSH1 0x7 DUP2 DUP2 SLOAD DUP2 LT PUSH2 0xEB0 JUMPI PUSH1 0x0 DUP1 REVERT JUMPDEST SWAP1 PUSH1 0x0 MSTORE PUSH1 0x20 PUSH1 0x0 KECCAK256 SWAP1 PUSH1 0x2 SWAP2 DUP3 DUP3 DIV ADD SWAP2 SWAP1 MOD PUSH1 0x10 MUL SWAP2 POP SLOAD SWAP1 PUSH2 0x100 EXP SWAP1 DIV PUSH1 0x80 SHL DUP2 JUMP JUMPDEST PUSH1 0x3 PUSH1 0x40 MLOAD DUP1 PUSH1 0x40 ADD PUSH1 0x40 MSTORE DUP1 DUP5 PUSH16 0xFFFFFFFFFFFFFFFFFFFFFFFFFFFFFFFF NOT AND DUP2 MSTORE PUSH1 0x20 ADD DUP4 DUP2 MSTORE POP SWAP1 DUP1 PUSH1 0x1 DUP2 SLOAD ADD DUP1 DUP3 SSTORE DUP1 SWAP2 POP POP PUSH1 0x1 SWAP1 SUB SWAP1 PUSH1 0x0 MSTORE PUSH1 0x20 PUSH1 0x0 KECCAK256 SWAP1 PUSH1 0x2 MUL ADD PUSH1 0x0 SWAP1 SWAP2 SWAP1 SWAP2 SWAP1 SWAP2 POP PUSH1 0x0 DUP3 ADD MLOAD DUP2 PUSH1 0x0 ADD PUSH1 0x0 PUSH2 0x100 EXP DUP2 SLOAD DUP2 PUSH16 0xFFFFFFFFFFFFFFFFFFFFFFFFFFFFFFFF MUL NOT AND SWAP1 DUP4 PUSH1 0x80 SHR MUL OR SWAP1 SSTORE POP PUSH1 0x20 DUP3 ADD MLOAD DUP2 PUSH1 0x1 ADD SWAP1 DUP1 MLOAD SWAP1 PUSH1 0x20 ADD SWAP1 PUSH2 0xF76 SWAP3 SWAP2 SWAP1 PUSH2 0x10AD JUMP JUMPDEST POP POP POP POP POP JUMP JUMPDEST PUSH1 0x0 DUP1 PUSH1 0x0 DUP4 PUSH1 0xFF AND DUP2 SLOAD DUP2 LT PUSH2 0xF97 JUMPI PUSH2 0xF96 PUSH2 0x1BA1 JUMP JUMPDEST JUMPDEST SWAP1 PUSH1 0x0 MSTORE PUSH1 0x20 PUSH1 0x0 KECCAK256 ADD PUSH1 0x0 ADD PUSH1 0x1 SWAP1 SLOAD SWAP1 PUSH2 0x100 EXP SWAP1 DIV PUSH1 0x80 SHL SWAP1 POP PUSH1 0x1 PUSH1 0x10 PUSH1 0xFF AND GT SWAP2 POP POP SWAP2 SWAP1 POP JUMP JUMPDEST PUSH1 0x0 DUP1 PUSH1 0x3 DUP4 PUSH1 0xFF AND DUP2 SLOAD DUP2 LT PUSH2 0xFDE JUMPI PUSH2 0xFDD PUSH2 0x1BA1 JUMP JUMPDEST JUMPDEST SWAP1 PUSH1 0x0 MSTORE PUSH1 0x20 PUSH1 0x0 KECCAK256 SWAP1 PUSH1 0x2 MUL ADD PUSH1 0x0 ADD PUSH1 0x0 SWAP1 SLOAD SWAP1 PUSH2 0x100 EXP SWAP1 DIV PUSH1 0x80 SHL SWAP1 POP PUSH1 0x1 PUSH1 0x10 PUSH1 0xFF AND GT SWAP2 POP POP SWAP2 SWAP1 POP JUMP JUMPDEST PUSH1 0x0 DUP1 PUSH1 0x7 DUP4 PUSH1 0xFF AND DUP2 SLOAD DUP2 LT PUSH2 0x1029 JUMPI PUSH2 0x1028 PUSH2 0x1BA1 JUMP JUMPDEST JUMPDEST SWAP1 PUSH1 0x0 MSTORE PUSH1 0x20 PUSH1 0x0 KECCAK256 SWAP1 PUSH1 0x2 SWAP2 DUP3 DUP3 DIV ADD SWAP2 SWAP1 MOD PUSH1 0x10 MUL SWAP1 SLOAD SWAP1 PUSH2 0x100 EXP SWAP1 DIV PUSH1 0x80 SHL SWAP1 POP PUSH1 0x1 PUSH1 0x10 PUSH1 0xFF AND GT SWAP2 POP POP SWAP2 SWAP1 POP JUMP JUMPDEST PUSH1 0x0 DUP1 PUSH1 0x5 DUP4 PUSH1 0xFF AND DUP2 SLOAD DUP2 LT PUSH2 0x1078 JUMPI PUSH2 0x1077 PUSH2 0x1BA1 JUMP JUMPDEST JUMPDEST SWAP1 PUSH1 0x0 MSTORE PUSH1 0x20 PUSH1 0x0 KECCAK256 SWAP1 PUSH1 0x2 SWAP2 DUP3 DUP3 DIV ADD SWAP2 SWAP1 MOD PUSH1 0x10 MUL SWAP1 SLOAD SWAP1 PUSH2 0x100 EXP SWAP1 DIV PUSH1 0x80 SHL SWAP1 POP PUSH1 0x1 PUSH1 0x10 PUSH1 0xFF AND GT SWAP2 POP POP SWAP2 SWAP1 POP JUMP JUMPDEST DUP3 DUP1 SLOAD PUSH2 0x10B9 SWAP1 PUSH2 0x1AB6 JUMP JUMPDEST SWAP1 PUSH1 0x0 MSTORE PUSH1 0x20 PUSH1 0x0 KECCAK256 SWAP1 PUSH1 0x1F ADD PUSH1 0x20 SWAP1 DIV DUP2 ADD SWAP3 DUP3 PUSH2 0x10DB JUMPI PUSH1 0x0 DUP6 SSTORE PUSH2 0x1122 JUMP JUMPDEST DUP3 PUSH1 0x1F LT PUSH2 0x10F4 JUMPI DUP1 MLOAD PUSH1 0xFF NOT AND DUP4 DUP1 ADD OR DUP6 SSTORE PUSH2 0x1122 JUMP JUMPDEST DUP3 DUP1 ADD PUSH1 0x1 ADD DUP6 SSTORE DUP3 ISZERO PUSH2 0x1122 JUMPI SWAP2 DUP3 ADD JUMPDEST DUP3 DUP2 GT ISZERO PUSH2 0x1121 JUMPI DUP3 MLOAD DUP3 SSTORE SWAP2 PUSH1 0x20 ADD SWAP2 SWAP1 PUSH1 0x1 ADD SWAP1 PUSH2 0x1106 JUMP JUMPDEST JUMPDEST POP SWAP1 POP PUSH2 0x112F SWAP2 SWAP1 PUSH2 0x1133 JUMP JUMPDEST POP SWAP1 JUMP JUMPDEST JUMPDEST DUP1 DUP3 GT ISZERO PUSH2 0x114C JUMPI PUSH1 0x0 DUP2 PUSH1 0x0 SWAP1 SSTORE POP PUSH1 0x1 ADD PUSH2 0x1134 JUMP JUMPDEST POP SWAP1 JUMP JUMPDEST PUSH1 0x0 PUSH2 0x1163 PUSH2 0x115E DUP5 PUSH2 0x18F6 JUMP JUMPDEST PUSH2 0x18D1 JUMP JUMPDEST SWAP1 POP DUP3 DUP2 MSTORE PUSH1 0x20 DUP2 ADD DUP5 DUP5 DUP5 ADD GT ISZERO PUSH2 0x117F JUMPI PUSH2 0x117E PUSH2 0x1C04 JUMP JUMPDEST JUMPDEST PUSH2 0x118A DUP5 DUP3 DUP6 PUSH2 0x1A74 JUMP JUMPDEST POP SWAP4 SWAP3 POP POP POP JUMP JUMPDEST PUSH1 0x0 DUP2 CALLDATALOAD SWAP1 POP PUSH2 0x11A1 DUP2 PUSH2 0x1D66 JUMP JUMPDEST SWAP3 SWAP2 POP POP JUMP JUMPDEST PUSH1 0x0 DUP3 PUSH1 0x1F DUP4 ADD SLT PUSH2 0x11BC JUMPI PUSH2 0x11BB PUSH2 0x1BFF JUMP JUMPDEST JUMPDEST DUP2 CALLDATALOAD PUSH2 0x11CC DUP5 DUP3 PUSH1 0x20 DUP7 ADD PUSH2 0x1150 JUMP JUMPDEST SWAP2 POP POP SWAP3 SWAP2 POP POP JUMP JUMPDEST PUSH1 0x0 DUP2 CALLDATALOAD SWAP1 POP PUSH2 0x11E4 DUP2 PUSH2 0x1D7D JUMP JUMPDEST SWAP3 SWAP2 POP POP JUMP JUMPDEST PUSH1 0x0 DUP2 CALLDATALOAD SWAP1 POP PUSH2 0x11F9 DUP2 PUSH2 0x1D94 JUMP JUMPDEST SWAP3 SWAP2 POP POP JUMP JUMPDEST PUSH1 0x0 PUSH1 0x20 DUP3 DUP5 SUB SLT ISZERO PUSH2 0x1215 JUMPI PUSH2 0x1214 PUSH2 0x1C0E JUMP JUMPDEST JUMPDEST PUSH1 0x0 PUSH2 0x1223 DUP5 DUP3 DUP6 ADD PUSH2 0x1192 JUMP JUMPDEST SWAP2 POP POP SWAP3 SWAP2 POP POP JUMP JUMPDEST PUSH1 0x0 DUP1 PUSH1 0x40 DUP4 DUP6 SUB SLT ISZERO PUSH2 0x1243 JUMPI PUSH2 0x1242 PUSH2 0x1C0E JUMP JUMPDEST JUMPDEST PUSH1 0x0 PUSH2 0x1251 DUP6 DUP3 DUP7 ADD PUSH2 0x1192 JUMP JUMPDEST SWAP3 POP POP PUSH1 0x20 DUP4 ADD CALLDATALOAD PUSH8 0xFFFFFFFFFFFFFFFF DUP2 GT ISZERO PUSH2 0x1272 JUMPI PUSH2 0x1271 PUSH2 0x1C09 JUMP JUMPDEST JUMPDEST PUSH2 0x127E DUP6 DUP3 DUP7 ADD PUSH2 0x11A7 JUMP JUMPDEST SWAP2 POP POP SWAP3 POP SWAP3 SWAP1 POP JUMP JUMPDEST PUSH1 0x0 PUSH1 0x20 DUP3 DUP5 SUB SLT ISZERO PUSH2 0x129E JUMPI PUSH2 0x129D PUSH2 0x1C0E JUMP JUMPDEST JUMPDEST PUSH1 0x0 PUSH2 0x12AC DUP5 DUP3 DUP6 ADD PUSH2 0x11D5 JUMP JUMPDEST SWAP2 POP POP SWAP3 SWAP2 POP POP JUMP JUMPDEST PUSH1 0x0 PUSH1 0x20 DUP3 DUP5 SUB SLT ISZERO PUSH2 0x12CB JUMPI PUSH2 0x12CA PUSH2 0x1C0E JUMP JUMPDEST JUMPDEST PUSH1 0x0 PUSH2 0x12D9 DUP5 DUP3 DUP6 ADD PUSH2 0x11EA JUMP JUMPDEST SWAP2 POP POP SWAP3 SWAP2 POP POP JUMP JUMPDEST PUSH1 0x0 DUP1 PUSH1 0x40 DUP4 DUP6 SUB SLT ISZERO PUSH2 0x12F9 JUMPI PUSH2 0x12F8 PUSH2 0x1C0E JUMP JUMPDEST JUMPDEST PUSH1 0x0 PUSH2 0x1307 DUP6 DUP3 DUP7 ADD PUSH2 0x11EA JUMP JUMPDEST SWAP3 POP POP PUSH1 0x20 PUSH2 0x1318 DUP6 DUP3 DUP7 ADD PUSH2 0x1192 JUMP JUMPDEST SWAP2 POP POP SWAP3 POP SWAP3 SWAP1 POP JUMP JUMPDEST PUSH1 0x0 DUP1 PUSH1 0x40 DUP4 DUP6 SUB SLT ISZERO PUSH2 0x1339 JUMPI PUSH2 0x1338 PUSH2 0x1C0E JUMP JUMPDEST JUMPDEST PUSH1 0x0 PUSH2 0x1347 DUP6 DUP3 DUP7 ADD PUSH2 0x11EA JUMP JUMPDEST SWAP3 POP POP PUSH1 0x20 PUSH2 0x1358 DUP6 DUP3 DUP7 ADD PUSH2 0x11EA JUMP JUMPDEST SWAP2 POP POP SWAP3 POP SWAP3 SWAP1 POP JUMP JUMPDEST PUSH1 0x0 PUSH2 0x136E DUP4 DUP4 PUSH2 0x1648 JUMP JUMPDEST SWAP1 POP SWAP3 SWAP2 POP POP JUMP JUMPDEST PUSH1 0x0 PUSH2 0x1382 DUP4 DUP4 PUSH2 0x1685 JUMP JUMPDEST PUSH1 0x40 DUP4 ADD SWAP1 POP SWAP3 SWAP2 POP POP JUMP JUMPDEST PUSH1 0x0 PUSH2 0x139A DUP4 DUP4 PUSH2 0x16E3 JUMP JUMPDEST PUSH1 0x20 DUP4 ADD SWAP1 POP SWAP3 SWAP2 POP POP JUMP JUMPDEST PUSH2 0x13AF DUP2 PUSH2 0x19FF JUMP JUMPDEST DUP3 MSTORE POP POP JUMP JUMPDEST PUSH1 0x0 PUSH2 0x13C0 DUP3 PUSH2 0x1957 JUMP JUMPDEST PUSH2 0x13CA DUP2 DUP6 PUSH2 0x19AA JUMP JUMPDEST SWAP4 POP DUP4 PUSH1 0x20 DUP3 MUL DUP6 ADD PUSH2 0x13DC DUP6 PUSH2 0x1927 JUMP JUMPDEST DUP1 PUSH1 0x0 JUMPDEST DUP6 DUP2 LT ISZERO PUSH2 0x1418 JUMPI DUP5 DUP5 SUB DUP10 MSTORE DUP2 MLOAD PUSH2 0x13F9 DUP6 DUP3 PUSH2 0x1362 JUMP JUMPDEST SWAP5 POP PUSH2 0x1404 DUP4 PUSH2 0x1983 JUMP JUMPDEST SWAP3 POP PUSH1 0x20 DUP11 ADD SWAP10 POP POP PUSH1 0x1 DUP2 ADD SWAP1 POP PUSH2 0x13E0 JUMP JUMPDEST POP DUP3 SWAP8 POP DUP8 SWAP6 POP POP POP POP POP POP SWAP3 SWAP2 POP POP JUMP JUMPDEST PUSH1 0x0 PUSH2 0x1435 DUP3 PUSH2 0x1962 JUMP JUMPDEST PUSH2 0x143F DUP2 DUP6 PUSH2 0x19BB JUMP JUMPDEST SWAP4 POP PUSH2 0x144A DUP4 PUSH2 0x1937 JUMP JUMPDEST DUP1 PUSH1 0x0 JUMPDEST DUP4 DUP2 LT ISZERO PUSH2 0x147B JUMPI DUP2 MLOAD PUSH2 0x1462 DUP9 DUP3 PUSH2 0x1376 JUMP JUMPDEST SWAP8 POP PUSH2 0x146D DUP4 PUSH2 0x1990 JUMP JUMPDEST SWAP3 POP POP PUSH1 0x1 DUP2 ADD SWAP1 POP PUSH2 0x144E JUMP JUMPDEST POP DUP6 SWAP4 POP POP POP POP SWAP3 SWAP2 POP POP JUMP JUMPDEST PUSH1 0x0 PUSH2 0x1493 DUP3 PUSH2 0x196D JUMP JUMPDEST PUSH2 0x149D DUP2 DUP6 PUSH2 0x19CC JUMP JUMPDEST SWAP4 POP PUSH2 0x14A8 DUP4 PUSH2 0x1947 JUMP JUMPDEST DUP1 PUSH1 0x0 JUMPDEST DUP4 DUP2 LT ISZERO PUSH2 0x14D9 JUMPI DUP2 MLOAD PUSH2 0x14C0 DUP9 DUP3 PUSH2 0x138E JUMP JUMPDEST SWAP8 POP PUSH2 0x14CB DUP4 PUSH2 0x199D JUMP JUMPDEST SWAP3 POP POP PUSH1 0x1 DUP2 ADD SWAP1 POP PUSH2 0x14AC JUMP JUMPDEST POP DUP6 SWAP4 POP POP POP POP SWAP3 SWAP2 POP POP JUMP JUMPDEST PUSH2 0x14EF DUP2 PUSH2 0x1A11 JUMP JUMPDEST DUP3 MSTORE POP POP JUMP JUMPDEST PUSH2 0x14FE DUP2 PUSH2 0x1A11 JUMP JUMPDEST DUP3 MSTORE POP POP JUMP JUMPDEST PUSH1 0x0 PUSH2 0x150F DUP3 PUSH2 0x1978 JUMP JUMPDEST PUSH2 0x1519 DUP2 DUP6 PUSH2 0x19DD JUMP JUMPDEST SWAP4 POP PUSH2 0x1529 DUP2 DUP6 PUSH1 0x20 DUP7 ADD PUSH2 0x1A83 JUMP JUMPDEST PUSH2 0x1532 DUP2 PUSH2 0x1C13 JUMP JUMPDEST DUP5 ADD SWAP2 POP POP SWAP3 SWAP2 POP POP JUMP JUMPDEST PUSH1 0x0 PUSH2 0x1548 DUP3 PUSH2 0x1978 JUMP JUMPDEST PUSH2 0x1552 DUP2 DUP6 PUSH2 0x19EE JUMP JUMPDEST SWAP4 POP PUSH2 0x1562 DUP2 DUP6 PUSH1 0x20 DUP7 ADD PUSH2 0x1A83 JUMP JUMPDEST PUSH2 0x156B DUP2 PUSH2 0x1C13 JUMP JUMPDEST DUP5 ADD SWAP2 POP POP SWAP3 SWAP2 POP POP JUMP JUMPDEST PUSH1 0x0 PUSH2 0x1583 PUSH1 0x17 DUP4 PUSH2 0x19EE JUMP JUMPDEST SWAP2 POP PUSH2 0x158E DUP3 PUSH2 0x1C24 JUMP JUMPDEST PUSH1 0x20 DUP3 ADD SWAP1 POP SWAP2 SWAP1 POP JUMP JUMPDEST PUSH1 0x0 PUSH2 0x15A6 PUSH1 0x2F DUP4 PUSH2 0x19EE JUMP JUMPDEST SWAP2 POP PUSH2 0x15B1 DUP3 PUSH2 0x1C4D JUMP JUMPDEST PUSH1 0x40 DUP3 ADD SWAP1 POP SWAP2 SWAP1 POP JUMP JUMPDEST PUSH1 0x0 PUSH2 0x15C9 PUSH1 0x1A DUP4 PUSH2 0x19EE JUMP JUMPDEST SWAP2 POP PUSH2 0x15D4 DUP3 PUSH2 0x1C9C JUMP JUMPDEST PUSH1 0x20 DUP3 ADD SWAP1 POP SWAP2 SWAP1 POP JUMP JUMPDEST PUSH1 0x0 PUSH2 0x15EC PUSH1 0x2C DUP4 PUSH2 0x19EE JUMP JUMPDEST SWAP2 POP PUSH2 0x15F7 DUP3 PUSH2 0x1CC5 JUMP JUMPDEST PUSH1 0x40 DUP3 ADD SWAP1 POP SWAP2 SWAP1 POP JUMP JUMPDEST PUSH1 0x0 PUSH2 0x160F PUSH1 0x1A DUP4 PUSH2 0x19EE JUMP JUMPDEST SWAP2 POP PUSH2 0x161A DUP3 PUSH2 0x1D14 JUMP JUMPDEST PUSH1 0x20 DUP3 ADD SWAP1 POP SWAP2 SWAP1 POP JUMP JUMPDEST PUSH1 0x0 PUSH2 0x1632 PUSH1 0x1B DUP4 PUSH2 0x19EE JUMP JUMPDEST SWAP2 POP PUSH2 0x163D DUP3 PUSH2 0x1D3D JUMP JUMPDEST PUSH1 0x20 DUP3 ADD SWAP1 POP SWAP2 SWAP1 POP JUMP JUMPDEST PUSH1 0x0 PUSH1 0x40 DUP4 ADD PUSH1 0x0 DUP4 ADD MLOAD PUSH2 0x1660 PUSH1 0x0 DUP7 ADD DUP3 PUSH2 0x14E6 JUMP JUMPDEST POP PUSH1 0x20 DUP4 ADD MLOAD DUP5 DUP3 SUB PUSH1 0x20 DUP7 ADD MSTORE PUSH2 0x1678 DUP3 DUP3 PUSH2 0x1504 JUMP JUMPDEST SWAP2 POP POP DUP1 SWAP2 POP POP SWAP3 SWAP2 POP POP JUMP JUMPDEST PUSH1 0x40 DUP3 ADD PUSH1 0x0 DUP3 ADD MLOAD PUSH2 0x169B PUSH1 0x0 DUP6 ADD DUP3 PUSH2 0x16E3 JUMP JUMPDEST POP PUSH1 0x20 DUP3 ADD MLOAD PUSH2 0x16AE PUSH1 0x20 DUP6 ADD DUP3 PUSH2 0x14E6 JUMP JUMPDEST POP POP POP POP JUMP JUMPDEST PUSH1 0x40 DUP3 ADD PUSH1 0x0 DUP3 ADD MLOAD PUSH2 0x16CA PUSH1 0x0 DUP6 ADD DUP3 PUSH2 0x16E3 JUMP JUMPDEST POP PUSH1 0x20 DUP3 ADD MLOAD PUSH2 0x16DD PUSH1 0x20 DUP6 ADD DUP3 PUSH2 0x14E6 JUMP JUMPDEST POP POP POP POP JUMP JUMPDEST PUSH2 0x16EC DUP2 PUSH2 0x1A67 JUMP JUMPDEST DUP3 MSTORE POP POP JUMP JUMPDEST PUSH2 0x16FB DUP2 PUSH2 0x1A67 JUMP JUMPDEST DUP3 MSTORE POP POP JUMP JUMPDEST PUSH1 0x0 PUSH1 0x20 DUP3 ADD SWAP1 POP PUSH2 0x1716 PUSH1 0x0 DUP4 ADD DUP5 PUSH2 0x13A6 JUMP JUMPDEST SWAP3 SWAP2 POP POP JUMP JUMPDEST PUSH1 0x0 PUSH1 0x20 DUP3 ADD SWAP1 POP DUP2 DUP2 SUB PUSH1 0x0 DUP4 ADD MSTORE PUSH2 0x1736 DUP2 DUP5 PUSH2 0x13B5 JUMP JUMPDEST SWAP1 POP SWAP3 SWAP2 POP POP JUMP JUMPDEST PUSH1 0x0 PUSH1 0x20 DUP3 ADD SWAP1 POP DUP2 DUP2 SUB PUSH1 0x0 DUP4 ADD MSTORE PUSH2 0x1758 DUP2 DUP5 PUSH2 0x142A JUMP JUMPDEST SWAP1 POP SWAP3 SWAP2 POP POP JUMP JUMPDEST PUSH1 0x0 PUSH1 0x20 DUP3 ADD SWAP1 POP DUP2 DUP2 SUB PUSH1 0x0 DUP4 ADD MSTORE PUSH2 0x177A DUP2 DUP5 PUSH2 0x1488 JUMP JUMPDEST SWAP1 POP SWAP3 SWAP2 POP POP JUMP JUMPDEST PUSH1 0x0 PUSH1 0x20 DUP3 ADD SWAP1 POP PUSH2 0x1797 PUSH1 0x0 DUP4 ADD DUP5 PUSH2 0x14F5 JUMP JUMPDEST SWAP3 SWAP2 POP POP JUMP JUMPDEST PUSH1 0x0 PUSH1 0x40 DUP3 ADD SWAP1 POP PUSH2 0x17B2 PUSH1 0x0 DUP4 ADD DUP6 PUSH2 0x14F5 JUMP JUMPDEST DUP2 DUP2 SUB PUSH1 0x20 DUP4 ADD MSTORE PUSH2 0x17C4 DUP2 DUP5 PUSH2 0x153D JUMP JUMPDEST SWAP1 POP SWAP4 SWAP3 POP POP POP JUMP JUMPDEST PUSH1 0x0 PUSH1 0x20 DUP3 ADD SWAP1 POP DUP2 DUP2 SUB PUSH1 0x0 DUP4 ADD MSTORE PUSH2 0x17E6 DUP2 PUSH2 0x1576 JUMP JUMPDEST SWAP1 POP SWAP2 SWAP1 POP JUMP JUMPDEST PUSH1 0x0 PUSH1 0x20 DUP3 ADD SWAP1 POP DUP2 DUP2 SUB PUSH1 0x0 DUP4 ADD MSTORE PUSH2 0x1806 DUP2 PUSH2 0x1599 JUMP JUMPDEST SWAP1 POP SWAP2 SWAP1 POP JUMP JUMPDEST PUSH1 0x0 PUSH1 0x20 DUP3 ADD SWAP1 POP DUP2 DUP2 SUB PUSH1 0x0 DUP4 ADD MSTORE PUSH2 0x1826 DUP2 PUSH2 0x15BC JUMP JUMPDEST SWAP1 POP SWAP2 SWAP1 POP JUMP JUMPDEST PUSH1 0x0 PUSH1 0x20 DUP3 ADD SWAP1 POP DUP2 DUP2 SUB PUSH1 0x0 DUP4 ADD MSTORE PUSH2 0x1846 DUP2 PUSH2 0x15DF JUMP JUMPDEST SWAP1 POP SWAP2 SWAP1 POP JUMP JUMPDEST PUSH1 0x0 PUSH1 0x20 DUP3 ADD SWAP1 POP DUP2 DUP2 SUB PUSH1 0x0 DUP4 ADD MSTORE PUSH2 0x1866 DUP2 PUSH2 0x1602 JUMP JUMPDEST SWAP1 POP SWAP2 SWAP1 POP JUMP JUMPDEST PUSH1 0x0 PUSH1 0x20 DUP3 ADD SWAP1 POP DUP2 DUP2 SUB PUSH1 0x0 DUP4 ADD MSTORE PUSH2 0x1886 DUP2 PUSH2 0x1625 JUMP JUMPDEST SWAP1 POP SWAP2 SWAP1 POP JUMP JUMPDEST PUSH1 0x0 PUSH1 0x40 DUP3 ADD SWAP1 POP PUSH2 0x18A2 PUSH1 0x0 DUP4 ADD DUP5 PUSH2 0x16B4 JUMP JUMPDEST SWAP3 SWAP2 POP POP JUMP JUMPDEST PUSH1 0x0 PUSH1 0x40 DUP3 ADD SWAP1 POP PUSH2 0x18BD PUSH1 0x0 DUP4 ADD DUP6 PUSH2 0x16F2 JUMP JUMPDEST PUSH2 0x18CA PUSH1 0x20 DUP4 ADD DUP5 PUSH2 0x14F5 JUMP JUMPDEST SWAP4 SWAP3 POP POP POP JUMP JUMPDEST PUSH1 0x0 PUSH2 0x18DB PUSH2 0x18EC JUMP JUMPDEST SWAP1 POP PUSH2 0x18E7 DUP3 DUP3 PUSH2 0x1AE8 JUMP JUMPDEST SWAP2 SWAP1 POP JUMP JUMPDEST PUSH1 0x0 PUSH1 0x40 MLOAD SWAP1 POP SWAP1 JUMP JUMPDEST PUSH1 0x0 PUSH8 0xFFFFFFFFFFFFFFFF DUP3 GT ISZERO PUSH2 0x1911 JUMPI PUSH2 0x1910 PUSH2 0x1BD0 JUMP JUMPDEST JUMPDEST PUSH2 0x191A DUP3 PUSH2 0x1C13 JUMP JUMPDEST SWAP1 POP PUSH1 0x20 DUP2 ADD SWAP1 POP SWAP2 SWAP1 POP JUMP JUMPDEST PUSH1 0x0 DUP2 SWAP1 POP PUSH1 0x20 DUP3 ADD SWAP1 POP SWAP2 SWAP1 POP JUMP JUMPDEST PUSH1 0x0 DUP2 SWAP1 POP PUSH1 0x20 DUP3 ADD SWAP1 POP SWAP2 SWAP1 POP JUMP JUMPDEST PUSH1 0x0 DUP2 SWAP1 POP PUSH1 0x20 DUP3 ADD SWAP1 POP SWAP2 SWAP1 POP JUMP JUMPDEST PUSH1 0x0 DUP2 MLOAD SWAP1 POP SWAP2 SWAP1 POP JUMP JUMPDEST PUSH1 0x0 DUP2 MLOAD SWAP1 POP SWAP2 SWAP1 POP JUMP JUMPDEST PUSH1 0x0 DUP2 MLOAD SWAP1 POP SWAP2 SWAP1 POP JUMP JUMPDEST PUSH1 0x0 DUP2 MLOAD SWAP1 POP SWAP2 SWAP1 POP JUMP JUMPDEST PUSH1 0x0 PUSH1 0x20 DUP3 ADD SWAP1 POP SWAP2 SWAP1 POP JUMP JUMPDEST PUSH1 0x0 PUSH1 0x20 DUP3 ADD SWAP1 POP SWAP2 SWAP1 POP JUMP JUMPDEST PUSH1 0x0 PUSH1 0x20 DUP3 ADD SWAP1 POP SWAP2 SWAP1 POP JUMP JUMPDEST PUSH1 0x0 DUP3 DUP3 MSTORE PUSH1 0x20 DUP3 ADD SWAP1 POP SWAP3 SWAP2 POP POP JUMP JUMPDEST PUSH1 0x0 DUP3 DUP3 MSTORE PUSH1 0x20 DUP3 ADD SWAP1 POP SWAP3 SWAP2 POP POP JUMP JUMPDEST PUSH1 0x0 DUP3 DUP3 MSTORE PUSH1 0x20 DUP3 ADD SWAP1 POP SWAP3 SWAP2 POP POP JUMP JUMPDEST PUSH1 0x0 DUP3 DUP3 MSTORE PUSH1 0x20 DUP3 ADD SWAP1 POP SWAP3 SWAP2 POP POP JUMP JUMPDEST PUSH1 0x0 DUP3 DUP3 MSTORE PUSH1 0x20 DUP3 ADD SWAP1 POP SWAP3 SWAP2 POP POP JUMP JUMPDEST PUSH1 0x0 PUSH2 0x1A0A DUP3 PUSH2 0x1A3D JUMP JUMPDEST SWAP1 POP SWAP2 SWAP1 POP JUMP JUMPDEST PUSH1 0x0 PUSH32 0xFFFFFFFFFFFFFFFFFFFFFFFFFFFFFFFF00000000000000000000000000000000 DUP3 AND SWAP1 POP SWAP2 SWAP1 POP JUMP JUMPDEST PUSH1 0x0 PUSH20 0xFFFFFFFFFFFFFFFFFFFFFFFFFFFFFFFFFFFFFFFF DUP3 AND SWAP1 POP SWAP2 SWAP1 POP JUMP JUMPDEST PUSH1 0x0 DUP2 SWAP1 POP SWAP2 SWAP1 POP JUMP JUMPDEST PUSH1 0x0 PUSH1 0xFF DUP3 AND SWAP1 POP SWAP2 SWAP1 POP JUMP JUMPDEST DUP3 DUP2 DUP4 CALLDATACOPY PUSH1 0x0 DUP4 DUP4 ADD MSTORE POP POP POP JUMP JUMPDEST PUSH1 0x0 JUMPDEST DUP4 DUP2 LT ISZERO PUSH2 0x1AA1 JUMPI DUP1 DUP3 ADD MLOAD DUP2 DUP5 ADD MSTORE PUSH1 0x20 DUP2 ADD SWAP1 POP PUSH2 0x1A86 JUMP JUMPDEST DUP4 DUP2 GT ISZERO PUSH2 0x1AB0 JUMPI PUSH1 0x0 DUP5 DUP5 ADD MSTORE JUMPDEST POP POP POP POP JUMP JUMPDEST PUSH1 0x0 PUSH1 0x2 DUP3 DIV SWAP1 POP PUSH1 0x1 DUP3 AND DUP1 PUSH2 0x1ACE JUMPI PUSH1 0x7F DUP3 AND SWAP2 POP JUMPDEST PUSH1 0x20 DUP3 LT DUP2 EQ ISZERO PUSH2 0x1AE2 JUMPI PUSH2 0x1AE1 PUSH2 0x1B72 JUMP JUMPDEST JUMPDEST POP SWAP2 SWAP1 POP JUMP JUMPDEST PUSH2 0x1AF1 DUP3 PUSH2 0x1C13 JUMP JUMPDEST DUP2 ADD DUP2 DUP2 LT PUSH8 0xFFFFFFFFFFFFFFFF DUP3 GT OR ISZERO PUSH2 0x1B10 JUMPI PUSH2 0x1B0F PUSH2 0x1BD0 JUMP JUMPDEST JUMPDEST DUP1 PUSH1 0x40 MSTORE POP POP POP JUMP JUMPDEST PUSH1 0x0 PUSH2 0x1B24 DUP3 PUSH2 0x1A67 JUMP JUMPDEST SWAP2 POP PUSH1 0xFF DUP3 EQ ISZERO PUSH2 0x1B38 JUMPI PUSH2 0x1B37 PUSH2 0x1B43 JUMP JUMPDEST JUMPDEST PUSH1 0x1 DUP3 ADD SWAP1 POP SWAP2 SWAP1 POP JUMP JUMPDEST PUSH32 0x4E487B7100000000000000000000000000000000000000000000000000000000 PUSH1 0x0 MSTORE PUSH1 0x11 PUSH1 0x4 MSTORE PUSH1 0x24 PUSH1 0x0 REVERT JUMPDEST PUSH32 0x4E487B7100000000000000000000000000000000000000000000000000000000 PUSH1 0x0 MSTORE PUSH1 0x22 PUSH1 0x4 MSTORE PUSH1 0x24 PUSH1 0x0 REVERT JUMPDEST PUSH32 0x4E487B7100000000000000000000000000000000000000000000000000000000 PUSH1 0x0 MSTORE PUSH1 0x32 PUSH1 0x4 MSTORE PUSH1 0x24 PUSH1 0x0 REVERT JUMPDEST PUSH32 0x4E487B7100000000000000000000000000000000000000000000000000000000 PUSH1 0x0 MSTORE PUSH1 0x41 PUSH1 0x4 MSTORE PUSH1 0x24 PUSH1 0x0 REVERT JUMPDEST PUSH1 0x0 DUP1 REVERT JUMPDEST PUSH1 0x0 DUP1 REVERT JUMPDEST PUSH1 0x0 DUP1 REVERT JUMPDEST PUSH1 0x0 DUP1 REVERT JUMPDEST PUSH1 0x0 PUSH1 0x1F NOT PUSH1 0x1F DUP4 ADD AND SWAP1 POP SWAP2 SWAP1 POP JUMP JUMPDEST PUSH32 0x546865207479706520646F6573206E6F74206578697374000000000000000000 PUSH1 0x0 DUP3 ADD MSTORE POP JUMP JUMPDEST PUSH32 0x546865206E616D652073697A65206D7573742062652067726561746572207468 PUSH1 0x0 DUP3 ADD MSTORE PUSH32 0x616E203220636861726163746572730000000000000000000000000000000000 PUSH1 0x20 DUP3 ADD MSTORE POP JUMP JUMPDEST PUSH32 0x546865206162696C69747920646F6573206E6F74206578697374000000000000 PUSH1 0x0 DUP3 ADD MSTORE POP JUMP JUMPDEST PUSH32 0x5468652049442076616C7565206D7573742062652067726561746572206F7220 PUSH1 0x0 DUP3 ADD MSTORE PUSH32 0x657175616C207468616E20300000000000000000000000000000000000000000 PUSH1 0x20 DUP3 ADD MSTORE POP JUMP JUMPDEST PUSH32 0x54686520706F6B656D6F6E20646F6573206E6F74206578697374000000000000 PUSH1 0x0 DUP3 ADD MSTORE POP JUMP JUMPDEST PUSH32 0x546865207765616B6E65737320646F6573206E6F742065786973740000000000 PUSH1 0x0 DUP3 ADD MSTORE POP JUMP JUMPDEST PUSH2 0x1D6F DUP2 PUSH2 0x1A11 JUMP JUMPDEST DUP2 EQ PUSH2 0x1D7A JUMPI PUSH1 0x0 DUP1 REVERT JUMPDEST POP JUMP JUMPDEST PUSH2 0x1D86 DUP2 PUSH2 0x1A5D JUMP JUMPDEST DUP2 EQ PUSH2 0x1D91 JUMPI PUSH1 0x0 DUP1 REVERT JUMPDEST POP JUMP JUMPDEST PUSH2 0x1D9D DUP2 PUSH2 0x1A67 JUMP JUMPDEST DUP2 EQ PUSH2 0x1DA8 JUMPI PUSH1 0x0 DUP1 REVERT JUMPDEST POP JUMP INVALID LOG2 PUSH5 0x6970667358 0x22 SLT KECCAK256 SWAP13 0xAB 0xD2 JUMPDEST MSIZE TIMESTAMP SUB SWAP11 0xB5 0xC7 0xF6 PUSH24 0x2B52D5697D25F68CC2FF1A070BDF96A523B4A51664736F6C PUSH4 0x43000807 STOP CALLER "
				},
				"gasEstimates": {
					"creation": {
						"codeDepositCost": "1529800",
						"executionCost": "1603",
						"totalCost": "1531403"
					},
					"external": {
						"AddAbility(bytes16,string)": "infinite",
						"AddType(bytes16)": "50672",
						"AddWeakness(bytes16)": "50717",
						"GiveAbilityToPokemon(uint8,uint8)": "infinite",
						"GiveTypeToPokemon(uint8,uint8)": "infinite",
						"GiveWeaknessToPokemon(uint8,uint8)": "infinite",
						"allAbilities(uint256)": "infinite",
						"allTypes(uint256)": "6638",
						"allWeaknesses(uint256)": "6637",
						"createPokemon(uint8,bytes16)": "infinite",
						"getAbilitiesOfAPokemon(uint8)": "infinite",
						"getAllAbilities()": "infinite",
						"getAllPokemons()": "infinite",
						"getTypesOfAPokemon(uint8)": "infinite",
						"getWeaknessOfAPokemon(uint8)": "infinite",
						"pokemonToOwner(uint8)": "2913",
						"pokemons(uint256)": "7265"
					},
					"internal": {
						"abilityExists(uint8)": "4395",
						"pokemonExists(uint8)": "4434",
						"typeExists(uint8)": "6014",
						"weaknessExists(uint8)": "6014"
					}
				},
				"methodIdentifiers": {
					"AddAbility(bytes16,string)": "fbb63f43",
					"AddType(bytes16)": "a39ee7e3",
					"AddWeakness(bytes16)": "49a8fb96",
					"GiveAbilityToPokemon(uint8,uint8)": "2a56023e",
					"GiveTypeToPokemon(uint8,uint8)": "db233616",
					"GiveWeaknessToPokemon(uint8,uint8)": "72b801c4",
					"allAbilities(uint256)": "6df0a108",
					"allTypes(uint256)": "bd5ec3e2",
					"allWeaknesses(uint256)": "e8cbf77c",
					"createPokemon(uint8,bytes16)": "7d809a10",
					"getAbilitiesOfAPokemon(uint8)": "b9de03c1",
					"getAllAbilities()": "d8d13661",
					"getAllPokemons()": "5e916790",
					"getTypesOfAPokemon(uint8)": "bd995256",
					"getWeaknessOfAPokemon(uint8)": "228578e6",
					"pokemonToOwner(uint8)": "45928a6c",
					"pokemons(uint256)": "85831079"
				}
			},
			"storageLayout": {
				"storage": [
					{
						"astId": 15,
						"contract": "contracts/PokemonFactory.sol:PokemonFactory",
						"label": "pokemons",
						"offset": 0,
						"slot": "0",
						"type": "t_array(t_struct(Pokemon)6_storage)dyn_storage"
					},
					{
						"astId": 19,
						"contract": "contracts/PokemonFactory.sol:PokemonFactory",
						"label": "pokemonToOwner",
						"offset": 0,
						"slot": "1",
						"type": "t_mapping(t_uint8,t_address)"
					},
					{
						"astId": 23,
						"contract": "contracts/PokemonFactory.sol:PokemonFactory",
						"label": "ownerPokemonCount",
						"offset": 0,
						"slot": "2",
						"type": "t_mapping(t_address,t_uint8)"
					},
					{
						"astId": 27,
						"contract": "contracts/PokemonFactory.sol:PokemonFactory",
						"label": "allAbilities",
						"offset": 0,
						"slot": "3",
						"type": "t_array(t_struct(Ability)11_storage)dyn_storage"
					},
					{
						"astId": 32,
						"contract": "contracts/PokemonFactory.sol:PokemonFactory",
						"label": "abilitiesOfAPokemon",
						"offset": 0,
						"slot": "4",
						"type": "t_mapping(t_uint8,t_array(t_uint8)dyn_storage)"
					},
					{
						"astId": 35,
						"contract": "contracts/PokemonFactory.sol:PokemonFactory",
						"label": "allTypes",
						"offset": 0,
						"slot": "5",
						"type": "t_array(t_bytes16)dyn_storage"
					},
					{
						"astId": 40,
						"contract": "contracts/PokemonFactory.sol:PokemonFactory",
						"label": "typesOfAPokemon",
						"offset": 0,
						"slot": "6",
						"type": "t_mapping(t_uint8,t_array(t_uint8)dyn_storage)"
					},
					{
						"astId": 43,
						"contract": "contracts/PokemonFactory.sol:PokemonFactory",
						"label": "allWeaknesses",
						"offset": 0,
						"slot": "7",
						"type": "t_array(t_bytes16)dyn_storage"
					},
					{
						"astId": 48,
						"contract": "contracts/PokemonFactory.sol:PokemonFactory",
						"label": "weaknessesOfAPokemon",
						"offset": 0,
						"slot": "8",
						"type": "t_mapping(t_uint8,t_array(t_uint8)dyn_storage)"
					}
				],
				"types": {
					"t_address": {
						"encoding": "inplace",
						"label": "address",
						"numberOfBytes": "20"
					},
					"t_array(t_bytes16)dyn_storage": {
						"base": "t_bytes16",
						"encoding": "dynamic_array",
						"label": "bytes16[]",
						"numberOfBytes": "32"
					},
					"t_array(t_struct(Ability)11_storage)dyn_storage": {
						"base": "t_struct(Ability)11_storage",
						"encoding": "dynamic_array",
						"label": "struct PokemonFactory.Ability[]",
						"numberOfBytes": "32"
					},
					"t_array(t_struct(Pokemon)6_storage)dyn_storage": {
						"base": "t_struct(Pokemon)6_storage",
						"encoding": "dynamic_array",
						"label": "struct PokemonFactory.Pokemon[]",
						"numberOfBytes": "32"
					},
					"t_array(t_uint8)dyn_storage": {
						"base": "t_uint8",
						"encoding": "dynamic_array",
						"label": "uint8[]",
						"numberOfBytes": "32"
					},
					"t_bytes16": {
						"encoding": "inplace",
						"label": "bytes16",
						"numberOfBytes": "16"
					},
					"t_mapping(t_address,t_uint8)": {
						"encoding": "mapping",
						"key": "t_address",
						"label": "mapping(address => uint8)",
						"numberOfBytes": "32",
						"value": "t_uint8"
					},
					"t_mapping(t_uint8,t_address)": {
						"encoding": "mapping",
						"key": "t_uint8",
						"label": "mapping(uint8 => address)",
						"numberOfBytes": "32",
						"value": "t_address"
					},
					"t_mapping(t_uint8,t_array(t_uint8)dyn_storage)": {
						"encoding": "mapping",
						"key": "t_uint8",
						"label": "mapping(uint8 => uint8[])",
						"numberOfBytes": "32",
						"value": "t_array(t_uint8)dyn_storage"
					},
					"t_string_storage": {
						"encoding": "bytes",
						"label": "string",
						"numberOfBytes": "32"
					},
					"t_struct(Ability)11_storage": {
						"encoding": "inplace",
						"label": "struct PokemonFactory.Ability",
						"members": [
							{
								"astId": 8,
								"contract": "contracts/PokemonFactory.sol:PokemonFactory",
								"label": "abilityName",
								"offset": 0,
								"slot": "0",
								"type": "t_bytes16"
							},
							{
								"astId": 10,
								"contract": "contracts/PokemonFactory.sol:PokemonFactory",
								"label": "abilityDescription",
								"offset": 0,
								"slot": "1",
								"type": "t_string_storage"
							}
						],
						"numberOfBytes": "64"
					},
					"t_struct(Pokemon)6_storage": {
						"encoding": "inplace",
						"label": "struct PokemonFactory.Pokemon",
						"members": [
							{
								"astId": 3,
								"contract": "contracts/PokemonFactory.sol:PokemonFactory",
								"label": "pokemonId",
								"offset": 0,
								"slot": "0",
								"type": "t_uint8"
							},
							{
								"astId": 5,
								"contract": "contracts/PokemonFactory.sol:PokemonFactory",
								"label": "pokemonName",
								"offset": 1,
								"slot": "0",
								"type": "t_bytes16"
							}
						],
						"numberOfBytes": "32"
					},
					"t_uint8": {
						"encoding": "inplace",
						"label": "uint8",
						"numberOfBytes": "1"
					}
				}
			},
			"userdoc": {
				"kind": "user",
				"methods": {},
				"version": 1
			}
		}
	}
}