{
	"contracts/Transferencia.sol": {
		"Transferencia": {
			"abi": [
				{
					"inputs": [],
					"stateMutability": "payable",
					"type": "constructor"
				},
				{
					"inputs": [
						{
							"internalType": "address",
							"name": "destino",
							"type": "address"
						},
						{
							"internalType": "uint256",
							"name": "monto",
							"type": "uint256"
						}
					],
					"name": "transferenciaPorCall",
					"outputs": [
						{
							"internalType": "bool",
							"name": "",
							"type": "bool"
						}
					],
					"stateMutability": "nonpayable",
					"type": "function"
				},
				{
					"inputs": [
						{
							"internalType": "address",
							"name": "destino",
							"type": "address"
						},
						{
							"internalType": "uint256",
							"name": "monto",
							"type": "uint256"
						}
					],
					"name": "transferenciaPorSend",
					"outputs": [
						{
							"internalType": "bool",
							"name": "",
							"type": "bool"
						}
					],
					"stateMutability": "nonpayable",
					"type": "function"
				},
				{
					"inputs": [
						{
							"internalType": "address",
							"name": "destino",
							"type": "address"
						},
						{
							"internalType": "uint256",
							"name": "monto",
							"type": "uint256"
						}
					],
					"name": "transferenciaPorTransfer",
					"outputs": [],
					"stateMutability": "nonpayable",
					"type": "function"
				}
			],
			"devdoc": {
				"kind": "dev",
				"methods": {},
				"version": 1
			},
			"evm": {
				"assembly": "    /* \"contracts/Transferencia.sol\":76:2380  contract Transferencia {\r... */\n  mstore(0x40, 0x80)\n  dataSize(sub_0)\n  dup1\n  dataOffset(sub_0)\n  0x00\n  codecopy\n  0x00\n  return\nstop\n\nsub_0: assembly {\n        /* \"contracts/Transferencia.sol\":76:2380  contract Transferencia {\r... */\n      mstore(0x40, 0x80)\n      callvalue\n      dup1\n      iszero\n      tag_1\n      jumpi\n      0x00\n      dup1\n      revert\n    tag_1:\n      pop\n      jumpi(tag_2, lt(calldatasize, 0x04))\n      shr(0xe0, calldataload(0x00))\n      dup1\n      0x8348fc0e\n      eq\n      tag_3\n      jumpi\n      dup1\n      0xa0947cd5\n      eq\n      tag_4\n      jumpi\n      dup1\n      0xc6732e11\n      eq\n      tag_5\n      jumpi\n    tag_2:\n      0x00\n      dup1\n      revert\n        /* \"contracts/Transferencia.sol\":1250:1371  function transferenciaPorTransfer(address destino, uint monto) public {\r... */\n    tag_3:\n      tag_6\n      0x04\n      dup1\n      calldatasize\n      sub\n      dup2\n      add\n      swap1\n      tag_7\n      swap2\n      swap1\n      tag_8\n      jump\t// in\n    tag_7:\n      tag_9\n      jump\t// in\n    tag_6:\n      stop\n        /* \"contracts/Transferencia.sol\":1608:1801  function transferenciaPorCall(address destino, uint monto) public returns (bool) {\r... */\n    tag_4:\n      tag_10\n      0x04\n      dup1\n      calldatasize\n      sub\n      dup2\n      add\n      swap1\n      tag_11\n      swap2\n      swap1\n      tag_8\n      jump\t// in\n    tag_11:\n      tag_12\n      jump\t// in\n    tag_10:\n      mload(0x40)\n      tag_13\n      swap2\n      swap1\n      tag_14\n      jump\t// in\n    tag_13:\n      mload(0x40)\n      dup1\n      swap2\n      sub\n      swap1\n      return\n        /* \"contracts/Transferencia.sol\":967:1133  function transferenciaPorSend(address destino, uint monto) public returns (bool) {\r... */\n    tag_5:\n      tag_15\n      0x04\n      dup1\n      calldatasize\n      sub\n      dup2\n      add\n      swap1\n      tag_16\n      swap2\n      swap1\n      tag_8\n      jump\t// in\n    tag_16:\n      tag_17\n      jump\t// in\n    tag_15:\n      mload(0x40)\n      tag_18\n      swap2\n      swap1\n      tag_14\n      jump\t// in\n    tag_18:\n      mload(0x40)\n      dup1\n      swap2\n      sub\n      swap1\n      return\n        /* \"contracts/Transferencia.sol\":1250:1371  function transferenciaPorTransfer(address destino, uint monto) public {\r... */\n    tag_9:\n        /* \"contracts/Transferencia.sol\":1339:1346  destino */\n      dup2\n        /* \"contracts/Transferencia.sol\":1331:1356  payable(destino).transfer */\n      0xffffffffffffffffffffffffffffffffffffffff\n      and\n        /* \"contracts/Transferencia.sol\":1331:1363  payable(destino).transfer(monto) */\n      0x08fc\n        /* \"contracts/Transferencia.sol\":1357:1362  monto */\n      dup3\n        /* \"contracts/Transferencia.sol\":1331:1363  payable(destino).transfer(monto) */\n      swap1\n      dup2\n      iszero\n      mul\n      swap1\n      mload(0x40)\n      0x00\n      mload(0x40)\n      dup1\n      dup4\n      sub\n      dup2\n      dup6\n      dup9\n      dup9\n      call\n      swap4\n      pop\n      pop\n      pop\n      pop\n      iszero\n      dup1\n      iszero\n      tag_21\n      jumpi\n      returndatasize\n      0x00\n      dup1\n      returndatacopy\n      revert(0x00, returndatasize)\n    tag_21:\n      pop\n        /* \"contracts/Transferencia.sol\":1250:1371  function transferenciaPorTransfer(address destino, uint monto) public {\r... */\n      pop\n      pop\n      jump\t// out\n        /* \"contracts/Transferencia.sol\":1608:1801  function transferenciaPorCall(address destino, uint monto) public returns (bool) {\r... */\n    tag_12:\n        /* \"contracts/Transferencia.sol\":1683:1687  bool */\n      0x00\n        /* \"contracts/Transferencia.sol\":1701:1712  bool salida */\n      dup1\n        /* \"contracts/Transferencia.sol\":1714:1736  bytes memory respuesta */\n      0x00\n        /* \"contracts/Transferencia.sol\":1740:1747  destino */\n      dup5\n        /* \"contracts/Transferencia.sol\":1740:1752  destino.call */\n      0xffffffffffffffffffffffffffffffffffffffff\n      and\n        /* \"contracts/Transferencia.sol\":1759:1764  monto */\n      dup5\n        /* \"contracts/Transferencia.sol\":1740:1769  destino.call{value:monto}(\"\") */\n      mload(0x40)\n      tag_23\n      swap1\n      tag_24\n      jump\t// in\n    tag_23:\n      0x00\n      mload(0x40)\n      dup1\n      dup4\n      sub\n      dup2\n      dup6\n      dup8\n      gas\n      call\n      swap3\n      pop\n      pop\n      pop\n      returndatasize\n      dup1\n      0x00\n      dup2\n      eq\n      tag_27\n      jumpi\n      mload(0x40)\n      swap2\n      pop\n      and(add(returndatasize, 0x3f), not(0x1f))\n      dup3\n      add\n      0x40\n      mstore\n      returndatasize\n      dup3\n      mstore\n      returndatasize\n      0x00\n      0x20\n      dup5\n      add\n      returndatacopy\n      jump(tag_26)\n    tag_27:\n      0x60\n      swap2\n      pop\n    tag_26:\n      pop\n        /* \"contracts/Transferencia.sol\":1700:1769  (bool salida, bytes memory respuesta) = destino.call{value:monto}(\"\") */\n      swap2\n      pop\n      swap2\n      pop\n        /* \"contracts/Transferencia.sol\":1787:1793  salida */\n      dup2\n        /* \"contracts/Transferencia.sol\":1780:1793  return salida */\n      swap3\n      pop\n      pop\n      pop\n        /* \"contracts/Transferencia.sol\":1608:1801  function transferenciaPorCall(address destino, uint monto) public returns (bool) {\r... */\n      swap3\n      swap2\n      pop\n      pop\n      jump\t// out\n        /* \"contracts/Transferencia.sol\":967:1133  function transferenciaPorSend(address destino, uint monto) public returns (bool) {\r... */\n    tag_17:\n        /* \"contracts/Transferencia.sol\":1042:1046  bool */\n      0x00\n        /* \"contracts/Transferencia.sol\":1059:1070  bool salida */\n      dup1\n        /* \"contracts/Transferencia.sol\":1081:1088  destino */\n      dup4\n        /* \"contracts/Transferencia.sol\":1073:1094  payable(destino).send */\n      0xffffffffffffffffffffffffffffffffffffffff\n      and\n        /* \"contracts/Transferencia.sol\":1073:1101  payable(destino).send(monto) */\n      0x08fc\n        /* \"contracts/Transferencia.sol\":1095:1100  monto */\n      dup5\n        /* \"contracts/Transferencia.sol\":1073:1101  payable(destino).send(monto) */\n      swap1\n      dup2\n      iszero\n      mul\n      swap1\n      mload(0x40)\n      0x00\n      mload(0x40)\n      dup1\n      dup4\n      sub\n      dup2\n      dup6\n      dup9\n      dup9\n      call\n      swap4\n      pop\n      pop\n      pop\n      pop\n        /* \"contracts/Transferencia.sol\":1059:1101  bool salida = payable(destino).send(monto) */\n      swap1\n      pop\n        /* \"contracts/Transferencia.sol\":1119:1125  salida */\n      dup1\n        /* \"contracts/Transferencia.sol\":1112:1125  return salida */\n      swap2\n      pop\n      pop\n        /* \"contracts/Transferencia.sol\":967:1133  function transferenciaPorSend(address destino, uint monto) public returns (bool) {\r... */\n      swap3\n      swap2\n      pop\n      pop\n      jump\t// out\n        /* \"#utility.yul\":7:146   */\n    tag_31:\n        /* \"#utility.yul\":53:58   */\n      0x00\n        /* \"#utility.yul\":91:97   */\n      dup2\n        /* \"#utility.yul\":78:98   */\n      calldataload\n        /* \"#utility.yul\":69:98   */\n      swap1\n      pop\n        /* \"#utility.yul\":107:140   */\n      tag_33\n        /* \"#utility.yul\":134:139   */\n      dup2\n        /* \"#utility.yul\":107:140   */\n      tag_34\n      jump\t// in\n    tag_33:\n        /* \"#utility.yul\":7:146   */\n      swap3\n      swap2\n      pop\n      pop\n      jump\t// out\n        /* \"#utility.yul\":152:291   */\n    tag_35:\n        /* \"#utility.yul\":198:203   */\n      0x00\n        /* \"#utility.yul\":236:242   */\n      dup2\n        /* \"#utility.yul\":223:243   */\n      calldataload\n        /* \"#utility.yul\":214:243   */\n      swap1\n      pop\n        /* \"#utility.yul\":252:285   */\n      tag_37\n        /* \"#utility.yul\":279:284   */\n      dup2\n        /* \"#utility.yul\":252:285   */\n      tag_38\n      jump\t// in\n    tag_37:\n        /* \"#utility.yul\":152:291   */\n      swap3\n      swap2\n      pop\n      pop\n      jump\t// out\n        /* \"#utility.yul\":297:771   */\n    tag_8:\n        /* \"#utility.yul\":365:371   */\n      0x00\n        /* \"#utility.yul\":373:379   */\n      dup1\n        /* \"#utility.yul\":422:424   */\n      0x40\n        /* \"#utility.yul\":410:419   */\n      dup4\n        /* \"#utility.yul\":401:408   */\n      dup6\n        /* \"#utility.yul\":397:420   */\n      sub\n        /* \"#utility.yul\":393:425   */\n      slt\n        /* \"#utility.yul\":390:509   */\n      iszero\n      tag_40\n      jumpi\n        /* \"#utility.yul\":428:507   */\n      tag_41\n      tag_42\n      jump\t// in\n    tag_41:\n        /* \"#utility.yul\":390:509   */\n    tag_40:\n        /* \"#utility.yul\":548:549   */\n      0x00\n        /* \"#utility.yul\":573:626   */\n      tag_43\n        /* \"#utility.yul\":618:625   */\n      dup6\n        /* \"#utility.yul\":609:615   */\n      dup3\n        /* \"#utility.yul\":598:607   */\n      dup7\n        /* \"#utility.yul\":594:616   */\n      add\n        /* \"#utility.yul\":573:626   */\n      tag_31\n      jump\t// in\n    tag_43:\n        /* \"#utility.yul\":563:626   */\n      swap3\n      pop\n        /* \"#utility.yul\":519:636   */\n      pop\n        /* \"#utility.yul\":675:677   */\n      0x20\n        /* \"#utility.yul\":701:754   */\n      tag_44\n        /* \"#utility.yul\":746:753   */\n      dup6\n        /* \"#utility.yul\":737:743   */\n      dup3\n        /* \"#utility.yul\":726:735   */\n      dup7\n        /* \"#utility.yul\":722:744   */\n      add\n        /* \"#utility.yul\":701:754   */\n      tag_35\n      jump\t// in\n    tag_44:\n        /* \"#utility.yul\":691:754   */\n      swap2\n      pop\n        /* \"#utility.yul\":646:764   */\n      pop\n        /* \"#utility.yul\":297:771   */\n      swap3\n      pop\n      swap3\n      swap1\n      pop\n      jump\t// out\n        /* \"#utility.yul\":777:886   */\n    tag_45:\n        /* \"#utility.yul\":858:879   */\n      tag_47\n        /* \"#utility.yul\":873:878   */\n      dup2\n        /* \"#utility.yul\":858:879   */\n      tag_48\n      jump\t// in\n    tag_47:\n        /* \"#utility.yul\":853:856   */\n      dup3\n        /* \"#utility.yul\":846:880   */\n      mstore\n        /* \"#utility.yul\":777:886   */\n      pop\n      pop\n      jump\t// out\n        /* \"#utility.yul\":892:1290   */\n    tag_49:\n        /* \"#utility.yul\":1051:1054   */\n      0x00\n        /* \"#utility.yul\":1072:1155   */\n      tag_51\n        /* \"#utility.yul\":1153:1154   */\n      0x00\n        /* \"#utility.yul\":1148:1151   */\n      dup4\n        /* \"#utility.yul\":1072:1155   */\n      tag_52\n      jump\t// in\n    tag_51:\n        /* \"#utility.yul\":1065:1155   */\n      swap2\n      pop\n        /* \"#utility.yul\":1164:1257   */\n      tag_53\n        /* \"#utility.yul\":1253:1256   */\n      dup3\n        /* \"#utility.yul\":1164:1257   */\n      tag_54\n      jump\t// in\n    tag_53:\n        /* \"#utility.yul\":1282:1283   */\n      0x00\n        /* \"#utility.yul\":1277:1280   */\n      dup3\n        /* \"#utility.yul\":1273:1284   */\n      add\n        /* \"#utility.yul\":1266:1284   */\n      swap1\n      pop\n        /* \"#utility.yul\":892:1290   */\n      swap2\n      swap1\n      pop\n      jump\t// out\n        /* \"#utility.yul\":1296:1675   */\n    tag_24:\n        /* \"#utility.yul\":1480:1483   */\n      0x00\n        /* \"#utility.yul\":1502:1649   */\n      tag_56\n        /* \"#utility.yul\":1645:1648   */\n      dup3\n        /* \"#utility.yul\":1502:1649   */\n      tag_49\n      jump\t// in\n    tag_56:\n        /* \"#utility.yul\":1495:1649   */\n      swap2\n      pop\n        /* \"#utility.yul\":1666:1669   */\n      dup2\n        /* \"#utility.yul\":1659:1669   */\n      swap1\n      pop\n        /* \"#utility.yul\":1296:1675   */\n      swap2\n      swap1\n      pop\n      jump\t// out\n        /* \"#utility.yul\":1681:1891   */\n    tag_14:\n        /* \"#utility.yul\":1768:1772   */\n      0x00\n        /* \"#utility.yul\":1806:1808   */\n      0x20\n        /* \"#utility.yul\":1795:1804   */\n      dup3\n        /* \"#utility.yul\":1791:1809   */\n      add\n        /* \"#utility.yul\":1783:1809   */\n      swap1\n      pop\n        /* \"#utility.yul\":1819:1884   */\n      tag_58\n        /* \"#utility.yul\":1881:1882   */\n      0x00\n        /* \"#utility.yul\":1870:1879   */\n      dup4\n        /* \"#utility.yul\":1866:1883   */\n      add\n        /* \"#utility.yul\":1857:1863   */\n      dup5\n        /* \"#utility.yul\":1819:1884   */\n      tag_45\n      jump\t// in\n    tag_58:\n        /* \"#utility.yul\":1681:1891   */\n      swap3\n      swap2\n      pop\n      pop\n      jump\t// out\n        /* \"#utility.yul\":1978:2125   */\n    tag_52:\n        /* \"#utility.yul\":2079:2090   */\n      0x00\n        /* \"#utility.yul\":2116:2119   */\n      dup2\n        /* \"#utility.yul\":2101:2119   */\n      swap1\n      pop\n        /* \"#utility.yul\":1978:2125   */\n      swap3\n      swap2\n      pop\n      pop\n      jump\t// out\n        /* \"#utility.yul\":2131:2227   */\n    tag_62:\n        /* \"#utility.yul\":2168:2175   */\n      0x00\n        /* \"#utility.yul\":2197:2221   */\n      tag_64\n        /* \"#utility.yul\":2215:2220   */\n      dup3\n        /* \"#utility.yul\":2197:2221   */\n      tag_65\n      jump\t// in\n    tag_64:\n        /* \"#utility.yul\":2186:2221   */\n      swap1\n      pop\n        /* \"#utility.yul\":2131:2227   */\n      swap2\n      swap1\n      pop\n      jump\t// out\n        /* \"#utility.yul\":2233:2323   */\n    tag_48:\n        /* \"#utility.yul\":2267:2274   */\n      0x00\n        /* \"#utility.yul\":2310:2315   */\n      dup2\n        /* \"#utility.yul\":2303:2316   */\n      iszero\n        /* \"#utility.yul\":2296:2317   */\n      iszero\n        /* \"#utility.yul\":2285:2317   */\n      swap1\n      pop\n        /* \"#utility.yul\":2233:2323   */\n      swap2\n      swap1\n      pop\n      jump\t// out\n        /* \"#utility.yul\":2329:2455   */\n    tag_65:\n        /* \"#utility.yul\":2366:2373   */\n      0x00\n        /* \"#utility.yul\":2406:2448   */\n      0xffffffffffffffffffffffffffffffffffffffff\n        /* \"#utility.yul\":2399:2404   */\n      dup3\n        /* \"#utility.yul\":2395:2449   */\n      and\n        /* \"#utility.yul\":2384:2449   */\n      swap1\n      pop\n        /* \"#utility.yul\":2329:2455   */\n      swap2\n      swap1\n      pop\n      jump\t// out\n        /* \"#utility.yul\":2461:2538   */\n    tag_68:\n        /* \"#utility.yul\":2498:2505   */\n      0x00\n        /* \"#utility.yul\":2527:2532   */\n      dup2\n        /* \"#utility.yul\":2516:2532   */\n      swap1\n      pop\n        /* \"#utility.yul\":2461:2538   */\n      swap2\n      swap1\n      pop\n      jump\t// out\n        /* \"#utility.yul\":2667:2784   */\n    tag_42:\n        /* \"#utility.yul\":2776:2777   */\n      0x00\n        /* \"#utility.yul\":2773:2774   */\n      dup1\n        /* \"#utility.yul\":2766:2778   */\n      revert\n        /* \"#utility.yul\":2790:2904   */\n    tag_54:\n      pop\n      jump\t// out\n        /* \"#utility.yul\":2910:3032   */\n    tag_34:\n        /* \"#utility.yul\":2983:3007   */\n      tag_75\n        /* \"#utility.yul\":3001:3006   */\n      dup2\n        /* \"#utility.yul\":2983:3007   */\n      tag_62\n      jump\t// in\n    tag_75:\n        /* \"#utility.yul\":2976:2981   */\n      dup2\n        /* \"#utility.yul\":2973:3008   */\n      eq\n        /* \"#utility.yul\":2963:3026   */\n      tag_76\n      jumpi\n        /* \"#utility.yul\":3022:3023   */\n      0x00\n        /* \"#utility.yul\":3019:3020   */\n      dup1\n        /* \"#utility.yul\":3012:3024   */\n      revert\n        /* \"#utility.yul\":2963:3026   */\n    tag_76:\n        /* \"#utility.yul\":2910:3032   */\n      pop\n      jump\t// out\n        /* \"#utility.yul\":3038:3160   */\n    tag_38:\n        /* \"#utility.yul\":3111:3135   */\n      tag_78\n        /* \"#utility.yul\":3129:3134   */\n      dup2\n        /* \"#utility.yul\":3111:3135   */\n      tag_68\n      jump\t// in\n    tag_78:\n        /* \"#utility.yul\":3104:3109   */\n      dup2\n        /* \"#utility.yul\":3101:3136   */\n      eq\n        /* \"#utility.yul\":3091:3154   */\n      tag_79\n      jumpi\n        /* \"#utility.yul\":3150:3151   */\n      0x00\n        /* \"#utility.yul\":3147:3148   */\n      dup1\n        /* \"#utility.yul\":3140:3152   */\n      revert\n        /* \"#utility.yul\":3091:3154   */\n    tag_79:\n        /* \"#utility.yul\":3038:3160   */\n      pop\n      jump\t// out\n\n    auxdata: 0xa2646970667358221220320fa992288e52cbe9453bde795da3f1786af1d5f5817eb761f24e20b990609d64736f6c63430008070033\n}\n",
				"bytecode": {
					"linkReferences": {},
					"object": "6080604052610357806100136000396000f3fe608060405234801561001057600080fd5b50600436106100415760003560e01c80638348fc0e14610046578063a0947cd514610062578063c6732e1114610092575b600080fd5b610060600480360381019061005b91906101f6565b6100c2565b005b61007c600480360381019061007791906101f6565b61010d565b604051610089919061027d565b60405180910390f35b6100ac60048036038101906100a791906101f6565b610188565b6040516100b9919061027d565b60405180910390f35b8173ffffffffffffffffffffffffffffffffffffffff166108fc829081150290604051600060405180830381858888f19350505050158015610108573d6000803e3d6000fd5b505050565b60008060008473ffffffffffffffffffffffffffffffffffffffff168460405161013690610268565b60006040518083038185875af1925050503d8060008114610173576040519150601f19603f3d011682016040523d82523d6000602084013e610178565b606091505b5091509150819250505092915050565b6000808373ffffffffffffffffffffffffffffffffffffffff166108fc849081150290604051600060405180830381858888f1935050505090508091505092915050565b6000813590506101db816102f3565b92915050565b6000813590506101f08161030a565b92915050565b6000806040838503121561020d5761020c6102eb565b5b600061021b858286016101cc565b925050602061022c858286016101e1565b9150509250929050565b61023f816102b5565b82525050565b6000610252600083610298565b915061025d826102f0565b600082019050919050565b600061027382610245565b9150819050919050565b60006020820190506102926000830184610236565b92915050565b600081905092915050565b60006102ae826102c1565b9050919050565b60008115159050919050565b600073ffffffffffffffffffffffffffffffffffffffff82169050919050565b6000819050919050565b600080fd5b50565b6102fc816102a3565b811461030757600080fd5b50565b610313816102e1565b811461031e57600080fd5b5056fea2646970667358221220320fa992288e52cbe9453bde795da3f1786af1d5f5817eb761f24e20b990609d64736f6c63430008070033",
					"opcodes": "PUSH1 0x80 PUSH1 0x40 MSTORE PUSH2 0x357 DUP1 PUSH2 0x13 PUSH1 0x0 CODECOPY PUSH1 0x0 RETURN INVALID PUSH1 0x80 PUSH1 0x40 MSTORE CALLVALUE DUP1 ISZERO PUSH2 0x10 JUMPI PUSH1 0x0 DUP1 REVERT JUMPDEST POP PUSH1 0x4 CALLDATASIZE LT PUSH2 0x41 JUMPI PUSH1 0x0 CALLDATALOAD PUSH1 0xE0 SHR DUP1 PUSH4 0x8348FC0E EQ PUSH2 0x46 JUMPI DUP1 PUSH4 0xA0947CD5 EQ PUSH2 0x62 JUMPI DUP1 PUSH4 0xC6732E11 EQ PUSH2 0x92 JUMPI JUMPDEST PUSH1 0x0 DUP1 REVERT JUMPDEST PUSH2 0x60 PUSH1 0x4 DUP1 CALLDATASIZE SUB DUP2 ADD SWAP1 PUSH2 0x5B SWAP2 SWAP1 PUSH2 0x1F6 JUMP JUMPDEST PUSH2 0xC2 JUMP JUMPDEST STOP JUMPDEST PUSH2 0x7C PUSH1 0x4 DUP1 CALLDATASIZE SUB DUP2 ADD SWAP1 PUSH2 0x77 SWAP2 SWAP1 PUSH2 0x1F6 JUMP JUMPDEST PUSH2 0x10D JUMP JUMPDEST PUSH1 0x40 MLOAD PUSH2 0x89 SWAP2 SWAP1 PUSH2 0x27D JUMP JUMPDEST PUSH1 0x40 MLOAD DUP1 SWAP2 SUB SWAP1 RETURN JUMPDEST PUSH2 0xAC PUSH1 0x4 DUP1 CALLDATASIZE SUB DUP2 ADD SWAP1 PUSH2 0xA7 SWAP2 SWAP1 PUSH2 0x1F6 JUMP JUMPDEST PUSH2 0x188 JUMP JUMPDEST PUSH1 0x40 MLOAD PUSH2 0xB9 SWAP2 SWAP1 PUSH2 0x27D JUMP JUMPDEST PUSH1 0x40 MLOAD DUP1 SWAP2 SUB SWAP1 RETURN JUMPDEST DUP2 PUSH20 0xFFFFFFFFFFFFFFFFFFFFFFFFFFFFFFFFFFFFFFFF AND PUSH2 0x8FC DUP3 SWAP1 DUP2 ISZERO MUL SWAP1 PUSH1 0x40 MLOAD PUSH1 0x0 PUSH1 0x40 MLOAD DUP1 DUP4 SUB DUP2 DUP6 DUP9 DUP9 CALL SWAP4 POP POP POP POP ISZERO DUP1 ISZERO PUSH2 0x108 JUMPI RETURNDATASIZE PUSH1 0x0 DUP1 RETURNDATACOPY RETURNDATASIZE PUSH1 0x0 REVERT JUMPDEST POP POP POP JUMP JUMPDEST PUSH1 0x0 DUP1 PUSH1 0x0 DUP5 PUSH20 0xFFFFFFFFFFFFFFFFFFFFFFFFFFFFFFFFFFFFFFFF AND DUP5 PUSH1 0x40 MLOAD PUSH2 0x136 SWAP1 PUSH2 0x268 JUMP JUMPDEST PUSH1 0x0 PUSH1 0x40 MLOAD DUP1 DUP4 SUB DUP2 DUP6 DUP8 GAS CALL SWAP3 POP POP POP RETURNDATASIZE DUP1 PUSH1 0x0 DUP2 EQ PUSH2 0x173 JUMPI PUSH1 0x40 MLOAD SWAP2 POP PUSH1 0x1F NOT PUSH1 0x3F RETURNDATASIZE ADD AND DUP3 ADD PUSH1 0x40 MSTORE RETURNDATASIZE DUP3 MSTORE RETURNDATASIZE PUSH1 0x0 PUSH1 0x20 DUP5 ADD RETURNDATACOPY PUSH2 0x178 JUMP JUMPDEST PUSH1 0x60 SWAP2 POP JUMPDEST POP SWAP2 POP SWAP2 POP DUP2 SWAP3 POP POP POP SWAP3 SWAP2 POP POP JUMP JUMPDEST PUSH1 0x0 DUP1 DUP4 PUSH20 0xFFFFFFFFFFFFFFFFFFFFFFFFFFFFFFFFFFFFFFFF AND PUSH2 0x8FC DUP5 SWAP1 DUP2 ISZERO MUL SWAP1 PUSH1 0x40 MLOAD PUSH1 0x0 PUSH1 0x40 MLOAD DUP1 DUP4 SUB DUP2 DUP6 DUP9 DUP9 CALL SWAP4 POP POP POP POP SWAP1 POP DUP1 SWAP2 POP POP SWAP3 SWAP2 POP POP JUMP JUMPDEST PUSH1 0x0 DUP2 CALLDATALOAD SWAP1 POP PUSH2 0x1DB DUP2 PUSH2 0x2F3 JUMP JUMPDEST SWAP3 SWAP2 POP POP JUMP JUMPDEST PUSH1 0x0 DUP2 CALLDATALOAD SWAP1 POP PUSH2 0x1F0 DUP2 PUSH2 0x30A JUMP JUMPDEST SWAP3 SWAP2 POP POP JUMP JUMPDEST PUSH1 0x0 DUP1 PUSH1 0x40 DUP4 DUP6 SUB SLT ISZERO PUSH2 0x20D JUMPI PUSH2 0x20C PUSH2 0x2EB JUMP JUMPDEST JUMPDEST PUSH1 0x0 PUSH2 0x21B DUP6 DUP3 DUP7 ADD PUSH2 0x1CC JUMP JUMPDEST SWAP3 POP POP PUSH1 0x20 PUSH2 0x22C DUP6 DUP3 DUP7 ADD PUSH2 0x1E1 JUMP JUMPDEST SWAP2 POP POP SWAP3 POP SWAP3 SWAP1 POP JUMP JUMPDEST PUSH2 0x23F DUP2 PUSH2 0x2B5 JUMP JUMPDEST DUP3 MSTORE POP POP JUMP JUMPDEST PUSH1 0x0 PUSH2 0x252 PUSH1 0x0 DUP4 PUSH2 0x298 JUMP JUMPDEST SWAP2 POP PUSH2 0x25D DUP3 PUSH2 0x2F0 JUMP JUMPDEST PUSH1 0x0 DUP3 ADD SWAP1 POP SWAP2 SWAP1 POP JUMP JUMPDEST PUSH1 0x0 PUSH2 0x273 DUP3 PUSH2 0x245 JUMP JUMPDEST SWAP2 POP DUP2 SWAP1 POP SWAP2 SWAP1 POP JUMP JUMPDEST PUSH1 0x0 PUSH1 0x20 DUP3 ADD SWAP1 POP PUSH2 0x292 PUSH1 0x0 DUP4 ADD DUP5 PUSH2 0x236 JUMP JUMPDEST SWAP3 SWAP2 POP POP JUMP JUMPDEST PUSH1 0x0 DUP2 SWAP1 POP SWAP3 SWAP2 POP POP JUMP JUMPDEST PUSH1 0x0 PUSH2 0x2AE DUP3 PUSH2 0x2C1 JUMP JUMPDEST SWAP1 POP SWAP2 SWAP1 POP JUMP JUMPDEST PUSH1 0x0 DUP2 ISZERO ISZERO SWAP1 POP SWAP2 SWAP1 POP JUMP JUMPDEST PUSH1 0x0 PUSH20 0xFFFFFFFFFFFFFFFFFFFFFFFFFFFFFFFFFFFFFFFF DUP3 AND SWAP1 POP SWAP2 SWAP1 POP JUMP JUMPDEST PUSH1 0x0 DUP2 SWAP1 POP SWAP2 SWAP1 POP JUMP JUMPDEST PUSH1 0x0 DUP1 REVERT JUMPDEST POP JUMP JUMPDEST PUSH2 0x2FC DUP2 PUSH2 0x2A3 JUMP JUMPDEST DUP2 EQ PUSH2 0x307 JUMPI PUSH1 0x0 DUP1 REVERT JUMPDEST POP JUMP JUMPDEST PUSH2 0x313 DUP2 PUSH2 0x2E1 JUMP JUMPDEST DUP2 EQ PUSH2 0x31E JUMPI PUSH1 0x0 DUP1 REVERT JUMPDEST POP JUMP INVALID LOG2 PUSH5 0x6970667358 0x22 SLT KECCAK256 ORIGIN 0xF 0xA9 SWAP3 0x28 DUP15 MSTORE 0xCB 0xE9 GASLIMIT EXTCODESIZE 0xDE PUSH26 0x5DA3F1786AF1D5F5817EB761F24E20B990609D64736F6C634300 ADDMOD SMOD STOP CALLER "
				},
				"gasEstimates": {
					"creation": {
						"codeDepositCost": "171000",
						"executionCost": "190",
						"totalCost": "171190"
					},
					"external": {
						"transferenciaPorCall(address,uint256)": "infinite",
						"transferenciaPorSend(address,uint256)": "infinite",
						"transferenciaPorTransfer(address,uint256)": "infinite"
					}
				},
				"methodIdentifiers": {
					"transferenciaPorCall(address,uint256)": "a0947cd5",
					"transferenciaPorSend(address,uint256)": "c6732e11",
					"transferenciaPorTransfer(address,uint256)": "8348fc0e"
				}
			},
			"storageLayout": {
				"storage": [],
				"types": null
			},
			"userdoc": {
				"kind": "user",
				"methods": {},
				"version": 1
			}
		}
	}
}