{
	"contracts/EstructurasDeControl.sol": {
		"EstructurasDeControl": {
			"abi": [
				{
					"inputs": [
						{
							"internalType": "bool",
							"name": "condicion",
							"type": "bool"
						}
					],
					"stateMutability": "nonpayable",
					"type": "constructor"
				},
				{
					"anonymous": false,
					"inputs": [
						{
							"indexed": false,
							"internalType": "bool",
							"name": "condicion",
							"type": "bool"
						}
					],
					"name": "NotificacionDeCondicion",
					"type": "event"
				},
				{
					"anonymous": false,
					"inputs": [
						{
							"indexed": false,
							"internalType": "uint256",
							"name": "signo",
							"type": "uint256"
						}
					],
					"name": "ValorDeSigno",
					"type": "event"
				},
				{
					"inputs": [
						{
							"internalType": "uint256",
							"name": "",
							"type": "uint256"
						}
					],
					"name": "numero",
					"outputs": [
						{
							"internalType": "uint256",
							"name": "",
							"type": "uint256"
						}
					],
					"stateMutability": "view",
					"type": "function"
				},
				{
					"inputs": [],
					"name": "resultado",
					"outputs": [
						{
							"internalType": "string",
							"name": "",
							"type": "string"
						}
					],
					"stateMutability": "view",
					"type": "function"
				},
				{
					"inputs": [],
					"name": "signo",
					"outputs": [
						{
							"internalType": "uint256",
							"name": "",
							"type": "uint256"
						}
					],
					"stateMutability": "view",
					"type": "function"
				}
			],
			"devdoc": {
				"kind": "dev",
				"methods": {},
				"version": 1
			},
			"evm": {
				"assembly": "    /* \"contracts/EstructurasDeControl.sol\":74:1523  contract EstructurasDeControl {\r... */\n  mstore(0x40, 0x80)\n    /* \"contracts/EstructurasDeControl.sol\":678:1519  constructor(bool condicion) {\r... */\n  callvalue\n  dup1\n  iszero\n  tag_1\n  jumpi\n  0x00\n  dup1\n  revert\ntag_1:\n  pop\n  mload(0x40)\n  sub(codesize, bytecodeSize)\n  dup1\n  bytecodeSize\n  dup4\n  codecopy\n  dup2\n  dup2\n  add\n  0x40\n  mstore\n  dup2\n  add\n  swap1\n  tag_2\n  swap2\n  swap1\n  tag_3\n  jump\t// in\ntag_2:\n    /* \"contracts/EstructurasDeControl.sol\":920:929  condicion */\n  dup1\n    /* \"contracts/EstructurasDeControl.sol\":917:1056  if(condicion){\r... */\n  iszero\n  tag_6\n  jumpi\n    /* \"contracts/EstructurasDeControl.sol\":945:973  resultado = \"Condicion True\" */\n  mload(0x40)\n  dup1\n  0x40\n  add\n  0x40\n  mstore\n  dup1\n  0x0e\n  dup2\n  mstore\n  0x20\n  add\n  0x436f6e646963696f6e2054727565000000000000000000000000000000000000\n  dup2\n  mstore\n  pop\n    /* \"contracts/EstructurasDeControl.sol\":945:954  resultado */\n  0x01\n    /* \"contracts/EstructurasDeControl.sol\":945:973  resultado = \"Condicion True\" */\n  swap1\n  dup1\n  mload\n  swap1\n  0x20\n  add\n  swap1\n  tag_7\n  swap3\n  swap2\n  swap1\n  tag_8\n  jump\t// in\ntag_7:\n  pop\n    /* \"contracts/EstructurasDeControl.sol\":917:1056  if(condicion){\r... */\n  jump(tag_9)\ntag_6:\n    /* \"contracts/EstructurasDeControl.sol\":1015:1044  resultado = \"Condicion False\" */\n  mload(0x40)\n  dup1\n  0x40\n  add\n  0x40\n  mstore\n  dup1\n  0x0f\n  dup2\n  mstore\n  0x20\n  add\n  0x436f6e646963696f6e2046616c73650000000000000000000000000000000000\n  dup2\n  mstore\n  pop\n    /* \"contracts/EstructurasDeControl.sol\":1015:1024  resultado */\n  0x01\n    /* \"contracts/EstructurasDeControl.sol\":1015:1044  resultado = \"Condicion False\" */\n  swap1\n  dup1\n  mload\n  swap1\n  0x20\n  add\n  swap1\n  tag_10\n  swap3\n  swap2\n  swap1\n  tag_8\n  jump\t// in\ntag_10:\n  pop\n    /* \"contracts/EstructurasDeControl.sol\":917:1056  if(condicion){\r... */\ntag_9:\n    /* \"contracts/EstructurasDeControl.sol\":1184:1218  NotificacionDeCondicion(condicion) */\n  0x2c292fe5c0ec87281a1bef4b3e1b7a5983baaabece4a8d820a407575ff7d6e9c\n    /* \"contracts/EstructurasDeControl.sol\":1208:1217  condicion */\n  dup2\n    /* \"contracts/EstructurasDeControl.sol\":1184:1218  NotificacionDeCondicion(condicion) */\n  mload(0x40)\n  tag_11\n  swap2\n  swap1\n  tag_12\n  jump\t// in\ntag_11:\n  mload(0x40)\n  dup1\n  swap2\n  sub\n  swap1\n  log1\n    /* \"contracts/EstructurasDeControl.sol\":1338:1351  uint iterador */\n  0x00\n    /* \"contracts/EstructurasDeControl.sol\":1333:1473  for (uint iterador = 0; iterador<10; iterador++){\r... */\ntag_13:\n    /* \"contracts/EstructurasDeControl.sol\":1366:1368  10 */\n  0x0a\n    /* \"contracts/EstructurasDeControl.sol\":1357:1365  iterador */\n  dup2\n    /* \"contracts/EstructurasDeControl.sol\":1357:1368  iterador<10 */\n  lt\n    /* \"contracts/EstructurasDeControl.sol\":1333:1473  for (uint iterador = 0; iterador<10; iterador++){\r... */\n  iszero\n  tag_14\n  jumpi\n    /* \"contracts/EstructurasDeControl.sol\":1396:1402  numero */\n  0x00\n    /* \"contracts/EstructurasDeControl.sol\":1408:1416  iterador */\n  dup2\n    /* \"contracts/EstructurasDeControl.sol\":1396:1417  numero.push(iterador) */\n  swap1\n  dup1\n  0x01\n  dup2\n  sload\n  add\n  dup1\n  dup3\n  sstore\n  dup1\n  swap2\n  pop\n  pop\n  0x01\n  swap1\n  sub\n  swap1\n  0x00\n  mstore\n  keccak256(0x00, 0x20)\n  add\n  0x00\n  swap1\n  swap2\n  swap1\n  swap2\n  swap1\n  swap2\n  pop\n  sstore\n    /* \"contracts/EstructurasDeControl.sol\":1370:1380  iterador++ */\n  dup1\n  dup1\n  tag_17\n  swap1\n  tag_18\n  jump\t// in\ntag_17:\n  swap2\n  pop\n  pop\n    /* \"contracts/EstructurasDeControl.sol\":1333:1473  for (uint iterador = 0; iterador<10; iterador++){\r... */\n  jump(tag_13)\ntag_14:\n  pop\n    /* \"contracts/EstructurasDeControl.sol\":1490:1509  ValorDeSigno(signo) */\n  0x376f24d22d947de07931f2c88ee57acc5886ac99c00866b4f4183134bc1e1aed\n    /* \"contracts/EstructurasDeControl.sol\":1503:1508  signo */\n  sload(0x02)\n    /* \"contracts/EstructurasDeControl.sol\":1490:1509  ValorDeSigno(signo) */\n  mload(0x40)\n  tag_19\n  swap2\n  swap1\n  tag_20\n  jump\t// in\ntag_19:\n  mload(0x40)\n  dup1\n  swap2\n  sub\n  swap1\n  log1\n    /* \"contracts/EstructurasDeControl.sol\":678:1519  constructor(bool condicion) {\r... */\n  pop\n    /* \"contracts/EstructurasDeControl.sol\":74:1523  contract EstructurasDeControl {\r... */\n  jump(tag_21)\ntag_8:\n  dup3\n  dup1\n  sload\n  tag_22\n  swap1\n  tag_23\n  jump\t// in\ntag_22:\n  swap1\n  0x00\n  mstore\n  keccak256(0x00, 0x20)\n  swap1\n  0x1f\n  add\n  0x20\n  swap1\n  div\n  dup2\n  add\n  swap3\n  dup3\n  tag_25\n  jumpi\n  0x00\n  dup6\n  sstore\n  jump(tag_24)\ntag_25:\n  dup3\n  0x1f\n  lt\n  tag_26\n  jumpi\n  dup1\n  mload\n  not(0xff)\n  and\n  dup4\n  dup1\n  add\n  or\n  dup6\n  sstore\n  jump(tag_24)\ntag_26:\n  dup3\n  dup1\n  add\n  0x01\n  add\n  dup6\n  sstore\n  dup3\n  iszero\n  tag_24\n  jumpi\n  swap2\n  dup3\n  add\ntag_27:\n  dup3\n  dup2\n  gt\n  iszero\n  tag_28\n  jumpi\n  dup3\n  mload\n  dup3\n  sstore\n  swap2\n  0x20\n  add\n  swap2\n  swap1\n  0x01\n  add\n  swap1\n  jump(tag_27)\ntag_28:\ntag_24:\n  pop\n  swap1\n  pop\n  tag_29\n  swap2\n  swap1\n  tag_30\n  jump\t// in\ntag_29:\n  pop\n  swap1\n  jump\t// out\ntag_30:\ntag_31:\n  dup1\n  dup3\n  gt\n  iszero\n  tag_32\n  jumpi\n  0x00\n  dup2\n  0x00\n  swap1\n  sstore\n  pop\n  0x01\n  add\n  jump(tag_31)\ntag_32:\n  pop\n  swap1\n  jump\t// out\n    /* \"#utility.yul\":7:144   */\ntag_34:\n    /* \"#utility.yul\":61:66   */\n  0x00\n    /* \"#utility.yul\":92:98   */\n  dup2\n    /* \"#utility.yul\":86:99   */\n  mload\n    /* \"#utility.yul\":77:99   */\n  swap1\n  pop\n    /* \"#utility.yul\":108:138   */\n  tag_36\n    /* \"#utility.yul\":132:137   */\n  dup2\n    /* \"#utility.yul\":108:138   */\n  tag_37\n  jump\t// in\ntag_36:\n    /* \"#utility.yul\":7:144   */\n  swap3\n  swap2\n  pop\n  pop\n  jump\t// out\n    /* \"#utility.yul\":150:495   */\ntag_3:\n    /* \"#utility.yul\":217:223   */\n  0x00\n    /* \"#utility.yul\":266:268   */\n  0x20\n    /* \"#utility.yul\":254:263   */\n  dup3\n    /* \"#utility.yul\":245:252   */\n  dup5\n    /* \"#utility.yul\":241:264   */\n  sub\n    /* \"#utility.yul\":237:269   */\n  slt\n    /* \"#utility.yul\":234:353   */\n  iszero\n  tag_39\n  jumpi\n    /* \"#utility.yul\":272:351   */\n  tag_40\n  tag_41\n  jump\t// in\ntag_40:\n    /* \"#utility.yul\":234:353   */\ntag_39:\n    /* \"#utility.yul\":392:393   */\n  0x00\n    /* \"#utility.yul\":417:478   */\n  tag_42\n    /* \"#utility.yul\":470:477   */\n  dup5\n    /* \"#utility.yul\":461:467   */\n  dup3\n    /* \"#utility.yul\":450:459   */\n  dup6\n    /* \"#utility.yul\":446:468   */\n  add\n    /* \"#utility.yul\":417:478   */\n  tag_34\n  jump\t// in\ntag_42:\n    /* \"#utility.yul\":407:478   */\n  swap2\n  pop\n    /* \"#utility.yul\":363:488   */\n  pop\n    /* \"#utility.yul\":150:495   */\n  swap3\n  swap2\n  pop\n  pop\n  jump\t// out\n    /* \"#utility.yul\":501:610   */\ntag_43:\n    /* \"#utility.yul\":582:603   */\n  tag_45\n    /* \"#utility.yul\":597:602   */\n  dup2\n    /* \"#utility.yul\":582:603   */\n  tag_46\n  jump\t// in\ntag_45:\n    /* \"#utility.yul\":577:580   */\n  dup3\n    /* \"#utility.yul\":570:604   */\n  mstore\n    /* \"#utility.yul\":501:610   */\n  pop\n  pop\n  jump\t// out\n    /* \"#utility.yul\":616:734   */\ntag_47:\n    /* \"#utility.yul\":703:727   */\n  tag_49\n    /* \"#utility.yul\":721:726   */\n  dup2\n    /* \"#utility.yul\":703:727   */\n  tag_50\n  jump\t// in\ntag_49:\n    /* \"#utility.yul\":698:701   */\n  dup3\n    /* \"#utility.yul\":691:728   */\n  mstore\n    /* \"#utility.yul\":616:734   */\n  pop\n  pop\n  jump\t// out\n    /* \"#utility.yul\":740:950   */\ntag_12:\n    /* \"#utility.yul\":827:831   */\n  0x00\n    /* \"#utility.yul\":865:867   */\n  0x20\n    /* \"#utility.yul\":854:863   */\n  dup3\n    /* \"#utility.yul\":850:868   */\n  add\n    /* \"#utility.yul\":842:868   */\n  swap1\n  pop\n    /* \"#utility.yul\":878:943   */\n  tag_52\n    /* \"#utility.yul\":940:941   */\n  0x00\n    /* \"#utility.yul\":929:938   */\n  dup4\n    /* \"#utility.yul\":925:942   */\n  add\n    /* \"#utility.yul\":916:922   */\n  dup5\n    /* \"#utility.yul\":878:943   */\n  tag_43\n  jump\t// in\ntag_52:\n    /* \"#utility.yul\":740:950   */\n  swap3\n  swap2\n  pop\n  pop\n  jump\t// out\n    /* \"#utility.yul\":956:1178   */\ntag_20:\n    /* \"#utility.yul\":1049:1053   */\n  0x00\n    /* \"#utility.yul\":1087:1089   */\n  0x20\n    /* \"#utility.yul\":1076:1085   */\n  dup3\n    /* \"#utility.yul\":1072:1090   */\n  add\n    /* \"#utility.yul\":1064:1090   */\n  swap1\n  pop\n    /* \"#utility.yul\":1100:1171   */\n  tag_54\n    /* \"#utility.yul\":1168:1169   */\n  0x00\n    /* \"#utility.yul\":1157:1166   */\n  dup4\n    /* \"#utility.yul\":1153:1170   */\n  add\n    /* \"#utility.yul\":1144:1150   */\n  dup5\n    /* \"#utility.yul\":1100:1171   */\n  tag_47\n  jump\t// in\ntag_54:\n    /* \"#utility.yul\":956:1178   */\n  swap3\n  swap2\n  pop\n  pop\n  jump\t// out\n    /* \"#utility.yul\":1265:1355   */\ntag_46:\n    /* \"#utility.yul\":1299:1306   */\n  0x00\n    /* \"#utility.yul\":1342:1347   */\n  dup2\n    /* \"#utility.yul\":1335:1348   */\n  iszero\n    /* \"#utility.yul\":1328:1349   */\n  iszero\n    /* \"#utility.yul\":1317:1349   */\n  swap1\n  pop\n    /* \"#utility.yul\":1265:1355   */\n  swap2\n  swap1\n  pop\n  jump\t// out\n    /* \"#utility.yul\":1361:1438   */\ntag_50:\n    /* \"#utility.yul\":1398:1405   */\n  0x00\n    /* \"#utility.yul\":1427:1432   */\n  dup2\n    /* \"#utility.yul\":1416:1432   */\n  swap1\n  pop\n    /* \"#utility.yul\":1361:1438   */\n  swap2\n  swap1\n  pop\n  jump\t// out\n    /* \"#utility.yul\":1444:1764   */\ntag_23:\n    /* \"#utility.yul\":1488:1494   */\n  0x00\n    /* \"#utility.yul\":1525:1526   */\n  0x02\n    /* \"#utility.yul\":1519:1523   */\n  dup3\n    /* \"#utility.yul\":1515:1527   */\n  div\n    /* \"#utility.yul\":1505:1527   */\n  swap1\n  pop\n    /* \"#utility.yul\":1572:1573   */\n  0x01\n    /* \"#utility.yul\":1566:1570   */\n  dup3\n    /* \"#utility.yul\":1562:1574   */\n  and\n    /* \"#utility.yul\":1593:1611   */\n  dup1\n    /* \"#utility.yul\":1583:1664   */\n  tag_60\n  jumpi\n    /* \"#utility.yul\":1649:1653   */\n  0x7f\n    /* \"#utility.yul\":1641:1647   */\n  dup3\n    /* \"#utility.yul\":1637:1654   */\n  and\n    /* \"#utility.yul\":1627:1654   */\n  swap2\n  pop\n    /* \"#utility.yul\":1583:1664   */\ntag_60:\n    /* \"#utility.yul\":1711:1713   */\n  0x20\n    /* \"#utility.yul\":1703:1709   */\n  dup3\n    /* \"#utility.yul\":1700:1714   */\n  lt\n    /* \"#utility.yul\":1680:1698   */\n  dup2\n    /* \"#utility.yul\":1677:1715   */\n  eq\n    /* \"#utility.yul\":1674:1758   */\n  iszero\n  tag_61\n  jumpi\n    /* \"#utility.yul\":1730:1748   */\n  tag_62\n  tag_63\n  jump\t// in\ntag_62:\n    /* \"#utility.yul\":1674:1758   */\ntag_61:\n    /* \"#utility.yul\":1495:1764   */\n  pop\n    /* \"#utility.yul\":1444:1764   */\n  swap2\n  swap1\n  pop\n  jump\t// out\n    /* \"#utility.yul\":1770:2003   */\ntag_18:\n    /* \"#utility.yul\":1809:1812   */\n  0x00\n    /* \"#utility.yul\":1832:1856   */\n  tag_65\n    /* \"#utility.yul\":1850:1855   */\n  dup3\n    /* \"#utility.yul\":1832:1856   */\n  tag_50\n  jump\t// in\ntag_65:\n    /* \"#utility.yul\":1823:1856   */\n  swap2\n  pop\n    /* \"#utility.yul\":1878:1944   */\n  0xffffffffffffffffffffffffffffffffffffffffffffffffffffffffffffffff\n    /* \"#utility.yul\":1871:1876   */\n  dup3\n    /* \"#utility.yul\":1868:1945   */\n  eq\n    /* \"#utility.yul\":1865:1968   */\n  iszero\n  tag_66\n  jumpi\n    /* \"#utility.yul\":1948:1966   */\n  tag_67\n  tag_68\n  jump\t// in\ntag_67:\n    /* \"#utility.yul\":1865:1968   */\ntag_66:\n    /* \"#utility.yul\":1995:1996   */\n  0x01\n    /* \"#utility.yul\":1988:1993   */\n  dup3\n    /* \"#utility.yul\":1984:1997   */\n  add\n    /* \"#utility.yul\":1977:1997   */\n  swap1\n  pop\n    /* \"#utility.yul\":1770:2003   */\n  swap2\n  swap1\n  pop\n  jump\t// out\n    /* \"#utility.yul\":2009:2189   */\ntag_68:\n    /* \"#utility.yul\":2057:2134   */\n  0x4e487b7100000000000000000000000000000000000000000000000000000000\n    /* \"#utility.yul\":2054:2055   */\n  0x00\n    /* \"#utility.yul\":2047:2135   */\n  mstore\n    /* \"#utility.yul\":2154:2158   */\n  0x11\n    /* \"#utility.yul\":2151:2152   */\n  0x04\n    /* \"#utility.yul\":2144:2159   */\n  mstore\n    /* \"#utility.yul\":2178:2182   */\n  0x24\n    /* \"#utility.yul\":2175:2176   */\n  0x00\n    /* \"#utility.yul\":2168:2183   */\n  revert\n    /* \"#utility.yul\":2195:2375   */\ntag_63:\n    /* \"#utility.yul\":2243:2320   */\n  0x4e487b7100000000000000000000000000000000000000000000000000000000\n    /* \"#utility.yul\":2240:2241   */\n  0x00\n    /* \"#utility.yul\":2233:2321   */\n  mstore\n    /* \"#utility.yul\":2340:2344   */\n  0x22\n    /* \"#utility.yul\":2337:2338   */\n  0x04\n    /* \"#utility.yul\":2330:2345   */\n  mstore\n    /* \"#utility.yul\":2364:2368   */\n  0x24\n    /* \"#utility.yul\":2361:2362   */\n  0x00\n    /* \"#utility.yul\":2354:2369   */\n  revert\n    /* \"#utility.yul\":2504:2621   */\ntag_41:\n    /* \"#utility.yul\":2613:2614   */\n  0x00\n    /* \"#utility.yul\":2610:2611   */\n  dup1\n    /* \"#utility.yul\":2603:2615   */\n  revert\n    /* \"#utility.yul\":2627:2743   */\ntag_37:\n    /* \"#utility.yul\":2697:2718   */\n  tag_75\n    /* \"#utility.yul\":2712:2717   */\n  dup2\n    /* \"#utility.yul\":2697:2718   */\n  tag_46\n  jump\t// in\ntag_75:\n    /* \"#utility.yul\":2690:2695   */\n  dup2\n    /* \"#utility.yul\":2687:2719   */\n  eq\n    /* \"#utility.yul\":2677:2737   */\n  tag_76\n  jumpi\n    /* \"#utility.yul\":2733:2734   */\n  0x00\n    /* \"#utility.yul\":2730:2731   */\n  dup1\n    /* \"#utility.yul\":2723:2735   */\n  revert\n    /* \"#utility.yul\":2677:2737   */\ntag_76:\n    /* \"#utility.yul\":2627:2743   */\n  pop\n  jump\t// out\n    /* \"contracts/EstructurasDeControl.sol\":74:1523  contract EstructurasDeControl {\r... */\ntag_21:\n  dataSize(sub_0)\n  dup1\n  dataOffset(sub_0)\n  0x00\n  codecopy\n  0x00\n  return\nstop\n\nsub_0: assembly {\n        /* \"contracts/EstructurasDeControl.sol\":74:1523  contract EstructurasDeControl {\r... */\n      mstore(0x40, 0x80)\n      callvalue\n      dup1\n      iszero\n      tag_1\n      jumpi\n      0x00\n      dup1\n      revert\n    tag_1:\n      pop\n      jumpi(tag_2, lt(calldatasize, 0x04))\n      shr(0xe0, calldataload(0x00))\n      dup1\n      0x5206f100\n      eq\n      tag_3\n      jumpi\n      dup1\n      0x8dc5074b\n      eq\n      tag_4\n      jumpi\n      dup1\n      0xebff390e\n      eq\n      tag_5\n      jumpi\n    tag_2:\n      0x00\n      dup1\n      revert\n        /* \"contracts/EstructurasDeControl.sol\":247:270  string public resultado */\n    tag_3:\n      tag_6\n      tag_7\n      jump\t// in\n    tag_6:\n      mload(0x40)\n      tag_8\n      swap2\n      swap1\n      tag_9\n      jump\t// in\n    tag_8:\n      mload(0x40)\n      dup1\n      swap2\n      sub\n      swap1\n      return\n        /* \"contracts/EstructurasDeControl.sol\":217:238  uint [] public numero */\n    tag_4:\n      tag_10\n      0x04\n      dup1\n      calldatasize\n      sub\n      dup2\n      add\n      swap1\n      tag_11\n      swap2\n      swap1\n      tag_12\n      jump\t// in\n    tag_11:\n      tag_13\n      jump\t// in\n    tag_10:\n      mload(0x40)\n      tag_14\n      swap2\n      swap1\n      tag_15\n      jump\t// in\n    tag_14:\n      mload(0x40)\n      dup1\n      swap2\n      sub\n      swap1\n      return\n        /* \"contracts/EstructurasDeControl.sol\":283:300  uint public signo */\n    tag_5:\n      tag_16\n      tag_17\n      jump\t// in\n    tag_16:\n      mload(0x40)\n      tag_18\n      swap2\n      swap1\n      tag_15\n      jump\t// in\n    tag_18:\n      mload(0x40)\n      dup1\n      swap2\n      sub\n      swap1\n      return\n        /* \"contracts/EstructurasDeControl.sol\":247:270  string public resultado */\n    tag_7:\n      0x01\n      dup1\n      sload\n      tag_19\n      swap1\n      tag_20\n      jump\t// in\n    tag_19:\n      dup1\n      0x1f\n      add\n      0x20\n      dup1\n      swap2\n      div\n      mul\n      0x20\n      add\n      mload(0x40)\n      swap1\n      dup2\n      add\n      0x40\n      mstore\n      dup1\n      swap3\n      swap2\n      swap1\n      dup2\n      dup2\n      mstore\n      0x20\n      add\n      dup3\n      dup1\n      sload\n      tag_21\n      swap1\n      tag_20\n      jump\t// in\n    tag_21:\n      dup1\n      iszero\n      tag_22\n      jumpi\n      dup1\n      0x1f\n      lt\n      tag_23\n      jumpi\n      0x0100\n      dup1\n      dup4\n      sload\n      div\n      mul\n      dup4\n      mstore\n      swap2\n      0x20\n      add\n      swap2\n      jump(tag_22)\n    tag_23:\n      dup3\n      add\n      swap2\n      swap1\n      0x00\n      mstore\n      keccak256(0x00, 0x20)\n      swap1\n    tag_24:\n      dup2\n      sload\n      dup2\n      mstore\n      swap1\n      0x01\n      add\n      swap1\n      0x20\n      add\n      dup1\n      dup4\n      gt\n      tag_24\n      jumpi\n      dup3\n      swap1\n      sub\n      0x1f\n      and\n      dup3\n      add\n      swap2\n    tag_22:\n      pop\n      pop\n      pop\n      pop\n      pop\n      dup2\n      jump\t// out\n        /* \"contracts/EstructurasDeControl.sol\":217:238  uint [] public numero */\n    tag_13:\n      0x00\n      dup2\n      dup2\n      sload\n      dup2\n      lt\n      tag_25\n      jumpi\n      0x00\n      dup1\n      revert\n    tag_25:\n      swap1\n      0x00\n      mstore\n      keccak256(0x00, 0x20)\n      add\n      0x00\n      swap2\n      pop\n      swap1\n      pop\n      sload\n      dup2\n      jump\t// out\n        /* \"contracts/EstructurasDeControl.sol\":283:300  uint public signo */\n    tag_17:\n      sload(0x02)\n      dup2\n      jump\t// out\n        /* \"#utility.yul\":7:146   */\n    tag_28:\n        /* \"#utility.yul\":53:58   */\n      0x00\n        /* \"#utility.yul\":91:97   */\n      dup2\n        /* \"#utility.yul\":78:98   */\n      calldataload\n        /* \"#utility.yul\":69:98   */\n      swap1\n      pop\n        /* \"#utility.yul\":107:140   */\n      tag_30\n        /* \"#utility.yul\":134:139   */\n      dup2\n        /* \"#utility.yul\":107:140   */\n      tag_31\n      jump\t// in\n    tag_30:\n        /* \"#utility.yul\":7:146   */\n      swap3\n      swap2\n      pop\n      pop\n      jump\t// out\n        /* \"#utility.yul\":152:481   */\n    tag_12:\n        /* \"#utility.yul\":211:217   */\n      0x00\n        /* \"#utility.yul\":260:262   */\n      0x20\n        /* \"#utility.yul\":248:257   */\n      dup3\n        /* \"#utility.yul\":239:246   */\n      dup5\n        /* \"#utility.yul\":235:258   */\n      sub\n        /* \"#utility.yul\":231:263   */\n      slt\n        /* \"#utility.yul\":228:347   */\n      iszero\n      tag_33\n      jumpi\n        /* \"#utility.yul\":266:345   */\n      tag_34\n      tag_35\n      jump\t// in\n    tag_34:\n        /* \"#utility.yul\":228:347   */\n    tag_33:\n        /* \"#utility.yul\":386:387   */\n      0x00\n        /* \"#utility.yul\":411:464   */\n      tag_36\n        /* \"#utility.yul\":456:463   */\n      dup5\n        /* \"#utility.yul\":447:453   */\n      dup3\n        /* \"#utility.yul\":436:445   */\n      dup6\n        /* \"#utility.yul\":432:454   */\n      add\n        /* \"#utility.yul\":411:464   */\n      tag_28\n      jump\t// in\n    tag_36:\n        /* \"#utility.yul\":401:464   */\n      swap2\n      pop\n        /* \"#utility.yul\":357:474   */\n      pop\n        /* \"#utility.yul\":152:481   */\n      swap3\n      swap2\n      pop\n      pop\n      jump\t// out\n        /* \"#utility.yul\":487:851   */\n    tag_37:\n        /* \"#utility.yul\":575:578   */\n      0x00\n        /* \"#utility.yul\":603:642   */\n      tag_39\n        /* \"#utility.yul\":636:641   */\n      dup3\n        /* \"#utility.yul\":603:642   */\n      tag_40\n      jump\t// in\n    tag_39:\n        /* \"#utility.yul\":658:729   */\n      tag_41\n        /* \"#utility.yul\":722:728   */\n      dup2\n        /* \"#utility.yul\":717:720   */\n      dup6\n        /* \"#utility.yul\":658:729   */\n      tag_42\n      jump\t// in\n    tag_41:\n        /* \"#utility.yul\":651:729   */\n      swap4\n      pop\n        /* \"#utility.yul\":738:790   */\n      tag_43\n        /* \"#utility.yul\":783:789   */\n      dup2\n        /* \"#utility.yul\":778:781   */\n      dup6\n        /* \"#utility.yul\":771:775   */\n      0x20\n        /* \"#utility.yul\":764:769   */\n      dup7\n        /* \"#utility.yul\":760:776   */\n      add\n        /* \"#utility.yul\":738:790   */\n      tag_44\n      jump\t// in\n    tag_43:\n        /* \"#utility.yul\":815:844   */\n      tag_45\n        /* \"#utility.yul\":837:843   */\n      dup2\n        /* \"#utility.yul\":815:844   */\n      tag_46\n      jump\t// in\n    tag_45:\n        /* \"#utility.yul\":810:813   */\n      dup5\n        /* \"#utility.yul\":806:845   */\n      add\n        /* \"#utility.yul\":799:845   */\n      swap2\n      pop\n        /* \"#utility.yul\":579:851   */\n      pop\n        /* \"#utility.yul\":487:851   */\n      swap3\n      swap2\n      pop\n      pop\n      jump\t// out\n        /* \"#utility.yul\":857:975   */\n    tag_47:\n        /* \"#utility.yul\":944:968   */\n      tag_49\n        /* \"#utility.yul\":962:967   */\n      dup2\n        /* \"#utility.yul\":944:968   */\n      tag_50\n      jump\t// in\n    tag_49:\n        /* \"#utility.yul\":939:942   */\n      dup3\n        /* \"#utility.yul\":932:969   */\n      mstore\n        /* \"#utility.yul\":857:975   */\n      pop\n      pop\n      jump\t// out\n        /* \"#utility.yul\":981:1294   */\n    tag_9:\n        /* \"#utility.yul\":1094:1098   */\n      0x00\n        /* \"#utility.yul\":1132:1134   */\n      0x20\n        /* \"#utility.yul\":1121:1130   */\n      dup3\n        /* \"#utility.yul\":1117:1135   */\n      add\n        /* \"#utility.yul\":1109:1135   */\n      swap1\n      pop\n        /* \"#utility.yul\":1181:1190   */\n      dup2\n        /* \"#utility.yul\":1175:1179   */\n      dup2\n        /* \"#utility.yul\":1171:1191   */\n      sub\n        /* \"#utility.yul\":1167:1168   */\n      0x00\n        /* \"#utility.yul\":1156:1165   */\n      dup4\n        /* \"#utility.yul\":1152:1169   */\n      add\n        /* \"#utility.yul\":1145:1192   */\n      mstore\n        /* \"#utility.yul\":1209:1287   */\n      tag_52\n        /* \"#utility.yul\":1282:1286   */\n      dup2\n        /* \"#utility.yul\":1273:1279   */\n      dup5\n        /* \"#utility.yul\":1209:1287   */\n      tag_37\n      jump\t// in\n    tag_52:\n        /* \"#utility.yul\":1201:1287   */\n      swap1\n      pop\n        /* \"#utility.yul\":981:1294   */\n      swap3\n      swap2\n      pop\n      pop\n      jump\t// out\n        /* \"#utility.yul\":1300:1522   */\n    tag_15:\n        /* \"#utility.yul\":1393:1397   */\n      0x00\n        /* \"#utility.yul\":1431:1433   */\n      0x20\n        /* \"#utility.yul\":1420:1429   */\n      dup3\n        /* \"#utility.yul\":1416:1434   */\n      add\n        /* \"#utility.yul\":1408:1434   */\n      swap1\n      pop\n        /* \"#utility.yul\":1444:1515   */\n      tag_54\n        /* \"#utility.yul\":1512:1513   */\n      0x00\n        /* \"#utility.yul\":1501:1510   */\n      dup4\n        /* \"#utility.yul\":1497:1514   */\n      add\n        /* \"#utility.yul\":1488:1494   */\n      dup5\n        /* \"#utility.yul\":1444:1515   */\n      tag_47\n      jump\t// in\n    tag_54:\n        /* \"#utility.yul\":1300:1522   */\n      swap3\n      swap2\n      pop\n      pop\n      jump\t// out\n        /* \"#utility.yul\":1609:1708   */\n    tag_40:\n        /* \"#utility.yul\":1661:1667   */\n      0x00\n        /* \"#utility.yul\":1695:1700   */\n      dup2\n        /* \"#utility.yul\":1689:1701   */\n      mload\n        /* \"#utility.yul\":1679:1701   */\n      swap1\n      pop\n        /* \"#utility.yul\":1609:1708   */\n      swap2\n      swap1\n      pop\n      jump\t// out\n        /* \"#utility.yul\":1714:1883   */\n    tag_42:\n        /* \"#utility.yul\":1798:1809   */\n      0x00\n        /* \"#utility.yul\":1832:1838   */\n      dup3\n        /* \"#utility.yul\":1827:1830   */\n      dup3\n        /* \"#utility.yul\":1820:1839   */\n      mstore\n        /* \"#utility.yul\":1872:1876   */\n      0x20\n        /* \"#utility.yul\":1867:1870   */\n      dup3\n        /* \"#utility.yul\":1863:1877   */\n      add\n        /* \"#utility.yul\":1848:1877   */\n      swap1\n      pop\n        /* \"#utility.yul\":1714:1883   */\n      swap3\n      swap2\n      pop\n      pop\n      jump\t// out\n        /* \"#utility.yul\":1889:1966   */\n    tag_50:\n        /* \"#utility.yul\":1926:1933   */\n      0x00\n        /* \"#utility.yul\":1955:1960   */\n      dup2\n        /* \"#utility.yul\":1944:1960   */\n      swap1\n      pop\n        /* \"#utility.yul\":1889:1966   */\n      swap2\n      swap1\n      pop\n      jump\t// out\n        /* \"#utility.yul\":1972:2279   */\n    tag_44:\n        /* \"#utility.yul\":2040:2041   */\n      0x00\n        /* \"#utility.yul\":2050:2163   */\n    tag_61:\n        /* \"#utility.yul\":2064:2070   */\n      dup4\n        /* \"#utility.yul\":2061:2062   */\n      dup2\n        /* \"#utility.yul\":2058:2071   */\n      lt\n        /* \"#utility.yul\":2050:2163   */\n      iszero\n      tag_63\n      jumpi\n        /* \"#utility.yul\":2149:2150   */\n      dup1\n        /* \"#utility.yul\":2144:2147   */\n      dup3\n        /* \"#utility.yul\":2140:2151   */\n      add\n        /* \"#utility.yul\":2134:2152   */\n      mload\n        /* \"#utility.yul\":2130:2131   */\n      dup2\n        /* \"#utility.yul\":2125:2128   */\n      dup5\n        /* \"#utility.yul\":2121:2132   */\n      add\n        /* \"#utility.yul\":2114:2153   */\n      mstore\n        /* \"#utility.yul\":2086:2088   */\n      0x20\n        /* \"#utility.yul\":2083:2084   */\n      dup2\n        /* \"#utility.yul\":2079:2089   */\n      add\n        /* \"#utility.yul\":2074:2089   */\n      swap1\n      pop\n        /* \"#utility.yul\":2050:2163   */\n      jump(tag_61)\n    tag_63:\n        /* \"#utility.yul\":2181:2187   */\n      dup4\n        /* \"#utility.yul\":2178:2179   */\n      dup2\n        /* \"#utility.yul\":2175:2188   */\n      gt\n        /* \"#utility.yul\":2172:2273   */\n      iszero\n      tag_64\n      jumpi\n        /* \"#utility.yul\":2261:2262   */\n      0x00\n        /* \"#utility.yul\":2252:2258   */\n      dup5\n        /* \"#utility.yul\":2247:2250   */\n      dup5\n        /* \"#utility.yul\":2243:2259   */\n      add\n        /* \"#utility.yul\":2236:2263   */\n      mstore\n        /* \"#utility.yul\":2172:2273   */\n    tag_64:\n        /* \"#utility.yul\":2021:2279   */\n      pop\n        /* \"#utility.yul\":1972:2279   */\n      pop\n      pop\n      pop\n      jump\t// out\n        /* \"#utility.yul\":2285:2605   */\n    tag_20:\n        /* \"#utility.yul\":2329:2335   */\n      0x00\n        /* \"#utility.yul\":2366:2367   */\n      0x02\n        /* \"#utility.yul\":2360:2364   */\n      dup3\n        /* \"#utility.yul\":2356:2368   */\n      div\n        /* \"#utility.yul\":2346:2368   */\n      swap1\n      pop\n        /* \"#utility.yul\":2413:2414   */\n      0x01\n        /* \"#utility.yul\":2407:2411   */\n      dup3\n        /* \"#utility.yul\":2403:2415   */\n      and\n        /* \"#utility.yul\":2434:2452   */\n      dup1\n        /* \"#utility.yul\":2424:2505   */\n      tag_66\n      jumpi\n        /* \"#utility.yul\":2490:2494   */\n      0x7f\n        /* \"#utility.yul\":2482:2488   */\n      dup3\n        /* \"#utility.yul\":2478:2495   */\n      and\n        /* \"#utility.yul\":2468:2495   */\n      swap2\n      pop\n        /* \"#utility.yul\":2424:2505   */\n    tag_66:\n        /* \"#utility.yul\":2552:2554   */\n      0x20\n        /* \"#utility.yul\":2544:2550   */\n      dup3\n        /* \"#utility.yul\":2541:2555   */\n      lt\n        /* \"#utility.yul\":2521:2539   */\n      dup2\n        /* \"#utility.yul\":2518:2556   */\n      eq\n        /* \"#utility.yul\":2515:2599   */\n      iszero\n      tag_67\n      jumpi\n        /* \"#utility.yul\":2571:2589   */\n      tag_68\n      tag_69\n      jump\t// in\n    tag_68:\n        /* \"#utility.yul\":2515:2599   */\n    tag_67:\n        /* \"#utility.yul\":2336:2605   */\n      pop\n        /* \"#utility.yul\":2285:2605   */\n      swap2\n      swap1\n      pop\n      jump\t// out\n        /* \"#utility.yul\":2611:2791   */\n    tag_69:\n        /* \"#utility.yul\":2659:2736   */\n      0x4e487b7100000000000000000000000000000000000000000000000000000000\n        /* \"#utility.yul\":2656:2657   */\n      0x00\n        /* \"#utility.yul\":2649:2737   */\n      mstore\n        /* \"#utility.yul\":2756:2760   */\n      0x22\n        /* \"#utility.yul\":2753:2754   */\n      0x04\n        /* \"#utility.yul\":2746:2761   */\n      mstore\n        /* \"#utility.yul\":2780:2784   */\n      0x24\n        /* \"#utility.yul\":2777:2778   */\n      0x00\n        /* \"#utility.yul\":2770:2785   */\n      revert\n        /* \"#utility.yul\":2920:3037   */\n    tag_35:\n        /* \"#utility.yul\":3029:3030   */\n      0x00\n        /* \"#utility.yul\":3026:3027   */\n      dup1\n        /* \"#utility.yul\":3019:3031   */\n      revert\n        /* \"#utility.yul\":3043:3145   */\n    tag_46:\n        /* \"#utility.yul\":3084:3090   */\n      0x00\n        /* \"#utility.yul\":3135:3137   */\n      0x1f\n        /* \"#utility.yul\":3131:3138   */\n      not\n        /* \"#utility.yul\":3126:3128   */\n      0x1f\n        /* \"#utility.yul\":3119:3124   */\n      dup4\n        /* \"#utility.yul\":3115:3129   */\n      add\n        /* \"#utility.yul\":3111:3139   */\n      and\n        /* \"#utility.yul\":3101:3139   */\n      swap1\n      pop\n        /* \"#utility.yul\":3043:3145   */\n      swap2\n      swap1\n      pop\n      jump\t// out\n        /* \"#utility.yul\":3151:3273   */\n    tag_31:\n        /* \"#utility.yul\":3224:3248   */\n      tag_76\n        /* \"#utility.yul\":3242:3247   */\n      dup2\n        /* \"#utility.yul\":3224:3248   */\n      tag_50\n      jump\t// in\n    tag_76:\n        /* \"#utility.yul\":3217:3222   */\n      dup2\n        /* \"#utility.yul\":3214:3249   */\n      eq\n        /* \"#utility.yul\":3204:3267   */\n      tag_77\n      jumpi\n        /* \"#utility.yul\":3263:3264   */\n      0x00\n        /* \"#utility.yul\":3260:3261   */\n      dup1\n        /* \"#utility.yul\":3253:3265   */\n      revert\n        /* \"#utility.yul\":3204:3267   */\n    tag_77:\n        /* \"#utility.yul\":3151:3273   */\n      pop\n      jump\t// out\n\n    auxdata: 0xa2646970667358221220b7887134080c2788575870baf9146fd2d07981d6bc127f9ccdfe71ce4f16ea6d64736f6c63430008070033\n}\n",
				"bytecode": {
					"linkReferences": {},
					"object": "608060405234801561001057600080fd5b506040516107363803806107368339818101604052810190610032919061024d565b8015610089576040518060400160405280600e81526020017f436f6e646963696f6e205472756500000000000000000000000000000000000081525060019080519060200190610083929190610195565b506100d6565b6040518060400160405280600f81526020017f436f6e646963696f6e2046616c73650000000000000000000000000000000000815250600190805190602001906100d4929190610195565b505b7f2c292fe5c0ec87281a1bef4b3e1b7a5983baaabece4a8d820a407575ff7d6e9c816040516101059190610298565b60405180910390a160005b600a811015610155576000819080600181540180825580915050600190039060005260206000200160009091909190915055808061014d90610316565b915050610110565b507f376f24d22d947de07931f2c88ee57acc5886ac99c00866b4f4183134bc1e1aed60025460405161018791906102b3565b60405180910390a1506103d9565b8280546101a1906102e4565b90600052602060002090601f0160209004810192826101c3576000855561020a565b82601f106101dc57805160ff191683800117855561020a565b8280016001018555821561020a579182015b828111156102095782518255916020019190600101906101ee565b5b509050610217919061021b565b5090565b5b8082111561023457600081600090555060010161021c565b5090565b600081519050610247816103c2565b92915050565b600060208284031215610263576102626103bd565b5b600061027184828501610238565b91505092915050565b610283816102ce565b82525050565b610292816102da565b82525050565b60006020820190506102ad600083018461027a565b92915050565b60006020820190506102c86000830184610289565b92915050565b60008115159050919050565b6000819050919050565b600060028204905060018216806102fc57607f821691505b602082108114156103105761030f61038e565b5b50919050565b6000610321826102da565b91507fffffffffffffffffffffffffffffffffffffffffffffffffffffffffffffffff8214156103545761035361035f565b5b600182019050919050565b7f4e487b7100000000000000000000000000000000000000000000000000000000600052601160045260246000fd5b7f4e487b7100000000000000000000000000000000000000000000000000000000600052602260045260246000fd5b600080fd5b6103cb816102ce565b81146103d657600080fd5b50565b61034e806103e86000396000f3fe608060405234801561001057600080fd5b50600436106100415760003560e01c80635206f100146100465780638dc5074b14610064578063ebff390e14610094575b600080fd5b61004e6100b2565b60405161005b91906101f4565b60405180910390f35b61007e6004803603810190610079919061017f565b610140565b60405161008b9190610216565b60405180910390f35b61009c610164565b6040516100a99190610216565b60405180910390f35b600180546100bf9061028a565b80601f01602080910402602001604051908101604052809291908181526020018280546100eb9061028a565b80156101385780601f1061010d57610100808354040283529160200191610138565b820191906000526020600020905b81548152906001019060200180831161011b57829003601f168201915b505050505081565b6000818154811061015057600080fd5b906000526020600020016000915090505481565b60025481565b60008135905061017981610301565b92915050565b600060208284031215610195576101946102eb565b5b60006101a38482850161016a565b91505092915050565b60006101b782610231565b6101c1818561023c565b93506101d1818560208601610257565b6101da816102f0565b840191505092915050565b6101ee8161024d565b82525050565b6000602082019050818103600083015261020e81846101ac565b905092915050565b600060208201905061022b60008301846101e5565b92915050565b600081519050919050565b600082825260208201905092915050565b6000819050919050565b60005b8381101561027557808201518184015260208101905061025a565b83811115610284576000848401525b50505050565b600060028204905060018216806102a257607f821691505b602082108114156102b6576102b56102bc565b5b50919050565b7f4e487b7100000000000000000000000000000000000000000000000000000000600052602260045260246000fd5b600080fd5b6000601f19601f8301169050919050565b61030a8161024d565b811461031557600080fd5b5056fea2646970667358221220b7887134080c2788575870baf9146fd2d07981d6bc127f9ccdfe71ce4f16ea6d64736f6c63430008070033",
					"opcodes": "PUSH1 0x80 PUSH1 0x40 MSTORE CALLVALUE DUP1 ISZERO PUSH2 0x10 JUMPI PUSH1 0x0 DUP1 REVERT JUMPDEST POP PUSH1 0x40 MLOAD PUSH2 0x736 CODESIZE SUB DUP1 PUSH2 0x736 DUP4 CODECOPY DUP2 DUP2 ADD PUSH1 0x40 MSTORE DUP2 ADD SWAP1 PUSH2 0x32 SWAP2 SWAP1 PUSH2 0x24D JUMP JUMPDEST DUP1 ISZERO PUSH2 0x89 JUMPI PUSH1 0x40 MLOAD DUP1 PUSH1 0x40 ADD PUSH1 0x40 MSTORE DUP1 PUSH1 0xE DUP2 MSTORE PUSH1 0x20 ADD PUSH32 0x436F6E646963696F6E2054727565000000000000000000000000000000000000 DUP2 MSTORE POP PUSH1 0x1 SWAP1 DUP1 MLOAD SWAP1 PUSH1 0x20 ADD SWAP1 PUSH2 0x83 SWAP3 SWAP2 SWAP1 PUSH2 0x195 JUMP JUMPDEST POP PUSH2 0xD6 JUMP JUMPDEST PUSH1 0x40 MLOAD DUP1 PUSH1 0x40 ADD PUSH1 0x40 MSTORE DUP1 PUSH1 0xF DUP2 MSTORE PUSH1 0x20 ADD PUSH32 0x436F6E646963696F6E2046616C73650000000000000000000000000000000000 DUP2 MSTORE POP PUSH1 0x1 SWAP1 DUP1 MLOAD SWAP1 PUSH1 0x20 ADD SWAP1 PUSH2 0xD4 SWAP3 SWAP2 SWAP1 PUSH2 0x195 JUMP JUMPDEST POP JUMPDEST PUSH32 0x2C292FE5C0EC87281A1BEF4B3E1B7A5983BAAABECE4A8D820A407575FF7D6E9C DUP2 PUSH1 0x40 MLOAD PUSH2 0x105 SWAP2 SWAP1 PUSH2 0x298 JUMP JUMPDEST PUSH1 0x40 MLOAD DUP1 SWAP2 SUB SWAP1 LOG1 PUSH1 0x0 JUMPDEST PUSH1 0xA DUP2 LT ISZERO PUSH2 0x155 JUMPI PUSH1 0x0 DUP2 SWAP1 DUP1 PUSH1 0x1 DUP2 SLOAD ADD DUP1 DUP3 SSTORE DUP1 SWAP2 POP POP PUSH1 0x1 SWAP1 SUB SWAP1 PUSH1 0x0 MSTORE PUSH1 0x20 PUSH1 0x0 KECCAK256 ADD PUSH1 0x0 SWAP1 SWAP2 SWAP1 SWAP2 SWAP1 SWAP2 POP SSTORE DUP1 DUP1 PUSH2 0x14D SWAP1 PUSH2 0x316 JUMP JUMPDEST SWAP2 POP POP PUSH2 0x110 JUMP JUMPDEST POP PUSH32 0x376F24D22D947DE07931F2C88EE57ACC5886AC99C00866B4F4183134BC1E1AED PUSH1 0x2 SLOAD PUSH1 0x40 MLOAD PUSH2 0x187 SWAP2 SWAP1 PUSH2 0x2B3 JUMP JUMPDEST PUSH1 0x40 MLOAD DUP1 SWAP2 SUB SWAP1 LOG1 POP PUSH2 0x3D9 JUMP JUMPDEST DUP3 DUP1 SLOAD PUSH2 0x1A1 SWAP1 PUSH2 0x2E4 JUMP JUMPDEST SWAP1 PUSH1 0x0 MSTORE PUSH1 0x20 PUSH1 0x0 KECCAK256 SWAP1 PUSH1 0x1F ADD PUSH1 0x20 SWAP1 DIV DUP2 ADD SWAP3 DUP3 PUSH2 0x1C3 JUMPI PUSH1 0x0 DUP6 SSTORE PUSH2 0x20A JUMP JUMPDEST DUP3 PUSH1 0x1F LT PUSH2 0x1DC JUMPI DUP1 MLOAD PUSH1 0xFF NOT AND DUP4 DUP1 ADD OR DUP6 SSTORE PUSH2 0x20A JUMP JUMPDEST DUP3 DUP1 ADD PUSH1 0x1 ADD DUP6 SSTORE DUP3 ISZERO PUSH2 0x20A JUMPI SWAP2 DUP3 ADD JUMPDEST DUP3 DUP2 GT ISZERO PUSH2 0x209 JUMPI DUP3 MLOAD DUP3 SSTORE SWAP2 PUSH1 0x20 ADD SWAP2 SWAP1 PUSH1 0x1 ADD SWAP1 PUSH2 0x1EE JUMP JUMPDEST JUMPDEST POP SWAP1 POP PUSH2 0x217 SWAP2 SWAP1 PUSH2 0x21B JUMP JUMPDEST POP SWAP1 JUMP JUMPDEST JUMPDEST DUP1 DUP3 GT ISZERO PUSH2 0x234 JUMPI PUSH1 0x0 DUP2 PUSH1 0x0 SWAP1 SSTORE POP PUSH1 0x1 ADD PUSH2 0x21C JUMP JUMPDEST POP SWAP1 JUMP JUMPDEST PUSH1 0x0 DUP2 MLOAD SWAP1 POP PUSH2 0x247 DUP2 PUSH2 0x3C2 JUMP JUMPDEST SWAP3 SWAP2 POP POP JUMP JUMPDEST PUSH1 0x0 PUSH1 0x20 DUP3 DUP5 SUB SLT ISZERO PUSH2 0x263 JUMPI PUSH2 0x262 PUSH2 0x3BD JUMP JUMPDEST JUMPDEST PUSH1 0x0 PUSH2 0x271 DUP5 DUP3 DUP6 ADD PUSH2 0x238 JUMP JUMPDEST SWAP2 POP POP SWAP3 SWAP2 POP POP JUMP JUMPDEST PUSH2 0x283 DUP2 PUSH2 0x2CE JUMP JUMPDEST DUP3 MSTORE POP POP JUMP JUMPDEST PUSH2 0x292 DUP2 PUSH2 0x2DA JUMP JUMPDEST DUP3 MSTORE POP POP JUMP JUMPDEST PUSH1 0x0 PUSH1 0x20 DUP3 ADD SWAP1 POP PUSH2 0x2AD PUSH1 0x0 DUP4 ADD DUP5 PUSH2 0x27A JUMP JUMPDEST SWAP3 SWAP2 POP POP JUMP JUMPDEST PUSH1 0x0 PUSH1 0x20 DUP3 ADD SWAP1 POP PUSH2 0x2C8 PUSH1 0x0 DUP4 ADD DUP5 PUSH2 0x289 JUMP JUMPDEST SWAP3 SWAP2 POP POP JUMP JUMPDEST PUSH1 0x0 DUP2 ISZERO ISZERO SWAP1 POP SWAP2 SWAP1 POP JUMP JUMPDEST PUSH1 0x0 DUP2 SWAP1 POP SWAP2 SWAP1 POP JUMP JUMPDEST PUSH1 0x0 PUSH1 0x2 DUP3 DIV SWAP1 POP PUSH1 0x1 DUP3 AND DUP1 PUSH2 0x2FC JUMPI PUSH1 0x7F DUP3 AND SWAP2 POP JUMPDEST PUSH1 0x20 DUP3 LT DUP2 EQ ISZERO PUSH2 0x310 JUMPI PUSH2 0x30F PUSH2 0x38E JUMP JUMPDEST JUMPDEST POP SWAP2 SWAP1 POP JUMP JUMPDEST PUSH1 0x0 PUSH2 0x321 DUP3 PUSH2 0x2DA JUMP JUMPDEST SWAP2 POP PUSH32 0xFFFFFFFFFFFFFFFFFFFFFFFFFFFFFFFFFFFFFFFFFFFFFFFFFFFFFFFFFFFFFFFF DUP3 EQ ISZERO PUSH2 0x354 JUMPI PUSH2 0x353 PUSH2 0x35F JUMP JUMPDEST JUMPDEST PUSH1 0x1 DUP3 ADD SWAP1 POP SWAP2 SWAP1 POP JUMP JUMPDEST PUSH32 0x4E487B7100000000000000000000000000000000000000000000000000000000 PUSH1 0x0 MSTORE PUSH1 0x11 PUSH1 0x4 MSTORE PUSH1 0x24 PUSH1 0x0 REVERT JUMPDEST PUSH32 0x4E487B7100000000000000000000000000000000000000000000000000000000 PUSH1 0x0 MSTORE PUSH1 0x22 PUSH1 0x4 MSTORE PUSH1 0x24 PUSH1 0x0 REVERT JUMPDEST PUSH1 0x0 DUP1 REVERT JUMPDEST PUSH2 0x3CB DUP2 PUSH2 0x2CE JUMP JUMPDEST DUP2 EQ PUSH2 0x3D6 JUMPI PUSH1 0x0 DUP1 REVERT JUMPDEST POP JUMP JUMPDEST PUSH2 0x34E DUP1 PUSH2 0x3E8 PUSH1 0x0 CODECOPY PUSH1 0x0 RETURN INVALID PUSH1 0x80 PUSH1 0x40 MSTORE CALLVALUE DUP1 ISZERO PUSH2 0x10 JUMPI PUSH1 0x0 DUP1 REVERT JUMPDEST POP PUSH1 0x4 CALLDATASIZE LT PUSH2 0x41 JUMPI PUSH1 0x0 CALLDATALOAD PUSH1 0xE0 SHR DUP1 PUSH4 0x5206F100 EQ PUSH2 0x46 JUMPI DUP1 PUSH4 0x8DC5074B EQ PUSH2 0x64 JUMPI DUP1 PUSH4 0xEBFF390E EQ PUSH2 0x94 JUMPI JUMPDEST PUSH1 0x0 DUP1 REVERT JUMPDEST PUSH2 0x4E PUSH2 0xB2 JUMP JUMPDEST PUSH1 0x40 MLOAD PUSH2 0x5B SWAP2 SWAP1 PUSH2 0x1F4 JUMP JUMPDEST PUSH1 0x40 MLOAD DUP1 SWAP2 SUB SWAP1 RETURN JUMPDEST PUSH2 0x7E PUSH1 0x4 DUP1 CALLDATASIZE SUB DUP2 ADD SWAP1 PUSH2 0x79 SWAP2 SWAP1 PUSH2 0x17F JUMP JUMPDEST PUSH2 0x140 JUMP JUMPDEST PUSH1 0x40 MLOAD PUSH2 0x8B SWAP2 SWAP1 PUSH2 0x216 JUMP JUMPDEST PUSH1 0x40 MLOAD DUP1 SWAP2 SUB SWAP1 RETURN JUMPDEST PUSH2 0x9C PUSH2 0x164 JUMP JUMPDEST PUSH1 0x40 MLOAD PUSH2 0xA9 SWAP2 SWAP1 PUSH2 0x216 JUMP JUMPDEST PUSH1 0x40 MLOAD DUP1 SWAP2 SUB SWAP1 RETURN JUMPDEST PUSH1 0x1 DUP1 SLOAD PUSH2 0xBF SWAP1 PUSH2 0x28A JUMP JUMPDEST DUP1 PUSH1 0x1F ADD PUSH1 0x20 DUP1 SWAP2 DIV MUL PUSH1 0x20 ADD PUSH1 0x40 MLOAD SWAP1 DUP2 ADD PUSH1 0x40 MSTORE DUP1 SWAP3 SWAP2 SWAP1 DUP2 DUP2 MSTORE PUSH1 0x20 ADD DUP3 DUP1 SLOAD PUSH2 0xEB SWAP1 PUSH2 0x28A JUMP JUMPDEST DUP1 ISZERO PUSH2 0x138 JUMPI DUP1 PUSH1 0x1F LT PUSH2 0x10D JUMPI PUSH2 0x100 DUP1 DUP4 SLOAD DIV MUL DUP4 MSTORE SWAP2 PUSH1 0x20 ADD SWAP2 PUSH2 0x138 JUMP JUMPDEST DUP3 ADD SWAP2 SWAP1 PUSH1 0x0 MSTORE PUSH1 0x20 PUSH1 0x0 KECCAK256 SWAP1 JUMPDEST DUP2 SLOAD DUP2 MSTORE SWAP1 PUSH1 0x1 ADD SWAP1 PUSH1 0x20 ADD DUP1 DUP4 GT PUSH2 0x11B JUMPI DUP3 SWAP1 SUB PUSH1 0x1F AND DUP3 ADD SWAP2 JUMPDEST POP POP POP POP POP DUP2 JUMP JUMPDEST PUSH1 0x0 DUP2 DUP2 SLOAD DUP2 LT PUSH2 0x150 JUMPI PUSH1 0x0 DUP1 REVERT JUMPDEST SWAP1 PUSH1 0x0 MSTORE PUSH1 0x20 PUSH1 0x0 KECCAK256 ADD PUSH1 0x0 SWAP2 POP SWAP1 POP SLOAD DUP2 JUMP JUMPDEST PUSH1 0x2 SLOAD DUP2 JUMP JUMPDEST PUSH1 0x0 DUP2 CALLDATALOAD SWAP1 POP PUSH2 0x179 DUP2 PUSH2 0x301 JUMP JUMPDEST SWAP3 SWAP2 POP POP JUMP JUMPDEST PUSH1 0x0 PUSH1 0x20 DUP3 DUP5 SUB SLT ISZERO PUSH2 0x195 JUMPI PUSH2 0x194 PUSH2 0x2EB JUMP JUMPDEST JUMPDEST PUSH1 0x0 PUSH2 0x1A3 DUP5 DUP3 DUP6 ADD PUSH2 0x16A JUMP JUMPDEST SWAP2 POP POP SWAP3 SWAP2 POP POP JUMP JUMPDEST PUSH1 0x0 PUSH2 0x1B7 DUP3 PUSH2 0x231 JUMP JUMPDEST PUSH2 0x1C1 DUP2 DUP6 PUSH2 0x23C JUMP JUMPDEST SWAP4 POP PUSH2 0x1D1 DUP2 DUP6 PUSH1 0x20 DUP7 ADD PUSH2 0x257 JUMP JUMPDEST PUSH2 0x1DA DUP2 PUSH2 0x2F0 JUMP JUMPDEST DUP5 ADD SWAP2 POP POP SWAP3 SWAP2 POP POP JUMP JUMPDEST PUSH2 0x1EE DUP2 PUSH2 0x24D JUMP JUMPDEST DUP3 MSTORE POP POP JUMP JUMPDEST PUSH1 0x0 PUSH1 0x20 DUP3 ADD SWAP1 POP DUP2 DUP2 SUB PUSH1 0x0 DUP4 ADD MSTORE PUSH2 0x20E DUP2 DUP5 PUSH2 0x1AC JUMP JUMPDEST SWAP1 POP SWAP3 SWAP2 POP POP JUMP JUMPDEST PUSH1 0x0 PUSH1 0x20 DUP3 ADD SWAP1 POP PUSH2 0x22B PUSH1 0x0 DUP4 ADD DUP5 PUSH2 0x1E5 JUMP JUMPDEST SWAP3 SWAP2 POP POP JUMP JUMPDEST PUSH1 0x0 DUP2 MLOAD SWAP1 POP SWAP2 SWAP1 POP JUMP JUMPDEST PUSH1 0x0 DUP3 DUP3 MSTORE PUSH1 0x20 DUP3 ADD SWAP1 POP SWAP3 SWAP2 POP POP JUMP JUMPDEST PUSH1 0x0 DUP2 SWAP1 POP SWAP2 SWAP1 POP JUMP JUMPDEST PUSH1 0x0 JUMPDEST DUP4 DUP2 LT ISZERO PUSH2 0x275 JUMPI DUP1 DUP3 ADD MLOAD DUP2 DUP5 ADD MSTORE PUSH1 0x20 DUP2 ADD SWAP1 POP PUSH2 0x25A JUMP JUMPDEST DUP4 DUP2 GT ISZERO PUSH2 0x284 JUMPI PUSH1 0x0 DUP5 DUP5 ADD MSTORE JUMPDEST POP POP POP POP JUMP JUMPDEST PUSH1 0x0 PUSH1 0x2 DUP3 DIV SWAP1 POP PUSH1 0x1 DUP3 AND DUP1 PUSH2 0x2A2 JUMPI PUSH1 0x7F DUP3 AND SWAP2 POP JUMPDEST PUSH1 0x20 DUP3 LT DUP2 EQ ISZERO PUSH2 0x2B6 JUMPI PUSH2 0x2B5 PUSH2 0x2BC JUMP JUMPDEST JUMPDEST POP SWAP2 SWAP1 POP JUMP JUMPDEST PUSH32 0x4E487B7100000000000000000000000000000000000000000000000000000000 PUSH1 0x0 MSTORE PUSH1 0x22 PUSH1 0x4 MSTORE PUSH1 0x24 PUSH1 0x0 REVERT JUMPDEST PUSH1 0x0 DUP1 REVERT JUMPDEST PUSH1 0x0 PUSH1 0x1F NOT PUSH1 0x1F DUP4 ADD AND SWAP1 POP SWAP2 SWAP1 POP JUMP JUMPDEST PUSH2 0x30A DUP2 PUSH2 0x24D JUMP JUMPDEST DUP2 EQ PUSH2 0x315 JUMPI PUSH1 0x0 DUP1 REVERT JUMPDEST POP JUMP INVALID LOG2 PUSH5 0x6970667358 0x22 SLT KECCAK256 0xB7 DUP9 PUSH18 0x34080C2788575870BAF9146FD2D07981D6BC SLT PUSH32 0x9CCDFE71CE4F16EA6D64736F6C63430008070033000000000000000000000000 "
				},
				"gasEstimates": {
					"creation": {
						"codeDepositCost": "169200",
						"executionCost": "infinite",
						"totalCost": "infinite"
					},
					"external": {
						"numero(uint256)": "infinite",
						"resultado()": "infinite",
						"signo()": "2451"
					}
				},
				"methodIdentifiers": {
					"numero(uint256)": "8dc5074b",
					"resultado()": "5206f100",
					"signo()": "ebff390e"
				}
			},
			"storageLayout": {
				"storage": [
					{
						"astId": 4,
						"contract": "contracts/EstructurasDeControl.sol:EstructurasDeControl",
						"label": "numero",
						"offset": 0,
						"slot": "0",
						"type": "t_array(t_uint256)dyn_storage"
					},
					{
						"astId": 6,
						"contract": "contracts/EstructurasDeControl.sol:EstructurasDeControl",
						"label": "resultado",
						"offset": 0,
						"slot": "1",
						"type": "t_string_storage"
					},
					{
						"astId": 8,
						"contract": "contracts/EstructurasDeControl.sol:EstructurasDeControl",
						"label": "signo",
						"offset": 0,
						"slot": "2",
						"type": "t_uint256"
					}
				],
				"types": {
					"t_array(t_uint256)dyn_storage": {
						"base": "t_uint256",
						"encoding": "dynamic_array",
						"label": "uint256[]",
						"numberOfBytes": "32"
					},
					"t_string_storage": {
						"encoding": "bytes",
						"label": "string",
						"numberOfBytes": "32"
					},
					"t_uint256": {
						"encoding": "inplace",
						"label": "uint256",
						"numberOfBytes": "32"
					}
				}
			},
			"userdoc": {
				"kind": "user",
				"methods": {},
				"version": 1
			}
		}
	}
}