{
	"contracts/Mappings.sol": {
		"Saldo": {
			"abi": [
				{
					"inputs": [],
					"stateMutability": "nonpayable",
					"type": "constructor"
				},
				{
					"inputs": [
						{
							"internalType": "address",
							"name": "",
							"type": "address"
						}
					],
					"name": "balance",
					"outputs": [
						{
							"internalType": "uint256",
							"name": "",
							"type": "uint256"
						}
					],
					"stateMutability": "view",
					"type": "function"
				},
				{
					"inputs": [],
					"name": "estadoDelContrato",
					"outputs": [
						{
							"internalType": "enum Saldo.Estado",
							"name": "",
							"type": "uint8"
						}
					],
					"stateMutability": "view",
					"type": "function"
				}
			],
			"devdoc": {
				"kind": "dev",
				"methods": {},
				"version": 1
			},
			"evm": {
				"assembly": "    /* \"contracts/Mappings.sol\":74:996  contract Saldo {\r... */\n  mstore(0x40, 0x80)\n    /* \"contracts/Mappings.sol\":585:800  constructor () {\r... */\n  callvalue\n  dup1\n  iszero\n  tag_1\n  jumpi\n  0x00\n  dup1\n  revert\ntag_1:\n  pop\n    /* \"contracts/Mappings.sol\":633:648  Estado.Iniciado */\n  0x00\n    /* \"contracts/Mappings.sol\":613:630  estadoDelContrato */\n  0x01\n  0x00\n    /* \"contracts/Mappings.sol\":613:648  estadoDelContrato = Estado.Iniciado */\n  0x0100\n  exp\n  dup2\n  sload\n  dup2\n  0xff\n  mul\n  not\n  and\n  swap1\n  dup4\n  0x01\n  dup2\n  gt\n  iszero\n  tag_4\n  jumpi\n  tag_5\n  tag_6\n  jump\t// in\ntag_5:\ntag_4:\n  mul\n  or\n  swap1\n  sstore\n  pop\n    /* \"contracts/Mappings.sol\":683:687  1000 */\n  0x03e8\n    /* \"contracts/Mappings.sol\":661:668  balance */\n  0x00\n    /* \"contracts/Mappings.sol\":661:680  balance[msg.sender] */\n  dup1\n    /* \"contracts/Mappings.sol\":669:679  msg.sender */\n  caller\n    /* \"contracts/Mappings.sol\":661:680  balance[msg.sender] */\n  0xffffffffffffffffffffffffffffffffffffffff\n  and\n  0xffffffffffffffffffffffffffffffffffffffff\n  and\n  dup2\n  mstore\n  0x20\n  add\n  swap1\n  dup2\n  mstore\n  0x20\n  add\n  0x00\n  keccak256\n    /* \"contracts/Mappings.sol\":661:687  balance[msg.sender] = 1000 */\n  dup2\n  swap1\n  sstore\n  pop\n    /* \"contracts/Mappings.sol\":775:792  Estado.Finalizado */\n  0x01\n    /* \"contracts/Mappings.sol\":755:772  estadoDelContrato */\n  dup1\n  0x00\n    /* \"contracts/Mappings.sol\":755:792  estadoDelContrato = Estado.Finalizado */\n  0x0100\n  exp\n  dup2\n  sload\n  dup2\n  0xff\n  mul\n  not\n  and\n  swap1\n  dup4\n  0x01\n  dup2\n  gt\n  iszero\n  tag_7\n  jumpi\n  tag_8\n  tag_6\n  jump\t// in\ntag_8:\ntag_7:\n  mul\n  or\n  swap1\n  sstore\n  pop\n    /* \"contracts/Mappings.sol\":74:996  contract Saldo {\r... */\n  jump(tag_9)\n    /* \"#utility.yul\":7:187   */\ntag_6:\n    /* \"#utility.yul\":55:132   */\n  0x4e487b7100000000000000000000000000000000000000000000000000000000\n    /* \"#utility.yul\":52:53   */\n  0x00\n    /* \"#utility.yul\":45:133   */\n  mstore\n    /* \"#utility.yul\":152:156   */\n  0x21\n    /* \"#utility.yul\":149:150   */\n  0x04\n    /* \"#utility.yul\":142:157   */\n  mstore\n    /* \"#utility.yul\":176:180   */\n  0x24\n    /* \"#utility.yul\":173:174   */\n  0x00\n    /* \"#utility.yul\":166:181   */\n  revert\n    /* \"contracts/Mappings.sol\":74:996  contract Saldo {\r... */\ntag_9:\n  dataSize(sub_0)\n  dup1\n  dataOffset(sub_0)\n  0x00\n  codecopy\n  0x00\n  return\nstop\n\nsub_0: assembly {\n        /* \"contracts/Mappings.sol\":74:996  contract Saldo {\r... */\n      mstore(0x40, 0x80)\n      callvalue\n      dup1\n      iszero\n      tag_1\n      jumpi\n      0x00\n      dup1\n      revert\n    tag_1:\n      pop\n      jumpi(tag_2, lt(calldatasize, 0x04))\n      shr(0xe0, calldataload(0x00))\n      dup1\n      0x0594cc69\n      eq\n      tag_3\n      jumpi\n      dup1\n      0xe3d670d7\n      eq\n      tag_4\n      jumpi\n    tag_2:\n      0x00\n      dup1\n      revert\n        /* \"contracts/Mappings.sol\":488:519  Estado public estadoDelContrato */\n    tag_3:\n      tag_5\n      tag_6\n      jump\t// in\n    tag_5:\n      mload(0x40)\n      tag_7\n      swap2\n      swap1\n      tag_8\n      jump\t// in\n    tag_7:\n      mload(0x40)\n      dup1\n      swap2\n      sub\n      swap1\n      return\n        /* \"contracts/Mappings.sol\":284:324  mapping (address => uint) public balance */\n    tag_4:\n      tag_9\n      0x04\n      dup1\n      calldatasize\n      sub\n      dup2\n      add\n      swap1\n      tag_10\n      swap2\n      swap1\n      tag_11\n      jump\t// in\n    tag_10:\n      tag_12\n      jump\t// in\n    tag_9:\n      mload(0x40)\n      tag_13\n      swap2\n      swap1\n      tag_14\n      jump\t// in\n    tag_13:\n      mload(0x40)\n      dup1\n      swap2\n      sub\n      swap1\n      return\n        /* \"contracts/Mappings.sol\":488:519  Estado public estadoDelContrato */\n    tag_6:\n      0x01\n      0x00\n      swap1\n      sload\n      swap1\n      0x0100\n      exp\n      swap1\n      div\n      0xff\n      and\n      dup2\n      jump\t// out\n        /* \"contracts/Mappings.sol\":284:324  mapping (address => uint) public balance */\n    tag_12:\n      mstore(0x20, 0x00)\n      dup1\n      0x00\n      mstore\n      keccak256(0x00, 0x40)\n      0x00\n      swap2\n      pop\n      swap1\n      pop\n      sload\n      dup2\n      jump\t// out\n        /* \"#utility.yul\":7:146   */\n    tag_16:\n        /* \"#utility.yul\":53:58   */\n      0x00\n        /* \"#utility.yul\":91:97   */\n      dup2\n        /* \"#utility.yul\":78:98   */\n      calldataload\n        /* \"#utility.yul\":69:98   */\n      swap1\n      pop\n        /* \"#utility.yul\":107:140   */\n      tag_18\n        /* \"#utility.yul\":134:139   */\n      dup2\n        /* \"#utility.yul\":107:140   */\n      tag_19\n      jump\t// in\n    tag_18:\n        /* \"#utility.yul\":7:146   */\n      swap3\n      swap2\n      pop\n      pop\n      jump\t// out\n        /* \"#utility.yul\":152:481   */\n    tag_11:\n        /* \"#utility.yul\":211:217   */\n      0x00\n        /* \"#utility.yul\":260:262   */\n      0x20\n        /* \"#utility.yul\":248:257   */\n      dup3\n        /* \"#utility.yul\":239:246   */\n      dup5\n        /* \"#utility.yul\":235:258   */\n      sub\n        /* \"#utility.yul\":231:263   */\n      slt\n        /* \"#utility.yul\":228:347   */\n      iszero\n      tag_21\n      jumpi\n        /* \"#utility.yul\":266:345   */\n      tag_22\n      tag_23\n      jump\t// in\n    tag_22:\n        /* \"#utility.yul\":228:347   */\n    tag_21:\n        /* \"#utility.yul\":386:387   */\n      0x00\n        /* \"#utility.yul\":411:464   */\n      tag_24\n        /* \"#utility.yul\":456:463   */\n      dup5\n        /* \"#utility.yul\":447:453   */\n      dup3\n        /* \"#utility.yul\":436:445   */\n      dup6\n        /* \"#utility.yul\":432:454   */\n      add\n        /* \"#utility.yul\":411:464   */\n      tag_16\n      jump\t// in\n    tag_24:\n        /* \"#utility.yul\":401:464   */\n      swap2\n      pop\n        /* \"#utility.yul\":357:474   */\n      pop\n        /* \"#utility.yul\":152:481   */\n      swap3\n      swap2\n      pop\n      pop\n      jump\t// out\n        /* \"#utility.yul\":487:630   */\n    tag_25:\n        /* \"#utility.yul\":580:623   */\n      tag_27\n        /* \"#utility.yul\":617:622   */\n      dup2\n        /* \"#utility.yul\":580:623   */\n      tag_28\n      jump\t// in\n    tag_27:\n        /* \"#utility.yul\":575:578   */\n      dup3\n        /* \"#utility.yul\":568:624   */\n      mstore\n        /* \"#utility.yul\":487:630   */\n      pop\n      pop\n      jump\t// out\n        /* \"#utility.yul\":636:754   */\n    tag_29:\n        /* \"#utility.yul\":723:747   */\n      tag_31\n        /* \"#utility.yul\":741:746   */\n      dup2\n        /* \"#utility.yul\":723:747   */\n      tag_32\n      jump\t// in\n    tag_31:\n        /* \"#utility.yul\":718:721   */\n      dup3\n        /* \"#utility.yul\":711:748   */\n      mstore\n        /* \"#utility.yul\":636:754   */\n      pop\n      pop\n      jump\t// out\n        /* \"#utility.yul\":760:994   */\n    tag_8:\n        /* \"#utility.yul\":859:863   */\n      0x00\n        /* \"#utility.yul\":897:899   */\n      0x20\n        /* \"#utility.yul\":886:895   */\n      dup3\n        /* \"#utility.yul\":882:900   */\n      add\n        /* \"#utility.yul\":874:900   */\n      swap1\n      pop\n        /* \"#utility.yul\":910:987   */\n      tag_34\n        /* \"#utility.yul\":984:985   */\n      0x00\n        /* \"#utility.yul\":973:982   */\n      dup4\n        /* \"#utility.yul\":969:986   */\n      add\n        /* \"#utility.yul\":960:966   */\n      dup5\n        /* \"#utility.yul\":910:987   */\n      tag_25\n      jump\t// in\n    tag_34:\n        /* \"#utility.yul\":760:994   */\n      swap3\n      swap2\n      pop\n      pop\n      jump\t// out\n        /* \"#utility.yul\":1000:1222   */\n    tag_14:\n        /* \"#utility.yul\":1093:1097   */\n      0x00\n        /* \"#utility.yul\":1131:1133   */\n      0x20\n        /* \"#utility.yul\":1120:1129   */\n      dup3\n        /* \"#utility.yul\":1116:1134   */\n      add\n        /* \"#utility.yul\":1108:1134   */\n      swap1\n      pop\n        /* \"#utility.yul\":1144:1215   */\n      tag_36\n        /* \"#utility.yul\":1212:1213   */\n      0x00\n        /* \"#utility.yul\":1201:1210   */\n      dup4\n        /* \"#utility.yul\":1197:1214   */\n      add\n        /* \"#utility.yul\":1188:1194   */\n      dup5\n        /* \"#utility.yul\":1144:1215   */\n      tag_29\n      jump\t// in\n    tag_36:\n        /* \"#utility.yul\":1000:1222   */\n      swap3\n      swap2\n      pop\n      pop\n      jump\t// out\n        /* \"#utility.yul\":1309:1405   */\n    tag_39:\n        /* \"#utility.yul\":1346:1353   */\n      0x00\n        /* \"#utility.yul\":1375:1399   */\n      tag_41\n        /* \"#utility.yul\":1393:1398   */\n      dup3\n        /* \"#utility.yul\":1375:1399   */\n      tag_42\n      jump\t// in\n    tag_41:\n        /* \"#utility.yul\":1364:1399   */\n      swap1\n      pop\n        /* \"#utility.yul\":1309:1405   */\n      swap2\n      swap1\n      pop\n      jump\t// out\n        /* \"#utility.yul\":1411:1538   */\n    tag_43:\n        /* \"#utility.yul\":1456:1463   */\n      0x00\n        /* \"#utility.yul\":1485:1490   */\n      dup2\n        /* \"#utility.yul\":1474:1490   */\n      swap1\n      pop\n        /* \"#utility.yul\":1491:1532   */\n      tag_45\n        /* \"#utility.yul\":1526:1531   */\n      dup3\n        /* \"#utility.yul\":1491:1532   */\n      tag_46\n      jump\t// in\n    tag_45:\n        /* \"#utility.yul\":1411:1538   */\n      swap2\n      swap1\n      pop\n      jump\t// out\n        /* \"#utility.yul\":1544:1670   */\n    tag_42:\n        /* \"#utility.yul\":1581:1588   */\n      0x00\n        /* \"#utility.yul\":1621:1663   */\n      0xffffffffffffffffffffffffffffffffffffffff\n        /* \"#utility.yul\":1614:1619   */\n      dup3\n        /* \"#utility.yul\":1610:1664   */\n      and\n        /* \"#utility.yul\":1599:1664   */\n      swap1\n      pop\n        /* \"#utility.yul\":1544:1670   */\n      swap2\n      swap1\n      pop\n      jump\t// out\n        /* \"#utility.yul\":1676:1753   */\n    tag_32:\n        /* \"#utility.yul\":1713:1720   */\n      0x00\n        /* \"#utility.yul\":1742:1747   */\n      dup2\n        /* \"#utility.yul\":1731:1747   */\n      swap1\n      pop\n        /* \"#utility.yul\":1676:1753   */\n      swap2\n      swap1\n      pop\n      jump\t// out\n        /* \"#utility.yul\":1759:1886   */\n    tag_28:\n        /* \"#utility.yul\":1815:1824   */\n      0x00\n        /* \"#utility.yul\":1848:1880   */\n      tag_50\n        /* \"#utility.yul\":1874:1879   */\n      dup3\n        /* \"#utility.yul\":1848:1880   */\n      tag_43\n      jump\t// in\n    tag_50:\n        /* \"#utility.yul\":1835:1880   */\n      swap1\n      pop\n        /* \"#utility.yul\":1759:1886   */\n      swap2\n      swap1\n      pop\n      jump\t// out\n        /* \"#utility.yul\":1892:2072   */\n    tag_51:\n        /* \"#utility.yul\":1940:2017   */\n      0x4e487b7100000000000000000000000000000000000000000000000000000000\n        /* \"#utility.yul\":1937:1938   */\n      0x00\n        /* \"#utility.yul\":1930:2018   */\n      mstore\n        /* \"#utility.yul\":2037:2041   */\n      0x21\n        /* \"#utility.yul\":2034:2035   */\n      0x04\n        /* \"#utility.yul\":2027:2042   */\n      mstore\n        /* \"#utility.yul\":2061:2065   */\n      0x24\n        /* \"#utility.yul\":2058:2059   */\n      0x00\n        /* \"#utility.yul\":2051:2066   */\n      revert\n        /* \"#utility.yul\":2201:2318   */\n    tag_23:\n        /* \"#utility.yul\":2310:2311   */\n      0x00\n        /* \"#utility.yul\":2307:2308   */\n      dup1\n        /* \"#utility.yul\":2300:2312   */\n      revert\n        /* \"#utility.yul\":2324:2437   */\n    tag_46:\n        /* \"#utility.yul\":2405:2406   */\n      0x02\n        /* \"#utility.yul\":2398:2403   */\n      dup2\n        /* \"#utility.yul\":2395:2407   */\n      lt\n        /* \"#utility.yul\":2385:2431   */\n      tag_57\n      jumpi\n        /* \"#utility.yul\":2411:2429   */\n      tag_58\n      tag_51\n      jump\t// in\n    tag_58:\n        /* \"#utility.yul\":2385:2431   */\n    tag_57:\n        /* \"#utility.yul\":2324:2437   */\n      pop\n      jump\t// out\n        /* \"#utility.yul\":2443:2565   */\n    tag_19:\n        /* \"#utility.yul\":2516:2540   */\n      tag_60\n        /* \"#utility.yul\":2534:2539   */\n      dup2\n        /* \"#utility.yul\":2516:2540   */\n      tag_39\n      jump\t// in\n    tag_60:\n        /* \"#utility.yul\":2509:2514   */\n      dup2\n        /* \"#utility.yul\":2506:2541   */\n      eq\n        /* \"#utility.yul\":2496:2559   */\n      tag_61\n      jumpi\n        /* \"#utility.yul\":2555:2556   */\n      0x00\n        /* \"#utility.yul\":2552:2553   */\n      dup1\n        /* \"#utility.yul\":2545:2557   */\n      revert\n        /* \"#utility.yul\":2496:2559   */\n    tag_61:\n        /* \"#utility.yul\":2443:2565   */\n      pop\n      jump\t// out\n\n    auxdata: 0xa264697066735822122020b4bebbf6dbe7c5d7072d73bcaec65c90b2a6e50b3089dbc49f26356f685c3764736f6c63430008070033\n}\n",
				"bytecode": {
					"linkReferences": {},
					"object": "608060405234801561001057600080fd5b506000600160006101000a81548160ff02191690836001811115610037576100366100b0565b5b02179055506103e86000803373ffffffffffffffffffffffffffffffffffffffff1673ffffffffffffffffffffffffffffffffffffffff1681526020019081526020016000208190555060018060006101000a81548160ff021916908360018111156100a6576100a56100b0565b5b02179055506100df565b7f4e487b7100000000000000000000000000000000000000000000000000000000600052602160045260246000fd5b610240806100ee6000396000f3fe608060405234801561001057600080fd5b50600436106100365760003560e01c80630594cc691461003b578063e3d670d714610059575b600080fd5b610043610089565b6040516100509190610114565b60405180910390f35b610073600480360381019061006e91906100c9565b61009c565b604051610080919061012f565b60405180910390f35b600160009054906101000a900460ff1681565b60006020528060005260406000206000915090505481565b6000813590506100c3816101f3565b92915050565b6000602082840312156100df576100de6101da565b5b60006100ed848285016100b4565b91505092915050565b6100ff81610199565b82525050565b61010e8161018f565b82525050565b600060208201905061012960008301846100f6565b92915050565b60006020820190506101446000830184610105565b92915050565b60006101558261016f565b9050919050565b600081905061016a826101df565b919050565b600073ffffffffffffffffffffffffffffffffffffffff82169050919050565b6000819050919050565b60006101a48261015c565b9050919050565b7f4e487b7100000000000000000000000000000000000000000000000000000000600052602160045260246000fd5b600080fd5b600281106101f0576101ef6101ab565b5b50565b6101fc8161014a565b811461020757600080fd5b5056fea264697066735822122020b4bebbf6dbe7c5d7072d73bcaec65c90b2a6e50b3089dbc49f26356f685c3764736f6c63430008070033",
					"opcodes": "PUSH1 0x80 PUSH1 0x40 MSTORE CALLVALUE DUP1 ISZERO PUSH2 0x10 JUMPI PUSH1 0x0 DUP1 REVERT JUMPDEST POP PUSH1 0x0 PUSH1 0x1 PUSH1 0x0 PUSH2 0x100 EXP DUP2 SLOAD DUP2 PUSH1 0xFF MUL NOT AND SWAP1 DUP4 PUSH1 0x1 DUP2 GT ISZERO PUSH2 0x37 JUMPI PUSH2 0x36 PUSH2 0xB0 JUMP JUMPDEST JUMPDEST MUL OR SWAP1 SSTORE POP PUSH2 0x3E8 PUSH1 0x0 DUP1 CALLER PUSH20 0xFFFFFFFFFFFFFFFFFFFFFFFFFFFFFFFFFFFFFFFF AND PUSH20 0xFFFFFFFFFFFFFFFFFFFFFFFFFFFFFFFFFFFFFFFF AND DUP2 MSTORE PUSH1 0x20 ADD SWAP1 DUP2 MSTORE PUSH1 0x20 ADD PUSH1 0x0 KECCAK256 DUP2 SWAP1 SSTORE POP PUSH1 0x1 DUP1 PUSH1 0x0 PUSH2 0x100 EXP DUP2 SLOAD DUP2 PUSH1 0xFF MUL NOT AND SWAP1 DUP4 PUSH1 0x1 DUP2 GT ISZERO PUSH2 0xA6 JUMPI PUSH2 0xA5 PUSH2 0xB0 JUMP JUMPDEST JUMPDEST MUL OR SWAP1 SSTORE POP PUSH2 0xDF JUMP JUMPDEST PUSH32 0x4E487B7100000000000000000000000000000000000000000000000000000000 PUSH1 0x0 MSTORE PUSH1 0x21 PUSH1 0x4 MSTORE PUSH1 0x24 PUSH1 0x0 REVERT JUMPDEST PUSH2 0x240 DUP1 PUSH2 0xEE PUSH1 0x0 CODECOPY PUSH1 0x0 RETURN INVALID PUSH1 0x80 PUSH1 0x40 MSTORE CALLVALUE DUP1 ISZERO PUSH2 0x10 JUMPI PUSH1 0x0 DUP1 REVERT JUMPDEST POP PUSH1 0x4 CALLDATASIZE LT PUSH2 0x36 JUMPI PUSH1 0x0 CALLDATALOAD PUSH1 0xE0 SHR DUP1 PUSH4 0x594CC69 EQ PUSH2 0x3B JUMPI DUP1 PUSH4 0xE3D670D7 EQ PUSH2 0x59 JUMPI JUMPDEST PUSH1 0x0 DUP1 REVERT JUMPDEST PUSH2 0x43 PUSH2 0x89 JUMP JUMPDEST PUSH1 0x40 MLOAD PUSH2 0x50 SWAP2 SWAP1 PUSH2 0x114 JUMP JUMPDEST PUSH1 0x40 MLOAD DUP1 SWAP2 SUB SWAP1 RETURN JUMPDEST PUSH2 0x73 PUSH1 0x4 DUP1 CALLDATASIZE SUB DUP2 ADD SWAP1 PUSH2 0x6E SWAP2 SWAP1 PUSH2 0xC9 JUMP JUMPDEST PUSH2 0x9C JUMP JUMPDEST PUSH1 0x40 MLOAD PUSH2 0x80 SWAP2 SWAP1 PUSH2 0x12F JUMP JUMPDEST PUSH1 0x40 MLOAD DUP1 SWAP2 SUB SWAP1 RETURN JUMPDEST PUSH1 0x1 PUSH1 0x0 SWAP1 SLOAD SWAP1 PUSH2 0x100 EXP SWAP1 DIV PUSH1 0xFF AND DUP2 JUMP JUMPDEST PUSH1 0x0 PUSH1 0x20 MSTORE DUP1 PUSH1 0x0 MSTORE PUSH1 0x40 PUSH1 0x0 KECCAK256 PUSH1 0x0 SWAP2 POP SWAP1 POP SLOAD DUP2 JUMP JUMPDEST PUSH1 0x0 DUP2 CALLDATALOAD SWAP1 POP PUSH2 0xC3 DUP2 PUSH2 0x1F3 JUMP JUMPDEST SWAP3 SWAP2 POP POP JUMP JUMPDEST PUSH1 0x0 PUSH1 0x20 DUP3 DUP5 SUB SLT ISZERO PUSH2 0xDF JUMPI PUSH2 0xDE PUSH2 0x1DA JUMP JUMPDEST JUMPDEST PUSH1 0x0 PUSH2 0xED DUP5 DUP3 DUP6 ADD PUSH2 0xB4 JUMP JUMPDEST SWAP2 POP POP SWAP3 SWAP2 POP POP JUMP JUMPDEST PUSH2 0xFF DUP2 PUSH2 0x199 JUMP JUMPDEST DUP3 MSTORE POP POP JUMP JUMPDEST PUSH2 0x10E DUP2 PUSH2 0x18F JUMP JUMPDEST DUP3 MSTORE POP POP JUMP JUMPDEST PUSH1 0x0 PUSH1 0x20 DUP3 ADD SWAP1 POP PUSH2 0x129 PUSH1 0x0 DUP4 ADD DUP5 PUSH2 0xF6 JUMP JUMPDEST SWAP3 SWAP2 POP POP JUMP JUMPDEST PUSH1 0x0 PUSH1 0x20 DUP3 ADD SWAP1 POP PUSH2 0x144 PUSH1 0x0 DUP4 ADD DUP5 PUSH2 0x105 JUMP JUMPDEST SWAP3 SWAP2 POP POP JUMP JUMPDEST PUSH1 0x0 PUSH2 0x155 DUP3 PUSH2 0x16F JUMP JUMPDEST SWAP1 POP SWAP2 SWAP1 POP JUMP JUMPDEST PUSH1 0x0 DUP2 SWAP1 POP PUSH2 0x16A DUP3 PUSH2 0x1DF JUMP JUMPDEST SWAP2 SWAP1 POP JUMP JUMPDEST PUSH1 0x0 PUSH20 0xFFFFFFFFFFFFFFFFFFFFFFFFFFFFFFFFFFFFFFFF DUP3 AND SWAP1 POP SWAP2 SWAP1 POP JUMP JUMPDEST PUSH1 0x0 DUP2 SWAP1 POP SWAP2 SWAP1 POP JUMP JUMPDEST PUSH1 0x0 PUSH2 0x1A4 DUP3 PUSH2 0x15C JUMP JUMPDEST SWAP1 POP SWAP2 SWAP1 POP JUMP JUMPDEST PUSH32 0x4E487B7100000000000000000000000000000000000000000000000000000000 PUSH1 0x0 MSTORE PUSH1 0x21 PUSH1 0x4 MSTORE PUSH1 0x24 PUSH1 0x0 REVERT JUMPDEST PUSH1 0x0 DUP1 REVERT JUMPDEST PUSH1 0x2 DUP2 LT PUSH2 0x1F0 JUMPI PUSH2 0x1EF PUSH2 0x1AB JUMP JUMPDEST JUMPDEST POP JUMP JUMPDEST PUSH2 0x1FC DUP2 PUSH2 0x14A JUMP JUMPDEST DUP2 EQ PUSH2 0x207 JUMPI PUSH1 0x0 DUP1 REVERT JUMPDEST POP JUMP INVALID LOG2 PUSH5 0x6970667358 0x22 SLT KECCAK256 KECCAK256 0xB4 0xBE 0xBB 0xF6 0xDB 0xE7 0xC5 0xD7 SMOD 0x2D PUSH20 0xBCAEC65C90B2A6E50B3089DBC49F26356F685C37 PUSH5 0x736F6C6343 STOP ADDMOD SMOD STOP CALLER "
				},
				"gasEstimates": {
					"creation": {
						"codeDepositCost": "115200",
						"executionCost": "70948",
						"totalCost": "186148"
					},
					"external": {
						"balance(address)": "2814",
						"estadoDelContrato()": "2538"
					}
				},
				"methodIdentifiers": {
					"balance(address)": "e3d670d7",
					"estadoDelContrato()": "0594cc69"
				}
			},
			"storageLayout": {
				"storage": [
					{
						"astId": 5,
						"contract": "contracts/Mappings.sol:Saldo",
						"label": "balance",
						"offset": 0,
						"slot": "0",
						"type": "t_mapping(t_address,t_uint256)"
					},
					{
						"astId": 11,
						"contract": "contracts/Mappings.sol:Saldo",
						"label": "estadoDelContrato",
						"offset": 0,
						"slot": "1",
						"type": "t_enum(Estado)8"
					}
				],
				"types": {
					"t_address": {
						"encoding": "inplace",
						"label": "address",
						"numberOfBytes": "20"
					},
					"t_enum(Estado)8": {
						"encoding": "inplace",
						"label": "enum Saldo.Estado",
						"numberOfBytes": "1"
					},
					"t_mapping(t_address,t_uint256)": {
						"encoding": "mapping",
						"key": "t_address",
						"label": "mapping(address => uint256)",
						"numberOfBytes": "32",
						"value": "t_uint256"
					},
					"t_uint256": {
						"encoding": "inplace",
						"label": "uint256",
						"numberOfBytes": "32"
					}
				}
			},
			"userdoc": {
				"kind": "user",
				"methods": {},
				"version": 1
			}
		}
	}
}