{
	"contracts/EstructurasDeControl.sol": {
		"EstructurasDeControl": {
			"abi": [
				{
					"inputs": [],
					"stateMutability": "nonpayable",
					"type": "constructor"
				},
				{
					"inputs": [
						{
							"internalType": "uint256",
							"name": "",
							"type": "uint256"
						}
					],
					"name": "numero",
					"outputs": [
						{
							"internalType": "uint256",
							"name": "",
							"type": "uint256"
						}
					],
					"stateMutability": "view",
					"type": "function"
				},
				{
					"inputs": [],
					"name": "resultado",
					"outputs": [
						{
							"internalType": "string",
							"name": "",
							"type": "string"
						}
					],
					"stateMutability": "view",
					"type": "function"
				}
			],
			"devdoc": {
				"kind": "dev",
				"methods": {},
				"version": 1
			},
			"evm": {
				"assembly": "    /* \"contracts/EstructurasDeControl.sol\":74:311  contract EstructurasDeControl {\r... */\n  mstore(0x40, 0x80)\n    /* \"contracts/EstructurasDeControl.sol\":281:307  constructor() {\r... */\n  callvalue\n  dup1\n  iszero\n  tag_1\n  jumpi\n  0x00\n  dup1\n  revert\ntag_1:\n  pop\n    /* \"contracts/EstructurasDeControl.sol\":74:311  contract EstructurasDeControl {\r... */\n  dataSize(sub_0)\n  dup1\n  dataOffset(sub_0)\n  0x00\n  codecopy\n  0x00\n  return\nstop\n\nsub_0: assembly {\n        /* \"contracts/EstructurasDeControl.sol\":74:311  contract EstructurasDeControl {\r... */\n      mstore(0x40, 0x80)\n      callvalue\n      dup1\n      iszero\n      tag_1\n      jumpi\n      0x00\n      dup1\n      revert\n    tag_1:\n      pop\n      jumpi(tag_2, lt(calldatasize, 0x04))\n      shr(0xe0, calldataload(0x00))\n      dup1\n      0x5206f100\n      eq\n      tag_3\n      jumpi\n      dup1\n      0x8dc5074b\n      eq\n      tag_4\n      jumpi\n    tag_2:\n      0x00\n      dup1\n      revert\n        /* \"contracts/EstructurasDeControl.sol\":245:268  string public resultado */\n    tag_3:\n      tag_5\n      tag_6\n      jump\t// in\n    tag_5:\n      mload(0x40)\n      tag_7\n      swap2\n      swap1\n      tag_8\n      jump\t// in\n    tag_7:\n      mload(0x40)\n      dup1\n      swap2\n      sub\n      swap1\n      return\n        /* \"contracts/EstructurasDeControl.sol\":215:236  uint [] public numero */\n    tag_4:\n      tag_9\n      0x04\n      dup1\n      calldatasize\n      sub\n      dup2\n      add\n      swap1\n      tag_10\n      swap2\n      swap1\n      tag_11\n      jump\t// in\n    tag_10:\n      tag_12\n      jump\t// in\n    tag_9:\n      mload(0x40)\n      tag_13\n      swap2\n      swap1\n      tag_14\n      jump\t// in\n    tag_13:\n      mload(0x40)\n      dup1\n      swap2\n      sub\n      swap1\n      return\n        /* \"contracts/EstructurasDeControl.sol\":245:268  string public resultado */\n    tag_6:\n      0x01\n      dup1\n      sload\n      tag_15\n      swap1\n      tag_16\n      jump\t// in\n    tag_15:\n      dup1\n      0x1f\n      add\n      0x20\n      dup1\n      swap2\n      div\n      mul\n      0x20\n      add\n      mload(0x40)\n      swap1\n      dup2\n      add\n      0x40\n      mstore\n      dup1\n      swap3\n      swap2\n      swap1\n      dup2\n      dup2\n      mstore\n      0x20\n      add\n      dup3\n      dup1\n      sload\n      tag_17\n      swap1\n      tag_16\n      jump\t// in\n    tag_17:\n      dup1\n      iszero\n      tag_18\n      jumpi\n      dup1\n      0x1f\n      lt\n      tag_19\n      jumpi\n      0x0100\n      dup1\n      dup4\n      sload\n      div\n      mul\n      dup4\n      mstore\n      swap2\n      0x20\n      add\n      swap2\n      jump(tag_18)\n    tag_19:\n      dup3\n      add\n      swap2\n      swap1\n      0x00\n      mstore\n      keccak256(0x00, 0x20)\n      swap1\n    tag_20:\n      dup2\n      sload\n      dup2\n      mstore\n      swap1\n      0x01\n      add\n      swap1\n      0x20\n      add\n      dup1\n      dup4\n      gt\n      tag_20\n      jumpi\n      dup3\n      swap1\n      sub\n      0x1f\n      and\n      dup3\n      add\n      swap2\n    tag_18:\n      pop\n      pop\n      pop\n      pop\n      pop\n      dup2\n      jump\t// out\n        /* \"contracts/EstructurasDeControl.sol\":215:236  uint [] public numero */\n    tag_12:\n      0x00\n      dup2\n      dup2\n      sload\n      dup2\n      lt\n      tag_21\n      jumpi\n      0x00\n      dup1\n      revert\n    tag_21:\n      swap1\n      0x00\n      mstore\n      keccak256(0x00, 0x20)\n      add\n      0x00\n      swap2\n      pop\n      swap1\n      pop\n      sload\n      dup2\n      jump\t// out\n        /* \"#utility.yul\":7:146   */\n    tag_24:\n        /* \"#utility.yul\":53:58   */\n      0x00\n        /* \"#utility.yul\":91:97   */\n      dup2\n        /* \"#utility.yul\":78:98   */\n      calldataload\n        /* \"#utility.yul\":69:98   */\n      swap1\n      pop\n        /* \"#utility.yul\":107:140   */\n      tag_26\n        /* \"#utility.yul\":134:139   */\n      dup2\n        /* \"#utility.yul\":107:140   */\n      tag_27\n      jump\t// in\n    tag_26:\n        /* \"#utility.yul\":7:146   */\n      swap3\n      swap2\n      pop\n      pop\n      jump\t// out\n        /* \"#utility.yul\":152:481   */\n    tag_11:\n        /* \"#utility.yul\":211:217   */\n      0x00\n        /* \"#utility.yul\":260:262   */\n      0x20\n        /* \"#utility.yul\":248:257   */\n      dup3\n        /* \"#utility.yul\":239:246   */\n      dup5\n        /* \"#utility.yul\":235:258   */\n      sub\n        /* \"#utility.yul\":231:263   */\n      slt\n        /* \"#utility.yul\":228:347   */\n      iszero\n      tag_29\n      jumpi\n        /* \"#utility.yul\":266:345   */\n      tag_30\n      tag_31\n      jump\t// in\n    tag_30:\n        /* \"#utility.yul\":228:347   */\n    tag_29:\n        /* \"#utility.yul\":386:387   */\n      0x00\n        /* \"#utility.yul\":411:464   */\n      tag_32\n        /* \"#utility.yul\":456:463   */\n      dup5\n        /* \"#utility.yul\":447:453   */\n      dup3\n        /* \"#utility.yul\":436:445   */\n      dup6\n        /* \"#utility.yul\":432:454   */\n      add\n        /* \"#utility.yul\":411:464   */\n      tag_24\n      jump\t// in\n    tag_32:\n        /* \"#utility.yul\":401:464   */\n      swap2\n      pop\n        /* \"#utility.yul\":357:474   */\n      pop\n        /* \"#utility.yul\":152:481   */\n      swap3\n      swap2\n      pop\n      pop\n      jump\t// out\n        /* \"#utility.yul\":487:851   */\n    tag_33:\n        /* \"#utility.yul\":575:578   */\n      0x00\n        /* \"#utility.yul\":603:642   */\n      tag_35\n        /* \"#utility.yul\":636:641   */\n      dup3\n        /* \"#utility.yul\":603:642   */\n      tag_36\n      jump\t// in\n    tag_35:\n        /* \"#utility.yul\":658:729   */\n      tag_37\n        /* \"#utility.yul\":722:728   */\n      dup2\n        /* \"#utility.yul\":717:720   */\n      dup6\n        /* \"#utility.yul\":658:729   */\n      tag_38\n      jump\t// in\n    tag_37:\n        /* \"#utility.yul\":651:729   */\n      swap4\n      pop\n        /* \"#utility.yul\":738:790   */\n      tag_39\n        /* \"#utility.yul\":783:789   */\n      dup2\n        /* \"#utility.yul\":778:781   */\n      dup6\n        /* \"#utility.yul\":771:775   */\n      0x20\n        /* \"#utility.yul\":764:769   */\n      dup7\n        /* \"#utility.yul\":760:776   */\n      add\n        /* \"#utility.yul\":738:790   */\n      tag_40\n      jump\t// in\n    tag_39:\n        /* \"#utility.yul\":815:844   */\n      tag_41\n        /* \"#utility.yul\":837:843   */\n      dup2\n        /* \"#utility.yul\":815:844   */\n      tag_42\n      jump\t// in\n    tag_41:\n        /* \"#utility.yul\":810:813   */\n      dup5\n        /* \"#utility.yul\":806:845   */\n      add\n        /* \"#utility.yul\":799:845   */\n      swap2\n      pop\n        /* \"#utility.yul\":579:851   */\n      pop\n        /* \"#utility.yul\":487:851   */\n      swap3\n      swap2\n      pop\n      pop\n      jump\t// out\n        /* \"#utility.yul\":857:975   */\n    tag_43:\n        /* \"#utility.yul\":944:968   */\n      tag_45\n        /* \"#utility.yul\":962:967   */\n      dup2\n        /* \"#utility.yul\":944:968   */\n      tag_46\n      jump\t// in\n    tag_45:\n        /* \"#utility.yul\":939:942   */\n      dup3\n        /* \"#utility.yul\":932:969   */\n      mstore\n        /* \"#utility.yul\":857:975   */\n      pop\n      pop\n      jump\t// out\n        /* \"#utility.yul\":981:1294   */\n    tag_8:\n        /* \"#utility.yul\":1094:1098   */\n      0x00\n        /* \"#utility.yul\":1132:1134   */\n      0x20\n        /* \"#utility.yul\":1121:1130   */\n      dup3\n        /* \"#utility.yul\":1117:1135   */\n      add\n        /* \"#utility.yul\":1109:1135   */\n      swap1\n      pop\n        /* \"#utility.yul\":1181:1190   */\n      dup2\n        /* \"#utility.yul\":1175:1179   */\n      dup2\n        /* \"#utility.yul\":1171:1191   */\n      sub\n        /* \"#utility.yul\":1167:1168   */\n      0x00\n        /* \"#utility.yul\":1156:1165   */\n      dup4\n        /* \"#utility.yul\":1152:1169   */\n      add\n        /* \"#utility.yul\":1145:1192   */\n      mstore\n        /* \"#utility.yul\":1209:1287   */\n      tag_48\n        /* \"#utility.yul\":1282:1286   */\n      dup2\n        /* \"#utility.yul\":1273:1279   */\n      dup5\n        /* \"#utility.yul\":1209:1287   */\n      tag_33\n      jump\t// in\n    tag_48:\n        /* \"#utility.yul\":1201:1287   */\n      swap1\n      pop\n        /* \"#utility.yul\":981:1294   */\n      swap3\n      swap2\n      pop\n      pop\n      jump\t// out\n        /* \"#utility.yul\":1300:1522   */\n    tag_14:\n        /* \"#utility.yul\":1393:1397   */\n      0x00\n        /* \"#utility.yul\":1431:1433   */\n      0x20\n        /* \"#utility.yul\":1420:1429   */\n      dup3\n        /* \"#utility.yul\":1416:1434   */\n      add\n        /* \"#utility.yul\":1408:1434   */\n      swap1\n      pop\n        /* \"#utility.yul\":1444:1515   */\n      tag_50\n        /* \"#utility.yul\":1512:1513   */\n      0x00\n        /* \"#utility.yul\":1501:1510   */\n      dup4\n        /* \"#utility.yul\":1497:1514   */\n      add\n        /* \"#utility.yul\":1488:1494   */\n      dup5\n        /* \"#utility.yul\":1444:1515   */\n      tag_43\n      jump\t// in\n    tag_50:\n        /* \"#utility.yul\":1300:1522   */\n      swap3\n      swap2\n      pop\n      pop\n      jump\t// out\n        /* \"#utility.yul\":1609:1708   */\n    tag_36:\n        /* \"#utility.yul\":1661:1667   */\n      0x00\n        /* \"#utility.yul\":1695:1700   */\n      dup2\n        /* \"#utility.yul\":1689:1701   */\n      mload\n        /* \"#utility.yul\":1679:1701   */\n      swap1\n      pop\n        /* \"#utility.yul\":1609:1708   */\n      swap2\n      swap1\n      pop\n      jump\t// out\n        /* \"#utility.yul\":1714:1883   */\n    tag_38:\n        /* \"#utility.yul\":1798:1809   */\n      0x00\n        /* \"#utility.yul\":1832:1838   */\n      dup3\n        /* \"#utility.yul\":1827:1830   */\n      dup3\n        /* \"#utility.yul\":1820:1839   */\n      mstore\n        /* \"#utility.yul\":1872:1876   */\n      0x20\n        /* \"#utility.yul\":1867:1870   */\n      dup3\n        /* \"#utility.yul\":1863:1877   */\n      add\n        /* \"#utility.yul\":1848:1877   */\n      swap1\n      pop\n        /* \"#utility.yul\":1714:1883   */\n      swap3\n      swap2\n      pop\n      pop\n      jump\t// out\n        /* \"#utility.yul\":1889:1966   */\n    tag_46:\n        /* \"#utility.yul\":1926:1933   */\n      0x00\n        /* \"#utility.yul\":1955:1960   */\n      dup2\n        /* \"#utility.yul\":1944:1960   */\n      swap1\n      pop\n        /* \"#utility.yul\":1889:1966   */\n      swap2\n      swap1\n      pop\n      jump\t// out\n        /* \"#utility.yul\":1972:2279   */\n    tag_40:\n        /* \"#utility.yul\":2040:2041   */\n      0x00\n        /* \"#utility.yul\":2050:2163   */\n    tag_57:\n        /* \"#utility.yul\":2064:2070   */\n      dup4\n        /* \"#utility.yul\":2061:2062   */\n      dup2\n        /* \"#utility.yul\":2058:2071   */\n      lt\n        /* \"#utility.yul\":2050:2163   */\n      iszero\n      tag_59\n      jumpi\n        /* \"#utility.yul\":2149:2150   */\n      dup1\n        /* \"#utility.yul\":2144:2147   */\n      dup3\n        /* \"#utility.yul\":2140:2151   */\n      add\n        /* \"#utility.yul\":2134:2152   */\n      mload\n        /* \"#utility.yul\":2130:2131   */\n      dup2\n        /* \"#utility.yul\":2125:2128   */\n      dup5\n        /* \"#utility.yul\":2121:2132   */\n      add\n        /* \"#utility.yul\":2114:2153   */\n      mstore\n        /* \"#utility.yul\":2086:2088   */\n      0x20\n        /* \"#utility.yul\":2083:2084   */\n      dup2\n        /* \"#utility.yul\":2079:2089   */\n      add\n        /* \"#utility.yul\":2074:2089   */\n      swap1\n      pop\n        /* \"#utility.yul\":2050:2163   */\n      jump(tag_57)\n    tag_59:\n        /* \"#utility.yul\":2181:2187   */\n      dup4\n        /* \"#utility.yul\":2178:2179   */\n      dup2\n        /* \"#utility.yul\":2175:2188   */\n      gt\n        /* \"#utility.yul\":2172:2273   */\n      iszero\n      tag_60\n      jumpi\n        /* \"#utility.yul\":2261:2262   */\n      0x00\n        /* \"#utility.yul\":2252:2258   */\n      dup5\n        /* \"#utility.yul\":2247:2250   */\n      dup5\n        /* \"#utility.yul\":2243:2259   */\n      add\n        /* \"#utility.yul\":2236:2263   */\n      mstore\n        /* \"#utility.yul\":2172:2273   */\n    tag_60:\n        /* \"#utility.yul\":2021:2279   */\n      pop\n        /* \"#utility.yul\":1972:2279   */\n      pop\n      pop\n      pop\n      jump\t// out\n        /* \"#utility.yul\":2285:2605   */\n    tag_16:\n        /* \"#utility.yul\":2329:2335   */\n      0x00\n        /* \"#utility.yul\":2366:2367   */\n      0x02\n        /* \"#utility.yul\":2360:2364   */\n      dup3\n        /* \"#utility.yul\":2356:2368   */\n      div\n        /* \"#utility.yul\":2346:2368   */\n      swap1\n      pop\n        /* \"#utility.yul\":2413:2414   */\n      0x01\n        /* \"#utility.yul\":2407:2411   */\n      dup3\n        /* \"#utility.yul\":2403:2415   */\n      and\n        /* \"#utility.yul\":2434:2452   */\n      dup1\n        /* \"#utility.yul\":2424:2505   */\n      tag_62\n      jumpi\n        /* \"#utility.yul\":2490:2494   */\n      0x7f\n        /* \"#utility.yul\":2482:2488   */\n      dup3\n        /* \"#utility.yul\":2478:2495   */\n      and\n        /* \"#utility.yul\":2468:2495   */\n      swap2\n      pop\n        /* \"#utility.yul\":2424:2505   */\n    tag_62:\n        /* \"#utility.yul\":2552:2554   */\n      0x20\n        /* \"#utility.yul\":2544:2550   */\n      dup3\n        /* \"#utility.yul\":2541:2555   */\n      lt\n        /* \"#utility.yul\":2521:2539   */\n      dup2\n        /* \"#utility.yul\":2518:2556   */\n      eq\n        /* \"#utility.yul\":2515:2599   */\n      iszero\n      tag_63\n      jumpi\n        /* \"#utility.yul\":2571:2589   */\n      tag_64\n      tag_65\n      jump\t// in\n    tag_64:\n        /* \"#utility.yul\":2515:2599   */\n    tag_63:\n        /* \"#utility.yul\":2336:2605   */\n      pop\n        /* \"#utility.yul\":2285:2605   */\n      swap2\n      swap1\n      pop\n      jump\t// out\n        /* \"#utility.yul\":2611:2791   */\n    tag_65:\n        /* \"#utility.yul\":2659:2736   */\n      0x4e487b7100000000000000000000000000000000000000000000000000000000\n        /* \"#utility.yul\":2656:2657   */\n      0x00\n        /* \"#utility.yul\":2649:2737   */\n      mstore\n        /* \"#utility.yul\":2756:2760   */\n      0x22\n        /* \"#utility.yul\":2753:2754   */\n      0x04\n        /* \"#utility.yul\":2746:2761   */\n      mstore\n        /* \"#utility.yul\":2780:2784   */\n      0x24\n        /* \"#utility.yul\":2777:2778   */\n      0x00\n        /* \"#utility.yul\":2770:2785   */\n      revert\n        /* \"#utility.yul\":2920:3037   */\n    tag_31:\n        /* \"#utility.yul\":3029:3030   */\n      0x00\n        /* \"#utility.yul\":3026:3027   */\n      dup1\n        /* \"#utility.yul\":3019:3031   */\n      revert\n        /* \"#utility.yul\":3043:3145   */\n    tag_42:\n        /* \"#utility.yul\":3084:3090   */\n      0x00\n        /* \"#utility.yul\":3135:3137   */\n      0x1f\n        /* \"#utility.yul\":3131:3138   */\n      not\n        /* \"#utility.yul\":3126:3128   */\n      0x1f\n        /* \"#utility.yul\":3119:3124   */\n      dup4\n        /* \"#utility.yul\":3115:3129   */\n      add\n        /* \"#utility.yul\":3111:3139   */\n      and\n        /* \"#utility.yul\":3101:3139   */\n      swap1\n      pop\n        /* \"#utility.yul\":3043:3145   */\n      swap2\n      swap1\n      pop\n      jump\t// out\n        /* \"#utility.yul\":3151:3273   */\n    tag_27:\n        /* \"#utility.yul\":3224:3248   */\n      tag_72\n        /* \"#utility.yul\":3242:3247   */\n      dup2\n        /* \"#utility.yul\":3224:3248   */\n      tag_46\n      jump\t// in\n    tag_72:\n        /* \"#utility.yul\":3217:3222   */\n      dup2\n        /* \"#utility.yul\":3214:3249   */\n      eq\n        /* \"#utility.yul\":3204:3267   */\n      tag_73\n      jumpi\n        /* \"#utility.yul\":3263:3264   */\n      0x00\n        /* \"#utility.yul\":3260:3261   */\n      dup1\n        /* \"#utility.yul\":3253:3265   */\n      revert\n        /* \"#utility.yul\":3204:3267   */\n    tag_73:\n        /* \"#utility.yul\":3151:3273   */\n      pop\n      jump\t// out\n\n    auxdata: 0xa26469706673582212204fa1886df7fdbe101854dc214bce97473299a7ee90b90b2e8f1ce17638eaa32d64736f6c63430008070033\n}\n",
				"bytecode": {
					"linkReferences": {},
					"object": "608060405234801561001057600080fd5b5061031f806100206000396000f3fe608060405234801561001057600080fd5b50600436106100365760003560e01c80635206f1001461003b5780638dc5074b14610059575b600080fd5b610043610089565b60405161005091906101c5565b60405180910390f35b610073600480360381019061006e9190610150565b610117565b60405161008091906101e7565b60405180910390f35b600180546100969061025b565b80601f01602080910402602001604051908101604052809291908181526020018280546100c29061025b565b801561010f5780601f106100e45761010080835404028352916020019161010f565b820191906000526020600020905b8154815290600101906020018083116100f257829003601f168201915b505050505081565b6000818154811061012757600080fd5b906000526020600020016000915090505481565b60008135905061014a816102d2565b92915050565b600060208284031215610166576101656102bc565b5b60006101748482850161013b565b91505092915050565b600061018882610202565b610192818561020d565b93506101a2818560208601610228565b6101ab816102c1565b840191505092915050565b6101bf8161021e565b82525050565b600060208201905081810360008301526101df818461017d565b905092915050565b60006020820190506101fc60008301846101b6565b92915050565b600081519050919050565b600082825260208201905092915050565b6000819050919050565b60005b8381101561024657808201518184015260208101905061022b565b83811115610255576000848401525b50505050565b6000600282049050600182168061027357607f821691505b602082108114156102875761028661028d565b5b50919050565b7f4e487b7100000000000000000000000000000000000000000000000000000000600052602260045260246000fd5b600080fd5b6000601f19601f8301169050919050565b6102db8161021e565b81146102e657600080fd5b5056fea26469706673582212204fa1886df7fdbe101854dc214bce97473299a7ee90b90b2e8f1ce17638eaa32d64736f6c63430008070033",
					"opcodes": "PUSH1 0x80 PUSH1 0x40 MSTORE CALLVALUE DUP1 ISZERO PUSH2 0x10 JUMPI PUSH1 0x0 DUP1 REVERT JUMPDEST POP PUSH2 0x31F DUP1 PUSH2 0x20 PUSH1 0x0 CODECOPY PUSH1 0x0 RETURN INVALID PUSH1 0x80 PUSH1 0x40 MSTORE CALLVALUE DUP1 ISZERO PUSH2 0x10 JUMPI PUSH1 0x0 DUP1 REVERT JUMPDEST POP PUSH1 0x4 CALLDATASIZE LT PUSH2 0x36 JUMPI PUSH1 0x0 CALLDATALOAD PUSH1 0xE0 SHR DUP1 PUSH4 0x5206F100 EQ PUSH2 0x3B JUMPI DUP1 PUSH4 0x8DC5074B EQ PUSH2 0x59 JUMPI JUMPDEST PUSH1 0x0 DUP1 REVERT JUMPDEST PUSH2 0x43 PUSH2 0x89 JUMP JUMPDEST PUSH1 0x40 MLOAD PUSH2 0x50 SWAP2 SWAP1 PUSH2 0x1C5 JUMP JUMPDEST PUSH1 0x40 MLOAD DUP1 SWAP2 SUB SWAP1 RETURN JUMPDEST PUSH2 0x73 PUSH1 0x4 DUP1 CALLDATASIZE SUB DUP2 ADD SWAP1 PUSH2 0x6E SWAP2 SWAP1 PUSH2 0x150 JUMP JUMPDEST PUSH2 0x117 JUMP JUMPDEST PUSH1 0x40 MLOAD PUSH2 0x80 SWAP2 SWAP1 PUSH2 0x1E7 JUMP JUMPDEST PUSH1 0x40 MLOAD DUP1 SWAP2 SUB SWAP1 RETURN JUMPDEST PUSH1 0x1 DUP1 SLOAD PUSH2 0x96 SWAP1 PUSH2 0x25B JUMP JUMPDEST DUP1 PUSH1 0x1F ADD PUSH1 0x20 DUP1 SWAP2 DIV MUL PUSH1 0x20 ADD PUSH1 0x40 MLOAD SWAP1 DUP2 ADD PUSH1 0x40 MSTORE DUP1 SWAP3 SWAP2 SWAP1 DUP2 DUP2 MSTORE PUSH1 0x20 ADD DUP3 DUP1 SLOAD PUSH2 0xC2 SWAP1 PUSH2 0x25B JUMP JUMPDEST DUP1 ISZERO PUSH2 0x10F JUMPI DUP1 PUSH1 0x1F LT PUSH2 0xE4 JUMPI PUSH2 0x100 DUP1 DUP4 SLOAD DIV MUL DUP4 MSTORE SWAP2 PUSH1 0x20 ADD SWAP2 PUSH2 0x10F JUMP JUMPDEST DUP3 ADD SWAP2 SWAP1 PUSH1 0x0 MSTORE PUSH1 0x20 PUSH1 0x0 KECCAK256 SWAP1 JUMPDEST DUP2 SLOAD DUP2 MSTORE SWAP1 PUSH1 0x1 ADD SWAP1 PUSH1 0x20 ADD DUP1 DUP4 GT PUSH2 0xF2 JUMPI DUP3 SWAP1 SUB PUSH1 0x1F AND DUP3 ADD SWAP2 JUMPDEST POP POP POP POP POP DUP2 JUMP JUMPDEST PUSH1 0x0 DUP2 DUP2 SLOAD DUP2 LT PUSH2 0x127 JUMPI PUSH1 0x0 DUP1 REVERT JUMPDEST SWAP1 PUSH1 0x0 MSTORE PUSH1 0x20 PUSH1 0x0 KECCAK256 ADD PUSH1 0x0 SWAP2 POP SWAP1 POP SLOAD DUP2 JUMP JUMPDEST PUSH1 0x0 DUP2 CALLDATALOAD SWAP1 POP PUSH2 0x14A DUP2 PUSH2 0x2D2 JUMP JUMPDEST SWAP3 SWAP2 POP POP JUMP JUMPDEST PUSH1 0x0 PUSH1 0x20 DUP3 DUP5 SUB SLT ISZERO PUSH2 0x166 JUMPI PUSH2 0x165 PUSH2 0x2BC JUMP JUMPDEST JUMPDEST PUSH1 0x0 PUSH2 0x174 DUP5 DUP3 DUP6 ADD PUSH2 0x13B JUMP JUMPDEST SWAP2 POP POP SWAP3 SWAP2 POP POP JUMP JUMPDEST PUSH1 0x0 PUSH2 0x188 DUP3 PUSH2 0x202 JUMP JUMPDEST PUSH2 0x192 DUP2 DUP6 PUSH2 0x20D JUMP JUMPDEST SWAP4 POP PUSH2 0x1A2 DUP2 DUP6 PUSH1 0x20 DUP7 ADD PUSH2 0x228 JUMP JUMPDEST PUSH2 0x1AB DUP2 PUSH2 0x2C1 JUMP JUMPDEST DUP5 ADD SWAP2 POP POP SWAP3 SWAP2 POP POP JUMP JUMPDEST PUSH2 0x1BF DUP2 PUSH2 0x21E JUMP JUMPDEST DUP3 MSTORE POP POP JUMP JUMPDEST PUSH1 0x0 PUSH1 0x20 DUP3 ADD SWAP1 POP DUP2 DUP2 SUB PUSH1 0x0 DUP4 ADD MSTORE PUSH2 0x1DF DUP2 DUP5 PUSH2 0x17D JUMP JUMPDEST SWAP1 POP SWAP3 SWAP2 POP POP JUMP JUMPDEST PUSH1 0x0 PUSH1 0x20 DUP3 ADD SWAP1 POP PUSH2 0x1FC PUSH1 0x0 DUP4 ADD DUP5 PUSH2 0x1B6 JUMP JUMPDEST SWAP3 SWAP2 POP POP JUMP JUMPDEST PUSH1 0x0 DUP2 MLOAD SWAP1 POP SWAP2 SWAP1 POP JUMP JUMPDEST PUSH1 0x0 DUP3 DUP3 MSTORE PUSH1 0x20 DUP3 ADD SWAP1 POP SWAP3 SWAP2 POP POP JUMP JUMPDEST PUSH1 0x0 DUP2 SWAP1 POP SWAP2 SWAP1 POP JUMP JUMPDEST PUSH1 0x0 JUMPDEST DUP4 DUP2 LT ISZERO PUSH2 0x246 JUMPI DUP1 DUP3 ADD MLOAD DUP2 DUP5 ADD MSTORE PUSH1 0x20 DUP2 ADD SWAP1 POP PUSH2 0x22B JUMP JUMPDEST DUP4 DUP2 GT ISZERO PUSH2 0x255 JUMPI PUSH1 0x0 DUP5 DUP5 ADD MSTORE JUMPDEST POP POP POP POP JUMP JUMPDEST PUSH1 0x0 PUSH1 0x2 DUP3 DIV SWAP1 POP PUSH1 0x1 DUP3 AND DUP1 PUSH2 0x273 JUMPI PUSH1 0x7F DUP3 AND SWAP2 POP JUMPDEST PUSH1 0x20 DUP3 LT DUP2 EQ ISZERO PUSH2 0x287 JUMPI PUSH2 0x286 PUSH2 0x28D JUMP JUMPDEST JUMPDEST POP SWAP2 SWAP1 POP JUMP JUMPDEST PUSH32 0x4E487B7100000000000000000000000000000000000000000000000000000000 PUSH1 0x0 MSTORE PUSH1 0x22 PUSH1 0x4 MSTORE PUSH1 0x24 PUSH1 0x0 REVERT JUMPDEST PUSH1 0x0 DUP1 REVERT JUMPDEST PUSH1 0x0 PUSH1 0x1F NOT PUSH1 0x1F DUP4 ADD AND SWAP1 POP SWAP2 SWAP1 POP JUMP JUMPDEST PUSH2 0x2DB DUP2 PUSH2 0x21E JUMP JUMPDEST DUP2 EQ PUSH2 0x2E6 JUMPI PUSH1 0x0 DUP1 REVERT JUMPDEST POP JUMP INVALID LOG2 PUSH5 0x6970667358 0x22 SLT KECCAK256 0x4F LOG1 DUP9 PUSH14 0xF7FDBE101854DC214BCE97473299 0xA7 0xEE SWAP1 0xB9 SIGNEXTEND 0x2E DUP16 SHR 0xE1 PUSH23 0x38EAA32D64736F6C634300080700330000000000000000 "
				},
				"gasEstimates": {
					"creation": {
						"codeDepositCost": "159800",
						"executionCost": "202",
						"totalCost": "160002"
					},
					"external": {
						"numero(uint256)": "infinite",
						"resultado()": "infinite"
					}
				},
				"methodIdentifiers": {
					"numero(uint256)": "8dc5074b",
					"resultado()": "5206f100"
				}
			},
			"storageLayout": {
				"storage": [
					{
						"astId": 4,
						"contract": "contracts/EstructurasDeControl.sol:EstructurasDeControl",
						"label": "numero",
						"offset": 0,
						"slot": "0",
						"type": "t_array(t_uint256)dyn_storage"
					},
					{
						"astId": 6,
						"contract": "contracts/EstructurasDeControl.sol:EstructurasDeControl",
						"label": "resultado",
						"offset": 0,
						"slot": "1",
						"type": "t_string_storage"
					}
				],
				"types": {
					"t_array(t_uint256)dyn_storage": {
						"base": "t_uint256",
						"encoding": "dynamic_array",
						"label": "uint256[]",
						"numberOfBytes": "32"
					},
					"t_string_storage": {
						"encoding": "bytes",
						"label": "string",
						"numberOfBytes": "32"
					},
					"t_uint256": {
						"encoding": "inplace",
						"label": "uint256",
						"numberOfBytes": "32"
					}
				}
			},
			"userdoc": {
				"kind": "user",
				"methods": {},
				"version": 1
			}
		}
	}
}