{
	"contracts/Modificadores.sol": {
		"Modificadores": {
			"abi": [
				{
					"inputs": [
						{
							"internalType": "string",
							"name": "nombre",
							"type": "string"
						}
					],
					"stateMutability": "nonpayable",
					"type": "constructor"
				},
				{
					"inputs": [
						{
							"internalType": "uint256",
							"name": "numero1",
							"type": "uint256"
						},
						{
							"internalType": "uint256",
							"name": "numero2",
							"type": "uint256"
						}
					],
					"name": "Suma",
					"outputs": [
						{
							"internalType": "uint256",
							"name": "",
							"type": "uint256"
						}
					],
					"stateMutability": "view",
					"type": "function"
				}
			],
			"devdoc": {
				"kind": "dev",
				"methods": {},
				"version": 1
			},
			"evm": {
				"assembly": "    /* \"contracts/Modificadores.sol\":76:1744  contract Modificadores {\r... */\n  mstore(0x40, 0x80)\n    /* \"contracts/Modificadores.sol\":444:609  constructor (string memory nombre){\r... */\n  callvalue\n  dup1\n  iszero\n  tag_1\n  jumpi\n  0x00\n  dup1\n  revert\ntag_1:\n  pop\n  mload(0x40)\n  sub(codesize, bytecodeSize)\n  dup1\n  bytecodeSize\n  dup4\n  codecopy\n  dup2\n  dup2\n  add\n  0x40\n  mstore\n  dup2\n  add\n  swap1\n  tag_2\n  swap2\n  swap1\n  tag_3\n  jump\t// in\ntag_2:\n    /* \"contracts/Modificadores.sol\":499:509  msg.sender */\n  caller\n    /* \"contracts/Modificadores.sol\":491:496  owner */\n  0x00\n  dup1\n    /* \"contracts/Modificadores.sol\":491:509  owner = msg.sender */\n  0x0100\n  exp\n  dup2\n  sload\n  dup2\n  0xffffffffffffffffffffffffffffffffffffffff\n  mul\n  not\n  and\n  swap1\n  dup4\n  0xffffffffffffffffffffffffffffffffffffffff\n  and\n  mul\n  or\n  swap1\n  sstore\n  pop\n    /* \"contracts/Modificadores.sol\":589:595  nombre */\n  dup1\n    /* \"contracts/Modificadores.sol\":576:587  nombreOwner */\n  0x01\n    /* \"contracts/Modificadores.sol\":576:595  nombreOwner= nombre */\n  swap1\n  dup1\n  mload\n  swap1\n  0x20\n  add\n  swap1\n  tag_6\n  swap3\n  swap2\n  swap1\n  tag_7\n  jump\t// in\ntag_6:\n  pop\n    /* \"contracts/Modificadores.sol\":444:609  constructor (string memory nombre){\r... */\n  pop\n    /* \"contracts/Modificadores.sol\":76:1744  contract Modificadores {\r... */\n  jump(tag_8)\ntag_7:\n  dup3\n  dup1\n  sload\n  tag_9\n  swap1\n  tag_10\n  jump\t// in\ntag_9:\n  swap1\n  0x00\n  mstore\n  keccak256(0x00, 0x20)\n  swap1\n  0x1f\n  add\n  0x20\n  swap1\n  div\n  dup2\n  add\n  swap3\n  dup3\n  tag_12\n  jumpi\n  0x00\n  dup6\n  sstore\n  jump(tag_11)\ntag_12:\n  dup3\n  0x1f\n  lt\n  tag_13\n  jumpi\n  dup1\n  mload\n  not(0xff)\n  and\n  dup4\n  dup1\n  add\n  or\n  dup6\n  sstore\n  jump(tag_11)\ntag_13:\n  dup3\n  dup1\n  add\n  0x01\n  add\n  dup6\n  sstore\n  dup3\n  iszero\n  tag_11\n  jumpi\n  swap2\n  dup3\n  add\ntag_14:\n  dup3\n  dup2\n  gt\n  iszero\n  tag_15\n  jumpi\n  dup3\n  mload\n  dup3\n  sstore\n  swap2\n  0x20\n  add\n  swap2\n  swap1\n  0x01\n  add\n  swap1\n  jump(tag_14)\ntag_15:\ntag_11:\n  pop\n  swap1\n  pop\n  tag_16\n  swap2\n  swap1\n  tag_17\n  jump\t// in\ntag_16:\n  pop\n  swap1\n  jump\t// out\ntag_17:\ntag_18:\n  dup1\n  dup3\n  gt\n  iszero\n  tag_19\n  jumpi\n  0x00\n  dup2\n  0x00\n  swap1\n  sstore\n  pop\n  0x01\n  add\n  jump(tag_18)\ntag_19:\n  pop\n  swap1\n  jump\t// out\n    /* \"#utility.yul\":7:428   */\ntag_21:\n    /* \"#utility.yul\":96:101   */\n  0x00\n    /* \"#utility.yul\":121:187   */\n  tag_23\n    /* \"#utility.yul\":137:186   */\n  tag_24\n    /* \"#utility.yul\":179:185   */\n  dup5\n    /* \"#utility.yul\":137:186   */\n  tag_25\n  jump\t// in\ntag_24:\n    /* \"#utility.yul\":121:187   */\n  tag_26\n  jump\t// in\ntag_23:\n    /* \"#utility.yul\":112:187   */\n  swap1\n  pop\n    /* \"#utility.yul\":210:216   */\n  dup3\n    /* \"#utility.yul\":203:208   */\n  dup2\n    /* \"#utility.yul\":196:217   */\n  mstore\n    /* \"#utility.yul\":248:252   */\n  0x20\n    /* \"#utility.yul\":241:246   */\n  dup2\n    /* \"#utility.yul\":237:253   */\n  add\n    /* \"#utility.yul\":286:289   */\n  dup5\n    /* \"#utility.yul\":277:283   */\n  dup5\n    /* \"#utility.yul\":272:275   */\n  dup5\n    /* \"#utility.yul\":268:284   */\n  add\n    /* \"#utility.yul\":265:290   */\n  gt\n    /* \"#utility.yul\":262:374   */\n  iszero\n  tag_27\n  jumpi\n    /* \"#utility.yul\":293:372   */\n  tag_28\n  tag_29\n  jump\t// in\ntag_28:\n    /* \"#utility.yul\":262:374   */\ntag_27:\n    /* \"#utility.yul\":383:422   */\n  tag_30\n    /* \"#utility.yul\":415:421   */\n  dup5\n    /* \"#utility.yul\":410:413   */\n  dup3\n    /* \"#utility.yul\":405:408   */\n  dup6\n    /* \"#utility.yul\":383:422   */\n  tag_31\n  jump\t// in\ntag_30:\n    /* \"#utility.yul\":102:428   */\n  pop\n    /* \"#utility.yul\":7:428   */\n  swap4\n  swap3\n  pop\n  pop\n  pop\n  jump\t// out\n    /* \"#utility.yul\":448:803   */\ntag_32:\n    /* \"#utility.yul\":515:520   */\n  0x00\n    /* \"#utility.yul\":564:567   */\n  dup3\n    /* \"#utility.yul\":557:561   */\n  0x1f\n    /* \"#utility.yul\":549:555   */\n  dup4\n    /* \"#utility.yul\":545:562   */\n  add\n    /* \"#utility.yul\":541:568   */\n  slt\n    /* \"#utility.yul\":531:653   */\n  tag_34\n  jumpi\n    /* \"#utility.yul\":572:651   */\n  tag_35\n  tag_36\n  jump\t// in\ntag_35:\n    /* \"#utility.yul\":531:653   */\ntag_34:\n    /* \"#utility.yul\":682:688   */\n  dup2\n    /* \"#utility.yul\":676:689   */\n  mload\n    /* \"#utility.yul\":707:797   */\n  tag_37\n    /* \"#utility.yul\":793:796   */\n  dup5\n    /* \"#utility.yul\":785:791   */\n  dup3\n    /* \"#utility.yul\":778:782   */\n  0x20\n    /* \"#utility.yul\":770:776   */\n  dup7\n    /* \"#utility.yul\":766:783   */\n  add\n    /* \"#utility.yul\":707:797   */\n  tag_21\n  jump\t// in\ntag_37:\n    /* \"#utility.yul\":698:797   */\n  swap2\n  pop\n    /* \"#utility.yul\":521:803   */\n  pop\n    /* \"#utility.yul\":448:803   */\n  swap3\n  swap2\n  pop\n  pop\n  jump\t// out\n    /* \"#utility.yul\":809:1333   */\ntag_3:\n    /* \"#utility.yul\":889:895   */\n  0x00\n    /* \"#utility.yul\":938:940   */\n  0x20\n    /* \"#utility.yul\":926:935   */\n  dup3\n    /* \"#utility.yul\":917:924   */\n  dup5\n    /* \"#utility.yul\":913:936   */\n  sub\n    /* \"#utility.yul\":909:941   */\n  slt\n    /* \"#utility.yul\":906:1025   */\n  iszero\n  tag_39\n  jumpi\n    /* \"#utility.yul\":944:1023   */\n  tag_40\n  tag_41\n  jump\t// in\ntag_40:\n    /* \"#utility.yul\":906:1025   */\ntag_39:\n    /* \"#utility.yul\":1085:1086   */\n  0x00\n    /* \"#utility.yul\":1074:1083   */\n  dup3\n    /* \"#utility.yul\":1070:1087   */\n  add\n    /* \"#utility.yul\":1064:1088   */\n  mload\n    /* \"#utility.yul\":1115:1133   */\n  0xffffffffffffffff\n    /* \"#utility.yul\":1107:1113   */\n  dup2\n    /* \"#utility.yul\":1104:1134   */\n  gt\n    /* \"#utility.yul\":1101:1218   */\n  iszero\n  tag_42\n  jumpi\n    /* \"#utility.yul\":1137:1216   */\n  tag_43\n  tag_44\n  jump\t// in\ntag_43:\n    /* \"#utility.yul\":1101:1218   */\ntag_42:\n    /* \"#utility.yul\":1242:1316   */\n  tag_45\n    /* \"#utility.yul\":1308:1315   */\n  dup5\n    /* \"#utility.yul\":1299:1305   */\n  dup3\n    /* \"#utility.yul\":1288:1297   */\n  dup6\n    /* \"#utility.yul\":1284:1306   */\n  add\n    /* \"#utility.yul\":1242:1316   */\n  tag_32\n  jump\t// in\ntag_45:\n    /* \"#utility.yul\":1232:1316   */\n  swap2\n  pop\n    /* \"#utility.yul\":1035:1326   */\n  pop\n    /* \"#utility.yul\":809:1333   */\n  swap3\n  swap2\n  pop\n  pop\n  jump\t// out\n    /* \"#utility.yul\":1339:1468   */\ntag_26:\n    /* \"#utility.yul\":1373:1379   */\n  0x00\n    /* \"#utility.yul\":1400:1420   */\n  tag_47\n  tag_48\n  jump\t// in\ntag_47:\n    /* \"#utility.yul\":1390:1420   */\n  swap1\n  pop\n    /* \"#utility.yul\":1429:1462   */\n  tag_49\n    /* \"#utility.yul\":1457:1461   */\n  dup3\n    /* \"#utility.yul\":1449:1455   */\n  dup3\n    /* \"#utility.yul\":1429:1462   */\n  tag_50\n  jump\t// in\ntag_49:\n    /* \"#utility.yul\":1339:1468   */\n  swap2\n  swap1\n  pop\n  jump\t// out\n    /* \"#utility.yul\":1474:1549   */\ntag_48:\n    /* \"#utility.yul\":1507:1513   */\n  0x00\n    /* \"#utility.yul\":1540:1542   */\n  0x40\n    /* \"#utility.yul\":1534:1543   */\n  mload\n    /* \"#utility.yul\":1524:1543   */\n  swap1\n  pop\n    /* \"#utility.yul\":1474:1549   */\n  swap1\n  jump\t// out\n    /* \"#utility.yul\":1555:1863   */\ntag_25:\n    /* \"#utility.yul\":1617:1621   */\n  0x00\n    /* \"#utility.yul\":1707:1725   */\n  0xffffffffffffffff\n    /* \"#utility.yul\":1699:1705   */\n  dup3\n    /* \"#utility.yul\":1696:1726   */\n  gt\n    /* \"#utility.yul\":1693:1749   */\n  iszero\n  tag_53\n  jumpi\n    /* \"#utility.yul\":1729:1747   */\n  tag_54\n  tag_55\n  jump\t// in\ntag_54:\n    /* \"#utility.yul\":1693:1749   */\ntag_53:\n    /* \"#utility.yul\":1767:1796   */\n  tag_56\n    /* \"#utility.yul\":1789:1795   */\n  dup3\n    /* \"#utility.yul\":1767:1796   */\n  tag_57\n  jump\t// in\ntag_56:\n    /* \"#utility.yul\":1759:1796   */\n  swap1\n  pop\n    /* \"#utility.yul\":1851:1855   */\n  0x20\n    /* \"#utility.yul\":1845:1849   */\n  dup2\n    /* \"#utility.yul\":1841:1856   */\n  add\n    /* \"#utility.yul\":1833:1856   */\n  swap1\n  pop\n    /* \"#utility.yul\":1555:1863   */\n  swap2\n  swap1\n  pop\n  jump\t// out\n    /* \"#utility.yul\":1869:2176   */\ntag_31:\n    /* \"#utility.yul\":1937:1938   */\n  0x00\n    /* \"#utility.yul\":1947:2060   */\ntag_59:\n    /* \"#utility.yul\":1961:1967   */\n  dup4\n    /* \"#utility.yul\":1958:1959   */\n  dup2\n    /* \"#utility.yul\":1955:1968   */\n  lt\n    /* \"#utility.yul\":1947:2060   */\n  iszero\n  tag_61\n  jumpi\n    /* \"#utility.yul\":2046:2047   */\n  dup1\n    /* \"#utility.yul\":2041:2044   */\n  dup3\n    /* \"#utility.yul\":2037:2048   */\n  add\n    /* \"#utility.yul\":2031:2049   */\n  mload\n    /* \"#utility.yul\":2027:2028   */\n  dup2\n    /* \"#utility.yul\":2022:2025   */\n  dup5\n    /* \"#utility.yul\":2018:2029   */\n  add\n    /* \"#utility.yul\":2011:2050   */\n  mstore\n    /* \"#utility.yul\":1983:1985   */\n  0x20\n    /* \"#utility.yul\":1980:1981   */\n  dup2\n    /* \"#utility.yul\":1976:1986   */\n  add\n    /* \"#utility.yul\":1971:1986   */\n  swap1\n  pop\n    /* \"#utility.yul\":1947:2060   */\n  jump(tag_59)\ntag_61:\n    /* \"#utility.yul\":2078:2084   */\n  dup4\n    /* \"#utility.yul\":2075:2076   */\n  dup2\n    /* \"#utility.yul\":2072:2085   */\n  gt\n    /* \"#utility.yul\":2069:2170   */\n  iszero\n  tag_62\n  jumpi\n    /* \"#utility.yul\":2158:2159   */\n  0x00\n    /* \"#utility.yul\":2149:2155   */\n  dup5\n    /* \"#utility.yul\":2144:2147   */\n  dup5\n    /* \"#utility.yul\":2140:2156   */\n  add\n    /* \"#utility.yul\":2133:2160   */\n  mstore\n    /* \"#utility.yul\":2069:2170   */\ntag_62:\n    /* \"#utility.yul\":1918:2176   */\n  pop\n    /* \"#utility.yul\":1869:2176   */\n  pop\n  pop\n  pop\n  jump\t// out\n    /* \"#utility.yul\":2182:2502   */\ntag_10:\n    /* \"#utility.yul\":2226:2232   */\n  0x00\n    /* \"#utility.yul\":2263:2264   */\n  0x02\n    /* \"#utility.yul\":2257:2261   */\n  dup3\n    /* \"#utility.yul\":2253:2265   */\n  div\n    /* \"#utility.yul\":2243:2265   */\n  swap1\n  pop\n    /* \"#utility.yul\":2310:2311   */\n  0x01\n    /* \"#utility.yul\":2304:2308   */\n  dup3\n    /* \"#utility.yul\":2300:2312   */\n  and\n    /* \"#utility.yul\":2331:2349   */\n  dup1\n    /* \"#utility.yul\":2321:2402   */\n  tag_64\n  jumpi\n    /* \"#utility.yul\":2387:2391   */\n  0x7f\n    /* \"#utility.yul\":2379:2385   */\n  dup3\n    /* \"#utility.yul\":2375:2392   */\n  and\n    /* \"#utility.yul\":2365:2392   */\n  swap2\n  pop\n    /* \"#utility.yul\":2321:2402   */\ntag_64:\n    /* \"#utility.yul\":2449:2451   */\n  0x20\n    /* \"#utility.yul\":2441:2447   */\n  dup3\n    /* \"#utility.yul\":2438:2452   */\n  lt\n    /* \"#utility.yul\":2418:2436   */\n  dup2\n    /* \"#utility.yul\":2415:2453   */\n  eq\n    /* \"#utility.yul\":2412:2496   */\n  iszero\n  tag_65\n  jumpi\n    /* \"#utility.yul\":2468:2486   */\n  tag_66\n  tag_67\n  jump\t// in\ntag_66:\n    /* \"#utility.yul\":2412:2496   */\ntag_65:\n    /* \"#utility.yul\":2233:2502   */\n  pop\n    /* \"#utility.yul\":2182:2502   */\n  swap2\n  swap1\n  pop\n  jump\t// out\n    /* \"#utility.yul\":2508:2789   */\ntag_50:\n    /* \"#utility.yul\":2591:2618   */\n  tag_69\n    /* \"#utility.yul\":2613:2617   */\n  dup3\n    /* \"#utility.yul\":2591:2618   */\n  tag_57\n  jump\t// in\ntag_69:\n    /* \"#utility.yul\":2583:2589   */\n  dup2\n    /* \"#utility.yul\":2579:2619   */\n  add\n    /* \"#utility.yul\":2721:2727   */\n  dup2\n    /* \"#utility.yul\":2709:2719   */\n  dup2\n    /* \"#utility.yul\":2706:2728   */\n  lt\n    /* \"#utility.yul\":2685:2703   */\n  0xffffffffffffffff\n    /* \"#utility.yul\":2673:2683   */\n  dup3\n    /* \"#utility.yul\":2670:2704   */\n  gt\n    /* \"#utility.yul\":2667:2729   */\n  or\n    /* \"#utility.yul\":2664:2752   */\n  iszero\n  tag_70\n  jumpi\n    /* \"#utility.yul\":2732:2750   */\n  tag_71\n  tag_55\n  jump\t// in\ntag_71:\n    /* \"#utility.yul\":2664:2752   */\ntag_70:\n    /* \"#utility.yul\":2772:2782   */\n  dup1\n    /* \"#utility.yul\":2768:2770   */\n  0x40\n    /* \"#utility.yul\":2761:2783   */\n  mstore\n    /* \"#utility.yul\":2551:2789   */\n  pop\n    /* \"#utility.yul\":2508:2789   */\n  pop\n  pop\n  jump\t// out\n    /* \"#utility.yul\":2795:2975   */\ntag_67:\n    /* \"#utility.yul\":2843:2920   */\n  0x4e487b7100000000000000000000000000000000000000000000000000000000\n    /* \"#utility.yul\":2840:2841   */\n  0x00\n    /* \"#utility.yul\":2833:2921   */\n  mstore\n    /* \"#utility.yul\":2940:2944   */\n  0x22\n    /* \"#utility.yul\":2937:2938   */\n  0x04\n    /* \"#utility.yul\":2930:2945   */\n  mstore\n    /* \"#utility.yul\":2964:2968   */\n  0x24\n    /* \"#utility.yul\":2961:2962   */\n  0x00\n    /* \"#utility.yul\":2954:2969   */\n  revert\n    /* \"#utility.yul\":2981:3161   */\ntag_55:\n    /* \"#utility.yul\":3029:3106   */\n  0x4e487b7100000000000000000000000000000000000000000000000000000000\n    /* \"#utility.yul\":3026:3027   */\n  0x00\n    /* \"#utility.yul\":3019:3107   */\n  mstore\n    /* \"#utility.yul\":3126:3130   */\n  0x41\n    /* \"#utility.yul\":3123:3124   */\n  0x04\n    /* \"#utility.yul\":3116:3131   */\n  mstore\n    /* \"#utility.yul\":3150:3154   */\n  0x24\n    /* \"#utility.yul\":3147:3148   */\n  0x00\n    /* \"#utility.yul\":3140:3155   */\n  revert\n    /* \"#utility.yul\":3167:3284   */\ntag_36:\n    /* \"#utility.yul\":3276:3277   */\n  0x00\n    /* \"#utility.yul\":3273:3274   */\n  dup1\n    /* \"#utility.yul\":3266:3278   */\n  revert\n    /* \"#utility.yul\":3290:3407   */\ntag_29:\n    /* \"#utility.yul\":3399:3400   */\n  0x00\n    /* \"#utility.yul\":3396:3397   */\n  dup1\n    /* \"#utility.yul\":3389:3401   */\n  revert\n    /* \"#utility.yul\":3413:3530   */\ntag_44:\n    /* \"#utility.yul\":3522:3523   */\n  0x00\n    /* \"#utility.yul\":3519:3520   */\n  dup1\n    /* \"#utility.yul\":3512:3524   */\n  revert\n    /* \"#utility.yul\":3536:3653   */\ntag_41:\n    /* \"#utility.yul\":3645:3646   */\n  0x00\n    /* \"#utility.yul\":3642:3643   */\n  dup1\n    /* \"#utility.yul\":3635:3647   */\n  revert\n    /* \"#utility.yul\":3659:3761   */\ntag_57:\n    /* \"#utility.yul\":3700:3706   */\n  0x00\n    /* \"#utility.yul\":3751:3753   */\n  0x1f\n    /* \"#utility.yul\":3747:3754   */\n  not\n    /* \"#utility.yul\":3742:3744   */\n  0x1f\n    /* \"#utility.yul\":3735:3740   */\n  dup4\n    /* \"#utility.yul\":3731:3745   */\n  add\n    /* \"#utility.yul\":3727:3755   */\n  and\n    /* \"#utility.yul\":3717:3755   */\n  swap1\n  pop\n    /* \"#utility.yul\":3659:3761   */\n  swap2\n  swap1\n  pop\n  jump\t// out\n    /* \"contracts/Modificadores.sol\":76:1744  contract Modificadores {\r... */\ntag_8:\n  dataSize(sub_0)\n  dup1\n  dataOffset(sub_0)\n  0x00\n  codecopy\n  0x00\n  return\nstop\n\nsub_0: assembly {\n        /* \"contracts/Modificadores.sol\":76:1744  contract Modificadores {\r... */\n      mstore(0x40, 0x80)\n      callvalue\n      dup1\n      iszero\n      tag_1\n      jumpi\n      0x00\n      dup1\n      revert\n    tag_1:\n      pop\n      jumpi(tag_2, lt(calldatasize, 0x04))\n      shr(0xe0, calldataload(0x00))\n      dup1\n      0x05e0019d\n      eq\n      tag_3\n      jumpi\n    tag_2:\n      0x00\n      dup1\n      revert\n        /* \"contracts/Modificadores.sol\":1604:1737  function Suma (uint numero1, uint numero2) public view isOwnerAddress2() returns (uint) {\r... */\n    tag_3:\n      tag_4\n      0x04\n      dup1\n      calldatasize\n      sub\n      dup2\n      add\n      swap1\n      tag_5\n      swap2\n      swap1\n      tag_6\n      jump\t// in\n    tag_5:\n      tag_7\n      jump\t// in\n    tag_4:\n      mload(0x40)\n      tag_8\n      swap2\n      swap1\n      tag_9\n      jump\t// in\n    tag_8:\n      mload(0x40)\n      dup1\n      swap2\n      sub\n      swap1\n      return\n    tag_7:\n        /* \"contracts/Modificadores.sol\":1686:1690  uint */\n      0x00\n        /* \"contracts/Modificadores.sol\":1452:1457  owner */\n      dup1\n      0x00\n      swap1\n      sload\n      swap1\n      0x0100\n      exp\n      swap1\n      div\n      0xffffffffffffffffffffffffffffffffffffffff\n      and\n        /* \"contracts/Modificadores.sol\":1438:1457  msg.sender == owner */\n      0xffffffffffffffffffffffffffffffffffffffff\n      and\n        /* \"contracts/Modificadores.sol\":1438:1448  msg.sender */\n      caller\n        /* \"contracts/Modificadores.sol\":1438:1457  msg.sender == owner */\n      0xffffffffffffffffffffffffffffffffffffffff\n      and\n      eq\n        /* \"contracts/Modificadores.sol\":1430:1502  require(msg.sender == owner, \"El usuario no es el creador del contrato\") */\n      tag_11\n      jumpi\n      mload(0x40)\n      0x08c379a000000000000000000000000000000000000000000000000000000000\n      dup2\n      mstore\n      0x04\n      add\n      tag_12\n      swap1\n      tag_13\n      jump\t// in\n    tag_12:\n      mload(0x40)\n      dup1\n      swap2\n      sub\n      swap1\n      revert\n    tag_11:\n        /* \"contracts/Modificadores.sol\":1722:1729  numero2 */\n      dup2\n        /* \"contracts/Modificadores.sol\":1712:1719  numero1 */\n      dup4\n        /* \"contracts/Modificadores.sol\":1712:1729  numero1 + numero2 */\n      tag_15\n      swap2\n      swap1\n      tag_16\n      jump\t// in\n    tag_15:\n        /* \"contracts/Modificadores.sol\":1705:1729  return numero1 + numero2 */\n      swap1\n      pop\n        /* \"contracts/Modificadores.sol\":1604:1737  function Suma (uint numero1, uint numero2) public view isOwnerAddress2() returns (uint) {\r... */\n      swap3\n      swap2\n      pop\n      pop\n      jump\t// out\n        /* \"#utility.yul\":7:146   */\n    tag_18:\n        /* \"#utility.yul\":53:58   */\n      0x00\n        /* \"#utility.yul\":91:97   */\n      dup2\n        /* \"#utility.yul\":78:98   */\n      calldataload\n        /* \"#utility.yul\":69:98   */\n      swap1\n      pop\n        /* \"#utility.yul\":107:140   */\n      tag_20\n        /* \"#utility.yul\":134:139   */\n      dup2\n        /* \"#utility.yul\":107:140   */\n      tag_21\n      jump\t// in\n    tag_20:\n        /* \"#utility.yul\":7:146   */\n      swap3\n      swap2\n      pop\n      pop\n      jump\t// out\n        /* \"#utility.yul\":152:626   */\n    tag_6:\n        /* \"#utility.yul\":220:226   */\n      0x00\n        /* \"#utility.yul\":228:234   */\n      dup1\n        /* \"#utility.yul\":277:279   */\n      0x40\n        /* \"#utility.yul\":265:274   */\n      dup4\n        /* \"#utility.yul\":256:263   */\n      dup6\n        /* \"#utility.yul\":252:275   */\n      sub\n        /* \"#utility.yul\":248:280   */\n      slt\n        /* \"#utility.yul\":245:364   */\n      iszero\n      tag_23\n      jumpi\n        /* \"#utility.yul\":283:362   */\n      tag_24\n      tag_25\n      jump\t// in\n    tag_24:\n        /* \"#utility.yul\":245:364   */\n    tag_23:\n        /* \"#utility.yul\":403:404   */\n      0x00\n        /* \"#utility.yul\":428:481   */\n      tag_26\n        /* \"#utility.yul\":473:480   */\n      dup6\n        /* \"#utility.yul\":464:470   */\n      dup3\n        /* \"#utility.yul\":453:462   */\n      dup7\n        /* \"#utility.yul\":449:471   */\n      add\n        /* \"#utility.yul\":428:481   */\n      tag_18\n      jump\t// in\n    tag_26:\n        /* \"#utility.yul\":418:481   */\n      swap3\n      pop\n        /* \"#utility.yul\":374:491   */\n      pop\n        /* \"#utility.yul\":530:532   */\n      0x20\n        /* \"#utility.yul\":556:609   */\n      tag_27\n        /* \"#utility.yul\":601:608   */\n      dup6\n        /* \"#utility.yul\":592:598   */\n      dup3\n        /* \"#utility.yul\":581:590   */\n      dup7\n        /* \"#utility.yul\":577:599   */\n      add\n        /* \"#utility.yul\":556:609   */\n      tag_18\n      jump\t// in\n    tag_27:\n        /* \"#utility.yul\":546:609   */\n      swap2\n      pop\n        /* \"#utility.yul\":501:619   */\n      pop\n        /* \"#utility.yul\":152:626   */\n      swap3\n      pop\n      swap3\n      swap1\n      pop\n      jump\t// out\n        /* \"#utility.yul\":632:998   */\n    tag_28:\n        /* \"#utility.yul\":774:777   */\n      0x00\n        /* \"#utility.yul\":795:862   */\n      tag_30\n        /* \"#utility.yul\":859:861   */\n      0x28\n        /* \"#utility.yul\":854:857   */\n      dup4\n        /* \"#utility.yul\":795:862   */\n      tag_31\n      jump\t// in\n    tag_30:\n        /* \"#utility.yul\":788:862   */\n      swap2\n      pop\n        /* \"#utility.yul\":871:964   */\n      tag_32\n        /* \"#utility.yul\":960:963   */\n      dup3\n        /* \"#utility.yul\":871:964   */\n      tag_33\n      jump\t// in\n    tag_32:\n        /* \"#utility.yul\":989:991   */\n      0x40\n        /* \"#utility.yul\":984:987   */\n      dup3\n        /* \"#utility.yul\":980:992   */\n      add\n        /* \"#utility.yul\":973:992   */\n      swap1\n      pop\n        /* \"#utility.yul\":632:998   */\n      swap2\n      swap1\n      pop\n      jump\t// out\n        /* \"#utility.yul\":1004:1122   */\n    tag_34:\n        /* \"#utility.yul\":1091:1115   */\n      tag_36\n        /* \"#utility.yul\":1109:1114   */\n      dup2\n        /* \"#utility.yul\":1091:1115   */\n      tag_37\n      jump\t// in\n    tag_36:\n        /* \"#utility.yul\":1086:1089   */\n      dup3\n        /* \"#utility.yul\":1079:1116   */\n      mstore\n        /* \"#utility.yul\":1004:1122   */\n      pop\n      pop\n      jump\t// out\n        /* \"#utility.yul\":1128:1547   */\n    tag_13:\n        /* \"#utility.yul\":1294:1298   */\n      0x00\n        /* \"#utility.yul\":1332:1334   */\n      0x20\n        /* \"#utility.yul\":1321:1330   */\n      dup3\n        /* \"#utility.yul\":1317:1335   */\n      add\n        /* \"#utility.yul\":1309:1335   */\n      swap1\n      pop\n        /* \"#utility.yul\":1381:1390   */\n      dup2\n        /* \"#utility.yul\":1375:1379   */\n      dup2\n        /* \"#utility.yul\":1371:1391   */\n      sub\n        /* \"#utility.yul\":1367:1368   */\n      0x00\n        /* \"#utility.yul\":1356:1365   */\n      dup4\n        /* \"#utility.yul\":1352:1369   */\n      add\n        /* \"#utility.yul\":1345:1392   */\n      mstore\n        /* \"#utility.yul\":1409:1540   */\n      tag_39\n        /* \"#utility.yul\":1535:1539   */\n      dup2\n        /* \"#utility.yul\":1409:1540   */\n      tag_28\n      jump\t// in\n    tag_39:\n        /* \"#utility.yul\":1401:1540   */\n      swap1\n      pop\n        /* \"#utility.yul\":1128:1547   */\n      swap2\n      swap1\n      pop\n      jump\t// out\n        /* \"#utility.yul\":1553:1775   */\n    tag_9:\n        /* \"#utility.yul\":1646:1650   */\n      0x00\n        /* \"#utility.yul\":1684:1686   */\n      0x20\n        /* \"#utility.yul\":1673:1682   */\n      dup3\n        /* \"#utility.yul\":1669:1687   */\n      add\n        /* \"#utility.yul\":1661:1687   */\n      swap1\n      pop\n        /* \"#utility.yul\":1697:1768   */\n      tag_41\n        /* \"#utility.yul\":1765:1766   */\n      0x00\n        /* \"#utility.yul\":1754:1763   */\n      dup4\n        /* \"#utility.yul\":1750:1767   */\n      add\n        /* \"#utility.yul\":1741:1747   */\n      dup5\n        /* \"#utility.yul\":1697:1768   */\n      tag_34\n      jump\t// in\n    tag_41:\n        /* \"#utility.yul\":1553:1775   */\n      swap3\n      swap2\n      pop\n      pop\n      jump\t// out\n        /* \"#utility.yul\":1862:2031   */\n    tag_31:\n        /* \"#utility.yul\":1946:1957   */\n      0x00\n        /* \"#utility.yul\":1980:1986   */\n      dup3\n        /* \"#utility.yul\":1975:1978   */\n      dup3\n        /* \"#utility.yul\":1968:1987   */\n      mstore\n        /* \"#utility.yul\":2020:2024   */\n      0x20\n        /* \"#utility.yul\":2015:2018   */\n      dup3\n        /* \"#utility.yul\":2011:2025   */\n      add\n        /* \"#utility.yul\":1996:2025   */\n      swap1\n      pop\n        /* \"#utility.yul\":1862:2031   */\n      swap3\n      swap2\n      pop\n      pop\n      jump\t// out\n        /* \"#utility.yul\":2037:2342   */\n    tag_16:\n        /* \"#utility.yul\":2077:2080   */\n      0x00\n        /* \"#utility.yul\":2096:2116   */\n      tag_46\n        /* \"#utility.yul\":2114:2115   */\n      dup3\n        /* \"#utility.yul\":2096:2116   */\n      tag_37\n      jump\t// in\n    tag_46:\n        /* \"#utility.yul\":2091:2116   */\n      swap2\n      pop\n        /* \"#utility.yul\":2130:2150   */\n      tag_47\n        /* \"#utility.yul\":2148:2149   */\n      dup4\n        /* \"#utility.yul\":2130:2150   */\n      tag_37\n      jump\t// in\n    tag_47:\n        /* \"#utility.yul\":2125:2150   */\n      swap3\n      pop\n        /* \"#utility.yul\":2284:2285   */\n      dup3\n        /* \"#utility.yul\":2216:2282   */\n      0xffffffffffffffffffffffffffffffffffffffffffffffffffffffffffffffff\n        /* \"#utility.yul\":2212:2286   */\n      sub\n        /* \"#utility.yul\":2209:2210   */\n      dup3\n        /* \"#utility.yul\":2206:2287   */\n      gt\n        /* \"#utility.yul\":2203:2310   */\n      iszero\n      tag_48\n      jumpi\n        /* \"#utility.yul\":2290:2308   */\n      tag_49\n      tag_50\n      jump\t// in\n    tag_49:\n        /* \"#utility.yul\":2203:2310   */\n    tag_48:\n        /* \"#utility.yul\":2334:2335   */\n      dup3\n        /* \"#utility.yul\":2331:2332   */\n      dup3\n        /* \"#utility.yul\":2327:2336   */\n      add\n        /* \"#utility.yul\":2320:2336   */\n      swap1\n      pop\n        /* \"#utility.yul\":2037:2342   */\n      swap3\n      swap2\n      pop\n      pop\n      jump\t// out\n        /* \"#utility.yul\":2348:2425   */\n    tag_37:\n        /* \"#utility.yul\":2385:2392   */\n      0x00\n        /* \"#utility.yul\":2414:2419   */\n      dup2\n        /* \"#utility.yul\":2403:2419   */\n      swap1\n      pop\n        /* \"#utility.yul\":2348:2425   */\n      swap2\n      swap1\n      pop\n      jump\t// out\n        /* \"#utility.yul\":2431:2611   */\n    tag_50:\n        /* \"#utility.yul\":2479:2556   */\n      0x4e487b7100000000000000000000000000000000000000000000000000000000\n        /* \"#utility.yul\":2476:2477   */\n      0x00\n        /* \"#utility.yul\":2469:2557   */\n      mstore\n        /* \"#utility.yul\":2576:2580   */\n      0x11\n        /* \"#utility.yul\":2573:2574   */\n      0x04\n        /* \"#utility.yul\":2566:2581   */\n      mstore\n        /* \"#utility.yul\":2600:2604   */\n      0x24\n        /* \"#utility.yul\":2597:2598   */\n      0x00\n        /* \"#utility.yul\":2590:2605   */\n      revert\n        /* \"#utility.yul\":2740:2857   */\n    tag_25:\n        /* \"#utility.yul\":2849:2850   */\n      0x00\n        /* \"#utility.yul\":2846:2847   */\n      dup1\n        /* \"#utility.yul\":2839:2851   */\n      revert\n        /* \"#utility.yul\":2863:3090   */\n    tag_33:\n        /* \"#utility.yul\":3003:3037   */\n      0x456c207573756172696f206e6f20657320656c2063726561646f722064656c20\n        /* \"#utility.yul\":2999:3000   */\n      0x00\n        /* \"#utility.yul\":2991:2997   */\n      dup3\n        /* \"#utility.yul\":2987:3001   */\n      add\n        /* \"#utility.yul\":2980:3038   */\n      mstore\n        /* \"#utility.yul\":3072:3082   */\n      0x636f6e747261746f000000000000000000000000000000000000000000000000\n        /* \"#utility.yul\":3067:3069   */\n      0x20\n        /* \"#utility.yul\":3059:3065   */\n      dup3\n        /* \"#utility.yul\":3055:3070   */\n      add\n        /* \"#utility.yul\":3048:3083   */\n      mstore\n        /* \"#utility.yul\":2863:3090   */\n      pop\n      jump\t// out\n        /* \"#utility.yul\":3096:3218   */\n    tag_21:\n        /* \"#utility.yul\":3169:3193   */\n      tag_58\n        /* \"#utility.yul\":3187:3192   */\n      dup2\n        /* \"#utility.yul\":3169:3193   */\n      tag_37\n      jump\t// in\n    tag_58:\n        /* \"#utility.yul\":3162:3167   */\n      dup2\n        /* \"#utility.yul\":3159:3194   */\n      eq\n        /* \"#utility.yul\":3149:3212   */\n      tag_59\n      jumpi\n        /* \"#utility.yul\":3208:3209   */\n      0x00\n        /* \"#utility.yul\":3205:3206   */\n      dup1\n        /* \"#utility.yul\":3198:3210   */\n      revert\n        /* \"#utility.yul\":3149:3212   */\n    tag_59:\n        /* \"#utility.yul\":3096:3218   */\n      pop\n      jump\t// out\n\n    auxdata: 0xa2646970667358221220f8095cfdab7c6102aa755f0325dab40046e93dd45368ee00f2fe4f863b41b8eb64736f6c63430008070033\n}\n",
				"bytecode": {
					"linkReferences": {},
					"object": "608060405234801561001057600080fd5b50604051610671380380610671833981810160405281019061003291906101a2565b336000806101000a81548173ffffffffffffffffffffffffffffffffffffffff021916908373ffffffffffffffffffffffffffffffffffffffff160217905550806001908051906020019061008892919061008f565b505061035a565b82805461009b90610274565b90600052602060002090601f0160209004810192826100bd5760008555610104565b82601f106100d657805160ff1916838001178555610104565b82800160010185558215610104579182015b828111156101035782518255916020019190600101906100e8565b5b5090506101119190610115565b5090565b5b8082111561012e576000816000905550600101610116565b5090565b600061014561014084610210565b6101eb565b9050828152602081018484840111156101615761016061033a565b5b61016c848285610241565b509392505050565b600082601f83011261018957610188610335565b5b8151610199848260208601610132565b91505092915050565b6000602082840312156101b8576101b7610344565b5b600082015167ffffffffffffffff8111156101d6576101d561033f565b5b6101e284828501610174565b91505092915050565b60006101f5610206565b905061020182826102a6565b919050565b6000604051905090565b600067ffffffffffffffff82111561022b5761022a610306565b5b61023482610349565b9050602081019050919050565b60005b8381101561025f578082015181840152602081019050610244565b8381111561026e576000848401525b50505050565b6000600282049050600182168061028c57607f821691505b602082108114156102a05761029f6102d7565b5b50919050565b6102af82610349565b810181811067ffffffffffffffff821117156102ce576102cd610306565b5b80604052505050565b7f4e487b7100000000000000000000000000000000000000000000000000000000600052602260045260246000fd5b7f4e487b7100000000000000000000000000000000000000000000000000000000600052604160045260246000fd5b600080fd5b600080fd5b600080fd5b600080fd5b6000601f19601f8301169050919050565b610308806103696000396000f3fe608060405234801561001057600080fd5b506004361061002b5760003560e01c806305e0019d14610030575b600080fd5b61004a6004803603810190610045919061011a565b610060565b60405161005791906101ac565b60405180910390f35b60008060009054906101000a900473ffffffffffffffffffffffffffffffffffffffff1673ffffffffffffffffffffffffffffffffffffffff163373ffffffffffffffffffffffffffffffffffffffff16146100f1576040517f08c379a00000000000000000000000000000000000000000000000000000000081526004016100e89061018c565b60405180910390fd5b81836100fd91906101d8565b905092915050565b600081359050610114816102bb565b92915050565b6000806040838503121561013157610130610267565b5b600061013f85828601610105565b925050602061015085828601610105565b9150509250929050565b60006101676028836101c7565b91506101728261026c565b604082019050919050565b6101868161022e565b82525050565b600060208201905081810360008301526101a58161015a565b9050919050565b60006020820190506101c1600083018461017d565b92915050565b600082825260208201905092915050565b60006101e38261022e565b91506101ee8361022e565b9250827fffffffffffffffffffffffffffffffffffffffffffffffffffffffffffffffff0382111561022357610222610238565b5b828201905092915050565b6000819050919050565b7f4e487b7100000000000000000000000000000000000000000000000000000000600052601160045260246000fd5b600080fd5b7f456c207573756172696f206e6f20657320656c2063726561646f722064656c2060008201527f636f6e747261746f000000000000000000000000000000000000000000000000602082015250565b6102c48161022e565b81146102cf57600080fd5b5056fea2646970667358221220f8095cfdab7c6102aa755f0325dab40046e93dd45368ee00f2fe4f863b41b8eb64736f6c63430008070033",
					"opcodes": "PUSH1 0x80 PUSH1 0x40 MSTORE CALLVALUE DUP1 ISZERO PUSH2 0x10 JUMPI PUSH1 0x0 DUP1 REVERT JUMPDEST POP PUSH1 0x40 MLOAD PUSH2 0x671 CODESIZE SUB DUP1 PUSH2 0x671 DUP4 CODECOPY DUP2 DUP2 ADD PUSH1 0x40 MSTORE DUP2 ADD SWAP1 PUSH2 0x32 SWAP2 SWAP1 PUSH2 0x1A2 JUMP JUMPDEST CALLER PUSH1 0x0 DUP1 PUSH2 0x100 EXP DUP2 SLOAD DUP2 PUSH20 0xFFFFFFFFFFFFFFFFFFFFFFFFFFFFFFFFFFFFFFFF MUL NOT AND SWAP1 DUP4 PUSH20 0xFFFFFFFFFFFFFFFFFFFFFFFFFFFFFFFFFFFFFFFF AND MUL OR SWAP1 SSTORE POP DUP1 PUSH1 0x1 SWAP1 DUP1 MLOAD SWAP1 PUSH1 0x20 ADD SWAP1 PUSH2 0x88 SWAP3 SWAP2 SWAP1 PUSH2 0x8F JUMP JUMPDEST POP POP PUSH2 0x35A JUMP JUMPDEST DUP3 DUP1 SLOAD PUSH2 0x9B SWAP1 PUSH2 0x274 JUMP JUMPDEST SWAP1 PUSH1 0x0 MSTORE PUSH1 0x20 PUSH1 0x0 KECCAK256 SWAP1 PUSH1 0x1F ADD PUSH1 0x20 SWAP1 DIV DUP2 ADD SWAP3 DUP3 PUSH2 0xBD JUMPI PUSH1 0x0 DUP6 SSTORE PUSH2 0x104 JUMP JUMPDEST DUP3 PUSH1 0x1F LT PUSH2 0xD6 JUMPI DUP1 MLOAD PUSH1 0xFF NOT AND DUP4 DUP1 ADD OR DUP6 SSTORE PUSH2 0x104 JUMP JUMPDEST DUP3 DUP1 ADD PUSH1 0x1 ADD DUP6 SSTORE DUP3 ISZERO PUSH2 0x104 JUMPI SWAP2 DUP3 ADD JUMPDEST DUP3 DUP2 GT ISZERO PUSH2 0x103 JUMPI DUP3 MLOAD DUP3 SSTORE SWAP2 PUSH1 0x20 ADD SWAP2 SWAP1 PUSH1 0x1 ADD SWAP1 PUSH2 0xE8 JUMP JUMPDEST JUMPDEST POP SWAP1 POP PUSH2 0x111 SWAP2 SWAP1 PUSH2 0x115 JUMP JUMPDEST POP SWAP1 JUMP JUMPDEST JUMPDEST DUP1 DUP3 GT ISZERO PUSH2 0x12E JUMPI PUSH1 0x0 DUP2 PUSH1 0x0 SWAP1 SSTORE POP PUSH1 0x1 ADD PUSH2 0x116 JUMP JUMPDEST POP SWAP1 JUMP JUMPDEST PUSH1 0x0 PUSH2 0x145 PUSH2 0x140 DUP5 PUSH2 0x210 JUMP JUMPDEST PUSH2 0x1EB JUMP JUMPDEST SWAP1 POP DUP3 DUP2 MSTORE PUSH1 0x20 DUP2 ADD DUP5 DUP5 DUP5 ADD GT ISZERO PUSH2 0x161 JUMPI PUSH2 0x160 PUSH2 0x33A JUMP JUMPDEST JUMPDEST PUSH2 0x16C DUP5 DUP3 DUP6 PUSH2 0x241 JUMP JUMPDEST POP SWAP4 SWAP3 POP POP POP JUMP JUMPDEST PUSH1 0x0 DUP3 PUSH1 0x1F DUP4 ADD SLT PUSH2 0x189 JUMPI PUSH2 0x188 PUSH2 0x335 JUMP JUMPDEST JUMPDEST DUP2 MLOAD PUSH2 0x199 DUP5 DUP3 PUSH1 0x20 DUP7 ADD PUSH2 0x132 JUMP JUMPDEST SWAP2 POP POP SWAP3 SWAP2 POP POP JUMP JUMPDEST PUSH1 0x0 PUSH1 0x20 DUP3 DUP5 SUB SLT ISZERO PUSH2 0x1B8 JUMPI PUSH2 0x1B7 PUSH2 0x344 JUMP JUMPDEST JUMPDEST PUSH1 0x0 DUP3 ADD MLOAD PUSH8 0xFFFFFFFFFFFFFFFF DUP2 GT ISZERO PUSH2 0x1D6 JUMPI PUSH2 0x1D5 PUSH2 0x33F JUMP JUMPDEST JUMPDEST PUSH2 0x1E2 DUP5 DUP3 DUP6 ADD PUSH2 0x174 JUMP JUMPDEST SWAP2 POP POP SWAP3 SWAP2 POP POP JUMP JUMPDEST PUSH1 0x0 PUSH2 0x1F5 PUSH2 0x206 JUMP JUMPDEST SWAP1 POP PUSH2 0x201 DUP3 DUP3 PUSH2 0x2A6 JUMP JUMPDEST SWAP2 SWAP1 POP JUMP JUMPDEST PUSH1 0x0 PUSH1 0x40 MLOAD SWAP1 POP SWAP1 JUMP JUMPDEST PUSH1 0x0 PUSH8 0xFFFFFFFFFFFFFFFF DUP3 GT ISZERO PUSH2 0x22B JUMPI PUSH2 0x22A PUSH2 0x306 JUMP JUMPDEST JUMPDEST PUSH2 0x234 DUP3 PUSH2 0x349 JUMP JUMPDEST SWAP1 POP PUSH1 0x20 DUP2 ADD SWAP1 POP SWAP2 SWAP1 POP JUMP JUMPDEST PUSH1 0x0 JUMPDEST DUP4 DUP2 LT ISZERO PUSH2 0x25F JUMPI DUP1 DUP3 ADD MLOAD DUP2 DUP5 ADD MSTORE PUSH1 0x20 DUP2 ADD SWAP1 POP PUSH2 0x244 JUMP JUMPDEST DUP4 DUP2 GT ISZERO PUSH2 0x26E JUMPI PUSH1 0x0 DUP5 DUP5 ADD MSTORE JUMPDEST POP POP POP POP JUMP JUMPDEST PUSH1 0x0 PUSH1 0x2 DUP3 DIV SWAP1 POP PUSH1 0x1 DUP3 AND DUP1 PUSH2 0x28C JUMPI PUSH1 0x7F DUP3 AND SWAP2 POP JUMPDEST PUSH1 0x20 DUP3 LT DUP2 EQ ISZERO PUSH2 0x2A0 JUMPI PUSH2 0x29F PUSH2 0x2D7 JUMP JUMPDEST JUMPDEST POP SWAP2 SWAP1 POP JUMP JUMPDEST PUSH2 0x2AF DUP3 PUSH2 0x349 JUMP JUMPDEST DUP2 ADD DUP2 DUP2 LT PUSH8 0xFFFFFFFFFFFFFFFF DUP3 GT OR ISZERO PUSH2 0x2CE JUMPI PUSH2 0x2CD PUSH2 0x306 JUMP JUMPDEST JUMPDEST DUP1 PUSH1 0x40 MSTORE POP POP POP JUMP JUMPDEST PUSH32 0x4E487B7100000000000000000000000000000000000000000000000000000000 PUSH1 0x0 MSTORE PUSH1 0x22 PUSH1 0x4 MSTORE PUSH1 0x24 PUSH1 0x0 REVERT JUMPDEST PUSH32 0x4E487B7100000000000000000000000000000000000000000000000000000000 PUSH1 0x0 MSTORE PUSH1 0x41 PUSH1 0x4 MSTORE PUSH1 0x24 PUSH1 0x0 REVERT JUMPDEST PUSH1 0x0 DUP1 REVERT JUMPDEST PUSH1 0x0 DUP1 REVERT JUMPDEST PUSH1 0x0 DUP1 REVERT JUMPDEST PUSH1 0x0 DUP1 REVERT JUMPDEST PUSH1 0x0 PUSH1 0x1F NOT PUSH1 0x1F DUP4 ADD AND SWAP1 POP SWAP2 SWAP1 POP JUMP JUMPDEST PUSH2 0x308 DUP1 PUSH2 0x369 PUSH1 0x0 CODECOPY PUSH1 0x0 RETURN INVALID PUSH1 0x80 PUSH1 0x40 MSTORE CALLVALUE DUP1 ISZERO PUSH2 0x10 JUMPI PUSH1 0x0 DUP1 REVERT JUMPDEST POP PUSH1 0x4 CALLDATASIZE LT PUSH2 0x2B JUMPI PUSH1 0x0 CALLDATALOAD PUSH1 0xE0 SHR DUP1 PUSH4 0x5E0019D EQ PUSH2 0x30 JUMPI JUMPDEST PUSH1 0x0 DUP1 REVERT JUMPDEST PUSH2 0x4A PUSH1 0x4 DUP1 CALLDATASIZE SUB DUP2 ADD SWAP1 PUSH2 0x45 SWAP2 SWAP1 PUSH2 0x11A JUMP JUMPDEST PUSH2 0x60 JUMP JUMPDEST PUSH1 0x40 MLOAD PUSH2 0x57 SWAP2 SWAP1 PUSH2 0x1AC JUMP JUMPDEST PUSH1 0x40 MLOAD DUP1 SWAP2 SUB SWAP1 RETURN JUMPDEST PUSH1 0x0 DUP1 PUSH1 0x0 SWAP1 SLOAD SWAP1 PUSH2 0x100 EXP SWAP1 DIV PUSH20 0xFFFFFFFFFFFFFFFFFFFFFFFFFFFFFFFFFFFFFFFF AND PUSH20 0xFFFFFFFFFFFFFFFFFFFFFFFFFFFFFFFFFFFFFFFF AND CALLER PUSH20 0xFFFFFFFFFFFFFFFFFFFFFFFFFFFFFFFFFFFFFFFF AND EQ PUSH2 0xF1 JUMPI PUSH1 0x40 MLOAD PUSH32 0x8C379A000000000000000000000000000000000000000000000000000000000 DUP2 MSTORE PUSH1 0x4 ADD PUSH2 0xE8 SWAP1 PUSH2 0x18C JUMP JUMPDEST PUSH1 0x40 MLOAD DUP1 SWAP2 SUB SWAP1 REVERT JUMPDEST DUP2 DUP4 PUSH2 0xFD SWAP2 SWAP1 PUSH2 0x1D8 JUMP JUMPDEST SWAP1 POP SWAP3 SWAP2 POP POP JUMP JUMPDEST PUSH1 0x0 DUP2 CALLDATALOAD SWAP1 POP PUSH2 0x114 DUP2 PUSH2 0x2BB JUMP JUMPDEST SWAP3 SWAP2 POP POP JUMP JUMPDEST PUSH1 0x0 DUP1 PUSH1 0x40 DUP4 DUP6 SUB SLT ISZERO PUSH2 0x131 JUMPI PUSH2 0x130 PUSH2 0x267 JUMP JUMPDEST JUMPDEST PUSH1 0x0 PUSH2 0x13F DUP6 DUP3 DUP7 ADD PUSH2 0x105 JUMP JUMPDEST SWAP3 POP POP PUSH1 0x20 PUSH2 0x150 DUP6 DUP3 DUP7 ADD PUSH2 0x105 JUMP JUMPDEST SWAP2 POP POP SWAP3 POP SWAP3 SWAP1 POP JUMP JUMPDEST PUSH1 0x0 PUSH2 0x167 PUSH1 0x28 DUP4 PUSH2 0x1C7 JUMP JUMPDEST SWAP2 POP PUSH2 0x172 DUP3 PUSH2 0x26C JUMP JUMPDEST PUSH1 0x40 DUP3 ADD SWAP1 POP SWAP2 SWAP1 POP JUMP JUMPDEST PUSH2 0x186 DUP2 PUSH2 0x22E JUMP JUMPDEST DUP3 MSTORE POP POP JUMP JUMPDEST PUSH1 0x0 PUSH1 0x20 DUP3 ADD SWAP1 POP DUP2 DUP2 SUB PUSH1 0x0 DUP4 ADD MSTORE PUSH2 0x1A5 DUP2 PUSH2 0x15A JUMP JUMPDEST SWAP1 POP SWAP2 SWAP1 POP JUMP JUMPDEST PUSH1 0x0 PUSH1 0x20 DUP3 ADD SWAP1 POP PUSH2 0x1C1 PUSH1 0x0 DUP4 ADD DUP5 PUSH2 0x17D JUMP JUMPDEST SWAP3 SWAP2 POP POP JUMP JUMPDEST PUSH1 0x0 DUP3 DUP3 MSTORE PUSH1 0x20 DUP3 ADD SWAP1 POP SWAP3 SWAP2 POP POP JUMP JUMPDEST PUSH1 0x0 PUSH2 0x1E3 DUP3 PUSH2 0x22E JUMP JUMPDEST SWAP2 POP PUSH2 0x1EE DUP4 PUSH2 0x22E JUMP JUMPDEST SWAP3 POP DUP3 PUSH32 0xFFFFFFFFFFFFFFFFFFFFFFFFFFFFFFFFFFFFFFFFFFFFFFFFFFFFFFFFFFFFFFFF SUB DUP3 GT ISZERO PUSH2 0x223 JUMPI PUSH2 0x222 PUSH2 0x238 JUMP JUMPDEST JUMPDEST DUP3 DUP3 ADD SWAP1 POP SWAP3 SWAP2 POP POP JUMP JUMPDEST PUSH1 0x0 DUP2 SWAP1 POP SWAP2 SWAP1 POP JUMP JUMPDEST PUSH32 0x4E487B7100000000000000000000000000000000000000000000000000000000 PUSH1 0x0 MSTORE PUSH1 0x11 PUSH1 0x4 MSTORE PUSH1 0x24 PUSH1 0x0 REVERT JUMPDEST PUSH1 0x0 DUP1 REVERT JUMPDEST PUSH32 0x456C207573756172696F206E6F20657320656C2063726561646F722064656C20 PUSH1 0x0 DUP3 ADD MSTORE PUSH32 0x636F6E747261746F000000000000000000000000000000000000000000000000 PUSH1 0x20 DUP3 ADD MSTORE POP JUMP JUMPDEST PUSH2 0x2C4 DUP2 PUSH2 0x22E JUMP JUMPDEST DUP2 EQ PUSH2 0x2CF JUMPI PUSH1 0x0 DUP1 REVERT JUMPDEST POP JUMP INVALID LOG2 PUSH5 0x6970667358 0x22 SLT KECCAK256 0xF8 MULMOD 0x5C REVERT 0xAB PUSH29 0x6102AA755F0325DAB40046E93DD45368EE00F2FE4F863B41B8EB64736F PUSH13 0x63430008070033000000000000 "
				},
				"gasEstimates": {
					"creation": {
						"codeDepositCost": "155200",
						"executionCost": "infinite",
						"totalCost": "infinite"
					},
					"external": {
						"Suma(uint256,uint256)": "infinite"
					}
				},
				"methodIdentifiers": {
					"Suma(uint256,uint256)": "05e0019d"
				}
			},
			"storageLayout": {
				"storage": [
					{
						"astId": 50,
						"contract": "contracts/Modificadores.sol:Modificadores",
						"label": "owner",
						"offset": 0,
						"slot": "0",
						"type": "t_address"
					},
					{
						"astId": 52,
						"contract": "contracts/Modificadores.sol:Modificadores",
						"label": "nombreOwner",
						"offset": 0,
						"slot": "1",
						"type": "t_string_storage"
					}
				],
				"types": {
					"t_address": {
						"encoding": "inplace",
						"label": "address",
						"numberOfBytes": "20"
					},
					"t_string_storage": {
						"encoding": "bytes",
						"label": "string",
						"numberOfBytes": "32"
					}
				}
			},
			"userdoc": {
				"kind": "user",
				"methods": {},
				"version": 1
			}
		}
	}
}