{
	"contracts/Transferencia.sol": {
		"Transferencia": {
			"abi": [
				{
					"inputs": [],
					"stateMutability": "payable",
					"type": "constructor"
				},
				{
					"inputs": [
						{
							"internalType": "address",
							"name": "destino",
							"type": "address"
						},
						{
							"internalType": "uint256",
							"name": "monto",
							"type": "uint256"
						}
					],
					"name": "transferenciaPorSend",
					"outputs": [
						{
							"internalType": "bool",
							"name": "",
							"type": "bool"
						}
					],
					"stateMutability": "nonpayable",
					"type": "function"
				},
				{
					"inputs": [
						{
							"internalType": "address",
							"name": "destino",
							"type": "address"
						},
						{
							"internalType": "uint256",
							"name": "monto",
							"type": "uint256"
						}
					],
					"name": "transferenciaPorTransfer",
					"outputs": [],
					"stateMutability": "nonpayable",
					"type": "function"
				}
			],
			"devdoc": {
				"kind": "dev",
				"methods": {},
				"version": 1
			},
			"evm": {
				"assembly": "    /* \"contracts/Transferencia.sol\":76:1522  contract Transferencia {\r... */\n  mstore(0x40, 0x80)\n  dataSize(sub_0)\n  dup1\n  dataOffset(sub_0)\n  0x00\n  codecopy\n  0x00\n  return\nstop\n\nsub_0: assembly {\n        /* \"contracts/Transferencia.sol\":76:1522  contract Transferencia {\r... */\n      mstore(0x40, 0x80)\n      callvalue\n      dup1\n      iszero\n      tag_1\n      jumpi\n      0x00\n      dup1\n      revert\n    tag_1:\n      pop\n      jumpi(tag_2, lt(calldatasize, 0x04))\n      shr(0xe0, calldataload(0x00))\n      dup1\n      0x8348fc0e\n      eq\n      tag_3\n      jumpi\n      dup1\n      0xc6732e11\n      eq\n      tag_4\n      jumpi\n    tag_2:\n      0x00\n      dup1\n      revert\n        /* \"contracts/Transferencia.sol\":1390:1511  function transferenciaPorTransfer(address destino, uint monto) public {\r... */\n    tag_3:\n      tag_5\n      0x04\n      dup1\n      calldatasize\n      sub\n      dup2\n      add\n      swap1\n      tag_6\n      swap2\n      swap1\n      tag_7\n      jump\t// in\n    tag_6:\n      tag_8\n      jump\t// in\n    tag_5:\n      stop\n        /* \"contracts/Transferencia.sol\":1107:1273  function transferenciaPorSend(address destino, uint monto) public returns (bool) {\r... */\n    tag_4:\n      tag_9\n      0x04\n      dup1\n      calldatasize\n      sub\n      dup2\n      add\n      swap1\n      tag_10\n      swap2\n      swap1\n      tag_7\n      jump\t// in\n    tag_10:\n      tag_11\n      jump\t// in\n    tag_9:\n      mload(0x40)\n      tag_12\n      swap2\n      swap1\n      tag_13\n      jump\t// in\n    tag_12:\n      mload(0x40)\n      dup1\n      swap2\n      sub\n      swap1\n      return\n        /* \"contracts/Transferencia.sol\":1390:1511  function transferenciaPorTransfer(address destino, uint monto) public {\r... */\n    tag_8:\n        /* \"contracts/Transferencia.sol\":1479:1486  destino */\n      dup2\n        /* \"contracts/Transferencia.sol\":1471:1496  payable(destino).transfer */\n      0xffffffffffffffffffffffffffffffffffffffff\n      and\n        /* \"contracts/Transferencia.sol\":1471:1503  payable(destino).transfer(monto) */\n      0x08fc\n        /* \"contracts/Transferencia.sol\":1497:1502  monto */\n      dup3\n        /* \"contracts/Transferencia.sol\":1471:1503  payable(destino).transfer(monto) */\n      swap1\n      dup2\n      iszero\n      mul\n      swap1\n      mload(0x40)\n      0x00\n      mload(0x40)\n      dup1\n      dup4\n      sub\n      dup2\n      dup6\n      dup9\n      dup9\n      call\n      swap4\n      pop\n      pop\n      pop\n      pop\n      iszero\n      dup1\n      iszero\n      tag_16\n      jumpi\n      returndatasize\n      0x00\n      dup1\n      returndatacopy\n      revert(0x00, returndatasize)\n    tag_16:\n      pop\n        /* \"contracts/Transferencia.sol\":1390:1511  function transferenciaPorTransfer(address destino, uint monto) public {\r... */\n      pop\n      pop\n      jump\t// out\n        /* \"contracts/Transferencia.sol\":1107:1273  function transferenciaPorSend(address destino, uint monto) public returns (bool) {\r... */\n    tag_11:\n        /* \"contracts/Transferencia.sol\":1182:1186  bool */\n      0x00\n        /* \"contracts/Transferencia.sol\":1199:1210  bool salida */\n      dup1\n        /* \"contracts/Transferencia.sol\":1221:1228  destino */\n      dup4\n        /* \"contracts/Transferencia.sol\":1213:1234  payable(destino).send */\n      0xffffffffffffffffffffffffffffffffffffffff\n      and\n        /* \"contracts/Transferencia.sol\":1213:1241  payable(destino).send(monto) */\n      0x08fc\n        /* \"contracts/Transferencia.sol\":1235:1240  monto */\n      dup5\n        /* \"contracts/Transferencia.sol\":1213:1241  payable(destino).send(monto) */\n      swap1\n      dup2\n      iszero\n      mul\n      swap1\n      mload(0x40)\n      0x00\n      mload(0x40)\n      dup1\n      dup4\n      sub\n      dup2\n      dup6\n      dup9\n      dup9\n      call\n      swap4\n      pop\n      pop\n      pop\n      pop\n        /* \"contracts/Transferencia.sol\":1199:1241  bool salida = payable(destino).send(monto) */\n      swap1\n      pop\n        /* \"contracts/Transferencia.sol\":1259:1265  salida */\n      dup1\n        /* \"contracts/Transferencia.sol\":1252:1265  return salida */\n      swap2\n      pop\n      pop\n        /* \"contracts/Transferencia.sol\":1107:1273  function transferenciaPorSend(address destino, uint monto) public returns (bool) {\r... */\n      swap3\n      swap2\n      pop\n      pop\n      jump\t// out\n        /* \"#utility.yul\":7:146   */\n    tag_20:\n        /* \"#utility.yul\":53:58   */\n      0x00\n        /* \"#utility.yul\":91:97   */\n      dup2\n        /* \"#utility.yul\":78:98   */\n      calldataload\n        /* \"#utility.yul\":69:98   */\n      swap1\n      pop\n        /* \"#utility.yul\":107:140   */\n      tag_22\n        /* \"#utility.yul\":134:139   */\n      dup2\n        /* \"#utility.yul\":107:140   */\n      tag_23\n      jump\t// in\n    tag_22:\n        /* \"#utility.yul\":7:146   */\n      swap3\n      swap2\n      pop\n      pop\n      jump\t// out\n        /* \"#utility.yul\":152:291   */\n    tag_24:\n        /* \"#utility.yul\":198:203   */\n      0x00\n        /* \"#utility.yul\":236:242   */\n      dup2\n        /* \"#utility.yul\":223:243   */\n      calldataload\n        /* \"#utility.yul\":214:243   */\n      swap1\n      pop\n        /* \"#utility.yul\":252:285   */\n      tag_26\n        /* \"#utility.yul\":279:284   */\n      dup2\n        /* \"#utility.yul\":252:285   */\n      tag_27\n      jump\t// in\n    tag_26:\n        /* \"#utility.yul\":152:291   */\n      swap3\n      swap2\n      pop\n      pop\n      jump\t// out\n        /* \"#utility.yul\":297:771   */\n    tag_7:\n        /* \"#utility.yul\":365:371   */\n      0x00\n        /* \"#utility.yul\":373:379   */\n      dup1\n        /* \"#utility.yul\":422:424   */\n      0x40\n        /* \"#utility.yul\":410:419   */\n      dup4\n        /* \"#utility.yul\":401:408   */\n      dup6\n        /* \"#utility.yul\":397:420   */\n      sub\n        /* \"#utility.yul\":393:425   */\n      slt\n        /* \"#utility.yul\":390:509   */\n      iszero\n      tag_29\n      jumpi\n        /* \"#utility.yul\":428:507   */\n      tag_30\n      tag_31\n      jump\t// in\n    tag_30:\n        /* \"#utility.yul\":390:509   */\n    tag_29:\n        /* \"#utility.yul\":548:549   */\n      0x00\n        /* \"#utility.yul\":573:626   */\n      tag_32\n        /* \"#utility.yul\":618:625   */\n      dup6\n        /* \"#utility.yul\":609:615   */\n      dup3\n        /* \"#utility.yul\":598:607   */\n      dup7\n        /* \"#utility.yul\":594:616   */\n      add\n        /* \"#utility.yul\":573:626   */\n      tag_20\n      jump\t// in\n    tag_32:\n        /* \"#utility.yul\":563:626   */\n      swap3\n      pop\n        /* \"#utility.yul\":519:636   */\n      pop\n        /* \"#utility.yul\":675:677   */\n      0x20\n        /* \"#utility.yul\":701:754   */\n      tag_33\n        /* \"#utility.yul\":746:753   */\n      dup6\n        /* \"#utility.yul\":737:743   */\n      dup3\n        /* \"#utility.yul\":726:735   */\n      dup7\n        /* \"#utility.yul\":722:744   */\n      add\n        /* \"#utility.yul\":701:754   */\n      tag_24\n      jump\t// in\n    tag_33:\n        /* \"#utility.yul\":691:754   */\n      swap2\n      pop\n        /* \"#utility.yul\":646:764   */\n      pop\n        /* \"#utility.yul\":297:771   */\n      swap3\n      pop\n      swap3\n      swap1\n      pop\n      jump\t// out\n        /* \"#utility.yul\":777:886   */\n    tag_34:\n        /* \"#utility.yul\":858:879   */\n      tag_36\n        /* \"#utility.yul\":873:878   */\n      dup2\n        /* \"#utility.yul\":858:879   */\n      tag_37\n      jump\t// in\n    tag_36:\n        /* \"#utility.yul\":853:856   */\n      dup3\n        /* \"#utility.yul\":846:880   */\n      mstore\n        /* \"#utility.yul\":777:886   */\n      pop\n      pop\n      jump\t// out\n        /* \"#utility.yul\":892:1102   */\n    tag_13:\n        /* \"#utility.yul\":979:983   */\n      0x00\n        /* \"#utility.yul\":1017:1019   */\n      0x20\n        /* \"#utility.yul\":1006:1015   */\n      dup3\n        /* \"#utility.yul\":1002:1020   */\n      add\n        /* \"#utility.yul\":994:1020   */\n      swap1\n      pop\n        /* \"#utility.yul\":1030:1095   */\n      tag_39\n        /* \"#utility.yul\":1092:1093   */\n      0x00\n        /* \"#utility.yul\":1081:1090   */\n      dup4\n        /* \"#utility.yul\":1077:1094   */\n      add\n        /* \"#utility.yul\":1068:1074   */\n      dup5\n        /* \"#utility.yul\":1030:1095   */\n      tag_34\n      jump\t// in\n    tag_39:\n        /* \"#utility.yul\":892:1102   */\n      swap3\n      swap2\n      pop\n      pop\n      jump\t// out\n        /* \"#utility.yul\":1189:1285   */\n    tag_42:\n        /* \"#utility.yul\":1226:1233   */\n      0x00\n        /* \"#utility.yul\":1255:1279   */\n      tag_44\n        /* \"#utility.yul\":1273:1278   */\n      dup3\n        /* \"#utility.yul\":1255:1279   */\n      tag_45\n      jump\t// in\n    tag_44:\n        /* \"#utility.yul\":1244:1279   */\n      swap1\n      pop\n        /* \"#utility.yul\":1189:1285   */\n      swap2\n      swap1\n      pop\n      jump\t// out\n        /* \"#utility.yul\":1291:1381   */\n    tag_37:\n        /* \"#utility.yul\":1325:1332   */\n      0x00\n        /* \"#utility.yul\":1368:1373   */\n      dup2\n        /* \"#utility.yul\":1361:1374   */\n      iszero\n        /* \"#utility.yul\":1354:1375   */\n      iszero\n        /* \"#utility.yul\":1343:1375   */\n      swap1\n      pop\n        /* \"#utility.yul\":1291:1381   */\n      swap2\n      swap1\n      pop\n      jump\t// out\n        /* \"#utility.yul\":1387:1513   */\n    tag_45:\n        /* \"#utility.yul\":1424:1431   */\n      0x00\n        /* \"#utility.yul\":1464:1506   */\n      0xffffffffffffffffffffffffffffffffffffffff\n        /* \"#utility.yul\":1457:1462   */\n      dup3\n        /* \"#utility.yul\":1453:1507   */\n      and\n        /* \"#utility.yul\":1442:1507   */\n      swap1\n      pop\n        /* \"#utility.yul\":1387:1513   */\n      swap2\n      swap1\n      pop\n      jump\t// out\n        /* \"#utility.yul\":1519:1596   */\n    tag_48:\n        /* \"#utility.yul\":1556:1563   */\n      0x00\n        /* \"#utility.yul\":1585:1590   */\n      dup2\n        /* \"#utility.yul\":1574:1590   */\n      swap1\n      pop\n        /* \"#utility.yul\":1519:1596   */\n      swap2\n      swap1\n      pop\n      jump\t// out\n        /* \"#utility.yul\":1725:1842   */\n    tag_31:\n        /* \"#utility.yul\":1834:1835   */\n      0x00\n        /* \"#utility.yul\":1831:1832   */\n      dup1\n        /* \"#utility.yul\":1824:1836   */\n      revert\n        /* \"#utility.yul\":1848:1970   */\n    tag_23:\n        /* \"#utility.yul\":1921:1945   */\n      tag_54\n        /* \"#utility.yul\":1939:1944   */\n      dup2\n        /* \"#utility.yul\":1921:1945   */\n      tag_42\n      jump\t// in\n    tag_54:\n        /* \"#utility.yul\":1914:1919   */\n      dup2\n        /* \"#utility.yul\":1911:1946   */\n      eq\n        /* \"#utility.yul\":1901:1964   */\n      tag_55\n      jumpi\n        /* \"#utility.yul\":1960:1961   */\n      0x00\n        /* \"#utility.yul\":1957:1958   */\n      dup1\n        /* \"#utility.yul\":1950:1962   */\n      revert\n        /* \"#utility.yul\":1901:1964   */\n    tag_55:\n        /* \"#utility.yul\":1848:1970   */\n      pop\n      jump\t// out\n        /* \"#utility.yul\":1976:2098   */\n    tag_27:\n        /* \"#utility.yul\":2049:2073   */\n      tag_57\n        /* \"#utility.yul\":2067:2072   */\n      dup2\n        /* \"#utility.yul\":2049:2073   */\n      tag_48\n      jump\t// in\n    tag_57:\n        /* \"#utility.yul\":2042:2047   */\n      dup2\n        /* \"#utility.yul\":2039:2074   */\n      eq\n        /* \"#utility.yul\":2029:2092   */\n      tag_58\n      jumpi\n        /* \"#utility.yul\":2088:2089   */\n      0x00\n        /* \"#utility.yul\":2085:2086   */\n      dup1\n        /* \"#utility.yul\":2078:2090   */\n      revert\n        /* \"#utility.yul\":2029:2092   */\n    tag_58:\n        /* \"#utility.yul\":1976:2098   */\n      pop\n      jump\t// out\n\n    auxdata: 0xa2646970667358221220e16929b0b7be874f223a2b55df2bd3a7c4a7ba2e16c0189a9fc25361abf0e98364736f6c63430008070033\n}\n",
				"bytecode": {
					"linkReferences": {},
					"object": "608060405261025b806100136000396000f3fe608060405234801561001057600080fd5b50600436106100365760003560e01c80638348fc0e1461003b578063c6732e1114610057575b600080fd5b61005560048036038101906100509190610140565b610087565b005b610071600480360381019061006c9190610140565b6100d2565b60405161007e919061018f565b60405180910390f35b8173ffffffffffffffffffffffffffffffffffffffff166108fc829081150290604051600060405180830381858888f193505050501580156100cd573d6000803e3d6000fd5b505050565b6000808373ffffffffffffffffffffffffffffffffffffffff166108fc849081150290604051600060405180830381858888f1935050505090508091505092915050565b600081359050610125816101f7565b92915050565b60008135905061013a8161020e565b92915050565b60008060408385031215610157576101566101f2565b5b600061016585828601610116565b92505060206101768582860161012b565b9150509250929050565b610189816101bc565b82525050565b60006020820190506101a46000830184610180565b92915050565b60006101b5826101c8565b9050919050565b60008115159050919050565b600073ffffffffffffffffffffffffffffffffffffffff82169050919050565b6000819050919050565b600080fd5b610200816101aa565b811461020b57600080fd5b50565b610217816101e8565b811461022257600080fd5b5056fea2646970667358221220e16929b0b7be874f223a2b55df2bd3a7c4a7ba2e16c0189a9fc25361abf0e98364736f6c63430008070033",
					"opcodes": "PUSH1 0x80 PUSH1 0x40 MSTORE PUSH2 0x25B DUP1 PUSH2 0x13 PUSH1 0x0 CODECOPY PUSH1 0x0 RETURN INVALID PUSH1 0x80 PUSH1 0x40 MSTORE CALLVALUE DUP1 ISZERO PUSH2 0x10 JUMPI PUSH1 0x0 DUP1 REVERT JUMPDEST POP PUSH1 0x4 CALLDATASIZE LT PUSH2 0x36 JUMPI PUSH1 0x0 CALLDATALOAD PUSH1 0xE0 SHR DUP1 PUSH4 0x8348FC0E EQ PUSH2 0x3B JUMPI DUP1 PUSH4 0xC6732E11 EQ PUSH2 0x57 JUMPI JUMPDEST PUSH1 0x0 DUP1 REVERT JUMPDEST PUSH2 0x55 PUSH1 0x4 DUP1 CALLDATASIZE SUB DUP2 ADD SWAP1 PUSH2 0x50 SWAP2 SWAP1 PUSH2 0x140 JUMP JUMPDEST PUSH2 0x87 JUMP JUMPDEST STOP JUMPDEST PUSH2 0x71 PUSH1 0x4 DUP1 CALLDATASIZE SUB DUP2 ADD SWAP1 PUSH2 0x6C SWAP2 SWAP1 PUSH2 0x140 JUMP JUMPDEST PUSH2 0xD2 JUMP JUMPDEST PUSH1 0x40 MLOAD PUSH2 0x7E SWAP2 SWAP1 PUSH2 0x18F JUMP JUMPDEST PUSH1 0x40 MLOAD DUP1 SWAP2 SUB SWAP1 RETURN JUMPDEST DUP2 PUSH20 0xFFFFFFFFFFFFFFFFFFFFFFFFFFFFFFFFFFFFFFFF AND PUSH2 0x8FC DUP3 SWAP1 DUP2 ISZERO MUL SWAP1 PUSH1 0x40 MLOAD PUSH1 0x0 PUSH1 0x40 MLOAD DUP1 DUP4 SUB DUP2 DUP6 DUP9 DUP9 CALL SWAP4 POP POP POP POP ISZERO DUP1 ISZERO PUSH2 0xCD JUMPI RETURNDATASIZE PUSH1 0x0 DUP1 RETURNDATACOPY RETURNDATASIZE PUSH1 0x0 REVERT JUMPDEST POP POP POP JUMP JUMPDEST PUSH1 0x0 DUP1 DUP4 PUSH20 0xFFFFFFFFFFFFFFFFFFFFFFFFFFFFFFFFFFFFFFFF AND PUSH2 0x8FC DUP5 SWAP1 DUP2 ISZERO MUL SWAP1 PUSH1 0x40 MLOAD PUSH1 0x0 PUSH1 0x40 MLOAD DUP1 DUP4 SUB DUP2 DUP6 DUP9 DUP9 CALL SWAP4 POP POP POP POP SWAP1 POP DUP1 SWAP2 POP POP SWAP3 SWAP2 POP POP JUMP JUMPDEST PUSH1 0x0 DUP2 CALLDATALOAD SWAP1 POP PUSH2 0x125 DUP2 PUSH2 0x1F7 JUMP JUMPDEST SWAP3 SWAP2 POP POP JUMP JUMPDEST PUSH1 0x0 DUP2 CALLDATALOAD SWAP1 POP PUSH2 0x13A DUP2 PUSH2 0x20E JUMP JUMPDEST SWAP3 SWAP2 POP POP JUMP JUMPDEST PUSH1 0x0 DUP1 PUSH1 0x40 DUP4 DUP6 SUB SLT ISZERO PUSH2 0x157 JUMPI PUSH2 0x156 PUSH2 0x1F2 JUMP JUMPDEST JUMPDEST PUSH1 0x0 PUSH2 0x165 DUP6 DUP3 DUP7 ADD PUSH2 0x116 JUMP JUMPDEST SWAP3 POP POP PUSH1 0x20 PUSH2 0x176 DUP6 DUP3 DUP7 ADD PUSH2 0x12B JUMP JUMPDEST SWAP2 POP POP SWAP3 POP SWAP3 SWAP1 POP JUMP JUMPDEST PUSH2 0x189 DUP2 PUSH2 0x1BC JUMP JUMPDEST DUP3 MSTORE POP POP JUMP JUMPDEST PUSH1 0x0 PUSH1 0x20 DUP3 ADD SWAP1 POP PUSH2 0x1A4 PUSH1 0x0 DUP4 ADD DUP5 PUSH2 0x180 JUMP JUMPDEST SWAP3 SWAP2 POP POP JUMP JUMPDEST PUSH1 0x0 PUSH2 0x1B5 DUP3 PUSH2 0x1C8 JUMP JUMPDEST SWAP1 POP SWAP2 SWAP1 POP JUMP JUMPDEST PUSH1 0x0 DUP2 ISZERO ISZERO SWAP1 POP SWAP2 SWAP1 POP JUMP JUMPDEST PUSH1 0x0 PUSH20 0xFFFFFFFFFFFFFFFFFFFFFFFFFFFFFFFFFFFFFFFF DUP3 AND SWAP1 POP SWAP2 SWAP1 POP JUMP JUMPDEST PUSH1 0x0 DUP2 SWAP1 POP SWAP2 SWAP1 POP JUMP JUMPDEST PUSH1 0x0 DUP1 REVERT JUMPDEST PUSH2 0x200 DUP2 PUSH2 0x1AA JUMP JUMPDEST DUP2 EQ PUSH2 0x20B JUMPI PUSH1 0x0 DUP1 REVERT JUMPDEST POP JUMP JUMPDEST PUSH2 0x217 DUP2 PUSH2 0x1E8 JUMP JUMPDEST DUP2 EQ PUSH2 0x222 JUMPI PUSH1 0x0 DUP1 REVERT JUMPDEST POP JUMP INVALID LOG2 PUSH5 0x6970667358 0x22 SLT KECCAK256 0xE1 PUSH10 0x29B0B7BE874F223A2B55 0xDF 0x2B 0xD3 0xA7 0xC4 0xA7 0xBA 0x2E AND 0xC0 XOR SWAP11 SWAP16 0xC2 MSTORE8 PUSH2 0xABF0 0xE9 DUP4 PUSH5 0x736F6C6343 STOP ADDMOD SMOD STOP CALLER "
				},
				"gasEstimates": {
					"creation": {
						"codeDepositCost": "120600",
						"executionCost": "141",
						"totalCost": "120741"
					},
					"external": {
						"transferenciaPorSend(address,uint256)": "infinite",
						"transferenciaPorTransfer(address,uint256)": "infinite"
					}
				},
				"methodIdentifiers": {
					"transferenciaPorSend(address,uint256)": "c6732e11",
					"transferenciaPorTransfer(address,uint256)": "8348fc0e"
				}
			},
			"storageLayout": {
				"storage": [],
				"types": null
			},
			"userdoc": {
				"kind": "user",
				"methods": {},
				"version": 1
			}
		}
	}
}