{"contracts/Counter.sol":{"Counter":{"abi":[{"inputs":[{"internalType":"uint256","name":"_counter","type":"uint256"}],"stateMutability":"nonpayable","type":"constructor"},{"inputs":[],"name":"getCounter","outputs":[{"internalType":"uint256","name":"","type":"uint256"}],"stateMutability":"view","type":"function"},{"inputs":[],"name":"increment","outputs":[],"stateMutability":"nonpayable","type":"function"},{"inputs":[{"internalType":"uint256","name":"_counter","type":"uint256"}],"name":"setCounter","outputs":[],"stateMutability":"nonpayable","type":"function"}],"evm":{"bytecode":{"linkReferences":{},"object":"608060405234801561001057600080fd5b506040516102ab3803806102ab8339818101604052810190610032919061007a565b80600081905550506100a7565b600080fd5b6000819050919050565b61005781610044565b811461006257600080fd5b50565b6000815190506100748161004e565b92915050565b6000602082840312156100905761008f61003f565b5b600061009e84828501610065565b91505092915050565b6101f5806100b66000396000f3fe608060405234801561001057600080fd5b50600436106100415760003560e01c80638ada066e146100465780638bb5d9c314610064578063d09de08a14610080575b600080fd5b61004e61008a565b60405161005b91906100cf565b60405180910390f35b61007e6004803603810190610079919061011b565b610093565b005b61008861009d565b005b60008054905090565b8060008190555050565b6000808154809291906100af90610177565b9190505550565b6000819050919050565b6100c9816100b6565b82525050565b60006020820190506100e460008301846100c0565b92915050565b600080fd5b6100f8816100b6565b811461010357600080fd5b50565b600081359050610115816100ef565b92915050565b600060208284031215610131576101306100ea565b5b600061013f84828501610106565b91505092915050565b7f4e487b7100000000000000000000000000000000000000000000000000000000600052601160045260246000fd5b6000610182826100b6565b91507fffffffffffffffffffffffffffffffffffffffffffffffffffffffffffffffff82036101b4576101b3610148565b5b60018201905091905056fea2646970667358221220db461df6de180da1ff1138ea46403eb8f8e573b3fb9d25fc15935c1061b8208964736f6c63430008110033","opcodes":"PUSH1 0x80 PUSH1 0x40 MSTORE CALLVALUE DUP1 ISZERO PUSH2 0x10 JUMPI PUSH1 0x0 DUP1 REVERT JUMPDEST POP PUSH1 0x40 MLOAD PUSH2 0x2AB CODESIZE SUB DUP1 PUSH2 0x2AB DUP4 CODECOPY DUP2 DUP2 ADD PUSH1 0x40 MSTORE DUP2 ADD SWAP1 PUSH2 0x32 SWAP2 SWAP1 PUSH2 0x7A JUMP JUMPDEST DUP1 PUSH1 0x0 DUP2 SWAP1 SSTORE POP POP PUSH2 0xA7 JUMP JUMPDEST PUSH1 0x0 DUP1 REVERT JUMPDEST PUSH1 0x0 DUP2 SWAP1 POP SWAP2 SWAP1 POP JUMP JUMPDEST PUSH2 0x57 DUP2 PUSH2 0x44 JUMP JUMPDEST DUP2 EQ PUSH2 0x62 JUMPI PUSH1 0x0 DUP1 REVERT JUMPDEST POP JUMP JUMPDEST PUSH1 0x0 DUP2 MLOAD SWAP1 POP PUSH2 0x74 DUP2 PUSH2 0x4E JUMP JUMPDEST SWAP3 SWAP2 POP POP JUMP JUMPDEST PUSH1 0x0 PUSH1 0x20 DUP3 DUP5 SUB SLT ISZERO PUSH2 0x90 JUMPI PUSH2 0x8F PUSH2 0x3F JUMP JUMPDEST JUMPDEST PUSH1 0x0 PUSH2 0x9E DUP5 DUP3 DUP6 ADD PUSH2 0x65 JUMP JUMPDEST SWAP2 POP POP SWAP3 SWAP2 POP POP JUMP JUMPDEST PUSH2 0x1F5 DUP1 PUSH2 0xB6 PUSH1 0x0 CODECOPY PUSH1 0x0 RETURN INVALID PUSH1 0x80 PUSH1 0x40 MSTORE CALLVALUE DUP1 ISZERO PUSH2 0x10 JUMPI PUSH1 0x0 DUP1 REVERT JUMPDEST POP PUSH1 0x4 CALLDATASIZE LT PUSH2 0x41 JUMPI PUSH1 0x0 CALLDATALOAD PUSH1 0xE0 SHR DUP1 PUSH4 0x8ADA066E EQ PUSH2 0x46 JUMPI DUP1 PUSH4 0x8BB5D9C3 EQ PUSH2 0x64 JUMPI DUP1 PUSH4 0xD09DE08A EQ PUSH2 0x80 JUMPI JUMPDEST PUSH1 0x0 DUP1 REVERT JUMPDEST PUSH2 0x4E PUSH2 0x8A JUMP JUMPDEST PUSH1 0x40 MLOAD PUSH2 0x5B SWAP2 SWAP1 PUSH2 0xCF JUMP JUMPDEST PUSH1 0x40 MLOAD DUP1 SWAP2 SUB SWAP1 RETURN JUMPDEST PUSH2 0x7E PUSH1 0x4 DUP1 CALLDATASIZE SUB DUP2 ADD SWAP1 PUSH2 0x79 SWAP2 SWAP1 PUSH2 0x11B JUMP JUMPDEST PUSH2 0x93 JUMP JUMPDEST STOP JUMPDEST PUSH2 0x88 PUSH2 0x9D JUMP JUMPDEST STOP JUMPDEST PUSH1 0x0 DUP1 SLOAD SWAP1 POP SWAP1 JUMP JUMPDEST DUP1 PUSH1 0x0 DUP2 SWAP1 SSTORE POP POP JUMP JUMPDEST PUSH1 0x0 DUP1 DUP2 SLOAD DUP1 SWAP3 SWAP2 SWAP1 PUSH2 0xAF SWAP1 PUSH2 0x177 JUMP JUMPDEST SWAP2 SWAP1 POP SSTORE POP JUMP JUMPDEST PUSH1 0x0 DUP2 SWAP1 POP SWAP2 SWAP1 POP JUMP JUMPDEST PUSH2 0xC9 DUP2 PUSH2 0xB6 JUMP JUMPDEST DUP3 MSTORE POP POP JUMP JUMPDEST PUSH1 0x0 PUSH1 0x20 DUP3 ADD SWAP1 POP PUSH2 0xE4 PUSH1 0x0 DUP4 ADD DUP5 PUSH2 0xC0 JUMP JUMPDEST SWAP3 SWAP2 POP POP JUMP JUMPDEST PUSH1 0x0 DUP1 REVERT JUMPDEST PUSH2 0xF8 DUP2 PUSH2 0xB6 JUMP JUMPDEST DUP2 EQ PUSH2 0x103 JUMPI PUSH1 0x0 DUP1 REVERT JUMPDEST POP JUMP JUMPDEST PUSH1 0x0 DUP2 CALLDATALOAD SWAP1 POP PUSH2 0x115 DUP2 PUSH2 0xEF JUMP JUMPDEST SWAP3 SWAP2 POP POP JUMP JUMPDEST PUSH1 0x0 PUSH1 0x20 DUP3 DUP5 SUB SLT ISZERO PUSH2 0x131 JUMPI PUSH2 0x130 PUSH2 0xEA JUMP JUMPDEST JUMPDEST PUSH1 0x0 PUSH2 0x13F DUP5 DUP3 DUP6 ADD PUSH2 0x106 JUMP JUMPDEST SWAP2 POP POP SWAP3 SWAP2 POP POP JUMP JUMPDEST PUSH32 0x4E487B7100000000000000000000000000000000000000000000000000000000 PUSH1 0x0 MSTORE PUSH1 0x11 PUSH1 0x4 MSTORE PUSH1 0x24 PUSH1 0x0 REVERT JUMPDEST PUSH1 0x0 PUSH2 0x182 DUP3 PUSH2 0xB6 JUMP JUMPDEST SWAP2 POP PUSH32 0xFFFFFFFFFFFFFFFFFFFFFFFFFFFFFFFFFFFFFFFFFFFFFFFFFFFFFFFFFFFFFFFF DUP3 SUB PUSH2 0x1B4 JUMPI PUSH2 0x1B3 PUSH2 0x148 JUMP JUMPDEST JUMPDEST PUSH1 0x1 DUP3 ADD SWAP1 POP SWAP2 SWAP1 POP JUMP INVALID LOG2 PUSH5 0x6970667358 0x22 SLT KECCAK256 0xDB CHAINID SAR 0xF6 0xDE XOR 0xD LOG1 SELFDESTRUCT GT CODESIZE 0xEA CHAINID BLOCKHASH RETURNDATACOPY 0xB8 0xF8 0xE5 PUSH20 0xB3FB9D25FC15935C1061B8208964736F6C634300 ADDMOD GT STOP CALLER "},"methodIdentifiers":{"getCounter()":"8ada066e","increment()":"d09de08a","setCounter(uint256)":"8bb5d9c3"}}}}}