{
	"contracts/Financial Services/Balance.sol": {
		"TokenBasic": {
			"abi": [
				{
					"inputs": [
						{
							"internalType": "uint256",
							"name": "total",
							"type": "uint256"
						}
					],
					"stateMutability": "nonpayable",
					"type": "constructor"
				},
				{
					"anonymous": false,
					"inputs": [
						{
							"indexed": true,
							"internalType": "address",
							"name": "_owner",
							"type": "address"
						},
						{
							"indexed": true,
							"internalType": "address",
							"name": "_spender",
							"type": "address"
						},
						{
							"indexed": false,
							"internalType": "uint256",
							"name": "_value",
							"type": "uint256"
						}
					],
					"name": "Approval",
					"type": "event"
				},
				{
					"anonymous": false,
					"inputs": [
						{
							"indexed": true,
							"internalType": "address",
							"name": "_from",
							"type": "address"
						},
						{
							"indexed": true,
							"internalType": "address",
							"name": "_to",
							"type": "address"
						},
						{
							"indexed": false,
							"internalType": "uint256",
							"name": "_value",
							"type": "uint256"
						}
					],
					"name": "Transfer",
					"type": "event"
				},
				{
					"inputs": [
						{
							"internalType": "address",
							"name": "_owner",
							"type": "address"
						}
					],
					"name": "balanceOf",
					"outputs": [
						{
							"internalType": "uint256",
							"name": "",
							"type": "uint256"
						}
					],
					"stateMutability": "view",
					"type": "function"
				},
				{
					"inputs": [],
					"name": "decimals",
					"outputs": [
						{
							"internalType": "uint8",
							"name": "",
							"type": "uint8"
						}
					],
					"stateMutability": "view",
					"type": "function"
				},
				{
					"inputs": [],
					"name": "name",
					"outputs": [
						{
							"internalType": "string",
							"name": "",
							"type": "string"
						}
					],
					"stateMutability": "view",
					"type": "function"
				},
				{
					"inputs": [],
					"name": "symbol",
					"outputs": [
						{
							"internalType": "string",
							"name": "",
							"type": "string"
						}
					],
					"stateMutability": "view",
					"type": "function"
				},
				{
					"inputs": [],
					"name": "totalSupply",
					"outputs": [
						{
							"internalType": "uint256",
							"name": "",
							"type": "uint256"
						}
					],
					"stateMutability": "view",
					"type": "function"
				}
			],
			"devdoc": {
				"kind": "dev",
				"methods": {},
				"version": 1
			},
			"evm": {
				"assembly": "    /* \"contracts/Financial Services/Balance.sol\":76:1268  contract TokenBasic {\r... */\n  mstore(0x40, 0x80)\n    /* \"contracts/Financial Services/Balance.sol\":945:1050  constructor (uint256 total){\r... */\n  callvalue\n  dup1\n  iszero\n  tag_1\n  jumpi\n  0x00\n  dup1\n  revert\ntag_1:\n  pop\n  mload(0x40)\n  sub(codesize, bytecodeSize)\n  dup1\n  bytecodeSize\n  dup4\n  codecopy\n  dup2\n  dup2\n  add\n  0x40\n  mstore\n  dup2\n  add\n  swap1\n  tag_2\n  swap2\n  swap1\n  tag_3\n  jump\t// in\ntag_2:\n    /* \"contracts/Financial Services/Balance.sol\":998:1003  total */\n  dup1\n    /* \"contracts/Financial Services/Balance.sol\":983:995  _totalSupply */\n  0x00\n    /* \"contracts/Financial Services/Balance.sol\":983:1003  _totalSupply = total */\n  dup2\n  swap1\n  sstore\n  pop\n    /* \"contracts/Financial Services/Balance.sol\":1037:1042  total */\n  dup1\n    /* \"contracts/Financial Services/Balance.sol\":1014:1022  balances */\n  0x01\n    /* \"contracts/Financial Services/Balance.sol\":1014:1034  balances[msg.sender] */\n  0x00\n    /* \"contracts/Financial Services/Balance.sol\":1023:1033  msg.sender */\n  caller\n    /* \"contracts/Financial Services/Balance.sol\":1014:1034  balances[msg.sender] */\n  0xffffffffffffffffffffffffffffffffffffffff\n  and\n  0xffffffffffffffffffffffffffffffffffffffff\n  and\n  dup2\n  mstore\n  0x20\n  add\n  swap1\n  dup2\n  mstore\n  0x20\n  add\n  0x00\n  keccak256\n    /* \"contracts/Financial Services/Balance.sol\":1014:1042  balances[msg.sender] = total */\n  dup2\n  swap1\n  sstore\n  pop\n    /* \"contracts/Financial Services/Balance.sol\":945:1050  constructor (uint256 total){\r... */\n  pop\n    /* \"contracts/Financial Services/Balance.sol\":76:1268  contract TokenBasic {\r... */\n  jump(tag_6)\n    /* \"#utility.yul\":7:150   */\ntag_8:\n    /* \"#utility.yul\":64:69   */\n  0x00\n    /* \"#utility.yul\":95:101   */\n  dup2\n    /* \"#utility.yul\":89:102   */\n  mload\n    /* \"#utility.yul\":80:102   */\n  swap1\n  pop\n    /* \"#utility.yul\":111:144   */\n  tag_10\n    /* \"#utility.yul\":138:143   */\n  dup2\n    /* \"#utility.yul\":111:144   */\n  tag_11\n  jump\t// in\ntag_10:\n    /* \"#utility.yul\":7:150   */\n  swap3\n  swap2\n  pop\n  pop\n  jump\t// out\n    /* \"#utility.yul\":156:507   */\ntag_3:\n    /* \"#utility.yul\":226:232   */\n  0x00\n    /* \"#utility.yul\":275:277   */\n  0x20\n    /* \"#utility.yul\":263:272   */\n  dup3\n    /* \"#utility.yul\":254:261   */\n  dup5\n    /* \"#utility.yul\":250:273   */\n  sub\n    /* \"#utility.yul\":246:278   */\n  slt\n    /* \"#utility.yul\":243:362   */\n  iszero\n  tag_13\n  jumpi\n    /* \"#utility.yul\":281:360   */\n  tag_14\n  tag_15\n  jump\t// in\ntag_14:\n    /* \"#utility.yul\":243:362   */\ntag_13:\n    /* \"#utility.yul\":401:402   */\n  0x00\n    /* \"#utility.yul\":426:490   */\n  tag_16\n    /* \"#utility.yul\":482:489   */\n  dup5\n    /* \"#utility.yul\":473:479   */\n  dup3\n    /* \"#utility.yul\":462:471   */\n  dup6\n    /* \"#utility.yul\":458:480   */\n  add\n    /* \"#utility.yul\":426:490   */\n  tag_8\n  jump\t// in\ntag_16:\n    /* \"#utility.yul\":416:490   */\n  swap2\n  pop\n    /* \"#utility.yul\":372:500   */\n  pop\n    /* \"#utility.yul\":156:507   */\n  swap3\n  swap2\n  pop\n  pop\n  jump\t// out\n    /* \"#utility.yul\":594:671   */\ntag_19:\n    /* \"#utility.yul\":631:638   */\n  0x00\n    /* \"#utility.yul\":660:665   */\n  dup2\n    /* \"#utility.yul\":649:665   */\n  swap1\n  pop\n    /* \"#utility.yul\":594:671   */\n  swap2\n  swap1\n  pop\n  jump\t// out\n    /* \"#utility.yul\":800:917   */\ntag_15:\n    /* \"#utility.yul\":909:910   */\n  0x00\n    /* \"#utility.yul\":906:907   */\n  dup1\n    /* \"#utility.yul\":899:911   */\n  revert\n    /* \"#utility.yul\":923:1045   */\ntag_11:\n    /* \"#utility.yul\":996:1020   */\n  tag_25\n    /* \"#utility.yul\":1014:1019   */\n  dup2\n    /* \"#utility.yul\":996:1020   */\n  tag_19\n  jump\t// in\ntag_25:\n    /* \"#utility.yul\":989:994   */\n  dup2\n    /* \"#utility.yul\":986:1021   */\n  eq\n    /* \"#utility.yul\":976:1039   */\n  tag_26\n  jumpi\n    /* \"#utility.yul\":1035:1036   */\n  0x00\n    /* \"#utility.yul\":1032:1033   */\n  dup1\n    /* \"#utility.yul\":1025:1037   */\n  revert\n    /* \"#utility.yul\":976:1039   */\ntag_26:\n    /* \"#utility.yul\":923:1045   */\n  pop\n  jump\t// out\n    /* \"contracts/Financial Services/Balance.sol\":76:1268  contract TokenBasic {\r... */\ntag_6:\n  dataSize(sub_0)\n  dup1\n  dataOffset(sub_0)\n  0x00\n  codecopy\n  0x00\n  return\nstop\n\nsub_0: assembly {\n        /* \"contracts/Financial Services/Balance.sol\":76:1268  contract TokenBasic {\r... */\n      mstore(0x40, 0x80)\n      callvalue\n      dup1\n      iszero\n      tag_1\n      jumpi\n      0x00\n      dup1\n      revert\n    tag_1:\n      pop\n      jumpi(tag_2, lt(calldatasize, 0x04))\n      shr(0xe0, calldataload(0x00))\n      dup1\n      0x06fdde03\n      eq\n      tag_3\n      jumpi\n      dup1\n      0x18160ddd\n      eq\n      tag_4\n      jumpi\n      dup1\n      0x313ce567\n      eq\n      tag_5\n      jumpi\n      dup1\n      0x70a08231\n      eq\n      tag_6\n      jumpi\n      dup1\n      0x95d89b41\n      eq\n      tag_7\n      jumpi\n    tag_2:\n      0x00\n      dup1\n      revert\n        /* \"contracts/Financial Services/Balance.sol\":105:147  string public constant name = \"PlatziCoin\" */\n    tag_3:\n      tag_8\n      tag_9\n      jump\t// in\n    tag_8:\n      mload(0x40)\n      tag_10\n      swap2\n      swap1\n      tag_11\n      jump\t// in\n    tag_10:\n      mload(0x40)\n      dup1\n      swap2\n      sub\n      swap1\n      return\n        /* \"contracts/Financial Services/Balance.sol\":1058:1149  function totalSupply() public view returns (uint256) {\r... */\n    tag_4:\n      tag_12\n      tag_13\n      jump\t// in\n    tag_12:\n      mload(0x40)\n      tag_14\n      swap2\n      swap1\n      tag_15\n      jump\t// in\n    tag_14:\n      mload(0x40)\n      dup1\n      swap2\n      sub\n      swap1\n      return\n        /* \"contracts/Financial Services/Balance.sol\":238:273  uint8 public constant decimals = 18 */\n    tag_5:\n      tag_16\n      tag_17\n      jump\t// in\n    tag_16:\n      mload(0x40)\n      tag_18\n      swap2\n      swap1\n      tag_19\n      jump\t// in\n    tag_18:\n      mload(0x40)\n      dup1\n      swap2\n      sub\n      swap1\n      return\n        /* \"contracts/Financial Services/Balance.sol\":1157:1261  function balanceOf(address _owner) public view returns (uint) {\r... */\n    tag_6:\n      tag_20\n      0x04\n      dup1\n      calldatasize\n      sub\n      dup2\n      add\n      swap1\n      tag_21\n      swap2\n      swap1\n      tag_22\n      jump\t// in\n    tag_21:\n      tag_23\n      jump\t// in\n    tag_20:\n      mload(0x40)\n      tag_24\n      swap2\n      swap1\n      tag_15\n      jump\t// in\n    tag_24:\n      mload(0x40)\n      dup1\n      swap2\n      sub\n      swap1\n      return\n        /* \"contracts/Financial Services/Balance.sol\":173:210  string public constant symbol = \"PZC\" */\n    tag_7:\n      tag_25\n      tag_26\n      jump\t// in\n    tag_25:\n      mload(0x40)\n      tag_27\n      swap2\n      swap1\n      tag_11\n      jump\t// in\n    tag_27:\n      mload(0x40)\n      dup1\n      swap2\n      sub\n      swap1\n      return\n        /* \"contracts/Financial Services/Balance.sol\":105:147  string public constant name = \"PlatziCoin\" */\n    tag_9:\n      mload(0x40)\n      dup1\n      0x40\n      add\n      0x40\n      mstore\n      dup1\n      0x0a\n      dup2\n      mstore\n      0x20\n      add\n      0x506c61747a69436f696e00000000000000000000000000000000000000000000\n      dup2\n      mstore\n      pop\n      dup2\n      jump\t// out\n        /* \"contracts/Financial Services/Balance.sol\":1058:1149  function totalSupply() public view returns (uint256) {\r... */\n    tag_13:\n        /* \"contracts/Financial Services/Balance.sol\":1102:1109  uint256 */\n      0x00\n        /* \"contracts/Financial Services/Balance.sol\":1129:1141  _totalSupply */\n      dup1\n      sload\n        /* \"contracts/Financial Services/Balance.sol\":1122:1141  return _totalSupply */\n      swap1\n      pop\n        /* \"contracts/Financial Services/Balance.sol\":1058:1149  function totalSupply() public view returns (uint256) {\r... */\n      swap1\n      jump\t// out\n        /* \"contracts/Financial Services/Balance.sol\":238:273  uint8 public constant decimals = 18 */\n    tag_17:\n        /* \"contracts/Financial Services/Balance.sol\":271:273  18 */\n      0x12\n        /* \"contracts/Financial Services/Balance.sol\":238:273  uint8 public constant decimals = 18 */\n      dup2\n      jump\t// out\n        /* \"contracts/Financial Services/Balance.sol\":1157:1261  function balanceOf(address _owner) public view returns (uint) {\r... */\n    tag_23:\n        /* \"contracts/Financial Services/Balance.sol\":1213:1217  uint */\n      0x00\n        /* \"contracts/Financial Services/Balance.sol\":1237:1245  balances */\n      0x01\n        /* \"contracts/Financial Services/Balance.sol\":1237:1253  balances[_owner] */\n      0x00\n        /* \"contracts/Financial Services/Balance.sol\":1246:1252  _owner */\n      dup4\n        /* \"contracts/Financial Services/Balance.sol\":1237:1253  balances[_owner] */\n      0xffffffffffffffffffffffffffffffffffffffff\n      and\n      0xffffffffffffffffffffffffffffffffffffffff\n      and\n      dup2\n      mstore\n      0x20\n      add\n      swap1\n      dup2\n      mstore\n      0x20\n      add\n      0x00\n      keccak256\n      sload\n        /* \"contracts/Financial Services/Balance.sol\":1230:1253  return balances[_owner] */\n      swap1\n      pop\n        /* \"contracts/Financial Services/Balance.sol\":1157:1261  function balanceOf(address _owner) public view returns (uint) {\r... */\n      swap2\n      swap1\n      pop\n      jump\t// out\n        /* \"contracts/Financial Services/Balance.sol\":173:210  string public constant symbol = \"PZC\" */\n    tag_26:\n      mload(0x40)\n      dup1\n      0x40\n      add\n      0x40\n      mstore\n      dup1\n      0x03\n      dup2\n      mstore\n      0x20\n      add\n      0x505a430000000000000000000000000000000000000000000000000000000000\n      dup2\n      mstore\n      pop\n      dup2\n      jump\t// out\n        /* \"#utility.yul\":7:146   */\n    tag_31:\n        /* \"#utility.yul\":53:58   */\n      0x00\n        /* \"#utility.yul\":91:97   */\n      dup2\n        /* \"#utility.yul\":78:98   */\n      calldataload\n        /* \"#utility.yul\":69:98   */\n      swap1\n      pop\n        /* \"#utility.yul\":107:140   */\n      tag_33\n        /* \"#utility.yul\":134:139   */\n      dup2\n        /* \"#utility.yul\":107:140   */\n      tag_34\n      jump\t// in\n    tag_33:\n        /* \"#utility.yul\":7:146   */\n      swap3\n      swap2\n      pop\n      pop\n      jump\t// out\n        /* \"#utility.yul\":152:481   */\n    tag_22:\n        /* \"#utility.yul\":211:217   */\n      0x00\n        /* \"#utility.yul\":260:262   */\n      0x20\n        /* \"#utility.yul\":248:257   */\n      dup3\n        /* \"#utility.yul\":239:246   */\n      dup5\n        /* \"#utility.yul\":235:258   */\n      sub\n        /* \"#utility.yul\":231:263   */\n      slt\n        /* \"#utility.yul\":228:347   */\n      iszero\n      tag_36\n      jumpi\n        /* \"#utility.yul\":266:345   */\n      tag_37\n      tag_38\n      jump\t// in\n    tag_37:\n        /* \"#utility.yul\":228:347   */\n    tag_36:\n        /* \"#utility.yul\":386:387   */\n      0x00\n        /* \"#utility.yul\":411:464   */\n      tag_39\n        /* \"#utility.yul\":456:463   */\n      dup5\n        /* \"#utility.yul\":447:453   */\n      dup3\n        /* \"#utility.yul\":436:445   */\n      dup6\n        /* \"#utility.yul\":432:454   */\n      add\n        /* \"#utility.yul\":411:464   */\n      tag_31\n      jump\t// in\n    tag_39:\n        /* \"#utility.yul\":401:464   */\n      swap2\n      pop\n        /* \"#utility.yul\":357:474   */\n      pop\n        /* \"#utility.yul\":152:481   */\n      swap3\n      swap2\n      pop\n      pop\n      jump\t// out\n        /* \"#utility.yul\":487:851   */\n    tag_40:\n        /* \"#utility.yul\":575:578   */\n      0x00\n        /* \"#utility.yul\":603:642   */\n      tag_42\n        /* \"#utility.yul\":636:641   */\n      dup3\n        /* \"#utility.yul\":603:642   */\n      tag_43\n      jump\t// in\n    tag_42:\n        /* \"#utility.yul\":658:729   */\n      tag_44\n        /* \"#utility.yul\":722:728   */\n      dup2\n        /* \"#utility.yul\":717:720   */\n      dup6\n        /* \"#utility.yul\":658:729   */\n      tag_45\n      jump\t// in\n    tag_44:\n        /* \"#utility.yul\":651:729   */\n      swap4\n      pop\n        /* \"#utility.yul\":738:790   */\n      tag_46\n        /* \"#utility.yul\":783:789   */\n      dup2\n        /* \"#utility.yul\":778:781   */\n      dup6\n        /* \"#utility.yul\":771:775   */\n      0x20\n        /* \"#utility.yul\":764:769   */\n      dup7\n        /* \"#utility.yul\":760:776   */\n      add\n        /* \"#utility.yul\":738:790   */\n      tag_47\n      jump\t// in\n    tag_46:\n        /* \"#utility.yul\":815:844   */\n      tag_48\n        /* \"#utility.yul\":837:843   */\n      dup2\n        /* \"#utility.yul\":815:844   */\n      tag_49\n      jump\t// in\n    tag_48:\n        /* \"#utility.yul\":810:813   */\n      dup5\n        /* \"#utility.yul\":806:845   */\n      add\n        /* \"#utility.yul\":799:845   */\n      swap2\n      pop\n        /* \"#utility.yul\":579:851   */\n      pop\n        /* \"#utility.yul\":487:851   */\n      swap3\n      swap2\n      pop\n      pop\n      jump\t// out\n        /* \"#utility.yul\":857:975   */\n    tag_50:\n        /* \"#utility.yul\":944:968   */\n      tag_52\n        /* \"#utility.yul\":962:967   */\n      dup2\n        /* \"#utility.yul\":944:968   */\n      tag_53\n      jump\t// in\n    tag_52:\n        /* \"#utility.yul\":939:942   */\n      dup3\n        /* \"#utility.yul\":932:969   */\n      mstore\n        /* \"#utility.yul\":857:975   */\n      pop\n      pop\n      jump\t// out\n        /* \"#utility.yul\":981:1093   */\n    tag_54:\n        /* \"#utility.yul\":1064:1086   */\n      tag_56\n        /* \"#utility.yul\":1080:1085   */\n      dup2\n        /* \"#utility.yul\":1064:1086   */\n      tag_57\n      jump\t// in\n    tag_56:\n        /* \"#utility.yul\":1059:1062   */\n      dup3\n        /* \"#utility.yul\":1052:1087   */\n      mstore\n        /* \"#utility.yul\":981:1093   */\n      pop\n      pop\n      jump\t// out\n        /* \"#utility.yul\":1099:1412   */\n    tag_11:\n        /* \"#utility.yul\":1212:1216   */\n      0x00\n        /* \"#utility.yul\":1250:1252   */\n      0x20\n        /* \"#utility.yul\":1239:1248   */\n      dup3\n        /* \"#utility.yul\":1235:1253   */\n      add\n        /* \"#utility.yul\":1227:1253   */\n      swap1\n      pop\n        /* \"#utility.yul\":1299:1308   */\n      dup2\n        /* \"#utility.yul\":1293:1297   */\n      dup2\n        /* \"#utility.yul\":1289:1309   */\n      sub\n        /* \"#utility.yul\":1285:1286   */\n      0x00\n        /* \"#utility.yul\":1274:1283   */\n      dup4\n        /* \"#utility.yul\":1270:1287   */\n      add\n        /* \"#utility.yul\":1263:1310   */\n      mstore\n        /* \"#utility.yul\":1327:1405   */\n      tag_59\n        /* \"#utility.yul\":1400:1404   */\n      dup2\n        /* \"#utility.yul\":1391:1397   */\n      dup5\n        /* \"#utility.yul\":1327:1405   */\n      tag_40\n      jump\t// in\n    tag_59:\n        /* \"#utility.yul\":1319:1405   */\n      swap1\n      pop\n        /* \"#utility.yul\":1099:1412   */\n      swap3\n      swap2\n      pop\n      pop\n      jump\t// out\n        /* \"#utility.yul\":1418:1640   */\n    tag_15:\n        /* \"#utility.yul\":1511:1515   */\n      0x00\n        /* \"#utility.yul\":1549:1551   */\n      0x20\n        /* \"#utility.yul\":1538:1547   */\n      dup3\n        /* \"#utility.yul\":1534:1552   */\n      add\n        /* \"#utility.yul\":1526:1552   */\n      swap1\n      pop\n        /* \"#utility.yul\":1562:1633   */\n      tag_61\n        /* \"#utility.yul\":1630:1631   */\n      0x00\n        /* \"#utility.yul\":1619:1628   */\n      dup4\n        /* \"#utility.yul\":1615:1632   */\n      add\n        /* \"#utility.yul\":1606:1612   */\n      dup5\n        /* \"#utility.yul\":1562:1633   */\n      tag_50\n      jump\t// in\n    tag_61:\n        /* \"#utility.yul\":1418:1640   */\n      swap3\n      swap2\n      pop\n      pop\n      jump\t// out\n        /* \"#utility.yul\":1646:1860   */\n    tag_19:\n        /* \"#utility.yul\":1735:1739   */\n      0x00\n        /* \"#utility.yul\":1773:1775   */\n      0x20\n        /* \"#utility.yul\":1762:1771   */\n      dup3\n        /* \"#utility.yul\":1758:1776   */\n      add\n        /* \"#utility.yul\":1750:1776   */\n      swap1\n      pop\n        /* \"#utility.yul\":1786:1853   */\n      tag_63\n        /* \"#utility.yul\":1850:1851   */\n      0x00\n        /* \"#utility.yul\":1839:1848   */\n      dup4\n        /* \"#utility.yul\":1835:1852   */\n      add\n        /* \"#utility.yul\":1826:1832   */\n      dup5\n        /* \"#utility.yul\":1786:1853   */\n      tag_54\n      jump\t// in\n    tag_63:\n        /* \"#utility.yul\":1646:1860   */\n      swap3\n      swap2\n      pop\n      pop\n      jump\t// out\n        /* \"#utility.yul\":1947:2046   */\n    tag_43:\n        /* \"#utility.yul\":1999:2005   */\n      0x00\n        /* \"#utility.yul\":2033:2038   */\n      dup2\n        /* \"#utility.yul\":2027:2039   */\n      mload\n        /* \"#utility.yul\":2017:2039   */\n      swap1\n      pop\n        /* \"#utility.yul\":1947:2046   */\n      swap2\n      swap1\n      pop\n      jump\t// out\n        /* \"#utility.yul\":2052:2221   */\n    tag_45:\n        /* \"#utility.yul\":2136:2147   */\n      0x00\n        /* \"#utility.yul\":2170:2176   */\n      dup3\n        /* \"#utility.yul\":2165:2168   */\n      dup3\n        /* \"#utility.yul\":2158:2177   */\n      mstore\n        /* \"#utility.yul\":2210:2214   */\n      0x20\n        /* \"#utility.yul\":2205:2208   */\n      dup3\n        /* \"#utility.yul\":2201:2215   */\n      add\n        /* \"#utility.yul\":2186:2215   */\n      swap1\n      pop\n        /* \"#utility.yul\":2052:2221   */\n      swap3\n      swap2\n      pop\n      pop\n      jump\t// out\n        /* \"#utility.yul\":2227:2323   */\n    tag_68:\n        /* \"#utility.yul\":2264:2271   */\n      0x00\n        /* \"#utility.yul\":2293:2317   */\n      tag_70\n        /* \"#utility.yul\":2311:2316   */\n      dup3\n        /* \"#utility.yul\":2293:2317   */\n      tag_71\n      jump\t// in\n    tag_70:\n        /* \"#utility.yul\":2282:2317   */\n      swap1\n      pop\n        /* \"#utility.yul\":2227:2323   */\n      swap2\n      swap1\n      pop\n      jump\t// out\n        /* \"#utility.yul\":2329:2455   */\n    tag_71:\n        /* \"#utility.yul\":2366:2373   */\n      0x00\n        /* \"#utility.yul\":2406:2448   */\n      0xffffffffffffffffffffffffffffffffffffffff\n        /* \"#utility.yul\":2399:2404   */\n      dup3\n        /* \"#utility.yul\":2395:2449   */\n      and\n        /* \"#utility.yul\":2384:2449   */\n      swap1\n      pop\n        /* \"#utility.yul\":2329:2455   */\n      swap2\n      swap1\n      pop\n      jump\t// out\n        /* \"#utility.yul\":2461:2538   */\n    tag_53:\n        /* \"#utility.yul\":2498:2505   */\n      0x00\n        /* \"#utility.yul\":2527:2532   */\n      dup2\n        /* \"#utility.yul\":2516:2532   */\n      swap1\n      pop\n        /* \"#utility.yul\":2461:2538   */\n      swap2\n      swap1\n      pop\n      jump\t// out\n        /* \"#utility.yul\":2544:2630   */\n    tag_57:\n        /* \"#utility.yul\":2579:2586   */\n      0x00\n        /* \"#utility.yul\":2619:2623   */\n      0xff\n        /* \"#utility.yul\":2612:2617   */\n      dup3\n        /* \"#utility.yul\":2608:2624   */\n      and\n        /* \"#utility.yul\":2597:2624   */\n      swap1\n      pop\n        /* \"#utility.yul\":2544:2630   */\n      swap2\n      swap1\n      pop\n      jump\t// out\n        /* \"#utility.yul\":2636:2943   */\n    tag_47:\n        /* \"#utility.yul\":2704:2705   */\n      0x00\n        /* \"#utility.yul\":2714:2827   */\n    tag_76:\n        /* \"#utility.yul\":2728:2734   */\n      dup4\n        /* \"#utility.yul\":2725:2726   */\n      dup2\n        /* \"#utility.yul\":2722:2735   */\n      lt\n        /* \"#utility.yul\":2714:2827   */\n      iszero\n      tag_78\n      jumpi\n        /* \"#utility.yul\":2813:2814   */\n      dup1\n        /* \"#utility.yul\":2808:2811   */\n      dup3\n        /* \"#utility.yul\":2804:2815   */\n      add\n        /* \"#utility.yul\":2798:2816   */\n      mload\n        /* \"#utility.yul\":2794:2795   */\n      dup2\n        /* \"#utility.yul\":2789:2792   */\n      dup5\n        /* \"#utility.yul\":2785:2796   */\n      add\n        /* \"#utility.yul\":2778:2817   */\n      mstore\n        /* \"#utility.yul\":2750:2752   */\n      0x20\n        /* \"#utility.yul\":2747:2748   */\n      dup2\n        /* \"#utility.yul\":2743:2753   */\n      add\n        /* \"#utility.yul\":2738:2753   */\n      swap1\n      pop\n        /* \"#utility.yul\":2714:2827   */\n      jump(tag_76)\n    tag_78:\n        /* \"#utility.yul\":2845:2851   */\n      dup4\n        /* \"#utility.yul\":2842:2843   */\n      dup2\n        /* \"#utility.yul\":2839:2852   */\n      gt\n        /* \"#utility.yul\":2836:2937   */\n      iszero\n      tag_79\n      jumpi\n        /* \"#utility.yul\":2925:2926   */\n      0x00\n        /* \"#utility.yul\":2916:2922   */\n      dup5\n        /* \"#utility.yul\":2911:2914   */\n      dup5\n        /* \"#utility.yul\":2907:2923   */\n      add\n        /* \"#utility.yul\":2900:2927   */\n      mstore\n        /* \"#utility.yul\":2836:2937   */\n    tag_79:\n        /* \"#utility.yul\":2685:2943   */\n      pop\n        /* \"#utility.yul\":2636:2943   */\n      pop\n      pop\n      pop\n      jump\t// out\n        /* \"#utility.yul\":3072:3189   */\n    tag_38:\n        /* \"#utility.yul\":3181:3182   */\n      0x00\n        /* \"#utility.yul\":3178:3179   */\n      dup1\n        /* \"#utility.yul\":3171:3183   */\n      revert\n        /* \"#utility.yul\":3195:3297   */\n    tag_49:\n        /* \"#utility.yul\":3236:3242   */\n      0x00\n        /* \"#utility.yul\":3287:3289   */\n      0x1f\n        /* \"#utility.yul\":3283:3290   */\n      not\n        /* \"#utility.yul\":3278:3280   */\n      0x1f\n        /* \"#utility.yul\":3271:3276   */\n      dup4\n        /* \"#utility.yul\":3267:3281   */\n      add\n        /* \"#utility.yul\":3263:3291   */\n      and\n        /* \"#utility.yul\":3253:3291   */\n      swap1\n      pop\n        /* \"#utility.yul\":3195:3297   */\n      swap2\n      swap1\n      pop\n      jump\t// out\n        /* \"#utility.yul\":3303:3425   */\n    tag_34:\n        /* \"#utility.yul\":3376:3400   */\n      tag_85\n        /* \"#utility.yul\":3394:3399   */\n      dup2\n        /* \"#utility.yul\":3376:3400   */\n      tag_68\n      jump\t// in\n    tag_85:\n        /* \"#utility.yul\":3369:3374   */\n      dup2\n        /* \"#utility.yul\":3366:3401   */\n      eq\n        /* \"#utility.yul\":3356:3419   */\n      tag_86\n      jumpi\n        /* \"#utility.yul\":3415:3416   */\n      0x00\n        /* \"#utility.yul\":3412:3413   */\n      dup1\n        /* \"#utility.yul\":3405:3417   */\n      revert\n        /* \"#utility.yul\":3356:3419   */\n    tag_86:\n        /* \"#utility.yul\":3303:3425   */\n      pop\n      jump\t// out\n\n    auxdata: 0xa2646970667358221220624f148b9f6296dc6f85e977138fa5803953b10acdee63a21adb223ff810b9c164736f6c63430008070033\n}\n",
				"bytecode": {
					"linkReferences": {},
					"object": "608060405234801561001057600080fd5b506040516104b33803806104b383398181016040528101906100329190610098565b8060008190555080600160003373ffffffffffffffffffffffffffffffffffffffff1673ffffffffffffffffffffffffffffffffffffffff16815260200190815260200160002081905550506100eb565b600081519050610092816100d4565b92915050565b6000602082840312156100ae576100ad6100cf565b5b60006100bc84828501610083565b91505092915050565b6000819050919050565b600080fd5b6100dd816100c5565b81146100e857600080fd5b50565b6103b9806100fa6000396000f3fe608060405234801561001057600080fd5b50600436106100575760003560e01c806306fdde031461005c57806318160ddd1461007a578063313ce5671461009857806370a08231146100b657806395d89b41146100e6575b600080fd5b610064610104565b6040516100719190610266565b60405180910390f35b61008261013d565b60405161008f9190610288565b60405180910390f35b6100a0610146565b6040516100ad91906102a3565b60405180910390f35b6100d060048036038101906100cb91906101e2565b61014b565b6040516100dd9190610288565b60405180910390f35b6100ee610194565b6040516100fb9190610266565b60405180910390f35b6040518060400160405280600a81526020017f506c61747a69436f696e0000000000000000000000000000000000000000000081525081565b60008054905090565b601281565b6000600160008373ffffffffffffffffffffffffffffffffffffffff1673ffffffffffffffffffffffffffffffffffffffff168152602001908152602001600020549050919050565b6040518060400160405280600381526020017f505a43000000000000000000000000000000000000000000000000000000000081525081565b6000813590506101dc8161036c565b92915050565b6000602082840312156101f8576101f7610356565b5b6000610206848285016101cd565b91505092915050565b600061021a826102be565b61022481856102c9565b9350610234818560208601610323565b61023d8161035b565b840191505092915050565b6102518161030c565b82525050565b61026081610316565b82525050565b60006020820190508181036000830152610280818461020f565b905092915050565b600060208201905061029d6000830184610248565b92915050565b60006020820190506102b86000830184610257565b92915050565b600081519050919050565b600082825260208201905092915050565b60006102e5826102ec565b9050919050565b600073ffffffffffffffffffffffffffffffffffffffff82169050919050565b6000819050919050565b600060ff82169050919050565b60005b83811015610341578082015181840152602081019050610326565b83811115610350576000848401525b50505050565b600080fd5b6000601f19601f8301169050919050565b610375816102da565b811461038057600080fd5b5056fea2646970667358221220624f148b9f6296dc6f85e977138fa5803953b10acdee63a21adb223ff810b9c164736f6c63430008070033",
					"opcodes": "PUSH1 0x80 PUSH1 0x40 MSTORE CALLVALUE DUP1 ISZERO PUSH2 0x10 JUMPI PUSH1 0x0 DUP1 REVERT JUMPDEST POP PUSH1 0x40 MLOAD PUSH2 0x4B3 CODESIZE SUB DUP1 PUSH2 0x4B3 DUP4 CODECOPY DUP2 DUP2 ADD PUSH1 0x40 MSTORE DUP2 ADD SWAP1 PUSH2 0x32 SWAP2 SWAP1 PUSH2 0x98 JUMP JUMPDEST DUP1 PUSH1 0x0 DUP2 SWAP1 SSTORE POP DUP1 PUSH1 0x1 PUSH1 0x0 CALLER PUSH20 0xFFFFFFFFFFFFFFFFFFFFFFFFFFFFFFFFFFFFFFFF AND PUSH20 0xFFFFFFFFFFFFFFFFFFFFFFFFFFFFFFFFFFFFFFFF AND DUP2 MSTORE PUSH1 0x20 ADD SWAP1 DUP2 MSTORE PUSH1 0x20 ADD PUSH1 0x0 KECCAK256 DUP2 SWAP1 SSTORE POP POP PUSH2 0xEB JUMP JUMPDEST PUSH1 0x0 DUP2 MLOAD SWAP1 POP PUSH2 0x92 DUP2 PUSH2 0xD4 JUMP JUMPDEST SWAP3 SWAP2 POP POP JUMP JUMPDEST PUSH1 0x0 PUSH1 0x20 DUP3 DUP5 SUB SLT ISZERO PUSH2 0xAE JUMPI PUSH2 0xAD PUSH2 0xCF JUMP JUMPDEST JUMPDEST PUSH1 0x0 PUSH2 0xBC DUP5 DUP3 DUP6 ADD PUSH2 0x83 JUMP JUMPDEST SWAP2 POP POP SWAP3 SWAP2 POP POP JUMP JUMPDEST PUSH1 0x0 DUP2 SWAP1 POP SWAP2 SWAP1 POP JUMP JUMPDEST PUSH1 0x0 DUP1 REVERT JUMPDEST PUSH2 0xDD DUP2 PUSH2 0xC5 JUMP JUMPDEST DUP2 EQ PUSH2 0xE8 JUMPI PUSH1 0x0 DUP1 REVERT JUMPDEST POP JUMP JUMPDEST PUSH2 0x3B9 DUP1 PUSH2 0xFA PUSH1 0x0 CODECOPY PUSH1 0x0 RETURN INVALID PUSH1 0x80 PUSH1 0x40 MSTORE CALLVALUE DUP1 ISZERO PUSH2 0x10 JUMPI PUSH1 0x0 DUP1 REVERT JUMPDEST POP PUSH1 0x4 CALLDATASIZE LT PUSH2 0x57 JUMPI PUSH1 0x0 CALLDATALOAD PUSH1 0xE0 SHR DUP1 PUSH4 0x6FDDE03 EQ PUSH2 0x5C JUMPI DUP1 PUSH4 0x18160DDD EQ PUSH2 0x7A JUMPI DUP1 PUSH4 0x313CE567 EQ PUSH2 0x98 JUMPI DUP1 PUSH4 0x70A08231 EQ PUSH2 0xB6 JUMPI DUP1 PUSH4 0x95D89B41 EQ PUSH2 0xE6 JUMPI JUMPDEST PUSH1 0x0 DUP1 REVERT JUMPDEST PUSH2 0x64 PUSH2 0x104 JUMP JUMPDEST PUSH1 0x40 MLOAD PUSH2 0x71 SWAP2 SWAP1 PUSH2 0x266 JUMP JUMPDEST PUSH1 0x40 MLOAD DUP1 SWAP2 SUB SWAP1 RETURN JUMPDEST PUSH2 0x82 PUSH2 0x13D JUMP JUMPDEST PUSH1 0x40 MLOAD PUSH2 0x8F SWAP2 SWAP1 PUSH2 0x288 JUMP JUMPDEST PUSH1 0x40 MLOAD DUP1 SWAP2 SUB SWAP1 RETURN JUMPDEST PUSH2 0xA0 PUSH2 0x146 JUMP JUMPDEST PUSH1 0x40 MLOAD PUSH2 0xAD SWAP2 SWAP1 PUSH2 0x2A3 JUMP JUMPDEST PUSH1 0x40 MLOAD DUP1 SWAP2 SUB SWAP1 RETURN JUMPDEST PUSH2 0xD0 PUSH1 0x4 DUP1 CALLDATASIZE SUB DUP2 ADD SWAP1 PUSH2 0xCB SWAP2 SWAP1 PUSH2 0x1E2 JUMP JUMPDEST PUSH2 0x14B JUMP JUMPDEST PUSH1 0x40 MLOAD PUSH2 0xDD SWAP2 SWAP1 PUSH2 0x288 JUMP JUMPDEST PUSH1 0x40 MLOAD DUP1 SWAP2 SUB SWAP1 RETURN JUMPDEST PUSH2 0xEE PUSH2 0x194 JUMP JUMPDEST PUSH1 0x40 MLOAD PUSH2 0xFB SWAP2 SWAP1 PUSH2 0x266 JUMP JUMPDEST PUSH1 0x40 MLOAD DUP1 SWAP2 SUB SWAP1 RETURN JUMPDEST PUSH1 0x40 MLOAD DUP1 PUSH1 0x40 ADD PUSH1 0x40 MSTORE DUP1 PUSH1 0xA DUP2 MSTORE PUSH1 0x20 ADD PUSH32 0x506C61747A69436F696E00000000000000000000000000000000000000000000 DUP2 MSTORE POP DUP2 JUMP JUMPDEST PUSH1 0x0 DUP1 SLOAD SWAP1 POP SWAP1 JUMP JUMPDEST PUSH1 0x12 DUP2 JUMP JUMPDEST PUSH1 0x0 PUSH1 0x1 PUSH1 0x0 DUP4 PUSH20 0xFFFFFFFFFFFFFFFFFFFFFFFFFFFFFFFFFFFFFFFF AND PUSH20 0xFFFFFFFFFFFFFFFFFFFFFFFFFFFFFFFFFFFFFFFF AND DUP2 MSTORE PUSH1 0x20 ADD SWAP1 DUP2 MSTORE PUSH1 0x20 ADD PUSH1 0x0 KECCAK256 SLOAD SWAP1 POP SWAP2 SWAP1 POP JUMP JUMPDEST PUSH1 0x40 MLOAD DUP1 PUSH1 0x40 ADD PUSH1 0x40 MSTORE DUP1 PUSH1 0x3 DUP2 MSTORE PUSH1 0x20 ADD PUSH32 0x505A430000000000000000000000000000000000000000000000000000000000 DUP2 MSTORE POP DUP2 JUMP JUMPDEST PUSH1 0x0 DUP2 CALLDATALOAD SWAP1 POP PUSH2 0x1DC DUP2 PUSH2 0x36C JUMP JUMPDEST SWAP3 SWAP2 POP POP JUMP JUMPDEST PUSH1 0x0 PUSH1 0x20 DUP3 DUP5 SUB SLT ISZERO PUSH2 0x1F8 JUMPI PUSH2 0x1F7 PUSH2 0x356 JUMP JUMPDEST JUMPDEST PUSH1 0x0 PUSH2 0x206 DUP5 DUP3 DUP6 ADD PUSH2 0x1CD JUMP JUMPDEST SWAP2 POP POP SWAP3 SWAP2 POP POP JUMP JUMPDEST PUSH1 0x0 PUSH2 0x21A DUP3 PUSH2 0x2BE JUMP JUMPDEST PUSH2 0x224 DUP2 DUP6 PUSH2 0x2C9 JUMP JUMPDEST SWAP4 POP PUSH2 0x234 DUP2 DUP6 PUSH1 0x20 DUP7 ADD PUSH2 0x323 JUMP JUMPDEST PUSH2 0x23D DUP2 PUSH2 0x35B JUMP JUMPDEST DUP5 ADD SWAP2 POP POP SWAP3 SWAP2 POP POP JUMP JUMPDEST PUSH2 0x251 DUP2 PUSH2 0x30C JUMP JUMPDEST DUP3 MSTORE POP POP JUMP JUMPDEST PUSH2 0x260 DUP2 PUSH2 0x316 JUMP JUMPDEST DUP3 MSTORE POP POP JUMP JUMPDEST PUSH1 0x0 PUSH1 0x20 DUP3 ADD SWAP1 POP DUP2 DUP2 SUB PUSH1 0x0 DUP4 ADD MSTORE PUSH2 0x280 DUP2 DUP5 PUSH2 0x20F JUMP JUMPDEST SWAP1 POP SWAP3 SWAP2 POP POP JUMP JUMPDEST PUSH1 0x0 PUSH1 0x20 DUP3 ADD SWAP1 POP PUSH2 0x29D PUSH1 0x0 DUP4 ADD DUP5 PUSH2 0x248 JUMP JUMPDEST SWAP3 SWAP2 POP POP JUMP JUMPDEST PUSH1 0x0 PUSH1 0x20 DUP3 ADD SWAP1 POP PUSH2 0x2B8 PUSH1 0x0 DUP4 ADD DUP5 PUSH2 0x257 JUMP JUMPDEST SWAP3 SWAP2 POP POP JUMP JUMPDEST PUSH1 0x0 DUP2 MLOAD SWAP1 POP SWAP2 SWAP1 POP JUMP JUMPDEST PUSH1 0x0 DUP3 DUP3 MSTORE PUSH1 0x20 DUP3 ADD SWAP1 POP SWAP3 SWAP2 POP POP JUMP JUMPDEST PUSH1 0x0 PUSH2 0x2E5 DUP3 PUSH2 0x2EC JUMP JUMPDEST SWAP1 POP SWAP2 SWAP1 POP JUMP JUMPDEST PUSH1 0x0 PUSH20 0xFFFFFFFFFFFFFFFFFFFFFFFFFFFFFFFFFFFFFFFF DUP3 AND SWAP1 POP SWAP2 SWAP1 POP JUMP JUMPDEST PUSH1 0x0 DUP2 SWAP1 POP SWAP2 SWAP1 POP JUMP JUMPDEST PUSH1 0x0 PUSH1 0xFF DUP3 AND SWAP1 POP SWAP2 SWAP1 POP JUMP JUMPDEST PUSH1 0x0 JUMPDEST DUP4 DUP2 LT ISZERO PUSH2 0x341 JUMPI DUP1 DUP3 ADD MLOAD DUP2 DUP5 ADD MSTORE PUSH1 0x20 DUP2 ADD SWAP1 POP PUSH2 0x326 JUMP JUMPDEST DUP4 DUP2 GT ISZERO PUSH2 0x350 JUMPI PUSH1 0x0 DUP5 DUP5 ADD MSTORE JUMPDEST POP POP POP POP JUMP JUMPDEST PUSH1 0x0 DUP1 REVERT JUMPDEST PUSH1 0x0 PUSH1 0x1F NOT PUSH1 0x1F DUP4 ADD AND SWAP1 POP SWAP2 SWAP1 POP JUMP JUMPDEST PUSH2 0x375 DUP2 PUSH2 0x2DA JUMP JUMPDEST DUP2 EQ PUSH2 0x380 JUMPI PUSH1 0x0 DUP1 REVERT JUMPDEST POP JUMP INVALID LOG2 PUSH5 0x6970667358 0x22 SLT KECCAK256 PUSH3 0x4F148B SWAP16 PUSH3 0x96DC6F DUP6 0xE9 PUSH24 0x138FA5803953B10ACDEE63A21ADB223FF810B9C164736F6C PUSH4 0x43000807 STOP CALLER "
				},
				"gasEstimates": {
					"creation": {
						"codeDepositCost": "190600",
						"executionCost": "infinite",
						"totalCost": "infinite"
					},
					"external": {
						"balanceOf(address)": "2885",
						"decimals()": "357",
						"name()": "infinite",
						"symbol()": "infinite",
						"totalSupply()": "2437"
					}
				},
				"methodIdentifiers": {
					"balanceOf(address)": "70a08231",
					"decimals()": "313ce567",
					"name()": "06fdde03",
					"symbol()": "95d89b41",
					"totalSupply()": "18160ddd"
				}
			},
			"storageLayout": {
				"storage": [
					{
						"astId": 12,
						"contract": "contracts/Financial Services/Balance.sol:TokenBasic",
						"label": "_totalSupply",
						"offset": 0,
						"slot": "0",
						"type": "t_uint256"
					},
					{
						"astId": 16,
						"contract": "contracts/Financial Services/Balance.sol:TokenBasic",
						"label": "balances",
						"offset": 0,
						"slot": "1",
						"type": "t_mapping(t_address,t_uint256)"
					},
					{
						"astId": 22,
						"contract": "contracts/Financial Services/Balance.sol:TokenBasic",
						"label": "allowed",
						"offset": 0,
						"slot": "2",
						"type": "t_mapping(t_address,t_mapping(t_address,t_uint256))"
					}
				],
				"types": {
					"t_address": {
						"encoding": "inplace",
						"label": "address",
						"numberOfBytes": "20"
					},
					"t_mapping(t_address,t_mapping(t_address,t_uint256))": {
						"encoding": "mapping",
						"key": "t_address",
						"label": "mapping(address => mapping(address => uint256))",
						"numberOfBytes": "32",
						"value": "t_mapping(t_address,t_uint256)"
					},
					"t_mapping(t_address,t_uint256)": {
						"encoding": "mapping",
						"key": "t_address",
						"label": "mapping(address => uint256)",
						"numberOfBytes": "32",
						"value": "t_uint256"
					},
					"t_uint256": {
						"encoding": "inplace",
						"label": "uint256",
						"numberOfBytes": "32"
					}
				}
			},
			"userdoc": {
				"kind": "user",
				"methods": {},
				"version": 1
			}
		}
	}
}