{
	"contracts/Financial Services/Balance.sol": {
		"TokenBasic": {
			"abi": [
				{
					"inputs": [
						{
							"internalType": "uint256",
							"name": "total",
							"type": "uint256"
						}
					],
					"stateMutability": "nonpayable",
					"type": "constructor"
				},
				{
					"anonymous": false,
					"inputs": [
						{
							"indexed": true,
							"internalType": "address",
							"name": "_owner",
							"type": "address"
						},
						{
							"indexed": true,
							"internalType": "address",
							"name": "_spender",
							"type": "address"
						},
						{
							"indexed": false,
							"internalType": "uint256",
							"name": "_value",
							"type": "uint256"
						}
					],
					"name": "Approval",
					"type": "event"
				},
				{
					"anonymous": false,
					"inputs": [
						{
							"indexed": true,
							"internalType": "address",
							"name": "_from",
							"type": "address"
						},
						{
							"indexed": true,
							"internalType": "address",
							"name": "_to",
							"type": "address"
						},
						{
							"indexed": false,
							"internalType": "uint256",
							"name": "_value",
							"type": "uint256"
						}
					],
					"name": "Transfer",
					"type": "event"
				},
				{
					"inputs": [
						{
							"internalType": "address",
							"name": "_owner",
							"type": "address"
						},
						{
							"internalType": "address",
							"name": "_spender",
							"type": "address"
						}
					],
					"name": "allowance",
					"outputs": [
						{
							"internalType": "uint256",
							"name": "remaining",
							"type": "uint256"
						}
					],
					"stateMutability": "view",
					"type": "function"
				},
				{
					"inputs": [
						{
							"internalType": "address",
							"name": "_spender",
							"type": "address"
						},
						{
							"internalType": "uint256",
							"name": "_value",
							"type": "uint256"
						}
					],
					"name": "approve",
					"outputs": [
						{
							"internalType": "bool",
							"name": "success",
							"type": "bool"
						}
					],
					"stateMutability": "nonpayable",
					"type": "function"
				},
				{
					"inputs": [
						{
							"internalType": "address",
							"name": "_owner",
							"type": "address"
						}
					],
					"name": "balanceOf",
					"outputs": [
						{
							"internalType": "uint256",
							"name": "",
							"type": "uint256"
						}
					],
					"stateMutability": "view",
					"type": "function"
				},
				{
					"inputs": [],
					"name": "decimals",
					"outputs": [
						{
							"internalType": "uint8",
							"name": "",
							"type": "uint8"
						}
					],
					"stateMutability": "view",
					"type": "function"
				},
				{
					"inputs": [],
					"name": "name",
					"outputs": [
						{
							"internalType": "string",
							"name": "",
							"type": "string"
						}
					],
					"stateMutability": "view",
					"type": "function"
				},
				{
					"inputs": [],
					"name": "symbol",
					"outputs": [
						{
							"internalType": "string",
							"name": "",
							"type": "string"
						}
					],
					"stateMutability": "view",
					"type": "function"
				},
				{
					"inputs": [],
					"name": "totalSupply",
					"outputs": [
						{
							"internalType": "uint256",
							"name": "",
							"type": "uint256"
						}
					],
					"stateMutability": "view",
					"type": "function"
				},
				{
					"inputs": [
						{
							"internalType": "address",
							"name": "_to",
							"type": "address"
						},
						{
							"internalType": "uint256",
							"name": "_value",
							"type": "uint256"
						}
					],
					"name": "transfer",
					"outputs": [
						{
							"internalType": "bool",
							"name": "success",
							"type": "bool"
						}
					],
					"stateMutability": "nonpayable",
					"type": "function"
				}
			],
			"devdoc": {
				"kind": "dev",
				"methods": {},
				"version": 1
			},
			"evm": {
				"assembly": "    /* \"contracts/Financial Services/Balance.sol\":76:2554  contract TokenBasic {\r... */\n  mstore(0x40, 0x80)\n    /* \"contracts/Financial Services/Balance.sol\":945:1050  constructor (uint256 total){\r... */\n  callvalue\n  dup1\n  iszero\n  tag_1\n  jumpi\n  0x00\n  dup1\n  revert\ntag_1:\n  pop\n  mload(0x40)\n  sub(codesize, bytecodeSize)\n  dup1\n  bytecodeSize\n  dup4\n  codecopy\n  dup2\n  dup2\n  add\n  0x40\n  mstore\n  dup2\n  add\n  swap1\n  tag_2\n  swap2\n  swap1\n  tag_3\n  jump\t// in\ntag_2:\n    /* \"contracts/Financial Services/Balance.sol\":998:1003  total */\n  dup1\n    /* \"contracts/Financial Services/Balance.sol\":983:995  _totalSupply */\n  0x00\n    /* \"contracts/Financial Services/Balance.sol\":983:1003  _totalSupply = total */\n  dup2\n  swap1\n  sstore\n  pop\n    /* \"contracts/Financial Services/Balance.sol\":1037:1042  total */\n  dup1\n    /* \"contracts/Financial Services/Balance.sol\":1014:1022  balances */\n  0x01\n    /* \"contracts/Financial Services/Balance.sol\":1014:1034  balances[msg.sender] */\n  0x00\n    /* \"contracts/Financial Services/Balance.sol\":1023:1033  msg.sender */\n  caller\n    /* \"contracts/Financial Services/Balance.sol\":1014:1034  balances[msg.sender] */\n  0xffffffffffffffffffffffffffffffffffffffff\n  and\n  0xffffffffffffffffffffffffffffffffffffffff\n  and\n  dup2\n  mstore\n  0x20\n  add\n  swap1\n  dup2\n  mstore\n  0x20\n  add\n  0x00\n  keccak256\n    /* \"contracts/Financial Services/Balance.sol\":1014:1042  balances[msg.sender] = total */\n  dup2\n  swap1\n  sstore\n  pop\n    /* \"contracts/Financial Services/Balance.sol\":945:1050  constructor (uint256 total){\r... */\n  pop\n    /* \"contracts/Financial Services/Balance.sol\":76:2554  contract TokenBasic {\r... */\n  jump(tag_6)\n    /* \"#utility.yul\":7:150   */\ntag_8:\n    /* \"#utility.yul\":64:69   */\n  0x00\n    /* \"#utility.yul\":95:101   */\n  dup2\n    /* \"#utility.yul\":89:102   */\n  mload\n    /* \"#utility.yul\":80:102   */\n  swap1\n  pop\n    /* \"#utility.yul\":111:144   */\n  tag_10\n    /* \"#utility.yul\":138:143   */\n  dup2\n    /* \"#utility.yul\":111:144   */\n  tag_11\n  jump\t// in\ntag_10:\n    /* \"#utility.yul\":7:150   */\n  swap3\n  swap2\n  pop\n  pop\n  jump\t// out\n    /* \"#utility.yul\":156:507   */\ntag_3:\n    /* \"#utility.yul\":226:232   */\n  0x00\n    /* \"#utility.yul\":275:277   */\n  0x20\n    /* \"#utility.yul\":263:272   */\n  dup3\n    /* \"#utility.yul\":254:261   */\n  dup5\n    /* \"#utility.yul\":250:273   */\n  sub\n    /* \"#utility.yul\":246:278   */\n  slt\n    /* \"#utility.yul\":243:362   */\n  iszero\n  tag_13\n  jumpi\n    /* \"#utility.yul\":281:360   */\n  tag_14\n  tag_15\n  jump\t// in\ntag_14:\n    /* \"#utility.yul\":243:362   */\ntag_13:\n    /* \"#utility.yul\":401:402   */\n  0x00\n    /* \"#utility.yul\":426:490   */\n  tag_16\n    /* \"#utility.yul\":482:489   */\n  dup5\n    /* \"#utility.yul\":473:479   */\n  dup3\n    /* \"#utility.yul\":462:471   */\n  dup6\n    /* \"#utility.yul\":458:480   */\n  add\n    /* \"#utility.yul\":426:490   */\n  tag_8\n  jump\t// in\ntag_16:\n    /* \"#utility.yul\":416:490   */\n  swap2\n  pop\n    /* \"#utility.yul\":372:500   */\n  pop\n    /* \"#utility.yul\":156:507   */\n  swap3\n  swap2\n  pop\n  pop\n  jump\t// out\n    /* \"#utility.yul\":594:671   */\ntag_19:\n    /* \"#utility.yul\":631:638   */\n  0x00\n    /* \"#utility.yul\":660:665   */\n  dup2\n    /* \"#utility.yul\":649:665   */\n  swap1\n  pop\n    /* \"#utility.yul\":594:671   */\n  swap2\n  swap1\n  pop\n  jump\t// out\n    /* \"#utility.yul\":800:917   */\ntag_15:\n    /* \"#utility.yul\":909:910   */\n  0x00\n    /* \"#utility.yul\":906:907   */\n  dup1\n    /* \"#utility.yul\":899:911   */\n  revert\n    /* \"#utility.yul\":923:1045   */\ntag_11:\n    /* \"#utility.yul\":996:1020   */\n  tag_25\n    /* \"#utility.yul\":1014:1019   */\n  dup2\n    /* \"#utility.yul\":996:1020   */\n  tag_19\n  jump\t// in\ntag_25:\n    /* \"#utility.yul\":989:994   */\n  dup2\n    /* \"#utility.yul\":986:1021   */\n  eq\n    /* \"#utility.yul\":976:1039   */\n  tag_26\n  jumpi\n    /* \"#utility.yul\":1035:1036   */\n  0x00\n    /* \"#utility.yul\":1032:1033   */\n  dup1\n    /* \"#utility.yul\":1025:1037   */\n  revert\n    /* \"#utility.yul\":976:1039   */\ntag_26:\n    /* \"#utility.yul\":923:1045   */\n  pop\n  jump\t// out\n    /* \"contracts/Financial Services/Balance.sol\":76:2554  contract TokenBasic {\r... */\ntag_6:\n  dataSize(sub_0)\n  dup1\n  dataOffset(sub_0)\n  0x00\n  codecopy\n  0x00\n  return\nstop\n\nsub_0: assembly {\n        /* \"contracts/Financial Services/Balance.sol\":76:2554  contract TokenBasic {\r... */\n      mstore(0x40, 0x80)\n      callvalue\n      dup1\n      iszero\n      tag_1\n      jumpi\n      0x00\n      dup1\n      revert\n    tag_1:\n      pop\n      jumpi(tag_2, lt(calldatasize, 0x04))\n      shr(0xe0, calldataload(0x00))\n      dup1\n      0x70a08231\n      gt\n      tag_11\n      jumpi\n      dup1\n      0x70a08231\n      eq\n      tag_7\n      jumpi\n      dup1\n      0x95d89b41\n      eq\n      tag_8\n      jumpi\n      dup1\n      0xa9059cbb\n      eq\n      tag_9\n      jumpi\n      dup1\n      0xdd62ed3e\n      eq\n      tag_10\n      jumpi\n      jump(tag_2)\n    tag_11:\n      dup1\n      0x06fdde03\n      eq\n      tag_3\n      jumpi\n      dup1\n      0x095ea7b3\n      eq\n      tag_4\n      jumpi\n      dup1\n      0x18160ddd\n      eq\n      tag_5\n      jumpi\n      dup1\n      0x313ce567\n      eq\n      tag_6\n      jumpi\n    tag_2:\n      0x00\n      dup1\n      revert\n        /* \"contracts/Financial Services/Balance.sol\":105:147  string public constant name = \"PlatziCoin\" */\n    tag_3:\n      tag_12\n      tag_13\n      jump\t// in\n    tag_12:\n      mload(0x40)\n      tag_14\n      swap2\n      swap1\n      tag_15\n      jump\t// in\n    tag_14:\n      mload(0x40)\n      dup1\n      swap2\n      sub\n      swap1\n      return\n        /* \"contracts/Financial Services/Balance.sol\":1902:2291  function approve(address _spender, uint256 _value) public returns (bool success) { //Función para permitir a un spender gestionar cierta cantidad de tokens\r... */\n    tag_4:\n      tag_16\n      0x04\n      dup1\n      calldatasize\n      sub\n      dup2\n      add\n      swap1\n      tag_17\n      swap2\n      swap1\n      tag_18\n      jump\t// in\n    tag_17:\n      tag_19\n      jump\t// in\n    tag_16:\n      mload(0x40)\n      tag_20\n      swap2\n      swap1\n      tag_21\n      jump\t// in\n    tag_20:\n      mload(0x40)\n      dup1\n      swap2\n      sub\n      swap1\n      return\n        /* \"contracts/Financial Services/Balance.sol\":1058:1198  function totalSupply() public view returns (uint256) { //Devolver la cantidad total de supply del token\r... */\n    tag_5:\n      tag_22\n      tag_23\n      jump\t// in\n    tag_22:\n      mload(0x40)\n      tag_24\n      swap2\n      swap1\n      tag_25\n      jump\t// in\n    tag_24:\n      mload(0x40)\n      dup1\n      swap2\n      sub\n      swap1\n      return\n        /* \"contracts/Financial Services/Balance.sol\":238:273  uint8 public constant decimals = 18 */\n    tag_6:\n      tag_26\n      tag_27\n      jump\t// in\n    tag_26:\n      mload(0x40)\n      tag_28\n      swap2\n      swap1\n      tag_29\n      jump\t// in\n    tag_28:\n      mload(0x40)\n      dup1\n      swap2\n      sub\n      swap1\n      return\n        /* \"contracts/Financial Services/Balance.sol\":1206:1352  function balanceOf(address _owner) public view returns (uint) { //Devolver el balance de la cuenta actual\r... */\n    tag_7:\n      tag_30\n      0x04\n      dup1\n      calldatasize\n      sub\n      dup2\n      add\n      swap1\n      tag_31\n      swap2\n      swap1\n      tag_32\n      jump\t// in\n    tag_31:\n      tag_33\n      jump\t// in\n    tag_30:\n      mload(0x40)\n      tag_34\n      swap2\n      swap1\n      tag_25\n      jump\t// in\n    tag_34:\n      mload(0x40)\n      dup1\n      swap2\n      sub\n      swap1\n      return\n        /* \"contracts/Financial Services/Balance.sol\":173:210  string public constant symbol = \"PZC\" */\n    tag_8:\n      tag_35\n      tag_36\n      jump\t// in\n    tag_35:\n      mload(0x40)\n      tag_37\n      swap2\n      swap1\n      tag_15\n      jump\t// in\n    tag_37:\n      mload(0x40)\n      dup1\n      swap2\n      sub\n      swap1\n      return\n        /* \"contracts/Financial Services/Balance.sol\":1360:1894  function transfer(address _to, uint256 _value) public returns (bool success) {\r... */\n    tag_9:\n      tag_38\n      0x04\n      dup1\n      calldatasize\n      sub\n      dup2\n      add\n      swap1\n      tag_39\n      swap2\n      swap1\n      tag_18\n      jump\t// in\n    tag_39:\n      tag_40\n      jump\t// in\n    tag_38:\n      mload(0x40)\n      tag_41\n      swap2\n      swap1\n      tag_21\n      jump\t// in\n    tag_41:\n      mload(0x40)\n      dup1\n      swap2\n      sub\n      swap1\n      return\n        /* \"contracts/Financial Services/Balance.sol\":2303:2549  function allowance(address _owner, address _spender) public view returns (uint256 remaining) { //Cuantos tokens le quedan por gestionar a esa wallet que ha sido autorizada por la wallet owner\r... */\n    tag_10:\n      tag_42\n      0x04\n      dup1\n      calldatasize\n      sub\n      dup2\n      add\n      swap1\n      tag_43\n      swap2\n      swap1\n      tag_44\n      jump\t// in\n    tag_43:\n      tag_45\n      jump\t// in\n    tag_42:\n      mload(0x40)\n      tag_46\n      swap2\n      swap1\n      tag_25\n      jump\t// in\n    tag_46:\n      mload(0x40)\n      dup1\n      swap2\n      sub\n      swap1\n      return\n        /* \"contracts/Financial Services/Balance.sol\":105:147  string public constant name = \"PlatziCoin\" */\n    tag_13:\n      mload(0x40)\n      dup1\n      0x40\n      add\n      0x40\n      mstore\n      dup1\n      0x0a\n      dup2\n      mstore\n      0x20\n      add\n      0x506c61747a69436f696e00000000000000000000000000000000000000000000\n      dup2\n      mstore\n      pop\n      dup2\n      jump\t// out\n        /* \"contracts/Financial Services/Balance.sol\":1902:2291  function approve(address _spender, uint256 _value) public returns (bool success) { //Función para permitir a un spender gestionar cierta cantidad de tokens\r... */\n    tag_19:\n        /* \"contracts/Financial Services/Balance.sol\":1969:1981  bool success */\n      0x00\n        /* \"contracts/Financial Services/Balance.sol\":2100:2106  _value */\n      dup2\n        /* \"contracts/Financial Services/Balance.sol\":2068:2075  allowed */\n      0x02\n        /* \"contracts/Financial Services/Balance.sol\":2068:2087  allowed[msg.sender] */\n      0x00\n        /* \"contracts/Financial Services/Balance.sol\":2076:2086  msg.sender */\n      caller\n        /* \"contracts/Financial Services/Balance.sol\":2068:2087  allowed[msg.sender] */\n      0xffffffffffffffffffffffffffffffffffffffff\n      and\n      0xffffffffffffffffffffffffffffffffffffffff\n      and\n      dup2\n      mstore\n      0x20\n      add\n      swap1\n      dup2\n      mstore\n      0x20\n      add\n      0x00\n      keccak256\n        /* \"contracts/Financial Services/Balance.sol\":2068:2097  allowed[msg.sender][_spender] */\n      0x00\n        /* \"contracts/Financial Services/Balance.sol\":2088:2096  _spender */\n      dup6\n        /* \"contracts/Financial Services/Balance.sol\":2068:2097  allowed[msg.sender][_spender] */\n      0xffffffffffffffffffffffffffffffffffffffff\n      and\n      0xffffffffffffffffffffffffffffffffffffffff\n      and\n      dup2\n      mstore\n      0x20\n      add\n      swap1\n      dup2\n      mstore\n      0x20\n      add\n      0x00\n      keccak256\n        /* \"contracts/Financial Services/Balance.sol\":2068:2106  allowed[msg.sender][_spender] = _value */\n      dup2\n      swap1\n      sstore\n      pop\n        /* \"contracts/Financial Services/Balance.sol\":2213:2221  _spender */\n      dup3\n        /* \"contracts/Financial Services/Balance.sol\":2192:2230  Approval(msg.sender, _spender, _value) */\n      0xffffffffffffffffffffffffffffffffffffffff\n      and\n        /* \"contracts/Financial Services/Balance.sol\":2201:2211  msg.sender */\n      caller\n        /* \"contracts/Financial Services/Balance.sol\":2192:2230  Approval(msg.sender, _spender, _value) */\n      0xffffffffffffffffffffffffffffffffffffffff\n      and\n      0x8c5be1e5ebec7d5bd14f71427d1e84f3dd0314c0f7b2291e5b200ac8c7c3b925\n        /* \"contracts/Financial Services/Balance.sol\":2223:2229  _value */\n      dup5\n        /* \"contracts/Financial Services/Balance.sol\":2192:2230  Approval(msg.sender, _spender, _value) */\n      mload(0x40)\n      tag_48\n      swap2\n      swap1\n      tag_25\n      jump\t// in\n    tag_48:\n      mload(0x40)\n      dup1\n      swap2\n      sub\n      swap1\n      log3\n        /* \"contracts/Financial Services/Balance.sol\":2279:2283  true */\n      0x01\n        /* \"contracts/Financial Services/Balance.sol\":2269:2283  success = true */\n      swap1\n      pop\n        /* \"contracts/Financial Services/Balance.sol\":1902:2291  function approve(address _spender, uint256 _value) public returns (bool success) { //Función para permitir a un spender gestionar cierta cantidad de tokens\r... */\n      swap3\n      swap2\n      pop\n      pop\n      jump\t// out\n        /* \"contracts/Financial Services/Balance.sol\":1058:1198  function totalSupply() public view returns (uint256) { //Devolver la cantidad total de supply del token\r... */\n    tag_23:\n        /* \"contracts/Financial Services/Balance.sol\":1102:1109  uint256 */\n      0x00\n        /* \"contracts/Financial Services/Balance.sol\":1178:1190  _totalSupply */\n      dup1\n      sload\n        /* \"contracts/Financial Services/Balance.sol\":1171:1190  return _totalSupply */\n      swap1\n      pop\n        /* \"contracts/Financial Services/Balance.sol\":1058:1198  function totalSupply() public view returns (uint256) { //Devolver la cantidad total de supply del token\r... */\n      swap1\n      jump\t// out\n        /* \"contracts/Financial Services/Balance.sol\":238:273  uint8 public constant decimals = 18 */\n    tag_27:\n        /* \"contracts/Financial Services/Balance.sol\":271:273  18 */\n      0x12\n        /* \"contracts/Financial Services/Balance.sol\":238:273  uint8 public constant decimals = 18 */\n      dup2\n      jump\t// out\n        /* \"contracts/Financial Services/Balance.sol\":1206:1352  function balanceOf(address _owner) public view returns (uint) { //Devolver el balance de la cuenta actual\r... */\n    tag_33:\n        /* \"contracts/Financial Services/Balance.sol\":1262:1266  uint */\n      0x00\n        /* \"contracts/Financial Services/Balance.sol\":1328:1336  balances */\n      0x01\n        /* \"contracts/Financial Services/Balance.sol\":1328:1344  balances[_owner] */\n      0x00\n        /* \"contracts/Financial Services/Balance.sol\":1337:1343  _owner */\n      dup4\n        /* \"contracts/Financial Services/Balance.sol\":1328:1344  balances[_owner] */\n      0xffffffffffffffffffffffffffffffffffffffff\n      and\n      0xffffffffffffffffffffffffffffffffffffffff\n      and\n      dup2\n      mstore\n      0x20\n      add\n      swap1\n      dup2\n      mstore\n      0x20\n      add\n      0x00\n      keccak256\n      sload\n        /* \"contracts/Financial Services/Balance.sol\":1321:1344  return balances[_owner] */\n      swap1\n      pop\n        /* \"contracts/Financial Services/Balance.sol\":1206:1352  function balanceOf(address _owner) public view returns (uint) { //Devolver el balance de la cuenta actual\r... */\n      swap2\n      swap1\n      pop\n      jump\t// out\n        /* \"contracts/Financial Services/Balance.sol\":173:210  string public constant symbol = \"PZC\" */\n    tag_36:\n      mload(0x40)\n      dup1\n      0x40\n      add\n      0x40\n      mstore\n      dup1\n      0x03\n      dup2\n      mstore\n      0x20\n      add\n      0x505a430000000000000000000000000000000000000000000000000000000000\n      dup2\n      mstore\n      pop\n      dup2\n      jump\t// out\n        /* \"contracts/Financial Services/Balance.sol\":1360:1894  function transfer(address _to, uint256 _value) public returns (bool success) {\r... */\n    tag_40:\n        /* \"contracts/Financial Services/Balance.sol\":1423:1435  bool success */\n      0x00\n        /* \"contracts/Financial Services/Balance.sol\":1466:1474  balances */\n      0x01\n        /* \"contracts/Financial Services/Balance.sol\":1466:1486  balances[msg.sender] */\n      0x00\n        /* \"contracts/Financial Services/Balance.sol\":1475:1485  msg.sender */\n      caller\n        /* \"contracts/Financial Services/Balance.sol\":1466:1486  balances[msg.sender] */\n      0xffffffffffffffffffffffffffffffffffffffff\n      and\n      0xffffffffffffffffffffffffffffffffffffffff\n      and\n      dup2\n      mstore\n      0x20\n      add\n      swap1\n      dup2\n      mstore\n      0x20\n      add\n      0x00\n      keccak256\n      sload\n        /* \"contracts/Financial Services/Balance.sol\":1456:1462  _value */\n      dup3\n        /* \"contracts/Financial Services/Balance.sol\":1456:1486  _value <= balances[msg.sender] */\n      gt\n      iszero\n        /* \"contracts/Financial Services/Balance.sol\":1448:1535  require(_value <= balances[msg.sender], \"There are not enough fund to do the transfer\") */\n      tag_52\n      jumpi\n      mload(0x40)\n      0x08c379a000000000000000000000000000000000000000000000000000000000\n      dup2\n      mstore\n      0x04\n      add\n      tag_53\n      swap1\n      tag_54\n      jump\t// in\n    tag_53:\n      mload(0x40)\n      dup1\n      swap2\n      sub\n      swap1\n      revert\n    tag_52:\n        /* \"contracts/Financial Services/Balance.sol\":1634:1640  _value */\n      dup2\n        /* \"contracts/Financial Services/Balance.sol\":1611:1619  balances */\n      0x01\n        /* \"contracts/Financial Services/Balance.sol\":1611:1631  balances[msg.sender] */\n      0x00\n        /* \"contracts/Financial Services/Balance.sol\":1620:1630  msg.sender */\n      caller\n        /* \"contracts/Financial Services/Balance.sol\":1611:1631  balances[msg.sender] */\n      0xffffffffffffffffffffffffffffffffffffffff\n      and\n      0xffffffffffffffffffffffffffffffffffffffff\n      and\n      dup2\n      mstore\n      0x20\n      add\n      swap1\n      dup2\n      mstore\n      0x20\n      add\n      0x00\n      keccak256\n      sload\n        /* \"contracts/Financial Services/Balance.sol\":1611:1640  balances[msg.sender] - _value */\n      tag_55\n      swap2\n      swap1\n      tag_56\n      jump\t// in\n    tag_55:\n        /* \"contracts/Financial Services/Balance.sol\":1588:1596  balances */\n      0x01\n        /* \"contracts/Financial Services/Balance.sol\":1588:1608  balances[msg.sender] */\n      0x00\n        /* \"contracts/Financial Services/Balance.sol\":1597:1607  msg.sender */\n      caller\n        /* \"contracts/Financial Services/Balance.sol\":1588:1608  balances[msg.sender] */\n      0xffffffffffffffffffffffffffffffffffffffff\n      and\n      0xffffffffffffffffffffffffffffffffffffffff\n      and\n      dup2\n      mstore\n      0x20\n      add\n      swap1\n      dup2\n      mstore\n      0x20\n      add\n      0x00\n      keccak256\n        /* \"contracts/Financial Services/Balance.sol\":1588:1640  balances[msg.sender] = balances[msg.sender] - _value */\n      dup2\n      swap1\n      sstore\n      pop\n        /* \"contracts/Financial Services/Balance.sol\":1730:1736  _value */\n      dup2\n        /* \"contracts/Financial Services/Balance.sol\":1714:1722  balances */\n      0x01\n        /* \"contracts/Financial Services/Balance.sol\":1714:1727  balances[_to] */\n      0x00\n        /* \"contracts/Financial Services/Balance.sol\":1723:1726  _to */\n      dup6\n        /* \"contracts/Financial Services/Balance.sol\":1714:1727  balances[_to] */\n      0xffffffffffffffffffffffffffffffffffffffff\n      and\n      0xffffffffffffffffffffffffffffffffffffffff\n      and\n      dup2\n      mstore\n      0x20\n      add\n      swap1\n      dup2\n      mstore\n      0x20\n      add\n      0x00\n      keccak256\n      sload\n        /* \"contracts/Financial Services/Balance.sol\":1714:1736  balances[_to] + _value */\n      tag_57\n      swap2\n      swap1\n      tag_58\n      jump\t// in\n    tag_57:\n        /* \"contracts/Financial Services/Balance.sol\":1698:1706  balances */\n      0x01\n        /* \"contracts/Financial Services/Balance.sol\":1698:1711  balances[_to] */\n      0x00\n        /* \"contracts/Financial Services/Balance.sol\":1707:1710  _to */\n      dup6\n        /* \"contracts/Financial Services/Balance.sol\":1698:1711  balances[_to] */\n      0xffffffffffffffffffffffffffffffffffffffff\n      and\n      0xffffffffffffffffffffffffffffffffffffffff\n      and\n      dup2\n      mstore\n      0x20\n      add\n      swap1\n      dup2\n      mstore\n      0x20\n      add\n      0x00\n      keccak256\n        /* \"contracts/Financial Services/Balance.sol\":1698:1736  balances[_to] = balances[_to] + _value */\n      dup2\n      swap1\n      sstore\n      pop\n        /* \"contracts/Financial Services/Balance.sol\":1821:1824  _to */\n      dup3\n        /* \"contracts/Financial Services/Balance.sol\":1800:1833  Transfer(msg.sender, _to, _value) */\n      0xffffffffffffffffffffffffffffffffffffffff\n      and\n        /* \"contracts/Financial Services/Balance.sol\":1809:1819  msg.sender */\n      caller\n        /* \"contracts/Financial Services/Balance.sol\":1800:1833  Transfer(msg.sender, _to, _value) */\n      0xffffffffffffffffffffffffffffffffffffffff\n      and\n      0xddf252ad1be2c89b69c2b068fc378daa952ba7f163c4a11628f55a4df523b3ef\n        /* \"contracts/Financial Services/Balance.sol\":1826:1832  _value */\n      dup5\n        /* \"contracts/Financial Services/Balance.sol\":1800:1833  Transfer(msg.sender, _to, _value) */\n      mload(0x40)\n      tag_59\n      swap2\n      swap1\n      tag_25\n      jump\t// in\n    tag_59:\n      mload(0x40)\n      dup1\n      swap2\n      sub\n      swap1\n      log3\n        /* \"contracts/Financial Services/Balance.sol\":1882:1886  true */\n      0x01\n        /* \"contracts/Financial Services/Balance.sol\":1872:1886  success = true */\n      swap1\n      pop\n        /* \"contracts/Financial Services/Balance.sol\":1360:1894  function transfer(address _to, uint256 _value) public returns (bool success) {\r... */\n      swap3\n      swap2\n      pop\n      pop\n      jump\t// out\n        /* \"contracts/Financial Services/Balance.sol\":2303:2549  function allowance(address _owner, address _spender) public view returns (uint256 remaining) { //Cuantos tokens le quedan por gestionar a esa wallet que ha sido autorizada por la wallet owner\r... */\n    tag_45:\n        /* \"contracts/Financial Services/Balance.sol\":2377:2394  uint256 remaining */\n      0x00\n        /* \"contracts/Financial Services/Balance.sol\":2516:2523  allowed */\n      0x02\n        /* \"contracts/Financial Services/Balance.sol\":2516:2531  allowed[_owner] */\n      0x00\n        /* \"contracts/Financial Services/Balance.sol\":2524:2530  _owner */\n      dup5\n        /* \"contracts/Financial Services/Balance.sol\":2516:2531  allowed[_owner] */\n      0xffffffffffffffffffffffffffffffffffffffff\n      and\n      0xffffffffffffffffffffffffffffffffffffffff\n      and\n      dup2\n      mstore\n      0x20\n      add\n      swap1\n      dup2\n      mstore\n      0x20\n      add\n      0x00\n      keccak256\n        /* \"contracts/Financial Services/Balance.sol\":2516:2541  allowed[_owner][_spender] */\n      0x00\n        /* \"contracts/Financial Services/Balance.sol\":2532:2540  _spender */\n      dup4\n        /* \"contracts/Financial Services/Balance.sol\":2516:2541  allowed[_owner][_spender] */\n      0xffffffffffffffffffffffffffffffffffffffff\n      and\n      0xffffffffffffffffffffffffffffffffffffffff\n      and\n      dup2\n      mstore\n      0x20\n      add\n      swap1\n      dup2\n      mstore\n      0x20\n      add\n      0x00\n      keccak256\n      sload\n        /* \"contracts/Financial Services/Balance.sol\":2504:2541  remaining = allowed[_owner][_spender] */\n      swap1\n      pop\n        /* \"contracts/Financial Services/Balance.sol\":2303:2549  function allowance(address _owner, address _spender) public view returns (uint256 remaining) { //Cuantos tokens le quedan por gestionar a esa wallet que ha sido autorizada por la wallet owner\r... */\n      swap3\n      swap2\n      pop\n      pop\n      jump\t// out\n        /* \"#utility.yul\":7:146   */\n    tag_62:\n        /* \"#utility.yul\":53:58   */\n      0x00\n        /* \"#utility.yul\":91:97   */\n      dup2\n        /* \"#utility.yul\":78:98   */\n      calldataload\n        /* \"#utility.yul\":69:98   */\n      swap1\n      pop\n        /* \"#utility.yul\":107:140   */\n      tag_64\n        /* \"#utility.yul\":134:139   */\n      dup2\n        /* \"#utility.yul\":107:140   */\n      tag_65\n      jump\t// in\n    tag_64:\n        /* \"#utility.yul\":7:146   */\n      swap3\n      swap2\n      pop\n      pop\n      jump\t// out\n        /* \"#utility.yul\":152:291   */\n    tag_66:\n        /* \"#utility.yul\":198:203   */\n      0x00\n        /* \"#utility.yul\":236:242   */\n      dup2\n        /* \"#utility.yul\":223:243   */\n      calldataload\n        /* \"#utility.yul\":214:243   */\n      swap1\n      pop\n        /* \"#utility.yul\":252:285   */\n      tag_68\n        /* \"#utility.yul\":279:284   */\n      dup2\n        /* \"#utility.yul\":252:285   */\n      tag_69\n      jump\t// in\n    tag_68:\n        /* \"#utility.yul\":152:291   */\n      swap3\n      swap2\n      pop\n      pop\n      jump\t// out\n        /* \"#utility.yul\":297:626   */\n    tag_32:\n        /* \"#utility.yul\":356:362   */\n      0x00\n        /* \"#utility.yul\":405:407   */\n      0x20\n        /* \"#utility.yul\":393:402   */\n      dup3\n        /* \"#utility.yul\":384:391   */\n      dup5\n        /* \"#utility.yul\":380:403   */\n      sub\n        /* \"#utility.yul\":376:408   */\n      slt\n        /* \"#utility.yul\":373:492   */\n      iszero\n      tag_71\n      jumpi\n        /* \"#utility.yul\":411:490   */\n      tag_72\n      tag_73\n      jump\t// in\n    tag_72:\n        /* \"#utility.yul\":373:492   */\n    tag_71:\n        /* \"#utility.yul\":531:532   */\n      0x00\n        /* \"#utility.yul\":556:609   */\n      tag_74\n        /* \"#utility.yul\":601:608   */\n      dup5\n        /* \"#utility.yul\":592:598   */\n      dup3\n        /* \"#utility.yul\":581:590   */\n      dup6\n        /* \"#utility.yul\":577:599   */\n      add\n        /* \"#utility.yul\":556:609   */\n      tag_62\n      jump\t// in\n    tag_74:\n        /* \"#utility.yul\":546:609   */\n      swap2\n      pop\n        /* \"#utility.yul\":502:619   */\n      pop\n        /* \"#utility.yul\":297:626   */\n      swap3\n      swap2\n      pop\n      pop\n      jump\t// out\n        /* \"#utility.yul\":632:1106   */\n    tag_44:\n        /* \"#utility.yul\":700:706   */\n      0x00\n        /* \"#utility.yul\":708:714   */\n      dup1\n        /* \"#utility.yul\":757:759   */\n      0x40\n        /* \"#utility.yul\":745:754   */\n      dup4\n        /* \"#utility.yul\":736:743   */\n      dup6\n        /* \"#utility.yul\":732:755   */\n      sub\n        /* \"#utility.yul\":728:760   */\n      slt\n        /* \"#utility.yul\":725:844   */\n      iszero\n      tag_76\n      jumpi\n        /* \"#utility.yul\":763:842   */\n      tag_77\n      tag_73\n      jump\t// in\n    tag_77:\n        /* \"#utility.yul\":725:844   */\n    tag_76:\n        /* \"#utility.yul\":883:884   */\n      0x00\n        /* \"#utility.yul\":908:961   */\n      tag_78\n        /* \"#utility.yul\":953:960   */\n      dup6\n        /* \"#utility.yul\":944:950   */\n      dup3\n        /* \"#utility.yul\":933:942   */\n      dup7\n        /* \"#utility.yul\":929:951   */\n      add\n        /* \"#utility.yul\":908:961   */\n      tag_62\n      jump\t// in\n    tag_78:\n        /* \"#utility.yul\":898:961   */\n      swap3\n      pop\n        /* \"#utility.yul\":854:971   */\n      pop\n        /* \"#utility.yul\":1010:1012   */\n      0x20\n        /* \"#utility.yul\":1036:1089   */\n      tag_79\n        /* \"#utility.yul\":1081:1088   */\n      dup6\n        /* \"#utility.yul\":1072:1078   */\n      dup3\n        /* \"#utility.yul\":1061:1070   */\n      dup7\n        /* \"#utility.yul\":1057:1079   */\n      add\n        /* \"#utility.yul\":1036:1089   */\n      tag_62\n      jump\t// in\n    tag_79:\n        /* \"#utility.yul\":1026:1089   */\n      swap2\n      pop\n        /* \"#utility.yul\":981:1099   */\n      pop\n        /* \"#utility.yul\":632:1106   */\n      swap3\n      pop\n      swap3\n      swap1\n      pop\n      jump\t// out\n        /* \"#utility.yul\":1112:1586   */\n    tag_18:\n        /* \"#utility.yul\":1180:1186   */\n      0x00\n        /* \"#utility.yul\":1188:1194   */\n      dup1\n        /* \"#utility.yul\":1237:1239   */\n      0x40\n        /* \"#utility.yul\":1225:1234   */\n      dup4\n        /* \"#utility.yul\":1216:1223   */\n      dup6\n        /* \"#utility.yul\":1212:1235   */\n      sub\n        /* \"#utility.yul\":1208:1240   */\n      slt\n        /* \"#utility.yul\":1205:1324   */\n      iszero\n      tag_81\n      jumpi\n        /* \"#utility.yul\":1243:1322   */\n      tag_82\n      tag_73\n      jump\t// in\n    tag_82:\n        /* \"#utility.yul\":1205:1324   */\n    tag_81:\n        /* \"#utility.yul\":1363:1364   */\n      0x00\n        /* \"#utility.yul\":1388:1441   */\n      tag_83\n        /* \"#utility.yul\":1433:1440   */\n      dup6\n        /* \"#utility.yul\":1424:1430   */\n      dup3\n        /* \"#utility.yul\":1413:1422   */\n      dup7\n        /* \"#utility.yul\":1409:1431   */\n      add\n        /* \"#utility.yul\":1388:1441   */\n      tag_62\n      jump\t// in\n    tag_83:\n        /* \"#utility.yul\":1378:1441   */\n      swap3\n      pop\n        /* \"#utility.yul\":1334:1451   */\n      pop\n        /* \"#utility.yul\":1490:1492   */\n      0x20\n        /* \"#utility.yul\":1516:1569   */\n      tag_84\n        /* \"#utility.yul\":1561:1568   */\n      dup6\n        /* \"#utility.yul\":1552:1558   */\n      dup3\n        /* \"#utility.yul\":1541:1550   */\n      dup7\n        /* \"#utility.yul\":1537:1559   */\n      add\n        /* \"#utility.yul\":1516:1569   */\n      tag_66\n      jump\t// in\n    tag_84:\n        /* \"#utility.yul\":1506:1569   */\n      swap2\n      pop\n        /* \"#utility.yul\":1461:1579   */\n      pop\n        /* \"#utility.yul\":1112:1586   */\n      swap3\n      pop\n      swap3\n      swap1\n      pop\n      jump\t// out\n        /* \"#utility.yul\":1592:1701   */\n    tag_85:\n        /* \"#utility.yul\":1673:1694   */\n      tag_87\n        /* \"#utility.yul\":1688:1693   */\n      dup2\n        /* \"#utility.yul\":1673:1694   */\n      tag_88\n      jump\t// in\n    tag_87:\n        /* \"#utility.yul\":1668:1671   */\n      dup3\n        /* \"#utility.yul\":1661:1695   */\n      mstore\n        /* \"#utility.yul\":1592:1701   */\n      pop\n      pop\n      jump\t// out\n        /* \"#utility.yul\":1707:2071   */\n    tag_89:\n        /* \"#utility.yul\":1795:1798   */\n      0x00\n        /* \"#utility.yul\":1823:1862   */\n      tag_91\n        /* \"#utility.yul\":1856:1861   */\n      dup3\n        /* \"#utility.yul\":1823:1862   */\n      tag_92\n      jump\t// in\n    tag_91:\n        /* \"#utility.yul\":1878:1949   */\n      tag_93\n        /* \"#utility.yul\":1942:1948   */\n      dup2\n        /* \"#utility.yul\":1937:1940   */\n      dup6\n        /* \"#utility.yul\":1878:1949   */\n      tag_94\n      jump\t// in\n    tag_93:\n        /* \"#utility.yul\":1871:1949   */\n      swap4\n      pop\n        /* \"#utility.yul\":1958:2010   */\n      tag_95\n        /* \"#utility.yul\":2003:2009   */\n      dup2\n        /* \"#utility.yul\":1998:2001   */\n      dup6\n        /* \"#utility.yul\":1991:1995   */\n      0x20\n        /* \"#utility.yul\":1984:1989   */\n      dup7\n        /* \"#utility.yul\":1980:1996   */\n      add\n        /* \"#utility.yul\":1958:2010   */\n      tag_96\n      jump\t// in\n    tag_95:\n        /* \"#utility.yul\":2035:2064   */\n      tag_97\n        /* \"#utility.yul\":2057:2063   */\n      dup2\n        /* \"#utility.yul\":2035:2064   */\n      tag_98\n      jump\t// in\n    tag_97:\n        /* \"#utility.yul\":2030:2033   */\n      dup5\n        /* \"#utility.yul\":2026:2065   */\n      add\n        /* \"#utility.yul\":2019:2065   */\n      swap2\n      pop\n        /* \"#utility.yul\":1799:2071   */\n      pop\n        /* \"#utility.yul\":1707:2071   */\n      swap3\n      swap2\n      pop\n      pop\n      jump\t// out\n        /* \"#utility.yul\":2077:2443   */\n    tag_99:\n        /* \"#utility.yul\":2219:2222   */\n      0x00\n        /* \"#utility.yul\":2240:2307   */\n      tag_101\n        /* \"#utility.yul\":2304:2306   */\n      0x2c\n        /* \"#utility.yul\":2299:2302   */\n      dup4\n        /* \"#utility.yul\":2240:2307   */\n      tag_94\n      jump\t// in\n    tag_101:\n        /* \"#utility.yul\":2233:2307   */\n      swap2\n      pop\n        /* \"#utility.yul\":2316:2409   */\n      tag_102\n        /* \"#utility.yul\":2405:2408   */\n      dup3\n        /* \"#utility.yul\":2316:2409   */\n      tag_103\n      jump\t// in\n    tag_102:\n        /* \"#utility.yul\":2434:2436   */\n      0x40\n        /* \"#utility.yul\":2429:2432   */\n      dup3\n        /* \"#utility.yul\":2425:2437   */\n      add\n        /* \"#utility.yul\":2418:2437   */\n      swap1\n      pop\n        /* \"#utility.yul\":2077:2443   */\n      swap2\n      swap1\n      pop\n      jump\t// out\n        /* \"#utility.yul\":2449:2567   */\n    tag_104:\n        /* \"#utility.yul\":2536:2560   */\n      tag_106\n        /* \"#utility.yul\":2554:2559   */\n      dup2\n        /* \"#utility.yul\":2536:2560   */\n      tag_107\n      jump\t// in\n    tag_106:\n        /* \"#utility.yul\":2531:2534   */\n      dup3\n        /* \"#utility.yul\":2524:2561   */\n      mstore\n        /* \"#utility.yul\":2449:2567   */\n      pop\n      pop\n      jump\t// out\n        /* \"#utility.yul\":2573:2685   */\n    tag_108:\n        /* \"#utility.yul\":2656:2678   */\n      tag_110\n        /* \"#utility.yul\":2672:2677   */\n      dup2\n        /* \"#utility.yul\":2656:2678   */\n      tag_111\n      jump\t// in\n    tag_110:\n        /* \"#utility.yul\":2651:2654   */\n      dup3\n        /* \"#utility.yul\":2644:2679   */\n      mstore\n        /* \"#utility.yul\":2573:2685   */\n      pop\n      pop\n      jump\t// out\n        /* \"#utility.yul\":2691:2901   */\n    tag_21:\n        /* \"#utility.yul\":2778:2782   */\n      0x00\n        /* \"#utility.yul\":2816:2818   */\n      0x20\n        /* \"#utility.yul\":2805:2814   */\n      dup3\n        /* \"#utility.yul\":2801:2819   */\n      add\n        /* \"#utility.yul\":2793:2819   */\n      swap1\n      pop\n        /* \"#utility.yul\":2829:2894   */\n      tag_113\n        /* \"#utility.yul\":2891:2892   */\n      0x00\n        /* \"#utility.yul\":2880:2889   */\n      dup4\n        /* \"#utility.yul\":2876:2893   */\n      add\n        /* \"#utility.yul\":2867:2873   */\n      dup5\n        /* \"#utility.yul\":2829:2894   */\n      tag_85\n      jump\t// in\n    tag_113:\n        /* \"#utility.yul\":2691:2901   */\n      swap3\n      swap2\n      pop\n      pop\n      jump\t// out\n        /* \"#utility.yul\":2907:3220   */\n    tag_15:\n        /* \"#utility.yul\":3020:3024   */\n      0x00\n        /* \"#utility.yul\":3058:3060   */\n      0x20\n        /* \"#utility.yul\":3047:3056   */\n      dup3\n        /* \"#utility.yul\":3043:3061   */\n      add\n        /* \"#utility.yul\":3035:3061   */\n      swap1\n      pop\n        /* \"#utility.yul\":3107:3116   */\n      dup2\n        /* \"#utility.yul\":3101:3105   */\n      dup2\n        /* \"#utility.yul\":3097:3117   */\n      sub\n        /* \"#utility.yul\":3093:3094   */\n      0x00\n        /* \"#utility.yul\":3082:3091   */\n      dup4\n        /* \"#utility.yul\":3078:3095   */\n      add\n        /* \"#utility.yul\":3071:3118   */\n      mstore\n        /* \"#utility.yul\":3135:3213   */\n      tag_115\n        /* \"#utility.yul\":3208:3212   */\n      dup2\n        /* \"#utility.yul\":3199:3205   */\n      dup5\n        /* \"#utility.yul\":3135:3213   */\n      tag_89\n      jump\t// in\n    tag_115:\n        /* \"#utility.yul\":3127:3213   */\n      swap1\n      pop\n        /* \"#utility.yul\":2907:3220   */\n      swap3\n      swap2\n      pop\n      pop\n      jump\t// out\n        /* \"#utility.yul\":3226:3645   */\n    tag_54:\n        /* \"#utility.yul\":3392:3396   */\n      0x00\n        /* \"#utility.yul\":3430:3432   */\n      0x20\n        /* \"#utility.yul\":3419:3428   */\n      dup3\n        /* \"#utility.yul\":3415:3433   */\n      add\n        /* \"#utility.yul\":3407:3433   */\n      swap1\n      pop\n        /* \"#utility.yul\":3479:3488   */\n      dup2\n        /* \"#utility.yul\":3473:3477   */\n      dup2\n        /* \"#utility.yul\":3469:3489   */\n      sub\n        /* \"#utility.yul\":3465:3466   */\n      0x00\n        /* \"#utility.yul\":3454:3463   */\n      dup4\n        /* \"#utility.yul\":3450:3467   */\n      add\n        /* \"#utility.yul\":3443:3490   */\n      mstore\n        /* \"#utility.yul\":3507:3638   */\n      tag_117\n        /* \"#utility.yul\":3633:3637   */\n      dup2\n        /* \"#utility.yul\":3507:3638   */\n      tag_99\n      jump\t// in\n    tag_117:\n        /* \"#utility.yul\":3499:3638   */\n      swap1\n      pop\n        /* \"#utility.yul\":3226:3645   */\n      swap2\n      swap1\n      pop\n      jump\t// out\n        /* \"#utility.yul\":3651:3873   */\n    tag_25:\n        /* \"#utility.yul\":3744:3748   */\n      0x00\n        /* \"#utility.yul\":3782:3784   */\n      0x20\n        /* \"#utility.yul\":3771:3780   */\n      dup3\n        /* \"#utility.yul\":3767:3785   */\n      add\n        /* \"#utility.yul\":3759:3785   */\n      swap1\n      pop\n        /* \"#utility.yul\":3795:3866   */\n      tag_119\n        /* \"#utility.yul\":3863:3864   */\n      0x00\n        /* \"#utility.yul\":3852:3861   */\n      dup4\n        /* \"#utility.yul\":3848:3865   */\n      add\n        /* \"#utility.yul\":3839:3845   */\n      dup5\n        /* \"#utility.yul\":3795:3866   */\n      tag_104\n      jump\t// in\n    tag_119:\n        /* \"#utility.yul\":3651:3873   */\n      swap3\n      swap2\n      pop\n      pop\n      jump\t// out\n        /* \"#utility.yul\":3879:4093   */\n    tag_29:\n        /* \"#utility.yul\":3968:3972   */\n      0x00\n        /* \"#utility.yul\":4006:4008   */\n      0x20\n        /* \"#utility.yul\":3995:4004   */\n      dup3\n        /* \"#utility.yul\":3991:4009   */\n      add\n        /* \"#utility.yul\":3983:4009   */\n      swap1\n      pop\n        /* \"#utility.yul\":4019:4086   */\n      tag_121\n        /* \"#utility.yul\":4083:4084   */\n      0x00\n        /* \"#utility.yul\":4072:4081   */\n      dup4\n        /* \"#utility.yul\":4068:4085   */\n      add\n        /* \"#utility.yul\":4059:4065   */\n      dup5\n        /* \"#utility.yul\":4019:4086   */\n      tag_108\n      jump\t// in\n    tag_121:\n        /* \"#utility.yul\":3879:4093   */\n      swap3\n      swap2\n      pop\n      pop\n      jump\t// out\n        /* \"#utility.yul\":4180:4279   */\n    tag_92:\n        /* \"#utility.yul\":4232:4238   */\n      0x00\n        /* \"#utility.yul\":4266:4271   */\n      dup2\n        /* \"#utility.yul\":4260:4272   */\n      mload\n        /* \"#utility.yul\":4250:4272   */\n      swap1\n      pop\n        /* \"#utility.yul\":4180:4279   */\n      swap2\n      swap1\n      pop\n      jump\t// out\n        /* \"#utility.yul\":4285:4454   */\n    tag_94:\n        /* \"#utility.yul\":4369:4380   */\n      0x00\n        /* \"#utility.yul\":4403:4409   */\n      dup3\n        /* \"#utility.yul\":4398:4401   */\n      dup3\n        /* \"#utility.yul\":4391:4410   */\n      mstore\n        /* \"#utility.yul\":4443:4447   */\n      0x20\n        /* \"#utility.yul\":4438:4441   */\n      dup3\n        /* \"#utility.yul\":4434:4448   */\n      add\n        /* \"#utility.yul\":4419:4448   */\n      swap1\n      pop\n        /* \"#utility.yul\":4285:4454   */\n      swap3\n      swap2\n      pop\n      pop\n      jump\t// out\n        /* \"#utility.yul\":4460:4765   */\n    tag_58:\n        /* \"#utility.yul\":4500:4503   */\n      0x00\n        /* \"#utility.yul\":4519:4539   */\n      tag_127\n        /* \"#utility.yul\":4537:4538   */\n      dup3\n        /* \"#utility.yul\":4519:4539   */\n      tag_107\n      jump\t// in\n    tag_127:\n        /* \"#utility.yul\":4514:4539   */\n      swap2\n      pop\n        /* \"#utility.yul\":4553:4573   */\n      tag_128\n        /* \"#utility.yul\":4571:4572   */\n      dup4\n        /* \"#utility.yul\":4553:4573   */\n      tag_107\n      jump\t// in\n    tag_128:\n        /* \"#utility.yul\":4548:4573   */\n      swap3\n      pop\n        /* \"#utility.yul\":4707:4708   */\n      dup3\n        /* \"#utility.yul\":4639:4705   */\n      0xffffffffffffffffffffffffffffffffffffffffffffffffffffffffffffffff\n        /* \"#utility.yul\":4635:4709   */\n      sub\n        /* \"#utility.yul\":4632:4633   */\n      dup3\n        /* \"#utility.yul\":4629:4710   */\n      gt\n        /* \"#utility.yul\":4626:4733   */\n      iszero\n      tag_129\n      jumpi\n        /* \"#utility.yul\":4713:4731   */\n      tag_130\n      tag_131\n      jump\t// in\n    tag_130:\n        /* \"#utility.yul\":4626:4733   */\n    tag_129:\n        /* \"#utility.yul\":4757:4758   */\n      dup3\n        /* \"#utility.yul\":4754:4755   */\n      dup3\n        /* \"#utility.yul\":4750:4759   */\n      add\n        /* \"#utility.yul\":4743:4759   */\n      swap1\n      pop\n        /* \"#utility.yul\":4460:4765   */\n      swap3\n      swap2\n      pop\n      pop\n      jump\t// out\n        /* \"#utility.yul\":4771:4962   */\n    tag_56:\n        /* \"#utility.yul\":4811:4815   */\n      0x00\n        /* \"#utility.yul\":4831:4851   */\n      tag_133\n        /* \"#utility.yul\":4849:4850   */\n      dup3\n        /* \"#utility.yul\":4831:4851   */\n      tag_107\n      jump\t// in\n    tag_133:\n        /* \"#utility.yul\":4826:4851   */\n      swap2\n      pop\n        /* \"#utility.yul\":4865:4885   */\n      tag_134\n        /* \"#utility.yul\":4883:4884   */\n      dup4\n        /* \"#utility.yul\":4865:4885   */\n      tag_107\n      jump\t// in\n    tag_134:\n        /* \"#utility.yul\":4860:4885   */\n      swap3\n      pop\n        /* \"#utility.yul\":4904:4905   */\n      dup3\n        /* \"#utility.yul\":4901:4902   */\n      dup3\n        /* \"#utility.yul\":4898:4906   */\n      lt\n        /* \"#utility.yul\":4895:4929   */\n      iszero\n      tag_135\n      jumpi\n        /* \"#utility.yul\":4909:4927   */\n      tag_136\n      tag_131\n      jump\t// in\n    tag_136:\n        /* \"#utility.yul\":4895:4929   */\n    tag_135:\n        /* \"#utility.yul\":4954:4955   */\n      dup3\n        /* \"#utility.yul\":4951:4952   */\n      dup3\n        /* \"#utility.yul\":4947:4956   */\n      sub\n        /* \"#utility.yul\":4939:4956   */\n      swap1\n      pop\n        /* \"#utility.yul\":4771:4962   */\n      swap3\n      swap2\n      pop\n      pop\n      jump\t// out\n        /* \"#utility.yul\":4968:5064   */\n    tag_137:\n        /* \"#utility.yul\":5005:5012   */\n      0x00\n        /* \"#utility.yul\":5034:5058   */\n      tag_139\n        /* \"#utility.yul\":5052:5057   */\n      dup3\n        /* \"#utility.yul\":5034:5058   */\n      tag_140\n      jump\t// in\n    tag_139:\n        /* \"#utility.yul\":5023:5058   */\n      swap1\n      pop\n        /* \"#utility.yul\":4968:5064   */\n      swap2\n      swap1\n      pop\n      jump\t// out\n        /* \"#utility.yul\":5070:5160   */\n    tag_88:\n        /* \"#utility.yul\":5104:5111   */\n      0x00\n        /* \"#utility.yul\":5147:5152   */\n      dup2\n        /* \"#utility.yul\":5140:5153   */\n      iszero\n        /* \"#utility.yul\":5133:5154   */\n      iszero\n        /* \"#utility.yul\":5122:5154   */\n      swap1\n      pop\n        /* \"#utility.yul\":5070:5160   */\n      swap2\n      swap1\n      pop\n      jump\t// out\n        /* \"#utility.yul\":5166:5292   */\n    tag_140:\n        /* \"#utility.yul\":5203:5210   */\n      0x00\n        /* \"#utility.yul\":5243:5285   */\n      0xffffffffffffffffffffffffffffffffffffffff\n        /* \"#utility.yul\":5236:5241   */\n      dup3\n        /* \"#utility.yul\":5232:5286   */\n      and\n        /* \"#utility.yul\":5221:5286   */\n      swap1\n      pop\n        /* \"#utility.yul\":5166:5292   */\n      swap2\n      swap1\n      pop\n      jump\t// out\n        /* \"#utility.yul\":5298:5375   */\n    tag_107:\n        /* \"#utility.yul\":5335:5342   */\n      0x00\n        /* \"#utility.yul\":5364:5369   */\n      dup2\n        /* \"#utility.yul\":5353:5369   */\n      swap1\n      pop\n        /* \"#utility.yul\":5298:5375   */\n      swap2\n      swap1\n      pop\n      jump\t// out\n        /* \"#utility.yul\":5381:5467   */\n    tag_111:\n        /* \"#utility.yul\":5416:5423   */\n      0x00\n        /* \"#utility.yul\":5456:5460   */\n      0xff\n        /* \"#utility.yul\":5449:5454   */\n      dup3\n        /* \"#utility.yul\":5445:5461   */\n      and\n        /* \"#utility.yul\":5434:5461   */\n      swap1\n      pop\n        /* \"#utility.yul\":5381:5467   */\n      swap2\n      swap1\n      pop\n      jump\t// out\n        /* \"#utility.yul\":5473:5780   */\n    tag_96:\n        /* \"#utility.yul\":5541:5542   */\n      0x00\n        /* \"#utility.yul\":5551:5664   */\n    tag_146:\n        /* \"#utility.yul\":5565:5571   */\n      dup4\n        /* \"#utility.yul\":5562:5563   */\n      dup2\n        /* \"#utility.yul\":5559:5572   */\n      lt\n        /* \"#utility.yul\":5551:5664   */\n      iszero\n      tag_148\n      jumpi\n        /* \"#utility.yul\":5650:5651   */\n      dup1\n        /* \"#utility.yul\":5645:5648   */\n      dup3\n        /* \"#utility.yul\":5641:5652   */\n      add\n        /* \"#utility.yul\":5635:5653   */\n      mload\n        /* \"#utility.yul\":5631:5632   */\n      dup2\n        /* \"#utility.yul\":5626:5629   */\n      dup5\n        /* \"#utility.yul\":5622:5633   */\n      add\n        /* \"#utility.yul\":5615:5654   */\n      mstore\n        /* \"#utility.yul\":5587:5589   */\n      0x20\n        /* \"#utility.yul\":5584:5585   */\n      dup2\n        /* \"#utility.yul\":5580:5590   */\n      add\n        /* \"#utility.yul\":5575:5590   */\n      swap1\n      pop\n        /* \"#utility.yul\":5551:5664   */\n      jump(tag_146)\n    tag_148:\n        /* \"#utility.yul\":5682:5688   */\n      dup4\n        /* \"#utility.yul\":5679:5680   */\n      dup2\n        /* \"#utility.yul\":5676:5689   */\n      gt\n        /* \"#utility.yul\":5673:5774   */\n      iszero\n      tag_149\n      jumpi\n        /* \"#utility.yul\":5762:5763   */\n      0x00\n        /* \"#utility.yul\":5753:5759   */\n      dup5\n        /* \"#utility.yul\":5748:5751   */\n      dup5\n        /* \"#utility.yul\":5744:5760   */\n      add\n        /* \"#utility.yul\":5737:5764   */\n      mstore\n        /* \"#utility.yul\":5673:5774   */\n    tag_149:\n        /* \"#utility.yul\":5522:5780   */\n      pop\n        /* \"#utility.yul\":5473:5780   */\n      pop\n      pop\n      pop\n      jump\t// out\n        /* \"#utility.yul\":5786:5966   */\n    tag_131:\n        /* \"#utility.yul\":5834:5911   */\n      0x4e487b7100000000000000000000000000000000000000000000000000000000\n        /* \"#utility.yul\":5831:5832   */\n      0x00\n        /* \"#utility.yul\":5824:5912   */\n      mstore\n        /* \"#utility.yul\":5931:5935   */\n      0x11\n        /* \"#utility.yul\":5928:5929   */\n      0x04\n        /* \"#utility.yul\":5921:5936   */\n      mstore\n        /* \"#utility.yul\":5955:5959   */\n      0x24\n        /* \"#utility.yul\":5952:5953   */\n      0x00\n        /* \"#utility.yul\":5945:5960   */\n      revert\n        /* \"#utility.yul\":6095:6212   */\n    tag_73:\n        /* \"#utility.yul\":6204:6205   */\n      0x00\n        /* \"#utility.yul\":6201:6202   */\n      dup1\n        /* \"#utility.yul\":6194:6206   */\n      revert\n        /* \"#utility.yul\":6218:6320   */\n    tag_98:\n        /* \"#utility.yul\":6259:6265   */\n      0x00\n        /* \"#utility.yul\":6310:6312   */\n      0x1f\n        /* \"#utility.yul\":6306:6313   */\n      not\n        /* \"#utility.yul\":6301:6303   */\n      0x1f\n        /* \"#utility.yul\":6294:6299   */\n      dup4\n        /* \"#utility.yul\":6290:6304   */\n      add\n        /* \"#utility.yul\":6286:6314   */\n      and\n        /* \"#utility.yul\":6276:6314   */\n      swap1\n      pop\n        /* \"#utility.yul\":6218:6320   */\n      swap2\n      swap1\n      pop\n      jump\t// out\n        /* \"#utility.yul\":6326:6557   */\n    tag_103:\n        /* \"#utility.yul\":6466:6500   */\n      0x546865726520617265206e6f7420656e6f7567682066756e6420746f20646f20\n        /* \"#utility.yul\":6462:6463   */\n      0x00\n        /* \"#utility.yul\":6454:6460   */\n      dup3\n        /* \"#utility.yul\":6450:6464   */\n      add\n        /* \"#utility.yul\":6443:6501   */\n      mstore\n        /* \"#utility.yul\":6535:6549   */\n      0x746865207472616e736665720000000000000000000000000000000000000000\n        /* \"#utility.yul\":6530:6532   */\n      0x20\n        /* \"#utility.yul\":6522:6528   */\n      dup3\n        /* \"#utility.yul\":6518:6533   */\n      add\n        /* \"#utility.yul\":6511:6550   */\n      mstore\n        /* \"#utility.yul\":6326:6557   */\n      pop\n      jump\t// out\n        /* \"#utility.yul\":6563:6685   */\n    tag_65:\n        /* \"#utility.yul\":6636:6660   */\n      tag_157\n        /* \"#utility.yul\":6654:6659   */\n      dup2\n        /* \"#utility.yul\":6636:6660   */\n      tag_137\n      jump\t// in\n    tag_157:\n        /* \"#utility.yul\":6629:6634   */\n      dup2\n        /* \"#utility.yul\":6626:6661   */\n      eq\n        /* \"#utility.yul\":6616:6679   */\n      tag_158\n      jumpi\n        /* \"#utility.yul\":6675:6676   */\n      0x00\n        /* \"#utility.yul\":6672:6673   */\n      dup1\n        /* \"#utility.yul\":6665:6677   */\n      revert\n        /* \"#utility.yul\":6616:6679   */\n    tag_158:\n        /* \"#utility.yul\":6563:6685   */\n      pop\n      jump\t// out\n        /* \"#utility.yul\":6691:6813   */\n    tag_69:\n        /* \"#utility.yul\":6764:6788   */\n      tag_160\n        /* \"#utility.yul\":6782:6787   */\n      dup2\n        /* \"#utility.yul\":6764:6788   */\n      tag_107\n      jump\t// in\n    tag_160:\n        /* \"#utility.yul\":6757:6762   */\n      dup2\n        /* \"#utility.yul\":6754:6789   */\n      eq\n        /* \"#utility.yul\":6744:6807   */\n      tag_161\n      jumpi\n        /* \"#utility.yul\":6803:6804   */\n      0x00\n        /* \"#utility.yul\":6800:6801   */\n      dup1\n        /* \"#utility.yul\":6793:6805   */\n      revert\n        /* \"#utility.yul\":6744:6807   */\n    tag_161:\n        /* \"#utility.yul\":6691:6813   */\n      pop\n      jump\t// out\n\n    auxdata: 0xa2646970667358221220cb55db81092090ae0faae76147805f6fa043422dc78f123e4bf3863ebab7426964736f6c63430008070033\n}\n",
				"bytecode": {
					"linkReferences": {},
					"object": "608060405234801561001057600080fd5b50604051610b29380380610b2983398181016040528101906100329190610098565b8060008190555080600160003373ffffffffffffffffffffffffffffffffffffffff1673ffffffffffffffffffffffffffffffffffffffff16815260200190815260200160002081905550506100eb565b600081519050610092816100d4565b92915050565b6000602082840312156100ae576100ad6100cf565b5b60006100bc84828501610083565b91505092915050565b6000819050919050565b600080fd5b6100dd816100c5565b81146100e857600080fd5b50565b610a2f806100fa6000396000f3fe608060405234801561001057600080fd5b50600436106100885760003560e01c806370a082311161005b57806370a082311461011757806395d89b4114610147578063a9059cbb14610165578063dd62ed3e1461019557610088565b806306fdde031461008d578063095ea7b3146100ab57806318160ddd146100db578063313ce567146100f9575b600080fd5b6100956101c5565b6040516100a29190610791565b60405180910390f35b6100c560048036038101906100c091906106ad565b6101fe565b6040516100d29190610776565b60405180910390f35b6100e36102f0565b6040516100f091906107d3565b60405180910390f35b6101016102f9565b60405161010e91906107ee565b60405180910390f35b610131600480360381019061012c9190610640565b6102fe565b60405161013e91906107d3565b60405180910390f35b61014f610347565b60405161015c9190610791565b60405180910390f35b61017f600480360381019061017a91906106ad565b610380565b60405161018c9190610776565b60405180910390f35b6101af60048036038101906101aa919061066d565b61058f565b6040516101bc91906107d3565b60405180910390f35b6040518060400160405280600a81526020017f506c61747a69436f696e0000000000000000000000000000000000000000000081525081565b600081600260003373ffffffffffffffffffffffffffffffffffffffff1673ffffffffffffffffffffffffffffffffffffffff16815260200190815260200160002060008573ffffffffffffffffffffffffffffffffffffffff1673ffffffffffffffffffffffffffffffffffffffff168152602001908152602001600020819055508273ffffffffffffffffffffffffffffffffffffffff163373ffffffffffffffffffffffffffffffffffffffff167f8c5be1e5ebec7d5bd14f71427d1e84f3dd0314c0f7b2291e5b200ac8c7c3b925846040516102de91906107d3565b60405180910390a36001905092915050565b60008054905090565b601281565b6000600160008373ffffffffffffffffffffffffffffffffffffffff1673ffffffffffffffffffffffffffffffffffffffff168152602001908152602001600020549050919050565b6040518060400160405280600381526020017f505a43000000000000000000000000000000000000000000000000000000000081525081565b6000600160003373ffffffffffffffffffffffffffffffffffffffff1673ffffffffffffffffffffffffffffffffffffffff16815260200190815260200160002054821115610404576040517f08c379a00000000000000000000000000000000000000000000000000000000081526004016103fb906107b3565b60405180910390fd5b81600160003373ffffffffffffffffffffffffffffffffffffffff1673ffffffffffffffffffffffffffffffffffffffff1681526020019081526020016000205461044f919061087b565b600160003373ffffffffffffffffffffffffffffffffffffffff1673ffffffffffffffffffffffffffffffffffffffff1681526020019081526020016000208190555081600160008573ffffffffffffffffffffffffffffffffffffffff1673ffffffffffffffffffffffffffffffffffffffff168152602001908152602001600020546104dd9190610825565b600160008573ffffffffffffffffffffffffffffffffffffffff1673ffffffffffffffffffffffffffffffffffffffff168152602001908152602001600020819055508273ffffffffffffffffffffffffffffffffffffffff163373ffffffffffffffffffffffffffffffffffffffff167fddf252ad1be2c89b69c2b068fc378daa952ba7f163c4a11628f55a4df523b3ef8460405161057d91906107d3565b60405180910390a36001905092915050565b6000600260008473ffffffffffffffffffffffffffffffffffffffff1673ffffffffffffffffffffffffffffffffffffffff16815260200190815260200160002060008373ffffffffffffffffffffffffffffffffffffffff1673ffffffffffffffffffffffffffffffffffffffff16815260200190815260200160002054905092915050565b600081359050610625816109cb565b92915050565b60008135905061063a816109e2565b92915050565b60006020828403121561065657610655610966565b5b600061066484828501610616565b91505092915050565b6000806040838503121561068457610683610966565b5b600061069285828601610616565b92505060206106a385828601610616565b9150509250929050565b600080604083850312156106c4576106c3610966565b5b60006106d285828601610616565b92505060206106e38582860161062b565b9150509250929050565b6106f6816108c1565b82525050565b600061070782610809565b6107118185610814565b9350610721818560208601610904565b61072a8161096b565b840191505092915050565b6000610742602c83610814565b915061074d8261097c565b604082019050919050565b610761816108ed565b82525050565b610770816108f7565b82525050565b600060208201905061078b60008301846106ed565b92915050565b600060208201905081810360008301526107ab81846106fc565b905092915050565b600060208201905081810360008301526107cc81610735565b9050919050565b60006020820190506107e86000830184610758565b92915050565b60006020820190506108036000830184610767565b92915050565b600081519050919050565b600082825260208201905092915050565b6000610830826108ed565b915061083b836108ed565b9250827fffffffffffffffffffffffffffffffffffffffffffffffffffffffffffffffff038211156108705761086f610937565b5b828201905092915050565b6000610886826108ed565b9150610891836108ed565b9250828210156108a4576108a3610937565b5b828203905092915050565b60006108ba826108cd565b9050919050565b60008115159050919050565b600073ffffffffffffffffffffffffffffffffffffffff82169050919050565b6000819050919050565b600060ff82169050919050565b60005b83811015610922578082015181840152602081019050610907565b83811115610931576000848401525b50505050565b7f4e487b7100000000000000000000000000000000000000000000000000000000600052601160045260246000fd5b600080fd5b6000601f19601f8301169050919050565b7f546865726520617265206e6f7420656e6f7567682066756e6420746f20646f2060008201527f746865207472616e736665720000000000000000000000000000000000000000602082015250565b6109d4816108af565b81146109df57600080fd5b50565b6109eb816108ed565b81146109f657600080fd5b5056fea2646970667358221220cb55db81092090ae0faae76147805f6fa043422dc78f123e4bf3863ebab7426964736f6c63430008070033",
					"opcodes": "PUSH1 0x80 PUSH1 0x40 MSTORE CALLVALUE DUP1 ISZERO PUSH2 0x10 JUMPI PUSH1 0x0 DUP1 REVERT JUMPDEST POP PUSH1 0x40 MLOAD PUSH2 0xB29 CODESIZE SUB DUP1 PUSH2 0xB29 DUP4 CODECOPY DUP2 DUP2 ADD PUSH1 0x40 MSTORE DUP2 ADD SWAP1 PUSH2 0x32 SWAP2 SWAP1 PUSH2 0x98 JUMP JUMPDEST DUP1 PUSH1 0x0 DUP2 SWAP1 SSTORE POP DUP1 PUSH1 0x1 PUSH1 0x0 CALLER PUSH20 0xFFFFFFFFFFFFFFFFFFFFFFFFFFFFFFFFFFFFFFFF AND PUSH20 0xFFFFFFFFFFFFFFFFFFFFFFFFFFFFFFFFFFFFFFFF AND DUP2 MSTORE PUSH1 0x20 ADD SWAP1 DUP2 MSTORE PUSH1 0x20 ADD PUSH1 0x0 KECCAK256 DUP2 SWAP1 SSTORE POP POP PUSH2 0xEB JUMP JUMPDEST PUSH1 0x0 DUP2 MLOAD SWAP1 POP PUSH2 0x92 DUP2 PUSH2 0xD4 JUMP JUMPDEST SWAP3 SWAP2 POP POP JUMP JUMPDEST PUSH1 0x0 PUSH1 0x20 DUP3 DUP5 SUB SLT ISZERO PUSH2 0xAE JUMPI PUSH2 0xAD PUSH2 0xCF JUMP JUMPDEST JUMPDEST PUSH1 0x0 PUSH2 0xBC DUP5 DUP3 DUP6 ADD PUSH2 0x83 JUMP JUMPDEST SWAP2 POP POP SWAP3 SWAP2 POP POP JUMP JUMPDEST PUSH1 0x0 DUP2 SWAP1 POP SWAP2 SWAP1 POP JUMP JUMPDEST PUSH1 0x0 DUP1 REVERT JUMPDEST PUSH2 0xDD DUP2 PUSH2 0xC5 JUMP JUMPDEST DUP2 EQ PUSH2 0xE8 JUMPI PUSH1 0x0 DUP1 REVERT JUMPDEST POP JUMP JUMPDEST PUSH2 0xA2F DUP1 PUSH2 0xFA PUSH1 0x0 CODECOPY PUSH1 0x0 RETURN INVALID PUSH1 0x80 PUSH1 0x40 MSTORE CALLVALUE DUP1 ISZERO PUSH2 0x10 JUMPI PUSH1 0x0 DUP1 REVERT JUMPDEST POP PUSH1 0x4 CALLDATASIZE LT PUSH2 0x88 JUMPI PUSH1 0x0 CALLDATALOAD PUSH1 0xE0 SHR DUP1 PUSH4 0x70A08231 GT PUSH2 0x5B JUMPI DUP1 PUSH4 0x70A08231 EQ PUSH2 0x117 JUMPI DUP1 PUSH4 0x95D89B41 EQ PUSH2 0x147 JUMPI DUP1 PUSH4 0xA9059CBB EQ PUSH2 0x165 JUMPI DUP1 PUSH4 0xDD62ED3E EQ PUSH2 0x195 JUMPI PUSH2 0x88 JUMP JUMPDEST DUP1 PUSH4 0x6FDDE03 EQ PUSH2 0x8D JUMPI DUP1 PUSH4 0x95EA7B3 EQ PUSH2 0xAB JUMPI DUP1 PUSH4 0x18160DDD EQ PUSH2 0xDB JUMPI DUP1 PUSH4 0x313CE567 EQ PUSH2 0xF9 JUMPI JUMPDEST PUSH1 0x0 DUP1 REVERT JUMPDEST PUSH2 0x95 PUSH2 0x1C5 JUMP JUMPDEST PUSH1 0x40 MLOAD PUSH2 0xA2 SWAP2 SWAP1 PUSH2 0x791 JUMP JUMPDEST PUSH1 0x40 MLOAD DUP1 SWAP2 SUB SWAP1 RETURN JUMPDEST PUSH2 0xC5 PUSH1 0x4 DUP1 CALLDATASIZE SUB DUP2 ADD SWAP1 PUSH2 0xC0 SWAP2 SWAP1 PUSH2 0x6AD JUMP JUMPDEST PUSH2 0x1FE JUMP JUMPDEST PUSH1 0x40 MLOAD PUSH2 0xD2 SWAP2 SWAP1 PUSH2 0x776 JUMP JUMPDEST PUSH1 0x40 MLOAD DUP1 SWAP2 SUB SWAP1 RETURN JUMPDEST PUSH2 0xE3 PUSH2 0x2F0 JUMP JUMPDEST PUSH1 0x40 MLOAD PUSH2 0xF0 SWAP2 SWAP1 PUSH2 0x7D3 JUMP JUMPDEST PUSH1 0x40 MLOAD DUP1 SWAP2 SUB SWAP1 RETURN JUMPDEST PUSH2 0x101 PUSH2 0x2F9 JUMP JUMPDEST PUSH1 0x40 MLOAD PUSH2 0x10E SWAP2 SWAP1 PUSH2 0x7EE JUMP JUMPDEST PUSH1 0x40 MLOAD DUP1 SWAP2 SUB SWAP1 RETURN JUMPDEST PUSH2 0x131 PUSH1 0x4 DUP1 CALLDATASIZE SUB DUP2 ADD SWAP1 PUSH2 0x12C SWAP2 SWAP1 PUSH2 0x640 JUMP JUMPDEST PUSH2 0x2FE JUMP JUMPDEST PUSH1 0x40 MLOAD PUSH2 0x13E SWAP2 SWAP1 PUSH2 0x7D3 JUMP JUMPDEST PUSH1 0x40 MLOAD DUP1 SWAP2 SUB SWAP1 RETURN JUMPDEST PUSH2 0x14F PUSH2 0x347 JUMP JUMPDEST PUSH1 0x40 MLOAD PUSH2 0x15C SWAP2 SWAP1 PUSH2 0x791 JUMP JUMPDEST PUSH1 0x40 MLOAD DUP1 SWAP2 SUB SWAP1 RETURN JUMPDEST PUSH2 0x17F PUSH1 0x4 DUP1 CALLDATASIZE SUB DUP2 ADD SWAP1 PUSH2 0x17A SWAP2 SWAP1 PUSH2 0x6AD JUMP JUMPDEST PUSH2 0x380 JUMP JUMPDEST PUSH1 0x40 MLOAD PUSH2 0x18C SWAP2 SWAP1 PUSH2 0x776 JUMP JUMPDEST PUSH1 0x40 MLOAD DUP1 SWAP2 SUB SWAP1 RETURN JUMPDEST PUSH2 0x1AF PUSH1 0x4 DUP1 CALLDATASIZE SUB DUP2 ADD SWAP1 PUSH2 0x1AA SWAP2 SWAP1 PUSH2 0x66D JUMP JUMPDEST PUSH2 0x58F JUMP JUMPDEST PUSH1 0x40 MLOAD PUSH2 0x1BC SWAP2 SWAP1 PUSH2 0x7D3 JUMP JUMPDEST PUSH1 0x40 MLOAD DUP1 SWAP2 SUB SWAP1 RETURN JUMPDEST PUSH1 0x40 MLOAD DUP1 PUSH1 0x40 ADD PUSH1 0x40 MSTORE DUP1 PUSH1 0xA DUP2 MSTORE PUSH1 0x20 ADD PUSH32 0x506C61747A69436F696E00000000000000000000000000000000000000000000 DUP2 MSTORE POP DUP2 JUMP JUMPDEST PUSH1 0x0 DUP2 PUSH1 0x2 PUSH1 0x0 CALLER PUSH20 0xFFFFFFFFFFFFFFFFFFFFFFFFFFFFFFFFFFFFFFFF AND PUSH20 0xFFFFFFFFFFFFFFFFFFFFFFFFFFFFFFFFFFFFFFFF AND DUP2 MSTORE PUSH1 0x20 ADD SWAP1 DUP2 MSTORE PUSH1 0x20 ADD PUSH1 0x0 KECCAK256 PUSH1 0x0 DUP6 PUSH20 0xFFFFFFFFFFFFFFFFFFFFFFFFFFFFFFFFFFFFFFFF AND PUSH20 0xFFFFFFFFFFFFFFFFFFFFFFFFFFFFFFFFFFFFFFFF AND DUP2 MSTORE PUSH1 0x20 ADD SWAP1 DUP2 MSTORE PUSH1 0x20 ADD PUSH1 0x0 KECCAK256 DUP2 SWAP1 SSTORE POP DUP3 PUSH20 0xFFFFFFFFFFFFFFFFFFFFFFFFFFFFFFFFFFFFFFFF AND CALLER PUSH20 0xFFFFFFFFFFFFFFFFFFFFFFFFFFFFFFFFFFFFFFFF AND PUSH32 0x8C5BE1E5EBEC7D5BD14F71427D1E84F3DD0314C0F7B2291E5B200AC8C7C3B925 DUP5 PUSH1 0x40 MLOAD PUSH2 0x2DE SWAP2 SWAP1 PUSH2 0x7D3 JUMP JUMPDEST PUSH1 0x40 MLOAD DUP1 SWAP2 SUB SWAP1 LOG3 PUSH1 0x1 SWAP1 POP SWAP3 SWAP2 POP POP JUMP JUMPDEST PUSH1 0x0 DUP1 SLOAD SWAP1 POP SWAP1 JUMP JUMPDEST PUSH1 0x12 DUP2 JUMP JUMPDEST PUSH1 0x0 PUSH1 0x1 PUSH1 0x0 DUP4 PUSH20 0xFFFFFFFFFFFFFFFFFFFFFFFFFFFFFFFFFFFFFFFF AND PUSH20 0xFFFFFFFFFFFFFFFFFFFFFFFFFFFFFFFFFFFFFFFF AND DUP2 MSTORE PUSH1 0x20 ADD SWAP1 DUP2 MSTORE PUSH1 0x20 ADD PUSH1 0x0 KECCAK256 SLOAD SWAP1 POP SWAP2 SWAP1 POP JUMP JUMPDEST PUSH1 0x40 MLOAD DUP1 PUSH1 0x40 ADD PUSH1 0x40 MSTORE DUP1 PUSH1 0x3 DUP2 MSTORE PUSH1 0x20 ADD PUSH32 0x505A430000000000000000000000000000000000000000000000000000000000 DUP2 MSTORE POP DUP2 JUMP JUMPDEST PUSH1 0x0 PUSH1 0x1 PUSH1 0x0 CALLER PUSH20 0xFFFFFFFFFFFFFFFFFFFFFFFFFFFFFFFFFFFFFFFF AND PUSH20 0xFFFFFFFFFFFFFFFFFFFFFFFFFFFFFFFFFFFFFFFF AND DUP2 MSTORE PUSH1 0x20 ADD SWAP1 DUP2 MSTORE PUSH1 0x20 ADD PUSH1 0x0 KECCAK256 SLOAD DUP3 GT ISZERO PUSH2 0x404 JUMPI PUSH1 0x40 MLOAD PUSH32 0x8C379A000000000000000000000000000000000000000000000000000000000 DUP2 MSTORE PUSH1 0x4 ADD PUSH2 0x3FB SWAP1 PUSH2 0x7B3 JUMP JUMPDEST PUSH1 0x40 MLOAD DUP1 SWAP2 SUB SWAP1 REVERT JUMPDEST DUP2 PUSH1 0x1 PUSH1 0x0 CALLER PUSH20 0xFFFFFFFFFFFFFFFFFFFFFFFFFFFFFFFFFFFFFFFF AND PUSH20 0xFFFFFFFFFFFFFFFFFFFFFFFFFFFFFFFFFFFFFFFF AND DUP2 MSTORE PUSH1 0x20 ADD SWAP1 DUP2 MSTORE PUSH1 0x20 ADD PUSH1 0x0 KECCAK256 SLOAD PUSH2 0x44F SWAP2 SWAP1 PUSH2 0x87B JUMP JUMPDEST PUSH1 0x1 PUSH1 0x0 CALLER PUSH20 0xFFFFFFFFFFFFFFFFFFFFFFFFFFFFFFFFFFFFFFFF AND PUSH20 0xFFFFFFFFFFFFFFFFFFFFFFFFFFFFFFFFFFFFFFFF AND DUP2 MSTORE PUSH1 0x20 ADD SWAP1 DUP2 MSTORE PUSH1 0x20 ADD PUSH1 0x0 KECCAK256 DUP2 SWAP1 SSTORE POP DUP2 PUSH1 0x1 PUSH1 0x0 DUP6 PUSH20 0xFFFFFFFFFFFFFFFFFFFFFFFFFFFFFFFFFFFFFFFF AND PUSH20 0xFFFFFFFFFFFFFFFFFFFFFFFFFFFFFFFFFFFFFFFF AND DUP2 MSTORE PUSH1 0x20 ADD SWAP1 DUP2 MSTORE PUSH1 0x20 ADD PUSH1 0x0 KECCAK256 SLOAD PUSH2 0x4DD SWAP2 SWAP1 PUSH2 0x825 JUMP JUMPDEST PUSH1 0x1 PUSH1 0x0 DUP6 PUSH20 0xFFFFFFFFFFFFFFFFFFFFFFFFFFFFFFFFFFFFFFFF AND PUSH20 0xFFFFFFFFFFFFFFFFFFFFFFFFFFFFFFFFFFFFFFFF AND DUP2 MSTORE PUSH1 0x20 ADD SWAP1 DUP2 MSTORE PUSH1 0x20 ADD PUSH1 0x0 KECCAK256 DUP2 SWAP1 SSTORE POP DUP3 PUSH20 0xFFFFFFFFFFFFFFFFFFFFFFFFFFFFFFFFFFFFFFFF AND CALLER PUSH20 0xFFFFFFFFFFFFFFFFFFFFFFFFFFFFFFFFFFFFFFFF AND PUSH32 0xDDF252AD1BE2C89B69C2B068FC378DAA952BA7F163C4A11628F55A4DF523B3EF DUP5 PUSH1 0x40 MLOAD PUSH2 0x57D SWAP2 SWAP1 PUSH2 0x7D3 JUMP JUMPDEST PUSH1 0x40 MLOAD DUP1 SWAP2 SUB SWAP1 LOG3 PUSH1 0x1 SWAP1 POP SWAP3 SWAP2 POP POP JUMP JUMPDEST PUSH1 0x0 PUSH1 0x2 PUSH1 0x0 DUP5 PUSH20 0xFFFFFFFFFFFFFFFFFFFFFFFFFFFFFFFFFFFFFFFF AND PUSH20 0xFFFFFFFFFFFFFFFFFFFFFFFFFFFFFFFFFFFFFFFF AND DUP2 MSTORE PUSH1 0x20 ADD SWAP1 DUP2 MSTORE PUSH1 0x20 ADD PUSH1 0x0 KECCAK256 PUSH1 0x0 DUP4 PUSH20 0xFFFFFFFFFFFFFFFFFFFFFFFFFFFFFFFFFFFFFFFF AND PUSH20 0xFFFFFFFFFFFFFFFFFFFFFFFFFFFFFFFFFFFFFFFF AND DUP2 MSTORE PUSH1 0x20 ADD SWAP1 DUP2 MSTORE PUSH1 0x20 ADD PUSH1 0x0 KECCAK256 SLOAD SWAP1 POP SWAP3 SWAP2 POP POP JUMP JUMPDEST PUSH1 0x0 DUP2 CALLDATALOAD SWAP1 POP PUSH2 0x625 DUP2 PUSH2 0x9CB JUMP JUMPDEST SWAP3 SWAP2 POP POP JUMP JUMPDEST PUSH1 0x0 DUP2 CALLDATALOAD SWAP1 POP PUSH2 0x63A DUP2 PUSH2 0x9E2 JUMP JUMPDEST SWAP3 SWAP2 POP POP JUMP JUMPDEST PUSH1 0x0 PUSH1 0x20 DUP3 DUP5 SUB SLT ISZERO PUSH2 0x656 JUMPI PUSH2 0x655 PUSH2 0x966 JUMP JUMPDEST JUMPDEST PUSH1 0x0 PUSH2 0x664 DUP5 DUP3 DUP6 ADD PUSH2 0x616 JUMP JUMPDEST SWAP2 POP POP SWAP3 SWAP2 POP POP JUMP JUMPDEST PUSH1 0x0 DUP1 PUSH1 0x40 DUP4 DUP6 SUB SLT ISZERO PUSH2 0x684 JUMPI PUSH2 0x683 PUSH2 0x966 JUMP JUMPDEST JUMPDEST PUSH1 0x0 PUSH2 0x692 DUP6 DUP3 DUP7 ADD PUSH2 0x616 JUMP JUMPDEST SWAP3 POP POP PUSH1 0x20 PUSH2 0x6A3 DUP6 DUP3 DUP7 ADD PUSH2 0x616 JUMP JUMPDEST SWAP2 POP POP SWAP3 POP SWAP3 SWAP1 POP JUMP JUMPDEST PUSH1 0x0 DUP1 PUSH1 0x40 DUP4 DUP6 SUB SLT ISZERO PUSH2 0x6C4 JUMPI PUSH2 0x6C3 PUSH2 0x966 JUMP JUMPDEST JUMPDEST PUSH1 0x0 PUSH2 0x6D2 DUP6 DUP3 DUP7 ADD PUSH2 0x616 JUMP JUMPDEST SWAP3 POP POP PUSH1 0x20 PUSH2 0x6E3 DUP6 DUP3 DUP7 ADD PUSH2 0x62B JUMP JUMPDEST SWAP2 POP POP SWAP3 POP SWAP3 SWAP1 POP JUMP JUMPDEST PUSH2 0x6F6 DUP2 PUSH2 0x8C1 JUMP JUMPDEST DUP3 MSTORE POP POP JUMP JUMPDEST PUSH1 0x0 PUSH2 0x707 DUP3 PUSH2 0x809 JUMP JUMPDEST PUSH2 0x711 DUP2 DUP6 PUSH2 0x814 JUMP JUMPDEST SWAP4 POP PUSH2 0x721 DUP2 DUP6 PUSH1 0x20 DUP7 ADD PUSH2 0x904 JUMP JUMPDEST PUSH2 0x72A DUP2 PUSH2 0x96B JUMP JUMPDEST DUP5 ADD SWAP2 POP POP SWAP3 SWAP2 POP POP JUMP JUMPDEST PUSH1 0x0 PUSH2 0x742 PUSH1 0x2C DUP4 PUSH2 0x814 JUMP JUMPDEST SWAP2 POP PUSH2 0x74D DUP3 PUSH2 0x97C JUMP JUMPDEST PUSH1 0x40 DUP3 ADD SWAP1 POP SWAP2 SWAP1 POP JUMP JUMPDEST PUSH2 0x761 DUP2 PUSH2 0x8ED JUMP JUMPDEST DUP3 MSTORE POP POP JUMP JUMPDEST PUSH2 0x770 DUP2 PUSH2 0x8F7 JUMP JUMPDEST DUP3 MSTORE POP POP JUMP JUMPDEST PUSH1 0x0 PUSH1 0x20 DUP3 ADD SWAP1 POP PUSH2 0x78B PUSH1 0x0 DUP4 ADD DUP5 PUSH2 0x6ED JUMP JUMPDEST SWAP3 SWAP2 POP POP JUMP JUMPDEST PUSH1 0x0 PUSH1 0x20 DUP3 ADD SWAP1 POP DUP2 DUP2 SUB PUSH1 0x0 DUP4 ADD MSTORE PUSH2 0x7AB DUP2 DUP5 PUSH2 0x6FC JUMP JUMPDEST SWAP1 POP SWAP3 SWAP2 POP POP JUMP JUMPDEST PUSH1 0x0 PUSH1 0x20 DUP3 ADD SWAP1 POP DUP2 DUP2 SUB PUSH1 0x0 DUP4 ADD MSTORE PUSH2 0x7CC DUP2 PUSH2 0x735 JUMP JUMPDEST SWAP1 POP SWAP2 SWAP1 POP JUMP JUMPDEST PUSH1 0x0 PUSH1 0x20 DUP3 ADD SWAP1 POP PUSH2 0x7E8 PUSH1 0x0 DUP4 ADD DUP5 PUSH2 0x758 JUMP JUMPDEST SWAP3 SWAP2 POP POP JUMP JUMPDEST PUSH1 0x0 PUSH1 0x20 DUP3 ADD SWAP1 POP PUSH2 0x803 PUSH1 0x0 DUP4 ADD DUP5 PUSH2 0x767 JUMP JUMPDEST SWAP3 SWAP2 POP POP JUMP JUMPDEST PUSH1 0x0 DUP2 MLOAD SWAP1 POP SWAP2 SWAP1 POP JUMP JUMPDEST PUSH1 0x0 DUP3 DUP3 MSTORE PUSH1 0x20 DUP3 ADD SWAP1 POP SWAP3 SWAP2 POP POP JUMP JUMPDEST PUSH1 0x0 PUSH2 0x830 DUP3 PUSH2 0x8ED JUMP JUMPDEST SWAP2 POP PUSH2 0x83B DUP4 PUSH2 0x8ED JUMP JUMPDEST SWAP3 POP DUP3 PUSH32 0xFFFFFFFFFFFFFFFFFFFFFFFFFFFFFFFFFFFFFFFFFFFFFFFFFFFFFFFFFFFFFFFF SUB DUP3 GT ISZERO PUSH2 0x870 JUMPI PUSH2 0x86F PUSH2 0x937 JUMP JUMPDEST JUMPDEST DUP3 DUP3 ADD SWAP1 POP SWAP3 SWAP2 POP POP JUMP JUMPDEST PUSH1 0x0 PUSH2 0x886 DUP3 PUSH2 0x8ED JUMP JUMPDEST SWAP2 POP PUSH2 0x891 DUP4 PUSH2 0x8ED JUMP JUMPDEST SWAP3 POP DUP3 DUP3 LT ISZERO PUSH2 0x8A4 JUMPI PUSH2 0x8A3 PUSH2 0x937 JUMP JUMPDEST JUMPDEST DUP3 DUP3 SUB SWAP1 POP SWAP3 SWAP2 POP POP JUMP JUMPDEST PUSH1 0x0 PUSH2 0x8BA DUP3 PUSH2 0x8CD JUMP JUMPDEST SWAP1 POP SWAP2 SWAP1 POP JUMP JUMPDEST PUSH1 0x0 DUP2 ISZERO ISZERO SWAP1 POP SWAP2 SWAP1 POP JUMP JUMPDEST PUSH1 0x0 PUSH20 0xFFFFFFFFFFFFFFFFFFFFFFFFFFFFFFFFFFFFFFFF DUP3 AND SWAP1 POP SWAP2 SWAP1 POP JUMP JUMPDEST PUSH1 0x0 DUP2 SWAP1 POP SWAP2 SWAP1 POP JUMP JUMPDEST PUSH1 0x0 PUSH1 0xFF DUP3 AND SWAP1 POP SWAP2 SWAP1 POP JUMP JUMPDEST PUSH1 0x0 JUMPDEST DUP4 DUP2 LT ISZERO PUSH2 0x922 JUMPI DUP1 DUP3 ADD MLOAD DUP2 DUP5 ADD MSTORE PUSH1 0x20 DUP2 ADD SWAP1 POP PUSH2 0x907 JUMP JUMPDEST DUP4 DUP2 GT ISZERO PUSH2 0x931 JUMPI PUSH1 0x0 DUP5 DUP5 ADD MSTORE JUMPDEST POP POP POP POP JUMP JUMPDEST PUSH32 0x4E487B7100000000000000000000000000000000000000000000000000000000 PUSH1 0x0 MSTORE PUSH1 0x11 PUSH1 0x4 MSTORE PUSH1 0x24 PUSH1 0x0 REVERT JUMPDEST PUSH1 0x0 DUP1 REVERT JUMPDEST PUSH1 0x0 PUSH1 0x1F NOT PUSH1 0x1F DUP4 ADD AND SWAP1 POP SWAP2 SWAP1 POP JUMP JUMPDEST PUSH32 0x546865726520617265206E6F7420656E6F7567682066756E6420746F20646F20 PUSH1 0x0 DUP3 ADD MSTORE PUSH32 0x746865207472616E736665720000000000000000000000000000000000000000 PUSH1 0x20 DUP3 ADD MSTORE POP JUMP JUMPDEST PUSH2 0x9D4 DUP2 PUSH2 0x8AF JUMP JUMPDEST DUP2 EQ PUSH2 0x9DF JUMPI PUSH1 0x0 DUP1 REVERT JUMPDEST POP JUMP JUMPDEST PUSH2 0x9EB DUP2 PUSH2 0x8ED JUMP JUMPDEST DUP2 EQ PUSH2 0x9F6 JUMPI PUSH1 0x0 DUP1 REVERT JUMPDEST POP JUMP INVALID LOG2 PUSH5 0x6970667358 0x22 SLT KECCAK256 0xCB SSTORE 0xDB DUP2 MULMOD KECCAK256 SWAP1 0xAE 0xF 0xAA 0xE7 PUSH2 0x4780 0x5F PUSH16 0xA043422DC78F123E4BF3863EBAB74269 PUSH5 0x736F6C6343 STOP ADDMOD SMOD STOP CALLER "
				},
				"gasEstimates": {
					"creation": {
						"codeDepositCost": "521400",
						"executionCost": "infinite",
						"totalCost": "infinite"
					},
					"external": {
						"allowance(address,address)": "infinite",
						"approve(address,uint256)": "infinite",
						"balanceOf(address)": "2841",
						"decimals()": "402",
						"name()": "infinite",
						"symbol()": "infinite",
						"totalSupply()": "2482",
						"transfer(address,uint256)": "infinite"
					}
				},
				"methodIdentifiers": {
					"allowance(address,address)": "dd62ed3e",
					"approve(address,uint256)": "095ea7b3",
					"balanceOf(address)": "70a08231",
					"decimals()": "313ce567",
					"name()": "06fdde03",
					"symbol()": "95d89b41",
					"totalSupply()": "18160ddd",
					"transfer(address,uint256)": "a9059cbb"
				}
			},
			"storageLayout": {
				"storage": [
					{
						"astId": 12,
						"contract": "contracts/Financial Services/Balance.sol:TokenBasic",
						"label": "_totalSupply",
						"offset": 0,
						"slot": "0",
						"type": "t_uint256"
					},
					{
						"astId": 16,
						"contract": "contracts/Financial Services/Balance.sol:TokenBasic",
						"label": "balances",
						"offset": 0,
						"slot": "1",
						"type": "t_mapping(t_address,t_uint256)"
					},
					{
						"astId": 22,
						"contract": "contracts/Financial Services/Balance.sol:TokenBasic",
						"label": "allowed",
						"offset": 0,
						"slot": "2",
						"type": "t_mapping(t_address,t_mapping(t_address,t_uint256))"
					}
				],
				"types": {
					"t_address": {
						"encoding": "inplace",
						"label": "address",
						"numberOfBytes": "20"
					},
					"t_mapping(t_address,t_mapping(t_address,t_uint256))": {
						"encoding": "mapping",
						"key": "t_address",
						"label": "mapping(address => mapping(address => uint256))",
						"numberOfBytes": "32",
						"value": "t_mapping(t_address,t_uint256)"
					},
					"t_mapping(t_address,t_uint256)": {
						"encoding": "mapping",
						"key": "t_address",
						"label": "mapping(address => uint256)",
						"numberOfBytes": "32",
						"value": "t_uint256"
					},
					"t_uint256": {
						"encoding": "inplace",
						"label": "uint256",
						"numberOfBytes": "32"
					}
				}
			},
			"userdoc": {
				"kind": "user",
				"methods": {},
				"version": 1
			}
		}
	}
}