{
	"contracts/Financial Services/Balance.sol": {
		"TokenBasic": {
			"abi": [
				{
					"inputs": [
						{
							"internalType": "uint256",
							"name": "total",
							"type": "uint256"
						}
					],
					"stateMutability": "nonpayable",
					"type": "constructor"
				},
				{
					"anonymous": false,
					"inputs": [
						{
							"indexed": true,
							"internalType": "address",
							"name": "_owner",
							"type": "address"
						},
						{
							"indexed": true,
							"internalType": "address",
							"name": "_spender",
							"type": "address"
						},
						{
							"indexed": false,
							"internalType": "uint256",
							"name": "_value",
							"type": "uint256"
						}
					],
					"name": "Approval",
					"type": "event"
				},
				{
					"anonymous": false,
					"inputs": [
						{
							"indexed": true,
							"internalType": "address",
							"name": "_from",
							"type": "address"
						},
						{
							"indexed": true,
							"internalType": "address",
							"name": "_to",
							"type": "address"
						},
						{
							"indexed": false,
							"internalType": "uint256",
							"name": "_value",
							"type": "uint256"
						}
					],
					"name": "Transfer",
					"type": "event"
				},
				{
					"inputs": [
						{
							"internalType": "address",
							"name": "_spender",
							"type": "address"
						},
						{
							"internalType": "uint256",
							"name": "_value",
							"type": "uint256"
						}
					],
					"name": "approve",
					"outputs": [
						{
							"internalType": "bool",
							"name": "success",
							"type": "bool"
						}
					],
					"stateMutability": "nonpayable",
					"type": "function"
				},
				{
					"inputs": [
						{
							"internalType": "address",
							"name": "_owner",
							"type": "address"
						}
					],
					"name": "balanceOf",
					"outputs": [
						{
							"internalType": "uint256",
							"name": "",
							"type": "uint256"
						}
					],
					"stateMutability": "view",
					"type": "function"
				},
				{
					"inputs": [],
					"name": "decimals",
					"outputs": [
						{
							"internalType": "uint8",
							"name": "",
							"type": "uint8"
						}
					],
					"stateMutability": "view",
					"type": "function"
				},
				{
					"inputs": [],
					"name": "name",
					"outputs": [
						{
							"internalType": "string",
							"name": "",
							"type": "string"
						}
					],
					"stateMutability": "view",
					"type": "function"
				},
				{
					"inputs": [],
					"name": "symbol",
					"outputs": [
						{
							"internalType": "string",
							"name": "",
							"type": "string"
						}
					],
					"stateMutability": "view",
					"type": "function"
				},
				{
					"inputs": [],
					"name": "totalSupply",
					"outputs": [
						{
							"internalType": "uint256",
							"name": "",
							"type": "uint256"
						}
					],
					"stateMutability": "view",
					"type": "function"
				},
				{
					"inputs": [
						{
							"internalType": "address",
							"name": "_to",
							"type": "address"
						},
						{
							"internalType": "uint256",
							"name": "_value",
							"type": "uint256"
						}
					],
					"name": "transfer",
					"outputs": [
						{
							"internalType": "bool",
							"name": "success",
							"type": "bool"
						}
					],
					"stateMutability": "nonpayable",
					"type": "function"
				}
			],
			"devdoc": {
				"kind": "dev",
				"methods": {},
				"version": 1
			},
			"evm": {
				"assembly": "    /* \"contracts/Financial Services/Balance.sol\":76:2137  contract TokenBasic {\r... */\n  mstore(0x40, 0x80)\n    /* \"contracts/Financial Services/Balance.sol\":945:1050  constructor (uint256 total){\r... */\n  callvalue\n  dup1\n  iszero\n  tag_1\n  jumpi\n  0x00\n  dup1\n  revert\ntag_1:\n  pop\n  mload(0x40)\n  sub(codesize, bytecodeSize)\n  dup1\n  bytecodeSize\n  dup4\n  codecopy\n  dup2\n  dup2\n  add\n  0x40\n  mstore\n  dup2\n  add\n  swap1\n  tag_2\n  swap2\n  swap1\n  tag_3\n  jump\t// in\ntag_2:\n    /* \"contracts/Financial Services/Balance.sol\":998:1003  total */\n  dup1\n    /* \"contracts/Financial Services/Balance.sol\":983:995  _totalSupply */\n  0x00\n    /* \"contracts/Financial Services/Balance.sol\":983:1003  _totalSupply = total */\n  dup2\n  swap1\n  sstore\n  pop\n    /* \"contracts/Financial Services/Balance.sol\":1037:1042  total */\n  dup1\n    /* \"contracts/Financial Services/Balance.sol\":1014:1022  balances */\n  0x01\n    /* \"contracts/Financial Services/Balance.sol\":1014:1034  balances[msg.sender] */\n  0x00\n    /* \"contracts/Financial Services/Balance.sol\":1023:1033  msg.sender */\n  caller\n    /* \"contracts/Financial Services/Balance.sol\":1014:1034  balances[msg.sender] */\n  0xffffffffffffffffffffffffffffffffffffffff\n  and\n  0xffffffffffffffffffffffffffffffffffffffff\n  and\n  dup2\n  mstore\n  0x20\n  add\n  swap1\n  dup2\n  mstore\n  0x20\n  add\n  0x00\n  keccak256\n    /* \"contracts/Financial Services/Balance.sol\":1014:1042  balances[msg.sender] = total */\n  dup2\n  swap1\n  sstore\n  pop\n    /* \"contracts/Financial Services/Balance.sol\":945:1050  constructor (uint256 total){\r... */\n  pop\n    /* \"contracts/Financial Services/Balance.sol\":76:2137  contract TokenBasic {\r... */\n  jump(tag_6)\n    /* \"#utility.yul\":7:150   */\ntag_8:\n    /* \"#utility.yul\":64:69   */\n  0x00\n    /* \"#utility.yul\":95:101   */\n  dup2\n    /* \"#utility.yul\":89:102   */\n  mload\n    /* \"#utility.yul\":80:102   */\n  swap1\n  pop\n    /* \"#utility.yul\":111:144   */\n  tag_10\n    /* \"#utility.yul\":138:143   */\n  dup2\n    /* \"#utility.yul\":111:144   */\n  tag_11\n  jump\t// in\ntag_10:\n    /* \"#utility.yul\":7:150   */\n  swap3\n  swap2\n  pop\n  pop\n  jump\t// out\n    /* \"#utility.yul\":156:507   */\ntag_3:\n    /* \"#utility.yul\":226:232   */\n  0x00\n    /* \"#utility.yul\":275:277   */\n  0x20\n    /* \"#utility.yul\":263:272   */\n  dup3\n    /* \"#utility.yul\":254:261   */\n  dup5\n    /* \"#utility.yul\":250:273   */\n  sub\n    /* \"#utility.yul\":246:278   */\n  slt\n    /* \"#utility.yul\":243:362   */\n  iszero\n  tag_13\n  jumpi\n    /* \"#utility.yul\":281:360   */\n  tag_14\n  tag_15\n  jump\t// in\ntag_14:\n    /* \"#utility.yul\":243:362   */\ntag_13:\n    /* \"#utility.yul\":401:402   */\n  0x00\n    /* \"#utility.yul\":426:490   */\n  tag_16\n    /* \"#utility.yul\":482:489   */\n  dup5\n    /* \"#utility.yul\":473:479   */\n  dup3\n    /* \"#utility.yul\":462:471   */\n  dup6\n    /* \"#utility.yul\":458:480   */\n  add\n    /* \"#utility.yul\":426:490   */\n  tag_8\n  jump\t// in\ntag_16:\n    /* \"#utility.yul\":416:490   */\n  swap2\n  pop\n    /* \"#utility.yul\":372:500   */\n  pop\n    /* \"#utility.yul\":156:507   */\n  swap3\n  swap2\n  pop\n  pop\n  jump\t// out\n    /* \"#utility.yul\":594:671   */\ntag_19:\n    /* \"#utility.yul\":631:638   */\n  0x00\n    /* \"#utility.yul\":660:665   */\n  dup2\n    /* \"#utility.yul\":649:665   */\n  swap1\n  pop\n    /* \"#utility.yul\":594:671   */\n  swap2\n  swap1\n  pop\n  jump\t// out\n    /* \"#utility.yul\":800:917   */\ntag_15:\n    /* \"#utility.yul\":909:910   */\n  0x00\n    /* \"#utility.yul\":906:907   */\n  dup1\n    /* \"#utility.yul\":899:911   */\n  revert\n    /* \"#utility.yul\":923:1045   */\ntag_11:\n    /* \"#utility.yul\":996:1020   */\n  tag_25\n    /* \"#utility.yul\":1014:1019   */\n  dup2\n    /* \"#utility.yul\":996:1020   */\n  tag_19\n  jump\t// in\ntag_25:\n    /* \"#utility.yul\":989:994   */\n  dup2\n    /* \"#utility.yul\":986:1021   */\n  eq\n    /* \"#utility.yul\":976:1039   */\n  tag_26\n  jumpi\n    /* \"#utility.yul\":1035:1036   */\n  0x00\n    /* \"#utility.yul\":1032:1033   */\n  dup1\n    /* \"#utility.yul\":1025:1037   */\n  revert\n    /* \"#utility.yul\":976:1039   */\ntag_26:\n    /* \"#utility.yul\":923:1045   */\n  pop\n  jump\t// out\n    /* \"contracts/Financial Services/Balance.sol\":76:2137  contract TokenBasic {\r... */\ntag_6:\n  dataSize(sub_0)\n  dup1\n  dataOffset(sub_0)\n  0x00\n  codecopy\n  0x00\n  return\nstop\n\nsub_0: assembly {\n        /* \"contracts/Financial Services/Balance.sol\":76:2137  contract TokenBasic {\r... */\n      mstore(0x40, 0x80)\n      callvalue\n      dup1\n      iszero\n      tag_1\n      jumpi\n      0x00\n      dup1\n      revert\n    tag_1:\n      pop\n      jumpi(tag_2, lt(calldatasize, 0x04))\n      shr(0xe0, calldataload(0x00))\n      dup1\n      0x313ce567\n      gt\n      tag_10\n      jumpi\n      dup1\n      0x313ce567\n      eq\n      tag_6\n      jumpi\n      dup1\n      0x70a08231\n      eq\n      tag_7\n      jumpi\n      dup1\n      0x95d89b41\n      eq\n      tag_8\n      jumpi\n      dup1\n      0xa9059cbb\n      eq\n      tag_9\n      jumpi\n      jump(tag_2)\n    tag_10:\n      dup1\n      0x06fdde03\n      eq\n      tag_3\n      jumpi\n      dup1\n      0x095ea7b3\n      eq\n      tag_4\n      jumpi\n      dup1\n      0x18160ddd\n      eq\n      tag_5\n      jumpi\n    tag_2:\n      0x00\n      dup1\n      revert\n        /* \"contracts/Financial Services/Balance.sol\":105:147  string public constant name = \"PlatziCoin\" */\n    tag_3:\n      tag_11\n      tag_12\n      jump\t// in\n    tag_11:\n      mload(0x40)\n      tag_13\n      swap2\n      swap1\n      tag_14\n      jump\t// in\n    tag_13:\n      mload(0x40)\n      dup1\n      swap2\n      sub\n      swap1\n      return\n        /* \"contracts/Financial Services/Balance.sol\":1902:2119  function approve(address _spender, uint256 _value) public returns (bool success) {\r... */\n    tag_4:\n      tag_15\n      0x04\n      dup1\n      calldatasize\n      sub\n      dup2\n      add\n      swap1\n      tag_16\n      swap2\n      swap1\n      tag_17\n      jump\t// in\n    tag_16:\n      tag_18\n      jump\t// in\n    tag_15:\n      mload(0x40)\n      tag_19\n      swap2\n      swap1\n      tag_20\n      jump\t// in\n    tag_19:\n      mload(0x40)\n      dup1\n      swap2\n      sub\n      swap1\n      return\n        /* \"contracts/Financial Services/Balance.sol\":1058:1198  function totalSupply() public view returns (uint256) { //Devolver la cantidad total de supply del token\r... */\n    tag_5:\n      tag_21\n      tag_22\n      jump\t// in\n    tag_21:\n      mload(0x40)\n      tag_23\n      swap2\n      swap1\n      tag_24\n      jump\t// in\n    tag_23:\n      mload(0x40)\n      dup1\n      swap2\n      sub\n      swap1\n      return\n        /* \"contracts/Financial Services/Balance.sol\":238:273  uint8 public constant decimals = 18 */\n    tag_6:\n      tag_25\n      tag_26\n      jump\t// in\n    tag_25:\n      mload(0x40)\n      tag_27\n      swap2\n      swap1\n      tag_28\n      jump\t// in\n    tag_27:\n      mload(0x40)\n      dup1\n      swap2\n      sub\n      swap1\n      return\n        /* \"contracts/Financial Services/Balance.sol\":1206:1352  function balanceOf(address _owner) public view returns (uint) { //Devolver el balance de la cuenta actual\r... */\n    tag_7:\n      tag_29\n      0x04\n      dup1\n      calldatasize\n      sub\n      dup2\n      add\n      swap1\n      tag_30\n      swap2\n      swap1\n      tag_31\n      jump\t// in\n    tag_30:\n      tag_32\n      jump\t// in\n    tag_29:\n      mload(0x40)\n      tag_33\n      swap2\n      swap1\n      tag_24\n      jump\t// in\n    tag_33:\n      mload(0x40)\n      dup1\n      swap2\n      sub\n      swap1\n      return\n        /* \"contracts/Financial Services/Balance.sol\":173:210  string public constant symbol = \"PZC\" */\n    tag_8:\n      tag_34\n      tag_35\n      jump\t// in\n    tag_34:\n      mload(0x40)\n      tag_36\n      swap2\n      swap1\n      tag_14\n      jump\t// in\n    tag_36:\n      mload(0x40)\n      dup1\n      swap2\n      sub\n      swap1\n      return\n        /* \"contracts/Financial Services/Balance.sol\":1360:1894  function transfer(address _to, uint256 _value) public returns (bool success) {\r... */\n    tag_9:\n      tag_37\n      0x04\n      dup1\n      calldatasize\n      sub\n      dup2\n      add\n      swap1\n      tag_38\n      swap2\n      swap1\n      tag_17\n      jump\t// in\n    tag_38:\n      tag_39\n      jump\t// in\n    tag_37:\n      mload(0x40)\n      tag_40\n      swap2\n      swap1\n      tag_20\n      jump\t// in\n    tag_40:\n      mload(0x40)\n      dup1\n      swap2\n      sub\n      swap1\n      return\n        /* \"contracts/Financial Services/Balance.sol\":105:147  string public constant name = \"PlatziCoin\" */\n    tag_12:\n      mload(0x40)\n      dup1\n      0x40\n      add\n      0x40\n      mstore\n      dup1\n      0x0a\n      dup2\n      mstore\n      0x20\n      add\n      0x506c61747a69436f696e00000000000000000000000000000000000000000000\n      dup2\n      mstore\n      pop\n      dup2\n      jump\t// out\n        /* \"contracts/Financial Services/Balance.sol\":1902:2119  function approve(address _spender, uint256 _value) public returns (bool success) {\r... */\n    tag_18:\n        /* \"contracts/Financial Services/Balance.sol\":1969:1981  bool success */\n      0x00\n        /* \"contracts/Financial Services/Balance.sol\":2026:2032  _value */\n      dup2\n        /* \"contracts/Financial Services/Balance.sol\":1994:2001  allowed */\n      0x02\n        /* \"contracts/Financial Services/Balance.sol\":1994:2013  allowed[msg.sender] */\n      0x00\n        /* \"contracts/Financial Services/Balance.sol\":2002:2012  msg.sender */\n      caller\n        /* \"contracts/Financial Services/Balance.sol\":1994:2013  allowed[msg.sender] */\n      0xffffffffffffffffffffffffffffffffffffffff\n      and\n      0xffffffffffffffffffffffffffffffffffffffff\n      and\n      dup2\n      mstore\n      0x20\n      add\n      swap1\n      dup2\n      mstore\n      0x20\n      add\n      0x00\n      keccak256\n        /* \"contracts/Financial Services/Balance.sol\":1994:2023  allowed[msg.sender][_spender] */\n      0x00\n        /* \"contracts/Financial Services/Balance.sol\":2014:2022  _spender */\n      dup6\n        /* \"contracts/Financial Services/Balance.sol\":1994:2023  allowed[msg.sender][_spender] */\n      0xffffffffffffffffffffffffffffffffffffffff\n      and\n      0xffffffffffffffffffffffffffffffffffffffff\n      and\n      dup2\n      mstore\n      0x20\n      add\n      swap1\n      dup2\n      mstore\n      0x20\n      add\n      0x00\n      keccak256\n        /* \"contracts/Financial Services/Balance.sol\":1994:2032  allowed[msg.sender][_spender] = _value */\n      dup2\n      swap1\n      sstore\n      pop\n        /* \"contracts/Financial Services/Balance.sol\":2069:2077  _spender */\n      dup3\n        /* \"contracts/Financial Services/Balance.sol\":2048:2086  Approval(msg.sender, _spender, _value) */\n      0xffffffffffffffffffffffffffffffffffffffff\n      and\n        /* \"contracts/Financial Services/Balance.sol\":2057:2067  msg.sender */\n      caller\n        /* \"contracts/Financial Services/Balance.sol\":2048:2086  Approval(msg.sender, _spender, _value) */\n      0xffffffffffffffffffffffffffffffffffffffff\n      and\n      0x8c5be1e5ebec7d5bd14f71427d1e84f3dd0314c0f7b2291e5b200ac8c7c3b925\n        /* \"contracts/Financial Services/Balance.sol\":2079:2085  _value */\n      dup5\n        /* \"contracts/Financial Services/Balance.sol\":2048:2086  Approval(msg.sender, _spender, _value) */\n      mload(0x40)\n      tag_42\n      swap2\n      swap1\n      tag_24\n      jump\t// in\n    tag_42:\n      mload(0x40)\n      dup1\n      swap2\n      sub\n      swap1\n      log3\n        /* \"contracts/Financial Services/Balance.sol\":2107:2111  true */\n      0x01\n        /* \"contracts/Financial Services/Balance.sol\":2097:2111  success = true */\n      swap1\n      pop\n        /* \"contracts/Financial Services/Balance.sol\":1902:2119  function approve(address _spender, uint256 _value) public returns (bool success) {\r... */\n      swap3\n      swap2\n      pop\n      pop\n      jump\t// out\n        /* \"contracts/Financial Services/Balance.sol\":1058:1198  function totalSupply() public view returns (uint256) { //Devolver la cantidad total de supply del token\r... */\n    tag_22:\n        /* \"contracts/Financial Services/Balance.sol\":1102:1109  uint256 */\n      0x00\n        /* \"contracts/Financial Services/Balance.sol\":1178:1190  _totalSupply */\n      dup1\n      sload\n        /* \"contracts/Financial Services/Balance.sol\":1171:1190  return _totalSupply */\n      swap1\n      pop\n        /* \"contracts/Financial Services/Balance.sol\":1058:1198  function totalSupply() public view returns (uint256) { //Devolver la cantidad total de supply del token\r... */\n      swap1\n      jump\t// out\n        /* \"contracts/Financial Services/Balance.sol\":238:273  uint8 public constant decimals = 18 */\n    tag_26:\n        /* \"contracts/Financial Services/Balance.sol\":271:273  18 */\n      0x12\n        /* \"contracts/Financial Services/Balance.sol\":238:273  uint8 public constant decimals = 18 */\n      dup2\n      jump\t// out\n        /* \"contracts/Financial Services/Balance.sol\":1206:1352  function balanceOf(address _owner) public view returns (uint) { //Devolver el balance de la cuenta actual\r... */\n    tag_32:\n        /* \"contracts/Financial Services/Balance.sol\":1262:1266  uint */\n      0x00\n        /* \"contracts/Financial Services/Balance.sol\":1328:1336  balances */\n      0x01\n        /* \"contracts/Financial Services/Balance.sol\":1328:1344  balances[_owner] */\n      0x00\n        /* \"contracts/Financial Services/Balance.sol\":1337:1343  _owner */\n      dup4\n        /* \"contracts/Financial Services/Balance.sol\":1328:1344  balances[_owner] */\n      0xffffffffffffffffffffffffffffffffffffffff\n      and\n      0xffffffffffffffffffffffffffffffffffffffff\n      and\n      dup2\n      mstore\n      0x20\n      add\n      swap1\n      dup2\n      mstore\n      0x20\n      add\n      0x00\n      keccak256\n      sload\n        /* \"contracts/Financial Services/Balance.sol\":1321:1344  return balances[_owner] */\n      swap1\n      pop\n        /* \"contracts/Financial Services/Balance.sol\":1206:1352  function balanceOf(address _owner) public view returns (uint) { //Devolver el balance de la cuenta actual\r... */\n      swap2\n      swap1\n      pop\n      jump\t// out\n        /* \"contracts/Financial Services/Balance.sol\":173:210  string public constant symbol = \"PZC\" */\n    tag_35:\n      mload(0x40)\n      dup1\n      0x40\n      add\n      0x40\n      mstore\n      dup1\n      0x03\n      dup2\n      mstore\n      0x20\n      add\n      0x505a430000000000000000000000000000000000000000000000000000000000\n      dup2\n      mstore\n      pop\n      dup2\n      jump\t// out\n        /* \"contracts/Financial Services/Balance.sol\":1360:1894  function transfer(address _to, uint256 _value) public returns (bool success) {\r... */\n    tag_39:\n        /* \"contracts/Financial Services/Balance.sol\":1423:1435  bool success */\n      0x00\n        /* \"contracts/Financial Services/Balance.sol\":1466:1474  balances */\n      0x01\n        /* \"contracts/Financial Services/Balance.sol\":1466:1486  balances[msg.sender] */\n      0x00\n        /* \"contracts/Financial Services/Balance.sol\":1475:1485  msg.sender */\n      caller\n        /* \"contracts/Financial Services/Balance.sol\":1466:1486  balances[msg.sender] */\n      0xffffffffffffffffffffffffffffffffffffffff\n      and\n      0xffffffffffffffffffffffffffffffffffffffff\n      and\n      dup2\n      mstore\n      0x20\n      add\n      swap1\n      dup2\n      mstore\n      0x20\n      add\n      0x00\n      keccak256\n      sload\n        /* \"contracts/Financial Services/Balance.sol\":1456:1462  _value */\n      dup3\n        /* \"contracts/Financial Services/Balance.sol\":1456:1486  _value <= balances[msg.sender] */\n      gt\n      iszero\n        /* \"contracts/Financial Services/Balance.sol\":1448:1535  require(_value <= balances[msg.sender], \"There are not enough fund to do the transfer\") */\n      tag_46\n      jumpi\n      mload(0x40)\n      0x08c379a000000000000000000000000000000000000000000000000000000000\n      dup2\n      mstore\n      0x04\n      add\n      tag_47\n      swap1\n      tag_48\n      jump\t// in\n    tag_47:\n      mload(0x40)\n      dup1\n      swap2\n      sub\n      swap1\n      revert\n    tag_46:\n        /* \"contracts/Financial Services/Balance.sol\":1634:1640  _value */\n      dup2\n        /* \"contracts/Financial Services/Balance.sol\":1611:1619  balances */\n      0x01\n        /* \"contracts/Financial Services/Balance.sol\":1611:1631  balances[msg.sender] */\n      0x00\n        /* \"contracts/Financial Services/Balance.sol\":1620:1630  msg.sender */\n      caller\n        /* \"contracts/Financial Services/Balance.sol\":1611:1631  balances[msg.sender] */\n      0xffffffffffffffffffffffffffffffffffffffff\n      and\n      0xffffffffffffffffffffffffffffffffffffffff\n      and\n      dup2\n      mstore\n      0x20\n      add\n      swap1\n      dup2\n      mstore\n      0x20\n      add\n      0x00\n      keccak256\n      sload\n        /* \"contracts/Financial Services/Balance.sol\":1611:1640  balances[msg.sender] - _value */\n      tag_49\n      swap2\n      swap1\n      tag_50\n      jump\t// in\n    tag_49:\n        /* \"contracts/Financial Services/Balance.sol\":1588:1596  balances */\n      0x01\n        /* \"contracts/Financial Services/Balance.sol\":1588:1608  balances[msg.sender] */\n      0x00\n        /* \"contracts/Financial Services/Balance.sol\":1597:1607  msg.sender */\n      caller\n        /* \"contracts/Financial Services/Balance.sol\":1588:1608  balances[msg.sender] */\n      0xffffffffffffffffffffffffffffffffffffffff\n      and\n      0xffffffffffffffffffffffffffffffffffffffff\n      and\n      dup2\n      mstore\n      0x20\n      add\n      swap1\n      dup2\n      mstore\n      0x20\n      add\n      0x00\n      keccak256\n        /* \"contracts/Financial Services/Balance.sol\":1588:1640  balances[msg.sender] = balances[msg.sender] - _value */\n      dup2\n      swap1\n      sstore\n      pop\n        /* \"contracts/Financial Services/Balance.sol\":1730:1736  _value */\n      dup2\n        /* \"contracts/Financial Services/Balance.sol\":1714:1722  balances */\n      0x01\n        /* \"contracts/Financial Services/Balance.sol\":1714:1727  balances[_to] */\n      0x00\n        /* \"contracts/Financial Services/Balance.sol\":1723:1726  _to */\n      dup6\n        /* \"contracts/Financial Services/Balance.sol\":1714:1727  balances[_to] */\n      0xffffffffffffffffffffffffffffffffffffffff\n      and\n      0xffffffffffffffffffffffffffffffffffffffff\n      and\n      dup2\n      mstore\n      0x20\n      add\n      swap1\n      dup2\n      mstore\n      0x20\n      add\n      0x00\n      keccak256\n      sload\n        /* \"contracts/Financial Services/Balance.sol\":1714:1736  balances[_to] + _value */\n      tag_51\n      swap2\n      swap1\n      tag_52\n      jump\t// in\n    tag_51:\n        /* \"contracts/Financial Services/Balance.sol\":1698:1706  balances */\n      0x01\n        /* \"contracts/Financial Services/Balance.sol\":1698:1711  balances[_to] */\n      0x00\n        /* \"contracts/Financial Services/Balance.sol\":1707:1710  _to */\n      dup6\n        /* \"contracts/Financial Services/Balance.sol\":1698:1711  balances[_to] */\n      0xffffffffffffffffffffffffffffffffffffffff\n      and\n      0xffffffffffffffffffffffffffffffffffffffff\n      and\n      dup2\n      mstore\n      0x20\n      add\n      swap1\n      dup2\n      mstore\n      0x20\n      add\n      0x00\n      keccak256\n        /* \"contracts/Financial Services/Balance.sol\":1698:1736  balances[_to] = balances[_to] + _value */\n      dup2\n      swap1\n      sstore\n      pop\n        /* \"contracts/Financial Services/Balance.sol\":1821:1824  _to */\n      dup3\n        /* \"contracts/Financial Services/Balance.sol\":1800:1833  Transfer(msg.sender, _to, _value) */\n      0xffffffffffffffffffffffffffffffffffffffff\n      and\n        /* \"contracts/Financial Services/Balance.sol\":1809:1819  msg.sender */\n      caller\n        /* \"contracts/Financial Services/Balance.sol\":1800:1833  Transfer(msg.sender, _to, _value) */\n      0xffffffffffffffffffffffffffffffffffffffff\n      and\n      0xddf252ad1be2c89b69c2b068fc378daa952ba7f163c4a11628f55a4df523b3ef\n        /* \"contracts/Financial Services/Balance.sol\":1826:1832  _value */\n      dup5\n        /* \"contracts/Financial Services/Balance.sol\":1800:1833  Transfer(msg.sender, _to, _value) */\n      mload(0x40)\n      tag_53\n      swap2\n      swap1\n      tag_24\n      jump\t// in\n    tag_53:\n      mload(0x40)\n      dup1\n      swap2\n      sub\n      swap1\n      log3\n        /* \"contracts/Financial Services/Balance.sol\":1882:1886  true */\n      0x01\n        /* \"contracts/Financial Services/Balance.sol\":1872:1886  success = true */\n      swap1\n      pop\n        /* \"contracts/Financial Services/Balance.sol\":1360:1894  function transfer(address _to, uint256 _value) public returns (bool success) {\r... */\n      swap3\n      swap2\n      pop\n      pop\n      jump\t// out\n        /* \"#utility.yul\":7:146   */\n    tag_55:\n        /* \"#utility.yul\":53:58   */\n      0x00\n        /* \"#utility.yul\":91:97   */\n      dup2\n        /* \"#utility.yul\":78:98   */\n      calldataload\n        /* \"#utility.yul\":69:98   */\n      swap1\n      pop\n        /* \"#utility.yul\":107:140   */\n      tag_57\n        /* \"#utility.yul\":134:139   */\n      dup2\n        /* \"#utility.yul\":107:140   */\n      tag_58\n      jump\t// in\n    tag_57:\n        /* \"#utility.yul\":7:146   */\n      swap3\n      swap2\n      pop\n      pop\n      jump\t// out\n        /* \"#utility.yul\":152:291   */\n    tag_59:\n        /* \"#utility.yul\":198:203   */\n      0x00\n        /* \"#utility.yul\":236:242   */\n      dup2\n        /* \"#utility.yul\":223:243   */\n      calldataload\n        /* \"#utility.yul\":214:243   */\n      swap1\n      pop\n        /* \"#utility.yul\":252:285   */\n      tag_61\n        /* \"#utility.yul\":279:284   */\n      dup2\n        /* \"#utility.yul\":252:285   */\n      tag_62\n      jump\t// in\n    tag_61:\n        /* \"#utility.yul\":152:291   */\n      swap3\n      swap2\n      pop\n      pop\n      jump\t// out\n        /* \"#utility.yul\":297:626   */\n    tag_31:\n        /* \"#utility.yul\":356:362   */\n      0x00\n        /* \"#utility.yul\":405:407   */\n      0x20\n        /* \"#utility.yul\":393:402   */\n      dup3\n        /* \"#utility.yul\":384:391   */\n      dup5\n        /* \"#utility.yul\":380:403   */\n      sub\n        /* \"#utility.yul\":376:408   */\n      slt\n        /* \"#utility.yul\":373:492   */\n      iszero\n      tag_64\n      jumpi\n        /* \"#utility.yul\":411:490   */\n      tag_65\n      tag_66\n      jump\t// in\n    tag_65:\n        /* \"#utility.yul\":373:492   */\n    tag_64:\n        /* \"#utility.yul\":531:532   */\n      0x00\n        /* \"#utility.yul\":556:609   */\n      tag_67\n        /* \"#utility.yul\":601:608   */\n      dup5\n        /* \"#utility.yul\":592:598   */\n      dup3\n        /* \"#utility.yul\":581:590   */\n      dup6\n        /* \"#utility.yul\":577:599   */\n      add\n        /* \"#utility.yul\":556:609   */\n      tag_55\n      jump\t// in\n    tag_67:\n        /* \"#utility.yul\":546:609   */\n      swap2\n      pop\n        /* \"#utility.yul\":502:619   */\n      pop\n        /* \"#utility.yul\":297:626   */\n      swap3\n      swap2\n      pop\n      pop\n      jump\t// out\n        /* \"#utility.yul\":632:1106   */\n    tag_17:\n        /* \"#utility.yul\":700:706   */\n      0x00\n        /* \"#utility.yul\":708:714   */\n      dup1\n        /* \"#utility.yul\":757:759   */\n      0x40\n        /* \"#utility.yul\":745:754   */\n      dup4\n        /* \"#utility.yul\":736:743   */\n      dup6\n        /* \"#utility.yul\":732:755   */\n      sub\n        /* \"#utility.yul\":728:760   */\n      slt\n        /* \"#utility.yul\":725:844   */\n      iszero\n      tag_69\n      jumpi\n        /* \"#utility.yul\":763:842   */\n      tag_70\n      tag_66\n      jump\t// in\n    tag_70:\n        /* \"#utility.yul\":725:844   */\n    tag_69:\n        /* \"#utility.yul\":883:884   */\n      0x00\n        /* \"#utility.yul\":908:961   */\n      tag_71\n        /* \"#utility.yul\":953:960   */\n      dup6\n        /* \"#utility.yul\":944:950   */\n      dup3\n        /* \"#utility.yul\":933:942   */\n      dup7\n        /* \"#utility.yul\":929:951   */\n      add\n        /* \"#utility.yul\":908:961   */\n      tag_55\n      jump\t// in\n    tag_71:\n        /* \"#utility.yul\":898:961   */\n      swap3\n      pop\n        /* \"#utility.yul\":854:971   */\n      pop\n        /* \"#utility.yul\":1010:1012   */\n      0x20\n        /* \"#utility.yul\":1036:1089   */\n      tag_72\n        /* \"#utility.yul\":1081:1088   */\n      dup6\n        /* \"#utility.yul\":1072:1078   */\n      dup3\n        /* \"#utility.yul\":1061:1070   */\n      dup7\n        /* \"#utility.yul\":1057:1079   */\n      add\n        /* \"#utility.yul\":1036:1089   */\n      tag_59\n      jump\t// in\n    tag_72:\n        /* \"#utility.yul\":1026:1089   */\n      swap2\n      pop\n        /* \"#utility.yul\":981:1099   */\n      pop\n        /* \"#utility.yul\":632:1106   */\n      swap3\n      pop\n      swap3\n      swap1\n      pop\n      jump\t// out\n        /* \"#utility.yul\":1112:1221   */\n    tag_73:\n        /* \"#utility.yul\":1193:1214   */\n      tag_75\n        /* \"#utility.yul\":1208:1213   */\n      dup2\n        /* \"#utility.yul\":1193:1214   */\n      tag_76\n      jump\t// in\n    tag_75:\n        /* \"#utility.yul\":1188:1191   */\n      dup3\n        /* \"#utility.yul\":1181:1215   */\n      mstore\n        /* \"#utility.yul\":1112:1221   */\n      pop\n      pop\n      jump\t// out\n        /* \"#utility.yul\":1227:1591   */\n    tag_77:\n        /* \"#utility.yul\":1315:1318   */\n      0x00\n        /* \"#utility.yul\":1343:1382   */\n      tag_79\n        /* \"#utility.yul\":1376:1381   */\n      dup3\n        /* \"#utility.yul\":1343:1382   */\n      tag_80\n      jump\t// in\n    tag_79:\n        /* \"#utility.yul\":1398:1469   */\n      tag_81\n        /* \"#utility.yul\":1462:1468   */\n      dup2\n        /* \"#utility.yul\":1457:1460   */\n      dup6\n        /* \"#utility.yul\":1398:1469   */\n      tag_82\n      jump\t// in\n    tag_81:\n        /* \"#utility.yul\":1391:1469   */\n      swap4\n      pop\n        /* \"#utility.yul\":1478:1530   */\n      tag_83\n        /* \"#utility.yul\":1523:1529   */\n      dup2\n        /* \"#utility.yul\":1518:1521   */\n      dup6\n        /* \"#utility.yul\":1511:1515   */\n      0x20\n        /* \"#utility.yul\":1504:1509   */\n      dup7\n        /* \"#utility.yul\":1500:1516   */\n      add\n        /* \"#utility.yul\":1478:1530   */\n      tag_84\n      jump\t// in\n    tag_83:\n        /* \"#utility.yul\":1555:1584   */\n      tag_85\n        /* \"#utility.yul\":1577:1583   */\n      dup2\n        /* \"#utility.yul\":1555:1584   */\n      tag_86\n      jump\t// in\n    tag_85:\n        /* \"#utility.yul\":1550:1553   */\n      dup5\n        /* \"#utility.yul\":1546:1585   */\n      add\n        /* \"#utility.yul\":1539:1585   */\n      swap2\n      pop\n        /* \"#utility.yul\":1319:1591   */\n      pop\n        /* \"#utility.yul\":1227:1591   */\n      swap3\n      swap2\n      pop\n      pop\n      jump\t// out\n        /* \"#utility.yul\":1597:1963   */\n    tag_87:\n        /* \"#utility.yul\":1739:1742   */\n      0x00\n        /* \"#utility.yul\":1760:1827   */\n      tag_89\n        /* \"#utility.yul\":1824:1826   */\n      0x2c\n        /* \"#utility.yul\":1819:1822   */\n      dup4\n        /* \"#utility.yul\":1760:1827   */\n      tag_82\n      jump\t// in\n    tag_89:\n        /* \"#utility.yul\":1753:1827   */\n      swap2\n      pop\n        /* \"#utility.yul\":1836:1929   */\n      tag_90\n        /* \"#utility.yul\":1925:1928   */\n      dup3\n        /* \"#utility.yul\":1836:1929   */\n      tag_91\n      jump\t// in\n    tag_90:\n        /* \"#utility.yul\":1954:1956   */\n      0x40\n        /* \"#utility.yul\":1949:1952   */\n      dup3\n        /* \"#utility.yul\":1945:1957   */\n      add\n        /* \"#utility.yul\":1938:1957   */\n      swap1\n      pop\n        /* \"#utility.yul\":1597:1963   */\n      swap2\n      swap1\n      pop\n      jump\t// out\n        /* \"#utility.yul\":1969:2087   */\n    tag_92:\n        /* \"#utility.yul\":2056:2080   */\n      tag_94\n        /* \"#utility.yul\":2074:2079   */\n      dup2\n        /* \"#utility.yul\":2056:2080   */\n      tag_95\n      jump\t// in\n    tag_94:\n        /* \"#utility.yul\":2051:2054   */\n      dup3\n        /* \"#utility.yul\":2044:2081   */\n      mstore\n        /* \"#utility.yul\":1969:2087   */\n      pop\n      pop\n      jump\t// out\n        /* \"#utility.yul\":2093:2205   */\n    tag_96:\n        /* \"#utility.yul\":2176:2198   */\n      tag_98\n        /* \"#utility.yul\":2192:2197   */\n      dup2\n        /* \"#utility.yul\":2176:2198   */\n      tag_99\n      jump\t// in\n    tag_98:\n        /* \"#utility.yul\":2171:2174   */\n      dup3\n        /* \"#utility.yul\":2164:2199   */\n      mstore\n        /* \"#utility.yul\":2093:2205   */\n      pop\n      pop\n      jump\t// out\n        /* \"#utility.yul\":2211:2421   */\n    tag_20:\n        /* \"#utility.yul\":2298:2302   */\n      0x00\n        /* \"#utility.yul\":2336:2338   */\n      0x20\n        /* \"#utility.yul\":2325:2334   */\n      dup3\n        /* \"#utility.yul\":2321:2339   */\n      add\n        /* \"#utility.yul\":2313:2339   */\n      swap1\n      pop\n        /* \"#utility.yul\":2349:2414   */\n      tag_101\n        /* \"#utility.yul\":2411:2412   */\n      0x00\n        /* \"#utility.yul\":2400:2409   */\n      dup4\n        /* \"#utility.yul\":2396:2413   */\n      add\n        /* \"#utility.yul\":2387:2393   */\n      dup5\n        /* \"#utility.yul\":2349:2414   */\n      tag_73\n      jump\t// in\n    tag_101:\n        /* \"#utility.yul\":2211:2421   */\n      swap3\n      swap2\n      pop\n      pop\n      jump\t// out\n        /* \"#utility.yul\":2427:2740   */\n    tag_14:\n        /* \"#utility.yul\":2540:2544   */\n      0x00\n        /* \"#utility.yul\":2578:2580   */\n      0x20\n        /* \"#utility.yul\":2567:2576   */\n      dup3\n        /* \"#utility.yul\":2563:2581   */\n      add\n        /* \"#utility.yul\":2555:2581   */\n      swap1\n      pop\n        /* \"#utility.yul\":2627:2636   */\n      dup2\n        /* \"#utility.yul\":2621:2625   */\n      dup2\n        /* \"#utility.yul\":2617:2637   */\n      sub\n        /* \"#utility.yul\":2613:2614   */\n      0x00\n        /* \"#utility.yul\":2602:2611   */\n      dup4\n        /* \"#utility.yul\":2598:2615   */\n      add\n        /* \"#utility.yul\":2591:2638   */\n      mstore\n        /* \"#utility.yul\":2655:2733   */\n      tag_103\n        /* \"#utility.yul\":2728:2732   */\n      dup2\n        /* \"#utility.yul\":2719:2725   */\n      dup5\n        /* \"#utility.yul\":2655:2733   */\n      tag_77\n      jump\t// in\n    tag_103:\n        /* \"#utility.yul\":2647:2733   */\n      swap1\n      pop\n        /* \"#utility.yul\":2427:2740   */\n      swap3\n      swap2\n      pop\n      pop\n      jump\t// out\n        /* \"#utility.yul\":2746:3165   */\n    tag_48:\n        /* \"#utility.yul\":2912:2916   */\n      0x00\n        /* \"#utility.yul\":2950:2952   */\n      0x20\n        /* \"#utility.yul\":2939:2948   */\n      dup3\n        /* \"#utility.yul\":2935:2953   */\n      add\n        /* \"#utility.yul\":2927:2953   */\n      swap1\n      pop\n        /* \"#utility.yul\":2999:3008   */\n      dup2\n        /* \"#utility.yul\":2993:2997   */\n      dup2\n        /* \"#utility.yul\":2989:3009   */\n      sub\n        /* \"#utility.yul\":2985:2986   */\n      0x00\n        /* \"#utility.yul\":2974:2983   */\n      dup4\n        /* \"#utility.yul\":2970:2987   */\n      add\n        /* \"#utility.yul\":2963:3010   */\n      mstore\n        /* \"#utility.yul\":3027:3158   */\n      tag_105\n        /* \"#utility.yul\":3153:3157   */\n      dup2\n        /* \"#utility.yul\":3027:3158   */\n      tag_87\n      jump\t// in\n    tag_105:\n        /* \"#utility.yul\":3019:3158   */\n      swap1\n      pop\n        /* \"#utility.yul\":2746:3165   */\n      swap2\n      swap1\n      pop\n      jump\t// out\n        /* \"#utility.yul\":3171:3393   */\n    tag_24:\n        /* \"#utility.yul\":3264:3268   */\n      0x00\n        /* \"#utility.yul\":3302:3304   */\n      0x20\n        /* \"#utility.yul\":3291:3300   */\n      dup3\n        /* \"#utility.yul\":3287:3305   */\n      add\n        /* \"#utility.yul\":3279:3305   */\n      swap1\n      pop\n        /* \"#utility.yul\":3315:3386   */\n      tag_107\n        /* \"#utility.yul\":3383:3384   */\n      0x00\n        /* \"#utility.yul\":3372:3381   */\n      dup4\n        /* \"#utility.yul\":3368:3385   */\n      add\n        /* \"#utility.yul\":3359:3365   */\n      dup5\n        /* \"#utility.yul\":3315:3386   */\n      tag_92\n      jump\t// in\n    tag_107:\n        /* \"#utility.yul\":3171:3393   */\n      swap3\n      swap2\n      pop\n      pop\n      jump\t// out\n        /* \"#utility.yul\":3399:3613   */\n    tag_28:\n        /* \"#utility.yul\":3488:3492   */\n      0x00\n        /* \"#utility.yul\":3526:3528   */\n      0x20\n        /* \"#utility.yul\":3515:3524   */\n      dup3\n        /* \"#utility.yul\":3511:3529   */\n      add\n        /* \"#utility.yul\":3503:3529   */\n      swap1\n      pop\n        /* \"#utility.yul\":3539:3606   */\n      tag_109\n        /* \"#utility.yul\":3603:3604   */\n      0x00\n        /* \"#utility.yul\":3592:3601   */\n      dup4\n        /* \"#utility.yul\":3588:3605   */\n      add\n        /* \"#utility.yul\":3579:3585   */\n      dup5\n        /* \"#utility.yul\":3539:3606   */\n      tag_96\n      jump\t// in\n    tag_109:\n        /* \"#utility.yul\":3399:3613   */\n      swap3\n      swap2\n      pop\n      pop\n      jump\t// out\n        /* \"#utility.yul\":3700:3799   */\n    tag_80:\n        /* \"#utility.yul\":3752:3758   */\n      0x00\n        /* \"#utility.yul\":3786:3791   */\n      dup2\n        /* \"#utility.yul\":3780:3792   */\n      mload\n        /* \"#utility.yul\":3770:3792   */\n      swap1\n      pop\n        /* \"#utility.yul\":3700:3799   */\n      swap2\n      swap1\n      pop\n      jump\t// out\n        /* \"#utility.yul\":3805:3974   */\n    tag_82:\n        /* \"#utility.yul\":3889:3900   */\n      0x00\n        /* \"#utility.yul\":3923:3929   */\n      dup3\n        /* \"#utility.yul\":3918:3921   */\n      dup3\n        /* \"#utility.yul\":3911:3930   */\n      mstore\n        /* \"#utility.yul\":3963:3967   */\n      0x20\n        /* \"#utility.yul\":3958:3961   */\n      dup3\n        /* \"#utility.yul\":3954:3968   */\n      add\n        /* \"#utility.yul\":3939:3968   */\n      swap1\n      pop\n        /* \"#utility.yul\":3805:3974   */\n      swap3\n      swap2\n      pop\n      pop\n      jump\t// out\n        /* \"#utility.yul\":3980:4285   */\n    tag_52:\n        /* \"#utility.yul\":4020:4023   */\n      0x00\n        /* \"#utility.yul\":4039:4059   */\n      tag_115\n        /* \"#utility.yul\":4057:4058   */\n      dup3\n        /* \"#utility.yul\":4039:4059   */\n      tag_95\n      jump\t// in\n    tag_115:\n        /* \"#utility.yul\":4034:4059   */\n      swap2\n      pop\n        /* \"#utility.yul\":4073:4093   */\n      tag_116\n        /* \"#utility.yul\":4091:4092   */\n      dup4\n        /* \"#utility.yul\":4073:4093   */\n      tag_95\n      jump\t// in\n    tag_116:\n        /* \"#utility.yul\":4068:4093   */\n      swap3\n      pop\n        /* \"#utility.yul\":4227:4228   */\n      dup3\n        /* \"#utility.yul\":4159:4225   */\n      0xffffffffffffffffffffffffffffffffffffffffffffffffffffffffffffffff\n        /* \"#utility.yul\":4155:4229   */\n      sub\n        /* \"#utility.yul\":4152:4153   */\n      dup3\n        /* \"#utility.yul\":4149:4230   */\n      gt\n        /* \"#utility.yul\":4146:4253   */\n      iszero\n      tag_117\n      jumpi\n        /* \"#utility.yul\":4233:4251   */\n      tag_118\n      tag_119\n      jump\t// in\n    tag_118:\n        /* \"#utility.yul\":4146:4253   */\n    tag_117:\n        /* \"#utility.yul\":4277:4278   */\n      dup3\n        /* \"#utility.yul\":4274:4275   */\n      dup3\n        /* \"#utility.yul\":4270:4279   */\n      add\n        /* \"#utility.yul\":4263:4279   */\n      swap1\n      pop\n        /* \"#utility.yul\":3980:4285   */\n      swap3\n      swap2\n      pop\n      pop\n      jump\t// out\n        /* \"#utility.yul\":4291:4482   */\n    tag_50:\n        /* \"#utility.yul\":4331:4335   */\n      0x00\n        /* \"#utility.yul\":4351:4371   */\n      tag_121\n        /* \"#utility.yul\":4369:4370   */\n      dup3\n        /* \"#utility.yul\":4351:4371   */\n      tag_95\n      jump\t// in\n    tag_121:\n        /* \"#utility.yul\":4346:4371   */\n      swap2\n      pop\n        /* \"#utility.yul\":4385:4405   */\n      tag_122\n        /* \"#utility.yul\":4403:4404   */\n      dup4\n        /* \"#utility.yul\":4385:4405   */\n      tag_95\n      jump\t// in\n    tag_122:\n        /* \"#utility.yul\":4380:4405   */\n      swap3\n      pop\n        /* \"#utility.yul\":4424:4425   */\n      dup3\n        /* \"#utility.yul\":4421:4422   */\n      dup3\n        /* \"#utility.yul\":4418:4426   */\n      lt\n        /* \"#utility.yul\":4415:4449   */\n      iszero\n      tag_123\n      jumpi\n        /* \"#utility.yul\":4429:4447   */\n      tag_124\n      tag_119\n      jump\t// in\n    tag_124:\n        /* \"#utility.yul\":4415:4449   */\n    tag_123:\n        /* \"#utility.yul\":4474:4475   */\n      dup3\n        /* \"#utility.yul\":4471:4472   */\n      dup3\n        /* \"#utility.yul\":4467:4476   */\n      sub\n        /* \"#utility.yul\":4459:4476   */\n      swap1\n      pop\n        /* \"#utility.yul\":4291:4482   */\n      swap3\n      swap2\n      pop\n      pop\n      jump\t// out\n        /* \"#utility.yul\":4488:4584   */\n    tag_125:\n        /* \"#utility.yul\":4525:4532   */\n      0x00\n        /* \"#utility.yul\":4554:4578   */\n      tag_127\n        /* \"#utility.yul\":4572:4577   */\n      dup3\n        /* \"#utility.yul\":4554:4578   */\n      tag_128\n      jump\t// in\n    tag_127:\n        /* \"#utility.yul\":4543:4578   */\n      swap1\n      pop\n        /* \"#utility.yul\":4488:4584   */\n      swap2\n      swap1\n      pop\n      jump\t// out\n        /* \"#utility.yul\":4590:4680   */\n    tag_76:\n        /* \"#utility.yul\":4624:4631   */\n      0x00\n        /* \"#utility.yul\":4667:4672   */\n      dup2\n        /* \"#utility.yul\":4660:4673   */\n      iszero\n        /* \"#utility.yul\":4653:4674   */\n      iszero\n        /* \"#utility.yul\":4642:4674   */\n      swap1\n      pop\n        /* \"#utility.yul\":4590:4680   */\n      swap2\n      swap1\n      pop\n      jump\t// out\n        /* \"#utility.yul\":4686:4812   */\n    tag_128:\n        /* \"#utility.yul\":4723:4730   */\n      0x00\n        /* \"#utility.yul\":4763:4805   */\n      0xffffffffffffffffffffffffffffffffffffffff\n        /* \"#utility.yul\":4756:4761   */\n      dup3\n        /* \"#utility.yul\":4752:4806   */\n      and\n        /* \"#utility.yul\":4741:4806   */\n      swap1\n      pop\n        /* \"#utility.yul\":4686:4812   */\n      swap2\n      swap1\n      pop\n      jump\t// out\n        /* \"#utility.yul\":4818:4895   */\n    tag_95:\n        /* \"#utility.yul\":4855:4862   */\n      0x00\n        /* \"#utility.yul\":4884:4889   */\n      dup2\n        /* \"#utility.yul\":4873:4889   */\n      swap1\n      pop\n        /* \"#utility.yul\":4818:4895   */\n      swap2\n      swap1\n      pop\n      jump\t// out\n        /* \"#utility.yul\":4901:4987   */\n    tag_99:\n        /* \"#utility.yul\":4936:4943   */\n      0x00\n        /* \"#utility.yul\":4976:4980   */\n      0xff\n        /* \"#utility.yul\":4969:4974   */\n      dup3\n        /* \"#utility.yul\":4965:4981   */\n      and\n        /* \"#utility.yul\":4954:4981   */\n      swap1\n      pop\n        /* \"#utility.yul\":4901:4987   */\n      swap2\n      swap1\n      pop\n      jump\t// out\n        /* \"#utility.yul\":4993:5300   */\n    tag_84:\n        /* \"#utility.yul\":5061:5062   */\n      0x00\n        /* \"#utility.yul\":5071:5184   */\n    tag_134:\n        /* \"#utility.yul\":5085:5091   */\n      dup4\n        /* \"#utility.yul\":5082:5083   */\n      dup2\n        /* \"#utility.yul\":5079:5092   */\n      lt\n        /* \"#utility.yul\":5071:5184   */\n      iszero\n      tag_136\n      jumpi\n        /* \"#utility.yul\":5170:5171   */\n      dup1\n        /* \"#utility.yul\":5165:5168   */\n      dup3\n        /* \"#utility.yul\":5161:5172   */\n      add\n        /* \"#utility.yul\":5155:5173   */\n      mload\n        /* \"#utility.yul\":5151:5152   */\n      dup2\n        /* \"#utility.yul\":5146:5149   */\n      dup5\n        /* \"#utility.yul\":5142:5153   */\n      add\n        /* \"#utility.yul\":5135:5174   */\n      mstore\n        /* \"#utility.yul\":5107:5109   */\n      0x20\n        /* \"#utility.yul\":5104:5105   */\n      dup2\n        /* \"#utility.yul\":5100:5110   */\n      add\n        /* \"#utility.yul\":5095:5110   */\n      swap1\n      pop\n        /* \"#utility.yul\":5071:5184   */\n      jump(tag_134)\n    tag_136:\n        /* \"#utility.yul\":5202:5208   */\n      dup4\n        /* \"#utility.yul\":5199:5200   */\n      dup2\n        /* \"#utility.yul\":5196:5209   */\n      gt\n        /* \"#utility.yul\":5193:5294   */\n      iszero\n      tag_137\n      jumpi\n        /* \"#utility.yul\":5282:5283   */\n      0x00\n        /* \"#utility.yul\":5273:5279   */\n      dup5\n        /* \"#utility.yul\":5268:5271   */\n      dup5\n        /* \"#utility.yul\":5264:5280   */\n      add\n        /* \"#utility.yul\":5257:5284   */\n      mstore\n        /* \"#utility.yul\":5193:5294   */\n    tag_137:\n        /* \"#utility.yul\":5042:5300   */\n      pop\n        /* \"#utility.yul\":4993:5300   */\n      pop\n      pop\n      pop\n      jump\t// out\n        /* \"#utility.yul\":5306:5486   */\n    tag_119:\n        /* \"#utility.yul\":5354:5431   */\n      0x4e487b7100000000000000000000000000000000000000000000000000000000\n        /* \"#utility.yul\":5351:5352   */\n      0x00\n        /* \"#utility.yul\":5344:5432   */\n      mstore\n        /* \"#utility.yul\":5451:5455   */\n      0x11\n        /* \"#utility.yul\":5448:5449   */\n      0x04\n        /* \"#utility.yul\":5441:5456   */\n      mstore\n        /* \"#utility.yul\":5475:5479   */\n      0x24\n        /* \"#utility.yul\":5472:5473   */\n      0x00\n        /* \"#utility.yul\":5465:5480   */\n      revert\n        /* \"#utility.yul\":5615:5732   */\n    tag_66:\n        /* \"#utility.yul\":5724:5725   */\n      0x00\n        /* \"#utility.yul\":5721:5722   */\n      dup1\n        /* \"#utility.yul\":5714:5726   */\n      revert\n        /* \"#utility.yul\":5738:5840   */\n    tag_86:\n        /* \"#utility.yul\":5779:5785   */\n      0x00\n        /* \"#utility.yul\":5830:5832   */\n      0x1f\n        /* \"#utility.yul\":5826:5833   */\n      not\n        /* \"#utility.yul\":5821:5823   */\n      0x1f\n        /* \"#utility.yul\":5814:5819   */\n      dup4\n        /* \"#utility.yul\":5810:5824   */\n      add\n        /* \"#utility.yul\":5806:5834   */\n      and\n        /* \"#utility.yul\":5796:5834   */\n      swap1\n      pop\n        /* \"#utility.yul\":5738:5840   */\n      swap2\n      swap1\n      pop\n      jump\t// out\n        /* \"#utility.yul\":5846:6077   */\n    tag_91:\n        /* \"#utility.yul\":5986:6020   */\n      0x546865726520617265206e6f7420656e6f7567682066756e6420746f20646f20\n        /* \"#utility.yul\":5982:5983   */\n      0x00\n        /* \"#utility.yul\":5974:5980   */\n      dup3\n        /* \"#utility.yul\":5970:5984   */\n      add\n        /* \"#utility.yul\":5963:6021   */\n      mstore\n        /* \"#utility.yul\":6055:6069   */\n      0x746865207472616e736665720000000000000000000000000000000000000000\n        /* \"#utility.yul\":6050:6052   */\n      0x20\n        /* \"#utility.yul\":6042:6048   */\n      dup3\n        /* \"#utility.yul\":6038:6053   */\n      add\n        /* \"#utility.yul\":6031:6070   */\n      mstore\n        /* \"#utility.yul\":5846:6077   */\n      pop\n      jump\t// out\n        /* \"#utility.yul\":6083:6205   */\n    tag_58:\n        /* \"#utility.yul\":6156:6180   */\n      tag_145\n        /* \"#utility.yul\":6174:6179   */\n      dup2\n        /* \"#utility.yul\":6156:6180   */\n      tag_125\n      jump\t// in\n    tag_145:\n        /* \"#utility.yul\":6149:6154   */\n      dup2\n        /* \"#utility.yul\":6146:6181   */\n      eq\n        /* \"#utility.yul\":6136:6199   */\n      tag_146\n      jumpi\n        /* \"#utility.yul\":6195:6196   */\n      0x00\n        /* \"#utility.yul\":6192:6193   */\n      dup1\n        /* \"#utility.yul\":6185:6197   */\n      revert\n        /* \"#utility.yul\":6136:6199   */\n    tag_146:\n        /* \"#utility.yul\":6083:6205   */\n      pop\n      jump\t// out\n        /* \"#utility.yul\":6211:6333   */\n    tag_62:\n        /* \"#utility.yul\":6284:6308   */\n      tag_148\n        /* \"#utility.yul\":6302:6307   */\n      dup2\n        /* \"#utility.yul\":6284:6308   */\n      tag_95\n      jump\t// in\n    tag_148:\n        /* \"#utility.yul\":6277:6282   */\n      dup2\n        /* \"#utility.yul\":6274:6309   */\n      eq\n        /* \"#utility.yul\":6264:6327   */\n      tag_149\n      jumpi\n        /* \"#utility.yul\":6323:6324   */\n      0x00\n        /* \"#utility.yul\":6320:6321   */\n      dup1\n        /* \"#utility.yul\":6313:6325   */\n      revert\n        /* \"#utility.yul\":6264:6327   */\n    tag_149:\n        /* \"#utility.yul\":6211:6333   */\n      pop\n      jump\t// out\n\n    auxdata: 0xa2646970667358221220ed08a741f0f8714171cc016c5dd577dabe26e2916d5b5721f5a3ef1795d3f84664736f6c63430008070033\n}\n",
				"bytecode": {
					"linkReferences": {},
					"object": "608060405234801561001057600080fd5b50604051610a27380380610a2783398181016040528101906100329190610098565b8060008190555080600160003373ffffffffffffffffffffffffffffffffffffffff1673ffffffffffffffffffffffffffffffffffffffff16815260200190815260200160002081905550506100eb565b600081519050610092816100d4565b92915050565b6000602082840312156100ae576100ad6100cf565b5b60006100bc84828501610083565b91505092915050565b6000819050919050565b600080fd5b6100dd816100c5565b81146100e857600080fd5b50565b61092d806100fa6000396000f3fe608060405234801561001057600080fd5b506004361061007d5760003560e01c8063313ce5671161005b578063313ce567146100ee57806370a082311461010c57806395d89b411461013c578063a9059cbb1461015a5761007d565b806306fdde0314610082578063095ea7b3146100a057806318160ddd146100d0575b600080fd5b61008a61018a565b604051610097919061068f565b60405180910390f35b6100ba60048036038101906100b591906105ab565b6101c3565b6040516100c79190610674565b60405180910390f35b6100d86102b5565b6040516100e591906106d1565b60405180910390f35b6100f66102be565b60405161010391906106ec565b60405180910390f35b6101266004803603810190610121919061057e565b6102c3565b60405161013391906106d1565b60405180910390f35b61014461030c565b604051610151919061068f565b60405180910390f35b610174600480360381019061016f91906105ab565b610345565b6040516101819190610674565b60405180910390f35b6040518060400160405280600a81526020017f506c61747a69436f696e0000000000000000000000000000000000000000000081525081565b600081600260003373ffffffffffffffffffffffffffffffffffffffff1673ffffffffffffffffffffffffffffffffffffffff16815260200190815260200160002060008573ffffffffffffffffffffffffffffffffffffffff1673ffffffffffffffffffffffffffffffffffffffff168152602001908152602001600020819055508273ffffffffffffffffffffffffffffffffffffffff163373ffffffffffffffffffffffffffffffffffffffff167f8c5be1e5ebec7d5bd14f71427d1e84f3dd0314c0f7b2291e5b200ac8c7c3b925846040516102a391906106d1565b60405180910390a36001905092915050565b60008054905090565b601281565b6000600160008373ffffffffffffffffffffffffffffffffffffffff1673ffffffffffffffffffffffffffffffffffffffff168152602001908152602001600020549050919050565b6040518060400160405280600381526020017f505a43000000000000000000000000000000000000000000000000000000000081525081565b6000600160003373ffffffffffffffffffffffffffffffffffffffff1673ffffffffffffffffffffffffffffffffffffffff168152602001908152602001600020548211156103c9576040517f08c379a00000000000000000000000000000000000000000000000000000000081526004016103c0906106b1565b60405180910390fd5b81600160003373ffffffffffffffffffffffffffffffffffffffff1673ffffffffffffffffffffffffffffffffffffffff168152602001908152602001600020546104149190610779565b600160003373ffffffffffffffffffffffffffffffffffffffff1673ffffffffffffffffffffffffffffffffffffffff1681526020019081526020016000208190555081600160008573ffffffffffffffffffffffffffffffffffffffff1673ffffffffffffffffffffffffffffffffffffffff168152602001908152602001600020546104a29190610723565b600160008573ffffffffffffffffffffffffffffffffffffffff1673ffffffffffffffffffffffffffffffffffffffff168152602001908152602001600020819055508273ffffffffffffffffffffffffffffffffffffffff163373ffffffffffffffffffffffffffffffffffffffff167fddf252ad1be2c89b69c2b068fc378daa952ba7f163c4a11628f55a4df523b3ef8460405161054291906106d1565b60405180910390a36001905092915050565b600081359050610563816108c9565b92915050565b600081359050610578816108e0565b92915050565b60006020828403121561059457610593610864565b5b60006105a284828501610554565b91505092915050565b600080604083850312156105c2576105c1610864565b5b60006105d085828601610554565b92505060206105e185828601610569565b9150509250929050565b6105f4816107bf565b82525050565b600061060582610707565b61060f8185610712565b935061061f818560208601610802565b61062881610869565b840191505092915050565b6000610640602c83610712565b915061064b8261087a565b604082019050919050565b61065f816107eb565b82525050565b61066e816107f5565b82525050565b600060208201905061068960008301846105eb565b92915050565b600060208201905081810360008301526106a981846105fa565b905092915050565b600060208201905081810360008301526106ca81610633565b9050919050565b60006020820190506106e66000830184610656565b92915050565b60006020820190506107016000830184610665565b92915050565b600081519050919050565b600082825260208201905092915050565b600061072e826107eb565b9150610739836107eb565b9250827fffffffffffffffffffffffffffffffffffffffffffffffffffffffffffffffff0382111561076e5761076d610835565b5b828201905092915050565b6000610784826107eb565b915061078f836107eb565b9250828210156107a2576107a1610835565b5b828203905092915050565b60006107b8826107cb565b9050919050565b60008115159050919050565b600073ffffffffffffffffffffffffffffffffffffffff82169050919050565b6000819050919050565b600060ff82169050919050565b60005b83811015610820578082015181840152602081019050610805565b8381111561082f576000848401525b50505050565b7f4e487b7100000000000000000000000000000000000000000000000000000000600052601160045260246000fd5b600080fd5b6000601f19601f8301169050919050565b7f546865726520617265206e6f7420656e6f7567682066756e6420746f20646f2060008201527f746865207472616e736665720000000000000000000000000000000000000000602082015250565b6108d2816107ad565b81146108dd57600080fd5b50565b6108e9816107eb565b81146108f457600080fd5b5056fea2646970667358221220ed08a741f0f8714171cc016c5dd577dabe26e2916d5b5721f5a3ef1795d3f84664736f6c63430008070033",
					"opcodes": "PUSH1 0x80 PUSH1 0x40 MSTORE CALLVALUE DUP1 ISZERO PUSH2 0x10 JUMPI PUSH1 0x0 DUP1 REVERT JUMPDEST POP PUSH1 0x40 MLOAD PUSH2 0xA27 CODESIZE SUB DUP1 PUSH2 0xA27 DUP4 CODECOPY DUP2 DUP2 ADD PUSH1 0x40 MSTORE DUP2 ADD SWAP1 PUSH2 0x32 SWAP2 SWAP1 PUSH2 0x98 JUMP JUMPDEST DUP1 PUSH1 0x0 DUP2 SWAP1 SSTORE POP DUP1 PUSH1 0x1 PUSH1 0x0 CALLER PUSH20 0xFFFFFFFFFFFFFFFFFFFFFFFFFFFFFFFFFFFFFFFF AND PUSH20 0xFFFFFFFFFFFFFFFFFFFFFFFFFFFFFFFFFFFFFFFF AND DUP2 MSTORE PUSH1 0x20 ADD SWAP1 DUP2 MSTORE PUSH1 0x20 ADD PUSH1 0x0 KECCAK256 DUP2 SWAP1 SSTORE POP POP PUSH2 0xEB JUMP JUMPDEST PUSH1 0x0 DUP2 MLOAD SWAP1 POP PUSH2 0x92 DUP2 PUSH2 0xD4 JUMP JUMPDEST SWAP3 SWAP2 POP POP JUMP JUMPDEST PUSH1 0x0 PUSH1 0x20 DUP3 DUP5 SUB SLT ISZERO PUSH2 0xAE JUMPI PUSH2 0xAD PUSH2 0xCF JUMP JUMPDEST JUMPDEST PUSH1 0x0 PUSH2 0xBC DUP5 DUP3 DUP6 ADD PUSH2 0x83 JUMP JUMPDEST SWAP2 POP POP SWAP3 SWAP2 POP POP JUMP JUMPDEST PUSH1 0x0 DUP2 SWAP1 POP SWAP2 SWAP1 POP JUMP JUMPDEST PUSH1 0x0 DUP1 REVERT JUMPDEST PUSH2 0xDD DUP2 PUSH2 0xC5 JUMP JUMPDEST DUP2 EQ PUSH2 0xE8 JUMPI PUSH1 0x0 DUP1 REVERT JUMPDEST POP JUMP JUMPDEST PUSH2 0x92D DUP1 PUSH2 0xFA PUSH1 0x0 CODECOPY PUSH1 0x0 RETURN INVALID PUSH1 0x80 PUSH1 0x40 MSTORE CALLVALUE DUP1 ISZERO PUSH2 0x10 JUMPI PUSH1 0x0 DUP1 REVERT JUMPDEST POP PUSH1 0x4 CALLDATASIZE LT PUSH2 0x7D JUMPI PUSH1 0x0 CALLDATALOAD PUSH1 0xE0 SHR DUP1 PUSH4 0x313CE567 GT PUSH2 0x5B JUMPI DUP1 PUSH4 0x313CE567 EQ PUSH2 0xEE JUMPI DUP1 PUSH4 0x70A08231 EQ PUSH2 0x10C JUMPI DUP1 PUSH4 0x95D89B41 EQ PUSH2 0x13C JUMPI DUP1 PUSH4 0xA9059CBB EQ PUSH2 0x15A JUMPI PUSH2 0x7D JUMP JUMPDEST DUP1 PUSH4 0x6FDDE03 EQ PUSH2 0x82 JUMPI DUP1 PUSH4 0x95EA7B3 EQ PUSH2 0xA0 JUMPI DUP1 PUSH4 0x18160DDD EQ PUSH2 0xD0 JUMPI JUMPDEST PUSH1 0x0 DUP1 REVERT JUMPDEST PUSH2 0x8A PUSH2 0x18A JUMP JUMPDEST PUSH1 0x40 MLOAD PUSH2 0x97 SWAP2 SWAP1 PUSH2 0x68F JUMP JUMPDEST PUSH1 0x40 MLOAD DUP1 SWAP2 SUB SWAP1 RETURN JUMPDEST PUSH2 0xBA PUSH1 0x4 DUP1 CALLDATASIZE SUB DUP2 ADD SWAP1 PUSH2 0xB5 SWAP2 SWAP1 PUSH2 0x5AB JUMP JUMPDEST PUSH2 0x1C3 JUMP JUMPDEST PUSH1 0x40 MLOAD PUSH2 0xC7 SWAP2 SWAP1 PUSH2 0x674 JUMP JUMPDEST PUSH1 0x40 MLOAD DUP1 SWAP2 SUB SWAP1 RETURN JUMPDEST PUSH2 0xD8 PUSH2 0x2B5 JUMP JUMPDEST PUSH1 0x40 MLOAD PUSH2 0xE5 SWAP2 SWAP1 PUSH2 0x6D1 JUMP JUMPDEST PUSH1 0x40 MLOAD DUP1 SWAP2 SUB SWAP1 RETURN JUMPDEST PUSH2 0xF6 PUSH2 0x2BE JUMP JUMPDEST PUSH1 0x40 MLOAD PUSH2 0x103 SWAP2 SWAP1 PUSH2 0x6EC JUMP JUMPDEST PUSH1 0x40 MLOAD DUP1 SWAP2 SUB SWAP1 RETURN JUMPDEST PUSH2 0x126 PUSH1 0x4 DUP1 CALLDATASIZE SUB DUP2 ADD SWAP1 PUSH2 0x121 SWAP2 SWAP1 PUSH2 0x57E JUMP JUMPDEST PUSH2 0x2C3 JUMP JUMPDEST PUSH1 0x40 MLOAD PUSH2 0x133 SWAP2 SWAP1 PUSH2 0x6D1 JUMP JUMPDEST PUSH1 0x40 MLOAD DUP1 SWAP2 SUB SWAP1 RETURN JUMPDEST PUSH2 0x144 PUSH2 0x30C JUMP JUMPDEST PUSH1 0x40 MLOAD PUSH2 0x151 SWAP2 SWAP1 PUSH2 0x68F JUMP JUMPDEST PUSH1 0x40 MLOAD DUP1 SWAP2 SUB SWAP1 RETURN JUMPDEST PUSH2 0x174 PUSH1 0x4 DUP1 CALLDATASIZE SUB DUP2 ADD SWAP1 PUSH2 0x16F SWAP2 SWAP1 PUSH2 0x5AB JUMP JUMPDEST PUSH2 0x345 JUMP JUMPDEST PUSH1 0x40 MLOAD PUSH2 0x181 SWAP2 SWAP1 PUSH2 0x674 JUMP JUMPDEST PUSH1 0x40 MLOAD DUP1 SWAP2 SUB SWAP1 RETURN JUMPDEST PUSH1 0x40 MLOAD DUP1 PUSH1 0x40 ADD PUSH1 0x40 MSTORE DUP1 PUSH1 0xA DUP2 MSTORE PUSH1 0x20 ADD PUSH32 0x506C61747A69436F696E00000000000000000000000000000000000000000000 DUP2 MSTORE POP DUP2 JUMP JUMPDEST PUSH1 0x0 DUP2 PUSH1 0x2 PUSH1 0x0 CALLER PUSH20 0xFFFFFFFFFFFFFFFFFFFFFFFFFFFFFFFFFFFFFFFF AND PUSH20 0xFFFFFFFFFFFFFFFFFFFFFFFFFFFFFFFFFFFFFFFF AND DUP2 MSTORE PUSH1 0x20 ADD SWAP1 DUP2 MSTORE PUSH1 0x20 ADD PUSH1 0x0 KECCAK256 PUSH1 0x0 DUP6 PUSH20 0xFFFFFFFFFFFFFFFFFFFFFFFFFFFFFFFFFFFFFFFF AND PUSH20 0xFFFFFFFFFFFFFFFFFFFFFFFFFFFFFFFFFFFFFFFF AND DUP2 MSTORE PUSH1 0x20 ADD SWAP1 DUP2 MSTORE PUSH1 0x20 ADD PUSH1 0x0 KECCAK256 DUP2 SWAP1 SSTORE POP DUP3 PUSH20 0xFFFFFFFFFFFFFFFFFFFFFFFFFFFFFFFFFFFFFFFF AND CALLER PUSH20 0xFFFFFFFFFFFFFFFFFFFFFFFFFFFFFFFFFFFFFFFF AND PUSH32 0x8C5BE1E5EBEC7D5BD14F71427D1E84F3DD0314C0F7B2291E5B200AC8C7C3B925 DUP5 PUSH1 0x40 MLOAD PUSH2 0x2A3 SWAP2 SWAP1 PUSH2 0x6D1 JUMP JUMPDEST PUSH1 0x40 MLOAD DUP1 SWAP2 SUB SWAP1 LOG3 PUSH1 0x1 SWAP1 POP SWAP3 SWAP2 POP POP JUMP JUMPDEST PUSH1 0x0 DUP1 SLOAD SWAP1 POP SWAP1 JUMP JUMPDEST PUSH1 0x12 DUP2 JUMP JUMPDEST PUSH1 0x0 PUSH1 0x1 PUSH1 0x0 DUP4 PUSH20 0xFFFFFFFFFFFFFFFFFFFFFFFFFFFFFFFFFFFFFFFF AND PUSH20 0xFFFFFFFFFFFFFFFFFFFFFFFFFFFFFFFFFFFFFFFF AND DUP2 MSTORE PUSH1 0x20 ADD SWAP1 DUP2 MSTORE PUSH1 0x20 ADD PUSH1 0x0 KECCAK256 SLOAD SWAP1 POP SWAP2 SWAP1 POP JUMP JUMPDEST PUSH1 0x40 MLOAD DUP1 PUSH1 0x40 ADD PUSH1 0x40 MSTORE DUP1 PUSH1 0x3 DUP2 MSTORE PUSH1 0x20 ADD PUSH32 0x505A430000000000000000000000000000000000000000000000000000000000 DUP2 MSTORE POP DUP2 JUMP JUMPDEST PUSH1 0x0 PUSH1 0x1 PUSH1 0x0 CALLER PUSH20 0xFFFFFFFFFFFFFFFFFFFFFFFFFFFFFFFFFFFFFFFF AND PUSH20 0xFFFFFFFFFFFFFFFFFFFFFFFFFFFFFFFFFFFFFFFF AND DUP2 MSTORE PUSH1 0x20 ADD SWAP1 DUP2 MSTORE PUSH1 0x20 ADD PUSH1 0x0 KECCAK256 SLOAD DUP3 GT ISZERO PUSH2 0x3C9 JUMPI PUSH1 0x40 MLOAD PUSH32 0x8C379A000000000000000000000000000000000000000000000000000000000 DUP2 MSTORE PUSH1 0x4 ADD PUSH2 0x3C0 SWAP1 PUSH2 0x6B1 JUMP JUMPDEST PUSH1 0x40 MLOAD DUP1 SWAP2 SUB SWAP1 REVERT JUMPDEST DUP2 PUSH1 0x1 PUSH1 0x0 CALLER PUSH20 0xFFFFFFFFFFFFFFFFFFFFFFFFFFFFFFFFFFFFFFFF AND PUSH20 0xFFFFFFFFFFFFFFFFFFFFFFFFFFFFFFFFFFFFFFFF AND DUP2 MSTORE PUSH1 0x20 ADD SWAP1 DUP2 MSTORE PUSH1 0x20 ADD PUSH1 0x0 KECCAK256 SLOAD PUSH2 0x414 SWAP2 SWAP1 PUSH2 0x779 JUMP JUMPDEST PUSH1 0x1 PUSH1 0x0 CALLER PUSH20 0xFFFFFFFFFFFFFFFFFFFFFFFFFFFFFFFFFFFFFFFF AND PUSH20 0xFFFFFFFFFFFFFFFFFFFFFFFFFFFFFFFFFFFFFFFF AND DUP2 MSTORE PUSH1 0x20 ADD SWAP1 DUP2 MSTORE PUSH1 0x20 ADD PUSH1 0x0 KECCAK256 DUP2 SWAP1 SSTORE POP DUP2 PUSH1 0x1 PUSH1 0x0 DUP6 PUSH20 0xFFFFFFFFFFFFFFFFFFFFFFFFFFFFFFFFFFFFFFFF AND PUSH20 0xFFFFFFFFFFFFFFFFFFFFFFFFFFFFFFFFFFFFFFFF AND DUP2 MSTORE PUSH1 0x20 ADD SWAP1 DUP2 MSTORE PUSH1 0x20 ADD PUSH1 0x0 KECCAK256 SLOAD PUSH2 0x4A2 SWAP2 SWAP1 PUSH2 0x723 JUMP JUMPDEST PUSH1 0x1 PUSH1 0x0 DUP6 PUSH20 0xFFFFFFFFFFFFFFFFFFFFFFFFFFFFFFFFFFFFFFFF AND PUSH20 0xFFFFFFFFFFFFFFFFFFFFFFFFFFFFFFFFFFFFFFFF AND DUP2 MSTORE PUSH1 0x20 ADD SWAP1 DUP2 MSTORE PUSH1 0x20 ADD PUSH1 0x0 KECCAK256 DUP2 SWAP1 SSTORE POP DUP3 PUSH20 0xFFFFFFFFFFFFFFFFFFFFFFFFFFFFFFFFFFFFFFFF AND CALLER PUSH20 0xFFFFFFFFFFFFFFFFFFFFFFFFFFFFFFFFFFFFFFFF AND PUSH32 0xDDF252AD1BE2C89B69C2B068FC378DAA952BA7F163C4A11628F55A4DF523B3EF DUP5 PUSH1 0x40 MLOAD PUSH2 0x542 SWAP2 SWAP1 PUSH2 0x6D1 JUMP JUMPDEST PUSH1 0x40 MLOAD DUP1 SWAP2 SUB SWAP1 LOG3 PUSH1 0x1 SWAP1 POP SWAP3 SWAP2 POP POP JUMP JUMPDEST PUSH1 0x0 DUP2 CALLDATALOAD SWAP1 POP PUSH2 0x563 DUP2 PUSH2 0x8C9 JUMP JUMPDEST SWAP3 SWAP2 POP POP JUMP JUMPDEST PUSH1 0x0 DUP2 CALLDATALOAD SWAP1 POP PUSH2 0x578 DUP2 PUSH2 0x8E0 JUMP JUMPDEST SWAP3 SWAP2 POP POP JUMP JUMPDEST PUSH1 0x0 PUSH1 0x20 DUP3 DUP5 SUB SLT ISZERO PUSH2 0x594 JUMPI PUSH2 0x593 PUSH2 0x864 JUMP JUMPDEST JUMPDEST PUSH1 0x0 PUSH2 0x5A2 DUP5 DUP3 DUP6 ADD PUSH2 0x554 JUMP JUMPDEST SWAP2 POP POP SWAP3 SWAP2 POP POP JUMP JUMPDEST PUSH1 0x0 DUP1 PUSH1 0x40 DUP4 DUP6 SUB SLT ISZERO PUSH2 0x5C2 JUMPI PUSH2 0x5C1 PUSH2 0x864 JUMP JUMPDEST JUMPDEST PUSH1 0x0 PUSH2 0x5D0 DUP6 DUP3 DUP7 ADD PUSH2 0x554 JUMP JUMPDEST SWAP3 POP POP PUSH1 0x20 PUSH2 0x5E1 DUP6 DUP3 DUP7 ADD PUSH2 0x569 JUMP JUMPDEST SWAP2 POP POP SWAP3 POP SWAP3 SWAP1 POP JUMP JUMPDEST PUSH2 0x5F4 DUP2 PUSH2 0x7BF JUMP JUMPDEST DUP3 MSTORE POP POP JUMP JUMPDEST PUSH1 0x0 PUSH2 0x605 DUP3 PUSH2 0x707 JUMP JUMPDEST PUSH2 0x60F DUP2 DUP6 PUSH2 0x712 JUMP JUMPDEST SWAP4 POP PUSH2 0x61F DUP2 DUP6 PUSH1 0x20 DUP7 ADD PUSH2 0x802 JUMP JUMPDEST PUSH2 0x628 DUP2 PUSH2 0x869 JUMP JUMPDEST DUP5 ADD SWAP2 POP POP SWAP3 SWAP2 POP POP JUMP JUMPDEST PUSH1 0x0 PUSH2 0x640 PUSH1 0x2C DUP4 PUSH2 0x712 JUMP JUMPDEST SWAP2 POP PUSH2 0x64B DUP3 PUSH2 0x87A JUMP JUMPDEST PUSH1 0x40 DUP3 ADD SWAP1 POP SWAP2 SWAP1 POP JUMP JUMPDEST PUSH2 0x65F DUP2 PUSH2 0x7EB JUMP JUMPDEST DUP3 MSTORE POP POP JUMP JUMPDEST PUSH2 0x66E DUP2 PUSH2 0x7F5 JUMP JUMPDEST DUP3 MSTORE POP POP JUMP JUMPDEST PUSH1 0x0 PUSH1 0x20 DUP3 ADD SWAP1 POP PUSH2 0x689 PUSH1 0x0 DUP4 ADD DUP5 PUSH2 0x5EB JUMP JUMPDEST SWAP3 SWAP2 POP POP JUMP JUMPDEST PUSH1 0x0 PUSH1 0x20 DUP3 ADD SWAP1 POP DUP2 DUP2 SUB PUSH1 0x0 DUP4 ADD MSTORE PUSH2 0x6A9 DUP2 DUP5 PUSH2 0x5FA JUMP JUMPDEST SWAP1 POP SWAP3 SWAP2 POP POP JUMP JUMPDEST PUSH1 0x0 PUSH1 0x20 DUP3 ADD SWAP1 POP DUP2 DUP2 SUB PUSH1 0x0 DUP4 ADD MSTORE PUSH2 0x6CA DUP2 PUSH2 0x633 JUMP JUMPDEST SWAP1 POP SWAP2 SWAP1 POP JUMP JUMPDEST PUSH1 0x0 PUSH1 0x20 DUP3 ADD SWAP1 POP PUSH2 0x6E6 PUSH1 0x0 DUP4 ADD DUP5 PUSH2 0x656 JUMP JUMPDEST SWAP3 SWAP2 POP POP JUMP JUMPDEST PUSH1 0x0 PUSH1 0x20 DUP3 ADD SWAP1 POP PUSH2 0x701 PUSH1 0x0 DUP4 ADD DUP5 PUSH2 0x665 JUMP JUMPDEST SWAP3 SWAP2 POP POP JUMP JUMPDEST PUSH1 0x0 DUP2 MLOAD SWAP1 POP SWAP2 SWAP1 POP JUMP JUMPDEST PUSH1 0x0 DUP3 DUP3 MSTORE PUSH1 0x20 DUP3 ADD SWAP1 POP SWAP3 SWAP2 POP POP JUMP JUMPDEST PUSH1 0x0 PUSH2 0x72E DUP3 PUSH2 0x7EB JUMP JUMPDEST SWAP2 POP PUSH2 0x739 DUP4 PUSH2 0x7EB JUMP JUMPDEST SWAP3 POP DUP3 PUSH32 0xFFFFFFFFFFFFFFFFFFFFFFFFFFFFFFFFFFFFFFFFFFFFFFFFFFFFFFFFFFFFFFFF SUB DUP3 GT ISZERO PUSH2 0x76E JUMPI PUSH2 0x76D PUSH2 0x835 JUMP JUMPDEST JUMPDEST DUP3 DUP3 ADD SWAP1 POP SWAP3 SWAP2 POP POP JUMP JUMPDEST PUSH1 0x0 PUSH2 0x784 DUP3 PUSH2 0x7EB JUMP JUMPDEST SWAP2 POP PUSH2 0x78F DUP4 PUSH2 0x7EB JUMP JUMPDEST SWAP3 POP DUP3 DUP3 LT ISZERO PUSH2 0x7A2 JUMPI PUSH2 0x7A1 PUSH2 0x835 JUMP JUMPDEST JUMPDEST DUP3 DUP3 SUB SWAP1 POP SWAP3 SWAP2 POP POP JUMP JUMPDEST PUSH1 0x0 PUSH2 0x7B8 DUP3 PUSH2 0x7CB JUMP JUMPDEST SWAP1 POP SWAP2 SWAP1 POP JUMP JUMPDEST PUSH1 0x0 DUP2 ISZERO ISZERO SWAP1 POP SWAP2 SWAP1 POP JUMP JUMPDEST PUSH1 0x0 PUSH20 0xFFFFFFFFFFFFFFFFFFFFFFFFFFFFFFFFFFFFFFFF DUP3 AND SWAP1 POP SWAP2 SWAP1 POP JUMP JUMPDEST PUSH1 0x0 DUP2 SWAP1 POP SWAP2 SWAP1 POP JUMP JUMPDEST PUSH1 0x0 PUSH1 0xFF DUP3 AND SWAP1 POP SWAP2 SWAP1 POP JUMP JUMPDEST PUSH1 0x0 JUMPDEST DUP4 DUP2 LT ISZERO PUSH2 0x820 JUMPI DUP1 DUP3 ADD MLOAD DUP2 DUP5 ADD MSTORE PUSH1 0x20 DUP2 ADD SWAP1 POP PUSH2 0x805 JUMP JUMPDEST DUP4 DUP2 GT ISZERO PUSH2 0x82F JUMPI PUSH1 0x0 DUP5 DUP5 ADD MSTORE JUMPDEST POP POP POP POP JUMP JUMPDEST PUSH32 0x4E487B7100000000000000000000000000000000000000000000000000000000 PUSH1 0x0 MSTORE PUSH1 0x11 PUSH1 0x4 MSTORE PUSH1 0x24 PUSH1 0x0 REVERT JUMPDEST PUSH1 0x0 DUP1 REVERT JUMPDEST PUSH1 0x0 PUSH1 0x1F NOT PUSH1 0x1F DUP4 ADD AND SWAP1 POP SWAP2 SWAP1 POP JUMP JUMPDEST PUSH32 0x546865726520617265206E6F7420656E6F7567682066756E6420746F20646F20 PUSH1 0x0 DUP3 ADD MSTORE PUSH32 0x746865207472616E736665720000000000000000000000000000000000000000 PUSH1 0x20 DUP3 ADD MSTORE POP JUMP JUMPDEST PUSH2 0x8D2 DUP2 PUSH2 0x7AD JUMP JUMPDEST DUP2 EQ PUSH2 0x8DD JUMPI PUSH1 0x0 DUP1 REVERT JUMPDEST POP JUMP JUMPDEST PUSH2 0x8E9 DUP2 PUSH2 0x7EB JUMP JUMPDEST DUP2 EQ PUSH2 0x8F4 JUMPI PUSH1 0x0 DUP1 REVERT JUMPDEST POP JUMP INVALID LOG2 PUSH5 0x6970667358 0x22 SLT KECCAK256 0xED ADDMOD 0xA7 COINBASE CREATE 0xF8 PUSH18 0x4171CC016C5DD577DABE26E2916D5B5721F5 LOG3 0xEF OR SWAP6 0xD3 0xF8 CHAINID PUSH5 0x736F6C6343 STOP ADDMOD SMOD STOP CALLER "
				},
				"gasEstimates": {
					"creation": {
						"codeDepositCost": "469800",
						"executionCost": "infinite",
						"totalCost": "infinite"
					},
					"external": {
						"approve(address,uint256)": "infinite",
						"balanceOf(address)": "2863",
						"decimals()": "335",
						"name()": "infinite",
						"symbol()": "infinite",
						"totalSupply()": "2482",
						"transfer(address,uint256)": "infinite"
					}
				},
				"methodIdentifiers": {
					"approve(address,uint256)": "095ea7b3",
					"balanceOf(address)": "70a08231",
					"decimals()": "313ce567",
					"name()": "06fdde03",
					"symbol()": "95d89b41",
					"totalSupply()": "18160ddd",
					"transfer(address,uint256)": "a9059cbb"
				}
			},
			"storageLayout": {
				"storage": [
					{
						"astId": 12,
						"contract": "contracts/Financial Services/Balance.sol:TokenBasic",
						"label": "_totalSupply",
						"offset": 0,
						"slot": "0",
						"type": "t_uint256"
					},
					{
						"astId": 16,
						"contract": "contracts/Financial Services/Balance.sol:TokenBasic",
						"label": "balances",
						"offset": 0,
						"slot": "1",
						"type": "t_mapping(t_address,t_uint256)"
					},
					{
						"astId": 22,
						"contract": "contracts/Financial Services/Balance.sol:TokenBasic",
						"label": "allowed",
						"offset": 0,
						"slot": "2",
						"type": "t_mapping(t_address,t_mapping(t_address,t_uint256))"
					}
				],
				"types": {
					"t_address": {
						"encoding": "inplace",
						"label": "address",
						"numberOfBytes": "20"
					},
					"t_mapping(t_address,t_mapping(t_address,t_uint256))": {
						"encoding": "mapping",
						"key": "t_address",
						"label": "mapping(address => mapping(address => uint256))",
						"numberOfBytes": "32",
						"value": "t_mapping(t_address,t_uint256)"
					},
					"t_mapping(t_address,t_uint256)": {
						"encoding": "mapping",
						"key": "t_address",
						"label": "mapping(address => uint256)",
						"numberOfBytes": "32",
						"value": "t_uint256"
					},
					"t_uint256": {
						"encoding": "inplace",
						"label": "uint256",
						"numberOfBytes": "32"
					}
				}
			},
			"userdoc": {
				"kind": "user",
				"methods": {},
				"version": 1
			}
		}
	}
}