{
	"contracts/Financial Services/Balance.sol": {
		"TokenBasic": {
			"abi": [
				{
					"inputs": [
						{
							"internalType": "uint256",
							"name": "total",
							"type": "uint256"
						}
					],
					"stateMutability": "nonpayable",
					"type": "constructor"
				},
				{
					"anonymous": false,
					"inputs": [
						{
							"indexed": true,
							"internalType": "address",
							"name": "_owner",
							"type": "address"
						},
						{
							"indexed": true,
							"internalType": "address",
							"name": "_spender",
							"type": "address"
						},
						{
							"indexed": false,
							"internalType": "uint256",
							"name": "_value",
							"type": "uint256"
						}
					],
					"name": "Approval",
					"type": "event"
				},
				{
					"anonymous": false,
					"inputs": [
						{
							"indexed": true,
							"internalType": "address",
							"name": "_from",
							"type": "address"
						},
						{
							"indexed": true,
							"internalType": "address",
							"name": "_to",
							"type": "address"
						},
						{
							"indexed": false,
							"internalType": "uint256",
							"name": "_value",
							"type": "uint256"
						}
					],
					"name": "Transfer",
					"type": "event"
				},
				{
					"inputs": [
						{
							"internalType": "address",
							"name": "_owner",
							"type": "address"
						}
					],
					"name": "balanceOf",
					"outputs": [
						{
							"internalType": "uint256",
							"name": "",
							"type": "uint256"
						}
					],
					"stateMutability": "view",
					"type": "function"
				},
				{
					"inputs": [],
					"name": "decimals",
					"outputs": [
						{
							"internalType": "uint8",
							"name": "",
							"type": "uint8"
						}
					],
					"stateMutability": "view",
					"type": "function"
				},
				{
					"inputs": [],
					"name": "name",
					"outputs": [
						{
							"internalType": "string",
							"name": "",
							"type": "string"
						}
					],
					"stateMutability": "view",
					"type": "function"
				},
				{
					"inputs": [],
					"name": "symbol",
					"outputs": [
						{
							"internalType": "string",
							"name": "",
							"type": "string"
						}
					],
					"stateMutability": "view",
					"type": "function"
				},
				{
					"inputs": [],
					"name": "totalSupply",
					"outputs": [
						{
							"internalType": "uint256",
							"name": "",
							"type": "uint256"
						}
					],
					"stateMutability": "view",
					"type": "function"
				},
				{
					"inputs": [
						{
							"internalType": "address",
							"name": "_to",
							"type": "address"
						},
						{
							"internalType": "uint256",
							"name": "_value",
							"type": "uint256"
						}
					],
					"name": "transfer",
					"outputs": [
						{
							"internalType": "bool",
							"name": "success",
							"type": "bool"
						}
					],
					"stateMutability": "nonpayable",
					"type": "function"
				}
			],
			"devdoc": {
				"kind": "dev",
				"methods": {},
				"version": 1
			},
			"evm": {
				"assembly": "    /* \"contracts/Financial Services/Balance.sol\":76:1458  contract TokenBasic {\r... */\n  mstore(0x40, 0x80)\n    /* \"contracts/Financial Services/Balance.sol\":945:1050  constructor (uint256 total){\r... */\n  callvalue\n  dup1\n  iszero\n  tag_1\n  jumpi\n  0x00\n  dup1\n  revert\ntag_1:\n  pop\n  mload(0x40)\n  sub(codesize, bytecodeSize)\n  dup1\n  bytecodeSize\n  dup4\n  codecopy\n  dup2\n  dup2\n  add\n  0x40\n  mstore\n  dup2\n  add\n  swap1\n  tag_2\n  swap2\n  swap1\n  tag_3\n  jump\t// in\ntag_2:\n    /* \"contracts/Financial Services/Balance.sol\":998:1003  total */\n  dup1\n    /* \"contracts/Financial Services/Balance.sol\":983:995  _totalSupply */\n  0x00\n    /* \"contracts/Financial Services/Balance.sol\":983:1003  _totalSupply = total */\n  dup2\n  swap1\n  sstore\n  pop\n    /* \"contracts/Financial Services/Balance.sol\":1037:1042  total */\n  dup1\n    /* \"contracts/Financial Services/Balance.sol\":1014:1022  balances */\n  0x01\n    /* \"contracts/Financial Services/Balance.sol\":1014:1034  balances[msg.sender] */\n  0x00\n    /* \"contracts/Financial Services/Balance.sol\":1023:1033  msg.sender */\n  caller\n    /* \"contracts/Financial Services/Balance.sol\":1014:1034  balances[msg.sender] */\n  0xffffffffffffffffffffffffffffffffffffffff\n  and\n  0xffffffffffffffffffffffffffffffffffffffff\n  and\n  dup2\n  mstore\n  0x20\n  add\n  swap1\n  dup2\n  mstore\n  0x20\n  add\n  0x00\n  keccak256\n    /* \"contracts/Financial Services/Balance.sol\":1014:1042  balances[msg.sender] = total */\n  dup2\n  swap1\n  sstore\n  pop\n    /* \"contracts/Financial Services/Balance.sol\":945:1050  constructor (uint256 total){\r... */\n  pop\n    /* \"contracts/Financial Services/Balance.sol\":76:1458  contract TokenBasic {\r... */\n  jump(tag_6)\n    /* \"#utility.yul\":7:150   */\ntag_8:\n    /* \"#utility.yul\":64:69   */\n  0x00\n    /* \"#utility.yul\":95:101   */\n  dup2\n    /* \"#utility.yul\":89:102   */\n  mload\n    /* \"#utility.yul\":80:102   */\n  swap1\n  pop\n    /* \"#utility.yul\":111:144   */\n  tag_10\n    /* \"#utility.yul\":138:143   */\n  dup2\n    /* \"#utility.yul\":111:144   */\n  tag_11\n  jump\t// in\ntag_10:\n    /* \"#utility.yul\":7:150   */\n  swap3\n  swap2\n  pop\n  pop\n  jump\t// out\n    /* \"#utility.yul\":156:507   */\ntag_3:\n    /* \"#utility.yul\":226:232   */\n  0x00\n    /* \"#utility.yul\":275:277   */\n  0x20\n    /* \"#utility.yul\":263:272   */\n  dup3\n    /* \"#utility.yul\":254:261   */\n  dup5\n    /* \"#utility.yul\":250:273   */\n  sub\n    /* \"#utility.yul\":246:278   */\n  slt\n    /* \"#utility.yul\":243:362   */\n  iszero\n  tag_13\n  jumpi\n    /* \"#utility.yul\":281:360   */\n  tag_14\n  tag_15\n  jump\t// in\ntag_14:\n    /* \"#utility.yul\":243:362   */\ntag_13:\n    /* \"#utility.yul\":401:402   */\n  0x00\n    /* \"#utility.yul\":426:490   */\n  tag_16\n    /* \"#utility.yul\":482:489   */\n  dup5\n    /* \"#utility.yul\":473:479   */\n  dup3\n    /* \"#utility.yul\":462:471   */\n  dup6\n    /* \"#utility.yul\":458:480   */\n  add\n    /* \"#utility.yul\":426:490   */\n  tag_8\n  jump\t// in\ntag_16:\n    /* \"#utility.yul\":416:490   */\n  swap2\n  pop\n    /* \"#utility.yul\":372:500   */\n  pop\n    /* \"#utility.yul\":156:507   */\n  swap3\n  swap2\n  pop\n  pop\n  jump\t// out\n    /* \"#utility.yul\":594:671   */\ntag_19:\n    /* \"#utility.yul\":631:638   */\n  0x00\n    /* \"#utility.yul\":660:665   */\n  dup2\n    /* \"#utility.yul\":649:665   */\n  swap1\n  pop\n    /* \"#utility.yul\":594:671   */\n  swap2\n  swap1\n  pop\n  jump\t// out\n    /* \"#utility.yul\":800:917   */\ntag_15:\n    /* \"#utility.yul\":909:910   */\n  0x00\n    /* \"#utility.yul\":906:907   */\n  dup1\n    /* \"#utility.yul\":899:911   */\n  revert\n    /* \"#utility.yul\":923:1045   */\ntag_11:\n    /* \"#utility.yul\":996:1020   */\n  tag_25\n    /* \"#utility.yul\":1014:1019   */\n  dup2\n    /* \"#utility.yul\":996:1020   */\n  tag_19\n  jump\t// in\ntag_25:\n    /* \"#utility.yul\":989:994   */\n  dup2\n    /* \"#utility.yul\":986:1021   */\n  eq\n    /* \"#utility.yul\":976:1039   */\n  tag_26\n  jumpi\n    /* \"#utility.yul\":1035:1036   */\n  0x00\n    /* \"#utility.yul\":1032:1033   */\n  dup1\n    /* \"#utility.yul\":1025:1037   */\n  revert\n    /* \"#utility.yul\":976:1039   */\ntag_26:\n    /* \"#utility.yul\":923:1045   */\n  pop\n  jump\t// out\n    /* \"contracts/Financial Services/Balance.sol\":76:1458  contract TokenBasic {\r... */\ntag_6:\n  dataSize(sub_0)\n  dup1\n  dataOffset(sub_0)\n  0x00\n  codecopy\n  0x00\n  return\nstop\n\nsub_0: assembly {\n        /* \"contracts/Financial Services/Balance.sol\":76:1458  contract TokenBasic {\r... */\n      mstore(0x40, 0x80)\n      callvalue\n      dup1\n      iszero\n      tag_1\n      jumpi\n      0x00\n      dup1\n      revert\n    tag_1:\n      pop\n      jumpi(tag_2, lt(calldatasize, 0x04))\n      shr(0xe0, calldataload(0x00))\n      dup1\n      0x06fdde03\n      eq\n      tag_3\n      jumpi\n      dup1\n      0x18160ddd\n      eq\n      tag_4\n      jumpi\n      dup1\n      0x313ce567\n      eq\n      tag_5\n      jumpi\n      dup1\n      0x70a08231\n      eq\n      tag_6\n      jumpi\n      dup1\n      0x95d89b41\n      eq\n      tag_7\n      jumpi\n      dup1\n      0xa9059cbb\n      eq\n      tag_8\n      jumpi\n    tag_2:\n      0x00\n      dup1\n      revert\n        /* \"contracts/Financial Services/Balance.sol\":105:147  string public constant name = \"PlatziCoin\" */\n    tag_3:\n      tag_9\n      tag_10\n      jump\t// in\n    tag_9:\n      mload(0x40)\n      tag_11\n      swap2\n      swap1\n      tag_12\n      jump\t// in\n    tag_11:\n      mload(0x40)\n      dup1\n      swap2\n      sub\n      swap1\n      return\n        /* \"contracts/Financial Services/Balance.sol\":1058:1198  function totalSupply() public view returns (uint256) { //Devolver la cantidad total de supply del token\r... */\n    tag_4:\n      tag_13\n      tag_14\n      jump\t// in\n    tag_13:\n      mload(0x40)\n      tag_15\n      swap2\n      swap1\n      tag_16\n      jump\t// in\n    tag_15:\n      mload(0x40)\n      dup1\n      swap2\n      sub\n      swap1\n      return\n        /* \"contracts/Financial Services/Balance.sol\":238:273  uint8 public constant decimals = 18 */\n    tag_5:\n      tag_17\n      tag_18\n      jump\t// in\n    tag_17:\n      mload(0x40)\n      tag_19\n      swap2\n      swap1\n      tag_20\n      jump\t// in\n    tag_19:\n      mload(0x40)\n      dup1\n      swap2\n      sub\n      swap1\n      return\n        /* \"contracts/Financial Services/Balance.sol\":1206:1352  function balanceOf(address _owner) public view returns (uint) { //Devolver el balance de la cuenta actual\r... */\n    tag_6:\n      tag_21\n      0x04\n      dup1\n      calldatasize\n      sub\n      dup2\n      add\n      swap1\n      tag_22\n      swap2\n      swap1\n      tag_23\n      jump\t// in\n    tag_22:\n      tag_24\n      jump\t// in\n    tag_21:\n      mload(0x40)\n      tag_25\n      swap2\n      swap1\n      tag_16\n      jump\t// in\n    tag_25:\n      mload(0x40)\n      dup1\n      swap2\n      sub\n      swap1\n      return\n        /* \"contracts/Financial Services/Balance.sol\":173:210  string public constant symbol = \"PZC\" */\n    tag_7:\n      tag_26\n      tag_27\n      jump\t// in\n    tag_26:\n      mload(0x40)\n      tag_28\n      swap2\n      swap1\n      tag_12\n      jump\t// in\n    tag_28:\n      mload(0x40)\n      dup1\n      swap2\n      sub\n      swap1\n      return\n        /* \"contracts/Financial Services/Balance.sol\":1360:1455  function transfer(address _to, uint256 _value) public returns (bool success) {\r... */\n    tag_8:\n      tag_29\n      0x04\n      dup1\n      calldatasize\n      sub\n      dup2\n      add\n      swap1\n      tag_30\n      swap2\n      swap1\n      tag_31\n      jump\t// in\n    tag_30:\n      tag_32\n      jump\t// in\n    tag_29:\n      mload(0x40)\n      tag_33\n      swap2\n      swap1\n      tag_34\n      jump\t// in\n    tag_33:\n      mload(0x40)\n      dup1\n      swap2\n      sub\n      swap1\n      return\n        /* \"contracts/Financial Services/Balance.sol\":105:147  string public constant name = \"PlatziCoin\" */\n    tag_10:\n      mload(0x40)\n      dup1\n      0x40\n      add\n      0x40\n      mstore\n      dup1\n      0x0a\n      dup2\n      mstore\n      0x20\n      add\n      0x506c61747a69436f696e00000000000000000000000000000000000000000000\n      dup2\n      mstore\n      pop\n      dup2\n      jump\t// out\n        /* \"contracts/Financial Services/Balance.sol\":1058:1198  function totalSupply() public view returns (uint256) { //Devolver la cantidad total de supply del token\r... */\n    tag_14:\n        /* \"contracts/Financial Services/Balance.sol\":1102:1109  uint256 */\n      0x00\n        /* \"contracts/Financial Services/Balance.sol\":1178:1190  _totalSupply */\n      dup1\n      sload\n        /* \"contracts/Financial Services/Balance.sol\":1171:1190  return _totalSupply */\n      swap1\n      pop\n        /* \"contracts/Financial Services/Balance.sol\":1058:1198  function totalSupply() public view returns (uint256) { //Devolver la cantidad total de supply del token\r... */\n      swap1\n      jump\t// out\n        /* \"contracts/Financial Services/Balance.sol\":238:273  uint8 public constant decimals = 18 */\n    tag_18:\n        /* \"contracts/Financial Services/Balance.sol\":271:273  18 */\n      0x12\n        /* \"contracts/Financial Services/Balance.sol\":238:273  uint8 public constant decimals = 18 */\n      dup2\n      jump\t// out\n        /* \"contracts/Financial Services/Balance.sol\":1206:1352  function balanceOf(address _owner) public view returns (uint) { //Devolver el balance de la cuenta actual\r... */\n    tag_24:\n        /* \"contracts/Financial Services/Balance.sol\":1262:1266  uint */\n      0x00\n        /* \"contracts/Financial Services/Balance.sol\":1328:1336  balances */\n      0x01\n        /* \"contracts/Financial Services/Balance.sol\":1328:1344  balances[_owner] */\n      0x00\n        /* \"contracts/Financial Services/Balance.sol\":1337:1343  _owner */\n      dup4\n        /* \"contracts/Financial Services/Balance.sol\":1328:1344  balances[_owner] */\n      0xffffffffffffffffffffffffffffffffffffffff\n      and\n      0xffffffffffffffffffffffffffffffffffffffff\n      and\n      dup2\n      mstore\n      0x20\n      add\n      swap1\n      dup2\n      mstore\n      0x20\n      add\n      0x00\n      keccak256\n      sload\n        /* \"contracts/Financial Services/Balance.sol\":1321:1344  return balances[_owner] */\n      swap1\n      pop\n        /* \"contracts/Financial Services/Balance.sol\":1206:1352  function balanceOf(address _owner) public view returns (uint) { //Devolver el balance de la cuenta actual\r... */\n      swap2\n      swap1\n      pop\n      jump\t// out\n        /* \"contracts/Financial Services/Balance.sol\":173:210  string public constant symbol = \"PZC\" */\n    tag_27:\n      mload(0x40)\n      dup1\n      0x40\n      add\n      0x40\n      mstore\n      dup1\n      0x03\n      dup2\n      mstore\n      0x20\n      add\n      0x505a430000000000000000000000000000000000000000000000000000000000\n      dup2\n      mstore\n      pop\n      dup2\n      jump\t// out\n        /* \"contracts/Financial Services/Balance.sol\":1360:1455  function transfer(address _to, uint256 _value) public returns (bool success) {\r... */\n    tag_32:\n        /* \"contracts/Financial Services/Balance.sol\":1423:1435  bool success */\n      0x00\n        /* \"contracts/Financial Services/Balance.sol\":1360:1455  function transfer(address _to, uint256 _value) public returns (bool success) {\r... */\n      swap3\n      swap2\n      pop\n      pop\n      jump\t// out\n        /* \"#utility.yul\":7:146   */\n    tag_39:\n        /* \"#utility.yul\":53:58   */\n      0x00\n        /* \"#utility.yul\":91:97   */\n      dup2\n        /* \"#utility.yul\":78:98   */\n      calldataload\n        /* \"#utility.yul\":69:98   */\n      swap1\n      pop\n        /* \"#utility.yul\":107:140   */\n      tag_41\n        /* \"#utility.yul\":134:139   */\n      dup2\n        /* \"#utility.yul\":107:140   */\n      tag_42\n      jump\t// in\n    tag_41:\n        /* \"#utility.yul\":7:146   */\n      swap3\n      swap2\n      pop\n      pop\n      jump\t// out\n        /* \"#utility.yul\":152:291   */\n    tag_43:\n        /* \"#utility.yul\":198:203   */\n      0x00\n        /* \"#utility.yul\":236:242   */\n      dup2\n        /* \"#utility.yul\":223:243   */\n      calldataload\n        /* \"#utility.yul\":214:243   */\n      swap1\n      pop\n        /* \"#utility.yul\":252:285   */\n      tag_45\n        /* \"#utility.yul\":279:284   */\n      dup2\n        /* \"#utility.yul\":252:285   */\n      tag_46\n      jump\t// in\n    tag_45:\n        /* \"#utility.yul\":152:291   */\n      swap3\n      swap2\n      pop\n      pop\n      jump\t// out\n        /* \"#utility.yul\":297:626   */\n    tag_23:\n        /* \"#utility.yul\":356:362   */\n      0x00\n        /* \"#utility.yul\":405:407   */\n      0x20\n        /* \"#utility.yul\":393:402   */\n      dup3\n        /* \"#utility.yul\":384:391   */\n      dup5\n        /* \"#utility.yul\":380:403   */\n      sub\n        /* \"#utility.yul\":376:408   */\n      slt\n        /* \"#utility.yul\":373:492   */\n      iszero\n      tag_48\n      jumpi\n        /* \"#utility.yul\":411:490   */\n      tag_49\n      tag_50\n      jump\t// in\n    tag_49:\n        /* \"#utility.yul\":373:492   */\n    tag_48:\n        /* \"#utility.yul\":531:532   */\n      0x00\n        /* \"#utility.yul\":556:609   */\n      tag_51\n        /* \"#utility.yul\":601:608   */\n      dup5\n        /* \"#utility.yul\":592:598   */\n      dup3\n        /* \"#utility.yul\":581:590   */\n      dup6\n        /* \"#utility.yul\":577:599   */\n      add\n        /* \"#utility.yul\":556:609   */\n      tag_39\n      jump\t// in\n    tag_51:\n        /* \"#utility.yul\":546:609   */\n      swap2\n      pop\n        /* \"#utility.yul\":502:619   */\n      pop\n        /* \"#utility.yul\":297:626   */\n      swap3\n      swap2\n      pop\n      pop\n      jump\t// out\n        /* \"#utility.yul\":632:1106   */\n    tag_31:\n        /* \"#utility.yul\":700:706   */\n      0x00\n        /* \"#utility.yul\":708:714   */\n      dup1\n        /* \"#utility.yul\":757:759   */\n      0x40\n        /* \"#utility.yul\":745:754   */\n      dup4\n        /* \"#utility.yul\":736:743   */\n      dup6\n        /* \"#utility.yul\":732:755   */\n      sub\n        /* \"#utility.yul\":728:760   */\n      slt\n        /* \"#utility.yul\":725:844   */\n      iszero\n      tag_53\n      jumpi\n        /* \"#utility.yul\":763:842   */\n      tag_54\n      tag_50\n      jump\t// in\n    tag_54:\n        /* \"#utility.yul\":725:844   */\n    tag_53:\n        /* \"#utility.yul\":883:884   */\n      0x00\n        /* \"#utility.yul\":908:961   */\n      tag_55\n        /* \"#utility.yul\":953:960   */\n      dup6\n        /* \"#utility.yul\":944:950   */\n      dup3\n        /* \"#utility.yul\":933:942   */\n      dup7\n        /* \"#utility.yul\":929:951   */\n      add\n        /* \"#utility.yul\":908:961   */\n      tag_39\n      jump\t// in\n    tag_55:\n        /* \"#utility.yul\":898:961   */\n      swap3\n      pop\n        /* \"#utility.yul\":854:971   */\n      pop\n        /* \"#utility.yul\":1010:1012   */\n      0x20\n        /* \"#utility.yul\":1036:1089   */\n      tag_56\n        /* \"#utility.yul\":1081:1088   */\n      dup6\n        /* \"#utility.yul\":1072:1078   */\n      dup3\n        /* \"#utility.yul\":1061:1070   */\n      dup7\n        /* \"#utility.yul\":1057:1079   */\n      add\n        /* \"#utility.yul\":1036:1089   */\n      tag_43\n      jump\t// in\n    tag_56:\n        /* \"#utility.yul\":1026:1089   */\n      swap2\n      pop\n        /* \"#utility.yul\":981:1099   */\n      pop\n        /* \"#utility.yul\":632:1106   */\n      swap3\n      pop\n      swap3\n      swap1\n      pop\n      jump\t// out\n        /* \"#utility.yul\":1112:1221   */\n    tag_57:\n        /* \"#utility.yul\":1193:1214   */\n      tag_59\n        /* \"#utility.yul\":1208:1213   */\n      dup2\n        /* \"#utility.yul\":1193:1214   */\n      tag_60\n      jump\t// in\n    tag_59:\n        /* \"#utility.yul\":1188:1191   */\n      dup3\n        /* \"#utility.yul\":1181:1215   */\n      mstore\n        /* \"#utility.yul\":1112:1221   */\n      pop\n      pop\n      jump\t// out\n        /* \"#utility.yul\":1227:1591   */\n    tag_61:\n        /* \"#utility.yul\":1315:1318   */\n      0x00\n        /* \"#utility.yul\":1343:1382   */\n      tag_63\n        /* \"#utility.yul\":1376:1381   */\n      dup3\n        /* \"#utility.yul\":1343:1382   */\n      tag_64\n      jump\t// in\n    tag_63:\n        /* \"#utility.yul\":1398:1469   */\n      tag_65\n        /* \"#utility.yul\":1462:1468   */\n      dup2\n        /* \"#utility.yul\":1457:1460   */\n      dup6\n        /* \"#utility.yul\":1398:1469   */\n      tag_66\n      jump\t// in\n    tag_65:\n        /* \"#utility.yul\":1391:1469   */\n      swap4\n      pop\n        /* \"#utility.yul\":1478:1530   */\n      tag_67\n        /* \"#utility.yul\":1523:1529   */\n      dup2\n        /* \"#utility.yul\":1518:1521   */\n      dup6\n        /* \"#utility.yul\":1511:1515   */\n      0x20\n        /* \"#utility.yul\":1504:1509   */\n      dup7\n        /* \"#utility.yul\":1500:1516   */\n      add\n        /* \"#utility.yul\":1478:1530   */\n      tag_68\n      jump\t// in\n    tag_67:\n        /* \"#utility.yul\":1555:1584   */\n      tag_69\n        /* \"#utility.yul\":1577:1583   */\n      dup2\n        /* \"#utility.yul\":1555:1584   */\n      tag_70\n      jump\t// in\n    tag_69:\n        /* \"#utility.yul\":1550:1553   */\n      dup5\n        /* \"#utility.yul\":1546:1585   */\n      add\n        /* \"#utility.yul\":1539:1585   */\n      swap2\n      pop\n        /* \"#utility.yul\":1319:1591   */\n      pop\n        /* \"#utility.yul\":1227:1591   */\n      swap3\n      swap2\n      pop\n      pop\n      jump\t// out\n        /* \"#utility.yul\":1597:1715   */\n    tag_71:\n        /* \"#utility.yul\":1684:1708   */\n      tag_73\n        /* \"#utility.yul\":1702:1707   */\n      dup2\n        /* \"#utility.yul\":1684:1708   */\n      tag_74\n      jump\t// in\n    tag_73:\n        /* \"#utility.yul\":1679:1682   */\n      dup3\n        /* \"#utility.yul\":1672:1709   */\n      mstore\n        /* \"#utility.yul\":1597:1715   */\n      pop\n      pop\n      jump\t// out\n        /* \"#utility.yul\":1721:1833   */\n    tag_75:\n        /* \"#utility.yul\":1804:1826   */\n      tag_77\n        /* \"#utility.yul\":1820:1825   */\n      dup2\n        /* \"#utility.yul\":1804:1826   */\n      tag_78\n      jump\t// in\n    tag_77:\n        /* \"#utility.yul\":1799:1802   */\n      dup3\n        /* \"#utility.yul\":1792:1827   */\n      mstore\n        /* \"#utility.yul\":1721:1833   */\n      pop\n      pop\n      jump\t// out\n        /* \"#utility.yul\":1839:2049   */\n    tag_34:\n        /* \"#utility.yul\":1926:1930   */\n      0x00\n        /* \"#utility.yul\":1964:1966   */\n      0x20\n        /* \"#utility.yul\":1953:1962   */\n      dup3\n        /* \"#utility.yul\":1949:1967   */\n      add\n        /* \"#utility.yul\":1941:1967   */\n      swap1\n      pop\n        /* \"#utility.yul\":1977:2042   */\n      tag_80\n        /* \"#utility.yul\":2039:2040   */\n      0x00\n        /* \"#utility.yul\":2028:2037   */\n      dup4\n        /* \"#utility.yul\":2024:2041   */\n      add\n        /* \"#utility.yul\":2015:2021   */\n      dup5\n        /* \"#utility.yul\":1977:2042   */\n      tag_57\n      jump\t// in\n    tag_80:\n        /* \"#utility.yul\":1839:2049   */\n      swap3\n      swap2\n      pop\n      pop\n      jump\t// out\n        /* \"#utility.yul\":2055:2368   */\n    tag_12:\n        /* \"#utility.yul\":2168:2172   */\n      0x00\n        /* \"#utility.yul\":2206:2208   */\n      0x20\n        /* \"#utility.yul\":2195:2204   */\n      dup3\n        /* \"#utility.yul\":2191:2209   */\n      add\n        /* \"#utility.yul\":2183:2209   */\n      swap1\n      pop\n        /* \"#utility.yul\":2255:2264   */\n      dup2\n        /* \"#utility.yul\":2249:2253   */\n      dup2\n        /* \"#utility.yul\":2245:2265   */\n      sub\n        /* \"#utility.yul\":2241:2242   */\n      0x00\n        /* \"#utility.yul\":2230:2239   */\n      dup4\n        /* \"#utility.yul\":2226:2243   */\n      add\n        /* \"#utility.yul\":2219:2266   */\n      mstore\n        /* \"#utility.yul\":2283:2361   */\n      tag_82\n        /* \"#utility.yul\":2356:2360   */\n      dup2\n        /* \"#utility.yul\":2347:2353   */\n      dup5\n        /* \"#utility.yul\":2283:2361   */\n      tag_61\n      jump\t// in\n    tag_82:\n        /* \"#utility.yul\":2275:2361   */\n      swap1\n      pop\n        /* \"#utility.yul\":2055:2368   */\n      swap3\n      swap2\n      pop\n      pop\n      jump\t// out\n        /* \"#utility.yul\":2374:2596   */\n    tag_16:\n        /* \"#utility.yul\":2467:2471   */\n      0x00\n        /* \"#utility.yul\":2505:2507   */\n      0x20\n        /* \"#utility.yul\":2494:2503   */\n      dup3\n        /* \"#utility.yul\":2490:2508   */\n      add\n        /* \"#utility.yul\":2482:2508   */\n      swap1\n      pop\n        /* \"#utility.yul\":2518:2589   */\n      tag_84\n        /* \"#utility.yul\":2586:2587   */\n      0x00\n        /* \"#utility.yul\":2575:2584   */\n      dup4\n        /* \"#utility.yul\":2571:2588   */\n      add\n        /* \"#utility.yul\":2562:2568   */\n      dup5\n        /* \"#utility.yul\":2518:2589   */\n      tag_71\n      jump\t// in\n    tag_84:\n        /* \"#utility.yul\":2374:2596   */\n      swap3\n      swap2\n      pop\n      pop\n      jump\t// out\n        /* \"#utility.yul\":2602:2816   */\n    tag_20:\n        /* \"#utility.yul\":2691:2695   */\n      0x00\n        /* \"#utility.yul\":2729:2731   */\n      0x20\n        /* \"#utility.yul\":2718:2727   */\n      dup3\n        /* \"#utility.yul\":2714:2732   */\n      add\n        /* \"#utility.yul\":2706:2732   */\n      swap1\n      pop\n        /* \"#utility.yul\":2742:2809   */\n      tag_86\n        /* \"#utility.yul\":2806:2807   */\n      0x00\n        /* \"#utility.yul\":2795:2804   */\n      dup4\n        /* \"#utility.yul\":2791:2808   */\n      add\n        /* \"#utility.yul\":2782:2788   */\n      dup5\n        /* \"#utility.yul\":2742:2809   */\n      tag_75\n      jump\t// in\n    tag_86:\n        /* \"#utility.yul\":2602:2816   */\n      swap3\n      swap2\n      pop\n      pop\n      jump\t// out\n        /* \"#utility.yul\":2903:3002   */\n    tag_64:\n        /* \"#utility.yul\":2955:2961   */\n      0x00\n        /* \"#utility.yul\":2989:2994   */\n      dup2\n        /* \"#utility.yul\":2983:2995   */\n      mload\n        /* \"#utility.yul\":2973:2995   */\n      swap1\n      pop\n        /* \"#utility.yul\":2903:3002   */\n      swap2\n      swap1\n      pop\n      jump\t// out\n        /* \"#utility.yul\":3008:3177   */\n    tag_66:\n        /* \"#utility.yul\":3092:3103   */\n      0x00\n        /* \"#utility.yul\":3126:3132   */\n      dup3\n        /* \"#utility.yul\":3121:3124   */\n      dup3\n        /* \"#utility.yul\":3114:3133   */\n      mstore\n        /* \"#utility.yul\":3166:3170   */\n      0x20\n        /* \"#utility.yul\":3161:3164   */\n      dup3\n        /* \"#utility.yul\":3157:3171   */\n      add\n        /* \"#utility.yul\":3142:3171   */\n      swap1\n      pop\n        /* \"#utility.yul\":3008:3177   */\n      swap3\n      swap2\n      pop\n      pop\n      jump\t// out\n        /* \"#utility.yul\":3183:3279   */\n    tag_91:\n        /* \"#utility.yul\":3220:3227   */\n      0x00\n        /* \"#utility.yul\":3249:3273   */\n      tag_93\n        /* \"#utility.yul\":3267:3272   */\n      dup3\n        /* \"#utility.yul\":3249:3273   */\n      tag_94\n      jump\t// in\n    tag_93:\n        /* \"#utility.yul\":3238:3273   */\n      swap1\n      pop\n        /* \"#utility.yul\":3183:3279   */\n      swap2\n      swap1\n      pop\n      jump\t// out\n        /* \"#utility.yul\":3285:3375   */\n    tag_60:\n        /* \"#utility.yul\":3319:3326   */\n      0x00\n        /* \"#utility.yul\":3362:3367   */\n      dup2\n        /* \"#utility.yul\":3355:3368   */\n      iszero\n        /* \"#utility.yul\":3348:3369   */\n      iszero\n        /* \"#utility.yul\":3337:3369   */\n      swap1\n      pop\n        /* \"#utility.yul\":3285:3375   */\n      swap2\n      swap1\n      pop\n      jump\t// out\n        /* \"#utility.yul\":3381:3507   */\n    tag_94:\n        /* \"#utility.yul\":3418:3425   */\n      0x00\n        /* \"#utility.yul\":3458:3500   */\n      0xffffffffffffffffffffffffffffffffffffffff\n        /* \"#utility.yul\":3451:3456   */\n      dup3\n        /* \"#utility.yul\":3447:3501   */\n      and\n        /* \"#utility.yul\":3436:3501   */\n      swap1\n      pop\n        /* \"#utility.yul\":3381:3507   */\n      swap2\n      swap1\n      pop\n      jump\t// out\n        /* \"#utility.yul\":3513:3590   */\n    tag_74:\n        /* \"#utility.yul\":3550:3557   */\n      0x00\n        /* \"#utility.yul\":3579:3584   */\n      dup2\n        /* \"#utility.yul\":3568:3584   */\n      swap1\n      pop\n        /* \"#utility.yul\":3513:3590   */\n      swap2\n      swap1\n      pop\n      jump\t// out\n        /* \"#utility.yul\":3596:3682   */\n    tag_78:\n        /* \"#utility.yul\":3631:3638   */\n      0x00\n        /* \"#utility.yul\":3671:3675   */\n      0xff\n        /* \"#utility.yul\":3664:3669   */\n      dup3\n        /* \"#utility.yul\":3660:3676   */\n      and\n        /* \"#utility.yul\":3649:3676   */\n      swap1\n      pop\n        /* \"#utility.yul\":3596:3682   */\n      swap2\n      swap1\n      pop\n      jump\t// out\n        /* \"#utility.yul\":3688:3995   */\n    tag_68:\n        /* \"#utility.yul\":3756:3757   */\n      0x00\n        /* \"#utility.yul\":3766:3879   */\n    tag_100:\n        /* \"#utility.yul\":3780:3786   */\n      dup4\n        /* \"#utility.yul\":3777:3778   */\n      dup2\n        /* \"#utility.yul\":3774:3787   */\n      lt\n        /* \"#utility.yul\":3766:3879   */\n      iszero\n      tag_102\n      jumpi\n        /* \"#utility.yul\":3865:3866   */\n      dup1\n        /* \"#utility.yul\":3860:3863   */\n      dup3\n        /* \"#utility.yul\":3856:3867   */\n      add\n        /* \"#utility.yul\":3850:3868   */\n      mload\n        /* \"#utility.yul\":3846:3847   */\n      dup2\n        /* \"#utility.yul\":3841:3844   */\n      dup5\n        /* \"#utility.yul\":3837:3848   */\n      add\n        /* \"#utility.yul\":3830:3869   */\n      mstore\n        /* \"#utility.yul\":3802:3804   */\n      0x20\n        /* \"#utility.yul\":3799:3800   */\n      dup2\n        /* \"#utility.yul\":3795:3805   */\n      add\n        /* \"#utility.yul\":3790:3805   */\n      swap1\n      pop\n        /* \"#utility.yul\":3766:3879   */\n      jump(tag_100)\n    tag_102:\n        /* \"#utility.yul\":3897:3903   */\n      dup4\n        /* \"#utility.yul\":3894:3895   */\n      dup2\n        /* \"#utility.yul\":3891:3904   */\n      gt\n        /* \"#utility.yul\":3888:3989   */\n      iszero\n      tag_103\n      jumpi\n        /* \"#utility.yul\":3977:3978   */\n      0x00\n        /* \"#utility.yul\":3968:3974   */\n      dup5\n        /* \"#utility.yul\":3963:3966   */\n      dup5\n        /* \"#utility.yul\":3959:3975   */\n      add\n        /* \"#utility.yul\":3952:3979   */\n      mstore\n        /* \"#utility.yul\":3888:3989   */\n    tag_103:\n        /* \"#utility.yul\":3737:3995   */\n      pop\n        /* \"#utility.yul\":3688:3995   */\n      pop\n      pop\n      pop\n      jump\t// out\n        /* \"#utility.yul\":4124:4241   */\n    tag_50:\n        /* \"#utility.yul\":4233:4234   */\n      0x00\n        /* \"#utility.yul\":4230:4231   */\n      dup1\n        /* \"#utility.yul\":4223:4235   */\n      revert\n        /* \"#utility.yul\":4247:4349   */\n    tag_70:\n        /* \"#utility.yul\":4288:4294   */\n      0x00\n        /* \"#utility.yul\":4339:4341   */\n      0x1f\n        /* \"#utility.yul\":4335:4342   */\n      not\n        /* \"#utility.yul\":4330:4332   */\n      0x1f\n        /* \"#utility.yul\":4323:4328   */\n      dup4\n        /* \"#utility.yul\":4319:4333   */\n      add\n        /* \"#utility.yul\":4315:4343   */\n      and\n        /* \"#utility.yul\":4305:4343   */\n      swap1\n      pop\n        /* \"#utility.yul\":4247:4349   */\n      swap2\n      swap1\n      pop\n      jump\t// out\n        /* \"#utility.yul\":4355:4477   */\n    tag_42:\n        /* \"#utility.yul\":4428:4452   */\n      tag_109\n        /* \"#utility.yul\":4446:4451   */\n      dup2\n        /* \"#utility.yul\":4428:4452   */\n      tag_91\n      jump\t// in\n    tag_109:\n        /* \"#utility.yul\":4421:4426   */\n      dup2\n        /* \"#utility.yul\":4418:4453   */\n      eq\n        /* \"#utility.yul\":4408:4471   */\n      tag_110\n      jumpi\n        /* \"#utility.yul\":4467:4468   */\n      0x00\n        /* \"#utility.yul\":4464:4465   */\n      dup1\n        /* \"#utility.yul\":4457:4469   */\n      revert\n        /* \"#utility.yul\":4408:4471   */\n    tag_110:\n        /* \"#utility.yul\":4355:4477   */\n      pop\n      jump\t// out\n        /* \"#utility.yul\":4483:4605   */\n    tag_46:\n        /* \"#utility.yul\":4556:4580   */\n      tag_112\n        /* \"#utility.yul\":4574:4579   */\n      dup2\n        /* \"#utility.yul\":4556:4580   */\n      tag_74\n      jump\t// in\n    tag_112:\n        /* \"#utility.yul\":4549:4554   */\n      dup2\n        /* \"#utility.yul\":4546:4581   */\n      eq\n        /* \"#utility.yul\":4536:4599   */\n      tag_113\n      jumpi\n        /* \"#utility.yul\":4595:4596   */\n      0x00\n        /* \"#utility.yul\":4592:4593   */\n      dup1\n        /* \"#utility.yul\":4585:4597   */\n      revert\n        /* \"#utility.yul\":4536:4599   */\n    tag_113:\n        /* \"#utility.yul\":4483:4605   */\n      pop\n      jump\t// out\n\n    auxdata: 0xa2646970667358221220c413183564bdada74a7fba14eab0cb208797c124d95005799d3db150c6c4731964736f6c63430008070033\n}\n",
				"bytecode": {
					"linkReferences": {},
					"object": "608060405234801561001057600080fd5b5060405161059838038061059883398181016040528101906100329190610098565b8060008190555080600160003373ffffffffffffffffffffffffffffffffffffffff1673ffffffffffffffffffffffffffffffffffffffff16815260200190815260200160002081905550506100eb565b600081519050610092816100d4565b92915050565b6000602082840312156100ae576100ad6100cf565b5b60006100bc84828501610083565b91505092915050565b6000819050919050565b600080fd5b6100dd816100c5565b81146100e857600080fd5b50565b61049e806100fa6000396000f3fe608060405234801561001057600080fd5b50600436106100625760003560e01c806306fdde031461006757806318160ddd14610085578063313ce567146100a357806370a08231146100c157806395d89b41146100f1578063a9059cbb1461010f575b600080fd5b61006f61013f565b60405161007c9190610328565b60405180910390f35b61008d610178565b60405161009a919061034a565b60405180910390f35b6100ab610181565b6040516100b89190610365565b60405180910390f35b6100db60048036038101906100d6919061023a565b610186565b6040516100e8919061034a565b60405180910390f35b6100f96101cf565b6040516101069190610328565b60405180910390f35b61012960048036038101906101249190610267565b610208565b604051610136919061030d565b60405180910390f35b6040518060400160405280600a81526020017f506c61747a69436f696e0000000000000000000000000000000000000000000081525081565b60008054905090565b601281565b6000600160008373ffffffffffffffffffffffffffffffffffffffff1673ffffffffffffffffffffffffffffffffffffffff168152602001908152602001600020549050919050565b6040518060400160405280600381526020017f505a43000000000000000000000000000000000000000000000000000000000081525081565b600092915050565b60008135905061021f8161043a565b92915050565b60008135905061023481610451565b92915050565b6000602082840312156102505761024f610424565b5b600061025e84828501610210565b91505092915050565b6000806040838503121561027e5761027d610424565b5b600061028c85828601610210565b925050602061029d85828601610225565b9150509250929050565b6102b0816103ae565b82525050565b60006102c182610380565b6102cb818561038b565b93506102db8185602086016103f1565b6102e481610429565b840191505092915050565b6102f8816103da565b82525050565b610307816103e4565b82525050565b600060208201905061032260008301846102a7565b92915050565b6000602082019050818103600083015261034281846102b6565b905092915050565b600060208201905061035f60008301846102ef565b92915050565b600060208201905061037a60008301846102fe565b92915050565b600081519050919050565b600082825260208201905092915050565b60006103a7826103ba565b9050919050565b60008115159050919050565b600073ffffffffffffffffffffffffffffffffffffffff82169050919050565b6000819050919050565b600060ff82169050919050565b60005b8381101561040f5780820151818401526020810190506103f4565b8381111561041e576000848401525b50505050565b600080fd5b6000601f19601f8301169050919050565b6104438161039c565b811461044e57600080fd5b50565b61045a816103da565b811461046557600080fd5b5056fea2646970667358221220c413183564bdada74a7fba14eab0cb208797c124d95005799d3db150c6c4731964736f6c63430008070033",
					"opcodes": "PUSH1 0x80 PUSH1 0x40 MSTORE CALLVALUE DUP1 ISZERO PUSH2 0x10 JUMPI PUSH1 0x0 DUP1 REVERT JUMPDEST POP PUSH1 0x40 MLOAD PUSH2 0x598 CODESIZE SUB DUP1 PUSH2 0x598 DUP4 CODECOPY DUP2 DUP2 ADD PUSH1 0x40 MSTORE DUP2 ADD SWAP1 PUSH2 0x32 SWAP2 SWAP1 PUSH2 0x98 JUMP JUMPDEST DUP1 PUSH1 0x0 DUP2 SWAP1 SSTORE POP DUP1 PUSH1 0x1 PUSH1 0x0 CALLER PUSH20 0xFFFFFFFFFFFFFFFFFFFFFFFFFFFFFFFFFFFFFFFF AND PUSH20 0xFFFFFFFFFFFFFFFFFFFFFFFFFFFFFFFFFFFFFFFF AND DUP2 MSTORE PUSH1 0x20 ADD SWAP1 DUP2 MSTORE PUSH1 0x20 ADD PUSH1 0x0 KECCAK256 DUP2 SWAP1 SSTORE POP POP PUSH2 0xEB JUMP JUMPDEST PUSH1 0x0 DUP2 MLOAD SWAP1 POP PUSH2 0x92 DUP2 PUSH2 0xD4 JUMP JUMPDEST SWAP3 SWAP2 POP POP JUMP JUMPDEST PUSH1 0x0 PUSH1 0x20 DUP3 DUP5 SUB SLT ISZERO PUSH2 0xAE JUMPI PUSH2 0xAD PUSH2 0xCF JUMP JUMPDEST JUMPDEST PUSH1 0x0 PUSH2 0xBC DUP5 DUP3 DUP6 ADD PUSH2 0x83 JUMP JUMPDEST SWAP2 POP POP SWAP3 SWAP2 POP POP JUMP JUMPDEST PUSH1 0x0 DUP2 SWAP1 POP SWAP2 SWAP1 POP JUMP JUMPDEST PUSH1 0x0 DUP1 REVERT JUMPDEST PUSH2 0xDD DUP2 PUSH2 0xC5 JUMP JUMPDEST DUP2 EQ PUSH2 0xE8 JUMPI PUSH1 0x0 DUP1 REVERT JUMPDEST POP JUMP JUMPDEST PUSH2 0x49E DUP1 PUSH2 0xFA PUSH1 0x0 CODECOPY PUSH1 0x0 RETURN INVALID PUSH1 0x80 PUSH1 0x40 MSTORE CALLVALUE DUP1 ISZERO PUSH2 0x10 JUMPI PUSH1 0x0 DUP1 REVERT JUMPDEST POP PUSH1 0x4 CALLDATASIZE LT PUSH2 0x62 JUMPI PUSH1 0x0 CALLDATALOAD PUSH1 0xE0 SHR DUP1 PUSH4 0x6FDDE03 EQ PUSH2 0x67 JUMPI DUP1 PUSH4 0x18160DDD EQ PUSH2 0x85 JUMPI DUP1 PUSH4 0x313CE567 EQ PUSH2 0xA3 JUMPI DUP1 PUSH4 0x70A08231 EQ PUSH2 0xC1 JUMPI DUP1 PUSH4 0x95D89B41 EQ PUSH2 0xF1 JUMPI DUP1 PUSH4 0xA9059CBB EQ PUSH2 0x10F JUMPI JUMPDEST PUSH1 0x0 DUP1 REVERT JUMPDEST PUSH2 0x6F PUSH2 0x13F JUMP JUMPDEST PUSH1 0x40 MLOAD PUSH2 0x7C SWAP2 SWAP1 PUSH2 0x328 JUMP JUMPDEST PUSH1 0x40 MLOAD DUP1 SWAP2 SUB SWAP1 RETURN JUMPDEST PUSH2 0x8D PUSH2 0x178 JUMP JUMPDEST PUSH1 0x40 MLOAD PUSH2 0x9A SWAP2 SWAP1 PUSH2 0x34A JUMP JUMPDEST PUSH1 0x40 MLOAD DUP1 SWAP2 SUB SWAP1 RETURN JUMPDEST PUSH2 0xAB PUSH2 0x181 JUMP JUMPDEST PUSH1 0x40 MLOAD PUSH2 0xB8 SWAP2 SWAP1 PUSH2 0x365 JUMP JUMPDEST PUSH1 0x40 MLOAD DUP1 SWAP2 SUB SWAP1 RETURN JUMPDEST PUSH2 0xDB PUSH1 0x4 DUP1 CALLDATASIZE SUB DUP2 ADD SWAP1 PUSH2 0xD6 SWAP2 SWAP1 PUSH2 0x23A JUMP JUMPDEST PUSH2 0x186 JUMP JUMPDEST PUSH1 0x40 MLOAD PUSH2 0xE8 SWAP2 SWAP1 PUSH2 0x34A JUMP JUMPDEST PUSH1 0x40 MLOAD DUP1 SWAP2 SUB SWAP1 RETURN JUMPDEST PUSH2 0xF9 PUSH2 0x1CF JUMP JUMPDEST PUSH1 0x40 MLOAD PUSH2 0x106 SWAP2 SWAP1 PUSH2 0x328 JUMP JUMPDEST PUSH1 0x40 MLOAD DUP1 SWAP2 SUB SWAP1 RETURN JUMPDEST PUSH2 0x129 PUSH1 0x4 DUP1 CALLDATASIZE SUB DUP2 ADD SWAP1 PUSH2 0x124 SWAP2 SWAP1 PUSH2 0x267 JUMP JUMPDEST PUSH2 0x208 JUMP JUMPDEST PUSH1 0x40 MLOAD PUSH2 0x136 SWAP2 SWAP1 PUSH2 0x30D JUMP JUMPDEST PUSH1 0x40 MLOAD DUP1 SWAP2 SUB SWAP1 RETURN JUMPDEST PUSH1 0x40 MLOAD DUP1 PUSH1 0x40 ADD PUSH1 0x40 MSTORE DUP1 PUSH1 0xA DUP2 MSTORE PUSH1 0x20 ADD PUSH32 0x506C61747A69436F696E00000000000000000000000000000000000000000000 DUP2 MSTORE POP DUP2 JUMP JUMPDEST PUSH1 0x0 DUP1 SLOAD SWAP1 POP SWAP1 JUMP JUMPDEST PUSH1 0x12 DUP2 JUMP JUMPDEST PUSH1 0x0 PUSH1 0x1 PUSH1 0x0 DUP4 PUSH20 0xFFFFFFFFFFFFFFFFFFFFFFFFFFFFFFFFFFFFFFFF AND PUSH20 0xFFFFFFFFFFFFFFFFFFFFFFFFFFFFFFFFFFFFFFFF AND DUP2 MSTORE PUSH1 0x20 ADD SWAP1 DUP2 MSTORE PUSH1 0x20 ADD PUSH1 0x0 KECCAK256 SLOAD SWAP1 POP SWAP2 SWAP1 POP JUMP JUMPDEST PUSH1 0x40 MLOAD DUP1 PUSH1 0x40 ADD PUSH1 0x40 MSTORE DUP1 PUSH1 0x3 DUP2 MSTORE PUSH1 0x20 ADD PUSH32 0x505A430000000000000000000000000000000000000000000000000000000000 DUP2 MSTORE POP DUP2 JUMP JUMPDEST PUSH1 0x0 SWAP3 SWAP2 POP POP JUMP JUMPDEST PUSH1 0x0 DUP2 CALLDATALOAD SWAP1 POP PUSH2 0x21F DUP2 PUSH2 0x43A JUMP JUMPDEST SWAP3 SWAP2 POP POP JUMP JUMPDEST PUSH1 0x0 DUP2 CALLDATALOAD SWAP1 POP PUSH2 0x234 DUP2 PUSH2 0x451 JUMP JUMPDEST SWAP3 SWAP2 POP POP JUMP JUMPDEST PUSH1 0x0 PUSH1 0x20 DUP3 DUP5 SUB SLT ISZERO PUSH2 0x250 JUMPI PUSH2 0x24F PUSH2 0x424 JUMP JUMPDEST JUMPDEST PUSH1 0x0 PUSH2 0x25E DUP5 DUP3 DUP6 ADD PUSH2 0x210 JUMP JUMPDEST SWAP2 POP POP SWAP3 SWAP2 POP POP JUMP JUMPDEST PUSH1 0x0 DUP1 PUSH1 0x40 DUP4 DUP6 SUB SLT ISZERO PUSH2 0x27E JUMPI PUSH2 0x27D PUSH2 0x424 JUMP JUMPDEST JUMPDEST PUSH1 0x0 PUSH2 0x28C DUP6 DUP3 DUP7 ADD PUSH2 0x210 JUMP JUMPDEST SWAP3 POP POP PUSH1 0x20 PUSH2 0x29D DUP6 DUP3 DUP7 ADD PUSH2 0x225 JUMP JUMPDEST SWAP2 POP POP SWAP3 POP SWAP3 SWAP1 POP JUMP JUMPDEST PUSH2 0x2B0 DUP2 PUSH2 0x3AE JUMP JUMPDEST DUP3 MSTORE POP POP JUMP JUMPDEST PUSH1 0x0 PUSH2 0x2C1 DUP3 PUSH2 0x380 JUMP JUMPDEST PUSH2 0x2CB DUP2 DUP6 PUSH2 0x38B JUMP JUMPDEST SWAP4 POP PUSH2 0x2DB DUP2 DUP6 PUSH1 0x20 DUP7 ADD PUSH2 0x3F1 JUMP JUMPDEST PUSH2 0x2E4 DUP2 PUSH2 0x429 JUMP JUMPDEST DUP5 ADD SWAP2 POP POP SWAP3 SWAP2 POP POP JUMP JUMPDEST PUSH2 0x2F8 DUP2 PUSH2 0x3DA JUMP JUMPDEST DUP3 MSTORE POP POP JUMP JUMPDEST PUSH2 0x307 DUP2 PUSH2 0x3E4 JUMP JUMPDEST DUP3 MSTORE POP POP JUMP JUMPDEST PUSH1 0x0 PUSH1 0x20 DUP3 ADD SWAP1 POP PUSH2 0x322 PUSH1 0x0 DUP4 ADD DUP5 PUSH2 0x2A7 JUMP JUMPDEST SWAP3 SWAP2 POP POP JUMP JUMPDEST PUSH1 0x0 PUSH1 0x20 DUP3 ADD SWAP1 POP DUP2 DUP2 SUB PUSH1 0x0 DUP4 ADD MSTORE PUSH2 0x342 DUP2 DUP5 PUSH2 0x2B6 JUMP JUMPDEST SWAP1 POP SWAP3 SWAP2 POP POP JUMP JUMPDEST PUSH1 0x0 PUSH1 0x20 DUP3 ADD SWAP1 POP PUSH2 0x35F PUSH1 0x0 DUP4 ADD DUP5 PUSH2 0x2EF JUMP JUMPDEST SWAP3 SWAP2 POP POP JUMP JUMPDEST PUSH1 0x0 PUSH1 0x20 DUP3 ADD SWAP1 POP PUSH2 0x37A PUSH1 0x0 DUP4 ADD DUP5 PUSH2 0x2FE JUMP JUMPDEST SWAP3 SWAP2 POP POP JUMP JUMPDEST PUSH1 0x0 DUP2 MLOAD SWAP1 POP SWAP2 SWAP1 POP JUMP JUMPDEST PUSH1 0x0 DUP3 DUP3 MSTORE PUSH1 0x20 DUP3 ADD SWAP1 POP SWAP3 SWAP2 POP POP JUMP JUMPDEST PUSH1 0x0 PUSH2 0x3A7 DUP3 PUSH2 0x3BA JUMP JUMPDEST SWAP1 POP SWAP2 SWAP1 POP JUMP JUMPDEST PUSH1 0x0 DUP2 ISZERO ISZERO SWAP1 POP SWAP2 SWAP1 POP JUMP JUMPDEST PUSH1 0x0 PUSH20 0xFFFFFFFFFFFFFFFFFFFFFFFFFFFFFFFFFFFFFFFF DUP3 AND SWAP1 POP SWAP2 SWAP1 POP JUMP JUMPDEST PUSH1 0x0 DUP2 SWAP1 POP SWAP2 SWAP1 POP JUMP JUMPDEST PUSH1 0x0 PUSH1 0xFF DUP3 AND SWAP1 POP SWAP2 SWAP1 POP JUMP JUMPDEST PUSH1 0x0 JUMPDEST DUP4 DUP2 LT ISZERO PUSH2 0x40F JUMPI DUP1 DUP3 ADD MLOAD DUP2 DUP5 ADD MSTORE PUSH1 0x20 DUP2 ADD SWAP1 POP PUSH2 0x3F4 JUMP JUMPDEST DUP4 DUP2 GT ISZERO PUSH2 0x41E JUMPI PUSH1 0x0 DUP5 DUP5 ADD MSTORE JUMPDEST POP POP POP POP JUMP JUMPDEST PUSH1 0x0 DUP1 REVERT JUMPDEST PUSH1 0x0 PUSH1 0x1F NOT PUSH1 0x1F DUP4 ADD AND SWAP1 POP SWAP2 SWAP1 POP JUMP JUMPDEST PUSH2 0x443 DUP2 PUSH2 0x39C JUMP JUMPDEST DUP2 EQ PUSH2 0x44E JUMPI PUSH1 0x0 DUP1 REVERT JUMPDEST POP JUMP JUMPDEST PUSH2 0x45A DUP2 PUSH2 0x3DA JUMP JUMPDEST DUP2 EQ PUSH2 0x465 JUMPI PUSH1 0x0 DUP1 REVERT JUMPDEST POP JUMP INVALID LOG2 PUSH5 0x6970667358 0x22 SLT KECCAK256 0xC4 SGT XOR CALLDATALOAD PUSH5 0xBDADA74A7F 0xBA EQ 0xEA 0xB0 0xCB KECCAK256 DUP8 SWAP8 0xC1 0x24 0xD9 POP SDIV PUSH26 0x9D3DB150C6C4731964736F6C6343000807003300000000000000 "
				},
				"gasEstimates": {
					"creation": {
						"codeDepositCost": "236400",
						"executionCost": "infinite",
						"totalCost": "infinite"
					},
					"external": {
						"balanceOf(address)": "2885",
						"decimals()": "357",
						"name()": "infinite",
						"symbol()": "infinite",
						"totalSupply()": "2437",
						"transfer(address,uint256)": "910"
					}
				},
				"methodIdentifiers": {
					"balanceOf(address)": "70a08231",
					"decimals()": "313ce567",
					"name()": "06fdde03",
					"symbol()": "95d89b41",
					"totalSupply()": "18160ddd",
					"transfer(address,uint256)": "a9059cbb"
				}
			},
			"storageLayout": {
				"storage": [
					{
						"astId": 12,
						"contract": "contracts/Financial Services/Balance.sol:TokenBasic",
						"label": "_totalSupply",
						"offset": 0,
						"slot": "0",
						"type": "t_uint256"
					},
					{
						"astId": 16,
						"contract": "contracts/Financial Services/Balance.sol:TokenBasic",
						"label": "balances",
						"offset": 0,
						"slot": "1",
						"type": "t_mapping(t_address,t_uint256)"
					},
					{
						"astId": 22,
						"contract": "contracts/Financial Services/Balance.sol:TokenBasic",
						"label": "allowed",
						"offset": 0,
						"slot": "2",
						"type": "t_mapping(t_address,t_mapping(t_address,t_uint256))"
					}
				],
				"types": {
					"t_address": {
						"encoding": "inplace",
						"label": "address",
						"numberOfBytes": "20"
					},
					"t_mapping(t_address,t_mapping(t_address,t_uint256))": {
						"encoding": "mapping",
						"key": "t_address",
						"label": "mapping(address => mapping(address => uint256))",
						"numberOfBytes": "32",
						"value": "t_mapping(t_address,t_uint256)"
					},
					"t_mapping(t_address,t_uint256)": {
						"encoding": "mapping",
						"key": "t_address",
						"label": "mapping(address => uint256)",
						"numberOfBytes": "32",
						"value": "t_uint256"
					},
					"t_uint256": {
						"encoding": "inplace",
						"label": "uint256",
						"numberOfBytes": "32"
					}
				}
			},
			"userdoc": {
				"kind": "user",
				"methods": {},
				"version": 1
			}
		}
	}
}