{
	"data": {
		"bytecode": {
			"linkReferences": {},
			"object": "60806040523480156200001157600080fd5b5060405162000f0838038062000f08833981810160405281019062000037919062000234565b620000576200004b6200013a60201b60201c565b6200014260201b60201c565b82600160006101000a81548173ffffffffffffffffffffffffffffffffffffffff021916908373ffffffffffffffffffffffffffffffffffffffff16021790555081600260006101000a81548173ffffffffffffffffffffffffffffffffffffffff021916908373ffffffffffffffffffffffffffffffffffffffff160217905550806003819055506000600260146101000a81548160ff0219169083151502179055506000600260156101000a81548160ff0219169083151502179055506000600260166101000a81548160ff02191690831515021790555050505062000307565b600033905090565b60008060009054906101000a900473ffffffffffffffffffffffffffffffffffffffff169050816000806101000a81548173ffffffffffffffffffffffffffffffffffffffff021916908373ffffffffffffffffffffffffffffffffffffffff1602179055508173ffffffffffffffffffffffffffffffffffffffff168173ffffffffffffffffffffffffffffffffffffffff167f8be0079c531659141344cd1fd0a4f28419497f9722a3daafe3b4186f6b6457e060405160405180910390a35050565b6000815190506200021781620002d3565b92915050565b6000815190506200022e81620002ed565b92915050565b60008060006060848603121562000250576200024f620002ce565b5b6000620002608682870162000206565b9350506020620002738682870162000206565b925050604062000286868287016200021d565b9150509250925092565b60006200029d82620002a4565b9050919050565b600073ffffffffffffffffffffffffffffffffffffffff82169050919050565b6000819050919050565b600080fd5b620002de8162000290565b8114620002ea57600080fd5b50565b620002f881620002c4565b81146200030457600080fd5b50565b610bf180620003176000396000f3fe6080604052600436106100c25760003560e01c806389b5ee341161007f578063d624148411610059578063d6241484146101ed578063df7aa62c14610218578063e146e35114610243578063f2fde38b1461025a576100c2565b806389b5ee34146101805780638a397e1d146101ab5780638da5cb5b146101c2576100c2565b80630f50b6e7146100c757806314d8f1e3146100f257806316db9862146101095780631b728aea146101135780633182237f1461013e578063715018a614610169575b600080fd5b3480156100d357600080fd5b506100dc610283565b6040516100e9919061093c565b60405180910390f35b3480156100fe57600080fd5b506101076102a9565b005b610111610356565b005b34801561011f57600080fd5b50610128610447565b6040516101359190610957565b60405180910390f35b34801561014a57600080fd5b5061015361045a565b604051610160919061093c565b60405180910390f35b34801561017557600080fd5b5061017e610480565b005b34801561018c57600080fd5b50610195610494565b6040516101a29190610a12565b60405180910390f35b3480156101b757600080fd5b506101c061049a565b005b3480156101ce57600080fd5b506101d761052a565b6040516101e4919061093c565b60405180910390f35b3480156101f957600080fd5b50610202610553565b60405161020f9190610957565b60405180910390f35b34801561022457600080fd5b5061022d610566565b60405161023a9190610957565b60405180910390f35b34801561024f57600080fd5b50610258610579565b005b34801561026657600080fd5b50610281600480360381019061027c9190610833565b610650565b005b600160009054906101000a900473ffffffffffffffffffffffffffffffffffffffff1681565b600160009054906101000a900473ffffffffffffffffffffffffffffffffffffffff1673ffffffffffffffffffffffffffffffffffffffff163373ffffffffffffffffffffffffffffffffffffffff1614610339576040517f08c379a000000000000000000000000000000000000000000000000000000000815260040161033090610992565b60405180910390fd5b6001600260156101000a81548160ff021916908315150217905550565b600160009054906101000a900473ffffffffffffffffffffffffffffffffffffffff1673ffffffffffffffffffffffffffffffffffffffff163373ffffffffffffffffffffffffffffffffffffffff16146103e6576040517f08c379a00000000000000000000000000000000000000000000000000000000081526004016103dd90610992565b60405180910390fd5b600354341461042a576040517f08c379a0000000000000000000000000000000000000000000000000000000008152600401610421906109f2565b60405180910390fd5b6001600260146101000a81548160ff021916908315150217905550565b600260149054906101000a900460ff1681565b600260009054906101000a900473ffffffffffffffffffffffffffffffffffffffff1681565b6104886106d4565b6104926000610752565b565b60035481565b6104a26106d4565b600160009054906101000a900473ffffffffffffffffffffffffffffffffffffffff1673ffffffffffffffffffffffffffffffffffffffff166108fc6003549081150290604051600060405180830381858888f1935050505015801561050c573d6000803e3d6000fd5b506001600260166101000a81548160ff021916908315150217905550565b60008060009054906101000a900473ffffffffffffffffffffffffffffffffffffffff16905090565b600260169054906101000a900460ff1681565b600260159054906101000a900460ff1681565b600260159054906101000a900460ff166105c8576040517f08c379a00000000000000000000000000000000000000000000000000000000081526004016105bf906109b2565b60405180910390fd5b600260009054906101000a900473ffffffffffffffffffffffffffffffffffffffff1673ffffffffffffffffffffffffffffffffffffffff166108fc6003549081150290604051600060405180830381858888f19350505050158015610632573d6000803e3d6000fd5b506001600260166101000a81548160ff021916908315150217905550565b6106586106d4565b600073ffffffffffffffffffffffffffffffffffffffff168173ffffffffffffffffffffffffffffffffffffffff1614156106c8576040517f08c379a00000000000000000000000000000000000000000000000000000000081526004016106bf90610972565b60405180910390fd5b6106d181610752565b50565b6106dc610816565b73ffffffffffffffffffffffffffffffffffffffff166106fa61052a565b73ffffffffffffffffffffffffffffffffffffffff1614610750576040517f08c379a0000000000000000000000000000000000000000000000000000000008152600401610747906109d2565b60405180910390fd5b565b60008060009054906101000a900473ffffffffffffffffffffffffffffffffffffffff169050816000806101000a81548173ffffffffffffffffffffffffffffffffffffffff021916908373ffffffffffffffffffffffffffffffffffffffff1602179055508173ffffffffffffffffffffffffffffffffffffffff168173ffffffffffffffffffffffffffffffffffffffff167f8be0079c531659141344cd1fd0a4f28419497f9722a3daafe3b4186f6b6457e060405160405180910390a35050565b600033905090565b60008135905061082d81610ba4565b92915050565b60006020828403121561084957610848610a86565b5b60006108578482850161081e565b91505092915050565b61086981610a3e565b82525050565b61087881610a50565b82525050565b600061088b602683610a2d565b915061089682610a8b565b604082019050919050565b60006108ae602083610a2d565b91506108b982610ada565b602082019050919050565b60006108d1602e83610a2d565b91506108dc82610b03565b604082019050919050565b60006108f4602083610a2d565b91506108ff82610b52565b602082019050919050565b6000610917601f83610a2d565b915061092282610b7b565b602082019050919050565b61093681610a7c565b82525050565b60006020820190506109516000830184610860565b92915050565b600060208201905061096c600083018461086f565b92915050565b6000602082019050818103600083015261098b8161087e565b9050919050565b600060208201905081810360008301526109ab816108a1565b9050919050565b600060208201905081810360008301526109cb816108c4565b9050919050565b600060208201905081810360008301526109eb816108e7565b9050919050565b60006020820190508181036000830152610a0b8161090a565b9050919050565b6000602082019050610a27600083018461092d565b92915050565b600082825260208201905092915050565b6000610a4982610a5c565b9050919050565b60008115159050919050565b600073ffffffffffffffffffffffffffffffffffffffff82169050919050565b6000819050919050565b600080fd5b7f4f776e61626c653a206e6577206f776e657220697320746865207a65726f206160008201527f6464726573730000000000000000000000000000000000000000000000000000602082015250565b7f596f752061726520726571756972656420746f20626520746865206275796572600082015250565b7f54686520627579657220686173206e6f7420617070726f76656420746865207460008201527f72616e73616374696f6e20796574000000000000000000000000000000000000602082015250565b7f4f776e61626c653a2063616c6c6572206973206e6f7420746865206f776e6572600082015250565b7f57726f6e672076616c756520666f7220746865207472616e73616374696f6e00600082015250565b610bad81610a3e565b8114610bb857600080fd5b5056fea264697066735822122081823191615b78e3b7c4ad4d065c7eb27565fd3f37da6758b9dd906fe4b0efef64736f6c63430008070033",
			"opcodes": "PUSH1 0x80 PUSH1 0x40 MSTORE CALLVALUE DUP1 ISZERO PUSH3 0x11 JUMPI PUSH1 0x0 DUP1 REVERT JUMPDEST POP PUSH1 0x40 MLOAD PUSH3 0xF08 CODESIZE SUB DUP1 PUSH3 0xF08 DUP4 CODECOPY DUP2 DUP2 ADD PUSH1 0x40 MSTORE DUP2 ADD SWAP1 PUSH3 0x37 SWAP2 SWAP1 PUSH3 0x234 JUMP JUMPDEST PUSH3 0x57 PUSH3 0x4B PUSH3 0x13A PUSH1 0x20 SHL PUSH1 0x20 SHR JUMP JUMPDEST PUSH3 0x142 PUSH1 0x20 SHL PUSH1 0x20 SHR JUMP JUMPDEST DUP3 PUSH1 0x1 PUSH1 0x0 PUSH2 0x100 EXP DUP2 SLOAD DUP2 PUSH20 0xFFFFFFFFFFFFFFFFFFFFFFFFFFFFFFFFFFFFFFFF MUL NOT AND SWAP1 DUP4 PUSH20 0xFFFFFFFFFFFFFFFFFFFFFFFFFFFFFFFFFFFFFFFF AND MUL OR SWAP1 SSTORE POP DUP2 PUSH1 0x2 PUSH1 0x0 PUSH2 0x100 EXP DUP2 SLOAD DUP2 PUSH20 0xFFFFFFFFFFFFFFFFFFFFFFFFFFFFFFFFFFFFFFFF MUL NOT AND SWAP1 DUP4 PUSH20 0xFFFFFFFFFFFFFFFFFFFFFFFFFFFFFFFFFFFFFFFF AND MUL OR SWAP1 SSTORE POP DUP1 PUSH1 0x3 DUP2 SWAP1 SSTORE POP PUSH1 0x0 PUSH1 0x2 PUSH1 0x14 PUSH2 0x100 EXP DUP2 SLOAD DUP2 PUSH1 0xFF MUL NOT AND SWAP1 DUP4 ISZERO ISZERO MUL OR SWAP1 SSTORE POP PUSH1 0x0 PUSH1 0x2 PUSH1 0x15 PUSH2 0x100 EXP DUP2 SLOAD DUP2 PUSH1 0xFF MUL NOT AND SWAP1 DUP4 ISZERO ISZERO MUL OR SWAP1 SSTORE POP PUSH1 0x0 PUSH1 0x2 PUSH1 0x16 PUSH2 0x100 EXP DUP2 SLOAD DUP2 PUSH1 0xFF MUL NOT AND SWAP1 DUP4 ISZERO ISZERO MUL OR SWAP1 SSTORE POP POP POP POP PUSH3 0x307 JUMP JUMPDEST PUSH1 0x0 CALLER SWAP1 POP SWAP1 JUMP JUMPDEST PUSH1 0x0 DUP1 PUSH1 0x0 SWAP1 SLOAD SWAP1 PUSH2 0x100 EXP SWAP1 DIV PUSH20 0xFFFFFFFFFFFFFFFFFFFFFFFFFFFFFFFFFFFFFFFF AND SWAP1 POP DUP2 PUSH1 0x0 DUP1 PUSH2 0x100 EXP DUP2 SLOAD DUP2 PUSH20 0xFFFFFFFFFFFFFFFFFFFFFFFFFFFFFFFFFFFFFFFF MUL NOT AND SWAP1 DUP4 PUSH20 0xFFFFFFFFFFFFFFFFFFFFFFFFFFFFFFFFFFFFFFFF AND MUL OR SWAP1 SSTORE POP DUP2 PUSH20 0xFFFFFFFFFFFFFFFFFFFFFFFFFFFFFFFFFFFFFFFF AND DUP2 PUSH20 0xFFFFFFFFFFFFFFFFFFFFFFFFFFFFFFFFFFFFFFFF AND PUSH32 0x8BE0079C531659141344CD1FD0A4F28419497F9722A3DAAFE3B4186F6B6457E0 PUSH1 0x40 MLOAD PUSH1 0x40 MLOAD DUP1 SWAP2 SUB SWAP1 LOG3 POP POP JUMP JUMPDEST PUSH1 0x0 DUP2 MLOAD SWAP1 POP PUSH3 0x217 DUP2 PUSH3 0x2D3 JUMP JUMPDEST SWAP3 SWAP2 POP POP JUMP JUMPDEST PUSH1 0x0 DUP2 MLOAD SWAP1 POP PUSH3 0x22E DUP2 PUSH3 0x2ED JUMP JUMPDEST SWAP3 SWAP2 POP POP JUMP JUMPDEST PUSH1 0x0 DUP1 PUSH1 0x0 PUSH1 0x60 DUP5 DUP7 SUB SLT ISZERO PUSH3 0x250 JUMPI PUSH3 0x24F PUSH3 0x2CE JUMP JUMPDEST JUMPDEST PUSH1 0x0 PUSH3 0x260 DUP7 DUP3 DUP8 ADD PUSH3 0x206 JUMP JUMPDEST SWAP4 POP POP PUSH1 0x20 PUSH3 0x273 DUP7 DUP3 DUP8 ADD PUSH3 0x206 JUMP JUMPDEST SWAP3 POP POP PUSH1 0x40 PUSH3 0x286 DUP7 DUP3 DUP8 ADD PUSH3 0x21D JUMP JUMPDEST SWAP2 POP POP SWAP3 POP SWAP3 POP SWAP3 JUMP JUMPDEST PUSH1 0x0 PUSH3 0x29D DUP3 PUSH3 0x2A4 JUMP JUMPDEST SWAP1 POP SWAP2 SWAP1 POP JUMP JUMPDEST PUSH1 0x0 PUSH20 0xFFFFFFFFFFFFFFFFFFFFFFFFFFFFFFFFFFFFFFFF DUP3 AND SWAP1 POP SWAP2 SWAP1 POP JUMP JUMPDEST PUSH1 0x0 DUP2 SWAP1 POP SWAP2 SWAP1 POP JUMP JUMPDEST PUSH1 0x0 DUP1 REVERT JUMPDEST PUSH3 0x2DE DUP2 PUSH3 0x290 JUMP JUMPDEST DUP2 EQ PUSH3 0x2EA JUMPI PUSH1 0x0 DUP1 REVERT JUMPDEST POP JUMP JUMPDEST PUSH3 0x2F8 DUP2 PUSH3 0x2C4 JUMP JUMPDEST DUP2 EQ PUSH3 0x304 JUMPI PUSH1 0x0 DUP1 REVERT JUMPDEST POP JUMP JUMPDEST PUSH2 0xBF1 DUP1 PUSH3 0x317 PUSH1 0x0 CODECOPY PUSH1 0x0 RETURN INVALID PUSH1 0x80 PUSH1 0x40 MSTORE PUSH1 0x4 CALLDATASIZE LT PUSH2 0xC2 JUMPI PUSH1 0x0 CALLDATALOAD PUSH1 0xE0 SHR DUP1 PUSH4 0x89B5EE34 GT PUSH2 0x7F JUMPI DUP1 PUSH4 0xD6241484 GT PUSH2 0x59 JUMPI DUP1 PUSH4 0xD6241484 EQ PUSH2 0x1ED JUMPI DUP1 PUSH4 0xDF7AA62C EQ PUSH2 0x218 JUMPI DUP1 PUSH4 0xE146E351 EQ PUSH2 0x243 JUMPI DUP1 PUSH4 0xF2FDE38B EQ PUSH2 0x25A JUMPI PUSH2 0xC2 JUMP JUMPDEST DUP1 PUSH4 0x89B5EE34 EQ PUSH2 0x180 JUMPI DUP1 PUSH4 0x8A397E1D EQ PUSH2 0x1AB JUMPI DUP1 PUSH4 0x8DA5CB5B EQ PUSH2 0x1C2 JUMPI PUSH2 0xC2 JUMP JUMPDEST DUP1 PUSH4 0xF50B6E7 EQ PUSH2 0xC7 JUMPI DUP1 PUSH4 0x14D8F1E3 EQ PUSH2 0xF2 JUMPI DUP1 PUSH4 0x16DB9862 EQ PUSH2 0x109 JUMPI DUP1 PUSH4 0x1B728AEA EQ PUSH2 0x113 JUMPI DUP1 PUSH4 0x3182237F EQ PUSH2 0x13E JUMPI DUP1 PUSH4 0x715018A6 EQ PUSH2 0x169 JUMPI JUMPDEST PUSH1 0x0 DUP1 REVERT JUMPDEST CALLVALUE DUP1 ISZERO PUSH2 0xD3 JUMPI PUSH1 0x0 DUP1 REVERT JUMPDEST POP PUSH2 0xDC PUSH2 0x283 JUMP JUMPDEST PUSH1 0x40 MLOAD PUSH2 0xE9 SWAP2 SWAP1 PUSH2 0x93C JUMP JUMPDEST PUSH1 0x40 MLOAD DUP1 SWAP2 SUB SWAP1 RETURN JUMPDEST CALLVALUE DUP1 ISZERO PUSH2 0xFE JUMPI PUSH1 0x0 DUP1 REVERT JUMPDEST POP PUSH2 0x107 PUSH2 0x2A9 JUMP JUMPDEST STOP JUMPDEST PUSH2 0x111 PUSH2 0x356 JUMP JUMPDEST STOP JUMPDEST CALLVALUE DUP1 ISZERO PUSH2 0x11F JUMPI PUSH1 0x0 DUP1 REVERT JUMPDEST POP PUSH2 0x128 PUSH2 0x447 JUMP JUMPDEST PUSH1 0x40 MLOAD PUSH2 0x135 SWAP2 SWAP1 PUSH2 0x957 JUMP JUMPDEST PUSH1 0x40 MLOAD DUP1 SWAP2 SUB SWAP1 RETURN JUMPDEST CALLVALUE DUP1 ISZERO PUSH2 0x14A JUMPI PUSH1 0x0 DUP1 REVERT JUMPDEST POP PUSH2 0x153 PUSH2 0x45A JUMP JUMPDEST PUSH1 0x40 MLOAD PUSH2 0x160 SWAP2 SWAP1 PUSH2 0x93C JUMP JUMPDEST PUSH1 0x40 MLOAD DUP1 SWAP2 SUB SWAP1 RETURN JUMPDEST CALLVALUE DUP1 ISZERO PUSH2 0x175 JUMPI PUSH1 0x0 DUP1 REVERT JUMPDEST POP PUSH2 0x17E PUSH2 0x480 JUMP JUMPDEST STOP JUMPDEST CALLVALUE DUP1 ISZERO PUSH2 0x18C JUMPI PUSH1 0x0 DUP1 REVERT JUMPDEST POP PUSH2 0x195 PUSH2 0x494 JUMP JUMPDEST PUSH1 0x40 MLOAD PUSH2 0x1A2 SWAP2 SWAP1 PUSH2 0xA12 JUMP JUMPDEST PUSH1 0x40 MLOAD DUP1 SWAP2 SUB SWAP1 RETURN JUMPDEST CALLVALUE DUP1 ISZERO PUSH2 0x1B7 JUMPI PUSH1 0x0 DUP1 REVERT JUMPDEST POP PUSH2 0x1C0 PUSH2 0x49A JUMP JUMPDEST STOP JUMPDEST CALLVALUE DUP1 ISZERO PUSH2 0x1CE JUMPI PUSH1 0x0 DUP1 REVERT JUMPDEST POP PUSH2 0x1D7 PUSH2 0x52A JUMP JUMPDEST PUSH1 0x40 MLOAD PUSH2 0x1E4 SWAP2 SWAP1 PUSH2 0x93C JUMP JUMPDEST PUSH1 0x40 MLOAD DUP1 SWAP2 SUB SWAP1 RETURN JUMPDEST CALLVALUE DUP1 ISZERO PUSH2 0x1F9 JUMPI PUSH1 0x0 DUP1 REVERT JUMPDEST POP PUSH2 0x202 PUSH2 0x553 JUMP JUMPDEST PUSH1 0x40 MLOAD PUSH2 0x20F SWAP2 SWAP1 PUSH2 0x957 JUMP JUMPDEST PUSH1 0x40 MLOAD DUP1 SWAP2 SUB SWAP1 RETURN JUMPDEST CALLVALUE DUP1 ISZERO PUSH2 0x224 JUMPI PUSH1 0x0 DUP1 REVERT JUMPDEST POP PUSH2 0x22D PUSH2 0x566 JUMP JUMPDEST PUSH1 0x40 MLOAD PUSH2 0x23A SWAP2 SWAP1 PUSH2 0x957 JUMP JUMPDEST PUSH1 0x40 MLOAD DUP1 SWAP2 SUB SWAP1 RETURN JUMPDEST CALLVALUE DUP1 ISZERO PUSH2 0x24F JUMPI PUSH1 0x0 DUP1 REVERT JUMPDEST POP PUSH2 0x258 PUSH2 0x579 JUMP JUMPDEST STOP JUMPDEST CALLVALUE DUP1 ISZERO PUSH2 0x266 JUMPI PUSH1 0x0 DUP1 REVERT JUMPDEST POP PUSH2 0x281 PUSH1 0x4 DUP1 CALLDATASIZE SUB DUP2 ADD SWAP1 PUSH2 0x27C SWAP2 SWAP1 PUSH2 0x833 JUMP JUMPDEST PUSH2 0x650 JUMP JUMPDEST STOP JUMPDEST PUSH1 0x1 PUSH1 0x0 SWAP1 SLOAD SWAP1 PUSH2 0x100 EXP SWAP1 DIV PUSH20 0xFFFFFFFFFFFFFFFFFFFFFFFFFFFFFFFFFFFFFFFF AND DUP2 JUMP JUMPDEST PUSH1 0x1 PUSH1 0x0 SWAP1 SLOAD SWAP1 PUSH2 0x100 EXP SWAP1 DIV PUSH20 0xFFFFFFFFFFFFFFFFFFFFFFFFFFFFFFFFFFFFFFFF AND PUSH20 0xFFFFFFFFFFFFFFFFFFFFFFFFFFFFFFFFFFFFFFFF AND CALLER PUSH20 0xFFFFFFFFFFFFFFFFFFFFFFFFFFFFFFFFFFFFFFFF AND EQ PUSH2 0x339 JUMPI PUSH1 0x40 MLOAD PUSH32 0x8C379A000000000000000000000000000000000000000000000000000000000 DUP2 MSTORE PUSH1 0x4 ADD PUSH2 0x330 SWAP1 PUSH2 0x992 JUMP JUMPDEST PUSH1 0x40 MLOAD DUP1 SWAP2 SUB SWAP1 REVERT JUMPDEST PUSH1 0x1 PUSH1 0x2 PUSH1 0x15 PUSH2 0x100 EXP DUP2 SLOAD DUP2 PUSH1 0xFF MUL NOT AND SWAP1 DUP4 ISZERO ISZERO MUL OR SWAP1 SSTORE POP JUMP JUMPDEST PUSH1 0x1 PUSH1 0x0 SWAP1 SLOAD SWAP1 PUSH2 0x100 EXP SWAP1 DIV PUSH20 0xFFFFFFFFFFFFFFFFFFFFFFFFFFFFFFFFFFFFFFFF AND PUSH20 0xFFFFFFFFFFFFFFFFFFFFFFFFFFFFFFFFFFFFFFFF AND CALLER PUSH20 0xFFFFFFFFFFFFFFFFFFFFFFFFFFFFFFFFFFFFFFFF AND EQ PUSH2 0x3E6 JUMPI PUSH1 0x40 MLOAD PUSH32 0x8C379A000000000000000000000000000000000000000000000000000000000 DUP2 MSTORE PUSH1 0x4 ADD PUSH2 0x3DD SWAP1 PUSH2 0x992 JUMP JUMPDEST PUSH1 0x40 MLOAD DUP1 SWAP2 SUB SWAP1 REVERT JUMPDEST PUSH1 0x3 SLOAD CALLVALUE EQ PUSH2 0x42A JUMPI PUSH1 0x40 MLOAD PUSH32 0x8C379A000000000000000000000000000000000000000000000000000000000 DUP2 MSTORE PUSH1 0x4 ADD PUSH2 0x421 SWAP1 PUSH2 0x9F2 JUMP JUMPDEST PUSH1 0x40 MLOAD DUP1 SWAP2 SUB SWAP1 REVERT JUMPDEST PUSH1 0x1 PUSH1 0x2 PUSH1 0x14 PUSH2 0x100 EXP DUP2 SLOAD DUP2 PUSH1 0xFF MUL NOT AND SWAP1 DUP4 ISZERO ISZERO MUL OR SWAP1 SSTORE POP JUMP JUMPDEST PUSH1 0x2 PUSH1 0x14 SWAP1 SLOAD SWAP1 PUSH2 0x100 EXP SWAP1 DIV PUSH1 0xFF AND DUP2 JUMP JUMPDEST PUSH1 0x2 PUSH1 0x0 SWAP1 SLOAD SWAP1 PUSH2 0x100 EXP SWAP1 DIV PUSH20 0xFFFFFFFFFFFFFFFFFFFFFFFFFFFFFFFFFFFFFFFF AND DUP2 JUMP JUMPDEST PUSH2 0x488 PUSH2 0x6D4 JUMP JUMPDEST PUSH2 0x492 PUSH1 0x0 PUSH2 0x752 JUMP JUMPDEST JUMP JUMPDEST PUSH1 0x3 SLOAD DUP2 JUMP JUMPDEST PUSH2 0x4A2 PUSH2 0x6D4 JUMP JUMPDEST PUSH1 0x1 PUSH1 0x0 SWAP1 SLOAD SWAP1 PUSH2 0x100 EXP SWAP1 DIV PUSH20 0xFFFFFFFFFFFFFFFFFFFFFFFFFFFFFFFFFFFFFFFF AND PUSH20 0xFFFFFFFFFFFFFFFFFFFFFFFFFFFFFFFFFFFFFFFF AND PUSH2 0x8FC PUSH1 0x3 SLOAD SWAP1 DUP2 ISZERO MUL SWAP1 PUSH1 0x40 MLOAD PUSH1 0x0 PUSH1 0x40 MLOAD DUP1 DUP4 SUB DUP2 DUP6 DUP9 DUP9 CALL SWAP4 POP POP POP POP ISZERO DUP1 ISZERO PUSH2 0x50C JUMPI RETURNDATASIZE PUSH1 0x0 DUP1 RETURNDATACOPY RETURNDATASIZE PUSH1 0x0 REVERT JUMPDEST POP PUSH1 0x1 PUSH1 0x2 PUSH1 0x16 PUSH2 0x100 EXP DUP2 SLOAD DUP2 PUSH1 0xFF MUL NOT AND SWAP1 DUP4 ISZERO ISZERO MUL OR SWAP1 SSTORE POP JUMP JUMPDEST PUSH1 0x0 DUP1 PUSH1 0x0 SWAP1 SLOAD SWAP1 PUSH2 0x100 EXP SWAP1 DIV PUSH20 0xFFFFFFFFFFFFFFFFFFFFFFFFFFFFFFFFFFFFFFFF AND SWAP1 POP SWAP1 JUMP JUMPDEST PUSH1 0x2 PUSH1 0x16 SWAP1 SLOAD SWAP1 PUSH2 0x100 EXP SWAP1 DIV PUSH1 0xFF AND DUP2 JUMP JUMPDEST PUSH1 0x2 PUSH1 0x15 SWAP1 SLOAD SWAP1 PUSH2 0x100 EXP SWAP1 DIV PUSH1 0xFF AND DUP2 JUMP JUMPDEST PUSH1 0x2 PUSH1 0x15 SWAP1 SLOAD SWAP1 PUSH2 0x100 EXP SWAP1 DIV PUSH1 0xFF AND PUSH2 0x5C8 JUMPI PUSH1 0x40 MLOAD PUSH32 0x8C379A000000000000000000000000000000000000000000000000000000000 DUP2 MSTORE PUSH1 0x4 ADD PUSH2 0x5BF SWAP1 PUSH2 0x9B2 JUMP JUMPDEST PUSH1 0x40 MLOAD DUP1 SWAP2 SUB SWAP1 REVERT JUMPDEST PUSH1 0x2 PUSH1 0x0 SWAP1 SLOAD SWAP1 PUSH2 0x100 EXP SWAP1 DIV PUSH20 0xFFFFFFFFFFFFFFFFFFFFFFFFFFFFFFFFFFFFFFFF AND PUSH20 0xFFFFFFFFFFFFFFFFFFFFFFFFFFFFFFFFFFFFFFFF AND PUSH2 0x8FC PUSH1 0x3 SLOAD SWAP1 DUP2 ISZERO MUL SWAP1 PUSH1 0x40 MLOAD PUSH1 0x0 PUSH1 0x40 MLOAD DUP1 DUP4 SUB DUP2 DUP6 DUP9 DUP9 CALL SWAP4 POP POP POP POP ISZERO DUP1 ISZERO PUSH2 0x632 JUMPI RETURNDATASIZE PUSH1 0x0 DUP1 RETURNDATACOPY RETURNDATASIZE PUSH1 0x0 REVERT JUMPDEST POP PUSH1 0x1 PUSH1 0x2 PUSH1 0x16 PUSH2 0x100 EXP DUP2 SLOAD DUP2 PUSH1 0xFF MUL NOT AND SWAP1 DUP4 ISZERO ISZERO MUL OR SWAP1 SSTORE POP JUMP JUMPDEST PUSH2 0x658 PUSH2 0x6D4 JUMP JUMPDEST PUSH1 0x0 PUSH20 0xFFFFFFFFFFFFFFFFFFFFFFFFFFFFFFFFFFFFFFFF AND DUP2 PUSH20 0xFFFFFFFFFFFFFFFFFFFFFFFFFFFFFFFFFFFFFFFF AND EQ ISZERO PUSH2 0x6C8 JUMPI PUSH1 0x40 MLOAD PUSH32 0x8C379A000000000000000000000000000000000000000000000000000000000 DUP2 MSTORE PUSH1 0x4 ADD PUSH2 0x6BF SWAP1 PUSH2 0x972 JUMP JUMPDEST PUSH1 0x40 MLOAD DUP1 SWAP2 SUB SWAP1 REVERT JUMPDEST PUSH2 0x6D1 DUP2 PUSH2 0x752 JUMP JUMPDEST POP JUMP JUMPDEST PUSH2 0x6DC PUSH2 0x816 JUMP JUMPDEST PUSH20 0xFFFFFFFFFFFFFFFFFFFFFFFFFFFFFFFFFFFFFFFF AND PUSH2 0x6FA PUSH2 0x52A JUMP JUMPDEST PUSH20 0xFFFFFFFFFFFFFFFFFFFFFFFFFFFFFFFFFFFFFFFF AND EQ PUSH2 0x750 JUMPI PUSH1 0x40 MLOAD PUSH32 0x8C379A000000000000000000000000000000000000000000000000000000000 DUP2 MSTORE PUSH1 0x4 ADD PUSH2 0x747 SWAP1 PUSH2 0x9D2 JUMP JUMPDEST PUSH1 0x40 MLOAD DUP1 SWAP2 SUB SWAP1 REVERT JUMPDEST JUMP JUMPDEST PUSH1 0x0 DUP1 PUSH1 0x0 SWAP1 SLOAD SWAP1 PUSH2 0x100 EXP SWAP1 DIV PUSH20 0xFFFFFFFFFFFFFFFFFFFFFFFFFFFFFFFFFFFFFFFF AND SWAP1 POP DUP2 PUSH1 0x0 DUP1 PUSH2 0x100 EXP DUP2 SLOAD DUP2 PUSH20 0xFFFFFFFFFFFFFFFFFFFFFFFFFFFFFFFFFFFFFFFF MUL NOT AND SWAP1 DUP4 PUSH20 0xFFFFFFFFFFFFFFFFFFFFFFFFFFFFFFFFFFFFFFFF AND MUL OR SWAP1 SSTORE POP DUP2 PUSH20 0xFFFFFFFFFFFFFFFFFFFFFFFFFFFFFFFFFFFFFFFF AND DUP2 PUSH20 0xFFFFFFFFFFFFFFFFFFFFFFFFFFFFFFFFFFFFFFFF AND PUSH32 0x8BE0079C531659141344CD1FD0A4F28419497F9722A3DAAFE3B4186F6B6457E0 PUSH1 0x40 MLOAD PUSH1 0x40 MLOAD DUP1 SWAP2 SUB SWAP1 LOG3 POP POP JUMP JUMPDEST PUSH1 0x0 CALLER SWAP1 POP SWAP1 JUMP JUMPDEST PUSH1 0x0 DUP2 CALLDATALOAD SWAP1 POP PUSH2 0x82D DUP2 PUSH2 0xBA4 JUMP JUMPDEST SWAP3 SWAP2 POP POP JUMP JUMPDEST PUSH1 0x0 PUSH1 0x20 DUP3 DUP5 SUB SLT ISZERO PUSH2 0x849 JUMPI PUSH2 0x848 PUSH2 0xA86 JUMP JUMPDEST JUMPDEST PUSH1 0x0 PUSH2 0x857 DUP5 DUP3 DUP6 ADD PUSH2 0x81E JUMP JUMPDEST SWAP2 POP POP SWAP3 SWAP2 POP POP JUMP JUMPDEST PUSH2 0x869 DUP2 PUSH2 0xA3E JUMP JUMPDEST DUP3 MSTORE POP POP JUMP JUMPDEST PUSH2 0x878 DUP2 PUSH2 0xA50 JUMP JUMPDEST DUP3 MSTORE POP POP JUMP JUMPDEST PUSH1 0x0 PUSH2 0x88B PUSH1 0x26 DUP4 PUSH2 0xA2D JUMP JUMPDEST SWAP2 POP PUSH2 0x896 DUP3 PUSH2 0xA8B JUMP JUMPDEST PUSH1 0x40 DUP3 ADD SWAP1 POP SWAP2 SWAP1 POP JUMP JUMPDEST PUSH1 0x0 PUSH2 0x8AE PUSH1 0x20 DUP4 PUSH2 0xA2D JUMP JUMPDEST SWAP2 POP PUSH2 0x8B9 DUP3 PUSH2 0xADA JUMP JUMPDEST PUSH1 0x20 DUP3 ADD SWAP1 POP SWAP2 SWAP1 POP JUMP JUMPDEST PUSH1 0x0 PUSH2 0x8D1 PUSH1 0x2E DUP4 PUSH2 0xA2D JUMP JUMPDEST SWAP2 POP PUSH2 0x8DC DUP3 PUSH2 0xB03 JUMP JUMPDEST PUSH1 0x40 DUP3 ADD SWAP1 POP SWAP2 SWAP1 POP JUMP JUMPDEST PUSH1 0x0 PUSH2 0x8F4 PUSH1 0x20 DUP4 PUSH2 0xA2D JUMP JUMPDEST SWAP2 POP PUSH2 0x8FF DUP3 PUSH2 0xB52 JUMP JUMPDEST PUSH1 0x20 DUP3 ADD SWAP1 POP SWAP2 SWAP1 POP JUMP JUMPDEST PUSH1 0x0 PUSH2 0x917 PUSH1 0x1F DUP4 PUSH2 0xA2D JUMP JUMPDEST SWAP2 POP PUSH2 0x922 DUP3 PUSH2 0xB7B JUMP JUMPDEST PUSH1 0x20 DUP3 ADD SWAP1 POP SWAP2 SWAP1 POP JUMP JUMPDEST PUSH2 0x936 DUP2 PUSH2 0xA7C JUMP JUMPDEST DUP3 MSTORE POP POP JUMP JUMPDEST PUSH1 0x0 PUSH1 0x20 DUP3 ADD SWAP1 POP PUSH2 0x951 PUSH1 0x0 DUP4 ADD DUP5 PUSH2 0x860 JUMP JUMPDEST SWAP3 SWAP2 POP POP JUMP JUMPDEST PUSH1 0x0 PUSH1 0x20 DUP3 ADD SWAP1 POP PUSH2 0x96C PUSH1 0x0 DUP4 ADD DUP5 PUSH2 0x86F JUMP JUMPDEST SWAP3 SWAP2 POP POP JUMP JUMPDEST PUSH1 0x0 PUSH1 0x20 DUP3 ADD SWAP1 POP DUP2 DUP2 SUB PUSH1 0x0 DUP4 ADD MSTORE PUSH2 0x98B DUP2 PUSH2 0x87E JUMP JUMPDEST SWAP1 POP SWAP2 SWAP1 POP JUMP JUMPDEST PUSH1 0x0 PUSH1 0x20 DUP3 ADD SWAP1 POP DUP2 DUP2 SUB PUSH1 0x0 DUP4 ADD MSTORE PUSH2 0x9AB DUP2 PUSH2 0x8A1 JUMP JUMPDEST SWAP1 POP SWAP2 SWAP1 POP JUMP JUMPDEST PUSH1 0x0 PUSH1 0x20 DUP3 ADD SWAP1 POP DUP2 DUP2 SUB PUSH1 0x0 DUP4 ADD MSTORE PUSH2 0x9CB DUP2 PUSH2 0x8C4 JUMP JUMPDEST SWAP1 POP SWAP2 SWAP1 POP JUMP JUMPDEST PUSH1 0x0 PUSH1 0x20 DUP3 ADD SWAP1 POP DUP2 DUP2 SUB PUSH1 0x0 DUP4 ADD MSTORE PUSH2 0x9EB DUP2 PUSH2 0x8E7 JUMP JUMPDEST SWAP1 POP SWAP2 SWAP1 POP JUMP JUMPDEST PUSH1 0x0 PUSH1 0x20 DUP3 ADD SWAP1 POP DUP2 DUP2 SUB PUSH1 0x0 DUP4 ADD MSTORE PUSH2 0xA0B DUP2 PUSH2 0x90A JUMP JUMPDEST SWAP1 POP SWAP2 SWAP1 POP JUMP JUMPDEST PUSH1 0x0 PUSH1 0x20 DUP3 ADD SWAP1 POP PUSH2 0xA27 PUSH1 0x0 DUP4 ADD DUP5 PUSH2 0x92D JUMP JUMPDEST SWAP3 SWAP2 POP POP JUMP JUMPDEST PUSH1 0x0 DUP3 DUP3 MSTORE PUSH1 0x20 DUP3 ADD SWAP1 POP SWAP3 SWAP2 POP POP JUMP JUMPDEST PUSH1 0x0 PUSH2 0xA49 DUP3 PUSH2 0xA5C JUMP JUMPDEST SWAP1 POP SWAP2 SWAP1 POP JUMP JUMPDEST PUSH1 0x0 DUP2 ISZERO ISZERO SWAP1 POP SWAP2 SWAP1 POP JUMP JUMPDEST PUSH1 0x0 PUSH20 0xFFFFFFFFFFFFFFFFFFFFFFFFFFFFFFFFFFFFFFFF DUP3 AND SWAP1 POP SWAP2 SWAP1 POP JUMP JUMPDEST PUSH1 0x0 DUP2 SWAP1 POP SWAP2 SWAP1 POP JUMP JUMPDEST PUSH1 0x0 DUP1 REVERT JUMPDEST PUSH32 0x4F776E61626C653A206E6577206F776E657220697320746865207A65726F2061 PUSH1 0x0 DUP3 ADD MSTORE PUSH32 0x6464726573730000000000000000000000000000000000000000000000000000 PUSH1 0x20 DUP3 ADD MSTORE POP JUMP JUMPDEST PUSH32 0x596F752061726520726571756972656420746F20626520746865206275796572 PUSH1 0x0 DUP3 ADD MSTORE POP JUMP JUMPDEST PUSH32 0x54686520627579657220686173206E6F7420617070726F766564207468652074 PUSH1 0x0 DUP3 ADD MSTORE PUSH32 0x72616E73616374696F6E20796574000000000000000000000000000000000000 PUSH1 0x20 DUP3 ADD MSTORE POP JUMP JUMPDEST PUSH32 0x4F776E61626C653A2063616C6C6572206973206E6F7420746865206F776E6572 PUSH1 0x0 DUP3 ADD MSTORE POP JUMP JUMPDEST PUSH32 0x57726F6E672076616C756520666F7220746865207472616E73616374696F6E00 PUSH1 0x0 DUP3 ADD MSTORE POP JUMP JUMPDEST PUSH2 0xBAD DUP2 PUSH2 0xA3E JUMP JUMPDEST DUP2 EQ PUSH2 0xBB8 JUMPI PUSH1 0x0 DUP1 REVERT JUMPDEST POP JUMP INVALID LOG2 PUSH5 0x6970667358 0x22 SLT KECCAK256 DUP2 DUP3 BALANCE SWAP2 PUSH2 0x5B78 0xE3 0xB7 0xC4 0xAD 0x4D MOD 0x5C PUSH31 0xB27565FD3F37DA6758B9DD906FE4B0EFEF64736F6C63430008070033000000 "
		},
		"gasEstimates": {
			"creation": {
				"codeDepositCost": "611400",
				"executionCost": "infinite",
				"totalCost": "infinite"
			},
			"external": {
				"cancelarPorArbitro()": "infinite",
				"comprador()": "2515",
				"compradorConfirmaOK()": "26654",
				"compradorOK()": "2565",
				"depositarPago()": "28774",
				"depositoListo()": "2588",
				"montoPago()": "2452",
				"owner()": "2589",
				"pagoListo()": "2543",
				"renounceOwnership()": "30509",
				"retirarPago()": "infinite",
				"transferOwnership(address)": "30835",
				"vendedor()": "2603"
			}
		},
		"methodIdentifiers": {
			"cancelarPorArbitro()": "8a397e1d",
			"comprador()": "0f50b6e7",
			"compradorConfirmaOK()": "14d8f1e3",
			"compradorOK()": "df7aa62c",
			"depositarPago()": "16db9862",
			"depositoListo()": "1b728aea",
			"montoPago()": "89b5ee34",
			"owner()": "8da5cb5b",
			"pagoListo()": "d6241484",
			"renounceOwnership()": "715018a6",
			"retirarPago()": "e146e351",
			"transferOwnership(address)": "f2fde38b",
			"vendedor()": "3182237f"
		}
	},
	"abi": [
		{
			"inputs": [
				{
					"internalType": "address",
					"name": "_comprador",
					"type": "address"
				},
				{
					"internalType": "address",
					"name": "_vendedor",
					"type": "address"
				},
				{
					"internalType": "uint256",
					"name": "_montoPago",
					"type": "uint256"
				}
			],
			"stateMutability": "nonpayable",
			"type": "constructor"
		},
		{
			"anonymous": false,
			"inputs": [
				{
					"indexed": true,
					"internalType": "address",
					"name": "previousOwner",
					"type": "address"
				},
				{
					"indexed": true,
					"internalType": "address",
					"name": "newOwner",
					"type": "address"
				}
			],
			"name": "OwnershipTransferred",
			"type": "event"
		},
		{
			"inputs": [],
			"name": "cancelarPorArbitro",
			"outputs": [],
			"stateMutability": "nonpayable",
			"type": "function"
		},
		{
			"inputs": [],
			"name": "comprador",
			"outputs": [
				{
					"internalType": "address",
					"name": "",
					"type": "address"
				}
			],
			"stateMutability": "view",
			"type": "function"
		},
		{
			"inputs": [],
			"name": "compradorConfirmaOK",
			"outputs": [],
			"stateMutability": "nonpayable",
			"type": "function"
		},
		{
			"inputs": [],
			"name": "compradorOK",
			"outputs": [
				{
					"internalType": "bool",
					"name": "",
					"type": "bool"
				}
			],
			"stateMutability": "view",
			"type": "function"
		},
		{
			"inputs": [],
			"name": "depositarPago",
			"outputs": [],
			"stateMutability": "payable",
			"type": "function"
		},
		{
			"inputs": [],
			"name": "depositoListo",
			"outputs": [
				{
					"internalType": "bool",
					"name": "",
					"type": "bool"
				}
			],
			"stateMutability": "view",
			"type": "function"
		},
		{
			"inputs": [],
			"name": "montoPago",
			"outputs": [
				{
					"internalType": "uint256",
					"name": "",
					"type": "uint256"
				}
			],
			"stateMutability": "view",
			"type": "function"
		},
		{
			"inputs": [],
			"name": "owner",
			"outputs": [
				{
					"internalType": "address",
					"name": "",
					"type": "address"
				}
			],
			"stateMutability": "view",
			"type": "function"
		},
		{
			"inputs": [],
			"name": "pagoListo",
			"outputs": [
				{
					"internalType": "bool",
					"name": "",
					"type": "bool"
				}
			],
			"stateMutability": "view",
			"type": "function"
		},
		{
			"inputs": [],
			"name": "renounceOwnership",
			"outputs": [],
			"stateMutability": "nonpayable",
			"type": "function"
		},
		{
			"inputs": [],
			"name": "retirarPago",
			"outputs": [],
			"stateMutability": "nonpayable",
			"type": "function"
		},
		{
			"inputs": [
				{
					"internalType": "address",
					"name": "newOwner",
					"type": "address"
				}
			],
			"name": "transferOwnership",
			"outputs": [],
			"stateMutability": "nonpayable",
			"type": "function"
		},
		{
			"inputs": [],
			"name": "vendedor",
			"outputs": [
				{
					"internalType": "address",
					"name": "",
					"type": "address"
				}
			],
			"stateMutability": "view",
			"type": "function"
		}
	]
}