{
	"data": {
		"bytecode": {
			"linkReferences": {},
			"object": "6080604052610357806100136000396000f3fe608060405234801561001057600080fd5b50600436106100415760003560e01c80638348fc0e14610046578063a0947cd514610062578063c6732e1114610092575b600080fd5b610060600480360381019061005b91906101f6565b6100c2565b005b61007c600480360381019061007791906101f6565b61010d565b604051610089919061027d565b60405180910390f35b6100ac60048036038101906100a791906101f6565b610188565b6040516100b9919061027d565b60405180910390f35b8173ffffffffffffffffffffffffffffffffffffffff166108fc829081150290604051600060405180830381858888f19350505050158015610108573d6000803e3d6000fd5b505050565b60008060008473ffffffffffffffffffffffffffffffffffffffff168460405161013690610268565b60006040518083038185875af1925050503d8060008114610173576040519150601f19603f3d011682016040523d82523d6000602084013e610178565b606091505b5091509150819250505092915050565b6000808373ffffffffffffffffffffffffffffffffffffffff166108fc849081150290604051600060405180830381858888f1935050505090508091505092915050565b6000813590506101db816102f3565b92915050565b6000813590506101f08161030a565b92915050565b6000806040838503121561020d5761020c6102eb565b5b600061021b858286016101cc565b925050602061022c858286016101e1565b9150509250929050565b61023f816102b5565b82525050565b6000610252600083610298565b915061025d826102f0565b600082019050919050565b600061027382610245565b9150819050919050565b60006020820190506102926000830184610236565b92915050565b600081905092915050565b60006102ae826102c1565b9050919050565b60008115159050919050565b600073ffffffffffffffffffffffffffffffffffffffff82169050919050565b6000819050919050565b600080fd5b50565b6102fc816102a3565b811461030757600080fd5b50565b610313816102e1565b811461031e57600080fd5b5056fea264697066735822122062fce31ac062bc69053d0bc2ba5de5fcf957def4cad291fb3b3973e3add96e9564736f6c63430008070033",
			"opcodes": "PUSH1 0x80 PUSH1 0x40 MSTORE PUSH2 0x357 DUP1 PUSH2 0x13 PUSH1 0x0 CODECOPY PUSH1 0x0 RETURN INVALID PUSH1 0x80 PUSH1 0x40 MSTORE CALLVALUE DUP1 ISZERO PUSH2 0x10 JUMPI PUSH1 0x0 DUP1 REVERT JUMPDEST POP PUSH1 0x4 CALLDATASIZE LT PUSH2 0x41 JUMPI PUSH1 0x0 CALLDATALOAD PUSH1 0xE0 SHR DUP1 PUSH4 0x8348FC0E EQ PUSH2 0x46 JUMPI DUP1 PUSH4 0xA0947CD5 EQ PUSH2 0x62 JUMPI DUP1 PUSH4 0xC6732E11 EQ PUSH2 0x92 JUMPI JUMPDEST PUSH1 0x0 DUP1 REVERT JUMPDEST PUSH2 0x60 PUSH1 0x4 DUP1 CALLDATASIZE SUB DUP2 ADD SWAP1 PUSH2 0x5B SWAP2 SWAP1 PUSH2 0x1F6 JUMP JUMPDEST PUSH2 0xC2 JUMP JUMPDEST STOP JUMPDEST PUSH2 0x7C PUSH1 0x4 DUP1 CALLDATASIZE SUB DUP2 ADD SWAP1 PUSH2 0x77 SWAP2 SWAP1 PUSH2 0x1F6 JUMP JUMPDEST PUSH2 0x10D JUMP JUMPDEST PUSH1 0x40 MLOAD PUSH2 0x89 SWAP2 SWAP1 PUSH2 0x27D JUMP JUMPDEST PUSH1 0x40 MLOAD DUP1 SWAP2 SUB SWAP1 RETURN JUMPDEST PUSH2 0xAC PUSH1 0x4 DUP1 CALLDATASIZE SUB DUP2 ADD SWAP1 PUSH2 0xA7 SWAP2 SWAP1 PUSH2 0x1F6 JUMP JUMPDEST PUSH2 0x188 JUMP JUMPDEST PUSH1 0x40 MLOAD PUSH2 0xB9 SWAP2 SWAP1 PUSH2 0x27D JUMP JUMPDEST PUSH1 0x40 MLOAD DUP1 SWAP2 SUB SWAP1 RETURN JUMPDEST DUP2 PUSH20 0xFFFFFFFFFFFFFFFFFFFFFFFFFFFFFFFFFFFFFFFF AND PUSH2 0x8FC DUP3 SWAP1 DUP2 ISZERO MUL SWAP1 PUSH1 0x40 MLOAD PUSH1 0x0 PUSH1 0x40 MLOAD DUP1 DUP4 SUB DUP2 DUP6 DUP9 DUP9 CALL SWAP4 POP POP POP POP ISZERO DUP1 ISZERO PUSH2 0x108 JUMPI RETURNDATASIZE PUSH1 0x0 DUP1 RETURNDATACOPY RETURNDATASIZE PUSH1 0x0 REVERT JUMPDEST POP POP POP JUMP JUMPDEST PUSH1 0x0 DUP1 PUSH1 0x0 DUP5 PUSH20 0xFFFFFFFFFFFFFFFFFFFFFFFFFFFFFFFFFFFFFFFF AND DUP5 PUSH1 0x40 MLOAD PUSH2 0x136 SWAP1 PUSH2 0x268 JUMP JUMPDEST PUSH1 0x0 PUSH1 0x40 MLOAD DUP1 DUP4 SUB DUP2 DUP6 DUP8 GAS CALL SWAP3 POP POP POP RETURNDATASIZE DUP1 PUSH1 0x0 DUP2 EQ PUSH2 0x173 JUMPI PUSH1 0x40 MLOAD SWAP2 POP PUSH1 0x1F NOT PUSH1 0x3F RETURNDATASIZE ADD AND DUP3 ADD PUSH1 0x40 MSTORE RETURNDATASIZE DUP3 MSTORE RETURNDATASIZE PUSH1 0x0 PUSH1 0x20 DUP5 ADD RETURNDATACOPY PUSH2 0x178 JUMP JUMPDEST PUSH1 0x60 SWAP2 POP JUMPDEST POP SWAP2 POP SWAP2 POP DUP2 SWAP3 POP POP POP SWAP3 SWAP2 POP POP JUMP JUMPDEST PUSH1 0x0 DUP1 DUP4 PUSH20 0xFFFFFFFFFFFFFFFFFFFFFFFFFFFFFFFFFFFFFFFF AND PUSH2 0x8FC DUP5 SWAP1 DUP2 ISZERO MUL SWAP1 PUSH1 0x40 MLOAD PUSH1 0x0 PUSH1 0x40 MLOAD DUP1 DUP4 SUB DUP2 DUP6 DUP9 DUP9 CALL SWAP4 POP POP POP POP SWAP1 POP DUP1 SWAP2 POP POP SWAP3 SWAP2 POP POP JUMP JUMPDEST PUSH1 0x0 DUP2 CALLDATALOAD SWAP1 POP PUSH2 0x1DB DUP2 PUSH2 0x2F3 JUMP JUMPDEST SWAP3 SWAP2 POP POP JUMP JUMPDEST PUSH1 0x0 DUP2 CALLDATALOAD SWAP1 POP PUSH2 0x1F0 DUP2 PUSH2 0x30A JUMP JUMPDEST SWAP3 SWAP2 POP POP JUMP JUMPDEST PUSH1 0x0 DUP1 PUSH1 0x40 DUP4 DUP6 SUB SLT ISZERO PUSH2 0x20D JUMPI PUSH2 0x20C PUSH2 0x2EB JUMP JUMPDEST JUMPDEST PUSH1 0x0 PUSH2 0x21B DUP6 DUP3 DUP7 ADD PUSH2 0x1CC JUMP JUMPDEST SWAP3 POP POP PUSH1 0x20 PUSH2 0x22C DUP6 DUP3 DUP7 ADD PUSH2 0x1E1 JUMP JUMPDEST SWAP2 POP POP SWAP3 POP SWAP3 SWAP1 POP JUMP JUMPDEST PUSH2 0x23F DUP2 PUSH2 0x2B5 JUMP JUMPDEST DUP3 MSTORE POP POP JUMP JUMPDEST PUSH1 0x0 PUSH2 0x252 PUSH1 0x0 DUP4 PUSH2 0x298 JUMP JUMPDEST SWAP2 POP PUSH2 0x25D DUP3 PUSH2 0x2F0 JUMP JUMPDEST PUSH1 0x0 DUP3 ADD SWAP1 POP SWAP2 SWAP1 POP JUMP JUMPDEST PUSH1 0x0 PUSH2 0x273 DUP3 PUSH2 0x245 JUMP JUMPDEST SWAP2 POP DUP2 SWAP1 POP SWAP2 SWAP1 POP JUMP JUMPDEST PUSH1 0x0 PUSH1 0x20 DUP3 ADD SWAP1 POP PUSH2 0x292 PUSH1 0x0 DUP4 ADD DUP5 PUSH2 0x236 JUMP JUMPDEST SWAP3 SWAP2 POP POP JUMP JUMPDEST PUSH1 0x0 DUP2 SWAP1 POP SWAP3 SWAP2 POP POP JUMP JUMPDEST PUSH1 0x0 PUSH2 0x2AE DUP3 PUSH2 0x2C1 JUMP JUMPDEST SWAP1 POP SWAP2 SWAP1 POP JUMP JUMPDEST PUSH1 0x0 DUP2 ISZERO ISZERO SWAP1 POP SWAP2 SWAP1 POP JUMP JUMPDEST PUSH1 0x0 PUSH20 0xFFFFFFFFFFFFFFFFFFFFFFFFFFFFFFFFFFFFFFFF DUP3 AND SWAP1 POP SWAP2 SWAP1 POP JUMP JUMPDEST PUSH1 0x0 DUP2 SWAP1 POP SWAP2 SWAP1 POP JUMP JUMPDEST PUSH1 0x0 DUP1 REVERT JUMPDEST POP JUMP JUMPDEST PUSH2 0x2FC DUP2 PUSH2 0x2A3 JUMP JUMPDEST DUP2 EQ PUSH2 0x307 JUMPI PUSH1 0x0 DUP1 REVERT JUMPDEST POP JUMP JUMPDEST PUSH2 0x313 DUP2 PUSH2 0x2E1 JUMP JUMPDEST DUP2 EQ PUSH2 0x31E JUMPI PUSH1 0x0 DUP1 REVERT JUMPDEST POP JUMP INVALID LOG2 PUSH5 0x6970667358 0x22 SLT KECCAK256 PUSH3 0xFCE31A 0xC0 PUSH3 0xBC6905 RETURNDATASIZE SIGNEXTEND 0xC2 0xBA 0x5D 0xE5 0xFC 0xF9 JUMPI 0xDE DELEGATECALL 0xCA 0xD2 SWAP2 0xFB EXTCODESIZE CODECOPY PUSH20 0xE3ADD96E9564736F6C6343000807003300000000 "
		},
		"gasEstimates": {
			"creation": {
				"codeDepositCost": "171000",
				"executionCost": "190",
				"totalCost": "171190"
			},
			"external": {
				"transferenciaPorCall(address,uint256)": "infinite",
				"transferenciaPorSend(address,uint256)": "infinite",
				"transferenciaPorTransfer(address,uint256)": "infinite"
			}
		},
		"methodIdentifiers": {
			"transferenciaPorCall(address,uint256)": "a0947cd5",
			"transferenciaPorSend(address,uint256)": "c6732e11",
			"transferenciaPorTransfer(address,uint256)": "8348fc0e"
		}
	},
	"abi": [
		{
			"inputs": [],
			"stateMutability": "payable",
			"type": "constructor"
		},
		{
			"inputs": [
				{
					"internalType": "address",
					"name": "destino",
					"type": "address"
				},
				{
					"internalType": "uint256",
					"name": "monto",
					"type": "uint256"
				}
			],
			"name": "transferenciaPorCall",
			"outputs": [
				{
					"internalType": "bool",
					"name": "",
					"type": "bool"
				}
			],
			"stateMutability": "nonpayable",
			"type": "function"
		},
		{
			"inputs": [
				{
					"internalType": "address",
					"name": "destino",
					"type": "address"
				},
				{
					"internalType": "uint256",
					"name": "monto",
					"type": "uint256"
				}
			],
			"name": "transferenciaPorSend",
			"outputs": [
				{
					"internalType": "bool",
					"name": "",
					"type": "bool"
				}
			],
			"stateMutability": "nonpayable",
			"type": "function"
		},
		{
			"inputs": [
				{
					"internalType": "address",
					"name": "destino",
					"type": "address"
				},
				{
					"internalType": "uint256",
					"name": "monto",
					"type": "uint256"
				}
			],
			"name": "transferenciaPorTransfer",
			"outputs": [],
			"stateMutability": "nonpayable",
			"type": "function"
		}
	]
}