{
	"data": {
		"bytecode": {
			"linkReferences": {},
			"object": "60a06040523073ffffffffffffffffffffffffffffffffffffffff1660809073ffffffffffffffffffffffffffffffffffffffff1660601b81525034801561004657600080fd5b5060805160601c612fdc61008160003960008181610596015281816106250152818161076c015281816107fb01526108ab0152612fdc6000f3fe6080604052600436106101145760003560e01c806352d1902d116100a0578063a457c2d711610064578063a457c2d714610394578063a9059cbb146103d1578063dd62ed3e1461040e578063f2fde38b1461044b578063fe4b84df1461047457610114565b806352d1902d146102bf57806370a08231146102ea578063715018a6146103275780638da5cb5b1461033e57806395d89b411461036957610114565b8063313ce567116100e7578063313ce567146101e95780633659cfe614610214578063395093511461023d57806340c10f191461027a5780634f1ef286146102a357610114565b806306fdde0314610119578063095ea7b31461014457806318160ddd1461018157806323b872dd146101ac575b600080fd5b34801561012557600080fd5b5061012e61049d565b60405161013b9190612299565b60405180910390f35b34801561015057600080fd5b5061016b60048036038101906101669190611e1f565b61052f565b6040516101789190612248565b60405180910390f35b34801561018d57600080fd5b50610196610552565b6040516101a3919061251b565b60405180910390f35b3480156101b857600080fd5b506101d360048036038101906101ce9190611d70565b61055c565b6040516101e09190612248565b60405180910390f35b3480156101f557600080fd5b506101fe61058b565b60405161020b9190612536565b60405180910390f35b34801561022057600080fd5b5061023b60048036038101906102369190611d03565b610594565b005b34801561024957600080fd5b50610264600480360381019061025f9190611e1f565b61071d565b6040516102719190612248565b60405180910390f35b34801561028657600080fd5b506102a1600480360381019061029c9190611e1f565b610754565b005b6102bd60048036038101906102b89190611dc3565b61076a565b005b3480156102cb57600080fd5b506102d46108a7565b6040516102e19190612263565b60405180910390f35b3480156102f657600080fd5b50610311600480360381019061030c9190611d03565b610960565b60405161031e919061251b565b60405180910390f35b34801561033357600080fd5b5061033c6109a9565b005b34801561034a57600080fd5b506103536109bd565b604051610360919061222d565b60405180910390f35b34801561037557600080fd5b5061037e6109e7565b60405161038b9190612299565b60405180910390f35b3480156103a057600080fd5b506103bb60048036038101906103b69190611e1f565b610a79565b6040516103c89190612248565b60405180910390f35b3480156103dd57600080fd5b506103f860048036038101906103f39190611e1f565b610af0565b6040516104059190612248565b60405180910390f35b34801561041a57600080fd5b5061043560048036038101906104309190611d30565b610b13565b604051610442919061251b565b60405180910390f35b34801561045757600080fd5b50610472600480360381019061046d9190611d03565b610b9a565b005b34801561048057600080fd5b5061049b60048036038101906104969190611e8c565b610c1e565b005b6060603680546104ac906128ad565b80601f01602080910402602001604051908101604052809291908181526020018280546104d8906128ad565b80156105255780601f106104fa57610100808354040283529160200191610525565b820191906000526020600020905b81548152906001019060200180831161050857829003601f168201915b5050505050905090565b60008061053a610e01565b9050610547818585610e09565b600191505092915050565b6000603554905090565b600080610567610e01565b9050610574858285610fd4565b61057f858585611060565b60019150509392505050565b60006012905090565b7f000000000000000000000000000000000000000000000000000000000000000073ffffffffffffffffffffffffffffffffffffffff163073ffffffffffffffffffffffffffffffffffffffff161415610623576040517f08c379a000000000000000000000000000000000000000000000000000000000815260040161061a9061231b565b60405180910390fd5b7f000000000000000000000000000000000000000000000000000000000000000073ffffffffffffffffffffffffffffffffffffffff166106626112db565b73ffffffffffffffffffffffffffffffffffffffff16146106b8576040517f08c379a00000000000000000000000000000000000000000000000000000000081526004016106af9061237b565b60405180910390fd5b6106c181611332565b61071a81600067ffffffffffffffff8111156106e0576106df61296e565b5b6040519080825280601f01601f1916602001820160405280156107125781602001600182028036833780820191505090505b50600061133d565b50565b600080610728610e01565b905061074981858561073a8589610b13565b61074491906125d9565b610e09565b600191505092915050565b61075c6114ba565b6107668282611538565b5050565b7f000000000000000000000000000000000000000000000000000000000000000073ffffffffffffffffffffffffffffffffffffffff163073ffffffffffffffffffffffffffffffffffffffff1614156107f9576040517f08c379a00000000000000000000000000000000000000000000000000000000081526004016107f09061231b565b60405180910390fd5b7f000000000000000000000000000000000000000000000000000000000000000073ffffffffffffffffffffffffffffffffffffffff166108386112db565b73ffffffffffffffffffffffffffffffffffffffff161461088e576040517f08c379a00000000000000000000000000000000000000000000000000000000081526004016108859061237b565b60405180910390fd5b61089782611332565b6108a38282600161133d565b5050565b60007f000000000000000000000000000000000000000000000000000000000000000073ffffffffffffffffffffffffffffffffffffffff163073ffffffffffffffffffffffffffffffffffffffff1614610937576040517f08c379a000000000000000000000000000000000000000000000000000000000815260040161092e9061239b565b60405180910390fd5b7f360894a13ba1a3210667c828492db98dca3e2076cc3735a920a3ca505d382bbc60001b905090565b6000603360008373ffffffffffffffffffffffffffffffffffffffff1673ffffffffffffffffffffffffffffffffffffffff168152602001908152602001600020549050919050565b6109b16114ba565b6109bb6000611690565b565b600060c960009054906101000a900473ffffffffffffffffffffffffffffffffffffffff16905090565b6060603780546109f6906128ad565b80601f0160208091040260200160405190810160405280929190818152602001828054610a22906128ad565b8015610a6f5780601f10610a4457610100808354040283529160200191610a6f565b820191906000526020600020905b815481529060010190602001808311610a5257829003601f168201915b5050505050905090565b600080610a84610e01565b90506000610a928286610b13565b905083811015610ad7576040517f08c379a0000000000000000000000000000000000000000000000000000000008152600401610ace906124db565b60405180910390fd5b610ae48286868403610e09565b60019250505092915050565b600080610afb610e01565b9050610b08818585611060565b600191505092915050565b6000603460008473ffffffffffffffffffffffffffffffffffffffff1673ffffffffffffffffffffffffffffffffffffffff16815260200190815260200160002060008373ffffffffffffffffffffffffffffffffffffffff1673ffffffffffffffffffffffffffffffffffffffff16815260200190815260200160002054905092915050565b610ba26114ba565b600073ffffffffffffffffffffffffffffffffffffffff168173ffffffffffffffffffffffffffffffffffffffff161415610c12576040517f08c379a0000000000000000000000000000000000000000000000000000000008152600401610c09906122db565b60405180910390fd5b610c1b81611690565b50565b60008060019054906101000a900460ff16159050808015610c4f5750600160008054906101000a900460ff1660ff16105b80610c7c5750610c5e30611756565b158015610c7b5750600160008054906101000a900460ff1660ff16145b5b610cbb576040517f08c379a0000000000000000000000000000000000000000000000000000000008152600401610cb2906123db565b60405180910390fd5b60016000806101000a81548160ff021916908360ff1602179055508015610cf8576001600060016101000a81548160ff0219169083151502179055505b610d6c6040518060400160405280600b81526020017f506c61747a69546f6b656e0000000000000000000000000000000000000000008152506040518060400160405280600381526020017f504c5a0000000000000000000000000000000000000000000000000000000000815250611779565b610d746117d6565b610d7c611837565b610da433610d8861058b565b600a610d949190612682565b84610d9f91906127a0565b611538565b8015610dfd5760008060016101000a81548160ff0219169083151502179055507f7f26b83ff96e1f2b6a682f133852f6798a09c465da95921460cefb38474024986001604051610df4919061227e565b60405180910390a15b5050565b600033905090565b600073ffffffffffffffffffffffffffffffffffffffff168373ffffffffffffffffffffffffffffffffffffffff161415610e79576040517f08c379a0000000000000000000000000000000000000000000000000000000008152600401610e709061249b565b60405180910390fd5b600073ffffffffffffffffffffffffffffffffffffffff168273ffffffffffffffffffffffffffffffffffffffff161415610ee9576040517f08c379a0000000000000000000000000000000000000000000000000000000008152600401610ee0906122fb565b60405180910390fd5b80603460008573ffffffffffffffffffffffffffffffffffffffff1673ffffffffffffffffffffffffffffffffffffffff16815260200190815260200160002060008473ffffffffffffffffffffffffffffffffffffffff1673ffffffffffffffffffffffffffffffffffffffff168152602001908152602001600020819055508173ffffffffffffffffffffffffffffffffffffffff168373ffffffffffffffffffffffffffffffffffffffff167f8c5be1e5ebec7d5bd14f71427d1e84f3dd0314c0f7b2291e5b200ac8c7c3b92583604051610fc7919061251b565b60405180910390a3505050565b6000610fe08484610b13565b90507fffffffffffffffffffffffffffffffffffffffffffffffffffffffffffffffff811461105a578181101561104c576040517f08c379a00000000000000000000000000000000000000000000000000000000081526004016110439061233b565b60405180910390fd5b6110598484848403610e09565b5b50505050565b600073ffffffffffffffffffffffffffffffffffffffff168373ffffffffffffffffffffffffffffffffffffffff1614156110d0576040517f08c379a00000000000000000000000000000000000000000000000000000000081526004016110c79061247b565b60405180910390fd5b600073ffffffffffffffffffffffffffffffffffffffff168273ffffffffffffffffffffffffffffffffffffffff161415611140576040517f08c379a0000000000000000000000000000000000000000000000000000000008152600401611137906122bb565b60405180910390fd5b61114b838383611888565b6000603360008573ffffffffffffffffffffffffffffffffffffffff1673ffffffffffffffffffffffffffffffffffffffff168152602001908152602001600020549050818110156111d2576040517f08c379a00000000000000000000000000000000000000000000000000000000081526004016111c99061235b565b60405180910390fd5b818103603360008673ffffffffffffffffffffffffffffffffffffffff1673ffffffffffffffffffffffffffffffffffffffff1681526020019081526020016000208190555081603360008573ffffffffffffffffffffffffffffffffffffffff1673ffffffffffffffffffffffffffffffffffffffff168152602001908152602001600020600082825401925050819055508273ffffffffffffffffffffffffffffffffffffffff168473ffffffffffffffffffffffffffffffffffffffff167fddf252ad1be2c89b69c2b068fc378daa952ba7f163c4a11628f55a4df523b3ef846040516112c2919061251b565b60405180910390a36112d584848461188d565b50505050565b60006113097f360894a13ba1a3210667c828492db98dca3e2076cc3735a920a3ca505d382bbc60001b611892565b60000160009054906101000a900473ffffffffffffffffffffffffffffffffffffffff16905090565b61133a6114ba565b50565b6113697f4910fdfa16fed3260ed0e7147f7cc6da11a60208b5b9406d12a635614ffd914360001b61189c565b60000160009054906101000a900460ff161561138d57611388836118a6565b6114b5565b8273ffffffffffffffffffffffffffffffffffffffff166352d1902d6040518163ffffffff1660e01b815260040160206040518083038186803b1580156113d357600080fd5b505afa92505050801561140457506040513d601f19601f820116820180604052508101906114019190611e5f565b60015b611443576040517f08c379a000000000000000000000000000000000000000000000000000000000815260040161143a906123fb565b60405180910390fd5b7f360894a13ba1a3210667c828492db98dca3e2076cc3735a920a3ca505d382bbc60001b81146114a8576040517f08c379a000000000000000000000000000000000000000000000000000000000815260040161149f906123bb565b60405180910390fd5b506114b483838361195f565b5b505050565b6114c2610e01565b73ffffffffffffffffffffffffffffffffffffffff166114e06109bd565b73ffffffffffffffffffffffffffffffffffffffff1614611536576040517f08c379a000000000000000000000000000000000000000000000000000000000815260040161152d9061243b565b60405180910390fd5b565b600073ffffffffffffffffffffffffffffffffffffffff168273ffffffffffffffffffffffffffffffffffffffff1614156115a8576040517f08c379a000000000000000000000000000000000000000000000000000000000815260040161159f906124fb565b60405180910390fd5b6115b460008383611888565b80603560008282546115c691906125d9565b9250508190555080603360008473ffffffffffffffffffffffffffffffffffffffff1673ffffffffffffffffffffffffffffffffffffffff168152602001908152602001600020600082825401925050819055508173ffffffffffffffffffffffffffffffffffffffff16600073ffffffffffffffffffffffffffffffffffffffff167fddf252ad1be2c89b69c2b068fc378daa952ba7f163c4a11628f55a4df523b3ef83604051611678919061251b565b60405180910390a361168c6000838361188d565b5050565b600060c960009054906101000a900473ffffffffffffffffffffffffffffffffffffffff1690508160c960006101000a81548173ffffffffffffffffffffffffffffffffffffffff021916908373ffffffffffffffffffffffffffffffffffffffff1602179055508173ffffffffffffffffffffffffffffffffffffffff168173ffffffffffffffffffffffffffffffffffffffff167f8be0079c531659141344cd1fd0a4f28419497f9722a3daafe3b4186f6b6457e060405160405180910390a35050565b6000808273ffffffffffffffffffffffffffffffffffffffff163b119050919050565b600060019054906101000a900460ff166117c8576040517f08c379a00000000000000000000000000000000000000000000000000000000081526004016117bf906124bb565b60405180910390fd5b6117d2828261198b565b5050565b600060019054906101000a900460ff16611825576040517f08c379a000000000000000000000000000000000000000000000000000000000815260040161181c906124bb565b60405180910390fd5b611835611830610e01565b611690565b565b600060019054906101000a900460ff16611886576040517f08c379a000000000000000000000000000000000000000000000000000000000815260040161187d906124bb565b60405180910390fd5b565b505050565b505050565b6000819050919050565b6000819050919050565b6118af81611756565b6118ee576040517f08c379a00000000000000000000000000000000000000000000000000000000081526004016118e59061241b565b60405180910390fd5b8061191b7f360894a13ba1a3210667c828492db98dca3e2076cc3735a920a3ca505d382bbc60001b611892565b60000160006101000a81548173ffffffffffffffffffffffffffffffffffffffff021916908373ffffffffffffffffffffffffffffffffffffffff16021790555050565b61196883611a0c565b6000825111806119755750805b15611986576119848383611a5b565b505b505050565b600060019054906101000a900460ff166119da576040517f08c379a00000000000000000000000000000000000000000000000000000000081526004016119d1906124bb565b60405180910390fd5b81603690805190602001906119f0929190611bb1565b508060379080519060200190611a07929190611bb1565b505050565b611a15816118a6565b8073ffffffffffffffffffffffffffffffffffffffff167fbc7cd75a20ee27fd9adebab32041f755214dbc6bffa90cc0225b39da2e5c2d3b60405160405180910390a250565b6060611a6683611756565b611aa5576040517f08c379a0000000000000000000000000000000000000000000000000000000008152600401611a9c9061245b565b60405180910390fd5b6000808473ffffffffffffffffffffffffffffffffffffffff1684604051611acd9190612216565b600060405180830381855af49150503d8060008114611b08576040519150601f19603f3d011682016040523d82523d6000602084013e611b0d565b606091505b5091509150611b358282604051806060016040528060278152602001612f8060279139611b3f565b9250505092915050565b60608315611b4f57829050611b5a565b611b598383611b61565b5b9392505050565b600082511115611b745781518083602001fd5b806040517f08c379a0000000000000000000000000000000000000000000000000000000008152600401611ba89190612299565b60405180910390fd5b828054611bbd906128ad565b90600052602060002090601f016020900481019282611bdf5760008555611c26565b82601f10611bf857805160ff1916838001178555611c26565b82800160010185558215611c26579182015b82811115611c25578251825591602001919060010190611c0a565b5b509050611c339190611c37565b5090565b5b80821115611c50576000816000905550600101611c38565b5090565b6000611c67611c6284612576565b612551565b905082815260208101848484011115611c8357611c826129a2565b5b611c8e84828561286b565b509392505050565b600081359050611ca581612f3a565b92915050565b600081519050611cba81612f51565b92915050565b600082601f830112611cd557611cd461299d565b5b8135611ce5848260208601611c54565b91505092915050565b600081359050611cfd81612f68565b92915050565b600060208284031215611d1957611d186129ac565b5b6000611d2784828501611c96565b91505092915050565b60008060408385031215611d4757611d466129ac565b5b6000611d5585828601611c96565b9250506020611d6685828601611c96565b9150509250929050565b600080600060608486031215611d8957611d886129ac565b5b6000611d9786828701611c96565b9350506020611da886828701611c96565b9250506040611db986828701611cee565b9150509250925092565b60008060408385031215611dda57611dd96129ac565b5b6000611de885828601611c96565b925050602083013567ffffffffffffffff811115611e0957611e086129a7565b5b611e1585828601611cc0565b9150509250929050565b60008060408385031215611e3657611e356129ac565b5b6000611e4485828601611c96565b9250506020611e5585828601611cee565b9150509250929050565b600060208284031215611e7557611e746129ac565b5b6000611e8384828501611cab565b91505092915050565b600060208284031215611ea257611ea16129ac565b5b6000611eb084828501611cee565b91505092915050565b611ec2816127fa565b82525050565b611ed18161280c565b82525050565b611ee081612818565b82525050565b6000611ef1826125a7565b611efb81856125bd565b9350611f0b81856020860161287a565b80840191505092915050565b611f2081612859565b82525050565b6000611f31826125b2565b611f3b81856125c8565b9350611f4b81856020860161287a565b611f54816129b1565b840191505092915050565b6000611f6c6023836125c8565b9150611f77826129cf565b604082019050919050565b6000611f8f6026836125c8565b9150611f9a82612a1e565b604082019050919050565b6000611fb26022836125c8565b9150611fbd82612a6d565b604082019050919050565b6000611fd5602c836125c8565b9150611fe082612abc565b604082019050919050565b6000611ff8601d836125c8565b915061200382612b0b565b602082019050919050565b600061201b6026836125c8565b915061202682612b34565b604082019050919050565b600061203e602c836125c8565b915061204982612b83565b604082019050919050565b60006120616038836125c8565b915061206c82612bd2565b604082019050919050565b60006120846029836125c8565b915061208f82612c21565b604082019050919050565b60006120a7602e836125c8565b91506120b282612c70565b604082019050919050565b60006120ca602e836125c8565b91506120d582612cbf565b604082019050919050565b60006120ed602d836125c8565b91506120f882612d0e565b604082019050919050565b60006121106020836125c8565b915061211b82612d5d565b602082019050919050565b60006121336026836125c8565b915061213e82612d86565b604082019050919050565b60006121566025836125c8565b915061216182612dd5565b604082019050919050565b60006121796024836125c8565b915061218482612e24565b604082019050919050565b600061219c602b836125c8565b91506121a782612e73565b604082019050919050565b60006121bf6025836125c8565b91506121ca82612ec2565b604082019050919050565b60006121e2601f836125c8565b91506121ed82612f11565b602082019050919050565b61220181612842565b82525050565b6122108161284c565b82525050565b60006122228284611ee6565b915081905092915050565b60006020820190506122426000830184611eb9565b92915050565b600060208201905061225d6000830184611ec8565b92915050565b60006020820190506122786000830184611ed7565b92915050565b60006020820190506122936000830184611f17565b92915050565b600060208201905081810360008301526122b38184611f26565b905092915050565b600060208201905081810360008301526122d481611f5f565b9050919050565b600060208201905081810360008301526122f481611f82565b9050919050565b6000602082019050818103600083015261231481611fa5565b9050919050565b6000602082019050818103600083015261233481611fc8565b9050919050565b6000602082019050818103600083015261235481611feb565b9050919050565b600060208201905081810360008301526123748161200e565b9050919050565b6000602082019050818103600083015261239481612031565b9050919050565b600060208201905081810360008301526123b481612054565b9050919050565b600060208201905081810360008301526123d481612077565b9050919050565b600060208201905081810360008301526123f48161209a565b9050919050565b60006020820190508181036000830152612414816120bd565b9050919050565b60006020820190508181036000830152612434816120e0565b9050919050565b6000602082019050818103600083015261245481612103565b9050919050565b6000602082019050818103600083015261247481612126565b9050919050565b6000602082019050818103600083015261249481612149565b9050919050565b600060208201905081810360008301526124b48161216c565b9050919050565b600060208201905081810360008301526124d48161218f565b9050919050565b600060208201905081810360008301526124f4816121b2565b9050919050565b60006020820190508181036000830152612514816121d5565b9050919050565b600060208201905061253060008301846121f8565b92915050565b600060208201905061254b6000830184612207565b92915050565b600061255b61256c565b905061256782826128df565b919050565b6000604051905090565b600067ffffffffffffffff8211156125915761259061296e565b5b61259a826129b1565b9050602081019050919050565b600081519050919050565b600081519050919050565b600081905092915050565b600082825260208201905092915050565b60006125e482612842565b91506125ef83612842565b9250827fffffffffffffffffffffffffffffffffffffffffffffffffffffffffffffffff0382111561262457612623612910565b5b828201905092915050565b6000808291508390505b60018511156126795780860481111561265557612654612910565b5b60018516156126645780820291505b8081029050612672856129c2565b9450612639565b94509492505050565b600061268d82612842565b91506126988361284c565b92506126c57fffffffffffffffffffffffffffffffffffffffffffffffffffffffffffffffff84846126cd565b905092915050565b6000826126dd5760019050612799565b816126eb5760009050612799565b8160018114612701576002811461270b5761273a565b6001915050612799565b60ff84111561271d5761271c612910565b5b8360020a91508482111561273457612733612910565b5b50612799565b5060208310610133831016604e8410600b841016171561276f5782820a90508381111561276a57612769612910565b5b612799565b61277c848484600161262f565b9250905081840481111561279357612792612910565b5b81810290505b9392505050565b60006127ab82612842565b91506127b683612842565b9250817fffffffffffffffffffffffffffffffffffffffffffffffffffffffffffffffff04831182151516156127ef576127ee612910565b5b828202905092915050565b600061280582612822565b9050919050565b60008115159050919050565b6000819050919050565b600073ffffffffffffffffffffffffffffffffffffffff82169050919050565b6000819050919050565b600060ff82169050919050565b60006128648261284c565b9050919050565b82818337600083830152505050565b60005b8381101561289857808201518184015260208101905061287d565b838111156128a7576000848401525b50505050565b600060028204905060018216806128c557607f821691505b602082108114156128d9576128d861293f565b5b50919050565b6128e8826129b1565b810181811067ffffffffffffffff821117156129075761290661296e565b5b80604052505050565b7f4e487b7100000000000000000000000000000000000000000000000000000000600052601160045260246000fd5b7f4e487b7100000000000000000000000000000000000000000000000000000000600052602260045260246000fd5b7f4e487b7100000000000000000000000000000000000000000000000000000000600052604160045260246000fd5b600080fd5b600080fd5b600080fd5b600080fd5b6000601f19601f8301169050919050565b60008160011c9050919050565b7f45524332303a207472616e7366657220746f20746865207a65726f206164647260008201527f6573730000000000000000000000000000000000000000000000000000000000602082015250565b7f4f776e61626c653a206e6577206f776e657220697320746865207a65726f206160008201527f6464726573730000000000000000000000000000000000000000000000000000602082015250565b7f45524332303a20617070726f766520746f20746865207a65726f20616464726560008201527f7373000000000000000000000000000000000000000000000000000000000000602082015250565b7f46756e6374696f6e206d7573742062652063616c6c6564207468726f7567682060008201527f64656c656761746563616c6c0000000000000000000000000000000000000000602082015250565b7f45524332303a20696e73756666696369656e7420616c6c6f77616e6365000000600082015250565b7f45524332303a207472616e7366657220616d6f756e742065786365656473206260008201527f616c616e63650000000000000000000000000000000000000000000000000000602082015250565b7f46756e6374696f6e206d7573742062652063616c6c6564207468726f7567682060008201527f6163746976652070726f78790000000000000000000000000000000000000000602082015250565b7f555550535570677261646561626c653a206d757374206e6f742062652063616c60008201527f6c6564207468726f7567682064656c656761746563616c6c0000000000000000602082015250565b7f45524331393637557067726164653a20756e737570706f727465642070726f7860008201527f6961626c65555549440000000000000000000000000000000000000000000000602082015250565b7f496e697469616c697a61626c653a20636f6e747261637420697320616c72656160008201527f647920696e697469616c697a6564000000000000000000000000000000000000602082015250565b7f45524331393637557067726164653a206e657720696d706c656d656e7461746960008201527f6f6e206973206e6f742055555053000000000000000000000000000000000000602082015250565b7f455243313936373a206e657720696d706c656d656e746174696f6e206973206e60008201527f6f74206120636f6e747261637400000000000000000000000000000000000000602082015250565b7f4f776e61626c653a2063616c6c6572206973206e6f7420746865206f776e6572600082015250565b7f416464726573733a2064656c65676174652063616c6c20746f206e6f6e2d636f60008201527f6e74726163740000000000000000000000000000000000000000000000000000602082015250565b7f45524332303a207472616e736665722066726f6d20746865207a65726f20616460008201527f6472657373000000000000000000000000000000000000000000000000000000602082015250565b7f45524332303a20617070726f76652066726f6d20746865207a65726f2061646460008201527f7265737300000000000000000000000000000000000000000000000000000000602082015250565b7f496e697469616c697a61626c653a20636f6e7472616374206973206e6f74206960008201527f6e697469616c697a696e67000000000000000000000000000000000000000000602082015250565b7f45524332303a2064656372656173656420616c6c6f77616e63652062656c6f7760008201527f207a65726f000000000000000000000000000000000000000000000000000000602082015250565b7f45524332303a206d696e7420746f20746865207a65726f206164647265737300600082015250565b612f43816127fa565b8114612f4e57600080fd5b50565b612f5a81612818565b8114612f6557600080fd5b50565b612f7181612842565b8114612f7c57600080fd5b5056fe416464726573733a206c6f772d6c6576656c2064656c65676174652063616c6c206661696c6564a2646970667358221220b875a718490553d3f0585e7b7651bfbdf4c5583e2a67fd33ca60936a8b0c353d64736f6c63430008070033",
			"opcodes": "PUSH1 0xA0 PUSH1 0x40 MSTORE ADDRESS PUSH20 0xFFFFFFFFFFFFFFFFFFFFFFFFFFFFFFFFFFFFFFFF AND PUSH1 0x80 SWAP1 PUSH20 0xFFFFFFFFFFFFFFFFFFFFFFFFFFFFFFFFFFFFFFFF AND PUSH1 0x60 SHL DUP2 MSTORE POP CALLVALUE DUP1 ISZERO PUSH2 0x46 JUMPI PUSH1 0x0 DUP1 REVERT JUMPDEST POP PUSH1 0x80 MLOAD PUSH1 0x60 SHR PUSH2 0x2FDC PUSH2 0x81 PUSH1 0x0 CODECOPY PUSH1 0x0 DUP2 DUP2 PUSH2 0x596 ADD MSTORE DUP2 DUP2 PUSH2 0x625 ADD MSTORE DUP2 DUP2 PUSH2 0x76C ADD MSTORE DUP2 DUP2 PUSH2 0x7FB ADD MSTORE PUSH2 0x8AB ADD MSTORE PUSH2 0x2FDC PUSH1 0x0 RETURN INVALID PUSH1 0x80 PUSH1 0x40 MSTORE PUSH1 0x4 CALLDATASIZE LT PUSH2 0x114 JUMPI PUSH1 0x0 CALLDATALOAD PUSH1 0xE0 SHR DUP1 PUSH4 0x52D1902D GT PUSH2 0xA0 JUMPI DUP1 PUSH4 0xA457C2D7 GT PUSH2 0x64 JUMPI DUP1 PUSH4 0xA457C2D7 EQ PUSH2 0x394 JUMPI DUP1 PUSH4 0xA9059CBB EQ PUSH2 0x3D1 JUMPI DUP1 PUSH4 0xDD62ED3E EQ PUSH2 0x40E JUMPI DUP1 PUSH4 0xF2FDE38B EQ PUSH2 0x44B JUMPI DUP1 PUSH4 0xFE4B84DF EQ PUSH2 0x474 JUMPI PUSH2 0x114 JUMP JUMPDEST DUP1 PUSH4 0x52D1902D EQ PUSH2 0x2BF JUMPI DUP1 PUSH4 0x70A08231 EQ PUSH2 0x2EA JUMPI DUP1 PUSH4 0x715018A6 EQ PUSH2 0x327 JUMPI DUP1 PUSH4 0x8DA5CB5B EQ PUSH2 0x33E JUMPI DUP1 PUSH4 0x95D89B41 EQ PUSH2 0x369 JUMPI PUSH2 0x114 JUMP JUMPDEST DUP1 PUSH4 0x313CE567 GT PUSH2 0xE7 JUMPI DUP1 PUSH4 0x313CE567 EQ PUSH2 0x1E9 JUMPI DUP1 PUSH4 0x3659CFE6 EQ PUSH2 0x214 JUMPI DUP1 PUSH4 0x39509351 EQ PUSH2 0x23D JUMPI DUP1 PUSH4 0x40C10F19 EQ PUSH2 0x27A JUMPI DUP1 PUSH4 0x4F1EF286 EQ PUSH2 0x2A3 JUMPI PUSH2 0x114 JUMP JUMPDEST DUP1 PUSH4 0x6FDDE03 EQ PUSH2 0x119 JUMPI DUP1 PUSH4 0x95EA7B3 EQ PUSH2 0x144 JUMPI DUP1 PUSH4 0x18160DDD EQ PUSH2 0x181 JUMPI DUP1 PUSH4 0x23B872DD EQ PUSH2 0x1AC JUMPI JUMPDEST PUSH1 0x0 DUP1 REVERT JUMPDEST CALLVALUE DUP1 ISZERO PUSH2 0x125 JUMPI PUSH1 0x0 DUP1 REVERT JUMPDEST POP PUSH2 0x12E PUSH2 0x49D JUMP JUMPDEST PUSH1 0x40 MLOAD PUSH2 0x13B SWAP2 SWAP1 PUSH2 0x2299 JUMP JUMPDEST PUSH1 0x40 MLOAD DUP1 SWAP2 SUB SWAP1 RETURN JUMPDEST CALLVALUE DUP1 ISZERO PUSH2 0x150 JUMPI PUSH1 0x0 DUP1 REVERT JUMPDEST POP PUSH2 0x16B PUSH1 0x4 DUP1 CALLDATASIZE SUB DUP2 ADD SWAP1 PUSH2 0x166 SWAP2 SWAP1 PUSH2 0x1E1F JUMP JUMPDEST PUSH2 0x52F JUMP JUMPDEST PUSH1 0x40 MLOAD PUSH2 0x178 SWAP2 SWAP1 PUSH2 0x2248 JUMP JUMPDEST PUSH1 0x40 MLOAD DUP1 SWAP2 SUB SWAP1 RETURN JUMPDEST CALLVALUE DUP1 ISZERO PUSH2 0x18D JUMPI PUSH1 0x0 DUP1 REVERT JUMPDEST POP PUSH2 0x196 PUSH2 0x552 JUMP JUMPDEST PUSH1 0x40 MLOAD PUSH2 0x1A3 SWAP2 SWAP1 PUSH2 0x251B JUMP JUMPDEST PUSH1 0x40 MLOAD DUP1 SWAP2 SUB SWAP1 RETURN JUMPDEST CALLVALUE DUP1 ISZERO PUSH2 0x1B8 JUMPI PUSH1 0x0 DUP1 REVERT JUMPDEST POP PUSH2 0x1D3 PUSH1 0x4 DUP1 CALLDATASIZE SUB DUP2 ADD SWAP1 PUSH2 0x1CE SWAP2 SWAP1 PUSH2 0x1D70 JUMP JUMPDEST PUSH2 0x55C JUMP JUMPDEST PUSH1 0x40 MLOAD PUSH2 0x1E0 SWAP2 SWAP1 PUSH2 0x2248 JUMP JUMPDEST PUSH1 0x40 MLOAD DUP1 SWAP2 SUB SWAP1 RETURN JUMPDEST CALLVALUE DUP1 ISZERO PUSH2 0x1F5 JUMPI PUSH1 0x0 DUP1 REVERT JUMPDEST POP PUSH2 0x1FE PUSH2 0x58B JUMP JUMPDEST PUSH1 0x40 MLOAD PUSH2 0x20B SWAP2 SWAP1 PUSH2 0x2536 JUMP JUMPDEST PUSH1 0x40 MLOAD DUP1 SWAP2 SUB SWAP1 RETURN JUMPDEST CALLVALUE DUP1 ISZERO PUSH2 0x220 JUMPI PUSH1 0x0 DUP1 REVERT JUMPDEST POP PUSH2 0x23B PUSH1 0x4 DUP1 CALLDATASIZE SUB DUP2 ADD SWAP1 PUSH2 0x236 SWAP2 SWAP1 PUSH2 0x1D03 JUMP JUMPDEST PUSH2 0x594 JUMP JUMPDEST STOP JUMPDEST CALLVALUE DUP1 ISZERO PUSH2 0x249 JUMPI PUSH1 0x0 DUP1 REVERT JUMPDEST POP PUSH2 0x264 PUSH1 0x4 DUP1 CALLDATASIZE SUB DUP2 ADD SWAP1 PUSH2 0x25F SWAP2 SWAP1 PUSH2 0x1E1F JUMP JUMPDEST PUSH2 0x71D JUMP JUMPDEST PUSH1 0x40 MLOAD PUSH2 0x271 SWAP2 SWAP1 PUSH2 0x2248 JUMP JUMPDEST PUSH1 0x40 MLOAD DUP1 SWAP2 SUB SWAP1 RETURN JUMPDEST CALLVALUE DUP1 ISZERO PUSH2 0x286 JUMPI PUSH1 0x0 DUP1 REVERT JUMPDEST POP PUSH2 0x2A1 PUSH1 0x4 DUP1 CALLDATASIZE SUB DUP2 ADD SWAP1 PUSH2 0x29C SWAP2 SWAP1 PUSH2 0x1E1F JUMP JUMPDEST PUSH2 0x754 JUMP JUMPDEST STOP JUMPDEST PUSH2 0x2BD PUSH1 0x4 DUP1 CALLDATASIZE SUB DUP2 ADD SWAP1 PUSH2 0x2B8 SWAP2 SWAP1 PUSH2 0x1DC3 JUMP JUMPDEST PUSH2 0x76A JUMP JUMPDEST STOP JUMPDEST CALLVALUE DUP1 ISZERO PUSH2 0x2CB JUMPI PUSH1 0x0 DUP1 REVERT JUMPDEST POP PUSH2 0x2D4 PUSH2 0x8A7 JUMP JUMPDEST PUSH1 0x40 MLOAD PUSH2 0x2E1 SWAP2 SWAP1 PUSH2 0x2263 JUMP JUMPDEST PUSH1 0x40 MLOAD DUP1 SWAP2 SUB SWAP1 RETURN JUMPDEST CALLVALUE DUP1 ISZERO PUSH2 0x2F6 JUMPI PUSH1 0x0 DUP1 REVERT JUMPDEST POP PUSH2 0x311 PUSH1 0x4 DUP1 CALLDATASIZE SUB DUP2 ADD SWAP1 PUSH2 0x30C SWAP2 SWAP1 PUSH2 0x1D03 JUMP JUMPDEST PUSH2 0x960 JUMP JUMPDEST PUSH1 0x40 MLOAD PUSH2 0x31E SWAP2 SWAP1 PUSH2 0x251B JUMP JUMPDEST PUSH1 0x40 MLOAD DUP1 SWAP2 SUB SWAP1 RETURN JUMPDEST CALLVALUE DUP1 ISZERO PUSH2 0x333 JUMPI PUSH1 0x0 DUP1 REVERT JUMPDEST POP PUSH2 0x33C PUSH2 0x9A9 JUMP JUMPDEST STOP JUMPDEST CALLVALUE DUP1 ISZERO PUSH2 0x34A JUMPI PUSH1 0x0 DUP1 REVERT JUMPDEST POP PUSH2 0x353 PUSH2 0x9BD JUMP JUMPDEST PUSH1 0x40 MLOAD PUSH2 0x360 SWAP2 SWAP1 PUSH2 0x222D JUMP JUMPDEST PUSH1 0x40 MLOAD DUP1 SWAP2 SUB SWAP1 RETURN JUMPDEST CALLVALUE DUP1 ISZERO PUSH2 0x375 JUMPI PUSH1 0x0 DUP1 REVERT JUMPDEST POP PUSH2 0x37E PUSH2 0x9E7 JUMP JUMPDEST PUSH1 0x40 MLOAD PUSH2 0x38B SWAP2 SWAP1 PUSH2 0x2299 JUMP JUMPDEST PUSH1 0x40 MLOAD DUP1 SWAP2 SUB SWAP1 RETURN JUMPDEST CALLVALUE DUP1 ISZERO PUSH2 0x3A0 JUMPI PUSH1 0x0 DUP1 REVERT JUMPDEST POP PUSH2 0x3BB PUSH1 0x4 DUP1 CALLDATASIZE SUB DUP2 ADD SWAP1 PUSH2 0x3B6 SWAP2 SWAP1 PUSH2 0x1E1F JUMP JUMPDEST PUSH2 0xA79 JUMP JUMPDEST PUSH1 0x40 MLOAD PUSH2 0x3C8 SWAP2 SWAP1 PUSH2 0x2248 JUMP JUMPDEST PUSH1 0x40 MLOAD DUP1 SWAP2 SUB SWAP1 RETURN JUMPDEST CALLVALUE DUP1 ISZERO PUSH2 0x3DD JUMPI PUSH1 0x0 DUP1 REVERT JUMPDEST POP PUSH2 0x3F8 PUSH1 0x4 DUP1 CALLDATASIZE SUB DUP2 ADD SWAP1 PUSH2 0x3F3 SWAP2 SWAP1 PUSH2 0x1E1F JUMP JUMPDEST PUSH2 0xAF0 JUMP JUMPDEST PUSH1 0x40 MLOAD PUSH2 0x405 SWAP2 SWAP1 PUSH2 0x2248 JUMP JUMPDEST PUSH1 0x40 MLOAD DUP1 SWAP2 SUB SWAP1 RETURN JUMPDEST CALLVALUE DUP1 ISZERO PUSH2 0x41A JUMPI PUSH1 0x0 DUP1 REVERT JUMPDEST POP PUSH2 0x435 PUSH1 0x4 DUP1 CALLDATASIZE SUB DUP2 ADD SWAP1 PUSH2 0x430 SWAP2 SWAP1 PUSH2 0x1D30 JUMP JUMPDEST PUSH2 0xB13 JUMP JUMPDEST PUSH1 0x40 MLOAD PUSH2 0x442 SWAP2 SWAP1 PUSH2 0x251B JUMP JUMPDEST PUSH1 0x40 MLOAD DUP1 SWAP2 SUB SWAP1 RETURN JUMPDEST CALLVALUE DUP1 ISZERO PUSH2 0x457 JUMPI PUSH1 0x0 DUP1 REVERT JUMPDEST POP PUSH2 0x472 PUSH1 0x4 DUP1 CALLDATASIZE SUB DUP2 ADD SWAP1 PUSH2 0x46D SWAP2 SWAP1 PUSH2 0x1D03 JUMP JUMPDEST PUSH2 0xB9A JUMP JUMPDEST STOP JUMPDEST CALLVALUE DUP1 ISZERO PUSH2 0x480 JUMPI PUSH1 0x0 DUP1 REVERT JUMPDEST POP PUSH2 0x49B PUSH1 0x4 DUP1 CALLDATASIZE SUB DUP2 ADD SWAP1 PUSH2 0x496 SWAP2 SWAP1 PUSH2 0x1E8C JUMP JUMPDEST PUSH2 0xC1E JUMP JUMPDEST STOP JUMPDEST PUSH1 0x60 PUSH1 0x36 DUP1 SLOAD PUSH2 0x4AC SWAP1 PUSH2 0x28AD JUMP JUMPDEST DUP1 PUSH1 0x1F ADD PUSH1 0x20 DUP1 SWAP2 DIV MUL PUSH1 0x20 ADD PUSH1 0x40 MLOAD SWAP1 DUP2 ADD PUSH1 0x40 MSTORE DUP1 SWAP3 SWAP2 SWAP1 DUP2 DUP2 MSTORE PUSH1 0x20 ADD DUP3 DUP1 SLOAD PUSH2 0x4D8 SWAP1 PUSH2 0x28AD JUMP JUMPDEST DUP1 ISZERO PUSH2 0x525 JUMPI DUP1 PUSH1 0x1F LT PUSH2 0x4FA JUMPI PUSH2 0x100 DUP1 DUP4 SLOAD DIV MUL DUP4 MSTORE SWAP2 PUSH1 0x20 ADD SWAP2 PUSH2 0x525 JUMP JUMPDEST DUP3 ADD SWAP2 SWAP1 PUSH1 0x0 MSTORE PUSH1 0x20 PUSH1 0x0 KECCAK256 SWAP1 JUMPDEST DUP2 SLOAD DUP2 MSTORE SWAP1 PUSH1 0x1 ADD SWAP1 PUSH1 0x20 ADD DUP1 DUP4 GT PUSH2 0x508 JUMPI DUP3 SWAP1 SUB PUSH1 0x1F AND DUP3 ADD SWAP2 JUMPDEST POP POP POP POP POP SWAP1 POP SWAP1 JUMP JUMPDEST PUSH1 0x0 DUP1 PUSH2 0x53A PUSH2 0xE01 JUMP JUMPDEST SWAP1 POP PUSH2 0x547 DUP2 DUP6 DUP6 PUSH2 0xE09 JUMP JUMPDEST PUSH1 0x1 SWAP2 POP POP SWAP3 SWAP2 POP POP JUMP JUMPDEST PUSH1 0x0 PUSH1 0x35 SLOAD SWAP1 POP SWAP1 JUMP JUMPDEST PUSH1 0x0 DUP1 PUSH2 0x567 PUSH2 0xE01 JUMP JUMPDEST SWAP1 POP PUSH2 0x574 DUP6 DUP3 DUP6 PUSH2 0xFD4 JUMP JUMPDEST PUSH2 0x57F DUP6 DUP6 DUP6 PUSH2 0x1060 JUMP JUMPDEST PUSH1 0x1 SWAP2 POP POP SWAP4 SWAP3 POP POP POP JUMP JUMPDEST PUSH1 0x0 PUSH1 0x12 SWAP1 POP SWAP1 JUMP JUMPDEST PUSH32 0x0 PUSH20 0xFFFFFFFFFFFFFFFFFFFFFFFFFFFFFFFFFFFFFFFF AND ADDRESS PUSH20 0xFFFFFFFFFFFFFFFFFFFFFFFFFFFFFFFFFFFFFFFF AND EQ ISZERO PUSH2 0x623 JUMPI PUSH1 0x40 MLOAD PUSH32 0x8C379A000000000000000000000000000000000000000000000000000000000 DUP2 MSTORE PUSH1 0x4 ADD PUSH2 0x61A SWAP1 PUSH2 0x231B JUMP JUMPDEST PUSH1 0x40 MLOAD DUP1 SWAP2 SUB SWAP1 REVERT JUMPDEST PUSH32 0x0 PUSH20 0xFFFFFFFFFFFFFFFFFFFFFFFFFFFFFFFFFFFFFFFF AND PUSH2 0x662 PUSH2 0x12DB JUMP JUMPDEST PUSH20 0xFFFFFFFFFFFFFFFFFFFFFFFFFFFFFFFFFFFFFFFF AND EQ PUSH2 0x6B8 JUMPI PUSH1 0x40 MLOAD PUSH32 0x8C379A000000000000000000000000000000000000000000000000000000000 DUP2 MSTORE PUSH1 0x4 ADD PUSH2 0x6AF SWAP1 PUSH2 0x237B JUMP JUMPDEST PUSH1 0x40 MLOAD DUP1 SWAP2 SUB SWAP1 REVERT JUMPDEST PUSH2 0x6C1 DUP2 PUSH2 0x1332 JUMP JUMPDEST PUSH2 0x71A DUP2 PUSH1 0x0 PUSH8 0xFFFFFFFFFFFFFFFF DUP2 GT ISZERO PUSH2 0x6E0 JUMPI PUSH2 0x6DF PUSH2 0x296E JUMP JUMPDEST JUMPDEST PUSH1 0x40 MLOAD SWAP1 DUP1 DUP3 MSTORE DUP1 PUSH1 0x1F ADD PUSH1 0x1F NOT AND PUSH1 0x20 ADD DUP3 ADD PUSH1 0x40 MSTORE DUP1 ISZERO PUSH2 0x712 JUMPI DUP2 PUSH1 0x20 ADD PUSH1 0x1 DUP3 MUL DUP1 CALLDATASIZE DUP4 CALLDATACOPY DUP1 DUP3 ADD SWAP2 POP POP SWAP1 POP JUMPDEST POP PUSH1 0x0 PUSH2 0x133D JUMP JUMPDEST POP JUMP JUMPDEST PUSH1 0x0 DUP1 PUSH2 0x728 PUSH2 0xE01 JUMP JUMPDEST SWAP1 POP PUSH2 0x749 DUP2 DUP6 DUP6 PUSH2 0x73A DUP6 DUP10 PUSH2 0xB13 JUMP JUMPDEST PUSH2 0x744 SWAP2 SWAP1 PUSH2 0x25D9 JUMP JUMPDEST PUSH2 0xE09 JUMP JUMPDEST PUSH1 0x1 SWAP2 POP POP SWAP3 SWAP2 POP POP JUMP JUMPDEST PUSH2 0x75C PUSH2 0x14BA JUMP JUMPDEST PUSH2 0x766 DUP3 DUP3 PUSH2 0x1538 JUMP JUMPDEST POP POP JUMP JUMPDEST PUSH32 0x0 PUSH20 0xFFFFFFFFFFFFFFFFFFFFFFFFFFFFFFFFFFFFFFFF AND ADDRESS PUSH20 0xFFFFFFFFFFFFFFFFFFFFFFFFFFFFFFFFFFFFFFFF AND EQ ISZERO PUSH2 0x7F9 JUMPI PUSH1 0x40 MLOAD PUSH32 0x8C379A000000000000000000000000000000000000000000000000000000000 DUP2 MSTORE PUSH1 0x4 ADD PUSH2 0x7F0 SWAP1 PUSH2 0x231B JUMP JUMPDEST PUSH1 0x40 MLOAD DUP1 SWAP2 SUB SWAP1 REVERT JUMPDEST PUSH32 0x0 PUSH20 0xFFFFFFFFFFFFFFFFFFFFFFFFFFFFFFFFFFFFFFFF AND PUSH2 0x838 PUSH2 0x12DB JUMP JUMPDEST PUSH20 0xFFFFFFFFFFFFFFFFFFFFFFFFFFFFFFFFFFFFFFFF AND EQ PUSH2 0x88E JUMPI PUSH1 0x40 MLOAD PUSH32 0x8C379A000000000000000000000000000000000000000000000000000000000 DUP2 MSTORE PUSH1 0x4 ADD PUSH2 0x885 SWAP1 PUSH2 0x237B JUMP JUMPDEST PUSH1 0x40 MLOAD DUP1 SWAP2 SUB SWAP1 REVERT JUMPDEST PUSH2 0x897 DUP3 PUSH2 0x1332 JUMP JUMPDEST PUSH2 0x8A3 DUP3 DUP3 PUSH1 0x1 PUSH2 0x133D JUMP JUMPDEST POP POP JUMP JUMPDEST PUSH1 0x0 PUSH32 0x0 PUSH20 0xFFFFFFFFFFFFFFFFFFFFFFFFFFFFFFFFFFFFFFFF AND ADDRESS PUSH20 0xFFFFFFFFFFFFFFFFFFFFFFFFFFFFFFFFFFFFFFFF AND EQ PUSH2 0x937 JUMPI PUSH1 0x40 MLOAD PUSH32 0x8C379A000000000000000000000000000000000000000000000000000000000 DUP2 MSTORE PUSH1 0x4 ADD PUSH2 0x92E SWAP1 PUSH2 0x239B JUMP JUMPDEST PUSH1 0x40 MLOAD DUP1 SWAP2 SUB SWAP1 REVERT JUMPDEST PUSH32 0x360894A13BA1A3210667C828492DB98DCA3E2076CC3735A920A3CA505D382BBC PUSH1 0x0 SHL SWAP1 POP SWAP1 JUMP JUMPDEST PUSH1 0x0 PUSH1 0x33 PUSH1 0x0 DUP4 PUSH20 0xFFFFFFFFFFFFFFFFFFFFFFFFFFFFFFFFFFFFFFFF AND PUSH20 0xFFFFFFFFFFFFFFFFFFFFFFFFFFFFFFFFFFFFFFFF AND DUP2 MSTORE PUSH1 0x20 ADD SWAP1 DUP2 MSTORE PUSH1 0x20 ADD PUSH1 0x0 KECCAK256 SLOAD SWAP1 POP SWAP2 SWAP1 POP JUMP JUMPDEST PUSH2 0x9B1 PUSH2 0x14BA JUMP JUMPDEST PUSH2 0x9BB PUSH1 0x0 PUSH2 0x1690 JUMP JUMPDEST JUMP JUMPDEST PUSH1 0x0 PUSH1 0xC9 PUSH1 0x0 SWAP1 SLOAD SWAP1 PUSH2 0x100 EXP SWAP1 DIV PUSH20 0xFFFFFFFFFFFFFFFFFFFFFFFFFFFFFFFFFFFFFFFF AND SWAP1 POP SWAP1 JUMP JUMPDEST PUSH1 0x60 PUSH1 0x37 DUP1 SLOAD PUSH2 0x9F6 SWAP1 PUSH2 0x28AD JUMP JUMPDEST DUP1 PUSH1 0x1F ADD PUSH1 0x20 DUP1 SWAP2 DIV MUL PUSH1 0x20 ADD PUSH1 0x40 MLOAD SWAP1 DUP2 ADD PUSH1 0x40 MSTORE DUP1 SWAP3 SWAP2 SWAP1 DUP2 DUP2 MSTORE PUSH1 0x20 ADD DUP3 DUP1 SLOAD PUSH2 0xA22 SWAP1 PUSH2 0x28AD JUMP JUMPDEST DUP1 ISZERO PUSH2 0xA6F JUMPI DUP1 PUSH1 0x1F LT PUSH2 0xA44 JUMPI PUSH2 0x100 DUP1 DUP4 SLOAD DIV MUL DUP4 MSTORE SWAP2 PUSH1 0x20 ADD SWAP2 PUSH2 0xA6F JUMP JUMPDEST DUP3 ADD SWAP2 SWAP1 PUSH1 0x0 MSTORE PUSH1 0x20 PUSH1 0x0 KECCAK256 SWAP1 JUMPDEST DUP2 SLOAD DUP2 MSTORE SWAP1 PUSH1 0x1 ADD SWAP1 PUSH1 0x20 ADD DUP1 DUP4 GT PUSH2 0xA52 JUMPI DUP3 SWAP1 SUB PUSH1 0x1F AND DUP3 ADD SWAP2 JUMPDEST POP POP POP POP POP SWAP1 POP SWAP1 JUMP JUMPDEST PUSH1 0x0 DUP1 PUSH2 0xA84 PUSH2 0xE01 JUMP JUMPDEST SWAP1 POP PUSH1 0x0 PUSH2 0xA92 DUP3 DUP7 PUSH2 0xB13 JUMP JUMPDEST SWAP1 POP DUP4 DUP2 LT ISZERO PUSH2 0xAD7 JUMPI PUSH1 0x40 MLOAD PUSH32 0x8C379A000000000000000000000000000000000000000000000000000000000 DUP2 MSTORE PUSH1 0x4 ADD PUSH2 0xACE SWAP1 PUSH2 0x24DB JUMP JUMPDEST PUSH1 0x40 MLOAD DUP1 SWAP2 SUB SWAP1 REVERT JUMPDEST PUSH2 0xAE4 DUP3 DUP7 DUP7 DUP5 SUB PUSH2 0xE09 JUMP JUMPDEST PUSH1 0x1 SWAP3 POP POP POP SWAP3 SWAP2 POP POP JUMP JUMPDEST PUSH1 0x0 DUP1 PUSH2 0xAFB PUSH2 0xE01 JUMP JUMPDEST SWAP1 POP PUSH2 0xB08 DUP2 DUP6 DUP6 PUSH2 0x1060 JUMP JUMPDEST PUSH1 0x1 SWAP2 POP POP SWAP3 SWAP2 POP POP JUMP JUMPDEST PUSH1 0x0 PUSH1 0x34 PUSH1 0x0 DUP5 PUSH20 0xFFFFFFFFFFFFFFFFFFFFFFFFFFFFFFFFFFFFFFFF AND PUSH20 0xFFFFFFFFFFFFFFFFFFFFFFFFFFFFFFFFFFFFFFFF AND DUP2 MSTORE PUSH1 0x20 ADD SWAP1 DUP2 MSTORE PUSH1 0x20 ADD PUSH1 0x0 KECCAK256 PUSH1 0x0 DUP4 PUSH20 0xFFFFFFFFFFFFFFFFFFFFFFFFFFFFFFFFFFFFFFFF AND PUSH20 0xFFFFFFFFFFFFFFFFFFFFFFFFFFFFFFFFFFFFFFFF AND DUP2 MSTORE PUSH1 0x20 ADD SWAP1 DUP2 MSTORE PUSH1 0x20 ADD PUSH1 0x0 KECCAK256 SLOAD SWAP1 POP SWAP3 SWAP2 POP POP JUMP JUMPDEST PUSH2 0xBA2 PUSH2 0x14BA JUMP JUMPDEST PUSH1 0x0 PUSH20 0xFFFFFFFFFFFFFFFFFFFFFFFFFFFFFFFFFFFFFFFF AND DUP2 PUSH20 0xFFFFFFFFFFFFFFFFFFFFFFFFFFFFFFFFFFFFFFFF AND EQ ISZERO PUSH2 0xC12 JUMPI PUSH1 0x40 MLOAD PUSH32 0x8C379A000000000000000000000000000000000000000000000000000000000 DUP2 MSTORE PUSH1 0x4 ADD PUSH2 0xC09 SWAP1 PUSH2 0x22DB JUMP JUMPDEST PUSH1 0x40 MLOAD DUP1 SWAP2 SUB SWAP1 REVERT JUMPDEST PUSH2 0xC1B DUP2 PUSH2 0x1690 JUMP JUMPDEST POP JUMP JUMPDEST PUSH1 0x0 DUP1 PUSH1 0x1 SWAP1 SLOAD SWAP1 PUSH2 0x100 EXP SWAP1 DIV PUSH1 0xFF AND ISZERO SWAP1 POP DUP1 DUP1 ISZERO PUSH2 0xC4F JUMPI POP PUSH1 0x1 PUSH1 0x0 DUP1 SLOAD SWAP1 PUSH2 0x100 EXP SWAP1 DIV PUSH1 0xFF AND PUSH1 0xFF AND LT JUMPDEST DUP1 PUSH2 0xC7C JUMPI POP PUSH2 0xC5E ADDRESS PUSH2 0x1756 JUMP JUMPDEST ISZERO DUP1 ISZERO PUSH2 0xC7B JUMPI POP PUSH1 0x1 PUSH1 0x0 DUP1 SLOAD SWAP1 PUSH2 0x100 EXP SWAP1 DIV PUSH1 0xFF AND PUSH1 0xFF AND EQ JUMPDEST JUMPDEST PUSH2 0xCBB JUMPI PUSH1 0x40 MLOAD PUSH32 0x8C379A000000000000000000000000000000000000000000000000000000000 DUP2 MSTORE PUSH1 0x4 ADD PUSH2 0xCB2 SWAP1 PUSH2 0x23DB JUMP JUMPDEST PUSH1 0x40 MLOAD DUP1 SWAP2 SUB SWAP1 REVERT JUMPDEST PUSH1 0x1 PUSH1 0x0 DUP1 PUSH2 0x100 EXP DUP2 SLOAD DUP2 PUSH1 0xFF MUL NOT AND SWAP1 DUP4 PUSH1 0xFF AND MUL OR SWAP1 SSTORE POP DUP1 ISZERO PUSH2 0xCF8 JUMPI PUSH1 0x1 PUSH1 0x0 PUSH1 0x1 PUSH2 0x100 EXP DUP2 SLOAD DUP2 PUSH1 0xFF MUL NOT AND SWAP1 DUP4 ISZERO ISZERO MUL OR SWAP1 SSTORE POP JUMPDEST PUSH2 0xD6C PUSH1 0x40 MLOAD DUP1 PUSH1 0x40 ADD PUSH1 0x40 MSTORE DUP1 PUSH1 0xB DUP2 MSTORE PUSH1 0x20 ADD PUSH32 0x506C61747A69546F6B656E000000000000000000000000000000000000000000 DUP2 MSTORE POP PUSH1 0x40 MLOAD DUP1 PUSH1 0x40 ADD PUSH1 0x40 MSTORE DUP1 PUSH1 0x3 DUP2 MSTORE PUSH1 0x20 ADD PUSH32 0x504C5A0000000000000000000000000000000000000000000000000000000000 DUP2 MSTORE POP PUSH2 0x1779 JUMP JUMPDEST PUSH2 0xD74 PUSH2 0x17D6 JUMP JUMPDEST PUSH2 0xD7C PUSH2 0x1837 JUMP JUMPDEST PUSH2 0xDA4 CALLER PUSH2 0xD88 PUSH2 0x58B JUMP JUMPDEST PUSH1 0xA PUSH2 0xD94 SWAP2 SWAP1 PUSH2 0x2682 JUMP JUMPDEST DUP5 PUSH2 0xD9F SWAP2 SWAP1 PUSH2 0x27A0 JUMP JUMPDEST PUSH2 0x1538 JUMP JUMPDEST DUP1 ISZERO PUSH2 0xDFD JUMPI PUSH1 0x0 DUP1 PUSH1 0x1 PUSH2 0x100 EXP DUP2 SLOAD DUP2 PUSH1 0xFF MUL NOT AND SWAP1 DUP4 ISZERO ISZERO MUL OR SWAP1 SSTORE POP PUSH32 0x7F26B83FF96E1F2B6A682F133852F6798A09C465DA95921460CEFB3847402498 PUSH1 0x1 PUSH1 0x40 MLOAD PUSH2 0xDF4 SWAP2 SWAP1 PUSH2 0x227E JUMP JUMPDEST PUSH1 0x40 MLOAD DUP1 SWAP2 SUB SWAP1 LOG1 JUMPDEST POP POP JUMP JUMPDEST PUSH1 0x0 CALLER SWAP1 POP SWAP1 JUMP JUMPDEST PUSH1 0x0 PUSH20 0xFFFFFFFFFFFFFFFFFFFFFFFFFFFFFFFFFFFFFFFF AND DUP4 PUSH20 0xFFFFFFFFFFFFFFFFFFFFFFFFFFFFFFFFFFFFFFFF AND EQ ISZERO PUSH2 0xE79 JUMPI PUSH1 0x40 MLOAD PUSH32 0x8C379A000000000000000000000000000000000000000000000000000000000 DUP2 MSTORE PUSH1 0x4 ADD PUSH2 0xE70 SWAP1 PUSH2 0x249B JUMP JUMPDEST PUSH1 0x40 MLOAD DUP1 SWAP2 SUB SWAP1 REVERT JUMPDEST PUSH1 0x0 PUSH20 0xFFFFFFFFFFFFFFFFFFFFFFFFFFFFFFFFFFFFFFFF AND DUP3 PUSH20 0xFFFFFFFFFFFFFFFFFFFFFFFFFFFFFFFFFFFFFFFF AND EQ ISZERO PUSH2 0xEE9 JUMPI PUSH1 0x40 MLOAD PUSH32 0x8C379A000000000000000000000000000000000000000000000000000000000 DUP2 MSTORE PUSH1 0x4 ADD PUSH2 0xEE0 SWAP1 PUSH2 0x22FB JUMP JUMPDEST PUSH1 0x40 MLOAD DUP1 SWAP2 SUB SWAP1 REVERT JUMPDEST DUP1 PUSH1 0x34 PUSH1 0x0 DUP6 PUSH20 0xFFFFFFFFFFFFFFFFFFFFFFFFFFFFFFFFFFFFFFFF AND PUSH20 0xFFFFFFFFFFFFFFFFFFFFFFFFFFFFFFFFFFFFFFFF AND DUP2 MSTORE PUSH1 0x20 ADD SWAP1 DUP2 MSTORE PUSH1 0x20 ADD PUSH1 0x0 KECCAK256 PUSH1 0x0 DUP5 PUSH20 0xFFFFFFFFFFFFFFFFFFFFFFFFFFFFFFFFFFFFFFFF AND PUSH20 0xFFFFFFFFFFFFFFFFFFFFFFFFFFFFFFFFFFFFFFFF AND DUP2 MSTORE PUSH1 0x20 ADD SWAP1 DUP2 MSTORE PUSH1 0x20 ADD PUSH1 0x0 KECCAK256 DUP2 SWAP1 SSTORE POP DUP2 PUSH20 0xFFFFFFFFFFFFFFFFFFFFFFFFFFFFFFFFFFFFFFFF AND DUP4 PUSH20 0xFFFFFFFFFFFFFFFFFFFFFFFFFFFFFFFFFFFFFFFF AND PUSH32 0x8C5BE1E5EBEC7D5BD14F71427D1E84F3DD0314C0F7B2291E5B200AC8C7C3B925 DUP4 PUSH1 0x40 MLOAD PUSH2 0xFC7 SWAP2 SWAP1 PUSH2 0x251B JUMP JUMPDEST PUSH1 0x40 MLOAD DUP1 SWAP2 SUB SWAP1 LOG3 POP POP POP JUMP JUMPDEST PUSH1 0x0 PUSH2 0xFE0 DUP5 DUP5 PUSH2 0xB13 JUMP JUMPDEST SWAP1 POP PUSH32 0xFFFFFFFFFFFFFFFFFFFFFFFFFFFFFFFFFFFFFFFFFFFFFFFFFFFFFFFFFFFFFFFF DUP2 EQ PUSH2 0x105A JUMPI DUP2 DUP2 LT ISZERO PUSH2 0x104C JUMPI PUSH1 0x40 MLOAD PUSH32 0x8C379A000000000000000000000000000000000000000000000000000000000 DUP2 MSTORE PUSH1 0x4 ADD PUSH2 0x1043 SWAP1 PUSH2 0x233B JUMP JUMPDEST PUSH1 0x40 MLOAD DUP1 SWAP2 SUB SWAP1 REVERT JUMPDEST PUSH2 0x1059 DUP5 DUP5 DUP5 DUP5 SUB PUSH2 0xE09 JUMP JUMPDEST JUMPDEST POP POP POP POP JUMP JUMPDEST PUSH1 0x0 PUSH20 0xFFFFFFFFFFFFFFFFFFFFFFFFFFFFFFFFFFFFFFFF AND DUP4 PUSH20 0xFFFFFFFFFFFFFFFFFFFFFFFFFFFFFFFFFFFFFFFF AND EQ ISZERO PUSH2 0x10D0 JUMPI PUSH1 0x40 MLOAD PUSH32 0x8C379A000000000000000000000000000000000000000000000000000000000 DUP2 MSTORE PUSH1 0x4 ADD PUSH2 0x10C7 SWAP1 PUSH2 0x247B JUMP JUMPDEST PUSH1 0x40 MLOAD DUP1 SWAP2 SUB SWAP1 REVERT JUMPDEST PUSH1 0x0 PUSH20 0xFFFFFFFFFFFFFFFFFFFFFFFFFFFFFFFFFFFFFFFF AND DUP3 PUSH20 0xFFFFFFFFFFFFFFFFFFFFFFFFFFFFFFFFFFFFFFFF AND EQ ISZERO PUSH2 0x1140 JUMPI PUSH1 0x40 MLOAD PUSH32 0x8C379A000000000000000000000000000000000000000000000000000000000 DUP2 MSTORE PUSH1 0x4 ADD PUSH2 0x1137 SWAP1 PUSH2 0x22BB JUMP JUMPDEST PUSH1 0x40 MLOAD DUP1 SWAP2 SUB SWAP1 REVERT JUMPDEST PUSH2 0x114B DUP4 DUP4 DUP4 PUSH2 0x1888 JUMP JUMPDEST PUSH1 0x0 PUSH1 0x33 PUSH1 0x0 DUP6 PUSH20 0xFFFFFFFFFFFFFFFFFFFFFFFFFFFFFFFFFFFFFFFF AND PUSH20 0xFFFFFFFFFFFFFFFFFFFFFFFFFFFFFFFFFFFFFFFF AND DUP2 MSTORE PUSH1 0x20 ADD SWAP1 DUP2 MSTORE PUSH1 0x20 ADD PUSH1 0x0 KECCAK256 SLOAD SWAP1 POP DUP2 DUP2 LT ISZERO PUSH2 0x11D2 JUMPI PUSH1 0x40 MLOAD PUSH32 0x8C379A000000000000000000000000000000000000000000000000000000000 DUP2 MSTORE PUSH1 0x4 ADD PUSH2 0x11C9 SWAP1 PUSH2 0x235B JUMP JUMPDEST PUSH1 0x40 MLOAD DUP1 SWAP2 SUB SWAP1 REVERT JUMPDEST DUP2 DUP2 SUB PUSH1 0x33 PUSH1 0x0 DUP7 PUSH20 0xFFFFFFFFFFFFFFFFFFFFFFFFFFFFFFFFFFFFFFFF AND PUSH20 0xFFFFFFFFFFFFFFFFFFFFFFFFFFFFFFFFFFFFFFFF AND DUP2 MSTORE PUSH1 0x20 ADD SWAP1 DUP2 MSTORE PUSH1 0x20 ADD PUSH1 0x0 KECCAK256 DUP2 SWAP1 SSTORE POP DUP2 PUSH1 0x33 PUSH1 0x0 DUP6 PUSH20 0xFFFFFFFFFFFFFFFFFFFFFFFFFFFFFFFFFFFFFFFF AND PUSH20 0xFFFFFFFFFFFFFFFFFFFFFFFFFFFFFFFFFFFFFFFF AND DUP2 MSTORE PUSH1 0x20 ADD SWAP1 DUP2 MSTORE PUSH1 0x20 ADD PUSH1 0x0 KECCAK256 PUSH1 0x0 DUP3 DUP3 SLOAD ADD SWAP3 POP POP DUP2 SWAP1 SSTORE POP DUP3 PUSH20 0xFFFFFFFFFFFFFFFFFFFFFFFFFFFFFFFFFFFFFFFF AND DUP5 PUSH20 0xFFFFFFFFFFFFFFFFFFFFFFFFFFFFFFFFFFFFFFFF AND PUSH32 0xDDF252AD1BE2C89B69C2B068FC378DAA952BA7F163C4A11628F55A4DF523B3EF DUP5 PUSH1 0x40 MLOAD PUSH2 0x12C2 SWAP2 SWAP1 PUSH2 0x251B JUMP JUMPDEST PUSH1 0x40 MLOAD DUP1 SWAP2 SUB SWAP1 LOG3 PUSH2 0x12D5 DUP5 DUP5 DUP5 PUSH2 0x188D JUMP JUMPDEST POP POP POP POP JUMP JUMPDEST PUSH1 0x0 PUSH2 0x1309 PUSH32 0x360894A13BA1A3210667C828492DB98DCA3E2076CC3735A920A3CA505D382BBC PUSH1 0x0 SHL PUSH2 0x1892 JUMP JUMPDEST PUSH1 0x0 ADD PUSH1 0x0 SWAP1 SLOAD SWAP1 PUSH2 0x100 EXP SWAP1 DIV PUSH20 0xFFFFFFFFFFFFFFFFFFFFFFFFFFFFFFFFFFFFFFFF AND SWAP1 POP SWAP1 JUMP JUMPDEST PUSH2 0x133A PUSH2 0x14BA JUMP JUMPDEST POP JUMP JUMPDEST PUSH2 0x1369 PUSH32 0x4910FDFA16FED3260ED0E7147F7CC6DA11A60208B5B9406D12A635614FFD9143 PUSH1 0x0 SHL PUSH2 0x189C JUMP JUMPDEST PUSH1 0x0 ADD PUSH1 0x0 SWAP1 SLOAD SWAP1 PUSH2 0x100 EXP SWAP1 DIV PUSH1 0xFF AND ISZERO PUSH2 0x138D JUMPI PUSH2 0x1388 DUP4 PUSH2 0x18A6 JUMP JUMPDEST PUSH2 0x14B5 JUMP JUMPDEST DUP3 PUSH20 0xFFFFFFFFFFFFFFFFFFFFFFFFFFFFFFFFFFFFFFFF AND PUSH4 0x52D1902D PUSH1 0x40 MLOAD DUP2 PUSH4 0xFFFFFFFF AND PUSH1 0xE0 SHL DUP2 MSTORE PUSH1 0x4 ADD PUSH1 0x20 PUSH1 0x40 MLOAD DUP1 DUP4 SUB DUP2 DUP7 DUP1 EXTCODESIZE ISZERO DUP1 ISZERO PUSH2 0x13D3 JUMPI PUSH1 0x0 DUP1 REVERT JUMPDEST POP GAS STATICCALL SWAP3 POP POP POP DUP1 ISZERO PUSH2 0x1404 JUMPI POP PUSH1 0x40 MLOAD RETURNDATASIZE PUSH1 0x1F NOT PUSH1 0x1F DUP3 ADD AND DUP3 ADD DUP1 PUSH1 0x40 MSTORE POP DUP2 ADD SWAP1 PUSH2 0x1401 SWAP2 SWAP1 PUSH2 0x1E5F JUMP JUMPDEST PUSH1 0x1 JUMPDEST PUSH2 0x1443 JUMPI PUSH1 0x40 MLOAD PUSH32 0x8C379A000000000000000000000000000000000000000000000000000000000 DUP2 MSTORE PUSH1 0x4 ADD PUSH2 0x143A SWAP1 PUSH2 0x23FB JUMP JUMPDEST PUSH1 0x40 MLOAD DUP1 SWAP2 SUB SWAP1 REVERT JUMPDEST PUSH32 0x360894A13BA1A3210667C828492DB98DCA3E2076CC3735A920A3CA505D382BBC PUSH1 0x0 SHL DUP2 EQ PUSH2 0x14A8 JUMPI PUSH1 0x40 MLOAD PUSH32 0x8C379A000000000000000000000000000000000000000000000000000000000 DUP2 MSTORE PUSH1 0x4 ADD PUSH2 0x149F SWAP1 PUSH2 0x23BB JUMP JUMPDEST PUSH1 0x40 MLOAD DUP1 SWAP2 SUB SWAP1 REVERT JUMPDEST POP PUSH2 0x14B4 DUP4 DUP4 DUP4 PUSH2 0x195F JUMP JUMPDEST JUMPDEST POP POP POP JUMP JUMPDEST PUSH2 0x14C2 PUSH2 0xE01 JUMP JUMPDEST PUSH20 0xFFFFFFFFFFFFFFFFFFFFFFFFFFFFFFFFFFFFFFFF AND PUSH2 0x14E0 PUSH2 0x9BD JUMP JUMPDEST PUSH20 0xFFFFFFFFFFFFFFFFFFFFFFFFFFFFFFFFFFFFFFFF AND EQ PUSH2 0x1536 JUMPI PUSH1 0x40 MLOAD PUSH32 0x8C379A000000000000000000000000000000000000000000000000000000000 DUP2 MSTORE PUSH1 0x4 ADD PUSH2 0x152D SWAP1 PUSH2 0x243B JUMP JUMPDEST PUSH1 0x40 MLOAD DUP1 SWAP2 SUB SWAP1 REVERT JUMPDEST JUMP JUMPDEST PUSH1 0x0 PUSH20 0xFFFFFFFFFFFFFFFFFFFFFFFFFFFFFFFFFFFFFFFF AND DUP3 PUSH20 0xFFFFFFFFFFFFFFFFFFFFFFFFFFFFFFFFFFFFFFFF AND EQ ISZERO PUSH2 0x15A8 JUMPI PUSH1 0x40 MLOAD PUSH32 0x8C379A000000000000000000000000000000000000000000000000000000000 DUP2 MSTORE PUSH1 0x4 ADD PUSH2 0x159F SWAP1 PUSH2 0x24FB JUMP JUMPDEST PUSH1 0x40 MLOAD DUP1 SWAP2 SUB SWAP1 REVERT JUMPDEST PUSH2 0x15B4 PUSH1 0x0 DUP4 DUP4 PUSH2 0x1888 JUMP JUMPDEST DUP1 PUSH1 0x35 PUSH1 0x0 DUP3 DUP3 SLOAD PUSH2 0x15C6 SWAP2 SWAP1 PUSH2 0x25D9 JUMP JUMPDEST SWAP3 POP POP DUP2 SWAP1 SSTORE POP DUP1 PUSH1 0x33 PUSH1 0x0 DUP5 PUSH20 0xFFFFFFFFFFFFFFFFFFFFFFFFFFFFFFFFFFFFFFFF AND PUSH20 0xFFFFFFFFFFFFFFFFFFFFFFFFFFFFFFFFFFFFFFFF AND DUP2 MSTORE PUSH1 0x20 ADD SWAP1 DUP2 MSTORE PUSH1 0x20 ADD PUSH1 0x0 KECCAK256 PUSH1 0x0 DUP3 DUP3 SLOAD ADD SWAP3 POP POP DUP2 SWAP1 SSTORE POP DUP2 PUSH20 0xFFFFFFFFFFFFFFFFFFFFFFFFFFFFFFFFFFFFFFFF AND PUSH1 0x0 PUSH20 0xFFFFFFFFFFFFFFFFFFFFFFFFFFFFFFFFFFFFFFFF AND PUSH32 0xDDF252AD1BE2C89B69C2B068FC378DAA952BA7F163C4A11628F55A4DF523B3EF DUP4 PUSH1 0x40 MLOAD PUSH2 0x1678 SWAP2 SWAP1 PUSH2 0x251B JUMP JUMPDEST PUSH1 0x40 MLOAD DUP1 SWAP2 SUB SWAP1 LOG3 PUSH2 0x168C PUSH1 0x0 DUP4 DUP4 PUSH2 0x188D JUMP JUMPDEST POP POP JUMP JUMPDEST PUSH1 0x0 PUSH1 0xC9 PUSH1 0x0 SWAP1 SLOAD SWAP1 PUSH2 0x100 EXP SWAP1 DIV PUSH20 0xFFFFFFFFFFFFFFFFFFFFFFFFFFFFFFFFFFFFFFFF AND SWAP1 POP DUP2 PUSH1 0xC9 PUSH1 0x0 PUSH2 0x100 EXP DUP2 SLOAD DUP2 PUSH20 0xFFFFFFFFFFFFFFFFFFFFFFFFFFFFFFFFFFFFFFFF MUL NOT AND SWAP1 DUP4 PUSH20 0xFFFFFFFFFFFFFFFFFFFFFFFFFFFFFFFFFFFFFFFF AND MUL OR SWAP1 SSTORE POP DUP2 PUSH20 0xFFFFFFFFFFFFFFFFFFFFFFFFFFFFFFFFFFFFFFFF AND DUP2 PUSH20 0xFFFFFFFFFFFFFFFFFFFFFFFFFFFFFFFFFFFFFFFF AND PUSH32 0x8BE0079C531659141344CD1FD0A4F28419497F9722A3DAAFE3B4186F6B6457E0 PUSH1 0x40 MLOAD PUSH1 0x40 MLOAD DUP1 SWAP2 SUB SWAP1 LOG3 POP POP JUMP JUMPDEST PUSH1 0x0 DUP1 DUP3 PUSH20 0xFFFFFFFFFFFFFFFFFFFFFFFFFFFFFFFFFFFFFFFF AND EXTCODESIZE GT SWAP1 POP SWAP2 SWAP1 POP JUMP JUMPDEST PUSH1 0x0 PUSH1 0x1 SWAP1 SLOAD SWAP1 PUSH2 0x100 EXP SWAP1 DIV PUSH1 0xFF AND PUSH2 0x17C8 JUMPI PUSH1 0x40 MLOAD PUSH32 0x8C379A000000000000000000000000000000000000000000000000000000000 DUP2 MSTORE PUSH1 0x4 ADD PUSH2 0x17BF SWAP1 PUSH2 0x24BB JUMP JUMPDEST PUSH1 0x40 MLOAD DUP1 SWAP2 SUB SWAP1 REVERT JUMPDEST PUSH2 0x17D2 DUP3 DUP3 PUSH2 0x198B JUMP JUMPDEST POP POP JUMP JUMPDEST PUSH1 0x0 PUSH1 0x1 SWAP1 SLOAD SWAP1 PUSH2 0x100 EXP SWAP1 DIV PUSH1 0xFF AND PUSH2 0x1825 JUMPI PUSH1 0x40 MLOAD PUSH32 0x8C379A000000000000000000000000000000000000000000000000000000000 DUP2 MSTORE PUSH1 0x4 ADD PUSH2 0x181C SWAP1 PUSH2 0x24BB JUMP JUMPDEST PUSH1 0x40 MLOAD DUP1 SWAP2 SUB SWAP1 REVERT JUMPDEST PUSH2 0x1835 PUSH2 0x1830 PUSH2 0xE01 JUMP JUMPDEST PUSH2 0x1690 JUMP JUMPDEST JUMP JUMPDEST PUSH1 0x0 PUSH1 0x1 SWAP1 SLOAD SWAP1 PUSH2 0x100 EXP SWAP1 DIV PUSH1 0xFF AND PUSH2 0x1886 JUMPI PUSH1 0x40 MLOAD PUSH32 0x8C379A000000000000000000000000000000000000000000000000000000000 DUP2 MSTORE PUSH1 0x4 ADD PUSH2 0x187D SWAP1 PUSH2 0x24BB JUMP JUMPDEST PUSH1 0x40 MLOAD DUP1 SWAP2 SUB SWAP1 REVERT JUMPDEST JUMP JUMPDEST POP POP POP JUMP JUMPDEST POP POP POP JUMP JUMPDEST PUSH1 0x0 DUP2 SWAP1 POP SWAP2 SWAP1 POP JUMP JUMPDEST PUSH1 0x0 DUP2 SWAP1 POP SWAP2 SWAP1 POP JUMP JUMPDEST PUSH2 0x18AF DUP2 PUSH2 0x1756 JUMP JUMPDEST PUSH2 0x18EE JUMPI PUSH1 0x40 MLOAD PUSH32 0x8C379A000000000000000000000000000000000000000000000000000000000 DUP2 MSTORE PUSH1 0x4 ADD PUSH2 0x18E5 SWAP1 PUSH2 0x241B JUMP JUMPDEST PUSH1 0x40 MLOAD DUP1 SWAP2 SUB SWAP1 REVERT JUMPDEST DUP1 PUSH2 0x191B PUSH32 0x360894A13BA1A3210667C828492DB98DCA3E2076CC3735A920A3CA505D382BBC PUSH1 0x0 SHL PUSH2 0x1892 JUMP JUMPDEST PUSH1 0x0 ADD PUSH1 0x0 PUSH2 0x100 EXP DUP2 SLOAD DUP2 PUSH20 0xFFFFFFFFFFFFFFFFFFFFFFFFFFFFFFFFFFFFFFFF MUL NOT AND SWAP1 DUP4 PUSH20 0xFFFFFFFFFFFFFFFFFFFFFFFFFFFFFFFFFFFFFFFF AND MUL OR SWAP1 SSTORE POP POP JUMP JUMPDEST PUSH2 0x1968 DUP4 PUSH2 0x1A0C JUMP JUMPDEST PUSH1 0x0 DUP3 MLOAD GT DUP1 PUSH2 0x1975 JUMPI POP DUP1 JUMPDEST ISZERO PUSH2 0x1986 JUMPI PUSH2 0x1984 DUP4 DUP4 PUSH2 0x1A5B JUMP JUMPDEST POP JUMPDEST POP POP POP JUMP JUMPDEST PUSH1 0x0 PUSH1 0x1 SWAP1 SLOAD SWAP1 PUSH2 0x100 EXP SWAP1 DIV PUSH1 0xFF AND PUSH2 0x19DA JUMPI PUSH1 0x40 MLOAD PUSH32 0x8C379A000000000000000000000000000000000000000000000000000000000 DUP2 MSTORE PUSH1 0x4 ADD PUSH2 0x19D1 SWAP1 PUSH2 0x24BB JUMP JUMPDEST PUSH1 0x40 MLOAD DUP1 SWAP2 SUB SWAP1 REVERT JUMPDEST DUP2 PUSH1 0x36 SWAP1 DUP1 MLOAD SWAP1 PUSH1 0x20 ADD SWAP1 PUSH2 0x19F0 SWAP3 SWAP2 SWAP1 PUSH2 0x1BB1 JUMP JUMPDEST POP DUP1 PUSH1 0x37 SWAP1 DUP1 MLOAD SWAP1 PUSH1 0x20 ADD SWAP1 PUSH2 0x1A07 SWAP3 SWAP2 SWAP1 PUSH2 0x1BB1 JUMP JUMPDEST POP POP POP JUMP JUMPDEST PUSH2 0x1A15 DUP2 PUSH2 0x18A6 JUMP JUMPDEST DUP1 PUSH20 0xFFFFFFFFFFFFFFFFFFFFFFFFFFFFFFFFFFFFFFFF AND PUSH32 0xBC7CD75A20EE27FD9ADEBAB32041F755214DBC6BFFA90CC0225B39DA2E5C2D3B PUSH1 0x40 MLOAD PUSH1 0x40 MLOAD DUP1 SWAP2 SUB SWAP1 LOG2 POP JUMP JUMPDEST PUSH1 0x60 PUSH2 0x1A66 DUP4 PUSH2 0x1756 JUMP JUMPDEST PUSH2 0x1AA5 JUMPI PUSH1 0x40 MLOAD PUSH32 0x8C379A000000000000000000000000000000000000000000000000000000000 DUP2 MSTORE PUSH1 0x4 ADD PUSH2 0x1A9C SWAP1 PUSH2 0x245B JUMP JUMPDEST PUSH1 0x40 MLOAD DUP1 SWAP2 SUB SWAP1 REVERT JUMPDEST PUSH1 0x0 DUP1 DUP5 PUSH20 0xFFFFFFFFFFFFFFFFFFFFFFFFFFFFFFFFFFFFFFFF AND DUP5 PUSH1 0x40 MLOAD PUSH2 0x1ACD SWAP2 SWAP1 PUSH2 0x2216 JUMP JUMPDEST PUSH1 0x0 PUSH1 0x40 MLOAD DUP1 DUP4 SUB DUP2 DUP6 GAS DELEGATECALL SWAP2 POP POP RETURNDATASIZE DUP1 PUSH1 0x0 DUP2 EQ PUSH2 0x1B08 JUMPI PUSH1 0x40 MLOAD SWAP2 POP PUSH1 0x1F NOT PUSH1 0x3F RETURNDATASIZE ADD AND DUP3 ADD PUSH1 0x40 MSTORE RETURNDATASIZE DUP3 MSTORE RETURNDATASIZE PUSH1 0x0 PUSH1 0x20 DUP5 ADD RETURNDATACOPY PUSH2 0x1B0D JUMP JUMPDEST PUSH1 0x60 SWAP2 POP JUMPDEST POP SWAP2 POP SWAP2 POP PUSH2 0x1B35 DUP3 DUP3 PUSH1 0x40 MLOAD DUP1 PUSH1 0x60 ADD PUSH1 0x40 MSTORE DUP1 PUSH1 0x27 DUP2 MSTORE PUSH1 0x20 ADD PUSH2 0x2F80 PUSH1 0x27 SWAP2 CODECOPY PUSH2 0x1B3F JUMP JUMPDEST SWAP3 POP POP POP SWAP3 SWAP2 POP POP JUMP JUMPDEST PUSH1 0x60 DUP4 ISZERO PUSH2 0x1B4F JUMPI DUP3 SWAP1 POP PUSH2 0x1B5A JUMP JUMPDEST PUSH2 0x1B59 DUP4 DUP4 PUSH2 0x1B61 JUMP JUMPDEST JUMPDEST SWAP4 SWAP3 POP POP POP JUMP JUMPDEST PUSH1 0x0 DUP3 MLOAD GT ISZERO PUSH2 0x1B74 JUMPI DUP2 MLOAD DUP1 DUP4 PUSH1 0x20 ADD REVERT JUMPDEST DUP1 PUSH1 0x40 MLOAD PUSH32 0x8C379A000000000000000000000000000000000000000000000000000000000 DUP2 MSTORE PUSH1 0x4 ADD PUSH2 0x1BA8 SWAP2 SWAP1 PUSH2 0x2299 JUMP JUMPDEST PUSH1 0x40 MLOAD DUP1 SWAP2 SUB SWAP1 REVERT JUMPDEST DUP3 DUP1 SLOAD PUSH2 0x1BBD SWAP1 PUSH2 0x28AD JUMP JUMPDEST SWAP1 PUSH1 0x0 MSTORE PUSH1 0x20 PUSH1 0x0 KECCAK256 SWAP1 PUSH1 0x1F ADD PUSH1 0x20 SWAP1 DIV DUP2 ADD SWAP3 DUP3 PUSH2 0x1BDF JUMPI PUSH1 0x0 DUP6 SSTORE PUSH2 0x1C26 JUMP JUMPDEST DUP3 PUSH1 0x1F LT PUSH2 0x1BF8 JUMPI DUP1 MLOAD PUSH1 0xFF NOT AND DUP4 DUP1 ADD OR DUP6 SSTORE PUSH2 0x1C26 JUMP JUMPDEST DUP3 DUP1 ADD PUSH1 0x1 ADD DUP6 SSTORE DUP3 ISZERO PUSH2 0x1C26 JUMPI SWAP2 DUP3 ADD JUMPDEST DUP3 DUP2 GT ISZERO PUSH2 0x1C25 JUMPI DUP3 MLOAD DUP3 SSTORE SWAP2 PUSH1 0x20 ADD SWAP2 SWAP1 PUSH1 0x1 ADD SWAP1 PUSH2 0x1C0A JUMP JUMPDEST JUMPDEST POP SWAP1 POP PUSH2 0x1C33 SWAP2 SWAP1 PUSH2 0x1C37 JUMP JUMPDEST POP SWAP1 JUMP JUMPDEST JUMPDEST DUP1 DUP3 GT ISZERO PUSH2 0x1C50 JUMPI PUSH1 0x0 DUP2 PUSH1 0x0 SWAP1 SSTORE POP PUSH1 0x1 ADD PUSH2 0x1C38 JUMP JUMPDEST POP SWAP1 JUMP JUMPDEST PUSH1 0x0 PUSH2 0x1C67 PUSH2 0x1C62 DUP5 PUSH2 0x2576 JUMP JUMPDEST PUSH2 0x2551 JUMP JUMPDEST SWAP1 POP DUP3 DUP2 MSTORE PUSH1 0x20 DUP2 ADD DUP5 DUP5 DUP5 ADD GT ISZERO PUSH2 0x1C83 JUMPI PUSH2 0x1C82 PUSH2 0x29A2 JUMP JUMPDEST JUMPDEST PUSH2 0x1C8E DUP5 DUP3 DUP6 PUSH2 0x286B JUMP JUMPDEST POP SWAP4 SWAP3 POP POP POP JUMP JUMPDEST PUSH1 0x0 DUP2 CALLDATALOAD SWAP1 POP PUSH2 0x1CA5 DUP2 PUSH2 0x2F3A JUMP JUMPDEST SWAP3 SWAP2 POP POP JUMP JUMPDEST PUSH1 0x0 DUP2 MLOAD SWAP1 POP PUSH2 0x1CBA DUP2 PUSH2 0x2F51 JUMP JUMPDEST SWAP3 SWAP2 POP POP JUMP JUMPDEST PUSH1 0x0 DUP3 PUSH1 0x1F DUP4 ADD SLT PUSH2 0x1CD5 JUMPI PUSH2 0x1CD4 PUSH2 0x299D JUMP JUMPDEST JUMPDEST DUP2 CALLDATALOAD PUSH2 0x1CE5 DUP5 DUP3 PUSH1 0x20 DUP7 ADD PUSH2 0x1C54 JUMP JUMPDEST SWAP2 POP POP SWAP3 SWAP2 POP POP JUMP JUMPDEST PUSH1 0x0 DUP2 CALLDATALOAD SWAP1 POP PUSH2 0x1CFD DUP2 PUSH2 0x2F68 JUMP JUMPDEST SWAP3 SWAP2 POP POP JUMP JUMPDEST PUSH1 0x0 PUSH1 0x20 DUP3 DUP5 SUB SLT ISZERO PUSH2 0x1D19 JUMPI PUSH2 0x1D18 PUSH2 0x29AC JUMP JUMPDEST JUMPDEST PUSH1 0x0 PUSH2 0x1D27 DUP5 DUP3 DUP6 ADD PUSH2 0x1C96 JUMP JUMPDEST SWAP2 POP POP SWAP3 SWAP2 POP POP JUMP JUMPDEST PUSH1 0x0 DUP1 PUSH1 0x40 DUP4 DUP6 SUB SLT ISZERO PUSH2 0x1D47 JUMPI PUSH2 0x1D46 PUSH2 0x29AC JUMP JUMPDEST JUMPDEST PUSH1 0x0 PUSH2 0x1D55 DUP6 DUP3 DUP7 ADD PUSH2 0x1C96 JUMP JUMPDEST SWAP3 POP POP PUSH1 0x20 PUSH2 0x1D66 DUP6 DUP3 DUP7 ADD PUSH2 0x1C96 JUMP JUMPDEST SWAP2 POP POP SWAP3 POP SWAP3 SWAP1 POP JUMP JUMPDEST PUSH1 0x0 DUP1 PUSH1 0x0 PUSH1 0x60 DUP5 DUP7 SUB SLT ISZERO PUSH2 0x1D89 JUMPI PUSH2 0x1D88 PUSH2 0x29AC JUMP JUMPDEST JUMPDEST PUSH1 0x0 PUSH2 0x1D97 DUP7 DUP3 DUP8 ADD PUSH2 0x1C96 JUMP JUMPDEST SWAP4 POP POP PUSH1 0x20 PUSH2 0x1DA8 DUP7 DUP3 DUP8 ADD PUSH2 0x1C96 JUMP JUMPDEST SWAP3 POP POP PUSH1 0x40 PUSH2 0x1DB9 DUP7 DUP3 DUP8 ADD PUSH2 0x1CEE JUMP JUMPDEST SWAP2 POP POP SWAP3 POP SWAP3 POP SWAP3 JUMP JUMPDEST PUSH1 0x0 DUP1 PUSH1 0x40 DUP4 DUP6 SUB SLT ISZERO PUSH2 0x1DDA JUMPI PUSH2 0x1DD9 PUSH2 0x29AC JUMP JUMPDEST JUMPDEST PUSH1 0x0 PUSH2 0x1DE8 DUP6 DUP3 DUP7 ADD PUSH2 0x1C96 JUMP JUMPDEST SWAP3 POP POP PUSH1 0x20 DUP4 ADD CALLDATALOAD PUSH8 0xFFFFFFFFFFFFFFFF DUP2 GT ISZERO PUSH2 0x1E09 JUMPI PUSH2 0x1E08 PUSH2 0x29A7 JUMP JUMPDEST JUMPDEST PUSH2 0x1E15 DUP6 DUP3 DUP7 ADD PUSH2 0x1CC0 JUMP JUMPDEST SWAP2 POP POP SWAP3 POP SWAP3 SWAP1 POP JUMP JUMPDEST PUSH1 0x0 DUP1 PUSH1 0x40 DUP4 DUP6 SUB SLT ISZERO PUSH2 0x1E36 JUMPI PUSH2 0x1E35 PUSH2 0x29AC JUMP JUMPDEST JUMPDEST PUSH1 0x0 PUSH2 0x1E44 DUP6 DUP3 DUP7 ADD PUSH2 0x1C96 JUMP JUMPDEST SWAP3 POP POP PUSH1 0x20 PUSH2 0x1E55 DUP6 DUP3 DUP7 ADD PUSH2 0x1CEE JUMP JUMPDEST SWAP2 POP POP SWAP3 POP SWAP3 SWAP1 POP JUMP JUMPDEST PUSH1 0x0 PUSH1 0x20 DUP3 DUP5 SUB SLT ISZERO PUSH2 0x1E75 JUMPI PUSH2 0x1E74 PUSH2 0x29AC JUMP JUMPDEST JUMPDEST PUSH1 0x0 PUSH2 0x1E83 DUP5 DUP3 DUP6 ADD PUSH2 0x1CAB JUMP JUMPDEST SWAP2 POP POP SWAP3 SWAP2 POP POP JUMP JUMPDEST PUSH1 0x0 PUSH1 0x20 DUP3 DUP5 SUB SLT ISZERO PUSH2 0x1EA2 JUMPI PUSH2 0x1EA1 PUSH2 0x29AC JUMP JUMPDEST JUMPDEST PUSH1 0x0 PUSH2 0x1EB0 DUP5 DUP3 DUP6 ADD PUSH2 0x1CEE JUMP JUMPDEST SWAP2 POP POP SWAP3 SWAP2 POP POP JUMP JUMPDEST PUSH2 0x1EC2 DUP2 PUSH2 0x27FA JUMP JUMPDEST DUP3 MSTORE POP POP JUMP JUMPDEST PUSH2 0x1ED1 DUP2 PUSH2 0x280C JUMP JUMPDEST DUP3 MSTORE POP POP JUMP JUMPDEST PUSH2 0x1EE0 DUP2 PUSH2 0x2818 JUMP JUMPDEST DUP3 MSTORE POP POP JUMP JUMPDEST PUSH1 0x0 PUSH2 0x1EF1 DUP3 PUSH2 0x25A7 JUMP JUMPDEST PUSH2 0x1EFB DUP2 DUP6 PUSH2 0x25BD JUMP JUMPDEST SWAP4 POP PUSH2 0x1F0B DUP2 DUP6 PUSH1 0x20 DUP7 ADD PUSH2 0x287A JUMP JUMPDEST DUP1 DUP5 ADD SWAP2 POP POP SWAP3 SWAP2 POP POP JUMP JUMPDEST PUSH2 0x1F20 DUP2 PUSH2 0x2859 JUMP JUMPDEST DUP3 MSTORE POP POP JUMP JUMPDEST PUSH1 0x0 PUSH2 0x1F31 DUP3 PUSH2 0x25B2 JUMP JUMPDEST PUSH2 0x1F3B DUP2 DUP6 PUSH2 0x25C8 JUMP JUMPDEST SWAP4 POP PUSH2 0x1F4B DUP2 DUP6 PUSH1 0x20 DUP7 ADD PUSH2 0x287A JUMP JUMPDEST PUSH2 0x1F54 DUP2 PUSH2 0x29B1 JUMP JUMPDEST DUP5 ADD SWAP2 POP POP SWAP3 SWAP2 POP POP JUMP JUMPDEST PUSH1 0x0 PUSH2 0x1F6C PUSH1 0x23 DUP4 PUSH2 0x25C8 JUMP JUMPDEST SWAP2 POP PUSH2 0x1F77 DUP3 PUSH2 0x29CF JUMP JUMPDEST PUSH1 0x40 DUP3 ADD SWAP1 POP SWAP2 SWAP1 POP JUMP JUMPDEST PUSH1 0x0 PUSH2 0x1F8F PUSH1 0x26 DUP4 PUSH2 0x25C8 JUMP JUMPDEST SWAP2 POP PUSH2 0x1F9A DUP3 PUSH2 0x2A1E JUMP JUMPDEST PUSH1 0x40 DUP3 ADD SWAP1 POP SWAP2 SWAP1 POP JUMP JUMPDEST PUSH1 0x0 PUSH2 0x1FB2 PUSH1 0x22 DUP4 PUSH2 0x25C8 JUMP JUMPDEST SWAP2 POP PUSH2 0x1FBD DUP3 PUSH2 0x2A6D JUMP JUMPDEST PUSH1 0x40 DUP3 ADD SWAP1 POP SWAP2 SWAP1 POP JUMP JUMPDEST PUSH1 0x0 PUSH2 0x1FD5 PUSH1 0x2C DUP4 PUSH2 0x25C8 JUMP JUMPDEST SWAP2 POP PUSH2 0x1FE0 DUP3 PUSH2 0x2ABC JUMP JUMPDEST PUSH1 0x40 DUP3 ADD SWAP1 POP SWAP2 SWAP1 POP JUMP JUMPDEST PUSH1 0x0 PUSH2 0x1FF8 PUSH1 0x1D DUP4 PUSH2 0x25C8 JUMP JUMPDEST SWAP2 POP PUSH2 0x2003 DUP3 PUSH2 0x2B0B JUMP JUMPDEST PUSH1 0x20 DUP3 ADD SWAP1 POP SWAP2 SWAP1 POP JUMP JUMPDEST PUSH1 0x0 PUSH2 0x201B PUSH1 0x26 DUP4 PUSH2 0x25C8 JUMP JUMPDEST SWAP2 POP PUSH2 0x2026 DUP3 PUSH2 0x2B34 JUMP JUMPDEST PUSH1 0x40 DUP3 ADD SWAP1 POP SWAP2 SWAP1 POP JUMP JUMPDEST PUSH1 0x0 PUSH2 0x203E PUSH1 0x2C DUP4 PUSH2 0x25C8 JUMP JUMPDEST SWAP2 POP PUSH2 0x2049 DUP3 PUSH2 0x2B83 JUMP JUMPDEST PUSH1 0x40 DUP3 ADD SWAP1 POP SWAP2 SWAP1 POP JUMP JUMPDEST PUSH1 0x0 PUSH2 0x2061 PUSH1 0x38 DUP4 PUSH2 0x25C8 JUMP JUMPDEST SWAP2 POP PUSH2 0x206C DUP3 PUSH2 0x2BD2 JUMP JUMPDEST PUSH1 0x40 DUP3 ADD SWAP1 POP SWAP2 SWAP1 POP JUMP JUMPDEST PUSH1 0x0 PUSH2 0x2084 PUSH1 0x29 DUP4 PUSH2 0x25C8 JUMP JUMPDEST SWAP2 POP PUSH2 0x208F DUP3 PUSH2 0x2C21 JUMP JUMPDEST PUSH1 0x40 DUP3 ADD SWAP1 POP SWAP2 SWAP1 POP JUMP JUMPDEST PUSH1 0x0 PUSH2 0x20A7 PUSH1 0x2E DUP4 PUSH2 0x25C8 JUMP JUMPDEST SWAP2 POP PUSH2 0x20B2 DUP3 PUSH2 0x2C70 JUMP JUMPDEST PUSH1 0x40 DUP3 ADD SWAP1 POP SWAP2 SWAP1 POP JUMP JUMPDEST PUSH1 0x0 PUSH2 0x20CA PUSH1 0x2E DUP4 PUSH2 0x25C8 JUMP JUMPDEST SWAP2 POP PUSH2 0x20D5 DUP3 PUSH2 0x2CBF JUMP JUMPDEST PUSH1 0x40 DUP3 ADD SWAP1 POP SWAP2 SWAP1 POP JUMP JUMPDEST PUSH1 0x0 PUSH2 0x20ED PUSH1 0x2D DUP4 PUSH2 0x25C8 JUMP JUMPDEST SWAP2 POP PUSH2 0x20F8 DUP3 PUSH2 0x2D0E JUMP JUMPDEST PUSH1 0x40 DUP3 ADD SWAP1 POP SWAP2 SWAP1 POP JUMP JUMPDEST PUSH1 0x0 PUSH2 0x2110 PUSH1 0x20 DUP4 PUSH2 0x25C8 JUMP JUMPDEST SWAP2 POP PUSH2 0x211B DUP3 PUSH2 0x2D5D JUMP JUMPDEST PUSH1 0x20 DUP3 ADD SWAP1 POP SWAP2 SWAP1 POP JUMP JUMPDEST PUSH1 0x0 PUSH2 0x2133 PUSH1 0x26 DUP4 PUSH2 0x25C8 JUMP JUMPDEST SWAP2 POP PUSH2 0x213E DUP3 PUSH2 0x2D86 JUMP JUMPDEST PUSH1 0x40 DUP3 ADD SWAP1 POP SWAP2 SWAP1 POP JUMP JUMPDEST PUSH1 0x0 PUSH2 0x2156 PUSH1 0x25 DUP4 PUSH2 0x25C8 JUMP JUMPDEST SWAP2 POP PUSH2 0x2161 DUP3 PUSH2 0x2DD5 JUMP JUMPDEST PUSH1 0x40 DUP3 ADD SWAP1 POP SWAP2 SWAP1 POP JUMP JUMPDEST PUSH1 0x0 PUSH2 0x2179 PUSH1 0x24 DUP4 PUSH2 0x25C8 JUMP JUMPDEST SWAP2 POP PUSH2 0x2184 DUP3 PUSH2 0x2E24 JUMP JUMPDEST PUSH1 0x40 DUP3 ADD SWAP1 POP SWAP2 SWAP1 POP JUMP JUMPDEST PUSH1 0x0 PUSH2 0x219C PUSH1 0x2B DUP4 PUSH2 0x25C8 JUMP JUMPDEST SWAP2 POP PUSH2 0x21A7 DUP3 PUSH2 0x2E73 JUMP JUMPDEST PUSH1 0x40 DUP3 ADD SWAP1 POP SWAP2 SWAP1 POP JUMP JUMPDEST PUSH1 0x0 PUSH2 0x21BF PUSH1 0x25 DUP4 PUSH2 0x25C8 JUMP JUMPDEST SWAP2 POP PUSH2 0x21CA DUP3 PUSH2 0x2EC2 JUMP JUMPDEST PUSH1 0x40 DUP3 ADD SWAP1 POP SWAP2 SWAP1 POP JUMP JUMPDEST PUSH1 0x0 PUSH2 0x21E2 PUSH1 0x1F DUP4 PUSH2 0x25C8 JUMP JUMPDEST SWAP2 POP PUSH2 0x21ED DUP3 PUSH2 0x2F11 JUMP JUMPDEST PUSH1 0x20 DUP3 ADD SWAP1 POP SWAP2 SWAP1 POP JUMP JUMPDEST PUSH2 0x2201 DUP2 PUSH2 0x2842 JUMP JUMPDEST DUP3 MSTORE POP POP JUMP JUMPDEST PUSH2 0x2210 DUP2 PUSH2 0x284C JUMP JUMPDEST DUP3 MSTORE POP POP JUMP JUMPDEST PUSH1 0x0 PUSH2 0x2222 DUP3 DUP5 PUSH2 0x1EE6 JUMP JUMPDEST SWAP2 POP DUP2 SWAP1 POP SWAP3 SWAP2 POP POP JUMP JUMPDEST PUSH1 0x0 PUSH1 0x20 DUP3 ADD SWAP1 POP PUSH2 0x2242 PUSH1 0x0 DUP4 ADD DUP5 PUSH2 0x1EB9 JUMP JUMPDEST SWAP3 SWAP2 POP POP JUMP JUMPDEST PUSH1 0x0 PUSH1 0x20 DUP3 ADD SWAP1 POP PUSH2 0x225D PUSH1 0x0 DUP4 ADD DUP5 PUSH2 0x1EC8 JUMP JUMPDEST SWAP3 SWAP2 POP POP JUMP JUMPDEST PUSH1 0x0 PUSH1 0x20 DUP3 ADD SWAP1 POP PUSH2 0x2278 PUSH1 0x0 DUP4 ADD DUP5 PUSH2 0x1ED7 JUMP JUMPDEST SWAP3 SWAP2 POP POP JUMP JUMPDEST PUSH1 0x0 PUSH1 0x20 DUP3 ADD SWAP1 POP PUSH2 0x2293 PUSH1 0x0 DUP4 ADD DUP5 PUSH2 0x1F17 JUMP JUMPDEST SWAP3 SWAP2 POP POP JUMP JUMPDEST PUSH1 0x0 PUSH1 0x20 DUP3 ADD SWAP1 POP DUP2 DUP2 SUB PUSH1 0x0 DUP4 ADD MSTORE PUSH2 0x22B3 DUP2 DUP5 PUSH2 0x1F26 JUMP JUMPDEST SWAP1 POP SWAP3 SWAP2 POP POP JUMP JUMPDEST PUSH1 0x0 PUSH1 0x20 DUP3 ADD SWAP1 POP DUP2 DUP2 SUB PUSH1 0x0 DUP4 ADD MSTORE PUSH2 0x22D4 DUP2 PUSH2 0x1F5F JUMP JUMPDEST SWAP1 POP SWAP2 SWAP1 POP JUMP JUMPDEST PUSH1 0x0 PUSH1 0x20 DUP3 ADD SWAP1 POP DUP2 DUP2 SUB PUSH1 0x0 DUP4 ADD MSTORE PUSH2 0x22F4 DUP2 PUSH2 0x1F82 JUMP JUMPDEST SWAP1 POP SWAP2 SWAP1 POP JUMP JUMPDEST PUSH1 0x0 PUSH1 0x20 DUP3 ADD SWAP1 POP DUP2 DUP2 SUB PUSH1 0x0 DUP4 ADD MSTORE PUSH2 0x2314 DUP2 PUSH2 0x1FA5 JUMP JUMPDEST SWAP1 POP SWAP2 SWAP1 POP JUMP JUMPDEST PUSH1 0x0 PUSH1 0x20 DUP3 ADD SWAP1 POP DUP2 DUP2 SUB PUSH1 0x0 DUP4 ADD MSTORE PUSH2 0x2334 DUP2 PUSH2 0x1FC8 JUMP JUMPDEST SWAP1 POP SWAP2 SWAP1 POP JUMP JUMPDEST PUSH1 0x0 PUSH1 0x20 DUP3 ADD SWAP1 POP DUP2 DUP2 SUB PUSH1 0x0 DUP4 ADD MSTORE PUSH2 0x2354 DUP2 PUSH2 0x1FEB JUMP JUMPDEST SWAP1 POP SWAP2 SWAP1 POP JUMP JUMPDEST PUSH1 0x0 PUSH1 0x20 DUP3 ADD SWAP1 POP DUP2 DUP2 SUB PUSH1 0x0 DUP4 ADD MSTORE PUSH2 0x2374 DUP2 PUSH2 0x200E JUMP JUMPDEST SWAP1 POP SWAP2 SWAP1 POP JUMP JUMPDEST PUSH1 0x0 PUSH1 0x20 DUP3 ADD SWAP1 POP DUP2 DUP2 SUB PUSH1 0x0 DUP4 ADD MSTORE PUSH2 0x2394 DUP2 PUSH2 0x2031 JUMP JUMPDEST SWAP1 POP SWAP2 SWAP1 POP JUMP JUMPDEST PUSH1 0x0 PUSH1 0x20 DUP3 ADD SWAP1 POP DUP2 DUP2 SUB PUSH1 0x0 DUP4 ADD MSTORE PUSH2 0x23B4 DUP2 PUSH2 0x2054 JUMP JUMPDEST SWAP1 POP SWAP2 SWAP1 POP JUMP JUMPDEST PUSH1 0x0 PUSH1 0x20 DUP3 ADD SWAP1 POP DUP2 DUP2 SUB PUSH1 0x0 DUP4 ADD MSTORE PUSH2 0x23D4 DUP2 PUSH2 0x2077 JUMP JUMPDEST SWAP1 POP SWAP2 SWAP1 POP JUMP JUMPDEST PUSH1 0x0 PUSH1 0x20 DUP3 ADD SWAP1 POP DUP2 DUP2 SUB PUSH1 0x0 DUP4 ADD MSTORE PUSH2 0x23F4 DUP2 PUSH2 0x209A JUMP JUMPDEST SWAP1 POP SWAP2 SWAP1 POP JUMP JUMPDEST PUSH1 0x0 PUSH1 0x20 DUP3 ADD SWAP1 POP DUP2 DUP2 SUB PUSH1 0x0 DUP4 ADD MSTORE PUSH2 0x2414 DUP2 PUSH2 0x20BD JUMP JUMPDEST SWAP1 POP SWAP2 SWAP1 POP JUMP JUMPDEST PUSH1 0x0 PUSH1 0x20 DUP3 ADD SWAP1 POP DUP2 DUP2 SUB PUSH1 0x0 DUP4 ADD MSTORE PUSH2 0x2434 DUP2 PUSH2 0x20E0 JUMP JUMPDEST SWAP1 POP SWAP2 SWAP1 POP JUMP JUMPDEST PUSH1 0x0 PUSH1 0x20 DUP3 ADD SWAP1 POP DUP2 DUP2 SUB PUSH1 0x0 DUP4 ADD MSTORE PUSH2 0x2454 DUP2 PUSH2 0x2103 JUMP JUMPDEST SWAP1 POP SWAP2 SWAP1 POP JUMP JUMPDEST PUSH1 0x0 PUSH1 0x20 DUP3 ADD SWAP1 POP DUP2 DUP2 SUB PUSH1 0x0 DUP4 ADD MSTORE PUSH2 0x2474 DUP2 PUSH2 0x2126 JUMP JUMPDEST SWAP1 POP SWAP2 SWAP1 POP JUMP JUMPDEST PUSH1 0x0 PUSH1 0x20 DUP3 ADD SWAP1 POP DUP2 DUP2 SUB PUSH1 0x0 DUP4 ADD MSTORE PUSH2 0x2494 DUP2 PUSH2 0x2149 JUMP JUMPDEST SWAP1 POP SWAP2 SWAP1 POP JUMP JUMPDEST PUSH1 0x0 PUSH1 0x20 DUP3 ADD SWAP1 POP DUP2 DUP2 SUB PUSH1 0x0 DUP4 ADD MSTORE PUSH2 0x24B4 DUP2 PUSH2 0x216C JUMP JUMPDEST SWAP1 POP SWAP2 SWAP1 POP JUMP JUMPDEST PUSH1 0x0 PUSH1 0x20 DUP3 ADD SWAP1 POP DUP2 DUP2 SUB PUSH1 0x0 DUP4 ADD MSTORE PUSH2 0x24D4 DUP2 PUSH2 0x218F JUMP JUMPDEST SWAP1 POP SWAP2 SWAP1 POP JUMP JUMPDEST PUSH1 0x0 PUSH1 0x20 DUP3 ADD SWAP1 POP DUP2 DUP2 SUB PUSH1 0x0 DUP4 ADD MSTORE PUSH2 0x24F4 DUP2 PUSH2 0x21B2 JUMP JUMPDEST SWAP1 POP SWAP2 SWAP1 POP JUMP JUMPDEST PUSH1 0x0 PUSH1 0x20 DUP3 ADD SWAP1 POP DUP2 DUP2 SUB PUSH1 0x0 DUP4 ADD MSTORE PUSH2 0x2514 DUP2 PUSH2 0x21D5 JUMP JUMPDEST SWAP1 POP SWAP2 SWAP1 POP JUMP JUMPDEST PUSH1 0x0 PUSH1 0x20 DUP3 ADD SWAP1 POP PUSH2 0x2530 PUSH1 0x0 DUP4 ADD DUP5 PUSH2 0x21F8 JUMP JUMPDEST SWAP3 SWAP2 POP POP JUMP JUMPDEST PUSH1 0x0 PUSH1 0x20 DUP3 ADD SWAP1 POP PUSH2 0x254B PUSH1 0x0 DUP4 ADD DUP5 PUSH2 0x2207 JUMP JUMPDEST SWAP3 SWAP2 POP POP JUMP JUMPDEST PUSH1 0x0 PUSH2 0x255B PUSH2 0x256C JUMP JUMPDEST SWAP1 POP PUSH2 0x2567 DUP3 DUP3 PUSH2 0x28DF JUMP JUMPDEST SWAP2 SWAP1 POP JUMP JUMPDEST PUSH1 0x0 PUSH1 0x40 MLOAD SWAP1 POP SWAP1 JUMP JUMPDEST PUSH1 0x0 PUSH8 0xFFFFFFFFFFFFFFFF DUP3 GT ISZERO PUSH2 0x2591 JUMPI PUSH2 0x2590 PUSH2 0x296E JUMP JUMPDEST JUMPDEST PUSH2 0x259A DUP3 PUSH2 0x29B1 JUMP JUMPDEST SWAP1 POP PUSH1 0x20 DUP2 ADD SWAP1 POP SWAP2 SWAP1 POP JUMP JUMPDEST PUSH1 0x0 DUP2 MLOAD SWAP1 POP SWAP2 SWAP1 POP JUMP JUMPDEST PUSH1 0x0 DUP2 MLOAD SWAP1 POP SWAP2 SWAP1 POP JUMP JUMPDEST PUSH1 0x0 DUP2 SWAP1 POP SWAP3 SWAP2 POP POP JUMP JUMPDEST PUSH1 0x0 DUP3 DUP3 MSTORE PUSH1 0x20 DUP3 ADD SWAP1 POP SWAP3 SWAP2 POP POP JUMP JUMPDEST PUSH1 0x0 PUSH2 0x25E4 DUP3 PUSH2 0x2842 JUMP JUMPDEST SWAP2 POP PUSH2 0x25EF DUP4 PUSH2 0x2842 JUMP JUMPDEST SWAP3 POP DUP3 PUSH32 0xFFFFFFFFFFFFFFFFFFFFFFFFFFFFFFFFFFFFFFFFFFFFFFFFFFFFFFFFFFFFFFFF SUB DUP3 GT ISZERO PUSH2 0x2624 JUMPI PUSH2 0x2623 PUSH2 0x2910 JUMP JUMPDEST JUMPDEST DUP3 DUP3 ADD SWAP1 POP SWAP3 SWAP2 POP POP JUMP JUMPDEST PUSH1 0x0 DUP1 DUP3 SWAP2 POP DUP4 SWAP1 POP JUMPDEST PUSH1 0x1 DUP6 GT ISZERO PUSH2 0x2679 JUMPI DUP1 DUP7 DIV DUP2 GT ISZERO PUSH2 0x2655 JUMPI PUSH2 0x2654 PUSH2 0x2910 JUMP JUMPDEST JUMPDEST PUSH1 0x1 DUP6 AND ISZERO PUSH2 0x2664 JUMPI DUP1 DUP3 MUL SWAP2 POP JUMPDEST DUP1 DUP2 MUL SWAP1 POP PUSH2 0x2672 DUP6 PUSH2 0x29C2 JUMP JUMPDEST SWAP5 POP PUSH2 0x2639 JUMP JUMPDEST SWAP5 POP SWAP5 SWAP3 POP POP POP JUMP JUMPDEST PUSH1 0x0 PUSH2 0x268D DUP3 PUSH2 0x2842 JUMP JUMPDEST SWAP2 POP PUSH2 0x2698 DUP4 PUSH2 0x284C JUMP JUMPDEST SWAP3 POP PUSH2 0x26C5 PUSH32 0xFFFFFFFFFFFFFFFFFFFFFFFFFFFFFFFFFFFFFFFFFFFFFFFFFFFFFFFFFFFFFFFF DUP5 DUP5 PUSH2 0x26CD JUMP JUMPDEST SWAP1 POP SWAP3 SWAP2 POP POP JUMP JUMPDEST PUSH1 0x0 DUP3 PUSH2 0x26DD JUMPI PUSH1 0x1 SWAP1 POP PUSH2 0x2799 JUMP JUMPDEST DUP2 PUSH2 0x26EB JUMPI PUSH1 0x0 SWAP1 POP PUSH2 0x2799 JUMP JUMPDEST DUP2 PUSH1 0x1 DUP2 EQ PUSH2 0x2701 JUMPI PUSH1 0x2 DUP2 EQ PUSH2 0x270B JUMPI PUSH2 0x273A JUMP JUMPDEST PUSH1 0x1 SWAP2 POP POP PUSH2 0x2799 JUMP JUMPDEST PUSH1 0xFF DUP5 GT ISZERO PUSH2 0x271D JUMPI PUSH2 0x271C PUSH2 0x2910 JUMP JUMPDEST JUMPDEST DUP4 PUSH1 0x2 EXP SWAP2 POP DUP5 DUP3 GT ISZERO PUSH2 0x2734 JUMPI PUSH2 0x2733 PUSH2 0x2910 JUMP JUMPDEST JUMPDEST POP PUSH2 0x2799 JUMP JUMPDEST POP PUSH1 0x20 DUP4 LT PUSH2 0x133 DUP4 LT AND PUSH1 0x4E DUP5 LT PUSH1 0xB DUP5 LT AND OR ISZERO PUSH2 0x276F JUMPI DUP3 DUP3 EXP SWAP1 POP DUP4 DUP2 GT ISZERO PUSH2 0x276A JUMPI PUSH2 0x2769 PUSH2 0x2910 JUMP JUMPDEST JUMPDEST PUSH2 0x2799 JUMP JUMPDEST PUSH2 0x277C DUP5 DUP5 DUP5 PUSH1 0x1 PUSH2 0x262F JUMP JUMPDEST SWAP3 POP SWAP1 POP DUP2 DUP5 DIV DUP2 GT ISZERO PUSH2 0x2793 JUMPI PUSH2 0x2792 PUSH2 0x2910 JUMP JUMPDEST JUMPDEST DUP2 DUP2 MUL SWAP1 POP JUMPDEST SWAP4 SWAP3 POP POP POP JUMP JUMPDEST PUSH1 0x0 PUSH2 0x27AB DUP3 PUSH2 0x2842 JUMP JUMPDEST SWAP2 POP PUSH2 0x27B6 DUP4 PUSH2 0x2842 JUMP JUMPDEST SWAP3 POP DUP2 PUSH32 0xFFFFFFFFFFFFFFFFFFFFFFFFFFFFFFFFFFFFFFFFFFFFFFFFFFFFFFFFFFFFFFFF DIV DUP4 GT DUP3 ISZERO ISZERO AND ISZERO PUSH2 0x27EF JUMPI PUSH2 0x27EE PUSH2 0x2910 JUMP JUMPDEST JUMPDEST DUP3 DUP3 MUL SWAP1 POP SWAP3 SWAP2 POP POP JUMP JUMPDEST PUSH1 0x0 PUSH2 0x2805 DUP3 PUSH2 0x2822 JUMP JUMPDEST SWAP1 POP SWAP2 SWAP1 POP JUMP JUMPDEST PUSH1 0x0 DUP2 ISZERO ISZERO SWAP1 POP SWAP2 SWAP1 POP JUMP JUMPDEST PUSH1 0x0 DUP2 SWAP1 POP SWAP2 SWAP1 POP JUMP JUMPDEST PUSH1 0x0 PUSH20 0xFFFFFFFFFFFFFFFFFFFFFFFFFFFFFFFFFFFFFFFF DUP3 AND SWAP1 POP SWAP2 SWAP1 POP JUMP JUMPDEST PUSH1 0x0 DUP2 SWAP1 POP SWAP2 SWAP1 POP JUMP JUMPDEST PUSH1 0x0 PUSH1 0xFF DUP3 AND SWAP1 POP SWAP2 SWAP1 POP JUMP JUMPDEST PUSH1 0x0 PUSH2 0x2864 DUP3 PUSH2 0x284C JUMP JUMPDEST SWAP1 POP SWAP2 SWAP1 POP JUMP JUMPDEST DUP3 DUP2 DUP4 CALLDATACOPY PUSH1 0x0 DUP4 DUP4 ADD MSTORE POP POP POP JUMP JUMPDEST PUSH1 0x0 JUMPDEST DUP4 DUP2 LT ISZERO PUSH2 0x2898 JUMPI DUP1 DUP3 ADD MLOAD DUP2 DUP5 ADD MSTORE PUSH1 0x20 DUP2 ADD SWAP1 POP PUSH2 0x287D JUMP JUMPDEST DUP4 DUP2 GT ISZERO PUSH2 0x28A7 JUMPI PUSH1 0x0 DUP5 DUP5 ADD MSTORE JUMPDEST POP POP POP POP JUMP JUMPDEST PUSH1 0x0 PUSH1 0x2 DUP3 DIV SWAP1 POP PUSH1 0x1 DUP3 AND DUP1 PUSH2 0x28C5 JUMPI PUSH1 0x7F DUP3 AND SWAP2 POP JUMPDEST PUSH1 0x20 DUP3 LT DUP2 EQ ISZERO PUSH2 0x28D9 JUMPI PUSH2 0x28D8 PUSH2 0x293F JUMP JUMPDEST JUMPDEST POP SWAP2 SWAP1 POP JUMP JUMPDEST PUSH2 0x28E8 DUP3 PUSH2 0x29B1 JUMP JUMPDEST DUP2 ADD DUP2 DUP2 LT PUSH8 0xFFFFFFFFFFFFFFFF DUP3 GT OR ISZERO PUSH2 0x2907 JUMPI PUSH2 0x2906 PUSH2 0x296E JUMP JUMPDEST JUMPDEST DUP1 PUSH1 0x40 MSTORE POP POP POP JUMP JUMPDEST PUSH32 0x4E487B7100000000000000000000000000000000000000000000000000000000 PUSH1 0x0 MSTORE PUSH1 0x11 PUSH1 0x4 MSTORE PUSH1 0x24 PUSH1 0x0 REVERT JUMPDEST PUSH32 0x4E487B7100000000000000000000000000000000000000000000000000000000 PUSH1 0x0 MSTORE PUSH1 0x22 PUSH1 0x4 MSTORE PUSH1 0x24 PUSH1 0x0 REVERT JUMPDEST PUSH32 0x4E487B7100000000000000000000000000000000000000000000000000000000 PUSH1 0x0 MSTORE PUSH1 0x41 PUSH1 0x4 MSTORE PUSH1 0x24 PUSH1 0x0 REVERT JUMPDEST PUSH1 0x0 DUP1 REVERT JUMPDEST PUSH1 0x0 DUP1 REVERT JUMPDEST PUSH1 0x0 DUP1 REVERT JUMPDEST PUSH1 0x0 DUP1 REVERT JUMPDEST PUSH1 0x0 PUSH1 0x1F NOT PUSH1 0x1F DUP4 ADD AND SWAP1 POP SWAP2 SWAP1 POP JUMP JUMPDEST PUSH1 0x0 DUP2 PUSH1 0x1 SHR SWAP1 POP SWAP2 SWAP1 POP JUMP JUMPDEST PUSH32 0x45524332303A207472616E7366657220746F20746865207A65726F2061646472 PUSH1 0x0 DUP3 ADD MSTORE PUSH32 0x6573730000000000000000000000000000000000000000000000000000000000 PUSH1 0x20 DUP3 ADD MSTORE POP JUMP JUMPDEST PUSH32 0x4F776E61626C653A206E6577206F776E657220697320746865207A65726F2061 PUSH1 0x0 DUP3 ADD MSTORE PUSH32 0x6464726573730000000000000000000000000000000000000000000000000000 PUSH1 0x20 DUP3 ADD MSTORE POP JUMP JUMPDEST PUSH32 0x45524332303A20617070726F766520746F20746865207A65726F206164647265 PUSH1 0x0 DUP3 ADD MSTORE PUSH32 0x7373000000000000000000000000000000000000000000000000000000000000 PUSH1 0x20 DUP3 ADD MSTORE POP JUMP JUMPDEST PUSH32 0x46756E6374696F6E206D7573742062652063616C6C6564207468726F75676820 PUSH1 0x0 DUP3 ADD MSTORE PUSH32 0x64656C656761746563616C6C0000000000000000000000000000000000000000 PUSH1 0x20 DUP3 ADD MSTORE POP JUMP JUMPDEST PUSH32 0x45524332303A20696E73756666696369656E7420616C6C6F77616E6365000000 PUSH1 0x0 DUP3 ADD MSTORE POP JUMP JUMPDEST PUSH32 0x45524332303A207472616E7366657220616D6F756E7420657863656564732062 PUSH1 0x0 DUP3 ADD MSTORE PUSH32 0x616C616E63650000000000000000000000000000000000000000000000000000 PUSH1 0x20 DUP3 ADD MSTORE POP JUMP JUMPDEST PUSH32 0x46756E6374696F6E206D7573742062652063616C6C6564207468726F75676820 PUSH1 0x0 DUP3 ADD MSTORE PUSH32 0x6163746976652070726F78790000000000000000000000000000000000000000 PUSH1 0x20 DUP3 ADD MSTORE POP JUMP JUMPDEST PUSH32 0x555550535570677261646561626C653A206D757374206E6F742062652063616C PUSH1 0x0 DUP3 ADD MSTORE PUSH32 0x6C6564207468726F7567682064656C656761746563616C6C0000000000000000 PUSH1 0x20 DUP3 ADD MSTORE POP JUMP JUMPDEST PUSH32 0x45524331393637557067726164653A20756E737570706F727465642070726F78 PUSH1 0x0 DUP3 ADD MSTORE PUSH32 0x6961626C65555549440000000000000000000000000000000000000000000000 PUSH1 0x20 DUP3 ADD MSTORE POP JUMP JUMPDEST PUSH32 0x496E697469616C697A61626C653A20636F6E747261637420697320616C726561 PUSH1 0x0 DUP3 ADD MSTORE PUSH32 0x647920696E697469616C697A6564000000000000000000000000000000000000 PUSH1 0x20 DUP3 ADD MSTORE POP JUMP JUMPDEST PUSH32 0x45524331393637557067726164653A206E657720696D706C656D656E74617469 PUSH1 0x0 DUP3 ADD MSTORE PUSH32 0x6F6E206973206E6F742055555053000000000000000000000000000000000000 PUSH1 0x20 DUP3 ADD MSTORE POP JUMP JUMPDEST PUSH32 0x455243313936373A206E657720696D706C656D656E746174696F6E206973206E PUSH1 0x0 DUP3 ADD MSTORE PUSH32 0x6F74206120636F6E747261637400000000000000000000000000000000000000 PUSH1 0x20 DUP3 ADD MSTORE POP JUMP JUMPDEST PUSH32 0x4F776E61626C653A2063616C6C6572206973206E6F7420746865206F776E6572 PUSH1 0x0 DUP3 ADD MSTORE POP JUMP JUMPDEST PUSH32 0x416464726573733A2064656C65676174652063616C6C20746F206E6F6E2D636F PUSH1 0x0 DUP3 ADD MSTORE PUSH32 0x6E74726163740000000000000000000000000000000000000000000000000000 PUSH1 0x20 DUP3 ADD MSTORE POP JUMP JUMPDEST PUSH32 0x45524332303A207472616E736665722066726F6D20746865207A65726F206164 PUSH1 0x0 DUP3 ADD MSTORE PUSH32 0x6472657373000000000000000000000000000000000000000000000000000000 PUSH1 0x20 DUP3 ADD MSTORE POP JUMP JUMPDEST PUSH32 0x45524332303A20617070726F76652066726F6D20746865207A65726F20616464 PUSH1 0x0 DUP3 ADD MSTORE PUSH32 0x7265737300000000000000000000000000000000000000000000000000000000 PUSH1 0x20 DUP3 ADD MSTORE POP JUMP JUMPDEST PUSH32 0x496E697469616C697A61626C653A20636F6E7472616374206973206E6F742069 PUSH1 0x0 DUP3 ADD MSTORE PUSH32 0x6E697469616C697A696E67000000000000000000000000000000000000000000 PUSH1 0x20 DUP3 ADD MSTORE POP JUMP JUMPDEST PUSH32 0x45524332303A2064656372656173656420616C6C6F77616E63652062656C6F77 PUSH1 0x0 DUP3 ADD MSTORE PUSH32 0x207A65726F000000000000000000000000000000000000000000000000000000 PUSH1 0x20 DUP3 ADD MSTORE POP JUMP JUMPDEST PUSH32 0x45524332303A206D696E7420746F20746865207A65726F206164647265737300 PUSH1 0x0 DUP3 ADD MSTORE POP JUMP JUMPDEST PUSH2 0x2F43 DUP2 PUSH2 0x27FA JUMP JUMPDEST DUP2 EQ PUSH2 0x2F4E JUMPI PUSH1 0x0 DUP1 REVERT JUMPDEST POP JUMP JUMPDEST PUSH2 0x2F5A DUP2 PUSH2 0x2818 JUMP JUMPDEST DUP2 EQ PUSH2 0x2F65 JUMPI PUSH1 0x0 DUP1 REVERT JUMPDEST POP JUMP JUMPDEST PUSH2 0x2F71 DUP2 PUSH2 0x2842 JUMP JUMPDEST DUP2 EQ PUSH2 0x2F7C JUMPI PUSH1 0x0 DUP1 REVERT JUMPDEST POP JUMP INVALID COINBASE PUSH5 0x6472657373 GASPRICE KECCAK256 PUSH13 0x6F772D6C6576656C2064656C65 PUSH8 0x6174652063616C6C KECCAK256 PUSH7 0x61696C6564A264 PUSH10 0x70667358221220B875A7 XOR 0x49 SDIV MSTORE8 0xD3 CREATE PC 0x5E PUSH28 0x7651BFBDF4C5583E2A67FD33CA60936A8B0C353D64736F6C63430008 SMOD STOP CALLER "
		},
		"gasEstimates": {
			"creation": {
				"codeDepositCost": "2450400",
				"executionCost": "infinite",
				"totalCost": "infinite"
			},
			"external": {
				"allowance(address,address)": "infinite",
				"approve(address,uint256)": "infinite",
				"balanceOf(address)": "2886",
				"decimals()": "366",
				"decreaseAllowance(address,uint256)": "infinite",
				"increaseAllowance(address,uint256)": "infinite",
				"initialize(uint256)": "infinite",
				"mint(address,uint256)": "infinite",
				"name()": "infinite",
				"owner()": "2611",
				"proxiableUUID()": "infinite",
				"renounceOwnership()": "30465",
				"symbol()": "infinite",
				"totalSupply()": "2505",
				"transfer(address,uint256)": "infinite",
				"transferFrom(address,address,uint256)": "infinite",
				"transferOwnership(address)": "30835",
				"upgradeTo(address)": "infinite",
				"upgradeToAndCall(address,bytes)": "infinite"
			},
			"internal": {
				"_authorizeUpgrade(address)": "infinite"
			}
		},
		"methodIdentifiers": {
			"allowance(address,address)": "dd62ed3e",
			"approve(address,uint256)": "095ea7b3",
			"balanceOf(address)": "70a08231",
			"decimals()": "313ce567",
			"decreaseAllowance(address,uint256)": "a457c2d7",
			"increaseAllowance(address,uint256)": "39509351",
			"initialize(uint256)": "fe4b84df",
			"mint(address,uint256)": "40c10f19",
			"name()": "06fdde03",
			"owner()": "8da5cb5b",
			"proxiableUUID()": "52d1902d",
			"renounceOwnership()": "715018a6",
			"symbol()": "95d89b41",
			"totalSupply()": "18160ddd",
			"transfer(address,uint256)": "a9059cbb",
			"transferFrom(address,address,uint256)": "23b872dd",
			"transferOwnership(address)": "f2fde38b",
			"upgradeTo(address)": "3659cfe6",
			"upgradeToAndCall(address,bytes)": "4f1ef286"
		}
	},
	"abi": [
		{
			"anonymous": false,
			"inputs": [
				{
					"indexed": false,
					"internalType": "address",
					"name": "previousAdmin",
					"type": "address"
				},
				{
					"indexed": false,
					"internalType": "address",
					"name": "newAdmin",
					"type": "address"
				}
			],
			"name": "AdminChanged",
			"type": "event"
		},
		{
			"anonymous": false,
			"inputs": [
				{
					"indexed": true,
					"internalType": "address",
					"name": "owner",
					"type": "address"
				},
				{
					"indexed": true,
					"internalType": "address",
					"name": "spender",
					"type": "address"
				},
				{
					"indexed": false,
					"internalType": "uint256",
					"name": "value",
					"type": "uint256"
				}
			],
			"name": "Approval",
			"type": "event"
		},
		{
			"anonymous": false,
			"inputs": [
				{
					"indexed": true,
					"internalType": "address",
					"name": "beacon",
					"type": "address"
				}
			],
			"name": "BeaconUpgraded",
			"type": "event"
		},
		{
			"anonymous": false,
			"inputs": [
				{
					"indexed": false,
					"internalType": "uint8",
					"name": "version",
					"type": "uint8"
				}
			],
			"name": "Initialized",
			"type": "event"
		},
		{
			"anonymous": false,
			"inputs": [
				{
					"indexed": true,
					"internalType": "address",
					"name": "previousOwner",
					"type": "address"
				},
				{
					"indexed": true,
					"internalType": "address",
					"name": "newOwner",
					"type": "address"
				}
			],
			"name": "OwnershipTransferred",
			"type": "event"
		},
		{
			"anonymous": false,
			"inputs": [
				{
					"indexed": true,
					"internalType": "address",
					"name": "from",
					"type": "address"
				},
				{
					"indexed": true,
					"internalType": "address",
					"name": "to",
					"type": "address"
				},
				{
					"indexed": false,
					"internalType": "uint256",
					"name": "value",
					"type": "uint256"
				}
			],
			"name": "Transfer",
			"type": "event"
		},
		{
			"anonymous": false,
			"inputs": [
				{
					"indexed": true,
					"internalType": "address",
					"name": "implementation",
					"type": "address"
				}
			],
			"name": "Upgraded",
			"type": "event"
		},
		{
			"inputs": [
				{
					"internalType": "address",
					"name": "owner",
					"type": "address"
				},
				{
					"internalType": "address",
					"name": "spender",
					"type": "address"
				}
			],
			"name": "allowance",
			"outputs": [
				{
					"internalType": "uint256",
					"name": "",
					"type": "uint256"
				}
			],
			"stateMutability": "view",
			"type": "function"
		},
		{
			"inputs": [
				{
					"internalType": "address",
					"name": "spender",
					"type": "address"
				},
				{
					"internalType": "uint256",
					"name": "amount",
					"type": "uint256"
				}
			],
			"name": "approve",
			"outputs": [
				{
					"internalType": "bool",
					"name": "",
					"type": "bool"
				}
			],
			"stateMutability": "nonpayable",
			"type": "function"
		},
		{
			"inputs": [
				{
					"internalType": "address",
					"name": "account",
					"type": "address"
				}
			],
			"name": "balanceOf",
			"outputs": [
				{
					"internalType": "uint256",
					"name": "",
					"type": "uint256"
				}
			],
			"stateMutability": "view",
			"type": "function"
		},
		{
			"inputs": [],
			"name": "decimals",
			"outputs": [
				{
					"internalType": "uint8",
					"name": "",
					"type": "uint8"
				}
			],
			"stateMutability": "view",
			"type": "function"
		},
		{
			"inputs": [
				{
					"internalType": "address",
					"name": "spender",
					"type": "address"
				},
				{
					"internalType": "uint256",
					"name": "subtractedValue",
					"type": "uint256"
				}
			],
			"name": "decreaseAllowance",
			"outputs": [
				{
					"internalType": "bool",
					"name": "",
					"type": "bool"
				}
			],
			"stateMutability": "nonpayable",
			"type": "function"
		},
		{
			"inputs": [
				{
					"internalType": "address",
					"name": "spender",
					"type": "address"
				},
				{
					"internalType": "uint256",
					"name": "addedValue",
					"type": "uint256"
				}
			],
			"name": "increaseAllowance",
			"outputs": [
				{
					"internalType": "bool",
					"name": "",
					"type": "bool"
				}
			],
			"stateMutability": "nonpayable",
			"type": "function"
		},
		{
			"inputs": [
				{
					"internalType": "uint256",
					"name": "initialSupply",
					"type": "uint256"
				}
			],
			"name": "initialize",
			"outputs": [],
			"stateMutability": "nonpayable",
			"type": "function"
		},
		{
			"inputs": [
				{
					"internalType": "address",
					"name": "toAccount",
					"type": "address"
				},
				{
					"internalType": "uint256",
					"name": "amount",
					"type": "uint256"
				}
			],
			"name": "mint",
			"outputs": [],
			"stateMutability": "nonpayable",
			"type": "function"
		},
		{
			"inputs": [],
			"name": "name",
			"outputs": [
				{
					"internalType": "string",
					"name": "",
					"type": "string"
				}
			],
			"stateMutability": "view",
			"type": "function"
		},
		{
			"inputs": [],
			"name": "owner",
			"outputs": [
				{
					"internalType": "address",
					"name": "",
					"type": "address"
				}
			],
			"stateMutability": "view",
			"type": "function"
		},
		{
			"inputs": [],
			"name": "proxiableUUID",
			"outputs": [
				{
					"internalType": "bytes32",
					"name": "",
					"type": "bytes32"
				}
			],
			"stateMutability": "view",
			"type": "function"
		},
		{
			"inputs": [],
			"name": "renounceOwnership",
			"outputs": [],
			"stateMutability": "nonpayable",
			"type": "function"
		},
		{
			"inputs": [],
			"name": "symbol",
			"outputs": [
				{
					"internalType": "string",
					"name": "",
					"type": "string"
				}
			],
			"stateMutability": "view",
			"type": "function"
		},
		{
			"inputs": [],
			"name": "totalSupply",
			"outputs": [
				{
					"internalType": "uint256",
					"name": "",
					"type": "uint256"
				}
			],
			"stateMutability": "view",
			"type": "function"
		},
		{
			"inputs": [
				{
					"internalType": "address",
					"name": "to",
					"type": "address"
				},
				{
					"internalType": "uint256",
					"name": "amount",
					"type": "uint256"
				}
			],
			"name": "transfer",
			"outputs": [
				{
					"internalType": "bool",
					"name": "",
					"type": "bool"
				}
			],
			"stateMutability": "nonpayable",
			"type": "function"
		},
		{
			"inputs": [
				{
					"internalType": "address",
					"name": "from",
					"type": "address"
				},
				{
					"internalType": "address",
					"name": "to",
					"type": "address"
				},
				{
					"internalType": "uint256",
					"name": "amount",
					"type": "uint256"
				}
			],
			"name": "transferFrom",
			"outputs": [
				{
					"internalType": "bool",
					"name": "",
					"type": "bool"
				}
			],
			"stateMutability": "nonpayable",
			"type": "function"
		},
		{
			"inputs": [
				{
					"internalType": "address",
					"name": "newOwner",
					"type": "address"
				}
			],
			"name": "transferOwnership",
			"outputs": [],
			"stateMutability": "nonpayable",
			"type": "function"
		},
		{
			"inputs": [
				{
					"internalType": "address",
					"name": "newImplementation",
					"type": "address"
				}
			],
			"name": "upgradeTo",
			"outputs": [],
			"stateMutability": "nonpayable",
			"type": "function"
		},
		{
			"inputs": [
				{
					"internalType": "address",
					"name": "newImplementation",
					"type": "address"
				},
				{
					"internalType": "bytes",
					"name": "data",
					"type": "bytes"
				}
			],
			"name": "upgradeToAndCall",
			"outputs": [],
			"stateMutability": "payable",
			"type": "function"
		}
	]
}