{
	"data": {
		"bytecode": {
			"linkReferences": {},
			"object": "6101406040523480156200001257600080fd5b506040518060400160405280601481526020017f506c61747a69546f6b656e466f727761726465720000000000000000000000008152506040518060400160405280600581526020017f302e302e3100000000000000000000000000000000000000000000000000000081525060008280519060200120905060008280519060200120905060007f8b73c3c69bb8fe3d512ecc4cf759cc79239f7b179b0ffacaa9a75d522b39400f90508260e081815250508161010081815250504660a08181525050620000e88184846200013a60201b60201c565b608081815250503073ffffffffffffffffffffffffffffffffffffffff1660c08173ffffffffffffffffffffffffffffffffffffffff1660601b8152505080610120818152505050505050506200024e565b6000838383463060405160200162000157959493929190620001a9565b6040516020818303038152906040528051906020012090509392505050565b620001818162000206565b82525050565b62000192816200021a565b82525050565b620001a38162000244565b82525050565b600060a082019050620001c0600083018862000187565b620001cf602083018762000187565b620001de604083018662000187565b620001ed606083018562000198565b620001fc608083018462000176565b9695505050505050565b6000620002138262000224565b9050919050565b6000819050919050565b600073ffffffffffffffffffffffffffffffffffffffff82169050919050565b6000819050919050565b60805160a05160c05160601c60e05161010051610120516110ae620002a16000396000610497015260006104d9015260006104b8015260006103ed015260006104430152600061046c01526110ae6000f3fe608060405234801561001057600080fd5b50600436106100365760003560e01c8063246eb08a1461003b5780632d0335ab1461006b575b600080fd5b610055600480360381019061005091906108ca565b61009b565b6040516100629190610b55565b60405180910390f35b6100856004803603810190610080919061089d565b610219565b6040516100929190610cdb565b60405180910390f35b60006100a8848484610261565b6100e7576040517f08c379a00000000000000000000000000000000000000000000000000000000081526004016100de90610c9b565b60405180910390fd5b600184604001356100f89190610d8b565b60008086600001602081019061010e919061089d565b73ffffffffffffffffffffffffffffffffffffffff1673ffffffffffffffffffffffffffffffffffffffff168152602001908152602001600020819055506000846020016020810190610161919061089d565b73ffffffffffffffffffffffffffffffffffffffff168580606001906101879190610cf6565b87600001602081019061019a919061089d565b6040516020016101ac93929190610add565b6040516020818303038152906040526040516101c89190610b07565b6000604051808303816000865af19150503d8060008114610205576040519150601f19603f3d011682016040523d82523d6000602084013e61020a565b606091505b50509050809150509392505050565b60008060008373ffffffffffffffffffffffffffffffffffffffff1673ffffffffffffffffffffffffffffffffffffffff168152602001908152602001600020549050919050565b6000806103087f36681a028591c327276b03aa08c79763f63827d2c649f30020177cb742928c2d86600001602081019061029b919061089d565b8760200160208101906102ae919061089d565b88604001358980606001906102c39190610cf6565b6040516102d1929190610ac4565b60405180910390206040516020016102ed959493929190610b70565b604051602081830303815290604052805190602001206103a8565b9050600061035a8286868080601f016020809104026020016040519081016040528093929190818152602001838380828437600081840152601f19601f820116905080830192505050505050506103c2565b905085600001602081019061036f919061089d565b73ffffffffffffffffffffffffffffffffffffffff168173ffffffffffffffffffffffffffffffffffffffff1614925050509392505050565b60006103bb6103b56103e9565b83610503565b9050919050565b60008060006103d18585610536565b915091506103de81610588565b819250505092915050565b60007f000000000000000000000000000000000000000000000000000000000000000073ffffffffffffffffffffffffffffffffffffffff163073ffffffffffffffffffffffffffffffffffffffff1614801561046557507f000000000000000000000000000000000000000000000000000000000000000046145b15610492577f00000000000000000000000000000000000000000000000000000000000000009050610500565b6104fd7f00000000000000000000000000000000000000000000000000000000000000007f00000000000000000000000000000000000000000000000000000000000000007f00000000000000000000000000000000000000000000000000000000000000006106f6565b90505b90565b60008282604051602001610518929190610b1e565b60405160208183030381529060405280519060200120905092915050565b6000806041835114156105785760008060006020860151925060408601519150606086015160001a905061056c87828585610730565b94509450505050610581565b60006002915091505b9250929050565b6000600481111561059c5761059b610edf565b5b8160048111156105af576105ae610edf565b5b14156105ba576106f3565b600160048111156105ce576105cd610edf565b5b8160048111156105e1576105e0610edf565b5b1415610622576040517f08c379a000000000000000000000000000000000000000000000000000000000815260040161061990610c5b565b60405180910390fd5b6002600481111561063657610635610edf565b5b81600481111561064957610648610edf565b5b141561068a576040517f08c379a000000000000000000000000000000000000000000000000000000000815260040161068190610c7b565b60405180910390fd5b6003600481111561069e5761069d610edf565b5b8160048111156106b1576106b0610edf565b5b14156106f2576040517f08c379a00000000000000000000000000000000000000000000000000000000081526004016106e990610cbb565b60405180910390fd5b5b50565b60008383834630604051602001610711959493929190610bc3565b6040516020818303038152906040528051906020012090509392505050565b6000807f7fffffffffffffffffffffffffffffff5d576e7357a4501ddfe92f46681b20a08360001c111561076b57600060039150915061080a565b6000600187878787604051600081526020016040526040516107909493929190610c16565b6020604051602081039080840390855afa1580156107b2573d6000803e3d6000fd5b505050602060405103519050600073ffffffffffffffffffffffffffffffffffffffff168173ffffffffffffffffffffffffffffffffffffffff1614156108015760006001925092505061080a565b80600092509250505b94509492505050565b60008135905061082281611061565b92915050565b60008083601f84011261083e5761083d610f13565b5b8235905067ffffffffffffffff81111561085b5761085a610f0e565b5b60208301915083600182028301111561087757610876610f27565b5b9250929050565b60006080828403121561089457610893610f1d565b5b81905092915050565b6000602082840312156108b3576108b2610f36565b5b60006108c184828501610813565b91505092915050565b6000806000604084860312156108e3576108e2610f36565b5b600084013567ffffffffffffffff81111561090157610900610f31565b5b61090d8682870161087e565b935050602084013567ffffffffffffffff81111561092e5761092d610f31565b5b61093a86828701610828565b92509250509250925092565b61094f81610de1565b82525050565b61096661096182610de1565b610e82565b82525050565b61097581610df3565b82525050565b61098481610dff565b82525050565b61099b61099682610dff565b610e94565b82525050565b60006109ad8385610d64565b93506109ba838584610e40565b82840190509392505050565b60006109d182610d59565b6109db8185610d64565b93506109eb818560208601610e4f565b80840191505092915050565b6000610a04601883610d6f565b9150610a0f82610f48565b602082019050919050565b6000610a27601f83610d6f565b9150610a3282610f71565b602082019050919050565b6000610a4a602783610d6f565b9150610a5582610f9a565b604082019050919050565b6000610a6d600283610d80565b9150610a7882610fe9565b600282019050919050565b6000610a90602283610d6f565b9150610a9b82611012565b604082019050919050565b610aaf81610e29565b82525050565b610abe81610e33565b82525050565b6000610ad18284866109a1565b91508190509392505050565b6000610aea8285876109a1565b9150610af68284610955565b601482019150819050949350505050565b6000610b1382846109c6565b915081905092915050565b6000610b2982610a60565b9150610b35828561098a565b602082019150610b45828461098a565b6020820191508190509392505050565b6000602082019050610b6a600083018461096c565b92915050565b600060a082019050610b85600083018861097b565b610b926020830187610946565b610b9f6040830186610946565b610bac6060830185610aa6565b610bb9608083018461097b565b9695505050505050565b600060a082019050610bd8600083018861097b565b610be5602083018761097b565b610bf2604083018661097b565b610bff6060830185610aa6565b610c0c6080830184610946565b9695505050505050565b6000608082019050610c2b600083018761097b565b610c386020830186610ab5565b610c45604083018561097b565b610c52606083018461097b565b95945050505050565b60006020820190508181036000830152610c74816109f7565b9050919050565b60006020820190508181036000830152610c9481610a1a565b9050919050565b60006020820190508181036000830152610cb481610a3d565b9050919050565b60006020820190508181036000830152610cd481610a83565b9050919050565b6000602082019050610cf06000830184610aa6565b92915050565b60008083356001602003843603038112610d1357610d12610f22565b5b80840192508235915067ffffffffffffffff821115610d3557610d34610f18565b5b602083019250600182023603831315610d5157610d50610f2c565b5b509250929050565b600081519050919050565b600081905092915050565b600082825260208201905092915050565b600081905092915050565b6000610d9682610e29565b9150610da183610e29565b9250827fffffffffffffffffffffffffffffffffffffffffffffffffffffffffffffffff03821115610dd657610dd5610eb0565b5b828201905092915050565b6000610dec82610e09565b9050919050565b60008115159050919050565b6000819050919050565b600073ffffffffffffffffffffffffffffffffffffffff82169050919050565b6000819050919050565b600060ff82169050919050565b82818337600083830152505050565b60005b83811015610e6d578082015181840152602081019050610e52565b83811115610e7c576000848401525b50505050565b6000610e8d82610e9e565b9050919050565b6000819050919050565b6000610ea982610f3b565b9050919050565b7f4e487b7100000000000000000000000000000000000000000000000000000000600052601160045260246000fd5b7f4e487b7100000000000000000000000000000000000000000000000000000000600052602160045260246000fd5b600080fd5b600080fd5b600080fd5b600080fd5b600080fd5b600080fd5b600080fd5b600080fd5b600080fd5b60008160601b9050919050565b7f45434453413a20696e76616c6964207369676e61747572650000000000000000600082015250565b7f45434453413a20696e76616c6964207369676e6174757265206c656e67746800600082015250565b7f506c61747a69546f6b656e466f727761726465723a20496e76616c696420736960008201527f676e617475726500000000000000000000000000000000000000000000000000602082015250565b7f1901000000000000000000000000000000000000000000000000000000000000600082015250565b7f45434453413a20696e76616c6964207369676e6174757265202773272076616c60008201527f7565000000000000000000000000000000000000000000000000000000000000602082015250565b61106a81610de1565b811461107557600080fd5b5056fea264697066735822122084e67a629d90990a31bb32f69f7f840106c3f85ac23b42922e5157403c907a7764736f6c63430008070033",
			"opcodes": "PUSH2 0x140 PUSH1 0x40 MSTORE CALLVALUE DUP1 ISZERO PUSH3 0x12 JUMPI PUSH1 0x0 DUP1 REVERT JUMPDEST POP PUSH1 0x40 MLOAD DUP1 PUSH1 0x40 ADD PUSH1 0x40 MSTORE DUP1 PUSH1 0x14 DUP2 MSTORE PUSH1 0x20 ADD PUSH32 0x506C61747A69546F6B656E466F72776172646572000000000000000000000000 DUP2 MSTORE POP PUSH1 0x40 MLOAD DUP1 PUSH1 0x40 ADD PUSH1 0x40 MSTORE DUP1 PUSH1 0x5 DUP2 MSTORE PUSH1 0x20 ADD PUSH32 0x302E302E31000000000000000000000000000000000000000000000000000000 DUP2 MSTORE POP PUSH1 0x0 DUP3 DUP1 MLOAD SWAP1 PUSH1 0x20 ADD KECCAK256 SWAP1 POP PUSH1 0x0 DUP3 DUP1 MLOAD SWAP1 PUSH1 0x20 ADD KECCAK256 SWAP1 POP PUSH1 0x0 PUSH32 0x8B73C3C69BB8FE3D512ECC4CF759CC79239F7B179B0FFACAA9A75D522B39400F SWAP1 POP DUP3 PUSH1 0xE0 DUP2 DUP2 MSTORE POP POP DUP2 PUSH2 0x100 DUP2 DUP2 MSTORE POP POP CHAINID PUSH1 0xA0 DUP2 DUP2 MSTORE POP POP PUSH3 0xE8 DUP2 DUP5 DUP5 PUSH3 0x13A PUSH1 0x20 SHL PUSH1 0x20 SHR JUMP JUMPDEST PUSH1 0x80 DUP2 DUP2 MSTORE POP POP ADDRESS PUSH20 0xFFFFFFFFFFFFFFFFFFFFFFFFFFFFFFFFFFFFFFFF AND PUSH1 0xC0 DUP2 PUSH20 0xFFFFFFFFFFFFFFFFFFFFFFFFFFFFFFFFFFFFFFFF AND PUSH1 0x60 SHL DUP2 MSTORE POP POP DUP1 PUSH2 0x120 DUP2 DUP2 MSTORE POP POP POP POP POP POP POP PUSH3 0x24E JUMP JUMPDEST PUSH1 0x0 DUP4 DUP4 DUP4 CHAINID ADDRESS PUSH1 0x40 MLOAD PUSH1 0x20 ADD PUSH3 0x157 SWAP6 SWAP5 SWAP4 SWAP3 SWAP2 SWAP1 PUSH3 0x1A9 JUMP JUMPDEST PUSH1 0x40 MLOAD PUSH1 0x20 DUP2 DUP4 SUB SUB DUP2 MSTORE SWAP1 PUSH1 0x40 MSTORE DUP1 MLOAD SWAP1 PUSH1 0x20 ADD KECCAK256 SWAP1 POP SWAP4 SWAP3 POP POP POP JUMP JUMPDEST PUSH3 0x181 DUP2 PUSH3 0x206 JUMP JUMPDEST DUP3 MSTORE POP POP JUMP JUMPDEST PUSH3 0x192 DUP2 PUSH3 0x21A JUMP JUMPDEST DUP3 MSTORE POP POP JUMP JUMPDEST PUSH3 0x1A3 DUP2 PUSH3 0x244 JUMP JUMPDEST DUP3 MSTORE POP POP JUMP JUMPDEST PUSH1 0x0 PUSH1 0xA0 DUP3 ADD SWAP1 POP PUSH3 0x1C0 PUSH1 0x0 DUP4 ADD DUP9 PUSH3 0x187 JUMP JUMPDEST PUSH3 0x1CF PUSH1 0x20 DUP4 ADD DUP8 PUSH3 0x187 JUMP JUMPDEST PUSH3 0x1DE PUSH1 0x40 DUP4 ADD DUP7 PUSH3 0x187 JUMP JUMPDEST PUSH3 0x1ED PUSH1 0x60 DUP4 ADD DUP6 PUSH3 0x198 JUMP JUMPDEST PUSH3 0x1FC PUSH1 0x80 DUP4 ADD DUP5 PUSH3 0x176 JUMP JUMPDEST SWAP7 SWAP6 POP POP POP POP POP POP JUMP JUMPDEST PUSH1 0x0 PUSH3 0x213 DUP3 PUSH3 0x224 JUMP JUMPDEST SWAP1 POP SWAP2 SWAP1 POP JUMP JUMPDEST PUSH1 0x0 DUP2 SWAP1 POP SWAP2 SWAP1 POP JUMP JUMPDEST PUSH1 0x0 PUSH20 0xFFFFFFFFFFFFFFFFFFFFFFFFFFFFFFFFFFFFFFFF DUP3 AND SWAP1 POP SWAP2 SWAP1 POP JUMP JUMPDEST PUSH1 0x0 DUP2 SWAP1 POP SWAP2 SWAP1 POP JUMP JUMPDEST PUSH1 0x80 MLOAD PUSH1 0xA0 MLOAD PUSH1 0xC0 MLOAD PUSH1 0x60 SHR PUSH1 0xE0 MLOAD PUSH2 0x100 MLOAD PUSH2 0x120 MLOAD PUSH2 0x10AE PUSH3 0x2A1 PUSH1 0x0 CODECOPY PUSH1 0x0 PUSH2 0x497 ADD MSTORE PUSH1 0x0 PUSH2 0x4D9 ADD MSTORE PUSH1 0x0 PUSH2 0x4B8 ADD MSTORE PUSH1 0x0 PUSH2 0x3ED ADD MSTORE PUSH1 0x0 PUSH2 0x443 ADD MSTORE PUSH1 0x0 PUSH2 0x46C ADD MSTORE PUSH2 0x10AE PUSH1 0x0 RETURN INVALID PUSH1 0x80 PUSH1 0x40 MSTORE CALLVALUE DUP1 ISZERO PUSH2 0x10 JUMPI PUSH1 0x0 DUP1 REVERT JUMPDEST POP PUSH1 0x4 CALLDATASIZE LT PUSH2 0x36 JUMPI PUSH1 0x0 CALLDATALOAD PUSH1 0xE0 SHR DUP1 PUSH4 0x246EB08A EQ PUSH2 0x3B JUMPI DUP1 PUSH4 0x2D0335AB EQ PUSH2 0x6B JUMPI JUMPDEST PUSH1 0x0 DUP1 REVERT JUMPDEST PUSH2 0x55 PUSH1 0x4 DUP1 CALLDATASIZE SUB DUP2 ADD SWAP1 PUSH2 0x50 SWAP2 SWAP1 PUSH2 0x8CA JUMP JUMPDEST PUSH2 0x9B JUMP JUMPDEST PUSH1 0x40 MLOAD PUSH2 0x62 SWAP2 SWAP1 PUSH2 0xB55 JUMP JUMPDEST PUSH1 0x40 MLOAD DUP1 SWAP2 SUB SWAP1 RETURN JUMPDEST PUSH2 0x85 PUSH1 0x4 DUP1 CALLDATASIZE SUB DUP2 ADD SWAP1 PUSH2 0x80 SWAP2 SWAP1 PUSH2 0x89D JUMP JUMPDEST PUSH2 0x219 JUMP JUMPDEST PUSH1 0x40 MLOAD PUSH2 0x92 SWAP2 SWAP1 PUSH2 0xCDB JUMP JUMPDEST PUSH1 0x40 MLOAD DUP1 SWAP2 SUB SWAP1 RETURN JUMPDEST PUSH1 0x0 PUSH2 0xA8 DUP5 DUP5 DUP5 PUSH2 0x261 JUMP JUMPDEST PUSH2 0xE7 JUMPI PUSH1 0x40 MLOAD PUSH32 0x8C379A000000000000000000000000000000000000000000000000000000000 DUP2 MSTORE PUSH1 0x4 ADD PUSH2 0xDE SWAP1 PUSH2 0xC9B JUMP JUMPDEST PUSH1 0x40 MLOAD DUP1 SWAP2 SUB SWAP1 REVERT JUMPDEST PUSH1 0x1 DUP5 PUSH1 0x40 ADD CALLDATALOAD PUSH2 0xF8 SWAP2 SWAP1 PUSH2 0xD8B JUMP JUMPDEST PUSH1 0x0 DUP1 DUP7 PUSH1 0x0 ADD PUSH1 0x20 DUP2 ADD SWAP1 PUSH2 0x10E SWAP2 SWAP1 PUSH2 0x89D JUMP JUMPDEST PUSH20 0xFFFFFFFFFFFFFFFFFFFFFFFFFFFFFFFFFFFFFFFF AND PUSH20 0xFFFFFFFFFFFFFFFFFFFFFFFFFFFFFFFFFFFFFFFF AND DUP2 MSTORE PUSH1 0x20 ADD SWAP1 DUP2 MSTORE PUSH1 0x20 ADD PUSH1 0x0 KECCAK256 DUP2 SWAP1 SSTORE POP PUSH1 0x0 DUP5 PUSH1 0x20 ADD PUSH1 0x20 DUP2 ADD SWAP1 PUSH2 0x161 SWAP2 SWAP1 PUSH2 0x89D JUMP JUMPDEST PUSH20 0xFFFFFFFFFFFFFFFFFFFFFFFFFFFFFFFFFFFFFFFF AND DUP6 DUP1 PUSH1 0x60 ADD SWAP1 PUSH2 0x187 SWAP2 SWAP1 PUSH2 0xCF6 JUMP JUMPDEST DUP8 PUSH1 0x0 ADD PUSH1 0x20 DUP2 ADD SWAP1 PUSH2 0x19A SWAP2 SWAP1 PUSH2 0x89D JUMP JUMPDEST PUSH1 0x40 MLOAD PUSH1 0x20 ADD PUSH2 0x1AC SWAP4 SWAP3 SWAP2 SWAP1 PUSH2 0xADD JUMP JUMPDEST PUSH1 0x40 MLOAD PUSH1 0x20 DUP2 DUP4 SUB SUB DUP2 MSTORE SWAP1 PUSH1 0x40 MSTORE PUSH1 0x40 MLOAD PUSH2 0x1C8 SWAP2 SWAP1 PUSH2 0xB07 JUMP JUMPDEST PUSH1 0x0 PUSH1 0x40 MLOAD DUP1 DUP4 SUB DUP2 PUSH1 0x0 DUP7 GAS CALL SWAP2 POP POP RETURNDATASIZE DUP1 PUSH1 0x0 DUP2 EQ PUSH2 0x205 JUMPI PUSH1 0x40 MLOAD SWAP2 POP PUSH1 0x1F NOT PUSH1 0x3F RETURNDATASIZE ADD AND DUP3 ADD PUSH1 0x40 MSTORE RETURNDATASIZE DUP3 MSTORE RETURNDATASIZE PUSH1 0x0 PUSH1 0x20 DUP5 ADD RETURNDATACOPY PUSH2 0x20A JUMP JUMPDEST PUSH1 0x60 SWAP2 POP JUMPDEST POP POP SWAP1 POP DUP1 SWAP2 POP POP SWAP4 SWAP3 POP POP POP JUMP JUMPDEST PUSH1 0x0 DUP1 PUSH1 0x0 DUP4 PUSH20 0xFFFFFFFFFFFFFFFFFFFFFFFFFFFFFFFFFFFFFFFF AND PUSH20 0xFFFFFFFFFFFFFFFFFFFFFFFFFFFFFFFFFFFFFFFF AND DUP2 MSTORE PUSH1 0x20 ADD SWAP1 DUP2 MSTORE PUSH1 0x20 ADD PUSH1 0x0 KECCAK256 SLOAD SWAP1 POP SWAP2 SWAP1 POP JUMP JUMPDEST PUSH1 0x0 DUP1 PUSH2 0x308 PUSH32 0x36681A028591C327276B03AA08C79763F63827D2C649F30020177CB742928C2D DUP7 PUSH1 0x0 ADD PUSH1 0x20 DUP2 ADD SWAP1 PUSH2 0x29B SWAP2 SWAP1 PUSH2 0x89D JUMP JUMPDEST DUP8 PUSH1 0x20 ADD PUSH1 0x20 DUP2 ADD SWAP1 PUSH2 0x2AE SWAP2 SWAP1 PUSH2 0x89D JUMP JUMPDEST DUP9 PUSH1 0x40 ADD CALLDATALOAD DUP10 DUP1 PUSH1 0x60 ADD SWAP1 PUSH2 0x2C3 SWAP2 SWAP1 PUSH2 0xCF6 JUMP JUMPDEST PUSH1 0x40 MLOAD PUSH2 0x2D1 SWAP3 SWAP2 SWAP1 PUSH2 0xAC4 JUMP JUMPDEST PUSH1 0x40 MLOAD DUP1 SWAP2 SUB SWAP1 KECCAK256 PUSH1 0x40 MLOAD PUSH1 0x20 ADD PUSH2 0x2ED SWAP6 SWAP5 SWAP4 SWAP3 SWAP2 SWAP1 PUSH2 0xB70 JUMP JUMPDEST PUSH1 0x40 MLOAD PUSH1 0x20 DUP2 DUP4 SUB SUB DUP2 MSTORE SWAP1 PUSH1 0x40 MSTORE DUP1 MLOAD SWAP1 PUSH1 0x20 ADD KECCAK256 PUSH2 0x3A8 JUMP JUMPDEST SWAP1 POP PUSH1 0x0 PUSH2 0x35A DUP3 DUP7 DUP7 DUP1 DUP1 PUSH1 0x1F ADD PUSH1 0x20 DUP1 SWAP2 DIV MUL PUSH1 0x20 ADD PUSH1 0x40 MLOAD SWAP1 DUP2 ADD PUSH1 0x40 MSTORE DUP1 SWAP4 SWAP3 SWAP2 SWAP1 DUP2 DUP2 MSTORE PUSH1 0x20 ADD DUP4 DUP4 DUP1 DUP3 DUP5 CALLDATACOPY PUSH1 0x0 DUP2 DUP5 ADD MSTORE PUSH1 0x1F NOT PUSH1 0x1F DUP3 ADD AND SWAP1 POP DUP1 DUP4 ADD SWAP3 POP POP POP POP POP POP POP PUSH2 0x3C2 JUMP JUMPDEST SWAP1 POP DUP6 PUSH1 0x0 ADD PUSH1 0x20 DUP2 ADD SWAP1 PUSH2 0x36F SWAP2 SWAP1 PUSH2 0x89D JUMP JUMPDEST PUSH20 0xFFFFFFFFFFFFFFFFFFFFFFFFFFFFFFFFFFFFFFFF AND DUP2 PUSH20 0xFFFFFFFFFFFFFFFFFFFFFFFFFFFFFFFFFFFFFFFF AND EQ SWAP3 POP POP POP SWAP4 SWAP3 POP POP POP JUMP JUMPDEST PUSH1 0x0 PUSH2 0x3BB PUSH2 0x3B5 PUSH2 0x3E9 JUMP JUMPDEST DUP4 PUSH2 0x503 JUMP JUMPDEST SWAP1 POP SWAP2 SWAP1 POP JUMP JUMPDEST PUSH1 0x0 DUP1 PUSH1 0x0 PUSH2 0x3D1 DUP6 DUP6 PUSH2 0x536 JUMP JUMPDEST SWAP2 POP SWAP2 POP PUSH2 0x3DE DUP2 PUSH2 0x588 JUMP JUMPDEST DUP2 SWAP3 POP POP POP SWAP3 SWAP2 POP POP JUMP JUMPDEST PUSH1 0x0 PUSH32 0x0 PUSH20 0xFFFFFFFFFFFFFFFFFFFFFFFFFFFFFFFFFFFFFFFF AND ADDRESS PUSH20 0xFFFFFFFFFFFFFFFFFFFFFFFFFFFFFFFFFFFFFFFF AND EQ DUP1 ISZERO PUSH2 0x465 JUMPI POP PUSH32 0x0 CHAINID EQ JUMPDEST ISZERO PUSH2 0x492 JUMPI PUSH32 0x0 SWAP1 POP PUSH2 0x500 JUMP JUMPDEST PUSH2 0x4FD PUSH32 0x0 PUSH32 0x0 PUSH32 0x0 PUSH2 0x6F6 JUMP JUMPDEST SWAP1 POP JUMPDEST SWAP1 JUMP JUMPDEST PUSH1 0x0 DUP3 DUP3 PUSH1 0x40 MLOAD PUSH1 0x20 ADD PUSH2 0x518 SWAP3 SWAP2 SWAP1 PUSH2 0xB1E JUMP JUMPDEST PUSH1 0x40 MLOAD PUSH1 0x20 DUP2 DUP4 SUB SUB DUP2 MSTORE SWAP1 PUSH1 0x40 MSTORE DUP1 MLOAD SWAP1 PUSH1 0x20 ADD KECCAK256 SWAP1 POP SWAP3 SWAP2 POP POP JUMP JUMPDEST PUSH1 0x0 DUP1 PUSH1 0x41 DUP4 MLOAD EQ ISZERO PUSH2 0x578 JUMPI PUSH1 0x0 DUP1 PUSH1 0x0 PUSH1 0x20 DUP7 ADD MLOAD SWAP3 POP PUSH1 0x40 DUP7 ADD MLOAD SWAP2 POP PUSH1 0x60 DUP7 ADD MLOAD PUSH1 0x0 BYTE SWAP1 POP PUSH2 0x56C DUP8 DUP3 DUP6 DUP6 PUSH2 0x730 JUMP JUMPDEST SWAP5 POP SWAP5 POP POP POP POP PUSH2 0x581 JUMP JUMPDEST PUSH1 0x0 PUSH1 0x2 SWAP2 POP SWAP2 POP JUMPDEST SWAP3 POP SWAP3 SWAP1 POP JUMP JUMPDEST PUSH1 0x0 PUSH1 0x4 DUP2 GT ISZERO PUSH2 0x59C JUMPI PUSH2 0x59B PUSH2 0xEDF JUMP JUMPDEST JUMPDEST DUP2 PUSH1 0x4 DUP2 GT ISZERO PUSH2 0x5AF JUMPI PUSH2 0x5AE PUSH2 0xEDF JUMP JUMPDEST JUMPDEST EQ ISZERO PUSH2 0x5BA JUMPI PUSH2 0x6F3 JUMP JUMPDEST PUSH1 0x1 PUSH1 0x4 DUP2 GT ISZERO PUSH2 0x5CE JUMPI PUSH2 0x5CD PUSH2 0xEDF JUMP JUMPDEST JUMPDEST DUP2 PUSH1 0x4 DUP2 GT ISZERO PUSH2 0x5E1 JUMPI PUSH2 0x5E0 PUSH2 0xEDF JUMP JUMPDEST JUMPDEST EQ ISZERO PUSH2 0x622 JUMPI PUSH1 0x40 MLOAD PUSH32 0x8C379A000000000000000000000000000000000000000000000000000000000 DUP2 MSTORE PUSH1 0x4 ADD PUSH2 0x619 SWAP1 PUSH2 0xC5B JUMP JUMPDEST PUSH1 0x40 MLOAD DUP1 SWAP2 SUB SWAP1 REVERT JUMPDEST PUSH1 0x2 PUSH1 0x4 DUP2 GT ISZERO PUSH2 0x636 JUMPI PUSH2 0x635 PUSH2 0xEDF JUMP JUMPDEST JUMPDEST DUP2 PUSH1 0x4 DUP2 GT ISZERO PUSH2 0x649 JUMPI PUSH2 0x648 PUSH2 0xEDF JUMP JUMPDEST JUMPDEST EQ ISZERO PUSH2 0x68A JUMPI PUSH1 0x40 MLOAD PUSH32 0x8C379A000000000000000000000000000000000000000000000000000000000 DUP2 MSTORE PUSH1 0x4 ADD PUSH2 0x681 SWAP1 PUSH2 0xC7B JUMP JUMPDEST PUSH1 0x40 MLOAD DUP1 SWAP2 SUB SWAP1 REVERT JUMPDEST PUSH1 0x3 PUSH1 0x4 DUP2 GT ISZERO PUSH2 0x69E JUMPI PUSH2 0x69D PUSH2 0xEDF JUMP JUMPDEST JUMPDEST DUP2 PUSH1 0x4 DUP2 GT ISZERO PUSH2 0x6B1 JUMPI PUSH2 0x6B0 PUSH2 0xEDF JUMP JUMPDEST JUMPDEST EQ ISZERO PUSH2 0x6F2 JUMPI PUSH1 0x40 MLOAD PUSH32 0x8C379A000000000000000000000000000000000000000000000000000000000 DUP2 MSTORE PUSH1 0x4 ADD PUSH2 0x6E9 SWAP1 PUSH2 0xCBB JUMP JUMPDEST PUSH1 0x40 MLOAD DUP1 SWAP2 SUB SWAP1 REVERT JUMPDEST JUMPDEST POP JUMP JUMPDEST PUSH1 0x0 DUP4 DUP4 DUP4 CHAINID ADDRESS PUSH1 0x40 MLOAD PUSH1 0x20 ADD PUSH2 0x711 SWAP6 SWAP5 SWAP4 SWAP3 SWAP2 SWAP1 PUSH2 0xBC3 JUMP JUMPDEST PUSH1 0x40 MLOAD PUSH1 0x20 DUP2 DUP4 SUB SUB DUP2 MSTORE SWAP1 PUSH1 0x40 MSTORE DUP1 MLOAD SWAP1 PUSH1 0x20 ADD KECCAK256 SWAP1 POP SWAP4 SWAP3 POP POP POP JUMP JUMPDEST PUSH1 0x0 DUP1 PUSH32 0x7FFFFFFFFFFFFFFFFFFFFFFFFFFFFFFF5D576E7357A4501DDFE92F46681B20A0 DUP4 PUSH1 0x0 SHR GT ISZERO PUSH2 0x76B JUMPI PUSH1 0x0 PUSH1 0x3 SWAP2 POP SWAP2 POP PUSH2 0x80A JUMP JUMPDEST PUSH1 0x0 PUSH1 0x1 DUP8 DUP8 DUP8 DUP8 PUSH1 0x40 MLOAD PUSH1 0x0 DUP2 MSTORE PUSH1 0x20 ADD PUSH1 0x40 MSTORE PUSH1 0x40 MLOAD PUSH2 0x790 SWAP5 SWAP4 SWAP3 SWAP2 SWAP1 PUSH2 0xC16 JUMP JUMPDEST PUSH1 0x20 PUSH1 0x40 MLOAD PUSH1 0x20 DUP2 SUB SWAP1 DUP1 DUP5 SUB SWAP1 DUP6 GAS STATICCALL ISZERO DUP1 ISZERO PUSH2 0x7B2 JUMPI RETURNDATASIZE PUSH1 0x0 DUP1 RETURNDATACOPY RETURNDATASIZE PUSH1 0x0 REVERT JUMPDEST POP POP POP PUSH1 0x20 PUSH1 0x40 MLOAD SUB MLOAD SWAP1 POP PUSH1 0x0 PUSH20 0xFFFFFFFFFFFFFFFFFFFFFFFFFFFFFFFFFFFFFFFF AND DUP2 PUSH20 0xFFFFFFFFFFFFFFFFFFFFFFFFFFFFFFFFFFFFFFFF AND EQ ISZERO PUSH2 0x801 JUMPI PUSH1 0x0 PUSH1 0x1 SWAP3 POP SWAP3 POP POP PUSH2 0x80A JUMP JUMPDEST DUP1 PUSH1 0x0 SWAP3 POP SWAP3 POP POP JUMPDEST SWAP5 POP SWAP5 SWAP3 POP POP POP JUMP JUMPDEST PUSH1 0x0 DUP2 CALLDATALOAD SWAP1 POP PUSH2 0x822 DUP2 PUSH2 0x1061 JUMP JUMPDEST SWAP3 SWAP2 POP POP JUMP JUMPDEST PUSH1 0x0 DUP1 DUP4 PUSH1 0x1F DUP5 ADD SLT PUSH2 0x83E JUMPI PUSH2 0x83D PUSH2 0xF13 JUMP JUMPDEST JUMPDEST DUP3 CALLDATALOAD SWAP1 POP PUSH8 0xFFFFFFFFFFFFFFFF DUP2 GT ISZERO PUSH2 0x85B JUMPI PUSH2 0x85A PUSH2 0xF0E JUMP JUMPDEST JUMPDEST PUSH1 0x20 DUP4 ADD SWAP2 POP DUP4 PUSH1 0x1 DUP3 MUL DUP4 ADD GT ISZERO PUSH2 0x877 JUMPI PUSH2 0x876 PUSH2 0xF27 JUMP JUMPDEST JUMPDEST SWAP3 POP SWAP3 SWAP1 POP JUMP JUMPDEST PUSH1 0x0 PUSH1 0x80 DUP3 DUP5 SUB SLT ISZERO PUSH2 0x894 JUMPI PUSH2 0x893 PUSH2 0xF1D JUMP JUMPDEST JUMPDEST DUP2 SWAP1 POP SWAP3 SWAP2 POP POP JUMP JUMPDEST PUSH1 0x0 PUSH1 0x20 DUP3 DUP5 SUB SLT ISZERO PUSH2 0x8B3 JUMPI PUSH2 0x8B2 PUSH2 0xF36 JUMP JUMPDEST JUMPDEST PUSH1 0x0 PUSH2 0x8C1 DUP5 DUP3 DUP6 ADD PUSH2 0x813 JUMP JUMPDEST SWAP2 POP POP SWAP3 SWAP2 POP POP JUMP JUMPDEST PUSH1 0x0 DUP1 PUSH1 0x0 PUSH1 0x40 DUP5 DUP7 SUB SLT ISZERO PUSH2 0x8E3 JUMPI PUSH2 0x8E2 PUSH2 0xF36 JUMP JUMPDEST JUMPDEST PUSH1 0x0 DUP5 ADD CALLDATALOAD PUSH8 0xFFFFFFFFFFFFFFFF DUP2 GT ISZERO PUSH2 0x901 JUMPI PUSH2 0x900 PUSH2 0xF31 JUMP JUMPDEST JUMPDEST PUSH2 0x90D DUP7 DUP3 DUP8 ADD PUSH2 0x87E JUMP JUMPDEST SWAP4 POP POP PUSH1 0x20 DUP5 ADD CALLDATALOAD PUSH8 0xFFFFFFFFFFFFFFFF DUP2 GT ISZERO PUSH2 0x92E JUMPI PUSH2 0x92D PUSH2 0xF31 JUMP JUMPDEST JUMPDEST PUSH2 0x93A DUP7 DUP3 DUP8 ADD PUSH2 0x828 JUMP JUMPDEST SWAP3 POP SWAP3 POP POP SWAP3 POP SWAP3 POP SWAP3 JUMP JUMPDEST PUSH2 0x94F DUP2 PUSH2 0xDE1 JUMP JUMPDEST DUP3 MSTORE POP POP JUMP JUMPDEST PUSH2 0x966 PUSH2 0x961 DUP3 PUSH2 0xDE1 JUMP JUMPDEST PUSH2 0xE82 JUMP JUMPDEST DUP3 MSTORE POP POP JUMP JUMPDEST PUSH2 0x975 DUP2 PUSH2 0xDF3 JUMP JUMPDEST DUP3 MSTORE POP POP JUMP JUMPDEST PUSH2 0x984 DUP2 PUSH2 0xDFF JUMP JUMPDEST DUP3 MSTORE POP POP JUMP JUMPDEST PUSH2 0x99B PUSH2 0x996 DUP3 PUSH2 0xDFF JUMP JUMPDEST PUSH2 0xE94 JUMP JUMPDEST DUP3 MSTORE POP POP JUMP JUMPDEST PUSH1 0x0 PUSH2 0x9AD DUP4 DUP6 PUSH2 0xD64 JUMP JUMPDEST SWAP4 POP PUSH2 0x9BA DUP4 DUP6 DUP5 PUSH2 0xE40 JUMP JUMPDEST DUP3 DUP5 ADD SWAP1 POP SWAP4 SWAP3 POP POP POP JUMP JUMPDEST PUSH1 0x0 PUSH2 0x9D1 DUP3 PUSH2 0xD59 JUMP JUMPDEST PUSH2 0x9DB DUP2 DUP6 PUSH2 0xD64 JUMP JUMPDEST SWAP4 POP PUSH2 0x9EB DUP2 DUP6 PUSH1 0x20 DUP7 ADD PUSH2 0xE4F JUMP JUMPDEST DUP1 DUP5 ADD SWAP2 POP POP SWAP3 SWAP2 POP POP JUMP JUMPDEST PUSH1 0x0 PUSH2 0xA04 PUSH1 0x18 DUP4 PUSH2 0xD6F JUMP JUMPDEST SWAP2 POP PUSH2 0xA0F DUP3 PUSH2 0xF48 JUMP JUMPDEST PUSH1 0x20 DUP3 ADD SWAP1 POP SWAP2 SWAP1 POP JUMP JUMPDEST PUSH1 0x0 PUSH2 0xA27 PUSH1 0x1F DUP4 PUSH2 0xD6F JUMP JUMPDEST SWAP2 POP PUSH2 0xA32 DUP3 PUSH2 0xF71 JUMP JUMPDEST PUSH1 0x20 DUP3 ADD SWAP1 POP SWAP2 SWAP1 POP JUMP JUMPDEST PUSH1 0x0 PUSH2 0xA4A PUSH1 0x27 DUP4 PUSH2 0xD6F JUMP JUMPDEST SWAP2 POP PUSH2 0xA55 DUP3 PUSH2 0xF9A JUMP JUMPDEST PUSH1 0x40 DUP3 ADD SWAP1 POP SWAP2 SWAP1 POP JUMP JUMPDEST PUSH1 0x0 PUSH2 0xA6D PUSH1 0x2 DUP4 PUSH2 0xD80 JUMP JUMPDEST SWAP2 POP PUSH2 0xA78 DUP3 PUSH2 0xFE9 JUMP JUMPDEST PUSH1 0x2 DUP3 ADD SWAP1 POP SWAP2 SWAP1 POP JUMP JUMPDEST PUSH1 0x0 PUSH2 0xA90 PUSH1 0x22 DUP4 PUSH2 0xD6F JUMP JUMPDEST SWAP2 POP PUSH2 0xA9B DUP3 PUSH2 0x1012 JUMP JUMPDEST PUSH1 0x40 DUP3 ADD SWAP1 POP SWAP2 SWAP1 POP JUMP JUMPDEST PUSH2 0xAAF DUP2 PUSH2 0xE29 JUMP JUMPDEST DUP3 MSTORE POP POP JUMP JUMPDEST PUSH2 0xABE DUP2 PUSH2 0xE33 JUMP JUMPDEST DUP3 MSTORE POP POP JUMP JUMPDEST PUSH1 0x0 PUSH2 0xAD1 DUP3 DUP5 DUP7 PUSH2 0x9A1 JUMP JUMPDEST SWAP2 POP DUP2 SWAP1 POP SWAP4 SWAP3 POP POP POP JUMP JUMPDEST PUSH1 0x0 PUSH2 0xAEA DUP3 DUP6 DUP8 PUSH2 0x9A1 JUMP JUMPDEST SWAP2 POP PUSH2 0xAF6 DUP3 DUP5 PUSH2 0x955 JUMP JUMPDEST PUSH1 0x14 DUP3 ADD SWAP2 POP DUP2 SWAP1 POP SWAP5 SWAP4 POP POP POP POP JUMP JUMPDEST PUSH1 0x0 PUSH2 0xB13 DUP3 DUP5 PUSH2 0x9C6 JUMP JUMPDEST SWAP2 POP DUP2 SWAP1 POP SWAP3 SWAP2 POP POP JUMP JUMPDEST PUSH1 0x0 PUSH2 0xB29 DUP3 PUSH2 0xA60 JUMP JUMPDEST SWAP2 POP PUSH2 0xB35 DUP3 DUP6 PUSH2 0x98A JUMP JUMPDEST PUSH1 0x20 DUP3 ADD SWAP2 POP PUSH2 0xB45 DUP3 DUP5 PUSH2 0x98A JUMP JUMPDEST PUSH1 0x20 DUP3 ADD SWAP2 POP DUP2 SWAP1 POP SWAP4 SWAP3 POP POP POP JUMP JUMPDEST PUSH1 0x0 PUSH1 0x20 DUP3 ADD SWAP1 POP PUSH2 0xB6A PUSH1 0x0 DUP4 ADD DUP5 PUSH2 0x96C JUMP JUMPDEST SWAP3 SWAP2 POP POP JUMP JUMPDEST PUSH1 0x0 PUSH1 0xA0 DUP3 ADD SWAP1 POP PUSH2 0xB85 PUSH1 0x0 DUP4 ADD DUP9 PUSH2 0x97B JUMP JUMPDEST PUSH2 0xB92 PUSH1 0x20 DUP4 ADD DUP8 PUSH2 0x946 JUMP JUMPDEST PUSH2 0xB9F PUSH1 0x40 DUP4 ADD DUP7 PUSH2 0x946 JUMP JUMPDEST PUSH2 0xBAC PUSH1 0x60 DUP4 ADD DUP6 PUSH2 0xAA6 JUMP JUMPDEST PUSH2 0xBB9 PUSH1 0x80 DUP4 ADD DUP5 PUSH2 0x97B JUMP JUMPDEST SWAP7 SWAP6 POP POP POP POP POP POP JUMP JUMPDEST PUSH1 0x0 PUSH1 0xA0 DUP3 ADD SWAP1 POP PUSH2 0xBD8 PUSH1 0x0 DUP4 ADD DUP9 PUSH2 0x97B JUMP JUMPDEST PUSH2 0xBE5 PUSH1 0x20 DUP4 ADD DUP8 PUSH2 0x97B JUMP JUMPDEST PUSH2 0xBF2 PUSH1 0x40 DUP4 ADD DUP7 PUSH2 0x97B JUMP JUMPDEST PUSH2 0xBFF PUSH1 0x60 DUP4 ADD DUP6 PUSH2 0xAA6 JUMP JUMPDEST PUSH2 0xC0C PUSH1 0x80 DUP4 ADD DUP5 PUSH2 0x946 JUMP JUMPDEST SWAP7 SWAP6 POP POP POP POP POP POP JUMP JUMPDEST PUSH1 0x0 PUSH1 0x80 DUP3 ADD SWAP1 POP PUSH2 0xC2B PUSH1 0x0 DUP4 ADD DUP8 PUSH2 0x97B JUMP JUMPDEST PUSH2 0xC38 PUSH1 0x20 DUP4 ADD DUP7 PUSH2 0xAB5 JUMP JUMPDEST PUSH2 0xC45 PUSH1 0x40 DUP4 ADD DUP6 PUSH2 0x97B JUMP JUMPDEST PUSH2 0xC52 PUSH1 0x60 DUP4 ADD DUP5 PUSH2 0x97B JUMP JUMPDEST SWAP6 SWAP5 POP POP POP POP POP JUMP JUMPDEST PUSH1 0x0 PUSH1 0x20 DUP3 ADD SWAP1 POP DUP2 DUP2 SUB PUSH1 0x0 DUP4 ADD MSTORE PUSH2 0xC74 DUP2 PUSH2 0x9F7 JUMP JUMPDEST SWAP1 POP SWAP2 SWAP1 POP JUMP JUMPDEST PUSH1 0x0 PUSH1 0x20 DUP3 ADD SWAP1 POP DUP2 DUP2 SUB PUSH1 0x0 DUP4 ADD MSTORE PUSH2 0xC94 DUP2 PUSH2 0xA1A JUMP JUMPDEST SWAP1 POP SWAP2 SWAP1 POP JUMP JUMPDEST PUSH1 0x0 PUSH1 0x20 DUP3 ADD SWAP1 POP DUP2 DUP2 SUB PUSH1 0x0 DUP4 ADD MSTORE PUSH2 0xCB4 DUP2 PUSH2 0xA3D JUMP JUMPDEST SWAP1 POP SWAP2 SWAP1 POP JUMP JUMPDEST PUSH1 0x0 PUSH1 0x20 DUP3 ADD SWAP1 POP DUP2 DUP2 SUB PUSH1 0x0 DUP4 ADD MSTORE PUSH2 0xCD4 DUP2 PUSH2 0xA83 JUMP JUMPDEST SWAP1 POP SWAP2 SWAP1 POP JUMP JUMPDEST PUSH1 0x0 PUSH1 0x20 DUP3 ADD SWAP1 POP PUSH2 0xCF0 PUSH1 0x0 DUP4 ADD DUP5 PUSH2 0xAA6 JUMP JUMPDEST SWAP3 SWAP2 POP POP JUMP JUMPDEST PUSH1 0x0 DUP1 DUP4 CALLDATALOAD PUSH1 0x1 PUSH1 0x20 SUB DUP5 CALLDATASIZE SUB SUB DUP2 SLT PUSH2 0xD13 JUMPI PUSH2 0xD12 PUSH2 0xF22 JUMP JUMPDEST JUMPDEST DUP1 DUP5 ADD SWAP3 POP DUP3 CALLDATALOAD SWAP2 POP PUSH8 0xFFFFFFFFFFFFFFFF DUP3 GT ISZERO PUSH2 0xD35 JUMPI PUSH2 0xD34 PUSH2 0xF18 JUMP JUMPDEST JUMPDEST PUSH1 0x20 DUP4 ADD SWAP3 POP PUSH1 0x1 DUP3 MUL CALLDATASIZE SUB DUP4 SGT ISZERO PUSH2 0xD51 JUMPI PUSH2 0xD50 PUSH2 0xF2C JUMP JUMPDEST JUMPDEST POP SWAP3 POP SWAP3 SWAP1 POP JUMP JUMPDEST PUSH1 0x0 DUP2 MLOAD SWAP1 POP SWAP2 SWAP1 POP JUMP JUMPDEST PUSH1 0x0 DUP2 SWAP1 POP SWAP3 SWAP2 POP POP JUMP JUMPDEST PUSH1 0x0 DUP3 DUP3 MSTORE PUSH1 0x20 DUP3 ADD SWAP1 POP SWAP3 SWAP2 POP POP JUMP JUMPDEST PUSH1 0x0 DUP2 SWAP1 POP SWAP3 SWAP2 POP POP JUMP JUMPDEST PUSH1 0x0 PUSH2 0xD96 DUP3 PUSH2 0xE29 JUMP JUMPDEST SWAP2 POP PUSH2 0xDA1 DUP4 PUSH2 0xE29 JUMP JUMPDEST SWAP3 POP DUP3 PUSH32 0xFFFFFFFFFFFFFFFFFFFFFFFFFFFFFFFFFFFFFFFFFFFFFFFFFFFFFFFFFFFFFFFF SUB DUP3 GT ISZERO PUSH2 0xDD6 JUMPI PUSH2 0xDD5 PUSH2 0xEB0 JUMP JUMPDEST JUMPDEST DUP3 DUP3 ADD SWAP1 POP SWAP3 SWAP2 POP POP JUMP JUMPDEST PUSH1 0x0 PUSH2 0xDEC DUP3 PUSH2 0xE09 JUMP JUMPDEST SWAP1 POP SWAP2 SWAP1 POP JUMP JUMPDEST PUSH1 0x0 DUP2 ISZERO ISZERO SWAP1 POP SWAP2 SWAP1 POP JUMP JUMPDEST PUSH1 0x0 DUP2 SWAP1 POP SWAP2 SWAP1 POP JUMP JUMPDEST PUSH1 0x0 PUSH20 0xFFFFFFFFFFFFFFFFFFFFFFFFFFFFFFFFFFFFFFFF DUP3 AND SWAP1 POP SWAP2 SWAP1 POP JUMP JUMPDEST PUSH1 0x0 DUP2 SWAP1 POP SWAP2 SWAP1 POP JUMP JUMPDEST PUSH1 0x0 PUSH1 0xFF DUP3 AND SWAP1 POP SWAP2 SWAP1 POP JUMP JUMPDEST DUP3 DUP2 DUP4 CALLDATACOPY PUSH1 0x0 DUP4 DUP4 ADD MSTORE POP POP POP JUMP JUMPDEST PUSH1 0x0 JUMPDEST DUP4 DUP2 LT ISZERO PUSH2 0xE6D JUMPI DUP1 DUP3 ADD MLOAD DUP2 DUP5 ADD MSTORE PUSH1 0x20 DUP2 ADD SWAP1 POP PUSH2 0xE52 JUMP JUMPDEST DUP4 DUP2 GT ISZERO PUSH2 0xE7C JUMPI PUSH1 0x0 DUP5 DUP5 ADD MSTORE JUMPDEST POP POP POP POP JUMP JUMPDEST PUSH1 0x0 PUSH2 0xE8D DUP3 PUSH2 0xE9E JUMP JUMPDEST SWAP1 POP SWAP2 SWAP1 POP JUMP JUMPDEST PUSH1 0x0 DUP2 SWAP1 POP SWAP2 SWAP1 POP JUMP JUMPDEST PUSH1 0x0 PUSH2 0xEA9 DUP3 PUSH2 0xF3B JUMP JUMPDEST SWAP1 POP SWAP2 SWAP1 POP JUMP JUMPDEST PUSH32 0x4E487B7100000000000000000000000000000000000000000000000000000000 PUSH1 0x0 MSTORE PUSH1 0x11 PUSH1 0x4 MSTORE PUSH1 0x24 PUSH1 0x0 REVERT JUMPDEST PUSH32 0x4E487B7100000000000000000000000000000000000000000000000000000000 PUSH1 0x0 MSTORE PUSH1 0x21 PUSH1 0x4 MSTORE PUSH1 0x24 PUSH1 0x0 REVERT JUMPDEST PUSH1 0x0 DUP1 REVERT JUMPDEST PUSH1 0x0 DUP1 REVERT JUMPDEST PUSH1 0x0 DUP1 REVERT JUMPDEST PUSH1 0x0 DUP1 REVERT JUMPDEST PUSH1 0x0 DUP1 REVERT JUMPDEST PUSH1 0x0 DUP1 REVERT JUMPDEST PUSH1 0x0 DUP1 REVERT JUMPDEST PUSH1 0x0 DUP1 REVERT JUMPDEST PUSH1 0x0 DUP1 REVERT JUMPDEST PUSH1 0x0 DUP2 PUSH1 0x60 SHL SWAP1 POP SWAP2 SWAP1 POP JUMP JUMPDEST PUSH32 0x45434453413A20696E76616C6964207369676E61747572650000000000000000 PUSH1 0x0 DUP3 ADD MSTORE POP JUMP JUMPDEST PUSH32 0x45434453413A20696E76616C6964207369676E6174757265206C656E67746800 PUSH1 0x0 DUP3 ADD MSTORE POP JUMP JUMPDEST PUSH32 0x506C61747A69546F6B656E466F727761726465723A20496E76616C6964207369 PUSH1 0x0 DUP3 ADD MSTORE PUSH32 0x676E617475726500000000000000000000000000000000000000000000000000 PUSH1 0x20 DUP3 ADD MSTORE POP JUMP JUMPDEST PUSH32 0x1901000000000000000000000000000000000000000000000000000000000000 PUSH1 0x0 DUP3 ADD MSTORE POP JUMP JUMPDEST PUSH32 0x45434453413A20696E76616C6964207369676E6174757265202773272076616C PUSH1 0x0 DUP3 ADD MSTORE PUSH32 0x7565000000000000000000000000000000000000000000000000000000000000 PUSH1 0x20 DUP3 ADD MSTORE POP JUMP JUMPDEST PUSH2 0x106A DUP2 PUSH2 0xDE1 JUMP JUMPDEST DUP2 EQ PUSH2 0x1075 JUMPI PUSH1 0x0 DUP1 REVERT JUMPDEST POP JUMP INVALID LOG2 PUSH5 0x6970667358 0x22 SLT KECCAK256 DUP5 0xE6 PUSH27 0x629D90990A31BB32F69F7F840106C3F85AC23B42922E5157403C90 PUSH27 0x7764736F6C63430008070033000000000000000000000000000000 "
		},
		"gasEstimates": {
			"creation": {
				"codeDepositCost": "854000",
				"executionCost": "infinite",
				"totalCost": "infinite"
			},
			"external": {
				"executeFunction((address,address,uint256,bytes),bytes)": "infinite",
				"getNonce(address)": "2841"
			},
			"internal": {
				"_verifyMetaTx(struct PlatziTokenForwarder.MetaTx calldata,bytes calldata)": "infinite"
			}
		},
		"methodIdentifiers": {
			"executeFunction((address,address,uint256,bytes),bytes)": "246eb08a",
			"getNonce(address)": "2d0335ab"
		}
	},
	"abi": [
		{
			"inputs": [],
			"stateMutability": "nonpayable",
			"type": "constructor"
		},
		{
			"inputs": [
				{
					"components": [
						{
							"internalType": "address",
							"name": "from",
							"type": "address"
						},
						{
							"internalType": "address",
							"name": "to",
							"type": "address"
						},
						{
							"internalType": "uint256",
							"name": "nonce",
							"type": "uint256"
						},
						{
							"internalType": "bytes",
							"name": "data",
							"type": "bytes"
						}
					],
					"internalType": "struct PlatziTokenForwarder.MetaTx",
					"name": "metaTx",
					"type": "tuple"
				},
				{
					"internalType": "bytes",
					"name": "signature",
					"type": "bytes"
				}
			],
			"name": "executeFunction",
			"outputs": [
				{
					"internalType": "bool",
					"name": "",
					"type": "bool"
				}
			],
			"stateMutability": "nonpayable",
			"type": "function"
		},
		{
			"inputs": [
				{
					"internalType": "address",
					"name": "from",
					"type": "address"
				}
			],
			"name": "getNonce",
			"outputs": [
				{
					"internalType": "uint256",
					"name": "",
					"type": "uint256"
				}
			],
			"stateMutability": "view",
			"type": "function"
		}
	]
}