{
	"data": {
		"bytecode": {
			"linkReferences": {},
			"object": "60806040526040518060e001604052806040518060400160405280600581526020017f426c616e6b00000000000000000000000000000000000000000000000000000081525081526020016040518060400160405280600481526020017f4b7572740000000000000000000000000000000000000000000000000000000081525081526020016040518060400160405280600e81526020017f507265736372697074696f6e303100000000000000000000000000000000000081525081526020016040518060400160405280600e81526020017f507265736372697074696f6e303200000000000000000000000000000000000081525081526020016040518060400160405280600581526020017f526f756e6400000000000000000000000000000000000000000000000000000081525081526020016040518060400160405280600a81526020017f53756e676c61737365730000000000000000000000000000000000000000000081525081526020016040518060400160405280600981526020017f57617966617265727300000000000000000000000000000000000000000000008152508152506000906007620001bc92919062002633565b50604051806101e001604052806040518060400160405280600581526020017f426c61636b00000000000000000000000000000000000000000000000000000081525081526020016040518060400160405280600681526020017f426c75653031000000000000000000000000000000000000000000000000000081525081526020016040518060400160405280600681526020017f426c75653032000000000000000000000000000000000000000000000000000081525081526020016040518060400160405280600681526020017f426c75653033000000000000000000000000000000000000000000000000000081525081526020016040518060400160405280600681526020017f477261793031000000000000000000000000000000000000000000000000000081525081526020016040518060400160405280600681526020017f477261793032000000000000000000000000000000000000000000000000000081525081526020016040518060400160405280600781526020017f486561746865720000000000000000000000000000000000000000000000000081525081526020016040518060400160405280600a81526020017f50617374656c426c75650000000000000000000000000000000000000000000081525081526020016040518060400160405280600b81526020017f50617374656c477265656e00000000000000000000000000000000000000000081525081526020016040518060400160405280600c81526020017f50617374656c4f72616e6765000000000000000000000000000000000000000081525081526020016040518060400160405280600981526020017f50617374656c526564000000000000000000000000000000000000000000000081525081526020016040518060400160405280600c81526020017f50617374656c59656c6c6f77000000000000000000000000000000000000000081525081526020016040518060400160405280600481526020017f50696e6b0000000000000000000000000000000000000000000000000000000081525081526020016040518060400160405280600381526020017f526564000000000000000000000000000000000000000000000000000000000081525081526020016040518060400160405280600581526020017f5768697465000000000000000000000000000000000000000000000000000000815250815250600190600f6200054e9291906200269a565b506040518061012001604052806040518060400160405280600b81526020017f426c617a6572536869727400000000000000000000000000000000000000000081525081526020016040518060400160405280600d81526020017f426c617a6572537765617465720000000000000000000000000000000000000081525081526020016040518060400160405280600d81526020017f436f6c6c6172537765617465720000000000000000000000000000000000000081525081526020016040518060400160405280600c81526020017f477261706869635368697274000000000000000000000000000000000000000081525081526020016040518060400160405280600681526020017f486f6f646965000000000000000000000000000000000000000000000000000081525081526020016040518060400160405280600781526020017f4f766572616c6c0000000000000000000000000000000000000000000000000081525081526020016040518060400160405280600d81526020017f5368697274437265774e65636b0000000000000000000000000000000000000081525081526020016040518060400160405280600e81526020017f536869727453636f6f704e65636b00000000000000000000000000000000000081525081526020016040518060400160405280600a81526020017f5368697274564e65636b0000000000000000000000000000000000000000000081525081525060029060096200077e92919062002701565b506040518061018001604052806040518060400160405280600581526020017f436c6f736500000000000000000000000000000000000000000000000000000081525081526020016040518060400160405280600381526020017f437279000000000000000000000000000000000000000000000000000000000081525081526020016040518060400160405280600781526020017f44656661756c740000000000000000000000000000000000000000000000000081525081526020016040518060400160405280600581526020017f44697a7a7900000000000000000000000000000000000000000000000000000081525081526020016040518060400160405280600781526020017f457965526f6c6c0000000000000000000000000000000000000000000000000081525081526020016040518060400160405280600581526020017f486170707900000000000000000000000000000000000000000000000000000081525081526020016040518060400160405280600681526020017f486561727473000000000000000000000000000000000000000000000000000081525081526020016040518060400160405280600481526020017f536964650000000000000000000000000000000000000000000000000000000081525081526020016040518060400160405280600681526020017f537175696e74000000000000000000000000000000000000000000000000000081525081526020016040518060400160405280600981526020017f537572707269736564000000000000000000000000000000000000000000000081525081526020016040518060400160405280600481526020017f57696e6b0000000000000000000000000000000000000000000000000000000081525081526020016040518060400160405280600981526020017f57696e6b5761636b790000000000000000000000000000000000000000000000815250815250600390600c62000a5f92919062002768565b506040518061018001604052806040518060400160405280600581526020017f416e67727900000000000000000000000000000000000000000000000000000081525081526020016040518060400160405280600c81526020017f416e6772794e61747572616c000000000000000000000000000000000000000081525081526020016040518060400160405280600781526020017f44656661756c740000000000000000000000000000000000000000000000000081525081526020016040518060400160405280600e81526020017f44656661756c744e61747572616c00000000000000000000000000000000000081525081526020016040518060400160405280600b81526020017f466c61744e61747572616c00000000000000000000000000000000000000000081525081526020016040518060400160405280600d81526020017f526169736564457863697465640000000000000000000000000000000000000081525081526020016040518060400160405280601481526020017f526169736564457863697465644e61747572616c00000000000000000000000081525081526020016040518060400160405280600c81526020017f536164436f6e6365726e6564000000000000000000000000000000000000000081525081526020016040518060400160405280601381526020017f536164436f6e6365726e65644e61747572616c0000000000000000000000000081525081526020016040518060400160405280600e81526020017f556e6962726f774e61747572616c00000000000000000000000000000000000081525081526020016040518060400160405280600681526020017f5570446f776e000000000000000000000000000000000000000000000000000081525081526020016040518060400160405280600d81526020017f5570446f776e4e61747572616c00000000000000000000000000000000000000815250815250600490600c62000d4092919062002768565b506040518061010001604052806040518060400160405280600681526020017f41756275726e000000000000000000000000000000000000000000000000000081525081526020016040518060400160405280600581526020017f426c61636b00000000000000000000000000000000000000000000000000000081525081526020016040518060400160405280600681526020017f426c6f6e6465000000000000000000000000000000000000000000000000000081525081526020016040518060400160405280600c81526020017f426c6f6e6465476f6c64656e000000000000000000000000000000000000000081525081526020016040518060400160405280600581526020017f42726f776e00000000000000000000000000000000000000000000000000000081525081526020016040518060400160405280600981526020017f42726f776e4461726b000000000000000000000000000000000000000000000081525081526020016040518060400160405280600881526020017f506c6174696e756d00000000000000000000000000000000000000000000000081525081526020016040518060400160405280600381526020017f5265640000000000000000000000000000000000000000000000000000000000815250815250600590600862000f35929190620027cf565b506040518060c001604052806040518060400160405280600581526020017f426c616e6b00000000000000000000000000000000000000000000000000000081525081526020016040518060400160405280600b81526020017f42656172644d656469756d00000000000000000000000000000000000000000081525081526020016040518060400160405280600a81526020017f42656172644c696768740000000000000000000000000000000000000000000081525081526020016040518060400160405280600d81526020017f42656172644d616765737469630000000000000000000000000000000000000081525081526020016040518060400160405280600e81526020017f4d6f7573746163686546616e637900000000000000000000000000000000000081525081526020016040518060400160405280600f81526020017f4d6f757374616368654d61676e756d00000000000000000000000000000000008152508152506006906006620010b392919062002836565b506040518061014001604052806040518060400160405280600681526020017f41756275726e000000000000000000000000000000000000000000000000000081525081526020016040518060400160405280600581526020017f426c61636b00000000000000000000000000000000000000000000000000000081525081526020016040518060400160405280600681526020017f426c6f6e6465000000000000000000000000000000000000000000000000000081525081526020016040518060400160405280600c81526020017f426c6f6e6465476f6c64656e000000000000000000000000000000000000000081525081526020016040518060400160405280600581526020017f42726f776e00000000000000000000000000000000000000000000000000000081525081526020016040518060400160405280600981526020017f42726f776e4461726b000000000000000000000000000000000000000000000081525081526020016040518060400160405280600a81526020017f50617374656c50696e6b0000000000000000000000000000000000000000000081525081526020016040518060400160405280600881526020017f506c6174696e756d00000000000000000000000000000000000000000000000081525081526020016040518060400160405280600381526020017f526564000000000000000000000000000000000000000000000000000000000081525081526020016040518060400160405280600a81526020017f53696c7665724772617900000000000000000000000000000000000000000000815250815250600790600a6200131e9291906200289d565b50604051806101e001604052806040518060400160405280600581526020017f426c61636b00000000000000000000000000000000000000000000000000000081525081526020016040518060400160405280600681526020017f426c75653031000000000000000000000000000000000000000000000000000081525081526020016040518060400160405280600681526020017f426c75653032000000000000000000000000000000000000000000000000000081525081526020016040518060400160405280600681526020017f426c75653033000000000000000000000000000000000000000000000000000081525081526020016040518060400160405280600681526020017f477261793031000000000000000000000000000000000000000000000000000081525081526020016040518060400160405280600681526020017f477261793032000000000000000000000000000000000000000000000000000081525081526020016040518060400160405280600781526020017f486561746865720000000000000000000000000000000000000000000000000081525081526020016040518060400160405280600a81526020017f50617374656c426c75650000000000000000000000000000000000000000000081525081526020016040518060400160405280600b81526020017f50617374656c477265656e00000000000000000000000000000000000000000081525081526020016040518060400160405280600c81526020017f50617374656c4f72616e6765000000000000000000000000000000000000000081525081526020016040518060400160405280600981526020017f50617374656c526564000000000000000000000000000000000000000000000081525081526020016040518060400160405280600c81526020017f50617374656c59656c6c6f77000000000000000000000000000000000000000081525081526020016040518060400160405280600481526020017f50696e6b0000000000000000000000000000000000000000000000000000000081525081526020016040518060400160405280600381526020017f526564000000000000000000000000000000000000000000000000000000000081525081526020016040518060400160405280600581526020017f5768697465000000000000000000000000000000000000000000000000000000815250815250600890600f620016b09291906200269a565b506040518061016001604052806040518060400160405280600381526020017f426174000000000000000000000000000000000000000000000000000000000081525081526020016040518060400160405280600681526020017f43756d626961000000000000000000000000000000000000000000000000000081525081526020016040518060400160405280600481526020017f446565720000000000000000000000000000000000000000000000000000000081525081526020016040518060400160405280600781526020017f4469616d6f6e640000000000000000000000000000000000000000000000000081525081526020016040518060400160405280600481526020017f486f6c610000000000000000000000000000000000000000000000000000000081525081526020016040518060400160405280600581526020017f50697a7a6100000000000000000000000000000000000000000000000000000081525081526020016040518060400160405280600681526020017f526573697374000000000000000000000000000000000000000000000000000081525081526020016040518060400160405280600681526020017f53656c656e61000000000000000000000000000000000000000000000000000081525081526020016040518060400160405280600481526020017f426561720000000000000000000000000000000000000000000000000000000081525081526020016040518060400160405280600c81526020017f536b756c6c4f75746c696e65000000000000000000000000000000000000000081525081526020016040518060400160405280600581526020017f536b756c6c000000000000000000000000000000000000000000000000000000815250815250600990600b6200195692919062002904565b506040518061018001604052806040518060400160405280600981526020017f436f6e6365726e6564000000000000000000000000000000000000000000000081525081526020016040518060400160405280600781526020017f44656661756c740000000000000000000000000000000000000000000000000081525081526020016040518060400160405280600981526020017f44697362656c696566000000000000000000000000000000000000000000000081525081526020016040518060400160405280600681526020017f456174696e67000000000000000000000000000000000000000000000000000081525081526020016040518060400160405280600781526020017f4772696d6163650000000000000000000000000000000000000000000000000081525081526020016040518060400160405280600381526020017f536164000000000000000000000000000000000000000000000000000000000081525081526020016040518060400160405280600a81526020017f53637265616d4f70656e0000000000000000000000000000000000000000000081525081526020016040518060400160405280600781526020017f536572696f75730000000000000000000000000000000000000000000000000081525081526020016040518060400160405280600581526020017f536d696c6500000000000000000000000000000000000000000000000000000081525081526020016040518060400160405280600681526020017f546f6e677565000000000000000000000000000000000000000000000000000081525081526020016040518060400160405280600781526020017f5477696e6b6c650000000000000000000000000000000000000000000000000081525081526020016040518060400160405280600581526020017f566f6d6974000000000000000000000000000000000000000000000000000000815250815250600a90600c62001c3792919062002768565b506040518060e001604052806040518060400160405280600681526020017f54616e6e6564000000000000000000000000000000000000000000000000000081525081526020016040518060400160405280600681526020017f59656c6c6f77000000000000000000000000000000000000000000000000000081525081526020016040518060400160405280600481526020017f50616c650000000000000000000000000000000000000000000000000000000081525081526020016040518060400160405280600581526020017f4c6967687400000000000000000000000000000000000000000000000000000081525081526020016040518060400160405280600581526020017f42726f776e00000000000000000000000000000000000000000000000000000081525081526020016040518060400160405280600981526020017f4461726b42726f776e000000000000000000000000000000000000000000000081525081526020016040518060400160405280600581526020017f426c61636b000000000000000000000000000000000000000000000000000000815250815250600b90600762001df092919062002633565b506040518061046001604052806040518060400160405280600681526020017f4e6f48616972000000000000000000000000000000000000000000000000000081525081526020016040518060400160405280600881526020017f457965706174636800000000000000000000000000000000000000000000000081525081526020016040518060400160405280600381526020017f486174000000000000000000000000000000000000000000000000000000000081525081526020016040518060400160405280600581526020017f48696a616200000000000000000000000000000000000000000000000000000081525081526020016040518060400160405280600681526020017f54757262616e000000000000000000000000000000000000000000000000000081525081526020016040518060400160405280600a81526020017f57696e746572486174310000000000000000000000000000000000000000000081525081526020016040518060400160405280600a81526020017f57696e746572486174320000000000000000000000000000000000000000000081525081526020016040518060400160405280600a81526020017f57696e746572486174330000000000000000000000000000000000000000000081525081526020016040518060400160405280600a81526020017f57696e746572486174340000000000000000000000000000000000000000000081525081526020016040518060400160405280600f81526020017f4c6f6e674861697242696748616972000000000000000000000000000000000081525081526020016040518060400160405280600b81526020017f4c6f6e6748616972426f6200000000000000000000000000000000000000000081525081526020016040518060400160405280600b81526020017f4c6f6e674861697242756e00000000000000000000000000000000000000000081525081526020016040518060400160405280600d81526020017f4c6f6e67486169724375726c790000000000000000000000000000000000000081525081526020016040518060400160405280600d81526020017f4c6f6e674861697243757276790000000000000000000000000000000000000081525081526020016040518060400160405280600e81526020017f4c6f6e674861697244726561647300000000000000000000000000000000000081525081526020016040518060400160405280600d81526020017f4c6f6e674861697246726964610000000000000000000000000000000000000081525081526020016040518060400160405280600b81526020017f4c6f6e674861697246726f00000000000000000000000000000000000000000081525081526020016040518060400160405280600f81526020017f4c6f6e674861697246726f42616e64000000000000000000000000000000000081525081526020016040518060400160405280601281526020017f4c6f6e67486169724e6f74546f6f4c6f6e67000000000000000000000000000081525081526020016040518060400160405280601381526020017f4c6f6e674861697253686176656453696465730000000000000000000000000081525081526020016040518060400160405280601281526020017f4c6f6e67486169724d696157616c6c616365000000000000000000000000000081525081526020016040518060400160405280601081526020017f4c6f6e674861697253747261696768740000000000000000000000000000000081525081526020016040518060400160405280601181526020017f4c6f6e674861697253747261696768743200000000000000000000000000000081525081526020016040518060400160405280601681526020017f4c6f6e67486169725374726169676874537472616e640000000000000000000081525081526020016040518060400160405280601181526020017f53686f727448616972447265616473303100000000000000000000000000000081525081526020016040518060400160405280601181526020017f53686f727448616972447265616473303200000000000000000000000000000081525081526020016040518060400160405280601081526020017f53686f7274486169724672697a7a6c650000000000000000000000000000000081525081526020016040518060400160405280601581526020017f53686f7274486169725368616767794d756c6c6574000000000000000000000081525081526020016040518060400160405280601381526020017f53686f72744861697253686f72744375726c790000000000000000000000000081525081526020016040518060400160405280601281526020017f53686f72744861697253686f7274466c6174000000000000000000000000000081525081526020016040518060400160405280601381526020017f53686f72744861697253686f7274526f756e640000000000000000000000000081525081526020016040518060400160405280601381526020017f53686f72744861697253686f727457617665640000000000000000000000000081525081526020016040518060400160405280600e81526020017f53686f727448616972536964657300000000000000000000000000000000000081525081526020016040518060400160405280601281526020017f53686f727448616972546865436165736172000000000000000000000000000081525081526020016040518060400160405280601a81526020017f53686f7274486169725468654361657361725369646550617274000000000000815250815250600c9060236200261e9291906200296b565b503480156200262c57600080fd5b5062002b55565b82805482825590600052602060002090810192821562002687579160200282015b828111156200268657825182908051906020019062002675929190620029d2565b509160200191906001019062002654565b5b50905062002696919062002a63565b5090565b828054828255906000526020600020908101928215620026ee579160200282015b82811115620026ed578251829080519060200190620026dc929190620029d2565b5091602001919060010190620026bb565b5b509050620026fd919062002a63565b5090565b82805482825590600052602060002090810192821562002755579160200282015b828111156200275457825182908051906020019062002743929190620029d2565b509160200191906001019062002722565b5b50905062002764919062002a63565b5090565b828054828255906000526020600020908101928215620027bc579160200282015b82811115620027bb578251829080519060200190620027aa929190620029d2565b509160200191906001019062002789565b5b509050620027cb919062002a63565b5090565b82805482825590600052602060002090810192821562002823579160200282015b828111156200282257825182908051906020019062002811929190620029d2565b5091602001919060010190620027f0565b5b50905062002832919062002a63565b5090565b8280548282559060005260206000209081019282156200288a579160200282015b828111156200288957825182908051906020019062002878929190620029d2565b509160200191906001019062002857565b5b50905062002899919062002a63565b5090565b828054828255906000526020600020908101928215620028f1579160200282015b82811115620028f0578251829080519060200190620028df929190620029d2565b5091602001919060010190620028be565b5b50905062002900919062002a63565b5090565b82805482825590600052602060002090810192821562002958579160200282015b828111156200295757825182908051906020019062002946929190620029d2565b509160200191906001019062002925565b5b50905062002967919062002a63565b5090565b828054828255906000526020600020908101928215620029bf579160200282015b82811115620029be578251829080519060200190620029ad929190620029d2565b50916020019190600101906200298c565b5b509050620029ce919062002a63565b5090565b828054620029e09062002af0565b90600052602060002090601f01602090048101928262002a04576000855562002a50565b82601f1062002a1f57805160ff191683800117855562002a50565b8280016001018555821562002a50579182015b8281111562002a4f57825182559160200191906001019062002a32565b5b50905062002a5f919062002a8b565b5090565b5b8082111562002a87576000818162002a7d919062002aaa565b5060010162002a64565b5090565b5b8082111562002aa657600081600090555060010162002a8c565b5090565b50805462002ab89062002af0565b6000825580601f1062002acc575062002aed565b601f01602090049060005260206000209081019062002aec919062002a8b565b5b50565b6000600282049050600182168062002b0957607f821691505b6020821081141562002b205762002b1f62002b26565b5b50919050565b7f4e487b7100000000000000000000000000000000000000000000000000000000600052602260045260246000fd5b61151b8062002b656000396000f3fe608060405234801561001057600080fd5b50600436106100ea5760003560e01c80638602dd6a1161008c578063b70930de11610066578063b70930de146102cf578063c0496cf5146102ff578063cc4e56951461032f578063dac1419e1461035f576100ea565b80638602dd6a1461023f57806388ee2c161461026f578063a2ec3e9e1461029f576100ea565b806360d58aed116100c857806360d58aed1461017f57806373075aff146101af5780637ecaef06146101df57806384425a841461020f576100ea565b8063039984ba146100ef57806318a3c0d11461011f578063425d784f1461014f575b600080fd5b61010960048036038101906101049190610f26565b61038f565b604051610116919061100d565b60405180910390f35b61013960048036038101906101349190610f26565b610461565b604051610146919061100d565b60405180910390f35b61016960048036038101906101649190610f26565b610533565b604051610176919061100d565b60405180910390f35b61019960048036038101906101949190610f26565b610605565b6040516101a6919061100d565b60405180910390f35b6101c960048036038101906101c49190610f26565b6106d7565b6040516101d6919061100d565b60405180910390f35b6101f960048036038101906101f49190610f26565b6107a9565b604051610206919061100d565b60405180910390f35b61022960048036038101906102249190610f26565b61087b565b604051610236919061100d565b60405180910390f35b61025960048036038101906102549190610f26565b61094d565b604051610266919061100d565b60405180910390f35b61028960048036038101906102849190610f53565b610a1f565b604051610296919061102f565b60405180910390f35b6102b960048036038101906102b49190610f26565b610a85565b6040516102c6919061100d565b60405180910390f35b6102e960048036038101906102e49190610f26565b610b57565b6040516102f6919061100d565b60405180910390f35b61031960048036038101906103149190610f26565b610c29565b604051610326919061100d565b60405180910390f35b61034960048036038101906103449190610f26565b610cfb565b604051610356919061100d565b60405180910390f35b61037960048036038101906103749190610f26565b610dcd565b604051610386919061100d565b60405180910390f35b6060600061039e836008610e9f565b60ff16905060048080549050826103b591906113a7565b815481106103c6576103c5611465565b5b9060005260206000200180546103db9061136b565b80601f01602080910402602001604051908101604052809291908181526020018280546104079061136b565b80156104545780601f1061042957610100808354040283529160200191610454565b820191906000526020600020905b81548152906001019060200180831161043757829003601f168201915b5050505050915050919050565b60606000610470836004610e9f565b60ff169050600280805490508261048791906113a7565b8154811061049857610497611465565b5b9060005260206000200180546104ad9061136b565b80601f01602080910402602001604051908101604052809291908181526020018280546104d99061136b565b80156105265780601f106104fb57610100808354040283529160200191610526565b820191906000526020600020905b81548152906001019060200180831161050957829003601f168201915b5050505050915050919050565b60606000610542836014610e9f565b60ff169050600a80805490508261055991906113a7565b8154811061056a57610569611465565b5b90600052602060002001805461057f9061136b565b80601f01602080910402602001604051908101604052809291908181526020018280546105ab9061136b565b80156105f85780601f106105cd576101008083540402835291602001916105f8565b820191906000526020600020905b8154815290600101906020018083116105db57829003601f168201915b5050505050915050919050565b60606000610614836018610e9f565b60ff169050600c80805490508261062b91906113a7565b8154811061063c5761063b611465565b5b9060005260206000200180546106519061136b565b80601f016020809104026020016040519081016040528092919081815260200182805461067d9061136b565b80156106ca5780601f1061069f576101008083540402835291602001916106ca565b820191906000526020600020905b8154815290600101906020018083116106ad57829003601f168201915b5050505050915050919050565b606060006106e6836016610e9f565b60ff169050600b8080549050826106fd91906113a7565b8154811061070e5761070d611465565b5b9060005260206000200180546107239061136b565b80601f016020809104026020016040519081016040528092919081815260200182805461074f9061136b565b801561079c5780601f106107715761010080835404028352916020019161079c565b820191906000526020600020905b81548152906001019060200180831161077f57829003601f168201915b5050505050915050919050565b606060006107b8836000610e9f565b60ff16905060008080549050826107cf91906113a7565b815481106107e0576107df611465565b5b9060005260206000200180546107f59061136b565b80601f01602080910402602001604051908101604052809291908181526020018280546108219061136b565b801561086e5780601f106108435761010080835404028352916020019161086e565b820191906000526020600020905b81548152906001019060200180831161085157829003601f168201915b5050505050915050919050565b6060600061088a836006610e9f565b60ff16905060038080549050826108a191906113a7565b815481106108b2576108b1611465565b5b9060005260206000200180546108c79061136b565b80601f01602080910402602001604051908101604052809291908181526020018280546108f39061136b565b80156109405780601f1061091557610100808354040283529160200191610940565b820191906000526020600020905b81548152906001019060200180831161092357829003601f168201915b5050505050915050919050565b6060600061095c836012610e9f565b60ff169050600980805490508261097391906113a7565b8154811061098457610983611465565b5b9060005260206000200180546109999061136b565b80601f01602080910402602001604051908101604052809291908181526020018280546109c59061136b565b8015610a125780601f106109e757610100808354040283529160200191610a12565b820191906000526020600020905b8154815290600101906020018083116109f557829003601f168201915b5050505050915050919050565b6000808273ffffffffffffffffffffffffffffffffffffffff1684610a449190611066565b9050600081604051602001610a599190610ff2565b60405160208183030381529060405290506000818051906020012090508060001c935050505092915050565b60606000610a94836010610e9f565b60ff1690506008808054905082610aab91906113a7565b81548110610abc57610abb611465565b5b906000526020600020018054610ad19061136b565b80601f0160208091040260200160405190810160405280929190818152602001828054610afd9061136b565b8015610b4a5780601f10610b1f57610100808354040283529160200191610b4a565b820191906000526020600020905b815481529060010190602001808311610b2d57829003601f168201915b5050505050915050919050565b60606000610b6683600e610e9f565b60ff1690506007808054905082610b7d91906113a7565b81548110610b8e57610b8d611465565b5b906000526020600020018054610ba39061136b565b80601f0160208091040260200160405190810160405280929190818152602001828054610bcf9061136b565b8015610c1c5780601f10610bf157610100808354040283529160200191610c1c565b820191906000526020600020905b815481529060010190602001808311610bff57829003601f168201915b5050505050915050919050565b60606000610c38836002610e9f565b60ff1690506001808054905082610c4f91906113a7565b81548110610c6057610c5f611465565b5b906000526020600020018054610c759061136b565b80601f0160208091040260200160405190810160405280929190818152602001828054610ca19061136b565b8015610cee5780601f10610cc357610100808354040283529160200191610cee565b820191906000526020600020905b815481529060010190602001808311610cd157829003601f168201915b5050505050915050919050565b60606000610d0a83600a610e9f565b60ff1690506005808054905082610d2191906113a7565b81548110610d3257610d31611465565b5b906000526020600020018054610d479061136b565b80601f0160208091040260200160405190810160405280929190818152602001828054610d739061136b565b8015610dc05780601f10610d9557610100808354040283529160200191610dc0565b820191906000526020600020905b815481529060010190602001808311610da357829003601f168201915b5050505050915050919050565b60606000610ddc83600c610e9f565b60ff1690506006808054905082610df391906113a7565b81548110610e0457610e03611465565b5b906000526020600020018054610e199061136b565b80601f0160208091040260200160405190810160405280929190818152602001828054610e459061136b565b8015610e925780601f10610e6757610100808354040283529160200191610e92565b820191906000526020600020905b815481529060010190602001808311610e7557829003601f168201915b5050505050915050919050565b600081600a610eae9190611177565b6001610eba9190611295565b600283610ec791906110bc565b600a610ed39190611177565b6001610edf9190611295565b84610eea91906113a7565b610ef491906110f3565b905092915050565b600081359050610f0b816114b7565b92915050565b600081359050610f20816114ce565b92915050565b600060208284031215610f3c57610f3b611494565b5b6000610f4a84828501610f11565b91505092915050565b60008060408385031215610f6a57610f69611494565b5b6000610f7885828601610f11565b9250506020610f8985828601610efc565b9150509250929050565b6000610f9e8261104a565b610fa88185611055565b9350610fb8818560208601611338565b610fc181611499565b840191505092915050565b610fd581611321565b82525050565b610fec610fe782611321565b61139d565b82525050565b6000610ffe8284610fdb565b60208201915081905092915050565b600060208201905081810360008301526110278184610f93565b905092915050565b60006020820190506110446000830184610fcc565b92915050565b600081519050919050565b600082825260208201905092915050565b600061107182611321565b915061107c83611321565b9250827fffffffffffffffffffffffffffffffffffffffffffffffffffffffffffffffff038211156110b1576110b06113d8565b5b828201905092915050565b60006110c78261132b565b91506110d28361132b565b92508260ff038211156110e8576110e76113d8565b5b828201905092915050565b60006110fe82611321565b915061110983611321565b92508261111957611118611407565b5b828204905092915050565b6000808291508390505b600185111561116e5780860481111561114a576111496113d8565b5b60018516156111595780820291505b8081029050611167856114aa565b945061112e565b94509492505050565b600061118282611321565b915061118d8361132b565b92506111ba7fffffffffffffffffffffffffffffffffffffffffffffffffffffffffffffffff84846111c2565b905092915050565b6000826111d2576001905061128e565b816111e0576000905061128e565b81600181146111f657600281146112005761122f565b600191505061128e565b60ff841115611212576112116113d8565b5b8360020a915084821115611229576112286113d8565b5b5061128e565b5060208310610133831016604e8410600b84101617156112645782820a90508381111561125f5761125e6113d8565b5b61128e565b6112718484846001611124565b92509050818404811115611288576112876113d8565b5b81810290505b9392505050565b60006112a082611321565b91506112ab83611321565b9250817fffffffffffffffffffffffffffffffffffffffffffffffffffffffffffffffff04831182151516156112e4576112e36113d8565b5b828202905092915050565b60006112fa82611301565b9050919050565b600073ffffffffffffffffffffffffffffffffffffffff82169050919050565b6000819050919050565b600060ff82169050919050565b60005b8381101561135657808201518184015260208101905061133b565b83811115611365576000848401525b50505050565b6000600282049050600182168061138357607f821691505b6020821081141561139757611396611436565b5b50919050565b6000819050919050565b60006113b282611321565b91506113bd83611321565b9250826113cd576113cc611407565b5b828206905092915050565b7f4e487b7100000000000000000000000000000000000000000000000000000000600052601160045260246000fd5b7f4e487b7100000000000000000000000000000000000000000000000000000000600052601260045260246000fd5b7f4e487b7100000000000000000000000000000000000000000000000000000000600052602260045260246000fd5b7f4e487b7100000000000000000000000000000000000000000000000000000000600052603260045260246000fd5b600080fd5b6000601f19601f8301169050919050565b60008160011c9050919050565b6114c0816112ef565b81146114cb57600080fd5b50565b6114d781611321565b81146114e257600080fd5b5056fea2646970667358221220c3932cae3e91edc96959c9827a3eac1802125d1465350a6aefe2b4246379dbcd64736f6c63430008070033",
			"opcodes": "PUSH1 0x80 PUSH1 0x40 MSTORE PUSH1 0x40 MLOAD DUP1 PUSH1 0xE0 ADD PUSH1 0x40 MSTORE DUP1 PUSH1 0x40 MLOAD DUP1 PUSH1 0x40 ADD PUSH1 0x40 MSTORE DUP1 PUSH1 0x5 DUP2 MSTORE PUSH1 0x20 ADD PUSH32 0x426C616E6B000000000000000000000000000000000000000000000000000000 DUP2 MSTORE POP DUP2 MSTORE PUSH1 0x20 ADD PUSH1 0x40 MLOAD DUP1 PUSH1 0x40 ADD PUSH1 0x40 MSTORE DUP1 PUSH1 0x4 DUP2 MSTORE PUSH1 0x20 ADD PUSH32 0x4B75727400000000000000000000000000000000000000000000000000000000 DUP2 MSTORE POP DUP2 MSTORE PUSH1 0x20 ADD PUSH1 0x40 MLOAD DUP1 PUSH1 0x40 ADD PUSH1 0x40 MSTORE DUP1 PUSH1 0xE DUP2 MSTORE PUSH1 0x20 ADD PUSH32 0x507265736372697074696F6E3031000000000000000000000000000000000000 DUP2 MSTORE POP DUP2 MSTORE PUSH1 0x20 ADD PUSH1 0x40 MLOAD DUP1 PUSH1 0x40 ADD PUSH1 0x40 MSTORE DUP1 PUSH1 0xE DUP2 MSTORE PUSH1 0x20 ADD PUSH32 0x507265736372697074696F6E3032000000000000000000000000000000000000 DUP2 MSTORE POP DUP2 MSTORE PUSH1 0x20 ADD PUSH1 0x40 MLOAD DUP1 PUSH1 0x40 ADD PUSH1 0x40 MSTORE DUP1 PUSH1 0x5 DUP2 MSTORE PUSH1 0x20 ADD PUSH32 0x526F756E64000000000000000000000000000000000000000000000000000000 DUP2 MSTORE POP DUP2 MSTORE PUSH1 0x20 ADD PUSH1 0x40 MLOAD DUP1 PUSH1 0x40 ADD PUSH1 0x40 MSTORE DUP1 PUSH1 0xA DUP2 MSTORE PUSH1 0x20 ADD PUSH32 0x53756E676C617373657300000000000000000000000000000000000000000000 DUP2 MSTORE POP DUP2 MSTORE PUSH1 0x20 ADD PUSH1 0x40 MLOAD DUP1 PUSH1 0x40 ADD PUSH1 0x40 MSTORE DUP1 PUSH1 0x9 DUP2 MSTORE PUSH1 0x20 ADD PUSH32 0x5761796661726572730000000000000000000000000000000000000000000000 DUP2 MSTORE POP DUP2 MSTORE POP PUSH1 0x0 SWAP1 PUSH1 0x7 PUSH3 0x1BC SWAP3 SWAP2 SWAP1 PUSH3 0x2633 JUMP JUMPDEST POP PUSH1 0x40 MLOAD DUP1 PUSH2 0x1E0 ADD PUSH1 0x40 MSTORE DUP1 PUSH1 0x40 MLOAD DUP1 PUSH1 0x40 ADD PUSH1 0x40 MSTORE DUP1 PUSH1 0x5 DUP2 MSTORE PUSH1 0x20 ADD PUSH32 0x426C61636B000000000000000000000000000000000000000000000000000000 DUP2 MSTORE POP DUP2 MSTORE PUSH1 0x20 ADD PUSH1 0x40 MLOAD DUP1 PUSH1 0x40 ADD PUSH1 0x40 MSTORE DUP1 PUSH1 0x6 DUP2 MSTORE PUSH1 0x20 ADD PUSH32 0x426C756530310000000000000000000000000000000000000000000000000000 DUP2 MSTORE POP DUP2 MSTORE PUSH1 0x20 ADD PUSH1 0x40 MLOAD DUP1 PUSH1 0x40 ADD PUSH1 0x40 MSTORE DUP1 PUSH1 0x6 DUP2 MSTORE PUSH1 0x20 ADD PUSH32 0x426C756530320000000000000000000000000000000000000000000000000000 DUP2 MSTORE POP DUP2 MSTORE PUSH1 0x20 ADD PUSH1 0x40 MLOAD DUP1 PUSH1 0x40 ADD PUSH1 0x40 MSTORE DUP1 PUSH1 0x6 DUP2 MSTORE PUSH1 0x20 ADD PUSH32 0x426C756530330000000000000000000000000000000000000000000000000000 DUP2 MSTORE POP DUP2 MSTORE PUSH1 0x20 ADD PUSH1 0x40 MLOAD DUP1 PUSH1 0x40 ADD PUSH1 0x40 MSTORE DUP1 PUSH1 0x6 DUP2 MSTORE PUSH1 0x20 ADD PUSH32 0x4772617930310000000000000000000000000000000000000000000000000000 DUP2 MSTORE POP DUP2 MSTORE PUSH1 0x20 ADD PUSH1 0x40 MLOAD DUP1 PUSH1 0x40 ADD PUSH1 0x40 MSTORE DUP1 PUSH1 0x6 DUP2 MSTORE PUSH1 0x20 ADD PUSH32 0x4772617930320000000000000000000000000000000000000000000000000000 DUP2 MSTORE POP DUP2 MSTORE PUSH1 0x20 ADD PUSH1 0x40 MLOAD DUP1 PUSH1 0x40 ADD PUSH1 0x40 MSTORE DUP1 PUSH1 0x7 DUP2 MSTORE PUSH1 0x20 ADD PUSH32 0x4865617468657200000000000000000000000000000000000000000000000000 DUP2 MSTORE POP DUP2 MSTORE PUSH1 0x20 ADD PUSH1 0x40 MLOAD DUP1 PUSH1 0x40 ADD PUSH1 0x40 MSTORE DUP1 PUSH1 0xA DUP2 MSTORE PUSH1 0x20 ADD PUSH32 0x50617374656C426C756500000000000000000000000000000000000000000000 DUP2 MSTORE POP DUP2 MSTORE PUSH1 0x20 ADD PUSH1 0x40 MLOAD DUP1 PUSH1 0x40 ADD PUSH1 0x40 MSTORE DUP1 PUSH1 0xB DUP2 MSTORE PUSH1 0x20 ADD PUSH32 0x50617374656C477265656E000000000000000000000000000000000000000000 DUP2 MSTORE POP DUP2 MSTORE PUSH1 0x20 ADD PUSH1 0x40 MLOAD DUP1 PUSH1 0x40 ADD PUSH1 0x40 MSTORE DUP1 PUSH1 0xC DUP2 MSTORE PUSH1 0x20 ADD PUSH32 0x50617374656C4F72616E67650000000000000000000000000000000000000000 DUP2 MSTORE POP DUP2 MSTORE PUSH1 0x20 ADD PUSH1 0x40 MLOAD DUP1 PUSH1 0x40 ADD PUSH1 0x40 MSTORE DUP1 PUSH1 0x9 DUP2 MSTORE PUSH1 0x20 ADD PUSH32 0x50617374656C5265640000000000000000000000000000000000000000000000 DUP2 MSTORE POP DUP2 MSTORE PUSH1 0x20 ADD PUSH1 0x40 MLOAD DUP1 PUSH1 0x40 ADD PUSH1 0x40 MSTORE DUP1 PUSH1 0xC DUP2 MSTORE PUSH1 0x20 ADD PUSH32 0x50617374656C59656C6C6F770000000000000000000000000000000000000000 DUP2 MSTORE POP DUP2 MSTORE PUSH1 0x20 ADD PUSH1 0x40 MLOAD DUP1 PUSH1 0x40 ADD PUSH1 0x40 MSTORE DUP1 PUSH1 0x4 DUP2 MSTORE PUSH1 0x20 ADD PUSH32 0x50696E6B00000000000000000000000000000000000000000000000000000000 DUP2 MSTORE POP DUP2 MSTORE PUSH1 0x20 ADD PUSH1 0x40 MLOAD DUP1 PUSH1 0x40 ADD PUSH1 0x40 MSTORE DUP1 PUSH1 0x3 DUP2 MSTORE PUSH1 0x20 ADD PUSH32 0x5265640000000000000000000000000000000000000000000000000000000000 DUP2 MSTORE POP DUP2 MSTORE PUSH1 0x20 ADD PUSH1 0x40 MLOAD DUP1 PUSH1 0x40 ADD PUSH1 0x40 MSTORE DUP1 PUSH1 0x5 DUP2 MSTORE PUSH1 0x20 ADD PUSH32 0x5768697465000000000000000000000000000000000000000000000000000000 DUP2 MSTORE POP DUP2 MSTORE POP PUSH1 0x1 SWAP1 PUSH1 0xF PUSH3 0x54E SWAP3 SWAP2 SWAP1 PUSH3 0x269A JUMP JUMPDEST POP PUSH1 0x40 MLOAD DUP1 PUSH2 0x120 ADD PUSH1 0x40 MSTORE DUP1 PUSH1 0x40 MLOAD DUP1 PUSH1 0x40 ADD PUSH1 0x40 MSTORE DUP1 PUSH1 0xB DUP2 MSTORE PUSH1 0x20 ADD PUSH32 0x426C617A65725368697274000000000000000000000000000000000000000000 DUP2 MSTORE POP DUP2 MSTORE PUSH1 0x20 ADD PUSH1 0x40 MLOAD DUP1 PUSH1 0x40 ADD PUSH1 0x40 MSTORE DUP1 PUSH1 0xD DUP2 MSTORE PUSH1 0x20 ADD PUSH32 0x426C617A65725377656174657200000000000000000000000000000000000000 DUP2 MSTORE POP DUP2 MSTORE PUSH1 0x20 ADD PUSH1 0x40 MLOAD DUP1 PUSH1 0x40 ADD PUSH1 0x40 MSTORE DUP1 PUSH1 0xD DUP2 MSTORE PUSH1 0x20 ADD PUSH32 0x436F6C6C61725377656174657200000000000000000000000000000000000000 DUP2 MSTORE POP DUP2 MSTORE PUSH1 0x20 ADD PUSH1 0x40 MLOAD DUP1 PUSH1 0x40 ADD PUSH1 0x40 MSTORE DUP1 PUSH1 0xC DUP2 MSTORE PUSH1 0x20 ADD PUSH32 0x4772617068696353686972740000000000000000000000000000000000000000 DUP2 MSTORE POP DUP2 MSTORE PUSH1 0x20 ADD PUSH1 0x40 MLOAD DUP1 PUSH1 0x40 ADD PUSH1 0x40 MSTORE DUP1 PUSH1 0x6 DUP2 MSTORE PUSH1 0x20 ADD PUSH32 0x486F6F6469650000000000000000000000000000000000000000000000000000 DUP2 MSTORE POP DUP2 MSTORE PUSH1 0x20 ADD PUSH1 0x40 MLOAD DUP1 PUSH1 0x40 ADD PUSH1 0x40 MSTORE DUP1 PUSH1 0x7 DUP2 MSTORE PUSH1 0x20 ADD PUSH32 0x4F766572616C6C00000000000000000000000000000000000000000000000000 DUP2 MSTORE POP DUP2 MSTORE PUSH1 0x20 ADD PUSH1 0x40 MLOAD DUP1 PUSH1 0x40 ADD PUSH1 0x40 MSTORE DUP1 PUSH1 0xD DUP2 MSTORE PUSH1 0x20 ADD PUSH32 0x5368697274437265774E65636B00000000000000000000000000000000000000 DUP2 MSTORE POP DUP2 MSTORE PUSH1 0x20 ADD PUSH1 0x40 MLOAD DUP1 PUSH1 0x40 ADD PUSH1 0x40 MSTORE DUP1 PUSH1 0xE DUP2 MSTORE PUSH1 0x20 ADD PUSH32 0x536869727453636F6F704E65636B000000000000000000000000000000000000 DUP2 MSTORE POP DUP2 MSTORE PUSH1 0x20 ADD PUSH1 0x40 MLOAD DUP1 PUSH1 0x40 ADD PUSH1 0x40 MSTORE DUP1 PUSH1 0xA DUP2 MSTORE PUSH1 0x20 ADD PUSH32 0x5368697274564E65636B00000000000000000000000000000000000000000000 DUP2 MSTORE POP DUP2 MSTORE POP PUSH1 0x2 SWAP1 PUSH1 0x9 PUSH3 0x77E SWAP3 SWAP2 SWAP1 PUSH3 0x2701 JUMP JUMPDEST POP PUSH1 0x40 MLOAD DUP1 PUSH2 0x180 ADD PUSH1 0x40 MSTORE DUP1 PUSH1 0x40 MLOAD DUP1 PUSH1 0x40 ADD PUSH1 0x40 MSTORE DUP1 PUSH1 0x5 DUP2 MSTORE PUSH1 0x20 ADD PUSH32 0x436C6F7365000000000000000000000000000000000000000000000000000000 DUP2 MSTORE POP DUP2 MSTORE PUSH1 0x20 ADD PUSH1 0x40 MLOAD DUP1 PUSH1 0x40 ADD PUSH1 0x40 MSTORE DUP1 PUSH1 0x3 DUP2 MSTORE PUSH1 0x20 ADD PUSH32 0x4372790000000000000000000000000000000000000000000000000000000000 DUP2 MSTORE POP DUP2 MSTORE PUSH1 0x20 ADD PUSH1 0x40 MLOAD DUP1 PUSH1 0x40 ADD PUSH1 0x40 MSTORE DUP1 PUSH1 0x7 DUP2 MSTORE PUSH1 0x20 ADD PUSH32 0x44656661756C7400000000000000000000000000000000000000000000000000 DUP2 MSTORE POP DUP2 MSTORE PUSH1 0x20 ADD PUSH1 0x40 MLOAD DUP1 PUSH1 0x40 ADD PUSH1 0x40 MSTORE DUP1 PUSH1 0x5 DUP2 MSTORE PUSH1 0x20 ADD PUSH32 0x44697A7A79000000000000000000000000000000000000000000000000000000 DUP2 MSTORE POP DUP2 MSTORE PUSH1 0x20 ADD PUSH1 0x40 MLOAD DUP1 PUSH1 0x40 ADD PUSH1 0x40 MSTORE DUP1 PUSH1 0x7 DUP2 MSTORE PUSH1 0x20 ADD PUSH32 0x457965526F6C6C00000000000000000000000000000000000000000000000000 DUP2 MSTORE POP DUP2 MSTORE PUSH1 0x20 ADD PUSH1 0x40 MLOAD DUP1 PUSH1 0x40 ADD PUSH1 0x40 MSTORE DUP1 PUSH1 0x5 DUP2 MSTORE PUSH1 0x20 ADD PUSH32 0x4861707079000000000000000000000000000000000000000000000000000000 DUP2 MSTORE POP DUP2 MSTORE PUSH1 0x20 ADD PUSH1 0x40 MLOAD DUP1 PUSH1 0x40 ADD PUSH1 0x40 MSTORE DUP1 PUSH1 0x6 DUP2 MSTORE PUSH1 0x20 ADD PUSH32 0x4865617274730000000000000000000000000000000000000000000000000000 DUP2 MSTORE POP DUP2 MSTORE PUSH1 0x20 ADD PUSH1 0x40 MLOAD DUP1 PUSH1 0x40 ADD PUSH1 0x40 MSTORE DUP1 PUSH1 0x4 DUP2 MSTORE PUSH1 0x20 ADD PUSH32 0x5369646500000000000000000000000000000000000000000000000000000000 DUP2 MSTORE POP DUP2 MSTORE PUSH1 0x20 ADD PUSH1 0x40 MLOAD DUP1 PUSH1 0x40 ADD PUSH1 0x40 MSTORE DUP1 PUSH1 0x6 DUP2 MSTORE PUSH1 0x20 ADD PUSH32 0x537175696E740000000000000000000000000000000000000000000000000000 DUP2 MSTORE POP DUP2 MSTORE PUSH1 0x20 ADD PUSH1 0x40 MLOAD DUP1 PUSH1 0x40 ADD PUSH1 0x40 MSTORE DUP1 PUSH1 0x9 DUP2 MSTORE PUSH1 0x20 ADD PUSH32 0x5375727072697365640000000000000000000000000000000000000000000000 DUP2 MSTORE POP DUP2 MSTORE PUSH1 0x20 ADD PUSH1 0x40 MLOAD DUP1 PUSH1 0x40 ADD PUSH1 0x40 MSTORE DUP1 PUSH1 0x4 DUP2 MSTORE PUSH1 0x20 ADD PUSH32 0x57696E6B00000000000000000000000000000000000000000000000000000000 DUP2 MSTORE POP DUP2 MSTORE PUSH1 0x20 ADD PUSH1 0x40 MLOAD DUP1 PUSH1 0x40 ADD PUSH1 0x40 MSTORE DUP1 PUSH1 0x9 DUP2 MSTORE PUSH1 0x20 ADD PUSH32 0x57696E6B5761636B790000000000000000000000000000000000000000000000 DUP2 MSTORE POP DUP2 MSTORE POP PUSH1 0x3 SWAP1 PUSH1 0xC PUSH3 0xA5F SWAP3 SWAP2 SWAP1 PUSH3 0x2768 JUMP JUMPDEST POP PUSH1 0x40 MLOAD DUP1 PUSH2 0x180 ADD PUSH1 0x40 MSTORE DUP1 PUSH1 0x40 MLOAD DUP1 PUSH1 0x40 ADD PUSH1 0x40 MSTORE DUP1 PUSH1 0x5 DUP2 MSTORE PUSH1 0x20 ADD PUSH32 0x416E677279000000000000000000000000000000000000000000000000000000 DUP2 MSTORE POP DUP2 MSTORE PUSH1 0x20 ADD PUSH1 0x40 MLOAD DUP1 PUSH1 0x40 ADD PUSH1 0x40 MSTORE DUP1 PUSH1 0xC DUP2 MSTORE PUSH1 0x20 ADD PUSH32 0x416E6772794E61747572616C0000000000000000000000000000000000000000 DUP2 MSTORE POP DUP2 MSTORE PUSH1 0x20 ADD PUSH1 0x40 MLOAD DUP1 PUSH1 0x40 ADD PUSH1 0x40 MSTORE DUP1 PUSH1 0x7 DUP2 MSTORE PUSH1 0x20 ADD PUSH32 0x44656661756C7400000000000000000000000000000000000000000000000000 DUP2 MSTORE POP DUP2 MSTORE PUSH1 0x20 ADD PUSH1 0x40 MLOAD DUP1 PUSH1 0x40 ADD PUSH1 0x40 MSTORE DUP1 PUSH1 0xE DUP2 MSTORE PUSH1 0x20 ADD PUSH32 0x44656661756C744E61747572616C000000000000000000000000000000000000 DUP2 MSTORE POP DUP2 MSTORE PUSH1 0x20 ADD PUSH1 0x40 MLOAD DUP1 PUSH1 0x40 ADD PUSH1 0x40 MSTORE DUP1 PUSH1 0xB DUP2 MSTORE PUSH1 0x20 ADD PUSH32 0x466C61744E61747572616C000000000000000000000000000000000000000000 DUP2 MSTORE POP DUP2 MSTORE PUSH1 0x20 ADD PUSH1 0x40 MLOAD DUP1 PUSH1 0x40 ADD PUSH1 0x40 MSTORE DUP1 PUSH1 0xD DUP2 MSTORE PUSH1 0x20 ADD PUSH32 0x5261697365644578636974656400000000000000000000000000000000000000 DUP2 MSTORE POP DUP2 MSTORE PUSH1 0x20 ADD PUSH1 0x40 MLOAD DUP1 PUSH1 0x40 ADD PUSH1 0x40 MSTORE DUP1 PUSH1 0x14 DUP2 MSTORE PUSH1 0x20 ADD PUSH32 0x526169736564457863697465644E61747572616C000000000000000000000000 DUP2 MSTORE POP DUP2 MSTORE PUSH1 0x20 ADD PUSH1 0x40 MLOAD DUP1 PUSH1 0x40 ADD PUSH1 0x40 MSTORE DUP1 PUSH1 0xC DUP2 MSTORE PUSH1 0x20 ADD PUSH32 0x536164436F6E6365726E65640000000000000000000000000000000000000000 DUP2 MSTORE POP DUP2 MSTORE PUSH1 0x20 ADD PUSH1 0x40 MLOAD DUP1 PUSH1 0x40 ADD PUSH1 0x40 MSTORE DUP1 PUSH1 0x13 DUP2 MSTORE PUSH1 0x20 ADD PUSH32 0x536164436F6E6365726E65644E61747572616C00000000000000000000000000 DUP2 MSTORE POP DUP2 MSTORE PUSH1 0x20 ADD PUSH1 0x40 MLOAD DUP1 PUSH1 0x40 ADD PUSH1 0x40 MSTORE DUP1 PUSH1 0xE DUP2 MSTORE PUSH1 0x20 ADD PUSH32 0x556E6962726F774E61747572616C000000000000000000000000000000000000 DUP2 MSTORE POP DUP2 MSTORE PUSH1 0x20 ADD PUSH1 0x40 MLOAD DUP1 PUSH1 0x40 ADD PUSH1 0x40 MSTORE DUP1 PUSH1 0x6 DUP2 MSTORE PUSH1 0x20 ADD PUSH32 0x5570446F776E0000000000000000000000000000000000000000000000000000 DUP2 MSTORE POP DUP2 MSTORE PUSH1 0x20 ADD PUSH1 0x40 MLOAD DUP1 PUSH1 0x40 ADD PUSH1 0x40 MSTORE DUP1 PUSH1 0xD DUP2 MSTORE PUSH1 0x20 ADD PUSH32 0x5570446F776E4E61747572616C00000000000000000000000000000000000000 DUP2 MSTORE POP DUP2 MSTORE POP PUSH1 0x4 SWAP1 PUSH1 0xC PUSH3 0xD40 SWAP3 SWAP2 SWAP1 PUSH3 0x2768 JUMP JUMPDEST POP PUSH1 0x40 MLOAD DUP1 PUSH2 0x100 ADD PUSH1 0x40 MSTORE DUP1 PUSH1 0x40 MLOAD DUP1 PUSH1 0x40 ADD PUSH1 0x40 MSTORE DUP1 PUSH1 0x6 DUP2 MSTORE PUSH1 0x20 ADD PUSH32 0x41756275726E0000000000000000000000000000000000000000000000000000 DUP2 MSTORE POP DUP2 MSTORE PUSH1 0x20 ADD PUSH1 0x40 MLOAD DUP1 PUSH1 0x40 ADD PUSH1 0x40 MSTORE DUP1 PUSH1 0x5 DUP2 MSTORE PUSH1 0x20 ADD PUSH32 0x426C61636B000000000000000000000000000000000000000000000000000000 DUP2 MSTORE POP DUP2 MSTORE PUSH1 0x20 ADD PUSH1 0x40 MLOAD DUP1 PUSH1 0x40 ADD PUSH1 0x40 MSTORE DUP1 PUSH1 0x6 DUP2 MSTORE PUSH1 0x20 ADD PUSH32 0x426C6F6E64650000000000000000000000000000000000000000000000000000 DUP2 MSTORE POP DUP2 MSTORE PUSH1 0x20 ADD PUSH1 0x40 MLOAD DUP1 PUSH1 0x40 ADD PUSH1 0x40 MSTORE DUP1 PUSH1 0xC DUP2 MSTORE PUSH1 0x20 ADD PUSH32 0x426C6F6E6465476F6C64656E0000000000000000000000000000000000000000 DUP2 MSTORE POP DUP2 MSTORE PUSH1 0x20 ADD PUSH1 0x40 MLOAD DUP1 PUSH1 0x40 ADD PUSH1 0x40 MSTORE DUP1 PUSH1 0x5 DUP2 MSTORE PUSH1 0x20 ADD PUSH32 0x42726F776E000000000000000000000000000000000000000000000000000000 DUP2 MSTORE POP DUP2 MSTORE PUSH1 0x20 ADD PUSH1 0x40 MLOAD DUP1 PUSH1 0x40 ADD PUSH1 0x40 MSTORE DUP1 PUSH1 0x9 DUP2 MSTORE PUSH1 0x20 ADD PUSH32 0x42726F776E4461726B0000000000000000000000000000000000000000000000 DUP2 MSTORE POP DUP2 MSTORE PUSH1 0x20 ADD PUSH1 0x40 MLOAD DUP1 PUSH1 0x40 ADD PUSH1 0x40 MSTORE DUP1 PUSH1 0x8 DUP2 MSTORE PUSH1 0x20 ADD PUSH32 0x506C6174696E756D000000000000000000000000000000000000000000000000 DUP2 MSTORE POP DUP2 MSTORE PUSH1 0x20 ADD PUSH1 0x40 MLOAD DUP1 PUSH1 0x40 ADD PUSH1 0x40 MSTORE DUP1 PUSH1 0x3 DUP2 MSTORE PUSH1 0x20 ADD PUSH32 0x5265640000000000000000000000000000000000000000000000000000000000 DUP2 MSTORE POP DUP2 MSTORE POP PUSH1 0x5 SWAP1 PUSH1 0x8 PUSH3 0xF35 SWAP3 SWAP2 SWAP1 PUSH3 0x27CF JUMP JUMPDEST POP PUSH1 0x40 MLOAD DUP1 PUSH1 0xC0 ADD PUSH1 0x40 MSTORE DUP1 PUSH1 0x40 MLOAD DUP1 PUSH1 0x40 ADD PUSH1 0x40 MSTORE DUP1 PUSH1 0x5 DUP2 MSTORE PUSH1 0x20 ADD PUSH32 0x426C616E6B000000000000000000000000000000000000000000000000000000 DUP2 MSTORE POP DUP2 MSTORE PUSH1 0x20 ADD PUSH1 0x40 MLOAD DUP1 PUSH1 0x40 ADD PUSH1 0x40 MSTORE DUP1 PUSH1 0xB DUP2 MSTORE PUSH1 0x20 ADD PUSH32 0x42656172644D656469756D000000000000000000000000000000000000000000 DUP2 MSTORE POP DUP2 MSTORE PUSH1 0x20 ADD PUSH1 0x40 MLOAD DUP1 PUSH1 0x40 ADD PUSH1 0x40 MSTORE DUP1 PUSH1 0xA DUP2 MSTORE PUSH1 0x20 ADD PUSH32 0x42656172644C6967687400000000000000000000000000000000000000000000 DUP2 MSTORE POP DUP2 MSTORE PUSH1 0x20 ADD PUSH1 0x40 MLOAD DUP1 PUSH1 0x40 ADD PUSH1 0x40 MSTORE DUP1 PUSH1 0xD DUP2 MSTORE PUSH1 0x20 ADD PUSH32 0x42656172644D6167657374696300000000000000000000000000000000000000 DUP2 MSTORE POP DUP2 MSTORE PUSH1 0x20 ADD PUSH1 0x40 MLOAD DUP1 PUSH1 0x40 ADD PUSH1 0x40 MSTORE DUP1 PUSH1 0xE DUP2 MSTORE PUSH1 0x20 ADD PUSH32 0x4D6F7573746163686546616E6379000000000000000000000000000000000000 DUP2 MSTORE POP DUP2 MSTORE PUSH1 0x20 ADD PUSH1 0x40 MLOAD DUP1 PUSH1 0x40 ADD PUSH1 0x40 MSTORE DUP1 PUSH1 0xF DUP2 MSTORE PUSH1 0x20 ADD PUSH32 0x4D6F757374616368654D61676E756D0000000000000000000000000000000000 DUP2 MSTORE POP DUP2 MSTORE POP PUSH1 0x6 SWAP1 PUSH1 0x6 PUSH3 0x10B3 SWAP3 SWAP2 SWAP1 PUSH3 0x2836 JUMP JUMPDEST POP PUSH1 0x40 MLOAD DUP1 PUSH2 0x140 ADD PUSH1 0x40 MSTORE DUP1 PUSH1 0x40 MLOAD DUP1 PUSH1 0x40 ADD PUSH1 0x40 MSTORE DUP1 PUSH1 0x6 DUP2 MSTORE PUSH1 0x20 ADD PUSH32 0x41756275726E0000000000000000000000000000000000000000000000000000 DUP2 MSTORE POP DUP2 MSTORE PUSH1 0x20 ADD PUSH1 0x40 MLOAD DUP1 PUSH1 0x40 ADD PUSH1 0x40 MSTORE DUP1 PUSH1 0x5 DUP2 MSTORE PUSH1 0x20 ADD PUSH32 0x426C61636B000000000000000000000000000000000000000000000000000000 DUP2 MSTORE POP DUP2 MSTORE PUSH1 0x20 ADD PUSH1 0x40 MLOAD DUP1 PUSH1 0x40 ADD PUSH1 0x40 MSTORE DUP1 PUSH1 0x6 DUP2 MSTORE PUSH1 0x20 ADD PUSH32 0x426C6F6E64650000000000000000000000000000000000000000000000000000 DUP2 MSTORE POP DUP2 MSTORE PUSH1 0x20 ADD PUSH1 0x40 MLOAD DUP1 PUSH1 0x40 ADD PUSH1 0x40 MSTORE DUP1 PUSH1 0xC DUP2 MSTORE PUSH1 0x20 ADD PUSH32 0x426C6F6E6465476F6C64656E0000000000000000000000000000000000000000 DUP2 MSTORE POP DUP2 MSTORE PUSH1 0x20 ADD PUSH1 0x40 MLOAD DUP1 PUSH1 0x40 ADD PUSH1 0x40 MSTORE DUP1 PUSH1 0x5 DUP2 MSTORE PUSH1 0x20 ADD PUSH32 0x42726F776E000000000000000000000000000000000000000000000000000000 DUP2 MSTORE POP DUP2 MSTORE PUSH1 0x20 ADD PUSH1 0x40 MLOAD DUP1 PUSH1 0x40 ADD PUSH1 0x40 MSTORE DUP1 PUSH1 0x9 DUP2 MSTORE PUSH1 0x20 ADD PUSH32 0x42726F776E4461726B0000000000000000000000000000000000000000000000 DUP2 MSTORE POP DUP2 MSTORE PUSH1 0x20 ADD PUSH1 0x40 MLOAD DUP1 PUSH1 0x40 ADD PUSH1 0x40 MSTORE DUP1 PUSH1 0xA DUP2 MSTORE PUSH1 0x20 ADD PUSH32 0x50617374656C50696E6B00000000000000000000000000000000000000000000 DUP2 MSTORE POP DUP2 MSTORE PUSH1 0x20 ADD PUSH1 0x40 MLOAD DUP1 PUSH1 0x40 ADD PUSH1 0x40 MSTORE DUP1 PUSH1 0x8 DUP2 MSTORE PUSH1 0x20 ADD PUSH32 0x506C6174696E756D000000000000000000000000000000000000000000000000 DUP2 MSTORE POP DUP2 MSTORE PUSH1 0x20 ADD PUSH1 0x40 MLOAD DUP1 PUSH1 0x40 ADD PUSH1 0x40 MSTORE DUP1 PUSH1 0x3 DUP2 MSTORE PUSH1 0x20 ADD PUSH32 0x5265640000000000000000000000000000000000000000000000000000000000 DUP2 MSTORE POP DUP2 MSTORE PUSH1 0x20 ADD PUSH1 0x40 MLOAD DUP1 PUSH1 0x40 ADD PUSH1 0x40 MSTORE DUP1 PUSH1 0xA DUP2 MSTORE PUSH1 0x20 ADD PUSH32 0x53696C7665724772617900000000000000000000000000000000000000000000 DUP2 MSTORE POP DUP2 MSTORE POP PUSH1 0x7 SWAP1 PUSH1 0xA PUSH3 0x131E SWAP3 SWAP2 SWAP1 PUSH3 0x289D JUMP JUMPDEST POP PUSH1 0x40 MLOAD DUP1 PUSH2 0x1E0 ADD PUSH1 0x40 MSTORE DUP1 PUSH1 0x40 MLOAD DUP1 PUSH1 0x40 ADD PUSH1 0x40 MSTORE DUP1 PUSH1 0x5 DUP2 MSTORE PUSH1 0x20 ADD PUSH32 0x426C61636B000000000000000000000000000000000000000000000000000000 DUP2 MSTORE POP DUP2 MSTORE PUSH1 0x20 ADD PUSH1 0x40 MLOAD DUP1 PUSH1 0x40 ADD PUSH1 0x40 MSTORE DUP1 PUSH1 0x6 DUP2 MSTORE PUSH1 0x20 ADD PUSH32 0x426C756530310000000000000000000000000000000000000000000000000000 DUP2 MSTORE POP DUP2 MSTORE PUSH1 0x20 ADD PUSH1 0x40 MLOAD DUP1 PUSH1 0x40 ADD PUSH1 0x40 MSTORE DUP1 PUSH1 0x6 DUP2 MSTORE PUSH1 0x20 ADD PUSH32 0x426C756530320000000000000000000000000000000000000000000000000000 DUP2 MSTORE POP DUP2 MSTORE PUSH1 0x20 ADD PUSH1 0x40 MLOAD DUP1 PUSH1 0x40 ADD PUSH1 0x40 MSTORE DUP1 PUSH1 0x6 DUP2 MSTORE PUSH1 0x20 ADD PUSH32 0x426C756530330000000000000000000000000000000000000000000000000000 DUP2 MSTORE POP DUP2 MSTORE PUSH1 0x20 ADD PUSH1 0x40 MLOAD DUP1 PUSH1 0x40 ADD PUSH1 0x40 MSTORE DUP1 PUSH1 0x6 DUP2 MSTORE PUSH1 0x20 ADD PUSH32 0x4772617930310000000000000000000000000000000000000000000000000000 DUP2 MSTORE POP DUP2 MSTORE PUSH1 0x20 ADD PUSH1 0x40 MLOAD DUP1 PUSH1 0x40 ADD PUSH1 0x40 MSTORE DUP1 PUSH1 0x6 DUP2 MSTORE PUSH1 0x20 ADD PUSH32 0x4772617930320000000000000000000000000000000000000000000000000000 DUP2 MSTORE POP DUP2 MSTORE PUSH1 0x20 ADD PUSH1 0x40 MLOAD DUP1 PUSH1 0x40 ADD PUSH1 0x40 MSTORE DUP1 PUSH1 0x7 DUP2 MSTORE PUSH1 0x20 ADD PUSH32 0x4865617468657200000000000000000000000000000000000000000000000000 DUP2 MSTORE POP DUP2 MSTORE PUSH1 0x20 ADD PUSH1 0x40 MLOAD DUP1 PUSH1 0x40 ADD PUSH1 0x40 MSTORE DUP1 PUSH1 0xA DUP2 MSTORE PUSH1 0x20 ADD PUSH32 0x50617374656C426C756500000000000000000000000000000000000000000000 DUP2 MSTORE POP DUP2 MSTORE PUSH1 0x20 ADD PUSH1 0x40 MLOAD DUP1 PUSH1 0x40 ADD PUSH1 0x40 MSTORE DUP1 PUSH1 0xB DUP2 MSTORE PUSH1 0x20 ADD PUSH32 0x50617374656C477265656E000000000000000000000000000000000000000000 DUP2 MSTORE POP DUP2 MSTORE PUSH1 0x20 ADD PUSH1 0x40 MLOAD DUP1 PUSH1 0x40 ADD PUSH1 0x40 MSTORE DUP1 PUSH1 0xC DUP2 MSTORE PUSH1 0x20 ADD PUSH32 0x50617374656C4F72616E67650000000000000000000000000000000000000000 DUP2 MSTORE POP DUP2 MSTORE PUSH1 0x20 ADD PUSH1 0x40 MLOAD DUP1 PUSH1 0x40 ADD PUSH1 0x40 MSTORE DUP1 PUSH1 0x9 DUP2 MSTORE PUSH1 0x20 ADD PUSH32 0x50617374656C5265640000000000000000000000000000000000000000000000 DUP2 MSTORE POP DUP2 MSTORE PUSH1 0x20 ADD PUSH1 0x40 MLOAD DUP1 PUSH1 0x40 ADD PUSH1 0x40 MSTORE DUP1 PUSH1 0xC DUP2 MSTORE PUSH1 0x20 ADD PUSH32 0x50617374656C59656C6C6F770000000000000000000000000000000000000000 DUP2 MSTORE POP DUP2 MSTORE PUSH1 0x20 ADD PUSH1 0x40 MLOAD DUP1 PUSH1 0x40 ADD PUSH1 0x40 MSTORE DUP1 PUSH1 0x4 DUP2 MSTORE PUSH1 0x20 ADD PUSH32 0x50696E6B00000000000000000000000000000000000000000000000000000000 DUP2 MSTORE POP DUP2 MSTORE PUSH1 0x20 ADD PUSH1 0x40 MLOAD DUP1 PUSH1 0x40 ADD PUSH1 0x40 MSTORE DUP1 PUSH1 0x3 DUP2 MSTORE PUSH1 0x20 ADD PUSH32 0x5265640000000000000000000000000000000000000000000000000000000000 DUP2 MSTORE POP DUP2 MSTORE PUSH1 0x20 ADD PUSH1 0x40 MLOAD DUP1 PUSH1 0x40 ADD PUSH1 0x40 MSTORE DUP1 PUSH1 0x5 DUP2 MSTORE PUSH1 0x20 ADD PUSH32 0x5768697465000000000000000000000000000000000000000000000000000000 DUP2 MSTORE POP DUP2 MSTORE POP PUSH1 0x8 SWAP1 PUSH1 0xF PUSH3 0x16B0 SWAP3 SWAP2 SWAP1 PUSH3 0x269A JUMP JUMPDEST POP PUSH1 0x40 MLOAD DUP1 PUSH2 0x160 ADD PUSH1 0x40 MSTORE DUP1 PUSH1 0x40 MLOAD DUP1 PUSH1 0x40 ADD PUSH1 0x40 MSTORE DUP1 PUSH1 0x3 DUP2 MSTORE PUSH1 0x20 ADD PUSH32 0x4261740000000000000000000000000000000000000000000000000000000000 DUP2 MSTORE POP DUP2 MSTORE PUSH1 0x20 ADD PUSH1 0x40 MLOAD DUP1 PUSH1 0x40 ADD PUSH1 0x40 MSTORE DUP1 PUSH1 0x6 DUP2 MSTORE PUSH1 0x20 ADD PUSH32 0x43756D6269610000000000000000000000000000000000000000000000000000 DUP2 MSTORE POP DUP2 MSTORE PUSH1 0x20 ADD PUSH1 0x40 MLOAD DUP1 PUSH1 0x40 ADD PUSH1 0x40 MSTORE DUP1 PUSH1 0x4 DUP2 MSTORE PUSH1 0x20 ADD PUSH32 0x4465657200000000000000000000000000000000000000000000000000000000 DUP2 MSTORE POP DUP2 MSTORE PUSH1 0x20 ADD PUSH1 0x40 MLOAD DUP1 PUSH1 0x40 ADD PUSH1 0x40 MSTORE DUP1 PUSH1 0x7 DUP2 MSTORE PUSH1 0x20 ADD PUSH32 0x4469616D6F6E6400000000000000000000000000000000000000000000000000 DUP2 MSTORE POP DUP2 MSTORE PUSH1 0x20 ADD PUSH1 0x40 MLOAD DUP1 PUSH1 0x40 ADD PUSH1 0x40 MSTORE DUP1 PUSH1 0x4 DUP2 MSTORE PUSH1 0x20 ADD PUSH32 0x486F6C6100000000000000000000000000000000000000000000000000000000 DUP2 MSTORE POP DUP2 MSTORE PUSH1 0x20 ADD PUSH1 0x40 MLOAD DUP1 PUSH1 0x40 ADD PUSH1 0x40 MSTORE DUP1 PUSH1 0x5 DUP2 MSTORE PUSH1 0x20 ADD PUSH32 0x50697A7A61000000000000000000000000000000000000000000000000000000 DUP2 MSTORE POP DUP2 MSTORE PUSH1 0x20 ADD PUSH1 0x40 MLOAD DUP1 PUSH1 0x40 ADD PUSH1 0x40 MSTORE DUP1 PUSH1 0x6 DUP2 MSTORE PUSH1 0x20 ADD PUSH32 0x5265736973740000000000000000000000000000000000000000000000000000 DUP2 MSTORE POP DUP2 MSTORE PUSH1 0x20 ADD PUSH1 0x40 MLOAD DUP1 PUSH1 0x40 ADD PUSH1 0x40 MSTORE DUP1 PUSH1 0x6 DUP2 MSTORE PUSH1 0x20 ADD PUSH32 0x53656C656E610000000000000000000000000000000000000000000000000000 DUP2 MSTORE POP DUP2 MSTORE PUSH1 0x20 ADD PUSH1 0x40 MLOAD DUP1 PUSH1 0x40 ADD PUSH1 0x40 MSTORE DUP1 PUSH1 0x4 DUP2 MSTORE PUSH1 0x20 ADD PUSH32 0x4265617200000000000000000000000000000000000000000000000000000000 DUP2 MSTORE POP DUP2 MSTORE PUSH1 0x20 ADD PUSH1 0x40 MLOAD DUP1 PUSH1 0x40 ADD PUSH1 0x40 MSTORE DUP1 PUSH1 0xC DUP2 MSTORE PUSH1 0x20 ADD PUSH32 0x536B756C6C4F75746C696E650000000000000000000000000000000000000000 DUP2 MSTORE POP DUP2 MSTORE PUSH1 0x20 ADD PUSH1 0x40 MLOAD DUP1 PUSH1 0x40 ADD PUSH1 0x40 MSTORE DUP1 PUSH1 0x5 DUP2 MSTORE PUSH1 0x20 ADD PUSH32 0x536B756C6C000000000000000000000000000000000000000000000000000000 DUP2 MSTORE POP DUP2 MSTORE POP PUSH1 0x9 SWAP1 PUSH1 0xB PUSH3 0x1956 SWAP3 SWAP2 SWAP1 PUSH3 0x2904 JUMP JUMPDEST POP PUSH1 0x40 MLOAD DUP1 PUSH2 0x180 ADD PUSH1 0x40 MSTORE DUP1 PUSH1 0x40 MLOAD DUP1 PUSH1 0x40 ADD PUSH1 0x40 MSTORE DUP1 PUSH1 0x9 DUP2 MSTORE PUSH1 0x20 ADD PUSH32 0x436F6E6365726E65640000000000000000000000000000000000000000000000 DUP2 MSTORE POP DUP2 MSTORE PUSH1 0x20 ADD PUSH1 0x40 MLOAD DUP1 PUSH1 0x40 ADD PUSH1 0x40 MSTORE DUP1 PUSH1 0x7 DUP2 MSTORE PUSH1 0x20 ADD PUSH32 0x44656661756C7400000000000000000000000000000000000000000000000000 DUP2 MSTORE POP DUP2 MSTORE PUSH1 0x20 ADD PUSH1 0x40 MLOAD DUP1 PUSH1 0x40 ADD PUSH1 0x40 MSTORE DUP1 PUSH1 0x9 DUP2 MSTORE PUSH1 0x20 ADD PUSH32 0x44697362656C6965660000000000000000000000000000000000000000000000 DUP2 MSTORE POP DUP2 MSTORE PUSH1 0x20 ADD PUSH1 0x40 MLOAD DUP1 PUSH1 0x40 ADD PUSH1 0x40 MSTORE DUP1 PUSH1 0x6 DUP2 MSTORE PUSH1 0x20 ADD PUSH32 0x456174696E670000000000000000000000000000000000000000000000000000 DUP2 MSTORE POP DUP2 MSTORE PUSH1 0x20 ADD PUSH1 0x40 MLOAD DUP1 PUSH1 0x40 ADD PUSH1 0x40 MSTORE DUP1 PUSH1 0x7 DUP2 MSTORE PUSH1 0x20 ADD PUSH32 0x4772696D61636500000000000000000000000000000000000000000000000000 DUP2 MSTORE POP DUP2 MSTORE PUSH1 0x20 ADD PUSH1 0x40 MLOAD DUP1 PUSH1 0x40 ADD PUSH1 0x40 MSTORE DUP1 PUSH1 0x3 DUP2 MSTORE PUSH1 0x20 ADD PUSH32 0x5361640000000000000000000000000000000000000000000000000000000000 DUP2 MSTORE POP DUP2 MSTORE PUSH1 0x20 ADD PUSH1 0x40 MLOAD DUP1 PUSH1 0x40 ADD PUSH1 0x40 MSTORE DUP1 PUSH1 0xA DUP2 MSTORE PUSH1 0x20 ADD PUSH32 0x53637265616D4F70656E00000000000000000000000000000000000000000000 DUP2 MSTORE POP DUP2 MSTORE PUSH1 0x20 ADD PUSH1 0x40 MLOAD DUP1 PUSH1 0x40 ADD PUSH1 0x40 MSTORE DUP1 PUSH1 0x7 DUP2 MSTORE PUSH1 0x20 ADD PUSH32 0x536572696F757300000000000000000000000000000000000000000000000000 DUP2 MSTORE POP DUP2 MSTORE PUSH1 0x20 ADD PUSH1 0x40 MLOAD DUP1 PUSH1 0x40 ADD PUSH1 0x40 MSTORE DUP1 PUSH1 0x5 DUP2 MSTORE PUSH1 0x20 ADD PUSH32 0x536D696C65000000000000000000000000000000000000000000000000000000 DUP2 MSTORE POP DUP2 MSTORE PUSH1 0x20 ADD PUSH1 0x40 MLOAD DUP1 PUSH1 0x40 ADD PUSH1 0x40 MSTORE DUP1 PUSH1 0x6 DUP2 MSTORE PUSH1 0x20 ADD PUSH32 0x546F6E6775650000000000000000000000000000000000000000000000000000 DUP2 MSTORE POP DUP2 MSTORE PUSH1 0x20 ADD PUSH1 0x40 MLOAD DUP1 PUSH1 0x40 ADD PUSH1 0x40 MSTORE DUP1 PUSH1 0x7 DUP2 MSTORE PUSH1 0x20 ADD PUSH32 0x5477696E6B6C6500000000000000000000000000000000000000000000000000 DUP2 MSTORE POP DUP2 MSTORE PUSH1 0x20 ADD PUSH1 0x40 MLOAD DUP1 PUSH1 0x40 ADD PUSH1 0x40 MSTORE DUP1 PUSH1 0x5 DUP2 MSTORE PUSH1 0x20 ADD PUSH32 0x566F6D6974000000000000000000000000000000000000000000000000000000 DUP2 MSTORE POP DUP2 MSTORE POP PUSH1 0xA SWAP1 PUSH1 0xC PUSH3 0x1C37 SWAP3 SWAP2 SWAP1 PUSH3 0x2768 JUMP JUMPDEST POP PUSH1 0x40 MLOAD DUP1 PUSH1 0xE0 ADD PUSH1 0x40 MSTORE DUP1 PUSH1 0x40 MLOAD DUP1 PUSH1 0x40 ADD PUSH1 0x40 MSTORE DUP1 PUSH1 0x6 DUP2 MSTORE PUSH1 0x20 ADD PUSH32 0x54616E6E65640000000000000000000000000000000000000000000000000000 DUP2 MSTORE POP DUP2 MSTORE PUSH1 0x20 ADD PUSH1 0x40 MLOAD DUP1 PUSH1 0x40 ADD PUSH1 0x40 MSTORE DUP1 PUSH1 0x6 DUP2 MSTORE PUSH1 0x20 ADD PUSH32 0x59656C6C6F770000000000000000000000000000000000000000000000000000 DUP2 MSTORE POP DUP2 MSTORE PUSH1 0x20 ADD PUSH1 0x40 MLOAD DUP1 PUSH1 0x40 ADD PUSH1 0x40 MSTORE DUP1 PUSH1 0x4 DUP2 MSTORE PUSH1 0x20 ADD PUSH32 0x50616C6500000000000000000000000000000000000000000000000000000000 DUP2 MSTORE POP DUP2 MSTORE PUSH1 0x20 ADD PUSH1 0x40 MLOAD DUP1 PUSH1 0x40 ADD PUSH1 0x40 MSTORE DUP1 PUSH1 0x5 DUP2 MSTORE PUSH1 0x20 ADD PUSH32 0x4C69676874000000000000000000000000000000000000000000000000000000 DUP2 MSTORE POP DUP2 MSTORE PUSH1 0x20 ADD PUSH1 0x40 MLOAD DUP1 PUSH1 0x40 ADD PUSH1 0x40 MSTORE DUP1 PUSH1 0x5 DUP2 MSTORE PUSH1 0x20 ADD PUSH32 0x42726F776E000000000000000000000000000000000000000000000000000000 DUP2 MSTORE POP DUP2 MSTORE PUSH1 0x20 ADD PUSH1 0x40 MLOAD DUP1 PUSH1 0x40 ADD PUSH1 0x40 MSTORE DUP1 PUSH1 0x9 DUP2 MSTORE PUSH1 0x20 ADD PUSH32 0x4461726B42726F776E0000000000000000000000000000000000000000000000 DUP2 MSTORE POP DUP2 MSTORE PUSH1 0x20 ADD PUSH1 0x40 MLOAD DUP1 PUSH1 0x40 ADD PUSH1 0x40 MSTORE DUP1 PUSH1 0x5 DUP2 MSTORE PUSH1 0x20 ADD PUSH32 0x426C61636B000000000000000000000000000000000000000000000000000000 DUP2 MSTORE POP DUP2 MSTORE POP PUSH1 0xB SWAP1 PUSH1 0x7 PUSH3 0x1DF0 SWAP3 SWAP2 SWAP1 PUSH3 0x2633 JUMP JUMPDEST POP PUSH1 0x40 MLOAD DUP1 PUSH2 0x460 ADD PUSH1 0x40 MSTORE DUP1 PUSH1 0x40 MLOAD DUP1 PUSH1 0x40 ADD PUSH1 0x40 MSTORE DUP1 PUSH1 0x6 DUP2 MSTORE PUSH1 0x20 ADD PUSH32 0x4E6F486169720000000000000000000000000000000000000000000000000000 DUP2 MSTORE POP DUP2 MSTORE PUSH1 0x20 ADD PUSH1 0x40 MLOAD DUP1 PUSH1 0x40 ADD PUSH1 0x40 MSTORE DUP1 PUSH1 0x8 DUP2 MSTORE PUSH1 0x20 ADD PUSH32 0x4579657061746368000000000000000000000000000000000000000000000000 DUP2 MSTORE POP DUP2 MSTORE PUSH1 0x20 ADD PUSH1 0x40 MLOAD DUP1 PUSH1 0x40 ADD PUSH1 0x40 MSTORE DUP1 PUSH1 0x3 DUP2 MSTORE PUSH1 0x20 ADD PUSH32 0x4861740000000000000000000000000000000000000000000000000000000000 DUP2 MSTORE POP DUP2 MSTORE PUSH1 0x20 ADD PUSH1 0x40 MLOAD DUP1 PUSH1 0x40 ADD PUSH1 0x40 MSTORE DUP1 PUSH1 0x5 DUP2 MSTORE PUSH1 0x20 ADD PUSH32 0x48696A6162000000000000000000000000000000000000000000000000000000 DUP2 MSTORE POP DUP2 MSTORE PUSH1 0x20 ADD PUSH1 0x40 MLOAD DUP1 PUSH1 0x40 ADD PUSH1 0x40 MSTORE DUP1 PUSH1 0x6 DUP2 MSTORE PUSH1 0x20 ADD PUSH32 0x54757262616E0000000000000000000000000000000000000000000000000000 DUP2 MSTORE POP DUP2 MSTORE PUSH1 0x20 ADD PUSH1 0x40 MLOAD DUP1 PUSH1 0x40 ADD PUSH1 0x40 MSTORE DUP1 PUSH1 0xA DUP2 MSTORE PUSH1 0x20 ADD PUSH32 0x57696E7465724861743100000000000000000000000000000000000000000000 DUP2 MSTORE POP DUP2 MSTORE PUSH1 0x20 ADD PUSH1 0x40 MLOAD DUP1 PUSH1 0x40 ADD PUSH1 0x40 MSTORE DUP1 PUSH1 0xA DUP2 MSTORE PUSH1 0x20 ADD PUSH32 0x57696E7465724861743200000000000000000000000000000000000000000000 DUP2 MSTORE POP DUP2 MSTORE PUSH1 0x20 ADD PUSH1 0x40 MLOAD DUP1 PUSH1 0x40 ADD PUSH1 0x40 MSTORE DUP1 PUSH1 0xA DUP2 MSTORE PUSH1 0x20 ADD PUSH32 0x57696E7465724861743300000000000000000000000000000000000000000000 DUP2 MSTORE POP DUP2 MSTORE PUSH1 0x20 ADD PUSH1 0x40 MLOAD DUP1 PUSH1 0x40 ADD PUSH1 0x40 MSTORE DUP1 PUSH1 0xA DUP2 MSTORE PUSH1 0x20 ADD PUSH32 0x57696E7465724861743400000000000000000000000000000000000000000000 DUP2 MSTORE POP DUP2 MSTORE PUSH1 0x20 ADD PUSH1 0x40 MLOAD DUP1 PUSH1 0x40 ADD PUSH1 0x40 MSTORE DUP1 PUSH1 0xF DUP2 MSTORE PUSH1 0x20 ADD PUSH32 0x4C6F6E6748616972426967486169720000000000000000000000000000000000 DUP2 MSTORE POP DUP2 MSTORE PUSH1 0x20 ADD PUSH1 0x40 MLOAD DUP1 PUSH1 0x40 ADD PUSH1 0x40 MSTORE DUP1 PUSH1 0xB DUP2 MSTORE PUSH1 0x20 ADD PUSH32 0x4C6F6E6748616972426F62000000000000000000000000000000000000000000 DUP2 MSTORE POP DUP2 MSTORE PUSH1 0x20 ADD PUSH1 0x40 MLOAD DUP1 PUSH1 0x40 ADD PUSH1 0x40 MSTORE DUP1 PUSH1 0xB DUP2 MSTORE PUSH1 0x20 ADD PUSH32 0x4C6F6E674861697242756E000000000000000000000000000000000000000000 DUP2 MSTORE POP DUP2 MSTORE PUSH1 0x20 ADD PUSH1 0x40 MLOAD DUP1 PUSH1 0x40 ADD PUSH1 0x40 MSTORE DUP1 PUSH1 0xD DUP2 MSTORE PUSH1 0x20 ADD PUSH32 0x4C6F6E67486169724375726C7900000000000000000000000000000000000000 DUP2 MSTORE POP DUP2 MSTORE PUSH1 0x20 ADD PUSH1 0x40 MLOAD DUP1 PUSH1 0x40 ADD PUSH1 0x40 MSTORE DUP1 PUSH1 0xD DUP2 MSTORE PUSH1 0x20 ADD PUSH32 0x4C6F6E6748616972437572767900000000000000000000000000000000000000 DUP2 MSTORE POP DUP2 MSTORE PUSH1 0x20 ADD PUSH1 0x40 MLOAD DUP1 PUSH1 0x40 ADD PUSH1 0x40 MSTORE DUP1 PUSH1 0xE DUP2 MSTORE PUSH1 0x20 ADD PUSH32 0x4C6F6E6748616972447265616473000000000000000000000000000000000000 DUP2 MSTORE POP DUP2 MSTORE PUSH1 0x20 ADD PUSH1 0x40 MLOAD DUP1 PUSH1 0x40 ADD PUSH1 0x40 MSTORE DUP1 PUSH1 0xD DUP2 MSTORE PUSH1 0x20 ADD PUSH32 0x4C6F6E6748616972467269646100000000000000000000000000000000000000 DUP2 MSTORE POP DUP2 MSTORE PUSH1 0x20 ADD PUSH1 0x40 MLOAD DUP1 PUSH1 0x40 ADD PUSH1 0x40 MSTORE DUP1 PUSH1 0xB DUP2 MSTORE PUSH1 0x20 ADD PUSH32 0x4C6F6E674861697246726F000000000000000000000000000000000000000000 DUP2 MSTORE POP DUP2 MSTORE PUSH1 0x20 ADD PUSH1 0x40 MLOAD DUP1 PUSH1 0x40 ADD PUSH1 0x40 MSTORE DUP1 PUSH1 0xF DUP2 MSTORE PUSH1 0x20 ADD PUSH32 0x4C6F6E674861697246726F42616E640000000000000000000000000000000000 DUP2 MSTORE POP DUP2 MSTORE PUSH1 0x20 ADD PUSH1 0x40 MLOAD DUP1 PUSH1 0x40 ADD PUSH1 0x40 MSTORE DUP1 PUSH1 0x12 DUP2 MSTORE PUSH1 0x20 ADD PUSH32 0x4C6F6E67486169724E6F74546F6F4C6F6E670000000000000000000000000000 DUP2 MSTORE POP DUP2 MSTORE PUSH1 0x20 ADD PUSH1 0x40 MLOAD DUP1 PUSH1 0x40 ADD PUSH1 0x40 MSTORE DUP1 PUSH1 0x13 DUP2 MSTORE PUSH1 0x20 ADD PUSH32 0x4C6F6E6748616972536861766564536964657300000000000000000000000000 DUP2 MSTORE POP DUP2 MSTORE PUSH1 0x20 ADD PUSH1 0x40 MLOAD DUP1 PUSH1 0x40 ADD PUSH1 0x40 MSTORE DUP1 PUSH1 0x12 DUP2 MSTORE PUSH1 0x20 ADD PUSH32 0x4C6F6E67486169724D696157616C6C6163650000000000000000000000000000 DUP2 MSTORE POP DUP2 MSTORE PUSH1 0x20 ADD PUSH1 0x40 MLOAD DUP1 PUSH1 0x40 ADD PUSH1 0x40 MSTORE DUP1 PUSH1 0x10 DUP2 MSTORE PUSH1 0x20 ADD PUSH32 0x4C6F6E6748616972537472616967687400000000000000000000000000000000 DUP2 MSTORE POP DUP2 MSTORE PUSH1 0x20 ADD PUSH1 0x40 MLOAD DUP1 PUSH1 0x40 ADD PUSH1 0x40 MSTORE DUP1 PUSH1 0x11 DUP2 MSTORE PUSH1 0x20 ADD PUSH32 0x4C6F6E6748616972537472616967687432000000000000000000000000000000 DUP2 MSTORE POP DUP2 MSTORE PUSH1 0x20 ADD PUSH1 0x40 MLOAD DUP1 PUSH1 0x40 ADD PUSH1 0x40 MSTORE DUP1 PUSH1 0x16 DUP2 MSTORE PUSH1 0x20 ADD PUSH32 0x4C6F6E67486169725374726169676874537472616E6400000000000000000000 DUP2 MSTORE POP DUP2 MSTORE PUSH1 0x20 ADD PUSH1 0x40 MLOAD DUP1 PUSH1 0x40 ADD PUSH1 0x40 MSTORE DUP1 PUSH1 0x11 DUP2 MSTORE PUSH1 0x20 ADD PUSH32 0x53686F7274486169724472656164733031000000000000000000000000000000 DUP2 MSTORE POP DUP2 MSTORE PUSH1 0x20 ADD PUSH1 0x40 MLOAD DUP1 PUSH1 0x40 ADD PUSH1 0x40 MSTORE DUP1 PUSH1 0x11 DUP2 MSTORE PUSH1 0x20 ADD PUSH32 0x53686F7274486169724472656164733032000000000000000000000000000000 DUP2 MSTORE POP DUP2 MSTORE PUSH1 0x20 ADD PUSH1 0x40 MLOAD DUP1 PUSH1 0x40 ADD PUSH1 0x40 MSTORE DUP1 PUSH1 0x10 DUP2 MSTORE PUSH1 0x20 ADD PUSH32 0x53686F7274486169724672697A7A6C6500000000000000000000000000000000 DUP2 MSTORE POP DUP2 MSTORE PUSH1 0x20 ADD PUSH1 0x40 MLOAD DUP1 PUSH1 0x40 ADD PUSH1 0x40 MSTORE DUP1 PUSH1 0x15 DUP2 MSTORE PUSH1 0x20 ADD PUSH32 0x53686F7274486169725368616767794D756C6C65740000000000000000000000 DUP2 MSTORE POP DUP2 MSTORE PUSH1 0x20 ADD PUSH1 0x40 MLOAD DUP1 PUSH1 0x40 ADD PUSH1 0x40 MSTORE DUP1 PUSH1 0x13 DUP2 MSTORE PUSH1 0x20 ADD PUSH32 0x53686F72744861697253686F72744375726C7900000000000000000000000000 DUP2 MSTORE POP DUP2 MSTORE PUSH1 0x20 ADD PUSH1 0x40 MLOAD DUP1 PUSH1 0x40 ADD PUSH1 0x40 MSTORE DUP1 PUSH1 0x12 DUP2 MSTORE PUSH1 0x20 ADD PUSH32 0x53686F72744861697253686F7274466C61740000000000000000000000000000 DUP2 MSTORE POP DUP2 MSTORE PUSH1 0x20 ADD PUSH1 0x40 MLOAD DUP1 PUSH1 0x40 ADD PUSH1 0x40 MSTORE DUP1 PUSH1 0x13 DUP2 MSTORE PUSH1 0x20 ADD PUSH32 0x53686F72744861697253686F7274526F756E6400000000000000000000000000 DUP2 MSTORE POP DUP2 MSTORE PUSH1 0x20 ADD PUSH1 0x40 MLOAD DUP1 PUSH1 0x40 ADD PUSH1 0x40 MSTORE DUP1 PUSH1 0x13 DUP2 MSTORE PUSH1 0x20 ADD PUSH32 0x53686F72744861697253686F7274576176656400000000000000000000000000 DUP2 MSTORE POP DUP2 MSTORE PUSH1 0x20 ADD PUSH1 0x40 MLOAD DUP1 PUSH1 0x40 ADD PUSH1 0x40 MSTORE DUP1 PUSH1 0xE DUP2 MSTORE PUSH1 0x20 ADD PUSH32 0x53686F7274486169725369646573000000000000000000000000000000000000 DUP2 MSTORE POP DUP2 MSTORE PUSH1 0x20 ADD PUSH1 0x40 MLOAD DUP1 PUSH1 0x40 ADD PUSH1 0x40 MSTORE DUP1 PUSH1 0x12 DUP2 MSTORE PUSH1 0x20 ADD PUSH32 0x53686F7274486169725468654361657361720000000000000000000000000000 DUP2 MSTORE POP DUP2 MSTORE PUSH1 0x20 ADD PUSH1 0x40 MLOAD DUP1 PUSH1 0x40 ADD PUSH1 0x40 MSTORE DUP1 PUSH1 0x1A DUP2 MSTORE PUSH1 0x20 ADD PUSH32 0x53686F7274486169725468654361657361725369646550617274000000000000 DUP2 MSTORE POP DUP2 MSTORE POP PUSH1 0xC SWAP1 PUSH1 0x23 PUSH3 0x261E SWAP3 SWAP2 SWAP1 PUSH3 0x296B JUMP JUMPDEST POP CALLVALUE DUP1 ISZERO PUSH3 0x262C JUMPI PUSH1 0x0 DUP1 REVERT JUMPDEST POP PUSH3 0x2B55 JUMP JUMPDEST DUP3 DUP1 SLOAD DUP3 DUP3 SSTORE SWAP1 PUSH1 0x0 MSTORE PUSH1 0x20 PUSH1 0x0 KECCAK256 SWAP1 DUP2 ADD SWAP3 DUP3 ISZERO PUSH3 0x2687 JUMPI SWAP2 PUSH1 0x20 MUL DUP3 ADD JUMPDEST DUP3 DUP2 GT ISZERO PUSH3 0x2686 JUMPI DUP3 MLOAD DUP3 SWAP1 DUP1 MLOAD SWAP1 PUSH1 0x20 ADD SWAP1 PUSH3 0x2675 SWAP3 SWAP2 SWAP1 PUSH3 0x29D2 JUMP JUMPDEST POP SWAP2 PUSH1 0x20 ADD SWAP2 SWAP1 PUSH1 0x1 ADD SWAP1 PUSH3 0x2654 JUMP JUMPDEST JUMPDEST POP SWAP1 POP PUSH3 0x2696 SWAP2 SWAP1 PUSH3 0x2A63 JUMP JUMPDEST POP SWAP1 JUMP JUMPDEST DUP3 DUP1 SLOAD DUP3 DUP3 SSTORE SWAP1 PUSH1 0x0 MSTORE PUSH1 0x20 PUSH1 0x0 KECCAK256 SWAP1 DUP2 ADD SWAP3 DUP3 ISZERO PUSH3 0x26EE JUMPI SWAP2 PUSH1 0x20 MUL DUP3 ADD JUMPDEST DUP3 DUP2 GT ISZERO PUSH3 0x26ED JUMPI DUP3 MLOAD DUP3 SWAP1 DUP1 MLOAD SWAP1 PUSH1 0x20 ADD SWAP1 PUSH3 0x26DC SWAP3 SWAP2 SWAP1 PUSH3 0x29D2 JUMP JUMPDEST POP SWAP2 PUSH1 0x20 ADD SWAP2 SWAP1 PUSH1 0x1 ADD SWAP1 PUSH3 0x26BB JUMP JUMPDEST JUMPDEST POP SWAP1 POP PUSH3 0x26FD SWAP2 SWAP1 PUSH3 0x2A63 JUMP JUMPDEST POP SWAP1 JUMP JUMPDEST DUP3 DUP1 SLOAD DUP3 DUP3 SSTORE SWAP1 PUSH1 0x0 MSTORE PUSH1 0x20 PUSH1 0x0 KECCAK256 SWAP1 DUP2 ADD SWAP3 DUP3 ISZERO PUSH3 0x2755 JUMPI SWAP2 PUSH1 0x20 MUL DUP3 ADD JUMPDEST DUP3 DUP2 GT ISZERO PUSH3 0x2754 JUMPI DUP3 MLOAD DUP3 SWAP1 DUP1 MLOAD SWAP1 PUSH1 0x20 ADD SWAP1 PUSH3 0x2743 SWAP3 SWAP2 SWAP1 PUSH3 0x29D2 JUMP JUMPDEST POP SWAP2 PUSH1 0x20 ADD SWAP2 SWAP1 PUSH1 0x1 ADD SWAP1 PUSH3 0x2722 JUMP JUMPDEST JUMPDEST POP SWAP1 POP PUSH3 0x2764 SWAP2 SWAP1 PUSH3 0x2A63 JUMP JUMPDEST POP SWAP1 JUMP JUMPDEST DUP3 DUP1 SLOAD DUP3 DUP3 SSTORE SWAP1 PUSH1 0x0 MSTORE PUSH1 0x20 PUSH1 0x0 KECCAK256 SWAP1 DUP2 ADD SWAP3 DUP3 ISZERO PUSH3 0x27BC JUMPI SWAP2 PUSH1 0x20 MUL DUP3 ADD JUMPDEST DUP3 DUP2 GT ISZERO PUSH3 0x27BB JUMPI DUP3 MLOAD DUP3 SWAP1 DUP1 MLOAD SWAP1 PUSH1 0x20 ADD SWAP1 PUSH3 0x27AA SWAP3 SWAP2 SWAP1 PUSH3 0x29D2 JUMP JUMPDEST POP SWAP2 PUSH1 0x20 ADD SWAP2 SWAP1 PUSH1 0x1 ADD SWAP1 PUSH3 0x2789 JUMP JUMPDEST JUMPDEST POP SWAP1 POP PUSH3 0x27CB SWAP2 SWAP1 PUSH3 0x2A63 JUMP JUMPDEST POP SWAP1 JUMP JUMPDEST DUP3 DUP1 SLOAD DUP3 DUP3 SSTORE SWAP1 PUSH1 0x0 MSTORE PUSH1 0x20 PUSH1 0x0 KECCAK256 SWAP1 DUP2 ADD SWAP3 DUP3 ISZERO PUSH3 0x2823 JUMPI SWAP2 PUSH1 0x20 MUL DUP3 ADD JUMPDEST DUP3 DUP2 GT ISZERO PUSH3 0x2822 JUMPI DUP3 MLOAD DUP3 SWAP1 DUP1 MLOAD SWAP1 PUSH1 0x20 ADD SWAP1 PUSH3 0x2811 SWAP3 SWAP2 SWAP1 PUSH3 0x29D2 JUMP JUMPDEST POP SWAP2 PUSH1 0x20 ADD SWAP2 SWAP1 PUSH1 0x1 ADD SWAP1 PUSH3 0x27F0 JUMP JUMPDEST JUMPDEST POP SWAP1 POP PUSH3 0x2832 SWAP2 SWAP1 PUSH3 0x2A63 JUMP JUMPDEST POP SWAP1 JUMP JUMPDEST DUP3 DUP1 SLOAD DUP3 DUP3 SSTORE SWAP1 PUSH1 0x0 MSTORE PUSH1 0x20 PUSH1 0x0 KECCAK256 SWAP1 DUP2 ADD SWAP3 DUP3 ISZERO PUSH3 0x288A JUMPI SWAP2 PUSH1 0x20 MUL DUP3 ADD JUMPDEST DUP3 DUP2 GT ISZERO PUSH3 0x2889 JUMPI DUP3 MLOAD DUP3 SWAP1 DUP1 MLOAD SWAP1 PUSH1 0x20 ADD SWAP1 PUSH3 0x2878 SWAP3 SWAP2 SWAP1 PUSH3 0x29D2 JUMP JUMPDEST POP SWAP2 PUSH1 0x20 ADD SWAP2 SWAP1 PUSH1 0x1 ADD SWAP1 PUSH3 0x2857 JUMP JUMPDEST JUMPDEST POP SWAP1 POP PUSH3 0x2899 SWAP2 SWAP1 PUSH3 0x2A63 JUMP JUMPDEST POP SWAP1 JUMP JUMPDEST DUP3 DUP1 SLOAD DUP3 DUP3 SSTORE SWAP1 PUSH1 0x0 MSTORE PUSH1 0x20 PUSH1 0x0 KECCAK256 SWAP1 DUP2 ADD SWAP3 DUP3 ISZERO PUSH3 0x28F1 JUMPI SWAP2 PUSH1 0x20 MUL DUP3 ADD JUMPDEST DUP3 DUP2 GT ISZERO PUSH3 0x28F0 JUMPI DUP3 MLOAD DUP3 SWAP1 DUP1 MLOAD SWAP1 PUSH1 0x20 ADD SWAP1 PUSH3 0x28DF SWAP3 SWAP2 SWAP1 PUSH3 0x29D2 JUMP JUMPDEST POP SWAP2 PUSH1 0x20 ADD SWAP2 SWAP1 PUSH1 0x1 ADD SWAP1 PUSH3 0x28BE JUMP JUMPDEST JUMPDEST POP SWAP1 POP PUSH3 0x2900 SWAP2 SWAP1 PUSH3 0x2A63 JUMP JUMPDEST POP SWAP1 JUMP JUMPDEST DUP3 DUP1 SLOAD DUP3 DUP3 SSTORE SWAP1 PUSH1 0x0 MSTORE PUSH1 0x20 PUSH1 0x0 KECCAK256 SWAP1 DUP2 ADD SWAP3 DUP3 ISZERO PUSH3 0x2958 JUMPI SWAP2 PUSH1 0x20 MUL DUP3 ADD JUMPDEST DUP3 DUP2 GT ISZERO PUSH3 0x2957 JUMPI DUP3 MLOAD DUP3 SWAP1 DUP1 MLOAD SWAP1 PUSH1 0x20 ADD SWAP1 PUSH3 0x2946 SWAP3 SWAP2 SWAP1 PUSH3 0x29D2 JUMP JUMPDEST POP SWAP2 PUSH1 0x20 ADD SWAP2 SWAP1 PUSH1 0x1 ADD SWAP1 PUSH3 0x2925 JUMP JUMPDEST JUMPDEST POP SWAP1 POP PUSH3 0x2967 SWAP2 SWAP1 PUSH3 0x2A63 JUMP JUMPDEST POP SWAP1 JUMP JUMPDEST DUP3 DUP1 SLOAD DUP3 DUP3 SSTORE SWAP1 PUSH1 0x0 MSTORE PUSH1 0x20 PUSH1 0x0 KECCAK256 SWAP1 DUP2 ADD SWAP3 DUP3 ISZERO PUSH3 0x29BF JUMPI SWAP2 PUSH1 0x20 MUL DUP3 ADD JUMPDEST DUP3 DUP2 GT ISZERO PUSH3 0x29BE JUMPI DUP3 MLOAD DUP3 SWAP1 DUP1 MLOAD SWAP1 PUSH1 0x20 ADD SWAP1 PUSH3 0x29AD SWAP3 SWAP2 SWAP1 PUSH3 0x29D2 JUMP JUMPDEST POP SWAP2 PUSH1 0x20 ADD SWAP2 SWAP1 PUSH1 0x1 ADD SWAP1 PUSH3 0x298C JUMP JUMPDEST JUMPDEST POP SWAP1 POP PUSH3 0x29CE SWAP2 SWAP1 PUSH3 0x2A63 JUMP JUMPDEST POP SWAP1 JUMP JUMPDEST DUP3 DUP1 SLOAD PUSH3 0x29E0 SWAP1 PUSH3 0x2AF0 JUMP JUMPDEST SWAP1 PUSH1 0x0 MSTORE PUSH1 0x20 PUSH1 0x0 KECCAK256 SWAP1 PUSH1 0x1F ADD PUSH1 0x20 SWAP1 DIV DUP2 ADD SWAP3 DUP3 PUSH3 0x2A04 JUMPI PUSH1 0x0 DUP6 SSTORE PUSH3 0x2A50 JUMP JUMPDEST DUP3 PUSH1 0x1F LT PUSH3 0x2A1F JUMPI DUP1 MLOAD PUSH1 0xFF NOT AND DUP4 DUP1 ADD OR DUP6 SSTORE PUSH3 0x2A50 JUMP JUMPDEST DUP3 DUP1 ADD PUSH1 0x1 ADD DUP6 SSTORE DUP3 ISZERO PUSH3 0x2A50 JUMPI SWAP2 DUP3 ADD JUMPDEST DUP3 DUP2 GT ISZERO PUSH3 0x2A4F JUMPI DUP3 MLOAD DUP3 SSTORE SWAP2 PUSH1 0x20 ADD SWAP2 SWAP1 PUSH1 0x1 ADD SWAP1 PUSH3 0x2A32 JUMP JUMPDEST JUMPDEST POP SWAP1 POP PUSH3 0x2A5F SWAP2 SWAP1 PUSH3 0x2A8B JUMP JUMPDEST POP SWAP1 JUMP JUMPDEST JUMPDEST DUP1 DUP3 GT ISZERO PUSH3 0x2A87 JUMPI PUSH1 0x0 DUP2 DUP2 PUSH3 0x2A7D SWAP2 SWAP1 PUSH3 0x2AAA JUMP JUMPDEST POP PUSH1 0x1 ADD PUSH3 0x2A64 JUMP JUMPDEST POP SWAP1 JUMP JUMPDEST JUMPDEST DUP1 DUP3 GT ISZERO PUSH3 0x2AA6 JUMPI PUSH1 0x0 DUP2 PUSH1 0x0 SWAP1 SSTORE POP PUSH1 0x1 ADD PUSH3 0x2A8C JUMP JUMPDEST POP SWAP1 JUMP JUMPDEST POP DUP1 SLOAD PUSH3 0x2AB8 SWAP1 PUSH3 0x2AF0 JUMP JUMPDEST PUSH1 0x0 DUP3 SSTORE DUP1 PUSH1 0x1F LT PUSH3 0x2ACC JUMPI POP PUSH3 0x2AED JUMP JUMPDEST PUSH1 0x1F ADD PUSH1 0x20 SWAP1 DIV SWAP1 PUSH1 0x0 MSTORE PUSH1 0x20 PUSH1 0x0 KECCAK256 SWAP1 DUP2 ADD SWAP1 PUSH3 0x2AEC SWAP2 SWAP1 PUSH3 0x2A8B JUMP JUMPDEST JUMPDEST POP JUMP JUMPDEST PUSH1 0x0 PUSH1 0x2 DUP3 DIV SWAP1 POP PUSH1 0x1 DUP3 AND DUP1 PUSH3 0x2B09 JUMPI PUSH1 0x7F DUP3 AND SWAP2 POP JUMPDEST PUSH1 0x20 DUP3 LT DUP2 EQ ISZERO PUSH3 0x2B20 JUMPI PUSH3 0x2B1F PUSH3 0x2B26 JUMP JUMPDEST JUMPDEST POP SWAP2 SWAP1 POP JUMP JUMPDEST PUSH32 0x4E487B7100000000000000000000000000000000000000000000000000000000 PUSH1 0x0 MSTORE PUSH1 0x22 PUSH1 0x4 MSTORE PUSH1 0x24 PUSH1 0x0 REVERT JUMPDEST PUSH2 0x151B DUP1 PUSH3 0x2B65 PUSH1 0x0 CODECOPY PUSH1 0x0 RETURN INVALID PUSH1 0x80 PUSH1 0x40 MSTORE CALLVALUE DUP1 ISZERO PUSH2 0x10 JUMPI PUSH1 0x0 DUP1 REVERT JUMPDEST POP PUSH1 0x4 CALLDATASIZE LT PUSH2 0xEA JUMPI PUSH1 0x0 CALLDATALOAD PUSH1 0xE0 SHR DUP1 PUSH4 0x8602DD6A GT PUSH2 0x8C JUMPI DUP1 PUSH4 0xB70930DE GT PUSH2 0x66 JUMPI DUP1 PUSH4 0xB70930DE EQ PUSH2 0x2CF JUMPI DUP1 PUSH4 0xC0496CF5 EQ PUSH2 0x2FF JUMPI DUP1 PUSH4 0xCC4E5695 EQ PUSH2 0x32F JUMPI DUP1 PUSH4 0xDAC1419E EQ PUSH2 0x35F JUMPI PUSH2 0xEA JUMP JUMPDEST DUP1 PUSH4 0x8602DD6A EQ PUSH2 0x23F JUMPI DUP1 PUSH4 0x88EE2C16 EQ PUSH2 0x26F JUMPI DUP1 PUSH4 0xA2EC3E9E EQ PUSH2 0x29F JUMPI PUSH2 0xEA JUMP JUMPDEST DUP1 PUSH4 0x60D58AED GT PUSH2 0xC8 JUMPI DUP1 PUSH4 0x60D58AED EQ PUSH2 0x17F JUMPI DUP1 PUSH4 0x73075AFF EQ PUSH2 0x1AF JUMPI DUP1 PUSH4 0x7ECAEF06 EQ PUSH2 0x1DF JUMPI DUP1 PUSH4 0x84425A84 EQ PUSH2 0x20F JUMPI PUSH2 0xEA JUMP JUMPDEST DUP1 PUSH4 0x39984BA EQ PUSH2 0xEF JUMPI DUP1 PUSH4 0x18A3C0D1 EQ PUSH2 0x11F JUMPI DUP1 PUSH4 0x425D784F EQ PUSH2 0x14F JUMPI JUMPDEST PUSH1 0x0 DUP1 REVERT JUMPDEST PUSH2 0x109 PUSH1 0x4 DUP1 CALLDATASIZE SUB DUP2 ADD SWAP1 PUSH2 0x104 SWAP2 SWAP1 PUSH2 0xF26 JUMP JUMPDEST PUSH2 0x38F JUMP JUMPDEST PUSH1 0x40 MLOAD PUSH2 0x116 SWAP2 SWAP1 PUSH2 0x100D JUMP JUMPDEST PUSH1 0x40 MLOAD DUP1 SWAP2 SUB SWAP1 RETURN JUMPDEST PUSH2 0x139 PUSH1 0x4 DUP1 CALLDATASIZE SUB DUP2 ADD SWAP1 PUSH2 0x134 SWAP2 SWAP1 PUSH2 0xF26 JUMP JUMPDEST PUSH2 0x461 JUMP JUMPDEST PUSH1 0x40 MLOAD PUSH2 0x146 SWAP2 SWAP1 PUSH2 0x100D JUMP JUMPDEST PUSH1 0x40 MLOAD DUP1 SWAP2 SUB SWAP1 RETURN JUMPDEST PUSH2 0x169 PUSH1 0x4 DUP1 CALLDATASIZE SUB DUP2 ADD SWAP1 PUSH2 0x164 SWAP2 SWAP1 PUSH2 0xF26 JUMP JUMPDEST PUSH2 0x533 JUMP JUMPDEST PUSH1 0x40 MLOAD PUSH2 0x176 SWAP2 SWAP1 PUSH2 0x100D JUMP JUMPDEST PUSH1 0x40 MLOAD DUP1 SWAP2 SUB SWAP1 RETURN JUMPDEST PUSH2 0x199 PUSH1 0x4 DUP1 CALLDATASIZE SUB DUP2 ADD SWAP1 PUSH2 0x194 SWAP2 SWAP1 PUSH2 0xF26 JUMP JUMPDEST PUSH2 0x605 JUMP JUMPDEST PUSH1 0x40 MLOAD PUSH2 0x1A6 SWAP2 SWAP1 PUSH2 0x100D JUMP JUMPDEST PUSH1 0x40 MLOAD DUP1 SWAP2 SUB SWAP1 RETURN JUMPDEST PUSH2 0x1C9 PUSH1 0x4 DUP1 CALLDATASIZE SUB DUP2 ADD SWAP1 PUSH2 0x1C4 SWAP2 SWAP1 PUSH2 0xF26 JUMP JUMPDEST PUSH2 0x6D7 JUMP JUMPDEST PUSH1 0x40 MLOAD PUSH2 0x1D6 SWAP2 SWAP1 PUSH2 0x100D JUMP JUMPDEST PUSH1 0x40 MLOAD DUP1 SWAP2 SUB SWAP1 RETURN JUMPDEST PUSH2 0x1F9 PUSH1 0x4 DUP1 CALLDATASIZE SUB DUP2 ADD SWAP1 PUSH2 0x1F4 SWAP2 SWAP1 PUSH2 0xF26 JUMP JUMPDEST PUSH2 0x7A9 JUMP JUMPDEST PUSH1 0x40 MLOAD PUSH2 0x206 SWAP2 SWAP1 PUSH2 0x100D JUMP JUMPDEST PUSH1 0x40 MLOAD DUP1 SWAP2 SUB SWAP1 RETURN JUMPDEST PUSH2 0x229 PUSH1 0x4 DUP1 CALLDATASIZE SUB DUP2 ADD SWAP1 PUSH2 0x224 SWAP2 SWAP1 PUSH2 0xF26 JUMP JUMPDEST PUSH2 0x87B JUMP JUMPDEST PUSH1 0x40 MLOAD PUSH2 0x236 SWAP2 SWAP1 PUSH2 0x100D JUMP JUMPDEST PUSH1 0x40 MLOAD DUP1 SWAP2 SUB SWAP1 RETURN JUMPDEST PUSH2 0x259 PUSH1 0x4 DUP1 CALLDATASIZE SUB DUP2 ADD SWAP1 PUSH2 0x254 SWAP2 SWAP1 PUSH2 0xF26 JUMP JUMPDEST PUSH2 0x94D JUMP JUMPDEST PUSH1 0x40 MLOAD PUSH2 0x266 SWAP2 SWAP1 PUSH2 0x100D JUMP JUMPDEST PUSH1 0x40 MLOAD DUP1 SWAP2 SUB SWAP1 RETURN JUMPDEST PUSH2 0x289 PUSH1 0x4 DUP1 CALLDATASIZE SUB DUP2 ADD SWAP1 PUSH2 0x284 SWAP2 SWAP1 PUSH2 0xF53 JUMP JUMPDEST PUSH2 0xA1F JUMP JUMPDEST PUSH1 0x40 MLOAD PUSH2 0x296 SWAP2 SWAP1 PUSH2 0x102F JUMP JUMPDEST PUSH1 0x40 MLOAD DUP1 SWAP2 SUB SWAP1 RETURN JUMPDEST PUSH2 0x2B9 PUSH1 0x4 DUP1 CALLDATASIZE SUB DUP2 ADD SWAP1 PUSH2 0x2B4 SWAP2 SWAP1 PUSH2 0xF26 JUMP JUMPDEST PUSH2 0xA85 JUMP JUMPDEST PUSH1 0x40 MLOAD PUSH2 0x2C6 SWAP2 SWAP1 PUSH2 0x100D JUMP JUMPDEST PUSH1 0x40 MLOAD DUP1 SWAP2 SUB SWAP1 RETURN JUMPDEST PUSH2 0x2E9 PUSH1 0x4 DUP1 CALLDATASIZE SUB DUP2 ADD SWAP1 PUSH2 0x2E4 SWAP2 SWAP1 PUSH2 0xF26 JUMP JUMPDEST PUSH2 0xB57 JUMP JUMPDEST PUSH1 0x40 MLOAD PUSH2 0x2F6 SWAP2 SWAP1 PUSH2 0x100D JUMP JUMPDEST PUSH1 0x40 MLOAD DUP1 SWAP2 SUB SWAP1 RETURN JUMPDEST PUSH2 0x319 PUSH1 0x4 DUP1 CALLDATASIZE SUB DUP2 ADD SWAP1 PUSH2 0x314 SWAP2 SWAP1 PUSH2 0xF26 JUMP JUMPDEST PUSH2 0xC29 JUMP JUMPDEST PUSH1 0x40 MLOAD PUSH2 0x326 SWAP2 SWAP1 PUSH2 0x100D JUMP JUMPDEST PUSH1 0x40 MLOAD DUP1 SWAP2 SUB SWAP1 RETURN JUMPDEST PUSH2 0x349 PUSH1 0x4 DUP1 CALLDATASIZE SUB DUP2 ADD SWAP1 PUSH2 0x344 SWAP2 SWAP1 PUSH2 0xF26 JUMP JUMPDEST PUSH2 0xCFB JUMP JUMPDEST PUSH1 0x40 MLOAD PUSH2 0x356 SWAP2 SWAP1 PUSH2 0x100D JUMP JUMPDEST PUSH1 0x40 MLOAD DUP1 SWAP2 SUB SWAP1 RETURN JUMPDEST PUSH2 0x379 PUSH1 0x4 DUP1 CALLDATASIZE SUB DUP2 ADD SWAP1 PUSH2 0x374 SWAP2 SWAP1 PUSH2 0xF26 JUMP JUMPDEST PUSH2 0xDCD JUMP JUMPDEST PUSH1 0x40 MLOAD PUSH2 0x386 SWAP2 SWAP1 PUSH2 0x100D JUMP JUMPDEST PUSH1 0x40 MLOAD DUP1 SWAP2 SUB SWAP1 RETURN JUMPDEST PUSH1 0x60 PUSH1 0x0 PUSH2 0x39E DUP4 PUSH1 0x8 PUSH2 0xE9F JUMP JUMPDEST PUSH1 0xFF AND SWAP1 POP PUSH1 0x4 DUP1 DUP1 SLOAD SWAP1 POP DUP3 PUSH2 0x3B5 SWAP2 SWAP1 PUSH2 0x13A7 JUMP JUMPDEST DUP2 SLOAD DUP2 LT PUSH2 0x3C6 JUMPI PUSH2 0x3C5 PUSH2 0x1465 JUMP JUMPDEST JUMPDEST SWAP1 PUSH1 0x0 MSTORE PUSH1 0x20 PUSH1 0x0 KECCAK256 ADD DUP1 SLOAD PUSH2 0x3DB SWAP1 PUSH2 0x136B JUMP JUMPDEST DUP1 PUSH1 0x1F ADD PUSH1 0x20 DUP1 SWAP2 DIV MUL PUSH1 0x20 ADD PUSH1 0x40 MLOAD SWAP1 DUP2 ADD PUSH1 0x40 MSTORE DUP1 SWAP3 SWAP2 SWAP1 DUP2 DUP2 MSTORE PUSH1 0x20 ADD DUP3 DUP1 SLOAD PUSH2 0x407 SWAP1 PUSH2 0x136B JUMP JUMPDEST DUP1 ISZERO PUSH2 0x454 JUMPI DUP1 PUSH1 0x1F LT PUSH2 0x429 JUMPI PUSH2 0x100 DUP1 DUP4 SLOAD DIV MUL DUP4 MSTORE SWAP2 PUSH1 0x20 ADD SWAP2 PUSH2 0x454 JUMP JUMPDEST DUP3 ADD SWAP2 SWAP1 PUSH1 0x0 MSTORE PUSH1 0x20 PUSH1 0x0 KECCAK256 SWAP1 JUMPDEST DUP2 SLOAD DUP2 MSTORE SWAP1 PUSH1 0x1 ADD SWAP1 PUSH1 0x20 ADD DUP1 DUP4 GT PUSH2 0x437 JUMPI DUP3 SWAP1 SUB PUSH1 0x1F AND DUP3 ADD SWAP2 JUMPDEST POP POP POP POP POP SWAP2 POP POP SWAP2 SWAP1 POP JUMP JUMPDEST PUSH1 0x60 PUSH1 0x0 PUSH2 0x470 DUP4 PUSH1 0x4 PUSH2 0xE9F JUMP JUMPDEST PUSH1 0xFF AND SWAP1 POP PUSH1 0x2 DUP1 DUP1 SLOAD SWAP1 POP DUP3 PUSH2 0x487 SWAP2 SWAP1 PUSH2 0x13A7 JUMP JUMPDEST DUP2 SLOAD DUP2 LT PUSH2 0x498 JUMPI PUSH2 0x497 PUSH2 0x1465 JUMP JUMPDEST JUMPDEST SWAP1 PUSH1 0x0 MSTORE PUSH1 0x20 PUSH1 0x0 KECCAK256 ADD DUP1 SLOAD PUSH2 0x4AD SWAP1 PUSH2 0x136B JUMP JUMPDEST DUP1 PUSH1 0x1F ADD PUSH1 0x20 DUP1 SWAP2 DIV MUL PUSH1 0x20 ADD PUSH1 0x40 MLOAD SWAP1 DUP2 ADD PUSH1 0x40 MSTORE DUP1 SWAP3 SWAP2 SWAP1 DUP2 DUP2 MSTORE PUSH1 0x20 ADD DUP3 DUP1 SLOAD PUSH2 0x4D9 SWAP1 PUSH2 0x136B JUMP JUMPDEST DUP1 ISZERO PUSH2 0x526 JUMPI DUP1 PUSH1 0x1F LT PUSH2 0x4FB JUMPI PUSH2 0x100 DUP1 DUP4 SLOAD DIV MUL DUP4 MSTORE SWAP2 PUSH1 0x20 ADD SWAP2 PUSH2 0x526 JUMP JUMPDEST DUP3 ADD SWAP2 SWAP1 PUSH1 0x0 MSTORE PUSH1 0x20 PUSH1 0x0 KECCAK256 SWAP1 JUMPDEST DUP2 SLOAD DUP2 MSTORE SWAP1 PUSH1 0x1 ADD SWAP1 PUSH1 0x20 ADD DUP1 DUP4 GT PUSH2 0x509 JUMPI DUP3 SWAP1 SUB PUSH1 0x1F AND DUP3 ADD SWAP2 JUMPDEST POP POP POP POP POP SWAP2 POP POP SWAP2 SWAP1 POP JUMP JUMPDEST PUSH1 0x60 PUSH1 0x0 PUSH2 0x542 DUP4 PUSH1 0x14 PUSH2 0xE9F JUMP JUMPDEST PUSH1 0xFF AND SWAP1 POP PUSH1 0xA DUP1 DUP1 SLOAD SWAP1 POP DUP3 PUSH2 0x559 SWAP2 SWAP1 PUSH2 0x13A7 JUMP JUMPDEST DUP2 SLOAD DUP2 LT PUSH2 0x56A JUMPI PUSH2 0x569 PUSH2 0x1465 JUMP JUMPDEST JUMPDEST SWAP1 PUSH1 0x0 MSTORE PUSH1 0x20 PUSH1 0x0 KECCAK256 ADD DUP1 SLOAD PUSH2 0x57F SWAP1 PUSH2 0x136B JUMP JUMPDEST DUP1 PUSH1 0x1F ADD PUSH1 0x20 DUP1 SWAP2 DIV MUL PUSH1 0x20 ADD PUSH1 0x40 MLOAD SWAP1 DUP2 ADD PUSH1 0x40 MSTORE DUP1 SWAP3 SWAP2 SWAP1 DUP2 DUP2 MSTORE PUSH1 0x20 ADD DUP3 DUP1 SLOAD PUSH2 0x5AB SWAP1 PUSH2 0x136B JUMP JUMPDEST DUP1 ISZERO PUSH2 0x5F8 JUMPI DUP1 PUSH1 0x1F LT PUSH2 0x5CD JUMPI PUSH2 0x100 DUP1 DUP4 SLOAD DIV MUL DUP4 MSTORE SWAP2 PUSH1 0x20 ADD SWAP2 PUSH2 0x5F8 JUMP JUMPDEST DUP3 ADD SWAP2 SWAP1 PUSH1 0x0 MSTORE PUSH1 0x20 PUSH1 0x0 KECCAK256 SWAP1 JUMPDEST DUP2 SLOAD DUP2 MSTORE SWAP1 PUSH1 0x1 ADD SWAP1 PUSH1 0x20 ADD DUP1 DUP4 GT PUSH2 0x5DB JUMPI DUP3 SWAP1 SUB PUSH1 0x1F AND DUP3 ADD SWAP2 JUMPDEST POP POP POP POP POP SWAP2 POP POP SWAP2 SWAP1 POP JUMP JUMPDEST PUSH1 0x60 PUSH1 0x0 PUSH2 0x614 DUP4 PUSH1 0x18 PUSH2 0xE9F JUMP JUMPDEST PUSH1 0xFF AND SWAP1 POP PUSH1 0xC DUP1 DUP1 SLOAD SWAP1 POP DUP3 PUSH2 0x62B SWAP2 SWAP1 PUSH2 0x13A7 JUMP JUMPDEST DUP2 SLOAD DUP2 LT PUSH2 0x63C JUMPI PUSH2 0x63B PUSH2 0x1465 JUMP JUMPDEST JUMPDEST SWAP1 PUSH1 0x0 MSTORE PUSH1 0x20 PUSH1 0x0 KECCAK256 ADD DUP1 SLOAD PUSH2 0x651 SWAP1 PUSH2 0x136B JUMP JUMPDEST DUP1 PUSH1 0x1F ADD PUSH1 0x20 DUP1 SWAP2 DIV MUL PUSH1 0x20 ADD PUSH1 0x40 MLOAD SWAP1 DUP2 ADD PUSH1 0x40 MSTORE DUP1 SWAP3 SWAP2 SWAP1 DUP2 DUP2 MSTORE PUSH1 0x20 ADD DUP3 DUP1 SLOAD PUSH2 0x67D SWAP1 PUSH2 0x136B JUMP JUMPDEST DUP1 ISZERO PUSH2 0x6CA JUMPI DUP1 PUSH1 0x1F LT PUSH2 0x69F JUMPI PUSH2 0x100 DUP1 DUP4 SLOAD DIV MUL DUP4 MSTORE SWAP2 PUSH1 0x20 ADD SWAP2 PUSH2 0x6CA JUMP JUMPDEST DUP3 ADD SWAP2 SWAP1 PUSH1 0x0 MSTORE PUSH1 0x20 PUSH1 0x0 KECCAK256 SWAP1 JUMPDEST DUP2 SLOAD DUP2 MSTORE SWAP1 PUSH1 0x1 ADD SWAP1 PUSH1 0x20 ADD DUP1 DUP4 GT PUSH2 0x6AD JUMPI DUP3 SWAP1 SUB PUSH1 0x1F AND DUP3 ADD SWAP2 JUMPDEST POP POP POP POP POP SWAP2 POP POP SWAP2 SWAP1 POP JUMP JUMPDEST PUSH1 0x60 PUSH1 0x0 PUSH2 0x6E6 DUP4 PUSH1 0x16 PUSH2 0xE9F JUMP JUMPDEST PUSH1 0xFF AND SWAP1 POP PUSH1 0xB DUP1 DUP1 SLOAD SWAP1 POP DUP3 PUSH2 0x6FD SWAP2 SWAP1 PUSH2 0x13A7 JUMP JUMPDEST DUP2 SLOAD DUP2 LT PUSH2 0x70E JUMPI PUSH2 0x70D PUSH2 0x1465 JUMP JUMPDEST JUMPDEST SWAP1 PUSH1 0x0 MSTORE PUSH1 0x20 PUSH1 0x0 KECCAK256 ADD DUP1 SLOAD PUSH2 0x723 SWAP1 PUSH2 0x136B JUMP JUMPDEST DUP1 PUSH1 0x1F ADD PUSH1 0x20 DUP1 SWAP2 DIV MUL PUSH1 0x20 ADD PUSH1 0x40 MLOAD SWAP1 DUP2 ADD PUSH1 0x40 MSTORE DUP1 SWAP3 SWAP2 SWAP1 DUP2 DUP2 MSTORE PUSH1 0x20 ADD DUP3 DUP1 SLOAD PUSH2 0x74F SWAP1 PUSH2 0x136B JUMP JUMPDEST DUP1 ISZERO PUSH2 0x79C JUMPI DUP1 PUSH1 0x1F LT PUSH2 0x771 JUMPI PUSH2 0x100 DUP1 DUP4 SLOAD DIV MUL DUP4 MSTORE SWAP2 PUSH1 0x20 ADD SWAP2 PUSH2 0x79C JUMP JUMPDEST DUP3 ADD SWAP2 SWAP1 PUSH1 0x0 MSTORE PUSH1 0x20 PUSH1 0x0 KECCAK256 SWAP1 JUMPDEST DUP2 SLOAD DUP2 MSTORE SWAP1 PUSH1 0x1 ADD SWAP1 PUSH1 0x20 ADD DUP1 DUP4 GT PUSH2 0x77F JUMPI DUP3 SWAP1 SUB PUSH1 0x1F AND DUP3 ADD SWAP2 JUMPDEST POP POP POP POP POP SWAP2 POP POP SWAP2 SWAP1 POP JUMP JUMPDEST PUSH1 0x60 PUSH1 0x0 PUSH2 0x7B8 DUP4 PUSH1 0x0 PUSH2 0xE9F JUMP JUMPDEST PUSH1 0xFF AND SWAP1 POP PUSH1 0x0 DUP1 DUP1 SLOAD SWAP1 POP DUP3 PUSH2 0x7CF SWAP2 SWAP1 PUSH2 0x13A7 JUMP JUMPDEST DUP2 SLOAD DUP2 LT PUSH2 0x7E0 JUMPI PUSH2 0x7DF PUSH2 0x1465 JUMP JUMPDEST JUMPDEST SWAP1 PUSH1 0x0 MSTORE PUSH1 0x20 PUSH1 0x0 KECCAK256 ADD DUP1 SLOAD PUSH2 0x7F5 SWAP1 PUSH2 0x136B JUMP JUMPDEST DUP1 PUSH1 0x1F ADD PUSH1 0x20 DUP1 SWAP2 DIV MUL PUSH1 0x20 ADD PUSH1 0x40 MLOAD SWAP1 DUP2 ADD PUSH1 0x40 MSTORE DUP1 SWAP3 SWAP2 SWAP1 DUP2 DUP2 MSTORE PUSH1 0x20 ADD DUP3 DUP1 SLOAD PUSH2 0x821 SWAP1 PUSH2 0x136B JUMP JUMPDEST DUP1 ISZERO PUSH2 0x86E JUMPI DUP1 PUSH1 0x1F LT PUSH2 0x843 JUMPI PUSH2 0x100 DUP1 DUP4 SLOAD DIV MUL DUP4 MSTORE SWAP2 PUSH1 0x20 ADD SWAP2 PUSH2 0x86E JUMP JUMPDEST DUP3 ADD SWAP2 SWAP1 PUSH1 0x0 MSTORE PUSH1 0x20 PUSH1 0x0 KECCAK256 SWAP1 JUMPDEST DUP2 SLOAD DUP2 MSTORE SWAP1 PUSH1 0x1 ADD SWAP1 PUSH1 0x20 ADD DUP1 DUP4 GT PUSH2 0x851 JUMPI DUP3 SWAP1 SUB PUSH1 0x1F AND DUP3 ADD SWAP2 JUMPDEST POP POP POP POP POP SWAP2 POP POP SWAP2 SWAP1 POP JUMP JUMPDEST PUSH1 0x60 PUSH1 0x0 PUSH2 0x88A DUP4 PUSH1 0x6 PUSH2 0xE9F JUMP JUMPDEST PUSH1 0xFF AND SWAP1 POP PUSH1 0x3 DUP1 DUP1 SLOAD SWAP1 POP DUP3 PUSH2 0x8A1 SWAP2 SWAP1 PUSH2 0x13A7 JUMP JUMPDEST DUP2 SLOAD DUP2 LT PUSH2 0x8B2 JUMPI PUSH2 0x8B1 PUSH2 0x1465 JUMP JUMPDEST JUMPDEST SWAP1 PUSH1 0x0 MSTORE PUSH1 0x20 PUSH1 0x0 KECCAK256 ADD DUP1 SLOAD PUSH2 0x8C7 SWAP1 PUSH2 0x136B JUMP JUMPDEST DUP1 PUSH1 0x1F ADD PUSH1 0x20 DUP1 SWAP2 DIV MUL PUSH1 0x20 ADD PUSH1 0x40 MLOAD SWAP1 DUP2 ADD PUSH1 0x40 MSTORE DUP1 SWAP3 SWAP2 SWAP1 DUP2 DUP2 MSTORE PUSH1 0x20 ADD DUP3 DUP1 SLOAD PUSH2 0x8F3 SWAP1 PUSH2 0x136B JUMP JUMPDEST DUP1 ISZERO PUSH2 0x940 JUMPI DUP1 PUSH1 0x1F LT PUSH2 0x915 JUMPI PUSH2 0x100 DUP1 DUP4 SLOAD DIV MUL DUP4 MSTORE SWAP2 PUSH1 0x20 ADD SWAP2 PUSH2 0x940 JUMP JUMPDEST DUP3 ADD SWAP2 SWAP1 PUSH1 0x0 MSTORE PUSH1 0x20 PUSH1 0x0 KECCAK256 SWAP1 JUMPDEST DUP2 SLOAD DUP2 MSTORE SWAP1 PUSH1 0x1 ADD SWAP1 PUSH1 0x20 ADD DUP1 DUP4 GT PUSH2 0x923 JUMPI DUP3 SWAP1 SUB PUSH1 0x1F AND DUP3 ADD SWAP2 JUMPDEST POP POP POP POP POP SWAP2 POP POP SWAP2 SWAP1 POP JUMP JUMPDEST PUSH1 0x60 PUSH1 0x0 PUSH2 0x95C DUP4 PUSH1 0x12 PUSH2 0xE9F JUMP JUMPDEST PUSH1 0xFF AND SWAP1 POP PUSH1 0x9 DUP1 DUP1 SLOAD SWAP1 POP DUP3 PUSH2 0x973 SWAP2 SWAP1 PUSH2 0x13A7 JUMP JUMPDEST DUP2 SLOAD DUP2 LT PUSH2 0x984 JUMPI PUSH2 0x983 PUSH2 0x1465 JUMP JUMPDEST JUMPDEST SWAP1 PUSH1 0x0 MSTORE PUSH1 0x20 PUSH1 0x0 KECCAK256 ADD DUP1 SLOAD PUSH2 0x999 SWAP1 PUSH2 0x136B JUMP JUMPDEST DUP1 PUSH1 0x1F ADD PUSH1 0x20 DUP1 SWAP2 DIV MUL PUSH1 0x20 ADD PUSH1 0x40 MLOAD SWAP1 DUP2 ADD PUSH1 0x40 MSTORE DUP1 SWAP3 SWAP2 SWAP1 DUP2 DUP2 MSTORE PUSH1 0x20 ADD DUP3 DUP1 SLOAD PUSH2 0x9C5 SWAP1 PUSH2 0x136B JUMP JUMPDEST DUP1 ISZERO PUSH2 0xA12 JUMPI DUP1 PUSH1 0x1F LT PUSH2 0x9E7 JUMPI PUSH2 0x100 DUP1 DUP4 SLOAD DIV MUL DUP4 MSTORE SWAP2 PUSH1 0x20 ADD SWAP2 PUSH2 0xA12 JUMP JUMPDEST DUP3 ADD SWAP2 SWAP1 PUSH1 0x0 MSTORE PUSH1 0x20 PUSH1 0x0 KECCAK256 SWAP1 JUMPDEST DUP2 SLOAD DUP2 MSTORE SWAP1 PUSH1 0x1 ADD SWAP1 PUSH1 0x20 ADD DUP1 DUP4 GT PUSH2 0x9F5 JUMPI DUP3 SWAP1 SUB PUSH1 0x1F AND DUP3 ADD SWAP2 JUMPDEST POP POP POP POP POP SWAP2 POP POP SWAP2 SWAP1 POP JUMP JUMPDEST PUSH1 0x0 DUP1 DUP3 PUSH20 0xFFFFFFFFFFFFFFFFFFFFFFFFFFFFFFFFFFFFFFFF AND DUP5 PUSH2 0xA44 SWAP2 SWAP1 PUSH2 0x1066 JUMP JUMPDEST SWAP1 POP PUSH1 0x0 DUP2 PUSH1 0x40 MLOAD PUSH1 0x20 ADD PUSH2 0xA59 SWAP2 SWAP1 PUSH2 0xFF2 JUMP JUMPDEST PUSH1 0x40 MLOAD PUSH1 0x20 DUP2 DUP4 SUB SUB DUP2 MSTORE SWAP1 PUSH1 0x40 MSTORE SWAP1 POP PUSH1 0x0 DUP2 DUP1 MLOAD SWAP1 PUSH1 0x20 ADD KECCAK256 SWAP1 POP DUP1 PUSH1 0x0 SHR SWAP4 POP POP POP POP SWAP3 SWAP2 POP POP JUMP JUMPDEST PUSH1 0x60 PUSH1 0x0 PUSH2 0xA94 DUP4 PUSH1 0x10 PUSH2 0xE9F JUMP JUMPDEST PUSH1 0xFF AND SWAP1 POP PUSH1 0x8 DUP1 DUP1 SLOAD SWAP1 POP DUP3 PUSH2 0xAAB SWAP2 SWAP1 PUSH2 0x13A7 JUMP JUMPDEST DUP2 SLOAD DUP2 LT PUSH2 0xABC JUMPI PUSH2 0xABB PUSH2 0x1465 JUMP JUMPDEST JUMPDEST SWAP1 PUSH1 0x0 MSTORE PUSH1 0x20 PUSH1 0x0 KECCAK256 ADD DUP1 SLOAD PUSH2 0xAD1 SWAP1 PUSH2 0x136B JUMP JUMPDEST DUP1 PUSH1 0x1F ADD PUSH1 0x20 DUP1 SWAP2 DIV MUL PUSH1 0x20 ADD PUSH1 0x40 MLOAD SWAP1 DUP2 ADD PUSH1 0x40 MSTORE DUP1 SWAP3 SWAP2 SWAP1 DUP2 DUP2 MSTORE PUSH1 0x20 ADD DUP3 DUP1 SLOAD PUSH2 0xAFD SWAP1 PUSH2 0x136B JUMP JUMPDEST DUP1 ISZERO PUSH2 0xB4A JUMPI DUP1 PUSH1 0x1F LT PUSH2 0xB1F JUMPI PUSH2 0x100 DUP1 DUP4 SLOAD DIV MUL DUP4 MSTORE SWAP2 PUSH1 0x20 ADD SWAP2 PUSH2 0xB4A JUMP JUMPDEST DUP3 ADD SWAP2 SWAP1 PUSH1 0x0 MSTORE PUSH1 0x20 PUSH1 0x0 KECCAK256 SWAP1 JUMPDEST DUP2 SLOAD DUP2 MSTORE SWAP1 PUSH1 0x1 ADD SWAP1 PUSH1 0x20 ADD DUP1 DUP4 GT PUSH2 0xB2D JUMPI DUP3 SWAP1 SUB PUSH1 0x1F AND DUP3 ADD SWAP2 JUMPDEST POP POP POP POP POP SWAP2 POP POP SWAP2 SWAP1 POP JUMP JUMPDEST PUSH1 0x60 PUSH1 0x0 PUSH2 0xB66 DUP4 PUSH1 0xE PUSH2 0xE9F JUMP JUMPDEST PUSH1 0xFF AND SWAP1 POP PUSH1 0x7 DUP1 DUP1 SLOAD SWAP1 POP DUP3 PUSH2 0xB7D SWAP2 SWAP1 PUSH2 0x13A7 JUMP JUMPDEST DUP2 SLOAD DUP2 LT PUSH2 0xB8E JUMPI PUSH2 0xB8D PUSH2 0x1465 JUMP JUMPDEST JUMPDEST SWAP1 PUSH1 0x0 MSTORE PUSH1 0x20 PUSH1 0x0 KECCAK256 ADD DUP1 SLOAD PUSH2 0xBA3 SWAP1 PUSH2 0x136B JUMP JUMPDEST DUP1 PUSH1 0x1F ADD PUSH1 0x20 DUP1 SWAP2 DIV MUL PUSH1 0x20 ADD PUSH1 0x40 MLOAD SWAP1 DUP2 ADD PUSH1 0x40 MSTORE DUP1 SWAP3 SWAP2 SWAP1 DUP2 DUP2 MSTORE PUSH1 0x20 ADD DUP3 DUP1 SLOAD PUSH2 0xBCF SWAP1 PUSH2 0x136B JUMP JUMPDEST DUP1 ISZERO PUSH2 0xC1C JUMPI DUP1 PUSH1 0x1F LT PUSH2 0xBF1 JUMPI PUSH2 0x100 DUP1 DUP4 SLOAD DIV MUL DUP4 MSTORE SWAP2 PUSH1 0x20 ADD SWAP2 PUSH2 0xC1C JUMP JUMPDEST DUP3 ADD SWAP2 SWAP1 PUSH1 0x0 MSTORE PUSH1 0x20 PUSH1 0x0 KECCAK256 SWAP1 JUMPDEST DUP2 SLOAD DUP2 MSTORE SWAP1 PUSH1 0x1 ADD SWAP1 PUSH1 0x20 ADD DUP1 DUP4 GT PUSH2 0xBFF JUMPI DUP3 SWAP1 SUB PUSH1 0x1F AND DUP3 ADD SWAP2 JUMPDEST POP POP POP POP POP SWAP2 POP POP SWAP2 SWAP1 POP JUMP JUMPDEST PUSH1 0x60 PUSH1 0x0 PUSH2 0xC38 DUP4 PUSH1 0x2 PUSH2 0xE9F JUMP JUMPDEST PUSH1 0xFF AND SWAP1 POP PUSH1 0x1 DUP1 DUP1 SLOAD SWAP1 POP DUP3 PUSH2 0xC4F SWAP2 SWAP1 PUSH2 0x13A7 JUMP JUMPDEST DUP2 SLOAD DUP2 LT PUSH2 0xC60 JUMPI PUSH2 0xC5F PUSH2 0x1465 JUMP JUMPDEST JUMPDEST SWAP1 PUSH1 0x0 MSTORE PUSH1 0x20 PUSH1 0x0 KECCAK256 ADD DUP1 SLOAD PUSH2 0xC75 SWAP1 PUSH2 0x136B JUMP JUMPDEST DUP1 PUSH1 0x1F ADD PUSH1 0x20 DUP1 SWAP2 DIV MUL PUSH1 0x20 ADD PUSH1 0x40 MLOAD SWAP1 DUP2 ADD PUSH1 0x40 MSTORE DUP1 SWAP3 SWAP2 SWAP1 DUP2 DUP2 MSTORE PUSH1 0x20 ADD DUP3 DUP1 SLOAD PUSH2 0xCA1 SWAP1 PUSH2 0x136B JUMP JUMPDEST DUP1 ISZERO PUSH2 0xCEE JUMPI DUP1 PUSH1 0x1F LT PUSH2 0xCC3 JUMPI PUSH2 0x100 DUP1 DUP4 SLOAD DIV MUL DUP4 MSTORE SWAP2 PUSH1 0x20 ADD SWAP2 PUSH2 0xCEE JUMP JUMPDEST DUP3 ADD SWAP2 SWAP1 PUSH1 0x0 MSTORE PUSH1 0x20 PUSH1 0x0 KECCAK256 SWAP1 JUMPDEST DUP2 SLOAD DUP2 MSTORE SWAP1 PUSH1 0x1 ADD SWAP1 PUSH1 0x20 ADD DUP1 DUP4 GT PUSH2 0xCD1 JUMPI DUP3 SWAP1 SUB PUSH1 0x1F AND DUP3 ADD SWAP2 JUMPDEST POP POP POP POP POP SWAP2 POP POP SWAP2 SWAP1 POP JUMP JUMPDEST PUSH1 0x60 PUSH1 0x0 PUSH2 0xD0A DUP4 PUSH1 0xA PUSH2 0xE9F JUMP JUMPDEST PUSH1 0xFF AND SWAP1 POP PUSH1 0x5 DUP1 DUP1 SLOAD SWAP1 POP DUP3 PUSH2 0xD21 SWAP2 SWAP1 PUSH2 0x13A7 JUMP JUMPDEST DUP2 SLOAD DUP2 LT PUSH2 0xD32 JUMPI PUSH2 0xD31 PUSH2 0x1465 JUMP JUMPDEST JUMPDEST SWAP1 PUSH1 0x0 MSTORE PUSH1 0x20 PUSH1 0x0 KECCAK256 ADD DUP1 SLOAD PUSH2 0xD47 SWAP1 PUSH2 0x136B JUMP JUMPDEST DUP1 PUSH1 0x1F ADD PUSH1 0x20 DUP1 SWAP2 DIV MUL PUSH1 0x20 ADD PUSH1 0x40 MLOAD SWAP1 DUP2 ADD PUSH1 0x40 MSTORE DUP1 SWAP3 SWAP2 SWAP1 DUP2 DUP2 MSTORE PUSH1 0x20 ADD DUP3 DUP1 SLOAD PUSH2 0xD73 SWAP1 PUSH2 0x136B JUMP JUMPDEST DUP1 ISZERO PUSH2 0xDC0 JUMPI DUP1 PUSH1 0x1F LT PUSH2 0xD95 JUMPI PUSH2 0x100 DUP1 DUP4 SLOAD DIV MUL DUP4 MSTORE SWAP2 PUSH1 0x20 ADD SWAP2 PUSH2 0xDC0 JUMP JUMPDEST DUP3 ADD SWAP2 SWAP1 PUSH1 0x0 MSTORE PUSH1 0x20 PUSH1 0x0 KECCAK256 SWAP1 JUMPDEST DUP2 SLOAD DUP2 MSTORE SWAP1 PUSH1 0x1 ADD SWAP1 PUSH1 0x20 ADD DUP1 DUP4 GT PUSH2 0xDA3 JUMPI DUP3 SWAP1 SUB PUSH1 0x1F AND DUP3 ADD SWAP2 JUMPDEST POP POP POP POP POP SWAP2 POP POP SWAP2 SWAP1 POP JUMP JUMPDEST PUSH1 0x60 PUSH1 0x0 PUSH2 0xDDC DUP4 PUSH1 0xC PUSH2 0xE9F JUMP JUMPDEST PUSH1 0xFF AND SWAP1 POP PUSH1 0x6 DUP1 DUP1 SLOAD SWAP1 POP DUP3 PUSH2 0xDF3 SWAP2 SWAP1 PUSH2 0x13A7 JUMP JUMPDEST DUP2 SLOAD DUP2 LT PUSH2 0xE04 JUMPI PUSH2 0xE03 PUSH2 0x1465 JUMP JUMPDEST JUMPDEST SWAP1 PUSH1 0x0 MSTORE PUSH1 0x20 PUSH1 0x0 KECCAK256 ADD DUP1 SLOAD PUSH2 0xE19 SWAP1 PUSH2 0x136B JUMP JUMPDEST DUP1 PUSH1 0x1F ADD PUSH1 0x20 DUP1 SWAP2 DIV MUL PUSH1 0x20 ADD PUSH1 0x40 MLOAD SWAP1 DUP2 ADD PUSH1 0x40 MSTORE DUP1 SWAP3 SWAP2 SWAP1 DUP2 DUP2 MSTORE PUSH1 0x20 ADD DUP3 DUP1 SLOAD PUSH2 0xE45 SWAP1 PUSH2 0x136B JUMP JUMPDEST DUP1 ISZERO PUSH2 0xE92 JUMPI DUP1 PUSH1 0x1F LT PUSH2 0xE67 JUMPI PUSH2 0x100 DUP1 DUP4 SLOAD DIV MUL DUP4 MSTORE SWAP2 PUSH1 0x20 ADD SWAP2 PUSH2 0xE92 JUMP JUMPDEST DUP3 ADD SWAP2 SWAP1 PUSH1 0x0 MSTORE PUSH1 0x20 PUSH1 0x0 KECCAK256 SWAP1 JUMPDEST DUP2 SLOAD DUP2 MSTORE SWAP1 PUSH1 0x1 ADD SWAP1 PUSH1 0x20 ADD DUP1 DUP4 GT PUSH2 0xE75 JUMPI DUP3 SWAP1 SUB PUSH1 0x1F AND DUP3 ADD SWAP2 JUMPDEST POP POP POP POP POP SWAP2 POP POP SWAP2 SWAP1 POP JUMP JUMPDEST PUSH1 0x0 DUP2 PUSH1 0xA PUSH2 0xEAE SWAP2 SWAP1 PUSH2 0x1177 JUMP JUMPDEST PUSH1 0x1 PUSH2 0xEBA SWAP2 SWAP1 PUSH2 0x1295 JUMP JUMPDEST PUSH1 0x2 DUP4 PUSH2 0xEC7 SWAP2 SWAP1 PUSH2 0x10BC JUMP JUMPDEST PUSH1 0xA PUSH2 0xED3 SWAP2 SWAP1 PUSH2 0x1177 JUMP JUMPDEST PUSH1 0x1 PUSH2 0xEDF SWAP2 SWAP1 PUSH2 0x1295 JUMP JUMPDEST DUP5 PUSH2 0xEEA SWAP2 SWAP1 PUSH2 0x13A7 JUMP JUMPDEST PUSH2 0xEF4 SWAP2 SWAP1 PUSH2 0x10F3 JUMP JUMPDEST SWAP1 POP SWAP3 SWAP2 POP POP JUMP JUMPDEST PUSH1 0x0 DUP2 CALLDATALOAD SWAP1 POP PUSH2 0xF0B DUP2 PUSH2 0x14B7 JUMP JUMPDEST SWAP3 SWAP2 POP POP JUMP JUMPDEST PUSH1 0x0 DUP2 CALLDATALOAD SWAP1 POP PUSH2 0xF20 DUP2 PUSH2 0x14CE JUMP JUMPDEST SWAP3 SWAP2 POP POP JUMP JUMPDEST PUSH1 0x0 PUSH1 0x20 DUP3 DUP5 SUB SLT ISZERO PUSH2 0xF3C JUMPI PUSH2 0xF3B PUSH2 0x1494 JUMP JUMPDEST JUMPDEST PUSH1 0x0 PUSH2 0xF4A DUP5 DUP3 DUP6 ADD PUSH2 0xF11 JUMP JUMPDEST SWAP2 POP POP SWAP3 SWAP2 POP POP JUMP JUMPDEST PUSH1 0x0 DUP1 PUSH1 0x40 DUP4 DUP6 SUB SLT ISZERO PUSH2 0xF6A JUMPI PUSH2 0xF69 PUSH2 0x1494 JUMP JUMPDEST JUMPDEST PUSH1 0x0 PUSH2 0xF78 DUP6 DUP3 DUP7 ADD PUSH2 0xF11 JUMP JUMPDEST SWAP3 POP POP PUSH1 0x20 PUSH2 0xF89 DUP6 DUP3 DUP7 ADD PUSH2 0xEFC JUMP JUMPDEST SWAP2 POP POP SWAP3 POP SWAP3 SWAP1 POP JUMP JUMPDEST PUSH1 0x0 PUSH2 0xF9E DUP3 PUSH2 0x104A JUMP JUMPDEST PUSH2 0xFA8 DUP2 DUP6 PUSH2 0x1055 JUMP JUMPDEST SWAP4 POP PUSH2 0xFB8 DUP2 DUP6 PUSH1 0x20 DUP7 ADD PUSH2 0x1338 JUMP JUMPDEST PUSH2 0xFC1 DUP2 PUSH2 0x1499 JUMP JUMPDEST DUP5 ADD SWAP2 POP POP SWAP3 SWAP2 POP POP JUMP JUMPDEST PUSH2 0xFD5 DUP2 PUSH2 0x1321 JUMP JUMPDEST DUP3 MSTORE POP POP JUMP JUMPDEST PUSH2 0xFEC PUSH2 0xFE7 DUP3 PUSH2 0x1321 JUMP JUMPDEST PUSH2 0x139D JUMP JUMPDEST DUP3 MSTORE POP POP JUMP JUMPDEST PUSH1 0x0 PUSH2 0xFFE DUP3 DUP5 PUSH2 0xFDB JUMP JUMPDEST PUSH1 0x20 DUP3 ADD SWAP2 POP DUP2 SWAP1 POP SWAP3 SWAP2 POP POP JUMP JUMPDEST PUSH1 0x0 PUSH1 0x20 DUP3 ADD SWAP1 POP DUP2 DUP2 SUB PUSH1 0x0 DUP4 ADD MSTORE PUSH2 0x1027 DUP2 DUP5 PUSH2 0xF93 JUMP JUMPDEST SWAP1 POP SWAP3 SWAP2 POP POP JUMP JUMPDEST PUSH1 0x0 PUSH1 0x20 DUP3 ADD SWAP1 POP PUSH2 0x1044 PUSH1 0x0 DUP4 ADD DUP5 PUSH2 0xFCC JUMP JUMPDEST SWAP3 SWAP2 POP POP JUMP JUMPDEST PUSH1 0x0 DUP2 MLOAD SWAP1 POP SWAP2 SWAP1 POP JUMP JUMPDEST PUSH1 0x0 DUP3 DUP3 MSTORE PUSH1 0x20 DUP3 ADD SWAP1 POP SWAP3 SWAP2 POP POP JUMP JUMPDEST PUSH1 0x0 PUSH2 0x1071 DUP3 PUSH2 0x1321 JUMP JUMPDEST SWAP2 POP PUSH2 0x107C DUP4 PUSH2 0x1321 JUMP JUMPDEST SWAP3 POP DUP3 PUSH32 0xFFFFFFFFFFFFFFFFFFFFFFFFFFFFFFFFFFFFFFFFFFFFFFFFFFFFFFFFFFFFFFFF SUB DUP3 GT ISZERO PUSH2 0x10B1 JUMPI PUSH2 0x10B0 PUSH2 0x13D8 JUMP JUMPDEST JUMPDEST DUP3 DUP3 ADD SWAP1 POP SWAP3 SWAP2 POP POP JUMP JUMPDEST PUSH1 0x0 PUSH2 0x10C7 DUP3 PUSH2 0x132B JUMP JUMPDEST SWAP2 POP PUSH2 0x10D2 DUP4 PUSH2 0x132B JUMP JUMPDEST SWAP3 POP DUP3 PUSH1 0xFF SUB DUP3 GT ISZERO PUSH2 0x10E8 JUMPI PUSH2 0x10E7 PUSH2 0x13D8 JUMP JUMPDEST JUMPDEST DUP3 DUP3 ADD SWAP1 POP SWAP3 SWAP2 POP POP JUMP JUMPDEST PUSH1 0x0 PUSH2 0x10FE DUP3 PUSH2 0x1321 JUMP JUMPDEST SWAP2 POP PUSH2 0x1109 DUP4 PUSH2 0x1321 JUMP JUMPDEST SWAP3 POP DUP3 PUSH2 0x1119 JUMPI PUSH2 0x1118 PUSH2 0x1407 JUMP JUMPDEST JUMPDEST DUP3 DUP3 DIV SWAP1 POP SWAP3 SWAP2 POP POP JUMP JUMPDEST PUSH1 0x0 DUP1 DUP3 SWAP2 POP DUP4 SWAP1 POP JUMPDEST PUSH1 0x1 DUP6 GT ISZERO PUSH2 0x116E JUMPI DUP1 DUP7 DIV DUP2 GT ISZERO PUSH2 0x114A JUMPI PUSH2 0x1149 PUSH2 0x13D8 JUMP JUMPDEST JUMPDEST PUSH1 0x1 DUP6 AND ISZERO PUSH2 0x1159 JUMPI DUP1 DUP3 MUL SWAP2 POP JUMPDEST DUP1 DUP2 MUL SWAP1 POP PUSH2 0x1167 DUP6 PUSH2 0x14AA JUMP JUMPDEST SWAP5 POP PUSH2 0x112E JUMP JUMPDEST SWAP5 POP SWAP5 SWAP3 POP POP POP JUMP JUMPDEST PUSH1 0x0 PUSH2 0x1182 DUP3 PUSH2 0x1321 JUMP JUMPDEST SWAP2 POP PUSH2 0x118D DUP4 PUSH2 0x132B JUMP JUMPDEST SWAP3 POP PUSH2 0x11BA PUSH32 0xFFFFFFFFFFFFFFFFFFFFFFFFFFFFFFFFFFFFFFFFFFFFFFFFFFFFFFFFFFFFFFFF DUP5 DUP5 PUSH2 0x11C2 JUMP JUMPDEST SWAP1 POP SWAP3 SWAP2 POP POP JUMP JUMPDEST PUSH1 0x0 DUP3 PUSH2 0x11D2 JUMPI PUSH1 0x1 SWAP1 POP PUSH2 0x128E JUMP JUMPDEST DUP2 PUSH2 0x11E0 JUMPI PUSH1 0x0 SWAP1 POP PUSH2 0x128E JUMP JUMPDEST DUP2 PUSH1 0x1 DUP2 EQ PUSH2 0x11F6 JUMPI PUSH1 0x2 DUP2 EQ PUSH2 0x1200 JUMPI PUSH2 0x122F JUMP JUMPDEST PUSH1 0x1 SWAP2 POP POP PUSH2 0x128E JUMP JUMPDEST PUSH1 0xFF DUP5 GT ISZERO PUSH2 0x1212 JUMPI PUSH2 0x1211 PUSH2 0x13D8 JUMP JUMPDEST JUMPDEST DUP4 PUSH1 0x2 EXP SWAP2 POP DUP5 DUP3 GT ISZERO PUSH2 0x1229 JUMPI PUSH2 0x1228 PUSH2 0x13D8 JUMP JUMPDEST JUMPDEST POP PUSH2 0x128E JUMP JUMPDEST POP PUSH1 0x20 DUP4 LT PUSH2 0x133 DUP4 LT AND PUSH1 0x4E DUP5 LT PUSH1 0xB DUP5 LT AND OR ISZERO PUSH2 0x1264 JUMPI DUP3 DUP3 EXP SWAP1 POP DUP4 DUP2 GT ISZERO PUSH2 0x125F JUMPI PUSH2 0x125E PUSH2 0x13D8 JUMP JUMPDEST JUMPDEST PUSH2 0x128E JUMP JUMPDEST PUSH2 0x1271 DUP5 DUP5 DUP5 PUSH1 0x1 PUSH2 0x1124 JUMP JUMPDEST SWAP3 POP SWAP1 POP DUP2 DUP5 DIV DUP2 GT ISZERO PUSH2 0x1288 JUMPI PUSH2 0x1287 PUSH2 0x13D8 JUMP JUMPDEST JUMPDEST DUP2 DUP2 MUL SWAP1 POP JUMPDEST SWAP4 SWAP3 POP POP POP JUMP JUMPDEST PUSH1 0x0 PUSH2 0x12A0 DUP3 PUSH2 0x1321 JUMP JUMPDEST SWAP2 POP PUSH2 0x12AB DUP4 PUSH2 0x1321 JUMP JUMPDEST SWAP3 POP DUP2 PUSH32 0xFFFFFFFFFFFFFFFFFFFFFFFFFFFFFFFFFFFFFFFFFFFFFFFFFFFFFFFFFFFFFFFF DIV DUP4 GT DUP3 ISZERO ISZERO AND ISZERO PUSH2 0x12E4 JUMPI PUSH2 0x12E3 PUSH2 0x13D8 JUMP JUMPDEST JUMPDEST DUP3 DUP3 MUL SWAP1 POP SWAP3 SWAP2 POP POP JUMP JUMPDEST PUSH1 0x0 PUSH2 0x12FA DUP3 PUSH2 0x1301 JUMP JUMPDEST SWAP1 POP SWAP2 SWAP1 POP JUMP JUMPDEST PUSH1 0x0 PUSH20 0xFFFFFFFFFFFFFFFFFFFFFFFFFFFFFFFFFFFFFFFF DUP3 AND SWAP1 POP SWAP2 SWAP1 POP JUMP JUMPDEST PUSH1 0x0 DUP2 SWAP1 POP SWAP2 SWAP1 POP JUMP JUMPDEST PUSH1 0x0 PUSH1 0xFF DUP3 AND SWAP1 POP SWAP2 SWAP1 POP JUMP JUMPDEST PUSH1 0x0 JUMPDEST DUP4 DUP2 LT ISZERO PUSH2 0x1356 JUMPI DUP1 DUP3 ADD MLOAD DUP2 DUP5 ADD MSTORE PUSH1 0x20 DUP2 ADD SWAP1 POP PUSH2 0x133B JUMP JUMPDEST DUP4 DUP2 GT ISZERO PUSH2 0x1365 JUMPI PUSH1 0x0 DUP5 DUP5 ADD MSTORE JUMPDEST POP POP POP POP JUMP JUMPDEST PUSH1 0x0 PUSH1 0x2 DUP3 DIV SWAP1 POP PUSH1 0x1 DUP3 AND DUP1 PUSH2 0x1383 JUMPI PUSH1 0x7F DUP3 AND SWAP2 POP JUMPDEST PUSH1 0x20 DUP3 LT DUP2 EQ ISZERO PUSH2 0x1397 JUMPI PUSH2 0x1396 PUSH2 0x1436 JUMP JUMPDEST JUMPDEST POP SWAP2 SWAP1 POP JUMP JUMPDEST PUSH1 0x0 DUP2 SWAP1 POP SWAP2 SWAP1 POP JUMP JUMPDEST PUSH1 0x0 PUSH2 0x13B2 DUP3 PUSH2 0x1321 JUMP JUMPDEST SWAP2 POP PUSH2 0x13BD DUP4 PUSH2 0x1321 JUMP JUMPDEST SWAP3 POP DUP3 PUSH2 0x13CD JUMPI PUSH2 0x13CC PUSH2 0x1407 JUMP JUMPDEST JUMPDEST DUP3 DUP3 MOD SWAP1 POP SWAP3 SWAP2 POP POP JUMP JUMPDEST PUSH32 0x4E487B7100000000000000000000000000000000000000000000000000000000 PUSH1 0x0 MSTORE PUSH1 0x11 PUSH1 0x4 MSTORE PUSH1 0x24 PUSH1 0x0 REVERT JUMPDEST PUSH32 0x4E487B7100000000000000000000000000000000000000000000000000000000 PUSH1 0x0 MSTORE PUSH1 0x12 PUSH1 0x4 MSTORE PUSH1 0x24 PUSH1 0x0 REVERT JUMPDEST PUSH32 0x4E487B7100000000000000000000000000000000000000000000000000000000 PUSH1 0x0 MSTORE PUSH1 0x22 PUSH1 0x4 MSTORE PUSH1 0x24 PUSH1 0x0 REVERT JUMPDEST PUSH32 0x4E487B7100000000000000000000000000000000000000000000000000000000 PUSH1 0x0 MSTORE PUSH1 0x32 PUSH1 0x4 MSTORE PUSH1 0x24 PUSH1 0x0 REVERT JUMPDEST PUSH1 0x0 DUP1 REVERT JUMPDEST PUSH1 0x0 PUSH1 0x1F NOT PUSH1 0x1F DUP4 ADD AND SWAP1 POP SWAP2 SWAP1 POP JUMP JUMPDEST PUSH1 0x0 DUP2 PUSH1 0x1 SHR SWAP1 POP SWAP2 SWAP1 POP JUMP JUMPDEST PUSH2 0x14C0 DUP2 PUSH2 0x12EF JUMP JUMPDEST DUP2 EQ PUSH2 0x14CB JUMPI PUSH1 0x0 DUP1 REVERT JUMPDEST POP JUMP JUMPDEST PUSH2 0x14D7 DUP2 PUSH2 0x1321 JUMP JUMPDEST DUP2 EQ PUSH2 0x14E2 JUMPI PUSH1 0x0 DUP1 REVERT JUMPDEST POP JUMP INVALID LOG2 PUSH5 0x6970667358 0x22 SLT KECCAK256 0xC3 SWAP4 0x2C 0xAE RETURNDATACOPY SWAP2 0xED 0xC9 PUSH10 0x59C9827A3EAC1802125D EQ PUSH6 0x350A6AEFE2B4 0x24 PUSH4 0x79DBCD64 PUSH20 0x6F6C634300080700330000000000000000000000 "
		},
		"gasEstimates": {
			"creation": {
				"codeDepositCost": "1080600",
				"executionCost": "infinite",
				"totalCost": "infinite"
			},
			"external": {
				"deterministicPseudoRandomDNA(uint256,address)": "infinite",
				"getAccessoriesType(uint256)": "infinite",
				"getClotheColor(uint256)": "infinite",
				"getClotheType(uint256)": "infinite",
				"getEyeBrowType(uint256)": "infinite",
				"getEyeType(uint256)": "infinite",
				"getFacialHairColor(uint256)": "infinite",
				"getFacialHairType(uint256)": "infinite",
				"getGraphicType(uint256)": "infinite",
				"getHairColor(uint256)": "infinite",
				"getHatColor(uint256)": "infinite",
				"getMouthType(uint256)": "infinite",
				"getSkinColor(uint256)": "infinite",
				"getTopType(uint256)": "infinite"
			},
			"internal": {
				"_getDNASection(uint256,uint8)": "infinite"
			}
		},
		"methodIdentifiers": {
			"deterministicPseudoRandomDNA(uint256,address)": "88ee2c16",
			"getAccessoriesType(uint256)": "7ecaef06",
			"getClotheColor(uint256)": "c0496cf5",
			"getClotheType(uint256)": "18a3c0d1",
			"getEyeBrowType(uint256)": "039984ba",
			"getEyeType(uint256)": "84425a84",
			"getFacialHairColor(uint256)": "cc4e5695",
			"getFacialHairType(uint256)": "dac1419e",
			"getGraphicType(uint256)": "8602dd6a",
			"getHairColor(uint256)": "b70930de",
			"getHatColor(uint256)": "a2ec3e9e",
			"getMouthType(uint256)": "425d784f",
			"getSkinColor(uint256)": "73075aff",
			"getTopType(uint256)": "60d58aed"
		}
	},
	"abi": [
		{
			"inputs": [
				{
					"internalType": "uint256",
					"name": "_tokenId",
					"type": "uint256"
				},
				{
					"internalType": "address",
					"name": "_minter",
					"type": "address"
				}
			],
			"name": "deterministicPseudoRandomDNA",
			"outputs": [
				{
					"internalType": "uint256",
					"name": "",
					"type": "uint256"
				}
			],
			"stateMutability": "pure",
			"type": "function"
		},
		{
			"inputs": [
				{
					"internalType": "uint256",
					"name": "_dna",
					"type": "uint256"
				}
			],
			"name": "getAccessoriesType",
			"outputs": [
				{
					"internalType": "string",
					"name": "",
					"type": "string"
				}
			],
			"stateMutability": "view",
			"type": "function"
		},
		{
			"inputs": [
				{
					"internalType": "uint256",
					"name": "_dna",
					"type": "uint256"
				}
			],
			"name": "getClotheColor",
			"outputs": [
				{
					"internalType": "string",
					"name": "",
					"type": "string"
				}
			],
			"stateMutability": "view",
			"type": "function"
		},
		{
			"inputs": [
				{
					"internalType": "uint256",
					"name": "_dna",
					"type": "uint256"
				}
			],
			"name": "getClotheType",
			"outputs": [
				{
					"internalType": "string",
					"name": "",
					"type": "string"
				}
			],
			"stateMutability": "view",
			"type": "function"
		},
		{
			"inputs": [
				{
					"internalType": "uint256",
					"name": "_dna",
					"type": "uint256"
				}
			],
			"name": "getEyeBrowType",
			"outputs": [
				{
					"internalType": "string",
					"name": "",
					"type": "string"
				}
			],
			"stateMutability": "view",
			"type": "function"
		},
		{
			"inputs": [
				{
					"internalType": "uint256",
					"name": "_dna",
					"type": "uint256"
				}
			],
			"name": "getEyeType",
			"outputs": [
				{
					"internalType": "string",
					"name": "",
					"type": "string"
				}
			],
			"stateMutability": "view",
			"type": "function"
		},
		{
			"inputs": [
				{
					"internalType": "uint256",
					"name": "_dna",
					"type": "uint256"
				}
			],
			"name": "getFacialHairColor",
			"outputs": [
				{
					"internalType": "string",
					"name": "",
					"type": "string"
				}
			],
			"stateMutability": "view",
			"type": "function"
		},
		{
			"inputs": [
				{
					"internalType": "uint256",
					"name": "_dna",
					"type": "uint256"
				}
			],
			"name": "getFacialHairType",
			"outputs": [
				{
					"internalType": "string",
					"name": "",
					"type": "string"
				}
			],
			"stateMutability": "view",
			"type": "function"
		},
		{
			"inputs": [
				{
					"internalType": "uint256",
					"name": "_dna",
					"type": "uint256"
				}
			],
			"name": "getGraphicType",
			"outputs": [
				{
					"internalType": "string",
					"name": "",
					"type": "string"
				}
			],
			"stateMutability": "view",
			"type": "function"
		},
		{
			"inputs": [
				{
					"internalType": "uint256",
					"name": "_dna",
					"type": "uint256"
				}
			],
			"name": "getHairColor",
			"outputs": [
				{
					"internalType": "string",
					"name": "",
					"type": "string"
				}
			],
			"stateMutability": "view",
			"type": "function"
		},
		{
			"inputs": [
				{
					"internalType": "uint256",
					"name": "_dna",
					"type": "uint256"
				}
			],
			"name": "getHatColor",
			"outputs": [
				{
					"internalType": "string",
					"name": "",
					"type": "string"
				}
			],
			"stateMutability": "view",
			"type": "function"
		},
		{
			"inputs": [
				{
					"internalType": "uint256",
					"name": "_dna",
					"type": "uint256"
				}
			],
			"name": "getMouthType",
			"outputs": [
				{
					"internalType": "string",
					"name": "",
					"type": "string"
				}
			],
			"stateMutability": "view",
			"type": "function"
		},
		{
			"inputs": [
				{
					"internalType": "uint256",
					"name": "_dna",
					"type": "uint256"
				}
			],
			"name": "getSkinColor",
			"outputs": [
				{
					"internalType": "string",
					"name": "",
					"type": "string"
				}
			],
			"stateMutability": "view",
			"type": "function"
		},
		{
			"inputs": [
				{
					"internalType": "uint256",
					"name": "_dna",
					"type": "uint256"
				}
			],
			"name": "getTopType",
			"outputs": [
				{
					"internalType": "string",
					"name": "",
					"type": "string"
				}
			],
			"stateMutability": "view",
			"type": "function"
		}
	]
}